{
  "address": "0x03D49303832700e152dCDc7FED02852a671457e1",
  "abi": [
    {
      "anonymous": false,
      "inputs": [
        {
          "indexed": false,
          "internalType": "address",
          "name": "authority",
          "type": "address"
        }
      ],
      "name": "AuthorityUpdated",
      "type": "event"
    },
    {
      "inputs": [],
      "name": "authority",
      "outputs": [
        {
          "internalType": "address",
          "name": "",
          "type": "address"
        }
      ],
      "stateMutability": "view",
      "type": "function"
    },
    {
      "inputs": [
        {
          "internalType": "address",
          "name": "newAuthority",
          "type": "address"
        }
      ],
      "name": "setAuthority",
      "outputs": [],
      "stateMutability": "nonpayable",
      "type": "function"
    }
  ],
  "args": [],
  "numDeployments": 4,
  "solcInputHash": "8d8e6e1fbf0edfe343a1be3391dbac70",
  "bytecode": "0x60806040523461001f57610011610024565b6104e761003082396104e790f35b61002a565b60405190565b600080fdfe60806040526004361015610013575b61014e565b61001e60003561003d565b80637a9e5e4b146100385763bf7e214f0361000e57610119565b6100b3565b60e01c90565b60405190565b600080fd5b600080fd5b60018060a01b031690565b61006790610053565b90565b6100738161005e565b0361007a57565b600080fd5b9050359061008c8261006a565b565b906020828203126100a8576100a59160000161007f565b90565b61004e565b60000190565b346100e1576100cb6100c636600461008e565b610388565b6100d3610043565b806100dd816100ad565b0390f35b610049565b60009103126100f157565b61004e565b6100ff9061005e565b9052565b9190610117906000602085019401906100f6565b565b34610149576101293660046100e6565b610145610134610439565b61013c610043565b91829182610103565b0390f35b610049565b600080fd5b60001c90565b60018060a01b031690565b61017061017591610153565b610159565b90565b6101829054610164565b90565b90565b90565b61019f61019a6101a492610185565b610188565b610053565b90565b6101b09061018b565b90565b60209181520190565b60207f7265616479207365740000000000000000000000000000000000000000000000917f4163636573734d616e6167656446616365743a20617574686f7269747920616c60008201520152565b61021760296040926101b3565b610220816101bc565b0190565b61023a906020810190600081830391015261020a565b90565b1561024457565b61024c610043565b62461bcd60e51b81528061026260048201610224565b0390fd5b60207f7920697320746865207a65726f20616464726573730000000000000000000000917f4163636573734d616e6167656446616365743a206e657720617574686f72697460008201520152565b6102c160356040926101b3565b6102ca81610266565b0190565b6102e490602081019060008183039101526102b4565b90565b156102ee57565b6102f6610043565b62461bcd60e51b81528061030c600482016102ce565b0390fd5b60001b90565b9061032760018060a01b0391610310565b9181191691161790565b61034561034061034a92610053565b610188565b610053565b90565b61035690610331565b90565b6103629061034d565b90565b90565b9061037d61037861038492610359565b610365565b8254610316565b9055565b6103bf61039e60006103986104a6565b01610178565b6103b96103b36103ae60006101a7565b61005e565b9161005e565b1461023d565b6103e5816103de6103d86103d360006101a7565b61005e565b9161005e565b14156102e7565b6103f98160006103f36104a6565b01610368565b61042f7f2f658b440c35314f52658ea8a740e05b284cdc84dc9ae01e891f21b8933e7cad91610426610043565b91829182610103565b0390a1565b600090565b610441610434565b50610455600061044f6104a6565b01610178565b90565b90565b90565b61047261046d61047792610458565b610310565b61045b565b90565b6104a37ff3177357ab46d8af007ab3fdb9af81da189e1068fefdc0073dca88a2cab40a0061045e565b90565b6104ae61047a565b9056fea264697066735822122088d433eb30637d702f0e5e48fa7f203e9d4eca75922018ae89cfe6bc78c97df664736f6c63430008180033",
  "devdoc": {
    "kind": "dev",
    "methods": {},
    "version": 1
  },
  "userdoc": {
    "kind": "user",
    "methods": {},
    "version": 1
  },
  "storageLayout": {
    "storage": [],
    "types": null
  }
}