{
  "address": "0x310084421028901A37c890Fb8bD949388668F3eC",
  "abi": [
    {
      "inputs": [
        {
          "internalType": "bytes32",
          "name": "operationId",
          "type": "bytes32"
        }
      ],
      "name": "AccessManagerAlreadyScheduled",
      "type": "error"
    },
    {
      "inputs": [],
      "name": "AccessManagerBadConfirmation",
      "type": "error"
    },
    {
      "inputs": [
        {
          "internalType": "bytes32",
          "name": "operationId",
          "type": "bytes32"
        }
      ],
      "name": "AccessManagerExpired",
      "type": "error"
    },
    {
      "inputs": [
        {
          "internalType": "address",
          "name": "initialAdmin",
          "type": "address"
        }
      ],
      "name": "AccessManagerInvalidInitialAdmin",
      "type": "error"
    },
    {
      "inputs": [
        {
          "internalType": "address",
          "name": "account",
          "type": "address"
        }
      ],
      "name": "AccessManagerLockedAccount",
      "type": "error"
    },
    {
      "inputs": [
        {
          "internalType": "uint64",
          "name": "roleId",
          "type": "uint64"
        }
      ],
      "name": "AccessManagerLockedRole",
      "type": "error"
    },
    {
      "inputs": [
        {
          "internalType": "bytes32",
          "name": "operationId",
          "type": "bytes32"
        }
      ],
      "name": "AccessManagerNotReady",
      "type": "error"
    },
    {
      "inputs": [
        {
          "internalType": "bytes32",
          "name": "operationId",
          "type": "bytes32"
        }
      ],
      "name": "AccessManagerNotScheduled",
      "type": "error"
    },
    {
      "inputs": [
        {
          "internalType": "address",
          "name": "msgsender",
          "type": "address"
        },
        {
          "internalType": "uint64",
          "name": "roleId",
          "type": "uint64"
        }
      ],
      "name": "AccessManagerUnauthorizedAccount",
      "type": "error"
    },
    {
      "inputs": [
        {
          "internalType": "address",
          "name": "caller",
          "type": "address"
        },
        {
          "internalType": "address",
          "name": "target",
          "type": "address"
        },
        {
          "internalType": "bytes4",
          "name": "selector",
          "type": "bytes4"
        }
      ],
      "name": "AccessManagerUnauthorizedCall",
      "type": "error"
    },
    {
      "inputs": [
        {
          "internalType": "address",
          "name": "msgsender",
          "type": "address"
        },
        {
          "internalType": "address",
          "name": "caller",
          "type": "address"
        },
        {
          "internalType": "address",
          "name": "target",
          "type": "address"
        },
        {
          "internalType": "bytes4",
          "name": "selector",
          "type": "bytes4"
        }
      ],
      "name": "AccessManagerUnauthorizedCancel",
      "type": "error"
    },
    {
      "inputs": [
        {
          "internalType": "address",
          "name": "target",
          "type": "address"
        }
      ],
      "name": "AccessManagerUnauthorizedConsume",
      "type": "error"
    },
    {
      "inputs": [
        {
          "internalType": "address",
          "name": "target",
          "type": "address"
        }
      ],
      "name": "AddressEmptyCode",
      "type": "error"
    },
    {
      "inputs": [
        {
          "internalType": "address",
          "name": "account",
          "type": "address"
        }
      ],
      "name": "AddressInsufficientBalance",
      "type": "error"
    },
    {
      "inputs": [],
      "name": "FailedInnerCall",
      "type": "error"
    },
    {
      "inputs": [],
      "name": "InvalidInitialization",
      "type": "error"
    },
    {
      "inputs": [],
      "name": "NotInitializing",
      "type": "error"
    },
    {
      "inputs": [
        {
          "internalType": "uint8",
          "name": "bits",
          "type": "uint8"
        },
        {
          "internalType": "uint256",
          "name": "value",
          "type": "uint256"
        }
      ],
      "name": "SafeCastOverflowedUintDowncast",
      "type": "error"
    },
    {
      "anonymous": false,
      "inputs": [
        {
          "indexed": false,
          "internalType": "uint64",
          "name": "version",
          "type": "uint64"
        }
      ],
      "name": "Initialized",
      "type": "event"
    },
    {
      "anonymous": false,
      "inputs": [
        {
          "indexed": true,
          "internalType": "bytes32",
          "name": "operationId",
          "type": "bytes32"
        },
        {
          "indexed": true,
          "internalType": "uint32",
          "name": "nonce",
          "type": "uint32"
        }
      ],
      "name": "OperationCanceled",
      "type": "event"
    },
    {
      "anonymous": false,
      "inputs": [
        {
          "indexed": true,
          "internalType": "bytes32",
          "name": "operationId",
          "type": "bytes32"
        },
        {
          "indexed": true,
          "internalType": "uint32",
          "name": "nonce",
          "type": "uint32"
        }
      ],
      "name": "OperationExecuted",
      "type": "event"
    },
    {
      "anonymous": false,
      "inputs": [
        {
          "indexed": true,
          "internalType": "bytes32",
          "name": "operationId",
          "type": "bytes32"
        },
        {
          "indexed": true,
          "internalType": "uint32",
          "name": "nonce",
          "type": "uint32"
        },
        {
          "indexed": false,
          "internalType": "uint48",
          "name": "schedule",
          "type": "uint48"
        },
        {
          "indexed": false,
          "internalType": "address",
          "name": "caller",
          "type": "address"
        },
        {
          "indexed": false,
          "internalType": "address",
          "name": "target",
          "type": "address"
        },
        {
          "indexed": false,
          "internalType": "bytes",
          "name": "data",
          "type": "bytes"
        }
      ],
      "name": "OperationScheduled",
      "type": "event"
    },
    {
      "anonymous": false,
      "inputs": [
        {
          "indexed": true,
          "internalType": "uint64",
          "name": "roleId",
          "type": "uint64"
        },
        {
          "indexed": true,
          "internalType": "uint64",
          "name": "admin",
          "type": "uint64"
        }
      ],
      "name": "RoleAdminChanged",
      "type": "event"
    },
    {
      "anonymous": false,
      "inputs": [
        {
          "indexed": true,
          "internalType": "uint64",
          "name": "roleId",
          "type": "uint64"
        },
        {
          "indexed": false,
          "internalType": "uint32",
          "name": "delay",
          "type": "uint32"
        },
        {
          "indexed": false,
          "internalType": "uint48",
          "name": "since",
          "type": "uint48"
        }
      ],
      "name": "RoleGrantDelayChanged",
      "type": "event"
    },
    {
      "anonymous": false,
      "inputs": [
        {
          "indexed": true,
          "internalType": "uint64",
          "name": "roleId",
          "type": "uint64"
        },
        {
          "indexed": true,
          "internalType": "address",
          "name": "account",
          "type": "address"
        },
        {
          "indexed": false,
          "internalType": "uint32",
          "name": "delay",
          "type": "uint32"
        },
        {
          "indexed": false,
          "internalType": "uint48",
          "name": "since",
          "type": "uint48"
        },
        {
          "indexed": false,
          "internalType": "bool",
          "name": "newMember",
          "type": "bool"
        }
      ],
      "name": "RoleGranted",
      "type": "event"
    },
    {
      "anonymous": false,
      "inputs": [
        {
          "indexed": true,
          "internalType": "uint64",
          "name": "roleId",
          "type": "uint64"
        },
        {
          "indexed": true,
          "internalType": "uint64",
          "name": "guardian",
          "type": "uint64"
        }
      ],
      "name": "RoleGuardianChanged",
      "type": "event"
    },
    {
      "anonymous": false,
      "inputs": [
        {
          "indexed": true,
          "internalType": "uint64",
          "name": "roleId",
          "type": "uint64"
        },
        {
          "indexed": false,
          "internalType": "string",
          "name": "label",
          "type": "string"
        }
      ],
      "name": "RoleLabel",
      "type": "event"
    },
    {
      "anonymous": false,
      "inputs": [
        {
          "indexed": true,
          "internalType": "uint64",
          "name": "roleId",
          "type": "uint64"
        },
        {
          "indexed": true,
          "internalType": "address",
          "name": "account",
          "type": "address"
        }
      ],
      "name": "RoleRevoked",
      "type": "event"
    },
    {
      "anonymous": false,
      "inputs": [
        {
          "indexed": true,
          "internalType": "address",
          "name": "target",
          "type": "address"
        },
        {
          "indexed": false,
          "internalType": "uint32",
          "name": "delay",
          "type": "uint32"
        },
        {
          "indexed": false,
          "internalType": "uint48",
          "name": "since",
          "type": "uint48"
        }
      ],
      "name": "TargetAdminDelayUpdated",
      "type": "event"
    },
    {
      "anonymous": false,
      "inputs": [
        {
          "indexed": true,
          "internalType": "address",
          "name": "target",
          "type": "address"
        },
        {
          "indexed": false,
          "internalType": "bool",
          "name": "closed",
          "type": "bool"
        }
      ],
      "name": "TargetClosed",
      "type": "event"
    },
    {
      "anonymous": false,
      "inputs": [
        {
          "indexed": true,
          "internalType": "address",
          "name": "target",
          "type": "address"
        },
        {
          "indexed": false,
          "internalType": "bytes4",
          "name": "selector",
          "type": "bytes4"
        },
        {
          "indexed": true,
          "internalType": "uint64",
          "name": "roleId",
          "type": "uint64"
        }
      ],
      "name": "TargetFunctionRoleUpdated",
      "type": "event"
    },
    {
      "inputs": [],
      "name": "ADMIN_ROLE",
      "outputs": [
        {
          "internalType": "uint64",
          "name": "",
          "type": "uint64"
        }
      ],
      "stateMutability": "view",
      "type": "function"
    },
    {
      "inputs": [],
      "name": "PUBLIC_ROLE",
      "outputs": [
        {
          "internalType": "uint64",
          "name": "",
          "type": "uint64"
        }
      ],
      "stateMutability": "view",
      "type": "function"
    },
    {
      "inputs": [
        {
          "internalType": "address",
          "name": "caller",
          "type": "address"
        },
        {
          "internalType": "address",
          "name": "target",
          "type": "address"
        },
        {
          "internalType": "bytes4",
          "name": "selector",
          "type": "bytes4"
        }
      ],
      "name": "canCall",
      "outputs": [
        {
          "internalType": "bool",
          "name": "immediate",
          "type": "bool"
        },
        {
          "internalType": "uint32",
          "name": "delay",
          "type": "uint32"
        }
      ],
      "stateMutability": "view",
      "type": "function"
    },
    {
      "inputs": [
        {
          "internalType": "address",
          "name": "caller",
          "type": "address"
        },
        {
          "internalType": "address",
          "name": "target",
          "type": "address"
        },
        {
          "internalType": "bytes",
          "name": "data",
          "type": "bytes"
        }
      ],
      "name": "cancel",
      "outputs": [
        {
          "internalType": "uint32",
          "name": "",
          "type": "uint32"
        }
      ],
      "stateMutability": "nonpayable",
      "type": "function"
    },
    {
      "inputs": [
        {
          "internalType": "address",
          "name": "caller",
          "type": "address"
        },
        {
          "internalType": "bytes",
          "name": "data",
          "type": "bytes"
        }
      ],
      "name": "consumeScheduledOp",
      "outputs": [],
      "stateMutability": "nonpayable",
      "type": "function"
    },
    {
      "inputs": [
        {
          "internalType": "address",
          "name": "target",
          "type": "address"
        },
        {
          "internalType": "bytes",
          "name": "data",
          "type": "bytes"
        }
      ],
      "name": "execute",
      "outputs": [
        {
          "internalType": "uint32",
          "name": "",
          "type": "uint32"
        }
      ],
      "stateMutability": "payable",
      "type": "function"
    },
    {
      "inputs": [],
      "name": "expiration",
      "outputs": [
        {
          "internalType": "uint32",
          "name": "",
          "type": "uint32"
        }
      ],
      "stateMutability": "view",
      "type": "function"
    },
    {
      "inputs": [
        {
          "internalType": "uint64",
          "name": "roleId",
          "type": "uint64"
        },
        {
          "internalType": "address",
          "name": "account",
          "type": "address"
        }
      ],
      "name": "getAccess",
      "outputs": [
        {
          "internalType": "uint48",
          "name": "since",
          "type": "uint48"
        },
        {
          "internalType": "uint32",
          "name": "currentDelay",
          "type": "uint32"
        },
        {
          "internalType": "uint32",
          "name": "pendingDelay",
          "type": "uint32"
        },
        {
          "internalType": "uint48",
          "name": "effect",
          "type": "uint48"
        }
      ],
      "stateMutability": "view",
      "type": "function"
    },
    {
      "inputs": [
        {
          "internalType": "bytes32",
          "name": "id",
          "type": "bytes32"
        }
      ],
      "name": "getNonce",
      "outputs": [
        {
          "internalType": "uint32",
          "name": "",
          "type": "uint32"
        }
      ],
      "stateMutability": "view",
      "type": "function"
    },
    {
      "inputs": [
        {
          "internalType": "uint64",
          "name": "roleId",
          "type": "uint64"
        }
      ],
      "name": "getRoleAdmin",
      "outputs": [
        {
          "internalType": "uint64",
          "name": "",
          "type": "uint64"
        }
      ],
      "stateMutability": "view",
      "type": "function"
    },
    {
      "inputs": [
        {
          "internalType": "uint64",
          "name": "roleId",
          "type": "uint64"
        }
      ],
      "name": "getRoleGrantDelay",
      "outputs": [
        {
          "internalType": "uint32",
          "name": "",
          "type": "uint32"
        }
      ],
      "stateMutability": "view",
      "type": "function"
    },
    {
      "inputs": [
        {
          "internalType": "uint64",
          "name": "roleId",
          "type": "uint64"
        }
      ],
      "name": "getRoleGuardian",
      "outputs": [
        {
          "internalType": "uint64",
          "name": "",
          "type": "uint64"
        }
      ],
      "stateMutability": "view",
      "type": "function"
    },
    {
      "inputs": [
        {
          "internalType": "bytes32",
          "name": "id",
          "type": "bytes32"
        }
      ],
      "name": "getSchedule",
      "outputs": [
        {
          "internalType": "uint48",
          "name": "",
          "type": "uint48"
        }
      ],
      "stateMutability": "view",
      "type": "function"
    },
    {
      "inputs": [
        {
          "internalType": "address",
          "name": "target",
          "type": "address"
        }
      ],
      "name": "getTargetAdminDelay",
      "outputs": [
        {
          "internalType": "uint32",
          "name": "",
          "type": "uint32"
        }
      ],
      "stateMutability": "view",
      "type": "function"
    },
    {
      "inputs": [
        {
          "internalType": "address",
          "name": "target",
          "type": "address"
        },
        {
          "internalType": "bytes4",
          "name": "selector",
          "type": "bytes4"
        }
      ],
      "name": "getTargetFunctionRole",
      "outputs": [
        {
          "internalType": "uint64",
          "name": "",
          "type": "uint64"
        }
      ],
      "stateMutability": "view",
      "type": "function"
    },
    {
      "inputs": [
        {
          "internalType": "uint64",
          "name": "roleId",
          "type": "uint64"
        },
        {
          "internalType": "address",
          "name": "account",
          "type": "address"
        },
        {
          "internalType": "uint32",
          "name": "executionDelay",
          "type": "uint32"
        }
      ],
      "name": "grantRole",
      "outputs": [],
      "stateMutability": "nonpayable",
      "type": "function"
    },
    {
      "inputs": [
        {
          "internalType": "uint64",
          "name": "roleId",
          "type": "uint64"
        },
        {
          "internalType": "address",
          "name": "account",
          "type": "address"
        }
      ],
      "name": "hasRole",
      "outputs": [
        {
          "internalType": "bool",
          "name": "isMember",
          "type": "bool"
        },
        {
          "internalType": "uint32",
          "name": "executionDelay",
          "type": "uint32"
        }
      ],
      "stateMutability": "view",
      "type": "function"
    },
    {
      "inputs": [
        {
          "internalType": "address",
          "name": "caller",
          "type": "address"
        },
        {
          "internalType": "address",
          "name": "target",
          "type": "address"
        },
        {
          "internalType": "bytes",
          "name": "data",
          "type": "bytes"
        }
      ],
      "name": "hashOperation",
      "outputs": [
        {
          "internalType": "bytes32",
          "name": "",
          "type": "bytes32"
        }
      ],
      "stateMutability": "view",
      "type": "function"
    },
    {
      "inputs": [
        {
          "internalType": "address",
          "name": "admin",
          "type": "address"
        }
      ],
      "name": "initialize",
      "outputs": [],
      "stateMutability": "nonpayable",
      "type": "function"
    },
    {
      "inputs": [
        {
          "internalType": "address",
          "name": "target",
          "type": "address"
        }
      ],
      "name": "isTargetClosed",
      "outputs": [
        {
          "internalType": "bool",
          "name": "",
          "type": "bool"
        }
      ],
      "stateMutability": "view",
      "type": "function"
    },
    {
      "inputs": [
        {
          "internalType": "uint64",
          "name": "roleId",
          "type": "uint64"
        },
        {
          "internalType": "string",
          "name": "label",
          "type": "string"
        }
      ],
      "name": "labelRole",
      "outputs": [],
      "stateMutability": "nonpayable",
      "type": "function"
    },
    {
      "inputs": [],
      "name": "minSetback",
      "outputs": [
        {
          "internalType": "uint32",
          "name": "",
          "type": "uint32"
        }
      ],
      "stateMutability": "view",
      "type": "function"
    },
    {
      "inputs": [
        {
          "internalType": "bytes[]",
          "name": "data",
          "type": "bytes[]"
        }
      ],
      "name": "multicall",
      "outputs": [
        {
          "internalType": "bytes[]",
          "name": "results",
          "type": "bytes[]"
        }
      ],
      "stateMutability": "nonpayable",
      "type": "function"
    },
    {
      "inputs": [
        {
          "internalType": "uint64",
          "name": "roleId",
          "type": "uint64"
        },
        {
          "internalType": "address",
          "name": "callerConfirmation",
          "type": "address"
        }
      ],
      "name": "renounceRole",
      "outputs": [],
      "stateMutability": "nonpayable",
      "type": "function"
    },
    {
      "inputs": [
        {
          "internalType": "uint64",
          "name": "roleId",
          "type": "uint64"
        },
        {
          "internalType": "address",
          "name": "account",
          "type": "address"
        }
      ],
      "name": "revokeRole",
      "outputs": [],
      "stateMutability": "nonpayable",
      "type": "function"
    },
    {
      "inputs": [
        {
          "internalType": "address",
          "name": "target",
          "type": "address"
        },
        {
          "internalType": "bytes",
          "name": "data",
          "type": "bytes"
        },
        {
          "internalType": "uint48",
          "name": "when",
          "type": "uint48"
        }
      ],
      "name": "schedule",
      "outputs": [
        {
          "internalType": "bytes32",
          "name": "operationId",
          "type": "bytes32"
        },
        {
          "internalType": "uint32",
          "name": "nonce",
          "type": "uint32"
        }
      ],
      "stateMutability": "nonpayable",
      "type": "function"
    },
    {
      "inputs": [
        {
          "internalType": "uint64",
          "name": "roleId",
          "type": "uint64"
        },
        {
          "internalType": "uint32",
          "name": "newDelay",
          "type": "uint32"
        }
      ],
      "name": "setGrantDelay",
      "outputs": [],
      "stateMutability": "nonpayable",
      "type": "function"
    },
    {
      "inputs": [
        {
          "internalType": "uint64",
          "name": "roleId",
          "type": "uint64"
        },
        {
          "internalType": "uint64",
          "name": "admin",
          "type": "uint64"
        }
      ],
      "name": "setRoleAdmin",
      "outputs": [],
      "stateMutability": "nonpayable",
      "type": "function"
    },
    {
      "inputs": [
        {
          "internalType": "uint64",
          "name": "roleId",
          "type": "uint64"
        },
        {
          "internalType": "uint64",
          "name": "guardian",
          "type": "uint64"
        }
      ],
      "name": "setRoleGuardian",
      "outputs": [],
      "stateMutability": "nonpayable",
      "type": "function"
    },
    {
      "inputs": [
        {
          "internalType": "address",
          "name": "target",
          "type": "address"
        },
        {
          "internalType": "uint32",
          "name": "newDelay",
          "type": "uint32"
        }
      ],
      "name": "setTargetAdminDelay",
      "outputs": [],
      "stateMutability": "nonpayable",
      "type": "function"
    },
    {
      "inputs": [
        {
          "internalType": "address",
          "name": "target",
          "type": "address"
        },
        {
          "internalType": "bool",
          "name": "closed",
          "type": "bool"
        }
      ],
      "name": "setTargetClosed",
      "outputs": [],
      "stateMutability": "nonpayable",
      "type": "function"
    },
    {
      "inputs": [
        {
          "internalType": "address",
          "name": "target",
          "type": "address"
        },
        {
          "internalType": "bytes4[]",
          "name": "selectors",
          "type": "bytes4[]"
        },
        {
          "internalType": "uint64",
          "name": "roleId",
          "type": "uint64"
        }
      ],
      "name": "setTargetFunctionRole",
      "outputs": [],
      "stateMutability": "nonpayable",
      "type": "function"
    },
    {
      "inputs": [
        {
          "internalType": "address",
          "name": "target",
          "type": "address"
        },
        {
          "internalType": "address",
          "name": "newAuthority",
          "type": "address"
        }
      ],
      "name": "updateAuthority",
      "outputs": [],
      "stateMutability": "nonpayable",
      "type": "function"
    }
  ],
  "transactionHash": "0xd4e36e740329776d6e2d2365185241e590d48623623ac9783ee2b302c72bf045",
  "args": [],
  "numDeployments": 2,
  "solcInputHash": "64c840e4c6c24f35262b1c07da6f077a",
  "bytecode": "0x608060405234801561001057600080fd5b50614a49806100206000396000f3fe60806040526004361061017e5760003560e01c806308d6122d146101835780630b0a93ba146101ac57806312be8727146101e9578063167bd3951461022657806318ff183c1461024f5780631cff79cd1461027857806325c471a0146102a85780633078f114146102d157806330cae187146103115780633adc277a1461033a5780633ca7c02a146103775780634136a33c146103a25780634665096d146103df5780634c1da1e21461040a5780635296295214610447578063530dd456146104705780636d5115bd146104ad57806375b238fc146104ea578063853551b81461051557806394c7d7ee1461053e578063a166aa8914610567578063a64d95ce146105a4578063abd9bd2a146105cd578063ac9650d81461060a578063b700961314610647578063b7d2b16214610685578063c4d66de8146106ae578063cc1b6c81146106d7578063d1f856ee14610702578063d22b598914610740578063d6bb62c614610769578063f801a698146107a6578063fe0776f5146107e4575b600080fd5b34801561018f57600080fd5b506101aa60048036038101906101a5919061381c565b61080d565b005b3480156101b857600080fd5b506101d360048036038101906101ce9190613890565b610867565b6040516101e091906138cc565b60405180910390f35b3480156101f557600080fd5b50610210600480360381019061020b9190613890565b6108bd565b60405161021d9190613906565b60405180910390f35b34801561023257600080fd5b5061024d60048036038101906102489190613959565b610931565b005b34801561025b57600080fd5b5061027660048036038101906102719190613999565b610947565b005b610292600480360381019061028d9190613a2f565b6109be565b60405161029f9190613906565b60405180910390f35b3480156102b457600080fd5b506102cf60048036038101906102ca9190613abb565b610b24565b005b3480156102dd57600080fd5b506102f860048036038101906102f39190613b0e565b610b46565b6040516103089493929190613b6f565b60405180910390f35b34801561031d57600080fd5b5061033860048036038101906103339190613bb4565b610c2c565b005b34801561034657600080fd5b50610361600480360381019061035c9190613c2a565b610c42565b60405161036e9190613c57565b60405180910390f35b34801561038357600080fd5b5061038c610c9d565b60405161039991906138cc565b60405180910390f35b3480156103ae57600080fd5b506103c960048036038101906103c49190613c2a565b610ca9565b6040516103d69190613906565b60405180910390f35b3480156103eb57600080fd5b506103f4610ce7565b6040516104019190613906565b60405180910390f35b34801561041657600080fd5b50610431600480360381019061042c9190613c72565b610cf2565b60405161043e9190613906565b60405180910390f35b34801561045357600080fd5b5061046e60048036038101906104699190613bb4565b610d7e565b005b34801561047c57600080fd5b5061049760048036038101906104929190613890565b610d94565b6040516104a491906138cc565b60405180910390f35b3480156104b957600080fd5b506104d460048036038101906104cf9190613cf7565b610dea565b6040516104e191906138cc565b60405180910390f35b3480156104f657600080fd5b506104ff610ea8565b60405161050c91906138cc565b60405180910390f35b34801561052157600080fd5b5061053c60048036038101906105379190613d8d565b610ead565b005b34801561054a57600080fd5b5061056560048036038101906105609190613a2f565b610f76565b005b34801561057357600080fd5b5061058e60048036038101906105899190613c72565b611094565b60405161059b9190613dfc565b60405180910390f35b3480156105b057600080fd5b506105cb60048036038101906105c69190613e17565b6110fb565b005b3480156105d957600080fd5b506105f460048036038101906105ef9190613e57565b611111565b6040516106019190613eda565b60405180910390f35b34801561061657600080fd5b50610631600480360381019061062c9190613f4b565b61114a565b60405161063e91906140ea565b60405180910390f35b34801561065357600080fd5b5061066e6004803603810190610669919061410c565b61132e565b60405161067c92919061415f565b60405180910390f35b34801561069157600080fd5b506106ac60048036038101906106a79190613b0e565b6113db565b005b3480156106ba57600080fd5b506106d560048036038101906106d09190613c72565b6113f2565b005b3480156106e357600080fd5b506106ec611581565b6040516106f99190613906565b60405180910390f35b34801561070e57600080fd5b5061072960048036038101906107249190613b0e565b61158c565b60405161073792919061415f565b60405180910390f35b34801561074c57600080fd5b5061076760048036038101906107629190614188565b611609565b005b34801561077557600080fd5b50610790600480360381019061078b9190613e57565b61161f565b60405161079d9190613906565b60405180910390f35b3480156107b257600080fd5b506107cd60048036038101906107c891906141f4565b611825565b6040516107db929190614268565b60405180910390f35b3480156107f057600080fd5b5061080b60048036038101906108069190613b0e565b611a1c565b005b610815611a97565b60005b83839050811015610860576108558585858481811061083a57610839614291565b5b905060200201602081019061084f91906142c0565b84611b44565b806001019050610818565b5050505050565b600080610872611c69565b90508060010160008467ffffffffffffffff1667ffffffffffffffff16815260200190815260200160002060010160089054906101000a900467ffffffffffffffff16915050919050565b6000806108c8611c69565b90506109298160010160008567ffffffffffffffff1667ffffffffffffffff16815260200190815260200160002060010160109054906101000a90046dffffffffffffffffffffffffffff166dffffffffffffffffffffffffffff16611c91565b915050919050565b610939611a97565b6109438282611cba565b5050565b61094f611a97565b8173ffffffffffffffffffffffffffffffffffffffff16637a9e5e4b826040518263ffffffff1660e01b815260040161098891906142fc565b600060405180830381600087803b1580156109a257600080fd5b505af11580156109b6573d6000803e3d6000fd5b505050505050565b6000806109c9611c69565b905060006109d5611de5565b90506000806109e683898989611ded565b91509150811580156109fe575060008163ffffffff16145b15610a4d578288610a0f8989611e6d565b6040517f81c6f24b000000000000000000000000000000000000000000000000000000008152600401610a4493929190614326565b60405180910390fd5b6000610a5b848a8a8a611111565b90506000808363ffffffff16141580610a8557506000610a7a83610c42565b65ffffffffffff1614155b15610a9657610a9382611e96565b90505b600086600301549050610ab28b610aad8c8c611e6d565b61205f565b8760030181905550610b098b8b8b8080601f016020809104026020016040519081016040528093929190818152602001838380828437600081840152601f19601f8201169050808301925050505050505034612092565b50808760030181905550819750505050505050509392505050565b610b2c611a97565b610b408383610b3a866108bd565b8461215f565b50505050565b6000806000806000610b56611c69565b905060008160010160008967ffffffffffffffff1667ffffffffffffffff16815260200190815260200160002060000160008873ffffffffffffffffffffffffffffffffffffffff1673ffffffffffffffffffffffffffffffffffffffff16815260200190815260200160002090508060000160009054906101000a900465ffffffffffff169550610c158160000160069054906101000a90046dffffffffffffffffffffffffffff166dffffffffffffffffffffffffffff16612544565b809550819650829750505050505092959194509250565b610c34611a97565b610c3e8282612567565b5050565b600080610c4d611c69565b9050600081600201600085815260200190815260200160002060000160009054906101000a900465ffffffffffff169050610c8781612685565b610c915780610c94565b60005b92505050919050565b67ffffffffffffffff81565b600080610cb4611c69565b905080600201600084815260200190815260200160002060000160069054906101000a900463ffffffff16915050919050565b600062093a80905090565b600080610cfd611c69565b9050610d768160000160008573ffffffffffffffffffffffffffffffffffffffff1673ffffffffffffffffffffffffffffffffffffffff16815260200190815260200160002060010160009054906101000a90046dffffffffffffffffffffffffffff166dffffffffffffffffffffffffffff16611c91565b915050919050565b610d86611a97565b610d9082826126c1565b5050565b600080610d9f611c69565b90508060010160008467ffffffffffffffff1667ffffffffffffffff16815260200190815260200160002060010160009054906101000a900467ffffffffffffffff16915050919050565b600080610df5611c69565b90508060000160008573ffffffffffffffffffffffffffffffffffffffff1673ffffffffffffffffffffffffffffffffffffffff1681526020019081526020016000206000016000847bffffffffffffffffffffffffffffffffffffffffffffffffffffffff19167bffffffffffffffffffffffffffffffffffffffffffffffffffffffff1916815260200190815260200160002060009054906101000a900467ffffffffffffffff1691505092915050565b600081565b610eb5611a97565b600067ffffffffffffffff168367ffffffffffffffff161480610eeb575067ffffffffffffffff80168367ffffffffffffffff16145b15610f2d57826040517f1871a90c000000000000000000000000000000000000000000000000000000008152600401610f2491906138cc565b60405180910390fd5b8267ffffffffffffffff167f1256f5b5ecb89caec12db449738f2fbcd1ba5806cf38f35413f4e5c15bf6a4508383604051610f699291906143aa565b60405180910390a2505050565b6000610f80611de5565b9050638fb3603760e01b7bffffffffffffffffffffffffffffffffffffffffffffffffffffffff19168173ffffffffffffffffffffffffffffffffffffffff16638fb360376040518163ffffffff1660e01b8152600401602060405180830381865afa158015610ff4573d6000803e3d6000fd5b505050506040513d601f19601f8201168201806040525081019061101891906143e3565b7bffffffffffffffffffffffffffffffffffffffffffffffffffffffff19161461107957806040517f320ff74800000000000000000000000000000000000000000000000000000000815260040161107091906142fc565b60405180910390fd5b61108d61108885838686611111565b611e96565b5050505050565b60008061109f611c69565b90508060000160008473ffffffffffffffffffffffffffffffffffffffff1673ffffffffffffffffffffffffffffffffffffffff168152602001908152602001600020600101600e9054906101000a900460ff16915050919050565b611103611a97565b61110d82826127df565b5050565b60008484848460405160200161112a949392919061444e565b604051602081830303815290604052805190602001209050949350505050565b60606000611156611de5565b73ffffffffffffffffffffffffffffffffffffffff163373ffffffffffffffffffffffffffffffffffffffff16146111f957600036611193612967565b60003690506111a291906144c7565b9080926111b193929190614505565b8080601f016020809104026020016040519081016040528093929190818152602001838380828437600081840152601f19601f82011690508083019250505050505050611248565b600067ffffffffffffffff81111561121457611213614540565b5b6040519080825280601f01601f1916602001820160405280156112465781602001600182028036833780820191505090505b505b90508383905067ffffffffffffffff81111561126757611266614540565b5b60405190808252806020026020018201604052801561129a57816020015b60608152602001906001900390816112855790505b50915060005b84849050811015611326576112fb308686848181106112c2576112c1614291565b5b90506020028101906112d4919061457e565b856040516020016112e793929190614642565b60405160208183030381529060405261296c565b83828151811061130e5761130d614291565b5b602002602001018190525080806001019150506112a0565b505092915050565b60008061133a84611094565b1561134b57600080915091506113d3565b3073ffffffffffffffffffffffffffffffffffffffff168573ffffffffffffffffffffffffffffffffffffffff16036113935761138884846129f0565b6000915091506113d3565b600061139f8585610dea565b90506000806113ae838961158c565b91509150816113bf576000806113cb565b60008163ffffffff1614815b945094505050505b935093915050565b6113e3611a97565b6113ed8282612a16565b505050565b60006113fc612c13565b905060008160000160089054906101000a900460ff1615905060008260000160009054906101000a900467ffffffffffffffff1690506000808267ffffffffffffffff1614801561144a5750825b9050600060018367ffffffffffffffff1614801561147f575060003073ffffffffffffffffffffffffffffffffffffffff163b145b90508115801561148d575080155b156114c4576040517ff92ee8a900000000000000000000000000000000000000000000000000000000815260040160405180910390fd5b60018560000160006101000a81548167ffffffffffffffff021916908367ffffffffffffffff16021790555083156115145760018560000160086101000a81548160ff0219169083151502179055505b61151d86612c3b565b83156115795760008560000160086101000a81548160ff0219169083151502179055507fc7f505b2f371ae2175ee4913f4499e1f2633a7b5936321eed1cdaeb6115181d2600160405161157091906146ad565b60405180910390a15b505050505050565b600062069780905090565b60008067ffffffffffffffff80168467ffffffffffffffff16036115b7576001600091509150611602565b6000806115c48686610b46565b50509150915060008265ffffffffffff16141580156115fa57506115e6612c4f565b65ffffffffffff168265ffffffffffff1611155b819350935050505b9250929050565b611611611a97565b61161b8282612c5f565b5050565b60008061162a611c69565b90506000611636611de5565b905060006116448686611e6d565b9050600061165489898989611111565b9050600084600201600083815260200190815260200160002060000160009054906101000a900465ffffffffffff1665ffffffffffff16036116cd57806040517f60a299b00000000000000000000000000000000000000000000000000000000081526004016116c49190613eda565b60405180910390fd5b8273ffffffffffffffffffffffffffffffffffffffff168973ffffffffffffffffffffffffffffffffffffffff161461178757600061170d60008561158c565b509050600061172d6117276117228c87610dea565b610867565b8661158c565b5090508115801561173c575080155b1561178457848b8b866040517f3fe2751c00000000000000000000000000000000000000000000000000000000815260040161177b94939291906146c8565b60405180910390fd5b50505b83600201600082815260200190815260200160002060000160006101000a81549065ffffffffffff0219169055600084600201600083815260200190815260200160002060000160069054906101000a900463ffffffff1690508063ffffffff16827fbd9ac67a6e2f6463b80927326310338bcbb4bdb7936ce1365ea3e01067e7b9f760405160405180910390a38095505050505050949350505050565b6000806000611832611c69565b9050600061183e611de5565b9050600061184e828a8a8a611ded565b91505060008163ffffffff16611862612c4f565b61186c919061470d565b905060008263ffffffff1614806118a6575060008765ffffffffffff161180156118a557508065ffffffffffff168765ffffffffffff16105b5b156118f557828a6118b78b8b611e6d565b6040517f81c6f24b0000000000000000000000000000000000000000000000000000000081526004016118ec93929190614326565b60405180910390fd5b61190f8765ffffffffffff168265ffffffffffff16612dcb565b965061191d838b8b8b611111565b955061192886612de4565b600184600201600088815260200190815260200160002060000160069054906101000a900463ffffffff160194508684600201600088815260200190815260200160002060000160006101000a81548165ffffffffffff021916908365ffffffffffff1602179055508484600201600088815260200190815260200160002060000160066101000a81548163ffffffff021916908363ffffffff1602179055508463ffffffff16867f82a2da5dee54ea8021c6545b4444620291e07ee83be6dd57edb175062715f3b489868e8e8e604051611a07959493929190614747565b60405180910390a35050505094509492505050565b611a24611de5565b73ffffffffffffffffffffffffffffffffffffffff168173ffffffffffffffffffffffffffffffffffffffff1614611a88576040517f5f159e6300000000000000000000000000000000000000000000000000000000815260040160405180910390fd5b611a928282612a16565b505050565b6000611aa1611de5565b9050600080611ab783611ab2612e85565b612e92565b9150915081611b3f5760008163ffffffff1603611b23576000611ae0611adb612e85565b612f80565b5091505083816040517ff07e038f000000000000000000000000000000000000000000000000000000008152600401611b1a929190614795565b60405180910390fd5b611b3d611b388430611b33612e85565b611111565b611e96565b505b505050565b6000611b4e611c69565b9050818160000160008673ffffffffffffffffffffffffffffffffffffffff1673ffffffffffffffffffffffffffffffffffffffff1681526020019081526020016000206000016000857bffffffffffffffffffffffffffffffffffffffffffffffffffffffff19167bffffffffffffffffffffffffffffffffffffffffffffffffffffffff1916815260200190815260200160002060006101000a81548167ffffffffffffffff021916908367ffffffffffffffff1602179055508167ffffffffffffffff168473ffffffffffffffffffffffffffffffffffffffff167f9ea6790c7dadfd01c9f8b9762b3682607af2c7e79e05a9f9fdf5580dde94915185604051611c5b91906147be565b60405180910390a350505050565b60007f40c6c8c28789853c7efd823ab20824bbd71718a8a5915e855f6f288c9a26ad00905090565b600080611cad836dffffffffffffffffffffffffffff16612544565b5050905080915050919050565b6000611cc4611c69565b90503073ffffffffffffffffffffffffffffffffffffffff168373ffffffffffffffffffffffffffffffffffffffff1603611d3657826040517f5a068bc8000000000000000000000000000000000000000000000000000000008152600401611d2d91906142fc565b60405180910390fd5b818160000160008573ffffffffffffffffffffffffffffffffffffffff1673ffffffffffffffffffffffffffffffffffffffff168152602001908152602001600020600101600e6101000a81548160ff0219169083151502179055508273ffffffffffffffffffffffffffffffffffffffff167f90d4e7bb7e5d933792b3562e1741306f8be94837e1348dacef9b6f1df56eb13883604051611dd89190613dfc565b60405180910390a2505050565b600033905090565b6000803073ffffffffffffffffffffffffffffffffffffffff168573ffffffffffffffffffffffffffffffffffffffff1603611e3757611e2e868585612e92565b91509150611e64565b60048484905010611e5b57611e568686611e518787611e6d565b61132e565b611e5f565b6000805b915091505b94509492505050565b60008282600090600492611e8393929190614505565b90611e8e91906147f1565b905092915050565b600080611ea1611c69565b9050600081600201600085815260200190815260200160002060000160009054906101000a900465ffffffffffff169050600082600201600086815260200190815260200160002060000160069054906101000a900463ffffffff16905060008265ffffffffffff1603611f4c57846040517f60a299b0000000000000000000000000000000000000000000000000000000008152600401611f439190613eda565b60405180910390fd5b611f54612c4f565b65ffffffffffff168265ffffffffffff161115611fa857846040517f18cb6b7a000000000000000000000000000000000000000000000000000000008152600401611f9f9190613eda565b60405180910390fd5b611fb182612685565b15611ff357846040517f78a5d6e4000000000000000000000000000000000000000000000000000000008152600401611fea9190613eda565b60405180910390fd5b82600201600086815260200190815260200160002060000160006101000a81549065ffffffffffff02191690558063ffffffff16857f76a2a46953689d4861a5d3f6ed883ad7e6af674a21f8e162707159fc9dde614d60405160405180910390a3809350505050919050565b60008282604051602001612074929190614850565b60405160208183030381529060405280519060200120905092915050565b6060814710156120d957306040517fcd7860590000000000000000000000000000000000000000000000000000000081526004016120d091906142fc565b60405180910390fd5b6000808573ffffffffffffffffffffffffffffffffffffffff1684866040516121029190614879565b60006040518083038185875af1925050503d806000811461213f576040519150601f19603f3d011682016040523d82523d6000602084013e612144565b606091505b5091509150612154868383613368565b925050509392505050565b60008061216a611c69565b905067ffffffffffffffff80168667ffffffffffffffff16036121c457856040517f1871a90c0000000000000000000000000000000000000000000000000000000081526004016121bb91906138cc565b60405180910390fd5b6000808260010160008967ffffffffffffffff1667ffffffffffffffff16815260200190815260200160002060000160008873ffffffffffffffffffffffffffffffffffffffff1673ffffffffffffffffffffffffffffffffffffffff16815260200190815260200160002060000160009054906101000a900465ffffffffffff1665ffffffffffff1614905060008115612386578563ffffffff16612268612c4f565b612272919061470d565b905060405180604001604052808265ffffffffffff16815260200161229c8763ffffffff166133f7565b6dffffffffffffffffffffffffffff168152508360010160008a67ffffffffffffffff1667ffffffffffffffff16815260200190815260200160002060000160008973ffffffffffffffffffffffffffffffffffffffff1673ffffffffffffffffffffffffffffffffffffffff16815260200190815260200160002060008201518160000160006101000a81548165ffffffffffff021916908365ffffffffffff16021790555060208201518160000160066101000a8154816dffffffffffffffffffffffffffff02191690836dffffffffffffffffffffffffffff1602179055509050506124d9565b6124328560008560010160008c67ffffffffffffffff1667ffffffffffffffff16815260200190815260200160002060000160008b73ffffffffffffffffffffffffffffffffffffffff1673ffffffffffffffffffffffffffffffffffffffff16815260200190815260200160002060000160069054906101000a90046dffffffffffffffffffffffffffff166dffffffffffffffffffffffffffff166134079092919063ffffffff16565b8460010160008b67ffffffffffffffff1667ffffffffffffffff16815260200190815260200160002060000160008a73ffffffffffffffffffffffffffffffffffffffff1673ffffffffffffffffffffffffffffffffffffffff16815260200190815260200160002060000160068294508391906101000a8154816dffffffffffffffffffffffffffff02191690836dffffffffffffffffffffffffffff16021790555050505b8673ffffffffffffffffffffffffffffffffffffffff168867ffffffffffffffff167ff98448b987f1428e0e230e1f3c6e2ce15b5693eaf31827fbd0b1ec4b424ae7cf87848660405161252e93929190614890565b60405180910390a3819350505050949350505050565b600080600061255a84612555612c4f565b613499565b9250925092509193909250565b6000612571611c69565b9050600067ffffffffffffffff168367ffffffffffffffff1614806125a9575067ffffffffffffffff80168367ffffffffffffffff16145b156125eb57826040517f1871a90c0000000000000000000000000000000000000000000000000000000081526004016125e291906138cc565b60405180910390fd5b818160010160008567ffffffffffffffff1667ffffffffffffffff16815260200190815260200160002060010160006101000a81548167ffffffffffffffff021916908367ffffffffffffffff1602179055508167ffffffffffffffff168367ffffffffffffffff167f1fd6dd7631312dfac2205b52913f99de03b4d7e381d5d27d3dbfe0713e6e634060405160405180910390a3505050565b600061268f612c4f565b65ffffffffffff1661269f610ce7565b63ffffffff16836126b0919061470d565b65ffffffffffff1611159050919050565b60006126cb611c69565b9050600067ffffffffffffffff168367ffffffffffffffff161480612703575067ffffffffffffffff80168367ffffffffffffffff16145b1561274557826040517f1871a90c00000000000000000000000000000000000000000000000000000000815260040161273c91906138cc565b60405180910390fd5b818160010160008567ffffffffffffffff1667ffffffffffffffff16815260200190815260200160002060010160086101000a81548167ffffffffffffffff021916908367ffffffffffffffff1602179055508167ffffffffffffffff168367ffffffffffffffff167f7a8059630b897b5de4c08ade69f8b90c3ead1f8596d62d10b6c4d14a0afb4ae260405160405180910390a3505050565b60006127e9611c69565b905067ffffffffffffffff80168367ffffffffffffffff160361284357826040517f1871a90c00000000000000000000000000000000000000000000000000000000815260040161283a91906138cc565b60405180910390fd5b60006128b783612851611581565b8460010160008867ffffffffffffffff1667ffffffffffffffff16815260200190815260200160002060010160109054906101000a90046dffffffffffffffffffffffffffff166dffffffffffffffffffffffffffff166134079092919063ffffffff16565b8360010160008767ffffffffffffffff1667ffffffffffffffff16815260200190815260200160002060010160108294508391906101000a8154816dffffffffffffffffffffffffffff02191690836dffffffffffffffffffffffffffff16021790555050508367ffffffffffffffff167ffeb69018ee8b8fd50ea86348f1267d07673379f72cffdeccec63853ee8ce8b4884836040516129599291906148c7565b60405180910390a250505050565b600090565b60606000808473ffffffffffffffffffffffffffffffffffffffff16846040516129969190614879565b600060405180830381855af49150503d80600081146129d1576040519150601f19603f3d011682016040523d82523d6000602084013e6129d6565b606091505b50915091506129e6858383613368565b9250505092915050565b6000806129fb611c69565b9050612a07848461205f565b81600301541491505092915050565b600080612a21611c69565b905067ffffffffffffffff80168467ffffffffffffffff1603612a7b57836040517f1871a90c000000000000000000000000000000000000000000000000000000008152600401612a7291906138cc565b60405180910390fd5b60008160010160008667ffffffffffffffff1667ffffffffffffffff16815260200190815260200160002060000160008573ffffffffffffffffffffffffffffffffffffffff1673ffffffffffffffffffffffffffffffffffffffff16815260200190815260200160002060000160009054906101000a900465ffffffffffff1665ffffffffffff1603612b13576000915050612c0d565b8060010160008567ffffffffffffffff1667ffffffffffffffff16815260200190815260200160002060000160008473ffffffffffffffffffffffffffffffffffffffff1673ffffffffffffffffffffffffffffffffffffffff168152602001908152602001600020600080820160006101000a81549065ffffffffffff02191690556000820160066101000a8154906dffffffffffffffffffffffffffff021916905550508273ffffffffffffffffffffffffffffffffffffffff168467ffffffffffffffff167ff229baa593af28c41b1d16b748cd7688f0c83aaf92d4be41c44005defe84c16660405160405180910390a360019150505b92915050565b60007ff0c57e16840df040f15088dc2f81fe391c3923bec73e23a9662efc9c229c6a00905090565b612c436134f6565b612c4c81613536565b50565b6000612c5a426135c2565b905090565b6000612c69611c69565b90506000612cf783612c79611581565b8460000160008873ffffffffffffffffffffffffffffffffffffffff1673ffffffffffffffffffffffffffffffffffffffff16815260200190815260200160002060010160009054906101000a90046dffffffffffffffffffffffffffff166dffffffffffffffffffffffffffff166134079092919063ffffffff16565b8360000160008773ffffffffffffffffffffffffffffffffffffffff1673ffffffffffffffffffffffffffffffffffffffff16815260200190815260200160002060010160008294508391906101000a8154816dffffffffffffffffffffffffffff02191690836dffffffffffffffffffffffffffff16021790555050508373ffffffffffffffffffffffffffffffffffffffff167fa56b76017453f399ec2327ba00375dbfb1fd070ff854341ad6191e6a2e2de19c8483604051612dbd9291906148c7565b60405180910390a250505050565b6000818311612dda5781612ddc565b825b905092915050565b6000612dee611c69565b9050600081600201600084815260200190815260200160002060000160009054906101000a900465ffffffffffff16905060008165ffffffffffff1614158015612e3e5750612e3c81612685565b155b15612e8057826040517f813e9459000000000000000000000000000000000000000000000000000000008152600401612e779190613eda565b60405180910390fd5b505050565b3660008036915091509091565b6000806004848490501015612ead5760008091509150612f78565b3073ffffffffffffffffffffffffffffffffffffffff168573ffffffffffffffffffffffffffffffffffffffff1603612efe57612ef330612eee8686611e6d565b6129f0565b600091509150612f78565b6000806000612f0d8787612f80565b92509250925082612f275760008094509450505050612f78565b600080612f34848b61158c565b9150915081612f4e57600080965096505050505050612f78565b612f648363ffffffff168263ffffffff16612dcb565b955060008663ffffffff1614965050505050505b935093915050565b60008060006004858590501015612fa1576000806000925092509250613361565b6000612fad8686611e6d565b905063853551b860e01b7bffffffffffffffffffffffffffffffffffffffffffffffffffffffff1916817bffffffffffffffffffffffffffffffffffffffffffffffffffffffff1916148061304657506330cae18760e01b7bffffffffffffffffffffffffffffffffffffffffffffffffffffffff1916817bffffffffffffffffffffffffffffffffffffffffffffffffffffffff1916145b806130955750635296295260e01b7bffffffffffffffffffffffffffffffffffffffffffffffffffffffff1916817bffffffffffffffffffffffffffffffffffffffffffffffffffffffff1916145b806130e4575063a64d95ce60e01b7bffffffffffffffffffffffffffffffffffffffffffffffffffffffff1916817bffffffffffffffffffffffffffffffffffffffffffffffffffffffff1916145b80613133575063d22b598960e01b7bffffffffffffffffffffffffffffffffffffffffffffffffffffffff1916817bffffffffffffffffffffffffffffffffffffffffffffffffffffffff1916145b1561314957600160008093509350935050613361565b6318ff183c60e01b7bffffffffffffffffffffffffffffffffffffffffffffffffffffffff1916817bffffffffffffffffffffffffffffffffffffffffffffffffffffffff191614806131e0575063167bd39560e01b7bffffffffffffffffffffffffffffffffffffffffffffffffffffffff1916817bffffffffffffffffffffffffffffffffffffffffffffffffffffffff1916145b8061322f57506308d6122d60e01b7bffffffffffffffffffffffffffffffffffffffffffffffffffffffff1916817bffffffffffffffffffffffffffffffffffffffffffffffffffffffff1916145b15613279576000868660049060249261324a93929190614505565b810190613257919061492e565b9050600061326482610cf2565b90506001600082955095509550505050613361565b6325c471a060e01b7bffffffffffffffffffffffffffffffffffffffffffffffffffffffff1916817bffffffffffffffffffffffffffffffffffffffffffffffffffffffff19161480613310575063b7d2b16260e01b7bffffffffffffffffffffffffffffffffffffffffffffffffffffffff1916817bffffffffffffffffffffffffffffffffffffffffffffffffffffffff1916145b15613354576000868660049060249261332b93929190614505565b8101906133389190613890565b9050600161334582610d94565b60009450945094505050613361565b6000806000935093509350505b9250925092565b60608261337d576133788261361c565b6133ef565b600082511480156133a5575060008473ffffffffffffffffffffffffffffffffffffffff163b145b156133e757836040517f9996b3150000000000000000000000000000000000000000000000000000000081526004016133de91906142fc565b60405180910390fd5b8190506133f0565b5b9392505050565b60008163ffffffff169050919050565b6000806000613425866dffffffffffffffffffffffffffff16611c91565b905060006134658563ffffffff168763ffffffff168463ffffffff161161344d57600061345a565b8784613459919061495b565b5b63ffffffff16612dcb565b90508063ffffffff16613476612c4f565b613480919061470d565b925061348d828785613661565b93505050935093915050565b6000806000806000806134bb886dffffffffffffffffffffffffffff166136ad565b9250925092508665ffffffffffff168165ffffffffffff1611156134e1578282826134e6565b816000805b9550955095505050509250925092565b6134fe6136ef565b613534576040517fd7e6bcf800000000000000000000000000000000000000000000000000000000815260040160405180910390fd5b565b61353e6134f6565b600073ffffffffffffffffffffffffffffffffffffffff168173ffffffffffffffffffffffffffffffffffffffff16036135b05760006040517f0813ada20000000000000000000000000000000000000000000000000000000081526004016135a791906142fc565b60405180910390fd5b6135be60008260008061215f565b5050565b600065ffffffffffff8016821115613614576030826040517f6dfcc65000000000000000000000000000000000000000000000000000000000815260040161360b9291906149ea565b60405180910390fd5b819050919050565b60008151111561362f5780518082602001fd5b6040517f1425ea4200000000000000000000000000000000000000000000000000000000815260040160405180910390fd5b60008263ffffffff1660208563ffffffff166dffffffffffffffffffffffffffff16901b60408465ffffffffffff166dffffffffffffffffffffffffffff16901b171790509392505050565b6000806000808490508092506020816dffffffffffffffffffffffffffff16901c93506040816dffffffffffffffffffffffffffff16901c9150509193909250565b60006136f9612c13565b60000160089054906101000a900460ff16905090565b600080fd5b600080fd5b600073ffffffffffffffffffffffffffffffffffffffff82169050919050565b600061374482613719565b9050919050565b61375481613739565b811461375f57600080fd5b50565b6000813590506137718161374b565b92915050565b600080fd5b600080fd5b600080fd5b60008083601f84011261379c5761379b613777565b5b8235905067ffffffffffffffff8111156137b9576137b861377c565b5b6020830191508360208202830111156137d5576137d4613781565b5b9250929050565b600067ffffffffffffffff82169050919050565b6137f9816137dc565b811461380457600080fd5b50565b600081359050613816816137f0565b92915050565b600080600080606085870312156138365761383561370f565b5b600061384487828801613762565b945050602085013567ffffffffffffffff81111561386557613864613714565b5b61387187828801613786565b9350935050604061388487828801613807565b91505092959194509250565b6000602082840312156138a6576138a561370f565b5b60006138b484828501613807565b91505092915050565b6138c6816137dc565b82525050565b60006020820190506138e160008301846138bd565b92915050565b600063ffffffff82169050919050565b613900816138e7565b82525050565b600060208201905061391b60008301846138f7565b92915050565b60008115159050919050565b61393681613921565b811461394157600080fd5b50565b6000813590506139538161392d565b92915050565b600080604083850312156139705761396f61370f565b5b600061397e85828601613762565b925050602061398f85828601613944565b9150509250929050565b600080604083850312156139b0576139af61370f565b5b60006139be85828601613762565b92505060206139cf85828601613762565b9150509250929050565b60008083601f8401126139ef576139ee613777565b5b8235905067ffffffffffffffff811115613a0c57613a0b61377c565b5b602083019150836001820283011115613a2857613a27613781565b5b9250929050565b600080600060408486031215613a4857613a4761370f565b5b6000613a5686828701613762565b935050602084013567ffffffffffffffff811115613a7757613a76613714565b5b613a83868287016139d9565b92509250509250925092565b613a98816138e7565b8114613aa357600080fd5b50565b600081359050613ab581613a8f565b92915050565b600080600060608486031215613ad457613ad361370f565b5b6000613ae286828701613807565b9350506020613af386828701613762565b9250506040613b0486828701613aa6565b9150509250925092565b60008060408385031215613b2557613b2461370f565b5b6000613b3385828601613807565b9250506020613b4485828601613762565b9150509250929050565b600065ffffffffffff82169050919050565b613b6981613b4e565b82525050565b6000608082019050613b846000830187613b60565b613b9160208301866138f7565b613b9e60408301856138f7565b613bab6060830184613b60565b95945050505050565b60008060408385031215613bcb57613bca61370f565b5b6000613bd985828601613807565b9250506020613bea85828601613807565b9150509250929050565b6000819050919050565b613c0781613bf4565b8114613c1257600080fd5b50565b600081359050613c2481613bfe565b92915050565b600060208284031215613c4057613c3f61370f565b5b6000613c4e84828501613c15565b91505092915050565b6000602082019050613c6c6000830184613b60565b92915050565b600060208284031215613c8857613c8761370f565b5b6000613c9684828501613762565b91505092915050565b60007fffffffff0000000000000000000000000000000000000000000000000000000082169050919050565b613cd481613c9f565b8114613cdf57600080fd5b50565b600081359050613cf181613ccb565b92915050565b60008060408385031215613d0e57613d0d61370f565b5b6000613d1c85828601613762565b9250506020613d2d85828601613ce2565b9150509250929050565b60008083601f840112613d4d57613d4c613777565b5b8235905067ffffffffffffffff811115613d6a57613d6961377c565b5b602083019150836001820283011115613d8657613d85613781565b5b9250929050565b600080600060408486031215613da657613da561370f565b5b6000613db486828701613807565b935050602084013567ffffffffffffffff811115613dd557613dd4613714565b5b613de186828701613d37565b92509250509250925092565b613df681613921565b82525050565b6000602082019050613e116000830184613ded565b92915050565b60008060408385031215613e2e57613e2d61370f565b5b6000613e3c85828601613807565b9250506020613e4d85828601613aa6565b9150509250929050565b60008060008060608587031215613e7157613e7061370f565b5b6000613e7f87828801613762565b9450506020613e9087828801613762565b935050604085013567ffffffffffffffff811115613eb157613eb0613714565b5b613ebd878288016139d9565b925092505092959194509250565b613ed481613bf4565b82525050565b6000602082019050613eef6000830184613ecb565b92915050565b60008083601f840112613f0b57613f0a613777565b5b8235905067ffffffffffffffff811115613f2857613f2761377c565b5b602083019150836020820283011115613f4457613f43613781565b5b9250929050565b60008060208385031215613f6257613f6161370f565b5b600083013567ffffffffffffffff811115613f8057613f7f613714565b5b613f8c85828601613ef5565b92509250509250929050565b600081519050919050565b600082825260208201905092915050565b6000819050602082019050919050565b600081519050919050565b600082825260208201905092915050565b60005b83811015613ffe578082015181840152602081019050613fe3565b60008484015250505050565b6000601f19601f8301169050919050565b600061402682613fc4565b6140308185613fcf565b9350614040818560208601613fe0565b6140498161400a565b840191505092915050565b6000614060838361401b565b905092915050565b6000602082019050919050565b600061408082613f98565b61408a8185613fa3565b93508360208202850161409c85613fb4565b8060005b858110156140d857848403895281516140b98582614054565b94506140c483614068565b925060208a019950506001810190506140a0565b50829750879550505050505092915050565b600060208201905081810360008301526141048184614075565b905092915050565b6000806000606084860312156141255761412461370f565b5b600061413386828701613762565b935050602061414486828701613762565b925050604061415586828701613ce2565b9150509250925092565b60006040820190506141746000830185613ded565b61418160208301846138f7565b9392505050565b6000806040838503121561419f5761419e61370f565b5b60006141ad85828601613762565b92505060206141be85828601613aa6565b9150509250929050565b6141d181613b4e565b81146141dc57600080fd5b50565b6000813590506141ee816141c8565b92915050565b6000806000806060858703121561420e5761420d61370f565b5b600061421c87828801613762565b945050602085013567ffffffffffffffff81111561423d5761423c613714565b5b614249878288016139d9565b9350935050604061425c878288016141df565b91505092959194509250565b600060408201905061427d6000830185613ecb565b61428a60208301846138f7565b9392505050565b7f4e487b7100000000000000000000000000000000000000000000000000000000600052603260045260246000fd5b6000602082840312156142d6576142d561370f565b5b60006142e484828501613ce2565b91505092915050565b6142f681613739565b82525050565b600060208201905061431160008301846142ed565b92915050565b61432081613c9f565b82525050565b600060608201905061433b60008301866142ed565b61434860208301856142ed565b6143556040830184614317565b949350505050565b600082825260208201905092915050565b82818337600083830152505050565b6000614389838561435d565b935061439683858461436e565b61439f8361400a565b840190509392505050565b600060208201905081810360008301526143c581848661437d565b90509392505050565b6000815190506143dd81613ccb565b92915050565b6000602082840312156143f9576143f861370f565b5b6000614407848285016143ce565b91505092915050565b600082825260208201905092915050565b600061442d8385614410565b935061443a83858461436e565b6144438361400a565b840190509392505050565b600060608201905061446360008301876142ed565b61447060208301866142ed565b8181036040830152614483818486614421565b905095945050505050565b6000819050919050565b7f4e487b7100000000000000000000000000000000000000000000000000000000600052601160045260246000fd5b60006144d28261448e565b91506144dd8361448e565b92508282039050818111156144f5576144f4614498565b5b92915050565b600080fd5b600080fd5b60008085851115614519576145186144fb565b5b8386111561452a57614529614500565b5b6001850283019150848603905094509492505050565b7f4e487b7100000000000000000000000000000000000000000000000000000000600052604160045260246000fd5b600080fd5b600080fd5b600080fd5b6000808335600160200384360303811261459b5761459a61456f565b5b80840192508235915067ffffffffffffffff8211156145bd576145bc614574565b5b6020830192506001820236038313156145d9576145d8614579565b5b509250929050565b600081905092915050565b60006145f883856145e1565b935061460583858461436e565b82840190509392505050565b600061461c82613fc4565b61462681856145e1565b9350614636818560208601613fe0565b80840191505092915050565b600061464f8285876145ec565b915061465b8284614611565b9150819050949350505050565b6000819050919050565b6000819050919050565b600061469761469261468d84614668565b614672565b6137dc565b9050919050565b6146a78161467c565b82525050565b60006020820190506146c2600083018461469e565b92915050565b60006080820190506146dd60008301876142ed565b6146ea60208301866142ed565b6146f760408301856142ed565b6147046060830184614317565b95945050505050565b600061471882613b4e565b915061472383613b4e565b9250828201905065ffffffffffff81111561474157614740614498565b5b92915050565b600060808201905061475c6000830188613b60565b61476960208301876142ed565b61477660408301866142ed565b8181036060830152614789818486614421565b90509695505050505050565b60006040820190506147aa60008301856142ed565b6147b760208301846138bd565b9392505050565b60006020820190506147d36000830184614317565b92915050565b600082905092915050565b600082821b905092915050565b60006147fd83836147d9565b826148088135613c9f565b92506004821015614848576148437fffffffff00000000000000000000000000000000000000000000000000000000836004036008026147e4565b831692505b505092915050565b600060408201905061486560008301856142ed565b6148726020830184614317565b9392505050565b60006148858284614611565b915081905092915050565b60006060820190506148a560008301866138f7565b6148b26020830185613b60565b6148bf6040830184613ded565b949350505050565b60006040820190506148dc60008301856138f7565b6148e96020830184613b60565b9392505050565b60006148fb82613719565b9050919050565b61490b816148f0565b811461491657600080fd5b50565b60008135905061492881614902565b92915050565b6000602082840312156149445761494361370f565b5b600061495284828501614919565b91505092915050565b6000614966826138e7565b9150614971836138e7565b9250828203905063ffffffff81111561498d5761498c614498565b5b92915050565b6000819050919050565b600060ff82169050919050565b60006149c56149c06149bb84614993565b614672565b61499d565b9050919050565b6149d5816149aa565b82525050565b6149e48161448e565b82525050565b60006040820190506149ff60008301856149cc565b614a0c60208301846149db565b939250505056fea2646970667358221220e8118f17c4199a8bb68d8dd005284db74a90d066542989d30b003960dbb3a6c664736f6c63430008180033",
  "devdoc": {
    "errors": {
      "AddressEmptyCode(address)": [
        {
          "details": "There's no code at `target` (it is not a contract)."
        }
      ],
      "AddressInsufficientBalance(address)": [
        {
          "details": "The ETH balance of the account is not enough to perform the operation."
        }
      ],
      "FailedInnerCall()": [
        {
          "details": "A call to an address target failed. The target may have reverted."
        }
      ],
      "InvalidInitialization()": [
        {
          "details": "The contract is already initialized."
        }
      ],
      "NotInitializing()": [
        {
          "details": "The contract is not initializing."
        }
      ],
      "SafeCastOverflowedUintDowncast(uint8,uint256)": [
        {
          "details": "Value doesn't fit in an uint of `bits` size."
        }
      ]
    },
    "events": {
      "Initialized(uint64)": {
        "details": "Triggered when the contract has been initialized or reinitialized."
      },
      "OperationCanceled(bytes32,uint32)": {
        "details": "A scheduled operation was canceled."
      },
      "OperationExecuted(bytes32,uint32)": {
        "details": "A scheduled operation was executed."
      },
      "OperationScheduled(bytes32,uint32,uint48,address,address,bytes)": {
        "details": "A delayed operation was scheduled."
      },
      "RoleAdminChanged(uint64,uint64)": {
        "details": "Role acting as admin over a given `roleId` is updated."
      },
      "RoleGrantDelayChanged(uint64,uint32,uint48)": {
        "details": "Grant delay for a given `roleId` will be updated to `delay` when `since` is reached."
      },
      "RoleGranted(uint64,address,uint32,uint48,bool)": {
        "details": "Emitted when `account` is granted `roleId`. NOTE: The meaning of the `since` argument depends on the `newMember` argument. If the role is granted to a new member, the `since` argument indicates when the account becomes a member of the role, otherwise it indicates the execution delay for this account and roleId is updated."
      },
      "RoleGuardianChanged(uint64,uint64)": {
        "details": "Role acting as guardian over a given `roleId` is updated."
      },
      "RoleLabel(uint64,string)": {
        "details": "Informational labelling for a roleId."
      },
      "RoleRevoked(uint64,address)": {
        "details": "Emitted when `account` membership or `roleId` is revoked. Unlike granting, revoking is instantaneous."
      },
      "TargetAdminDelayUpdated(address,uint32,uint48)": {
        "details": "Admin delay for a given `target` will be updated to `delay` when `since` is reached."
      },
      "TargetClosed(address,bool)": {
        "details": "Target mode is updated (true = closed, false = open)."
      },
      "TargetFunctionRoleUpdated(address,bytes4,uint64)": {
        "details": "Role required to invoke `selector` on `target` is updated to `roleId`."
      }
    },
    "kind": "dev",
    "methods": {
      "canCall(address,address,bytes4)": {
        "details": "Check if an address (`caller`) is authorised to call a given function on a given contract directly (with no restriction). Additionally, it returns the delay needed to perform the call indirectly through the {schedule} & {execute} workflow. This function is usually called by the targeted contract to control immediate execution of restricted functions. Therefore we only return true if the call can be performed without any delay. If the call is subject to a previously set delay (not zero), then the function should return false and the caller should schedule the operation for future execution. If `immediate` is true, the delay can be disregarded and the operation can be immediately executed, otherwise the operation can be executed if and only if delay is greater than 0. NOTE: The IAuthority interface does not include the `uint32` delay. This is an extension of that interface that is backward compatible. Some contracts may thus ignore the second return argument. In that case they will fail to identify the indirect workflow, and will consider calls that require a delay to be forbidden. NOTE: This function does not report the permissions of this manager itself. These are defined by the {_canCallSelf} function instead."
      },
      "cancel(address,address,bytes)": {
        "details": "Cancel a scheduled (delayed) operation. Returns the nonce that identifies the previously scheduled operation that is cancelled. Requirements: - the caller must be the proposer, a guardian of the targeted function, or a global admin Emits a {OperationCanceled} event."
      },
      "consumeScheduledOp(address,bytes)": {
        "details": "Consume a scheduled operation targeting the caller. If such an operation exists, mark it as consumed (emit an {OperationExecuted} event and clean the state). Otherwise, throw an error. This is useful for contract that want to enforce that calls targeting them were scheduled on the manager, with all the verifications that it implies. Emit a {OperationExecuted} event."
      },
      "execute(address,bytes)": {
        "details": "Execute a function that is delay restricted, provided it was properly scheduled beforehand, or the execution delay is 0. Returns the nonce that identifies the previously scheduled operation that is executed, or 0 if the operation wasn't previously scheduled (if the caller doesn't have an execution delay). Emits an {OperationExecuted} event only if the call was scheduled and delayed."
      },
      "expiration()": {
        "details": "Expiration delay for scheduled proposals. Defaults to 1 week. IMPORTANT: Avoid overriding the expiration with 0. Otherwise every contract proposal will be expired immediately, disabling any scheduling usage."
      },
      "getAccess(uint64,address)": {
        "details": "Get the access details for a given account for a given role. These details include the timepoint at which membership becomes active, and the delay applied to all operation by this user that requires this permission level. Returns: [0] Timestamp at which the account membership becomes valid. 0 means role is not granted. [1] Current execution delay for the account. [2] Pending execution delay for the account. [3] Timestamp at which the pending execution delay will become active. 0 means no delay update is scheduled."
      },
      "getNonce(bytes32)": {
        "details": "Return the nonce for the latest scheduled operation with a given id. Returns 0 if the operation has never been scheduled."
      },
      "getRoleAdmin(uint64)": {
        "details": "Get the id of the role that acts as an admin for the given role. The admin permission is required to grant the role, revoke the role and update the execution delay to execute an operation that is restricted to this role."
      },
      "getRoleGrantDelay(uint64)": {
        "details": "Get the role current grant delay. Its value may change at any point without an event emitted following a call to {setGrantDelay}. Changes to this value, including effect timepoint are notified in advance by the {RoleGrantDelayChanged} event."
      },
      "getRoleGuardian(uint64)": {
        "details": "Get the role that acts as a guardian for a given role. The guardian permission allows canceling operations that have been scheduled under the role."
      },
      "getSchedule(bytes32)": {
        "details": "Return the timepoint at which a scheduled operation will be ready for execution. This returns 0 if the operation is not yet scheduled, has expired, was executed, or was canceled."
      },
      "getTargetAdminDelay(address)": {
        "details": "Get the admin delay for a target contract. Changes to contract configuration are subject to this delay."
      },
      "getTargetFunctionRole(address,bytes4)": {
        "details": "Get the role required to call a function."
      },
      "grantRole(uint64,address,uint32)": {
        "details": "Add `account` to `roleId`, or change its execution delay. This gives the account the authorization to call any function that is restricted to this role. An optional execution delay (in seconds) can be set. If that delay is non 0, the user is required to schedule any operation that is restricted to members of this role. The user will only be able to execute the operation after the delay has passed, before it has expired. During this period, admin and guardians can cancel the operation (see {cancel}). If the account has already been granted this role, the execution delay will be updated. This update is not immediate and follows the delay rules. For example, if a user currently has a delay of 3 hours, and this is called to reduce that delay to 1 hour, the new delay will take some time to take effect, enforcing that any operation executed in the 3 hours that follows this update was indeed scheduled before this update. Requirements: - the caller must be an admin for the role (see {getRoleAdmin}) - granted role must not be the `PUBLIC_ROLE` Emits a {RoleGranted} event."
      },
      "hasRole(uint64,address)": {
        "details": "Check if a given account currently has the permission level corresponding to a given role. Note that this permission might be associated with an execution delay. {getAccess} can provide more details."
      },
      "hashOperation(address,address,bytes)": {
        "details": "Hashing function for delayed operations."
      },
      "isTargetClosed(address)": {
        "details": "Get whether the contract is closed disabling any access. Otherwise role permissions are applied."
      },
      "labelRole(uint64,string)": {
        "details": "Give a label to a role, for improved role discoverability by UIs. Requirements: - the caller must be a global admin Emits a {RoleLabel} event."
      },
      "minSetback()": {
        "details": "Minimum setback for all delay updates, with the exception of execution delays. It can be increased without setback (and reset via {revokeRole} in the case event of an accidental increase). Defaults to 5 days."
      },
      "multicall(bytes[])": {
        "custom:oz-upgrades-unsafe-allow-reachable": "delegatecall",
        "details": "Receives and executes a batch of function calls on this contract."
      },
      "renounceRole(uint64,address)": {
        "details": "Renounce role permissions for the calling account with immediate effect. If the sender is not in the role this call has no effect. Requirements: - the caller must be `callerConfirmation`. Emits a {RoleRevoked} event if the account had the role."
      },
      "revokeRole(uint64,address)": {
        "details": "Remove an account from a role, with immediate effect. If the account does not have the role, this call has no effect. Requirements: - the caller must be an admin for the role (see {getRoleAdmin}) - revoked role must not be the `PUBLIC_ROLE` Emits a {RoleRevoked} event if the account had the role."
      },
      "schedule(address,bytes,uint48)": {
        "details": "Schedule a delayed operation for future execution, and return the operation identifier. It is possible to choose the timestamp at which the operation becomes executable as long as it satisfies the execution delays required for the caller. The special value zero will automatically set the earliest possible time. Returns the `operationId` that was scheduled. Since this value is a hash of the parameters, it can reoccur when the same parameters are used; if this is relevant, the returned `nonce` can be used to uniquely identify this scheduled operation from other occurrences of the same `operationId` in invocations of {execute} and {cancel}. Emits a {OperationScheduled} event. NOTE: It is not possible to concurrently schedule more than one operation with the same `target` and `data`. If this is necessary, a random byte can be appended to `data` to act as a salt that will be ignored by the target contract if it is using standard Solidity ABI encoding."
      },
      "setGrantDelay(uint64,uint32)": {
        "details": "Update the delay for granting a `roleId`. Requirements: - the caller must be a global admin Emits a {RoleGrantDelayChanged} event."
      },
      "setRoleAdmin(uint64,uint64)": {
        "details": "Change admin role for a given role. Requirements: - the caller must be a global admin Emits a {RoleAdminChanged} event"
      },
      "setRoleGuardian(uint64,uint64)": {
        "details": "Change guardian role for a given role. Requirements: - the caller must be a global admin Emits a {RoleGuardianChanged} event"
      },
      "setTargetAdminDelay(address,uint32)": {
        "details": "Set the delay for changing the configuration of a given target contract. Requirements: - the caller must be a global admin Emits a {TargetAdminDelayUpdated} event."
      },
      "setTargetClosed(address,bool)": {
        "details": "Set the closed flag for a contract. Requirements: - the caller must be a global admin Emits a {TargetClosed} event."
      },
      "setTargetFunctionRole(address,bytes4[],uint64)": {
        "details": "Set the role required to call functions identified by the `selectors` in the `target` contract. Requirements: - the caller must be a global admin Emits a {TargetFunctionRoleUpdated} event per selector."
      },
      "updateAuthority(address,address)": {
        "details": "Changes the authority of a target managed by this manager instance. Requirements: - the caller must be a global admin"
      }
    },
    "version": 1
  },
  "userdoc": {
    "kind": "user",
    "methods": {},
    "version": 1
  },
  "storageLayout": {
    "storage": [],
    "types": null
  }
}