{
  "address": "0xeC959DaC546aa310c8Ba9e64135454407015b1DA",
  "abi": [
    {
      "inputs": [
        {
          "internalType": "bytes32",
          "name": "operationId",
          "type": "bytes32"
        }
      ],
      "name": "AccessManagerAlreadyScheduled",
      "type": "error"
    },
    {
      "inputs": [],
      "name": "AccessManagerBadConfirmation",
      "type": "error"
    },
    {
      "inputs": [
        {
          "internalType": "bytes32",
          "name": "operationId",
          "type": "bytes32"
        }
      ],
      "name": "AccessManagerExpired",
      "type": "error"
    },
    {
      "inputs": [
        {
          "internalType": "address",
          "name": "initialAdmin",
          "type": "address"
        }
      ],
      "name": "AccessManagerInvalidInitialAdmin",
      "type": "error"
    },
    {
      "inputs": [
        {
          "internalType": "address",
          "name": "account",
          "type": "address"
        }
      ],
      "name": "AccessManagerLockedAccount",
      "type": "error"
    },
    {
      "inputs": [
        {
          "internalType": "uint64",
          "name": "roleId",
          "type": "uint64"
        }
      ],
      "name": "AccessManagerLockedRole",
      "type": "error"
    },
    {
      "inputs": [
        {
          "internalType": "bytes32",
          "name": "operationId",
          "type": "bytes32"
        }
      ],
      "name": "AccessManagerNotReady",
      "type": "error"
    },
    {
      "inputs": [
        {
          "internalType": "bytes32",
          "name": "operationId",
          "type": "bytes32"
        }
      ],
      "name": "AccessManagerNotScheduled",
      "type": "error"
    },
    {
      "inputs": [
        {
          "internalType": "address",
          "name": "msgsender",
          "type": "address"
        },
        {
          "internalType": "uint64",
          "name": "roleId",
          "type": "uint64"
        }
      ],
      "name": "AccessManagerUnauthorizedAccount",
      "type": "error"
    },
    {
      "inputs": [
        {
          "internalType": "address",
          "name": "caller",
          "type": "address"
        },
        {
          "internalType": "address",
          "name": "target",
          "type": "address"
        },
        {
          "internalType": "bytes4",
          "name": "selector",
          "type": "bytes4"
        }
      ],
      "name": "AccessManagerUnauthorizedCall",
      "type": "error"
    },
    {
      "inputs": [
        {
          "internalType": "address",
          "name": "msgsender",
          "type": "address"
        },
        {
          "internalType": "address",
          "name": "caller",
          "type": "address"
        },
        {
          "internalType": "address",
          "name": "target",
          "type": "address"
        },
        {
          "internalType": "bytes4",
          "name": "selector",
          "type": "bytes4"
        }
      ],
      "name": "AccessManagerUnauthorizedCancel",
      "type": "error"
    },
    {
      "inputs": [
        {
          "internalType": "address",
          "name": "target",
          "type": "address"
        }
      ],
      "name": "AccessManagerUnauthorizedConsume",
      "type": "error"
    },
    {
      "inputs": [
        {
          "internalType": "address",
          "name": "target",
          "type": "address"
        }
      ],
      "name": "AddressEmptyCode",
      "type": "error"
    },
    {
      "inputs": [
        {
          "internalType": "address",
          "name": "account",
          "type": "address"
        }
      ],
      "name": "AddressInsufficientBalance",
      "type": "error"
    },
    {
      "inputs": [],
      "name": "FailedInnerCall",
      "type": "error"
    },
    {
      "inputs": [],
      "name": "InvalidInitialization",
      "type": "error"
    },
    {
      "inputs": [],
      "name": "NotInitializing",
      "type": "error"
    },
    {
      "inputs": [
        {
          "internalType": "uint8",
          "name": "bits",
          "type": "uint8"
        },
        {
          "internalType": "uint256",
          "name": "value",
          "type": "uint256"
        }
      ],
      "name": "SafeCastOverflowedUintDowncast",
      "type": "error"
    },
    {
      "anonymous": false,
      "inputs": [
        {
          "indexed": false,
          "internalType": "uint64",
          "name": "version",
          "type": "uint64"
        }
      ],
      "name": "Initialized",
      "type": "event"
    },
    {
      "anonymous": false,
      "inputs": [
        {
          "indexed": true,
          "internalType": "bytes32",
          "name": "operationId",
          "type": "bytes32"
        },
        {
          "indexed": true,
          "internalType": "uint32",
          "name": "nonce",
          "type": "uint32"
        }
      ],
      "name": "OperationCanceled",
      "type": "event"
    },
    {
      "anonymous": false,
      "inputs": [
        {
          "indexed": true,
          "internalType": "bytes32",
          "name": "operationId",
          "type": "bytes32"
        },
        {
          "indexed": true,
          "internalType": "uint32",
          "name": "nonce",
          "type": "uint32"
        }
      ],
      "name": "OperationExecuted",
      "type": "event"
    },
    {
      "anonymous": false,
      "inputs": [
        {
          "indexed": true,
          "internalType": "bytes32",
          "name": "operationId",
          "type": "bytes32"
        },
        {
          "indexed": true,
          "internalType": "uint32",
          "name": "nonce",
          "type": "uint32"
        },
        {
          "indexed": false,
          "internalType": "uint48",
          "name": "schedule",
          "type": "uint48"
        },
        {
          "indexed": false,
          "internalType": "address",
          "name": "caller",
          "type": "address"
        },
        {
          "indexed": false,
          "internalType": "address",
          "name": "target",
          "type": "address"
        },
        {
          "indexed": false,
          "internalType": "bytes",
          "name": "data",
          "type": "bytes"
        }
      ],
      "name": "OperationScheduled",
      "type": "event"
    },
    {
      "anonymous": false,
      "inputs": [
        {
          "indexed": true,
          "internalType": "uint64",
          "name": "roleId",
          "type": "uint64"
        },
        {
          "indexed": true,
          "internalType": "uint64",
          "name": "admin",
          "type": "uint64"
        }
      ],
      "name": "RoleAdminChanged",
      "type": "event"
    },
    {
      "anonymous": false,
      "inputs": [
        {
          "indexed": true,
          "internalType": "uint64",
          "name": "roleId",
          "type": "uint64"
        },
        {
          "indexed": false,
          "internalType": "uint32",
          "name": "delay",
          "type": "uint32"
        },
        {
          "indexed": false,
          "internalType": "uint48",
          "name": "since",
          "type": "uint48"
        }
      ],
      "name": "RoleGrantDelayChanged",
      "type": "event"
    },
    {
      "anonymous": false,
      "inputs": [
        {
          "indexed": true,
          "internalType": "uint64",
          "name": "roleId",
          "type": "uint64"
        },
        {
          "indexed": true,
          "internalType": "address",
          "name": "account",
          "type": "address"
        },
        {
          "indexed": false,
          "internalType": "uint32",
          "name": "delay",
          "type": "uint32"
        },
        {
          "indexed": false,
          "internalType": "uint48",
          "name": "since",
          "type": "uint48"
        },
        {
          "indexed": false,
          "internalType": "bool",
          "name": "newMember",
          "type": "bool"
        }
      ],
      "name": "RoleGranted",
      "type": "event"
    },
    {
      "anonymous": false,
      "inputs": [
        {
          "indexed": true,
          "internalType": "uint64",
          "name": "roleId",
          "type": "uint64"
        },
        {
          "indexed": true,
          "internalType": "uint64",
          "name": "guardian",
          "type": "uint64"
        }
      ],
      "name": "RoleGuardianChanged",
      "type": "event"
    },
    {
      "anonymous": false,
      "inputs": [
        {
          "indexed": true,
          "internalType": "uint64",
          "name": "roleId",
          "type": "uint64"
        },
        {
          "indexed": false,
          "internalType": "string",
          "name": "label",
          "type": "string"
        }
      ],
      "name": "RoleLabel",
      "type": "event"
    },
    {
      "anonymous": false,
      "inputs": [
        {
          "indexed": true,
          "internalType": "uint64",
          "name": "roleId",
          "type": "uint64"
        },
        {
          "indexed": true,
          "internalType": "address",
          "name": "account",
          "type": "address"
        }
      ],
      "name": "RoleRevoked",
      "type": "event"
    },
    {
      "anonymous": false,
      "inputs": [
        {
          "indexed": true,
          "internalType": "address",
          "name": "target",
          "type": "address"
        },
        {
          "indexed": false,
          "internalType": "uint32",
          "name": "delay",
          "type": "uint32"
        },
        {
          "indexed": false,
          "internalType": "uint48",
          "name": "since",
          "type": "uint48"
        }
      ],
      "name": "TargetAdminDelayUpdated",
      "type": "event"
    },
    {
      "anonymous": false,
      "inputs": [
        {
          "indexed": true,
          "internalType": "address",
          "name": "target",
          "type": "address"
        },
        {
          "indexed": false,
          "internalType": "bool",
          "name": "closed",
          "type": "bool"
        }
      ],
      "name": "TargetClosed",
      "type": "event"
    },
    {
      "anonymous": false,
      "inputs": [
        {
          "indexed": true,
          "internalType": "address",
          "name": "target",
          "type": "address"
        },
        {
          "indexed": false,
          "internalType": "bytes4",
          "name": "selector",
          "type": "bytes4"
        },
        {
          "indexed": true,
          "internalType": "uint64",
          "name": "roleId",
          "type": "uint64"
        }
      ],
      "name": "TargetFunctionRoleUpdated",
      "type": "event"
    },
    {
      "inputs": [],
      "name": "ADMIN_ROLE",
      "outputs": [
        {
          "internalType": "uint64",
          "name": "",
          "type": "uint64"
        }
      ],
      "stateMutability": "view",
      "type": "function"
    },
    {
      "inputs": [],
      "name": "PUBLIC_ROLE",
      "outputs": [
        {
          "internalType": "uint64",
          "name": "",
          "type": "uint64"
        }
      ],
      "stateMutability": "view",
      "type": "function"
    },
    {
      "inputs": [
        {
          "internalType": "address",
          "name": "caller",
          "type": "address"
        },
        {
          "internalType": "address",
          "name": "target",
          "type": "address"
        },
        {
          "internalType": "bytes4",
          "name": "selector",
          "type": "bytes4"
        }
      ],
      "name": "canCall",
      "outputs": [
        {
          "internalType": "bool",
          "name": "immediate",
          "type": "bool"
        },
        {
          "internalType": "uint32",
          "name": "delay",
          "type": "uint32"
        }
      ],
      "stateMutability": "view",
      "type": "function"
    },
    {
      "inputs": [
        {
          "internalType": "address",
          "name": "caller",
          "type": "address"
        },
        {
          "internalType": "address",
          "name": "target",
          "type": "address"
        },
        {
          "internalType": "bytes",
          "name": "data",
          "type": "bytes"
        }
      ],
      "name": "cancel",
      "outputs": [
        {
          "internalType": "uint32",
          "name": "",
          "type": "uint32"
        }
      ],
      "stateMutability": "nonpayable",
      "type": "function"
    },
    {
      "inputs": [
        {
          "internalType": "address",
          "name": "caller",
          "type": "address"
        },
        {
          "internalType": "bytes",
          "name": "data",
          "type": "bytes"
        }
      ],
      "name": "consumeScheduledOp",
      "outputs": [],
      "stateMutability": "nonpayable",
      "type": "function"
    },
    {
      "inputs": [
        {
          "internalType": "address",
          "name": "target",
          "type": "address"
        },
        {
          "internalType": "bytes",
          "name": "data",
          "type": "bytes"
        }
      ],
      "name": "execute",
      "outputs": [
        {
          "internalType": "uint32",
          "name": "",
          "type": "uint32"
        }
      ],
      "stateMutability": "payable",
      "type": "function"
    },
    {
      "inputs": [],
      "name": "expiration",
      "outputs": [
        {
          "internalType": "uint32",
          "name": "",
          "type": "uint32"
        }
      ],
      "stateMutability": "view",
      "type": "function"
    },
    {
      "inputs": [
        {
          "internalType": "uint64",
          "name": "roleId",
          "type": "uint64"
        },
        {
          "internalType": "address",
          "name": "account",
          "type": "address"
        }
      ],
      "name": "getAccess",
      "outputs": [
        {
          "internalType": "uint48",
          "name": "since",
          "type": "uint48"
        },
        {
          "internalType": "uint32",
          "name": "currentDelay",
          "type": "uint32"
        },
        {
          "internalType": "uint32",
          "name": "pendingDelay",
          "type": "uint32"
        },
        {
          "internalType": "uint48",
          "name": "effect",
          "type": "uint48"
        }
      ],
      "stateMutability": "view",
      "type": "function"
    },
    {
      "inputs": [
        {
          "internalType": "bytes32",
          "name": "id",
          "type": "bytes32"
        }
      ],
      "name": "getNonce",
      "outputs": [
        {
          "internalType": "uint32",
          "name": "",
          "type": "uint32"
        }
      ],
      "stateMutability": "view",
      "type": "function"
    },
    {
      "inputs": [
        {
          "internalType": "uint64",
          "name": "roleId",
          "type": "uint64"
        }
      ],
      "name": "getRoleAdmin",
      "outputs": [
        {
          "internalType": "uint64",
          "name": "",
          "type": "uint64"
        }
      ],
      "stateMutability": "view",
      "type": "function"
    },
    {
      "inputs": [
        {
          "internalType": "uint64",
          "name": "roleId",
          "type": "uint64"
        }
      ],
      "name": "getRoleGrantDelay",
      "outputs": [
        {
          "internalType": "uint32",
          "name": "",
          "type": "uint32"
        }
      ],
      "stateMutability": "view",
      "type": "function"
    },
    {
      "inputs": [
        {
          "internalType": "uint64",
          "name": "roleId",
          "type": "uint64"
        }
      ],
      "name": "getRoleGuardian",
      "outputs": [
        {
          "internalType": "uint64",
          "name": "",
          "type": "uint64"
        }
      ],
      "stateMutability": "view",
      "type": "function"
    },
    {
      "inputs": [
        {
          "internalType": "bytes32",
          "name": "id",
          "type": "bytes32"
        }
      ],
      "name": "getSchedule",
      "outputs": [
        {
          "internalType": "uint48",
          "name": "",
          "type": "uint48"
        }
      ],
      "stateMutability": "view",
      "type": "function"
    },
    {
      "inputs": [
        {
          "internalType": "address",
          "name": "target",
          "type": "address"
        }
      ],
      "name": "getTargetAdminDelay",
      "outputs": [
        {
          "internalType": "uint32",
          "name": "",
          "type": "uint32"
        }
      ],
      "stateMutability": "view",
      "type": "function"
    },
    {
      "inputs": [
        {
          "internalType": "address",
          "name": "target",
          "type": "address"
        },
        {
          "internalType": "bytes4",
          "name": "selector",
          "type": "bytes4"
        }
      ],
      "name": "getTargetFunctionRole",
      "outputs": [
        {
          "internalType": "uint64",
          "name": "",
          "type": "uint64"
        }
      ],
      "stateMutability": "view",
      "type": "function"
    },
    {
      "inputs": [
        {
          "internalType": "uint64",
          "name": "roleId",
          "type": "uint64"
        },
        {
          "internalType": "address",
          "name": "account",
          "type": "address"
        },
        {
          "internalType": "uint32",
          "name": "executionDelay",
          "type": "uint32"
        }
      ],
      "name": "grantRole",
      "outputs": [],
      "stateMutability": "nonpayable",
      "type": "function"
    },
    {
      "inputs": [
        {
          "internalType": "uint64",
          "name": "roleId",
          "type": "uint64"
        },
        {
          "internalType": "address",
          "name": "account",
          "type": "address"
        }
      ],
      "name": "hasRole",
      "outputs": [
        {
          "internalType": "bool",
          "name": "isMember",
          "type": "bool"
        },
        {
          "internalType": "uint32",
          "name": "executionDelay",
          "type": "uint32"
        }
      ],
      "stateMutability": "view",
      "type": "function"
    },
    {
      "inputs": [
        {
          "internalType": "address",
          "name": "caller",
          "type": "address"
        },
        {
          "internalType": "address",
          "name": "target",
          "type": "address"
        },
        {
          "internalType": "bytes",
          "name": "data",
          "type": "bytes"
        }
      ],
      "name": "hashOperation",
      "outputs": [
        {
          "internalType": "bytes32",
          "name": "",
          "type": "bytes32"
        }
      ],
      "stateMutability": "view",
      "type": "function"
    },
    {
      "inputs": [
        {
          "internalType": "address",
          "name": "admin",
          "type": "address"
        }
      ],
      "name": "initialize",
      "outputs": [],
      "stateMutability": "nonpayable",
      "type": "function"
    },
    {
      "inputs": [
        {
          "internalType": "address",
          "name": "target",
          "type": "address"
        }
      ],
      "name": "isTargetClosed",
      "outputs": [
        {
          "internalType": "bool",
          "name": "",
          "type": "bool"
        }
      ],
      "stateMutability": "view",
      "type": "function"
    },
    {
      "inputs": [
        {
          "internalType": "uint64",
          "name": "roleId",
          "type": "uint64"
        },
        {
          "internalType": "string",
          "name": "label",
          "type": "string"
        }
      ],
      "name": "labelRole",
      "outputs": [],
      "stateMutability": "nonpayable",
      "type": "function"
    },
    {
      "inputs": [],
      "name": "minSetback",
      "outputs": [
        {
          "internalType": "uint32",
          "name": "",
          "type": "uint32"
        }
      ],
      "stateMutability": "view",
      "type": "function"
    },
    {
      "inputs": [
        {
          "internalType": "bytes[]",
          "name": "data",
          "type": "bytes[]"
        }
      ],
      "name": "multicall",
      "outputs": [
        {
          "internalType": "bytes[]",
          "name": "results",
          "type": "bytes[]"
        }
      ],
      "stateMutability": "nonpayable",
      "type": "function"
    },
    {
      "inputs": [
        {
          "internalType": "uint64",
          "name": "roleId",
          "type": "uint64"
        },
        {
          "internalType": "address",
          "name": "callerConfirmation",
          "type": "address"
        }
      ],
      "name": "renounceRole",
      "outputs": [],
      "stateMutability": "nonpayable",
      "type": "function"
    },
    {
      "inputs": [
        {
          "internalType": "uint64",
          "name": "roleId",
          "type": "uint64"
        },
        {
          "internalType": "address",
          "name": "account",
          "type": "address"
        }
      ],
      "name": "revokeRole",
      "outputs": [],
      "stateMutability": "nonpayable",
      "type": "function"
    },
    {
      "inputs": [
        {
          "internalType": "address",
          "name": "target",
          "type": "address"
        },
        {
          "internalType": "bytes",
          "name": "data",
          "type": "bytes"
        },
        {
          "internalType": "uint48",
          "name": "when",
          "type": "uint48"
        }
      ],
      "name": "schedule",
      "outputs": [
        {
          "internalType": "bytes32",
          "name": "operationId",
          "type": "bytes32"
        },
        {
          "internalType": "uint32",
          "name": "nonce",
          "type": "uint32"
        }
      ],
      "stateMutability": "nonpayable",
      "type": "function"
    },
    {
      "inputs": [
        {
          "internalType": "uint64",
          "name": "roleId",
          "type": "uint64"
        },
        {
          "internalType": "uint32",
          "name": "newDelay",
          "type": "uint32"
        }
      ],
      "name": "setGrantDelay",
      "outputs": [],
      "stateMutability": "nonpayable",
      "type": "function"
    },
    {
      "inputs": [
        {
          "internalType": "uint64",
          "name": "roleId",
          "type": "uint64"
        },
        {
          "internalType": "uint64",
          "name": "admin",
          "type": "uint64"
        }
      ],
      "name": "setRoleAdmin",
      "outputs": [],
      "stateMutability": "nonpayable",
      "type": "function"
    },
    {
      "inputs": [
        {
          "internalType": "uint64",
          "name": "roleId",
          "type": "uint64"
        },
        {
          "internalType": "uint64",
          "name": "guardian",
          "type": "uint64"
        }
      ],
      "name": "setRoleGuardian",
      "outputs": [],
      "stateMutability": "nonpayable",
      "type": "function"
    },
    {
      "inputs": [
        {
          "internalType": "address",
          "name": "target",
          "type": "address"
        },
        {
          "internalType": "uint32",
          "name": "newDelay",
          "type": "uint32"
        }
      ],
      "name": "setTargetAdminDelay",
      "outputs": [],
      "stateMutability": "nonpayable",
      "type": "function"
    },
    {
      "inputs": [
        {
          "internalType": "address",
          "name": "target",
          "type": "address"
        },
        {
          "internalType": "bool",
          "name": "closed",
          "type": "bool"
        }
      ],
      "name": "setTargetClosed",
      "outputs": [],
      "stateMutability": "nonpayable",
      "type": "function"
    },
    {
      "inputs": [
        {
          "internalType": "address",
          "name": "target",
          "type": "address"
        },
        {
          "internalType": "bytes4[]",
          "name": "selectors",
          "type": "bytes4[]"
        },
        {
          "internalType": "uint64",
          "name": "roleId",
          "type": "uint64"
        }
      ],
      "name": "setTargetFunctionRole",
      "outputs": [],
      "stateMutability": "nonpayable",
      "type": "function"
    },
    {
      "inputs": [
        {
          "internalType": "address",
          "name": "target",
          "type": "address"
        },
        {
          "internalType": "address",
          "name": "newAuthority",
          "type": "address"
        }
      ],
      "name": "updateAuthority",
      "outputs": [],
      "stateMutability": "nonpayable",
      "type": "function"
    }
  ],
  "transactionHash": "0x8d7551912a18ca2424e2bc877d317f98f10509009795467ee7bded5a9083b143",
  "args": [],
  "numDeployments": 1,
  "solcInputHash": "3cc1329c7e2212de3a178dbc3fa03bf0",
  "bytecode": "0x608060405234801561001057600080fd5b50614a9d806100206000396000f3fe60806040526004361061017e5760003560e01c806308d6122d146101835780630b0a93ba146101ac57806312be8727146101e9578063167bd3951461022657806318ff183c1461024f5780631cff79cd1461027857806325c471a0146102a85780633078f114146102d157806330cae187146103115780633adc277a1461033a5780633ca7c02a146103775780634136a33c146103a25780634665096d146103df5780634c1da1e21461040a5780635296295214610447578063530dd456146104705780636d5115bd146104ad57806375b238fc146104ea578063853551b81461051557806394c7d7ee1461053e578063a166aa8914610567578063a64d95ce146105a4578063abd9bd2a146105cd578063ac9650d81461060a578063b700961314610647578063b7d2b16214610685578063c4d66de8146106ae578063cc1b6c81146106d7578063d1f856ee14610702578063d22b598914610740578063d6bb62c614610769578063f801a698146107a6578063fe0776f5146107e4575b600080fd5b34801561018f57600080fd5b506101aa60048036038101906101a59190613828565b61080d565b005b3480156101b857600080fd5b506101d360048036038101906101ce919061389c565b61086d565b6040516101e091906138d8565b60405180910390f35b3480156101f557600080fd5b50610210600480360381019061020b919061389c565b6108c3565b60405161021d9190613912565b60405180910390f35b34801561023257600080fd5b5061024d60048036038101906102489190613965565b610937565b005b34801561025b57600080fd5b50610276600480360381019061027191906139a5565b61094d565b005b610292600480360381019061028d9190613a3b565b6109c4565b60405161029f9190613912565b60405180910390f35b3480156102b457600080fd5b506102cf60048036038101906102ca9190613ac7565b610b2a565b005b3480156102dd57600080fd5b506102f860048036038101906102f39190613b1a565b610b4c565b6040516103089493929190613b7b565b60405180910390f35b34801561031d57600080fd5b5061033860048036038101906103339190613bc0565b610c32565b005b34801561034657600080fd5b50610361600480360381019061035c9190613c36565b610c48565b60405161036e9190613c63565b60405180910390f35b34801561038357600080fd5b5061038c610ca3565b60405161039991906138d8565b60405180910390f35b3480156103ae57600080fd5b506103c960048036038101906103c49190613c36565b610caf565b6040516103d69190613912565b60405180910390f35b3480156103eb57600080fd5b506103f4610ced565b6040516104019190613912565b60405180910390f35b34801561041657600080fd5b50610431600480360381019061042c9190613c7e565b610cf8565b60405161043e9190613912565b60405180910390f35b34801561045357600080fd5b5061046e60048036038101906104699190613bc0565b610d84565b005b34801561047c57600080fd5b506104976004803603810190610492919061389c565b610d9a565b6040516104a491906138d8565b60405180910390f35b3480156104b957600080fd5b506104d460048036038101906104cf9190613d03565b610df0565b6040516104e191906138d8565b60405180910390f35b3480156104f657600080fd5b506104ff610eae565b60405161050c91906138d8565b60405180910390f35b34801561052157600080fd5b5061053c60048036038101906105379190613d99565b610eb3565b005b34801561054a57600080fd5b5061056560048036038101906105609190613a3b565b610f7c565b005b34801561057357600080fd5b5061058e60048036038101906105899190613c7e565b61109a565b60405161059b9190613e08565b60405180910390f35b3480156105b057600080fd5b506105cb60048036038101906105c69190613e23565b611101565b005b3480156105d957600080fd5b506105f460048036038101906105ef9190613e63565b611117565b6040516106019190613ee6565b60405180910390f35b34801561061657600080fd5b50610631600480360381019061062c9190613f57565b611150565b60405161063e91906140f6565b60405180910390f35b34801561065357600080fd5b5061066e60048036038101906106699190614118565b61133a565b60405161067c92919061416b565b60405180910390f35b34801561069157600080fd5b506106ac60048036038101906106a79190613b1a565b6113e7565b005b3480156106ba57600080fd5b506106d560048036038101906106d09190613c7e565b6113fe565b005b3480156106e357600080fd5b506106ec61158d565b6040516106f99190613912565b60405180910390f35b34801561070e57600080fd5b5061072960048036038101906107249190613b1a565b611598565b60405161073792919061416b565b60405180910390f35b34801561074c57600080fd5b5061076760048036038101906107629190614194565b611615565b005b34801561077557600080fd5b50610790600480360381019061078b9190613e63565b61162b565b60405161079d9190613912565b60405180910390f35b3480156107b257600080fd5b506107cd60048036038101906107c89190614200565b611831565b6040516107db929190614274565b60405180910390f35b3480156107f057600080fd5b5061080b60048036038101906108069190613b1a565b611a28565b005b610815611aa3565b60005b83839050811015610866576108558585858481811061083a5761083961429d565b5b905060200201602081019061084f91906142cc565b84611b50565b8061085f90614332565b9050610818565b5050505050565b600080610878611c75565b90508060010160008467ffffffffffffffff1667ffffffffffffffff16815260200190815260200160002060010160089054906101000a900467ffffffffffffffff16915050919050565b6000806108ce611c75565b905061092f8160010160008567ffffffffffffffff1667ffffffffffffffff16815260200190815260200160002060010160109054906101000a90046dffffffffffffffffffffffffffff166dffffffffffffffffffffffffffff16611c9d565b915050919050565b61093f611aa3565b6109498282611cc6565b5050565b610955611aa3565b8173ffffffffffffffffffffffffffffffffffffffff16637a9e5e4b826040518263ffffffff1660e01b815260040161098e9190614389565b600060405180830381600087803b1580156109a857600080fd5b505af11580156109bc573d6000803e3d6000fd5b505050505050565b6000806109cf611c75565b905060006109db611df1565b90506000806109ec83898989611df9565b9150915081158015610a04575060008163ffffffff16145b15610a53578288610a158989611e79565b6040517f81c6f24b000000000000000000000000000000000000000000000000000000008152600401610a4a939291906143b3565b60405180910390fd5b6000610a61848a8a8a611117565b90506000808363ffffffff16141580610a8b57506000610a8083610c48565b65ffffffffffff1614155b15610a9c57610a9982611ea2565b90505b600086600301549050610ab88b610ab38c8c611e79565b61206b565b8760030181905550610b0f8b8b8b8080601f016020809104026020016040519081016040528093929190818152602001838380828437600081840152601f19601f820116905080830192505050505050503461209e565b50808760030181905550819750505050505050509392505050565b610b32611aa3565b610b468383610b40866108c3565b8461216b565b50505050565b6000806000806000610b5c611c75565b905060008160010160008967ffffffffffffffff1667ffffffffffffffff16815260200190815260200160002060000160008873ffffffffffffffffffffffffffffffffffffffff1673ffffffffffffffffffffffffffffffffffffffff16815260200190815260200160002090508060000160009054906101000a900465ffffffffffff169550610c1b8160000160069054906101000a90046dffffffffffffffffffffffffffff166dffffffffffffffffffffffffffff16612550565b809550819650829750505050505092959194509250565b610c3a611aa3565b610c448282612573565b5050565b600080610c53611c75565b9050600081600201600085815260200190815260200160002060000160009054906101000a900465ffffffffffff169050610c8d81612691565b610c975780610c9a565b60005b92505050919050565b67ffffffffffffffff81565b600080610cba611c75565b905080600201600084815260200190815260200160002060000160069054906101000a900463ffffffff16915050919050565b600062093a80905090565b600080610d03611c75565b9050610d7c8160000160008573ffffffffffffffffffffffffffffffffffffffff1673ffffffffffffffffffffffffffffffffffffffff16815260200190815260200160002060010160009054906101000a90046dffffffffffffffffffffffffffff166dffffffffffffffffffffffffffff16611c9d565b915050919050565b610d8c611aa3565b610d9682826126cd565b5050565b600080610da5611c75565b90508060010160008467ffffffffffffffff1667ffffffffffffffff16815260200190815260200160002060010160009054906101000a900467ffffffffffffffff16915050919050565b600080610dfb611c75565b90508060000160008573ffffffffffffffffffffffffffffffffffffffff1673ffffffffffffffffffffffffffffffffffffffff1681526020019081526020016000206000016000847bffffffffffffffffffffffffffffffffffffffffffffffffffffffff19167bffffffffffffffffffffffffffffffffffffffffffffffffffffffff1916815260200190815260200160002060009054906101000a900467ffffffffffffffff1691505092915050565b600081565b610ebb611aa3565b600067ffffffffffffffff168367ffffffffffffffff161480610ef1575067ffffffffffffffff80168367ffffffffffffffff16145b15610f3357826040517f1871a90c000000000000000000000000000000000000000000000000000000008152600401610f2a91906138d8565b60405180910390fd5b8267ffffffffffffffff167f1256f5b5ecb89caec12db449738f2fbcd1ba5806cf38f35413f4e5c15bf6a4508383604051610f6f929190614437565b60405180910390a2505050565b6000610f86611df1565b9050638fb3603760e01b7bffffffffffffffffffffffffffffffffffffffffffffffffffffffff19168173ffffffffffffffffffffffffffffffffffffffff16638fb360376040518163ffffffff1660e01b8152600401602060405180830381865afa158015610ffa573d6000803e3d6000fd5b505050506040513d601f19601f8201168201806040525081019061101e9190614470565b7bffffffffffffffffffffffffffffffffffffffffffffffffffffffff19161461107f57806040517f320ff7480000000000000000000000000000000000000000000000000000000081526004016110769190614389565b60405180910390fd5b61109361108e85838686611117565b611ea2565b5050505050565b6000806110a5611c75565b90508060000160008473ffffffffffffffffffffffffffffffffffffffff1673ffffffffffffffffffffffffffffffffffffffff168152602001908152602001600020600101600e9054906101000a900460ff16915050919050565b611109611aa3565b61111382826127eb565b5050565b60008484848460405160200161113094939291906144db565b604051602081830303815290604052805190602001209050949350505050565b6060600061115c611df1565b73ffffffffffffffffffffffffffffffffffffffff163373ffffffffffffffffffffffffffffffffffffffff16146111ff57600036611199612973565b60003690506111a8919061451b565b9080926111b793929190614559565b8080601f016020809104026020016040519081016040528093929190818152602001838380828437600081840152601f19601f8201169050808301925050505050505061124e565b600067ffffffffffffffff81111561121a57611219614594565b5b6040519080825280601f01601f19166020018201604052801561124c5781602001600182028036833780820191505090505b505b90508383905067ffffffffffffffff81111561126d5761126c614594565b5b6040519080825280602002602001820160405280156112a057816020015b606081526020019060019003908161128b5790505b50915060005b8484905081101561133257611301308686848181106112c8576112c761429d565b5b90506020028101906112da91906145d2565b856040516020016112ed93929190614696565b604051602081830303815290604052612978565b8382815181106113145761131361429d565b5b6020026020010181905250808061132a90614332565b9150506112a6565b505092915050565b6000806113468461109a565b1561135757600080915091506113df565b3073ffffffffffffffffffffffffffffffffffffffff168573ffffffffffffffffffffffffffffffffffffffff160361139f5761139484846129fc565b6000915091506113df565b60006113ab8585610df0565b90506000806113ba8389611598565b91509150816113cb576000806113d7565b60008163ffffffff1614815b945094505050505b935093915050565b6113ef611aa3565b6113f98282612a22565b505050565b6000611408612c1f565b905060008160000160089054906101000a900460ff1615905060008260000160009054906101000a900467ffffffffffffffff1690506000808267ffffffffffffffff161480156114565750825b9050600060018367ffffffffffffffff1614801561148b575060003073ffffffffffffffffffffffffffffffffffffffff163b145b905081158015611499575080155b156114d0576040517ff92ee8a900000000000000000000000000000000000000000000000000000000815260040160405180910390fd5b60018560000160006101000a81548167ffffffffffffffff021916908367ffffffffffffffff16021790555083156115205760018560000160086101000a81548160ff0219169083151502179055505b61152986612c47565b83156115855760008560000160086101000a81548160ff0219169083151502179055507fc7f505b2f371ae2175ee4913f4499e1f2633a7b5936321eed1cdaeb6115181d2600160405161157c9190614701565b60405180910390a15b505050505050565b600062069780905090565b60008067ffffffffffffffff80168467ffffffffffffffff16036115c357600160009150915061160e565b6000806115d08686610b4c565b50509150915060008265ffffffffffff161415801561160657506115f2612c5b565b65ffffffffffff168265ffffffffffff1611155b819350935050505b9250929050565b61161d611aa3565b6116278282612c6b565b5050565b600080611636611c75565b90506000611642611df1565b905060006116508686611e79565b9050600061166089898989611117565b9050600084600201600083815260200190815260200160002060000160009054906101000a900465ffffffffffff1665ffffffffffff16036116d957806040517f60a299b00000000000000000000000000000000000000000000000000000000081526004016116d09190613ee6565b60405180910390fd5b8273ffffffffffffffffffffffffffffffffffffffff168973ffffffffffffffffffffffffffffffffffffffff1614611793576000611719600085611598565b509050600061173961173361172e8c87610df0565b61086d565b86611598565b50905081158015611748575080155b1561179057848b8b866040517f3fe2751c000000000000000000000000000000000000000000000000000000008152600401611787949392919061471c565b60405180910390fd5b50505b83600201600082815260200190815260200160002060000160006101000a81549065ffffffffffff0219169055600084600201600083815260200190815260200160002060000160069054906101000a900463ffffffff1690508063ffffffff16827fbd9ac67a6e2f6463b80927326310338bcbb4bdb7936ce1365ea3e01067e7b9f760405160405180910390a38095505050505050949350505050565b600080600061183e611c75565b9050600061184a611df1565b9050600061185a828a8a8a611df9565b91505060008163ffffffff1661186e612c5b565b6118789190614761565b905060008263ffffffff1614806118b2575060008765ffffffffffff161180156118b157508065ffffffffffff168765ffffffffffff16105b5b1561190157828a6118c38b8b611e79565b6040517f81c6f24b0000000000000000000000000000000000000000000000000000000081526004016118f8939291906143b3565b60405180910390fd5b61191b8765ffffffffffff168265ffffffffffff16612dd7565b9650611929838b8b8b611117565b955061193486612df0565b600184600201600088815260200190815260200160002060000160069054906101000a900463ffffffff160194508684600201600088815260200190815260200160002060000160006101000a81548165ffffffffffff021916908365ffffffffffff1602179055508484600201600088815260200190815260200160002060000160066101000a81548163ffffffff021916908363ffffffff1602179055508463ffffffff16867f82a2da5dee54ea8021c6545b4444620291e07ee83be6dd57edb175062715f3b489868e8e8e604051611a1395949392919061479b565b60405180910390a35050505094509492505050565b611a30611df1565b73ffffffffffffffffffffffffffffffffffffffff168173ffffffffffffffffffffffffffffffffffffffff1614611a94576040517f5f159e6300000000000000000000000000000000000000000000000000000000815260040160405180910390fd5b611a9e8282612a22565b505050565b6000611aad611df1565b9050600080611ac383611abe612e91565b612e9e565b9150915081611b4b5760008163ffffffff1603611b2f576000611aec611ae7612e91565b612f8c565b5091505083816040517ff07e038f000000000000000000000000000000000000000000000000000000008152600401611b269291906147e9565b60405180910390fd5b611b49611b448430611b3f612e91565b611117565b611ea2565b505b505050565b6000611b5a611c75565b9050818160000160008673ffffffffffffffffffffffffffffffffffffffff1673ffffffffffffffffffffffffffffffffffffffff1681526020019081526020016000206000016000857bffffffffffffffffffffffffffffffffffffffffffffffffffffffff19167bffffffffffffffffffffffffffffffffffffffffffffffffffffffff1916815260200190815260200160002060006101000a81548167ffffffffffffffff021916908367ffffffffffffffff1602179055508167ffffffffffffffff168473ffffffffffffffffffffffffffffffffffffffff167f9ea6790c7dadfd01c9f8b9762b3682607af2c7e79e05a9f9fdf5580dde94915185604051611c679190614812565b60405180910390a350505050565b60007f40c6c8c28789853c7efd823ab20824bbd71718a8a5915e855f6f288c9a26ad00905090565b600080611cb9836dffffffffffffffffffffffffffff16612550565b5050905080915050919050565b6000611cd0611c75565b90503073ffffffffffffffffffffffffffffffffffffffff168373ffffffffffffffffffffffffffffffffffffffff1603611d4257826040517f5a068bc8000000000000000000000000000000000000000000000000000000008152600401611d399190614389565b60405180910390fd5b818160000160008573ffffffffffffffffffffffffffffffffffffffff1673ffffffffffffffffffffffffffffffffffffffff168152602001908152602001600020600101600e6101000a81548160ff0219169083151502179055508273ffffffffffffffffffffffffffffffffffffffff167f90d4e7bb7e5d933792b3562e1741306f8be94837e1348dacef9b6f1df56eb13883604051611de49190613e08565b60405180910390a2505050565b600033905090565b6000803073ffffffffffffffffffffffffffffffffffffffff168573ffffffffffffffffffffffffffffffffffffffff1603611e4357611e3a868585612e9e565b91509150611e70565b60048484905010611e6757611e628686611e5d8787611e79565b61133a565b611e6b565b6000805b915091505b94509492505050565b60008282600090600492611e8f93929190614559565b90611e9a9190614845565b905092915050565b600080611ead611c75565b9050600081600201600085815260200190815260200160002060000160009054906101000a900465ffffffffffff169050600082600201600086815260200190815260200160002060000160069054906101000a900463ffffffff16905060008265ffffffffffff1603611f5857846040517f60a299b0000000000000000000000000000000000000000000000000000000008152600401611f4f9190613ee6565b60405180910390fd5b611f60612c5b565b65ffffffffffff168265ffffffffffff161115611fb457846040517f18cb6b7a000000000000000000000000000000000000000000000000000000008152600401611fab9190613ee6565b60405180910390fd5b611fbd82612691565b15611fff57846040517f78a5d6e4000000000000000000000000000000000000000000000000000000008152600401611ff69190613ee6565b60405180910390fd5b82600201600086815260200190815260200160002060000160006101000a81549065ffffffffffff02191690558063ffffffff16857f76a2a46953689d4861a5d3f6ed883ad7e6af674a21f8e162707159fc9dde614d60405160405180910390a3809350505050919050565b600082826040516020016120809291906148a4565b60405160208183030381529060405280519060200120905092915050565b6060814710156120e557306040517fcd7860590000000000000000000000000000000000000000000000000000000081526004016120dc9190614389565b60405180910390fd5b6000808573ffffffffffffffffffffffffffffffffffffffff16848660405161210e91906148cd565b60006040518083038185875af1925050503d806000811461214b576040519150601f19603f3d011682016040523d82523d6000602084013e612150565b606091505b5091509150612160868383613374565b925050509392505050565b600080612176611c75565b905067ffffffffffffffff80168667ffffffffffffffff16036121d057856040517f1871a90c0000000000000000000000000000000000000000000000000000000081526004016121c791906138d8565b60405180910390fd5b6000808260010160008967ffffffffffffffff1667ffffffffffffffff16815260200190815260200160002060000160008873ffffffffffffffffffffffffffffffffffffffff1673ffffffffffffffffffffffffffffffffffffffff16815260200190815260200160002060000160009054906101000a900465ffffffffffff1665ffffffffffff1614905060008115612392578563ffffffff16612274612c5b565b61227e9190614761565b905060405180604001604052808265ffffffffffff1681526020016122a88763ffffffff16613403565b6dffffffffffffffffffffffffffff168152508360010160008a67ffffffffffffffff1667ffffffffffffffff16815260200190815260200160002060000160008973ffffffffffffffffffffffffffffffffffffffff1673ffffffffffffffffffffffffffffffffffffffff16815260200190815260200160002060008201518160000160006101000a81548165ffffffffffff021916908365ffffffffffff16021790555060208201518160000160066101000a8154816dffffffffffffffffffffffffffff02191690836dffffffffffffffffffffffffffff1602179055509050506124e5565b61243e8560008560010160008c67ffffffffffffffff1667ffffffffffffffff16815260200190815260200160002060000160008b73ffffffffffffffffffffffffffffffffffffffff1673ffffffffffffffffffffffffffffffffffffffff16815260200190815260200160002060000160069054906101000a90046dffffffffffffffffffffffffffff166dffffffffffffffffffffffffffff166134139092919063ffffffff16565b8460010160008b67ffffffffffffffff1667ffffffffffffffff16815260200190815260200160002060000160008a73ffffffffffffffffffffffffffffffffffffffff1673ffffffffffffffffffffffffffffffffffffffff16815260200190815260200160002060000160068294508391906101000a8154816dffffffffffffffffffffffffffff02191690836dffffffffffffffffffffffffffff16021790555050505b8673ffffffffffffffffffffffffffffffffffffffff168867ffffffffffffffff167ff98448b987f1428e0e230e1f3c6e2ce15b5693eaf31827fbd0b1ec4b424ae7cf87848660405161253a939291906148e4565b60405180910390a3819350505050949350505050565b600080600061256684612561612c5b565b6134a5565b9250925092509193909250565b600061257d611c75565b9050600067ffffffffffffffff168367ffffffffffffffff1614806125b5575067ffffffffffffffff80168367ffffffffffffffff16145b156125f757826040517f1871a90c0000000000000000000000000000000000000000000000000000000081526004016125ee91906138d8565b60405180910390fd5b818160010160008567ffffffffffffffff1667ffffffffffffffff16815260200190815260200160002060010160006101000a81548167ffffffffffffffff021916908367ffffffffffffffff1602179055508167ffffffffffffffff168367ffffffffffffffff167f1fd6dd7631312dfac2205b52913f99de03b4d7e381d5d27d3dbfe0713e6e634060405160405180910390a3505050565b600061269b612c5b565b65ffffffffffff166126ab610ced565b63ffffffff16836126bc9190614761565b65ffffffffffff1611159050919050565b60006126d7611c75565b9050600067ffffffffffffffff168367ffffffffffffffff16148061270f575067ffffffffffffffff80168367ffffffffffffffff16145b1561275157826040517f1871a90c00000000000000000000000000000000000000000000000000000000815260040161274891906138d8565b60405180910390fd5b818160010160008567ffffffffffffffff1667ffffffffffffffff16815260200190815260200160002060010160086101000a81548167ffffffffffffffff021916908367ffffffffffffffff1602179055508167ffffffffffffffff168367ffffffffffffffff167f7a8059630b897b5de4c08ade69f8b90c3ead1f8596d62d10b6c4d14a0afb4ae260405160405180910390a3505050565b60006127f5611c75565b905067ffffffffffffffff80168367ffffffffffffffff160361284f57826040517f1871a90c00000000000000000000000000000000000000000000000000000000815260040161284691906138d8565b60405180910390fd5b60006128c38361285d61158d565b8460010160008867ffffffffffffffff1667ffffffffffffffff16815260200190815260200160002060010160109054906101000a90046dffffffffffffffffffffffffffff166dffffffffffffffffffffffffffff166134139092919063ffffffff16565b8360010160008767ffffffffffffffff1667ffffffffffffffff16815260200190815260200160002060010160108294508391906101000a8154816dffffffffffffffffffffffffffff02191690836dffffffffffffffffffffffffffff16021790555050508367ffffffffffffffff167ffeb69018ee8b8fd50ea86348f1267d07673379f72cffdeccec63853ee8ce8b48848360405161296592919061491b565b60405180910390a250505050565b600090565b60606000808473ffffffffffffffffffffffffffffffffffffffff16846040516129a291906148cd565b600060405180830381855af49150503d80600081146129dd576040519150601f19603f3d011682016040523d82523d6000602084013e6129e2565b606091505b50915091506129f2858383613374565b9250505092915050565b600080612a07611c75565b9050612a13848461206b565b81600301541491505092915050565b600080612a2d611c75565b905067ffffffffffffffff80168467ffffffffffffffff1603612a8757836040517f1871a90c000000000000000000000000000000000000000000000000000000008152600401612a7e91906138d8565b60405180910390fd5b60008160010160008667ffffffffffffffff1667ffffffffffffffff16815260200190815260200160002060000160008573ffffffffffffffffffffffffffffffffffffffff1673ffffffffffffffffffffffffffffffffffffffff16815260200190815260200160002060000160009054906101000a900465ffffffffffff1665ffffffffffff1603612b1f576000915050612c19565b8060010160008567ffffffffffffffff1667ffffffffffffffff16815260200190815260200160002060000160008473ffffffffffffffffffffffffffffffffffffffff1673ffffffffffffffffffffffffffffffffffffffff168152602001908152602001600020600080820160006101000a81549065ffffffffffff02191690556000820160066101000a8154906dffffffffffffffffffffffffffff021916905550508273ffffffffffffffffffffffffffffffffffffffff168467ffffffffffffffff167ff229baa593af28c41b1d16b748cd7688f0c83aaf92d4be41c44005defe84c16660405160405180910390a360019150505b92915050565b60007ff0c57e16840df040f15088dc2f81fe391c3923bec73e23a9662efc9c229c6a00905090565b612c4f613502565b612c5881613542565b50565b6000612c66426135ce565b905090565b6000612c75611c75565b90506000612d0383612c8561158d565b8460000160008873ffffffffffffffffffffffffffffffffffffffff1673ffffffffffffffffffffffffffffffffffffffff16815260200190815260200160002060010160009054906101000a90046dffffffffffffffffffffffffffff166dffffffffffffffffffffffffffff166134139092919063ffffffff16565b8360000160008773ffffffffffffffffffffffffffffffffffffffff1673ffffffffffffffffffffffffffffffffffffffff16815260200190815260200160002060010160008294508391906101000a8154816dffffffffffffffffffffffffffff02191690836dffffffffffffffffffffffffffff16021790555050508373ffffffffffffffffffffffffffffffffffffffff167fa56b76017453f399ec2327ba00375dbfb1fd070ff854341ad6191e6a2e2de19c8483604051612dc992919061491b565b60405180910390a250505050565b6000818311612de65781612de8565b825b905092915050565b6000612dfa611c75565b9050600081600201600084815260200190815260200160002060000160009054906101000a900465ffffffffffff16905060008165ffffffffffff1614158015612e4a5750612e4881612691565b155b15612e8c57826040517f813e9459000000000000000000000000000000000000000000000000000000008152600401612e839190613ee6565b60405180910390fd5b505050565b3660008036915091509091565b6000806004848490501015612eb95760008091509150612f84565b3073ffffffffffffffffffffffffffffffffffffffff168573ffffffffffffffffffffffffffffffffffffffff1603612f0a57612eff30612efa8686611e79565b6129fc565b600091509150612f84565b6000806000612f198787612f8c565b92509250925082612f335760008094509450505050612f84565b600080612f40848b611598565b9150915081612f5a57600080965096505050505050612f84565b612f708363ffffffff168263ffffffff16612dd7565b955060008663ffffffff1614965050505050505b935093915050565b60008060006004858590501015612fad57600080600092509250925061336d565b6000612fb98686611e79565b905063853551b860e01b7bffffffffffffffffffffffffffffffffffffffffffffffffffffffff1916817bffffffffffffffffffffffffffffffffffffffffffffffffffffffff1916148061305257506330cae18760e01b7bffffffffffffffffffffffffffffffffffffffffffffffffffffffff1916817bffffffffffffffffffffffffffffffffffffffffffffffffffffffff1916145b806130a15750635296295260e01b7bffffffffffffffffffffffffffffffffffffffffffffffffffffffff1916817bffffffffffffffffffffffffffffffffffffffffffffffffffffffff1916145b806130f0575063a64d95ce60e01b7bffffffffffffffffffffffffffffffffffffffffffffffffffffffff1916817bffffffffffffffffffffffffffffffffffffffffffffffffffffffff1916145b8061313f575063d22b598960e01b7bffffffffffffffffffffffffffffffffffffffffffffffffffffffff1916817bffffffffffffffffffffffffffffffffffffffffffffffffffffffff1916145b156131555760016000809350935093505061336d565b6318ff183c60e01b7bffffffffffffffffffffffffffffffffffffffffffffffffffffffff1916817bffffffffffffffffffffffffffffffffffffffffffffffffffffffff191614806131ec575063167bd39560e01b7bffffffffffffffffffffffffffffffffffffffffffffffffffffffff1916817bffffffffffffffffffffffffffffffffffffffffffffffffffffffff1916145b8061323b57506308d6122d60e01b7bffffffffffffffffffffffffffffffffffffffffffffffffffffffff1916817bffffffffffffffffffffffffffffffffffffffffffffffffffffffff1916145b15613285576000868660049060249261325693929190614559565b8101906132639190614982565b9050600061327082610cf8565b9050600160008295509550955050505061336d565b6325c471a060e01b7bffffffffffffffffffffffffffffffffffffffffffffffffffffffff1916817bffffffffffffffffffffffffffffffffffffffffffffffffffffffff1916148061331c575063b7d2b16260e01b7bffffffffffffffffffffffffffffffffffffffffffffffffffffffff1916817bffffffffffffffffffffffffffffffffffffffffffffffffffffffff1916145b15613360576000868660049060249261333793929190614559565b810190613344919061389c565b9050600161335182610d9a565b6000945094509450505061336d565b6000806000935093509350505b9250925092565b6060826133895761338482613628565b6133fb565b600082511480156133b1575060008473ffffffffffffffffffffffffffffffffffffffff163b145b156133f357836040517f9996b3150000000000000000000000000000000000000000000000000000000081526004016133ea9190614389565b60405180910390fd5b8190506133fc565b5b9392505050565b60008163ffffffff169050919050565b6000806000613431866dffffffffffffffffffffffffffff16611c9d565b905060006134718563ffffffff168763ffffffff168463ffffffff1611613459576000613466565b878461346591906149af565b5b63ffffffff16612dd7565b90508063ffffffff16613482612c5b565b61348c9190614761565b925061349982878561366d565b93505050935093915050565b6000806000806000806134c7886dffffffffffffffffffffffffffff166136b9565b9250925092508665ffffffffffff168165ffffffffffff1611156134ed578282826134f2565b816000805b9550955095505050509250925092565b61350a6136fb565b613540576040517fd7e6bcf800000000000000000000000000000000000000000000000000000000815260040160405180910390fd5b565b61354a613502565b600073ffffffffffffffffffffffffffffffffffffffff168173ffffffffffffffffffffffffffffffffffffffff16036135bc5760006040517f0813ada20000000000000000000000000000000000000000000000000000000081526004016135b39190614389565b60405180910390fd5b6135ca60008260008061216b565b5050565b600065ffffffffffff8016821115613620576030826040517f6dfcc650000000000000000000000000000000000000000000000000000000008152600401613617929190614a3e565b60405180910390fd5b819050919050565b60008151111561363b5780518082602001fd5b6040517f1425ea4200000000000000000000000000000000000000000000000000000000815260040160405180910390fd5b60008263ffffffff1660208563ffffffff166dffffffffffffffffffffffffffff16901b60408465ffffffffffff166dffffffffffffffffffffffffffff16901b171790509392505050565b6000806000808490508092506020816dffffffffffffffffffffffffffff16901c93506040816dffffffffffffffffffffffffffff16901c9150509193909250565b6000613705612c1f565b60000160089054906101000a900460ff16905090565b600080fd5b600080fd5b600073ffffffffffffffffffffffffffffffffffffffff82169050919050565b600061375082613725565b9050919050565b61376081613745565b811461376b57600080fd5b50565b60008135905061377d81613757565b92915050565b600080fd5b600080fd5b600080fd5b60008083601f8401126137a8576137a7613783565b5b8235905067ffffffffffffffff8111156137c5576137c4613788565b5b6020830191508360208202830111156137e1576137e061378d565b5b9250929050565b600067ffffffffffffffff82169050919050565b613805816137e8565b811461381057600080fd5b50565b600081359050613822816137fc565b92915050565b600080600080606085870312156138425761384161371b565b5b60006138508782880161376e565b945050602085013567ffffffffffffffff81111561387157613870613720565b5b61387d87828801613792565b9350935050604061389087828801613813565b91505092959194509250565b6000602082840312156138b2576138b161371b565b5b60006138c084828501613813565b91505092915050565b6138d2816137e8565b82525050565b60006020820190506138ed60008301846138c9565b92915050565b600063ffffffff82169050919050565b61390c816138f3565b82525050565b60006020820190506139276000830184613903565b92915050565b60008115159050919050565b6139428161392d565b811461394d57600080fd5b50565b60008135905061395f81613939565b92915050565b6000806040838503121561397c5761397b61371b565b5b600061398a8582860161376e565b925050602061399b85828601613950565b9150509250929050565b600080604083850312156139bc576139bb61371b565b5b60006139ca8582860161376e565b92505060206139db8582860161376e565b9150509250929050565b60008083601f8401126139fb576139fa613783565b5b8235905067ffffffffffffffff811115613a1857613a17613788565b5b602083019150836001820283011115613a3457613a3361378d565b5b9250929050565b600080600060408486031215613a5457613a5361371b565b5b6000613a628682870161376e565b935050602084013567ffffffffffffffff811115613a8357613a82613720565b5b613a8f868287016139e5565b92509250509250925092565b613aa4816138f3565b8114613aaf57600080fd5b50565b600081359050613ac181613a9b565b92915050565b600080600060608486031215613ae057613adf61371b565b5b6000613aee86828701613813565b9350506020613aff8682870161376e565b9250506040613b1086828701613ab2565b9150509250925092565b60008060408385031215613b3157613b3061371b565b5b6000613b3f85828601613813565b9250506020613b508582860161376e565b9150509250929050565b600065ffffffffffff82169050919050565b613b7581613b5a565b82525050565b6000608082019050613b906000830187613b6c565b613b9d6020830186613903565b613baa6040830185613903565b613bb76060830184613b6c565b95945050505050565b60008060408385031215613bd757613bd661371b565b5b6000613be585828601613813565b9250506020613bf685828601613813565b9150509250929050565b6000819050919050565b613c1381613c00565b8114613c1e57600080fd5b50565b600081359050613c3081613c0a565b92915050565b600060208284031215613c4c57613c4b61371b565b5b6000613c5a84828501613c21565b91505092915050565b6000602082019050613c786000830184613b6c565b92915050565b600060208284031215613c9457613c9361371b565b5b6000613ca28482850161376e565b91505092915050565b60007fffffffff0000000000000000000000000000000000000000000000000000000082169050919050565b613ce081613cab565b8114613ceb57600080fd5b50565b600081359050613cfd81613cd7565b92915050565b60008060408385031215613d1a57613d1961371b565b5b6000613d288582860161376e565b9250506020613d3985828601613cee565b9150509250929050565b60008083601f840112613d5957613d58613783565b5b8235905067ffffffffffffffff811115613d7657613d75613788565b5b602083019150836001820283011115613d9257613d9161378d565b5b9250929050565b600080600060408486031215613db257613db161371b565b5b6000613dc086828701613813565b935050602084013567ffffffffffffffff811115613de157613de0613720565b5b613ded86828701613d43565b92509250509250925092565b613e028161392d565b82525050565b6000602082019050613e1d6000830184613df9565b92915050565b60008060408385031215613e3a57613e3961371b565b5b6000613e4885828601613813565b9250506020613e5985828601613ab2565b9150509250929050565b60008060008060608587031215613e7d57613e7c61371b565b5b6000613e8b8782880161376e565b9450506020613e9c8782880161376e565b935050604085013567ffffffffffffffff811115613ebd57613ebc613720565b5b613ec9878288016139e5565b925092505092959194509250565b613ee081613c00565b82525050565b6000602082019050613efb6000830184613ed7565b92915050565b60008083601f840112613f1757613f16613783565b5b8235905067ffffffffffffffff811115613f3457613f33613788565b5b602083019150836020820283011115613f5057613f4f61378d565b5b9250929050565b60008060208385031215613f6e57613f6d61371b565b5b600083013567ffffffffffffffff811115613f8c57613f8b613720565b5b613f9885828601613f01565b92509250509250929050565b600081519050919050565b600082825260208201905092915050565b6000819050602082019050919050565b600081519050919050565b600082825260208201905092915050565b60005b8381101561400a578082015181840152602081019050613fef565b60008484015250505050565b6000601f19601f8301169050919050565b600061403282613fd0565b61403c8185613fdb565b935061404c818560208601613fec565b61405581614016565b840191505092915050565b600061406c8383614027565b905092915050565b6000602082019050919050565b600061408c82613fa4565b6140968185613faf565b9350836020820285016140a885613fc0565b8060005b858110156140e457848403895281516140c58582614060565b94506140d083614074565b925060208a019950506001810190506140ac565b50829750879550505050505092915050565b600060208201905081810360008301526141108184614081565b905092915050565b6000806000606084860312156141315761413061371b565b5b600061413f8682870161376e565b93505060206141508682870161376e565b925050604061416186828701613cee565b9150509250925092565b60006040820190506141806000830185613df9565b61418d6020830184613903565b9392505050565b600080604083850312156141ab576141aa61371b565b5b60006141b98582860161376e565b92505060206141ca85828601613ab2565b9150509250929050565b6141dd81613b5a565b81146141e857600080fd5b50565b6000813590506141fa816141d4565b92915050565b6000806000806060858703121561421a5761421961371b565b5b60006142288782880161376e565b945050602085013567ffffffffffffffff81111561424957614248613720565b5b614255878288016139e5565b93509350506040614268878288016141eb565b91505092959194509250565b60006040820190506142896000830185613ed7565b6142966020830184613903565b9392505050565b7f4e487b7100000000000000000000000000000000000000000000000000000000600052603260045260246000fd5b6000602082840312156142e2576142e161371b565b5b60006142f084828501613cee565b91505092915050565b7f4e487b7100000000000000000000000000000000000000000000000000000000600052601160045260246000fd5b6000819050919050565b600061433d82614328565b91507fffffffffffffffffffffffffffffffffffffffffffffffffffffffffffffffff820361436f5761436e6142f9565b5b600182019050919050565b61438381613745565b82525050565b600060208201905061439e600083018461437a565b92915050565b6143ad81613cab565b82525050565b60006060820190506143c8600083018661437a565b6143d5602083018561437a565b6143e260408301846143a4565b949350505050565b600082825260208201905092915050565b82818337600083830152505050565b600061441683856143ea565b93506144238385846143fb565b61442c83614016565b840190509392505050565b6000602082019050818103600083015261445281848661440a565b90509392505050565b60008151905061446a81613cd7565b92915050565b6000602082840312156144865761448561371b565b5b60006144948482850161445b565b91505092915050565b600082825260208201905092915050565b60006144ba838561449d565b93506144c78385846143fb565b6144d083614016565b840190509392505050565b60006060820190506144f0600083018761437a565b6144fd602083018661437a565b81810360408301526145108184866144ae565b905095945050505050565b600061452682614328565b915061453183614328565b9250828203905081811115614549576145486142f9565b5b92915050565b600080fd5b600080fd5b6000808585111561456d5761456c61454f565b5b8386111561457e5761457d614554565b5b6001850283019150848603905094509492505050565b7f4e487b7100000000000000000000000000000000000000000000000000000000600052604160045260246000fd5b600080fd5b600080fd5b600080fd5b600080833560016020038436030381126145ef576145ee6145c3565b5b80840192508235915067ffffffffffffffff821115614611576146106145c8565b5b60208301925060018202360383131561462d5761462c6145cd565b5b509250929050565b600081905092915050565b600061464c8385614635565b93506146598385846143fb565b82840190509392505050565b600061467082613fd0565b61467a8185614635565b935061468a818560208601613fec565b80840191505092915050565b60006146a3828587614640565b91506146af8284614665565b9150819050949350505050565b6000819050919050565b6000819050919050565b60006146eb6146e66146e1846146bc565b6146c6565b6137e8565b9050919050565b6146fb816146d0565b82525050565b600060208201905061471660008301846146f2565b92915050565b6000608082019050614731600083018761437a565b61473e602083018661437a565b61474b604083018561437a565b61475860608301846143a4565b95945050505050565b600061476c82613b5a565b915061477783613b5a565b9250828201905065ffffffffffff811115614795576147946142f9565b5b92915050565b60006080820190506147b06000830188613b6c565b6147bd602083018761437a565b6147ca604083018661437a565b81810360608301526147dd8184866144ae565b90509695505050505050565b60006040820190506147fe600083018561437a565b61480b60208301846138c9565b9392505050565b600060208201905061482760008301846143a4565b92915050565b600082905092915050565b600082821b905092915050565b6000614851838361482d565b8261485c8135613cab565b9250600482101561489c576148977fffffffff0000000000000000000000000000000000000000000000000000000083600403600802614838565b831692505b505092915050565b60006040820190506148b9600083018561437a565b6148c660208301846143a4565b9392505050565b60006148d98284614665565b915081905092915050565b60006060820190506148f96000830186613903565b6149066020830185613b6c565b6149136040830184613df9565b949350505050565b60006040820190506149306000830185613903565b61493d6020830184613b6c565b9392505050565b600061494f82613725565b9050919050565b61495f81614944565b811461496a57600080fd5b50565b60008135905061497c81614956565b92915050565b6000602082840312156149985761499761371b565b5b60006149a68482850161496d565b91505092915050565b60006149ba826138f3565b91506149c5836138f3565b9250828203905063ffffffff8111156149e1576149e06142f9565b5b92915050565b6000819050919050565b600060ff82169050919050565b6000614a19614a14614a0f846149e7565b6146c6565b6149f1565b9050919050565b614a29816149fe565b82525050565b614a3881614328565b82525050565b6000604082019050614a536000830185614a20565b614a606020830184614a2f565b939250505056fea2646970667358221220294116a885383cc1703aaa8be83630efc86c0119198397088d97aca84100b86b64736f6c63430008140033",
  "devdoc": {
    "errors": {
      "AddressEmptyCode(address)": [
        {
          "details": "There's no code at `target` (it is not a contract)."
        }
      ],
      "AddressInsufficientBalance(address)": [
        {
          "details": "The ETH balance of the account is not enough to perform the operation."
        }
      ],
      "FailedInnerCall()": [
        {
          "details": "A call to an address target failed. The target may have reverted."
        }
      ],
      "InvalidInitialization()": [
        {
          "details": "The contract is already initialized."
        }
      ],
      "NotInitializing()": [
        {
          "details": "The contract is not initializing."
        }
      ],
      "SafeCastOverflowedUintDowncast(uint8,uint256)": [
        {
          "details": "Value doesn't fit in an uint of `bits` size."
        }
      ]
    },
    "events": {
      "Initialized(uint64)": {
        "details": "Triggered when the contract has been initialized or reinitialized."
      },
      "OperationCanceled(bytes32,uint32)": {
        "details": "A scheduled operation was canceled."
      },
      "OperationExecuted(bytes32,uint32)": {
        "details": "A scheduled operation was executed."
      },
      "OperationScheduled(bytes32,uint32,uint48,address,address,bytes)": {
        "details": "A delayed operation was scheduled."
      },
      "RoleAdminChanged(uint64,uint64)": {
        "details": "Role acting as admin over a given `roleId` is updated."
      },
      "RoleGrantDelayChanged(uint64,uint32,uint48)": {
        "details": "Grant delay for a given `roleId` will be updated to `delay` when `since` is reached."
      },
      "RoleGranted(uint64,address,uint32,uint48,bool)": {
        "details": "Emitted when `account` is granted `roleId`. NOTE: The meaning of the `since` argument depends on the `newMember` argument. If the role is granted to a new member, the `since` argument indicates when the account becomes a member of the role, otherwise it indicates the execution delay for this account and roleId is updated."
      },
      "RoleGuardianChanged(uint64,uint64)": {
        "details": "Role acting as guardian over a given `roleId` is updated."
      },
      "RoleLabel(uint64,string)": {
        "details": "Informational labelling for a roleId."
      },
      "RoleRevoked(uint64,address)": {
        "details": "Emitted when `account` membership or `roleId` is revoked. Unlike granting, revoking is instantaneous."
      },
      "TargetAdminDelayUpdated(address,uint32,uint48)": {
        "details": "Admin delay for a given `target` will be updated to `delay` when `since` is reached."
      },
      "TargetClosed(address,bool)": {
        "details": "Target mode is updated (true = closed, false = open)."
      },
      "TargetFunctionRoleUpdated(address,bytes4,uint64)": {
        "details": "Role required to invoke `selector` on `target` is updated to `roleId`."
      }
    },
    "kind": "dev",
    "methods": {
      "canCall(address,address,bytes4)": {
        "details": "Check if an address (`caller`) is authorised to call a given function on a given contract directly (with no restriction). Additionally, it returns the delay needed to perform the call indirectly through the {schedule} & {execute} workflow. This function is usually called by the targeted contract to control immediate execution of restricted functions. Therefore we only return true if the call can be performed without any delay. If the call is subject to a previously set delay (not zero), then the function should return false and the caller should schedule the operation for future execution. If `immediate` is true, the delay can be disregarded and the operation can be immediately executed, otherwise the operation can be executed if and only if delay is greater than 0. NOTE: The IAuthority interface does not include the `uint32` delay. This is an extension of that interface that is backward compatible. Some contracts may thus ignore the second return argument. In that case they will fail to identify the indirect workflow, and will consider calls that require a delay to be forbidden. NOTE: This function does not report the permissions of this manager itself. These are defined by the {_canCallSelf} function instead."
      },
      "cancel(address,address,bytes)": {
        "details": "Cancel a scheduled (delayed) operation. Returns the nonce that identifies the previously scheduled operation that is cancelled. Requirements: - the caller must be the proposer, a guardian of the targeted function, or a global admin Emits a {OperationCanceled} event."
      },
      "consumeScheduledOp(address,bytes)": {
        "details": "Consume a scheduled operation targeting the caller. If such an operation exists, mark it as consumed (emit an {OperationExecuted} event and clean the state). Otherwise, throw an error. This is useful for contract that want to enforce that calls targeting them were scheduled on the manager, with all the verifications that it implies. Emit a {OperationExecuted} event."
      },
      "execute(address,bytes)": {
        "details": "Execute a function that is delay restricted, provided it was properly scheduled beforehand, or the execution delay is 0. Returns the nonce that identifies the previously scheduled operation that is executed, or 0 if the operation wasn't previously scheduled (if the caller doesn't have an execution delay). Emits an {OperationExecuted} event only if the call was scheduled and delayed."
      },
      "expiration()": {
        "details": "Expiration delay for scheduled proposals. Defaults to 1 week. IMPORTANT: Avoid overriding the expiration with 0. Otherwise every contract proposal will be expired immediately, disabling any scheduling usage."
      },
      "getAccess(uint64,address)": {
        "details": "Get the access details for a given account for a given role. These details include the timepoint at which membership becomes active, and the delay applied to all operation by this user that requires this permission level. Returns: [0] Timestamp at which the account membership becomes valid. 0 means role is not granted. [1] Current execution delay for the account. [2] Pending execution delay for the account. [3] Timestamp at which the pending execution delay will become active. 0 means no delay update is scheduled."
      },
      "getNonce(bytes32)": {
        "details": "Return the nonce for the latest scheduled operation with a given id. Returns 0 if the operation has never been scheduled."
      },
      "getRoleAdmin(uint64)": {
        "details": "Get the id of the role that acts as an admin for the given role. The admin permission is required to grant the role, revoke the role and update the execution delay to execute an operation that is restricted to this role."
      },
      "getRoleGrantDelay(uint64)": {
        "details": "Get the role current grant delay. Its value may change at any point without an event emitted following a call to {setGrantDelay}. Changes to this value, including effect timepoint are notified in advance by the {RoleGrantDelayChanged} event."
      },
      "getRoleGuardian(uint64)": {
        "details": "Get the role that acts as a guardian for a given role. The guardian permission allows canceling operations that have been scheduled under the role."
      },
      "getSchedule(bytes32)": {
        "details": "Return the timepoint at which a scheduled operation will be ready for execution. This returns 0 if the operation is not yet scheduled, has expired, was executed, or was canceled."
      },
      "getTargetAdminDelay(address)": {
        "details": "Get the admin delay for a target contract. Changes to contract configuration are subject to this delay."
      },
      "getTargetFunctionRole(address,bytes4)": {
        "details": "Get the role required to call a function."
      },
      "grantRole(uint64,address,uint32)": {
        "details": "Add `account` to `roleId`, or change its execution delay. This gives the account the authorization to call any function that is restricted to this role. An optional execution delay (in seconds) can be set. If that delay is non 0, the user is required to schedule any operation that is restricted to members of this role. The user will only be able to execute the operation after the delay has passed, before it has expired. During this period, admin and guardians can cancel the operation (see {cancel}). If the account has already been granted this role, the execution delay will be updated. This update is not immediate and follows the delay rules. For example, if a user currently has a delay of 3 hours, and this is called to reduce that delay to 1 hour, the new delay will take some time to take effect, enforcing that any operation executed in the 3 hours that follows this update was indeed scheduled before this update. Requirements: - the caller must be an admin for the role (see {getRoleAdmin}) - granted role must not be the `PUBLIC_ROLE` Emits a {RoleGranted} event."
      },
      "hasRole(uint64,address)": {
        "details": "Check if a given account currently has the permission level corresponding to a given role. Note that this permission might be associated with an execution delay. {getAccess} can provide more details."
      },
      "hashOperation(address,address,bytes)": {
        "details": "Hashing function for delayed operations."
      },
      "isTargetClosed(address)": {
        "details": "Get whether the contract is closed disabling any access. Otherwise role permissions are applied."
      },
      "labelRole(uint64,string)": {
        "details": "Give a label to a role, for improved role discoverability by UIs. Requirements: - the caller must be a global admin Emits a {RoleLabel} event."
      },
      "minSetback()": {
        "details": "Minimum setback for all delay updates, with the exception of execution delays. It can be increased without setback (and reset via {revokeRole} in the case event of an accidental increase). Defaults to 5 days."
      },
      "multicall(bytes[])": {
        "custom:oz-upgrades-unsafe-allow-reachable": "delegatecall",
        "details": "Receives and executes a batch of function calls on this contract."
      },
      "renounceRole(uint64,address)": {
        "details": "Renounce role permissions for the calling account with immediate effect. If the sender is not in the role this call has no effect. Requirements: - the caller must be `callerConfirmation`. Emits a {RoleRevoked} event if the account had the role."
      },
      "revokeRole(uint64,address)": {
        "details": "Remove an account from a role, with immediate effect. If the account does not have the role, this call has no effect. Requirements: - the caller must be an admin for the role (see {getRoleAdmin}) - revoked role must not be the `PUBLIC_ROLE` Emits a {RoleRevoked} event if the account had the role."
      },
      "schedule(address,bytes,uint48)": {
        "details": "Schedule a delayed operation for future execution, and return the operation identifier. It is possible to choose the timestamp at which the operation becomes executable as long as it satisfies the execution delays required for the caller. The special value zero will automatically set the earliest possible time. Returns the `operationId` that was scheduled. Since this value is a hash of the parameters, it can reoccur when the same parameters are used; if this is relevant, the returned `nonce` can be used to uniquely identify this scheduled operation from other occurrences of the same `operationId` in invocations of {execute} and {cancel}. Emits a {OperationScheduled} event. NOTE: It is not possible to concurrently schedule more than one operation with the same `target` and `data`. If this is necessary, a random byte can be appended to `data` to act as a salt that will be ignored by the target contract if it is using standard Solidity ABI encoding."
      },
      "setGrantDelay(uint64,uint32)": {
        "details": "Update the delay for granting a `roleId`. Requirements: - the caller must be a global admin Emits a {RoleGrantDelayChanged} event."
      },
      "setRoleAdmin(uint64,uint64)": {
        "details": "Change admin role for a given role. Requirements: - the caller must be a global admin Emits a {RoleAdminChanged} event"
      },
      "setRoleGuardian(uint64,uint64)": {
        "details": "Change guardian role for a given role. Requirements: - the caller must be a global admin Emits a {RoleGuardianChanged} event"
      },
      "setTargetAdminDelay(address,uint32)": {
        "details": "Set the delay for changing the configuration of a given target contract. Requirements: - the caller must be a global admin Emits a {TargetAdminDelayUpdated} event."
      },
      "setTargetClosed(address,bool)": {
        "details": "Set the closed flag for a contract. Requirements: - the caller must be a global admin Emits a {TargetClosed} event."
      },
      "setTargetFunctionRole(address,bytes4[],uint64)": {
        "details": "Set the role required to call functions identified by the `selectors` in the `target` contract. Requirements: - the caller must be a global admin Emits a {TargetFunctionRoleUpdated} event per selector."
      },
      "updateAuthority(address,address)": {
        "details": "Changes the authority of a target managed by this manager instance. Requirements: - the caller must be a global admin"
      }
    },
    "version": 1
  },
  "userdoc": {
    "kind": "user",
    "methods": {},
    "version": 1
  },
  "storageLayout": {
    "storage": [],
    "types": null
  }
}