{
  "address": "0xA6bf3144b67C3918308aB025ABD6cfFdBfA56b21",
  "abi": [
    {
      "anonymous": false,
      "inputs": [
        {
          "indexed": true,
          "internalType": "address",
          "name": "implementation",
          "type": "address"
        }
      ],
      "name": "Upgraded",
      "type": "event"
    },
    {
      "inputs": [],
      "name": "implementation",
      "outputs": [
        {
          "internalType": "address",
          "name": "",
          "type": "address"
        }
      ],
      "stateMutability": "view",
      "type": "function"
    },
    {
      "inputs": [
        {
          "internalType": "address",
          "name": "_implementation",
          "type": "address"
        }
      ],
      "name": "setDummyImplementation",
      "outputs": [],
      "stateMutability": "nonpayable",
      "type": "function"
    }
  ],
  "transactionHash": "0x1cf4c5b9dd53511c1b9107ce75e15fe7f259d0d3a1ef1662e40baaebc2e8f72f",
  "args": [],
  "numDeployments": 4,
  "solcInputHash": "ae8e633405c82115b04e4b26f122c4f8",
  "bytecode": "0x60806040523461001f57610011610024565b61044a610030823961044a90f35b61002a565b60405190565b600080fdfe60806040526004361015610013575b61014e565b61001e60003561003d565b80635c60da1b146100385763c39aa07d0361000e5761011b565b61009d565b60e01c90565b60405190565b600080fd5b600080fd5b600091031261005e57565b61004e565b60018060a01b031690565b61007790610063565b90565b6100839061006e565b9052565b919061009b9060006020850194019061007a565b565b346100cd576100ad366004610053565b6100c96100b8610158565b6100c0610043565b91829182610087565b0390f35b610049565b6100db8161006e565b036100e257565b600080fd5b905035906100f4826100d2565b565b906020828203126101105761010d916000016100e7565b90565b61004e565b60000190565b346101495761013361012e3660046100f6565b61016c565b61013b610043565b8061014581610115565b0390f35b610049565b600080fd5b600090565b610160610153565b50610169610205565b90565b61017d906101786102df565b610384565b565b90565b90565b60001b90565b61019f61019a6101a49261017f565b610185565b610182565b90565b6101d07f360894a13ba1a3210667c828492db98dca3e2076cc3735a920a3ca505d382bbc61018b565b90565b60001c90565b60018060a01b031690565b6101f06101f5916101d3565b6101d9565b90565b61020290546101e4565b90565b61020d610153565b50610229600061022361021e6101a7565b6103e2565b016101f8565b90565b60209181520190565b60207f6572000000000000000000000000000000000000000000000000000000000000917f4c69624469616d6f6e643a204d75737420626520636f6e7472616374206f776e60008201520152565b610290602260409261022c565b61029981610235565b0190565b6102b39060208101906000818303910152610283565b90565b156102bd57565b6102c5610043565b62461bcd60e51b8152806102db6004820161029d565b0390fd5b61030d336103076103016102fc60046102f6610409565b016101f8565b61006e565b9161006e565b146102b6565b565b9061032060018060a01b0391610185565b9181191691161790565b90565b61034161033c61034692610063565b61032a565b610063565b90565b6103529061032d565b90565b61035e90610349565b90565b90565b9061037961037461038092610355565b610361565b825461030f565b9055565b6103a081600061039a6103956101a7565b6103e2565b01610364565b6103ca7fbc7cd75a20ee27fd9adebab32041f755214dbc6bffa90cc0225b39da2e5c2d3b91610355565b906103d3610043565b806103dd81610115565b0390a2565b90565b7fc8fcad8db84d3cc18b4c41d551ea0ee66dd599cde068d998e57d5e09332c131c90565b6104116103e5565b9056fea2646970667358221220b33507ce1ea326696f0513a51d1098445c32093be04e835d6725a62e7152601864736f6c63430008180033",
  "devdoc": {
    "kind": "dev",
    "methods": {},
    "version": 1
  },
  "userdoc": {
    "kind": "user",
    "methods": {},
    "version": 1
  },
  "storageLayout": {
    "storage": [],
    "types": null
  }
}