{
  "address": "0x36c63c77a0672bd6d1f9af70dAEadaBbe3792562",
  "abi": [
    {
      "inputs": [
        {
          "components": [
            {
              "internalType": "uint256",
              "name": "oraclePrice",
              "type": "uint256"
            },
            {
              "internalType": "uint256",
              "name": "pay",
              "type": "uint256"
            },
            {
              "internalType": "uint256",
              "name": "slippage",
              "type": "uint256"
            },
            {
              "internalType": "uint16",
              "name": "market",
              "type": "uint16"
            },
            {
              "internalType": "bool",
              "name": "isLong",
              "type": "bool"
            },
            {
              "internalType": "bool",
              "name": "isOpen",
              "type": "bool"
            },
            {
              "internalType": "bool",
              "name": "isCreate",
              "type": "bool"
            },
            {
              "internalType": "bool",
              "name": "isFromMarket",
              "type": "bool"
            },
            {
              "internalType": "uint256",
              "name": "sizeDelta",
              "type": "uint256"
            },
            {
              "internalType": "uint256",
              "name": "price",
              "type": "uint256"
            },
            {
              "internalType": "uint256",
              "name": "collateralDelta",
              "type": "uint256"
            },
            {
              "internalType": "uint256",
              "name": "collateral",
              "type": "uint256"
            },
            {
              "internalType": "uint256",
              "name": "tp",
              "type": "uint256"
            },
            {
              "internalType": "uint256",
              "name": "sl",
              "type": "uint256"
            },
            {
              "internalType": "uint64",
              "name": "orderId",
              "type": "uint64"
            },
            {
              "internalType": "address",
              "name": "account",
              "type": "address"
            },
            {
              "internalType": "bool",
              "name": "isExec",
              "type": "bool"
            },
            {
              "internalType": "uint8",
              "name": "liqState",
              "type": "uint8"
            },
            {
              "internalType": "uint64",
              "name": "fromOrder",
              "type": "uint64"
            },
            {
              "internalType": "bytes32",
              "name": "refCode",
              "type": "bytes32"
            },
            {
              "internalType": "uint8",
              "name": "execNum",
              "type": "uint8"
            },
            {
              "internalType": "bool",
              "name": "isKeepLev",
              "type": "bool"
            },
            {
              "internalType": "bool",
              "name": "isKeepLevTP",
              "type": "bool"
            },
            {
              "internalType": "bool",
              "name": "isKeepLevSL",
              "type": "bool"
            },
            {
              "internalType": "bool",
              "name": "triggerAbove",
              "type": "bool"
            },
            {
              "internalType": "uint128",
              "name": "gas",
              "type": "uint128"
            }
          ],
          "internalType": "struct DummyDiamondImplementation.Tuple9848150",
          "name": "_inputs",
          "type": "tuple"
        }
      ],
      "name": "_increasePositionWithOrders",
      "outputs": [],
      "stateMutability": "nonpayable",
      "type": "function"
    },
    {
      "inputs": [
        {
          "internalType": "bytes",
          "name": "data",
          "type": "bytes"
        }
      ],
      "name": "addMarket",
      "outputs": [],
      "stateMutability": "nonpayable",
      "type": "function"
    },
    {
      "inputs": [],
      "name": "authority",
      "outputs": [
        {
          "internalType": "address",
          "name": "",
          "type": "address"
        }
      ],
      "stateMutability": "view",
      "type": "function"
    },
    {
      "inputs": [
        {
          "internalType": "address",
          "name": "market",
          "type": "address"
        },
        {
          "internalType": "address",
          "name": "account",
          "type": "address"
        },
        {
          "internalType": "bool",
          "name": "isLong",
          "type": "bool"
        }
      ],
      "name": "availableLiquidity",
      "outputs": [
        {
          "internalType": "uint256",
          "name": "",
          "type": "uint256"
        }
      ],
      "stateMutability": "view",
      "type": "function"
    },
    {
      "inputs": [
        {
          "internalType": "address",
          "name": "markets",
          "type": "address"
        },
        {
          "internalType": "bool",
          "name": "isIncrease",
          "type": "bool"
        },
        {
          "internalType": "uint256",
          "name": "orderID",
          "type": "uint256"
        },
        {
          "internalType": "bool",
          "name": "isLong",
          "type": "bool"
        }
      ],
      "name": "cancelOrder",
      "outputs": [],
      "stateMutability": "nonpayable",
      "type": "function"
    },
    {
      "inputs": [
        {
          "internalType": "uint16",
          "name": "marketId",
          "type": "uint16"
        }
      ],
      "name": "containsMarket",
      "outputs": [
        {
          "internalType": "bool",
          "name": "",
          "type": "bool"
        }
      ],
      "stateMutability": "view",
      "type": "function"
    },
    {
      "inputs": [
        {
          "components": [
            {
              "internalType": "address",
              "name": "facetAddress",
              "type": "address"
            },
            {
              "internalType": "uint8",
              "name": "action",
              "type": "uint8"
            },
            {
              "internalType": "bytes4[]",
              "name": "functionSelectors",
              "type": "bytes4[]"
            }
          ],
          "internalType": "struct DummyDiamondImplementation.Tuple6871229[]",
          "name": "_diamondCut",
          "type": "tuple[]"
        },
        {
          "internalType": "address",
          "name": "_init",
          "type": "address"
        },
        {
          "internalType": "bytes",
          "name": "_calldata",
          "type": "bytes"
        }
      ],
      "name": "diamondCut",
      "outputs": [],
      "stateMutability": "nonpayable",
      "type": "function"
    },
    {
      "inputs": [
        {
          "components": [
            {
              "internalType": "bytes32",
              "name": "refCode",
              "type": "bytes32"
            },
            {
              "internalType": "uint128",
              "name": "collateral",
              "type": "uint128"
            },
            {
              "internalType": "uint128",
              "name": "size",
              "type": "uint128"
            },
            {
              "internalType": "uint256",
              "name": "price",
              "type": "uint256"
            },
            {
              "internalType": "uint256",
              "name": "tp",
              "type": "uint256"
            },
            {
              "internalType": "bool",
              "name": "triggerAbove",
              "type": "bool"
            },
            {
              "internalType": "bool",
              "name": "isFromMarket",
              "type": "bool"
            },
            {
              "internalType": "bool",
              "name": "isKeepLev",
              "type": "bool"
            },
            {
              "internalType": "bool",
              "name": "isKeepLevTP",
              "type": "bool"
            },
            {
              "internalType": "bool",
              "name": "isKeepLevSL",
              "type": "bool"
            },
            {
              "internalType": "uint64",
              "name": "orderID",
              "type": "uint64"
            },
            {
              "internalType": "uint64",
              "name": "pairId",
              "type": "uint64"
            },
            {
              "internalType": "uint64",
              "name": "fromId",
              "type": "uint64"
            },
            {
              "internalType": "uint32",
              "name": "updatedAtBlock",
              "type": "uint32"
            },
            {
              "internalType": "uint8",
              "name": "extra0",
              "type": "uint8"
            },
            {
              "internalType": "address",
              "name": "account",
              "type": "address"
            },
            {
              "internalType": "uint96",
              "name": "extra1",
              "type": "uint96"
            },
            {
              "internalType": "uint256",
              "name": "sl",
              "type": "uint256"
            },
            {
              "internalType": "bool",
              "name": "isIncrease",
              "type": "bool"
            },
            {
              "internalType": "bool",
              "name": "isLong",
              "type": "bool"
            },
            {
              "internalType": "uint16",
              "name": "market",
              "type": "uint16"
            },
            {
              "internalType": "uint96",
              "name": "extra2",
              "type": "uint96"
            },
            {
              "internalType": "uint128",
              "name": "gas",
              "type": "uint128"
            },
            {
              "internalType": "uint8",
              "name": "version",
              "type": "uint8"
            }
          ],
          "internalType": "struct DummyDiamondImplementation.Tuple8473922",
          "name": "exeOrder",
          "type": "tuple"
        },
        {
          "components": [
            {
              "internalType": "uint256",
              "name": "oraclePrice",
              "type": "uint256"
            },
            {
              "internalType": "uint256",
              "name": "pay",
              "type": "uint256"
            },
            {
              "internalType": "uint256",
              "name": "slippage",
              "type": "uint256"
            },
            {
              "internalType": "uint16",
              "name": "market",
              "type": "uint16"
            },
            {
              "internalType": "bool",
              "name": "isLong",
              "type": "bool"
            },
            {
              "internalType": "bool",
              "name": "isOpen",
              "type": "bool"
            },
            {
              "internalType": "bool",
              "name": "isCreate",
              "type": "bool"
            },
            {
              "internalType": "bool",
              "name": "isFromMarket",
              "type": "bool"
            },
            {
              "internalType": "uint256",
              "name": "sizeDelta",
              "type": "uint256"
            },
            {
              "internalType": "uint256",
              "name": "price",
              "type": "uint256"
            },
            {
              "internalType": "uint256",
              "name": "collateralDelta",
              "type": "uint256"
            },
            {
              "internalType": "uint256",
              "name": "collateral",
              "type": "uint256"
            },
            {
              "internalType": "uint256",
              "name": "tp",
              "type": "uint256"
            },
            {
              "internalType": "uint256",
              "name": "sl",
              "type": "uint256"
            },
            {
              "internalType": "uint64",
              "name": "orderId",
              "type": "uint64"
            },
            {
              "internalType": "address",
              "name": "account",
              "type": "address"
            },
            {
              "internalType": "bool",
              "name": "isExec",
              "type": "bool"
            },
            {
              "internalType": "uint8",
              "name": "liqState",
              "type": "uint8"
            },
            {
              "internalType": "uint64",
              "name": "fromOrder",
              "type": "uint64"
            },
            {
              "internalType": "bytes32",
              "name": "refCode",
              "type": "bytes32"
            },
            {
              "internalType": "uint8",
              "name": "execNum",
              "type": "uint8"
            },
            {
              "internalType": "bool",
              "name": "isKeepLev",
              "type": "bool"
            },
            {
              "internalType": "bool",
              "name": "isKeepLevTP",
              "type": "bool"
            },
            {
              "internalType": "bool",
              "name": "isKeepLevSL",
              "type": "bool"
            },
            {
              "internalType": "bool",
              "name": "triggerAbove",
              "type": "bool"
            },
            {
              "internalType": "uint128",
              "name": "gas",
              "type": "uint128"
            }
          ],
          "internalType": "struct DummyDiamondImplementation.Tuple2000403",
          "name": "_params",
          "type": "tuple"
        }
      ],
      "name": "execAddOrderKey",
      "outputs": [],
      "stateMutability": "nonpayable",
      "type": "function"
    },
    {
      "inputs": [
        {
          "components": [
            {
              "internalType": "bytes32",
              "name": "refCode",
              "type": "bytes32"
            },
            {
              "internalType": "uint128",
              "name": "collateral",
              "type": "uint128"
            },
            {
              "internalType": "uint128",
              "name": "size",
              "type": "uint128"
            },
            {
              "internalType": "uint256",
              "name": "price",
              "type": "uint256"
            },
            {
              "internalType": "uint256",
              "name": "tp",
              "type": "uint256"
            },
            {
              "internalType": "bool",
              "name": "triggerAbove",
              "type": "bool"
            },
            {
              "internalType": "bool",
              "name": "isFromMarket",
              "type": "bool"
            },
            {
              "internalType": "bool",
              "name": "isKeepLev",
              "type": "bool"
            },
            {
              "internalType": "bool",
              "name": "isKeepLevTP",
              "type": "bool"
            },
            {
              "internalType": "bool",
              "name": "isKeepLevSL",
              "type": "bool"
            },
            {
              "internalType": "uint64",
              "name": "orderID",
              "type": "uint64"
            },
            {
              "internalType": "uint64",
              "name": "pairId",
              "type": "uint64"
            },
            {
              "internalType": "uint64",
              "name": "fromId",
              "type": "uint64"
            },
            {
              "internalType": "uint32",
              "name": "updatedAtBlock",
              "type": "uint32"
            },
            {
              "internalType": "uint8",
              "name": "extra0",
              "type": "uint8"
            },
            {
              "internalType": "address",
              "name": "account",
              "type": "address"
            },
            {
              "internalType": "uint96",
              "name": "extra1",
              "type": "uint96"
            },
            {
              "internalType": "uint256",
              "name": "sl",
              "type": "uint256"
            },
            {
              "internalType": "bool",
              "name": "isIncrease",
              "type": "bool"
            },
            {
              "internalType": "bool",
              "name": "isLong",
              "type": "bool"
            },
            {
              "internalType": "uint16",
              "name": "market",
              "type": "uint16"
            },
            {
              "internalType": "uint96",
              "name": "extra2",
              "type": "uint96"
            },
            {
              "internalType": "uint128",
              "name": "gas",
              "type": "uint128"
            },
            {
              "internalType": "uint8",
              "name": "version",
              "type": "uint8"
            }
          ],
          "internalType": "struct DummyDiamondImplementation.Tuple680644",
          "name": "order",
          "type": "tuple"
        },
        {
          "components": [
            {
              "internalType": "uint256",
              "name": "oraclePrice",
              "type": "uint256"
            },
            {
              "internalType": "uint256",
              "name": "pay",
              "type": "uint256"
            },
            {
              "internalType": "uint256",
              "name": "slippage",
              "type": "uint256"
            },
            {
              "internalType": "uint16",
              "name": "market",
              "type": "uint16"
            },
            {
              "internalType": "bool",
              "name": "isLong",
              "type": "bool"
            },
            {
              "internalType": "bool",
              "name": "isOpen",
              "type": "bool"
            },
            {
              "internalType": "bool",
              "name": "isCreate",
              "type": "bool"
            },
            {
              "internalType": "bool",
              "name": "isFromMarket",
              "type": "bool"
            },
            {
              "internalType": "uint256",
              "name": "sizeDelta",
              "type": "uint256"
            },
            {
              "internalType": "uint256",
              "name": "price",
              "type": "uint256"
            },
            {
              "internalType": "uint256",
              "name": "collateralDelta",
              "type": "uint256"
            },
            {
              "internalType": "uint256",
              "name": "collateral",
              "type": "uint256"
            },
            {
              "internalType": "uint256",
              "name": "tp",
              "type": "uint256"
            },
            {
              "internalType": "uint256",
              "name": "sl",
              "type": "uint256"
            },
            {
              "internalType": "uint64",
              "name": "orderId",
              "type": "uint64"
            },
            {
              "internalType": "address",
              "name": "account",
              "type": "address"
            },
            {
              "internalType": "bool",
              "name": "isExec",
              "type": "bool"
            },
            {
              "internalType": "uint8",
              "name": "liqState",
              "type": "uint8"
            },
            {
              "internalType": "uint64",
              "name": "fromOrder",
              "type": "uint64"
            },
            {
              "internalType": "bytes32",
              "name": "refCode",
              "type": "bytes32"
            },
            {
              "internalType": "uint8",
              "name": "execNum",
              "type": "uint8"
            },
            {
              "internalType": "bool",
              "name": "isKeepLev",
              "type": "bool"
            },
            {
              "internalType": "bool",
              "name": "isKeepLevTP",
              "type": "bool"
            },
            {
              "internalType": "bool",
              "name": "isKeepLevSL",
              "type": "bool"
            },
            {
              "internalType": "bool",
              "name": "triggerAbove",
              "type": "bool"
            },
            {
              "internalType": "uint128",
              "name": "gas",
              "type": "uint128"
            }
          ],
          "internalType": "struct DummyDiamondImplementation.Tuple2000403",
          "name": "_params",
          "type": "tuple"
        }
      ],
      "name": "execSubOrderKey",
      "outputs": [],
      "stateMutability": "nonpayable",
      "type": "function"
    },
    {
      "inputs": [
        {
          "internalType": "bytes4",
          "name": "_functionSelector",
          "type": "bytes4"
        }
      ],
      "name": "facetAddress",
      "outputs": [
        {
          "internalType": "address",
          "name": "facetAddress_",
          "type": "address"
        }
      ],
      "stateMutability": "view",
      "type": "function"
    },
    {
      "inputs": [],
      "name": "facetAddresses",
      "outputs": [
        {
          "internalType": "address[]",
          "name": "facetAddresses_",
          "type": "address[]"
        }
      ],
      "stateMutability": "view",
      "type": "function"
    },
    {
      "inputs": [
        {
          "internalType": "address",
          "name": "_facet",
          "type": "address"
        }
      ],
      "name": "facetFunctionSelectors",
      "outputs": [
        {
          "internalType": "bytes4[]",
          "name": "facetFunctionSelectors_",
          "type": "bytes4[]"
        }
      ],
      "stateMutability": "view",
      "type": "function"
    },
    {
      "inputs": [],
      "name": "facets",
      "outputs": [
        {
          "components": [
            {
              "internalType": "address",
              "name": "facetAddress",
              "type": "address"
            },
            {
              "internalType": "bytes4[]",
              "name": "functionSelectors",
              "type": "bytes4[]"
            }
          ],
          "internalType": "struct DummyDiamondImplementation.Tuple1236461[]",
          "name": "facets_",
          "type": "tuple[]"
        }
      ],
      "stateMutability": "view",
      "type": "function"
    },
    {
      "inputs": [
        {
          "internalType": "uint256",
          "name": "amount",
          "type": "uint256"
        },
        {
          "internalType": "uint8",
          "name": "collateralTokenDigits",
          "type": "uint8"
        }
      ],
      "name": "formatCollateral",
      "outputs": [
        {
          "internalType": "uint256",
          "name": "",
          "type": "uint256"
        }
      ],
      "stateMutability": "pure",
      "type": "function"
    },
    {
      "inputs": [
        {
          "internalType": "uint16",
          "name": "market",
          "type": "uint16"
        },
        {
          "internalType": "address",
          "name": "account",
          "type": "address"
        }
      ],
      "name": "getAccountSizeOfMarkets",
      "outputs": [
        {
          "internalType": "uint256",
          "name": "sizesL",
          "type": "uint256"
        },
        {
          "internalType": "uint256",
          "name": "sizesS",
          "type": "uint256"
        }
      ],
      "stateMutability": "view",
      "type": "function"
    },
    {
      "inputs": [
        {
          "internalType": "uint16",
          "name": "market",
          "type": "uint16"
        },
        {
          "internalType": "bool",
          "name": "_maximise",
          "type": "bool"
        }
      ],
      "name": "getChainPrice",
      "outputs": [
        {
          "internalType": "uint256",
          "name": "",
          "type": "uint256"
        }
      ],
      "stateMutability": "view",
      "type": "function"
    },
    {
      "inputs": [
        {
          "internalType": "bytes32",
          "name": "_code",
          "type": "bytes32"
        }
      ],
      "name": "getCodeOwners",
      "outputs": [
        {
          "internalType": "address",
          "name": "",
          "type": "address"
        }
      ],
      "stateMutability": "view",
      "type": "function"
    },
    {
      "inputs": [
        {
          "internalType": "uint16",
          "name": "market",
          "type": "uint16"
        },
        {
          "internalType": "uint256",
          "name": "_referencePrice",
          "type": "uint256"
        },
        {
          "internalType": "bool",
          "name": "_maximise",
          "type": "bool"
        }
      ],
      "name": "getFastPrice",
      "outputs": [
        {
          "internalType": "uint256",
          "name": "",
          "type": "uint256"
        }
      ],
      "stateMutability": "view",
      "type": "function"
    },
    {
      "inputs": [
        {
          "internalType": "address",
          "name": "vault",
          "type": "address"
        }
      ],
      "name": "getGlobalPnl",
      "outputs": [
        {
          "internalType": "int256",
          "name": "",
          "type": "int256"
        }
      ],
      "stateMutability": "view",
      "type": "function"
    },
    {
      "inputs": [
        {
          "internalType": "uint16",
          "name": "market",
          "type": "uint16"
        }
      ],
      "name": "getGlobalSize",
      "outputs": [
        {
          "internalType": "uint256",
          "name": "sizesLong",
          "type": "uint256"
        },
        {
          "internalType": "uint256",
          "name": "sizesShort",
          "type": "uint256"
        }
      ],
      "stateMutability": "view",
      "type": "function"
    },
    {
      "inputs": [
        {
          "internalType": "uint16",
          "name": "market",
          "type": "uint16"
        }
      ],
      "name": "getMarket",
      "outputs": [
        {
          "internalType": "bytes",
          "name": "result",
          "type": "bytes"
        }
      ],
      "stateMutability": "view",
      "type": "function"
    },
    {
      "inputs": [],
      "name": "getMarkets",
      "outputs": [
        {
          "internalType": "bytes",
          "name": "result",
          "type": "bytes"
        }
      ],
      "stateMutability": "view",
      "type": "function"
    },
    {
      "inputs": [
        {
          "internalType": "uint16",
          "name": "market",
          "type": "uint16"
        },
        {
          "internalType": "bool",
          "name": "_maximise",
          "type": "bool"
        }
      ],
      "name": "getPrice",
      "outputs": [
        {
          "internalType": "uint256",
          "name": "",
          "type": "uint256"
        }
      ],
      "stateMutability": "view",
      "type": "function"
    },
    {
      "inputs": [],
      "name": "getUSDDecimals",
      "outputs": [
        {
          "internalType": "uint8",
          "name": "",
          "type": "uint8"
        }
      ],
      "stateMutability": "pure",
      "type": "function"
    },
    {
      "inputs": [
        {
          "internalType": "bytes32",
          "name": "_code",
          "type": "bytes32"
        },
        {
          "internalType": "address",
          "name": "_newAccount",
          "type": "address"
        }
      ],
      "name": "govSetCodeOwner",
      "outputs": [],
      "stateMutability": "nonpayable",
      "type": "function"
    },
    {
      "inputs": [],
      "name": "implementation",
      "outputs": [
        {
          "internalType": "address",
          "name": "",
          "type": "address"
        }
      ],
      "stateMutability": "view",
      "type": "function"
    },
    {
      "inputs": [],
      "name": "initDefaultOracleConfig",
      "outputs": [],
      "stateMutability": "nonpayable",
      "type": "function"
    },
    {
      "inputs": [
        {
          "internalType": "uint16",
          "name": "market",
          "type": "uint16"
        },
        {
          "internalType": "address",
          "name": "account",
          "type": "address"
        },
        {
          "internalType": "bool",
          "name": "isLong",
          "type": "bool"
        }
      ],
      "name": "isLiquidate",
      "outputs": [],
      "stateMutability": "view",
      "type": "function"
    },
    {
      "inputs": [
        {
          "internalType": "uint16",
          "name": "market",
          "type": "uint16"
        },
        {
          "internalType": "address",
          "name": "accounts",
          "type": "address"
        },
        {
          "internalType": "bool",
          "name": "_isLong",
          "type": "bool"
        }
      ],
      "name": "liquidate",
      "outputs": [],
      "stateMutability": "nonpayable",
      "type": "function"
    },
    {
      "inputs": [
        {
          "internalType": "uint16",
          "name": "market",
          "type": "uint16"
        }
      ],
      "name": "markeConfig",
      "outputs": [
        {
          "components": [
            {
              "internalType": "bool",
              "name": "isSuspended",
              "type": "bool"
            },
            {
              "internalType": "bool",
              "name": "allowOpen",
              "type": "bool"
            },
            {
              "internalType": "bool",
              "name": "allowClose",
              "type": "bool"
            },
            {
              "internalType": "bool",
              "name": "validDecrease",
              "type": "bool"
            },
            {
              "internalType": "uint16",
              "name": "minSlippage",
              "type": "uint16"
            },
            {
              "internalType": "uint16",
              "name": "maxSlippage",
              "type": "uint16"
            },
            {
              "internalType": "uint16",
              "name": "minLeverage",
              "type": "uint16"
            },
            {
              "internalType": "uint16",
              "name": "maxLeverage",
              "type": "uint16"
            },
            {
              "internalType": "uint16",
              "name": "minPayment",
              "type": "uint16"
            },
            {
              "internalType": "uint16",
              "name": "minCollateral",
              "type": "uint16"
            },
            {
              "internalType": "uint16",
              "name": "decreaseNumLimit",
              "type": "uint16"
            },
            {
              "internalType": "uint32",
              "name": "maxTradeAmount",
              "type": "uint32"
            }
          ],
          "internalType": "struct DummyDiamondImplementation.Tuple826895",
          "name": "_config",
          "type": "tuple"
        }
      ],
      "stateMutability": "view",
      "type": "function"
    },
    {
      "inputs": [],
      "name": "owner",
      "outputs": [
        {
          "internalType": "address",
          "name": "owner_",
          "type": "address"
        }
      ],
      "stateMutability": "view",
      "type": "function"
    },
    {
      "inputs": [
        {
          "internalType": "uint256",
          "name": "amount",
          "type": "uint256"
        },
        {
          "internalType": "uint8",
          "name": "originDigits",
          "type": "uint8"
        }
      ],
      "name": "parseVaultAsset",
      "outputs": [
        {
          "internalType": "uint256",
          "name": "",
          "type": "uint256"
        }
      ],
      "stateMutability": "pure",
      "type": "function"
    },
    {
      "inputs": [
        {
          "internalType": "int256",
          "name": "amount",
          "type": "int256"
        },
        {
          "internalType": "uint8",
          "name": "collateralTokenDigits",
          "type": "uint8"
        }
      ],
      "name": "parseVaultAssetSigned",
      "outputs": [
        {
          "internalType": "int256",
          "name": "",
          "type": "int256"
        }
      ],
      "stateMutability": "pure",
      "type": "function"
    },
    {
      "inputs": [
        {
          "internalType": "bytes32",
          "name": "_code",
          "type": "bytes32"
        }
      ],
      "name": "registerCode",
      "outputs": [],
      "stateMutability": "nonpayable",
      "type": "function"
    },
    {
      "inputs": [
        {
          "internalType": "uint16",
          "name": "marketId",
          "type": "uint16"
        }
      ],
      "name": "removeMarket",
      "outputs": [],
      "stateMutability": "nonpayable",
      "type": "function"
    },
    {
      "inputs": [
        {
          "internalType": "address",
          "name": "newAuthority",
          "type": "address"
        }
      ],
      "name": "setAuthority",
      "outputs": [],
      "stateMutability": "nonpayable",
      "type": "function"
    },
    {
      "inputs": [
        {
          "internalType": "bytes32",
          "name": "_code",
          "type": "bytes32"
        },
        {
          "internalType": "address",
          "name": "_newAccount",
          "type": "address"
        }
      ],
      "name": "setCodeOwner",
      "outputs": [],
      "stateMutability": "nonpayable",
      "type": "function"
    },
    {
      "inputs": [
        {
          "internalType": "uint16",
          "name": "market",
          "type": "uint16"
        },
        {
          "components": [
            {
              "internalType": "bool",
              "name": "isSuspended",
              "type": "bool"
            },
            {
              "internalType": "bool",
              "name": "allowOpen",
              "type": "bool"
            },
            {
              "internalType": "bool",
              "name": "allowClose",
              "type": "bool"
            },
            {
              "internalType": "bool",
              "name": "validDecrease",
              "type": "bool"
            },
            {
              "internalType": "uint16",
              "name": "minSlippage",
              "type": "uint16"
            },
            {
              "internalType": "uint16",
              "name": "maxSlippage",
              "type": "uint16"
            },
            {
              "internalType": "uint16",
              "name": "minLeverage",
              "type": "uint16"
            },
            {
              "internalType": "uint16",
              "name": "maxLeverage",
              "type": "uint16"
            },
            {
              "internalType": "uint16",
              "name": "minPayment",
              "type": "uint16"
            },
            {
              "internalType": "uint16",
              "name": "minCollateral",
              "type": "uint16"
            },
            {
              "internalType": "uint16",
              "name": "decreaseNumLimit",
              "type": "uint16"
            },
            {
              "internalType": "uint32",
              "name": "maxTradeAmount",
              "type": "uint32"
            }
          ],
          "internalType": "struct DummyDiamondImplementation.Tuple9273272",
          "name": "data",
          "type": "tuple"
        }
      ],
      "name": "setConf",
      "outputs": [],
      "stateMutability": "nonpayable",
      "type": "function"
    },
    {
      "inputs": [
        {
          "internalType": "bytes",
          "name": "_data",
          "type": "bytes"
        }
      ],
      "name": "setConfig",
      "outputs": [],
      "stateMutability": "nonpayable",
      "type": "function"
    },
    {
      "inputs": [
        {
          "internalType": "address",
          "name": "_implementation",
          "type": "address"
        }
      ],
      "name": "setDummyImplementation",
      "outputs": [],
      "stateMutability": "nonpayable",
      "type": "function"
    },
    {
      "inputs": [
        {
          "internalType": "uint16[]",
          "name": "_market",
          "type": "uint16[]"
        },
        {
          "internalType": "uint256[]",
          "name": "_maxCumulativeDeltaDiffs",
          "type": "uint256[]"
        }
      ],
      "name": "setMaxCumulativeDeltaDiffs",
      "outputs": [],
      "stateMutability": "nonpayable",
      "type": "function"
    },
    {
      "inputs": [
        {
          "internalType": "uint16[]",
          "name": "_markets",
          "type": "uint16[]"
        },
        {
          "internalType": "uint256[]",
          "name": "_prices",
          "type": "uint256[]"
        }
      ],
      "name": "setPrices",
      "outputs": [],
      "stateMutability": "nonpayable",
      "type": "function"
    },
    {
      "inputs": [
        {
          "internalType": "address",
          "name": "_account",
          "type": "address"
        },
        {
          "internalType": "uint256",
          "name": "_discountShare",
          "type": "uint256"
        }
      ],
      "name": "setReferrerDiscountShare",
      "outputs": [],
      "stateMutability": "nonpayable",
      "type": "function"
    },
    {
      "inputs": [
        {
          "internalType": "address",
          "name": "_referrer",
          "type": "address"
        },
        {
          "internalType": "uint256",
          "name": "_tierId",
          "type": "uint256"
        }
      ],
      "name": "setReferrerTier",
      "outputs": [],
      "stateMutability": "nonpayable",
      "type": "function"
    },
    {
      "inputs": [
        {
          "internalType": "uint256",
          "name": "_tierId",
          "type": "uint256"
        },
        {
          "internalType": "uint256",
          "name": "_totalRebate",
          "type": "uint256"
        },
        {
          "internalType": "uint256",
          "name": "_discountShare",
          "type": "uint256"
        }
      ],
      "name": "setTier",
      "outputs": [],
      "stateMutability": "nonpayable",
      "type": "function"
    },
    {
      "inputs": [
        {
          "internalType": "address",
          "name": "_account",
          "type": "address"
        },
        {
          "internalType": "bytes32",
          "name": "_code",
          "type": "bytes32"
        }
      ],
      "name": "setTraderReferralCode",
      "outputs": [],
      "stateMutability": "nonpayable",
      "type": "function"
    },
    {
      "inputs": [
        {
          "internalType": "bytes32",
          "name": "_code",
          "type": "bytes32"
        }
      ],
      "name": "setTraderReferralCodeByUser",
      "outputs": [],
      "stateMutability": "nonpayable",
      "type": "function"
    },
    {
      "inputs": [
        {
          "internalType": "address",
          "name": "_feed",
          "type": "address"
        }
      ],
      "name": "setUSDT",
      "outputs": [],
      "stateMutability": "nonpayable",
      "type": "function"
    },
    {
      "inputs": [
        {
          "internalType": "bytes4",
          "name": "_interfaceId",
          "type": "bytes4"
        }
      ],
      "name": "supportsInterface",
      "outputs": [
        {
          "internalType": "bool",
          "name": "",
          "type": "bool"
        }
      ],
      "stateMutability": "view",
      "type": "function"
    },
    {
      "inputs": [
        {
          "internalType": "address",
          "name": "user",
          "type": "address"
        },
        {
          "internalType": "address",
          "name": "markets",
          "type": "address"
        },
        {
          "internalType": "bool",
          "name": "isIncrease",
          "type": "bool"
        },
        {
          "internalType": "uint256",
          "name": "orderID",
          "type": "uint256"
        },
        {
          "internalType": "bool",
          "name": "isLong",
          "type": "bool"
        }
      ],
      "name": "sysCancelOrder",
      "outputs": [],
      "stateMutability": "nonpayable",
      "type": "function"
    },
    {
      "inputs": [
        {
          "internalType": "address",
          "name": "tokenAddress",
          "type": "address"
        },
        {
          "internalType": "address",
          "name": "_from",
          "type": "address"
        },
        {
          "internalType": "address",
          "name": "_to",
          "type": "address"
        },
        {
          "internalType": "uint256",
          "name": "_tokenAmount",
          "type": "uint256"
        }
      ],
      "name": "transferIn",
      "outputs": [],
      "stateMutability": "nonpayable",
      "type": "function"
    },
    {
      "inputs": [
        {
          "internalType": "address",
          "name": "tokenAddress",
          "type": "address"
        },
        {
          "internalType": "address",
          "name": "_to",
          "type": "address"
        },
        {
          "internalType": "uint256",
          "name": "_tokenAmount",
          "type": "uint256"
        }
      ],
      "name": "transferOut",
      "outputs": [],
      "stateMutability": "nonpayable",
      "type": "function"
    },
    {
      "inputs": [
        {
          "internalType": "address",
          "name": "_newOwner",
          "type": "address"
        }
      ],
      "name": "transferOwnership",
      "outputs": [],
      "stateMutability": "nonpayable",
      "type": "function"
    },
    {
      "inputs": [
        {
          "internalType": "bytes",
          "name": "data",
          "type": "bytes"
        }
      ],
      "name": "updateOrder",
      "outputs": [],
      "stateMutability": "payable",
      "type": "function"
    },
    {
      "inputs": [
        {
          "components": [
            {
              "components": [
                {
                  "internalType": "uint256",
                  "name": "oraclePrice",
                  "type": "uint256"
                },
                {
                  "internalType": "uint256",
                  "name": "pay",
                  "type": "uint256"
                },
                {
                  "internalType": "uint256",
                  "name": "slippage",
                  "type": "uint256"
                },
                {
                  "internalType": "uint16",
                  "name": "market",
                  "type": "uint16"
                },
                {
                  "internalType": "bool",
                  "name": "isLong",
                  "type": "bool"
                },
                {
                  "internalType": "bool",
                  "name": "isOpen",
                  "type": "bool"
                },
                {
                  "internalType": "bool",
                  "name": "isCreate",
                  "type": "bool"
                },
                {
                  "internalType": "bool",
                  "name": "isFromMarket",
                  "type": "bool"
                },
                {
                  "internalType": "uint256",
                  "name": "sizeDelta",
                  "type": "uint256"
                },
                {
                  "internalType": "uint256",
                  "name": "price",
                  "type": "uint256"
                },
                {
                  "internalType": "uint256",
                  "name": "collateralDelta",
                  "type": "uint256"
                },
                {
                  "internalType": "uint256",
                  "name": "collateral",
                  "type": "uint256"
                },
                {
                  "internalType": "uint256",
                  "name": "tp",
                  "type": "uint256"
                },
                {
                  "internalType": "uint256",
                  "name": "sl",
                  "type": "uint256"
                },
                {
                  "internalType": "uint64",
                  "name": "orderId",
                  "type": "uint64"
                },
                {
                  "internalType": "address",
                  "name": "account",
                  "type": "address"
                },
                {
                  "internalType": "bool",
                  "name": "isExec",
                  "type": "bool"
                },
                {
                  "internalType": "uint8",
                  "name": "liqState",
                  "type": "uint8"
                },
                {
                  "internalType": "uint64",
                  "name": "fromOrder",
                  "type": "uint64"
                },
                {
                  "internalType": "bytes32",
                  "name": "refCode",
                  "type": "bytes32"
                },
                {
                  "internalType": "uint8",
                  "name": "execNum",
                  "type": "uint8"
                },
                {
                  "internalType": "bool",
                  "name": "isKeepLev",
                  "type": "bool"
                },
                {
                  "internalType": "bool",
                  "name": "isKeepLevTP",
                  "type": "bool"
                },
                {
                  "internalType": "bool",
                  "name": "isKeepLevSL",
                  "type": "bool"
                },
                {
                  "internalType": "bool",
                  "name": "triggerAbove",
                  "type": "bool"
                },
                {
                  "internalType": "uint128",
                  "name": "gas",
                  "type": "uint128"
                }
              ],
              "internalType": "struct DummyDiamondImplementation.Tuple894709",
              "name": "inputs",
              "type": "tuple"
            },
            {
              "components": [
                {
                  "internalType": "uint256",
                  "name": "size",
                  "type": "uint256"
                },
                {
                  "internalType": "uint256",
                  "name": "collateral",
                  "type": "uint256"
                },
                {
                  "internalType": "int256",
                  "name": "entryFundingRate",
                  "type": "int256"
                },
                {
                  "internalType": "int256",
                  "name": "realisedPnl",
                  "type": "int256"
                },
                {
                  "internalType": "uint256",
                  "name": "averagePrice",
                  "type": "uint256"
                },
                {
                  "internalType": "bool",
                  "name": "isLong",
                  "type": "bool"
                },
                {
                  "internalType": "uint32",
                  "name": "lastTime",
                  "type": "uint32"
                },
                {
                  "internalType": "uint16",
                  "name": "market",
                  "type": "uint16"
                },
                {
                  "internalType": "uint72",
                  "name": "extra0",
                  "type": "uint72"
                }
              ],
              "internalType": "struct DummyDiamondImplementation.Tuple464693",
              "name": "position",
              "type": "tuple"
            },
            {
              "internalType": "int256[]",
              "name": "fees",
              "type": "int256[]"
            },
            {
              "internalType": "address",
              "name": "collateralToken",
              "type": "address"
            },
            {
              "internalType": "address",
              "name": "indexToken",
              "type": "address"
            },
            {
              "internalType": "int256",
              "name": "collateralDeltaAfter",
              "type": "int256"
            }
          ],
          "internalType": "struct DummyDiamondImplementation.Tuple6442409",
          "name": "_event",
          "type": "tuple"
        }
      ],
      "name": "updatePositionCallback",
      "outputs": [],
      "stateMutability": "nonpayable",
      "type": "function"
    },
    {
      "inputs": [],
      "name": "usdDecimals",
      "outputs": [
        {
          "internalType": "uint8",
          "name": "",
          "type": "uint8"
        }
      ],
      "stateMutability": "view",
      "type": "function"
    }
  ],
  "transactionHash": "0x82cda6819727e3c5c3cc7b0740a2acc26f5d9c0bfd71c48ebf2e1f0d336a7941",
  "args": [],
  "numDeployments": 3,
  "solcInputHash": "68c10af61af984c518f7d15c4f77ecb0",
  "bytecode": "0x608060405234801561001057600080fd5b506133f7806100206000396000f3fe60806040526004361061027b5760003560e01c806301ffc9a714610280578063078d3b79146102bd57806313a30013146102e65780631f931c1c146103235780632e6e6ea91461034c578063354497aa1461038957806336def2c8146103b25780633d12067a146103db5780633d34960f146104045780633fb8b323146104415780634fe0ae5e1461046a57806350c1b9231461049357806352ef6b2c146104bc57806356b4b2ad146104e7578063599ec4ee146105105780635c60da1b1461053957806364b6db531461056457806366a4b6c0146105a157806367af1a03146105cc578063735a2885146105e3578063766238db14610620578063799721f91461064957806379eba709146106725780637a0ed627146106af5780637a9e5e4b146106da578063812b2f9314610703578063836a0187146107405780638593090f146107695780638da5cb5b146107a75780639823bc9b146107d2578063a01e7bc61461080f578063a9487c231461084d578063a9cd76f614610869578063aa94bda814610892578063adfca15e146108bb578063afc126ed146108f8578063b0a3961a14610921578063b51b8de01461095e578063bb715a8514610987578063bf7e214f146109b2578063c39aa07d146109dd578063cc55e9d114610a06578063cdffacc614610a43578063db61122514610a80578063dc821f6914610abd578063dd22378d14610ae6578063dfcfa25014610b0f578063e1e01bf314610b38578063e36b20c514610b61578063e3bd030d14610b8a578063ebf1ff7714610bc7578063ec2c901614610bf0578063ed84313414610c1b578063f224f69a14610c44578063f2fde38b14610c6d578063fe0e467e14610c96575b600080fd5b34801561028c57600080fd5b506102a760048036038101906102a29190610ee2565b610cbf565b6040516102b49190610f2a565b60405180910390f35b3480156102c957600080fd5b506102e460048036038101906102df9190610fd9565b610cc6565b005b3480156102f257600080fd5b5061030d60048036038101906103089190611066565b610ccb565b60405161031a9190611123565b60405180910390f35b34801561032f57600080fd5b5061034a600480360381019061034591906114e6565b610cd2565b005b34801561035857600080fd5b50610373600480360381019061036e919061159d565b610cd7565b60405161038091906115ff565b60405180910390f35b34801561039557600080fd5b506103b060048036038101906103ab919061161a565b610ce0565b005b3480156103be57600080fd5b506103d960048036038101906103d49190611699565b610ce3565b005b3480156103e757600080fd5b5061040260048036038101906103fd9190611c4e565b610ce6565b005b34801561041057600080fd5b5061042b60048036038101906104269190611699565b610cea565b6040516104389190611c9f565b60405180910390f35b34801561044d57600080fd5b5061046860048036038101906104639190611cba565b610cf1565b005b34801561047657600080fd5b50610491600480360381019061048c9190611cfa565b610cf5565b005b34801561049f57600080fd5b506104ba60048036038101906104b59190611d61565b610cfb565b005b3480156104c857600080fd5b506104d1610cfe565b6040516104de9190611e4c565b60405180910390f35b3480156104f357600080fd5b5061050e60048036038101906105099190611e6e565b610d03565b005b34801561051c57600080fd5b50610537600480360381019061053291906120d8565b610d07565b005b34801561054557600080fd5b5061054e610d0b565b60405161055b9190611c9f565b60405180910390f35b34801561057057600080fd5b5061058b6004803603810190610586919061211a565b610d10565b60405161059891906115ff565b60405180910390f35b3480156105ad57600080fd5b506105b6610d18565b6040516105c39190612169565b60405180910390f35b3480156105d857600080fd5b506105e1610d1d565b005b3480156105ef57600080fd5b5061060a60048036038101906106059190612184565b610d1f565b60405161061791906115ff565b60405180910390f35b34801561062c57600080fd5b5061064760048036038101906106429190611cba565b610d28565b005b34801561065557600080fd5b50610670600480360381019061066b919061242d565b610d2c565b005b34801561067e57600080fd5b5061069960048036038101906106949190611066565b610d2f565b6040516106a6919061257e565b60405180910390f35b3480156106bb57600080fd5b506106c4610d3c565b6040516106d19190612757565b60405180910390f35b3480156106e657600080fd5b5061070160048036038101906106fc9190611d61565b610d41565b005b34801561070f57600080fd5b5061072a60048036038101906107259190612779565b610d44565b60405161073791906115ff565b60405180910390f35b34801561074c57600080fd5b50610767600480360381019061076291906127b9565b610d4c565b005b34801561077557600080fd5b50610790600480360381019061078b919061280c565b610d51565b60405161079e92919061284c565b60405180910390f35b3480156107b357600080fd5b506107bc610d5b565b6040516107c99190611c9f565b60405180910390f35b3480156107de57600080fd5b506107f960048036038101906107f49190612779565b610d60565b60405161080691906115ff565b60405180910390f35b34801561081b57600080fd5b5061083660048036038101906108319190611066565b610d68565b60405161084492919061284c565b60405180910390f35b6108676004803603810190610862919061161a565b610d70565b005b34801561087557600080fd5b50610890600480360381019061088b9190612875565b610d73565b005b34801561089e57600080fd5b506108b960048036038101906108b49190612a62565b610d79565b005b3480156108c757600080fd5b506108e260048036038101906108dd9190611d61565b610d7d565b6040516108ef9190612b49565b60405180910390f35b34801561090457600080fd5b5061091f600480360381019061091a9190612c8d565b610d84565b005b34801561092d57600080fd5b5061094860048036038101906109439190611d61565b610d88565b6040516109559190612ce7565b60405180910390f35b34801561096a57600080fd5b506109856004803603810190610980919061161a565b610d8f565b005b34801561099357600080fd5b5061099c610d92565b6040516109a99190612169565b60405180910390f35b3480156109be57600080fd5b506109c7610d97565b6040516109d49190611c9f565b60405180910390f35b3480156109e957600080fd5b50610a0460048036038101906109ff9190611d61565b610d9c565b005b348015610a1257600080fd5b50610a2d6004803603810190610a289190611066565b610d9f565b604051610a3a9190610f2a565b60405180910390f35b348015610a4f57600080fd5b50610a6a6004803603810190610a659190610ee2565b610da6565b604051610a779190611c9f565b60405180910390f35b348015610a8c57600080fd5b50610aa76004803603810190610aa2919061211a565b610dad565b604051610ab491906115ff565b60405180910390f35b348015610ac957600080fd5b50610ae46004803603810190610adf9190612d02565b610db5565b005b348015610af257600080fd5b50610b0d6004803603810190610b089190612d7d565b610dbc565b005b348015610b1b57600080fd5b50610b366004803603810190610b319190612dd0565b610dc1565b005b348015610b4457600080fd5b50610b5f6004803603810190610b5a9190611699565b610dc5565b005b348015610b6d57600080fd5b50610b886004803603810190610b839190611066565b610dc8565b005b348015610b9657600080fd5b50610bb16004803603810190610bac9190612e3c565b610dcb565b604051610bbe9190612ce7565b60405180910390f35b348015610bd357600080fd5b50610bee6004803603810190610be99190613378565b610dd3565b005b348015610bfc57600080fd5b50610c05610dd6565b604051610c129190611123565b60405180910390f35b348015610c2757600080fd5b50610c426004803603810190610c3d9190612dd0565b610ddb565b005b348015610c5057600080fd5b50610c6b6004803603810190610c669190612a62565b610ddf565b005b348015610c7957600080fd5b50610c946004803603810190610c8f9190611d61565b610de3565b005b348015610ca257600080fd5b50610cbd6004803603810190610cb89190612d7d565b610de6565b005b6000919050565b505050565b6060919050565b505050565b60009392505050565b50565b50565b5050565b6000919050565b5050565b50505050565b50565b606090565b5050565b5050565b600090565b600092915050565b600090565b565b60009392505050565b5050565b50565b610d37610deb565b919050565b606090565b50565b600092915050565b505050565b6000809250929050565b600090565b600092915050565b600080915091565b50565b50505050565b5050565b6060919050565b5050565b6000919050565b50565b600090565b600090565b50565b6000919050565b6000919050565b600092915050565b5050505050565b505050565b5050565b50565b50565b600092915050565b50565b606090565b5050565b5050565b50565b505050565b604051806101800160405280600015158152602001600015158152602001600015158152602001600015158152602001600061ffff168152602001600061ffff168152602001600061ffff168152602001600061ffff168152602001600061ffff168152602001600061ffff168152602001600061ffff168152602001600063ffffffff1681525090565b6000604051905090565b600080fd5b600080fd5b60007fffffffff0000000000000000000000000000000000000000000000000000000082169050919050565b610ebf81610e8a565b8114610eca57600080fd5b50565b600081359050610edc81610eb6565b92915050565b600060208284031215610ef857610ef7610e80565b5b6000610f0684828501610ecd565b91505092915050565b60008115159050919050565b610f2481610f0f565b82525050565b6000602082019050610f3f6000830184610f1b565b92915050565b600073ffffffffffffffffffffffffffffffffffffffff82169050919050565b6000610f7082610f45565b9050919050565b610f8081610f65565b8114610f8b57600080fd5b50565b600081359050610f9d81610f77565b92915050565b6000819050919050565b610fb681610fa3565b8114610fc157600080fd5b50565b600081359050610fd381610fad565b92915050565b600080600060608486031215610ff257610ff1610e80565b5b600061100086828701610f8e565b935050602061101186828701610f8e565b925050604061102286828701610fc4565b9150509250925092565b600061ffff82169050919050565b6110438161102c565b811461104e57600080fd5b50565b6000813590506110608161103a565b92915050565b60006020828403121561107c5761107b610e80565b5b600061108a84828501611051565b91505092915050565b600081519050919050565b600082825260208201905092915050565b60005b838110156110cd5780820151818401526020810190506110b2565b60008484015250505050565b6000601f19601f8301169050919050565b60006110f582611093565b6110ff818561109e565b935061110f8185602086016110af565b611118816110d9565b840191505092915050565b6000602082019050818103600083015261113d81846110ea565b905092915050565b600080fd5b7f4e487b7100000000000000000000000000000000000000000000000000000000600052604160045260246000fd5b611182826110d9565b810181811067ffffffffffffffff821117156111a1576111a061114a565b5b80604052505050565b60006111b4610e76565b90506111c08282611179565b919050565b600067ffffffffffffffff8211156111e0576111df61114a565b5b602082029050602081019050919050565b600080fd5b600080fd5b600080fd5b600060ff82169050919050565b61121681611200565b811461122157600080fd5b50565b6000813590506112338161120d565b92915050565b600067ffffffffffffffff8211156112545761125361114a565b5b602082029050602081019050919050565b600061127861127384611239565b6111aa565b9050808382526020820190506020840283018581111561129b5761129a6111f1565b5b835b818110156112c457806112b08882610ecd565b84526020840193505060208101905061129d565b5050509392505050565b600082601f8301126112e3576112e2611145565b5b81356112f3848260208601611265565b91505092915050565b600060608284031215611312576113116111f6565b5b61131c60606111aa565b9050600061132c84828501610f8e565b600083015250602061134084828501611224565b602083015250604082013567ffffffffffffffff811115611364576113636111fb565b5b611370848285016112ce565b60408301525092915050565b600061138f61138a846111c5565b6111aa565b905080838252602082019050602084028301858111156113b2576113b16111f1565b5b835b818110156113f957803567ffffffffffffffff8111156113d7576113d6611145565b5b8086016113e489826112fc565b855260208501945050506020810190506113b4565b5050509392505050565b600082601f83011261141857611417611145565b5b813561142884826020860161137c565b91505092915050565b600080fd5b600067ffffffffffffffff8211156114515761145061114a565b5b61145a826110d9565b9050602081019050919050565b82818337600083830152505050565b600061148961148484611436565b6111aa565b9050828152602081018484840111156114a5576114a4611431565b5b6114b0848285611467565b509392505050565b600082601f8301126114cd576114cc611145565b5b81356114dd848260208601611476565b91505092915050565b6000806000606084860312156114ff576114fe610e80565b5b600084013567ffffffffffffffff81111561151d5761151c610e85565b5b61152986828701611403565b935050602061153a86828701610f8e565b925050604084013567ffffffffffffffff81111561155b5761155a610e85565b5b611567868287016114b8565b9150509250925092565b61157a81610f0f565b811461158557600080fd5b50565b60008135905061159781611571565b92915050565b6000806000606084860312156115b6576115b5610e80565b5b60006115c486828701611051565b93505060206115d586828701610fc4565b92505060406115e686828701611588565b9150509250925092565b6115f981610fa3565b82525050565b600060208201905061161460008301846115f0565b92915050565b6000602082840312156116305761162f610e80565b5b600082013567ffffffffffffffff81111561164e5761164d610e85565b5b61165a848285016114b8565b91505092915050565b6000819050919050565b61167681611663565b811461168157600080fd5b50565b6000813590506116938161166d565b92915050565b6000602082840312156116af576116ae610e80565b5b60006116bd84828501611684565b91505092915050565b60006fffffffffffffffffffffffffffffffff82169050919050565b6116eb816116c6565b81146116f657600080fd5b50565b600081359050611708816116e2565b92915050565b600067ffffffffffffffff82169050919050565b61172b8161170e565b811461173657600080fd5b50565b60008135905061174881611722565b92915050565b600063ffffffff82169050919050565b6117678161174e565b811461177257600080fd5b50565b6000813590506117848161175e565b92915050565b60006bffffffffffffffffffffffff82169050919050565b6117ab8161178a565b81146117b657600080fd5b50565b6000813590506117c8816117a2565b92915050565b600061030082840312156117e5576117e46111f6565b5b6117f06103006111aa565b9050600061180084828501611684565b6000830152506020611814848285016116f9565b6020830152506040611828848285016116f9565b604083015250606061183c84828501610fc4565b606083015250608061185084828501610fc4565b60808301525060a061186484828501611588565b60a08301525060c061187884828501611588565b60c08301525060e061188c84828501611588565b60e0830152506101006118a184828501611588565b610100830152506101206118b784828501611588565b610120830152506101406118cd84828501611739565b610140830152506101606118e384828501611739565b610160830152506101806118f984828501611739565b610180830152506101a061190f84828501611775565b6101a0830152506101c061192584828501611224565b6101c0830152506101e061193b84828501610f8e565b6101e083015250610200611951848285016117b9565b6102008301525061022061196784828501610fc4565b6102208301525061024061197d84828501611588565b6102408301525061026061199384828501611588565b610260830152506102806119a984828501611051565b610280830152506102a06119bf848285016117b9565b6102a0830152506102c06119d5848285016116f9565b6102c0830152506102e06119eb84828501611224565b6102e08301525092915050565b60006103408284031215611a0f57611a0e6111f6565b5b611a1a6103406111aa565b90506000611a2a84828501610fc4565b6000830152506020611a3e84828501610fc4565b6020830152506040611a5284828501610fc4565b6040830152506060611a6684828501611051565b6060830152506080611a7a84828501611588565b60808301525060a0611a8e84828501611588565b60a08301525060c0611aa284828501611588565b60c08301525060e0611ab684828501611588565b60e083015250610100611acb84828501610fc4565b61010083015250610120611ae184828501610fc4565b61012083015250610140611af784828501610fc4565b61014083015250610160611b0d84828501610fc4565b61016083015250610180611b2384828501610fc4565b610180830152506101a0611b3984828501610fc4565b6101a0830152506101c0611b4f84828501611739565b6101c0830152506101e0611b6584828501610f8e565b6101e083015250610200611b7b84828501611588565b61020083015250610220611b9184828501611224565b61022083015250610240611ba784828501611739565b61024083015250610260611bbd84828501611684565b61026083015250610280611bd384828501611224565b610280830152506102a0611be984828501611588565b6102a0830152506102c0611bff84828501611588565b6102c0830152506102e0611c1584828501611588565b6102e083015250610300611c2b84828501611588565b61030083015250610320611c41848285016116f9565b6103208301525092915050565b6000806106408385031215611c6657611c65610e80565b5b6000611c74858286016117ce565b925050610300611c86858286016119f8565b9150509250929050565b611c9981610f65565b82525050565b6000602082019050611cb46000830184611c90565b92915050565b60008060408385031215611cd157611cd0610e80565b5b6000611cdf85828601610f8e565b9250506020611cf085828601610fc4565b9150509250929050565b60008060008060808587031215611d1457611d13610e80565b5b6000611d2287828801610f8e565b9450506020611d3387828801610f8e565b9350506040611d4487828801610f8e565b9250506060611d5587828801610fc4565b91505092959194509250565b600060208284031215611d7757611d76610e80565b5b6000611d8584828501610f8e565b91505092915050565b600081519050919050565b600082825260208201905092915050565b6000819050602082019050919050565b611dc381610f65565b82525050565b6000611dd58383611dba565b60208301905092915050565b6000602082019050919050565b6000611df982611d8e565b611e038185611d99565b9350611e0e83611daa565b8060005b83811015611e3f578151611e268882611dc9565b9750611e3183611de1565b925050600181019050611e12565b5085935050505092915050565b60006020820190508181036000830152611e668184611dee565b905092915050565b60008060408385031215611e8557611e84610e80565b5b6000611e9385828601610f8e565b9250506020611ea485828601611684565b9150509250929050565b60006103008284031215611ec557611ec46111f6565b5b611ed06103006111aa565b90506000611ee084828501611684565b6000830152506020611ef4848285016116f9565b6020830152506040611f08848285016116f9565b6040830152506060611f1c84828501610fc4565b6060830152506080611f3084828501610fc4565b60808301525060a0611f4484828501611588565b60a08301525060c0611f5884828501611588565b60c08301525060e0611f6c84828501611588565b60e083015250610100611f8184828501611588565b61010083015250610120611f9784828501611588565b61012083015250610140611fad84828501611739565b61014083015250610160611fc384828501611739565b61016083015250610180611fd984828501611739565b610180830152506101a0611fef84828501611775565b6101a0830152506101c061200584828501611224565b6101c0830152506101e061201b84828501610f8e565b6101e083015250610200612031848285016117b9565b6102008301525061022061204784828501610fc4565b6102208301525061024061205d84828501611588565b6102408301525061026061207384828501611588565b6102608301525061028061208984828501611051565b610280830152506102a061209f848285016117b9565b6102a0830152506102c06120b5848285016116f9565b6102c0830152506102e06120cb84828501611224565b6102e08301525092915050565b60008061064083850312156120f0576120ef610e80565b5b60006120fe85828601611eae565b925050610300612110858286016119f8565b9150509250929050565b6000806040838503121561213157612130610e80565b5b600061213f85828601611051565b925050602061215085828601611588565b9150509250929050565b61216381611200565b82525050565b600060208201905061217e600083018461215a565b92915050565b60008060006060848603121561219d5761219c610e80565b5b60006121ab86828701610f8e565b93505060206121bc86828701610f8e565b92505060406121cd86828701611588565b9150509250925092565b600061034082840312156121ee576121ed6111f6565b5b6121f96103406111aa565b9050600061220984828501610fc4565b600083015250602061221d84828501610fc4565b602083015250604061223184828501610fc4565b604083015250606061224584828501611051565b606083015250608061225984828501611588565b60808301525060a061226d84828501611588565b60a08301525060c061228184828501611588565b60c08301525060e061229584828501611588565b60e0830152506101006122aa84828501610fc4565b610100830152506101206122c084828501610fc4565b610120830152506101406122d684828501610fc4565b610140830152506101606122ec84828501610fc4565b6101608301525061018061230284828501610fc4565b610180830152506101a061231884828501610fc4565b6101a0830152506101c061232e84828501611739565b6101c0830152506101e061234484828501610f8e565b6101e08301525061020061235a84828501611588565b6102008301525061022061237084828501611224565b6102208301525061024061238684828501611739565b6102408301525061026061239c84828501611684565b610260830152506102806123b284828501611224565b610280830152506102a06123c884828501611588565b6102a0830152506102c06123de84828501611588565b6102c0830152506102e06123f484828501611588565b6102e08301525061030061240a84828501611588565b61030083015250610320612420848285016116f9565b6103208301525092915050565b6000610340828403121561244457612443610e80565b5b6000612452848285016121d7565b91505092915050565b61246481610f0f565b82525050565b6124738161102c565b82525050565b6124828161174e565b82525050565b6101808201600082015161249f600085018261245b565b5060208201516124b2602085018261245b565b5060408201516124c5604085018261245b565b5060608201516124d8606085018261245b565b5060808201516124eb608085018261246a565b5060a08201516124fe60a085018261246a565b5060c082015161251160c085018261246a565b5060e082015161252460e085018261246a565b5061010082015161253961010085018261246a565b5061012082015161254e61012085018261246a565b5061014082015161256361014085018261246a565b50610160820151612578610160850182612479565b50505050565b6000610180820190506125946000830184612488565b92915050565b600081519050919050565b600082825260208201905092915050565b6000819050602082019050919050565b600081519050919050565b600082825260208201905092915050565b6000819050602082019050919050565b6125fb81610e8a565b82525050565b600061260d83836125f2565b60208301905092915050565b6000602082019050919050565b6000612631826125c6565b61263b81856125d1565b9350612646836125e2565b8060005b8381101561267757815161265e8882612601565b975061266983612619565b92505060018101905061264a565b5085935050505092915050565b600060408301600083015161269c6000860182611dba565b50602083015184820360208601526126b48282612626565b9150508091505092915050565b60006126cd8383612684565b905092915050565b6000602082019050919050565b60006126ed8261259a565b6126f781856125a5565b935083602082028501612709856125b6565b8060005b85811015612745578484038952815161272685826126c1565b9450612731836126d5565b925060208a0199505060018101905061270d565b50829750879550505050505092915050565b6000602082019050818103600083015261277181846126e2565b905092915050565b600080604083850312156127905761278f610e80565b5b600061279e85828601610fc4565b92505060206127af85828601611224565b9150509250929050565b6000806000606084860312156127d2576127d1610e80565b5b60006127e086828701610fc4565b93505060206127f186828701610fc4565b925050604061280286828701610fc4565b9150509250925092565b6000806040838503121561282357612822610e80565b5b600061283185828601611051565b925050602061284285828601610f8e565b9150509250929050565b600060408201905061286160008301856115f0565b61286e60208301846115f0565b9392505050565b6000806000806080858703121561288f5761288e610e80565b5b600061289d87828801610f8e565b94505060206128ae87828801611588565b93505060406128bf87828801610fc4565b92505060606128d087828801611588565b91505092959194509250565b600067ffffffffffffffff8211156128f7576128f661114a565b5b602082029050602081019050919050565b600061291b612916846128dc565b6111aa565b9050808382526020820190506020840283018581111561293e5761293d6111f1565b5b835b8181101561296757806129538882611051565b845260208401935050602081019050612940565b5050509392505050565b600082601f83011261298657612985611145565b5b8135612996848260208601612908565b91505092915050565b600067ffffffffffffffff8211156129ba576129b961114a565b5b602082029050602081019050919050565b60006129de6129d98461299f565b6111aa565b90508083825260208201905060208402830185811115612a0157612a006111f1565b5b835b81811015612a2a5780612a168882610fc4565b845260208401935050602081019050612a03565b5050509392505050565b600082601f830112612a4957612a48611145565b5b8135612a598482602086016129cb565b91505092915050565b60008060408385031215612a7957612a78610e80565b5b600083013567ffffffffffffffff811115612a9757612a96610e85565b5b612aa385828601612971565b925050602083013567ffffffffffffffff811115612ac457612ac3610e85565b5b612ad085828601612a34565b9150509250929050565b600082825260208201905092915050565b6000612af6826125c6565b612b008185612ada565b9350612b0b836125e2565b8060005b83811015612b3c578151612b238882612601565b9750612b2e83612619565b925050600181019050612b0f565b5085935050505092915050565b60006020820190508181036000830152612b638184612aeb565b905092915050565b60006101808284031215612b8257612b816111f6565b5b612b8d6101806111aa565b90506000612b9d84828501611588565b6000830152506020612bb184828501611588565b6020830152506040612bc584828501611588565b6040830152506060612bd984828501611588565b6060830152506080612bed84828501611051565b60808301525060a0612c0184828501611051565b60a08301525060c0612c1584828501611051565b60c08301525060e0612c2984828501611051565b60e083015250610100612c3e84828501611051565b61010083015250610120612c5484828501611051565b61012083015250610140612c6a84828501611051565b61014083015250610160612c8084828501611775565b6101608301525092915050565b6000806101a08385031215612ca557612ca4610e80565b5b6000612cb385828601611051565b9250506020612cc485828601612b6b565b9150509250929050565b6000819050919050565b612ce181612cce565b82525050565b6000602082019050612cfc6000830184612cd8565b92915050565b600080600080600060a08688031215612d1e57612d1d610e80565b5b6000612d2c88828901610f8e565b9550506020612d3d88828901610f8e565b9450506040612d4e88828901611588565b9350506060612d5f88828901610fc4565b9250506080612d7088828901611588565b9150509295509295909350565b600080600060608486031215612d9657612d95610e80565b5b6000612da486828701611051565b9350506020612db586828701610f8e565b9250506040612dc686828701611588565b9150509250925092565b60008060408385031215612de757612de6610e80565b5b6000612df585828601611684565b9250506020612e0685828601610f8e565b9150509250929050565b612e1981612cce565b8114612e2457600080fd5b50565b600081359050612e3681612e10565b92915050565b60008060408385031215612e5357612e52610e80565b5b6000612e6185828601612e27565b9250506020612e7285828601611224565b9150509250929050565b60006103408284031215612e9357612e926111f6565b5b612e9e6103406111aa565b90506000612eae84828501610fc4565b6000830152506020612ec284828501610fc4565b6020830152506040612ed684828501610fc4565b6040830152506060612eea84828501611051565b6060830152506080612efe84828501611588565b60808301525060a0612f1284828501611588565b60a08301525060c0612f2684828501611588565b60c08301525060e0612f3a84828501611588565b60e083015250610100612f4f84828501610fc4565b61010083015250610120612f6584828501610fc4565b61012083015250610140612f7b84828501610fc4565b61014083015250610160612f9184828501610fc4565b61016083015250610180612fa784828501610fc4565b610180830152506101a0612fbd84828501610fc4565b6101a0830152506101c0612fd384828501611739565b6101c0830152506101e0612fe984828501610f8e565b6101e083015250610200612fff84828501611588565b6102008301525061022061301584828501611224565b6102208301525061024061302b84828501611739565b6102408301525061026061304184828501611684565b6102608301525061028061305784828501611224565b610280830152506102a061306d84828501611588565b6102a0830152506102c061308384828501611588565b6102c0830152506102e061309984828501611588565b6102e0830152506103006130af84828501611588565b610300830152506103206130c5848285016116f9565b6103208301525092915050565b600068ffffffffffffffffff82169050919050565b6130f0816130d2565b81146130fb57600080fd5b50565b60008135905061310d816130e7565b92915050565b6000610120828403121561312a576131296111f6565b5b6131356101206111aa565b9050600061314584828501610fc4565b600083015250602061315984828501610fc4565b602083015250604061316d84828501612e27565b604083015250606061318184828501612e27565b606083015250608061319584828501610fc4565b60808301525060a06131a984828501611588565b60a08301525060c06131bd84828501611775565b60c08301525060e06131d184828501611051565b60e0830152506101006131e6848285016130fe565b6101008301525092915050565b600067ffffffffffffffff82111561320e5761320d61114a565b5b602082029050602081019050919050565b600061323261322d846131f3565b6111aa565b90508083825260208201905060208402830185811115613255576132546111f1565b5b835b8181101561327e578061326a8882612e27565b845260208401935050602081019050613257565b5050509392505050565b600082601f83011261329d5761329c611145565b5b81356132ad84826020860161321f565b91505092915050565b60006104e082840312156132cd576132cc6111f6565b5b6132d760c06111aa565b905060006132e784828501612e7c565b6000830152506103406132fc84828501613113565b60208301525061046082013567ffffffffffffffff811115613321576133206111fb565b5b61332d84828501613288565b60408301525061048061334284828501610f8e565b6060830152506104a061335784828501610f8e565b6080830152506104c061336c84828501612e27565b60a08301525092915050565b60006020828403121561338e5761338d610e80565b5b600082013567ffffffffffffffff8111156133ac576133ab610e85565b5b6133b8848285016132b6565b9150509291505056fea26469706673582212205ae62ad0656de45fe9b69b9d45879191d0f1c51f90993c01d92164d6e4b6999964736f6c63430008140033",
  "devdoc": {
    "kind": "dev",
    "methods": {},
    "version": 1
  },
  "userdoc": {
    "kind": "user",
    "methods": {},
    "version": 1
  },
  "storageLayout": {
    "storage": [],
    "types": null
  }
}