{
  "address": "0x0AeC357AFCe0E0fcB83849F5523C98fa42BF6a9B",
  "abi": [
    {
      "inputs": [
        {
          "internalType": "uint16",
          "name": "market",
          "type": "uint16"
        },
        {
          "internalType": "bytes",
          "name": "fee",
          "type": "bytes"
        }
      ],
      "name": "SELF_addFee",
      "outputs": [],
      "stateMutability": "nonpayable",
      "type": "function"
    },
    {
      "inputs": [
        {
          "internalType": "uint16",
          "name": "market",
          "type": "uint16"
        },
        {
          "internalType": "uint256",
          "name": "maxMarketSizeLimit",
          "type": "uint256"
        }
      ],
      "name": "SELF_addGValid",
      "outputs": [],
      "stateMutability": "nonpayable",
      "type": "function"
    },
    {
      "inputs": [
        {
          "internalType": "bytes",
          "name": "data",
          "type": "bytes"
        }
      ],
      "name": "SELF_addMarket",
      "outputs": [
        {
          "internalType": "uint16",
          "name": "market",
          "type": "uint16"
        }
      ],
      "stateMutability": "nonpayable",
      "type": "function"
    },
    {
      "inputs": [
        {
          "internalType": "uint16",
          "name": "market",
          "type": "uint16"
        },
        {
          "internalType": "bytes",
          "name": "oracle",
          "type": "bytes"
        }
      ],
      "name": "SELF_addOracle",
      "outputs": [],
      "stateMutability": "nonpayable",
      "type": "function"
    },
    {
      "inputs": [
        {
          "components": [
            {
              "internalType": "uint8",
              "name": "busiType",
              "type": "uint8"
            },
            {
              "internalType": "uint256",
              "name": "oraclePrice",
              "type": "uint256"
            },
            {
              "internalType": "uint256",
              "name": "pay",
              "type": "uint256"
            },
            {
              "internalType": "uint256",
              "name": "slippage",
              "type": "uint256"
            },
            {
              "internalType": "uint16",
              "name": "market",
              "type": "uint16"
            },
            {
              "internalType": "bool",
              "name": "isLong",
              "type": "bool"
            },
            {
              "internalType": "bool",
              "name": "isOpen",
              "type": "bool"
            },
            {
              "internalType": "bool",
              "name": "isCreate",
              "type": "bool"
            },
            {
              "internalType": "bool",
              "name": "isFromMarket",
              "type": "bool"
            },
            {
              "internalType": "uint256",
              "name": "sizeDelta",
              "type": "uint256"
            },
            {
              "internalType": "uint256",
              "name": "price",
              "type": "uint256"
            },
            {
              "internalType": "uint256",
              "name": "collateralDelta",
              "type": "uint256"
            },
            {
              "internalType": "uint256",
              "name": "collateral",
              "type": "uint256"
            },
            {
              "internalType": "uint256",
              "name": "tp",
              "type": "uint256"
            },
            {
              "internalType": "uint256",
              "name": "sl",
              "type": "uint256"
            },
            {
              "internalType": "uint64",
              "name": "orderId",
              "type": "uint64"
            },
            {
              "internalType": "address",
              "name": "account",
              "type": "address"
            },
            {
              "internalType": "bool",
              "name": "isExec",
              "type": "bool"
            },
            {
              "internalType": "uint8",
              "name": "liqState",
              "type": "uint8"
            },
            {
              "internalType": "uint64",
              "name": "fromOrder",
              "type": "uint64"
            },
            {
              "internalType": "bytes32",
              "name": "refCode",
              "type": "bytes32"
            },
            {
              "internalType": "uint8",
              "name": "execNum",
              "type": "uint8"
            },
            {
              "internalType": "bool",
              "name": "isKeepLev",
              "type": "bool"
            },
            {
              "internalType": "bool",
              "name": "isKeepLevTP",
              "type": "bool"
            },
            {
              "internalType": "bool",
              "name": "isKeepLevSL",
              "type": "bool"
            },
            {
              "internalType": "bool",
              "name": "triggerAbove",
              "type": "bool"
            },
            {
              "internalType": "uint128",
              "name": "gas",
              "type": "uint128"
            }
          ],
          "internalType": "struct DummyDiamondImplementation.Tuple8179501[]",
          "name": "_inputs",
          "type": "tuple[]"
        }
      ],
      "name": "SELF_addOrders",
      "outputs": [
        {
          "components": [
            {
              "internalType": "bytes32",
              "name": "refCode",
              "type": "bytes32"
            },
            {
              "internalType": "uint128",
              "name": "collateral",
              "type": "uint128"
            },
            {
              "internalType": "uint128",
              "name": "size",
              "type": "uint128"
            },
            {
              "internalType": "uint256",
              "name": "price",
              "type": "uint256"
            },
            {
              "internalType": "uint256",
              "name": "tp",
              "type": "uint256"
            },
            {
              "internalType": "bool",
              "name": "triggerAbove",
              "type": "bool"
            },
            {
              "internalType": "bool",
              "name": "isFromMarket",
              "type": "bool"
            },
            {
              "internalType": "bool",
              "name": "isKeepLev",
              "type": "bool"
            },
            {
              "internalType": "bool",
              "name": "isKeepLevTP",
              "type": "bool"
            },
            {
              "internalType": "bool",
              "name": "isKeepLevSL",
              "type": "bool"
            },
            {
              "internalType": "uint64",
              "name": "orderID",
              "type": "uint64"
            },
            {
              "internalType": "uint64",
              "name": "pairId",
              "type": "uint64"
            },
            {
              "internalType": "uint64",
              "name": "fromId",
              "type": "uint64"
            },
            {
              "internalType": "uint32",
              "name": "updatedAtBlock",
              "type": "uint32"
            },
            {
              "internalType": "uint8",
              "name": "extra0",
              "type": "uint8"
            },
            {
              "internalType": "address",
              "name": "account",
              "type": "address"
            },
            {
              "internalType": "uint96",
              "name": "extra1",
              "type": "uint96"
            },
            {
              "internalType": "uint256",
              "name": "sl",
              "type": "uint256"
            },
            {
              "internalType": "bool",
              "name": "isIncrease",
              "type": "bool"
            },
            {
              "internalType": "bool",
              "name": "isLong",
              "type": "bool"
            },
            {
              "internalType": "uint16",
              "name": "market",
              "type": "uint16"
            },
            {
              "internalType": "uint96",
              "name": "extra2",
              "type": "uint96"
            },
            {
              "internalType": "uint128",
              "name": "gas",
              "type": "uint128"
            },
            {
              "internalType": "uint8",
              "name": "version",
              "type": "uint8"
            }
          ],
          "internalType": "struct DummyDiamondImplementation.Tuple564566[]",
          "name": "_orders",
          "type": "tuple[]"
        }
      ],
      "stateMutability": "nonpayable",
      "type": "function"
    },
    {
      "inputs": [
        {
          "internalType": "bytes",
          "name": "_data",
          "type": "bytes"
        }
      ],
      "name": "SELF_collectFees",
      "outputs": [],
      "stateMutability": "nonpayable",
      "type": "function"
    },
    {
      "inputs": [
        {
          "components": [
            {
              "internalType": "uint16",
              "name": "market",
              "type": "uint16"
            },
            {
              "internalType": "address",
              "name": "account",
              "type": "address"
            },
            {
              "internalType": "int256",
              "name": "collateralDelta",
              "type": "int256"
            },
            {
              "internalType": "uint256",
              "name": "sizeDelta",
              "type": "uint256"
            },
            {
              "internalType": "int256",
              "name": "fundingRate",
              "type": "int256"
            },
            {
              "internalType": "bool",
              "name": "isLong",
              "type": "bool"
            }
          ],
          "internalType": "struct DummyDiamondImplementation.Tuple8634448",
          "name": "inputs",
          "type": "tuple"
        }
      ],
      "name": "SELF_decreasePosition",
      "outputs": [
        {
          "components": [
            {
              "internalType": "uint256",
              "name": "size",
              "type": "uint256"
            },
            {
              "internalType": "uint256",
              "name": "collateral",
              "type": "uint256"
            },
            {
              "internalType": "int256",
              "name": "entryFundingRate",
              "type": "int256"
            },
            {
              "internalType": "int256",
              "name": "realisedPnl",
              "type": "int256"
            },
            {
              "internalType": "uint256",
              "name": "averagePrice",
              "type": "uint256"
            },
            {
              "internalType": "bool",
              "name": "isLong",
              "type": "bool"
            },
            {
              "internalType": "uint32",
              "name": "lastTime",
              "type": "uint32"
            },
            {
              "internalType": "uint16",
              "name": "market",
              "type": "uint16"
            },
            {
              "internalType": "uint72",
              "name": "extra0",
              "type": "uint72"
            }
          ],
          "internalType": "struct DummyDiamondImplementation.Tuple3316247",
          "name": "result",
          "type": "tuple"
        }
      ],
      "stateMutability": "nonpayable",
      "type": "function"
    },
    {
      "inputs": [
        {
          "components": [
            {
              "internalType": "uint16",
              "name": "market",
              "type": "uint16"
            },
            {
              "internalType": "address",
              "name": "account",
              "type": "address"
            },
            {
              "internalType": "int256",
              "name": "collateralDelta",
              "type": "int256"
            },
            {
              "internalType": "uint256",
              "name": "sizeDelta",
              "type": "uint256"
            },
            {
              "internalType": "uint256",
              "name": "markPrice",
              "type": "uint256"
            },
            {
              "internalType": "int256",
              "name": "fundingRate",
              "type": "int256"
            },
            {
              "internalType": "bool",
              "name": "isLong",
              "type": "bool"
            }
          ],
          "internalType": "struct DummyDiamondImplementation.Tuple8047955",
          "name": "_data",
          "type": "tuple"
        }
      ],
      "name": "SELF_increasePosition",
      "outputs": [
        {
          "components": [
            {
              "internalType": "uint256",
              "name": "size",
              "type": "uint256"
            },
            {
              "internalType": "uint256",
              "name": "collateral",
              "type": "uint256"
            },
            {
              "internalType": "int256",
              "name": "entryFundingRate",
              "type": "int256"
            },
            {
              "internalType": "int256",
              "name": "realisedPnl",
              "type": "int256"
            },
            {
              "internalType": "uint256",
              "name": "averagePrice",
              "type": "uint256"
            },
            {
              "internalType": "bool",
              "name": "isLong",
              "type": "bool"
            },
            {
              "internalType": "uint32",
              "name": "lastTime",
              "type": "uint32"
            },
            {
              "internalType": "uint16",
              "name": "market",
              "type": "uint16"
            },
            {
              "internalType": "uint72",
              "name": "extra0",
              "type": "uint72"
            }
          ],
          "internalType": "struct DummyDiamondImplementation.Tuple3316247",
          "name": "result",
          "type": "tuple"
        }
      ],
      "stateMutability": "nonpayable",
      "type": "function"
    },
    {
      "inputs": [
        {
          "internalType": "uint16",
          "name": "market",
          "type": "uint16"
        },
        {
          "internalType": "address",
          "name": "account",
          "type": "address"
        },
        {
          "internalType": "uint256",
          "name": "oraclePrice",
          "type": "uint256"
        },
        {
          "internalType": "bool",
          "name": "isLong",
          "type": "bool"
        }
      ],
      "name": "SELF_liquidatePosition",
      "outputs": [
        {
          "components": [
            {
              "internalType": "uint256",
              "name": "size",
              "type": "uint256"
            },
            {
              "internalType": "uint256",
              "name": "collateral",
              "type": "uint256"
            },
            {
              "internalType": "int256",
              "name": "entryFundingRate",
              "type": "int256"
            },
            {
              "internalType": "int256",
              "name": "realisedPnl",
              "type": "int256"
            },
            {
              "internalType": "uint256",
              "name": "averagePrice",
              "type": "uint256"
            },
            {
              "internalType": "bool",
              "name": "isLong",
              "type": "bool"
            },
            {
              "internalType": "uint32",
              "name": "lastTime",
              "type": "uint32"
            },
            {
              "internalType": "uint16",
              "name": "market",
              "type": "uint16"
            },
            {
              "internalType": "uint72",
              "name": "extra0",
              "type": "uint72"
            }
          ],
          "internalType": "struct DummyDiamondImplementation.Tuple3316247",
          "name": "result",
          "type": "tuple"
        }
      ],
      "stateMutability": "nonpayable",
      "type": "function"
    },
    {
      "inputs": [
        {
          "internalType": "uint16",
          "name": "market",
          "type": "uint16"
        },
        {
          "internalType": "uint256",
          "name": "longSize",
          "type": "uint256"
        },
        {
          "internalType": "uint256",
          "name": "shortSize",
          "type": "uint256"
        }
      ],
      "name": "SELF_updateCumulativeFundingRate",
      "outputs": [],
      "stateMutability": "nonpayable",
      "type": "function"
    },
    {
      "inputs": [
        {
          "components": [
            {
              "components": [
                {
                  "internalType": "uint8",
                  "name": "busiType",
                  "type": "uint8"
                },
                {
                  "internalType": "uint256",
                  "name": "oraclePrice",
                  "type": "uint256"
                },
                {
                  "internalType": "uint256",
                  "name": "pay",
                  "type": "uint256"
                },
                {
                  "internalType": "uint256",
                  "name": "slippage",
                  "type": "uint256"
                },
                {
                  "internalType": "uint16",
                  "name": "market",
                  "type": "uint16"
                },
                {
                  "internalType": "bool",
                  "name": "isLong",
                  "type": "bool"
                },
                {
                  "internalType": "bool",
                  "name": "isOpen",
                  "type": "bool"
                },
                {
                  "internalType": "bool",
                  "name": "isCreate",
                  "type": "bool"
                },
                {
                  "internalType": "bool",
                  "name": "isFromMarket",
                  "type": "bool"
                },
                {
                  "internalType": "uint256",
                  "name": "sizeDelta",
                  "type": "uint256"
                },
                {
                  "internalType": "uint256",
                  "name": "price",
                  "type": "uint256"
                },
                {
                  "internalType": "uint256",
                  "name": "collateralDelta",
                  "type": "uint256"
                },
                {
                  "internalType": "uint256",
                  "name": "collateral",
                  "type": "uint256"
                },
                {
                  "internalType": "uint256",
                  "name": "tp",
                  "type": "uint256"
                },
                {
                  "internalType": "uint256",
                  "name": "sl",
                  "type": "uint256"
                },
                {
                  "internalType": "uint64",
                  "name": "orderId",
                  "type": "uint64"
                },
                {
                  "internalType": "address",
                  "name": "account",
                  "type": "address"
                },
                {
                  "internalType": "bool",
                  "name": "isExec",
                  "type": "bool"
                },
                {
                  "internalType": "uint8",
                  "name": "liqState",
                  "type": "uint8"
                },
                {
                  "internalType": "uint64",
                  "name": "fromOrder",
                  "type": "uint64"
                },
                {
                  "internalType": "bytes32",
                  "name": "refCode",
                  "type": "bytes32"
                },
                {
                  "internalType": "uint8",
                  "name": "execNum",
                  "type": "uint8"
                },
                {
                  "internalType": "bool",
                  "name": "isKeepLev",
                  "type": "bool"
                },
                {
                  "internalType": "bool",
                  "name": "isKeepLevTP",
                  "type": "bool"
                },
                {
                  "internalType": "bool",
                  "name": "isKeepLevSL",
                  "type": "bool"
                },
                {
                  "internalType": "bool",
                  "name": "triggerAbove",
                  "type": "bool"
                },
                {
                  "internalType": "uint128",
                  "name": "gas",
                  "type": "uint128"
                }
              ],
              "internalType": "struct DummyDiamondImplementation.Tuple0521689",
              "name": "inputs",
              "type": "tuple"
            },
            {
              "components": [
                {
                  "internalType": "uint256",
                  "name": "size",
                  "type": "uint256"
                },
                {
                  "internalType": "uint256",
                  "name": "collateral",
                  "type": "uint256"
                },
                {
                  "internalType": "int256",
                  "name": "entryFundingRate",
                  "type": "int256"
                },
                {
                  "internalType": "int256",
                  "name": "realisedPnl",
                  "type": "int256"
                },
                {
                  "internalType": "uint256",
                  "name": "averagePrice",
                  "type": "uint256"
                },
                {
                  "internalType": "bool",
                  "name": "isLong",
                  "type": "bool"
                },
                {
                  "internalType": "uint32",
                  "name": "lastTime",
                  "type": "uint32"
                },
                {
                  "internalType": "uint16",
                  "name": "market",
                  "type": "uint16"
                },
                {
                  "internalType": "uint72",
                  "name": "extra0",
                  "type": "uint72"
                }
              ],
              "internalType": "struct DummyDiamondImplementation.Tuple464693",
              "name": "position",
              "type": "tuple"
            },
            {
              "internalType": "int256[]",
              "name": "fees",
              "type": "int256[]"
            },
            {
              "internalType": "address",
              "name": "collateralToken",
              "type": "address"
            },
            {
              "internalType": "address",
              "name": "indexToken",
              "type": "address"
            },
            {
              "internalType": "int256",
              "name": "collateralDeltaAfter",
              "type": "int256"
            }
          ],
          "internalType": "struct DummyDiamondImplementation.Tuple4013238",
          "name": "_event",
          "type": "tuple"
        }
      ],
      "name": "SELF_updatePositionCallback",
      "outputs": [],
      "stateMutability": "nonpayable",
      "type": "function"
    },
    {
      "inputs": [
        {
          "internalType": "string",
          "name": "name",
          "type": "string"
        },
        {
          "internalType": "address",
          "name": "_vault",
          "type": "address"
        },
        {
          "internalType": "uint256",
          "name": "maxMarketSizeLimit",
          "type": "uint256"
        },
        {
          "components": [
            {
              "internalType": "bool",
              "name": "isSuspended",
              "type": "bool"
            },
            {
              "internalType": "bool",
              "name": "allowOpen",
              "type": "bool"
            },
            {
              "internalType": "bool",
              "name": "allowClose",
              "type": "bool"
            },
            {
              "internalType": "bool",
              "name": "validDecrease",
              "type": "bool"
            },
            {
              "internalType": "uint16",
              "name": "minSlippage",
              "type": "uint16"
            },
            {
              "internalType": "uint16",
              "name": "maxSlippage",
              "type": "uint16"
            },
            {
              "internalType": "uint16",
              "name": "minLeverage",
              "type": "uint16"
            },
            {
              "internalType": "uint16",
              "name": "maxLeverage",
              "type": "uint16"
            },
            {
              "internalType": "uint16",
              "name": "minPayment",
              "type": "uint16"
            },
            {
              "internalType": "uint16",
              "name": "minCollateral",
              "type": "uint16"
            },
            {
              "internalType": "uint16",
              "name": "decreaseNumLimit",
              "type": "uint16"
            },
            {
              "internalType": "uint32",
              "name": "maxTradeAmount",
              "type": "uint32"
            }
          ],
          "internalType": "struct DummyDiamondImplementation.Tuple0408041",
          "name": "config",
          "type": "tuple"
        },
        {
          "internalType": "bytes",
          "name": "oracle",
          "type": "bytes"
        },
        {
          "internalType": "bytes",
          "name": "fee",
          "type": "bytes"
        }
      ],
      "name": "addMarket",
      "outputs": [
        {
          "internalType": "uint16",
          "name": "market",
          "type": "uint16"
        }
      ],
      "stateMutability": "nonpayable",
      "type": "function"
    },
    {
      "inputs": [
        {
          "internalType": "uint16",
          "name": "market",
          "type": "uint16"
        },
        {
          "internalType": "uint256",
          "name": "start",
          "type": "uint256"
        },
        {
          "internalType": "uint256",
          "name": "end",
          "type": "uint256"
        }
      ],
      "name": "addSkipTime",
      "outputs": [],
      "stateMutability": "nonpayable",
      "type": "function"
    },
    {
      "inputs": [
        {
          "internalType": "bytes[]",
          "name": "calls",
          "type": "bytes[]"
        }
      ],
      "name": "aggregateCall",
      "outputs": [
        {
          "internalType": "uint256",
          "name": "blockNumber",
          "type": "uint256"
        },
        {
          "internalType": "bytes[]",
          "name": "returnData",
          "type": "bytes[]"
        }
      ],
      "stateMutability": "nonpayable",
      "type": "function"
    },
    {
      "inputs": [
        {
          "internalType": "bytes[]",
          "name": "calls",
          "type": "bytes[]"
        }
      ],
      "name": "aggregateStaticCall",
      "outputs": [
        {
          "internalType": "uint256",
          "name": "blockNumber",
          "type": "uint256"
        },
        {
          "internalType": "bytes[]",
          "name": "returnData",
          "type": "bytes[]"
        }
      ],
      "stateMutability": "view",
      "type": "function"
    },
    {
      "inputs": [],
      "name": "authority",
      "outputs": [
        {
          "internalType": "address",
          "name": "",
          "type": "address"
        }
      ],
      "stateMutability": "view",
      "type": "function"
    },
    {
      "inputs": [
        {
          "internalType": "address",
          "name": "market",
          "type": "address"
        },
        {
          "internalType": "address",
          "name": "account",
          "type": "address"
        },
        {
          "internalType": "bool",
          "name": "isLong",
          "type": "bool"
        }
      ],
      "name": "availableLiquidity",
      "outputs": [
        {
          "internalType": "uint256",
          "name": "",
          "type": "uint256"
        }
      ],
      "stateMutability": "view",
      "type": "function"
    },
    {
      "inputs": [
        {
          "internalType": "bytes[]",
          "name": "calls",
          "type": "bytes[]"
        }
      ],
      "name": "blockAndAggregate",
      "outputs": [
        {
          "internalType": "uint256",
          "name": "blockNumber",
          "type": "uint256"
        },
        {
          "internalType": "bytes32",
          "name": "blockHash",
          "type": "bytes32"
        },
        {
          "components": [
            {
              "internalType": "bool",
              "name": "success",
              "type": "bool"
            },
            {
              "internalType": "bytes",
              "name": "returnData",
              "type": "bytes"
            }
          ],
          "internalType": "struct DummyDiamondImplementation.Tuple557464[]",
          "name": "returnData",
          "type": "tuple[]"
        }
      ],
      "stateMutability": "nonpayable",
      "type": "function"
    },
    {
      "inputs": [
        {
          "internalType": "address",
          "name": "account",
          "type": "address"
        },
        {
          "internalType": "uint16",
          "name": "market",
          "type": "uint16"
        },
        {
          "internalType": "bool",
          "name": "isIncrease",
          "type": "bool"
        },
        {
          "internalType": "uint256",
          "name": "orderID",
          "type": "uint256"
        },
        {
          "internalType": "bool",
          "name": "isLong",
          "type": "bool"
        }
      ],
      "name": "cancelOrder",
      "outputs": [
        {
          "components": [
            {
              "internalType": "bytes32",
              "name": "refCode",
              "type": "bytes32"
            },
            {
              "internalType": "uint128",
              "name": "collateral",
              "type": "uint128"
            },
            {
              "internalType": "uint128",
              "name": "size",
              "type": "uint128"
            },
            {
              "internalType": "uint256",
              "name": "price",
              "type": "uint256"
            },
            {
              "internalType": "uint256",
              "name": "tp",
              "type": "uint256"
            },
            {
              "internalType": "bool",
              "name": "triggerAbove",
              "type": "bool"
            },
            {
              "internalType": "bool",
              "name": "isFromMarket",
              "type": "bool"
            },
            {
              "internalType": "bool",
              "name": "isKeepLev",
              "type": "bool"
            },
            {
              "internalType": "bool",
              "name": "isKeepLevTP",
              "type": "bool"
            },
            {
              "internalType": "bool",
              "name": "isKeepLevSL",
              "type": "bool"
            },
            {
              "internalType": "uint64",
              "name": "orderID",
              "type": "uint64"
            },
            {
              "internalType": "uint64",
              "name": "pairId",
              "type": "uint64"
            },
            {
              "internalType": "uint64",
              "name": "fromId",
              "type": "uint64"
            },
            {
              "internalType": "uint32",
              "name": "updatedAtBlock",
              "type": "uint32"
            },
            {
              "internalType": "uint8",
              "name": "extra0",
              "type": "uint8"
            },
            {
              "internalType": "address",
              "name": "account",
              "type": "address"
            },
            {
              "internalType": "uint96",
              "name": "extra1",
              "type": "uint96"
            },
            {
              "internalType": "uint256",
              "name": "sl",
              "type": "uint256"
            },
            {
              "internalType": "bool",
              "name": "isIncrease",
              "type": "bool"
            },
            {
              "internalType": "bool",
              "name": "isLong",
              "type": "bool"
            },
            {
              "internalType": "uint16",
              "name": "market",
              "type": "uint16"
            },
            {
              "internalType": "uint96",
              "name": "extra2",
              "type": "uint96"
            },
            {
              "internalType": "uint128",
              "name": "gas",
              "type": "uint128"
            },
            {
              "internalType": "uint8",
              "name": "version",
              "type": "uint8"
            }
          ],
          "internalType": "struct DummyDiamondImplementation.Tuple564566[]",
          "name": "_orders",
          "type": "tuple[]"
        }
      ],
      "stateMutability": "nonpayable",
      "type": "function"
    },
    {
      "inputs": [
        {
          "internalType": "uint16",
          "name": "marketId",
          "type": "uint16"
        }
      ],
      "name": "containsMarket",
      "outputs": [
        {
          "internalType": "bool",
          "name": "",
          "type": "bool"
        }
      ],
      "stateMutability": "view",
      "type": "function"
    },
    {
      "inputs": [
        {
          "internalType": "uint16",
          "name": "market",
          "type": "uint16"
        },
        {
          "internalType": "address",
          "name": "account",
          "type": "address"
        }
      ],
      "name": "containsPositionOfUser",
      "outputs": [
        {
          "internalType": "bool",
          "name": "",
          "type": "bool"
        }
      ],
      "stateMutability": "view",
      "type": "function"
    },
    {
      "inputs": [
        {
          "internalType": "uint16",
          "name": "market",
          "type": "uint16"
        },
        {
          "internalType": "bool",
          "name": "isLong",
          "type": "bool"
        }
      ],
      "name": "cumulativeFundingRates",
      "outputs": [
        {
          "internalType": "int256",
          "name": "",
          "type": "int256"
        }
      ],
      "stateMutability": "view",
      "type": "function"
    },
    {
      "inputs": [
        {
          "components": [
            {
              "internalType": "address",
              "name": "facetAddress",
              "type": "address"
            },
            {
              "internalType": "uint8",
              "name": "action",
              "type": "uint8"
            },
            {
              "internalType": "bytes4[]",
              "name": "functionSelectors",
              "type": "bytes4[]"
            }
          ],
          "internalType": "struct DummyDiamondImplementation.Tuple6871229[]",
          "name": "_diamondCut",
          "type": "tuple[]"
        },
        {
          "internalType": "address",
          "name": "_init",
          "type": "address"
        },
        {
          "internalType": "bytes",
          "name": "_calldata",
          "type": "bytes"
        }
      ],
      "name": "diamondCut",
      "outputs": [],
      "stateMutability": "nonpayable",
      "type": "function"
    },
    {
      "inputs": [
        {
          "components": [
            {
              "internalType": "bytes32",
              "name": "refCode",
              "type": "bytes32"
            },
            {
              "internalType": "uint128",
              "name": "collateral",
              "type": "uint128"
            },
            {
              "internalType": "uint128",
              "name": "size",
              "type": "uint128"
            },
            {
              "internalType": "uint256",
              "name": "price",
              "type": "uint256"
            },
            {
              "internalType": "uint256",
              "name": "tp",
              "type": "uint256"
            },
            {
              "internalType": "bool",
              "name": "triggerAbove",
              "type": "bool"
            },
            {
              "internalType": "bool",
              "name": "isFromMarket",
              "type": "bool"
            },
            {
              "internalType": "bool",
              "name": "isKeepLev",
              "type": "bool"
            },
            {
              "internalType": "bool",
              "name": "isKeepLevTP",
              "type": "bool"
            },
            {
              "internalType": "bool",
              "name": "isKeepLevSL",
              "type": "bool"
            },
            {
              "internalType": "uint64",
              "name": "orderID",
              "type": "uint64"
            },
            {
              "internalType": "uint64",
              "name": "pairId",
              "type": "uint64"
            },
            {
              "internalType": "uint64",
              "name": "fromId",
              "type": "uint64"
            },
            {
              "internalType": "uint32",
              "name": "updatedAtBlock",
              "type": "uint32"
            },
            {
              "internalType": "uint8",
              "name": "extra0",
              "type": "uint8"
            },
            {
              "internalType": "address",
              "name": "account",
              "type": "address"
            },
            {
              "internalType": "uint96",
              "name": "extra1",
              "type": "uint96"
            },
            {
              "internalType": "uint256",
              "name": "sl",
              "type": "uint256"
            },
            {
              "internalType": "bool",
              "name": "isIncrease",
              "type": "bool"
            },
            {
              "internalType": "bool",
              "name": "isLong",
              "type": "bool"
            },
            {
              "internalType": "uint16",
              "name": "market",
              "type": "uint16"
            },
            {
              "internalType": "uint96",
              "name": "extra2",
              "type": "uint96"
            },
            {
              "internalType": "uint128",
              "name": "gas",
              "type": "uint128"
            },
            {
              "internalType": "uint8",
              "name": "version",
              "type": "uint8"
            }
          ],
          "internalType": "struct DummyDiamondImplementation.Tuple680644",
          "name": "order",
          "type": "tuple"
        },
        {
          "components": [
            {
              "internalType": "uint8",
              "name": "busiType",
              "type": "uint8"
            },
            {
              "internalType": "uint256",
              "name": "oraclePrice",
              "type": "uint256"
            },
            {
              "internalType": "uint256",
              "name": "pay",
              "type": "uint256"
            },
            {
              "internalType": "uint256",
              "name": "slippage",
              "type": "uint256"
            },
            {
              "internalType": "uint16",
              "name": "market",
              "type": "uint16"
            },
            {
              "internalType": "bool",
              "name": "isLong",
              "type": "bool"
            },
            {
              "internalType": "bool",
              "name": "isOpen",
              "type": "bool"
            },
            {
              "internalType": "bool",
              "name": "isCreate",
              "type": "bool"
            },
            {
              "internalType": "bool",
              "name": "isFromMarket",
              "type": "bool"
            },
            {
              "internalType": "uint256",
              "name": "sizeDelta",
              "type": "uint256"
            },
            {
              "internalType": "uint256",
              "name": "price",
              "type": "uint256"
            },
            {
              "internalType": "uint256",
              "name": "collateralDelta",
              "type": "uint256"
            },
            {
              "internalType": "uint256",
              "name": "collateral",
              "type": "uint256"
            },
            {
              "internalType": "uint256",
              "name": "tp",
              "type": "uint256"
            },
            {
              "internalType": "uint256",
              "name": "sl",
              "type": "uint256"
            },
            {
              "internalType": "uint64",
              "name": "orderId",
              "type": "uint64"
            },
            {
              "internalType": "address",
              "name": "account",
              "type": "address"
            },
            {
              "internalType": "bool",
              "name": "isExec",
              "type": "bool"
            },
            {
              "internalType": "uint8",
              "name": "liqState",
              "type": "uint8"
            },
            {
              "internalType": "uint64",
              "name": "fromOrder",
              "type": "uint64"
            },
            {
              "internalType": "bytes32",
              "name": "refCode",
              "type": "bytes32"
            },
            {
              "internalType": "uint8",
              "name": "execNum",
              "type": "uint8"
            },
            {
              "internalType": "bool",
              "name": "isKeepLev",
              "type": "bool"
            },
            {
              "internalType": "bool",
              "name": "isKeepLevTP",
              "type": "bool"
            },
            {
              "internalType": "bool",
              "name": "isKeepLevSL",
              "type": "bool"
            },
            {
              "internalType": "bool",
              "name": "triggerAbove",
              "type": "bool"
            },
            {
              "internalType": "uint128",
              "name": "gas",
              "type": "uint128"
            }
          ],
          "internalType": "struct DummyDiamondImplementation.Tuple5849784",
          "name": "_params",
          "type": "tuple"
        }
      ],
      "name": "execAddOrder",
      "outputs": [],
      "stateMutability": "nonpayable",
      "type": "function"
    },
    {
      "inputs": [
        {
          "components": [
            {
              "internalType": "bytes32",
              "name": "refCode",
              "type": "bytes32"
            },
            {
              "internalType": "uint128",
              "name": "collateral",
              "type": "uint128"
            },
            {
              "internalType": "uint128",
              "name": "size",
              "type": "uint128"
            },
            {
              "internalType": "uint256",
              "name": "price",
              "type": "uint256"
            },
            {
              "internalType": "uint256",
              "name": "tp",
              "type": "uint256"
            },
            {
              "internalType": "bool",
              "name": "triggerAbove",
              "type": "bool"
            },
            {
              "internalType": "bool",
              "name": "isFromMarket",
              "type": "bool"
            },
            {
              "internalType": "bool",
              "name": "isKeepLev",
              "type": "bool"
            },
            {
              "internalType": "bool",
              "name": "isKeepLevTP",
              "type": "bool"
            },
            {
              "internalType": "bool",
              "name": "isKeepLevSL",
              "type": "bool"
            },
            {
              "internalType": "uint64",
              "name": "orderID",
              "type": "uint64"
            },
            {
              "internalType": "uint64",
              "name": "pairId",
              "type": "uint64"
            },
            {
              "internalType": "uint64",
              "name": "fromId",
              "type": "uint64"
            },
            {
              "internalType": "uint32",
              "name": "updatedAtBlock",
              "type": "uint32"
            },
            {
              "internalType": "uint8",
              "name": "extra0",
              "type": "uint8"
            },
            {
              "internalType": "address",
              "name": "account",
              "type": "address"
            },
            {
              "internalType": "uint96",
              "name": "extra1",
              "type": "uint96"
            },
            {
              "internalType": "uint256",
              "name": "sl",
              "type": "uint256"
            },
            {
              "internalType": "bool",
              "name": "isIncrease",
              "type": "bool"
            },
            {
              "internalType": "bool",
              "name": "isLong",
              "type": "bool"
            },
            {
              "internalType": "uint16",
              "name": "market",
              "type": "uint16"
            },
            {
              "internalType": "uint96",
              "name": "extra2",
              "type": "uint96"
            },
            {
              "internalType": "uint128",
              "name": "gas",
              "type": "uint128"
            },
            {
              "internalType": "uint8",
              "name": "version",
              "type": "uint8"
            }
          ],
          "internalType": "struct DummyDiamondImplementation.Tuple680644",
          "name": "order",
          "type": "tuple"
        },
        {
          "components": [
            {
              "internalType": "uint8",
              "name": "busiType",
              "type": "uint8"
            },
            {
              "internalType": "uint256",
              "name": "oraclePrice",
              "type": "uint256"
            },
            {
              "internalType": "uint256",
              "name": "pay",
              "type": "uint256"
            },
            {
              "internalType": "uint256",
              "name": "slippage",
              "type": "uint256"
            },
            {
              "internalType": "uint16",
              "name": "market",
              "type": "uint16"
            },
            {
              "internalType": "bool",
              "name": "isLong",
              "type": "bool"
            },
            {
              "internalType": "bool",
              "name": "isOpen",
              "type": "bool"
            },
            {
              "internalType": "bool",
              "name": "isCreate",
              "type": "bool"
            },
            {
              "internalType": "bool",
              "name": "isFromMarket",
              "type": "bool"
            },
            {
              "internalType": "uint256",
              "name": "sizeDelta",
              "type": "uint256"
            },
            {
              "internalType": "uint256",
              "name": "price",
              "type": "uint256"
            },
            {
              "internalType": "uint256",
              "name": "collateralDelta",
              "type": "uint256"
            },
            {
              "internalType": "uint256",
              "name": "collateral",
              "type": "uint256"
            },
            {
              "internalType": "uint256",
              "name": "tp",
              "type": "uint256"
            },
            {
              "internalType": "uint256",
              "name": "sl",
              "type": "uint256"
            },
            {
              "internalType": "uint64",
              "name": "orderId",
              "type": "uint64"
            },
            {
              "internalType": "address",
              "name": "account",
              "type": "address"
            },
            {
              "internalType": "bool",
              "name": "isExec",
              "type": "bool"
            },
            {
              "internalType": "uint8",
              "name": "liqState",
              "type": "uint8"
            },
            {
              "internalType": "uint64",
              "name": "fromOrder",
              "type": "uint64"
            },
            {
              "internalType": "bytes32",
              "name": "refCode",
              "type": "bytes32"
            },
            {
              "internalType": "uint8",
              "name": "execNum",
              "type": "uint8"
            },
            {
              "internalType": "bool",
              "name": "isKeepLev",
              "type": "bool"
            },
            {
              "internalType": "bool",
              "name": "isKeepLevTP",
              "type": "bool"
            },
            {
              "internalType": "bool",
              "name": "isKeepLevSL",
              "type": "bool"
            },
            {
              "internalType": "bool",
              "name": "triggerAbove",
              "type": "bool"
            },
            {
              "internalType": "uint128",
              "name": "gas",
              "type": "uint128"
            }
          ],
          "internalType": "struct DummyDiamondImplementation.Tuple5849784",
          "name": "_params",
          "type": "tuple"
        }
      ],
      "name": "execSubOrder",
      "outputs": [],
      "stateMutability": "nonpayable",
      "type": "function"
    },
    {
      "inputs": [
        {
          "internalType": "bytes4",
          "name": "_functionSelector",
          "type": "bytes4"
        }
      ],
      "name": "facetAddress",
      "outputs": [
        {
          "internalType": "address",
          "name": "facetAddress_",
          "type": "address"
        }
      ],
      "stateMutability": "view",
      "type": "function"
    },
    {
      "inputs": [],
      "name": "facetAddresses",
      "outputs": [
        {
          "internalType": "address[]",
          "name": "facetAddresses_",
          "type": "address[]"
        }
      ],
      "stateMutability": "view",
      "type": "function"
    },
    {
      "inputs": [
        {
          "internalType": "address",
          "name": "_facet",
          "type": "address"
        }
      ],
      "name": "facetFunctionSelectors",
      "outputs": [
        {
          "internalType": "bytes4[]",
          "name": "facetFunctionSelectors_",
          "type": "bytes4[]"
        }
      ],
      "stateMutability": "view",
      "type": "function"
    },
    {
      "inputs": [],
      "name": "facets",
      "outputs": [
        {
          "components": [
            {
              "internalType": "address",
              "name": "facetAddress",
              "type": "address"
            },
            {
              "internalType": "bytes4[]",
              "name": "functionSelectors",
              "type": "bytes4[]"
            }
          ],
          "internalType": "struct DummyDiamondImplementation.Tuple1236461[]",
          "name": "facets_",
          "type": "tuple[]"
        }
      ],
      "stateMutability": "view",
      "type": "function"
    },
    {
      "inputs": [
        {
          "internalType": "uint16",
          "name": "market",
          "type": "uint16"
        },
        {
          "internalType": "address",
          "name": "to",
          "type": "address"
        },
        {
          "internalType": "uint256",
          "name": "amount",
          "type": "uint256"
        }
      ],
      "name": "feeWithdraw",
      "outputs": [],
      "stateMutability": "nonpayable",
      "type": "function"
    },
    {
      "inputs": [
        {
          "internalType": "uint16",
          "name": "market",
          "type": "uint16"
        },
        {
          "internalType": "address",
          "name": "account",
          "type": "address"
        }
      ],
      "name": "getAccountSize",
      "outputs": [
        {
          "internalType": "uint256",
          "name": "",
          "type": "uint256"
        },
        {
          "internalType": "uint256",
          "name": "",
          "type": "uint256"
        }
      ],
      "stateMutability": "view",
      "type": "function"
    },
    {
      "inputs": [
        {
          "internalType": "uint16",
          "name": "market",
          "type": "uint16"
        },
        {
          "internalType": "address",
          "name": "account",
          "type": "address"
        }
      ],
      "name": "getAccountSizeOfMarkets",
      "outputs": [
        {
          "internalType": "uint256",
          "name": "sizesL",
          "type": "uint256"
        },
        {
          "internalType": "uint256",
          "name": "sizesS",
          "type": "uint256"
        }
      ],
      "stateMutability": "view",
      "type": "function"
    },
    {
      "inputs": [
        {
          "internalType": "uint256",
          "name": "blockNumber",
          "type": "uint256"
        }
      ],
      "name": "getBlockHash",
      "outputs": [
        {
          "internalType": "bytes32",
          "name": "blockHash",
          "type": "bytes32"
        }
      ],
      "stateMutability": "view",
      "type": "function"
    },
    {
      "inputs": [],
      "name": "getBlockNumber",
      "outputs": [
        {
          "internalType": "uint256",
          "name": "blockNumber",
          "type": "uint256"
        }
      ],
      "stateMutability": "view",
      "type": "function"
    },
    {
      "inputs": [
        {
          "internalType": "uint16",
          "name": "market",
          "type": "uint16"
        },
        {
          "internalType": "bool",
          "name": "_maximise",
          "type": "bool"
        }
      ],
      "name": "getChainPrice",
      "outputs": [
        {
          "internalType": "uint256",
          "name": "",
          "type": "uint256"
        }
      ],
      "stateMutability": "view",
      "type": "function"
    },
    {
      "inputs": [
        {
          "internalType": "bytes32",
          "name": "_code",
          "type": "bytes32"
        }
      ],
      "name": "getCodeOwners",
      "outputs": [
        {
          "internalType": "address",
          "name": "",
          "type": "address"
        }
      ],
      "stateMutability": "view",
      "type": "function"
    },
    {
      "inputs": [],
      "name": "getCurrentBlockCoinbase",
      "outputs": [
        {
          "internalType": "address",
          "name": "coinbase",
          "type": "address"
        }
      ],
      "stateMutability": "view",
      "type": "function"
    },
    {
      "inputs": [],
      "name": "getCurrentBlockGasLimit",
      "outputs": [
        {
          "internalType": "uint256",
          "name": "gaslimit",
          "type": "uint256"
        }
      ],
      "stateMutability": "view",
      "type": "function"
    },
    {
      "inputs": [],
      "name": "getCurrentBlockTimestamp",
      "outputs": [
        {
          "internalType": "uint256",
          "name": "timestamp",
          "type": "uint256"
        }
      ],
      "stateMutability": "view",
      "type": "function"
    },
    {
      "inputs": [
        {
          "internalType": "address",
          "name": "addr",
          "type": "address"
        }
      ],
      "name": "getEthBalance",
      "outputs": [
        {
          "internalType": "uint256",
          "name": "balance",
          "type": "uint256"
        }
      ],
      "stateMutability": "view",
      "type": "function"
    },
    {
      "inputs": [
        {
          "internalType": "uint16",
          "name": "market",
          "type": "uint16"
        }
      ],
      "name": "getExecFee",
      "outputs": [
        {
          "internalType": "uint256",
          "name": "",
          "type": "uint256"
        }
      ],
      "stateMutability": "view",
      "type": "function"
    },
    {
      "inputs": [
        {
          "components": [
            {
              "internalType": "uint16",
              "name": "market",
              "type": "uint16"
            },
            {
              "internalType": "bool",
              "name": "isLong",
              "type": "bool"
            },
            {
              "internalType": "bool",
              "name": "isIncrease",
              "type": "bool"
            },
            {
              "internalType": "uint256",
              "name": "start",
              "type": "uint256"
            },
            {
              "internalType": "uint256",
              "name": "end",
              "type": "uint256"
            },
            {
              "internalType": "bool",
              "name": "isOpen",
              "type": "bool"
            },
            {
              "internalType": "uint256",
              "name": "oraclePrice",
              "type": "uint256"
            },
            {
              "internalType": "bytes32",
              "name": "storageKey",
              "type": "bytes32"
            }
          ],
          "internalType": "struct DummyDiamondImplementation.Tuple2589231",
          "name": "cache",
          "type": "tuple"
        }
      ],
      "name": "getExecutableOrdersByPrice",
      "outputs": [
        {
          "components": [
            {
              "internalType": "bytes32",
              "name": "refCode",
              "type": "bytes32"
            },
            {
              "internalType": "uint128",
              "name": "collateral",
              "type": "uint128"
            },
            {
              "internalType": "uint128",
              "name": "size",
              "type": "uint128"
            },
            {
              "internalType": "uint256",
              "name": "price",
              "type": "uint256"
            },
            {
              "internalType": "uint256",
              "name": "tp",
              "type": "uint256"
            },
            {
              "internalType": "bool",
              "name": "triggerAbove",
              "type": "bool"
            },
            {
              "internalType": "bool",
              "name": "isFromMarket",
              "type": "bool"
            },
            {
              "internalType": "bool",
              "name": "isKeepLev",
              "type": "bool"
            },
            {
              "internalType": "bool",
              "name": "isKeepLevTP",
              "type": "bool"
            },
            {
              "internalType": "bool",
              "name": "isKeepLevSL",
              "type": "bool"
            },
            {
              "internalType": "uint64",
              "name": "orderID",
              "type": "uint64"
            },
            {
              "internalType": "uint64",
              "name": "pairId",
              "type": "uint64"
            },
            {
              "internalType": "uint64",
              "name": "fromId",
              "type": "uint64"
            },
            {
              "internalType": "uint32",
              "name": "updatedAtBlock",
              "type": "uint32"
            },
            {
              "internalType": "uint8",
              "name": "extra0",
              "type": "uint8"
            },
            {
              "internalType": "address",
              "name": "account",
              "type": "address"
            },
            {
              "internalType": "uint96",
              "name": "extra1",
              "type": "uint96"
            },
            {
              "internalType": "uint256",
              "name": "sl",
              "type": "uint256"
            },
            {
              "internalType": "bool",
              "name": "isIncrease",
              "type": "bool"
            },
            {
              "internalType": "bool",
              "name": "isLong",
              "type": "bool"
            },
            {
              "internalType": "uint16",
              "name": "market",
              "type": "uint16"
            },
            {
              "internalType": "uint96",
              "name": "extra2",
              "type": "uint96"
            },
            {
              "internalType": "uint128",
              "name": "gas",
              "type": "uint128"
            },
            {
              "internalType": "uint8",
              "name": "version",
              "type": "uint8"
            }
          ],
          "internalType": "struct DummyDiamondImplementation.Tuple564566[]",
          "name": "_orders",
          "type": "tuple[]"
        }
      ],
      "stateMutability": "view",
      "type": "function"
    },
    {
      "inputs": [
        {
          "internalType": "uint16",
          "name": "market",
          "type": "uint16"
        },
        {
          "internalType": "uint256",
          "name": "_referencePrice",
          "type": "uint256"
        },
        {
          "internalType": "bool",
          "name": "_maximise",
          "type": "bool"
        }
      ],
      "name": "getFastPrice",
      "outputs": [
        {
          "internalType": "uint256",
          "name": "",
          "type": "uint256"
        }
      ],
      "stateMutability": "view",
      "type": "function"
    },
    {
      "inputs": [
        {
          "internalType": "uint16",
          "name": "market",
          "type": "uint16"
        }
      ],
      "name": "getFeeAndRatesOfMarket",
      "outputs": [
        {
          "internalType": "uint256[]",
          "name": "fees",
          "type": "uint256[]"
        },
        {
          "internalType": "int256[]",
          "name": "fundingRates",
          "type": "int256[]"
        },
        {
          "internalType": "int256[]",
          "name": "_cumulativeFundingRates",
          "type": "int256[]"
        }
      ],
      "stateMutability": "view",
      "type": "function"
    },
    {
      "inputs": [
        {
          "components": [
            {
              "internalType": "uint8",
              "name": "busiType",
              "type": "uint8"
            },
            {
              "internalType": "uint256",
              "name": "oraclePrice",
              "type": "uint256"
            },
            {
              "internalType": "uint256",
              "name": "pay",
              "type": "uint256"
            },
            {
              "internalType": "uint256",
              "name": "slippage",
              "type": "uint256"
            },
            {
              "internalType": "uint16",
              "name": "market",
              "type": "uint16"
            },
            {
              "internalType": "bool",
              "name": "isLong",
              "type": "bool"
            },
            {
              "internalType": "bool",
              "name": "isOpen",
              "type": "bool"
            },
            {
              "internalType": "bool",
              "name": "isCreate",
              "type": "bool"
            },
            {
              "internalType": "bool",
              "name": "isFromMarket",
              "type": "bool"
            },
            {
              "internalType": "uint256",
              "name": "sizeDelta",
              "type": "uint256"
            },
            {
              "internalType": "uint256",
              "name": "price",
              "type": "uint256"
            },
            {
              "internalType": "uint256",
              "name": "collateralDelta",
              "type": "uint256"
            },
            {
              "internalType": "uint256",
              "name": "collateral",
              "type": "uint256"
            },
            {
              "internalType": "uint256",
              "name": "tp",
              "type": "uint256"
            },
            {
              "internalType": "uint256",
              "name": "sl",
              "type": "uint256"
            },
            {
              "internalType": "uint64",
              "name": "orderId",
              "type": "uint64"
            },
            {
              "internalType": "address",
              "name": "account",
              "type": "address"
            },
            {
              "internalType": "bool",
              "name": "isExec",
              "type": "bool"
            },
            {
              "internalType": "uint8",
              "name": "liqState",
              "type": "uint8"
            },
            {
              "internalType": "uint64",
              "name": "fromOrder",
              "type": "uint64"
            },
            {
              "internalType": "bytes32",
              "name": "refCode",
              "type": "bytes32"
            },
            {
              "internalType": "uint8",
              "name": "execNum",
              "type": "uint8"
            },
            {
              "internalType": "bool",
              "name": "isKeepLev",
              "type": "bool"
            },
            {
              "internalType": "bool",
              "name": "isKeepLevTP",
              "type": "bool"
            },
            {
              "internalType": "bool",
              "name": "isKeepLevSL",
              "type": "bool"
            },
            {
              "internalType": "bool",
              "name": "triggerAbove",
              "type": "bool"
            },
            {
              "internalType": "uint128",
              "name": "gas",
              "type": "uint128"
            }
          ],
          "internalType": "struct DummyDiamondImplementation.Tuple21927",
          "name": "params",
          "type": "tuple"
        },
        {
          "components": [
            {
              "internalType": "uint256",
              "name": "size",
              "type": "uint256"
            },
            {
              "internalType": "uint256",
              "name": "collateral",
              "type": "uint256"
            },
            {
              "internalType": "int256",
              "name": "entryFundingRate",
              "type": "int256"
            },
            {
              "internalType": "int256",
              "name": "realisedPnl",
              "type": "int256"
            },
            {
              "internalType": "uint256",
              "name": "averagePrice",
              "type": "uint256"
            },
            {
              "internalType": "bool",
              "name": "isLong",
              "type": "bool"
            },
            {
              "internalType": "uint32",
              "name": "lastTime",
              "type": "uint32"
            },
            {
              "internalType": "uint16",
              "name": "market",
              "type": "uint16"
            },
            {
              "internalType": "uint72",
              "name": "extra0",
              "type": "uint72"
            }
          ],
          "internalType": "struct DummyDiamondImplementation.Tuple464693",
          "name": "position",
          "type": "tuple"
        }
      ],
      "name": "getFeesReceivable",
      "outputs": [
        {
          "internalType": "int256[]",
          "name": "fees",
          "type": "int256[]"
        },
        {
          "internalType": "int256",
          "name": "totalFee",
          "type": "int256"
        }
      ],
      "stateMutability": "view",
      "type": "function"
    },
    {
      "inputs": [
        {
          "internalType": "uint16",
          "name": "market",
          "type": "uint16"
        },
        {
          "internalType": "uint256",
          "name": "size",
          "type": "uint256"
        },
        {
          "internalType": "int256",
          "name": "entryFundingRate",
          "type": "int256"
        },
        {
          "internalType": "bool",
          "name": "isLong",
          "type": "bool"
        }
      ],
      "name": "getFundingFee",
      "outputs": [
        {
          "internalType": "int256",
          "name": "",
          "type": "int256"
        }
      ],
      "stateMutability": "view",
      "type": "function"
    },
    {
      "inputs": [
        {
          "internalType": "uint16",
          "name": "market",
          "type": "uint16"
        }
      ],
      "name": "getGlobalOpenInterest",
      "outputs": [
        {
          "internalType": "uint256",
          "name": "_globalSize",
          "type": "uint256"
        }
      ],
      "stateMutability": "view",
      "type": "function"
    },
    {
      "inputs": [
        {
          "internalType": "address",
          "name": "_vault",
          "type": "address"
        }
      ],
      "name": "getGlobalPnl",
      "outputs": [
        {
          "internalType": "int256",
          "name": "",
          "type": "int256"
        }
      ],
      "stateMutability": "view",
      "type": "function"
    },
    {
      "inputs": [
        {
          "internalType": "uint16",
          "name": "market",
          "type": "uint16"
        },
        {
          "internalType": "bool",
          "name": "isLong",
          "type": "bool"
        }
      ],
      "name": "getGlobalPosition",
      "outputs": [
        {
          "components": [
            {
              "internalType": "uint256",
              "name": "size",
              "type": "uint256"
            },
            {
              "internalType": "uint256",
              "name": "collateral",
              "type": "uint256"
            },
            {
              "internalType": "int256",
              "name": "entryFundingRate",
              "type": "int256"
            },
            {
              "internalType": "int256",
              "name": "realisedPnl",
              "type": "int256"
            },
            {
              "internalType": "uint256",
              "name": "averagePrice",
              "type": "uint256"
            },
            {
              "internalType": "bool",
              "name": "isLong",
              "type": "bool"
            },
            {
              "internalType": "uint32",
              "name": "lastTime",
              "type": "uint32"
            },
            {
              "internalType": "uint16",
              "name": "market",
              "type": "uint16"
            },
            {
              "internalType": "uint72",
              "name": "extra0",
              "type": "uint72"
            }
          ],
          "internalType": "struct DummyDiamondImplementation.Tuple6022437",
          "name": "",
          "type": "tuple"
        }
      ],
      "stateMutability": "view",
      "type": "function"
    },
    {
      "inputs": [
        {
          "internalType": "uint16",
          "name": "market",
          "type": "uint16"
        }
      ],
      "name": "getGlobalSize",
      "outputs": [
        {
          "internalType": "uint256",
          "name": "sizesLong",
          "type": "uint256"
        },
        {
          "internalType": "uint256",
          "name": "sizesShort",
          "type": "uint256"
        }
      ],
      "stateMutability": "view",
      "type": "function"
    },
    {
      "inputs": [],
      "name": "getLastBlockHash",
      "outputs": [
        {
          "internalType": "bytes32",
          "name": "blockHash",
          "type": "bytes32"
        }
      ],
      "stateMutability": "view",
      "type": "function"
    },
    {
      "inputs": [
        {
          "internalType": "uint16",
          "name": "market",
          "type": "uint16"
        }
      ],
      "name": "getMarket",
      "outputs": [
        {
          "internalType": "bytes",
          "name": "result",
          "type": "bytes"
        }
      ],
      "stateMutability": "view",
      "type": "function"
    },
    {
      "inputs": [
        {
          "internalType": "uint16",
          "name": "market",
          "type": "uint16"
        }
      ],
      "name": "getMarketSizes",
      "outputs": [
        {
          "internalType": "uint256",
          "name": "",
          "type": "uint256"
        },
        {
          "internalType": "uint256",
          "name": "",
          "type": "uint256"
        }
      ],
      "stateMutability": "view",
      "type": "function"
    },
    {
      "inputs": [],
      "name": "getMarkets",
      "outputs": [
        {
          "internalType": "bytes",
          "name": "result",
          "type": "bytes"
        }
      ],
      "stateMutability": "view",
      "type": "function"
    },
    {
      "inputs": [
        {
          "internalType": "uint16",
          "name": "market",
          "type": "uint16"
        }
      ],
      "name": "getMarketsOfMarket",
      "outputs": [
        {
          "internalType": "uint256[]",
          "name": "",
          "type": "uint256[]"
        }
      ],
      "stateMutability": "view",
      "type": "function"
    },
    {
      "inputs": [
        {
          "internalType": "address",
          "name": "market",
          "type": "address"
        },
        {
          "internalType": "uint256",
          "name": "longSize",
          "type": "uint256"
        },
        {
          "internalType": "uint256",
          "name": "shortSize",
          "type": "uint256"
        }
      ],
      "name": "getNextFundingRate",
      "outputs": [],
      "stateMutability": "nonpayable",
      "type": "function"
    },
    {
      "inputs": [
        {
          "components": [
            {
              "internalType": "uint8",
              "name": "busiType",
              "type": "uint8"
            },
            {
              "internalType": "uint256",
              "name": "oraclePrice",
              "type": "uint256"
            },
            {
              "internalType": "uint256",
              "name": "pay",
              "type": "uint256"
            },
            {
              "internalType": "uint256",
              "name": "slippage",
              "type": "uint256"
            },
            {
              "internalType": "uint16",
              "name": "market",
              "type": "uint16"
            },
            {
              "internalType": "bool",
              "name": "isLong",
              "type": "bool"
            },
            {
              "internalType": "bool",
              "name": "isOpen",
              "type": "bool"
            },
            {
              "internalType": "bool",
              "name": "isCreate",
              "type": "bool"
            },
            {
              "internalType": "bool",
              "name": "isFromMarket",
              "type": "bool"
            },
            {
              "internalType": "uint256",
              "name": "sizeDelta",
              "type": "uint256"
            },
            {
              "internalType": "uint256",
              "name": "price",
              "type": "uint256"
            },
            {
              "internalType": "uint256",
              "name": "collateralDelta",
              "type": "uint256"
            },
            {
              "internalType": "uint256",
              "name": "collateral",
              "type": "uint256"
            },
            {
              "internalType": "uint256",
              "name": "tp",
              "type": "uint256"
            },
            {
              "internalType": "uint256",
              "name": "sl",
              "type": "uint256"
            },
            {
              "internalType": "uint64",
              "name": "orderId",
              "type": "uint64"
            },
            {
              "internalType": "address",
              "name": "account",
              "type": "address"
            },
            {
              "internalType": "bool",
              "name": "isExec",
              "type": "bool"
            },
            {
              "internalType": "uint8",
              "name": "liqState",
              "type": "uint8"
            },
            {
              "internalType": "uint64",
              "name": "fromOrder",
              "type": "uint64"
            },
            {
              "internalType": "bytes32",
              "name": "refCode",
              "type": "bytes32"
            },
            {
              "internalType": "uint8",
              "name": "execNum",
              "type": "uint8"
            },
            {
              "internalType": "bool",
              "name": "isKeepLev",
              "type": "bool"
            },
            {
              "internalType": "bool",
              "name": "isKeepLevTP",
              "type": "bool"
            },
            {
              "internalType": "bool",
              "name": "isKeepLevSL",
              "type": "bool"
            },
            {
              "internalType": "bool",
              "name": "triggerAbove",
              "type": "bool"
            },
            {
              "internalType": "uint128",
              "name": "gas",
              "type": "uint128"
            }
          ],
          "internalType": "struct DummyDiamondImplementation.Tuple2426236",
          "name": "data",
          "type": "tuple"
        }
      ],
      "name": "getOrderFees",
      "outputs": [
        {
          "internalType": "int256",
          "name": "fees",
          "type": "int256"
        }
      ],
      "stateMutability": "view",
      "type": "function"
    },
    {
      "inputs": [
        {
          "internalType": "uint16",
          "name": "market",
          "type": "uint16"
        }
      ],
      "name": "getPNLOfMarket",
      "outputs": [
        {
          "internalType": "int256",
          "name": "pnl",
          "type": "int256"
        }
      ],
      "stateMutability": "view",
      "type": "function"
    },
    {
      "inputs": [
        {
          "internalType": "uint16",
          "name": "market",
          "type": "uint16"
        },
        {
          "internalType": "address",
          "name": "account",
          "type": "address"
        },
        {
          "internalType": "uint256",
          "name": "sizeDelta",
          "type": "uint256"
        },
        {
          "internalType": "uint256",
          "name": "markPrice",
          "type": "uint256"
        },
        {
          "internalType": "bool",
          "name": "isLong",
          "type": "bool"
        }
      ],
      "name": "getPNLOfUser",
      "outputs": [
        {
          "internalType": "int256",
          "name": "",
          "type": "int256"
        }
      ],
      "stateMutability": "view",
      "type": "function"
    },
    {
      "inputs": [
        {
          "internalType": "uint16",
          "name": "market",
          "type": "uint16"
        },
        {
          "internalType": "address",
          "name": "account",
          "type": "address"
        },
        {
          "internalType": "uint256",
          "name": "markPrice",
          "type": "uint256"
        },
        {
          "internalType": "bool",
          "name": "isLong",
          "type": "bool"
        }
      ],
      "name": "getPosition",
      "outputs": [
        {
          "components": [
            {
              "internalType": "uint256",
              "name": "size",
              "type": "uint256"
            },
            {
              "internalType": "uint256",
              "name": "collateral",
              "type": "uint256"
            },
            {
              "internalType": "int256",
              "name": "entryFundingRate",
              "type": "int256"
            },
            {
              "internalType": "int256",
              "name": "realisedPnl",
              "type": "int256"
            },
            {
              "internalType": "uint256",
              "name": "averagePrice",
              "type": "uint256"
            },
            {
              "internalType": "bool",
              "name": "isLong",
              "type": "bool"
            },
            {
              "internalType": "uint32",
              "name": "lastTime",
              "type": "uint32"
            },
            {
              "internalType": "uint16",
              "name": "market",
              "type": "uint16"
            },
            {
              "internalType": "uint72",
              "name": "extra0",
              "type": "uint72"
            }
          ],
          "internalType": "struct DummyDiamondImplementation.Tuple6022437",
          "name": "",
          "type": "tuple"
        }
      ],
      "stateMutability": "view",
      "type": "function"
    },
    {
      "inputs": [
        {
          "internalType": "uint16",
          "name": "market",
          "type": "uint16"
        },
        {
          "internalType": "bool",
          "name": "isLong",
          "type": "bool"
        }
      ],
      "name": "getPositionCount",
      "outputs": [
        {
          "internalType": "uint256",
          "name": "",
          "type": "uint256"
        }
      ],
      "stateMutability": "view",
      "type": "function"
    },
    {
      "inputs": [
        {
          "internalType": "uint16",
          "name": "market",
          "type": "uint16"
        },
        {
          "internalType": "uint256",
          "name": "start",
          "type": "uint256"
        },
        {
          "internalType": "uint256",
          "name": "end",
          "type": "uint256"
        },
        {
          "internalType": "bool",
          "name": "isLong",
          "type": "bool"
        }
      ],
      "name": "getPositionKeys",
      "outputs": [
        {
          "internalType": "address[]",
          "name": "",
          "type": "address[]"
        }
      ],
      "stateMutability": "view",
      "type": "function"
    },
    {
      "inputs": [
        {
          "internalType": "uint16",
          "name": "market",
          "type": "uint16"
        },
        {
          "internalType": "address",
          "name": "account",
          "type": "address"
        }
      ],
      "name": "getPositions",
      "outputs": [
        {
          "components": [
            {
              "internalType": "uint256",
              "name": "size",
              "type": "uint256"
            },
            {
              "internalType": "uint256",
              "name": "collateral",
              "type": "uint256"
            },
            {
              "internalType": "int256",
              "name": "entryFundingRate",
              "type": "int256"
            },
            {
              "internalType": "int256",
              "name": "realisedPnl",
              "type": "int256"
            },
            {
              "internalType": "uint256",
              "name": "averagePrice",
              "type": "uint256"
            },
            {
              "internalType": "bool",
              "name": "isLong",
              "type": "bool"
            },
            {
              "internalType": "uint32",
              "name": "lastTime",
              "type": "uint32"
            },
            {
              "internalType": "uint16",
              "name": "market",
              "type": "uint16"
            },
            {
              "internalType": "uint72",
              "name": "extra0",
              "type": "uint72"
            }
          ],
          "internalType": "struct DummyDiamondImplementation.Tuple09420",
          "name": "posLong",
          "type": "tuple"
        },
        {
          "components": [
            {
              "internalType": "uint256",
              "name": "size",
              "type": "uint256"
            },
            {
              "internalType": "uint256",
              "name": "collateral",
              "type": "uint256"
            },
            {
              "internalType": "int256",
              "name": "entryFundingRate",
              "type": "int256"
            },
            {
              "internalType": "int256",
              "name": "realisedPnl",
              "type": "int256"
            },
            {
              "internalType": "uint256",
              "name": "averagePrice",
              "type": "uint256"
            },
            {
              "internalType": "bool",
              "name": "isLong",
              "type": "bool"
            },
            {
              "internalType": "uint32",
              "name": "lastTime",
              "type": "uint32"
            },
            {
              "internalType": "uint16",
              "name": "market",
              "type": "uint16"
            },
            {
              "internalType": "uint72",
              "name": "extra0",
              "type": "uint72"
            }
          ],
          "internalType": "struct DummyDiamondImplementation.Tuple6462124",
          "name": "posShort",
          "type": "tuple"
        }
      ],
      "stateMutability": "view",
      "type": "function"
    },
    {
      "inputs": [
        {
          "internalType": "uint16",
          "name": "market",
          "type": "uint16"
        },
        {
          "internalType": "bool",
          "name": "_maximise",
          "type": "bool"
        }
      ],
      "name": "getPrice",
      "outputs": [
        {
          "internalType": "uint256",
          "name": "",
          "type": "uint256"
        }
      ],
      "stateMutability": "view",
      "type": "function"
    },
    {
      "inputs": [],
      "name": "getUSDDecimals",
      "outputs": [
        {
          "internalType": "uint8",
          "name": "",
          "type": "uint8"
        }
      ],
      "stateMutability": "pure",
      "type": "function"
    },
    {
      "inputs": [
        {
          "internalType": "bytes32",
          "name": "_code",
          "type": "bytes32"
        },
        {
          "internalType": "address",
          "name": "_newAccount",
          "type": "address"
        }
      ],
      "name": "govSetCodeOwner",
      "outputs": [],
      "stateMutability": "nonpayable",
      "type": "function"
    },
    {
      "inputs": [],
      "name": "implementation",
      "outputs": [
        {
          "internalType": "address",
          "name": "",
          "type": "address"
        }
      ],
      "stateMutability": "view",
      "type": "function"
    },
    {
      "inputs": [],
      "name": "initDefaultOracleConfig",
      "outputs": [],
      "stateMutability": "nonpayable",
      "type": "function"
    },
    {
      "inputs": [
        {
          "internalType": "uint16",
          "name": "market",
          "type": "uint16"
        }
      ],
      "name": "initFeeFacet",
      "outputs": [],
      "stateMutability": "nonpayable",
      "type": "function"
    },
    {
      "inputs": [
        {
          "internalType": "address",
          "name": "_account",
          "type": "address"
        },
        {
          "internalType": "uint16",
          "name": "_market",
          "type": "uint16"
        },
        {
          "internalType": "bool",
          "name": "_isLong",
          "type": "bool"
        },
        {
          "internalType": "uint256",
          "name": "_price",
          "type": "uint256"
        }
      ],
      "name": "isLiquidate",
      "outputs": [
        {
          "internalType": "uint8",
          "name": "_state",
          "type": "uint8"
        }
      ],
      "stateMutability": "view",
      "type": "function"
    },
    {
      "inputs": [
        {
          "internalType": "uint16",
          "name": "market",
          "type": "uint16"
        },
        {
          "internalType": "address",
          "name": "accounts",
          "type": "address"
        },
        {
          "internalType": "bool",
          "name": "_isLong",
          "type": "bool"
        }
      ],
      "name": "liquidate",
      "outputs": [],
      "stateMutability": "nonpayable",
      "type": "function"
    },
    {
      "inputs": [
        {
          "internalType": "uint16",
          "name": "market",
          "type": "uint16"
        }
      ],
      "name": "markeConfig",
      "outputs": [
        {
          "components": [
            {
              "internalType": "bool",
              "name": "isSuspended",
              "type": "bool"
            },
            {
              "internalType": "bool",
              "name": "allowOpen",
              "type": "bool"
            },
            {
              "internalType": "bool",
              "name": "allowClose",
              "type": "bool"
            },
            {
              "internalType": "bool",
              "name": "validDecrease",
              "type": "bool"
            },
            {
              "internalType": "uint16",
              "name": "minSlippage",
              "type": "uint16"
            },
            {
              "internalType": "uint16",
              "name": "maxSlippage",
              "type": "uint16"
            },
            {
              "internalType": "uint16",
              "name": "minLeverage",
              "type": "uint16"
            },
            {
              "internalType": "uint16",
              "name": "maxLeverage",
              "type": "uint16"
            },
            {
              "internalType": "uint16",
              "name": "minPayment",
              "type": "uint16"
            },
            {
              "internalType": "uint16",
              "name": "minCollateral",
              "type": "uint16"
            },
            {
              "internalType": "uint16",
              "name": "decreaseNumLimit",
              "type": "uint16"
            },
            {
              "internalType": "uint32",
              "name": "maxTradeAmount",
              "type": "uint32"
            }
          ],
          "internalType": "struct DummyDiamondImplementation.Tuple826895",
          "name": "_config",
          "type": "tuple"
        }
      ],
      "stateMutability": "view",
      "type": "function"
    },
    {
      "inputs": [
        {
          "internalType": "bool",
          "name": "isSuspended",
          "type": "bool"
        },
        {
          "internalType": "bool",
          "name": "allowOpen",
          "type": "bool"
        },
        {
          "internalType": "bool",
          "name": "allowClose",
          "type": "bool"
        },
        {
          "internalType": "bool",
          "name": "validDecrease",
          "type": "bool"
        },
        {
          "internalType": "uint16",
          "name": "minSlippage",
          "type": "uint16"
        },
        {
          "internalType": "uint16",
          "name": "maxSlippage",
          "type": "uint16"
        },
        {
          "internalType": "uint16",
          "name": "minLeverage",
          "type": "uint16"
        },
        {
          "internalType": "uint16",
          "name": "maxLeverage",
          "type": "uint16"
        },
        {
          "internalType": "uint16",
          "name": "minPayment",
          "type": "uint16"
        },
        {
          "internalType": "uint16",
          "name": "minCollateral",
          "type": "uint16"
        },
        {
          "internalType": "uint16",
          "name": "decreaseNumLimit",
          "type": "uint16"
        },
        {
          "internalType": "uint32",
          "name": "maxTradeAmount",
          "type": "uint32"
        }
      ],
      "name": "marketMakerForConfig",
      "outputs": [
        {
          "components": [
            {
              "internalType": "bool",
              "name": "isSuspended",
              "type": "bool"
            },
            {
              "internalType": "bool",
              "name": "allowOpen",
              "type": "bool"
            },
            {
              "internalType": "bool",
              "name": "allowClose",
              "type": "bool"
            },
            {
              "internalType": "bool",
              "name": "validDecrease",
              "type": "bool"
            },
            {
              "internalType": "uint16",
              "name": "minSlippage",
              "type": "uint16"
            },
            {
              "internalType": "uint16",
              "name": "maxSlippage",
              "type": "uint16"
            },
            {
              "internalType": "uint16",
              "name": "minLeverage",
              "type": "uint16"
            },
            {
              "internalType": "uint16",
              "name": "maxLeverage",
              "type": "uint16"
            },
            {
              "internalType": "uint16",
              "name": "minPayment",
              "type": "uint16"
            },
            {
              "internalType": "uint16",
              "name": "minCollateral",
              "type": "uint16"
            },
            {
              "internalType": "uint16",
              "name": "decreaseNumLimit",
              "type": "uint16"
            },
            {
              "internalType": "uint32",
              "name": "maxTradeAmount",
              "type": "uint32"
            }
          ],
          "internalType": "struct DummyDiamondImplementation.Tuple5605664",
          "name": "",
          "type": "tuple"
        }
      ],
      "stateMutability": "pure",
      "type": "function"
    },
    {
      "inputs": [
        {
          "internalType": "uint256",
          "name": "maxFRatePerDay",
          "type": "uint256"
        },
        {
          "internalType": "uint256",
          "name": "fRateFactor",
          "type": "uint256"
        },
        {
          "internalType": "uint256",
          "name": "mintFRate",
          "type": "uint256"
        },
        {
          "internalType": "uint256",
          "name": "minFundingInterval",
          "type": "uint256"
        },
        {
          "internalType": "uint256",
          "name": "fundingFeeLossOffLimit",
          "type": "uint256"
        }
      ],
      "name": "marketMakerForFee",
      "outputs": [
        {
          "internalType": "bytes",
          "name": "",
          "type": "bytes"
        }
      ],
      "stateMutability": "pure",
      "type": "function"
    },
    {
      "inputs": [
        {
          "internalType": "address",
          "name": "pricefeed",
          "type": "address"
        },
        {
          "internalType": "uint256",
          "name": "maxCumulativeDeltaDiffs",
          "type": "uint256"
        }
      ],
      "name": "marketMakerForOracle",
      "outputs": [
        {
          "internalType": "bytes",
          "name": "",
          "type": "bytes"
        }
      ],
      "stateMutability": "pure",
      "type": "function"
    },
    {
      "inputs": [],
      "name": "owner",
      "outputs": [
        {
          "internalType": "address",
          "name": "owner_",
          "type": "address"
        }
      ],
      "stateMutability": "view",
      "type": "function"
    },
    {
      "inputs": [
        {
          "internalType": "uint16",
          "name": "market",
          "type": "uint16"
        }
      ],
      "name": "priceFeed",
      "outputs": [
        {
          "internalType": "address",
          "name": "",
          "type": "address"
        }
      ],
      "stateMutability": "view",
      "type": "function"
    },
    {
      "inputs": [
        {
          "internalType": "bytes32",
          "name": "_code",
          "type": "bytes32"
        }
      ],
      "name": "registerCode",
      "outputs": [],
      "stateMutability": "nonpayable",
      "type": "function"
    },
    {
      "inputs": [
        {
          "internalType": "uint16",
          "name": "marketId",
          "type": "uint16"
        }
      ],
      "name": "removeMarket",
      "outputs": [],
      "stateMutability": "nonpayable",
      "type": "function"
    },
    {
      "inputs": [
        {
          "internalType": "address",
          "name": "newAuthority",
          "type": "address"
        }
      ],
      "name": "setAuthority",
      "outputs": [],
      "stateMutability": "nonpayable",
      "type": "function"
    },
    {
      "inputs": [
        {
          "internalType": "uint16",
          "name": "market",
          "type": "uint16"
        },
        {
          "internalType": "bool",
          "name": "isLong",
          "type": "bool"
        },
        {
          "internalType": "int256",
          "name": "calFundingRate",
          "type": "int256"
        }
      ],
      "name": "setCalFundingRates",
      "outputs": [],
      "stateMutability": "nonpayable",
      "type": "function"
    },
    {
      "inputs": [
        {
          "internalType": "uint16",
          "name": "market",
          "type": "uint16"
        },
        {
          "internalType": "uint256",
          "name": "interval",
          "type": "uint256"
        }
      ],
      "name": "setCalIntervals",
      "outputs": [],
      "stateMutability": "nonpayable",
      "type": "function"
    },
    {
      "inputs": [
        {
          "internalType": "bytes32",
          "name": "_code",
          "type": "bytes32"
        },
        {
          "internalType": "address",
          "name": "_newAccount",
          "type": "address"
        }
      ],
      "name": "setCodeOwner",
      "outputs": [],
      "stateMutability": "nonpayable",
      "type": "function"
    },
    {
      "inputs": [
        {
          "internalType": "address",
          "name": "_implementation",
          "type": "address"
        }
      ],
      "name": "setDummyImplementation",
      "outputs": [],
      "stateMutability": "nonpayable",
      "type": "function"
    },
    {
      "inputs": [
        {
          "internalType": "uint16",
          "name": "market",
          "type": "uint16"
        },
        {
          "internalType": "uint8",
          "name": "feeType",
          "type": "uint8"
        },
        {
          "internalType": "uint256",
          "name": "feeAndRate",
          "type": "uint256"
        }
      ],
      "name": "setFeeAndRates",
      "outputs": [],
      "stateMutability": "nonpayable",
      "type": "function"
    },
    {
      "inputs": [
        {
          "internalType": "uint16",
          "name": "market",
          "type": "uint16"
        },
        {
          "internalType": "uint8",
          "name": "configType",
          "type": "uint8"
        },
        {
          "internalType": "uint256",
          "name": "value",
          "type": "uint256"
        }
      ],
      "name": "setFeeConfigs",
      "outputs": [],
      "stateMutability": "nonpayable",
      "type": "function"
    },
    {
      "inputs": [
        {
          "internalType": "uint16",
          "name": "market",
          "type": "uint16"
        },
        {
          "internalType": "uint256",
          "name": "loss",
          "type": "uint256"
        }
      ],
      "name": "setFundFeeLoss",
      "outputs": [],
      "stateMutability": "nonpayable",
      "type": "function"
    },
    {
      "inputs": [
        {
          "internalType": "uint16",
          "name": "market",
          "type": "uint16"
        },
        {
          "internalType": "uint256",
          "name": "interval",
          "type": "uint256"
        }
      ],
      "name": "setFundingIntervals",
      "outputs": [],
      "stateMutability": "nonpayable",
      "type": "function"
    },
    {
      "inputs": [
        {
          "internalType": "uint16",
          "name": "market",
          "type": "uint16"
        },
        {
          "internalType": "bool",
          "name": "isLong",
          "type": "bool"
        },
        {
          "internalType": "int256",
          "name": "fundingRate",
          "type": "int256"
        },
        {
          "internalType": "int256",
          "name": "cumulativeFundingRate",
          "type": "int256"
        }
      ],
      "name": "setFundingRates",
      "outputs": [],
      "stateMutability": "nonpayable",
      "type": "function"
    },
    {
      "inputs": [
        {
          "internalType": "uint16",
          "name": "market",
          "type": "uint16"
        },
        {
          "internalType": "uint256",
          "name": "lastCalTime",
          "type": "uint256"
        }
      ],
      "name": "setLastCalTimes",
      "outputs": [],
      "stateMutability": "nonpayable",
      "type": "function"
    },
    {
      "inputs": [
        {
          "internalType": "uint16",
          "name": "market",
          "type": "uint16"
        },
        {
          "components": [
            {
              "internalType": "bool",
              "name": "isSuspended",
              "type": "bool"
            },
            {
              "internalType": "bool",
              "name": "allowOpen",
              "type": "bool"
            },
            {
              "internalType": "bool",
              "name": "allowClose",
              "type": "bool"
            },
            {
              "internalType": "bool",
              "name": "validDecrease",
              "type": "bool"
            },
            {
              "internalType": "uint16",
              "name": "minSlippage",
              "type": "uint16"
            },
            {
              "internalType": "uint16",
              "name": "maxSlippage",
              "type": "uint16"
            },
            {
              "internalType": "uint16",
              "name": "minLeverage",
              "type": "uint16"
            },
            {
              "internalType": "uint16",
              "name": "maxLeverage",
              "type": "uint16"
            },
            {
              "internalType": "uint16",
              "name": "minPayment",
              "type": "uint16"
            },
            {
              "internalType": "uint16",
              "name": "minCollateral",
              "type": "uint16"
            },
            {
              "internalType": "uint16",
              "name": "decreaseNumLimit",
              "type": "uint16"
            },
            {
              "internalType": "uint32",
              "name": "maxTradeAmount",
              "type": "uint32"
            }
          ],
          "internalType": "struct DummyDiamondImplementation.Tuple9273272",
          "name": "data",
          "type": "tuple"
        }
      ],
      "name": "setMarketConf",
      "outputs": [],
      "stateMutability": "nonpayable",
      "type": "function"
    },
    {
      "inputs": [
        {
          "internalType": "uint16[]",
          "name": "_market",
          "type": "uint16[]"
        },
        {
          "internalType": "uint256[]",
          "name": "_maxCumulativeDeltaDiffs",
          "type": "uint256[]"
        }
      ],
      "name": "setMaxCumulativeDeltaDiffs",
      "outputs": [],
      "stateMutability": "nonpayable",
      "type": "function"
    },
    {
      "inputs": [
        {
          "components": [
            {
              "internalType": "uint32",
              "name": "maxDeviationBP",
              "type": "uint32"
            },
            {
              "internalType": "uint32",
              "name": "priceDuration",
              "type": "uint32"
            },
            {
              "internalType": "uint32",
              "name": "maxPriceUpdateDelay",
              "type": "uint32"
            },
            {
              "internalType": "uint32",
              "name": "priceDataInterval",
              "type": "uint32"
            },
            {
              "internalType": "uint32",
              "name": "sampleSpace",
              "type": "uint32"
            }
          ],
          "internalType": "struct DummyDiamondImplementation.Tuple803863",
          "name": "_config",
          "type": "tuple"
        }
      ],
      "name": "setOracleConfig",
      "outputs": [],
      "stateMutability": "nonpayable",
      "type": "function"
    },
    {
      "inputs": [
        {
          "internalType": "uint16[]",
          "name": "_markets",
          "type": "uint16[]"
        },
        {
          "internalType": "uint256[]",
          "name": "_prices",
          "type": "uint256[]"
        }
      ],
      "name": "setPrices",
      "outputs": [],
      "stateMutability": "nonpayable",
      "type": "function"
    },
    {
      "inputs": [
        {
          "internalType": "address",
          "name": "_account",
          "type": "address"
        },
        {
          "internalType": "uint256",
          "name": "_discountShare",
          "type": "uint256"
        }
      ],
      "name": "setReferrerDiscountShare",
      "outputs": [],
      "stateMutability": "nonpayable",
      "type": "function"
    },
    {
      "inputs": [
        {
          "internalType": "address",
          "name": "_referrer",
          "type": "address"
        },
        {
          "internalType": "uint256",
          "name": "_tierId",
          "type": "uint256"
        }
      ],
      "name": "setReferrerTier",
      "outputs": [],
      "stateMutability": "nonpayable",
      "type": "function"
    },
    {
      "inputs": [
        {
          "internalType": "uint256",
          "name": "_tierId",
          "type": "uint256"
        },
        {
          "internalType": "uint256",
          "name": "_totalRebate",
          "type": "uint256"
        },
        {
          "internalType": "uint256",
          "name": "_discountShare",
          "type": "uint256"
        }
      ],
      "name": "setTier",
      "outputs": [],
      "stateMutability": "nonpayable",
      "type": "function"
    },
    {
      "inputs": [
        {
          "internalType": "address",
          "name": "_account",
          "type": "address"
        },
        {
          "internalType": "bytes32",
          "name": "_code",
          "type": "bytes32"
        }
      ],
      "name": "setTraderReferralCodeByGov",
      "outputs": [],
      "stateMutability": "nonpayable",
      "type": "function"
    },
    {
      "inputs": [
        {
          "internalType": "bytes32",
          "name": "_code",
          "type": "bytes32"
        }
      ],
      "name": "setTraderReferralCodeByUser",
      "outputs": [],
      "stateMutability": "nonpayable",
      "type": "function"
    },
    {
      "inputs": [
        {
          "internalType": "address",
          "name": "_feed",
          "type": "address"
        }
      ],
      "name": "setUSDT",
      "outputs": [],
      "stateMutability": "nonpayable",
      "type": "function"
    },
    {
      "inputs": [
        {
          "internalType": "bytes4",
          "name": "_interfaceId",
          "type": "bytes4"
        }
      ],
      "name": "supportsInterface",
      "outputs": [
        {
          "internalType": "bool",
          "name": "",
          "type": "bool"
        }
      ],
      "stateMutability": "view",
      "type": "function"
    },
    {
      "inputs": [
        {
          "internalType": "address",
          "name": "_newOwner",
          "type": "address"
        }
      ],
      "name": "transferOwnership",
      "outputs": [],
      "stateMutability": "nonpayable",
      "type": "function"
    },
    {
      "inputs": [
        {
          "internalType": "bool",
          "name": "requireSuccess",
          "type": "bool"
        },
        {
          "internalType": "bytes[]",
          "name": "calls",
          "type": "bytes[]"
        }
      ],
      "name": "tryAggregate",
      "outputs": [
        {
          "components": [
            {
              "internalType": "bool",
              "name": "success",
              "type": "bool"
            },
            {
              "internalType": "bytes",
              "name": "returnData",
              "type": "bytes"
            }
          ],
          "internalType": "struct DummyDiamondImplementation.Tuple557464[]",
          "name": "returnData",
          "type": "tuple[]"
        }
      ],
      "stateMutability": "nonpayable",
      "type": "function"
    },
    {
      "inputs": [
        {
          "internalType": "bool",
          "name": "requireSuccess",
          "type": "bool"
        },
        {
          "internalType": "bytes[]",
          "name": "calls",
          "type": "bytes[]"
        }
      ],
      "name": "tryBlockAndAggregate",
      "outputs": [
        {
          "internalType": "uint256",
          "name": "blockNumber",
          "type": "uint256"
        },
        {
          "internalType": "bytes32",
          "name": "blockHash",
          "type": "bytes32"
        },
        {
          "components": [
            {
              "internalType": "bool",
              "name": "success",
              "type": "bool"
            },
            {
              "internalType": "bytes",
              "name": "returnData",
              "type": "bytes"
            }
          ],
          "internalType": "struct DummyDiamondImplementation.Tuple557464[]",
          "name": "returnData",
          "type": "tuple[]"
        }
      ],
      "stateMutability": "nonpayable",
      "type": "function"
    },
    {
      "inputs": [
        {
          "components": [
            {
              "internalType": "uint8",
              "name": "busiType",
              "type": "uint8"
            },
            {
              "internalType": "uint256",
              "name": "oraclePrice",
              "type": "uint256"
            },
            {
              "internalType": "uint256",
              "name": "pay",
              "type": "uint256"
            },
            {
              "internalType": "uint256",
              "name": "slippage",
              "type": "uint256"
            },
            {
              "internalType": "uint16",
              "name": "market",
              "type": "uint16"
            },
            {
              "internalType": "bool",
              "name": "isLong",
              "type": "bool"
            },
            {
              "internalType": "bool",
              "name": "isOpen",
              "type": "bool"
            },
            {
              "internalType": "bool",
              "name": "isCreate",
              "type": "bool"
            },
            {
              "internalType": "bool",
              "name": "isFromMarket",
              "type": "bool"
            },
            {
              "internalType": "uint256",
              "name": "sizeDelta",
              "type": "uint256"
            },
            {
              "internalType": "uint256",
              "name": "price",
              "type": "uint256"
            },
            {
              "internalType": "uint256",
              "name": "collateralDelta",
              "type": "uint256"
            },
            {
              "internalType": "uint256",
              "name": "collateral",
              "type": "uint256"
            },
            {
              "internalType": "uint256",
              "name": "tp",
              "type": "uint256"
            },
            {
              "internalType": "uint256",
              "name": "sl",
              "type": "uint256"
            },
            {
              "internalType": "uint64",
              "name": "orderId",
              "type": "uint64"
            },
            {
              "internalType": "address",
              "name": "account",
              "type": "address"
            },
            {
              "internalType": "bool",
              "name": "isExec",
              "type": "bool"
            },
            {
              "internalType": "uint8",
              "name": "liqState",
              "type": "uint8"
            },
            {
              "internalType": "uint64",
              "name": "fromOrder",
              "type": "uint64"
            },
            {
              "internalType": "bytes32",
              "name": "refCode",
              "type": "bytes32"
            },
            {
              "internalType": "uint8",
              "name": "execNum",
              "type": "uint8"
            },
            {
              "internalType": "bool",
              "name": "isKeepLev",
              "type": "bool"
            },
            {
              "internalType": "bool",
              "name": "isKeepLevTP",
              "type": "bool"
            },
            {
              "internalType": "bool",
              "name": "isKeepLevSL",
              "type": "bool"
            },
            {
              "internalType": "bool",
              "name": "triggerAbove",
              "type": "bool"
            },
            {
              "internalType": "uint128",
              "name": "gas",
              "type": "uint128"
            }
          ],
          "internalType": "struct DummyDiamondImplementation.Tuple910965",
          "name": "_inputs",
          "type": "tuple"
        }
      ],
      "name": "updateOrder",
      "outputs": [],
      "stateMutability": "payable",
      "type": "function"
    },
    {
      "inputs": [],
      "name": "usdtFeed",
      "outputs": [
        {
          "internalType": "address",
          "name": "",
          "type": "address"
        }
      ],
      "stateMutability": "view",
      "type": "function"
    }
  ],
  "transactionHash": "0xb83772d328143e60f950fa4881097356d8381872ec79b936071b54d78da40e74",
  "args": [],
  "numDeployments": 14,
  "solcInputHash": "8d8e6e1fbf0edfe343a1be3391dbac70",
  "bytecode": "0x60806040523462000023576200001462000029565b615b44620000358239615b4490f35b6200002f565b60405190565b600080fdfe60806040526004361015610013575b615328565b61001e6000356106bd565b806301ffc9a7146106b8578063054aaca1146106b3578063055af76d146106ae578063073b0cd1146106a95780630a0dcf7b146106a45780630f28c97d1461069f57806313a300131461069a57806315340f32146106955780631e0a95af146106905780631f931c1c1461068b57806320136e031461068657806327e86d6e146106815780632b60680e1461067c5780632dacede9146106775780632e6e6ea91461067257806331ab264f1461066d578063320de8e914610668578063334253c11461066357806336def2c81461065e57806337b4ec9c14610659578063393e02e1146106545780633d34960f1461064f5780633d58e05c1461064a5780633fb8b3231461064557806342cbb15c1461064057806348412d621461063b5780634d2301cc146106365780634da4ef30146106315780634dee5f261461062c57806350c1b9231461062757806352ef6b2c14610622578063553040971461061d5780635874b736146106185780635add2fb0146106135780635ae70a2b1461060e5780635b971064146106095780635c60da1b14610604578063603d16fb146105ff578063630dc5a0146105fa57806364b6db53146105f5578063653d64b6146105f057806367af1a03146105eb57806369e135f9146105e6578063704a6fd0146105e157806370802dac146105dc57806371127e8a146105d7578063735a2885146105d25780637377e4d7146105cd57806373ad39b3146105c8578063766238db146105c357806379c1122b146105be57806379eba709146105b95780637a0ed627146105b45780637a9e5e4b146105af5780638114baa8146105aa578063836a0187146105a55780638593090f146105a057806386d516e81461059b578063875f7ec314610596578063886394121461059157806389d797b91461058c5780638d094b1e146105875780638d83a1be146105825780638da5cb5b1461057d57806393b3b363146105785780639787b6a5146105735780639d24a6881461056e578063a01e7bc614610569578063a8b0574e14610564578063a9bd63d51461055f578063aa94bda81461055a578063adfca15e14610555578063b0a3961a14610550578063b5cc1d201461054b578063bb715a8514610546578063bd11025d14610541578063bf0d39b81461053c578063bf7e214f14610537578063c39aa07d14610532578063c76cb0d01461052d578063c8a1918f14610528578063cc55e9d114610523578063cd5ba3d41461051e578063cdffacc614610519578063d4f8ba0114610514578063d76ce2771461050f578063d7a799ce1461050a578063daa39c5314610505578063db61122514610500578063df66914e146104fb578063dfcfa250146104f6578063e1e01bf3146104f1578063e36b20c5146104ec578063e9210a02146104e7578063eb7d06c4146104e2578063ec2c9016146104dd578063ed843134146104d8578063ee82ac5e146104d3578063ef880196146104ce578063f130c445146104c9578063f15bd157146104c4578063f224f69a146104bf578063f2da13e2146104ba578063f2fde38b146104b5578063fa6d03c7146104b05763fe0e467e0361000e576152fa565b615291565b615265565b615236565b6151c2565b61518c565b615155565b614e9d565b614e68565b614e1c565b614de7565b614db2565b614d85565b614d59565b614d2d565b614d00565b614c9d565b614c67565b614c30565b614c02565b614b92565b614b5d565b614b28565b614afc565b614a31565b6149f8565b6149c3565b6148dd565b6148a8565b61487b565b614845565b614810565b6147db565b6147a6565b614771565b6146d1565b61451f565b6144ea565b6144b4565b61447f565b614431565b61410b565b61409b565b614056565b613e69565b613cc0565b613c8a565b613c5d565b613bfa565b613bc3565b613b67565b613af3565b613a70565b613a3b565b6138a7565b613782565b613627565b6135f9565b61359c565b61331b565b6132aa565b613250565b613217565b6131a3565b613178565b613142565b613050565b612fea565b612e89565b612e54565b612e27565b612dfb565b612dce565b612d4e565b612ad0565b612a44565b612a18565b6129eb565b612544565b612434565b6123e8565b6123b3565b612386565b612323565b6122ee565b612292565b61221f565b611d4e565b611cf6565b611c57565b61196c565b61156e565b611506565b6114ac565b611443565b6113f5565b611382565b611112565b610fbe565b610f32565b610e8b565b610e30565b610be7565b610b4b565b610827565b61074f565b60e01c90565b60405190565b600080fd5b600080fd5b600080fd5b63ffffffff60e01b1690565b6106ed816106d8565b036106f457565b600080fd5b90503590610706826106e4565b565b906020828203126107225761071f916000016106f9565b90565b6106ce565b151590565b61073590610727565b9052565b919061074d9060006020850194019061072c565b565b3461077f5761077b61076a610765366004610708565b615332565b6107726106c3565b91829182610739565b0390f35b6106c9565b60018060a01b031690565b61079890610784565b90565b6107a48161078f565b036107ab57565b600080fd5b905035906107bd8261079b565b565b90565b6107cb816107bf565b036107d257565b600080fd5b905035906107e4826107c2565b565b909160608284031261081c5761081961080284600085016107b0565b9361081081602086016107d7565b936040016107d7565b90565b6106ce565b60000190565b34610850576108373660046107e6565b5050506108426106c3565b8061084c81610821565b0390f35b6106c9565b600080fd5b601f801991011690565b634e487b7160e01b600052604160045260246000fd5b906108849061085a565b810190811060018060401b0382111761089c57604052565b610864565b906108b46108ad6106c3565b928361087a565b565b60018060401b0381116108cc5760208091020190565b610864565b600080fd5b600080fd5b60018060401b0381116108f7576108f360209161085a565b0190565b610864565b90826000939282370152565b9092919261091d610918826108db565b6108a1565b9381855260208501908284011161093957610937926108fc565b565b6108d6565b9080601f8301121561095c5781602061095993359101610908565b90565b610855565b929190610975610970826108b6565b6108a1565b93818552602080860192028101918383116109ca5781905b83821061099b575050505050565b813560018060401b0381116109c5576020916109ba878493870161093e565b81520191019061098d565b610855565b6108d1565b9080601f830112156109ed578160206109ea93359101610961565b90565b610855565b90602082820312610a2157600082013560018060401b038111610a1c57610a1992016109cf565b90565b6106d3565b6106ce565b610a2f906107bf565b9052565b5190565b60209181520190565b60200190565b5190565b60209181520190565b60005b838110610a67575050906000910152565b806020918301518185015201610a56565b610a97610aa0602093610aa593610a8e81610a46565b93848093610a4a565b95869101610a53565b61085a565b0190565b90610ab391610a78565b90565b60200190565b90610ad0610ac983610a33565b8092610a37565b9081610ae160208302840194610a40565b926000915b838310610af557505050505090565b90919293946020610b17610b1183856001950387528951610aa9565b97610ab6565b9301930191939290610ae6565b91610b4892610b3b60408201936000830190610a26565b6020818403910152610abc565b90565b34610b7c57610b63610b5e3660046109f2565b615348565b90610b78610b6f6106c3565b92839283610b24565b0390f35b6106c9565b61ffff1690565b610b9181610b81565b03610b9857565b600080fd5b90503590610baa82610b88565b565b9091606082840312610be257610bdf610bc88460008501610b9d565b93610bd681602086016107d7565b936040016107d7565b90565b6106ce565b34610c1057610bf7366004610bac565b505050610c026106c3565b80610c0c81610821565b0390f35b6106c9565b600080fd5b600080fd5b90565b610c2b81610c1f565b03610c3257565b600080fd5b90503590610c4482610c22565b565b610c4f81610727565b03610c5657565b600080fd5b90503590610c6882610c46565b565b919060c083820312610cee57610ce790610c8460c06108a1565b93610c928260008301610b9d565b6000860152610ca482602083016107b0565b6020860152610cb68260408301610c37565b6040860152610cc882606083016107d7565b6060860152610cda8260808301610c37565b608086015260a001610c5b565b60a0830152565b610c15565b9060c082820312610d0d57610d0a91600001610c6a565b90565b6106ce565b610d1b906107bf565b9052565b610d2890610c1f565b9052565b610d3590610727565b9052565b63ffffffff1690565b610d4b90610d39565b9052565b610d5890610b81565b9052565b60018060481b031690565b610d7090610d5c565b9052565b9061010080610e1793610d8f60008201516000860190610d12565b610da160208201516020860190610d12565b610db360408201516040860190610d1f565b610dc560608201516060860190610d1f565b610dd760808201516080860190610d12565b610de960a082015160a0860190610d2c565b610dfb60c082015160c0860190610d42565b610e0d60e082015160e0860190610d4f565b0151910190610d67565b565b9190610e2e9060006101208501940190610d74565b565b34610e6057610e5c610e4b610e46366004610cf3565b61540e565b610e536106c3565b91829182610e19565b0390f35b6106c9565b6000910312610e7057565b6106ce565b9190610e8990600060208501940190610a26565b565b34610ebb57610e9b366004610e65565b610eb7610ea661541a565b610eae6106c3565b91829182610e75565b0390f35b6106c9565b90602082820312610eda57610ed791600001610b9d565b90565b6106ce565b60209181520190565b610f07610f10602093610f1593610efe81610a46565b93848093610edf565b95869101610a53565b61085a565b0190565b610f2f9160208201916000818403910152610ee8565b90565b34610f6257610f5e610f4d610f48366004610ec0565b61542a565b610f556106c3565b91829182610f19565b0390f35b6106c9565b919060a083820312610fb957610f8081600085016107d7565b92610f8e82602083016107d7565b92610fb6610f9f84604085016107d7565b93610fad81606086016107d7565b936080016107d7565b90565b6106ce565b34610ff257610fee610fdd610fd4366004610f67565b93929092615436565b610fe56106c3565b91829182610f19565b0390f35b6106c9565b919091604081840312611036576110118360008301610c5b565b92602082013560018060401b0381116110315761102e92016109cf565b90565b6106d3565b6106ce565b5190565b60209181520190565b60200190565b61107b916020604082019261106b60008201516000850190610d2c565b0151906020818403910152610a78565b90565b906110889161104e565b90565b60200190565b906110a561109e8361103b565b809261103f565b90816110b660208302840194611048565b926000915b8383106110ca57505050505090565b909192939460206110ec6110e68385600195038752895161107e565b9761108b565b93019301919392906110bb565b61110f9160208201916000818403910152611091565b90565b346111435761113f61112e611128366004610ff7565b9061544b565b6111366106c3565b918291826110f9565b0390f35b6106c9565b60018060401b03811161115e5760208091020190565b610864565b60ff1690565b61117281611163565b0361117957565b600080fd5b9050359061118b82611169565b565b60018060401b0381116111a35760208091020190565b610864565b909291926111bd6111b88261118d565b6108a1565b93818552602080860192028301928184116111fa57915b8383106111e15750505050565b602080916111ef84866106f9565b8152019201916111d4565b6108d1565b9080601f8301121561121d5781602061121a933591016111a8565b90565b610855565b9190916060818403126112865761123960606108a1565b9261124781600084016107b0565b6000850152611259816020840161117e565b6020850152604082013560018060401b0381116112815761127a92016111ff565b6040830152565b610c1a565b610c15565b92919061129f61129a82611148565b6108a1565b93818552602080860192028101918383116112f45781905b8382106112c5575050505050565b813560018060401b0381116112ef576020916112e48784938701611222565b8152019101906112b7565b610855565b6108d1565b9080601f83011215611317578160206113149335910161128b565b90565b610855565b9160608383031261137d57600083013560018060401b03811161137857826113459185016112f9565b9261135383602083016107b0565b92604082013560018060401b03811161137357611370920161093e565b90565b6106d3565b6106d3565b6106ce565b346113ab5761139236600461131c565b50505061139d6106c3565b806113a781610821565b0390f35b6106c9565b90565b6113bc906113b0565b9052565b6113e56113f29492936113db60608401956000850190610a26565b60208301906113b3565b6040818403910152611091565b90565b346114285761142461141061140b3660046109f2565b61545d565b61141b9391936106c3565b938493846113c0565b0390f35b6106c9565b9190611441906000602085019401906113b3565b565b3461147357611453366004610e65565b61146f61145e61547b565b6114666106c3565b9182918261142d565b0390f35b6106c9565b906020828203126114a757600082013560018060401b0381116114a25761149f920161093e565b90565b6106d3565b6106ce565b346114d3576114bc366004611478565b506114c56106c3565b806114cf81610821565b0390f35b6106c9565b919060408382031261150157806114f56114fe9260008601610b9d565b936020016107d7565b90565b6106ce565b3461152e576115163660046114d8565b50506115206106c3565b8061152a81610821565b0390f35b6106c9565b90916060828403126115695761156661154f8460008501610b9d565b9361155d81602086016107d7565b93604001610c5b565b90565b6106ce565b3461159f5761159b61158a611584366004611533565b91615486565b6115926106c3565b91829182610e75565b0390f35b6106c9565b6115ad816113b0565b036115b457565b600080fd5b905035906115c6826115a4565b565b9190610100838203126116725761166b906115e46101006108a1565b936115f28260008301610b9d565b60008601526116048260208301610c5b565b60208601526116168260408301610c5b565b604086015261162882606083016107d7565b606086015261163a82608083016107d7565b608086015261164c8260a08301610c5b565b60a086015261165e8260c083016107d7565b60c086015260e0016115b9565b60e0830152565b610c15565b90610100828203126116925761168f916000016115c8565b90565b6106ce565b5190565b60209181520190565b60200190565b6116b3906113b0565b9052565b60018060801b031690565b6116cb906116b7565b9052565b60018060401b031690565b6116e3906116cf565b9052565b6116f090611163565b9052565b6116fd9061078f565b9052565b60018060601b031690565b61171590611701565b9052565b906102e0806118e893611734600082015160008601906116aa565b611746602082015160208601906116c2565b611758604082015160408601906116c2565b61176a60608201516060860190610d12565b61177c60808201516080860190610d12565b61178e60a082015160a0860190610d2c565b6117a060c082015160c0860190610d2c565b6117b260e082015160e0860190610d2c565b6117c6610100820151610100860190610d2c565b6117da610120820151610120860190610d2c565b6117ee6101408201516101408601906116da565b6118026101608201516101608601906116da565b6118166101808201516101808601906116da565b61182a6101a08201516101a0860190610d42565b61183e6101c08201516101c08601906116e7565b6118526101e08201516101e08601906116f4565b61186661020082015161020086019061170c565b61187a610220820151610220860190610d12565b61188e610240820151610240860190610d2c565b6118a2610260820151610260860190610d2c565b6118b6610280820151610280860190610d4f565b6118ca6102a08201516102a086019061170c565b6118de6102c08201516102c08601906116c2565b01519101906116e7565b565b906118f88161030093611719565b0190565b60200190565b9061191f61191961191284611697565b809361169b565b926116a4565b9060005b8181106119305750505090565b90919261194961194360019286516118ea565b946118fc565b9101919091611923565b6119699160208201916000818403910152611902565b90565b3461199c57611998611987611982366004611677565b615499565b61198f6106c3565b91829182611953565b0390f35b6106c9565b6119aa816116cf565b036119b157565b600080fd5b905035906119c3826119a1565b565b6119ce816116b7565b036119d557565b600080fd5b905035906119e7826119c5565b565b919061036083820312611c0f57611c0790611a056103606108a1565b93611a13826000830161117e565b6000860152611a2582602083016107d7565b6020860152611a3782604083016107d7565b6040860152611a4982606083016107d7565b6060860152611a5b8260808301610b9d565b6080860152611a6d8260a08301610c5b565b60a0860152611a7f8260c08301610c5b565b60c0860152611a918260e08301610c5b565b60e0860152611aa4826101008301610c5b565b610100860152611ab88261012083016107d7565b610120860152611acc8261014083016107d7565b610140860152611ae08261016083016107d7565b610160860152611af48261018083016107d7565b610180860152611b08826101a083016107d7565b6101a0860152611b1c826101c083016107d7565b6101c0860152611b30826101e083016119b6565b6101e0860152611b448261020083016107b0565b610200860152611b58826102208301610c5b565b610220860152611b6c82610240830161117e565b610240860152611b808261026083016119b6565b610260860152611b948261028083016115b9565b610280860152611ba8826102a0830161117e565b6102a0860152611bbc826102c08301610c5b565b6102c0860152611bd0826102e08301610c5b565b6102e0860152611be4826103008301610c5b565b610300860152611bf8826103208301610c5b565b610320860152610340016119da565b610340830152565b610c15565b9061036082820312611c2f57611c2c916000016119e9565b90565b6106ce565b611c3d90610c1f565b9052565b9190611c5590600060208501940190611c34565b565b34611c8757611c83611c72611c6d366004611c14565b6154aa565b611c7a6106c3565b91829182611c41565b0390f35b6106c9565b608081830312611cce57611ca382600083016107b0565b92611ccb611cb48460208501610b9d565b93611cc28160408601610c5b565b936060016107d7565b90565b6106ce565b611cdc90611163565b9052565b9190611cf490600060208501940190611cd3565b565b34611d2a57611d26611d15611d0c366004611c8c565b929190916154bb565b611d1d6106c3565b91829182611ce0565b0390f35b6106c9565b90602082820312611d4957611d46916000016115b9565b90565b6106ce565b34611d7557611d5e366004611d2f565b50611d676106c3565b80611d7181610821565b0390f35b6106c9565b919061036083820312611fa057611f9890611d966103606108a1565b93611da4826000830161117e565b6000860152611db682602083016107d7565b6020860152611dc882604083016107d7565b6040860152611dda82606083016107d7565b6060860152611dec8260808301610b9d565b6080860152611dfe8260a08301610c5b565b60a0860152611e108260c08301610c5b565b60c0860152611e228260e08301610c5b565b60e0860152611e35826101008301610c5b565b610100860152611e498261012083016107d7565b610120860152611e5d8261014083016107d7565b610140860152611e718261016083016107d7565b610160860152611e858261018083016107d7565b610180860152611e99826101a083016107d7565b6101a0860152611ead826101c083016107d7565b6101c0860152611ec1826101e083016119b6565b6101e0860152611ed58261020083016107b0565b610200860152611ee9826102208301610c5b565b610220860152611efd82610240830161117e565b610240860152611f118261026083016119b6565b610260860152611f258261028083016115b9565b610280860152611f39826102a0830161117e565b6102a0860152611f4d826102c08301610c5b565b6102c0860152611f61826102e08301610c5b565b6102e0860152611f75826103008301610c5b565b610300860152611f89826103208301610c5b565b610320860152610340016119da565b610340830152565b610c15565b611fae81610d39565b03611fb557565b600080fd5b90503590611fc782611fa5565b565b611fd281610d5c565b03611fd957565b600080fd5b90503590611feb82611fc9565b565b9190610120838203126120ab576120a3906120096101206108a1565b9361201782600083016107d7565b600086015261202982602083016107d7565b602086015261203b8260408301610c37565b604086015261204d8260608301610c37565b606086015261205f82608083016107d7565b60808601526120718260a08301610c5b565b60a08601526120838260c08301611fba565b60c08601526120958260e08301610b9d565b60e086015261010001611fde565b610100830152565b610c15565b60018060401b0381116120c65760208091020190565b610864565b909291926120e06120db826120b0565b6108a1565b938185526020808601920283019281841161211d57915b8383106121045750505050565b602080916121128486610c37565b8152019201916120f7565b6108d1565b9080601f830112156121405781602061213d933591016120cb565b90565b610855565b919091610500818403126121e65761215d60c06108a1565b9261216b8160008401611d7a565b600085015261217e816103608401611fed565b60208501526104808201359160018060401b0383116121e1576121a6826121da948301612122565b60408601526121b9826104a083016107b0565b60608601526121cc826104c083016107b0565b60808601526104e001610c37565b60a0830152565b610c1a565b610c15565b9060208282031261221a57600082013560018060401b038111612215576122129201612145565b90565b6106d3565b6106ce565b346122465761222f3660046121eb565b506122386106c3565b8061224281610821565b0390f35b6106c9565b60808183031261228d576122628260008301610b9d565b9261228a61227384602085016107d7565b936122818160408601610c37565b93606001610c5b565b90565b6106ce565b346122c6576122c26122b16122a836600461224b565b929190916154ca565b6122b96106c3565b91829182611c41565b0390f35b6106c9565b6122d49061078f565b9052565b91906122ec906000602085019401906122cb565b565b3461231e5761231a612309612304366004611d2f565b6154de565b6123116106c3565b918291826122d8565b0390f35b6106c9565b346123535761234f61233e612339366004610ec0565b6154ea565b6123466106c3565b918291826122d8565b0390f35b6106c9565b9190604083820312612381578061237561237e92600086016107b0565b936020016107d7565b90565b6106ce565b346123ae57612396366004612358565b50506123a06106c3565b806123aa81610821565b0390f35b6106c9565b346123e3576123c3366004610e65565b6123df6123ce6154f6565b6123d66106c3565b91829182610e75565b0390f35b6106c9565b34612410576123f83660046114d8565b50506124026106c3565b8061240c81610821565b0390f35b6106c9565b9060208282031261242f5761242c916000016107b0565b90565b6106ce565b346124645761246061244f61244a366004612415565b615501565b6124576106c3565b91829182610e75565b0390f35b6106c9565b6080818303126124ab576124808260008301610b9d565b926124a861249184602085016107d7565b9361249f81604086016107d7565b93606001610c5b565b90565b6106ce565b5190565b60209181520190565b60200190565b906124d0816020936116f4565b0190565b60200190565b906124f76124f16124ea846124b0565b80936124b4565b926124bd565b9060005b8181106125085750505090565b90919261252161251b60019286516124c3565b946124d4565b91019190916124fb565b61254191602082019160008184039101526124da565b90565b346125785761257461256361255a366004612469565b92919091615512565b61256b6106c3565b9182918261252b565b0390f35b6106c9565b61258681611701565b0361258d57565b600080fd5b9050359061259f8261257d565b565b91906103008382031261278b57612783906125bd6103006108a1565b936125cb82600083016115b9565b60008601526125dd82602083016119da565b60208601526125ef82604083016119da565b604086015261260182606083016107d7565b606086015261261382608083016107d7565b60808601526126258260a08301610c5b565b60a08601526126378260c08301610c5b565b60c08601526126498260e08301610c5b565b60e086015261265c826101008301610c5b565b610100860152612670826101208301610c5b565b6101208601526126848261014083016119b6565b6101408601526126988261016083016119b6565b6101608601526126ac8261018083016119b6565b6101808601526126c0826101a08301611fba565b6101a08601526126d4826101c0830161117e565b6101c08601526126e8826101e083016107b0565b6101e08601526126fc826102008301612592565b6102008601526127108261022083016107d7565b610220860152612724826102408301610c5b565b610240860152612738826102608301610c5b565b61026086015261274c826102808301610b9d565b610280860152612760826102a08301612592565b6102a0860152612774826102c083016119da565b6102c08601526102e00161117e565b6102e0830152565b610c15565b9190610360838203126129b6576129ae906127ac6103606108a1565b936127ba826000830161117e565b60008601526127cc82602083016107d7565b60208601526127de82604083016107d7565b60408601526127f082606083016107d7565b60608601526128028260808301610b9d565b60808601526128148260a08301610c5b565b60a08601526128268260c08301610c5b565b60c08601526128388260e08301610c5b565b60e086015261284b826101008301610c5b565b61010086015261285f8261012083016107d7565b6101208601526128738261014083016107d7565b6101408601526128878261016083016107d7565b61016086015261289b8261018083016107d7565b6101808601526128af826101a083016107d7565b6101a08601526128c3826101c083016107d7565b6101c08601526128d7826101e083016119b6565b6101e08601526128eb8261020083016107b0565b6102008601526128ff826102208301610c5b565b61022086015261291382610240830161117e565b6102408601526129278261026083016119b6565b61026086015261293b8261028083016115b9565b61028086015261294f826102a0830161117e565b6102a0860152612963826102c08301610c5b565b6102c0860152612977826102e08301610c5b565b6102e086015261298b826103008301610c5b565b61030086015261299f826103208301610c5b565b610320860152610340016119da565b610340830152565b610c15565b9190610660838203126129e657806129d96129e392600086016125a1565b9361030001612790565b90565b6106ce565b34612a13576129fb3660046129bb565b5050612a056106c3565b80612a0f81610821565b0390f35b6106c9565b34612a3f57612a28366004612415565b50612a316106c3565b80612a3b81610821565b0390f35b6106c9565b34612a7457612a54366004610e65565b612a70612a5f615521565b612a676106c3565b9182918261252b565b0390f35b6106c9565b919060a083820312612acb57612a928160008501610b9d565b92612aa082602083016107b0565b92612ac8612ab184604085016107d7565b93612abf81606086016107d7565b93608001610c5b565b90565b6106ce565b34612b0457612b00612aef612ae6366004612a79565b9392909261552c565b612af76106c3565b91829182611c41565b0390f35b6106c9565b60018060401b038111612b2557612b2160209161085a565b0190565b610864565b90929192612b3f612b3a82612b09565b6108a1565b93818552602085019082840111612b5b57612b59926108fc565b565b6108d6565b9080601f83011215612b7e57816020612b7b93359101612b2a565b90565b610855565b919061018083820312612c7d57612c7590612b9f6101806108a1565b93612bad8260008301610c5b565b6000860152612bbf8260208301610c5b565b6020860152612bd18260408301610c5b565b6040860152612be38260608301610c5b565b6060860152612bf58260808301610b9d565b6080860152612c078260a08301610b9d565b60a0860152612c198260c08301610b9d565b60c0860152612c2b8260e08301610b9d565b60e0860152612c3e826101008301610b9d565b610100860152612c52826101208301610b9d565b610120860152612c66826101408301610b9d565b61014086015261016001611fba565b610160830152565b610c15565b9161022083830312612d2657600083013560018060401b038111612d215782612cac918501612b60565b92612cba83602083016107b0565b92612cc881604084016107d7565b92612cd68260608501612b83565b926101e081013560018060401b038111612d1c5783612cf691830161093e565b9261020082013560018060401b038111612d1757612d14920161093e565b90565b6106d3565b6106d3565b6106d3565b6106ce565b612d3490610b81565b9052565b9190612d4c90600060208501940190612d2b565b565b34612d8557612d81612d70612d64366004612c82565b94939093929192615541565b612d786106c3565b91829182612d38565b0390f35b6106c9565b919091604081840312612dc957612da48360008301610b9d565b92602082013560018060401b038111612dc457612dc1920161093e565b90565b6106d3565b6106ce565b34612df657612dde366004612d8a565b5050612de86106c3565b80612df281610821565b0390f35b6106c9565b34612e2257612e0b366004610ec0565b50612e146106c3565b80612e1e81610821565b0390f35b6106c9565b34612e4f57612e373660046114d8565b5050612e416106c3565b80612e4b81610821565b0390f35b6106c9565b34612e8457612e64366004610e65565b612e80612e6f615552565b612e776106c3565b918291826122d8565b0390f35b6106c9565b34612eb157612e993660046114d8565b5050612ea36106c3565b80612ead81610821565b0390f35b6106c9565b5190565b60209181520190565b60200190565b90612ed681602093610d12565b0190565b60200190565b90612efd612ef7612ef084612eb6565b8093612eba565b92612ec3565b9060005b818110612f0e5750505090565b909192612f27612f216001928651612ec9565b94612eda565b9101919091612f01565b5190565b60209181520190565b60200190565b90612f5181602093610d1f565b0190565b60200190565b90612f78612f72612f6b84612f31565b8093612f35565b92612f3e565b9060005b818110612f895750505090565b909192612fa2612f9c6001928651612f44565b94612f55565b9101919091612f7c565b91612fd990612fcb612fe7959360608601908682036000880152612ee0565b908482036020860152612f5b565b916040818403910152612f5b565b90565b3461301d57613019613005613000366004610ec0565b615567565b6130109391936106c3565b93849384612fac565b0390f35b6106c9565b919060408382031261304b578061303f6130489260008601610b9d565b93602001610c5b565b90565b6106ce565b346130815761307d61306c613066366004613022565b90615585565b6130746106c3565b91829182610e75565b0390f35b6106c9565b9061010080613129936130a160008201516000860190610d12565b6130b360208201516020860190610d12565b6130c560408201516040860190610d1f565b6130d760608201516060860190610d1f565b6130e960808201516080860190610d12565b6130fb60a082015160a0860190610d2c565b61310d60c082015160c0860190610d42565b61311f60e082015160e0860190610d4f565b0151910190610d67565b565b91906131409060006101208501940190613086565b565b346131735761316f61315e613158366004613022565b90615625565b6131666106c3565b9182918261312b565b0390f35b6106c9565b3461319e57613188366004610e65565b6131906106c3565b8061319a81610821565b0390f35b6106c9565b346131cb576131b33660046129bb565b50506131bd6106c3565b806131c781610821565b0390f35b6106c9565b608081830312613212576131e78260008301610b9d565b9261320f6131f884602085016107b0565b9361320681604086016107d7565b93606001610c5b565b90565b6106ce565b3461324b5761324761323661322d3660046131d0565b92919091615632565b61323e6106c3565b91829182610e19565b0390f35b6106c9565b346132815761327d61326c613266366004613022565b90615641565b6132746106c3565b91829182611c41565b0390f35b6106c9565b9160206132a89294936132a160408201966000830190610a26565b0190610a26565b565b346132db576132c26132bd366004610ec0565b61564e565b906132d76132ce6106c3565b92839283613286565b0390f35b6106c9565b9091606082840312613316576133136132fc84600085016107b0565b9361330a81602086016107b0565b93604001610c5b565b90565b6106ce565b3461334c576133486133376133313660046132e0565b91615663565b61333f6106c3565b91829182610e75565b0390f35b6106c9565b9190610360838203126135775761356f9061336d6103606108a1565b9361337b826000830161117e565b600086015261338d82602083016107d7565b602086015261339f82604083016107d7565b60408601526133b182606083016107d7565b60608601526133c38260808301610b9d565b60808601526133d58260a08301610c5b565b60a08601526133e78260c08301610c5b565b60c08601526133f98260e08301610c5b565b60e086015261340c826101008301610c5b565b6101008601526134208261012083016107d7565b6101208601526134348261014083016107d7565b6101408601526134488261016083016107d7565b61016086015261345c8261018083016107d7565b610180860152613470826101a083016107d7565b6101a0860152613484826101c083016107d7565b6101c0860152613498826101e083016119b6565b6101e08601526134ac8261020083016107b0565b6102008601526134c0826102208301610c5b565b6102208601526134d482610240830161117e565b6102408601526134e88261026083016119b6565b6102608601526134fc8261028083016115b9565b610280860152613510826102a0830161117e565b6102a0860152613524826102c08301610c5b565b6102c0860152613538826102e08301610c5b565b6102e086015261354c826103008301610c5b565b610300860152613560826103208301610c5b565b610320860152610340016119da565b610340830152565b610c15565b90610360828203126135975761359491600001613351565b90565b6106ce565b6135a736600461357c565b506135b06106c3565b806135ba81610821565b0390f35b90916060828403126135f4576135f16135da8460008501610b9d565b936135e88160208601610c5b565b93604001610c37565b90565b6106ce565b34613622576136093660046135be565b5050506136146106c3565b8061361e81610821565b0390f35b6106c9565b3461364f57613637366004612358565b50506136416106c3565b8061364b81610821565b0390f35b6106c9565b91906101808382031261374e57613746906136706101806108a1565b9361367e8260008301610c5b565b60008601526136908260208301610c5b565b60208601526136a28260408301610c5b565b60408601526136b48260608301610c5b565b60608601526136c68260808301610b9d565b60808601526136d88260a08301610b9d565b60a08601526136ea8260c08301610b9d565b60c08601526136fc8260e08301610b9d565b60e086015261370f826101008301610b9d565b610100860152613723826101208301610b9d565b610120860152613737826101408301610b9d565b61014086015261016001611fba565b610160830152565b610c15565b91906101a08382031261377d578061377161377a9260008601610b9d565b93602001613654565b90565b6106ce565b346137aa57613792366004613753565b505061379c6106c3565b806137a681610821565b0390f35b6106c9565b906101608061388e936137ca60008201516000860190610d2c565b6137dc60208201516020860190610d2c565b6137ee60408201516040860190610d2c565b61380060608201516060860190610d2c565b61381260808201516080860190610d4f565b61382460a082015160a0860190610d4f565b61383660c082015160c0860190610d4f565b61384860e082015160e0860190610d4f565b61385c610100820151610100860190610d4f565b613870610120820151610120860190610d4f565b613884610140820151610140860190610d4f565b0151910190610d42565b565b91906138a590600061018085019401906137af565b565b346138d7576138d36138c26138bd366004610ec0565b615728565b6138ca6106c3565b91829182613890565b0390f35b6106c9565b5190565b60209181520190565b60200190565b5190565b60209181520190565b60200190565b61390b906106d8565b9052565b9061391c81602093613902565b0190565b60200190565b9061394361393d613936846138ef565b80936138f3565b926138fc565b9060005b8181106139545750505090565b90919261396d613967600192865161390f565b94613920565b9101919091613947565b6139a49160206040820192613994600082015160008501906116f4565b0151906020818403910152613926565b90565b906139b191613977565b90565b60200190565b906139ce6139c7836138dc565b80926138e0565b90816139df602083028401946138e9565b926000915b8383106139f357505050505090565b90919293946020613a15613a0f838560019503875289516139a7565b976139b4565b93019301919392906139e4565b613a3891602082019160008184039101526139ba565b90565b34613a6b57613a4b366004610e65565b613a67613a56615739565b613a5e6106c3565b91829182613a22565b0390f35b6106c9565b34613a9757613a80366004612415565b50613a896106c3565b80613a9381610821565b0390f35b6106c9565b919060a083820312613aee57613ab581600085016107b0565b92613ac38260208301610b9d565b92613aeb613ad48460408501610c5b565b93613ae281606086016107d7565b93608001610c5b565b90565b6106ce565b34613b2757613b23613b12613b09366004613a9c565b93929092615744565b613b1a6106c3565b91829182611953565b0390f35b6106c9565b9091606082840312613b6257613b5f613b4884600085016107d7565b93613b5681602086016107d7565b936040016107d7565b90565b6106ce565b34613b9057613b77366004613b2c565b505050613b826106c3565b80613b8c81610821565b0390f35b6106c9565b9190604083820312613bbe5780613bb2613bbb9260008601610b9d565b936020016107b0565b90565b6106ce565b34613bf557613bdc613bd6366004613b95565b90615754565b90613bf1613be86106c3565b92839283613286565b0390f35b6106c9565b34613c2a57613c0a366004610e65565b613c26613c1561576a565b613c1d6106c3565b91829182610e75565b0390f35b6106c9565b9190604083820312613c585780613c4c613c5592600086016107b0565b936020016115b9565b90565b6106ce565b34613c8557613c6d366004613c2f565b5050613c776106c3565b80613c8181610821565b0390f35b6106c9565b34613cbb57613cb7613ca6613ca0366004613b95565b90615775565b613cae6106c3565b91829182610739565b0390f35b6106c9565b34613cf457613cf0613cdf613cd63660046131d0565b92919091615782565b613ce76106c3565b9182918261312b565b0390f35b6106c9565b9061010080613d9c93613d1460008201516000860190610d12565b613d2660208201516020860190610d12565b613d3860408201516040860190610d1f565b613d4a60608201516060860190610d1f565b613d5c60808201516080860190610d12565b613d6e60a082015160a0860190610d2c565b613d8060c082015160c0860190610d42565b613d9260e082015160e0860190610d4f565b0151910190610d67565b565b9061010080613e4193613db960008201516000860190610d12565b613dcb60208201516020860190610d12565b613ddd60408201516040860190610d1f565b613def60608201516060860190610d1f565b613e0160808201516080860190610d12565b613e1360a082015160a0860190610d2c565b613e2560c082015160c0860190610d42565b613e3760e082015160e0860190610d4f565b0151910190610d67565b565b91610120613e67929493613e606102408201966000830190613cf9565b0190613d9e565b565b34613e9b57613e82613e7c366004613b95565b906158b7565b90613e97613e8e6106c3565b92839283613e43565b0390f35b6106c9565b909161018082840312613f5957613eba8360008401610c5b565b92613ec88160208501610c5b565b92613ed68260408301610c5b565b92613ee48360608401610c5b565b92613ef28160808501610b9d565b92613f008260a08301610b9d565b92613f0e8360c08401610b9d565b92613f1c8160e08501610b9d565b92613f2b826101008301610b9d565b92613f56613f3d846101208501610b9d565b93613f4c816101408601610b9d565b9361016001611fba565b90565b6106ce565b906101608061403d93613f7960008201516000860190610d2c565b613f8b60208201516020860190610d2c565b613f9d60408201516040860190610d2c565b613faf60608201516060860190610d2c565b613fc160808201516080860190610d4f565b613fd360a082015160a0860190610d4f565b613fe560c082015160c0860190610d4f565b613ff760e082015160e0860190610d4f565b61400b610100820151610100860190610d4f565b61401f610120820151610120860190610d4f565b614033610140820151610140860190610d4f565b0151910190610d42565b565b91906140549060006101808501940190613f5e565b565b346140965761409261408161406c366004613ea0565b9a999099989198979297969396959495615984565b6140896106c3565b9182918261403f565b0390f35b6106c9565b346140cb576140ab366004610e65565b6140c76140b661599b565b6140be6106c3565b918291826122d8565b0390f35b6106c9565b9091606082840312614106576141036140ec8460008501610b9d565b936140fa816020860161117e565b936040016107d7565b90565b6106ce565b346141345761411b3660046140d0565b5050506141266106c3565b8061413081610821565b0390f35b6106c9565b60018060401b03811161414f5760208091020190565b610864565b91906103608382031261437a57614372906141706103606108a1565b9361417e826000830161117e565b600086015261419082602083016107d7565b60208601526141a282604083016107d7565b60408601526141b482606083016107d7565b60608601526141c68260808301610b9d565b60808601526141d88260a08301610c5b565b60a08601526141ea8260c08301610c5b565b60c08601526141fc8260e08301610c5b565b60e086015261420f826101008301610c5b565b6101008601526142238261012083016107d7565b6101208601526142378261014083016107d7565b61014086015261424b8261016083016107d7565b61016086015261425f8261018083016107d7565b610180860152614273826101a083016107d7565b6101a0860152614287826101c083016107d7565b6101c086015261429b826101e083016119b6565b6101e08601526142af8261020083016107b0565b6102008601526142c3826102208301610c5b565b6102208601526142d782610240830161117e565b6102408601526142eb8261026083016119b6565b6102608601526142ff8261028083016115b9565b610280860152614313826102a0830161117e565b6102a0860152614327826102c08301610c5b565b6102c086015261433b826102e08301610c5b565b6102e086015261434f826103008301610c5b565b610300860152614363826103208301610c5b565b610320860152610340016119da565b610340830152565b610c15565b9092919261439461438f82614139565b6108a1565b938185526103606020860192028301928184116143d557915b8383106143ba5750505050565b6020610360916143ca8486614154565b8152019201916143ad565b6108d1565b9080601f830112156143f8578160206143f59335910161437f565b90565b610855565b9060208282031261442c57600082013560018060401b0381116144275761442492016143da565b90565b6106d3565b6106ce565b346144615761445d61444c6144473660046143fd565b6159a6565b6144546106c3565b91829182611953565b0390f35b6106c9565b61447c9160208201916000818403910152612ee0565b90565b346144af576144ab61449a614495366004610ec0565b6159b2565b6144a26106c3565b91829182614466565b0390f35b6106c9565b346144e5576144cc6144c7366004610ec0565b6159be565b906144e16144d86106c3565b92839283613286565b0390f35b6106c9565b3461451a576144fa366004610e65565b6145166145056159d3565b61450d6106c3565b918291826122d8565b0390f35b6106c9565b346145485761452f366004610bac565b50505061453a6106c3565b8061454481610821565b0390f35b6106c9565b60018060401b0381116145635760208091020190565b610864565b9092919261457d6145788261454d565b6108a1565b93818552602080860192028301928184116145ba57915b8383106145a15750505050565b602080916145af8486610b9d565b815201920191614594565b6108d1565b9080601f830112156145dd578160206145da93359101614568565b90565b610855565b60018060401b0381116145f85760208091020190565b610864565b9092919261461261460d826145e2565b6108a1565b938185526020808601920283019281841161464f57915b8383106146365750505050565b6020809161464484866107d7565b815201920191614629565b6108d1565b9080601f830112156146725781602061466f933591016145fd565b90565b610855565b9190916040818403126146cc57600081013560018060401b0381116146c757836146a29183016145bf565b92602082013560018060401b0381116146c2576146bf9201614654565b90565b6106d3565b6106d3565b6106ce565b346146f9576146e1366004614677565b50506146eb6106c3565b806146f581610821565b0390f35b6106c9565b60209181520190565b9061472461471e614717846138ef565b80936146fe565b926138fc565b9060005b8181106147355750505090565b90919261474e614748600192865161390f565b94613920565b9101919091614728565b61476e9160208201916000818403910152614707565b90565b346147a15761479d61478c614787366004612415565b6159e3565b6147946106c3565b91829182614758565b0390f35b6106c9565b346147d6576147d26147c16147bc366004612415565b6159ef565b6147c96106c3565b91829182611c41565b0390f35b6106c9565b3461480b576148076147f66147f1366004610ec0565b6159fb565b6147fe6106c3565b91829182610e75565b0390f35b6106c9565b3461484057614820366004610e65565b61483c61482b615a07565b6148336106c3565b91829182611ce0565b0390f35b6106c9565b346148765761487261486161485b366004613022565b90615a12565b6148696106c3565b91829182610e75565b0390f35b6106c9565b346148a35761488b3660046114d8565b50506148956106c3565b8061489f81610821565b0390f35b6106c9565b346148d8576148b8366004610e65565b6148d46148c3615a1f565b6148cb6106c3565b918291826122d8565b0390f35b6106c9565b34614904576148ed366004612415565b506148f66106c3565b8061490081610821565b0390f35b6106c9565b919060e08382031261499f576149989061492360e06108a1565b936149318260008301610b9d565b600086015261494382602083016107b0565b60208601526149558260408301610c37565b604086015261496782606083016107d7565b606086015261497982608083016107d7565b608086015261498b8260a08301610c37565b60a086015260c001610c5b565b60c0830152565b610c15565b9060e0828203126149be576149bb91600001614909565b90565b6106ce565b346149f3576149ef6149de6149d93660046149a4565b615a2a565b6149e66106c3565b91829182610e19565b0390f35b6106c9565b34614a2c57614a28614a14614a0e366004610ff7565b90615a36565b614a1f9391936106c3565b938493846113c0565b0390f35b6106c9565b34614a6157614a5d614a4c614a47366004610ec0565b615a55565b614a546106c3565b91829182610739565b0390f35b6106c9565b919060a083820312614ad857614ad190614a8060a06108a1565b93614a8e8260008301611fba565b6000860152614aa08260208301611fba565b6020860152614ab28260408301611fba565b6040860152614ac48260608301611fba565b6060860152608001611fba565b6080830152565b610c15565b9060a082820312614af757614af491600001614a66565b90565b6106ce565b34614b2357614b0c366004614add565b50614b156106c3565b80614b1f81610821565b0390f35b6106c9565b34614b5857614b54614b43614b3e366004610708565b615a61565b614b4b6106c3565b918291826122d8565b0390f35b6106c9565b34614b8d57614b89614b78614b73366004610ec0565b615a6d565b614b806106c3565b91829182610e75565b0390f35b6106c9565b34614bc257614bbe614bad614ba8366004610ec0565b615a79565b614bb56106c3565b91829182611c41565b0390f35b6106c9565b9091606082840312614bfd57614bfa614be38460008501610b9d565b93614bf181602086016107b0565b936040016107d7565b90565b6106ce565b34614c2b57614c12366004614bc7565b505050614c1d6106c3565b80614c2781610821565b0390f35b6106c9565b34614c6257614c49614c43366004613b95565b90615a85565b90614c5e614c556106c3565b92839283613286565b0390f35b6106c9565b34614c9857614c94614c83614c7d366004613022565b90615a9b565b614c8b6106c3565b91829182610e75565b0390f35b6106c9565b34614ccd57614cad366004610e65565b614cc9614cb8615aa8565b614cc06106c3565b918291826122d8565b0390f35b6106c9565b9190604083820312614cfb5780614cef614cf892600086016115b9565b936020016107b0565b90565b6106ce565b34614d2857614d10366004614cd2565b5050614d1a6106c3565b80614d2481610821565b0390f35b6106c9565b34614d5457614d3d366004611d2f565b50614d466106c3565b80614d5081610821565b0390f35b6106c9565b34614d8057614d69366004610ec0565b50614d726106c3565b80614d7c81610821565b0390f35b6106c9565b34614dad57614d95366004612d8a565b5050614d9f6106c3565b80614da981610821565b0390f35b6106c9565b34614de257614dde614dcd614dc8366004611478565b615ab3565b614dd56106c3565b91829182612d38565b0390f35b6106c9565b34614e1757614df7366004610e65565b614e13614e02615abf565b614e0a6106c3565b91829182610f19565b0390f35b6106c9565b34614e4457614e2c366004614cd2565b5050614e366106c3565b80614e4081610821565b0390f35b6106c9565b90602082820312614e6357614e60916000016107d7565b90565b6106ce565b34614e9857614e94614e83614e7e366004614e49565b615aca565b614e8b6106c3565b9182918261142d565b0390f35b6106c9565b34614ece57614eca614eb9614eb3366004612358565b90615ad6565b614ec16106c3565b91829182610f19565b0390f35b6106c9565b9190610360838203126150f9576150f190614eef6103606108a1565b93614efd826000830161117e565b6000860152614f0f82602083016107d7565b6020860152614f2182604083016107d7565b6040860152614f3382606083016107d7565b6060860152614f458260808301610b9d565b6080860152614f578260a08301610c5b565b60a0860152614f698260c08301610c5b565b60c0860152614f7b8260e08301610c5b565b60e0860152614f8e826101008301610c5b565b610100860152614fa28261012083016107d7565b610120860152614fb68261014083016107d7565b610140860152614fca8261016083016107d7565b610160860152614fde8261018083016107d7565b610180860152614ff2826101a083016107d7565b6101a0860152615006826101c083016107d7565b6101c086015261501a826101e083016119b6565b6101e086015261502e8261020083016107b0565b610200860152615042826102208301610c5b565b61022086015261505682610240830161117e565b61024086015261506a8261026083016119b6565b61026086015261507e8261028083016115b9565b610280860152615092826102a0830161117e565b6102a08601526150a6826102c08301610c5b565b6102c08601526150ba826102e08301610c5b565b6102e08601526150ce826103008301610c5b565b6103008601526150e2826103208301610c5b565b610320860152610340016119da565b610340830152565b610c15565b919061048083820312615129578061511c6151269260008601614ed3565b9361036001611fed565b90565b6106ce565b9291602061514b6151539360408701908782036000890152612f5b565b940190611c34565b565b346151875761516e6151683660046150fe565b90615ae3565b9061518361517a6106c3565b9283928361512e565b0390f35b6106c9565b346151bd576151a461519f3660046109f2565b615af9565b906151b96151b06106c3565b92839283610b24565b0390f35b6106c9565b346151ea576151d2366004614677565b50506151dc6106c3565b806151e681610821565b0390f35b6106c9565b608081830312615231576152068260008301610b9d565b9261522e6152178460208501610c5b565b936152258160408601610c37565b93606001610c37565b90565b6106ce565b34615260576152463660046151ef565b505050506152526106c3565b8061525c81610821565b0390f35b6106c9565b3461528c57615275366004612415565b5061527e6106c3565b8061528881610821565b0390f35b6106c9565b346152ba576152a13660046140d0565b5050506152ac6106c3565b806152b681610821565b0390f35b6106c9565b90916060828403126152f5576152f26152db8460008501610b9d565b936152e981602086016107b0565b93604001610c5b565b90565b6106ce565b346153235761530a3660046152bf565b5050506153156106c3565b8061531f81610821565b0390f35b6106c9565b600080fd5b600090565b5061533b61532d565b90565b600090565b606090565b5061535161533e565b9061535a615343565b90565b6153686101206108a1565b90565b600090565b600090565b600090565b600090565b600090565b600090565b61539161535d565b90602080808080808080808a6153a561536b565b8152016153b061536b565b8152016153bb615370565b8152016153c6615370565b8152016153d161536b565b8152016153dc615375565b8152016153e761537a565b8152016153f261537f565b8152016153fd615384565b81525050565b61540b615389565b90565b50615417615403565b90565b61542261533e565b90565b606090565b50615433615425565b90565b5050505050615443615425565b90565b606090565b5050615455615446565b90565b600090565b5061546661533e565b9061546f615458565b90615478615446565b90565b615483615458565b90565b50505061549161533e565b90565b606090565b506154a2615494565b90565b600090565b506154b36154a5565b90565b600090565b505050506154c76154b6565b90565b505050506154d66154a5565b90565b600090565b506154e76154d9565b90565b506154f36154d9565b90565b6154fe61533e565b90565b5061550a61533e565b90565b606090565b5050505061551e61550d565b90565b61552961550d565b90565b50505050506155396154a5565b90565b600090565b50505050505061554f61553c565b90565b61555a6154d9565b90565b606090565b606090565b5061557061555d565b90615579615562565b90615582615562565b90565b505061558f61533e565b90565b61559d6101206108a1565b90565b6155a8615592565b90602080808080808080808a6155bc61536b565b8152016155c761536b565b8152016155d2615370565b8152016155dd615370565b8152016155e861536b565b8152016155f3615375565b8152016155fe61537a565b81520161560961537f565b815201615614615384565b81525050565b6156226155a0565b90565b505061562f61561a565b90565b5050505061563e615403565b90565b505061564b6154a5565b90565b5061565761533e565b9061566061533e565b90565b50505061566e61533e565b90565b61567c6101806108a1565b90565b615687615671565b90602080808080808080808080808d61569e615375565b8152016156a9615375565b8152016156b4615375565b8152016156bf615375565b8152016156ca61537f565b8152016156d561537f565b8152016156e061537f565b8152016156eb61537f565b8152016156f661537f565b81520161570161537f565b81520161570c61537f565b81520161571761537a565b81525050565b61572561567f565b90565b5061573161571d565b90565b606090565b615741615734565b90565b5050505050615751615494565b90565b505061575e61533e565b9061576761533e565b90565b61577261533e565b90565b505061577f61532d565b90565b5050505061578e61561a565b90565b61579c6101206108a1565b90565b6157a7615791565b90602080808080808080808a6157bb61536b565b8152016157c661536b565b8152016157d1615370565b8152016157dc615370565b8152016157e761536b565b8152016157f2615375565b8152016157fd61537a565b81520161580861537f565b815201615813615384565b81525050565b61582161579f565b90565b61582f6101206108a1565b90565b61583a615824565b90602080808080808080808a61584e61536b565b81520161585961536b565b815201615864615370565b81520161586f615370565b81520161587a61536b565b815201615885615375565b81520161589061537a565b81520161589b61537f565b8152016158a6615384565b81525050565b6158b4615832565b90565b50506158c1615819565b906158ca6158ac565b90565b6158d86101806108a1565b90565b6158e36158cd565b90602080808080808080808080808d6158fa615375565b815201615905615375565b815201615910615375565b81520161591b615375565b81520161592661537f565b81520161593161537f565b81520161593c61537f565b81520161594761537f565b81520161595261537f565b81520161595d61537f565b81520161596861537f565b81520161597361537a565b81525050565b6159816158db565b90565b505050505050505050505050615998615979565b90565b6159a36154d9565b90565b506159af615494565b90565b506159bb61555d565b90565b506159c761533e565b906159d061533e565b90565b6159db6154d9565b90565b606090565b506159ec6159de565b90565b506159f86154a5565b90565b50615a0461533e565b90565b615a0f6154b6565b90565b5050615a1c61533e565b90565b615a276154d9565b90565b50615a33615403565b90565b5050615a4061533e565b90615a49615458565b90615a52615446565b90565b50615a5e61532d565b90565b50615a6a6154d9565b90565b50615a7661533e565b90565b50615a826154a5565b90565b5050615a8f61533e565b90615a9861533e565b90565b5050615aa561533e565b90565b615ab06154d9565b90565b50615abc61553c565b90565b615ac7615425565b90565b50615ad3615458565b90565b5050615ae0615425565b90565b5050615aed615562565b90615af66154a5565b90565b50615b0261533e565b90615b0b615343565b9056fea2646970667358221220946e09667546313fe017409cad0b9d012c8b27baa25b388f9fb6f18edf4d97c564736f6c63430008180033",
  "devdoc": {
    "kind": "dev",
    "methods": {},
    "version": 1
  },
  "userdoc": {
    "kind": "user",
    "methods": {},
    "version": 1
  },
  "storageLayout": {
    "storage": [],
    "types": null
  }
}