{
  "address": "0xbDeD431EFE020bE9862B68FA76482795579e0A84",
  "abi": [
    {
      "inputs": [
        {
          "internalType": "uint16",
          "name": "market",
          "type": "uint16"
        },
        {
          "internalType": "bytes",
          "name": "fee",
          "type": "bytes"
        }
      ],
      "name": "_addFee",
      "outputs": [],
      "stateMutability": "nonpayable",
      "type": "function"
    },
    {
      "inputs": [
        {
          "internalType": "uint16",
          "name": "market",
          "type": "uint16"
        },
        {
          "internalType": "uint256",
          "name": "maxMarketSizeLimit",
          "type": "uint256"
        }
      ],
      "name": "_addGValid",
      "outputs": [],
      "stateMutability": "nonpayable",
      "type": "function"
    },
    {
      "inputs": [
        {
          "internalType": "bytes",
          "name": "data",
          "type": "bytes"
        }
      ],
      "name": "_addMarket",
      "outputs": [
        {
          "internalType": "uint16",
          "name": "market",
          "type": "uint16"
        }
      ],
      "stateMutability": "nonpayable",
      "type": "function"
    },
    {
      "inputs": [
        {
          "internalType": "uint16",
          "name": "market",
          "type": "uint16"
        },
        {
          "internalType": "bytes",
          "name": "oracle",
          "type": "bytes"
        }
      ],
      "name": "_addOracle",
      "outputs": [],
      "stateMutability": "nonpayable",
      "type": "function"
    },
    {
      "inputs": [
        {
          "components": [
            {
              "internalType": "uint8",
              "name": "busiType",
              "type": "uint8"
            },
            {
              "internalType": "uint256",
              "name": "oraclePrice",
              "type": "uint256"
            },
            {
              "internalType": "uint256",
              "name": "pay",
              "type": "uint256"
            },
            {
              "internalType": "uint256",
              "name": "slippage",
              "type": "uint256"
            },
            {
              "internalType": "uint16",
              "name": "market",
              "type": "uint16"
            },
            {
              "internalType": "bool",
              "name": "isLong",
              "type": "bool"
            },
            {
              "internalType": "bool",
              "name": "isOpen",
              "type": "bool"
            },
            {
              "internalType": "bool",
              "name": "isCreate",
              "type": "bool"
            },
            {
              "internalType": "bool",
              "name": "isFromMarket",
              "type": "bool"
            },
            {
              "internalType": "uint256",
              "name": "sizeDelta",
              "type": "uint256"
            },
            {
              "internalType": "uint256",
              "name": "price",
              "type": "uint256"
            },
            {
              "internalType": "uint256",
              "name": "collateralDelta",
              "type": "uint256"
            },
            {
              "internalType": "uint256",
              "name": "collateral",
              "type": "uint256"
            },
            {
              "internalType": "uint256",
              "name": "tp",
              "type": "uint256"
            },
            {
              "internalType": "uint256",
              "name": "sl",
              "type": "uint256"
            },
            {
              "internalType": "uint64",
              "name": "orderId",
              "type": "uint64"
            },
            {
              "internalType": "address",
              "name": "account",
              "type": "address"
            },
            {
              "internalType": "bool",
              "name": "isExec",
              "type": "bool"
            },
            {
              "internalType": "uint8",
              "name": "liqState",
              "type": "uint8"
            },
            {
              "internalType": "uint64",
              "name": "fromOrder",
              "type": "uint64"
            },
            {
              "internalType": "bytes32",
              "name": "refCode",
              "type": "bytes32"
            },
            {
              "internalType": "uint8",
              "name": "execNum",
              "type": "uint8"
            },
            {
              "internalType": "bool",
              "name": "isKeepLev",
              "type": "bool"
            },
            {
              "internalType": "bool",
              "name": "isKeepLevTP",
              "type": "bool"
            },
            {
              "internalType": "bool",
              "name": "isKeepLevSL",
              "type": "bool"
            },
            {
              "internalType": "bool",
              "name": "triggerAbove",
              "type": "bool"
            },
            {
              "internalType": "uint128",
              "name": "gas",
              "type": "uint128"
            }
          ],
          "internalType": "struct DummyDiamondImplementation.Tuple8179501[]",
          "name": "_inputs",
          "type": "tuple[]"
        }
      ],
      "name": "_addOrders",
      "outputs": [
        {
          "components": [
            {
              "internalType": "bytes32",
              "name": "refCode",
              "type": "bytes32"
            },
            {
              "internalType": "uint128",
              "name": "collateral",
              "type": "uint128"
            },
            {
              "internalType": "uint128",
              "name": "size",
              "type": "uint128"
            },
            {
              "internalType": "uint256",
              "name": "price",
              "type": "uint256"
            },
            {
              "internalType": "uint256",
              "name": "tp",
              "type": "uint256"
            },
            {
              "internalType": "bool",
              "name": "triggerAbove",
              "type": "bool"
            },
            {
              "internalType": "bool",
              "name": "isFromMarket",
              "type": "bool"
            },
            {
              "internalType": "bool",
              "name": "isKeepLev",
              "type": "bool"
            },
            {
              "internalType": "bool",
              "name": "isKeepLevTP",
              "type": "bool"
            },
            {
              "internalType": "bool",
              "name": "isKeepLevSL",
              "type": "bool"
            },
            {
              "internalType": "uint64",
              "name": "orderID",
              "type": "uint64"
            },
            {
              "internalType": "uint64",
              "name": "pairId",
              "type": "uint64"
            },
            {
              "internalType": "uint64",
              "name": "fromId",
              "type": "uint64"
            },
            {
              "internalType": "uint32",
              "name": "updatedAtBlock",
              "type": "uint32"
            },
            {
              "internalType": "uint8",
              "name": "extra0",
              "type": "uint8"
            },
            {
              "internalType": "address",
              "name": "account",
              "type": "address"
            },
            {
              "internalType": "uint96",
              "name": "extra1",
              "type": "uint96"
            },
            {
              "internalType": "uint256",
              "name": "sl",
              "type": "uint256"
            },
            {
              "internalType": "bool",
              "name": "isIncrease",
              "type": "bool"
            },
            {
              "internalType": "bool",
              "name": "isLong",
              "type": "bool"
            },
            {
              "internalType": "uint16",
              "name": "market",
              "type": "uint16"
            },
            {
              "internalType": "uint96",
              "name": "extra2",
              "type": "uint96"
            },
            {
              "internalType": "uint128",
              "name": "gas",
              "type": "uint128"
            },
            {
              "internalType": "uint8",
              "name": "version",
              "type": "uint8"
            }
          ],
          "internalType": "struct DummyDiamondImplementation.Tuple564566[]",
          "name": "_orders",
          "type": "tuple[]"
        }
      ],
      "stateMutability": "nonpayable",
      "type": "function"
    },
    {
      "inputs": [
        {
          "internalType": "bytes",
          "name": "_data",
          "type": "bytes"
        }
      ],
      "name": "_collectFees",
      "outputs": [],
      "stateMutability": "nonpayable",
      "type": "function"
    },
    {
      "inputs": [
        {
          "components": [
            {
              "internalType": "uint16",
              "name": "market",
              "type": "uint16"
            },
            {
              "internalType": "address",
              "name": "account",
              "type": "address"
            },
            {
              "internalType": "int256",
              "name": "collateralDelta",
              "type": "int256"
            },
            {
              "internalType": "uint256",
              "name": "sizeDelta",
              "type": "uint256"
            },
            {
              "internalType": "int256",
              "name": "fundingRate",
              "type": "int256"
            },
            {
              "internalType": "bool",
              "name": "isLong",
              "type": "bool"
            }
          ],
          "internalType": "struct DummyDiamondImplementation.Tuple8634448",
          "name": "inputs",
          "type": "tuple"
        }
      ],
      "name": "_decreasePosition",
      "outputs": [
        {
          "components": [
            {
              "internalType": "uint256",
              "name": "size",
              "type": "uint256"
            },
            {
              "internalType": "uint256",
              "name": "collateral",
              "type": "uint256"
            },
            {
              "internalType": "int256",
              "name": "entryFundingRate",
              "type": "int256"
            },
            {
              "internalType": "int256",
              "name": "realisedPnl",
              "type": "int256"
            },
            {
              "internalType": "uint256",
              "name": "averagePrice",
              "type": "uint256"
            },
            {
              "internalType": "bool",
              "name": "isLong",
              "type": "bool"
            },
            {
              "internalType": "uint32",
              "name": "lastTime",
              "type": "uint32"
            },
            {
              "internalType": "uint16",
              "name": "market",
              "type": "uint16"
            },
            {
              "internalType": "uint72",
              "name": "extra0",
              "type": "uint72"
            }
          ],
          "internalType": "struct DummyDiamondImplementation.Tuple3316247",
          "name": "result",
          "type": "tuple"
        }
      ],
      "stateMutability": "nonpayable",
      "type": "function"
    },
    {
      "inputs": [
        {
          "components": [
            {
              "internalType": "uint16",
              "name": "market",
              "type": "uint16"
            },
            {
              "internalType": "address",
              "name": "account",
              "type": "address"
            },
            {
              "internalType": "int256",
              "name": "collateralDelta",
              "type": "int256"
            },
            {
              "internalType": "uint256",
              "name": "sizeDelta",
              "type": "uint256"
            },
            {
              "internalType": "uint256",
              "name": "markPrice",
              "type": "uint256"
            },
            {
              "internalType": "int256",
              "name": "fundingRate",
              "type": "int256"
            },
            {
              "internalType": "bool",
              "name": "isLong",
              "type": "bool"
            }
          ],
          "internalType": "struct DummyDiamondImplementation.Tuple8047955",
          "name": "_data",
          "type": "tuple"
        }
      ],
      "name": "_increasePosition",
      "outputs": [
        {
          "components": [
            {
              "internalType": "uint256",
              "name": "size",
              "type": "uint256"
            },
            {
              "internalType": "uint256",
              "name": "collateral",
              "type": "uint256"
            },
            {
              "internalType": "int256",
              "name": "entryFundingRate",
              "type": "int256"
            },
            {
              "internalType": "int256",
              "name": "realisedPnl",
              "type": "int256"
            },
            {
              "internalType": "uint256",
              "name": "averagePrice",
              "type": "uint256"
            },
            {
              "internalType": "bool",
              "name": "isLong",
              "type": "bool"
            },
            {
              "internalType": "uint32",
              "name": "lastTime",
              "type": "uint32"
            },
            {
              "internalType": "uint16",
              "name": "market",
              "type": "uint16"
            },
            {
              "internalType": "uint72",
              "name": "extra0",
              "type": "uint72"
            }
          ],
          "internalType": "struct DummyDiamondImplementation.Tuple3316247",
          "name": "result",
          "type": "tuple"
        }
      ],
      "stateMutability": "nonpayable",
      "type": "function"
    },
    {
      "inputs": [
        {
          "internalType": "uint16",
          "name": "market",
          "type": "uint16"
        },
        {
          "internalType": "address",
          "name": "account",
          "type": "address"
        },
        {
          "internalType": "uint256",
          "name": "oraclePrice",
          "type": "uint256"
        },
        {
          "internalType": "bool",
          "name": "isLong",
          "type": "bool"
        }
      ],
      "name": "_liquidatePosition",
      "outputs": [
        {
          "components": [
            {
              "internalType": "uint256",
              "name": "size",
              "type": "uint256"
            },
            {
              "internalType": "uint256",
              "name": "collateral",
              "type": "uint256"
            },
            {
              "internalType": "int256",
              "name": "entryFundingRate",
              "type": "int256"
            },
            {
              "internalType": "int256",
              "name": "realisedPnl",
              "type": "int256"
            },
            {
              "internalType": "uint256",
              "name": "averagePrice",
              "type": "uint256"
            },
            {
              "internalType": "bool",
              "name": "isLong",
              "type": "bool"
            },
            {
              "internalType": "uint32",
              "name": "lastTime",
              "type": "uint32"
            },
            {
              "internalType": "uint16",
              "name": "market",
              "type": "uint16"
            },
            {
              "internalType": "uint72",
              "name": "extra0",
              "type": "uint72"
            }
          ],
          "internalType": "struct DummyDiamondImplementation.Tuple3316247",
          "name": "result",
          "type": "tuple"
        }
      ],
      "stateMutability": "nonpayable",
      "type": "function"
    },
    {
      "inputs": [
        {
          "internalType": "uint16",
          "name": "market",
          "type": "uint16"
        },
        {
          "internalType": "uint256",
          "name": "longSize",
          "type": "uint256"
        },
        {
          "internalType": "uint256",
          "name": "shortSize",
          "type": "uint256"
        }
      ],
      "name": "_updateCumulativeFundingRate",
      "outputs": [],
      "stateMutability": "nonpayable",
      "type": "function"
    },
    {
      "inputs": [
        {
          "components": [
            {
              "components": [
                {
                  "internalType": "uint8",
                  "name": "busiType",
                  "type": "uint8"
                },
                {
                  "internalType": "uint256",
                  "name": "oraclePrice",
                  "type": "uint256"
                },
                {
                  "internalType": "uint256",
                  "name": "pay",
                  "type": "uint256"
                },
                {
                  "internalType": "uint256",
                  "name": "slippage",
                  "type": "uint256"
                },
                {
                  "internalType": "uint16",
                  "name": "market",
                  "type": "uint16"
                },
                {
                  "internalType": "bool",
                  "name": "isLong",
                  "type": "bool"
                },
                {
                  "internalType": "bool",
                  "name": "isOpen",
                  "type": "bool"
                },
                {
                  "internalType": "bool",
                  "name": "isCreate",
                  "type": "bool"
                },
                {
                  "internalType": "bool",
                  "name": "isFromMarket",
                  "type": "bool"
                },
                {
                  "internalType": "uint256",
                  "name": "sizeDelta",
                  "type": "uint256"
                },
                {
                  "internalType": "uint256",
                  "name": "price",
                  "type": "uint256"
                },
                {
                  "internalType": "uint256",
                  "name": "collateralDelta",
                  "type": "uint256"
                },
                {
                  "internalType": "uint256",
                  "name": "collateral",
                  "type": "uint256"
                },
                {
                  "internalType": "uint256",
                  "name": "tp",
                  "type": "uint256"
                },
                {
                  "internalType": "uint256",
                  "name": "sl",
                  "type": "uint256"
                },
                {
                  "internalType": "uint64",
                  "name": "orderId",
                  "type": "uint64"
                },
                {
                  "internalType": "address",
                  "name": "account",
                  "type": "address"
                },
                {
                  "internalType": "bool",
                  "name": "isExec",
                  "type": "bool"
                },
                {
                  "internalType": "uint8",
                  "name": "liqState",
                  "type": "uint8"
                },
                {
                  "internalType": "uint64",
                  "name": "fromOrder",
                  "type": "uint64"
                },
                {
                  "internalType": "bytes32",
                  "name": "refCode",
                  "type": "bytes32"
                },
                {
                  "internalType": "uint8",
                  "name": "execNum",
                  "type": "uint8"
                },
                {
                  "internalType": "bool",
                  "name": "isKeepLev",
                  "type": "bool"
                },
                {
                  "internalType": "bool",
                  "name": "isKeepLevTP",
                  "type": "bool"
                },
                {
                  "internalType": "bool",
                  "name": "isKeepLevSL",
                  "type": "bool"
                },
                {
                  "internalType": "bool",
                  "name": "triggerAbove",
                  "type": "bool"
                },
                {
                  "internalType": "uint128",
                  "name": "gas",
                  "type": "uint128"
                }
              ],
              "internalType": "struct DummyDiamondImplementation.Tuple0521689",
              "name": "inputs",
              "type": "tuple"
            },
            {
              "components": [
                {
                  "internalType": "uint256",
                  "name": "size",
                  "type": "uint256"
                },
                {
                  "internalType": "uint256",
                  "name": "collateral",
                  "type": "uint256"
                },
                {
                  "internalType": "int256",
                  "name": "entryFundingRate",
                  "type": "int256"
                },
                {
                  "internalType": "int256",
                  "name": "realisedPnl",
                  "type": "int256"
                },
                {
                  "internalType": "uint256",
                  "name": "averagePrice",
                  "type": "uint256"
                },
                {
                  "internalType": "bool",
                  "name": "isLong",
                  "type": "bool"
                },
                {
                  "internalType": "uint32",
                  "name": "lastTime",
                  "type": "uint32"
                },
                {
                  "internalType": "uint16",
                  "name": "market",
                  "type": "uint16"
                },
                {
                  "internalType": "uint72",
                  "name": "extra0",
                  "type": "uint72"
                }
              ],
              "internalType": "struct DummyDiamondImplementation.Tuple464693",
              "name": "position",
              "type": "tuple"
            },
            {
              "internalType": "int256[]",
              "name": "fees",
              "type": "int256[]"
            },
            {
              "internalType": "address",
              "name": "collateralToken",
              "type": "address"
            },
            {
              "internalType": "address",
              "name": "indexToken",
              "type": "address"
            },
            {
              "internalType": "int256",
              "name": "collateralDeltaAfter",
              "type": "int256"
            }
          ],
          "internalType": "struct DummyDiamondImplementation.Tuple4013238",
          "name": "_event",
          "type": "tuple"
        }
      ],
      "name": "_updatePositionCallback",
      "outputs": [],
      "stateMutability": "nonpayable",
      "type": "function"
    },
    {
      "inputs": [
        {
          "internalType": "string",
          "name": "name",
          "type": "string"
        },
        {
          "internalType": "address",
          "name": "_vault",
          "type": "address"
        },
        {
          "internalType": "uint256",
          "name": "maxMarketSizeLimit",
          "type": "uint256"
        },
        {
          "components": [
            {
              "internalType": "bool",
              "name": "isSuspended",
              "type": "bool"
            },
            {
              "internalType": "bool",
              "name": "allowOpen",
              "type": "bool"
            },
            {
              "internalType": "bool",
              "name": "allowClose",
              "type": "bool"
            },
            {
              "internalType": "bool",
              "name": "validDecrease",
              "type": "bool"
            },
            {
              "internalType": "uint16",
              "name": "minSlippage",
              "type": "uint16"
            },
            {
              "internalType": "uint16",
              "name": "maxSlippage",
              "type": "uint16"
            },
            {
              "internalType": "uint16",
              "name": "minLeverage",
              "type": "uint16"
            },
            {
              "internalType": "uint16",
              "name": "maxLeverage",
              "type": "uint16"
            },
            {
              "internalType": "uint16",
              "name": "minPayment",
              "type": "uint16"
            },
            {
              "internalType": "uint16",
              "name": "minCollateral",
              "type": "uint16"
            },
            {
              "internalType": "uint16",
              "name": "decreaseNumLimit",
              "type": "uint16"
            },
            {
              "internalType": "uint32",
              "name": "maxTradeAmount",
              "type": "uint32"
            }
          ],
          "internalType": "struct DummyDiamondImplementation.Tuple0408041",
          "name": "config",
          "type": "tuple"
        },
        {
          "internalType": "bytes",
          "name": "oracle",
          "type": "bytes"
        },
        {
          "internalType": "bytes",
          "name": "fee",
          "type": "bytes"
        }
      ],
      "name": "addMarket",
      "outputs": [
        {
          "internalType": "uint16",
          "name": "market",
          "type": "uint16"
        }
      ],
      "stateMutability": "nonpayable",
      "type": "function"
    },
    {
      "inputs": [
        {
          "internalType": "uint16",
          "name": "market",
          "type": "uint16"
        },
        {
          "internalType": "uint256",
          "name": "start",
          "type": "uint256"
        },
        {
          "internalType": "uint256",
          "name": "end",
          "type": "uint256"
        }
      ],
      "name": "addSkipTime",
      "outputs": [],
      "stateMutability": "nonpayable",
      "type": "function"
    },
    {
      "inputs": [
        {
          "internalType": "bytes[]",
          "name": "calls",
          "type": "bytes[]"
        }
      ],
      "name": "aggregateCall",
      "outputs": [
        {
          "internalType": "uint256",
          "name": "blockNumber",
          "type": "uint256"
        },
        {
          "internalType": "bytes[]",
          "name": "returnData",
          "type": "bytes[]"
        }
      ],
      "stateMutability": "nonpayable",
      "type": "function"
    },
    {
      "inputs": [
        {
          "internalType": "bytes[]",
          "name": "calls",
          "type": "bytes[]"
        }
      ],
      "name": "aggregateStaticCall",
      "outputs": [
        {
          "internalType": "uint256",
          "name": "blockNumber",
          "type": "uint256"
        },
        {
          "internalType": "bytes[]",
          "name": "returnData",
          "type": "bytes[]"
        }
      ],
      "stateMutability": "view",
      "type": "function"
    },
    {
      "inputs": [],
      "name": "authority",
      "outputs": [
        {
          "internalType": "address",
          "name": "",
          "type": "address"
        }
      ],
      "stateMutability": "view",
      "type": "function"
    },
    {
      "inputs": [
        {
          "internalType": "address",
          "name": "market",
          "type": "address"
        },
        {
          "internalType": "address",
          "name": "account",
          "type": "address"
        },
        {
          "internalType": "bool",
          "name": "isLong",
          "type": "bool"
        }
      ],
      "name": "availableLiquidity",
      "outputs": [
        {
          "internalType": "uint256",
          "name": "",
          "type": "uint256"
        }
      ],
      "stateMutability": "view",
      "type": "function"
    },
    {
      "inputs": [
        {
          "internalType": "bytes[]",
          "name": "calls",
          "type": "bytes[]"
        }
      ],
      "name": "blockAndAggregate",
      "outputs": [
        {
          "internalType": "uint256",
          "name": "blockNumber",
          "type": "uint256"
        },
        {
          "internalType": "bytes32",
          "name": "blockHash",
          "type": "bytes32"
        },
        {
          "components": [
            {
              "internalType": "bool",
              "name": "success",
              "type": "bool"
            },
            {
              "internalType": "bytes",
              "name": "returnData",
              "type": "bytes"
            }
          ],
          "internalType": "struct DummyDiamondImplementation.Tuple557464[]",
          "name": "returnData",
          "type": "tuple[]"
        }
      ],
      "stateMutability": "nonpayable",
      "type": "function"
    },
    {
      "inputs": [
        {
          "internalType": "address",
          "name": "account",
          "type": "address"
        },
        {
          "internalType": "uint16",
          "name": "market",
          "type": "uint16"
        },
        {
          "internalType": "bool",
          "name": "isIncrease",
          "type": "bool"
        },
        {
          "internalType": "uint256",
          "name": "orderID",
          "type": "uint256"
        },
        {
          "internalType": "bool",
          "name": "isLong",
          "type": "bool"
        }
      ],
      "name": "cancelOrder",
      "outputs": [
        {
          "components": [
            {
              "internalType": "bytes32",
              "name": "refCode",
              "type": "bytes32"
            },
            {
              "internalType": "uint128",
              "name": "collateral",
              "type": "uint128"
            },
            {
              "internalType": "uint128",
              "name": "size",
              "type": "uint128"
            },
            {
              "internalType": "uint256",
              "name": "price",
              "type": "uint256"
            },
            {
              "internalType": "uint256",
              "name": "tp",
              "type": "uint256"
            },
            {
              "internalType": "bool",
              "name": "triggerAbove",
              "type": "bool"
            },
            {
              "internalType": "bool",
              "name": "isFromMarket",
              "type": "bool"
            },
            {
              "internalType": "bool",
              "name": "isKeepLev",
              "type": "bool"
            },
            {
              "internalType": "bool",
              "name": "isKeepLevTP",
              "type": "bool"
            },
            {
              "internalType": "bool",
              "name": "isKeepLevSL",
              "type": "bool"
            },
            {
              "internalType": "uint64",
              "name": "orderID",
              "type": "uint64"
            },
            {
              "internalType": "uint64",
              "name": "pairId",
              "type": "uint64"
            },
            {
              "internalType": "uint64",
              "name": "fromId",
              "type": "uint64"
            },
            {
              "internalType": "uint32",
              "name": "updatedAtBlock",
              "type": "uint32"
            },
            {
              "internalType": "uint8",
              "name": "extra0",
              "type": "uint8"
            },
            {
              "internalType": "address",
              "name": "account",
              "type": "address"
            },
            {
              "internalType": "uint96",
              "name": "extra1",
              "type": "uint96"
            },
            {
              "internalType": "uint256",
              "name": "sl",
              "type": "uint256"
            },
            {
              "internalType": "bool",
              "name": "isIncrease",
              "type": "bool"
            },
            {
              "internalType": "bool",
              "name": "isLong",
              "type": "bool"
            },
            {
              "internalType": "uint16",
              "name": "market",
              "type": "uint16"
            },
            {
              "internalType": "uint96",
              "name": "extra2",
              "type": "uint96"
            },
            {
              "internalType": "uint128",
              "name": "gas",
              "type": "uint128"
            },
            {
              "internalType": "uint8",
              "name": "version",
              "type": "uint8"
            }
          ],
          "internalType": "struct DummyDiamondImplementation.Tuple564566[]",
          "name": "_orders",
          "type": "tuple[]"
        }
      ],
      "stateMutability": "nonpayable",
      "type": "function"
    },
    {
      "inputs": [
        {
          "internalType": "uint16",
          "name": "marketId",
          "type": "uint16"
        }
      ],
      "name": "containsMarket",
      "outputs": [
        {
          "internalType": "bool",
          "name": "",
          "type": "bool"
        }
      ],
      "stateMutability": "view",
      "type": "function"
    },
    {
      "inputs": [
        {
          "internalType": "uint16",
          "name": "market",
          "type": "uint16"
        },
        {
          "internalType": "address",
          "name": "account",
          "type": "address"
        }
      ],
      "name": "containsPositionOfUser",
      "outputs": [
        {
          "internalType": "bool",
          "name": "",
          "type": "bool"
        }
      ],
      "stateMutability": "view",
      "type": "function"
    },
    {
      "inputs": [
        {
          "internalType": "uint16",
          "name": "market",
          "type": "uint16"
        },
        {
          "internalType": "bool",
          "name": "isLong",
          "type": "bool"
        }
      ],
      "name": "cumulativeFundingRates",
      "outputs": [
        {
          "internalType": "int256",
          "name": "",
          "type": "int256"
        }
      ],
      "stateMutability": "view",
      "type": "function"
    },
    {
      "inputs": [
        {
          "components": [
            {
              "internalType": "address",
              "name": "facetAddress",
              "type": "address"
            },
            {
              "internalType": "uint8",
              "name": "action",
              "type": "uint8"
            },
            {
              "internalType": "bytes4[]",
              "name": "functionSelectors",
              "type": "bytes4[]"
            }
          ],
          "internalType": "struct DummyDiamondImplementation.Tuple6871229[]",
          "name": "_diamondCut",
          "type": "tuple[]"
        },
        {
          "internalType": "address",
          "name": "_init",
          "type": "address"
        },
        {
          "internalType": "bytes",
          "name": "_calldata",
          "type": "bytes"
        }
      ],
      "name": "diamondCut",
      "outputs": [],
      "stateMutability": "nonpayable",
      "type": "function"
    },
    {
      "inputs": [
        {
          "components": [
            {
              "internalType": "bytes32",
              "name": "refCode",
              "type": "bytes32"
            },
            {
              "internalType": "uint128",
              "name": "collateral",
              "type": "uint128"
            },
            {
              "internalType": "uint128",
              "name": "size",
              "type": "uint128"
            },
            {
              "internalType": "uint256",
              "name": "price",
              "type": "uint256"
            },
            {
              "internalType": "uint256",
              "name": "tp",
              "type": "uint256"
            },
            {
              "internalType": "bool",
              "name": "triggerAbove",
              "type": "bool"
            },
            {
              "internalType": "bool",
              "name": "isFromMarket",
              "type": "bool"
            },
            {
              "internalType": "bool",
              "name": "isKeepLev",
              "type": "bool"
            },
            {
              "internalType": "bool",
              "name": "isKeepLevTP",
              "type": "bool"
            },
            {
              "internalType": "bool",
              "name": "isKeepLevSL",
              "type": "bool"
            },
            {
              "internalType": "uint64",
              "name": "orderID",
              "type": "uint64"
            },
            {
              "internalType": "uint64",
              "name": "pairId",
              "type": "uint64"
            },
            {
              "internalType": "uint64",
              "name": "fromId",
              "type": "uint64"
            },
            {
              "internalType": "uint32",
              "name": "updatedAtBlock",
              "type": "uint32"
            },
            {
              "internalType": "uint8",
              "name": "extra0",
              "type": "uint8"
            },
            {
              "internalType": "address",
              "name": "account",
              "type": "address"
            },
            {
              "internalType": "uint96",
              "name": "extra1",
              "type": "uint96"
            },
            {
              "internalType": "uint256",
              "name": "sl",
              "type": "uint256"
            },
            {
              "internalType": "bool",
              "name": "isIncrease",
              "type": "bool"
            },
            {
              "internalType": "bool",
              "name": "isLong",
              "type": "bool"
            },
            {
              "internalType": "uint16",
              "name": "market",
              "type": "uint16"
            },
            {
              "internalType": "uint96",
              "name": "extra2",
              "type": "uint96"
            },
            {
              "internalType": "uint128",
              "name": "gas",
              "type": "uint128"
            },
            {
              "internalType": "uint8",
              "name": "version",
              "type": "uint8"
            }
          ],
          "internalType": "struct DummyDiamondImplementation.Tuple680644",
          "name": "order",
          "type": "tuple"
        },
        {
          "components": [
            {
              "internalType": "uint8",
              "name": "busiType",
              "type": "uint8"
            },
            {
              "internalType": "uint256",
              "name": "oraclePrice",
              "type": "uint256"
            },
            {
              "internalType": "uint256",
              "name": "pay",
              "type": "uint256"
            },
            {
              "internalType": "uint256",
              "name": "slippage",
              "type": "uint256"
            },
            {
              "internalType": "uint16",
              "name": "market",
              "type": "uint16"
            },
            {
              "internalType": "bool",
              "name": "isLong",
              "type": "bool"
            },
            {
              "internalType": "bool",
              "name": "isOpen",
              "type": "bool"
            },
            {
              "internalType": "bool",
              "name": "isCreate",
              "type": "bool"
            },
            {
              "internalType": "bool",
              "name": "isFromMarket",
              "type": "bool"
            },
            {
              "internalType": "uint256",
              "name": "sizeDelta",
              "type": "uint256"
            },
            {
              "internalType": "uint256",
              "name": "price",
              "type": "uint256"
            },
            {
              "internalType": "uint256",
              "name": "collateralDelta",
              "type": "uint256"
            },
            {
              "internalType": "uint256",
              "name": "collateral",
              "type": "uint256"
            },
            {
              "internalType": "uint256",
              "name": "tp",
              "type": "uint256"
            },
            {
              "internalType": "uint256",
              "name": "sl",
              "type": "uint256"
            },
            {
              "internalType": "uint64",
              "name": "orderId",
              "type": "uint64"
            },
            {
              "internalType": "address",
              "name": "account",
              "type": "address"
            },
            {
              "internalType": "bool",
              "name": "isExec",
              "type": "bool"
            },
            {
              "internalType": "uint8",
              "name": "liqState",
              "type": "uint8"
            },
            {
              "internalType": "uint64",
              "name": "fromOrder",
              "type": "uint64"
            },
            {
              "internalType": "bytes32",
              "name": "refCode",
              "type": "bytes32"
            },
            {
              "internalType": "uint8",
              "name": "execNum",
              "type": "uint8"
            },
            {
              "internalType": "bool",
              "name": "isKeepLev",
              "type": "bool"
            },
            {
              "internalType": "bool",
              "name": "isKeepLevTP",
              "type": "bool"
            },
            {
              "internalType": "bool",
              "name": "isKeepLevSL",
              "type": "bool"
            },
            {
              "internalType": "bool",
              "name": "triggerAbove",
              "type": "bool"
            },
            {
              "internalType": "uint128",
              "name": "gas",
              "type": "uint128"
            }
          ],
          "internalType": "struct DummyDiamondImplementation.Tuple5849784",
          "name": "_params",
          "type": "tuple"
        }
      ],
      "name": "execAddOrder",
      "outputs": [],
      "stateMutability": "nonpayable",
      "type": "function"
    },
    {
      "inputs": [
        {
          "components": [
            {
              "internalType": "bytes32",
              "name": "refCode",
              "type": "bytes32"
            },
            {
              "internalType": "uint128",
              "name": "collateral",
              "type": "uint128"
            },
            {
              "internalType": "uint128",
              "name": "size",
              "type": "uint128"
            },
            {
              "internalType": "uint256",
              "name": "price",
              "type": "uint256"
            },
            {
              "internalType": "uint256",
              "name": "tp",
              "type": "uint256"
            },
            {
              "internalType": "bool",
              "name": "triggerAbove",
              "type": "bool"
            },
            {
              "internalType": "bool",
              "name": "isFromMarket",
              "type": "bool"
            },
            {
              "internalType": "bool",
              "name": "isKeepLev",
              "type": "bool"
            },
            {
              "internalType": "bool",
              "name": "isKeepLevTP",
              "type": "bool"
            },
            {
              "internalType": "bool",
              "name": "isKeepLevSL",
              "type": "bool"
            },
            {
              "internalType": "uint64",
              "name": "orderID",
              "type": "uint64"
            },
            {
              "internalType": "uint64",
              "name": "pairId",
              "type": "uint64"
            },
            {
              "internalType": "uint64",
              "name": "fromId",
              "type": "uint64"
            },
            {
              "internalType": "uint32",
              "name": "updatedAtBlock",
              "type": "uint32"
            },
            {
              "internalType": "uint8",
              "name": "extra0",
              "type": "uint8"
            },
            {
              "internalType": "address",
              "name": "account",
              "type": "address"
            },
            {
              "internalType": "uint96",
              "name": "extra1",
              "type": "uint96"
            },
            {
              "internalType": "uint256",
              "name": "sl",
              "type": "uint256"
            },
            {
              "internalType": "bool",
              "name": "isIncrease",
              "type": "bool"
            },
            {
              "internalType": "bool",
              "name": "isLong",
              "type": "bool"
            },
            {
              "internalType": "uint16",
              "name": "market",
              "type": "uint16"
            },
            {
              "internalType": "uint96",
              "name": "extra2",
              "type": "uint96"
            },
            {
              "internalType": "uint128",
              "name": "gas",
              "type": "uint128"
            },
            {
              "internalType": "uint8",
              "name": "version",
              "type": "uint8"
            }
          ],
          "internalType": "struct DummyDiamondImplementation.Tuple680644",
          "name": "order",
          "type": "tuple"
        },
        {
          "components": [
            {
              "internalType": "uint8",
              "name": "busiType",
              "type": "uint8"
            },
            {
              "internalType": "uint256",
              "name": "oraclePrice",
              "type": "uint256"
            },
            {
              "internalType": "uint256",
              "name": "pay",
              "type": "uint256"
            },
            {
              "internalType": "uint256",
              "name": "slippage",
              "type": "uint256"
            },
            {
              "internalType": "uint16",
              "name": "market",
              "type": "uint16"
            },
            {
              "internalType": "bool",
              "name": "isLong",
              "type": "bool"
            },
            {
              "internalType": "bool",
              "name": "isOpen",
              "type": "bool"
            },
            {
              "internalType": "bool",
              "name": "isCreate",
              "type": "bool"
            },
            {
              "internalType": "bool",
              "name": "isFromMarket",
              "type": "bool"
            },
            {
              "internalType": "uint256",
              "name": "sizeDelta",
              "type": "uint256"
            },
            {
              "internalType": "uint256",
              "name": "price",
              "type": "uint256"
            },
            {
              "internalType": "uint256",
              "name": "collateralDelta",
              "type": "uint256"
            },
            {
              "internalType": "uint256",
              "name": "collateral",
              "type": "uint256"
            },
            {
              "internalType": "uint256",
              "name": "tp",
              "type": "uint256"
            },
            {
              "internalType": "uint256",
              "name": "sl",
              "type": "uint256"
            },
            {
              "internalType": "uint64",
              "name": "orderId",
              "type": "uint64"
            },
            {
              "internalType": "address",
              "name": "account",
              "type": "address"
            },
            {
              "internalType": "bool",
              "name": "isExec",
              "type": "bool"
            },
            {
              "internalType": "uint8",
              "name": "liqState",
              "type": "uint8"
            },
            {
              "internalType": "uint64",
              "name": "fromOrder",
              "type": "uint64"
            },
            {
              "internalType": "bytes32",
              "name": "refCode",
              "type": "bytes32"
            },
            {
              "internalType": "uint8",
              "name": "execNum",
              "type": "uint8"
            },
            {
              "internalType": "bool",
              "name": "isKeepLev",
              "type": "bool"
            },
            {
              "internalType": "bool",
              "name": "isKeepLevTP",
              "type": "bool"
            },
            {
              "internalType": "bool",
              "name": "isKeepLevSL",
              "type": "bool"
            },
            {
              "internalType": "bool",
              "name": "triggerAbove",
              "type": "bool"
            },
            {
              "internalType": "uint128",
              "name": "gas",
              "type": "uint128"
            }
          ],
          "internalType": "struct DummyDiamondImplementation.Tuple5849784",
          "name": "_params",
          "type": "tuple"
        }
      ],
      "name": "execSubOrder",
      "outputs": [],
      "stateMutability": "nonpayable",
      "type": "function"
    },
    {
      "inputs": [
        {
          "internalType": "bytes4",
          "name": "_functionSelector",
          "type": "bytes4"
        }
      ],
      "name": "facetAddress",
      "outputs": [
        {
          "internalType": "address",
          "name": "facetAddress_",
          "type": "address"
        }
      ],
      "stateMutability": "view",
      "type": "function"
    },
    {
      "inputs": [],
      "name": "facetAddresses",
      "outputs": [
        {
          "internalType": "address[]",
          "name": "facetAddresses_",
          "type": "address[]"
        }
      ],
      "stateMutability": "view",
      "type": "function"
    },
    {
      "inputs": [
        {
          "internalType": "address",
          "name": "_facet",
          "type": "address"
        }
      ],
      "name": "facetFunctionSelectors",
      "outputs": [
        {
          "internalType": "bytes4[]",
          "name": "facetFunctionSelectors_",
          "type": "bytes4[]"
        }
      ],
      "stateMutability": "view",
      "type": "function"
    },
    {
      "inputs": [],
      "name": "facets",
      "outputs": [
        {
          "components": [
            {
              "internalType": "address",
              "name": "facetAddress",
              "type": "address"
            },
            {
              "internalType": "bytes4[]",
              "name": "functionSelectors",
              "type": "bytes4[]"
            }
          ],
          "internalType": "struct DummyDiamondImplementation.Tuple1236461[]",
          "name": "facets_",
          "type": "tuple[]"
        }
      ],
      "stateMutability": "view",
      "type": "function"
    },
    {
      "inputs": [
        {
          "internalType": "uint16",
          "name": "market",
          "type": "uint16"
        },
        {
          "internalType": "address",
          "name": "to",
          "type": "address"
        },
        {
          "internalType": "uint256",
          "name": "amount",
          "type": "uint256"
        }
      ],
      "name": "feeWithdraw",
      "outputs": [],
      "stateMutability": "nonpayable",
      "type": "function"
    },
    {
      "inputs": [
        {
          "internalType": "uint16",
          "name": "market",
          "type": "uint16"
        },
        {
          "internalType": "address",
          "name": "account",
          "type": "address"
        }
      ],
      "name": "getAccountSize",
      "outputs": [
        {
          "internalType": "uint256",
          "name": "",
          "type": "uint256"
        },
        {
          "internalType": "uint256",
          "name": "",
          "type": "uint256"
        }
      ],
      "stateMutability": "view",
      "type": "function"
    },
    {
      "inputs": [
        {
          "internalType": "uint16",
          "name": "market",
          "type": "uint16"
        },
        {
          "internalType": "address",
          "name": "account",
          "type": "address"
        }
      ],
      "name": "getAccountSizeOfMarkets",
      "outputs": [
        {
          "internalType": "uint256",
          "name": "sizesL",
          "type": "uint256"
        },
        {
          "internalType": "uint256",
          "name": "sizesS",
          "type": "uint256"
        }
      ],
      "stateMutability": "view",
      "type": "function"
    },
    {
      "inputs": [
        {
          "internalType": "uint256",
          "name": "blockNumber",
          "type": "uint256"
        }
      ],
      "name": "getBlockHash",
      "outputs": [
        {
          "internalType": "bytes32",
          "name": "blockHash",
          "type": "bytes32"
        }
      ],
      "stateMutability": "view",
      "type": "function"
    },
    {
      "inputs": [],
      "name": "getBlockNumber",
      "outputs": [
        {
          "internalType": "uint256",
          "name": "blockNumber",
          "type": "uint256"
        }
      ],
      "stateMutability": "view",
      "type": "function"
    },
    {
      "inputs": [
        {
          "internalType": "uint16",
          "name": "market",
          "type": "uint16"
        },
        {
          "internalType": "bool",
          "name": "_maximise",
          "type": "bool"
        }
      ],
      "name": "getChainPrice",
      "outputs": [
        {
          "internalType": "uint256",
          "name": "",
          "type": "uint256"
        }
      ],
      "stateMutability": "view",
      "type": "function"
    },
    {
      "inputs": [
        {
          "internalType": "bytes32",
          "name": "_code",
          "type": "bytes32"
        }
      ],
      "name": "getCodeOwners",
      "outputs": [
        {
          "internalType": "address",
          "name": "",
          "type": "address"
        }
      ],
      "stateMutability": "view",
      "type": "function"
    },
    {
      "inputs": [],
      "name": "getCurrentBlockCoinbase",
      "outputs": [
        {
          "internalType": "address",
          "name": "coinbase",
          "type": "address"
        }
      ],
      "stateMutability": "view",
      "type": "function"
    },
    {
      "inputs": [],
      "name": "getCurrentBlockGasLimit",
      "outputs": [
        {
          "internalType": "uint256",
          "name": "gaslimit",
          "type": "uint256"
        }
      ],
      "stateMutability": "view",
      "type": "function"
    },
    {
      "inputs": [],
      "name": "getCurrentBlockTimestamp",
      "outputs": [
        {
          "internalType": "uint256",
          "name": "timestamp",
          "type": "uint256"
        }
      ],
      "stateMutability": "view",
      "type": "function"
    },
    {
      "inputs": [
        {
          "internalType": "address",
          "name": "addr",
          "type": "address"
        }
      ],
      "name": "getEthBalance",
      "outputs": [
        {
          "internalType": "uint256",
          "name": "balance",
          "type": "uint256"
        }
      ],
      "stateMutability": "view",
      "type": "function"
    },
    {
      "inputs": [
        {
          "internalType": "uint16",
          "name": "market",
          "type": "uint16"
        }
      ],
      "name": "getExecFee",
      "outputs": [
        {
          "internalType": "uint256",
          "name": "",
          "type": "uint256"
        }
      ],
      "stateMutability": "view",
      "type": "function"
    },
    {
      "inputs": [
        {
          "components": [
            {
              "internalType": "uint16",
              "name": "market",
              "type": "uint16"
            },
            {
              "internalType": "bool",
              "name": "isLong",
              "type": "bool"
            },
            {
              "internalType": "bool",
              "name": "isIncrease",
              "type": "bool"
            },
            {
              "internalType": "uint256",
              "name": "start",
              "type": "uint256"
            },
            {
              "internalType": "uint256",
              "name": "end",
              "type": "uint256"
            },
            {
              "internalType": "bool",
              "name": "isOpen",
              "type": "bool"
            },
            {
              "internalType": "uint256",
              "name": "oraclePrice",
              "type": "uint256"
            },
            {
              "internalType": "bytes32",
              "name": "storageKey",
              "type": "bytes32"
            }
          ],
          "internalType": "struct DummyDiamondImplementation.Tuple2589231",
          "name": "cache",
          "type": "tuple"
        }
      ],
      "name": "getExecutableOrdersByPrice",
      "outputs": [
        {
          "components": [
            {
              "internalType": "bytes32",
              "name": "refCode",
              "type": "bytes32"
            },
            {
              "internalType": "uint128",
              "name": "collateral",
              "type": "uint128"
            },
            {
              "internalType": "uint128",
              "name": "size",
              "type": "uint128"
            },
            {
              "internalType": "uint256",
              "name": "price",
              "type": "uint256"
            },
            {
              "internalType": "uint256",
              "name": "tp",
              "type": "uint256"
            },
            {
              "internalType": "bool",
              "name": "triggerAbove",
              "type": "bool"
            },
            {
              "internalType": "bool",
              "name": "isFromMarket",
              "type": "bool"
            },
            {
              "internalType": "bool",
              "name": "isKeepLev",
              "type": "bool"
            },
            {
              "internalType": "bool",
              "name": "isKeepLevTP",
              "type": "bool"
            },
            {
              "internalType": "bool",
              "name": "isKeepLevSL",
              "type": "bool"
            },
            {
              "internalType": "uint64",
              "name": "orderID",
              "type": "uint64"
            },
            {
              "internalType": "uint64",
              "name": "pairId",
              "type": "uint64"
            },
            {
              "internalType": "uint64",
              "name": "fromId",
              "type": "uint64"
            },
            {
              "internalType": "uint32",
              "name": "updatedAtBlock",
              "type": "uint32"
            },
            {
              "internalType": "uint8",
              "name": "extra0",
              "type": "uint8"
            },
            {
              "internalType": "address",
              "name": "account",
              "type": "address"
            },
            {
              "internalType": "uint96",
              "name": "extra1",
              "type": "uint96"
            },
            {
              "internalType": "uint256",
              "name": "sl",
              "type": "uint256"
            },
            {
              "internalType": "bool",
              "name": "isIncrease",
              "type": "bool"
            },
            {
              "internalType": "bool",
              "name": "isLong",
              "type": "bool"
            },
            {
              "internalType": "uint16",
              "name": "market",
              "type": "uint16"
            },
            {
              "internalType": "uint96",
              "name": "extra2",
              "type": "uint96"
            },
            {
              "internalType": "uint128",
              "name": "gas",
              "type": "uint128"
            },
            {
              "internalType": "uint8",
              "name": "version",
              "type": "uint8"
            }
          ],
          "internalType": "struct DummyDiamondImplementation.Tuple564566[]",
          "name": "_orders",
          "type": "tuple[]"
        }
      ],
      "stateMutability": "view",
      "type": "function"
    },
    {
      "inputs": [
        {
          "internalType": "uint16",
          "name": "market",
          "type": "uint16"
        },
        {
          "internalType": "uint256",
          "name": "_referencePrice",
          "type": "uint256"
        },
        {
          "internalType": "bool",
          "name": "_maximise",
          "type": "bool"
        }
      ],
      "name": "getFastPrice",
      "outputs": [
        {
          "internalType": "uint256",
          "name": "",
          "type": "uint256"
        }
      ],
      "stateMutability": "view",
      "type": "function"
    },
    {
      "inputs": [
        {
          "internalType": "uint16",
          "name": "market",
          "type": "uint16"
        }
      ],
      "name": "getFeeAndRatesOfMarket",
      "outputs": [
        {
          "internalType": "uint256[]",
          "name": "fees",
          "type": "uint256[]"
        },
        {
          "internalType": "int256[]",
          "name": "fundingRates",
          "type": "int256[]"
        },
        {
          "internalType": "int256[]",
          "name": "_cumulativeFundingRates",
          "type": "int256[]"
        }
      ],
      "stateMutability": "view",
      "type": "function"
    },
    {
      "inputs": [
        {
          "components": [
            {
              "internalType": "uint8",
              "name": "busiType",
              "type": "uint8"
            },
            {
              "internalType": "uint256",
              "name": "oraclePrice",
              "type": "uint256"
            },
            {
              "internalType": "uint256",
              "name": "pay",
              "type": "uint256"
            },
            {
              "internalType": "uint256",
              "name": "slippage",
              "type": "uint256"
            },
            {
              "internalType": "uint16",
              "name": "market",
              "type": "uint16"
            },
            {
              "internalType": "bool",
              "name": "isLong",
              "type": "bool"
            },
            {
              "internalType": "bool",
              "name": "isOpen",
              "type": "bool"
            },
            {
              "internalType": "bool",
              "name": "isCreate",
              "type": "bool"
            },
            {
              "internalType": "bool",
              "name": "isFromMarket",
              "type": "bool"
            },
            {
              "internalType": "uint256",
              "name": "sizeDelta",
              "type": "uint256"
            },
            {
              "internalType": "uint256",
              "name": "price",
              "type": "uint256"
            },
            {
              "internalType": "uint256",
              "name": "collateralDelta",
              "type": "uint256"
            },
            {
              "internalType": "uint256",
              "name": "collateral",
              "type": "uint256"
            },
            {
              "internalType": "uint256",
              "name": "tp",
              "type": "uint256"
            },
            {
              "internalType": "uint256",
              "name": "sl",
              "type": "uint256"
            },
            {
              "internalType": "uint64",
              "name": "orderId",
              "type": "uint64"
            },
            {
              "internalType": "address",
              "name": "account",
              "type": "address"
            },
            {
              "internalType": "bool",
              "name": "isExec",
              "type": "bool"
            },
            {
              "internalType": "uint8",
              "name": "liqState",
              "type": "uint8"
            },
            {
              "internalType": "uint64",
              "name": "fromOrder",
              "type": "uint64"
            },
            {
              "internalType": "bytes32",
              "name": "refCode",
              "type": "bytes32"
            },
            {
              "internalType": "uint8",
              "name": "execNum",
              "type": "uint8"
            },
            {
              "internalType": "bool",
              "name": "isKeepLev",
              "type": "bool"
            },
            {
              "internalType": "bool",
              "name": "isKeepLevTP",
              "type": "bool"
            },
            {
              "internalType": "bool",
              "name": "isKeepLevSL",
              "type": "bool"
            },
            {
              "internalType": "bool",
              "name": "triggerAbove",
              "type": "bool"
            },
            {
              "internalType": "uint128",
              "name": "gas",
              "type": "uint128"
            }
          ],
          "internalType": "struct DummyDiamondImplementation.Tuple21927",
          "name": "params",
          "type": "tuple"
        },
        {
          "components": [
            {
              "internalType": "uint256",
              "name": "size",
              "type": "uint256"
            },
            {
              "internalType": "uint256",
              "name": "collateral",
              "type": "uint256"
            },
            {
              "internalType": "int256",
              "name": "entryFundingRate",
              "type": "int256"
            },
            {
              "internalType": "int256",
              "name": "realisedPnl",
              "type": "int256"
            },
            {
              "internalType": "uint256",
              "name": "averagePrice",
              "type": "uint256"
            },
            {
              "internalType": "bool",
              "name": "isLong",
              "type": "bool"
            },
            {
              "internalType": "uint32",
              "name": "lastTime",
              "type": "uint32"
            },
            {
              "internalType": "uint16",
              "name": "market",
              "type": "uint16"
            },
            {
              "internalType": "uint72",
              "name": "extra0",
              "type": "uint72"
            }
          ],
          "internalType": "struct DummyDiamondImplementation.Tuple464693",
          "name": "position",
          "type": "tuple"
        }
      ],
      "name": "getFeesReceivable",
      "outputs": [
        {
          "internalType": "int256[]",
          "name": "fees",
          "type": "int256[]"
        },
        {
          "internalType": "int256",
          "name": "totalFee",
          "type": "int256"
        }
      ],
      "stateMutability": "view",
      "type": "function"
    },
    {
      "inputs": [
        {
          "internalType": "uint16",
          "name": "market",
          "type": "uint16"
        },
        {
          "internalType": "uint256",
          "name": "size",
          "type": "uint256"
        },
        {
          "internalType": "int256",
          "name": "entryFundingRate",
          "type": "int256"
        },
        {
          "internalType": "bool",
          "name": "isLong",
          "type": "bool"
        }
      ],
      "name": "getFundingFee",
      "outputs": [
        {
          "internalType": "int256",
          "name": "",
          "type": "int256"
        }
      ],
      "stateMutability": "view",
      "type": "function"
    },
    {
      "inputs": [
        {
          "internalType": "uint16",
          "name": "market",
          "type": "uint16"
        }
      ],
      "name": "getGlobalOpenInterest",
      "outputs": [
        {
          "internalType": "uint256",
          "name": "_globalSize",
          "type": "uint256"
        }
      ],
      "stateMutability": "view",
      "type": "function"
    },
    {
      "inputs": [
        {
          "internalType": "address",
          "name": "_vault",
          "type": "address"
        }
      ],
      "name": "getGlobalPnl",
      "outputs": [
        {
          "internalType": "int256",
          "name": "",
          "type": "int256"
        }
      ],
      "stateMutability": "view",
      "type": "function"
    },
    {
      "inputs": [
        {
          "internalType": "uint16",
          "name": "market",
          "type": "uint16"
        },
        {
          "internalType": "bool",
          "name": "isLong",
          "type": "bool"
        }
      ],
      "name": "getGlobalPosition",
      "outputs": [
        {
          "components": [
            {
              "internalType": "uint256",
              "name": "size",
              "type": "uint256"
            },
            {
              "internalType": "uint256",
              "name": "collateral",
              "type": "uint256"
            },
            {
              "internalType": "int256",
              "name": "entryFundingRate",
              "type": "int256"
            },
            {
              "internalType": "int256",
              "name": "realisedPnl",
              "type": "int256"
            },
            {
              "internalType": "uint256",
              "name": "averagePrice",
              "type": "uint256"
            },
            {
              "internalType": "bool",
              "name": "isLong",
              "type": "bool"
            },
            {
              "internalType": "uint32",
              "name": "lastTime",
              "type": "uint32"
            },
            {
              "internalType": "uint16",
              "name": "market",
              "type": "uint16"
            },
            {
              "internalType": "uint72",
              "name": "extra0",
              "type": "uint72"
            }
          ],
          "internalType": "struct DummyDiamondImplementation.Tuple6022437",
          "name": "",
          "type": "tuple"
        }
      ],
      "stateMutability": "view",
      "type": "function"
    },
    {
      "inputs": [
        {
          "internalType": "uint16",
          "name": "market",
          "type": "uint16"
        }
      ],
      "name": "getGlobalSize",
      "outputs": [
        {
          "internalType": "uint256",
          "name": "sizesLong",
          "type": "uint256"
        },
        {
          "internalType": "uint256",
          "name": "sizesShort",
          "type": "uint256"
        }
      ],
      "stateMutability": "view",
      "type": "function"
    },
    {
      "inputs": [],
      "name": "getLastBlockHash",
      "outputs": [
        {
          "internalType": "bytes32",
          "name": "blockHash",
          "type": "bytes32"
        }
      ],
      "stateMutability": "view",
      "type": "function"
    },
    {
      "inputs": [
        {
          "internalType": "uint16",
          "name": "market",
          "type": "uint16"
        }
      ],
      "name": "getMarket",
      "outputs": [
        {
          "internalType": "bytes",
          "name": "result",
          "type": "bytes"
        }
      ],
      "stateMutability": "view",
      "type": "function"
    },
    {
      "inputs": [
        {
          "internalType": "uint16",
          "name": "market",
          "type": "uint16"
        }
      ],
      "name": "getMarketSizes",
      "outputs": [
        {
          "internalType": "uint256",
          "name": "",
          "type": "uint256"
        },
        {
          "internalType": "uint256",
          "name": "",
          "type": "uint256"
        }
      ],
      "stateMutability": "view",
      "type": "function"
    },
    {
      "inputs": [],
      "name": "getMarkets",
      "outputs": [
        {
          "internalType": "bytes",
          "name": "result",
          "type": "bytes"
        }
      ],
      "stateMutability": "view",
      "type": "function"
    },
    {
      "inputs": [
        {
          "internalType": "uint16",
          "name": "market",
          "type": "uint16"
        }
      ],
      "name": "getMarketsOfMarket",
      "outputs": [
        {
          "internalType": "uint256[]",
          "name": "",
          "type": "uint256[]"
        }
      ],
      "stateMutability": "view",
      "type": "function"
    },
    {
      "inputs": [
        {
          "internalType": "address",
          "name": "market",
          "type": "address"
        },
        {
          "internalType": "uint256",
          "name": "longSize",
          "type": "uint256"
        },
        {
          "internalType": "uint256",
          "name": "shortSize",
          "type": "uint256"
        }
      ],
      "name": "getNextFundingRate",
      "outputs": [],
      "stateMutability": "nonpayable",
      "type": "function"
    },
    {
      "inputs": [
        {
          "components": [
            {
              "internalType": "uint8",
              "name": "busiType",
              "type": "uint8"
            },
            {
              "internalType": "uint256",
              "name": "oraclePrice",
              "type": "uint256"
            },
            {
              "internalType": "uint256",
              "name": "pay",
              "type": "uint256"
            },
            {
              "internalType": "uint256",
              "name": "slippage",
              "type": "uint256"
            },
            {
              "internalType": "uint16",
              "name": "market",
              "type": "uint16"
            },
            {
              "internalType": "bool",
              "name": "isLong",
              "type": "bool"
            },
            {
              "internalType": "bool",
              "name": "isOpen",
              "type": "bool"
            },
            {
              "internalType": "bool",
              "name": "isCreate",
              "type": "bool"
            },
            {
              "internalType": "bool",
              "name": "isFromMarket",
              "type": "bool"
            },
            {
              "internalType": "uint256",
              "name": "sizeDelta",
              "type": "uint256"
            },
            {
              "internalType": "uint256",
              "name": "price",
              "type": "uint256"
            },
            {
              "internalType": "uint256",
              "name": "collateralDelta",
              "type": "uint256"
            },
            {
              "internalType": "uint256",
              "name": "collateral",
              "type": "uint256"
            },
            {
              "internalType": "uint256",
              "name": "tp",
              "type": "uint256"
            },
            {
              "internalType": "uint256",
              "name": "sl",
              "type": "uint256"
            },
            {
              "internalType": "uint64",
              "name": "orderId",
              "type": "uint64"
            },
            {
              "internalType": "address",
              "name": "account",
              "type": "address"
            },
            {
              "internalType": "bool",
              "name": "isExec",
              "type": "bool"
            },
            {
              "internalType": "uint8",
              "name": "liqState",
              "type": "uint8"
            },
            {
              "internalType": "uint64",
              "name": "fromOrder",
              "type": "uint64"
            },
            {
              "internalType": "bytes32",
              "name": "refCode",
              "type": "bytes32"
            },
            {
              "internalType": "uint8",
              "name": "execNum",
              "type": "uint8"
            },
            {
              "internalType": "bool",
              "name": "isKeepLev",
              "type": "bool"
            },
            {
              "internalType": "bool",
              "name": "isKeepLevTP",
              "type": "bool"
            },
            {
              "internalType": "bool",
              "name": "isKeepLevSL",
              "type": "bool"
            },
            {
              "internalType": "bool",
              "name": "triggerAbove",
              "type": "bool"
            },
            {
              "internalType": "uint128",
              "name": "gas",
              "type": "uint128"
            }
          ],
          "internalType": "struct DummyDiamondImplementation.Tuple2426236",
          "name": "data",
          "type": "tuple"
        }
      ],
      "name": "getOrderFees",
      "outputs": [
        {
          "internalType": "int256",
          "name": "fees",
          "type": "int256"
        }
      ],
      "stateMutability": "view",
      "type": "function"
    },
    {
      "inputs": [
        {
          "internalType": "uint16",
          "name": "market",
          "type": "uint16"
        }
      ],
      "name": "getPNLOfMarket",
      "outputs": [
        {
          "internalType": "int256",
          "name": "pnl",
          "type": "int256"
        }
      ],
      "stateMutability": "view",
      "type": "function"
    },
    {
      "inputs": [
        {
          "internalType": "uint16",
          "name": "market",
          "type": "uint16"
        },
        {
          "internalType": "address",
          "name": "account",
          "type": "address"
        },
        {
          "internalType": "uint256",
          "name": "sizeDelta",
          "type": "uint256"
        },
        {
          "internalType": "uint256",
          "name": "markPrice",
          "type": "uint256"
        },
        {
          "internalType": "bool",
          "name": "isLong",
          "type": "bool"
        }
      ],
      "name": "getPNLOfUser",
      "outputs": [
        {
          "internalType": "int256",
          "name": "",
          "type": "int256"
        }
      ],
      "stateMutability": "view",
      "type": "function"
    },
    {
      "inputs": [
        {
          "internalType": "uint16",
          "name": "market",
          "type": "uint16"
        },
        {
          "internalType": "address",
          "name": "account",
          "type": "address"
        },
        {
          "internalType": "uint256",
          "name": "markPrice",
          "type": "uint256"
        },
        {
          "internalType": "bool",
          "name": "isLong",
          "type": "bool"
        }
      ],
      "name": "getPosition",
      "outputs": [
        {
          "components": [
            {
              "internalType": "uint256",
              "name": "size",
              "type": "uint256"
            },
            {
              "internalType": "uint256",
              "name": "collateral",
              "type": "uint256"
            },
            {
              "internalType": "int256",
              "name": "entryFundingRate",
              "type": "int256"
            },
            {
              "internalType": "int256",
              "name": "realisedPnl",
              "type": "int256"
            },
            {
              "internalType": "uint256",
              "name": "averagePrice",
              "type": "uint256"
            },
            {
              "internalType": "bool",
              "name": "isLong",
              "type": "bool"
            },
            {
              "internalType": "uint32",
              "name": "lastTime",
              "type": "uint32"
            },
            {
              "internalType": "uint16",
              "name": "market",
              "type": "uint16"
            },
            {
              "internalType": "uint72",
              "name": "extra0",
              "type": "uint72"
            }
          ],
          "internalType": "struct DummyDiamondImplementation.Tuple6022437",
          "name": "",
          "type": "tuple"
        }
      ],
      "stateMutability": "view",
      "type": "function"
    },
    {
      "inputs": [
        {
          "internalType": "uint16",
          "name": "market",
          "type": "uint16"
        },
        {
          "internalType": "bool",
          "name": "isLong",
          "type": "bool"
        }
      ],
      "name": "getPositionCount",
      "outputs": [
        {
          "internalType": "uint256",
          "name": "",
          "type": "uint256"
        }
      ],
      "stateMutability": "view",
      "type": "function"
    },
    {
      "inputs": [
        {
          "internalType": "uint16",
          "name": "market",
          "type": "uint16"
        },
        {
          "internalType": "uint256",
          "name": "start",
          "type": "uint256"
        },
        {
          "internalType": "uint256",
          "name": "end",
          "type": "uint256"
        },
        {
          "internalType": "bool",
          "name": "isLong",
          "type": "bool"
        }
      ],
      "name": "getPositionKeys",
      "outputs": [
        {
          "internalType": "address[]",
          "name": "",
          "type": "address[]"
        }
      ],
      "stateMutability": "view",
      "type": "function"
    },
    {
      "inputs": [
        {
          "internalType": "uint16",
          "name": "market",
          "type": "uint16"
        },
        {
          "internalType": "address",
          "name": "account",
          "type": "address"
        }
      ],
      "name": "getPositions",
      "outputs": [
        {
          "components": [
            {
              "internalType": "uint256",
              "name": "size",
              "type": "uint256"
            },
            {
              "internalType": "uint256",
              "name": "collateral",
              "type": "uint256"
            },
            {
              "internalType": "int256",
              "name": "entryFundingRate",
              "type": "int256"
            },
            {
              "internalType": "int256",
              "name": "realisedPnl",
              "type": "int256"
            },
            {
              "internalType": "uint256",
              "name": "averagePrice",
              "type": "uint256"
            },
            {
              "internalType": "bool",
              "name": "isLong",
              "type": "bool"
            },
            {
              "internalType": "uint32",
              "name": "lastTime",
              "type": "uint32"
            },
            {
              "internalType": "uint16",
              "name": "market",
              "type": "uint16"
            },
            {
              "internalType": "uint72",
              "name": "extra0",
              "type": "uint72"
            }
          ],
          "internalType": "struct DummyDiamondImplementation.Tuple09420",
          "name": "posLong",
          "type": "tuple"
        },
        {
          "components": [
            {
              "internalType": "uint256",
              "name": "size",
              "type": "uint256"
            },
            {
              "internalType": "uint256",
              "name": "collateral",
              "type": "uint256"
            },
            {
              "internalType": "int256",
              "name": "entryFundingRate",
              "type": "int256"
            },
            {
              "internalType": "int256",
              "name": "realisedPnl",
              "type": "int256"
            },
            {
              "internalType": "uint256",
              "name": "averagePrice",
              "type": "uint256"
            },
            {
              "internalType": "bool",
              "name": "isLong",
              "type": "bool"
            },
            {
              "internalType": "uint32",
              "name": "lastTime",
              "type": "uint32"
            },
            {
              "internalType": "uint16",
              "name": "market",
              "type": "uint16"
            },
            {
              "internalType": "uint72",
              "name": "extra0",
              "type": "uint72"
            }
          ],
          "internalType": "struct DummyDiamondImplementation.Tuple6462124",
          "name": "posShort",
          "type": "tuple"
        }
      ],
      "stateMutability": "view",
      "type": "function"
    },
    {
      "inputs": [
        {
          "internalType": "uint16",
          "name": "market",
          "type": "uint16"
        },
        {
          "internalType": "bool",
          "name": "_maximise",
          "type": "bool"
        }
      ],
      "name": "getPrice",
      "outputs": [
        {
          "internalType": "uint256",
          "name": "",
          "type": "uint256"
        }
      ],
      "stateMutability": "view",
      "type": "function"
    },
    {
      "inputs": [],
      "name": "getUSDDecimals",
      "outputs": [
        {
          "internalType": "uint8",
          "name": "",
          "type": "uint8"
        }
      ],
      "stateMutability": "pure",
      "type": "function"
    },
    {
      "inputs": [
        {
          "internalType": "bytes32",
          "name": "_code",
          "type": "bytes32"
        },
        {
          "internalType": "address",
          "name": "_newAccount",
          "type": "address"
        }
      ],
      "name": "govSetCodeOwner",
      "outputs": [],
      "stateMutability": "nonpayable",
      "type": "function"
    },
    {
      "inputs": [],
      "name": "implementation",
      "outputs": [
        {
          "internalType": "address",
          "name": "",
          "type": "address"
        }
      ],
      "stateMutability": "view",
      "type": "function"
    },
    {
      "inputs": [],
      "name": "initDefaultOracleConfig",
      "outputs": [],
      "stateMutability": "nonpayable",
      "type": "function"
    },
    {
      "inputs": [
        {
          "internalType": "uint16",
          "name": "market",
          "type": "uint16"
        }
      ],
      "name": "initFeeFacet",
      "outputs": [],
      "stateMutability": "nonpayable",
      "type": "function"
    },
    {
      "inputs": [
        {
          "internalType": "address",
          "name": "_account",
          "type": "address"
        },
        {
          "internalType": "uint16",
          "name": "_market",
          "type": "uint16"
        },
        {
          "internalType": "bool",
          "name": "_isLong",
          "type": "bool"
        },
        {
          "internalType": "uint256",
          "name": "_price",
          "type": "uint256"
        }
      ],
      "name": "isLiquidate",
      "outputs": [
        {
          "internalType": "uint8",
          "name": "_state",
          "type": "uint8"
        }
      ],
      "stateMutability": "view",
      "type": "function"
    },
    {
      "inputs": [
        {
          "internalType": "uint16",
          "name": "market",
          "type": "uint16"
        },
        {
          "internalType": "address",
          "name": "accounts",
          "type": "address"
        },
        {
          "internalType": "bool",
          "name": "_isLong",
          "type": "bool"
        }
      ],
      "name": "liquidate",
      "outputs": [],
      "stateMutability": "nonpayable",
      "type": "function"
    },
    {
      "inputs": [
        {
          "internalType": "uint16",
          "name": "market",
          "type": "uint16"
        }
      ],
      "name": "markeConfig",
      "outputs": [
        {
          "components": [
            {
              "internalType": "bool",
              "name": "isSuspended",
              "type": "bool"
            },
            {
              "internalType": "bool",
              "name": "allowOpen",
              "type": "bool"
            },
            {
              "internalType": "bool",
              "name": "allowClose",
              "type": "bool"
            },
            {
              "internalType": "bool",
              "name": "validDecrease",
              "type": "bool"
            },
            {
              "internalType": "uint16",
              "name": "minSlippage",
              "type": "uint16"
            },
            {
              "internalType": "uint16",
              "name": "maxSlippage",
              "type": "uint16"
            },
            {
              "internalType": "uint16",
              "name": "minLeverage",
              "type": "uint16"
            },
            {
              "internalType": "uint16",
              "name": "maxLeverage",
              "type": "uint16"
            },
            {
              "internalType": "uint16",
              "name": "minPayment",
              "type": "uint16"
            },
            {
              "internalType": "uint16",
              "name": "minCollateral",
              "type": "uint16"
            },
            {
              "internalType": "uint16",
              "name": "decreaseNumLimit",
              "type": "uint16"
            },
            {
              "internalType": "uint32",
              "name": "maxTradeAmount",
              "type": "uint32"
            }
          ],
          "internalType": "struct DummyDiamondImplementation.Tuple826895",
          "name": "_config",
          "type": "tuple"
        }
      ],
      "stateMutability": "view",
      "type": "function"
    },
    {
      "inputs": [
        {
          "internalType": "bool",
          "name": "isSuspended",
          "type": "bool"
        },
        {
          "internalType": "bool",
          "name": "allowOpen",
          "type": "bool"
        },
        {
          "internalType": "bool",
          "name": "allowClose",
          "type": "bool"
        },
        {
          "internalType": "bool",
          "name": "validDecrease",
          "type": "bool"
        },
        {
          "internalType": "uint16",
          "name": "minSlippage",
          "type": "uint16"
        },
        {
          "internalType": "uint16",
          "name": "maxSlippage",
          "type": "uint16"
        },
        {
          "internalType": "uint16",
          "name": "minLeverage",
          "type": "uint16"
        },
        {
          "internalType": "uint16",
          "name": "maxLeverage",
          "type": "uint16"
        },
        {
          "internalType": "uint16",
          "name": "minPayment",
          "type": "uint16"
        },
        {
          "internalType": "uint16",
          "name": "minCollateral",
          "type": "uint16"
        },
        {
          "internalType": "uint16",
          "name": "decreaseNumLimit",
          "type": "uint16"
        },
        {
          "internalType": "uint32",
          "name": "maxTradeAmount",
          "type": "uint32"
        }
      ],
      "name": "marketMakerForConfig",
      "outputs": [
        {
          "components": [
            {
              "internalType": "bool",
              "name": "isSuspended",
              "type": "bool"
            },
            {
              "internalType": "bool",
              "name": "allowOpen",
              "type": "bool"
            },
            {
              "internalType": "bool",
              "name": "allowClose",
              "type": "bool"
            },
            {
              "internalType": "bool",
              "name": "validDecrease",
              "type": "bool"
            },
            {
              "internalType": "uint16",
              "name": "minSlippage",
              "type": "uint16"
            },
            {
              "internalType": "uint16",
              "name": "maxSlippage",
              "type": "uint16"
            },
            {
              "internalType": "uint16",
              "name": "minLeverage",
              "type": "uint16"
            },
            {
              "internalType": "uint16",
              "name": "maxLeverage",
              "type": "uint16"
            },
            {
              "internalType": "uint16",
              "name": "minPayment",
              "type": "uint16"
            },
            {
              "internalType": "uint16",
              "name": "minCollateral",
              "type": "uint16"
            },
            {
              "internalType": "uint16",
              "name": "decreaseNumLimit",
              "type": "uint16"
            },
            {
              "internalType": "uint32",
              "name": "maxTradeAmount",
              "type": "uint32"
            }
          ],
          "internalType": "struct DummyDiamondImplementation.Tuple5605664",
          "name": "",
          "type": "tuple"
        }
      ],
      "stateMutability": "pure",
      "type": "function"
    },
    {
      "inputs": [
        {
          "internalType": "uint256",
          "name": "maxFRatePerDay",
          "type": "uint256"
        },
        {
          "internalType": "uint256",
          "name": "fRateFactor",
          "type": "uint256"
        },
        {
          "internalType": "uint256",
          "name": "mintFRate",
          "type": "uint256"
        },
        {
          "internalType": "uint256",
          "name": "minFundingInterval",
          "type": "uint256"
        },
        {
          "internalType": "uint256",
          "name": "fundingFeeLossOffLimit",
          "type": "uint256"
        }
      ],
      "name": "marketMakerForFee",
      "outputs": [
        {
          "internalType": "bytes",
          "name": "",
          "type": "bytes"
        }
      ],
      "stateMutability": "pure",
      "type": "function"
    },
    {
      "inputs": [
        {
          "internalType": "address",
          "name": "pricefeed",
          "type": "address"
        },
        {
          "internalType": "uint256",
          "name": "maxCumulativeDeltaDiffs",
          "type": "uint256"
        }
      ],
      "name": "marketMakerForOracle",
      "outputs": [
        {
          "internalType": "bytes",
          "name": "",
          "type": "bytes"
        }
      ],
      "stateMutability": "pure",
      "type": "function"
    },
    {
      "inputs": [],
      "name": "owner",
      "outputs": [
        {
          "internalType": "address",
          "name": "owner_",
          "type": "address"
        }
      ],
      "stateMutability": "view",
      "type": "function"
    },
    {
      "inputs": [
        {
          "internalType": "uint16",
          "name": "market",
          "type": "uint16"
        }
      ],
      "name": "priceFeed",
      "outputs": [
        {
          "internalType": "address",
          "name": "",
          "type": "address"
        }
      ],
      "stateMutability": "view",
      "type": "function"
    },
    {
      "inputs": [
        {
          "internalType": "bytes32",
          "name": "_code",
          "type": "bytes32"
        }
      ],
      "name": "registerCode",
      "outputs": [],
      "stateMutability": "nonpayable",
      "type": "function"
    },
    {
      "inputs": [
        {
          "internalType": "uint16",
          "name": "marketId",
          "type": "uint16"
        }
      ],
      "name": "removeMarket",
      "outputs": [],
      "stateMutability": "nonpayable",
      "type": "function"
    },
    {
      "inputs": [
        {
          "internalType": "address",
          "name": "newAuthority",
          "type": "address"
        }
      ],
      "name": "setAuthority",
      "outputs": [],
      "stateMutability": "nonpayable",
      "type": "function"
    },
    {
      "inputs": [
        {
          "internalType": "uint16",
          "name": "market",
          "type": "uint16"
        },
        {
          "internalType": "bool",
          "name": "isLong",
          "type": "bool"
        },
        {
          "internalType": "int256",
          "name": "calFundingRate",
          "type": "int256"
        }
      ],
      "name": "setCalFundingRates",
      "outputs": [],
      "stateMutability": "nonpayable",
      "type": "function"
    },
    {
      "inputs": [
        {
          "internalType": "uint16",
          "name": "market",
          "type": "uint16"
        },
        {
          "internalType": "uint256",
          "name": "interval",
          "type": "uint256"
        }
      ],
      "name": "setCalIntervals",
      "outputs": [],
      "stateMutability": "nonpayable",
      "type": "function"
    },
    {
      "inputs": [
        {
          "internalType": "bytes32",
          "name": "_code",
          "type": "bytes32"
        },
        {
          "internalType": "address",
          "name": "_newAccount",
          "type": "address"
        }
      ],
      "name": "setCodeOwner",
      "outputs": [],
      "stateMutability": "nonpayable",
      "type": "function"
    },
    {
      "inputs": [
        {
          "internalType": "address",
          "name": "_implementation",
          "type": "address"
        }
      ],
      "name": "setDummyImplementation",
      "outputs": [],
      "stateMutability": "nonpayable",
      "type": "function"
    },
    {
      "inputs": [
        {
          "internalType": "uint16",
          "name": "market",
          "type": "uint16"
        },
        {
          "internalType": "uint8",
          "name": "feeType",
          "type": "uint8"
        },
        {
          "internalType": "uint256",
          "name": "feeAndRate",
          "type": "uint256"
        }
      ],
      "name": "setFeeAndRates",
      "outputs": [],
      "stateMutability": "nonpayable",
      "type": "function"
    },
    {
      "inputs": [
        {
          "internalType": "uint16",
          "name": "market",
          "type": "uint16"
        },
        {
          "internalType": "uint8",
          "name": "configType",
          "type": "uint8"
        },
        {
          "internalType": "uint256",
          "name": "value",
          "type": "uint256"
        }
      ],
      "name": "setFeeConfigs",
      "outputs": [],
      "stateMutability": "nonpayable",
      "type": "function"
    },
    {
      "inputs": [
        {
          "internalType": "uint16",
          "name": "market",
          "type": "uint16"
        },
        {
          "internalType": "uint256",
          "name": "loss",
          "type": "uint256"
        }
      ],
      "name": "setFundFeeLoss",
      "outputs": [],
      "stateMutability": "nonpayable",
      "type": "function"
    },
    {
      "inputs": [
        {
          "internalType": "uint16",
          "name": "market",
          "type": "uint16"
        },
        {
          "internalType": "uint256",
          "name": "interval",
          "type": "uint256"
        }
      ],
      "name": "setFundingIntervals",
      "outputs": [],
      "stateMutability": "nonpayable",
      "type": "function"
    },
    {
      "inputs": [
        {
          "internalType": "uint16",
          "name": "market",
          "type": "uint16"
        },
        {
          "internalType": "bool",
          "name": "isLong",
          "type": "bool"
        },
        {
          "internalType": "int256",
          "name": "fundingRate",
          "type": "int256"
        },
        {
          "internalType": "int256",
          "name": "cumulativeFundingRate",
          "type": "int256"
        }
      ],
      "name": "setFundingRates",
      "outputs": [],
      "stateMutability": "nonpayable",
      "type": "function"
    },
    {
      "inputs": [
        {
          "internalType": "uint16",
          "name": "market",
          "type": "uint16"
        },
        {
          "internalType": "uint256",
          "name": "lastCalTime",
          "type": "uint256"
        }
      ],
      "name": "setLastCalTimes",
      "outputs": [],
      "stateMutability": "nonpayable",
      "type": "function"
    },
    {
      "inputs": [
        {
          "internalType": "uint16",
          "name": "market",
          "type": "uint16"
        },
        {
          "components": [
            {
              "internalType": "bool",
              "name": "isSuspended",
              "type": "bool"
            },
            {
              "internalType": "bool",
              "name": "allowOpen",
              "type": "bool"
            },
            {
              "internalType": "bool",
              "name": "allowClose",
              "type": "bool"
            },
            {
              "internalType": "bool",
              "name": "validDecrease",
              "type": "bool"
            },
            {
              "internalType": "uint16",
              "name": "minSlippage",
              "type": "uint16"
            },
            {
              "internalType": "uint16",
              "name": "maxSlippage",
              "type": "uint16"
            },
            {
              "internalType": "uint16",
              "name": "minLeverage",
              "type": "uint16"
            },
            {
              "internalType": "uint16",
              "name": "maxLeverage",
              "type": "uint16"
            },
            {
              "internalType": "uint16",
              "name": "minPayment",
              "type": "uint16"
            },
            {
              "internalType": "uint16",
              "name": "minCollateral",
              "type": "uint16"
            },
            {
              "internalType": "uint16",
              "name": "decreaseNumLimit",
              "type": "uint16"
            },
            {
              "internalType": "uint32",
              "name": "maxTradeAmount",
              "type": "uint32"
            }
          ],
          "internalType": "struct DummyDiamondImplementation.Tuple9273272",
          "name": "data",
          "type": "tuple"
        }
      ],
      "name": "setMarketConf",
      "outputs": [],
      "stateMutability": "nonpayable",
      "type": "function"
    },
    {
      "inputs": [
        {
          "internalType": "uint16[]",
          "name": "_market",
          "type": "uint16[]"
        },
        {
          "internalType": "uint256[]",
          "name": "_maxCumulativeDeltaDiffs",
          "type": "uint256[]"
        }
      ],
      "name": "setMaxCumulativeDeltaDiffs",
      "outputs": [],
      "stateMutability": "nonpayable",
      "type": "function"
    },
    {
      "inputs": [
        {
          "components": [
            {
              "internalType": "uint32",
              "name": "maxDeviationBP",
              "type": "uint32"
            },
            {
              "internalType": "uint32",
              "name": "priceDuration",
              "type": "uint32"
            },
            {
              "internalType": "uint32",
              "name": "maxPriceUpdateDelay",
              "type": "uint32"
            },
            {
              "internalType": "uint32",
              "name": "priceDataInterval",
              "type": "uint32"
            },
            {
              "internalType": "uint32",
              "name": "sampleSpace",
              "type": "uint32"
            }
          ],
          "internalType": "struct DummyDiamondImplementation.Tuple803863",
          "name": "_config",
          "type": "tuple"
        }
      ],
      "name": "setOracleConfig",
      "outputs": [],
      "stateMutability": "nonpayable",
      "type": "function"
    },
    {
      "inputs": [
        {
          "internalType": "uint16[]",
          "name": "_markets",
          "type": "uint16[]"
        },
        {
          "internalType": "uint256[]",
          "name": "_prices",
          "type": "uint256[]"
        }
      ],
      "name": "setPrices",
      "outputs": [],
      "stateMutability": "nonpayable",
      "type": "function"
    },
    {
      "inputs": [
        {
          "internalType": "address",
          "name": "_account",
          "type": "address"
        },
        {
          "internalType": "uint256",
          "name": "_discountShare",
          "type": "uint256"
        }
      ],
      "name": "setReferrerDiscountShare",
      "outputs": [],
      "stateMutability": "nonpayable",
      "type": "function"
    },
    {
      "inputs": [
        {
          "internalType": "address",
          "name": "_referrer",
          "type": "address"
        },
        {
          "internalType": "uint256",
          "name": "_tierId",
          "type": "uint256"
        }
      ],
      "name": "setReferrerTier",
      "outputs": [],
      "stateMutability": "nonpayable",
      "type": "function"
    },
    {
      "inputs": [
        {
          "internalType": "uint256",
          "name": "_tierId",
          "type": "uint256"
        },
        {
          "internalType": "uint256",
          "name": "_totalRebate",
          "type": "uint256"
        },
        {
          "internalType": "uint256",
          "name": "_discountShare",
          "type": "uint256"
        }
      ],
      "name": "setTier",
      "outputs": [],
      "stateMutability": "nonpayable",
      "type": "function"
    },
    {
      "inputs": [
        {
          "internalType": "address",
          "name": "_account",
          "type": "address"
        },
        {
          "internalType": "bytes32",
          "name": "_code",
          "type": "bytes32"
        }
      ],
      "name": "setTraderReferralCodeByGov",
      "outputs": [],
      "stateMutability": "nonpayable",
      "type": "function"
    },
    {
      "inputs": [
        {
          "internalType": "bytes32",
          "name": "_code",
          "type": "bytes32"
        }
      ],
      "name": "setTraderReferralCodeByUser",
      "outputs": [],
      "stateMutability": "nonpayable",
      "type": "function"
    },
    {
      "inputs": [
        {
          "internalType": "address",
          "name": "_feed",
          "type": "address"
        }
      ],
      "name": "setUSDT",
      "outputs": [],
      "stateMutability": "nonpayable",
      "type": "function"
    },
    {
      "inputs": [
        {
          "internalType": "bytes4",
          "name": "_interfaceId",
          "type": "bytes4"
        }
      ],
      "name": "supportsInterface",
      "outputs": [
        {
          "internalType": "bool",
          "name": "",
          "type": "bool"
        }
      ],
      "stateMutability": "view",
      "type": "function"
    },
    {
      "inputs": [
        {
          "internalType": "address",
          "name": "_newOwner",
          "type": "address"
        }
      ],
      "name": "transferOwnership",
      "outputs": [],
      "stateMutability": "nonpayable",
      "type": "function"
    },
    {
      "inputs": [
        {
          "internalType": "bool",
          "name": "requireSuccess",
          "type": "bool"
        },
        {
          "internalType": "bytes[]",
          "name": "calls",
          "type": "bytes[]"
        }
      ],
      "name": "tryAggregate",
      "outputs": [
        {
          "components": [
            {
              "internalType": "bool",
              "name": "success",
              "type": "bool"
            },
            {
              "internalType": "bytes",
              "name": "returnData",
              "type": "bytes"
            }
          ],
          "internalType": "struct DummyDiamondImplementation.Tuple557464[]",
          "name": "returnData",
          "type": "tuple[]"
        }
      ],
      "stateMutability": "nonpayable",
      "type": "function"
    },
    {
      "inputs": [
        {
          "internalType": "bool",
          "name": "requireSuccess",
          "type": "bool"
        },
        {
          "internalType": "bytes[]",
          "name": "calls",
          "type": "bytes[]"
        }
      ],
      "name": "tryBlockAndAggregate",
      "outputs": [
        {
          "internalType": "uint256",
          "name": "blockNumber",
          "type": "uint256"
        },
        {
          "internalType": "bytes32",
          "name": "blockHash",
          "type": "bytes32"
        },
        {
          "components": [
            {
              "internalType": "bool",
              "name": "success",
              "type": "bool"
            },
            {
              "internalType": "bytes",
              "name": "returnData",
              "type": "bytes"
            }
          ],
          "internalType": "struct DummyDiamondImplementation.Tuple557464[]",
          "name": "returnData",
          "type": "tuple[]"
        }
      ],
      "stateMutability": "nonpayable",
      "type": "function"
    },
    {
      "inputs": [
        {
          "components": [
            {
              "internalType": "uint8",
              "name": "busiType",
              "type": "uint8"
            },
            {
              "internalType": "uint256",
              "name": "oraclePrice",
              "type": "uint256"
            },
            {
              "internalType": "uint256",
              "name": "pay",
              "type": "uint256"
            },
            {
              "internalType": "uint256",
              "name": "slippage",
              "type": "uint256"
            },
            {
              "internalType": "uint16",
              "name": "market",
              "type": "uint16"
            },
            {
              "internalType": "bool",
              "name": "isLong",
              "type": "bool"
            },
            {
              "internalType": "bool",
              "name": "isOpen",
              "type": "bool"
            },
            {
              "internalType": "bool",
              "name": "isCreate",
              "type": "bool"
            },
            {
              "internalType": "bool",
              "name": "isFromMarket",
              "type": "bool"
            },
            {
              "internalType": "uint256",
              "name": "sizeDelta",
              "type": "uint256"
            },
            {
              "internalType": "uint256",
              "name": "price",
              "type": "uint256"
            },
            {
              "internalType": "uint256",
              "name": "collateralDelta",
              "type": "uint256"
            },
            {
              "internalType": "uint256",
              "name": "collateral",
              "type": "uint256"
            },
            {
              "internalType": "uint256",
              "name": "tp",
              "type": "uint256"
            },
            {
              "internalType": "uint256",
              "name": "sl",
              "type": "uint256"
            },
            {
              "internalType": "uint64",
              "name": "orderId",
              "type": "uint64"
            },
            {
              "internalType": "address",
              "name": "account",
              "type": "address"
            },
            {
              "internalType": "bool",
              "name": "isExec",
              "type": "bool"
            },
            {
              "internalType": "uint8",
              "name": "liqState",
              "type": "uint8"
            },
            {
              "internalType": "uint64",
              "name": "fromOrder",
              "type": "uint64"
            },
            {
              "internalType": "bytes32",
              "name": "refCode",
              "type": "bytes32"
            },
            {
              "internalType": "uint8",
              "name": "execNum",
              "type": "uint8"
            },
            {
              "internalType": "bool",
              "name": "isKeepLev",
              "type": "bool"
            },
            {
              "internalType": "bool",
              "name": "isKeepLevTP",
              "type": "bool"
            },
            {
              "internalType": "bool",
              "name": "isKeepLevSL",
              "type": "bool"
            },
            {
              "internalType": "bool",
              "name": "triggerAbove",
              "type": "bool"
            },
            {
              "internalType": "uint128",
              "name": "gas",
              "type": "uint128"
            }
          ],
          "internalType": "struct DummyDiamondImplementation.Tuple910965",
          "name": "_inputs",
          "type": "tuple"
        }
      ],
      "name": "updateOrder",
      "outputs": [],
      "stateMutability": "payable",
      "type": "function"
    },
    {
      "inputs": [],
      "name": "usdtFeed",
      "outputs": [
        {
          "internalType": "address",
          "name": "",
          "type": "address"
        }
      ],
      "stateMutability": "view",
      "type": "function"
    }
  ],
  "transactionHash": "0xd4985327d15b50ea6e2297786ce0581148f061e44ab41e15b2cf0dc764342b44",
  "args": [],
  "numDeployments": 13,
  "solcInputHash": "36e81c04e9ba211665bd2937b837c8d6",
  "bytecode": "0x60806040523462000023576200001462000029565b615b44620000358239615b4490f35b6200002f565b60405190565b600080fdfe60806040526004361015610013575b615328565b61001e6000356106bd565b806301ffc9a7146106b8578063054aaca1146106b3578063055af76d146106ae578063080c5c67146106a95780630f28c97d146106a457806313a300131461069f57806315340f321461069a5780631e0a95af146106955780631f931c1c1461069057806320136e031461068b57806327e86d6e146106865780632dacede9146106815780632e6e6ea91461067c57806331ab264f14610677578063320de8e914610672578063334253c11461066d57806336def2c814610668578063393e02e1146106635780633d34960f1461065e5780633d58e05c146106595780633fb8b3231461065457806341ec6c651461064f57806342cbb15c1461064a57806348412d62146106455780634a492f02146106405780634d2301cc1461063b5780634da4ef30146106365780634dee5f261461063157806350c1b9231461062c578063524430fe1461062757806352ef6b2c14610622578063553040971461061d5780635874b736146106185780635ae70a2b146106135780635b9710641461060e5780635c60da1b14610609578063630dc5a01461060457806364b6db53146105ff578063653d64b6146105fa57806367af1a03146105f557806369e135f9146105f057806370192b6e146105eb57806370802dac146105e657806371127e8a146105e1578063735a2885146105dc5780637377e4d7146105d757806373ad39b3146105d2578063766238db146105cd57806379c1122b146105c857806379eba709146105c35780637a0ed627146105be5780637a9e5e4b146105b95780638114baa8146105b4578063836a0187146105af5780638593090f146105aa57806386d516e8146105a5578063875f7ec3146105a0578063886394121461059b57806389d797b9146105965780638d094b1e146105915780638d83a1be1461058c5780638da5cb5b1461058757806393b3b36314610582578063991ceecf1461057d5780639d24a68814610578578063a01e7bc614610573578063a8b0574e1461056e578063a9bd63d514610569578063aa94bda814610564578063ac0b03641461055f578063adfca15e1461055a578063b0a3961a14610555578063b5cc1d2014610550578063bb715a851461054b578063bd11025d14610546578063bf0d39b814610541578063bf7e214f1461053c578063c39aa07d14610537578063c8a1918f14610532578063cc55e9d11461052d578063cd5ba3d414610528578063cdffacc614610523578063d4f8ba011461051e578063d76ce27714610519578063d7a799ce14610514578063daa39c531461050f578063db6112251461050a578063df5c091914610505578063df66914e14610500578063dfcfa250146104fb578063e1e01bf3146104f6578063e36b20c5146104f1578063e75c252e146104ec578063ec2c9016146104e7578063ed843134146104e2578063ee82ac5e146104dd578063ee893688146104d8578063ef880196146104d3578063f130c445146104ce578063f15bd157146104c9578063f224f69a146104c4578063f2da13e2146104bf578063f2fde38b146104ba578063f3c3cff2146104b5578063fa6d03c7146104b05763fe0e467e0361000e576152fa565b615291565b615265565b614e9f565b614e70565b614dfc565b614dc6565b614d8f565b6149f0565b6149bb565b6148de565b614892565b61485d565b614830565b614804565b6147d8565b6147ab565b614748565b61471c565b6146e6565b6146af565b614681565b614611565b6145dc565b6145a7565b61457b565b6144b0565b614477565b61444b565b614416565b6143e9565b6143b3565b61437e565b614349565b614314565b6142df565b61423e565b614211565b61405f565b613fef565b613fb9565b613f84565b613f32565b613f04565b613e94565b613e4f565b613c62565b613ab9565b613a3c565b613a0f565b6139ac565b613975565b613919565b6138a5565b613822565b6137ed565b613659565b613534565b6133d9565b6133ab565b61334e565b6130cd565b61305c565b613002565b612fcd565b612ca8565b612c7d565b612c47565b612b55565b612aef565b612986565b612959565b61292d565b6128f1565b612696565b61260a565b6125dd565b6125b1565b612584565b6120b9565b611fa9565b611f5d565b611eec565b611eb7565b611e82565b611cba565b611c57565b611c22565b611bc6565b611b2f565b611ad7565b611a38565b61174a565b61131c565b6112b4565b611251565b611203565b611190565b610f16565b610d91565b610d05565b610c3a565b610bdf565b610b4b565b610827565b61074f565b60e01c90565b60405190565b600080fd5b600080fd5b600080fd5b63ffffffff60e01b1690565b6106ed816106d8565b036106f457565b600080fd5b90503590610706826106e4565b565b906020828203126107225761071f916000016106f9565b90565b6106ce565b151590565b61073590610727565b9052565b919061074d9060006020850194019061072c565b565b3461077f5761077b61076a610765366004610708565b615332565b6107726106c3565b91829182610739565b0390f35b6106c9565b60018060a01b031690565b61079890610784565b90565b6107a48161078f565b036107ab57565b600080fd5b905035906107bd8261079b565b565b90565b6107cb816107bf565b036107d257565b600080fd5b905035906107e4826107c2565b565b909160608284031261081c5761081961080284600085016107b0565b9361081081602086016107d7565b936040016107d7565b90565b6106ce565b60000190565b34610850576108373660046107e6565b5050506108426106c3565b8061084c81610821565b0390f35b6106c9565b600080fd5b601f801991011690565b634e487b7160e01b600052604160045260246000fd5b906108849061085a565b810190811060018060401b0382111761089c57604052565b610864565b906108b46108ad6106c3565b928361087a565b565b60018060401b0381116108cc5760208091020190565b610864565b600080fd5b600080fd5b60018060401b0381116108f7576108f360209161085a565b0190565b610864565b90826000939282370152565b9092919261091d610918826108db565b6108a1565b9381855260208501908284011161093957610937926108fc565b565b6108d6565b9080601f8301121561095c5781602061095993359101610908565b90565b610855565b929190610975610970826108b6565b6108a1565b93818552602080860192028101918383116109ca5781905b83821061099b575050505050565b813560018060401b0381116109c5576020916109ba878493870161093e565b81520191019061098d565b610855565b6108d1565b9080601f830112156109ed578160206109ea93359101610961565b90565b610855565b90602082820312610a2157600082013560018060401b038111610a1c57610a1992016109cf565b90565b6106d3565b6106ce565b610a2f906107bf565b9052565b5190565b60209181520190565b60200190565b5190565b60209181520190565b60005b838110610a67575050906000910152565b806020918301518185015201610a56565b610a97610aa0602093610aa593610a8e81610a46565b93848093610a4a565b95869101610a53565b61085a565b0190565b90610ab391610a78565b90565b60200190565b90610ad0610ac983610a33565b8092610a37565b9081610ae160208302840194610a40565b926000915b838310610af557505050505090565b90919293946020610b17610b1183856001950387528951610aa9565b97610ab6565b9301930191939290610ae6565b91610b4892610b3b60408201936000830190610a26565b6020818403910152610abc565b90565b34610b7c57610b63610b5e3660046109f2565b615348565b90610b78610b6f6106c3565b92839283610b24565b0390f35b6106c9565b90602082820312610bb057600082013560018060401b038111610bab57610ba8920161093e565b90565b6106d3565b6106ce565b61ffff1690565b610bc590610bb5565b9052565b9190610bdd90600060208501940190610bbc565b565b34610c0f57610c0b610bfa610bf5366004610b81565b615362565b610c026106c3565b91829182610bc9565b0390f35b6106c9565b6000910312610c1f57565b6106ce565b9190610c3890600060208501940190610a26565b565b34610c6a57610c4a366004610c14565b610c66610c5561536e565b610c5d6106c3565b91829182610c24565b0390f35b6106c9565b610c7881610bb5565b03610c7f57565b600080fd5b90503590610c9182610c6f565b565b90602082820312610cad57610caa91600001610c84565b90565b6106ce565b60209181520190565b610cda610ce3602093610ce893610cd181610a46565b93848093610cb2565b95869101610a53565b61085a565b0190565b610d029160208201916000818403910152610cbb565b90565b34610d3557610d31610d20610d1b366004610c93565b61537e565b610d286106c3565b91829182610cec565b0390f35b6106c9565b919060a083820312610d8c57610d5381600085016107d7565b92610d6182602083016107d7565b92610d89610d7284604085016107d7565b93610d8081606086016107d7565b936080016107d7565b90565b6106ce565b34610dc557610dc1610db0610da7366004610d3a565b9392909261538a565b610db86106c3565b91829182610cec565b0390f35b6106c9565b610dd381610727565b03610dda57565b600080fd5b90503590610dec82610dca565b565b919091604081840312610e2d57610e088360008301610ddf565b92602082013560018060401b038111610e2857610e2592016109cf565b90565b6106d3565b6106ce565b5190565b60209181520190565b60200190565b610e4e90610727565b9052565b610e7f9160206040820192610e6f60008201516000850190610e45565b0151906020818403910152610a78565b90565b90610e8c91610e52565b90565b60200190565b90610ea9610ea283610e32565b8092610e36565b9081610eba60208302840194610e3f565b926000915b838310610ece57505050505090565b90919293946020610ef0610eea83856001950387528951610e82565b97610e8f565b9301930191939290610ebf565b610f139160208201916000818403910152610e95565b90565b34610f4757610f43610f32610f2c366004610dee565b9061539f565b610f3a6106c3565b91829182610efd565b0390f35b6106c9565b60018060401b038111610f625760208091020190565b610864565b600080fd5b600080fd5b60ff1690565b610f8081610f71565b03610f8757565b600080fd5b90503590610f9982610f77565b565b60018060401b038111610fb15760208091020190565b610864565b90929192610fcb610fc682610f9b565b6108a1565b938185526020808601920283019281841161100857915b838310610fef5750505050565b60208091610ffd84866106f9565b815201920191610fe2565b6108d1565b9080601f8301121561102b5781602061102893359101610fb6565b90565b610855565b9190916060818403126110945761104760606108a1565b9261105581600084016107b0565b60008501526110678160208401610f8c565b6020850152604082013560018060401b03811161108f57611088920161100d565b6040830152565b610f6c565b610f67565b9291906110ad6110a882610f4c565b6108a1565b93818552602080860192028101918383116111025781905b8382106110d3575050505050565b813560018060401b0381116110fd576020916110f28784938701611030565b8152019101906110c5565b610855565b6108d1565b9080601f830112156111255781602061112293359101611099565b90565b610855565b9160608383031261118b57600083013560018060401b0381116111865782611153918501611107565b9261116183602083016107b0565b92604082013560018060401b0381116111815761117e920161093e565b90565b6106d3565b6106d3565b6106ce565b346111b9576111a036600461112a565b5050506111ab6106c3565b806111b581610821565b0390f35b6106c9565b90565b6111ca906111be565b9052565b6111f36112009492936111e960608401956000850190610a26565b60208301906111c1565b6040818403910152610e95565b90565b346112365761123261121e6112193660046109f2565b6153b1565b6112299391936106c3565b938493846111ce565b0390f35b6106c9565b919061124f906000602085019401906111c1565b565b3461128157611261366004610c14565b61127d61126c6153cf565b6112746106c3565b9182918261123b565b0390f35b6106c9565b91906040838203126112af57806112a36112ac9260008601610c84565b936020016107d7565b90565b6106ce565b346112dc576112c4366004611286565b50506112ce6106c3565b806112d881610821565b0390f35b6106c9565b9091606082840312611317576113146112fd8460008501610c84565b9361130b81602086016107d7565b93604001610ddf565b90565b6106ce565b3461134d576113496113386113323660046112e1565b916153da565b6113406106c3565b91829182610c24565b0390f35b6106c9565b61135b816111be565b0361136257565b600080fd5b9050359061137482611352565b565b91906101008382031261142057611419906113926101006108a1565b936113a08260008301610c84565b60008601526113b28260208301610ddf565b60208601526113c48260408301610ddf565b60408601526113d682606083016107d7565b60608601526113e882608083016107d7565b60808601526113fa8260a08301610ddf565b60a086015261140c8260c083016107d7565b60c086015260e001611367565b60e0830152565b610f67565b90610100828203126114405761143d91600001611376565b90565b6106ce565b5190565b60209181520190565b60200190565b611461906111be565b9052565b60018060801b031690565b61147990611465565b9052565b611486906107bf565b9052565b60018060401b031690565b61149e9061148a565b9052565b63ffffffff1690565b6114b4906114a2565b9052565b6114c190610f71565b9052565b6114ce9061078f565b9052565b60018060601b031690565b6114e6906114d2565b9052565b6114f390610bb5565b9052565b906102e0806116c69361151260008201516000860190611458565b61152460208201516020860190611470565b61153660408201516040860190611470565b6115486060820151606086019061147d565b61155a6080820151608086019061147d565b61156c60a082015160a0860190610e45565b61157e60c082015160c0860190610e45565b61159060e082015160e0860190610e45565b6115a4610100820151610100860190610e45565b6115b8610120820151610120860190610e45565b6115cc610140820151610140860190611495565b6115e0610160820151610160860190611495565b6115f4610180820151610180860190611495565b6116086101a08201516101a08601906114ab565b61161c6101c08201516101c08601906114b8565b6116306101e08201516101e08601906114c5565b6116446102008201516102008601906114dd565b61165861022082015161022086019061147d565b61166c610240820151610240860190610e45565b611680610260820151610260860190610e45565b6116946102808201516102808601906114ea565b6116a86102a08201516102a08601906114dd565b6116bc6102c08201516102c0860190611470565b01519101906114b8565b565b906116d681610300936114f7565b0190565b60200190565b906116fd6116f76116f084611445565b8093611449565b92611452565b9060005b81811061170e5750505090565b90919261172761172160019286516116c8565b946116da565b9101919091611701565b61174791602082019160008184039101526116e0565b90565b3461177a57611776611765611760366004611425565b6153ed565b61176d6106c3565b91829182611731565b0390f35b6106c9565b6117888161148a565b0361178f57565b600080fd5b905035906117a18261177f565b565b6117ac81611465565b036117b357565b600080fd5b905035906117c5826117a3565b565b9190610360838203126119ed576119e5906117e36103606108a1565b936117f18260008301610f8c565b600086015261180382602083016107d7565b602086015261181582604083016107d7565b604086015261182782606083016107d7565b60608601526118398260808301610c84565b608086015261184b8260a08301610ddf565b60a086015261185d8260c08301610ddf565b60c086015261186f8260e08301610ddf565b60e0860152611882826101008301610ddf565b6101008601526118968261012083016107d7565b6101208601526118aa8261014083016107d7565b6101408601526118be8261016083016107d7565b6101608601526118d28261018083016107d7565b6101808601526118e6826101a083016107d7565b6101a08601526118fa826101c083016107d7565b6101c086015261190e826101e08301611794565b6101e08601526119228261020083016107b0565b610200860152611936826102208301610ddf565b61022086015261194a826102408301610f8c565b61024086015261195e826102608301611794565b610260860152611972826102808301611367565b610280860152611986826102a08301610f8c565b6102a086015261199a826102c08301610ddf565b6102c08601526119ae826102e08301610ddf565b6102e08601526119c2826103008301610ddf565b6103008601526119d6826103208301610ddf565b610320860152610340016117b8565b610340830152565b610f67565b9061036082820312611a0d57611a0a916000016117c7565b90565b6106ce565b90565b611a1e90611a12565b9052565b9190611a3690600060208501940190611a15565b565b34611a6857611a64611a53611a4e3660046119f2565b6153fe565b611a5b6106c3565b91829182611a22565b0390f35b6106c9565b608081830312611aaf57611a8482600083016107b0565b92611aac611a958460208501610c84565b93611aa38160408601610ddf565b936060016107d7565b90565b6106ce565b611abd90610f71565b9052565b9190611ad590600060208501940190611ab4565b565b34611b0b57611b07611af6611aed366004611a6d565b9291909161540f565b611afe6106c3565b91829182611ac1565b0390f35b6106c9565b90602082820312611b2a57611b2791600001611367565b90565b6106ce565b34611b5657611b3f366004611b10565b50611b486106c3565b80611b5281610821565b0390f35b6106c9565b611b6481611a12565b03611b6b57565b600080fd5b90503590611b7d82611b5b565b565b608081830312611bc157611b968260008301610c84565b92611bbe611ba784602085016107d7565b93611bb58160408601611b70565b93606001610ddf565b90565b6106ce565b34611bfa57611bf6611be5611bdc366004611b7f565b9291909161541e565b611bed6106c3565b91829182611a22565b0390f35b6106c9565b611c089061078f565b9052565b9190611c2090600060208501940190611bff565b565b34611c5257611c4e611c3d611c38366004611b10565b615432565b611c456106c3565b91829182611c0c565b0390f35b6106c9565b34611c8757611c83611c72611c6d366004610c93565b61543e565b611c7a6106c3565b91829182611c0c565b0390f35b6106c9565b9190604083820312611cb55780611ca9611cb292600086016107b0565b936020016107d7565b90565b6106ce565b34611ce257611cca366004611c8c565b5050611cd46106c3565b80611cde81610821565b0390f35b6106c9565b919060e083820312611d7d57611d7690611d0160e06108a1565b93611d0f8260008301610c84565b6000860152611d2182602083016107b0565b6020860152611d338260408301611b70565b6040860152611d4582606083016107d7565b6060860152611d5782608083016107d7565b6080860152611d698260a08301611b70565b60a086015260c001610ddf565b60c0830152565b610f67565b9060e082820312611d9c57611d9991600001611ce7565b90565b6106ce565b611daa90611a12565b9052565b60018060481b031690565b611dc290611dae565b9052565b9061010080611e6993611de16000820151600086019061147d565b611df36020820151602086019061147d565b611e0560408201516040860190611da1565b611e1760608201516060860190611da1565b611e296080820151608086019061147d565b611e3b60a082015160a0860190610e45565b611e4d60c082015160c08601906114ab565b611e5f60e082015160e08601906114ea565b0151910190611db9565b565b9190611e809060006101208501940190611dc6565b565b34611eb257611eae611e9d611e98366004611d82565b6154fb565b611ea56106c3565b91829182611e6b565b0390f35b6106c9565b34611ee757611ec7366004610c14565b611ee3611ed2615507565b611eda6106c3565b91829182610c24565b0390f35b6106c9565b34611f1457611efc366004611286565b5050611f066106c3565b80611f1081610821565b0390f35b6106c9565b919091604081840312611f5857611f338360008301610c84565b92602082013560018060401b038111611f5357611f50920161093e565b90565b6106d3565b6106ce565b34611f8557611f6d366004611f19565b5050611f776106c3565b80611f8181610821565b0390f35b6106c9565b90602082820312611fa457611fa1916000016107b0565b90565b6106ce565b34611fd957611fd5611fc4611fbf366004611f8a565b615512565b611fcc6106c3565b91829182610c24565b0390f35b6106c9565b60808183031261202057611ff58260008301610c84565b9261201d61200684602085016107d7565b9361201481604086016107d7565b93606001610ddf565b90565b6106ce565b5190565b60209181520190565b60200190565b90612045816020936114c5565b0190565b60200190565b9061206c61206661205f84612025565b8093612029565b92612032565b9060005b81811061207d5750505090565b9091926120966120906001928651612038565b94612049565b9101919091612070565b6120b6916020820191600081840391015261204f565b90565b346120ed576120e96120d86120cf366004611fde565b92919091615523565b6120e06106c3565b918291826120a0565b0390f35b6106c9565b6120fb816114a2565b0361210257565b600080fd5b90503590612114826120f2565b565b61211f816114d2565b0361212657565b600080fd5b9050359061213882612116565b565b9190610300838203126123245761231c906121566103006108a1565b936121648260008301611367565b600086015261217682602083016117b8565b602086015261218882604083016117b8565b604086015261219a82606083016107d7565b60608601526121ac82608083016107d7565b60808601526121be8260a08301610ddf565b60a08601526121d08260c08301610ddf565b60c08601526121e28260e08301610ddf565b60e08601526121f5826101008301610ddf565b610100860152612209826101208301610ddf565b61012086015261221d826101408301611794565b610140860152612231826101608301611794565b610160860152612245826101808301611794565b610180860152612259826101a08301612107565b6101a086015261226d826101c08301610f8c565b6101c0860152612281826101e083016107b0565b6101e086015261229582610200830161212b565b6102008601526122a98261022083016107d7565b6102208601526122bd826102408301610ddf565b6102408601526122d1826102608301610ddf565b6102608601526122e5826102808301610c84565b6102808601526122f9826102a0830161212b565b6102a086015261230d826102c083016117b8565b6102c08601526102e001610f8c565b6102e0830152565b610f67565b91906103608382031261254f57612547906123456103606108a1565b936123538260008301610f8c565b600086015261236582602083016107d7565b602086015261237782604083016107d7565b604086015261238982606083016107d7565b606086015261239b8260808301610c84565b60808601526123ad8260a08301610ddf565b60a08601526123bf8260c08301610ddf565b60c08601526123d18260e08301610ddf565b60e08601526123e4826101008301610ddf565b6101008601526123f88261012083016107d7565b61012086015261240c8261014083016107d7565b6101408601526124208261016083016107d7565b6101608601526124348261018083016107d7565b610180860152612448826101a083016107d7565b6101a086015261245c826101c083016107d7565b6101c0860152612470826101e08301611794565b6101e08601526124848261020083016107b0565b610200860152612498826102208301610ddf565b6102208601526124ac826102408301610f8c565b6102408601526124c0826102608301611794565b6102608601526124d4826102808301611367565b6102808601526124e8826102a08301610f8c565b6102a08601526124fc826102c08301610ddf565b6102c0860152612510826102e08301610ddf565b6102e0860152612524826103008301610ddf565b610300860152612538826103208301610ddf565b610320860152610340016117b8565b610340830152565b610f67565b91906106608382031261257f578061257261257c926000860161213a565b9361030001612329565b90565b6106ce565b346125ac57612594366004612554565b505061259e6106c3565b806125a881610821565b0390f35b6106c9565b346125d8576125c1366004611f8a565b506125ca6106c3565b806125d481610821565b0390f35b6106c9565b34612605576125ed366004611f19565b50506125f76106c3565b8061260181610821565b0390f35b6106c9565b3461263a5761261a366004610c14565b612636612625615532565b61262d6106c3565b918291826120a0565b0390f35b6106c9565b919060a083820312612691576126588160008501610c84565b9261266682602083016107b0565b9261268e61267784604085016107d7565b9361268581606086016107d7565b93608001610ddf565b90565b6106ce565b346126ca576126c66126b56126ac36600461263f565b9392909261553d565b6126bd6106c3565b91829182611a22565b0390f35b6106c9565b60018060401b0381116126eb576126e760209161085a565b0190565b610864565b90929192612705612700826126cf565b6108a1565b938185526020850190828401116127215761271f926108fc565b565b6108d6565b9080601f8301121561274457816020612741933591016126f0565b90565b610855565b9190610180838203126128435761283b906127656101806108a1565b936127738260008301610ddf565b60008601526127858260208301610ddf565b60208601526127978260408301610ddf565b60408601526127a98260608301610ddf565b60608601526127bb8260808301610c84565b60808601526127cd8260a08301610c84565b60a08601526127df8260c08301610c84565b60c08601526127f18260e08301610c84565b60e0860152612804826101008301610c84565b610100860152612818826101208301610c84565b61012086015261282c826101408301610c84565b61014086015261016001612107565b610160830152565b610f67565b91610220838303126128ec57600083013560018060401b0381116128e75782612872918501612726565b9261288083602083016107b0565b9261288e81604084016107d7565b9261289c8260608501612749565b926101e081013560018060401b0381116128e257836128bc91830161093e565b9261020082013560018060401b0381116128dd576128da920161093e565b90565b6106d3565b6106d3565b6106d3565b6106ce565b3461292857612924612913612907366004612848565b9493909392919261554d565b61291b6106c3565b91829182610bc9565b0390f35b6106c9565b346129545761293d366004610c93565b506129466106c3565b8061295081610821565b0390f35b6106c9565b3461298157612969366004611286565b50506129736106c3565b8061297d81610821565b0390f35b6106c9565b346129b657612996366004610c14565b6129b26129a161555e565b6129a96106c3565b91829182611c0c565b0390f35b6106c9565b5190565b60209181520190565b60200190565b906129db8160209361147d565b0190565b60200190565b90612a026129fc6129f5846129bb565b80936129bf565b926129c8565b9060005b818110612a135750505090565b909192612a2c612a2660019286516129ce565b946129df565b9101919091612a06565b5190565b60209181520190565b60200190565b90612a5681602093611da1565b0190565b60200190565b90612a7d612a77612a7084612a36565b8093612a3a565b92612a43565b9060005b818110612a8e5750505090565b909192612aa7612aa16001928651612a49565b94612a5a565b9101919091612a81565b91612ade90612ad0612aec9593606086019086820360008801526129e5565b908482036020860152612a60565b916040818403910152612a60565b90565b34612b2257612b1e612b0a612b05366004610c93565b615573565b612b159391936106c3565b93849384612ab1565b0390f35b6106c9565b9190604083820312612b505780612b44612b4d9260008601610c84565b93602001610ddf565b90565b6106ce565b34612b8657612b82612b71612b6b366004612b27565b90615591565b612b796106c3565b91829182610c24565b0390f35b6106c9565b9061010080612c2e93612ba66000820151600086019061147d565b612bb86020820151602086019061147d565b612bca60408201516040860190611da1565b612bdc60608201516060860190611da1565b612bee6080820151608086019061147d565b612c0060a082015160a0860190610e45565b612c1260c082015160c08601906114ab565b612c2460e082015160e08601906114ea565b0151910190611db9565b565b9190612c459060006101208501940190612b8b565b565b34612c7857612c74612c63612c5d366004612b27565b90615631565b612c6b6106c3565b91829182612c30565b0390f35b6106c9565b34612ca357612c8d366004610c14565b612c956106c3565b80612c9f81610821565b0390f35b6106c9565b34612cd057612cb8366004612554565b5050612cc26106c3565b80612ccc81610821565b0390f35b6106c9565b60018060401b038111612ceb5760208091020190565b610864565b919061036083820312612f1657612f0e90612d0c6103606108a1565b93612d1a8260008301610f8c565b6000860152612d2c82602083016107d7565b6020860152612d3e82604083016107d7565b6040860152612d5082606083016107d7565b6060860152612d628260808301610c84565b6080860152612d748260a08301610ddf565b60a0860152612d868260c08301610ddf565b60c0860152612d988260e08301610ddf565b60e0860152612dab826101008301610ddf565b610100860152612dbf8261012083016107d7565b610120860152612dd38261014083016107d7565b610140860152612de78261016083016107d7565b610160860152612dfb8261018083016107d7565b610180860152612e0f826101a083016107d7565b6101a0860152612e23826101c083016107d7565b6101c0860152612e37826101e08301611794565b6101e0860152612e4b8261020083016107b0565b610200860152612e5f826102208301610ddf565b610220860152612e73826102408301610f8c565b610240860152612e87826102608301611794565b610260860152612e9b826102808301611367565b610280860152612eaf826102a08301610f8c565b6102a0860152612ec3826102c08301610ddf565b6102c0860152612ed7826102e08301610ddf565b6102e0860152612eeb826103008301610ddf565b610300860152612eff826103208301610ddf565b610320860152610340016117b8565b610340830152565b610f67565b90929192612f30612f2b82612cd5565b6108a1565b93818552610360602086019202830192818411612f7157915b838310612f565750505050565b602061036091612f668486612cf0565b815201920191612f49565b6108d1565b9080601f83011215612f9457816020612f9193359101612f1b565b90565b610855565b90602082820312612fc857600082013560018060401b038111612fc357612fc09201612f76565b90565b6106d3565b6106ce565b34612ffd57612ff9612fe8612fe3366004612f99565b61563e565b612ff06106c3565b91829182611731565b0390f35b6106c9565b346130335761302f61301e613018366004612b27565b9061564a565b6130266106c3565b91829182611a22565b0390f35b6106c9565b91602061305a92949361305360408201966000830190610a26565b0190610a26565b565b3461308d5761307461306f366004610c93565b615657565b906130896130806106c3565b92839283613038565b0390f35b6106c9565b90916060828403126130c8576130c56130ae84600085016107b0565b936130bc81602086016107b0565b93604001610ddf565b90565b6106ce565b346130fe576130fa6130e96130e3366004613092565b9161566c565b6130f16106c3565b91829182610c24565b0390f35b6106c9565b919061036083820312613329576133219061311f6103606108a1565b9361312d8260008301610f8c565b600086015261313f82602083016107d7565b602086015261315182604083016107d7565b604086015261316382606083016107d7565b60608601526131758260808301610c84565b60808601526131878260a08301610ddf565b60a08601526131998260c08301610ddf565b60c08601526131ab8260e08301610ddf565b60e08601526131be826101008301610ddf565b6101008601526131d28261012083016107d7565b6101208601526131e68261014083016107d7565b6101408601526131fa8261016083016107d7565b61016086015261320e8261018083016107d7565b610180860152613222826101a083016107d7565b6101a0860152613236826101c083016107d7565b6101c086015261324a826101e08301611794565b6101e086015261325e8261020083016107b0565b610200860152613272826102208301610ddf565b610220860152613286826102408301610f8c565b61024086015261329a826102608301611794565b6102608601526132ae826102808301611367565b6102808601526132c2826102a08301610f8c565b6102a08601526132d6826102c08301610ddf565b6102c08601526132ea826102e08301610ddf565b6102e08601526132fe826103008301610ddf565b610300860152613312826103208301610ddf565b610320860152610340016117b8565b610340830152565b610f67565b90610360828203126133495761334691600001613103565b90565b6106ce565b61335936600461332e565b506133626106c3565b8061336c81610821565b0390f35b90916060828403126133a6576133a361338c8460008501610c84565b9361339a8160208601610ddf565b93604001611b70565b90565b6106ce565b346133d4576133bb366004613370565b5050506133c66106c3565b806133d081610821565b0390f35b6106c9565b34613401576133e9366004611c8c565b50506133f36106c3565b806133fd81610821565b0390f35b6106c9565b919061018083820312613500576134f8906134226101806108a1565b936134308260008301610ddf565b60008601526134428260208301610ddf565b60208601526134548260408301610ddf565b60408601526134668260608301610ddf565b60608601526134788260808301610c84565b608086015261348a8260a08301610c84565b60a086015261349c8260c08301610c84565b60c08601526134ae8260e08301610c84565b60e08601526134c1826101008301610c84565b6101008601526134d5826101208301610c84565b6101208601526134e9826101408301610c84565b61014086015261016001612107565b610160830152565b610f67565b91906101a08382031261352f578061352361352c9260008601610c84565b93602001613406565b90565b6106ce565b3461355c57613544366004613505565b505061354e6106c3565b8061355881610821565b0390f35b6106c9565b90610160806136409361357c60008201516000860190610e45565b61358e60208201516020860190610e45565b6135a060408201516040860190610e45565b6135b260608201516060860190610e45565b6135c4608082015160808601906114ea565b6135d660a082015160a08601906114ea565b6135e860c082015160c08601906114ea565b6135fa60e082015160e08601906114ea565b61360e6101008201516101008601906114ea565b6136226101208201516101208601906114ea565b6136366101408201516101408601906114ea565b01519101906114ab565b565b91906136579060006101808501940190613561565b565b346136895761368561367461366f366004610c93565b615731565b61367c6106c3565b91829182613642565b0390f35b6106c9565b5190565b60209181520190565b60200190565b5190565b60209181520190565b60200190565b6136bd906106d8565b9052565b906136ce816020936136b4565b0190565b60200190565b906136f56136ef6136e8846136a1565b80936136a5565b926136ae565b9060005b8181106137065750505090565b90919261371f61371960019286516136c1565b946136d2565b91019190916136f9565b6137569160206040820192613746600082015160008501906114c5565b01519060208184039101526136d8565b90565b9061376391613729565b90565b60200190565b906137806137798361368e565b8092613692565b90816137916020830284019461369b565b926000915b8383106137a557505050505090565b909192939460206137c76137c183856001950387528951613759565b97613766565b9301930191939290613796565b6137ea916020820191600081840391015261376c565b90565b3461381d576137fd366004610c14565b613819613808615742565b6138106106c3565b918291826137d4565b0390f35b6106c9565b3461384957613832366004611f8a565b5061383b6106c3565b8061384581610821565b0390f35b6106c9565b919060a0838203126138a05761386781600085016107b0565b926138758260208301610c84565b9261389d6138868460408501610ddf565b9361389481606086016107d7565b93608001610ddf565b90565b6106ce565b346138d9576138d56138c46138bb36600461384e565b9392909261574d565b6138cc6106c3565b91829182611731565b0390f35b6106c9565b9091606082840312613914576139116138fa84600085016107d7565b9361390881602086016107d7565b936040016107d7565b90565b6106ce565b34613942576139293660046138de565b5050506139346106c3565b8061393e81610821565b0390f35b6106c9565b9190604083820312613970578061396461396d9260008601610c84565b936020016107b0565b90565b6106ce565b346139a75761398e613988366004613947565b9061575d565b906139a361399a6106c3565b92839283613038565b0390f35b6106c9565b346139dc576139bc366004610c14565b6139d86139c7615773565b6139cf6106c3565b91829182610c24565b0390f35b6106c9565b9190604083820312613a0a57806139fe613a0792600086016107b0565b93602001611367565b90565b6106ce565b34613a3757613a1f3660046139e1565b5050613a296106c3565b80613a3381610821565b0390f35b6106c9565b34613a6d57613a69613a58613a52366004613947565b9061577e565b613a606106c3565b91829182610739565b0390f35b6106c9565b608081830312613ab457613a898260008301610c84565b92613ab1613a9a84602085016107b0565b93613aa881604086016107d7565b93606001610ddf565b90565b6106ce565b34613aed57613ae9613ad8613acf366004613a72565b9291909161578b565b613ae06106c3565b91829182612c30565b0390f35b6106c9565b9061010080613b9593613b0d6000820151600086019061147d565b613b1f6020820151602086019061147d565b613b3160408201516040860190611da1565b613b4360608201516060860190611da1565b613b556080820151608086019061147d565b613b6760a082015160a0860190610e45565b613b7960c082015160c08601906114ab565b613b8b60e082015160e08601906114ea565b0151910190611db9565b565b9061010080613c3a93613bb26000820151600086019061147d565b613bc46020820151602086019061147d565b613bd660408201516040860190611da1565b613be860608201516060860190611da1565b613bfa6080820151608086019061147d565b613c0c60a082015160a0860190610e45565b613c1e60c082015160c08601906114ab565b613c3060e082015160e08601906114ea565b0151910190611db9565b565b91610120613c60929493613c596102408201966000830190613af2565b0190613b97565b565b34613c9457613c7b613c75366004613947565b906158c0565b90613c90613c876106c3565b92839283613c3c565b0390f35b6106c9565b909161018082840312613d5257613cb38360008401610ddf565b92613cc18160208501610ddf565b92613ccf8260408301610ddf565b92613cdd8360608401610ddf565b92613ceb8160808501610c84565b92613cf98260a08301610c84565b92613d078360c08401610c84565b92613d158160e08501610c84565b92613d24826101008301610c84565b92613d4f613d36846101208501610c84565b93613d45816101408601610c84565b9361016001612107565b90565b6106ce565b9061016080613e3693613d7260008201516000860190610e45565b613d8460208201516020860190610e45565b613d9660408201516040860190610e45565b613da860608201516060860190610e45565b613dba608082015160808601906114ea565b613dcc60a082015160a08601906114ea565b613dde60c082015160c08601906114ea565b613df060e082015160e08601906114ea565b613e046101008201516101008601906114ea565b613e186101208201516101208601906114ea565b613e2c6101408201516101408601906114ea565b01519101906114ab565b565b9190613e4d9060006101808501940190613d57565b565b34613e8f57613e8b613e7a613e65366004613c99565b9a99909998919897929796939695949561598d565b613e826106c3565b91829182613e38565b0390f35b6106c9565b34613ec457613ea4366004610c14565b613ec0613eaf6159a4565b613eb76106c3565b91829182611c0c565b0390f35b6106c9565b9091606082840312613eff57613efc613ee58460008501610c84565b93613ef38160208601610f8c565b936040016107d7565b90565b6106ce565b34613f2d57613f14366004613ec9565b505050613f1f6106c3565b80613f2981610821565b0390f35b6106c9565b34613f6657613f62613f51613f48366004613a72565b929190916159af565b613f596106c3565b91829182611e6b565b0390f35b6106c9565b613f8191602082019160008184039101526129e5565b90565b34613fb457613fb0613f9f613f9a366004610c93565b6159be565b613fa76106c3565b91829182613f6b565b0390f35b6106c9565b34613fea57613fd1613fcc366004610c93565b6159ca565b90613fe6613fdd6106c3565b92839283613038565b0390f35b6106c9565b3461401f57613fff366004610c14565b61401b61400a6159df565b6140126106c3565b91829182611c0c565b0390f35b6106c9565b909160608284031261405a576140576140408460008501610c84565b9361404e81602086016107d7565b936040016107d7565b90565b6106ce565b346140885761406f366004614024565b50505061407a6106c3565b8061408481610821565b0390f35b6106c9565b60018060401b0381116140a35760208091020190565b610864565b909291926140bd6140b88261408d565b6108a1565b93818552602080860192028301928184116140fa57915b8383106140e15750505050565b602080916140ef8486610c84565b8152019201916140d4565b6108d1565b9080601f8301121561411d5781602061411a933591016140a8565b90565b610855565b60018060401b0381116141385760208091020190565b610864565b9092919261415261414d82614122565b6108a1565b938185526020808601920283019281841161418f57915b8383106141765750505050565b6020809161418484866107d7565b815201920191614169565b6108d1565b9080601f830112156141b2578160206141af9335910161413d565b90565b610855565b91909160408184031261420c57600081013560018060401b03811161420757836141e29183016140ff565b92602082013560018060401b038111614202576141ff9201614194565b90565b6106d3565b6106d3565b6106ce565b34614239576142213660046141b7565b505061422b6106c3565b8061423581610821565b0390f35b6106c9565b346142675761424e366004614024565b5050506142596106c3565b8061426381610821565b0390f35b6106c9565b60209181520190565b9061429261428c614285846136a1565b809361426c565b926136ae565b9060005b8181106142a35750505090565b9091926142bc6142b660019286516136c1565b946136d2565b9101919091614296565b6142dc9160208201916000818403910152614275565b90565b3461430f5761430b6142fa6142f5366004611f8a565b6159ef565b6143026106c3565b918291826142c6565b0390f35b6106c9565b346143445761434061432f61432a366004611f8a565b6159fb565b6143376106c3565b91829182611a22565b0390f35b6106c9565b346143795761437561436461435f366004610c93565b615a07565b61436c6106c3565b91829182610c24565b0390f35b6106c9565b346143ae5761438e366004610c14565b6143aa614399615a13565b6143a16106c3565b91829182611ac1565b0390f35b6106c9565b346143e4576143e06143cf6143c9366004612b27565b90615a1e565b6143d76106c3565b91829182610c24565b0390f35b6106c9565b34614411576143f9366004611286565b50506144036106c3565b8061440d81610821565b0390f35b6106c9565b3461444657614426366004610c14565b614442614431615a2b565b6144396106c3565b91829182611c0c565b0390f35b6106c9565b346144725761445b366004611f8a565b506144646106c3565b8061446e81610821565b0390f35b6106c9565b346144ab576144a761449361448d366004610dee565b90615a36565b61449e9391936106c3565b938493846111ce565b0390f35b6106c9565b346144e0576144dc6144cb6144c6366004610c93565b615a55565b6144d36106c3565b91829182610739565b0390f35b6106c9565b919060a08382031261455757614550906144ff60a06108a1565b9361450d8260008301612107565b600086015261451f8260208301612107565b60208601526145318260408301612107565b60408601526145438260608301612107565b6060860152608001612107565b6080830152565b610f67565b9060a08282031261457657614573916000016144e5565b90565b6106ce565b346145a25761458b36600461455c565b506145946106c3565b8061459e81610821565b0390f35b6106c9565b346145d7576145d36145c26145bd366004610708565b615a61565b6145ca6106c3565b91829182611c0c565b0390f35b6106c9565b3461460c576146086145f76145f2366004610c93565b615a6d565b6145ff6106c3565b91829182610c24565b0390f35b6106c9565b346146415761463d61462c614627366004610c93565b615a79565b6146346106c3565b91829182611a22565b0390f35b6106c9565b909160608284031261467c576146796146628460008501610c84565b9361467081602086016107b0565b936040016107d7565b90565b6106ce565b346146aa57614691366004614646565b50505061469c6106c3565b806146a681610821565b0390f35b6106c9565b346146e1576146c86146c2366004613947565b90615a85565b906146dd6146d46106c3565b92839283613038565b0390f35b6106c9565b34614717576147136147026146fc366004612b27565b90615a9b565b61470a6106c3565b91829182610c24565b0390f35b6106c9565b346147435761472c366004610b81565b506147356106c3565b8061473f81610821565b0390f35b6106c9565b3461477857614758366004610c14565b614774614763615aa8565b61476b6106c3565b91829182611c0c565b0390f35b6106c9565b91906040838203126147a6578061479a6147a39260008601611367565b936020016107b0565b90565b6106ce565b346147d3576147bb36600461477d565b50506147c56106c3565b806147cf81610821565b0390f35b6106c9565b346147ff576147e8366004611b10565b506147f16106c3565b806147fb81610821565b0390f35b6106c9565b3461482b57614814366004610c93565b5061481d6106c3565b8061482781610821565b0390f35b6106c9565b3461485857614840366004611286565b505061484a6106c3565b8061485481610821565b0390f35b6106c9565b3461488d5761486d366004610c14565b614889614878615ab3565b6148806106c3565b91829182610cec565b0390f35b6106c9565b346148ba576148a236600461477d565b50506148ac6106c3565b806148b681610821565b0390f35b6106c9565b906020828203126148d9576148d6916000016107d7565b90565b6106ce565b3461490e5761490a6148f96148f43660046148bf565b615abe565b6149016106c3565b9182918261123b565b0390f35b6106c9565b919060c083820312614997576149909061492d60c06108a1565b9361493b8260008301610c84565b600086015261494d82602083016107b0565b602086015261495f8260408301611b70565b604086015261497182606083016107d7565b60608601526149838260808301611b70565b608086015260a001610ddf565b60a0830152565b610f67565b9060c0828203126149b6576149b391600001614913565b90565b6106ce565b346149eb576149e76149d66149d136600461499c565b615aca565b6149de6106c3565b91829182611e6b565b0390f35b6106c9565b34614a2157614a1d614a0c614a06366004611c8c565b90615ad6565b614a146106c3565b91829182610cec565b0390f35b6106c9565b919061036083820312614c4c57614c4490614a426103606108a1565b93614a508260008301610f8c565b6000860152614a6282602083016107d7565b6020860152614a7482604083016107d7565b6040860152614a8682606083016107d7565b6060860152614a988260808301610c84565b6080860152614aaa8260a08301610ddf565b60a0860152614abc8260c08301610ddf565b60c0860152614ace8260e08301610ddf565b60e0860152614ae1826101008301610ddf565b610100860152614af58261012083016107d7565b610120860152614b098261014083016107d7565b610140860152614b1d8261016083016107d7565b610160860152614b318261018083016107d7565b610180860152614b45826101a083016107d7565b6101a0860152614b59826101c083016107d7565b6101c0860152614b6d826101e08301611794565b6101e0860152614b818261020083016107b0565b610200860152614b95826102208301610ddf565b610220860152614ba9826102408301610f8c565b610240860152614bbd826102608301611794565b610260860152614bd1826102808301611367565b610280860152614be5826102a08301610f8c565b6102a0860152614bf9826102c08301610ddf565b6102c0860152614c0d826102e08301610ddf565b6102e0860152614c21826103008301610ddf565b610300860152614c35826103208301610ddf565b610320860152610340016117b8565b610340830152565b610f67565b614c5a81611dae565b03614c6157565b600080fd5b90503590614c7382614c51565b565b919061012083820312614d3357614d2b90614c916101206108a1565b93614c9f82600083016107d7565b6000860152614cb182602083016107d7565b6020860152614cc38260408301611b70565b6040860152614cd58260608301611b70565b6060860152614ce782608083016107d7565b6080860152614cf98260a08301610ddf565b60a0860152614d0b8260c08301612107565b60c0860152614d1d8260e08301610c84565b60e086015261010001614c66565b610100830152565b610f67565b919061048083820312614d635780614d56614d609260008601614a26565b9361036001614c75565b90565b6106ce565b92916020614d85614d8d9360408701908782036000890152612a60565b940190611a15565b565b34614dc157614da8614da2366004614d38565b90615ae3565b90614dbd614db46106c3565b92839283614d68565b0390f35b6106c9565b34614df757614dde614dd93660046109f2565b615af9565b90614df3614dea6106c3565b92839283610b24565b0390f35b6106c9565b34614e2457614e0c3660046141b7565b5050614e166106c3565b80614e2081610821565b0390f35b6106c9565b608081830312614e6b57614e408260008301610c84565b92614e68614e518460208501610ddf565b93614e5f8160408601611b70565b93606001611b70565b90565b6106ce565b34614e9a57614e80366004614e29565b50505050614e8c6106c3565b80614e9681610821565b0390f35b6106c9565b34614ec657614eaf366004611f8a565b50614eb86106c3565b80614ec281610821565b0390f35b6106c9565b9190610360838203126150f1576150e990614ee76103606108a1565b93614ef58260008301610f8c565b6000860152614f0782602083016107d7565b6020860152614f1982604083016107d7565b6040860152614f2b82606083016107d7565b6060860152614f3d8260808301610c84565b6080860152614f4f8260a08301610ddf565b60a0860152614f618260c08301610ddf565b60c0860152614f738260e08301610ddf565b60e0860152614f86826101008301610ddf565b610100860152614f9a8261012083016107d7565b610120860152614fae8261014083016107d7565b610140860152614fc28261016083016107d7565b610160860152614fd68261018083016107d7565b610180860152614fea826101a083016107d7565b6101a0860152614ffe826101c083016107d7565b6101c0860152615012826101e08301611794565b6101e08601526150268261020083016107b0565b61020086015261503a826102208301610ddf565b61022086015261504e826102408301610f8c565b610240860152615062826102608301611794565b610260860152615076826102808301611367565b61028086015261508a826102a08301610f8c565b6102a086015261509e826102c08301610ddf565b6102c08601526150b2826102e08301610ddf565b6102e08601526150c6826103008301610ddf565b6103008601526150da826103208301610ddf565b610320860152610340016117b8565b610340830152565b610f67565b60018060401b03811161510c5760208091020190565b610864565b90929192615126615121826150f6565b6108a1565b938185526020808601920283019281841161516357915b83831061514a5750505050565b602080916151588486611b70565b81520192019161513d565b6108d1565b9080601f830112156151865781602061518393359101615111565b90565b610855565b9190916105008184031261522c576151a360c06108a1565b926151b18160008401614ecb565b60008501526151c4816103608401614c75565b60208501526104808201359160018060401b038311615227576151ec82615220948301615168565b60408601526151ff826104a083016107b0565b6060860152615212826104c083016107b0565b60808601526104e001611b70565b60a0830152565b610f6c565b610f67565b9060208282031261526057600082013560018060401b03811161525b57615258920161518b565b90565b6106d3565b6106ce565b3461528c57615275366004615231565b5061527e6106c3565b8061528881610821565b0390f35b6106c9565b346152ba576152a1366004613ec9565b5050506152ac6106c3565b806152b681610821565b0390f35b6106c9565b90916060828403126152f5576152f26152db8460008501610c84565b936152e981602086016107b0565b93604001610ddf565b90565b6106ce565b346153235761530a3660046152bf565b5050506153156106c3565b8061531f81610821565b0390f35b6106c9565b600080fd5b600090565b5061533b61532d565b90565b600090565b606090565b5061535161533e565b9061535a615343565b90565b600090565b5061536b61535d565b90565b61537661533e565b90565b606090565b50615387615379565b90565b5050505050615397615379565b90565b606090565b50506153a961539a565b90565b600090565b506153ba61533e565b906153c36153ac565b906153cc61539a565b90565b6153d76153ac565b90565b5050506153e561533e565b90565b606090565b506153f66153e8565b90565b600090565b506154076153f9565b90565b600090565b5050505061541b61540a565b90565b5050505061542a6153f9565b90565b600090565b5061543b61542d565b90565b5061544761542d565b90565b6154556101206108a1565b90565b600090565b600090565b600090565b600090565b600090565b600090565b61547e61544a565b90602080808080808080808a615492615458565b81520161549d615458565b8152016154a861545d565b8152016154b361545d565b8152016154be615458565b8152016154c9615462565b8152016154d4615467565b8152016154df61546c565b8152016154ea615471565b81525050565b6154f8615476565b90565b506155046154f0565b90565b61550f61533e565b90565b5061551b61533e565b90565b606090565b5050505061552f61551e565b90565b61553a61551e565b90565b505050505061554a6153f9565b90565b50505050505061555b61535d565b90565b61556661542d565b90565b606090565b606090565b5061557c615569565b9061558561556e565b9061558e61556e565b90565b505061559b61533e565b90565b6155a96101206108a1565b90565b6155b461559e565b90602080808080808080808a6155c8615458565b8152016155d3615458565b8152016155de61545d565b8152016155e961545d565b8152016155f4615458565b8152016155ff615462565b81520161560a615467565b81520161561561546c565b815201615620615471565b81525050565b61562e6155ac565b90565b505061563b615626565b90565b506156476153e8565b90565b50506156546153f9565b90565b5061566061533e565b9061566961533e565b90565b50505061567761533e565b90565b6156856101806108a1565b90565b61569061567a565b90602080808080808080808080808d6156a7615462565b8152016156b2615462565b8152016156bd615462565b8152016156c8615462565b8152016156d361546c565b8152016156de61546c565b8152016156e961546c565b8152016156f461546c565b8152016156ff61546c565b81520161570a61546c565b81520161571561546c565b815201615720615467565b81525050565b61572e615688565b90565b5061573a615726565b90565b606090565b61574a61573d565b90565b505050505061575a6153e8565b90565b505061576761533e565b9061577061533e565b90565b61577b61533e565b90565b505061578861532d565b90565b50505050615797615626565b90565b6157a56101206108a1565b90565b6157b061579a565b90602080808080808080808a6157c4615458565b8152016157cf615458565b8152016157da61545d565b8152016157e561545d565b8152016157f0615458565b8152016157fb615462565b815201615806615467565b81520161581161546c565b81520161581c615471565b81525050565b61582a6157a8565b90565b6158386101206108a1565b90565b61584361582d565b90602080808080808080808a615857615458565b815201615862615458565b81520161586d61545d565b81520161587861545d565b815201615883615458565b81520161588e615462565b815201615899615467565b8152016158a461546c565b8152016158af615471565b81525050565b6158bd61583b565b90565b50506158ca615822565b906158d36158b5565b90565b6158e16101806108a1565b90565b6158ec6158d6565b90602080808080808080808080808d615903615462565b81520161590e615462565b815201615919615462565b815201615924615462565b81520161592f61546c565b81520161593a61546c565b81520161594561546c565b81520161595061546c565b81520161595b61546c565b81520161596661546c565b81520161597161546c565b81520161597c615467565b81525050565b61598a6158e4565b90565b5050505050505050505050506159a1615982565b90565b6159ac61542d565b90565b505050506159bb6154f0565b90565b506159c7615569565b90565b506159d361533e565b906159dc61533e565b90565b6159e761542d565b90565b606090565b506159f86159ea565b90565b50615a046153f9565b90565b50615a1061533e565b90565b615a1b61540a565b90565b5050615a2861533e565b90565b615a3361542d565b90565b5050615a4061533e565b90615a496153ac565b90615a5261539a565b90565b50615a5e61532d565b90565b50615a6a61542d565b90565b50615a7661533e565b90565b50615a826153f9565b90565b5050615a8f61533e565b90615a9861533e565b90565b5050615aa561533e565b90565b615ab061542d565b90565b615abb615379565b90565b50615ac76153ac565b90565b50615ad36154f0565b90565b5050615ae0615379565b90565b5050615aed61556e565b90615af66153f9565b90565b50615b0261533e565b90615b0b615343565b9056fea26469706673582212203ebf235ebcb68cee216fd4073efca2c84c1697183fbf09fe8ad1ec51f7c19ca664736f6c63430008180033",
  "devdoc": {
    "kind": "dev",
    "methods": {},
    "version": 1
  },
  "userdoc": {
    "kind": "user",
    "methods": {},
    "version": 1
  },
  "storageLayout": {
    "storage": [],
    "types": null
  }
}