{
  "address": "0x5e2bF43c48C4AF63b015D2cA194ebabc80caA9a2",
  "abi": [
    {
      "inputs": [
        {
          "internalType": "bytes",
          "name": "data",
          "type": "bytes"
        }
      ],
      "name": "addMarket",
      "outputs": [],
      "stateMutability": "nonpayable",
      "type": "function"
    },
    {
      "inputs": [],
      "name": "authority",
      "outputs": [
        {
          "internalType": "address",
          "name": "",
          "type": "address"
        }
      ],
      "stateMutability": "view",
      "type": "function"
    },
    {
      "inputs": [
        {
          "internalType": "address",
          "name": "market",
          "type": "address"
        },
        {
          "internalType": "address",
          "name": "account",
          "type": "address"
        },
        {
          "internalType": "bool",
          "name": "isLong",
          "type": "bool"
        }
      ],
      "name": "availableLiquidity",
      "outputs": [
        {
          "internalType": "uint256",
          "name": "",
          "type": "uint256"
        }
      ],
      "stateMutability": "view",
      "type": "function"
    },
    {
      "inputs": [
        {
          "internalType": "address",
          "name": "account",
          "type": "address"
        },
        {
          "internalType": "uint16",
          "name": "market",
          "type": "uint16"
        },
        {
          "internalType": "bool",
          "name": "isIncrease",
          "type": "bool"
        },
        {
          "internalType": "uint256",
          "name": "orderID",
          "type": "uint256"
        },
        {
          "internalType": "bool",
          "name": "isLong",
          "type": "bool"
        }
      ],
      "name": "cancelOrder",
      "outputs": [
        {
          "components": [
            {
              "internalType": "bytes32",
              "name": "refCode",
              "type": "bytes32"
            },
            {
              "internalType": "uint128",
              "name": "collateral",
              "type": "uint128"
            },
            {
              "internalType": "uint128",
              "name": "size",
              "type": "uint128"
            },
            {
              "internalType": "uint256",
              "name": "price",
              "type": "uint256"
            },
            {
              "internalType": "uint256",
              "name": "tp",
              "type": "uint256"
            },
            {
              "internalType": "bool",
              "name": "triggerAbove",
              "type": "bool"
            },
            {
              "internalType": "bool",
              "name": "isFromMarket",
              "type": "bool"
            },
            {
              "internalType": "bool",
              "name": "isKeepLev",
              "type": "bool"
            },
            {
              "internalType": "bool",
              "name": "isKeepLevTP",
              "type": "bool"
            },
            {
              "internalType": "bool",
              "name": "isKeepLevSL",
              "type": "bool"
            },
            {
              "internalType": "uint64",
              "name": "orderID",
              "type": "uint64"
            },
            {
              "internalType": "uint64",
              "name": "pairId",
              "type": "uint64"
            },
            {
              "internalType": "uint64",
              "name": "fromId",
              "type": "uint64"
            },
            {
              "internalType": "uint32",
              "name": "updatedAtBlock",
              "type": "uint32"
            },
            {
              "internalType": "uint8",
              "name": "extra0",
              "type": "uint8"
            },
            {
              "internalType": "address",
              "name": "account",
              "type": "address"
            },
            {
              "internalType": "uint96",
              "name": "extra1",
              "type": "uint96"
            },
            {
              "internalType": "uint256",
              "name": "sl",
              "type": "uint256"
            },
            {
              "internalType": "bool",
              "name": "isIncrease",
              "type": "bool"
            },
            {
              "internalType": "bool",
              "name": "isLong",
              "type": "bool"
            },
            {
              "internalType": "uint16",
              "name": "market",
              "type": "uint16"
            },
            {
              "internalType": "uint96",
              "name": "extra2",
              "type": "uint96"
            },
            {
              "internalType": "uint128",
              "name": "gas",
              "type": "uint128"
            },
            {
              "internalType": "uint8",
              "name": "version",
              "type": "uint8"
            }
          ],
          "internalType": "struct DummyDiamondImplementation.Tuple564566[]",
          "name": "_orders",
          "type": "tuple[]"
        }
      ],
      "stateMutability": "nonpayable",
      "type": "function"
    },
    {
      "inputs": [
        {
          "internalType": "uint16",
          "name": "marketId",
          "type": "uint16"
        }
      ],
      "name": "containsMarket",
      "outputs": [
        {
          "internalType": "bool",
          "name": "",
          "type": "bool"
        }
      ],
      "stateMutability": "view",
      "type": "function"
    },
    {
      "inputs": [
        {
          "components": [
            {
              "internalType": "address",
              "name": "facetAddress",
              "type": "address"
            },
            {
              "internalType": "uint8",
              "name": "action",
              "type": "uint8"
            },
            {
              "internalType": "bytes4[]",
              "name": "functionSelectors",
              "type": "bytes4[]"
            }
          ],
          "internalType": "struct DummyDiamondImplementation.Tuple6871229[]",
          "name": "_diamondCut",
          "type": "tuple[]"
        },
        {
          "internalType": "address",
          "name": "_init",
          "type": "address"
        },
        {
          "internalType": "bytes",
          "name": "_calldata",
          "type": "bytes"
        }
      ],
      "name": "diamondCut",
      "outputs": [],
      "stateMutability": "nonpayable",
      "type": "function"
    },
    {
      "inputs": [
        {
          "components": [
            {
              "internalType": "bytes32",
              "name": "refCode",
              "type": "bytes32"
            },
            {
              "internalType": "uint128",
              "name": "collateral",
              "type": "uint128"
            },
            {
              "internalType": "uint128",
              "name": "size",
              "type": "uint128"
            },
            {
              "internalType": "uint256",
              "name": "price",
              "type": "uint256"
            },
            {
              "internalType": "uint256",
              "name": "tp",
              "type": "uint256"
            },
            {
              "internalType": "bool",
              "name": "triggerAbove",
              "type": "bool"
            },
            {
              "internalType": "bool",
              "name": "isFromMarket",
              "type": "bool"
            },
            {
              "internalType": "bool",
              "name": "isKeepLev",
              "type": "bool"
            },
            {
              "internalType": "bool",
              "name": "isKeepLevTP",
              "type": "bool"
            },
            {
              "internalType": "bool",
              "name": "isKeepLevSL",
              "type": "bool"
            },
            {
              "internalType": "uint64",
              "name": "orderID",
              "type": "uint64"
            },
            {
              "internalType": "uint64",
              "name": "pairId",
              "type": "uint64"
            },
            {
              "internalType": "uint64",
              "name": "fromId",
              "type": "uint64"
            },
            {
              "internalType": "uint32",
              "name": "updatedAtBlock",
              "type": "uint32"
            },
            {
              "internalType": "uint8",
              "name": "extra0",
              "type": "uint8"
            },
            {
              "internalType": "address",
              "name": "account",
              "type": "address"
            },
            {
              "internalType": "uint96",
              "name": "extra1",
              "type": "uint96"
            },
            {
              "internalType": "uint256",
              "name": "sl",
              "type": "uint256"
            },
            {
              "internalType": "bool",
              "name": "isIncrease",
              "type": "bool"
            },
            {
              "internalType": "bool",
              "name": "isLong",
              "type": "bool"
            },
            {
              "internalType": "uint16",
              "name": "market",
              "type": "uint16"
            },
            {
              "internalType": "uint96",
              "name": "extra2",
              "type": "uint96"
            },
            {
              "internalType": "uint128",
              "name": "gas",
              "type": "uint128"
            },
            {
              "internalType": "uint8",
              "name": "version",
              "type": "uint8"
            }
          ],
          "internalType": "struct DummyDiamondImplementation.Tuple680644",
          "name": "order",
          "type": "tuple"
        },
        {
          "components": [
            {
              "internalType": "uint8",
              "name": "busiType",
              "type": "uint8"
            },
            {
              "internalType": "uint256",
              "name": "oraclePrice",
              "type": "uint256"
            },
            {
              "internalType": "uint256",
              "name": "pay",
              "type": "uint256"
            },
            {
              "internalType": "uint256",
              "name": "slippage",
              "type": "uint256"
            },
            {
              "internalType": "uint16",
              "name": "market",
              "type": "uint16"
            },
            {
              "internalType": "bool",
              "name": "isLong",
              "type": "bool"
            },
            {
              "internalType": "bool",
              "name": "isOpen",
              "type": "bool"
            },
            {
              "internalType": "bool",
              "name": "isCreate",
              "type": "bool"
            },
            {
              "internalType": "bool",
              "name": "isFromMarket",
              "type": "bool"
            },
            {
              "internalType": "uint256",
              "name": "sizeDelta",
              "type": "uint256"
            },
            {
              "internalType": "uint256",
              "name": "price",
              "type": "uint256"
            },
            {
              "internalType": "uint256",
              "name": "collateralDelta",
              "type": "uint256"
            },
            {
              "internalType": "uint256",
              "name": "collateral",
              "type": "uint256"
            },
            {
              "internalType": "uint256",
              "name": "tp",
              "type": "uint256"
            },
            {
              "internalType": "uint256",
              "name": "sl",
              "type": "uint256"
            },
            {
              "internalType": "uint64",
              "name": "orderId",
              "type": "uint64"
            },
            {
              "internalType": "address",
              "name": "account",
              "type": "address"
            },
            {
              "internalType": "bool",
              "name": "isExec",
              "type": "bool"
            },
            {
              "internalType": "uint8",
              "name": "liqState",
              "type": "uint8"
            },
            {
              "internalType": "uint64",
              "name": "fromOrder",
              "type": "uint64"
            },
            {
              "internalType": "bytes32",
              "name": "refCode",
              "type": "bytes32"
            },
            {
              "internalType": "uint8",
              "name": "execNum",
              "type": "uint8"
            },
            {
              "internalType": "bool",
              "name": "isKeepLev",
              "type": "bool"
            },
            {
              "internalType": "bool",
              "name": "isKeepLevTP",
              "type": "bool"
            },
            {
              "internalType": "bool",
              "name": "isKeepLevSL",
              "type": "bool"
            },
            {
              "internalType": "bool",
              "name": "triggerAbove",
              "type": "bool"
            },
            {
              "internalType": "uint128",
              "name": "gas",
              "type": "uint128"
            }
          ],
          "internalType": "struct DummyDiamondImplementation.Tuple5849784",
          "name": "_params",
          "type": "tuple"
        }
      ],
      "name": "execAddOrder",
      "outputs": [],
      "stateMutability": "nonpayable",
      "type": "function"
    },
    {
      "inputs": [
        {
          "components": [
            {
              "internalType": "bytes32",
              "name": "refCode",
              "type": "bytes32"
            },
            {
              "internalType": "uint128",
              "name": "collateral",
              "type": "uint128"
            },
            {
              "internalType": "uint128",
              "name": "size",
              "type": "uint128"
            },
            {
              "internalType": "uint256",
              "name": "price",
              "type": "uint256"
            },
            {
              "internalType": "uint256",
              "name": "tp",
              "type": "uint256"
            },
            {
              "internalType": "bool",
              "name": "triggerAbove",
              "type": "bool"
            },
            {
              "internalType": "bool",
              "name": "isFromMarket",
              "type": "bool"
            },
            {
              "internalType": "bool",
              "name": "isKeepLev",
              "type": "bool"
            },
            {
              "internalType": "bool",
              "name": "isKeepLevTP",
              "type": "bool"
            },
            {
              "internalType": "bool",
              "name": "isKeepLevSL",
              "type": "bool"
            },
            {
              "internalType": "uint64",
              "name": "orderID",
              "type": "uint64"
            },
            {
              "internalType": "uint64",
              "name": "pairId",
              "type": "uint64"
            },
            {
              "internalType": "uint64",
              "name": "fromId",
              "type": "uint64"
            },
            {
              "internalType": "uint32",
              "name": "updatedAtBlock",
              "type": "uint32"
            },
            {
              "internalType": "uint8",
              "name": "extra0",
              "type": "uint8"
            },
            {
              "internalType": "address",
              "name": "account",
              "type": "address"
            },
            {
              "internalType": "uint96",
              "name": "extra1",
              "type": "uint96"
            },
            {
              "internalType": "uint256",
              "name": "sl",
              "type": "uint256"
            },
            {
              "internalType": "bool",
              "name": "isIncrease",
              "type": "bool"
            },
            {
              "internalType": "bool",
              "name": "isLong",
              "type": "bool"
            },
            {
              "internalType": "uint16",
              "name": "market",
              "type": "uint16"
            },
            {
              "internalType": "uint96",
              "name": "extra2",
              "type": "uint96"
            },
            {
              "internalType": "uint128",
              "name": "gas",
              "type": "uint128"
            },
            {
              "internalType": "uint8",
              "name": "version",
              "type": "uint8"
            }
          ],
          "internalType": "struct DummyDiamondImplementation.Tuple680644",
          "name": "order",
          "type": "tuple"
        },
        {
          "components": [
            {
              "internalType": "uint8",
              "name": "busiType",
              "type": "uint8"
            },
            {
              "internalType": "uint256",
              "name": "oraclePrice",
              "type": "uint256"
            },
            {
              "internalType": "uint256",
              "name": "pay",
              "type": "uint256"
            },
            {
              "internalType": "uint256",
              "name": "slippage",
              "type": "uint256"
            },
            {
              "internalType": "uint16",
              "name": "market",
              "type": "uint16"
            },
            {
              "internalType": "bool",
              "name": "isLong",
              "type": "bool"
            },
            {
              "internalType": "bool",
              "name": "isOpen",
              "type": "bool"
            },
            {
              "internalType": "bool",
              "name": "isCreate",
              "type": "bool"
            },
            {
              "internalType": "bool",
              "name": "isFromMarket",
              "type": "bool"
            },
            {
              "internalType": "uint256",
              "name": "sizeDelta",
              "type": "uint256"
            },
            {
              "internalType": "uint256",
              "name": "price",
              "type": "uint256"
            },
            {
              "internalType": "uint256",
              "name": "collateralDelta",
              "type": "uint256"
            },
            {
              "internalType": "uint256",
              "name": "collateral",
              "type": "uint256"
            },
            {
              "internalType": "uint256",
              "name": "tp",
              "type": "uint256"
            },
            {
              "internalType": "uint256",
              "name": "sl",
              "type": "uint256"
            },
            {
              "internalType": "uint64",
              "name": "orderId",
              "type": "uint64"
            },
            {
              "internalType": "address",
              "name": "account",
              "type": "address"
            },
            {
              "internalType": "bool",
              "name": "isExec",
              "type": "bool"
            },
            {
              "internalType": "uint8",
              "name": "liqState",
              "type": "uint8"
            },
            {
              "internalType": "uint64",
              "name": "fromOrder",
              "type": "uint64"
            },
            {
              "internalType": "bytes32",
              "name": "refCode",
              "type": "bytes32"
            },
            {
              "internalType": "uint8",
              "name": "execNum",
              "type": "uint8"
            },
            {
              "internalType": "bool",
              "name": "isKeepLev",
              "type": "bool"
            },
            {
              "internalType": "bool",
              "name": "isKeepLevTP",
              "type": "bool"
            },
            {
              "internalType": "bool",
              "name": "isKeepLevSL",
              "type": "bool"
            },
            {
              "internalType": "bool",
              "name": "triggerAbove",
              "type": "bool"
            },
            {
              "internalType": "uint128",
              "name": "gas",
              "type": "uint128"
            }
          ],
          "internalType": "struct DummyDiamondImplementation.Tuple5849784",
          "name": "_params",
          "type": "tuple"
        }
      ],
      "name": "execSubOrder",
      "outputs": [],
      "stateMutability": "nonpayable",
      "type": "function"
    },
    {
      "inputs": [
        {
          "internalType": "bytes4",
          "name": "_functionSelector",
          "type": "bytes4"
        }
      ],
      "name": "facetAddress",
      "outputs": [
        {
          "internalType": "address",
          "name": "facetAddress_",
          "type": "address"
        }
      ],
      "stateMutability": "view",
      "type": "function"
    },
    {
      "inputs": [],
      "name": "facetAddresses",
      "outputs": [
        {
          "internalType": "address[]",
          "name": "facetAddresses_",
          "type": "address[]"
        }
      ],
      "stateMutability": "view",
      "type": "function"
    },
    {
      "inputs": [
        {
          "internalType": "address",
          "name": "_facet",
          "type": "address"
        }
      ],
      "name": "facetFunctionSelectors",
      "outputs": [
        {
          "internalType": "bytes4[]",
          "name": "facetFunctionSelectors_",
          "type": "bytes4[]"
        }
      ],
      "stateMutability": "view",
      "type": "function"
    },
    {
      "inputs": [],
      "name": "facets",
      "outputs": [
        {
          "components": [
            {
              "internalType": "address",
              "name": "facetAddress",
              "type": "address"
            },
            {
              "internalType": "bytes4[]",
              "name": "functionSelectors",
              "type": "bytes4[]"
            }
          ],
          "internalType": "struct DummyDiamondImplementation.Tuple1236461[]",
          "name": "facets_",
          "type": "tuple[]"
        }
      ],
      "stateMutability": "view",
      "type": "function"
    },
    {
      "inputs": [
        {
          "internalType": "uint16",
          "name": "market",
          "type": "uint16"
        },
        {
          "internalType": "address",
          "name": "account",
          "type": "address"
        }
      ],
      "name": "getAccountSizeOfMarkets",
      "outputs": [
        {
          "internalType": "uint256",
          "name": "sizesL",
          "type": "uint256"
        },
        {
          "internalType": "uint256",
          "name": "sizesS",
          "type": "uint256"
        }
      ],
      "stateMutability": "view",
      "type": "function"
    },
    {
      "inputs": [
        {
          "internalType": "uint16",
          "name": "market",
          "type": "uint16"
        },
        {
          "internalType": "bool",
          "name": "_maximise",
          "type": "bool"
        }
      ],
      "name": "getChainPrice",
      "outputs": [
        {
          "internalType": "uint256",
          "name": "",
          "type": "uint256"
        }
      ],
      "stateMutability": "view",
      "type": "function"
    },
    {
      "inputs": [
        {
          "internalType": "bytes32",
          "name": "_code",
          "type": "bytes32"
        }
      ],
      "name": "getCodeOwners",
      "outputs": [
        {
          "internalType": "address",
          "name": "",
          "type": "address"
        }
      ],
      "stateMutability": "view",
      "type": "function"
    },
    {
      "inputs": [
        {
          "internalType": "uint16",
          "name": "market",
          "type": "uint16"
        },
        {
          "internalType": "uint256",
          "name": "_referencePrice",
          "type": "uint256"
        },
        {
          "internalType": "bool",
          "name": "_maximise",
          "type": "bool"
        }
      ],
      "name": "getFastPrice",
      "outputs": [
        {
          "internalType": "uint256",
          "name": "",
          "type": "uint256"
        }
      ],
      "stateMutability": "view",
      "type": "function"
    },
    {
      "inputs": [
        {
          "internalType": "address",
          "name": "vault",
          "type": "address"
        }
      ],
      "name": "getGlobalPnl",
      "outputs": [
        {
          "internalType": "int256",
          "name": "",
          "type": "int256"
        }
      ],
      "stateMutability": "view",
      "type": "function"
    },
    {
      "inputs": [
        {
          "internalType": "uint16",
          "name": "market",
          "type": "uint16"
        }
      ],
      "name": "getGlobalSize",
      "outputs": [
        {
          "internalType": "uint256",
          "name": "sizesLong",
          "type": "uint256"
        },
        {
          "internalType": "uint256",
          "name": "sizesShort",
          "type": "uint256"
        }
      ],
      "stateMutability": "view",
      "type": "function"
    },
    {
      "inputs": [
        {
          "internalType": "uint16",
          "name": "market",
          "type": "uint16"
        }
      ],
      "name": "getMarket",
      "outputs": [
        {
          "internalType": "bytes",
          "name": "result",
          "type": "bytes"
        }
      ],
      "stateMutability": "view",
      "type": "function"
    },
    {
      "inputs": [],
      "name": "getMarkets",
      "outputs": [
        {
          "internalType": "bytes",
          "name": "result",
          "type": "bytes"
        }
      ],
      "stateMutability": "view",
      "type": "function"
    },
    {
      "inputs": [
        {
          "internalType": "uint16",
          "name": "market",
          "type": "uint16"
        }
      ],
      "name": "getMarketsOfMarket",
      "outputs": [
        {
          "internalType": "uint256[]",
          "name": "",
          "type": "uint256[]"
        }
      ],
      "stateMutability": "view",
      "type": "function"
    },
    {
      "inputs": [
        {
          "internalType": "uint16",
          "name": "market",
          "type": "uint16"
        },
        {
          "internalType": "bool",
          "name": "_maximise",
          "type": "bool"
        }
      ],
      "name": "getPrice",
      "outputs": [
        {
          "internalType": "uint256",
          "name": "",
          "type": "uint256"
        }
      ],
      "stateMutability": "view",
      "type": "function"
    },
    {
      "inputs": [],
      "name": "getUSDDecimals",
      "outputs": [
        {
          "internalType": "uint8",
          "name": "",
          "type": "uint8"
        }
      ],
      "stateMutability": "pure",
      "type": "function"
    },
    {
      "inputs": [
        {
          "internalType": "bytes32",
          "name": "_code",
          "type": "bytes32"
        },
        {
          "internalType": "address",
          "name": "_newAccount",
          "type": "address"
        }
      ],
      "name": "govSetCodeOwner",
      "outputs": [],
      "stateMutability": "nonpayable",
      "type": "function"
    },
    {
      "inputs": [],
      "name": "implementation",
      "outputs": [
        {
          "internalType": "address",
          "name": "",
          "type": "address"
        }
      ],
      "stateMutability": "view",
      "type": "function"
    },
    {
      "inputs": [],
      "name": "initDefaultOracleConfig",
      "outputs": [],
      "stateMutability": "nonpayable",
      "type": "function"
    },
    {
      "inputs": [
        {
          "internalType": "uint16",
          "name": "market",
          "type": "uint16"
        },
        {
          "internalType": "address",
          "name": "account",
          "type": "address"
        },
        {
          "internalType": "bool",
          "name": "isLong",
          "type": "bool"
        }
      ],
      "name": "isLiquidate",
      "outputs": [],
      "stateMutability": "view",
      "type": "function"
    },
    {
      "inputs": [
        {
          "internalType": "uint16",
          "name": "market",
          "type": "uint16"
        },
        {
          "internalType": "address",
          "name": "accounts",
          "type": "address"
        },
        {
          "internalType": "bool",
          "name": "_isLong",
          "type": "bool"
        }
      ],
      "name": "liquidate",
      "outputs": [],
      "stateMutability": "nonpayable",
      "type": "function"
    },
    {
      "inputs": [
        {
          "internalType": "uint16",
          "name": "market",
          "type": "uint16"
        }
      ],
      "name": "markeConfig",
      "outputs": [
        {
          "components": [
            {
              "internalType": "bool",
              "name": "isSuspended",
              "type": "bool"
            },
            {
              "internalType": "bool",
              "name": "allowOpen",
              "type": "bool"
            },
            {
              "internalType": "bool",
              "name": "allowClose",
              "type": "bool"
            },
            {
              "internalType": "bool",
              "name": "validDecrease",
              "type": "bool"
            },
            {
              "internalType": "uint16",
              "name": "minSlippage",
              "type": "uint16"
            },
            {
              "internalType": "uint16",
              "name": "maxSlippage",
              "type": "uint16"
            },
            {
              "internalType": "uint16",
              "name": "minLeverage",
              "type": "uint16"
            },
            {
              "internalType": "uint16",
              "name": "maxLeverage",
              "type": "uint16"
            },
            {
              "internalType": "uint16",
              "name": "minPayment",
              "type": "uint16"
            },
            {
              "internalType": "uint16",
              "name": "minCollateral",
              "type": "uint16"
            },
            {
              "internalType": "uint16",
              "name": "decreaseNumLimit",
              "type": "uint16"
            },
            {
              "internalType": "uint32",
              "name": "maxTradeAmount",
              "type": "uint32"
            }
          ],
          "internalType": "struct DummyDiamondImplementation.Tuple826895",
          "name": "_config",
          "type": "tuple"
        }
      ],
      "stateMutability": "view",
      "type": "function"
    },
    {
      "inputs": [],
      "name": "owner",
      "outputs": [
        {
          "internalType": "address",
          "name": "owner_",
          "type": "address"
        }
      ],
      "stateMutability": "view",
      "type": "function"
    },
    {
      "inputs": [
        {
          "internalType": "uint256",
          "name": "amount",
          "type": "uint256"
        },
        {
          "internalType": "uint8",
          "name": "originDigits",
          "type": "uint8"
        }
      ],
      "name": "parseVaultAsset",
      "outputs": [
        {
          "internalType": "uint256",
          "name": "",
          "type": "uint256"
        }
      ],
      "stateMutability": "pure",
      "type": "function"
    },
    {
      "inputs": [
        {
          "internalType": "int256",
          "name": "amount",
          "type": "int256"
        },
        {
          "internalType": "uint8",
          "name": "collateralTokenDigits",
          "type": "uint8"
        }
      ],
      "name": "parseVaultAssetSigned",
      "outputs": [
        {
          "internalType": "int256",
          "name": "",
          "type": "int256"
        }
      ],
      "stateMutability": "pure",
      "type": "function"
    },
    {
      "inputs": [
        {
          "internalType": "bytes32",
          "name": "_code",
          "type": "bytes32"
        }
      ],
      "name": "registerCode",
      "outputs": [],
      "stateMutability": "nonpayable",
      "type": "function"
    },
    {
      "inputs": [
        {
          "internalType": "uint16",
          "name": "marketId",
          "type": "uint16"
        }
      ],
      "name": "removeMarket",
      "outputs": [],
      "stateMutability": "nonpayable",
      "type": "function"
    },
    {
      "inputs": [
        {
          "internalType": "address",
          "name": "newAuthority",
          "type": "address"
        }
      ],
      "name": "setAuthority",
      "outputs": [],
      "stateMutability": "nonpayable",
      "type": "function"
    },
    {
      "inputs": [
        {
          "internalType": "bytes32",
          "name": "_code",
          "type": "bytes32"
        },
        {
          "internalType": "address",
          "name": "_newAccount",
          "type": "address"
        }
      ],
      "name": "setCodeOwner",
      "outputs": [],
      "stateMutability": "nonpayable",
      "type": "function"
    },
    {
      "inputs": [
        {
          "internalType": "address",
          "name": "_implementation",
          "type": "address"
        }
      ],
      "name": "setDummyImplementation",
      "outputs": [],
      "stateMutability": "nonpayable",
      "type": "function"
    },
    {
      "inputs": [
        {
          "internalType": "uint16",
          "name": "market",
          "type": "uint16"
        },
        {
          "components": [
            {
              "internalType": "bool",
              "name": "isSuspended",
              "type": "bool"
            },
            {
              "internalType": "bool",
              "name": "allowOpen",
              "type": "bool"
            },
            {
              "internalType": "bool",
              "name": "allowClose",
              "type": "bool"
            },
            {
              "internalType": "bool",
              "name": "validDecrease",
              "type": "bool"
            },
            {
              "internalType": "uint16",
              "name": "minSlippage",
              "type": "uint16"
            },
            {
              "internalType": "uint16",
              "name": "maxSlippage",
              "type": "uint16"
            },
            {
              "internalType": "uint16",
              "name": "minLeverage",
              "type": "uint16"
            },
            {
              "internalType": "uint16",
              "name": "maxLeverage",
              "type": "uint16"
            },
            {
              "internalType": "uint16",
              "name": "minPayment",
              "type": "uint16"
            },
            {
              "internalType": "uint16",
              "name": "minCollateral",
              "type": "uint16"
            },
            {
              "internalType": "uint16",
              "name": "decreaseNumLimit",
              "type": "uint16"
            },
            {
              "internalType": "uint32",
              "name": "maxTradeAmount",
              "type": "uint32"
            }
          ],
          "internalType": "struct DummyDiamondImplementation.Tuple9273272",
          "name": "data",
          "type": "tuple"
        }
      ],
      "name": "setMarketConf",
      "outputs": [],
      "stateMutability": "nonpayable",
      "type": "function"
    },
    {
      "inputs": [
        {
          "internalType": "uint16[]",
          "name": "_market",
          "type": "uint16[]"
        },
        {
          "internalType": "uint256[]",
          "name": "_maxCumulativeDeltaDiffs",
          "type": "uint256[]"
        }
      ],
      "name": "setMaxCumulativeDeltaDiffs",
      "outputs": [],
      "stateMutability": "nonpayable",
      "type": "function"
    },
    {
      "inputs": [
        {
          "internalType": "bytes",
          "name": "_data",
          "type": "bytes"
        }
      ],
      "name": "setOracleConfig",
      "outputs": [],
      "stateMutability": "nonpayable",
      "type": "function"
    },
    {
      "inputs": [
        {
          "internalType": "uint16[]",
          "name": "_markets",
          "type": "uint16[]"
        },
        {
          "internalType": "uint256[]",
          "name": "_prices",
          "type": "uint256[]"
        }
      ],
      "name": "setPrices",
      "outputs": [],
      "stateMutability": "nonpayable",
      "type": "function"
    },
    {
      "inputs": [
        {
          "internalType": "address",
          "name": "_account",
          "type": "address"
        },
        {
          "internalType": "uint256",
          "name": "_discountShare",
          "type": "uint256"
        }
      ],
      "name": "setReferrerDiscountShare",
      "outputs": [],
      "stateMutability": "nonpayable",
      "type": "function"
    },
    {
      "inputs": [
        {
          "internalType": "address",
          "name": "_referrer",
          "type": "address"
        },
        {
          "internalType": "uint256",
          "name": "_tierId",
          "type": "uint256"
        }
      ],
      "name": "setReferrerTier",
      "outputs": [],
      "stateMutability": "nonpayable",
      "type": "function"
    },
    {
      "inputs": [
        {
          "internalType": "uint256",
          "name": "_tierId",
          "type": "uint256"
        },
        {
          "internalType": "uint256",
          "name": "_totalRebate",
          "type": "uint256"
        },
        {
          "internalType": "uint256",
          "name": "_discountShare",
          "type": "uint256"
        }
      ],
      "name": "setTier",
      "outputs": [],
      "stateMutability": "nonpayable",
      "type": "function"
    },
    {
      "inputs": [
        {
          "internalType": "address",
          "name": "_account",
          "type": "address"
        },
        {
          "internalType": "bytes32",
          "name": "_code",
          "type": "bytes32"
        }
      ],
      "name": "setTraderReferralCodeByGov",
      "outputs": [],
      "stateMutability": "nonpayable",
      "type": "function"
    },
    {
      "inputs": [
        {
          "internalType": "bytes32",
          "name": "_code",
          "type": "bytes32"
        }
      ],
      "name": "setTraderReferralCodeByUser",
      "outputs": [],
      "stateMutability": "nonpayable",
      "type": "function"
    },
    {
      "inputs": [
        {
          "internalType": "address",
          "name": "_feed",
          "type": "address"
        }
      ],
      "name": "setUSDT",
      "outputs": [],
      "stateMutability": "nonpayable",
      "type": "function"
    },
    {
      "inputs": [
        {
          "internalType": "bytes4",
          "name": "_interfaceId",
          "type": "bytes4"
        }
      ],
      "name": "supportsInterface",
      "outputs": [
        {
          "internalType": "bool",
          "name": "",
          "type": "bool"
        }
      ],
      "stateMutability": "view",
      "type": "function"
    },
    {
      "inputs": [
        {
          "internalType": "address",
          "name": "tokenAddress",
          "type": "address"
        },
        {
          "internalType": "address",
          "name": "_from",
          "type": "address"
        },
        {
          "internalType": "address",
          "name": "_to",
          "type": "address"
        },
        {
          "internalType": "uint256",
          "name": "_tokenAmount",
          "type": "uint256"
        }
      ],
      "name": "transferIn",
      "outputs": [],
      "stateMutability": "nonpayable",
      "type": "function"
    },
    {
      "inputs": [
        {
          "internalType": "address",
          "name": "_newOwner",
          "type": "address"
        }
      ],
      "name": "transferOwnership",
      "outputs": [],
      "stateMutability": "nonpayable",
      "type": "function"
    },
    {
      "inputs": [
        {
          "components": [
            {
              "internalType": "uint8",
              "name": "busiType",
              "type": "uint8"
            },
            {
              "internalType": "uint256",
              "name": "oraclePrice",
              "type": "uint256"
            },
            {
              "internalType": "uint256",
              "name": "pay",
              "type": "uint256"
            },
            {
              "internalType": "uint256",
              "name": "slippage",
              "type": "uint256"
            },
            {
              "internalType": "uint16",
              "name": "market",
              "type": "uint16"
            },
            {
              "internalType": "bool",
              "name": "isLong",
              "type": "bool"
            },
            {
              "internalType": "bool",
              "name": "isOpen",
              "type": "bool"
            },
            {
              "internalType": "bool",
              "name": "isCreate",
              "type": "bool"
            },
            {
              "internalType": "bool",
              "name": "isFromMarket",
              "type": "bool"
            },
            {
              "internalType": "uint256",
              "name": "sizeDelta",
              "type": "uint256"
            },
            {
              "internalType": "uint256",
              "name": "price",
              "type": "uint256"
            },
            {
              "internalType": "uint256",
              "name": "collateralDelta",
              "type": "uint256"
            },
            {
              "internalType": "uint256",
              "name": "collateral",
              "type": "uint256"
            },
            {
              "internalType": "uint256",
              "name": "tp",
              "type": "uint256"
            },
            {
              "internalType": "uint256",
              "name": "sl",
              "type": "uint256"
            },
            {
              "internalType": "uint64",
              "name": "orderId",
              "type": "uint64"
            },
            {
              "internalType": "address",
              "name": "account",
              "type": "address"
            },
            {
              "internalType": "bool",
              "name": "isExec",
              "type": "bool"
            },
            {
              "internalType": "uint8",
              "name": "liqState",
              "type": "uint8"
            },
            {
              "internalType": "uint64",
              "name": "fromOrder",
              "type": "uint64"
            },
            {
              "internalType": "bytes32",
              "name": "refCode",
              "type": "bytes32"
            },
            {
              "internalType": "uint8",
              "name": "execNum",
              "type": "uint8"
            },
            {
              "internalType": "bool",
              "name": "isKeepLev",
              "type": "bool"
            },
            {
              "internalType": "bool",
              "name": "isKeepLevTP",
              "type": "bool"
            },
            {
              "internalType": "bool",
              "name": "isKeepLevSL",
              "type": "bool"
            },
            {
              "internalType": "bool",
              "name": "triggerAbove",
              "type": "bool"
            },
            {
              "internalType": "uint128",
              "name": "gas",
              "type": "uint128"
            }
          ],
          "internalType": "struct DummyDiamondImplementation.Tuple910965",
          "name": "_inputs",
          "type": "tuple"
        }
      ],
      "name": "updateOrder",
      "outputs": [],
      "stateMutability": "payable",
      "type": "function"
    },
    {
      "inputs": [
        {
          "components": [
            {
              "components": [
                {
                  "internalType": "uint8",
                  "name": "busiType",
                  "type": "uint8"
                },
                {
                  "internalType": "uint256",
                  "name": "oraclePrice",
                  "type": "uint256"
                },
                {
                  "internalType": "uint256",
                  "name": "pay",
                  "type": "uint256"
                },
                {
                  "internalType": "uint256",
                  "name": "slippage",
                  "type": "uint256"
                },
                {
                  "internalType": "uint16",
                  "name": "market",
                  "type": "uint16"
                },
                {
                  "internalType": "bool",
                  "name": "isLong",
                  "type": "bool"
                },
                {
                  "internalType": "bool",
                  "name": "isOpen",
                  "type": "bool"
                },
                {
                  "internalType": "bool",
                  "name": "isCreate",
                  "type": "bool"
                },
                {
                  "internalType": "bool",
                  "name": "isFromMarket",
                  "type": "bool"
                },
                {
                  "internalType": "uint256",
                  "name": "sizeDelta",
                  "type": "uint256"
                },
                {
                  "internalType": "uint256",
                  "name": "price",
                  "type": "uint256"
                },
                {
                  "internalType": "uint256",
                  "name": "collateralDelta",
                  "type": "uint256"
                },
                {
                  "internalType": "uint256",
                  "name": "collateral",
                  "type": "uint256"
                },
                {
                  "internalType": "uint256",
                  "name": "tp",
                  "type": "uint256"
                },
                {
                  "internalType": "uint256",
                  "name": "sl",
                  "type": "uint256"
                },
                {
                  "internalType": "uint64",
                  "name": "orderId",
                  "type": "uint64"
                },
                {
                  "internalType": "address",
                  "name": "account",
                  "type": "address"
                },
                {
                  "internalType": "bool",
                  "name": "isExec",
                  "type": "bool"
                },
                {
                  "internalType": "uint8",
                  "name": "liqState",
                  "type": "uint8"
                },
                {
                  "internalType": "uint64",
                  "name": "fromOrder",
                  "type": "uint64"
                },
                {
                  "internalType": "bytes32",
                  "name": "refCode",
                  "type": "bytes32"
                },
                {
                  "internalType": "uint8",
                  "name": "execNum",
                  "type": "uint8"
                },
                {
                  "internalType": "bool",
                  "name": "isKeepLev",
                  "type": "bool"
                },
                {
                  "internalType": "bool",
                  "name": "isKeepLevTP",
                  "type": "bool"
                },
                {
                  "internalType": "bool",
                  "name": "isKeepLevSL",
                  "type": "bool"
                },
                {
                  "internalType": "bool",
                  "name": "triggerAbove",
                  "type": "bool"
                },
                {
                  "internalType": "uint128",
                  "name": "gas",
                  "type": "uint128"
                }
              ],
              "internalType": "struct DummyDiamondImplementation.Tuple0521689",
              "name": "inputs",
              "type": "tuple"
            },
            {
              "components": [
                {
                  "internalType": "uint256",
                  "name": "size",
                  "type": "uint256"
                },
                {
                  "internalType": "uint256",
                  "name": "collateral",
                  "type": "uint256"
                },
                {
                  "internalType": "int256",
                  "name": "entryFundingRate",
                  "type": "int256"
                },
                {
                  "internalType": "int256",
                  "name": "realisedPnl",
                  "type": "int256"
                },
                {
                  "internalType": "uint256",
                  "name": "averagePrice",
                  "type": "uint256"
                },
                {
                  "internalType": "bool",
                  "name": "isLong",
                  "type": "bool"
                },
                {
                  "internalType": "uint32",
                  "name": "lastTime",
                  "type": "uint32"
                },
                {
                  "internalType": "uint16",
                  "name": "market",
                  "type": "uint16"
                },
                {
                  "internalType": "uint72",
                  "name": "extra0",
                  "type": "uint72"
                }
              ],
              "internalType": "struct DummyDiamondImplementation.Tuple464693",
              "name": "position",
              "type": "tuple"
            },
            {
              "internalType": "int256[]",
              "name": "fees",
              "type": "int256[]"
            },
            {
              "internalType": "address",
              "name": "collateralToken",
              "type": "address"
            },
            {
              "internalType": "address",
              "name": "indexToken",
              "type": "address"
            },
            {
              "internalType": "int256",
              "name": "collateralDeltaAfter",
              "type": "int256"
            }
          ],
          "internalType": "struct DummyDiamondImplementation.Tuple4013238",
          "name": "_event",
          "type": "tuple"
        }
      ],
      "name": "updatePositionCallback",
      "outputs": [],
      "stateMutability": "nonpayable",
      "type": "function"
    }
  ],
  "transactionHash": "0x67ff6c49d603583e4cf85e6424bc94ce94a2df27bd00f6b6d37d6f82bec498bf",
  "args": [],
  "numDeployments": 5,
  "solcInputHash": "55b026a6d669286ccd97074a7c176f4b",
  "bytecode": "0x608060405234801561001057600080fd5b50613434806100206000396000f3fe60806040526004361061024f5760003560e01c806301ffc9a71461025457806313a30013146102915780631f931c1c146102ce5780632e6e6ea9146102f757806336def2c8146103345780633d34960f1461035d5780633fb8b3231461039a5780634dee5f26146103c35780634fe0ae5e146103ec57806350c1b9231461041557806352ef6b2c1461043e5780635c60da1b1461046957806364b6db531461049457806367af1a03146104d157806369e135f9146104e8578063735a2885146105115780637377e4d71461054e578063766238db1461056a57806379c1122b1461059357806379eba709146105bc5780637a0ed627146105f95780637a9e5e4b146106245780638114baa81461064d578063836a01871461068a5780638593090f146106b3578063875f7ec3146106f15780638a4a5fd61461071a5780638da5cb5b146107435780639823bc9b1461076e5780639d24a688146107ab578063a01e7bc6146107e8578063aa94bda814610826578063adfca15e1461084f578063b0a3961a1461088c578063b51b8de0146108c9578063bb715a85146108f2578063bf7e214f1461091d578063c39aa07d14610948578063cc55e9d114610971578063cdffacc6146109ae578063ce66b80e146109eb578063db61122514610a14578063dd22378d14610a51578063dfcfa25014610a7a578063e1e01bf314610aa3578063e36b20c514610acc578063e3bd030d14610af5578063ec2c901614610b32578063ed84313414610b5d578063f224f69a14610b86578063f2fde38b14610baf578063fe0e467e14610bd8575b600080fd5b34801561026057600080fd5b5061027b60048036038101906102769190610e14565b610c01565b6040516102889190610e5c565b60405180910390f35b34801561029d57600080fd5b506102b860048036038101906102b39190610eb1565b610c08565b6040516102c59190610f6e565b60405180910390f35b3480156102da57600080fd5b506102f560048036038101906102f0919061138f565b610c0f565b005b34801561030357600080fd5b5061031e6004803603810190610319919061147c565b610c14565b60405161032b91906114de565b60405180910390f35b34801561034057600080fd5b5061035b6004803603810190610356919061152f565b610c1d565b005b34801561036957600080fd5b50610384600480360381019061037f919061152f565b610c20565b604051610391919061156b565b60405180910390f35b3480156103a657600080fd5b506103c160048036038101906103bc9190611586565b610c27565b005b3480156103cf57600080fd5b506103ea60048036038101906103e59190611b64565b610c2b565b005b3480156103f857600080fd5b50610413600480360381019061040e9190611ba6565b610c2f565b005b34801561042157600080fd5b5061043c60048036038101906104379190611c0d565b610c35565b005b34801561044a57600080fd5b50610453610c38565b6040516104609190611cf8565b60405180910390f35b34801561047557600080fd5b5061047e610c3d565b60405161048b919061156b565b60405180910390f35b3480156104a057600080fd5b506104bb60048036038101906104b69190611d1a565b610c42565b6040516104c891906114de565b60405180910390f35b3480156104dd57600080fd5b506104e6610c4a565b005b3480156104f457600080fd5b5061050f600480360381019061050a9190611b64565b610c4c565b005b34801561051d57600080fd5b5061053860048036038101906105339190611d5a565b610c50565b60405161054591906114de565b60405180910390f35b61056860048036038101906105639190612019565b610c59565b005b34801561057657600080fd5b50610591600480360381019061058c9190611586565b610c5c565b005b34801561059f57600080fd5b506105ba60048036038101906105b59190612169565b610c60565b005b3480156105c857600080fd5b506105e360048036038101906105de9190610eb1565b610c64565b6040516105f091906122cd565b60405180910390f35b34801561060557600080fd5b5061060e610c71565b60405161061b91906124a6565b60405180910390f35b34801561063057600080fd5b5061064b60048036038101906106469190611c0d565b610c76565b005b34801561065957600080fd5b50610674600480360381019061066f91906124c8565b610c79565b604051610681919061283f565b60405180910390f35b34801561069657600080fd5b506106b160048036038101906106ac9190612861565b610c84565b005b3480156106bf57600080fd5b506106da60048036038101906106d591906128b4565b610c89565b6040516106e89291906128f4565b60405180910390f35b3480156106fd57600080fd5b506107186004803603810190610713919061291d565b610c93565b005b34801561072657600080fd5b50610741600480360381019061073c9190612ea5565b610c97565b005b34801561074f57600080fd5b50610758610c9a565b604051610765919061156b565b60405180910390f35b34801561077a57600080fd5b5061079560048036038101906107909190612eee565b610c9f565b6040516107a291906114de565b60405180910390f35b3480156107b757600080fd5b506107d260048036038101906107cd9190610eb1565b610ca7565b6040516107df9190612fdd565b60405180910390f35b3480156107f457600080fd5b5061080f600480360381019061080a9190610eb1565b610cae565b60405161081d9291906128f4565b60405180910390f35b34801561083257600080fd5b5061084d60048036038101906108489190613185565b610cb6565b005b34801561085b57600080fd5b5061087660048036038101906108719190611c0d565b610cba565b604051610883919061326c565b60405180910390f35b34801561089857600080fd5b506108b360048036038101906108ae9190611c0d565b610cc1565b6040516108c0919061329d565b60405180910390f35b3480156108d557600080fd5b506108f060048036038101906108eb91906132b8565b610cc8565b005b3480156108fe57600080fd5b50610907610ccb565b6040516109149190613310565b60405180910390f35b34801561092957600080fd5b50610932610cd0565b60405161093f919061156b565b60405180910390f35b34801561095457600080fd5b5061096f600480360381019061096a9190611c0d565b610cd5565b005b34801561097d57600080fd5b5061099860048036038101906109939190610eb1565b610cd8565b6040516109a59190610e5c565b60405180910390f35b3480156109ba57600080fd5b506109d560048036038101906109d09190610e14565b610cdf565b6040516109e2919061156b565b60405180910390f35b3480156109f757600080fd5b50610a126004803603810190610a0d91906132b8565b610ce6565b005b348015610a2057600080fd5b50610a3b6004803603810190610a369190611d1a565b610ce9565b604051610a4891906114de565b60405180910390f35b348015610a5d57600080fd5b50610a786004803603810190610a73919061332b565b610cf1565b005b348015610a8657600080fd5b50610aa16004803603810190610a9c919061337e565b610cf6565b005b348015610aaf57600080fd5b50610aca6004803603810190610ac5919061152f565b610cfa565b005b348015610ad857600080fd5b50610af36004803603810190610aee9190610eb1565b610cfd565b005b348015610b0157600080fd5b50610b1c6004803603810190610b1791906133be565b610d00565b604051610b29919061329d565b60405180910390f35b348015610b3e57600080fd5b50610b47610d08565b604051610b549190610f6e565b60405180910390f35b348015610b6957600080fd5b50610b846004803603810190610b7f919061337e565b610d0d565b005b348015610b9257600080fd5b50610bad6004803603810190610ba89190613185565b610d11565b005b348015610bbb57600080fd5b50610bd66004803603810190610bd19190611c0d565b610d15565b005b348015610be457600080fd5b50610bff6004803603810190610bfa919061332b565b610d18565b005b6000919050565b6060919050565b505050565b60009392505050565b50565b6000919050565b5050565b5050565b50505050565b50565b606090565b600090565b600092915050565b565b5050565b60009392505050565b50565b5050565b5050565b610c6c610d1d565b919050565b606090565b50565b606095945050505050565b505050565b6000809250929050565b5050565b50565b600090565b600092915050565b6060919050565b600080915091565b5050565b6060919050565b6000919050565b50565b600090565b600090565b50565b6000919050565b6000919050565b50565b600092915050565b505050565b5050565b50565b50565b600092915050565b606090565b5050565b5050565b50565b505050565b604051806101800160405280600015158152602001600015158152602001600015158152602001600015158152602001600061ffff168152602001600061ffff168152602001600061ffff168152602001600061ffff168152602001600061ffff168152602001600061ffff168152602001600061ffff168152602001600063ffffffff1681525090565b6000604051905090565b600080fd5b600080fd5b60007fffffffff0000000000000000000000000000000000000000000000000000000082169050919050565b610df181610dbc565b8114610dfc57600080fd5b50565b600081359050610e0e81610de8565b92915050565b600060208284031215610e2a57610e29610db2565b5b6000610e3884828501610dff565b91505092915050565b60008115159050919050565b610e5681610e41565b82525050565b6000602082019050610e716000830184610e4d565b92915050565b600061ffff82169050919050565b610e8e81610e77565b8114610e9957600080fd5b50565b600081359050610eab81610e85565b92915050565b600060208284031215610ec757610ec6610db2565b5b6000610ed584828501610e9c565b91505092915050565b600081519050919050565b600082825260208201905092915050565b60005b83811015610f18578082015181840152602081019050610efd565b60008484015250505050565b6000601f19601f8301169050919050565b6000610f4082610ede565b610f4a8185610ee9565b9350610f5a818560208601610efa565b610f6381610f24565b840191505092915050565b60006020820190508181036000830152610f888184610f35565b905092915050565b600080fd5b7f4e487b7100000000000000000000000000000000000000000000000000000000600052604160045260246000fd5b610fcd82610f24565b810181811067ffffffffffffffff82111715610fec57610feb610f95565b5b80604052505050565b6000610fff610da8565b905061100b8282610fc4565b919050565b600067ffffffffffffffff82111561102b5761102a610f95565b5b602082029050602081019050919050565b600080fd5b600080fd5b600080fd5b600073ffffffffffffffffffffffffffffffffffffffff82169050919050565b60006110768261104b565b9050919050565b6110868161106b565b811461109157600080fd5b50565b6000813590506110a38161107d565b92915050565b600060ff82169050919050565b6110bf816110a9565b81146110ca57600080fd5b50565b6000813590506110dc816110b6565b92915050565b600067ffffffffffffffff8211156110fd576110fc610f95565b5b602082029050602081019050919050565b600061112161111c846110e2565b610ff5565b905080838252602082019050602084028301858111156111445761114361103c565b5b835b8181101561116d57806111598882610dff565b845260208401935050602081019050611146565b5050509392505050565b600082601f83011261118c5761118b610f90565b5b813561119c84826020860161110e565b91505092915050565b6000606082840312156111bb576111ba611041565b5b6111c56060610ff5565b905060006111d584828501611094565b60008301525060206111e9848285016110cd565b602083015250604082013567ffffffffffffffff81111561120d5761120c611046565b5b61121984828501611177565b60408301525092915050565b600061123861123384611010565b610ff5565b9050808382526020820190506020840283018581111561125b5761125a61103c565b5b835b818110156112a257803567ffffffffffffffff8111156112805761127f610f90565b5b80860161128d89826111a5565b8552602085019450505060208101905061125d565b5050509392505050565b600082601f8301126112c1576112c0610f90565b5b81356112d1848260208601611225565b91505092915050565b600080fd5b600067ffffffffffffffff8211156112fa576112f9610f95565b5b61130382610f24565b9050602081019050919050565b82818337600083830152505050565b600061133261132d846112df565b610ff5565b90508281526020810184848401111561134e5761134d6112da565b5b611359848285611310565b509392505050565b600082601f83011261137657611375610f90565b5b813561138684826020860161131f565b91505092915050565b6000806000606084860312156113a8576113a7610db2565b5b600084013567ffffffffffffffff8111156113c6576113c5610db7565b5b6113d2868287016112ac565b93505060206113e386828701611094565b925050604084013567ffffffffffffffff81111561140457611403610db7565b5b61141086828701611361565b9150509250925092565b6000819050919050565b61142d8161141a565b811461143857600080fd5b50565b60008135905061144a81611424565b92915050565b61145981610e41565b811461146457600080fd5b50565b60008135905061147681611450565b92915050565b60008060006060848603121561149557611494610db2565b5b60006114a386828701610e9c565b93505060206114b48682870161143b565b92505060406114c586828701611467565b9150509250925092565b6114d88161141a565b82525050565b60006020820190506114f360008301846114cf565b92915050565b6000819050919050565b61150c816114f9565b811461151757600080fd5b50565b60008135905061152981611503565b92915050565b60006020828403121561154557611544610db2565b5b60006115538482850161151a565b91505092915050565b6115658161106b565b82525050565b6000602082019050611580600083018461155c565b92915050565b6000806040838503121561159d5761159c610db2565b5b60006115ab85828601611094565b92505060206115bc8582860161143b565b9150509250929050565b60006fffffffffffffffffffffffffffffffff82169050919050565b6115eb816115c6565b81146115f657600080fd5b50565b600081359050611608816115e2565b92915050565b600067ffffffffffffffff82169050919050565b61162b8161160e565b811461163657600080fd5b50565b60008135905061164881611622565b92915050565b600063ffffffff82169050919050565b6116678161164e565b811461167257600080fd5b50565b6000813590506116848161165e565b92915050565b60006bffffffffffffffffffffffff82169050919050565b6116ab8161168a565b81146116b657600080fd5b50565b6000813590506116c8816116a2565b92915050565b600061030082840312156116e5576116e4611041565b5b6116f0610300610ff5565b905060006117008482850161151a565b6000830152506020611714848285016115f9565b6020830152506040611728848285016115f9565b604083015250606061173c8482850161143b565b60608301525060806117508482850161143b565b60808301525060a061176484828501611467565b60a08301525060c061177884828501611467565b60c08301525060e061178c84828501611467565b60e0830152506101006117a184828501611467565b610100830152506101206117b784828501611467565b610120830152506101406117cd84828501611639565b610140830152506101606117e384828501611639565b610160830152506101806117f984828501611639565b610180830152506101a061180f84828501611675565b6101a0830152506101c0611825848285016110cd565b6101c0830152506101e061183b84828501611094565b6101e083015250610200611851848285016116b9565b610200830152506102206118678482850161143b565b6102208301525061024061187d84828501611467565b6102408301525061026061189384828501611467565b610260830152506102806118a984828501610e9c565b610280830152506102a06118bf848285016116b9565b6102a0830152506102c06118d5848285016115f9565b6102c0830152506102e06118eb848285016110cd565b6102e08301525092915050565b6000610360828403121561190f5761190e611041565b5b61191a610360610ff5565b9050600061192a848285016110cd565b600083015250602061193e8482850161143b565b60208301525060406119528482850161143b565b60408301525060606119668482850161143b565b606083015250608061197a84828501610e9c565b60808301525060a061198e84828501611467565b60a08301525060c06119a284828501611467565b60c08301525060e06119b684828501611467565b60e0830152506101006119cb84828501611467565b610100830152506101206119e18482850161143b565b610120830152506101406119f78482850161143b565b61014083015250610160611a0d8482850161143b565b61016083015250610180611a238482850161143b565b610180830152506101a0611a398482850161143b565b6101a0830152506101c0611a4f8482850161143b565b6101c0830152506101e0611a6584828501611639565b6101e083015250610200611a7b84828501611094565b61020083015250610220611a9184828501611467565b61022083015250610240611aa7848285016110cd565b61024083015250610260611abd84828501611639565b61026083015250610280611ad38482850161151a565b610280830152506102a0611ae9848285016110cd565b6102a0830152506102c0611aff84828501611467565b6102c0830152506102e0611b1584828501611467565b6102e083015250610300611b2b84828501611467565b61030083015250610320611b4184828501611467565b61032083015250610340611b57848285016115f9565b6103408301525092915050565b6000806106608385031215611b7c57611b7b610db2565b5b6000611b8a858286016116ce565b925050610300611b9c858286016118f8565b9150509250929050565b60008060008060808587031215611bc057611bbf610db2565b5b6000611bce87828801611094565b9450506020611bdf87828801611094565b9350506040611bf087828801611094565b9250506060611c018782880161143b565b91505092959194509250565b600060208284031215611c2357611c22610db2565b5b6000611c3184828501611094565b91505092915050565b600081519050919050565b600082825260208201905092915050565b6000819050602082019050919050565b611c6f8161106b565b82525050565b6000611c818383611c66565b60208301905092915050565b6000602082019050919050565b6000611ca582611c3a565b611caf8185611c45565b9350611cba83611c56565b8060005b83811015611ceb578151611cd28882611c75565b9750611cdd83611c8d565b925050600181019050611cbe565b5085935050505092915050565b60006020820190508181036000830152611d128184611c9a565b905092915050565b60008060408385031215611d3157611d30610db2565b5b6000611d3f85828601610e9c565b9250506020611d5085828601611467565b9150509250929050565b600080600060608486031215611d7357611d72610db2565b5b6000611d8186828701611094565b9350506020611d9286828701611094565b9250506040611da386828701611467565b9150509250925092565b60006103608284031215611dc457611dc3611041565b5b611dcf610360610ff5565b90506000611ddf848285016110cd565b6000830152506020611df38482850161143b565b6020830152506040611e078482850161143b565b6040830152506060611e1b8482850161143b565b6060830152506080611e2f84828501610e9c565b60808301525060a0611e4384828501611467565b60a08301525060c0611e5784828501611467565b60c08301525060e0611e6b84828501611467565b60e083015250610100611e8084828501611467565b61010083015250610120611e968482850161143b565b61012083015250610140611eac8482850161143b565b61014083015250610160611ec28482850161143b565b61016083015250610180611ed88482850161143b565b610180830152506101a0611eee8482850161143b565b6101a0830152506101c0611f048482850161143b565b6101c0830152506101e0611f1a84828501611639565b6101e083015250610200611f3084828501611094565b61020083015250610220611f4684828501611467565b61022083015250610240611f5c848285016110cd565b61024083015250610260611f7284828501611639565b61026083015250610280611f888482850161151a565b610280830152506102a0611f9e848285016110cd565b6102a0830152506102c0611fb484828501611467565b6102c0830152506102e0611fca84828501611467565b6102e083015250610300611fe084828501611467565b61030083015250610320611ff684828501611467565b6103208301525061034061200c848285016115f9565b6103408301525092915050565b600061036082840312156120305761202f610db2565b5b600061203e84828501611dad565b91505092915050565b6000610180828403121561205e5761205d611041565b5b612069610180610ff5565b9050600061207984828501611467565b600083015250602061208d84828501611467565b60208301525060406120a184828501611467565b60408301525060606120b584828501611467565b60608301525060806120c984828501610e9c565b60808301525060a06120dd84828501610e9c565b60a08301525060c06120f184828501610e9c565b60c08301525060e061210584828501610e9c565b60e08301525061010061211a84828501610e9c565b6101008301525061012061213084828501610e9c565b6101208301525061014061214684828501610e9c565b6101408301525061016061215c84828501611675565b6101608301525092915050565b6000806101a0838503121561218157612180610db2565b5b600061218f85828601610e9c565b92505060206121a085828601612047565b9150509250929050565b6121b381610e41565b82525050565b6121c281610e77565b82525050565b6121d18161164e565b82525050565b610180820160008201516121ee60008501826121aa565b50602082015161220160208501826121aa565b50604082015161221460408501826121aa565b50606082015161222760608501826121aa565b50608082015161223a60808501826121b9565b5060a082015161224d60a08501826121b9565b5060c082015161226060c08501826121b9565b5060e082015161227360e08501826121b9565b506101008201516122886101008501826121b9565b5061012082015161229d6101208501826121b9565b506101408201516122b26101408501826121b9565b506101608201516122c76101608501826121c8565b50505050565b6000610180820190506122e360008301846121d7565b92915050565b600081519050919050565b600082825260208201905092915050565b6000819050602082019050919050565b600081519050919050565b600082825260208201905092915050565b6000819050602082019050919050565b61234a81610dbc565b82525050565b600061235c8383612341565b60208301905092915050565b6000602082019050919050565b600061238082612315565b61238a8185612320565b935061239583612331565b8060005b838110156123c65781516123ad8882612350565b97506123b883612368565b925050600181019050612399565b5085935050505092915050565b60006040830160008301516123eb6000860182611c66565b50602083015184820360208601526124038282612375565b9150508091505092915050565b600061241c83836123d3565b905092915050565b6000602082019050919050565b600061243c826122e9565b61244681856122f4565b93508360208202850161245885612305565b8060005b8581101561249457848403895281516124758582612410565b945061248083612424565b925060208a0199505060018101905061245c565b50829750879550505050505092915050565b600060208201905081810360008301526124c08184612431565b905092915050565b600080600080600060a086880312156124e4576124e3610db2565b5b60006124f288828901611094565b955050602061250388828901610e9c565b945050604061251488828901611467565b93505060606125258882890161143b565b925050608061253688828901611467565b9150509295509295909350565b600081519050919050565b600082825260208201905092915050565b6000819050602082019050919050565b612578816114f9565b82525050565b612587816115c6565b82525050565b6125968161141a565b82525050565b6125a58161160e565b82525050565b6125b4816110a9565b82525050565b6125c38161168a565b82525050565b610300820160008201516125e0600085018261256f565b5060208201516125f3602085018261257e565b506040820151612606604085018261257e565b506060820151612619606085018261258d565b50608082015161262c608085018261258d565b5060a082015161263f60a08501826121aa565b5060c082015161265260c08501826121aa565b5060e082015161266560e08501826121aa565b5061010082015161267a6101008501826121aa565b5061012082015161268f6101208501826121aa565b506101408201516126a461014085018261259c565b506101608201516126b961016085018261259c565b506101808201516126ce61018085018261259c565b506101a08201516126e36101a08501826121c8565b506101c08201516126f86101c08501826125ab565b506101e082015161270d6101e0850182611c66565b506102008201516127226102008501826125ba565b5061022082015161273761022085018261258d565b5061024082015161274c6102408501826121aa565b506102608201516127616102608501826121aa565b506102808201516127766102808501826121b9565b506102a082015161278b6102a08501826125ba565b506102c08201516127a06102c085018261257e565b506102e08201516127b56102e08501826125ab565b50505050565b60006127c783836125c9565b6103008301905092915050565b6000602082019050919050565b60006127ec82612543565b6127f6818561254e565b93506128018361255f565b8060005b8381101561283257815161281988826127bb565b9750612824836127d4565b925050600181019050612805565b5085935050505092915050565b6000602082019050818103600083015261285981846127e1565b905092915050565b60008060006060848603121561287a57612879610db2565b5b60006128888682870161143b565b93505060206128998682870161143b565b92505060406128aa8682870161143b565b9150509250925092565b600080604083850312156128cb576128ca610db2565b5b60006128d985828601610e9c565b92505060206128ea85828601611094565b9150509250929050565b600060408201905061290960008301856114cf565b61291660208301846114cf565b9392505050565b6000806040838503121561293457612933610db2565b5b600061294285828601611094565b92505060206129538582860161151a565b9150509250929050565b6000610360828403121561297457612973611041565b5b61297f610360610ff5565b9050600061298f848285016110cd565b60008301525060206129a38482850161143b565b60208301525060406129b78482850161143b565b60408301525060606129cb8482850161143b565b60608301525060806129df84828501610e9c565b60808301525060a06129f384828501611467565b60a08301525060c0612a0784828501611467565b60c08301525060e0612a1b84828501611467565b60e083015250610100612a3084828501611467565b61010083015250610120612a468482850161143b565b61012083015250610140612a5c8482850161143b565b61014083015250610160612a728482850161143b565b61016083015250610180612a888482850161143b565b610180830152506101a0612a9e8482850161143b565b6101a0830152506101c0612ab48482850161143b565b6101c0830152506101e0612aca84828501611639565b6101e083015250610200612ae084828501611094565b61020083015250610220612af684828501611467565b61022083015250610240612b0c848285016110cd565b61024083015250610260612b2284828501611639565b61026083015250610280612b388482850161151a565b610280830152506102a0612b4e848285016110cd565b6102a0830152506102c0612b6484828501611467565b6102c0830152506102e0612b7a84828501611467565b6102e083015250610300612b9084828501611467565b61030083015250610320612ba684828501611467565b61032083015250610340612bbc848285016115f9565b6103408301525092915050565b6000819050919050565b612bdc81612bc9565b8114612be757600080fd5b50565b600081359050612bf981612bd3565b92915050565b600068ffffffffffffffffff82169050919050565b612c1d81612bff565b8114612c2857600080fd5b50565b600081359050612c3a81612c14565b92915050565b60006101208284031215612c5757612c56611041565b5b612c62610120610ff5565b90506000612c728482850161143b565b6000830152506020612c868482850161143b565b6020830152506040612c9a84828501612bea565b6040830152506060612cae84828501612bea565b6060830152506080612cc28482850161143b565b60808301525060a0612cd684828501611467565b60a08301525060c0612cea84828501611675565b60c08301525060e0612cfe84828501610e9c565b60e083015250610100612d1384828501612c2b565b6101008301525092915050565b600067ffffffffffffffff821115612d3b57612d3a610f95565b5b602082029050602081019050919050565b6000612d5f612d5a84612d20565b610ff5565b90508083825260208201905060208402830185811115612d8257612d8161103c565b5b835b81811015612dab5780612d978882612bea565b845260208401935050602081019050612d84565b5050509392505050565b600082601f830112612dca57612dc9610f90565b5b8135612dda848260208601612d4c565b91505092915050565b60006105008284031215612dfa57612df9611041565b5b612e0460c0610ff5565b90506000612e148482850161295d565b600083015250610360612e2984828501612c40565b60208301525061048082013567ffffffffffffffff811115612e4e57612e4d611046565b5b612e5a84828501612db5565b6040830152506104a0612e6f84828501611094565b6060830152506104c0612e8484828501611094565b6080830152506104e0612e9984828501612bea565b60a08301525092915050565b600060208284031215612ebb57612eba610db2565b5b600082013567ffffffffffffffff811115612ed957612ed8610db7565b5b612ee584828501612de3565b91505092915050565b60008060408385031215612f0557612f04610db2565b5b6000612f138582860161143b565b9250506020612f24858286016110cd565b9150509250929050565b600081519050919050565b600082825260208201905092915050565b6000819050602082019050919050565b6000612f66838361258d565b60208301905092915050565b6000602082019050919050565b6000612f8a82612f2e565b612f948185612f39565b9350612f9f83612f4a565b8060005b83811015612fd0578151612fb78882612f5a565b9750612fc283612f72565b925050600181019050612fa3565b5085935050505092915050565b60006020820190508181036000830152612ff78184612f7f565b905092915050565b600067ffffffffffffffff82111561301a57613019610f95565b5b602082029050602081019050919050565b600061303e61303984612fff565b610ff5565b905080838252602082019050602084028301858111156130615761306061103c565b5b835b8181101561308a57806130768882610e9c565b845260208401935050602081019050613063565b5050509392505050565b600082601f8301126130a9576130a8610f90565b5b81356130b984826020860161302b565b91505092915050565b600067ffffffffffffffff8211156130dd576130dc610f95565b5b602082029050602081019050919050565b60006131016130fc846130c2565b610ff5565b905080838252602082019050602084028301858111156131245761312361103c565b5b835b8181101561314d5780613139888261143b565b845260208401935050602081019050613126565b5050509392505050565b600082601f83011261316c5761316b610f90565b5b813561317c8482602086016130ee565b91505092915050565b6000806040838503121561319c5761319b610db2565b5b600083013567ffffffffffffffff8111156131ba576131b9610db7565b5b6131c685828601613094565b925050602083013567ffffffffffffffff8111156131e7576131e6610db7565b5b6131f385828601613157565b9150509250929050565b600082825260208201905092915050565b600061321982612315565b61322381856131fd565b935061322e83612331565b8060005b8381101561325f5781516132468882612350565b975061325183612368565b925050600181019050613232565b5085935050505092915050565b60006020820190508181036000830152613286818461320e565b905092915050565b61329781612bc9565b82525050565b60006020820190506132b2600083018461328e565b92915050565b6000602082840312156132ce576132cd610db2565b5b600082013567ffffffffffffffff8111156132ec576132eb610db7565b5b6132f884828501611361565b91505092915050565b61330a816110a9565b82525050565b60006020820190506133256000830184613301565b92915050565b60008060006060848603121561334457613343610db2565b5b600061335286828701610e9c565b935050602061336386828701611094565b925050604061337486828701611467565b9150509250925092565b6000806040838503121561339557613394610db2565b5b60006133a38582860161151a565b92505060206133b485828601611094565b9150509250929050565b600080604083850312156133d5576133d4610db2565b5b60006133e385828601612bea565b92505060206133f4858286016110cd565b915050925092905056fea2646970667358221220d017eacd296fbe28463c16784cc54f787bb0f6cbd32ba7a3cff1cd0e8c59b6a364736f6c63430008180033",
  "devdoc": {
    "kind": "dev",
    "methods": {},
    "version": 1
  },
  "userdoc": {
    "kind": "user",
    "methods": {},
    "version": 1
  },
  "storageLayout": {
    "storage": [],
    "types": null
  }
}