{
  "address": "0x777003765F1b2a86cc55D57E6b9c94eD9ab90922",
  "abi": [
    {
      "inputs": [
        {
          "internalType": "bytes",
          "name": "data",
          "type": "bytes"
        }
      ],
      "name": "_addMarket",
      "outputs": [],
      "stateMutability": "nonpayable",
      "type": "function"
    },
    {
      "inputs": [
        {
          "components": [
            {
              "internalType": "uint8",
              "name": "busiType",
              "type": "uint8"
            },
            {
              "internalType": "uint256",
              "name": "oraclePrice",
              "type": "uint256"
            },
            {
              "internalType": "uint256",
              "name": "pay",
              "type": "uint256"
            },
            {
              "internalType": "uint256",
              "name": "slippage",
              "type": "uint256"
            },
            {
              "internalType": "uint16",
              "name": "market",
              "type": "uint16"
            },
            {
              "internalType": "bool",
              "name": "isLong",
              "type": "bool"
            },
            {
              "internalType": "bool",
              "name": "isOpen",
              "type": "bool"
            },
            {
              "internalType": "bool",
              "name": "isCreate",
              "type": "bool"
            },
            {
              "internalType": "bool",
              "name": "isFromMarket",
              "type": "bool"
            },
            {
              "internalType": "uint256",
              "name": "sizeDelta",
              "type": "uint256"
            },
            {
              "internalType": "uint256",
              "name": "price",
              "type": "uint256"
            },
            {
              "internalType": "uint256",
              "name": "collateralDelta",
              "type": "uint256"
            },
            {
              "internalType": "uint256",
              "name": "collateral",
              "type": "uint256"
            },
            {
              "internalType": "uint256",
              "name": "tp",
              "type": "uint256"
            },
            {
              "internalType": "uint256",
              "name": "sl",
              "type": "uint256"
            },
            {
              "internalType": "uint64",
              "name": "orderId",
              "type": "uint64"
            },
            {
              "internalType": "address",
              "name": "account",
              "type": "address"
            },
            {
              "internalType": "bool",
              "name": "isExec",
              "type": "bool"
            },
            {
              "internalType": "uint8",
              "name": "liqState",
              "type": "uint8"
            },
            {
              "internalType": "uint64",
              "name": "fromOrder",
              "type": "uint64"
            },
            {
              "internalType": "bytes32",
              "name": "refCode",
              "type": "bytes32"
            },
            {
              "internalType": "uint8",
              "name": "execNum",
              "type": "uint8"
            },
            {
              "internalType": "bool",
              "name": "isKeepLev",
              "type": "bool"
            },
            {
              "internalType": "bool",
              "name": "isKeepLevTP",
              "type": "bool"
            },
            {
              "internalType": "bool",
              "name": "isKeepLevSL",
              "type": "bool"
            },
            {
              "internalType": "bool",
              "name": "triggerAbove",
              "type": "bool"
            },
            {
              "internalType": "uint128",
              "name": "gas",
              "type": "uint128"
            }
          ],
          "internalType": "struct DummyDiamondImplementation.Tuple8179501[]",
          "name": "_inputs",
          "type": "tuple[]"
        }
      ],
      "name": "_addOrders",
      "outputs": [
        {
          "components": [
            {
              "internalType": "bytes32",
              "name": "refCode",
              "type": "bytes32"
            },
            {
              "internalType": "uint128",
              "name": "collateral",
              "type": "uint128"
            },
            {
              "internalType": "uint128",
              "name": "size",
              "type": "uint128"
            },
            {
              "internalType": "uint256",
              "name": "price",
              "type": "uint256"
            },
            {
              "internalType": "uint256",
              "name": "tp",
              "type": "uint256"
            },
            {
              "internalType": "bool",
              "name": "triggerAbove",
              "type": "bool"
            },
            {
              "internalType": "bool",
              "name": "isFromMarket",
              "type": "bool"
            },
            {
              "internalType": "bool",
              "name": "isKeepLev",
              "type": "bool"
            },
            {
              "internalType": "bool",
              "name": "isKeepLevTP",
              "type": "bool"
            },
            {
              "internalType": "bool",
              "name": "isKeepLevSL",
              "type": "bool"
            },
            {
              "internalType": "uint64",
              "name": "orderID",
              "type": "uint64"
            },
            {
              "internalType": "uint64",
              "name": "pairId",
              "type": "uint64"
            },
            {
              "internalType": "uint64",
              "name": "fromId",
              "type": "uint64"
            },
            {
              "internalType": "uint32",
              "name": "updatedAtBlock",
              "type": "uint32"
            },
            {
              "internalType": "uint8",
              "name": "extra0",
              "type": "uint8"
            },
            {
              "internalType": "address",
              "name": "account",
              "type": "address"
            },
            {
              "internalType": "uint96",
              "name": "extra1",
              "type": "uint96"
            },
            {
              "internalType": "uint256",
              "name": "sl",
              "type": "uint256"
            },
            {
              "internalType": "bool",
              "name": "isIncrease",
              "type": "bool"
            },
            {
              "internalType": "bool",
              "name": "isLong",
              "type": "bool"
            },
            {
              "internalType": "uint16",
              "name": "market",
              "type": "uint16"
            },
            {
              "internalType": "uint96",
              "name": "extra2",
              "type": "uint96"
            },
            {
              "internalType": "uint128",
              "name": "gas",
              "type": "uint128"
            },
            {
              "internalType": "uint8",
              "name": "version",
              "type": "uint8"
            }
          ],
          "internalType": "struct DummyDiamondImplementation.Tuple564566[]",
          "name": "_orders",
          "type": "tuple[]"
        }
      ],
      "stateMutability": "nonpayable",
      "type": "function"
    },
    {
      "inputs": [
        {
          "internalType": "bytes",
          "name": "_data",
          "type": "bytes"
        }
      ],
      "name": "_collectFees",
      "outputs": [],
      "stateMutability": "nonpayable",
      "type": "function"
    },
    {
      "inputs": [
        {
          "components": [
            {
              "internalType": "uint16",
              "name": "market",
              "type": "uint16"
            },
            {
              "internalType": "address",
              "name": "account",
              "type": "address"
            },
            {
              "internalType": "int256",
              "name": "collateralDelta",
              "type": "int256"
            },
            {
              "internalType": "uint256",
              "name": "sizeDelta",
              "type": "uint256"
            },
            {
              "internalType": "int256",
              "name": "fundingRate",
              "type": "int256"
            },
            {
              "internalType": "bool",
              "name": "isLong",
              "type": "bool"
            }
          ],
          "internalType": "struct DummyDiamondImplementation.Tuple8634448",
          "name": "inputs",
          "type": "tuple"
        }
      ],
      "name": "_decreasePosition",
      "outputs": [
        {
          "components": [
            {
              "internalType": "uint256",
              "name": "size",
              "type": "uint256"
            },
            {
              "internalType": "uint256",
              "name": "collateral",
              "type": "uint256"
            },
            {
              "internalType": "int256",
              "name": "entryFundingRate",
              "type": "int256"
            },
            {
              "internalType": "int256",
              "name": "realisedPnl",
              "type": "int256"
            },
            {
              "internalType": "uint256",
              "name": "averagePrice",
              "type": "uint256"
            },
            {
              "internalType": "bool",
              "name": "isLong",
              "type": "bool"
            },
            {
              "internalType": "uint32",
              "name": "lastTime",
              "type": "uint32"
            },
            {
              "internalType": "uint16",
              "name": "market",
              "type": "uint16"
            },
            {
              "internalType": "uint72",
              "name": "extra0",
              "type": "uint72"
            }
          ],
          "internalType": "struct DummyDiamondImplementation.Tuple3316247",
          "name": "result",
          "type": "tuple"
        }
      ],
      "stateMutability": "nonpayable",
      "type": "function"
    },
    {
      "inputs": [
        {
          "components": [
            {
              "internalType": "uint16",
              "name": "market",
              "type": "uint16"
            },
            {
              "internalType": "address",
              "name": "account",
              "type": "address"
            },
            {
              "internalType": "int256",
              "name": "collateralDelta",
              "type": "int256"
            },
            {
              "internalType": "uint256",
              "name": "sizeDelta",
              "type": "uint256"
            },
            {
              "internalType": "uint256",
              "name": "markPrice",
              "type": "uint256"
            },
            {
              "internalType": "int256",
              "name": "fundingRate",
              "type": "int256"
            },
            {
              "internalType": "bool",
              "name": "isLong",
              "type": "bool"
            }
          ],
          "internalType": "struct DummyDiamondImplementation.Tuple8047955",
          "name": "_data",
          "type": "tuple"
        }
      ],
      "name": "_increasePosition",
      "outputs": [
        {
          "components": [
            {
              "internalType": "uint256",
              "name": "size",
              "type": "uint256"
            },
            {
              "internalType": "uint256",
              "name": "collateral",
              "type": "uint256"
            },
            {
              "internalType": "int256",
              "name": "entryFundingRate",
              "type": "int256"
            },
            {
              "internalType": "int256",
              "name": "realisedPnl",
              "type": "int256"
            },
            {
              "internalType": "uint256",
              "name": "averagePrice",
              "type": "uint256"
            },
            {
              "internalType": "bool",
              "name": "isLong",
              "type": "bool"
            },
            {
              "internalType": "uint32",
              "name": "lastTime",
              "type": "uint32"
            },
            {
              "internalType": "uint16",
              "name": "market",
              "type": "uint16"
            },
            {
              "internalType": "uint72",
              "name": "extra0",
              "type": "uint72"
            }
          ],
          "internalType": "struct DummyDiamondImplementation.Tuple3316247",
          "name": "result",
          "type": "tuple"
        }
      ],
      "stateMutability": "nonpayable",
      "type": "function"
    },
    {
      "inputs": [
        {
          "internalType": "uint16",
          "name": "market",
          "type": "uint16"
        },
        {
          "internalType": "address",
          "name": "account",
          "type": "address"
        },
        {
          "internalType": "uint256",
          "name": "oraclePrice",
          "type": "uint256"
        },
        {
          "internalType": "bool",
          "name": "isLong",
          "type": "bool"
        }
      ],
      "name": "_liquidatePosition",
      "outputs": [
        {
          "components": [
            {
              "internalType": "uint256",
              "name": "size",
              "type": "uint256"
            },
            {
              "internalType": "uint256",
              "name": "collateral",
              "type": "uint256"
            },
            {
              "internalType": "int256",
              "name": "entryFundingRate",
              "type": "int256"
            },
            {
              "internalType": "int256",
              "name": "realisedPnl",
              "type": "int256"
            },
            {
              "internalType": "uint256",
              "name": "averagePrice",
              "type": "uint256"
            },
            {
              "internalType": "bool",
              "name": "isLong",
              "type": "bool"
            },
            {
              "internalType": "uint32",
              "name": "lastTime",
              "type": "uint32"
            },
            {
              "internalType": "uint16",
              "name": "market",
              "type": "uint16"
            },
            {
              "internalType": "uint72",
              "name": "extra0",
              "type": "uint72"
            }
          ],
          "internalType": "struct DummyDiamondImplementation.Tuple3316247",
          "name": "result",
          "type": "tuple"
        }
      ],
      "stateMutability": "nonpayable",
      "type": "function"
    },
    {
      "inputs": [
        {
          "internalType": "uint16",
          "name": "market",
          "type": "uint16"
        },
        {
          "internalType": "uint256",
          "name": "longSize",
          "type": "uint256"
        },
        {
          "internalType": "uint256",
          "name": "shortSize",
          "type": "uint256"
        }
      ],
      "name": "_updateCumulativeFundingRate",
      "outputs": [],
      "stateMutability": "nonpayable",
      "type": "function"
    },
    {
      "inputs": [
        {
          "components": [
            {
              "components": [
                {
                  "internalType": "uint8",
                  "name": "busiType",
                  "type": "uint8"
                },
                {
                  "internalType": "uint256",
                  "name": "oraclePrice",
                  "type": "uint256"
                },
                {
                  "internalType": "uint256",
                  "name": "pay",
                  "type": "uint256"
                },
                {
                  "internalType": "uint256",
                  "name": "slippage",
                  "type": "uint256"
                },
                {
                  "internalType": "uint16",
                  "name": "market",
                  "type": "uint16"
                },
                {
                  "internalType": "bool",
                  "name": "isLong",
                  "type": "bool"
                },
                {
                  "internalType": "bool",
                  "name": "isOpen",
                  "type": "bool"
                },
                {
                  "internalType": "bool",
                  "name": "isCreate",
                  "type": "bool"
                },
                {
                  "internalType": "bool",
                  "name": "isFromMarket",
                  "type": "bool"
                },
                {
                  "internalType": "uint256",
                  "name": "sizeDelta",
                  "type": "uint256"
                },
                {
                  "internalType": "uint256",
                  "name": "price",
                  "type": "uint256"
                },
                {
                  "internalType": "uint256",
                  "name": "collateralDelta",
                  "type": "uint256"
                },
                {
                  "internalType": "uint256",
                  "name": "collateral",
                  "type": "uint256"
                },
                {
                  "internalType": "uint256",
                  "name": "tp",
                  "type": "uint256"
                },
                {
                  "internalType": "uint256",
                  "name": "sl",
                  "type": "uint256"
                },
                {
                  "internalType": "uint64",
                  "name": "orderId",
                  "type": "uint64"
                },
                {
                  "internalType": "address",
                  "name": "account",
                  "type": "address"
                },
                {
                  "internalType": "bool",
                  "name": "isExec",
                  "type": "bool"
                },
                {
                  "internalType": "uint8",
                  "name": "liqState",
                  "type": "uint8"
                },
                {
                  "internalType": "uint64",
                  "name": "fromOrder",
                  "type": "uint64"
                },
                {
                  "internalType": "bytes32",
                  "name": "refCode",
                  "type": "bytes32"
                },
                {
                  "internalType": "uint8",
                  "name": "execNum",
                  "type": "uint8"
                },
                {
                  "internalType": "bool",
                  "name": "isKeepLev",
                  "type": "bool"
                },
                {
                  "internalType": "bool",
                  "name": "isKeepLevTP",
                  "type": "bool"
                },
                {
                  "internalType": "bool",
                  "name": "isKeepLevSL",
                  "type": "bool"
                },
                {
                  "internalType": "bool",
                  "name": "triggerAbove",
                  "type": "bool"
                },
                {
                  "internalType": "uint128",
                  "name": "gas",
                  "type": "uint128"
                }
              ],
              "internalType": "struct DummyDiamondImplementation.Tuple0521689",
              "name": "inputs",
              "type": "tuple"
            },
            {
              "components": [
                {
                  "internalType": "uint256",
                  "name": "size",
                  "type": "uint256"
                },
                {
                  "internalType": "uint256",
                  "name": "collateral",
                  "type": "uint256"
                },
                {
                  "internalType": "int256",
                  "name": "entryFundingRate",
                  "type": "int256"
                },
                {
                  "internalType": "int256",
                  "name": "realisedPnl",
                  "type": "int256"
                },
                {
                  "internalType": "uint256",
                  "name": "averagePrice",
                  "type": "uint256"
                },
                {
                  "internalType": "bool",
                  "name": "isLong",
                  "type": "bool"
                },
                {
                  "internalType": "uint32",
                  "name": "lastTime",
                  "type": "uint32"
                },
                {
                  "internalType": "uint16",
                  "name": "market",
                  "type": "uint16"
                },
                {
                  "internalType": "uint72",
                  "name": "extra0",
                  "type": "uint72"
                }
              ],
              "internalType": "struct DummyDiamondImplementation.Tuple464693",
              "name": "position",
              "type": "tuple"
            },
            {
              "internalType": "int256[]",
              "name": "fees",
              "type": "int256[]"
            },
            {
              "internalType": "address",
              "name": "collateralToken",
              "type": "address"
            },
            {
              "internalType": "address",
              "name": "indexToken",
              "type": "address"
            },
            {
              "internalType": "int256",
              "name": "collateralDeltaAfter",
              "type": "int256"
            }
          ],
          "internalType": "struct DummyDiamondImplementation.Tuple4013238",
          "name": "_event",
          "type": "tuple"
        }
      ],
      "name": "_updatePositionCallback",
      "outputs": [],
      "stateMutability": "nonpayable",
      "type": "function"
    },
    {
      "inputs": [
        {
          "internalType": "string",
          "name": "name",
          "type": "string"
        },
        {
          "internalType": "address",
          "name": "_vault",
          "type": "address"
        },
        {
          "internalType": "bool",
          "name": "isSuspended",
          "type": "bool"
        },
        {
          "internalType": "bool",
          "name": "allowOpen",
          "type": "bool"
        },
        {
          "internalType": "bool",
          "name": "allowClose",
          "type": "bool"
        },
        {
          "internalType": "bool",
          "name": "validDecrease",
          "type": "bool"
        },
        {
          "internalType": "uint16",
          "name": "minSlippage",
          "type": "uint16"
        },
        {
          "internalType": "uint16",
          "name": "maxSlippage",
          "type": "uint16"
        },
        {
          "internalType": "uint16",
          "name": "minLeverage",
          "type": "uint16"
        },
        {
          "internalType": "uint16",
          "name": "maxLeverage",
          "type": "uint16"
        },
        {
          "internalType": "uint16",
          "name": "minPayment",
          "type": "uint16"
        },
        {
          "internalType": "uint16",
          "name": "minCollateral",
          "type": "uint16"
        },
        {
          "internalType": "uint16",
          "name": "decreaseNumLimit",
          "type": "uint16"
        },
        {
          "internalType": "uint32",
          "name": "maxTradeAmount",
          "type": "uint32"
        }
      ],
      "name": "addMarket",
      "outputs": [],
      "stateMutability": "nonpayable",
      "type": "function"
    },
    {
      "inputs": [
        {
          "internalType": "uint16",
          "name": "market",
          "type": "uint16"
        },
        {
          "internalType": "uint256",
          "name": "start",
          "type": "uint256"
        },
        {
          "internalType": "uint256",
          "name": "end",
          "type": "uint256"
        }
      ],
      "name": "addSkipTime",
      "outputs": [],
      "stateMutability": "nonpayable",
      "type": "function"
    },
    {
      "inputs": [
        {
          "internalType": "bytes[]",
          "name": "calls",
          "type": "bytes[]"
        }
      ],
      "name": "aggregateCall",
      "outputs": [
        {
          "internalType": "uint256",
          "name": "blockNumber",
          "type": "uint256"
        },
        {
          "internalType": "bytes[]",
          "name": "returnData",
          "type": "bytes[]"
        }
      ],
      "stateMutability": "nonpayable",
      "type": "function"
    },
    {
      "inputs": [
        {
          "internalType": "bytes[]",
          "name": "calls",
          "type": "bytes[]"
        }
      ],
      "name": "aggregateStaticCall",
      "outputs": [
        {
          "internalType": "uint256",
          "name": "blockNumber",
          "type": "uint256"
        },
        {
          "internalType": "bytes[]",
          "name": "returnData",
          "type": "bytes[]"
        }
      ],
      "stateMutability": "view",
      "type": "function"
    },
    {
      "inputs": [],
      "name": "authority",
      "outputs": [
        {
          "internalType": "address",
          "name": "",
          "type": "address"
        }
      ],
      "stateMutability": "view",
      "type": "function"
    },
    {
      "inputs": [
        {
          "internalType": "address",
          "name": "market",
          "type": "address"
        },
        {
          "internalType": "address",
          "name": "account",
          "type": "address"
        },
        {
          "internalType": "bool",
          "name": "isLong",
          "type": "bool"
        }
      ],
      "name": "availableLiquidity",
      "outputs": [
        {
          "internalType": "uint256",
          "name": "",
          "type": "uint256"
        }
      ],
      "stateMutability": "view",
      "type": "function"
    },
    {
      "inputs": [
        {
          "internalType": "bytes[]",
          "name": "calls",
          "type": "bytes[]"
        }
      ],
      "name": "blockAndAggregate",
      "outputs": [
        {
          "internalType": "uint256",
          "name": "blockNumber",
          "type": "uint256"
        },
        {
          "internalType": "bytes32",
          "name": "blockHash",
          "type": "bytes32"
        },
        {
          "components": [
            {
              "internalType": "bool",
              "name": "success",
              "type": "bool"
            },
            {
              "internalType": "bytes",
              "name": "returnData",
              "type": "bytes"
            }
          ],
          "internalType": "struct DummyDiamondImplementation.Tuple557464[]",
          "name": "returnData",
          "type": "tuple[]"
        }
      ],
      "stateMutability": "nonpayable",
      "type": "function"
    },
    {
      "inputs": [
        {
          "internalType": "address",
          "name": "account",
          "type": "address"
        },
        {
          "internalType": "uint16",
          "name": "market",
          "type": "uint16"
        },
        {
          "internalType": "bool",
          "name": "isIncrease",
          "type": "bool"
        },
        {
          "internalType": "uint256",
          "name": "orderID",
          "type": "uint256"
        },
        {
          "internalType": "bool",
          "name": "isLong",
          "type": "bool"
        }
      ],
      "name": "cancelOrder",
      "outputs": [
        {
          "components": [
            {
              "internalType": "bytes32",
              "name": "refCode",
              "type": "bytes32"
            },
            {
              "internalType": "uint128",
              "name": "collateral",
              "type": "uint128"
            },
            {
              "internalType": "uint128",
              "name": "size",
              "type": "uint128"
            },
            {
              "internalType": "uint256",
              "name": "price",
              "type": "uint256"
            },
            {
              "internalType": "uint256",
              "name": "tp",
              "type": "uint256"
            },
            {
              "internalType": "bool",
              "name": "triggerAbove",
              "type": "bool"
            },
            {
              "internalType": "bool",
              "name": "isFromMarket",
              "type": "bool"
            },
            {
              "internalType": "bool",
              "name": "isKeepLev",
              "type": "bool"
            },
            {
              "internalType": "bool",
              "name": "isKeepLevTP",
              "type": "bool"
            },
            {
              "internalType": "bool",
              "name": "isKeepLevSL",
              "type": "bool"
            },
            {
              "internalType": "uint64",
              "name": "orderID",
              "type": "uint64"
            },
            {
              "internalType": "uint64",
              "name": "pairId",
              "type": "uint64"
            },
            {
              "internalType": "uint64",
              "name": "fromId",
              "type": "uint64"
            },
            {
              "internalType": "uint32",
              "name": "updatedAtBlock",
              "type": "uint32"
            },
            {
              "internalType": "uint8",
              "name": "extra0",
              "type": "uint8"
            },
            {
              "internalType": "address",
              "name": "account",
              "type": "address"
            },
            {
              "internalType": "uint96",
              "name": "extra1",
              "type": "uint96"
            },
            {
              "internalType": "uint256",
              "name": "sl",
              "type": "uint256"
            },
            {
              "internalType": "bool",
              "name": "isIncrease",
              "type": "bool"
            },
            {
              "internalType": "bool",
              "name": "isLong",
              "type": "bool"
            },
            {
              "internalType": "uint16",
              "name": "market",
              "type": "uint16"
            },
            {
              "internalType": "uint96",
              "name": "extra2",
              "type": "uint96"
            },
            {
              "internalType": "uint128",
              "name": "gas",
              "type": "uint128"
            },
            {
              "internalType": "uint8",
              "name": "version",
              "type": "uint8"
            }
          ],
          "internalType": "struct DummyDiamondImplementation.Tuple564566[]",
          "name": "_orders",
          "type": "tuple[]"
        }
      ],
      "stateMutability": "nonpayable",
      "type": "function"
    },
    {
      "inputs": [
        {
          "internalType": "uint16",
          "name": "marketId",
          "type": "uint16"
        }
      ],
      "name": "containsMarket",
      "outputs": [
        {
          "internalType": "bool",
          "name": "",
          "type": "bool"
        }
      ],
      "stateMutability": "view",
      "type": "function"
    },
    {
      "inputs": [
        {
          "internalType": "uint16",
          "name": "market",
          "type": "uint16"
        },
        {
          "internalType": "address",
          "name": "account",
          "type": "address"
        }
      ],
      "name": "containsPositionOfUser",
      "outputs": [
        {
          "internalType": "bool",
          "name": "",
          "type": "bool"
        }
      ],
      "stateMutability": "view",
      "type": "function"
    },
    {
      "inputs": [
        {
          "internalType": "uint16",
          "name": "market",
          "type": "uint16"
        },
        {
          "internalType": "bool",
          "name": "isLong",
          "type": "bool"
        }
      ],
      "name": "cumulativeFundingRates",
      "outputs": [
        {
          "internalType": "int256",
          "name": "",
          "type": "int256"
        }
      ],
      "stateMutability": "view",
      "type": "function"
    },
    {
      "inputs": [
        {
          "components": [
            {
              "internalType": "address",
              "name": "facetAddress",
              "type": "address"
            },
            {
              "internalType": "uint8",
              "name": "action",
              "type": "uint8"
            },
            {
              "internalType": "bytes4[]",
              "name": "functionSelectors",
              "type": "bytes4[]"
            }
          ],
          "internalType": "struct DummyDiamondImplementation.Tuple6871229[]",
          "name": "_diamondCut",
          "type": "tuple[]"
        },
        {
          "internalType": "address",
          "name": "_init",
          "type": "address"
        },
        {
          "internalType": "bytes",
          "name": "_calldata",
          "type": "bytes"
        }
      ],
      "name": "diamondCut",
      "outputs": [],
      "stateMutability": "nonpayable",
      "type": "function"
    },
    {
      "inputs": [
        {
          "components": [
            {
              "internalType": "bytes32",
              "name": "refCode",
              "type": "bytes32"
            },
            {
              "internalType": "uint128",
              "name": "collateral",
              "type": "uint128"
            },
            {
              "internalType": "uint128",
              "name": "size",
              "type": "uint128"
            },
            {
              "internalType": "uint256",
              "name": "price",
              "type": "uint256"
            },
            {
              "internalType": "uint256",
              "name": "tp",
              "type": "uint256"
            },
            {
              "internalType": "bool",
              "name": "triggerAbove",
              "type": "bool"
            },
            {
              "internalType": "bool",
              "name": "isFromMarket",
              "type": "bool"
            },
            {
              "internalType": "bool",
              "name": "isKeepLev",
              "type": "bool"
            },
            {
              "internalType": "bool",
              "name": "isKeepLevTP",
              "type": "bool"
            },
            {
              "internalType": "bool",
              "name": "isKeepLevSL",
              "type": "bool"
            },
            {
              "internalType": "uint64",
              "name": "orderID",
              "type": "uint64"
            },
            {
              "internalType": "uint64",
              "name": "pairId",
              "type": "uint64"
            },
            {
              "internalType": "uint64",
              "name": "fromId",
              "type": "uint64"
            },
            {
              "internalType": "uint32",
              "name": "updatedAtBlock",
              "type": "uint32"
            },
            {
              "internalType": "uint8",
              "name": "extra0",
              "type": "uint8"
            },
            {
              "internalType": "address",
              "name": "account",
              "type": "address"
            },
            {
              "internalType": "uint96",
              "name": "extra1",
              "type": "uint96"
            },
            {
              "internalType": "uint256",
              "name": "sl",
              "type": "uint256"
            },
            {
              "internalType": "bool",
              "name": "isIncrease",
              "type": "bool"
            },
            {
              "internalType": "bool",
              "name": "isLong",
              "type": "bool"
            },
            {
              "internalType": "uint16",
              "name": "market",
              "type": "uint16"
            },
            {
              "internalType": "uint96",
              "name": "extra2",
              "type": "uint96"
            },
            {
              "internalType": "uint128",
              "name": "gas",
              "type": "uint128"
            },
            {
              "internalType": "uint8",
              "name": "version",
              "type": "uint8"
            }
          ],
          "internalType": "struct DummyDiamondImplementation.Tuple680644",
          "name": "order",
          "type": "tuple"
        },
        {
          "components": [
            {
              "internalType": "uint8",
              "name": "busiType",
              "type": "uint8"
            },
            {
              "internalType": "uint256",
              "name": "oraclePrice",
              "type": "uint256"
            },
            {
              "internalType": "uint256",
              "name": "pay",
              "type": "uint256"
            },
            {
              "internalType": "uint256",
              "name": "slippage",
              "type": "uint256"
            },
            {
              "internalType": "uint16",
              "name": "market",
              "type": "uint16"
            },
            {
              "internalType": "bool",
              "name": "isLong",
              "type": "bool"
            },
            {
              "internalType": "bool",
              "name": "isOpen",
              "type": "bool"
            },
            {
              "internalType": "bool",
              "name": "isCreate",
              "type": "bool"
            },
            {
              "internalType": "bool",
              "name": "isFromMarket",
              "type": "bool"
            },
            {
              "internalType": "uint256",
              "name": "sizeDelta",
              "type": "uint256"
            },
            {
              "internalType": "uint256",
              "name": "price",
              "type": "uint256"
            },
            {
              "internalType": "uint256",
              "name": "collateralDelta",
              "type": "uint256"
            },
            {
              "internalType": "uint256",
              "name": "collateral",
              "type": "uint256"
            },
            {
              "internalType": "uint256",
              "name": "tp",
              "type": "uint256"
            },
            {
              "internalType": "uint256",
              "name": "sl",
              "type": "uint256"
            },
            {
              "internalType": "uint64",
              "name": "orderId",
              "type": "uint64"
            },
            {
              "internalType": "address",
              "name": "account",
              "type": "address"
            },
            {
              "internalType": "bool",
              "name": "isExec",
              "type": "bool"
            },
            {
              "internalType": "uint8",
              "name": "liqState",
              "type": "uint8"
            },
            {
              "internalType": "uint64",
              "name": "fromOrder",
              "type": "uint64"
            },
            {
              "internalType": "bytes32",
              "name": "refCode",
              "type": "bytes32"
            },
            {
              "internalType": "uint8",
              "name": "execNum",
              "type": "uint8"
            },
            {
              "internalType": "bool",
              "name": "isKeepLev",
              "type": "bool"
            },
            {
              "internalType": "bool",
              "name": "isKeepLevTP",
              "type": "bool"
            },
            {
              "internalType": "bool",
              "name": "isKeepLevSL",
              "type": "bool"
            },
            {
              "internalType": "bool",
              "name": "triggerAbove",
              "type": "bool"
            },
            {
              "internalType": "uint128",
              "name": "gas",
              "type": "uint128"
            }
          ],
          "internalType": "struct DummyDiamondImplementation.Tuple5849784",
          "name": "_params",
          "type": "tuple"
        }
      ],
      "name": "execAddOrder",
      "outputs": [],
      "stateMutability": "nonpayable",
      "type": "function"
    },
    {
      "inputs": [
        {
          "components": [
            {
              "internalType": "bytes32",
              "name": "refCode",
              "type": "bytes32"
            },
            {
              "internalType": "uint128",
              "name": "collateral",
              "type": "uint128"
            },
            {
              "internalType": "uint128",
              "name": "size",
              "type": "uint128"
            },
            {
              "internalType": "uint256",
              "name": "price",
              "type": "uint256"
            },
            {
              "internalType": "uint256",
              "name": "tp",
              "type": "uint256"
            },
            {
              "internalType": "bool",
              "name": "triggerAbove",
              "type": "bool"
            },
            {
              "internalType": "bool",
              "name": "isFromMarket",
              "type": "bool"
            },
            {
              "internalType": "bool",
              "name": "isKeepLev",
              "type": "bool"
            },
            {
              "internalType": "bool",
              "name": "isKeepLevTP",
              "type": "bool"
            },
            {
              "internalType": "bool",
              "name": "isKeepLevSL",
              "type": "bool"
            },
            {
              "internalType": "uint64",
              "name": "orderID",
              "type": "uint64"
            },
            {
              "internalType": "uint64",
              "name": "pairId",
              "type": "uint64"
            },
            {
              "internalType": "uint64",
              "name": "fromId",
              "type": "uint64"
            },
            {
              "internalType": "uint32",
              "name": "updatedAtBlock",
              "type": "uint32"
            },
            {
              "internalType": "uint8",
              "name": "extra0",
              "type": "uint8"
            },
            {
              "internalType": "address",
              "name": "account",
              "type": "address"
            },
            {
              "internalType": "uint96",
              "name": "extra1",
              "type": "uint96"
            },
            {
              "internalType": "uint256",
              "name": "sl",
              "type": "uint256"
            },
            {
              "internalType": "bool",
              "name": "isIncrease",
              "type": "bool"
            },
            {
              "internalType": "bool",
              "name": "isLong",
              "type": "bool"
            },
            {
              "internalType": "uint16",
              "name": "market",
              "type": "uint16"
            },
            {
              "internalType": "uint96",
              "name": "extra2",
              "type": "uint96"
            },
            {
              "internalType": "uint128",
              "name": "gas",
              "type": "uint128"
            },
            {
              "internalType": "uint8",
              "name": "version",
              "type": "uint8"
            }
          ],
          "internalType": "struct DummyDiamondImplementation.Tuple680644",
          "name": "order",
          "type": "tuple"
        },
        {
          "components": [
            {
              "internalType": "uint8",
              "name": "busiType",
              "type": "uint8"
            },
            {
              "internalType": "uint256",
              "name": "oraclePrice",
              "type": "uint256"
            },
            {
              "internalType": "uint256",
              "name": "pay",
              "type": "uint256"
            },
            {
              "internalType": "uint256",
              "name": "slippage",
              "type": "uint256"
            },
            {
              "internalType": "uint16",
              "name": "market",
              "type": "uint16"
            },
            {
              "internalType": "bool",
              "name": "isLong",
              "type": "bool"
            },
            {
              "internalType": "bool",
              "name": "isOpen",
              "type": "bool"
            },
            {
              "internalType": "bool",
              "name": "isCreate",
              "type": "bool"
            },
            {
              "internalType": "bool",
              "name": "isFromMarket",
              "type": "bool"
            },
            {
              "internalType": "uint256",
              "name": "sizeDelta",
              "type": "uint256"
            },
            {
              "internalType": "uint256",
              "name": "price",
              "type": "uint256"
            },
            {
              "internalType": "uint256",
              "name": "collateralDelta",
              "type": "uint256"
            },
            {
              "internalType": "uint256",
              "name": "collateral",
              "type": "uint256"
            },
            {
              "internalType": "uint256",
              "name": "tp",
              "type": "uint256"
            },
            {
              "internalType": "uint256",
              "name": "sl",
              "type": "uint256"
            },
            {
              "internalType": "uint64",
              "name": "orderId",
              "type": "uint64"
            },
            {
              "internalType": "address",
              "name": "account",
              "type": "address"
            },
            {
              "internalType": "bool",
              "name": "isExec",
              "type": "bool"
            },
            {
              "internalType": "uint8",
              "name": "liqState",
              "type": "uint8"
            },
            {
              "internalType": "uint64",
              "name": "fromOrder",
              "type": "uint64"
            },
            {
              "internalType": "bytes32",
              "name": "refCode",
              "type": "bytes32"
            },
            {
              "internalType": "uint8",
              "name": "execNum",
              "type": "uint8"
            },
            {
              "internalType": "bool",
              "name": "isKeepLev",
              "type": "bool"
            },
            {
              "internalType": "bool",
              "name": "isKeepLevTP",
              "type": "bool"
            },
            {
              "internalType": "bool",
              "name": "isKeepLevSL",
              "type": "bool"
            },
            {
              "internalType": "bool",
              "name": "triggerAbove",
              "type": "bool"
            },
            {
              "internalType": "uint128",
              "name": "gas",
              "type": "uint128"
            }
          ],
          "internalType": "struct DummyDiamondImplementation.Tuple5849784",
          "name": "_params",
          "type": "tuple"
        }
      ],
      "name": "execSubOrder",
      "outputs": [],
      "stateMutability": "nonpayable",
      "type": "function"
    },
    {
      "inputs": [
        {
          "internalType": "bytes4",
          "name": "_functionSelector",
          "type": "bytes4"
        }
      ],
      "name": "facetAddress",
      "outputs": [
        {
          "internalType": "address",
          "name": "facetAddress_",
          "type": "address"
        }
      ],
      "stateMutability": "view",
      "type": "function"
    },
    {
      "inputs": [],
      "name": "facetAddresses",
      "outputs": [
        {
          "internalType": "address[]",
          "name": "facetAddresses_",
          "type": "address[]"
        }
      ],
      "stateMutability": "view",
      "type": "function"
    },
    {
      "inputs": [
        {
          "internalType": "address",
          "name": "_facet",
          "type": "address"
        }
      ],
      "name": "facetFunctionSelectors",
      "outputs": [
        {
          "internalType": "bytes4[]",
          "name": "facetFunctionSelectors_",
          "type": "bytes4[]"
        }
      ],
      "stateMutability": "view",
      "type": "function"
    },
    {
      "inputs": [],
      "name": "facets",
      "outputs": [
        {
          "components": [
            {
              "internalType": "address",
              "name": "facetAddress",
              "type": "address"
            },
            {
              "internalType": "bytes4[]",
              "name": "functionSelectors",
              "type": "bytes4[]"
            }
          ],
          "internalType": "struct DummyDiamondImplementation.Tuple1236461[]",
          "name": "facets_",
          "type": "tuple[]"
        }
      ],
      "stateMutability": "view",
      "type": "function"
    },
    {
      "inputs": [
        {
          "internalType": "uint16",
          "name": "market",
          "type": "uint16"
        },
        {
          "internalType": "address",
          "name": "to",
          "type": "address"
        },
        {
          "internalType": "uint256",
          "name": "amount",
          "type": "uint256"
        }
      ],
      "name": "feeWithdraw",
      "outputs": [],
      "stateMutability": "nonpayable",
      "type": "function"
    },
    {
      "inputs": [
        {
          "internalType": "uint16",
          "name": "market",
          "type": "uint16"
        },
        {
          "internalType": "address",
          "name": "account",
          "type": "address"
        }
      ],
      "name": "getAccountSize",
      "outputs": [
        {
          "internalType": "uint256",
          "name": "",
          "type": "uint256"
        },
        {
          "internalType": "uint256",
          "name": "",
          "type": "uint256"
        }
      ],
      "stateMutability": "view",
      "type": "function"
    },
    {
      "inputs": [
        {
          "internalType": "uint16",
          "name": "market",
          "type": "uint16"
        },
        {
          "internalType": "address",
          "name": "account",
          "type": "address"
        }
      ],
      "name": "getAccountSizeOfMarkets",
      "outputs": [
        {
          "internalType": "uint256",
          "name": "sizesL",
          "type": "uint256"
        },
        {
          "internalType": "uint256",
          "name": "sizesS",
          "type": "uint256"
        }
      ],
      "stateMutability": "view",
      "type": "function"
    },
    {
      "inputs": [
        {
          "internalType": "uint256",
          "name": "blockNumber",
          "type": "uint256"
        }
      ],
      "name": "getBlockHash",
      "outputs": [
        {
          "internalType": "bytes32",
          "name": "blockHash",
          "type": "bytes32"
        }
      ],
      "stateMutability": "view",
      "type": "function"
    },
    {
      "inputs": [],
      "name": "getBlockNumber",
      "outputs": [
        {
          "internalType": "uint256",
          "name": "blockNumber",
          "type": "uint256"
        }
      ],
      "stateMutability": "view",
      "type": "function"
    },
    {
      "inputs": [
        {
          "internalType": "uint16",
          "name": "market",
          "type": "uint16"
        },
        {
          "internalType": "bool",
          "name": "_maximise",
          "type": "bool"
        }
      ],
      "name": "getChainPrice",
      "outputs": [
        {
          "internalType": "uint256",
          "name": "",
          "type": "uint256"
        }
      ],
      "stateMutability": "view",
      "type": "function"
    },
    {
      "inputs": [
        {
          "internalType": "bytes32",
          "name": "_code",
          "type": "bytes32"
        }
      ],
      "name": "getCodeOwners",
      "outputs": [
        {
          "internalType": "address",
          "name": "",
          "type": "address"
        }
      ],
      "stateMutability": "view",
      "type": "function"
    },
    {
      "inputs": [],
      "name": "getCurrentBlockCoinbase",
      "outputs": [
        {
          "internalType": "address",
          "name": "coinbase",
          "type": "address"
        }
      ],
      "stateMutability": "view",
      "type": "function"
    },
    {
      "inputs": [],
      "name": "getCurrentBlockGasLimit",
      "outputs": [
        {
          "internalType": "uint256",
          "name": "gaslimit",
          "type": "uint256"
        }
      ],
      "stateMutability": "view",
      "type": "function"
    },
    {
      "inputs": [],
      "name": "getCurrentBlockTimestamp",
      "outputs": [
        {
          "internalType": "uint256",
          "name": "timestamp",
          "type": "uint256"
        }
      ],
      "stateMutability": "view",
      "type": "function"
    },
    {
      "inputs": [
        {
          "internalType": "address",
          "name": "addr",
          "type": "address"
        }
      ],
      "name": "getEthBalance",
      "outputs": [
        {
          "internalType": "uint256",
          "name": "balance",
          "type": "uint256"
        }
      ],
      "stateMutability": "view",
      "type": "function"
    },
    {
      "inputs": [
        {
          "internalType": "uint16",
          "name": "market",
          "type": "uint16"
        }
      ],
      "name": "getExecFee",
      "outputs": [
        {
          "internalType": "uint256",
          "name": "",
          "type": "uint256"
        }
      ],
      "stateMutability": "view",
      "type": "function"
    },
    {
      "inputs": [
        {
          "components": [
            {
              "internalType": "uint16",
              "name": "market",
              "type": "uint16"
            },
            {
              "internalType": "bool",
              "name": "isLong",
              "type": "bool"
            },
            {
              "internalType": "bool",
              "name": "isIncrease",
              "type": "bool"
            },
            {
              "internalType": "uint256",
              "name": "start",
              "type": "uint256"
            },
            {
              "internalType": "uint256",
              "name": "end",
              "type": "uint256"
            },
            {
              "internalType": "bool",
              "name": "isOpen",
              "type": "bool"
            },
            {
              "internalType": "uint256",
              "name": "oraclePrice",
              "type": "uint256"
            },
            {
              "internalType": "bytes32",
              "name": "storageKey",
              "type": "bytes32"
            }
          ],
          "internalType": "struct DummyDiamondImplementation.Tuple2589231",
          "name": "cache",
          "type": "tuple"
        }
      ],
      "name": "getExecutableOrdersByPrice",
      "outputs": [
        {
          "components": [
            {
              "internalType": "bytes32",
              "name": "refCode",
              "type": "bytes32"
            },
            {
              "internalType": "uint128",
              "name": "collateral",
              "type": "uint128"
            },
            {
              "internalType": "uint128",
              "name": "size",
              "type": "uint128"
            },
            {
              "internalType": "uint256",
              "name": "price",
              "type": "uint256"
            },
            {
              "internalType": "uint256",
              "name": "tp",
              "type": "uint256"
            },
            {
              "internalType": "bool",
              "name": "triggerAbove",
              "type": "bool"
            },
            {
              "internalType": "bool",
              "name": "isFromMarket",
              "type": "bool"
            },
            {
              "internalType": "bool",
              "name": "isKeepLev",
              "type": "bool"
            },
            {
              "internalType": "bool",
              "name": "isKeepLevTP",
              "type": "bool"
            },
            {
              "internalType": "bool",
              "name": "isKeepLevSL",
              "type": "bool"
            },
            {
              "internalType": "uint64",
              "name": "orderID",
              "type": "uint64"
            },
            {
              "internalType": "uint64",
              "name": "pairId",
              "type": "uint64"
            },
            {
              "internalType": "uint64",
              "name": "fromId",
              "type": "uint64"
            },
            {
              "internalType": "uint32",
              "name": "updatedAtBlock",
              "type": "uint32"
            },
            {
              "internalType": "uint8",
              "name": "extra0",
              "type": "uint8"
            },
            {
              "internalType": "address",
              "name": "account",
              "type": "address"
            },
            {
              "internalType": "uint96",
              "name": "extra1",
              "type": "uint96"
            },
            {
              "internalType": "uint256",
              "name": "sl",
              "type": "uint256"
            },
            {
              "internalType": "bool",
              "name": "isIncrease",
              "type": "bool"
            },
            {
              "internalType": "bool",
              "name": "isLong",
              "type": "bool"
            },
            {
              "internalType": "uint16",
              "name": "market",
              "type": "uint16"
            },
            {
              "internalType": "uint96",
              "name": "extra2",
              "type": "uint96"
            },
            {
              "internalType": "uint128",
              "name": "gas",
              "type": "uint128"
            },
            {
              "internalType": "uint8",
              "name": "version",
              "type": "uint8"
            }
          ],
          "internalType": "struct DummyDiamondImplementation.Tuple564566[]",
          "name": "_orders",
          "type": "tuple[]"
        }
      ],
      "stateMutability": "view",
      "type": "function"
    },
    {
      "inputs": [
        {
          "internalType": "uint16",
          "name": "market",
          "type": "uint16"
        },
        {
          "internalType": "uint256",
          "name": "_referencePrice",
          "type": "uint256"
        },
        {
          "internalType": "bool",
          "name": "_maximise",
          "type": "bool"
        }
      ],
      "name": "getFastPrice",
      "outputs": [
        {
          "internalType": "uint256",
          "name": "",
          "type": "uint256"
        }
      ],
      "stateMutability": "view",
      "type": "function"
    },
    {
      "inputs": [
        {
          "internalType": "uint16",
          "name": "market",
          "type": "uint16"
        }
      ],
      "name": "getFeeAndRatesOfMarket",
      "outputs": [
        {
          "internalType": "uint256[]",
          "name": "fees",
          "type": "uint256[]"
        },
        {
          "internalType": "int256[]",
          "name": "fundingRates",
          "type": "int256[]"
        },
        {
          "internalType": "int256[]",
          "name": "_cumulativeFundingRates",
          "type": "int256[]"
        }
      ],
      "stateMutability": "view",
      "type": "function"
    },
    {
      "inputs": [
        {
          "components": [
            {
              "internalType": "uint8",
              "name": "busiType",
              "type": "uint8"
            },
            {
              "internalType": "uint256",
              "name": "oraclePrice",
              "type": "uint256"
            },
            {
              "internalType": "uint256",
              "name": "pay",
              "type": "uint256"
            },
            {
              "internalType": "uint256",
              "name": "slippage",
              "type": "uint256"
            },
            {
              "internalType": "uint16",
              "name": "market",
              "type": "uint16"
            },
            {
              "internalType": "bool",
              "name": "isLong",
              "type": "bool"
            },
            {
              "internalType": "bool",
              "name": "isOpen",
              "type": "bool"
            },
            {
              "internalType": "bool",
              "name": "isCreate",
              "type": "bool"
            },
            {
              "internalType": "bool",
              "name": "isFromMarket",
              "type": "bool"
            },
            {
              "internalType": "uint256",
              "name": "sizeDelta",
              "type": "uint256"
            },
            {
              "internalType": "uint256",
              "name": "price",
              "type": "uint256"
            },
            {
              "internalType": "uint256",
              "name": "collateralDelta",
              "type": "uint256"
            },
            {
              "internalType": "uint256",
              "name": "collateral",
              "type": "uint256"
            },
            {
              "internalType": "uint256",
              "name": "tp",
              "type": "uint256"
            },
            {
              "internalType": "uint256",
              "name": "sl",
              "type": "uint256"
            },
            {
              "internalType": "uint64",
              "name": "orderId",
              "type": "uint64"
            },
            {
              "internalType": "address",
              "name": "account",
              "type": "address"
            },
            {
              "internalType": "bool",
              "name": "isExec",
              "type": "bool"
            },
            {
              "internalType": "uint8",
              "name": "liqState",
              "type": "uint8"
            },
            {
              "internalType": "uint64",
              "name": "fromOrder",
              "type": "uint64"
            },
            {
              "internalType": "bytes32",
              "name": "refCode",
              "type": "bytes32"
            },
            {
              "internalType": "uint8",
              "name": "execNum",
              "type": "uint8"
            },
            {
              "internalType": "bool",
              "name": "isKeepLev",
              "type": "bool"
            },
            {
              "internalType": "bool",
              "name": "isKeepLevTP",
              "type": "bool"
            },
            {
              "internalType": "bool",
              "name": "isKeepLevSL",
              "type": "bool"
            },
            {
              "internalType": "bool",
              "name": "triggerAbove",
              "type": "bool"
            },
            {
              "internalType": "uint128",
              "name": "gas",
              "type": "uint128"
            }
          ],
          "internalType": "struct DummyDiamondImplementation.Tuple21927",
          "name": "params",
          "type": "tuple"
        },
        {
          "components": [
            {
              "internalType": "uint256",
              "name": "size",
              "type": "uint256"
            },
            {
              "internalType": "uint256",
              "name": "collateral",
              "type": "uint256"
            },
            {
              "internalType": "int256",
              "name": "entryFundingRate",
              "type": "int256"
            },
            {
              "internalType": "int256",
              "name": "realisedPnl",
              "type": "int256"
            },
            {
              "internalType": "uint256",
              "name": "averagePrice",
              "type": "uint256"
            },
            {
              "internalType": "bool",
              "name": "isLong",
              "type": "bool"
            },
            {
              "internalType": "uint32",
              "name": "lastTime",
              "type": "uint32"
            },
            {
              "internalType": "uint16",
              "name": "market",
              "type": "uint16"
            },
            {
              "internalType": "uint72",
              "name": "extra0",
              "type": "uint72"
            }
          ],
          "internalType": "struct DummyDiamondImplementation.Tuple464693",
          "name": "position",
          "type": "tuple"
        }
      ],
      "name": "getFeesReceivable",
      "outputs": [
        {
          "internalType": "int256[]",
          "name": "fees",
          "type": "int256[]"
        },
        {
          "internalType": "int256",
          "name": "totalFee",
          "type": "int256"
        }
      ],
      "stateMutability": "view",
      "type": "function"
    },
    {
      "inputs": [
        {
          "internalType": "uint16",
          "name": "market",
          "type": "uint16"
        },
        {
          "internalType": "uint256",
          "name": "size",
          "type": "uint256"
        },
        {
          "internalType": "int256",
          "name": "entryFundingRate",
          "type": "int256"
        },
        {
          "internalType": "bool",
          "name": "isLong",
          "type": "bool"
        }
      ],
      "name": "getFundingFee",
      "outputs": [
        {
          "internalType": "int256",
          "name": "",
          "type": "int256"
        }
      ],
      "stateMutability": "view",
      "type": "function"
    },
    {
      "inputs": [
        {
          "internalType": "uint16",
          "name": "market",
          "type": "uint16"
        }
      ],
      "name": "getGlobalOpenInterest",
      "outputs": [
        {
          "internalType": "uint256",
          "name": "_globalSize",
          "type": "uint256"
        }
      ],
      "stateMutability": "view",
      "type": "function"
    },
    {
      "inputs": [
        {
          "internalType": "address",
          "name": "_vault",
          "type": "address"
        }
      ],
      "name": "getGlobalPnl",
      "outputs": [
        {
          "internalType": "int256",
          "name": "",
          "type": "int256"
        }
      ],
      "stateMutability": "view",
      "type": "function"
    },
    {
      "inputs": [
        {
          "internalType": "uint16",
          "name": "market",
          "type": "uint16"
        },
        {
          "internalType": "bool",
          "name": "isLong",
          "type": "bool"
        }
      ],
      "name": "getGlobalPosition",
      "outputs": [
        {
          "components": [
            {
              "internalType": "uint256",
              "name": "size",
              "type": "uint256"
            },
            {
              "internalType": "uint256",
              "name": "collateral",
              "type": "uint256"
            },
            {
              "internalType": "int256",
              "name": "entryFundingRate",
              "type": "int256"
            },
            {
              "internalType": "int256",
              "name": "realisedPnl",
              "type": "int256"
            },
            {
              "internalType": "uint256",
              "name": "averagePrice",
              "type": "uint256"
            },
            {
              "internalType": "bool",
              "name": "isLong",
              "type": "bool"
            },
            {
              "internalType": "uint32",
              "name": "lastTime",
              "type": "uint32"
            },
            {
              "internalType": "uint16",
              "name": "market",
              "type": "uint16"
            },
            {
              "internalType": "uint72",
              "name": "extra0",
              "type": "uint72"
            }
          ],
          "internalType": "struct DummyDiamondImplementation.Tuple6022437",
          "name": "",
          "type": "tuple"
        }
      ],
      "stateMutability": "view",
      "type": "function"
    },
    {
      "inputs": [
        {
          "internalType": "uint16",
          "name": "market",
          "type": "uint16"
        }
      ],
      "name": "getGlobalSize",
      "outputs": [
        {
          "internalType": "uint256",
          "name": "sizesLong",
          "type": "uint256"
        },
        {
          "internalType": "uint256",
          "name": "sizesShort",
          "type": "uint256"
        }
      ],
      "stateMutability": "view",
      "type": "function"
    },
    {
      "inputs": [],
      "name": "getLastBlockHash",
      "outputs": [
        {
          "internalType": "bytes32",
          "name": "blockHash",
          "type": "bytes32"
        }
      ],
      "stateMutability": "view",
      "type": "function"
    },
    {
      "inputs": [
        {
          "internalType": "uint16",
          "name": "market",
          "type": "uint16"
        }
      ],
      "name": "getMarket",
      "outputs": [
        {
          "internalType": "bytes",
          "name": "result",
          "type": "bytes"
        }
      ],
      "stateMutability": "view",
      "type": "function"
    },
    {
      "inputs": [
        {
          "internalType": "uint16",
          "name": "market",
          "type": "uint16"
        }
      ],
      "name": "getMarketSizes",
      "outputs": [
        {
          "internalType": "uint256",
          "name": "",
          "type": "uint256"
        },
        {
          "internalType": "uint256",
          "name": "",
          "type": "uint256"
        }
      ],
      "stateMutability": "view",
      "type": "function"
    },
    {
      "inputs": [],
      "name": "getMarkets",
      "outputs": [
        {
          "internalType": "bytes",
          "name": "result",
          "type": "bytes"
        }
      ],
      "stateMutability": "view",
      "type": "function"
    },
    {
      "inputs": [
        {
          "internalType": "uint16",
          "name": "market",
          "type": "uint16"
        }
      ],
      "name": "getMarketsOfMarket",
      "outputs": [
        {
          "internalType": "uint256[]",
          "name": "",
          "type": "uint256[]"
        }
      ],
      "stateMutability": "view",
      "type": "function"
    },
    {
      "inputs": [
        {
          "internalType": "address",
          "name": "market",
          "type": "address"
        },
        {
          "internalType": "uint256",
          "name": "longSize",
          "type": "uint256"
        },
        {
          "internalType": "uint256",
          "name": "shortSize",
          "type": "uint256"
        }
      ],
      "name": "getNextFundingRate",
      "outputs": [],
      "stateMutability": "nonpayable",
      "type": "function"
    },
    {
      "inputs": [
        {
          "components": [
            {
              "internalType": "uint8",
              "name": "busiType",
              "type": "uint8"
            },
            {
              "internalType": "uint256",
              "name": "oraclePrice",
              "type": "uint256"
            },
            {
              "internalType": "uint256",
              "name": "pay",
              "type": "uint256"
            },
            {
              "internalType": "uint256",
              "name": "slippage",
              "type": "uint256"
            },
            {
              "internalType": "uint16",
              "name": "market",
              "type": "uint16"
            },
            {
              "internalType": "bool",
              "name": "isLong",
              "type": "bool"
            },
            {
              "internalType": "bool",
              "name": "isOpen",
              "type": "bool"
            },
            {
              "internalType": "bool",
              "name": "isCreate",
              "type": "bool"
            },
            {
              "internalType": "bool",
              "name": "isFromMarket",
              "type": "bool"
            },
            {
              "internalType": "uint256",
              "name": "sizeDelta",
              "type": "uint256"
            },
            {
              "internalType": "uint256",
              "name": "price",
              "type": "uint256"
            },
            {
              "internalType": "uint256",
              "name": "collateralDelta",
              "type": "uint256"
            },
            {
              "internalType": "uint256",
              "name": "collateral",
              "type": "uint256"
            },
            {
              "internalType": "uint256",
              "name": "tp",
              "type": "uint256"
            },
            {
              "internalType": "uint256",
              "name": "sl",
              "type": "uint256"
            },
            {
              "internalType": "uint64",
              "name": "orderId",
              "type": "uint64"
            },
            {
              "internalType": "address",
              "name": "account",
              "type": "address"
            },
            {
              "internalType": "bool",
              "name": "isExec",
              "type": "bool"
            },
            {
              "internalType": "uint8",
              "name": "liqState",
              "type": "uint8"
            },
            {
              "internalType": "uint64",
              "name": "fromOrder",
              "type": "uint64"
            },
            {
              "internalType": "bytes32",
              "name": "refCode",
              "type": "bytes32"
            },
            {
              "internalType": "uint8",
              "name": "execNum",
              "type": "uint8"
            },
            {
              "internalType": "bool",
              "name": "isKeepLev",
              "type": "bool"
            },
            {
              "internalType": "bool",
              "name": "isKeepLevTP",
              "type": "bool"
            },
            {
              "internalType": "bool",
              "name": "isKeepLevSL",
              "type": "bool"
            },
            {
              "internalType": "bool",
              "name": "triggerAbove",
              "type": "bool"
            },
            {
              "internalType": "uint128",
              "name": "gas",
              "type": "uint128"
            }
          ],
          "internalType": "struct DummyDiamondImplementation.Tuple2426236",
          "name": "data",
          "type": "tuple"
        }
      ],
      "name": "getOrderFees",
      "outputs": [
        {
          "internalType": "int256",
          "name": "fees",
          "type": "int256"
        }
      ],
      "stateMutability": "view",
      "type": "function"
    },
    {
      "inputs": [
        {
          "internalType": "uint16",
          "name": "market",
          "type": "uint16"
        }
      ],
      "name": "getPNLOfMarket",
      "outputs": [
        {
          "internalType": "int256",
          "name": "pnl",
          "type": "int256"
        }
      ],
      "stateMutability": "view",
      "type": "function"
    },
    {
      "inputs": [
        {
          "internalType": "uint16",
          "name": "market",
          "type": "uint16"
        },
        {
          "internalType": "address",
          "name": "account",
          "type": "address"
        },
        {
          "internalType": "uint256",
          "name": "sizeDelta",
          "type": "uint256"
        },
        {
          "internalType": "uint256",
          "name": "markPrice",
          "type": "uint256"
        },
        {
          "internalType": "bool",
          "name": "isLong",
          "type": "bool"
        }
      ],
      "name": "getPNLOfUser",
      "outputs": [
        {
          "internalType": "int256",
          "name": "",
          "type": "int256"
        }
      ],
      "stateMutability": "view",
      "type": "function"
    },
    {
      "inputs": [
        {
          "internalType": "uint16",
          "name": "market",
          "type": "uint16"
        },
        {
          "internalType": "address",
          "name": "account",
          "type": "address"
        },
        {
          "internalType": "uint256",
          "name": "markPrice",
          "type": "uint256"
        },
        {
          "internalType": "bool",
          "name": "isLong",
          "type": "bool"
        }
      ],
      "name": "getPosition",
      "outputs": [
        {
          "components": [
            {
              "internalType": "uint256",
              "name": "size",
              "type": "uint256"
            },
            {
              "internalType": "uint256",
              "name": "collateral",
              "type": "uint256"
            },
            {
              "internalType": "int256",
              "name": "entryFundingRate",
              "type": "int256"
            },
            {
              "internalType": "int256",
              "name": "realisedPnl",
              "type": "int256"
            },
            {
              "internalType": "uint256",
              "name": "averagePrice",
              "type": "uint256"
            },
            {
              "internalType": "bool",
              "name": "isLong",
              "type": "bool"
            },
            {
              "internalType": "uint32",
              "name": "lastTime",
              "type": "uint32"
            },
            {
              "internalType": "uint16",
              "name": "market",
              "type": "uint16"
            },
            {
              "internalType": "uint72",
              "name": "extra0",
              "type": "uint72"
            }
          ],
          "internalType": "struct DummyDiamondImplementation.Tuple6022437",
          "name": "",
          "type": "tuple"
        }
      ],
      "stateMutability": "view",
      "type": "function"
    },
    {
      "inputs": [
        {
          "internalType": "uint16",
          "name": "market",
          "type": "uint16"
        },
        {
          "internalType": "bool",
          "name": "isLong",
          "type": "bool"
        }
      ],
      "name": "getPositionCount",
      "outputs": [
        {
          "internalType": "uint256",
          "name": "",
          "type": "uint256"
        }
      ],
      "stateMutability": "view",
      "type": "function"
    },
    {
      "inputs": [
        {
          "internalType": "uint16",
          "name": "market",
          "type": "uint16"
        },
        {
          "internalType": "uint256",
          "name": "start",
          "type": "uint256"
        },
        {
          "internalType": "uint256",
          "name": "end",
          "type": "uint256"
        },
        {
          "internalType": "bool",
          "name": "isLong",
          "type": "bool"
        }
      ],
      "name": "getPositionKeys",
      "outputs": [
        {
          "internalType": "address[]",
          "name": "",
          "type": "address[]"
        }
      ],
      "stateMutability": "view",
      "type": "function"
    },
    {
      "inputs": [
        {
          "internalType": "uint16",
          "name": "market",
          "type": "uint16"
        },
        {
          "internalType": "address",
          "name": "account",
          "type": "address"
        }
      ],
      "name": "getPositions",
      "outputs": [
        {
          "components": [
            {
              "internalType": "uint256",
              "name": "size",
              "type": "uint256"
            },
            {
              "internalType": "uint256",
              "name": "collateral",
              "type": "uint256"
            },
            {
              "internalType": "int256",
              "name": "entryFundingRate",
              "type": "int256"
            },
            {
              "internalType": "int256",
              "name": "realisedPnl",
              "type": "int256"
            },
            {
              "internalType": "uint256",
              "name": "averagePrice",
              "type": "uint256"
            },
            {
              "internalType": "bool",
              "name": "isLong",
              "type": "bool"
            },
            {
              "internalType": "uint32",
              "name": "lastTime",
              "type": "uint32"
            },
            {
              "internalType": "uint16",
              "name": "market",
              "type": "uint16"
            },
            {
              "internalType": "uint72",
              "name": "extra0",
              "type": "uint72"
            }
          ],
          "internalType": "struct DummyDiamondImplementation.Tuple09420",
          "name": "posLong",
          "type": "tuple"
        },
        {
          "components": [
            {
              "internalType": "uint256",
              "name": "size",
              "type": "uint256"
            },
            {
              "internalType": "uint256",
              "name": "collateral",
              "type": "uint256"
            },
            {
              "internalType": "int256",
              "name": "entryFundingRate",
              "type": "int256"
            },
            {
              "internalType": "int256",
              "name": "realisedPnl",
              "type": "int256"
            },
            {
              "internalType": "uint256",
              "name": "averagePrice",
              "type": "uint256"
            },
            {
              "internalType": "bool",
              "name": "isLong",
              "type": "bool"
            },
            {
              "internalType": "uint32",
              "name": "lastTime",
              "type": "uint32"
            },
            {
              "internalType": "uint16",
              "name": "market",
              "type": "uint16"
            },
            {
              "internalType": "uint72",
              "name": "extra0",
              "type": "uint72"
            }
          ],
          "internalType": "struct DummyDiamondImplementation.Tuple6462124",
          "name": "posShort",
          "type": "tuple"
        }
      ],
      "stateMutability": "view",
      "type": "function"
    },
    {
      "inputs": [
        {
          "internalType": "uint16",
          "name": "market",
          "type": "uint16"
        },
        {
          "internalType": "bool",
          "name": "_maximise",
          "type": "bool"
        }
      ],
      "name": "getPrice",
      "outputs": [
        {
          "internalType": "uint256",
          "name": "",
          "type": "uint256"
        }
      ],
      "stateMutability": "view",
      "type": "function"
    },
    {
      "inputs": [],
      "name": "getUSDDecimals",
      "outputs": [
        {
          "internalType": "uint8",
          "name": "",
          "type": "uint8"
        }
      ],
      "stateMutability": "pure",
      "type": "function"
    },
    {
      "inputs": [
        {
          "internalType": "bytes32",
          "name": "_code",
          "type": "bytes32"
        },
        {
          "internalType": "address",
          "name": "_newAccount",
          "type": "address"
        }
      ],
      "name": "govSetCodeOwner",
      "outputs": [],
      "stateMutability": "nonpayable",
      "type": "function"
    },
    {
      "inputs": [],
      "name": "implementation",
      "outputs": [
        {
          "internalType": "address",
          "name": "",
          "type": "address"
        }
      ],
      "stateMutability": "view",
      "type": "function"
    },
    {
      "inputs": [],
      "name": "initDefaultOracleConfig",
      "outputs": [],
      "stateMutability": "nonpayable",
      "type": "function"
    },
    {
      "inputs": [
        {
          "internalType": "uint16",
          "name": "market",
          "type": "uint16"
        }
      ],
      "name": "initFeeFacet",
      "outputs": [],
      "stateMutability": "nonpayable",
      "type": "function"
    },
    {
      "inputs": [
        {
          "internalType": "address",
          "name": "_account",
          "type": "address"
        },
        {
          "internalType": "uint16",
          "name": "_market",
          "type": "uint16"
        },
        {
          "internalType": "bool",
          "name": "_isLong",
          "type": "bool"
        },
        {
          "internalType": "uint256",
          "name": "_price",
          "type": "uint256"
        }
      ],
      "name": "isLiquidate",
      "outputs": [
        {
          "internalType": "uint8",
          "name": "_state",
          "type": "uint8"
        }
      ],
      "stateMutability": "view",
      "type": "function"
    },
    {
      "inputs": [
        {
          "internalType": "uint16",
          "name": "market",
          "type": "uint16"
        },
        {
          "internalType": "address",
          "name": "accounts",
          "type": "address"
        },
        {
          "internalType": "bool",
          "name": "_isLong",
          "type": "bool"
        }
      ],
      "name": "liquidate",
      "outputs": [],
      "stateMutability": "nonpayable",
      "type": "function"
    },
    {
      "inputs": [
        {
          "internalType": "uint16",
          "name": "market",
          "type": "uint16"
        }
      ],
      "name": "markeConfig",
      "outputs": [
        {
          "components": [
            {
              "internalType": "bool",
              "name": "isSuspended",
              "type": "bool"
            },
            {
              "internalType": "bool",
              "name": "allowOpen",
              "type": "bool"
            },
            {
              "internalType": "bool",
              "name": "allowClose",
              "type": "bool"
            },
            {
              "internalType": "bool",
              "name": "validDecrease",
              "type": "bool"
            },
            {
              "internalType": "uint16",
              "name": "minSlippage",
              "type": "uint16"
            },
            {
              "internalType": "uint16",
              "name": "maxSlippage",
              "type": "uint16"
            },
            {
              "internalType": "uint16",
              "name": "minLeverage",
              "type": "uint16"
            },
            {
              "internalType": "uint16",
              "name": "maxLeverage",
              "type": "uint16"
            },
            {
              "internalType": "uint16",
              "name": "minPayment",
              "type": "uint16"
            },
            {
              "internalType": "uint16",
              "name": "minCollateral",
              "type": "uint16"
            },
            {
              "internalType": "uint16",
              "name": "decreaseNumLimit",
              "type": "uint16"
            },
            {
              "internalType": "uint32",
              "name": "maxTradeAmount",
              "type": "uint32"
            }
          ],
          "internalType": "struct DummyDiamondImplementation.Tuple826895",
          "name": "_config",
          "type": "tuple"
        }
      ],
      "stateMutability": "view",
      "type": "function"
    },
    {
      "inputs": [],
      "name": "owner",
      "outputs": [
        {
          "internalType": "address",
          "name": "owner_",
          "type": "address"
        }
      ],
      "stateMutability": "view",
      "type": "function"
    },
    {
      "inputs": [
        {
          "internalType": "uint16",
          "name": "market",
          "type": "uint16"
        }
      ],
      "name": "priceFeed",
      "outputs": [
        {
          "internalType": "address",
          "name": "",
          "type": "address"
        }
      ],
      "stateMutability": "view",
      "type": "function"
    },
    {
      "inputs": [
        {
          "internalType": "bytes32",
          "name": "_code",
          "type": "bytes32"
        }
      ],
      "name": "registerCode",
      "outputs": [],
      "stateMutability": "nonpayable",
      "type": "function"
    },
    {
      "inputs": [
        {
          "internalType": "uint16",
          "name": "marketId",
          "type": "uint16"
        }
      ],
      "name": "removeMarket",
      "outputs": [],
      "stateMutability": "nonpayable",
      "type": "function"
    },
    {
      "inputs": [
        {
          "internalType": "address",
          "name": "newAuthority",
          "type": "address"
        }
      ],
      "name": "setAuthority",
      "outputs": [],
      "stateMutability": "nonpayable",
      "type": "function"
    },
    {
      "inputs": [
        {
          "internalType": "uint16",
          "name": "market",
          "type": "uint16"
        },
        {
          "internalType": "bool",
          "name": "isLong",
          "type": "bool"
        },
        {
          "internalType": "int256",
          "name": "calFundingRate",
          "type": "int256"
        }
      ],
      "name": "setCalFundingRates",
      "outputs": [],
      "stateMutability": "nonpayable",
      "type": "function"
    },
    {
      "inputs": [
        {
          "internalType": "uint16",
          "name": "market",
          "type": "uint16"
        },
        {
          "internalType": "uint256",
          "name": "interval",
          "type": "uint256"
        }
      ],
      "name": "setCalIntervals",
      "outputs": [],
      "stateMutability": "nonpayable",
      "type": "function"
    },
    {
      "inputs": [
        {
          "internalType": "bytes32",
          "name": "_code",
          "type": "bytes32"
        },
        {
          "internalType": "address",
          "name": "_newAccount",
          "type": "address"
        }
      ],
      "name": "setCodeOwner",
      "outputs": [],
      "stateMutability": "nonpayable",
      "type": "function"
    },
    {
      "inputs": [
        {
          "internalType": "address",
          "name": "_implementation",
          "type": "address"
        }
      ],
      "name": "setDummyImplementation",
      "outputs": [],
      "stateMutability": "nonpayable",
      "type": "function"
    },
    {
      "inputs": [
        {
          "internalType": "uint16",
          "name": "market",
          "type": "uint16"
        },
        {
          "internalType": "uint8",
          "name": "feeType",
          "type": "uint8"
        },
        {
          "internalType": "uint256",
          "name": "feeAndRate",
          "type": "uint256"
        }
      ],
      "name": "setFeeAndRates",
      "outputs": [],
      "stateMutability": "nonpayable",
      "type": "function"
    },
    {
      "inputs": [
        {
          "internalType": "uint16",
          "name": "market",
          "type": "uint16"
        },
        {
          "internalType": "uint8",
          "name": "configType",
          "type": "uint8"
        },
        {
          "internalType": "uint256",
          "name": "value",
          "type": "uint256"
        }
      ],
      "name": "setFeeConfigs",
      "outputs": [],
      "stateMutability": "nonpayable",
      "type": "function"
    },
    {
      "inputs": [
        {
          "internalType": "uint16",
          "name": "market",
          "type": "uint16"
        },
        {
          "internalType": "uint256",
          "name": "loss",
          "type": "uint256"
        }
      ],
      "name": "setFundFeeLoss",
      "outputs": [],
      "stateMutability": "nonpayable",
      "type": "function"
    },
    {
      "inputs": [
        {
          "internalType": "uint16",
          "name": "market",
          "type": "uint16"
        },
        {
          "internalType": "uint256",
          "name": "interval",
          "type": "uint256"
        }
      ],
      "name": "setFundingIntervals",
      "outputs": [],
      "stateMutability": "nonpayable",
      "type": "function"
    },
    {
      "inputs": [
        {
          "internalType": "uint16",
          "name": "market",
          "type": "uint16"
        },
        {
          "internalType": "bool",
          "name": "isLong",
          "type": "bool"
        },
        {
          "internalType": "int256",
          "name": "fundingRate",
          "type": "int256"
        },
        {
          "internalType": "int256",
          "name": "cumulativeFundingRate",
          "type": "int256"
        }
      ],
      "name": "setFundingRates",
      "outputs": [],
      "stateMutability": "nonpayable",
      "type": "function"
    },
    {
      "inputs": [
        {
          "internalType": "uint16",
          "name": "market",
          "type": "uint16"
        },
        {
          "internalType": "uint256",
          "name": "lastCalTime",
          "type": "uint256"
        }
      ],
      "name": "setLastCalTimes",
      "outputs": [],
      "stateMutability": "nonpayable",
      "type": "function"
    },
    {
      "inputs": [
        {
          "internalType": "uint16",
          "name": "market",
          "type": "uint16"
        },
        {
          "components": [
            {
              "internalType": "bool",
              "name": "isSuspended",
              "type": "bool"
            },
            {
              "internalType": "bool",
              "name": "allowOpen",
              "type": "bool"
            },
            {
              "internalType": "bool",
              "name": "allowClose",
              "type": "bool"
            },
            {
              "internalType": "bool",
              "name": "validDecrease",
              "type": "bool"
            },
            {
              "internalType": "uint16",
              "name": "minSlippage",
              "type": "uint16"
            },
            {
              "internalType": "uint16",
              "name": "maxSlippage",
              "type": "uint16"
            },
            {
              "internalType": "uint16",
              "name": "minLeverage",
              "type": "uint16"
            },
            {
              "internalType": "uint16",
              "name": "maxLeverage",
              "type": "uint16"
            },
            {
              "internalType": "uint16",
              "name": "minPayment",
              "type": "uint16"
            },
            {
              "internalType": "uint16",
              "name": "minCollateral",
              "type": "uint16"
            },
            {
              "internalType": "uint16",
              "name": "decreaseNumLimit",
              "type": "uint16"
            },
            {
              "internalType": "uint32",
              "name": "maxTradeAmount",
              "type": "uint32"
            }
          ],
          "internalType": "struct DummyDiamondImplementation.Tuple9273272",
          "name": "data",
          "type": "tuple"
        }
      ],
      "name": "setMarketConf",
      "outputs": [],
      "stateMutability": "nonpayable",
      "type": "function"
    },
    {
      "inputs": [
        {
          "internalType": "uint16[]",
          "name": "_market",
          "type": "uint16[]"
        },
        {
          "internalType": "uint256[]",
          "name": "_maxCumulativeDeltaDiffs",
          "type": "uint256[]"
        }
      ],
      "name": "setMaxCumulativeDeltaDiffs",
      "outputs": [],
      "stateMutability": "nonpayable",
      "type": "function"
    },
    {
      "inputs": [
        {
          "components": [
            {
              "internalType": "uint32",
              "name": "maxDeviationBP",
              "type": "uint32"
            },
            {
              "internalType": "uint32",
              "name": "priceDuration",
              "type": "uint32"
            },
            {
              "internalType": "uint32",
              "name": "maxPriceUpdateDelay",
              "type": "uint32"
            },
            {
              "internalType": "uint32",
              "name": "priceDataInterval",
              "type": "uint32"
            },
            {
              "internalType": "uint32",
              "name": "sampleSpace",
              "type": "uint32"
            }
          ],
          "internalType": "struct DummyDiamondImplementation.Tuple803863",
          "name": "_config",
          "type": "tuple"
        }
      ],
      "name": "setOracleConfig",
      "outputs": [],
      "stateMutability": "nonpayable",
      "type": "function"
    },
    {
      "inputs": [
        {
          "internalType": "uint16[]",
          "name": "_markets",
          "type": "uint16[]"
        },
        {
          "internalType": "uint256[]",
          "name": "_prices",
          "type": "uint256[]"
        }
      ],
      "name": "setPrices",
      "outputs": [],
      "stateMutability": "nonpayable",
      "type": "function"
    },
    {
      "inputs": [
        {
          "internalType": "address",
          "name": "_account",
          "type": "address"
        },
        {
          "internalType": "uint256",
          "name": "_discountShare",
          "type": "uint256"
        }
      ],
      "name": "setReferrerDiscountShare",
      "outputs": [],
      "stateMutability": "nonpayable",
      "type": "function"
    },
    {
      "inputs": [
        {
          "internalType": "address",
          "name": "_referrer",
          "type": "address"
        },
        {
          "internalType": "uint256",
          "name": "_tierId",
          "type": "uint256"
        }
      ],
      "name": "setReferrerTier",
      "outputs": [],
      "stateMutability": "nonpayable",
      "type": "function"
    },
    {
      "inputs": [
        {
          "internalType": "uint256",
          "name": "_tierId",
          "type": "uint256"
        },
        {
          "internalType": "uint256",
          "name": "_totalRebate",
          "type": "uint256"
        },
        {
          "internalType": "uint256",
          "name": "_discountShare",
          "type": "uint256"
        }
      ],
      "name": "setTier",
      "outputs": [],
      "stateMutability": "nonpayable",
      "type": "function"
    },
    {
      "inputs": [
        {
          "internalType": "address",
          "name": "_account",
          "type": "address"
        },
        {
          "internalType": "bytes32",
          "name": "_code",
          "type": "bytes32"
        }
      ],
      "name": "setTraderReferralCodeByGov",
      "outputs": [],
      "stateMutability": "nonpayable",
      "type": "function"
    },
    {
      "inputs": [
        {
          "internalType": "bytes32",
          "name": "_code",
          "type": "bytes32"
        }
      ],
      "name": "setTraderReferralCodeByUser",
      "outputs": [],
      "stateMutability": "nonpayable",
      "type": "function"
    },
    {
      "inputs": [
        {
          "internalType": "address",
          "name": "_feed",
          "type": "address"
        }
      ],
      "name": "setUSDT",
      "outputs": [],
      "stateMutability": "nonpayable",
      "type": "function"
    },
    {
      "inputs": [
        {
          "internalType": "bytes4",
          "name": "_interfaceId",
          "type": "bytes4"
        }
      ],
      "name": "supportsInterface",
      "outputs": [
        {
          "internalType": "bool",
          "name": "",
          "type": "bool"
        }
      ],
      "stateMutability": "view",
      "type": "function"
    },
    {
      "inputs": [
        {
          "internalType": "address",
          "name": "_newOwner",
          "type": "address"
        }
      ],
      "name": "transferOwnership",
      "outputs": [],
      "stateMutability": "nonpayable",
      "type": "function"
    },
    {
      "inputs": [
        {
          "internalType": "bool",
          "name": "requireSuccess",
          "type": "bool"
        },
        {
          "internalType": "bytes[]",
          "name": "calls",
          "type": "bytes[]"
        }
      ],
      "name": "tryAggregate",
      "outputs": [
        {
          "components": [
            {
              "internalType": "bool",
              "name": "success",
              "type": "bool"
            },
            {
              "internalType": "bytes",
              "name": "returnData",
              "type": "bytes"
            }
          ],
          "internalType": "struct DummyDiamondImplementation.Tuple557464[]",
          "name": "returnData",
          "type": "tuple[]"
        }
      ],
      "stateMutability": "nonpayable",
      "type": "function"
    },
    {
      "inputs": [
        {
          "internalType": "bool",
          "name": "requireSuccess",
          "type": "bool"
        },
        {
          "internalType": "bytes[]",
          "name": "calls",
          "type": "bytes[]"
        }
      ],
      "name": "tryBlockAndAggregate",
      "outputs": [
        {
          "internalType": "uint256",
          "name": "blockNumber",
          "type": "uint256"
        },
        {
          "internalType": "bytes32",
          "name": "blockHash",
          "type": "bytes32"
        },
        {
          "components": [
            {
              "internalType": "bool",
              "name": "success",
              "type": "bool"
            },
            {
              "internalType": "bytes",
              "name": "returnData",
              "type": "bytes"
            }
          ],
          "internalType": "struct DummyDiamondImplementation.Tuple557464[]",
          "name": "returnData",
          "type": "tuple[]"
        }
      ],
      "stateMutability": "nonpayable",
      "type": "function"
    },
    {
      "inputs": [
        {
          "components": [
            {
              "internalType": "uint8",
              "name": "busiType",
              "type": "uint8"
            },
            {
              "internalType": "uint256",
              "name": "oraclePrice",
              "type": "uint256"
            },
            {
              "internalType": "uint256",
              "name": "pay",
              "type": "uint256"
            },
            {
              "internalType": "uint256",
              "name": "slippage",
              "type": "uint256"
            },
            {
              "internalType": "uint16",
              "name": "market",
              "type": "uint16"
            },
            {
              "internalType": "bool",
              "name": "isLong",
              "type": "bool"
            },
            {
              "internalType": "bool",
              "name": "isOpen",
              "type": "bool"
            },
            {
              "internalType": "bool",
              "name": "isCreate",
              "type": "bool"
            },
            {
              "internalType": "bool",
              "name": "isFromMarket",
              "type": "bool"
            },
            {
              "internalType": "uint256",
              "name": "sizeDelta",
              "type": "uint256"
            },
            {
              "internalType": "uint256",
              "name": "price",
              "type": "uint256"
            },
            {
              "internalType": "uint256",
              "name": "collateralDelta",
              "type": "uint256"
            },
            {
              "internalType": "uint256",
              "name": "collateral",
              "type": "uint256"
            },
            {
              "internalType": "uint256",
              "name": "tp",
              "type": "uint256"
            },
            {
              "internalType": "uint256",
              "name": "sl",
              "type": "uint256"
            },
            {
              "internalType": "uint64",
              "name": "orderId",
              "type": "uint64"
            },
            {
              "internalType": "address",
              "name": "account",
              "type": "address"
            },
            {
              "internalType": "bool",
              "name": "isExec",
              "type": "bool"
            },
            {
              "internalType": "uint8",
              "name": "liqState",
              "type": "uint8"
            },
            {
              "internalType": "uint64",
              "name": "fromOrder",
              "type": "uint64"
            },
            {
              "internalType": "bytes32",
              "name": "refCode",
              "type": "bytes32"
            },
            {
              "internalType": "uint8",
              "name": "execNum",
              "type": "uint8"
            },
            {
              "internalType": "bool",
              "name": "isKeepLev",
              "type": "bool"
            },
            {
              "internalType": "bool",
              "name": "isKeepLevTP",
              "type": "bool"
            },
            {
              "internalType": "bool",
              "name": "isKeepLevSL",
              "type": "bool"
            },
            {
              "internalType": "bool",
              "name": "triggerAbove",
              "type": "bool"
            },
            {
              "internalType": "uint128",
              "name": "gas",
              "type": "uint128"
            }
          ],
          "internalType": "struct DummyDiamondImplementation.Tuple910965",
          "name": "_inputs",
          "type": "tuple"
        }
      ],
      "name": "updateOrder",
      "outputs": [],
      "stateMutability": "payable",
      "type": "function"
    },
    {
      "inputs": [],
      "name": "usdtFeed",
      "outputs": [
        {
          "internalType": "address",
          "name": "",
          "type": "address"
        }
      ],
      "stateMutability": "view",
      "type": "function"
    }
  ],
  "transactionHash": "0xe994d0e051e9271fc83f0ce4d870676518e88d0de291ad554d694f28647cb116",
  "args": [],
  "numDeployments": 12,
  "solcInputHash": "54ad24cdfe12ae96f63a94edbb176ca0",
  "bytecode": "0x60806040523462000023576200001462000029565b61556662000035823961556690f35b6200002f565b60405190565b600080fdfe60806040526004361015610013575b614e57565b61001e60003561065d565b806301ffc9a714610658578063054aaca114610653578063055af76d1461064e578063080c5c67146106495780630f28c97d1461064457806313a300131461063f5780631e0a95af1461063a5780631f931c1c1461063557806320136e031461063057806327e86d6e1461062b5780632dacede9146106265780632e6e6ea91461062157806331ab264f1461061c578063320de8e914610617578063334253c11461061257806336def2c81461060d578063393e02e1146106085780633d34960f146106035780633d58e05c146105fe5780633fb8b323146105f957806341ec6c65146105f457806342cbb15c146105ef57806348412d62146105ea5780634d2301cc146105e55780634da4ef30146105e05780634dee5f26146105db57806350c1b923146105d657806352ef6b2c146105d157806355304097146105cc5780635ae70a2b146105c75780635b971064146105c25780635c60da1b146105bd578063630dc5a0146105b857806364b6db53146105b3578063653d64b6146105ae57806367af1a03146105a957806369e135f9146105a457806370192b6e1461059f57806370802dac1461059a57806371127e8a14610595578063735a2885146105905780637377e4d71461058b57806373ad39b314610586578063766238db1461058157806379c1122b1461057c57806379eba709146105775780637a0ed627146105725780637a9e5e4b1461056d5780638114baa814610568578063836a0187146105635780638593090f1461055e57806386d516e814610559578063875f7ec314610554578063886394121461054f57806389d797b91461054a5780638d094b1e146105455780638da5cb5b1461054057806393b3b3631461053b578063991ceecf146105365780639d24a68814610531578063a01e7bc61461052c578063a8b0574e14610527578063a9bd63d514610522578063aa94bda81461051d578063ac0b036414610518578063adfca15e14610513578063b0a3961a1461050e578063b5cc1d2014610509578063bb715a8514610504578063bd11025d146104ff578063bf0d39b8146104fa578063bf7e214f146104f5578063c39aa07d146104f0578063c8a1918f146104eb578063ca2287f1146104e6578063cc55e9d1146104e1578063cd5ba3d4146104dc578063cdffacc6146104d7578063d4f8ba01146104d2578063d76ce277146104cd578063d7a799ce146104c8578063daa39c53146104c3578063db611225146104be578063df5c0919146104b9578063df66914e146104b4578063dfcfa250146104af578063e1e01bf3146104aa578063e36b20c5146104a5578063ec2c9016146104a0578063ed8431341461049b578063ee82ac5e14610496578063ee89368814610491578063f130c4451461048c578063f15bd15714610487578063f224f69a14610482578063f2da13e21461047d578063f2fde38b14610478578063f3c3cff214610473578063fa6d03c71461046e5763fe0e467e0361000e57614e29565b614dc0565b614d94565b6149ce565b61499f565b61492b565b6148f5565b6148be565b614520565b614443565b6143f7565b6143c2565b614396565b61436a565b61433d565b6142da565b6142ae565b614278565b614241565b614213565b6141a3565b61416e565b614139565b61410d565b614042565b614009565b613e64565b613e38565b613e03565b613dd6565b613da0565b613d6b565b613d36565b613d01565b613ccc565b613c2b565b613bfe565b613a4c565b6139dc565b6139a6565b613971565b61391f565b6138f1565b613881565b61384a565b6136a1565b613624565b6135f7565b613594565b61355d565b613501565b61348d565b61340a565b6133d5565b613241565b61311c565b612fc1565b612f93565b612f36565b612cb5565b612c44565b612bea565b612bb5565b612890565b612865565b61282f565b61273d565b6126d7565b61256e565b612541565b612515565b6124dc565b612450565b612424565b6123f7565b611f2c565b611e1c565b611dd0565b611d9b565b611d66565b611b9e565b611b3b565b611b06565b611aaa565b611a13565b6119bb565b61191c565b61162e565b611200565b611198565b611135565b6110e7565b611074565b610dfa565b610c79565b610ba7565b610b55565b610aeb565b6107c7565b6106ef565b60e01c90565b60405190565b600080fd5b600080fd5b600080fd5b63ffffffff60e01b1690565b61068d81610678565b0361069457565b600080fd5b905035906106a682610684565b565b906020828203126106c2576106bf91600001610699565b90565b61066e565b151590565b6106d5906106c7565b9052565b91906106ed906000602085019401906106cc565b565b3461071f5761071b61070a6107053660046106a8565b614e61565b610712610663565b918291826106d9565b0390f35b610669565b60018060a01b031690565b61073890610724565b90565b6107448161072f565b0361074b57565b600080fd5b9050359061075d8261073b565b565b90565b61076b8161075f565b0361077257565b600080fd5b9050359061078482610762565b565b90916060828403126107bc576107b96107a28460008501610750565b936107b08160208601610777565b93604001610777565b90565b61066e565b60000190565b346107f0576107d7366004610786565b5050506107e2610663565b806107ec816107c1565b0390f35b610669565b600080fd5b601f801991011690565b634e487b7160e01b600052604160045260246000fd5b90610824906107fa565b810190811060018060401b0382111761083c57604052565b610804565b9061085461084d610663565b928361081a565b565b60018060401b03811161086c5760208091020190565b610804565b600080fd5b600080fd5b60018060401b038111610897576108936020916107fa565b0190565b610804565b90826000939282370152565b909291926108bd6108b88261087b565b610841565b938185526020850190828401116108d9576108d79261089c565b565b610876565b9080601f830112156108fc578160206108f9933591016108a8565b90565b6107f5565b92919061091561091082610856565b610841565b938185526020808601920281019183831161096a5781905b83821061093b575050505050565b813560018060401b0381116109655760209161095a87849387016108de565b81520191019061092d565b6107f5565b610871565b9080601f8301121561098d5781602061098a93359101610901565b90565b6107f5565b906020828203126109c157600082013560018060401b0381116109bc576109b9920161096f565b90565b610673565b61066e565b6109cf9061075f565b9052565b5190565b60209181520190565b60200190565b5190565b60209181520190565b60005b838110610a07575050906000910152565b8060209183015181850152016109f6565b610a37610a40602093610a4593610a2e816109e6565b938480936109ea565b958691016109f3565b6107fa565b0190565b90610a5391610a18565b90565b60200190565b90610a70610a69836109d3565b80926109d7565b9081610a81602083028401946109e0565b926000915b838310610a9557505050505090565b90919293946020610ab7610ab183856001950387528951610a49565b97610a56565b9301930191939290610a86565b91610ae892610adb604082019360008301906109c6565b6020818403910152610a5c565b90565b34610b1c57610b03610afe366004610992565b614e77565b90610b18610b0f610663565b92839283610ac4565b0390f35b610669565b90602082820312610b5057600082013560018060401b038111610b4b57610b4892016108de565b90565b610673565b61066e565b34610b7c57610b65366004610b21565b50610b6e610663565b80610b78816107c1565b0390f35b610669565b6000910312610b8c57565b61066e565b9190610ba5906000602085019401906109c6565b565b34610bd757610bb7366004610b81565b610bd3610bc2614e8c565b610bca610663565b91829182610b91565b0390f35b610669565b61ffff1690565b610bec81610bdc565b03610bf357565b600080fd5b90503590610c0582610be3565b565b90602082820312610c2157610c1e91600001610bf8565b90565b61066e565b60209181520190565b610c4e610c57602093610c5c93610c45816109e6565b93848093610c26565b958691016109f3565b6107fa565b0190565b610c769160208201916000818403910152610c2f565b90565b34610ca957610ca5610c94610c8f366004610c07565b614e9c565b610c9c610663565b91829182610c60565b0390f35b610669565b610cb7816106c7565b03610cbe57565b600080fd5b90503590610cd082610cae565b565b919091604081840312610d1157610cec8360008301610cc3565b92602082013560018060401b038111610d0c57610d09920161096f565b90565b610673565b61066e565b5190565b60209181520190565b60200190565b610d32906106c7565b9052565b610d639160206040820192610d5360008201516000850190610d29565b0151906020818403910152610a18565b90565b90610d7091610d36565b90565b60200190565b90610d8d610d8683610d16565b8092610d1a565b9081610d9e60208302840194610d23565b926000915b838310610db257505050505090565b90919293946020610dd4610dce83856001950387528951610d66565b97610d73565b9301930191939290610da3565b610df79160208201916000818403910152610d79565b90565b34610e2b57610e27610e16610e10366004610cd2565b90614ead565b610e1e610663565b91829182610de1565b0390f35b610669565b60018060401b038111610e465760208091020190565b610804565b600080fd5b600080fd5b60ff1690565b610e6481610e55565b03610e6b57565b600080fd5b90503590610e7d82610e5b565b565b60018060401b038111610e955760208091020190565b610804565b90929192610eaf610eaa82610e7f565b610841565b9381855260208086019202830192818411610eec57915b838310610ed35750505050565b60208091610ee18486610699565b815201920191610ec6565b610871565b9080601f83011215610f0f57816020610f0c93359101610e9a565b90565b6107f5565b919091606081840312610f7857610f2b6060610841565b92610f398160008401610750565b6000850152610f4b8160208401610e70565b6020850152604082013560018060401b038111610f7357610f6c9201610ef1565b6040830152565b610e50565b610e4b565b929190610f91610f8c82610e30565b610841565b9381855260208086019202810191838311610fe65781905b838210610fb7575050505050565b813560018060401b038111610fe157602091610fd68784938701610f14565b815201910190610fa9565b6107f5565b610871565b9080601f830112156110095781602061100693359101610f7d565b90565b6107f5565b9160608383031261106f57600083013560018060401b03811161106a5782611037918501610feb565b926110458360208301610750565b92604082013560018060401b0381116110655761106292016108de565b90565b610673565b610673565b61066e565b3461109d5761108436600461100e565b50505061108f610663565b80611099816107c1565b0390f35b610669565b90565b6110ae906110a2565b9052565b6110d76110e49492936110cd606084019560008501906109c6565b60208301906110a5565b6040818403910152610d79565b90565b3461111a576111166111026110fd366004610992565b614ebf565b61110d939193610663565b938493846110b2565b0390f35b610669565b9190611133906000602085019401906110a5565b565b3461116557611145366004610b81565b611161611150614edd565b611158610663565b9182918261111f565b0390f35b610669565b919060408382031261119357806111876111909260008601610bf8565b93602001610777565b90565b61066e565b346111c0576111a836600461116a565b50506111b2610663565b806111bc816107c1565b0390f35b610669565b90916060828403126111fb576111f86111e18460008501610bf8565b936111ef8160208601610777565b93604001610cc3565b90565b61066e565b346112315761122d61121c6112163660046111c5565b91614ee8565b611224610663565b91829182610b91565b0390f35b610669565b61123f816110a2565b0361124657565b600080fd5b9050359061125882611236565b565b919061010083820312611304576112fd90611276610100610841565b936112848260008301610bf8565b60008601526112968260208301610cc3565b60208601526112a88260408301610cc3565b60408601526112ba8260608301610777565b60608601526112cc8260808301610777565b60808601526112de8260a08301610cc3565b60a08601526112f08260c08301610777565b60c086015260e00161124b565b60e0830152565b610e4b565b9061010082820312611324576113219160000161125a565b90565b61066e565b5190565b60209181520190565b60200190565b611345906110a2565b9052565b60018060801b031690565b61135d90611349565b9052565b61136a9061075f565b9052565b60018060401b031690565b6113829061136e565b9052565b63ffffffff1690565b61139890611386565b9052565b6113a590610e55565b9052565b6113b29061072f565b9052565b60018060601b031690565b6113ca906113b6565b9052565b6113d790610bdc565b9052565b906102e0806115aa936113f66000820151600086019061133c565b61140860208201516020860190611354565b61141a60408201516040860190611354565b61142c60608201516060860190611361565b61143e60808201516080860190611361565b61145060a082015160a0860190610d29565b61146260c082015160c0860190610d29565b61147460e082015160e0860190610d29565b611488610100820151610100860190610d29565b61149c610120820151610120860190610d29565b6114b0610140820151610140860190611379565b6114c4610160820151610160860190611379565b6114d8610180820151610180860190611379565b6114ec6101a08201516101a086019061138f565b6115006101c08201516101c086019061139c565b6115146101e08201516101e08601906113a9565b6115286102008201516102008601906113c1565b61153c610220820151610220860190611361565b611550610240820151610240860190610d29565b611564610260820151610260860190610d29565b6115786102808201516102808601906113ce565b61158c6102a08201516102a08601906113c1565b6115a06102c08201516102c0860190611354565b015191019061139c565b565b906115ba81610300936113db565b0190565b60200190565b906115e16115db6115d484611329565b809361132d565b92611336565b9060005b8181106115f25750505090565b90919261160b61160560019286516115ac565b946115be565b91019190916115e5565b61162b91602082019160008184039101526115c4565b90565b3461165e5761165a611649611644366004611309565b614efb565b611651610663565b91829182611615565b0390f35b610669565b61166c8161136e565b0361167357565b600080fd5b9050359061168582611663565b565b61169081611349565b0361169757565b600080fd5b905035906116a982611687565b565b9190610360838203126118d1576118c9906116c7610360610841565b936116d58260008301610e70565b60008601526116e78260208301610777565b60208601526116f98260408301610777565b604086015261170b8260608301610777565b606086015261171d8260808301610bf8565b608086015261172f8260a08301610cc3565b60a08601526117418260c08301610cc3565b60c08601526117538260e08301610cc3565b60e0860152611766826101008301610cc3565b61010086015261177a826101208301610777565b61012086015261178e826101408301610777565b6101408601526117a2826101608301610777565b6101608601526117b6826101808301610777565b6101808601526117ca826101a08301610777565b6101a08601526117de826101c08301610777565b6101c08601526117f2826101e08301611678565b6101e0860152611806826102008301610750565b61020086015261181a826102208301610cc3565b61022086015261182e826102408301610e70565b610240860152611842826102608301611678565b61026086015261185682610280830161124b565b61028086015261186a826102a08301610e70565b6102a086015261187e826102c08301610cc3565b6102c0860152611892826102e08301610cc3565b6102e08601526118a6826103008301610cc3565b6103008601526118ba826103208301610cc3565b6103208601526103400161169c565b610340830152565b610e4b565b90610360828203126118f1576118ee916000016116ab565b90565b61066e565b90565b611902906118f6565b9052565b919061191a906000602085019401906118f9565b565b3461194c576119486119376119323660046118d6565b614f0c565b61193f610663565b91829182611906565b0390f35b610669565b608081830312611993576119688260008301610750565b926119906119798460208501610bf8565b936119878160408601610cc3565b93606001610777565b90565b61066e565b6119a190610e55565b9052565b91906119b990600060208501940190611998565b565b346119ef576119eb6119da6119d1366004611951565b92919091614f1d565b6119e2610663565b918291826119a5565b0390f35b610669565b90602082820312611a0e57611a0b9160000161124b565b90565b61066e565b34611a3a57611a233660046119f4565b50611a2c610663565b80611a36816107c1565b0390f35b610669565b611a48816118f6565b03611a4f57565b600080fd5b90503590611a6182611a3f565b565b608081830312611aa557611a7a8260008301610bf8565b92611aa2611a8b8460208501610777565b93611a998160408601611a54565b93606001610cc3565b90565b61066e565b34611ade57611ada611ac9611ac0366004611a63565b92919091614f2c565b611ad1610663565b91829182611906565b0390f35b610669565b611aec9061072f565b9052565b9190611b0490600060208501940190611ae3565b565b34611b3657611b32611b21611b1c3660046119f4565b614f40565b611b29610663565b91829182611af0565b0390f35b610669565b34611b6b57611b67611b56611b51366004610c07565b614f4c565b611b5e610663565b91829182611af0565b0390f35b610669565b9190604083820312611b995780611b8d611b969260008601610750565b93602001610777565b90565b61066e565b34611bc657611bae366004611b70565b5050611bb8610663565b80611bc2816107c1565b0390f35b610669565b919060e083820312611c6157611c5a90611be560e0610841565b93611bf38260008301610bf8565b6000860152611c058260208301610750565b6020860152611c178260408301611a54565b6040860152611c298260608301610777565b6060860152611c3b8260808301610777565b6080860152611c4d8260a08301611a54565b60a086015260c001610cc3565b60c0830152565b610e4b565b9060e082820312611c8057611c7d91600001611bcb565b90565b61066e565b611c8e906118f6565b9052565b60018060481b031690565b611ca690611c92565b9052565b9061010080611d4d93611cc560008201516000860190611361565b611cd760208201516020860190611361565b611ce960408201516040860190611c85565b611cfb60608201516060860190611c85565b611d0d60808201516080860190611361565b611d1f60a082015160a0860190610d29565b611d3160c082015160c086019061138f565b611d4360e082015160e08601906113ce565b0151910190611c9d565b565b9190611d649060006101208501940190611caa565b565b34611d9657611d92611d81611d7c366004611c66565b615009565b611d89610663565b91829182611d4f565b0390f35b610669565b34611dcb57611dab366004610b81565b611dc7611db6615015565b611dbe610663565b91829182610b91565b0390f35b610669565b34611df857611de036600461116a565b5050611dea610663565b80611df4816107c1565b0390f35b610669565b90602082820312611e1757611e1491600001610750565b90565b61066e565b34611e4c57611e48611e37611e32366004611dfd565b615020565b611e3f610663565b91829182610b91565b0390f35b610669565b608081830312611e9357611e688260008301610bf8565b92611e90611e798460208501610777565b93611e878160408601610777565b93606001610cc3565b90565b61066e565b5190565b60209181520190565b60200190565b90611eb8816020936113a9565b0190565b60200190565b90611edf611ed9611ed284611e98565b8093611e9c565b92611ea5565b9060005b818110611ef05750505090565b909192611f09611f036001928651611eab565b94611ebc565b9101919091611ee3565b611f299160208201916000818403910152611ec2565b90565b34611f6057611f5c611f4b611f42366004611e51565b92919091615031565b611f53610663565b91829182611f13565b0390f35b610669565b611f6e81611386565b03611f7557565b600080fd5b90503590611f8782611f65565b565b611f92816113b6565b03611f9957565b600080fd5b90503590611fab82611f89565b565b9190610300838203126121975761218f90611fc9610300610841565b93611fd7826000830161124b565b6000860152611fe9826020830161169c565b6020860152611ffb826040830161169c565b604086015261200d8260608301610777565b606086015261201f8260808301610777565b60808601526120318260a08301610cc3565b60a08601526120438260c08301610cc3565b60c08601526120558260e08301610cc3565b60e0860152612068826101008301610cc3565b61010086015261207c826101208301610cc3565b610120860152612090826101408301611678565b6101408601526120a4826101608301611678565b6101608601526120b8826101808301611678565b6101808601526120cc826101a08301611f7a565b6101a08601526120e0826101c08301610e70565b6101c08601526120f4826101e08301610750565b6101e0860152612108826102008301611f9e565b61020086015261211c826102208301610777565b610220860152612130826102408301610cc3565b610240860152612144826102608301610cc3565b610260860152612158826102808301610bf8565b61028086015261216c826102a08301611f9e565b6102a0860152612180826102c0830161169c565b6102c08601526102e001610e70565b6102e0830152565b610e4b565b9190610360838203126123c2576123ba906121b8610360610841565b936121c68260008301610e70565b60008601526121d88260208301610777565b60208601526121ea8260408301610777565b60408601526121fc8260608301610777565b606086015261220e8260808301610bf8565b60808601526122208260a08301610cc3565b60a08601526122328260c08301610cc3565b60c08601526122448260e08301610cc3565b60e0860152612257826101008301610cc3565b61010086015261226b826101208301610777565b61012086015261227f826101408301610777565b610140860152612293826101608301610777565b6101608601526122a7826101808301610777565b6101808601526122bb826101a08301610777565b6101a08601526122cf826101c08301610777565b6101c08601526122e3826101e08301611678565b6101e08601526122f7826102008301610750565b61020086015261230b826102208301610cc3565b61022086015261231f826102408301610e70565b610240860152612333826102608301611678565b61026086015261234782610280830161124b565b61028086015261235b826102a08301610e70565b6102a086015261236f826102c08301610cc3565b6102c0860152612383826102e08301610cc3565b6102e0860152612397826103008301610cc3565b6103008601526123ab826103208301610cc3565b6103208601526103400161169c565b610340830152565b610e4b565b9190610660838203126123f257806123e56123ef9260008601611fad565b936103000161219c565b90565b61066e565b3461241f576124073660046123c7565b5050612411610663565b8061241b816107c1565b0390f35b610669565b3461244b57612434366004611dfd565b5061243d610663565b80612447816107c1565b0390f35b610669565b3461248057612460366004610b81565b61247c61246b615040565b612473610663565b91829182611f13565b0390f35b610669565b919060a0838203126124d75761249e8160008501610bf8565b926124ac8260208301610750565b926124d46124bd8460408501610777565b936124cb8160608601610777565b93608001610cc3565b90565b61066e565b346125105761250c6124fb6124f2366004612485565b9392909261504b565b612503610663565b91829182611906565b0390f35b610669565b3461253c57612525366004610c07565b5061252e610663565b80612538816107c1565b0390f35b610669565b346125695761255136600461116a565b505061255b610663565b80612565816107c1565b0390f35b610669565b3461259e5761257e366004610b81565b61259a61258961505b565b612591610663565b91829182611af0565b0390f35b610669565b5190565b60209181520190565b60200190565b906125c381602093611361565b0190565b60200190565b906125ea6125e46125dd846125a3565b80936125a7565b926125b0565b9060005b8181106125fb5750505090565b90919261261461260e60019286516125b6565b946125c7565b91019190916125ee565b5190565b60209181520190565b60200190565b9061263e81602093611c85565b0190565b60200190565b9061266561265f6126588461261e565b8093612622565b9261262b565b9060005b8181106126765750505090565b90919261268f6126896001928651612631565b94612642565b9101919091612669565b916126c6906126b86126d49593606086019086820360008801526125cd565b908482036020860152612648565b916040818403910152612648565b90565b3461270a576127066126f26126ed366004610c07565b615070565b6126fd939193610663565b93849384612699565b0390f35b610669565b9190604083820312612738578061272c6127359260008601610bf8565b93602001610cc3565b90565b61066e565b3461276e5761276a61275961275336600461270f565b9061508e565b612761610663565b91829182610b91565b0390f35b610669565b90610100806128169361278e60008201516000860190611361565b6127a060208201516020860190611361565b6127b260408201516040860190611c85565b6127c460608201516060860190611c85565b6127d660808201516080860190611361565b6127e860a082015160a0860190610d29565b6127fa60c082015160c086019061138f565b61280c60e082015160e08601906113ce565b0151910190611c9d565b565b919061282d9060006101208501940190612773565b565b346128605761285c61284b61284536600461270f565b9061512e565b612853610663565b91829182612818565b0390f35b610669565b3461288b57612875366004610b81565b61287d610663565b80612887816107c1565b0390f35b610669565b346128b8576128a03660046123c7565b50506128aa610663565b806128b4816107c1565b0390f35b610669565b60018060401b0381116128d35760208091020190565b610804565b919061036083820312612afe57612af6906128f4610360610841565b936129028260008301610e70565b60008601526129148260208301610777565b60208601526129268260408301610777565b60408601526129388260608301610777565b606086015261294a8260808301610bf8565b608086015261295c8260a08301610cc3565b60a086015261296e8260c08301610cc3565b60c08601526129808260e08301610cc3565b60e0860152612993826101008301610cc3565b6101008601526129a7826101208301610777565b6101208601526129bb826101408301610777565b6101408601526129cf826101608301610777565b6101608601526129e3826101808301610777565b6101808601526129f7826101a08301610777565b6101a0860152612a0b826101c08301610777565b6101c0860152612a1f826101e08301611678565b6101e0860152612a33826102008301610750565b610200860152612a47826102208301610cc3565b610220860152612a5b826102408301610e70565b610240860152612a6f826102608301611678565b610260860152612a8382610280830161124b565b610280860152612a97826102a08301610e70565b6102a0860152612aab826102c08301610cc3565b6102c0860152612abf826102e08301610cc3565b6102e0860152612ad3826103008301610cc3565b610300860152612ae7826103208301610cc3565b6103208601526103400161169c565b610340830152565b610e4b565b90929192612b18612b13826128bd565b610841565b93818552610360602086019202830192818411612b5957915b838310612b3e5750505050565b602061036091612b4e84866128d8565b815201920191612b31565b610871565b9080601f83011215612b7c57816020612b7993359101612b03565b90565b6107f5565b90602082820312612bb057600082013560018060401b038111612bab57612ba89201612b5e565b90565b610673565b61066e565b34612be557612be1612bd0612bcb366004612b81565b61513b565b612bd8610663565b91829182611615565b0390f35b610669565b34612c1b57612c17612c06612c0036600461270f565b90615147565b612c0e610663565b91829182611906565b0390f35b610669565b916020612c42929493612c3b604082019660008301906109c6565b01906109c6565b565b34612c7557612c5c612c57366004610c07565b615154565b90612c71612c68610663565b92839283612c20565b0390f35b610669565b9091606082840312612cb057612cad612c968460008501610750565b93612ca48160208601610750565b93604001610cc3565b90565b61066e565b34612ce657612ce2612cd1612ccb366004612c7a565b91615169565b612cd9610663565b91829182610b91565b0390f35b610669565b919061036083820312612f1157612f0990612d07610360610841565b93612d158260008301610e70565b6000860152612d278260208301610777565b6020860152612d398260408301610777565b6040860152612d4b8260608301610777565b6060860152612d5d8260808301610bf8565b6080860152612d6f8260a08301610cc3565b60a0860152612d818260c08301610cc3565b60c0860152612d938260e08301610cc3565b60e0860152612da6826101008301610cc3565b610100860152612dba826101208301610777565b610120860152612dce826101408301610777565b610140860152612de2826101608301610777565b610160860152612df6826101808301610777565b610180860152612e0a826101a08301610777565b6101a0860152612e1e826101c08301610777565b6101c0860152612e32826101e08301611678565b6101e0860152612e46826102008301610750565b610200860152612e5a826102208301610cc3565b610220860152612e6e826102408301610e70565b610240860152612e82826102608301611678565b610260860152612e9682610280830161124b565b610280860152612eaa826102a08301610e70565b6102a0860152612ebe826102c08301610cc3565b6102c0860152612ed2826102e08301610cc3565b6102e0860152612ee6826103008301610cc3565b610300860152612efa826103208301610cc3565b6103208601526103400161169c565b610340830152565b610e4b565b9061036082820312612f3157612f2e91600001612ceb565b90565b61066e565b612f41366004612f16565b50612f4a610663565b80612f54816107c1565b0390f35b9091606082840312612f8e57612f8b612f748460008501610bf8565b93612f828160208601610cc3565b93604001611a54565b90565b61066e565b34612fbc57612fa3366004612f58565b505050612fae610663565b80612fb8816107c1565b0390f35b610669565b34612fe957612fd1366004611b70565b5050612fdb610663565b80612fe5816107c1565b0390f35b610669565b9190610180838203126130e8576130e09061300a610180610841565b936130188260008301610cc3565b600086015261302a8260208301610cc3565b602086015261303c8260408301610cc3565b604086015261304e8260608301610cc3565b60608601526130608260808301610bf8565b60808601526130728260a08301610bf8565b60a08601526130848260c08301610bf8565b60c08601526130968260e08301610bf8565b60e08601526130a9826101008301610bf8565b6101008601526130bd826101208301610bf8565b6101208601526130d1826101408301610bf8565b61014086015261016001611f7a565b610160830152565b610e4b565b91906101a083820312613117578061310b6131149260008601610bf8565b93602001612fee565b90565b61066e565b346131445761312c3660046130ed565b5050613136610663565b80613140816107c1565b0390f35b610669565b90610160806132289361316460008201516000860190610d29565b61317660208201516020860190610d29565b61318860408201516040860190610d29565b61319a60608201516060860190610d29565b6131ac608082015160808601906113ce565b6131be60a082015160a08601906113ce565b6131d060c082015160c08601906113ce565b6131e260e082015160e08601906113ce565b6131f66101008201516101008601906113ce565b61320a6101208201516101208601906113ce565b61321e6101408201516101408601906113ce565b015191019061138f565b565b919061323f9060006101808501940190613149565b565b346132715761326d61325c613257366004610c07565b61522e565b613264610663565b9182918261322a565b0390f35b610669565b5190565b60209181520190565b60200190565b5190565b60209181520190565b60200190565b6132a590610678565b9052565b906132b68160209361329c565b0190565b60200190565b906132dd6132d76132d084613289565b809361328d565b92613296565b9060005b8181106132ee5750505090565b90919261330761330160019286516132a9565b946132ba565b91019190916132e1565b61333e916020604082019261332e600082015160008501906113a9565b01519060208184039101526132c0565b90565b9061334b91613311565b90565b60200190565b9061336861336183613276565b809261327a565b908161337960208302840194613283565b926000915b83831061338d57505050505090565b909192939460206133af6133a983856001950387528951613341565b9761334e565b930193019193929061337e565b6133d29160208201916000818403910152613354565b90565b34613405576133e5366004610b81565b6134016133f061523f565b6133f8610663565b918291826133bc565b0390f35b610669565b346134315761341a366004611dfd565b50613423610663565b8061342d816107c1565b0390f35b610669565b919060a0838203126134885761344f8160008501610750565b9261345d8260208301610bf8565b9261348561346e8460408501610cc3565b9361347c8160608601610777565b93608001610cc3565b90565b61066e565b346134c1576134bd6134ac6134a3366004613436565b9392909261524a565b6134b4610663565b91829182611615565b0390f35b610669565b90916060828403126134fc576134f96134e28460008501610777565b936134f08160208601610777565b93604001610777565b90565b61066e565b3461352a576135113660046134c6565b50505061351c610663565b80613526816107c1565b0390f35b610669565b9190604083820312613558578061354c6135559260008601610bf8565b93602001610750565b90565b61066e565b3461358f5761357661357036600461352f565b9061525a565b9061358b613582610663565b92839283612c20565b0390f35b610669565b346135c4576135a4366004610b81565b6135c06135af615270565b6135b7610663565b91829182610b91565b0390f35b610669565b91906040838203126135f257806135e66135ef9260008601610750565b9360200161124b565b90565b61066e565b3461361f576136073660046135c9565b5050613611610663565b8061361b816107c1565b0390f35b610669565b346136555761365161364061363a36600461352f565b9061527b565b613648610663565b918291826106d9565b0390f35b610669565b60808183031261369c576136718260008301610bf8565b926136996136828460208501610750565b936136908160408601610777565b93606001610cc3565b90565b61066e565b346136d5576136d16136c06136b736600461365a565b92919091615288565b6136c8610663565b91829182612818565b0390f35b610669565b906101008061377d936136f560008201516000860190611361565b61370760208201516020860190611361565b61371960408201516040860190611c85565b61372b60608201516060860190611c85565b61373d60808201516080860190611361565b61374f60a082015160a0860190610d29565b61376160c082015160c086019061138f565b61377360e082015160e08601906113ce565b0151910190611c9d565b565b90610100806138229361379a60008201516000860190611361565b6137ac60208201516020860190611361565b6137be60408201516040860190611c85565b6137d060608201516060860190611c85565b6137e260808201516080860190611361565b6137f460a082015160a0860190610d29565b61380660c082015160c086019061138f565b61381860e082015160e08601906113ce565b0151910190611c9d565b565b9161012061384892949361384161024082019660008301906136da565b019061377f565b565b3461387c5761386361385d36600461352f565b906153bd565b9061387861386f610663565b92839283613824565b0390f35b610669565b346138b157613891366004610b81565b6138ad61389c6153d3565b6138a4610663565b91829182611af0565b0390f35b610669565b90916060828403126138ec576138e96138d28460008501610bf8565b936138e08160208601610e70565b93604001610777565b90565b61066e565b3461391a576139013660046138b6565b50505061390c610663565b80613916816107c1565b0390f35b610669565b346139535761394f61393e61393536600461365a565b929190916153de565b613946610663565b91829182611d4f565b0390f35b610669565b61396e91602082019160008184039101526125cd565b90565b346139a15761399d61398c613987366004610c07565b6153ed565b613994610663565b91829182613958565b0390f35b610669565b346139d7576139be6139b9366004610c07565b6153f9565b906139d36139ca610663565b92839283612c20565b0390f35b610669565b34613a0c576139ec366004610b81565b613a086139f761540e565b6139ff610663565b91829182611af0565b0390f35b610669565b9091606082840312613a4757613a44613a2d8460008501610bf8565b93613a3b8160208601610777565b93604001610777565b90565b61066e565b34613a7557613a5c366004613a11565b505050613a67610663565b80613a71816107c1565b0390f35b610669565b60018060401b038111613a905760208091020190565b610804565b90929192613aaa613aa582613a7a565b610841565b9381855260208086019202830192818411613ae757915b838310613ace5750505050565b60208091613adc8486610bf8565b815201920191613ac1565b610871565b9080601f83011215613b0a57816020613b0793359101613a95565b90565b6107f5565b60018060401b038111613b255760208091020190565b610804565b90929192613b3f613b3a82613b0f565b610841565b9381855260208086019202830192818411613b7c57915b838310613b635750505050565b60208091613b718486610777565b815201920191613b56565b610871565b9080601f83011215613b9f57816020613b9c93359101613b2a565b90565b6107f5565b919091604081840312613bf957600081013560018060401b038111613bf45783613bcf918301613aec565b92602082013560018060401b038111613bef57613bec9201613b81565b90565b610673565b610673565b61066e565b34613c2657613c0e366004613ba4565b5050613c18610663565b80613c22816107c1565b0390f35b610669565b34613c5457613c3b366004613a11565b505050613c46610663565b80613c50816107c1565b0390f35b610669565b60209181520190565b90613c7f613c79613c7284613289565b8093613c59565b92613296565b9060005b818110613c905750505090565b909192613ca9613ca360019286516132a9565b946132ba565b9101919091613c83565b613cc99160208201916000818403910152613c62565b90565b34613cfc57613cf8613ce7613ce2366004611dfd565b61541e565b613cef610663565b91829182613cb3565b0390f35b610669565b34613d3157613d2d613d1c613d17366004611dfd565b61542a565b613d24610663565b91829182611906565b0390f35b610669565b34613d6657613d62613d51613d4c366004610c07565b615436565b613d59610663565b91829182610b91565b0390f35b610669565b34613d9b57613d7b366004610b81565b613d97613d86615442565b613d8e610663565b918291826119a5565b0390f35b610669565b34613dd157613dcd613dbc613db636600461270f565b9061544d565b613dc4610663565b91829182610b91565b0390f35b610669565b34613dfe57613de636600461116a565b5050613df0610663565b80613dfa816107c1565b0390f35b610669565b34613e3357613e13366004610b81565b613e2f613e1e61545a565b613e26610663565b91829182611af0565b0390f35b610669565b34613e5f57613e48366004611dfd565b50613e51610663565b80613e5b816107c1565b0390f35b610669565b34613e9857613e94613e80613e7a366004610cd2565b90615465565b613e8b939193610663565b938493846110b2565b0390f35b610669565b60018060401b038111613eb957613eb56020916107fa565b0190565b610804565b90929192613ed3613ece82613e9d565b610841565b93818552602085019082840111613eef57613eed9261089c565b565b610876565b9080601f83011215613f1257816020613f0f93359101613ebe565b90565b6107f5565b91906101c08382031261400457600083013560018060401b038111613fff5781613f42918501613ef4565b92613f508260208301610750565b92613f5e8360408401610cc3565b92613f6c8160608501610cc3565b92613f7a8260808301610cc3565b92613f888360a08401610cc3565b92613f968160c08501610bf8565b92613fa48260e08301610bf8565b92613fb3836101008401610bf8565b92613fc2816101208501610bf8565b92613fd1826101408301610bf8565b92613ffc613fe3846101608501610bf8565b93613ff2816101808601610bf8565b936101a001611f7a565b90565b610673565b61066e565b3461403d57614019366004613f17565b505050505050505050505050505061402f610663565b80614039816107c1565b0390f35b610669565b346140725761406e61405d614058366004610c07565b615484565b614065610663565b918291826106d9565b0390f35b610669565b919060a0838203126140e9576140e29061409160a0610841565b9361409f8260008301611f7a565b60008601526140b18260208301611f7a565b60208601526140c38260408301611f7a565b60408601526140d58260608301611f7a565b6060860152608001611f7a565b6080830152565b610e4b565b9060a0828203126141085761410591600001614077565b90565b61066e565b346141345761411d3660046140ee565b50614126610663565b80614130816107c1565b0390f35b610669565b346141695761416561415461414f3660046106a8565b615490565b61415c610663565b91829182611af0565b0390f35b610669565b3461419e5761419a614189614184366004610c07565b61549c565b614191610663565b91829182610b91565b0390f35b610669565b346141d3576141cf6141be6141b9366004610c07565b6154a8565b6141c6610663565b91829182611906565b0390f35b610669565b909160608284031261420e5761420b6141f48460008501610bf8565b936142028160208601610750565b93604001610777565b90565b61066e565b3461423c576142233660046141d8565b50505061422e610663565b80614238816107c1565b0390f35b610669565b346142735761425a61425436600461352f565b906154b4565b9061426f614266610663565b92839283612c20565b0390f35b610669565b346142a9576142a561429461428e36600461270f565b906154ca565b61429c610663565b91829182610b91565b0390f35b610669565b346142d5576142be366004610b21565b506142c7610663565b806142d1816107c1565b0390f35b610669565b3461430a576142ea366004610b81565b6143066142f56154d7565b6142fd610663565b91829182611af0565b0390f35b610669565b9190604083820312614338578061432c614335926000860161124b565b93602001610750565b90565b61066e565b346143655761434d36600461430f565b5050614357610663565b80614361816107c1565b0390f35b610669565b346143915761437a3660046119f4565b50614383610663565b8061438d816107c1565b0390f35b610669565b346143bd576143a6366004610c07565b506143af610663565b806143b9816107c1565b0390f35b610669565b346143f2576143d2366004610b81565b6143ee6143dd6154e2565b6143e5610663565b91829182610c60565b0390f35b610669565b3461441f5761440736600461430f565b5050614411610663565b8061441b816107c1565b0390f35b610669565b9060208282031261443e5761443b91600001610777565b90565b61066e565b346144735761446f61445e614459366004614424565b6154ed565b614466610663565b9182918261111f565b0390f35b610669565b919060c0838203126144fc576144f59061449260c0610841565b936144a08260008301610bf8565b60008601526144b28260208301610750565b60208601526144c48260408301611a54565b60408601526144d68260608301610777565b60608601526144e88260808301611a54565b608086015260a001610cc3565b60a0830152565b610e4b565b9060c08282031261451b5761451891600001614478565b90565b61066e565b346145505761454c61453b614536366004614501565b6154f9565b614543610663565b91829182611d4f565b0390f35b610669565b91906103608382031261477b5761477390614571610360610841565b9361457f8260008301610e70565b60008601526145918260208301610777565b60208601526145a38260408301610777565b60408601526145b58260608301610777565b60608601526145c78260808301610bf8565b60808601526145d98260a08301610cc3565b60a08601526145eb8260c08301610cc3565b60c08601526145fd8260e08301610cc3565b60e0860152614610826101008301610cc3565b610100860152614624826101208301610777565b610120860152614638826101408301610777565b61014086015261464c826101608301610777565b610160860152614660826101808301610777565b610180860152614674826101a08301610777565b6101a0860152614688826101c08301610777565b6101c086015261469c826101e08301611678565b6101e08601526146b0826102008301610750565b6102008601526146c4826102208301610cc3565b6102208601526146d8826102408301610e70565b6102408601526146ec826102608301611678565b61026086015261470082610280830161124b565b610280860152614714826102a08301610e70565b6102a0860152614728826102c08301610cc3565b6102c086015261473c826102e08301610cc3565b6102e0860152614750826103008301610cc3565b610300860152614764826103208301610cc3565b6103208601526103400161169c565b610340830152565b610e4b565b61478981611c92565b0361479057565b600080fd5b905035906147a282614780565b565b9190610120838203126148625761485a906147c0610120610841565b936147ce8260008301610777565b60008601526147e08260208301610777565b60208601526147f28260408301611a54565b60408601526148048260608301611a54565b60608601526148168260808301610777565b60808601526148288260a08301610cc3565b60a086015261483a8260c08301611f7a565b60c086015261484c8260e08301610bf8565b60e086015261010001614795565b610100830152565b610e4b565b919061048083820312614892578061488561488f9260008601614555565b93610360016147a4565b90565b61066e565b929160206148b46148bc9360408701908782036000890152612648565b9401906118f9565b565b346148f0576148d76148d1366004614867565b90615505565b906148ec6148e3610663565b92839283614897565b0390f35b610669565b346149265761490d614908366004610992565b61551b565b90614922614919610663565b92839283610ac4565b0390f35b610669565b346149535761493b366004613ba4565b5050614945610663565b8061494f816107c1565b0390f35b610669565b60808183031261499a5761496f8260008301610bf8565b926149976149808460208501610cc3565b9361498e8160408601611a54565b93606001611a54565b90565b61066e565b346149c9576149af366004614958565b505050506149bb610663565b806149c5816107c1565b0390f35b610669565b346149f5576149de366004611dfd565b506149e7610663565b806149f1816107c1565b0390f35b610669565b919061036083820312614c2057614c1890614a16610360610841565b93614a248260008301610e70565b6000860152614a368260208301610777565b6020860152614a488260408301610777565b6040860152614a5a8260608301610777565b6060860152614a6c8260808301610bf8565b6080860152614a7e8260a08301610cc3565b60a0860152614a908260c08301610cc3565b60c0860152614aa28260e08301610cc3565b60e0860152614ab5826101008301610cc3565b610100860152614ac9826101208301610777565b610120860152614add826101408301610777565b610140860152614af1826101608301610777565b610160860152614b05826101808301610777565b610180860152614b19826101a08301610777565b6101a0860152614b2d826101c08301610777565b6101c0860152614b41826101e08301611678565b6101e0860152614b55826102008301610750565b610200860152614b69826102208301610cc3565b610220860152614b7d826102408301610e70565b610240860152614b91826102608301611678565b610260860152614ba582610280830161124b565b610280860152614bb9826102a08301610e70565b6102a0860152614bcd826102c08301610cc3565b6102c0860152614be1826102e08301610cc3565b6102e0860152614bf5826103008301610cc3565b610300860152614c09826103208301610cc3565b6103208601526103400161169c565b610340830152565b610e4b565b60018060401b038111614c3b5760208091020190565b610804565b90929192614c55614c5082614c25565b610841565b9381855260208086019202830192818411614c9257915b838310614c795750505050565b60208091614c878486611a54565b815201920191614c6c565b610871565b9080601f83011215614cb557816020614cb293359101614c40565b90565b6107f5565b91909161050081840312614d5b57614cd260c0610841565b92614ce081600084016149fa565b6000850152614cf38161036084016147a4565b60208501526104808201359160018060401b038311614d5657614d1b82614d4f948301614c97565b6040860152614d2e826104a08301610750565b6060860152614d41826104c08301610750565b60808601526104e001611a54565b60a0830152565b610e50565b610e4b565b90602082820312614d8f57600082013560018060401b038111614d8a57614d879201614cba565b90565b610673565b61066e565b34614dbb57614da4366004614d60565b50614dad610663565b80614db7816107c1565b0390f35b610669565b34614de957614dd03660046138b6565b505050614ddb610663565b80614de5816107c1565b0390f35b610669565b9091606082840312614e2457614e21614e0a8460008501610bf8565b93614e188160208601610750565b93604001610cc3565b90565b61066e565b34614e5257614e39366004614dee565b505050614e44610663565b80614e4e816107c1565b0390f35b610669565b600080fd5b600090565b50614e6a614e5c565b90565b600090565b606090565b50614e80614e6d565b90614e89614e72565b90565b614e94614e6d565b90565b606090565b50614ea5614e97565b90565b606090565b5050614eb7614ea8565b90565b600090565b50614ec8614e6d565b90614ed1614eba565b90614eda614ea8565b90565b614ee5614eba565b90565b505050614ef3614e6d565b90565b606090565b50614f04614ef6565b90565b600090565b50614f15614f07565b90565b600090565b50505050614f29614f18565b90565b50505050614f38614f07565b90565b600090565b50614f49614f3b565b90565b50614f55614f3b565b90565b614f63610120610841565b90565b600090565b600090565b600090565b600090565b600090565b600090565b614f8c614f58565b90602080808080808080808a614fa0614f66565b815201614fab614f66565b815201614fb6614f6b565b815201614fc1614f6b565b815201614fcc614f66565b815201614fd7614f70565b815201614fe2614f75565b815201614fed614f7a565b815201614ff8614f7f565b81525050565b615006614f84565b90565b50615012614ffe565b90565b61501d614e6d565b90565b50615029614e6d565b90565b606090565b5050505061503d61502c565b90565b61504861502c565b90565b5050505050615058614f07565b90565b615063614f3b565b90565b606090565b606090565b50615079615066565b9061508261506b565b9061508b61506b565b90565b5050615098614e6d565b90565b6150a6610120610841565b90565b6150b161509b565b90602080808080808080808a6150c5614f66565b8152016150d0614f66565b8152016150db614f6b565b8152016150e6614f6b565b8152016150f1614f66565b8152016150fc614f70565b815201615107614f75565b815201615112614f7a565b81520161511d614f7f565b81525050565b61512b6150a9565b90565b5050615138615123565b90565b50615144614ef6565b90565b5050615151614f07565b90565b5061515d614e6d565b90615166614e6d565b90565b505050615174614e6d565b90565b615182610180610841565b90565b61518d615177565b90602080808080808080808080808d6151a4614f70565b8152016151af614f70565b8152016151ba614f70565b8152016151c5614f70565b8152016151d0614f7a565b8152016151db614f7a565b8152016151e6614f7a565b8152016151f1614f7a565b8152016151fc614f7a565b815201615207614f7a565b815201615212614f7a565b81520161521d614f75565b81525050565b61522b615185565b90565b50615237615223565b90565b606090565b61524761523a565b90565b5050505050615257614ef6565b90565b5050615264614e6d565b9061526d614e6d565b90565b615278614e6d565b90565b5050615285614e5c565b90565b50505050615294615123565b90565b6152a2610120610841565b90565b6152ad615297565b90602080808080808080808a6152c1614f66565b8152016152cc614f66565b8152016152d7614f6b565b8152016152e2614f6b565b8152016152ed614f66565b8152016152f8614f70565b815201615303614f75565b81520161530e614f7a565b815201615319614f7f565b81525050565b6153276152a5565b90565b615335610120610841565b90565b61534061532a565b90602080808080808080808a615354614f66565b81520161535f614f66565b81520161536a614f6b565b815201615375614f6b565b815201615380614f66565b81520161538b614f70565b815201615396614f75565b8152016153a1614f7a565b8152016153ac614f7f565b81525050565b6153ba615338565b90565b50506153c761531f565b906153d06153b2565b90565b6153db614f3b565b90565b505050506153ea614ffe565b90565b506153f6615066565b90565b50615402614e6d565b9061540b614e6d565b90565b615416614f3b565b90565b606090565b50615427615419565b90565b50615433614f07565b90565b5061543f614e6d565b90565b61544a614f18565b90565b5050615457614e6d565b90565b615462614f3b565b90565b505061546f614e6d565b90615478614eba565b90615481614ea8565b90565b5061548d614e5c565b90565b50615499614f3b565b90565b506154a5614e6d565b90565b506154b1614f07565b90565b50506154be614e6d565b906154c7614e6d565b90565b50506154d4614e6d565b90565b6154df614f3b565b90565b6154ea614e97565b90565b506154f6614eba565b90565b50615502614ffe565b90565b505061550f61506b565b90615518614f07565b90565b50615524614e6d565b9061552d614e72565b9056fea2646970667358221220db73d47a6f87cd9beec9a007ebab0ba4ff3cfd63c7bb05cb2ca15c52134058e664736f6c63430008180033",
  "devdoc": {
    "kind": "dev",
    "methods": {},
    "version": 1
  },
  "userdoc": {
    "kind": "user",
    "methods": {},
    "version": 1
  },
  "storageLayout": {
    "storage": [],
    "types": null
  }
}