{
  "address": "0x3355656cb458E132a837bab1327C31FF242bF4A3",
  "abi": [
    {
      "inputs": [
        {
          "internalType": "address",
          "name": "authority",
          "type": "address"
        }
      ],
      "name": "AccessManagedInvalidAuthority",
      "type": "error"
    },
    {
      "inputs": [
        {
          "internalType": "address",
          "name": "caller",
          "type": "address"
        },
        {
          "internalType": "uint32",
          "name": "delay",
          "type": "uint32"
        }
      ],
      "name": "AccessManagedRequiredDelay",
      "type": "error"
    },
    {
      "inputs": [
        {
          "internalType": "address",
          "name": "caller",
          "type": "address"
        }
      ],
      "name": "AccessManagedUnauthorized",
      "type": "error"
    },
    {
      "inputs": [
        {
          "internalType": "address",
          "name": "target",
          "type": "address"
        }
      ],
      "name": "AddressEmptyCode",
      "type": "error"
    },
    {
      "inputs": [
        {
          "internalType": "address",
          "name": "account",
          "type": "address"
        }
      ],
      "name": "AddressInsufficientBalance",
      "type": "error"
    },
    {
      "inputs": [],
      "name": "FailedInnerCall",
      "type": "error"
    },
    {
      "inputs": [
        {
          "internalType": "address",
          "name": "token",
          "type": "address"
        }
      ],
      "name": "SafeERC20FailedOperation",
      "type": "error"
    },
    {
      "anonymous": false,
      "inputs": [
        {
          "indexed": true,
          "internalType": "uint16",
          "name": "market",
          "type": "uint16"
        },
        {
          "indexed": true,
          "internalType": "enum BalanceHandler.Type",
          "name": "transferType",
          "type": "uint8"
        },
        {
          "indexed": true,
          "internalType": "address",
          "name": "account",
          "type": "address"
        },
        {
          "indexed": false,
          "internalType": "uint256",
          "name": "value",
          "type": "uint256"
        },
        {
          "indexed": false,
          "internalType": "bytes",
          "name": "extra",
          "type": "bytes"
        }
      ],
      "name": "Transfer",
      "type": "event"
    },
    {
      "anonymous": false,
      "inputs": [
        {
          "indexed": true,
          "internalType": "address",
          "name": "account",
          "type": "address"
        },
        {
          "indexed": true,
          "internalType": "uint16",
          "name": "market",
          "type": "uint16"
        },
        {
          "indexed": false,
          "internalType": "int256[]",
          "name": "fees",
          "type": "int256[]"
        },
        {
          "indexed": false,
          "internalType": "uint256",
          "name": "amount",
          "type": "uint256"
        }
      ],
      "name": "UpdateFee",
      "type": "event"
    },
    {
      "inputs": [
        {
          "internalType": "uint16",
          "name": "market",
          "type": "uint16"
        },
        {
          "internalType": "bytes",
          "name": "fee",
          "type": "bytes"
        }
      ],
      "name": "_addFee",
      "outputs": [],
      "stateMutability": "nonpayable",
      "type": "function"
    },
    {
      "inputs": [
        {
          "internalType": "bytes",
          "name": "_data",
          "type": "bytes"
        }
      ],
      "name": "_collectFees",
      "outputs": [],
      "stateMutability": "nonpayable",
      "type": "function"
    },
    {
      "inputs": [
        {
          "internalType": "uint16",
          "name": "market",
          "type": "uint16"
        },
        {
          "internalType": "uint256",
          "name": "longSize",
          "type": "uint256"
        },
        {
          "internalType": "uint256",
          "name": "shortSize",
          "type": "uint256"
        }
      ],
      "name": "_updateCumulativeFundingRate",
      "outputs": [],
      "stateMutability": "nonpayable",
      "type": "function"
    },
    {
      "inputs": [
        {
          "internalType": "uint16",
          "name": "market",
          "type": "uint16"
        },
        {
          "internalType": "uint256",
          "name": "start",
          "type": "uint256"
        },
        {
          "internalType": "uint256",
          "name": "end",
          "type": "uint256"
        }
      ],
      "name": "addSkipTime",
      "outputs": [],
      "stateMutability": "nonpayable",
      "type": "function"
    },
    {
      "inputs": [
        {
          "internalType": "uint16",
          "name": "market",
          "type": "uint16"
        },
        {
          "internalType": "bool",
          "name": "isLong",
          "type": "bool"
        }
      ],
      "name": "cumulativeFundingRates",
      "outputs": [
        {
          "internalType": "int256",
          "name": "",
          "type": "int256"
        }
      ],
      "stateMutability": "view",
      "type": "function"
    },
    {
      "inputs": [
        {
          "internalType": "uint16",
          "name": "market",
          "type": "uint16"
        },
        {
          "internalType": "address",
          "name": "to",
          "type": "address"
        },
        {
          "internalType": "uint256",
          "name": "amount",
          "type": "uint256"
        }
      ],
      "name": "feeWithdraw",
      "outputs": [],
      "stateMutability": "nonpayable",
      "type": "function"
    },
    {
      "inputs": [
        {
          "internalType": "uint16",
          "name": "market",
          "type": "uint16"
        }
      ],
      "name": "getExecFee",
      "outputs": [
        {
          "internalType": "uint256",
          "name": "",
          "type": "uint256"
        }
      ],
      "stateMutability": "view",
      "type": "function"
    },
    {
      "inputs": [
        {
          "internalType": "uint16",
          "name": "market",
          "type": "uint16"
        }
      ],
      "name": "getFeeAndRatesOfMarket",
      "outputs": [
        {
          "internalType": "uint256[]",
          "name": "fees",
          "type": "uint256[]"
        },
        {
          "internalType": "int256[]",
          "name": "fundingRates",
          "type": "int256[]"
        },
        {
          "internalType": "int256[]",
          "name": "_cumulativeFundingRates",
          "type": "int256[]"
        }
      ],
      "stateMutability": "view",
      "type": "function"
    },
    {
      "inputs": [
        {
          "components": [
            {
              "internalType": "enum MarketBusinessType",
              "name": "busiType",
              "type": "uint8"
            },
            {
              "internalType": "uint256",
              "name": "oraclePrice",
              "type": "uint256"
            },
            {
              "internalType": "uint256",
              "name": "pay",
              "type": "uint256"
            },
            {
              "internalType": "uint256",
              "name": "slippage",
              "type": "uint256"
            },
            {
              "internalType": "uint16",
              "name": "market",
              "type": "uint16"
            },
            {
              "internalType": "bool",
              "name": "isLong",
              "type": "bool"
            },
            {
              "internalType": "bool",
              "name": "isOpen",
              "type": "bool"
            },
            {
              "internalType": "bool",
              "name": "isCreate",
              "type": "bool"
            },
            {
              "internalType": "bool",
              "name": "isFromMarket",
              "type": "bool"
            },
            {
              "internalType": "uint256",
              "name": "sizeDelta",
              "type": "uint256"
            },
            {
              "internalType": "uint256",
              "name": "price",
              "type": "uint256"
            },
            {
              "internalType": "uint256",
              "name": "collateralDelta",
              "type": "uint256"
            },
            {
              "internalType": "uint256",
              "name": "collateral",
              "type": "uint256"
            },
            {
              "internalType": "uint256",
              "name": "tp",
              "type": "uint256"
            },
            {
              "internalType": "uint256",
              "name": "sl",
              "type": "uint256"
            },
            {
              "internalType": "uint64",
              "name": "orderId",
              "type": "uint64"
            },
            {
              "internalType": "address",
              "name": "account",
              "type": "address"
            },
            {
              "internalType": "bool",
              "name": "isExec",
              "type": "bool"
            },
            {
              "internalType": "enum LiquidationState",
              "name": "liqState",
              "type": "uint8"
            },
            {
              "internalType": "uint64",
              "name": "fromOrder",
              "type": "uint64"
            },
            {
              "internalType": "bytes32",
              "name": "refCode",
              "type": "bytes32"
            },
            {
              "internalType": "uint8",
              "name": "execNum",
              "type": "uint8"
            },
            {
              "internalType": "bool",
              "name": "isKeepLev",
              "type": "bool"
            },
            {
              "internalType": "bool",
              "name": "isKeepLevTP",
              "type": "bool"
            },
            {
              "internalType": "bool",
              "name": "isKeepLevSL",
              "type": "bool"
            },
            {
              "internalType": "bool",
              "name": "triggerAbove",
              "type": "bool"
            },
            {
              "internalType": "uint128",
              "name": "gas",
              "type": "uint128"
            }
          ],
          "internalType": "struct MarketCache",
          "name": "params",
          "type": "tuple"
        },
        {
          "components": [
            {
              "internalType": "uint256",
              "name": "size",
              "type": "uint256"
            },
            {
              "internalType": "uint256",
              "name": "collateral",
              "type": "uint256"
            },
            {
              "internalType": "int256",
              "name": "entryFundingRate",
              "type": "int256"
            },
            {
              "internalType": "int256",
              "name": "realisedPnl",
              "type": "int256"
            },
            {
              "internalType": "uint256",
              "name": "averagePrice",
              "type": "uint256"
            },
            {
              "internalType": "bool",
              "name": "isLong",
              "type": "bool"
            },
            {
              "internalType": "uint32",
              "name": "lastTime",
              "type": "uint32"
            },
            {
              "internalType": "uint16",
              "name": "market",
              "type": "uint16"
            },
            {
              "internalType": "uint72",
              "name": "extra0",
              "type": "uint72"
            }
          ],
          "internalType": "struct PositionProps",
          "name": "position",
          "type": "tuple"
        }
      ],
      "name": "getFeesReceivable",
      "outputs": [
        {
          "internalType": "int256[]",
          "name": "fees",
          "type": "int256[]"
        },
        {
          "internalType": "int256",
          "name": "totalFee",
          "type": "int256"
        }
      ],
      "stateMutability": "view",
      "type": "function"
    },
    {
      "inputs": [
        {
          "internalType": "uint16",
          "name": "market",
          "type": "uint16"
        },
        {
          "internalType": "uint256",
          "name": "size",
          "type": "uint256"
        },
        {
          "internalType": "int256",
          "name": "entryFundingRate",
          "type": "int256"
        },
        {
          "internalType": "bool",
          "name": "isLong",
          "type": "bool"
        }
      ],
      "name": "getFundingFee",
      "outputs": [
        {
          "internalType": "int256",
          "name": "",
          "type": "int256"
        }
      ],
      "stateMutability": "view",
      "type": "function"
    },
    {
      "inputs": [
        {
          "internalType": "uint16",
          "name": "market",
          "type": "uint16"
        }
      ],
      "name": "getGlobalOpenInterest",
      "outputs": [
        {
          "internalType": "uint256",
          "name": "_globalSize",
          "type": "uint256"
        }
      ],
      "stateMutability": "view",
      "type": "function"
    },
    {
      "inputs": [
        {
          "internalType": "address",
          "name": "market",
          "type": "address"
        },
        {
          "internalType": "uint256",
          "name": "longSize",
          "type": "uint256"
        },
        {
          "internalType": "uint256",
          "name": "shortSize",
          "type": "uint256"
        }
      ],
      "name": "getNextFundingRate",
      "outputs": [],
      "stateMutability": "nonpayable",
      "type": "function"
    },
    {
      "inputs": [
        {
          "components": [
            {
              "internalType": "enum MarketBusinessType",
              "name": "busiType",
              "type": "uint8"
            },
            {
              "internalType": "uint256",
              "name": "oraclePrice",
              "type": "uint256"
            },
            {
              "internalType": "uint256",
              "name": "pay",
              "type": "uint256"
            },
            {
              "internalType": "uint256",
              "name": "slippage",
              "type": "uint256"
            },
            {
              "internalType": "uint16",
              "name": "market",
              "type": "uint16"
            },
            {
              "internalType": "bool",
              "name": "isLong",
              "type": "bool"
            },
            {
              "internalType": "bool",
              "name": "isOpen",
              "type": "bool"
            },
            {
              "internalType": "bool",
              "name": "isCreate",
              "type": "bool"
            },
            {
              "internalType": "bool",
              "name": "isFromMarket",
              "type": "bool"
            },
            {
              "internalType": "uint256",
              "name": "sizeDelta",
              "type": "uint256"
            },
            {
              "internalType": "uint256",
              "name": "price",
              "type": "uint256"
            },
            {
              "internalType": "uint256",
              "name": "collateralDelta",
              "type": "uint256"
            },
            {
              "internalType": "uint256",
              "name": "collateral",
              "type": "uint256"
            },
            {
              "internalType": "uint256",
              "name": "tp",
              "type": "uint256"
            },
            {
              "internalType": "uint256",
              "name": "sl",
              "type": "uint256"
            },
            {
              "internalType": "uint64",
              "name": "orderId",
              "type": "uint64"
            },
            {
              "internalType": "address",
              "name": "account",
              "type": "address"
            },
            {
              "internalType": "bool",
              "name": "isExec",
              "type": "bool"
            },
            {
              "internalType": "enum LiquidationState",
              "name": "liqState",
              "type": "uint8"
            },
            {
              "internalType": "uint64",
              "name": "fromOrder",
              "type": "uint64"
            },
            {
              "internalType": "bytes32",
              "name": "refCode",
              "type": "bytes32"
            },
            {
              "internalType": "uint8",
              "name": "execNum",
              "type": "uint8"
            },
            {
              "internalType": "bool",
              "name": "isKeepLev",
              "type": "bool"
            },
            {
              "internalType": "bool",
              "name": "isKeepLevTP",
              "type": "bool"
            },
            {
              "internalType": "bool",
              "name": "isKeepLevSL",
              "type": "bool"
            },
            {
              "internalType": "bool",
              "name": "triggerAbove",
              "type": "bool"
            },
            {
              "internalType": "uint128",
              "name": "gas",
              "type": "uint128"
            }
          ],
          "internalType": "struct MarketCache",
          "name": "data",
          "type": "tuple"
        }
      ],
      "name": "getOrderFees",
      "outputs": [
        {
          "internalType": "int256",
          "name": "fees",
          "type": "int256"
        }
      ],
      "stateMutability": "view",
      "type": "function"
    },
    {
      "inputs": [
        {
          "internalType": "uint16",
          "name": "market",
          "type": "uint16"
        }
      ],
      "name": "initFeeFacet",
      "outputs": [],
      "stateMutability": "nonpayable",
      "type": "function"
    },
    {
      "inputs": [
        {
          "internalType": "uint16",
          "name": "market",
          "type": "uint16"
        },
        {
          "internalType": "bool",
          "name": "isLong",
          "type": "bool"
        },
        {
          "internalType": "int256",
          "name": "calFundingRate",
          "type": "int256"
        }
      ],
      "name": "setCalFundingRates",
      "outputs": [],
      "stateMutability": "nonpayable",
      "type": "function"
    },
    {
      "inputs": [
        {
          "internalType": "uint16",
          "name": "market",
          "type": "uint16"
        },
        {
          "internalType": "uint256",
          "name": "interval",
          "type": "uint256"
        }
      ],
      "name": "setCalIntervals",
      "outputs": [],
      "stateMutability": "nonpayable",
      "type": "function"
    },
    {
      "inputs": [
        {
          "internalType": "uint16",
          "name": "market",
          "type": "uint16"
        },
        {
          "internalType": "uint8",
          "name": "feeType",
          "type": "uint8"
        },
        {
          "internalType": "uint256",
          "name": "feeAndRate",
          "type": "uint256"
        }
      ],
      "name": "setFeeAndRates",
      "outputs": [],
      "stateMutability": "nonpayable",
      "type": "function"
    },
    {
      "inputs": [
        {
          "internalType": "uint16",
          "name": "market",
          "type": "uint16"
        },
        {
          "internalType": "uint8",
          "name": "configType",
          "type": "uint8"
        },
        {
          "internalType": "uint256",
          "name": "value",
          "type": "uint256"
        }
      ],
      "name": "setFeeConfigs",
      "outputs": [],
      "stateMutability": "nonpayable",
      "type": "function"
    },
    {
      "inputs": [
        {
          "internalType": "uint16",
          "name": "market",
          "type": "uint16"
        },
        {
          "internalType": "uint256",
          "name": "loss",
          "type": "uint256"
        }
      ],
      "name": "setFundFeeLoss",
      "outputs": [],
      "stateMutability": "nonpayable",
      "type": "function"
    },
    {
      "inputs": [
        {
          "internalType": "uint16",
          "name": "market",
          "type": "uint16"
        },
        {
          "internalType": "uint256",
          "name": "interval",
          "type": "uint256"
        }
      ],
      "name": "setFundingIntervals",
      "outputs": [],
      "stateMutability": "nonpayable",
      "type": "function"
    },
    {
      "inputs": [
        {
          "internalType": "uint16",
          "name": "market",
          "type": "uint16"
        },
        {
          "internalType": "bool",
          "name": "isLong",
          "type": "bool"
        },
        {
          "internalType": "int256",
          "name": "fundingRate",
          "type": "int256"
        },
        {
          "internalType": "int256",
          "name": "cumulativeFundingRate",
          "type": "int256"
        }
      ],
      "name": "setFundingRates",
      "outputs": [],
      "stateMutability": "nonpayable",
      "type": "function"
    },
    {
      "inputs": [
        {
          "internalType": "uint16",
          "name": "market",
          "type": "uint16"
        },
        {
          "internalType": "uint256",
          "name": "lastCalTime",
          "type": "uint256"
        }
      ],
      "name": "setLastCalTimes",
      "outputs": [],
      "stateMutability": "nonpayable",
      "type": "function"
    }
  ],
  "transactionHash": "0x17ef687e62122479d08b7fd3d9aa138db0d141cbc68dbce8bf26f063a0885367",
  "args": [],
  "numDeployments": 7,
  "solcInputHash": "b21a937e1b1693be2713fde7c22c5019",
  "bytecode": "0x60806040523462000023576200001462000029565b61346262000035823961346290f35b6200002f565b60405190565b600080fdfe60806040526004361015610013575b610c4c565b61001e60003561017d565b8063054aaca1146101785780632dacede914610173578063320de8e91461016e578063393e02e11461016957806348412d6214610164578063524430fe1461015f5780635ae70a2b1461015a5780635b97106414610155578063630dc5a01461015057806370802dac1461014b57806373ad39b31461014657806393b3b36314610141578063a9bd63d51461013c578063ac0b036414610137578063b5cc1d2014610132578063bf0d39b81461012d578063d4f8ba0114610128578063d7a799ce14610123578063df5c09191461011e578063f130c44514610119578063f2da13e2146101145763fa6d03c70361000e57610c18565b610be1565b610b63565b610ac4565b610a5b565b6109eb565b6109b7565b610982565b610931565b610903565b610894565b6107fb565b61078a565b610724565b6105a2565b61056f565b61051c565b610457565b61041e565b610355565b6102c2565b61023b565b60e01c90565b60405190565b600080fd5b600080fd5b600080fd5b60018060a01b031690565b6101ac90610198565b90565b6101b8816101a3565b036101bf57565b600080fd5b905035906101d1826101af565b565b90565b6101df816101d3565b036101e657565b600080fd5b905035906101f8826101d6565b565b90916060828403126102305761022d61021684600085016101c4565b9361022481602086016101eb565b936040016101eb565b90565b61018e565b60000190565b346102645761024b3660046101fa565b505050610256610183565b8061026081610235565b0390f35b610189565b61ffff1690565b61027981610269565b0361028057565b600080fd5b9050359061029282610270565b565b91906040838203126102bd57806102b16102ba9260008601610285565b936020016101eb565b90565b61018e565b346102f1576102db6102d5366004610294565b90610d0f565b6102e3610183565b806102ed81610235565b0390f35b610189565b600080fd5b908161036091031261030a5790565b6102f6565b906103608282031261032a57610327916000016102fb565b90565b61018e565b90565b61033b9061032f565b9052565b919061035390600060208501940190610332565b565b346103855761038161037061036b36600461030f565b610d20565b610378610183565b9182918261033f565b0390f35b610189565b6103938161032f565b0361039a57565b600080fd5b905035906103ac8261038a565b565b151590565b6103bc816103ae565b036103c357565b600080fd5b905035906103d5826103b3565b565b608081830312610419576103ee8260008301610285565b926104166103ff84602085016101eb565b9361040d816040860161039f565b936060016103c8565b90565b61018e565b346104525761044e61043d6104343660046103d7565b92919091610d35565b610445610183565b9182918261033f565b0390f35b610189565b346104865761047061046a366004610294565b90610d7c565b610478610183565b8061048281610235565b0390f35b610189565b600080fd5b600080fd5b600080fd5b909182601f830112156104d25781359160018060401b0383116104cd5760200192600183028401116104c857565b610495565b610490565b61048b565b919091604081840312610517576104f18360008301610285565b92602082013560018060401b0381116105125761050e920161049a565b9091565b610193565b61018e565b3461054b5761053561052f3660046104d7565b91610e9c565b61053d610183565b8061054781610235565b0390f35b610189565b9060208282031261056a5761056791600001610285565b90565b61018e565b3461059d57610587610582366004610550565b611102565b61058f610183565b8061059981610235565b0390f35b610189565b346105d1576105bb6105b5366004610294565b90611138565b6105c3610183565b806105cd81610235565b0390f35b610189565b5190565b60209181520190565b60200190565b6105f2906101d3565b9052565b90610603816020936105e9565b0190565b60200190565b9061062a61062461061d846105d6565b80936105da565b926105e3565b9060005b81811061063b5750505090565b90919261065461064e60019286516105f6565b94610607565b910191909161062e565b5190565b60209181520190565b60200190565b61067a9061032f565b9052565b9061068b81602093610671565b0190565b60200190565b906106b26106ac6106a58461065e565b8093610662565b9261066b565b9060005b8181106106c35750505090565b9091926106dc6106d6600192865161067e565b9461068f565b91019190916106b6565b916107139061070561072195936060860190868203600088015261060d565b908482036020860152610695565b916040818403910152610695565b90565b346107575761075361073f61073a366004610550565b611427565b61074a939193610183565b938493846106e6565b0390f35b610189565b919060408382031261078557806107796107829260008601610285565b936020016103c8565b90565b61018e565b346107bb576107b76107a66107a036600461075c565b90611612565b6107ae610183565b9182918261033f565b0390f35b610189565b90916060828403126107f6576107f36107dc8460008501610285565b936107ea81602086016103c8565b9360400161039f565b90565b61018e565b3461082a5761081461080e3660046107c0565b916116b8565b61081c610183565b8061082681610235565b0390f35b610189565b60ff1690565b61083e8161082f565b0361084557565b600080fd5b9050359061085782610835565b565b909160608284031261088f5761088c6108758460008501610285565b93610883816020860161084a565b936040016101eb565b90565b61018e565b346108c3576108ad6108a7366004610859565b916116fb565b6108b5610183565b806108bf81610235565b0390f35b610189565b90916060828403126108fe576108fb6108e48460008501610285565b936108f281602086016101eb565b936040016101eb565b90565b61018e565b3461092c576109133660046108c8565b50505061091e610183565b8061092881610235565b0390f35b610189565b3461095a576109413660046108c8565b50505061094c610183565b8061095681610235565b0390f35b610189565b610968906101d3565b9052565b91906109809060006020850194019061095f565b565b346109b2576109ae61099d610998366004610550565b61170d565b6109a5610183565b9182918261096c565b0390f35b610189565b346109e6576109d06109ca366004610294565b9061174d565b6109d8610183565b806109e281610235565b0390f35b610189565b34610a1b57610a17610a06610a01366004610550565b6118b7565b610a0e610183565b9182918261096c565b0390f35b610189565b9091606082840312610a5657610a53610a3c8460008501610285565b93610a4a81602086016101c4565b936040016101eb565b90565b61018e565b34610a8a57610a74610a6e366004610a20565b91611a29565b610a7c610183565b80610a8681610235565b0390f35b610189565b90602082820312610abf57600082013560018060401b038111610aba57610ab6920161049a565b9091565b610193565b61018e565b34610af357610add610ad7366004610a8f565b90611e15565b610ae5610183565b80610aef81610235565b0390f35b610189565b9081610120910312610b075790565b6102f6565b919061048083820312610b375780610b2a610b3492600086016102fb565b9361036001610af8565b90565b61018e565b92916020610b59610b619360408701908782036000890152610695565b940190610332565b565b34610b9557610b7c610b76366004610b0c565b90611e21565b90610b91610b88610183565b92839283610b3c565b0390f35b610189565b608081830312610bdc57610bb18260008301610285565b92610bd9610bc284602085016103c8565b93610bd0816040860161039f565b9360600161039f565b90565b61018e565b34610c1357610bfd610bf4366004610b9a565b92919091611ea9565b610c05610183565b80610c0f81610235565b0390f35b610189565b34610c4757610c31610c2b366004610859565b91611eed565b610c39610183565b80610c4381610235565b0390f35b610189565b600080fd5b90610c5b91610cf0565b565b90565b610c74610c6f610c7992610269565b610c5d565b610269565b90565b90610c8690610c60565b600052602052604060002090565b60001b90565b90610ca760001991610c94565b9181191691161790565b610cc5610cc0610cca926101d3565b610c5d565b6101d3565b90565b90565b90610ce5610ce0610cec92610cb1565b610ccd565b8254610c9a565b9055565b610d08610d0d92916000610d02611f1e565b01610c7c565b610cd0565b565b90610d1991610c51565b565b600090565b610d3290610d2c610d1b565b50611f29565b90565b91610d4e939192610d44610d1b565b5092909192611f35565b90565b90610d5b91610d5d565b565b610d75610d7a92916005610d6f611f1e565b01610c7c565b610cd0565b565b90610d8691610d51565b565b610d9c610d97610da192610198565b610c5d565b610198565b90565b610dad90610d88565b90565b610db990610da4565b90565b919060a083820312610e0e57610dd581600085016101eb565b92610de382602083016101eb565b92610e0b610df484604085016101eb565b93610e0281606086016101eb565b936080016101eb565b90565b61018e565b90610e1d90610c60565b600052602052604060002090565b634e487b7160e01b600052602160045260246000fd5b600b1115610e4b57565b610e2b565b90610e5a82610e41565b565b610e6590610e50565b90565b610e7c610e77610e819261082f565b610c5d565b61082f565b90565b90610e8e90610e68565b600052602052604060002090565b90610faf610f17610f9e610f44610f71610ee1610fc498610fbf97610ec030610db0565b610ed2610ecc336101a3565b916101a3565b03610fc6575b90810190610dbc565b95929790939791939597610f12610f028d6001610efc611f1e565b01610e13565b610f0c6001610e5c565b90610e84565b610cd0565b610f3f610f2f6001610f27611f1e565b018c90610e13565b610f396002610e5c565b90610e84565b610cd0565b610f6c610f5c6001610f54611f1e565b018a90610e13565b610f666004610e5c565b90610e84565b610cd0565b610f99610f896001610f81611f1e565b018890610e13565b610f936006610e5c565b90610e84565b610cd0565b926001610fa9611f1e565b01610e13565b610fb96009610e5c565b90610e84565b610cd0565b565b610fd333600036916120fa565b610ed8565b60001c90565b60018060a01b031690565b610ff5610ffa91610fd8565b610fde565b90565b6110079054610fe9565b90565b60209181520190565b60207f207468697320616374696f6e0000000000000000000000000000000000000000917f4f6e6c79206f776e657220697320616c6c6f77656420746f20706572666f726d60008201520152565b61106e602c60409261100a565b61107781611013565b0190565b6110919060208101906000818303910152611061565b90565b1561109b57565b6110a3610183565b62461bcd60e51b8152806110b96004820161107b565b0390fd5b6110f5906110f06110cc612285565b6110ea6110e46110df6004339401610ffd565b6101a3565b916101a3565b14611094565b6110f7565b565b6111009061231c565b565b61110b906110bd565b565b9061111791611119565b565b6111316111369291600261112b611f1e565b01610c7c565b610cd0565b565b906111429161110d565b565b606090565b606090565b600d111561115857565b610e2b565b906111678261114e565b565b6111729061115d565b90565b61118961118461118e9261082f565b610c5d565b6101d3565b90565b601f801991011690565b634e487b7160e01b600052604160045260246000fd5b906111bb90611191565b810190811060018060401b038211176111d357604052565b61119b565b906111eb6111e4610183565b92836111b1565b565b60018060401b0381116112035760208091020190565b61119b565b9061121a611215836111ed565b6111d8565b918252565b369037565b9061124961123183611208565b9260208061123f86936111ed565b920191039061121f565b565b90565b61126261125d6112679261124b565b610c5d565b61082f565b90565b6001611276910161082f565b90565b90565b61128861128d91610fd8565b611279565b90565b61129a905461127c565b90565b634e487b7160e01b600052603260045260246000fd5b906112bd826105d6565b8110156112ce576020809102010190565b61129d565b906112dd906101d3565b9052565b90565b6112f86112f36112fd926112e1565b610c5d565b6101d3565b90565b60018060401b0381116113165760208091020190565b61119b565b9061132d61132883611300565b6111d8565b918252565b369037565b9061135c6113448361131b565b926020806113528693611300565b9201910390611332565b565b9061136890610c60565b600052602052604060002090565b61137f906103ae565b90565b9061138c90611376565b600052602052604060002090565b90565b6113a96113ae91610fd8565b61139a565b90565b6113bb905461139d565b90565b906113c88261065e565b8110156113d9576020809102010190565b61129d565b6113f26113ed6113f79261124b565b610c5d565b6101d3565b90565b906114049061032f565b9052565b90565b61141f61141a61142492611408565b610c5d565b6101d3565b90565b90611430611144565b50611439611149565b50611442611149565b5061145d611458611453600c611169565b611175565b611224565b91611468600061124e565b5b8061148561147f61147a600c611169565b61082f565b9161082f565b10156114db576114d6906114d16114b96114b46114ad60066114a5611f1e565b018790610e13565b8490610e84565b611290565b6114cc876114c685611175565b906112b3565b6112d3565b61126a565b611469565b506114ee6114e960026112e4565b611337565b9161153361151a61151561150d6008611505611f1e565b01869061135e565b600190611382565b6113b1565b61152e8561152860006113de565b906113be565b6113fa565b61157761155e6115596115516008611549611f1e565b01869061135e565b600090611382565b6113b1565b6115728561156c600161140b565b906113be565b6113fa565b6116106115f76115f26115ea61159561159060026112e4565b611337565b956115da6115c16115bc6115b460076115ac611f1e565b01859061135e565b600190611382565b6113b1565b6115d5896115cf60006113de565b906113be565b6113fa565b60076115e4611f1e565b0161135e565b600090611382565b6113b1565b61160b84611605600161140b565b906113be565b6113fa565b565b6116409161163661163b92611625610d1b565b506007611630611f1e565b0161135e565b611382565b6113b1565b90565b9061164e929161168f565b565b61166461165f6116699261032f565b610c5d565b61032f565b90565b90565b9061168461167f61168b92611650565b61166c565b8254610c9a565b9055565b906116b1906116ac6116b6949360046116a6611f1e565b0161135e565b611382565b61166f565b565b906116c39291611643565b565b906116d092916116d2565b565b906116f4906116ef6116f9949360066116e9611f1e565b01610e13565b610e84565b610cd0565b565b9061170692916116c5565b565b600090565b61171f90611719611708565b50612425565b90565b9061172c9161172e565b565b61174661174b92916003611740611f1e565b01610c7c565b610cd0565b565b9061175791611722565b565b61176d6117686117729261124b565b610c5d565b610198565b90565b61177e90611759565b90565b61178a90610da4565b90565b9061179790611781565b600052602052604060002090565b90565b906117b290610c60565b600052602052604060002090565b60016117cc91016101d3565b90565b6117e36117de6117e8926101d3565b610c5d565b610269565b90565b6117f490610d88565b90565b611800906117eb565b90565b61180c90610da4565b90565b600080fd5b60e01b90565b90505190611827826101d6565b565b90602082820312611843576118409160000161181a565b90565b61018e565b61185190610269565b9052565b919061186990600060208501940190611848565b565b611873610183565b3d6000823e3d90fd5b634e487b7160e01b600052601160045260246000fd5b6118a16118a7919392936101d3565b926101d3565b82018092116118b257565b61187c565b906118c0611708565b506118c9612455565b6119076119026118d960006113de565b9460026118fb6118f6600587016118f06000611775565b9061178d565b6117a5565b94016117a8565b610ffd565b9061191260006113de565b935b8461192f61192961192485612463565b6101d3565b916101d3565b10156119e657611985602061194d611948858990612497565b6117cf565b61195e611959876117f7565b611803565b61197a639a2f44ca61196e610183565b95869485938493611814565b835260048301611855565b03915afa80156119e1576119ab926119a5926000926119b1575b50611892565b946117c0565b93611914565b6119d391925060203d81116119da575b6119cb81836111b1565b810190611829565b903861199f565b503d6119c1565b61186b565b929350505090565b906119f992916119fb565b565b9091611a2792611a1e611a196003611a11612455565b0185906117a8565b610ffd565b929091926125dd565b565b90611a3492916119ee565b565b90611a4091611c57565b565b611a4b90610198565b90565b611a5781611a42565b03611a5e57565b600080fd5b90503590611a7082611a4e565b565b90929192611a87611a8282611300565b6111d8565b9381855260208086019202830192818411611ac457915b838310611aab5750505050565b60208091611ab9848661039f565b815201920191611a9e565b610495565b9080601f83011215611ae757816020611ae493359101611a72565b90565b61048b565b919060a083820312611b5457611b058160008501611a63565b92611b138260208301611a63565b92604082013560018060401b038111611b4f57611b3584611b4c928501611ac9565b93611b4381606086016101eb565b93608001610285565b90565b610193565b61018e565b611b6290610da4565b90565b611b6e90610d88565b90565b611b7a90611b65565b90565b611b8690610da4565b90565b611b92906101a3565b9052565b916020611bb8929493611bb160408201966000830190611b89565b0190611b89565b565b600080fd5b60018060401b038111611bdb57611bd7602091611191565b0190565b61119b565b90826000939282370152565b90929192611c01611bfc82611bbf565b6111d8565b93818552602085019082840111611c1d57611c1b92611be0565b565b611bba565b611c2d913691611bec565b90565b92916020611c4d611c559360408701908782036000890152610695565b94019061095f565b565b611c7f611c85611c93611c8e93611c718187810190611aec565b959398929691979098611b59565b95611b59565b95969395611b71565b611b7d565b602063dd62ed3e913390611cc1611ca930610db0565b94611ccc611cb5610183565b96879586948594611814565b845260048401611b96565b03915afa908115611e1057600091611de2575b509586611cf5611cef60006113de565b916101d3565b03611dc3575b505080611d11611d0b60006113de565b916101d3565b11611d68575b50909192611d4e611d487f7a605550c41cf86b0cc56e1245d08b2a276139d5bc5044ce01e9fb71bd1579ad93611781565b93610c60565b93611d63611d5a610183565b92839283611c30565b0390a3565b611dbd90611d816005611d79611f1e565b018590610c7c565b50611db381611dad611d9e6005611d96611f1e565b018890610c7c565b91611da883611290565b611892565b90610cd0565b839083869261275f565b38611d17565b611ddb918591611dd586918a93611c22565b92612689565b3880611cfb565b611e03915060203d8111611e09575b611dfb81836111b1565b810190611829565b38611cdf565b503d611df1565b61186b565b90611e1f91611a36565b565b90611e3d91611e2e611149565b50611e37610d1b565b506128ba565b90611e478261294f565b90565b90611e56939291611e58565b565b9190611e9d611ea794611e8c611ea294611e87611e806008611e78611f1e565b01899061135e565b8690611382565b61166f565b936007611e97611f1e565b0161135e565b611382565b61166f565b565b90611eb5939291611e4a565b565b90611ec29291611ec4565b565b90611ee690611ee1611eeb94936001611edb611f1e565b01610e13565b610e84565b610cd0565b565b90611ef89291611eb7565b565b7f8044e54adfaacc587fefea0831a427898a157664a4fc313bb47c3132ec6276ed90565b611f26611efa565b90565b50611f32610d1b565b90565b50505050611f41610d1b565b90565b611f4d90610da4565b90565b90565b611f67611f62611f6c92611f50565b610c5d565b6101d3565b90565b600080fd5b600080fd5b90939293848311611f99578411611f94576001820201920390565b611f74565b611f6f565b5090565b63ffffffff60e01b1690565b1b90565b90611fc0611fc79183611f9e565b9135611fa2565b9060048110611fd5575b5090565b611fed9063ffffffff60e01b90600403600802611fae565b1638611fd1565b63ffffffff1690565b61201161200c6120169261124b565b610c5d565b611ff4565b90565b919061202d90600060208501940190611b89565b565b60a01b90565b9061204460ff60a01b9161202f565b9181191691161790565b90565b9061206661206161206d92611376565b61204e565b8254612035565b9055565b61207a90610d88565b90565b61208690612071565b90565b61209290610da4565b90565b60009103126120a057565b61018e565b60209181520190565b91906120c8816120c1816120cd956120a5565b8095611be0565b611191565b0190565b916120f79391926120ea60408201946000830190611b89565b60208185039101526120ae565b90565b612102612a05565b9161215561214d612111612a15565b8461211b30611f44565b90612147612141878b60009061213b6121356004936113de565b92611f53565b92611f79565b90611fb2565b92612b83565b9190156103ae565b612161575b5050505050565b61217461216e6000611ffd565b91611ff4565b1160001461223c5761218a600160008501612051565b6121a261219d612198612a15565b61207d565b612089565b6394c7d7ee92919492813b156122375760006121d1916121dc82966121c5610183565b998a9788968795611814565b8552600485016120d1565b03925af1918215612232576121fb92612205575b506000809101612051565b388080808061215a565b6122259060003d811161222b575b61221d81836111b1565b810190612095565b386121f0565b503d612213565b61186b565b61180f565b61225d82612248610183565b91829162d1953b60e31b835260048301612019565b0390fd5b7fc8fcad8db84d3cc18b4c41d551ea0ee66dd599cde068d998e57d5e09332c131c90565b61228d612261565b90565b90565b6122a76122a26122ac92612290565b610c5d565b6101d3565b90565b6122bc6305f5e100612293565b90565b90565b6122d66122d16122db926122bf565b610c5d565b6101d3565b90565b90565b6122f56122f06122fa926122de565b610c5d565b6101d3565b90565b90565b61231461230f612319926122fd565b610c5d565b6101d3565b90565b6124239061241e61240e61232e611f1e565b9261236061233a6122af565b61235b61234b600188018590610e13565b6123556001610e5c565b90610e84565b610cd0565b61239161236b6122af565b61238c61237c600188018590610e13565b6123866002610e5c565b90610e84565b610cd0565b6123c561239f6104e26122c2565b6123c06123b0600188018590610e13565b6123ba6004610e5c565b90610e84565b610cd0565b6123f96123d3610e106122e1565b6123f46123e4600188018590610e13565b6123ee6006610e5c565b90610e84565b610cd0565b6001612407620f4240612300565b9401610e13565b6124186009610e5c565b90610e84565b610cd0565b565b5061242e611708565b90565b7f2eec39e2b6bcfb5f1ee2be0b6e9d5a470a45585b1e2f7f291af9fb9f551763d090565b61245d612431565b90565b90565b61247b600061248092612474611708565b5001612460565b612c8c565b90565b61248f61249491610fd8565b610cb1565b90565b6124bd916124b360006124b8936124ac611708565b5001612460565b612d0a565b612483565b90565b6124cf6124d5919392936101d3565b926101d3565b82039182116124e057565b61187c565b60018060401b038111612501576124fd602091611191565b0190565b61119b565b90612518612513836124e5565b6111d8565b918252565b6125276000612506565b90565b61253261251d565b90565b6007111561253f57565b610e2b565b9061254e82612535565b565b61255990612544565b90565b5190565b60005b838110612574575050906000910152565b806020918301518185015201612563565b6125a46125ad6020936125b29361259b8161255c565b938480936120a5565b95869101612560565b611191565b0190565b916125da926125cd6040820193600083019061095f565b6020818403910152612585565b90565b61261d612625919493946126188561261261260360006125fb612d50565b018890610c7c565b9161260d83611290565b6124c0565b90610cd0565b611b71565b848491612d9b565b91600690919261263361252a565b61266f6126696126637fa5a40b103c251a8a92f4f0417a34aa5561df1cb24587a7366483504d6707648b94610c60565b94612550565b94611781565b9461268461267b610183565b928392836125b6565b0390a4565b6126ba836126b46126a5600161269d612d50565b018590610c7c565b916126af83611290565b6124c0565b90610cd0565b6126eb836126e56126d660006126ce612d50565b018590610c7c565b916126e083611290565b611892565b90610cd0565b600191929361272c6127266127207fa5a40b103c251a8a92f4f0417a34aa5561df1cb24587a7366483504d6707648b94610c60565b94612550565b94611781565b94612741612738610183565b928392836125b6565b0390a4565b61275c9160208201916000818403910152610695565b90565b61277c612777600061276f612d50565b018390610c7c565b611290565b8361278f612789836101d3565b916101d3565b1161287c575b506127c7836127c16127b260006127aa612d50565b018590610c7c565b916127bc83611290565b6124c0565b90610cd0565b6127f8836127f26127e360016127db612d50565b018590610c7c565b916127ed83611290565b611892565b90610cd0565b612817612826600093949561280b610183565b92839160208301612746565b602082018103825203826111b1565b61286261285c6128567fa5a40b103c251a8a92f4f0417a34aa5561df1cb24587a7366483504d6707648b94610c60565b94612550565b94611781565b9461287761286e610183565b928392836125b6565b0390a4565b9092509138612795565b3561289081610270565b90565b3561289d816101d6565b90565b356128aa8161038a565b90565b356128b7816103b3565b90565b612903612909926128c9611149565b506128d660808401612886565b906128f060406128e96101208701612893565b92016128a0565b906128fd60a086016128ad565b92611f35565b90612e7e565b90565b612916905161032f565b90565b61292861292e9193929361032f565b9261032f565b8083019260008285121581831216928512911215161761294a57565b61187c565b90612958610d1b565b9161296360006113de565b925b8361298061297a6129758561065e565b6101d3565b916101d3565b10156129b2576129a66129ac916129a061299b8588906113be565b61290c565b90612919565b936117c0565b92612965565b925050565b90565b90565b6129d16129cc6129d6926129b7565b610c94565b6129ba565b90565b612a027ff3177357ab46d8af007ab3fdb9af81da189e1068fefdc0073dca88a2cab40a006129bd565b90565b612a0d6129d9565b90565b600090565b612a1d612a10565b50612a316000612a2b612a05565b01610ffd565b90565b600090565b600090565b612a4790611fa2565b9052565b604090612a75612a7c9496959396612a6b60608401986000850190611b89565b6020830190611b89565b0190612a3e565b565b90612a90612a8b83611bbf565b6111d8565b918252565b606090565b3d600014612ab757612aab3d612a7e565b903d6000602084013e5b565b612abf612a95565b90612ab5565b90565b612adc612ad7612ae192612ac5565b610c5d565b6101d3565b90565b90565b612afb612af6612b0092612ae4565b610c5d565b6101d3565b90565b90505190612b10826103b3565b565b90602082820312612b2c57612b2991600001612b03565b90565b61018e565b612b3a81611ff4565b03612b4157565b600080fd5b90505190612b5382612b31565b565b9190604083820312612b7e5780612b72612b7b9260008601612b03565b93602001612b46565b90565b61018e565b93926000918291612bd5612b95612a34565b95612bc6612ba1612a39565b99949193612bad610183565b94859360046020860163b700961360e01b815201612a4b565b602082018103825203826111b1565b602081019051915afa612be6612a9a565b90612bf1575b509190565b90612bfb8261255c565b612c0e612c086040612ac8565b916101d3565b1015600014612c3d5750612c349192506020612c298261255c565b818301019101612b55565b91905b38612bec565b90612c478161255c565b612c5a612c546020612ae7565b916101d3565b1015612c67575b50612c37565b612c8291506020612c778261255c565b818301019101612b12565b38612c61565b5490565b6000612ca191612c9a611708565b5001612c88565b90565b600090565b600052602060002090565b612cbd81612c88565b821015612cd857612ccf600191612ca9565b91020190600090565b61129d565b1c90565b90565b612cf4906008612cf99302612cdd565b612ce1565b90565b90612d079154612ce4565b90565b612d29916000612d2392612d1c612ca4565b5001612cb4565b90612cfc565b90565b7f4487c6deafb3b968c18f689f85fbb6df4ca91ac06c46b27d8f8dd3839c79c8c990565b612d58612d2c565b90565b612d6f612d6a612d7492611ff4565b611814565b611fa2565b90565b916020612d99929493612d9260408201966000830190611b89565b019061095f565b565b90612de2612de793612dd360049493612dba63a9059cbb919391612d5b565b92612dc3610183565b9687946020860190815201612d77565b602082018103825203836111b1565b61312e565b565b612dfd612df8612e02926101d3565b610c5d565b61032f565b90565b60031115612e0f57565b600080fd5b60031115612e1e57565b610e2b565b90612e2d82612e14565b565b35612e3981612e05565b90565b35612e4681610835565b90565b612e58612e5e919392936101d3565b926101d3565b91612e6a8382026101d3565b928184041490151715612e7957565b61187c565b612e86611149565b50612ec6612ea4612e9f612e9a600c611169565b611175565b611337565b92612ec184612ebb612eb66002611169565b611175565b906113be565b6113fa565b612ed36101208201612893565b612ee6612ee060006113de565b916101d3565b1480613106575b61310257612efd60c082016128ad565b60001461301357612f5c612f3b612f36612f1960808501612886565b612f266101208601612893565b612f306000611169565b916131c7565b612de9565b612f5784612f51612f4c6000611169565b611175565b906113be565b6113fa565b5b612f6a6102a08201612e3c565b612f7d612f77600061124e565b9161082f565b11612f87575b5090565b612fec612fe761300d92612fe1612fdc6102a0612fd5612fd0612fc06006612fad611f1e565b01612fba60808901612886565b90610e13565b612fca6003611169565b90610e84565b611290565b9301612e3c565b611175565b90612e49565b612de9565b61300883613002612ffd6003611169565b611175565b906113be565b6113fa565b38612f83565b61306b61304a61304561302860808501612886565b6130356101208601612893565b61303f6001611169565b916131c7565b612de9565b6130668461306061305b6001611169565b611175565b906113be565b6113fa565b6130786102408201612e2f565b61308b6130856001612e23565b91612e23565b14613096575b612f5d565b6130fd6130dc6130d76130d26130c260066130af611f1e565b016130bc60808801612886565b90610e13565b6130cc6004611169565b90610e84565b611290565b612de9565b6130f8846130f26130ed6004611169565b611175565b906113be565b6113fa565b613091565b5090565b506131146101608201612893565b61312761312160006113de565b916101d3565b1415612eed565b906131419061313c83611b7d565b613232565b61314a8161255c565b61315d61315760006113de565b916101d3565b1415908161319c575b5061316e5750565b61317a61319891611b7d565b613182610183565b918291635274afe760e01b835260048301612019565b0390fd5b6131c191506131bb9060206131b08261255c565b818301019101612b12565b156103ae565b38613166565b6131cf611708565b50816131e46131de60006113de565b916101d3565b146132225761321461320f61321f9461320a613219946006613204611f1e565b01610e13565b610e84565b611290565b613254565b9061328b565b90565b50505061322f60006113de565b90565b906132519161323f612a95565b509061324b60006113de565b916132cd565b90565b61325c611708565b508061327161326b60006113de565b916101d3565b1460001461328657506132826122af565b5b90565b613283565b613293611708565b50816302faf0806000190304811115821517156132bc576305f5e100916302faf0809102010490565b600080fd5b6132ca90610da4565b90565b90916132d7612a95565b506132e1306132c1565b316132f46132ee836101d3565b916101d3565b10613321576000809161331e948491602082019151925af190613315612a9a565b9091909161334f565b90565b61334b61332d306132c1565b613335610183565b91829163cd78605960e01b835260048301612019565b0390fd5b906133639061335c612a95565b50156103ae565b60001461337057506133dd565b6133798261255c565b61338c61338660006113de565b916101d3565b14806133c1575b61339b575090565b6133bd906133a7610183565b918291639996b31560e01b835260048301612019565b0390fd5b50803b6133d76133d160006113de565b916101d3565b14613393565b6133e68161255c565b6133f96133f360006113de565b916101d3565b1160001461340957805190602001fd5b613411610183565b630a12f52160e11b81528061342860048201610235565b0390fdfea2646970667358221220d2d0bd3b95129ad71bae5933cbc91751fef9f50c745219a006cf40df0bc4a0d364736f6c63430008180033",
  "devdoc": {
    "errors": {
      "AddressEmptyCode(address)": [
        {
          "details": "There's no code at `target` (it is not a contract)."
        }
      ],
      "AddressInsufficientBalance(address)": [
        {
          "details": "The ETH balance of the account is not enough to perform the operation."
        }
      ],
      "FailedInnerCall()": [
        {
          "details": "A call to an address target failed. The target may have reverted."
        }
      ],
      "SafeERC20FailedOperation(address)": [
        {
          "details": "An operation with an ERC20 token failed."
        }
      ]
    },
    "kind": "dev",
    "methods": {},
    "version": 1
  },
  "userdoc": {
    "kind": "user",
    "methods": {},
    "version": 1
  },
  "storageLayout": {
    "storage": [],
    "types": null
  }
}