{
  "address": "0xa2Fc81c55b437a2A3a10eD7FFd83975fd5E847Bb",
  "abi": [
    {
      "inputs": [
        {
          "internalType": "address",
          "name": "authority",
          "type": "address"
        }
      ],
      "name": "AccessManagedInvalidAuthority",
      "type": "error"
    },
    {
      "inputs": [
        {
          "internalType": "address",
          "name": "caller",
          "type": "address"
        },
        {
          "internalType": "uint32",
          "name": "delay",
          "type": "uint32"
        }
      ],
      "name": "AccessManagedRequiredDelay",
      "type": "error"
    },
    {
      "inputs": [
        {
          "internalType": "address",
          "name": "caller",
          "type": "address"
        }
      ],
      "name": "AccessManagedUnauthorized",
      "type": "error"
    },
    {
      "inputs": [
        {
          "internalType": "address",
          "name": "target",
          "type": "address"
        }
      ],
      "name": "AddressEmptyCode",
      "type": "error"
    },
    {
      "inputs": [
        {
          "internalType": "address",
          "name": "account",
          "type": "address"
        }
      ],
      "name": "AddressInsufficientBalance",
      "type": "error"
    },
    {
      "inputs": [],
      "name": "FailedInnerCall",
      "type": "error"
    },
    {
      "inputs": [
        {
          "internalType": "address",
          "name": "token",
          "type": "address"
        }
      ],
      "name": "SafeERC20FailedOperation",
      "type": "error"
    },
    {
      "anonymous": false,
      "inputs": [
        {
          "indexed": true,
          "internalType": "uint16",
          "name": "market",
          "type": "uint16"
        },
        {
          "indexed": true,
          "internalType": "enum BalanceHandler.Type",
          "name": "transferType",
          "type": "uint8"
        },
        {
          "indexed": true,
          "internalType": "address",
          "name": "account",
          "type": "address"
        },
        {
          "indexed": false,
          "internalType": "uint256",
          "name": "value",
          "type": "uint256"
        },
        {
          "indexed": false,
          "internalType": "bytes",
          "name": "extra",
          "type": "bytes"
        }
      ],
      "name": "Transfer",
      "type": "event"
    },
    {
      "anonymous": false,
      "inputs": [
        {
          "indexed": true,
          "internalType": "address",
          "name": "account",
          "type": "address"
        },
        {
          "indexed": true,
          "internalType": "uint16",
          "name": "market",
          "type": "uint16"
        },
        {
          "indexed": false,
          "internalType": "int256[]",
          "name": "fees",
          "type": "int256[]"
        },
        {
          "indexed": false,
          "internalType": "uint256",
          "name": "amount",
          "type": "uint256"
        }
      ],
      "name": "UpdateFee",
      "type": "event"
    },
    {
      "inputs": [
        {
          "internalType": "uint16",
          "name": "market",
          "type": "uint16"
        },
        {
          "internalType": "bytes",
          "name": "fee",
          "type": "bytes"
        }
      ],
      "name": "SELF_addFee",
      "outputs": [],
      "stateMutability": "nonpayable",
      "type": "function"
    },
    {
      "inputs": [
        {
          "internalType": "bytes",
          "name": "_data",
          "type": "bytes"
        }
      ],
      "name": "SELF_collectFees",
      "outputs": [],
      "stateMutability": "nonpayable",
      "type": "function"
    },
    {
      "inputs": [
        {
          "internalType": "uint16",
          "name": "market",
          "type": "uint16"
        },
        {
          "internalType": "uint256",
          "name": "longSize",
          "type": "uint256"
        },
        {
          "internalType": "uint256",
          "name": "shortSize",
          "type": "uint256"
        }
      ],
      "name": "SELF_updateCumulativeFundingRate",
      "outputs": [],
      "stateMutability": "nonpayable",
      "type": "function"
    },
    {
      "inputs": [
        {
          "internalType": "uint16",
          "name": "market",
          "type": "uint16"
        },
        {
          "internalType": "uint256",
          "name": "start",
          "type": "uint256"
        },
        {
          "internalType": "uint256",
          "name": "end",
          "type": "uint256"
        }
      ],
      "name": "addSkipTime",
      "outputs": [],
      "stateMutability": "nonpayable",
      "type": "function"
    },
    {
      "inputs": [
        {
          "internalType": "uint16",
          "name": "market",
          "type": "uint16"
        },
        {
          "internalType": "bool",
          "name": "isLong",
          "type": "bool"
        }
      ],
      "name": "cumulativeFundingRates",
      "outputs": [
        {
          "internalType": "int256",
          "name": "",
          "type": "int256"
        }
      ],
      "stateMutability": "view",
      "type": "function"
    },
    {
      "inputs": [
        {
          "internalType": "uint16",
          "name": "market",
          "type": "uint16"
        },
        {
          "internalType": "address",
          "name": "to",
          "type": "address"
        },
        {
          "internalType": "uint256",
          "name": "amount",
          "type": "uint256"
        }
      ],
      "name": "feeWithdraw",
      "outputs": [],
      "stateMutability": "nonpayable",
      "type": "function"
    },
    {
      "inputs": [
        {
          "internalType": "uint16",
          "name": "market",
          "type": "uint16"
        }
      ],
      "name": "getExecFee",
      "outputs": [
        {
          "internalType": "uint256",
          "name": "",
          "type": "uint256"
        }
      ],
      "stateMutability": "view",
      "type": "function"
    },
    {
      "inputs": [
        {
          "internalType": "uint16",
          "name": "market",
          "type": "uint16"
        }
      ],
      "name": "getFeeAndRatesOfMarket",
      "outputs": [
        {
          "internalType": "uint256[]",
          "name": "fees",
          "type": "uint256[]"
        },
        {
          "internalType": "int256[]",
          "name": "fundingRates",
          "type": "int256[]"
        },
        {
          "internalType": "int256[]",
          "name": "_cumulativeFundingRates",
          "type": "int256[]"
        }
      ],
      "stateMutability": "view",
      "type": "function"
    },
    {
      "inputs": [
        {
          "components": [
            {
              "internalType": "enum MarketBusinessType",
              "name": "busiType",
              "type": "uint8"
            },
            {
              "internalType": "uint256",
              "name": "oraclePrice",
              "type": "uint256"
            },
            {
              "internalType": "uint256",
              "name": "pay",
              "type": "uint256"
            },
            {
              "internalType": "uint256",
              "name": "slippage",
              "type": "uint256"
            },
            {
              "internalType": "uint16",
              "name": "market",
              "type": "uint16"
            },
            {
              "internalType": "bool",
              "name": "isLong",
              "type": "bool"
            },
            {
              "internalType": "bool",
              "name": "isOpen",
              "type": "bool"
            },
            {
              "internalType": "bool",
              "name": "isCreate",
              "type": "bool"
            },
            {
              "internalType": "bool",
              "name": "isFromMarket",
              "type": "bool"
            },
            {
              "internalType": "uint256",
              "name": "sizeDelta",
              "type": "uint256"
            },
            {
              "internalType": "uint256",
              "name": "price",
              "type": "uint256"
            },
            {
              "internalType": "uint256",
              "name": "collateralDelta",
              "type": "uint256"
            },
            {
              "internalType": "uint256",
              "name": "collateral",
              "type": "uint256"
            },
            {
              "internalType": "uint256",
              "name": "tp",
              "type": "uint256"
            },
            {
              "internalType": "uint256",
              "name": "sl",
              "type": "uint256"
            },
            {
              "internalType": "uint64",
              "name": "orderId",
              "type": "uint64"
            },
            {
              "internalType": "address",
              "name": "account",
              "type": "address"
            },
            {
              "internalType": "bool",
              "name": "isExec",
              "type": "bool"
            },
            {
              "internalType": "enum LiquidationState",
              "name": "liqState",
              "type": "uint8"
            },
            {
              "internalType": "uint64",
              "name": "fromOrder",
              "type": "uint64"
            },
            {
              "internalType": "bytes32",
              "name": "refCode",
              "type": "bytes32"
            },
            {
              "internalType": "uint8",
              "name": "execNum",
              "type": "uint8"
            },
            {
              "internalType": "bool",
              "name": "isKeepLev",
              "type": "bool"
            },
            {
              "internalType": "bool",
              "name": "isKeepLevTP",
              "type": "bool"
            },
            {
              "internalType": "bool",
              "name": "isKeepLevSL",
              "type": "bool"
            },
            {
              "internalType": "bool",
              "name": "triggerAbove",
              "type": "bool"
            },
            {
              "internalType": "uint128",
              "name": "gas",
              "type": "uint128"
            }
          ],
          "internalType": "struct MarketCache",
          "name": "params",
          "type": "tuple"
        },
        {
          "components": [
            {
              "internalType": "uint256",
              "name": "size",
              "type": "uint256"
            },
            {
              "internalType": "uint256",
              "name": "collateral",
              "type": "uint256"
            },
            {
              "internalType": "int256",
              "name": "entryFundingRate",
              "type": "int256"
            },
            {
              "internalType": "int256",
              "name": "realisedPnl",
              "type": "int256"
            },
            {
              "internalType": "uint256",
              "name": "averagePrice",
              "type": "uint256"
            },
            {
              "internalType": "bool",
              "name": "isLong",
              "type": "bool"
            },
            {
              "internalType": "uint32",
              "name": "lastTime",
              "type": "uint32"
            },
            {
              "internalType": "uint16",
              "name": "market",
              "type": "uint16"
            },
            {
              "internalType": "uint72",
              "name": "extra0",
              "type": "uint72"
            }
          ],
          "internalType": "struct PositionProps",
          "name": "position",
          "type": "tuple"
        }
      ],
      "name": "getFeesReceivable",
      "outputs": [
        {
          "internalType": "int256[]",
          "name": "fees",
          "type": "int256[]"
        },
        {
          "internalType": "int256",
          "name": "totalFee",
          "type": "int256"
        }
      ],
      "stateMutability": "view",
      "type": "function"
    },
    {
      "inputs": [
        {
          "internalType": "uint16",
          "name": "market",
          "type": "uint16"
        },
        {
          "internalType": "uint256",
          "name": "size",
          "type": "uint256"
        },
        {
          "internalType": "int256",
          "name": "entryFundingRate",
          "type": "int256"
        },
        {
          "internalType": "bool",
          "name": "isLong",
          "type": "bool"
        }
      ],
      "name": "getFundingFee",
      "outputs": [
        {
          "internalType": "int256",
          "name": "",
          "type": "int256"
        }
      ],
      "stateMutability": "view",
      "type": "function"
    },
    {
      "inputs": [
        {
          "internalType": "uint16",
          "name": "market",
          "type": "uint16"
        }
      ],
      "name": "getGlobalOpenInterest",
      "outputs": [
        {
          "internalType": "uint256",
          "name": "_globalSize",
          "type": "uint256"
        }
      ],
      "stateMutability": "view",
      "type": "function"
    },
    {
      "inputs": [
        {
          "internalType": "address",
          "name": "market",
          "type": "address"
        },
        {
          "internalType": "uint256",
          "name": "longSize",
          "type": "uint256"
        },
        {
          "internalType": "uint256",
          "name": "shortSize",
          "type": "uint256"
        }
      ],
      "name": "getNextFundingRate",
      "outputs": [],
      "stateMutability": "nonpayable",
      "type": "function"
    },
    {
      "inputs": [
        {
          "components": [
            {
              "internalType": "enum MarketBusinessType",
              "name": "busiType",
              "type": "uint8"
            },
            {
              "internalType": "uint256",
              "name": "oraclePrice",
              "type": "uint256"
            },
            {
              "internalType": "uint256",
              "name": "pay",
              "type": "uint256"
            },
            {
              "internalType": "uint256",
              "name": "slippage",
              "type": "uint256"
            },
            {
              "internalType": "uint16",
              "name": "market",
              "type": "uint16"
            },
            {
              "internalType": "bool",
              "name": "isLong",
              "type": "bool"
            },
            {
              "internalType": "bool",
              "name": "isOpen",
              "type": "bool"
            },
            {
              "internalType": "bool",
              "name": "isCreate",
              "type": "bool"
            },
            {
              "internalType": "bool",
              "name": "isFromMarket",
              "type": "bool"
            },
            {
              "internalType": "uint256",
              "name": "sizeDelta",
              "type": "uint256"
            },
            {
              "internalType": "uint256",
              "name": "price",
              "type": "uint256"
            },
            {
              "internalType": "uint256",
              "name": "collateralDelta",
              "type": "uint256"
            },
            {
              "internalType": "uint256",
              "name": "collateral",
              "type": "uint256"
            },
            {
              "internalType": "uint256",
              "name": "tp",
              "type": "uint256"
            },
            {
              "internalType": "uint256",
              "name": "sl",
              "type": "uint256"
            },
            {
              "internalType": "uint64",
              "name": "orderId",
              "type": "uint64"
            },
            {
              "internalType": "address",
              "name": "account",
              "type": "address"
            },
            {
              "internalType": "bool",
              "name": "isExec",
              "type": "bool"
            },
            {
              "internalType": "enum LiquidationState",
              "name": "liqState",
              "type": "uint8"
            },
            {
              "internalType": "uint64",
              "name": "fromOrder",
              "type": "uint64"
            },
            {
              "internalType": "bytes32",
              "name": "refCode",
              "type": "bytes32"
            },
            {
              "internalType": "uint8",
              "name": "execNum",
              "type": "uint8"
            },
            {
              "internalType": "bool",
              "name": "isKeepLev",
              "type": "bool"
            },
            {
              "internalType": "bool",
              "name": "isKeepLevTP",
              "type": "bool"
            },
            {
              "internalType": "bool",
              "name": "isKeepLevSL",
              "type": "bool"
            },
            {
              "internalType": "bool",
              "name": "triggerAbove",
              "type": "bool"
            },
            {
              "internalType": "uint128",
              "name": "gas",
              "type": "uint128"
            }
          ],
          "internalType": "struct MarketCache",
          "name": "data",
          "type": "tuple"
        }
      ],
      "name": "getOrderFees",
      "outputs": [
        {
          "internalType": "int256",
          "name": "fees",
          "type": "int256"
        }
      ],
      "stateMutability": "view",
      "type": "function"
    },
    {
      "inputs": [
        {
          "internalType": "uint16",
          "name": "market",
          "type": "uint16"
        }
      ],
      "name": "initFeeFacet",
      "outputs": [],
      "stateMutability": "nonpayable",
      "type": "function"
    },
    {
      "inputs": [
        {
          "internalType": "uint16",
          "name": "market",
          "type": "uint16"
        },
        {
          "internalType": "bool",
          "name": "isLong",
          "type": "bool"
        },
        {
          "internalType": "int256",
          "name": "calFundingRate",
          "type": "int256"
        }
      ],
      "name": "setCalFundingRates",
      "outputs": [],
      "stateMutability": "nonpayable",
      "type": "function"
    },
    {
      "inputs": [
        {
          "internalType": "uint16",
          "name": "market",
          "type": "uint16"
        },
        {
          "internalType": "uint256",
          "name": "interval",
          "type": "uint256"
        }
      ],
      "name": "setCalIntervals",
      "outputs": [],
      "stateMutability": "nonpayable",
      "type": "function"
    },
    {
      "inputs": [
        {
          "internalType": "uint16",
          "name": "market",
          "type": "uint16"
        },
        {
          "internalType": "uint8",
          "name": "feeType",
          "type": "uint8"
        },
        {
          "internalType": "uint256",
          "name": "feeAndRate",
          "type": "uint256"
        }
      ],
      "name": "setFeeAndRates",
      "outputs": [],
      "stateMutability": "nonpayable",
      "type": "function"
    },
    {
      "inputs": [
        {
          "internalType": "uint16",
          "name": "market",
          "type": "uint16"
        },
        {
          "internalType": "uint8",
          "name": "configType",
          "type": "uint8"
        },
        {
          "internalType": "uint256",
          "name": "value",
          "type": "uint256"
        }
      ],
      "name": "setFeeConfigs",
      "outputs": [],
      "stateMutability": "nonpayable",
      "type": "function"
    },
    {
      "inputs": [
        {
          "internalType": "uint16",
          "name": "market",
          "type": "uint16"
        },
        {
          "internalType": "uint256",
          "name": "loss",
          "type": "uint256"
        }
      ],
      "name": "setFundFeeLoss",
      "outputs": [],
      "stateMutability": "nonpayable",
      "type": "function"
    },
    {
      "inputs": [
        {
          "internalType": "uint16",
          "name": "market",
          "type": "uint16"
        },
        {
          "internalType": "uint256",
          "name": "interval",
          "type": "uint256"
        }
      ],
      "name": "setFundingIntervals",
      "outputs": [],
      "stateMutability": "nonpayable",
      "type": "function"
    },
    {
      "inputs": [
        {
          "internalType": "uint16",
          "name": "market",
          "type": "uint16"
        },
        {
          "internalType": "bool",
          "name": "isLong",
          "type": "bool"
        },
        {
          "internalType": "int256",
          "name": "fundingRate",
          "type": "int256"
        },
        {
          "internalType": "int256",
          "name": "cumulativeFundingRate",
          "type": "int256"
        }
      ],
      "name": "setFundingRates",
      "outputs": [],
      "stateMutability": "nonpayable",
      "type": "function"
    },
    {
      "inputs": [
        {
          "internalType": "uint16",
          "name": "market",
          "type": "uint16"
        },
        {
          "internalType": "uint256",
          "name": "lastCalTime",
          "type": "uint256"
        }
      ],
      "name": "setLastCalTimes",
      "outputs": [],
      "stateMutability": "nonpayable",
      "type": "function"
    }
  ],
  "args": [],
  "numDeployments": 8,
  "solcInputHash": "8d8e6e1fbf0edfe343a1be3391dbac70",
  "bytecode": "0x60806040523462000023576200001462000029565b61392162000035823961392190f35b6200002f565b60405190565b600080fdfe60806040526004361015610013575b610c4c565b61001e60003561017d565b8063054aaca114610178578063073b0cd1146101735780632b60680e1461016e5780632dacede914610169578063320de8e914610164578063393e02e11461015f57806348412d621461015a5780635ae70a2b146101555780635b97106414610150578063630dc5a01461014b57806370802dac1461014657806373ad39b31461014157806393b3b3631461013c578063a9bd63d514610137578063b5cc1d2014610132578063bf0d39b81461012d578063d4f8ba0114610128578063d7a799ce14610123578063e9210a021461011e578063f130c44514610119578063f2da13e2146101145763fa6d03c70361000e57610c18565b610be1565b610b63565b610ac4565b610a4b565b6109db565b6109a7565b610972565b610921565b6108ed565b610854565b6107e3565b61077d565b6105fb565b6105c8565b610575565b61053c565b610473565b6103e0565b61037e565b6102cf565b61023b565b60e01c90565b60405190565b600080fd5b600080fd5b600080fd5b60018060a01b031690565b6101ac90610198565b90565b6101b8816101a3565b036101bf57565b600080fd5b905035906101d1826101af565b565b90565b6101df816101d3565b036101e657565b600080fd5b905035906101f8826101d6565b565b90916060828403126102305761022d61021684600085016101c4565b9361022481602086016101eb565b936040016101eb565b90565b61018e565b60000190565b346102645761024b3660046101fa565b505050610256610183565b8061026081610235565b0390f35b610189565b61ffff1690565b61027981610269565b0361028057565b600080fd5b9050359061029282610270565b565b90916060828403126102ca576102c76102b08460008501610285565b936102be81602086016101eb565b936040016101eb565b90565b61018e565b346102f8576102df366004610294565b5050506102ea610183565b806102f481610235565b0390f35b610189565b600080fd5b600080fd5b600080fd5b909182601f830112156103445781359160018060401b03831161033f57602001926001830284011161033a57565b610307565b610302565b6102fd565b9060208282031261037957600082013560018060401b03811161037457610370920161030c565b9091565b610193565b61018e565b346103ad57610397610391366004610349565b90611248565b61039f610183565b806103a981610235565b0390f35b610189565b91906040838203126103db57806103cf6103d89260008601610285565b936020016101eb565b90565b61018e565b3461040f576103f96103f33660046103b2565b9061127f565b610401610183565b8061040b81610235565b0390f35b610189565b600080fd5b90816103609103126104285790565b610414565b90610360828203126104485761044591600001610419565b90565b61018e565b90565b6104599061044d565b9052565b919061047190600060208501940190610450565b565b346104a35761049f61048e61048936600461042d565b61158f565b610496610183565b9182918261045d565b0390f35b610189565b6104b18161044d565b036104b857565b600080fd5b905035906104ca826104a8565b565b151590565b6104da816104cc565b036104e157565b600080fd5b905035906104f3826104d1565b565b6080818303126105375761050c8260008301610285565b9261053461051d84602085016101eb565b9361052b81604086016104bd565b936060016104e6565b90565b61018e565b346105705761056c61055b6105523660046104f5565b929190916115ac565b610563610183565b9182918261045d565b0390f35b610189565b346105a45761058e6105883660046103b2565b906115f3565b610596610183565b806105a081610235565b0390f35b610189565b906020828203126105c3576105c091600001610285565b90565b61018e565b346105f6576105e06105db3660046105a9565b611723565b6105e8610183565b806105f281610235565b0390f35b610189565b3461062a5761061461060e3660046103b2565b90611759565b61061c610183565b8061062681610235565b0390f35b610189565b5190565b60209181520190565b60200190565b61064b906101d3565b9052565b9061065c81602093610642565b0190565b60200190565b9061068361067d6106768461062f565b8093610633565b9261063c565b9060005b8181106106945750505090565b9091926106ad6106a7600192865161064f565b94610660565b9101919091610687565b5190565b60209181520190565b60200190565b6106d39061044d565b9052565b906106e4816020936106ca565b0190565b60200190565b9061070b6107056106fe846106b7565b80936106bb565b926106c4565b9060005b81811061071c5750505090565b90919261073561072f60019286516106d7565b946106e8565b910191909161070f565b9161076c9061075e61077a959360608601908682036000880152610666565b9084820360208601526106ee565b9160408184039101526106ee565b90565b346107b0576107ac6107986107933660046105a9565b6119f0565b6107a3939193610183565b9384938461073f565b0390f35b610189565b91906040838203126107de57806107d26107db9260008601610285565b936020016104e6565b90565b61018e565b34610814576108106107ff6107f93660046107b5565b90611bdb565b610807610183565b9182918261045d565b0390f35b610189565b909160608284031261084f5761084c6108358460008501610285565b9361084381602086016104e6565b936040016104bd565b90565b61018e565b346108835761086d610867366004610819565b91611c81565b610875610183565b8061087f81610235565b0390f35b610189565b60ff1690565b61089781610888565b0361089e57565b600080fd5b905035906108b08261088e565b565b90916060828403126108e8576108e56108ce8460008501610285565b936108dc81602086016108a3565b936040016101eb565b90565b61018e565b3461091c576109066109003660046108b2565b91611cc4565b61090e610183565b8061091881610235565b0390f35b610189565b3461094a57610931366004610294565b50505061093c610183565b8061094681610235565b0390f35b610189565b610958906101d3565b9052565b91906109709060006020850194019061094f565b565b346109a25761099e61098d6109883660046105a9565b611cd6565b610995610183565b9182918261095c565b0390f35b610189565b346109d6576109c06109ba3660046103b2565b90611d16565b6109c8610183565b806109d281610235565b0390f35b610189565b34610a0b57610a076109f66109f13660046105a9565b611def565b6109fe610183565b9182918261095c565b0390f35b610189565b9091606082840312610a4657610a43610a2c8460008501610285565b93610a3a81602086016101c4565b936040016101eb565b90565b61018e565b34610a7a57610a64610a5e366004610a10565b91611f61565b610a6c610183565b80610a7681610235565b0390f35b610189565b919091604081840312610abf57610a998360008301610285565b92602082013560018060401b038111610aba57610ab6920161030c565b9091565b610193565b61018e565b34610af357610add610ad7366004610a7f565b91611fec565b610ae5610183565b80610aef81610235565b0390f35b610189565b9081610120910312610b075790565b610414565b919061048083820312610b375780610b2a610b349260008601610419565b9361036001610af8565b90565b61018e565b92916020610b59610b6193604087019087820360008901526106ee565b940190610450565b565b34610b9557610b7c610b76366004610b0c565b90612255565b90610b91610b88610183565b92839283610b3c565b0390f35b610189565b608081830312610bdc57610bb18260008301610285565b92610bd9610bc284602085016104e6565b93610bd081604086016104bd565b936060016104bd565b90565b61018e565b34610c1357610bfd610bf4366004610b9a565b929190916122ef565b610c05610183565b80610c0f81610235565b0390f35b610189565b34610c4757610c31610c2b3660046108b2565b91612333565b610c39610183565b80610c4381610235565b0390f35b610189565b600080fd5b90610c5b9161108a565b565b610c6690610198565b90565b610c7281610c5d565b03610c7957565b600080fd5b90503590610c8b82610c69565b565b601f801991011690565b634e487b7160e01b600052604160045260246000fd5b90610cb790610c8d565b810190811060018060401b03821117610ccf57604052565b610c97565b90610ce7610ce0610183565b9283610cad565b565b60018060401b038111610cff5760208091020190565b610c97565b90929192610d19610d1482610ce9565b610cd4565b9381855260208086019202830192818411610d5657915b838310610d3d5750505050565b60208091610d4b84866104bd565b815201920191610d30565b610307565b9080601f83011215610d7957816020610d7693359101610d04565b90565b6102fd565b919060a083820312610de657610d978160008501610c7e565b92610da58260208301610c7e565b92604082013560018060401b038111610de157610dc784610dde928501610d5b565b93610dd581606086016101eb565b93608001610285565b90565b610193565b61018e565b90565b610e02610dfd610e0792610198565b610deb565b610198565b90565b610e1390610dee565b90565b610e1f90610e0a565b90565b610e2b90610dee565b90565b610e3790610e22565b90565b610e4390610e0a565b90565b610e4f90610e0a565b90565b600080fd5b60e01b90565b90505190610e6a826101d6565b565b90602082820312610e8657610e8391600001610e5d565b90565b61018e565b610e94906101a3565b9052565b916020610eba929493610eb360408201966000830190610e8b565b0190610e8b565b565b610ec4610183565b3d6000823e3d90fd5b90565b610ee4610edf610ee992610ecd565b610deb565b6101d3565b90565b600080fd5b60018060401b038111610f0d57610f09602091610c8d565b0190565b610c97565b90826000939282370152565b90929192610f33610f2e82610ef1565b610cd4565b93818552602085019082840111610f4f57610f4d92610f12565b565b610eec565b610f5f913691610f1e565b90565b610f76610f71610f7b92610269565b610deb565b610269565b90565b90610f8890610f62565b600052602052604060002090565b60001c90565b90565b610fab610fb091610f96565b610f9c565b90565b610fbd9054610f9f565b90565b634e487b7160e01b600052601160045260246000fd5b610fe5610feb919392936101d3565b926101d3565b8201809211610ff657565b610fc0565b60001b90565b9061100e60001991610ffb565b9181191691161790565b61102c611027611031926101d3565b610deb565b6101d3565b90565b90565b9061104c61104761105392611018565b611034565b8254611001565b9055565b61106090610e0a565b90565b9291602061108061108893604087019087820360008901526106ee565b94019061094f565b565b6110b26110b86110c66110c1936110a48187810190610d7e565b959398929691979098610e16565b95610e16565b95969395610e2e565b610e3a565b602063dd62ed3e9133906110f46110dc30610e46565b946110ff6110e8610183565b96879586948594610e57565b845260048401610e98565b03915afa90811561124357600091611215575b5095866111286111226000610ed0565b916101d3565b036111f6575b50508061114461113e6000610ed0565b916101d3565b1161119b575b5090919261118161117b7f7a605550c41cf86b0cc56e1245d08b2a276139d5bc5044ce01e9fb71bd1579ad93611057565b93610f62565b9361119661118d610183565b92839283611063565b0390a3565b6111f0906111b460056111ac6124f7565b018590610f7e565b506111e6816111e06111d160056111c96124f7565b018890610f7e565b916111db83610fb3565b610fd6565b90611037565b839083869261251b565b3861114a565b61120e91859161120886918a93610f54565b92612416565b388061112e565b611236915060203d811161123c575b61122e8183610cad565b810190610e6c565b38611112565b503d611224565b610ebc565b9061125291610c51565b565b9061125e91611260565b565b61127861127d929160006112726124f7565b01610f7e565b611037565b565b9061128991611254565b565b600090565b600080fd5b6005111561129f57565b600080fd5b905035906112b182611295565b565b60018060401b031690565b6112c7816112b3565b036112ce57565b600080fd5b905035906112e0826112be565b565b600311156112ec57565b600080fd5b905035906112fe826112e2565b565b90565b61130c81611300565b0361131357565b600080fd5b9050359061132582611303565b565b60018060801b031690565b61133b81611327565b0361134257565b600080fd5b9050359061135482611332565b565b91906103608382031261157c5761157490611372610360610cd4565b9361138082600083016112a4565b600086015261139282602083016101eb565b60208601526113a482604083016101eb565b60408601526113b682606083016101eb565b60608601526113c88260808301610285565b60808601526113da8260a083016104e6565b60a08601526113ec8260c083016104e6565b60c08601526113fe8260e083016104e6565b60e08601526114118261010083016104e6565b6101008601526114258261012083016101eb565b6101208601526114398261014083016101eb565b61014086015261144d8261016083016101eb565b6101608601526114618261018083016101eb565b610180860152611475826101a083016101eb565b6101a0860152611489826101c083016101eb565b6101c086015261149d826101e083016112d3565b6101e08601526114b18261020083016101c4565b6102008601526114c58261022083016104e6565b6102208601526114d98261024083016112f1565b6102408601526114ed8261026083016112d3565b610260860152611501826102808301611318565b610280860152611515826102a083016108a3565b6102a0860152611529826102c083016104e6565b6102c086015261153d826102e083016104e6565b6102e08601526115518261030083016104e6565b6103008601526115658261032083016104e6565b61032086015261034001611347565b610340830152565b611290565b61158c903690611356565b90565b6115a46115a99161159e61128b565b50611581565b61268a565b90565b916115c59391926115bb61128b565b5092909192612720565b90565b906115d2916115d4565b565b6115ec6115f1929160056115e66124f7565b01610f7e565b611037565b565b906115fd916115c8565b565b60018060a01b031690565b61161661161b91610f96565b6115ff565b90565b611628905461160a565b90565b60209181520190565b60207f207468697320616374696f6e0000000000000000000000000000000000000000917f4f6e6c79206f776e657220697320616c6c6f77656420746f20706572666f726d60008201520152565b61168f602c60409261162b565b61169881611634565b0190565b6116b29060208101906000818303910152611682565b90565b156116bc57565b6116c4610183565b62461bcd60e51b8152806116da6004820161169c565b0390fd5b611716906117116116ed612753565b61170b611705611700600433940161161e565b6101a3565b916101a3565b146116b5565b611718565b565b611721906127e8565b565b61172c906116de565b565b906117389161173a565b565b6117526117579291600261174c6124f7565b01610f7e565b611037565b565b906117639161172e565b565b606090565b606090565b634e487b7160e01b600052602160045260246000fd5b600d111561178f57565b61176f565b9061179e82611785565b565b6117a990611794565b90565b6117c06117bb6117c592610888565b610deb565b6101d3565b90565b60018060401b0381116117de5760208091020190565b610c97565b906117f56117f0836117c8565b610cd4565b918252565b369037565b9061182461180c836117e3565b9260208061181a86936117c8565b92019103906117fa565b565b61183a61183561183f92610ecd565b610deb565b610888565b90565b600161184e9101610888565b90565b9061185b90610f62565b600052602052604060002090565b61187d61187861188292610888565b610deb565b610888565b90565b9061188f90611869565b600052602052604060002090565b634e487b7160e01b600052603260045260246000fd5b906118bd8261062f565b8110156118ce576020809102010190565b61189d565b906118dd906101d3565b9052565b90565b6118f86118f36118fd926118e1565b610deb565b6101d3565b90565b9061191261190d83610ce9565b610cd4565b918252565b369037565b9061194161192983611900565b926020806119378693610ce9565b9201910390611917565b565b9061194d90610f62565b600052602052604060002090565b611964906104cc565b90565b906119719061195b565b600052602052604060002090565b90565b61198e61199391610f96565b61197f565b90565b6119a09054611982565b90565b906119ad826106b7565b8110156119be576020809102010190565b61189d565b906119cd9061044d565b9052565b90565b6119e86119e36119ed926119d1565b610deb565b6101d3565b90565b906119f9611765565b50611a0261176a565b50611a0b61176a565b50611a26611a21611a1c600c6117a0565b6117ac565b6117ff565b91611a316000611826565b5b80611a4e611a48611a43600c6117a0565b610888565b91610888565b1015611aa457611a9f90611a9a611a82611a7d611a766006611a6e6124f7565b018790611851565b8490611885565b610fb3565b611a9587611a8f856117ac565b906118b3565b6118d3565b611842565b611a32565b50611ab7611ab260026118e4565b61191c565b91611afc611ae3611ade611ad66008611ace6124f7565b018690611943565b600190611967565b611996565b611af785611af16000610ed0565b906119a3565b6119c3565b611b40611b27611b22611b1a6008611b126124f7565b018690611943565b600090611967565b611996565b611b3b85611b3560016119d4565b906119a3565b6119c3565b611bd9611bc0611bbb611bb3611b5e611b5960026118e4565b61191c565b95611ba3611b8a611b85611b7d6007611b756124f7565b018590611943565b600190611967565b611996565b611b9e89611b986000610ed0565b906119a3565b6119c3565b6007611bad6124f7565b01611943565b600090611967565b611996565b611bd484611bce60016119d4565b906119a3565b6119c3565b565b611c0991611bff611c0492611bee61128b565b506007611bf96124f7565b01611943565b611967565b611996565b90565b90611c179291611c58565b565b611c2d611c28611c329261044d565b610deb565b61044d565b90565b90565b90611c4d611c48611c5492611c19565b611c35565b8254611001565b9055565b90611c7a90611c75611c7f94936004611c6f6124f7565b01611943565b611967565b611c38565b565b90611c8c9291611c0c565b565b90611c999291611c9b565b565b90611cbd90611cb8611cc294936006611cb26124f7565b01611851565b611885565b611037565b565b90611ccf9291611c8e565b565b600090565b611ce890611ce2611cd1565b506128f1565b90565b90611cf591611cf7565b565b611d0f611d1492916003611d096124f7565b01610f7e565b611037565b565b90611d2091611ceb565b565b611d36611d31611d3b92610ecd565b610deb565b610198565b90565b611d4790611d22565b90565b90611d5490611057565b600052602052604060002090565b90565b90611d6f90610f62565b600052602052604060002090565b6001611d8991016101d3565b90565b611da0611d9b611da5926101d3565b610deb565b610269565b90565b611db190610dee565b90565b611dbd90611da8565b90565b611dc990610e0a565b90565b611dd590610269565b9052565b9190611ded90600060208501940190611dcc565b565b90611df8611cd1565b50611e01612950565b611e3f611e3a611e116000610ed0565b946002611e33611e2e60058701611e286000611d3e565b90611d4a565b611d62565b9401611d65565b61161e565b90611e4a6000610ed0565b935b84611e67611e61611e5c8561295e565b6101d3565b916101d3565b1015611f1e57611ebd6020611e85611e80858990612992565b611d8c565b611e96611e9187611db4565b611dc0565b611eb2639a2f44ca611ea6610183565b95869485938493610e57565b835260048301611dd9565b03915afa8015611f1957611ee392611edd92600092611ee9575b50610fd6565b94611d7d565b93611e4c565b611f0b91925060203d8111611f12575b611f038183610cad565b810190610e6c565b9038611ed7565b503d611ef9565b610ebc565b929350505090565b90611f319291611f33565b565b9091611f5f92611f56611f516003611f49612950565b018590611d65565b61161e565b92909192612a0b565b565b90611f6c9291611f26565b565b919060a083820312611fc057611f8781600085016101eb565b92611f9582602083016101eb565b92611fbd611fa684604085016101eb565b93611fb481606086016101eb565b936080016101eb565b90565b61018e565b600b1115611fcf57565b61176f565b90611fde82611fc5565b565b611fe990611fd4565b90565b906120ff6120676120ee6120946120c16120316121149861210f9761201030610e46565b61202261201c336101a3565b916101a3565b03612116575b90810190611f6e565b959297909397919395976120626120528d600161204c6124f7565b01611851565b61205c6001611fe0565b90611885565b611037565b61208f61207f60016120776124f7565b018c90611851565b6120896002611fe0565b90611885565b611037565b6120bc6120ac60016120a46124f7565b018a90611851565b6120b66004611fe0565b90611885565b611037565b6120e96120d960016120d16124f7565b018890611851565b6120e36006611fe0565b90611885565b611037565b9260016120f96124f7565b01611851565b6121096009611fe0565b90611885565b611037565b565b6121233360003691612c5b565b612028565b63ffffffff1690565b61213a81612128565b0361214157565b600080fd5b9050359061215382612131565b565b60018060481b031690565b61216981612155565b0361217057565b600080fd5b9050359061218282612160565b565b9190610120838203126122425761223a906121a0610120610cd4565b936121ae82600083016101eb565b60008601526121c082602083016101eb565b60208601526121d282604083016104bd565b60408601526121e482606083016104bd565b60608601526121f682608083016101eb565b60808601526122088260a083016104e6565b60a086015261221a8260c08301612146565b60c086015261222c8260e08301610285565b60e086015261010001612175565b610100830152565b611290565b612252903690612184565b90565b9061227d6122776122839361226861176a565b5061227161128b565b50611581565b91612247565b90612dcf565b9061228d82612e57565b90565b9061229c93929161229e565b565b91906122e36122ed946122d26122e8946122cd6122c660086122be6124f7565b018990611943565b8690611967565b611c38565b9360076122dd6124f7565b01611943565b611967565b611c38565b565b906122fb939291612290565b565b90612308929161230a565b565b9061232c90612327612331949360016123216124f7565b01611851565b611885565b611037565b565b9061233e92916122fd565b565b61234f612355919392936101d3565b926101d3565b820391821161236057565b610fc0565b6007111561236f57565b61176f565b9061237e82612365565b565b61238990612374565b90565b5190565b60209181520190565b60005b8381106123ad575050906000910152565b80602091830151818501520161239c565b6123dd6123e66020936123eb936123d48161238c565b93848093612390565b95869101612399565b610c8d565b0190565b91612413926124066040820193600083019061094f565b60208184039101526123be565b90565b61244783612441612432600161242a612ee3565b018590610f7e565b9161243c83610fb3565b612340565b90611037565b61247883612472612463600061245b612ee3565b018590610f7e565b9161246d83610fb3565b610fd6565b90611037565b60019192936124b96124b36124ad7fa5a40b103c251a8a92f4f0417a34aa5561df1cb24587a7366483504d6707648b94610f62565b94612380565b94611057565b946124ce6124c5610183565b928392836123ef565b0390a4565b7f8044e54adfaacc587fefea0831a427898a157664a4fc313bb47c3132ec6276ed90565b6124ff6124d3565b90565b61251891602082019160008184039101526106ee565b90565b612538612533600061252b612ee3565b018390610f7e565b610fb3565b8361254b612545836101d3565b916101d3565b11612638575b506125838361257d61256e6000612566612ee3565b018590610f7e565b9161257883610fb3565b612340565b90611037565b6125b4836125ae61259f6001612597612ee3565b018590610f7e565b916125a983610fb3565b610fd6565b90611037565b6125d36125e260009394956125c7610183565b92839160208301612502565b60208201810382520382610cad565b61261e6126186126127fa5a40b103c251a8a92f4f0417a34aa5561df1cb24587a7366483504d6707648b94610f62565b94612380565b94611057565b9461263361262a610183565b928392836123ef565b0390a4565b9092509138612551565b600090565b61265190516104cc565b90565b61265e9051610269565b90565b61266b90516101d3565b90565b61268261267d612687926101d3565b610deb565b61044d565b90565b6126fe6127039161269961128b565b506126a2612642565b506126af60c08201612647565b600014612706576126f86126f360806126ec6126cb60006117a0565b5b6126d7838701612654565b906126e56101208801612661565b9091612eee565b9301612654565b6128f1565b90610fd6565b61266e565b90565b6126f86126f360806126ec61271b60016117a0565b6126cc565b5050505061272c61128b565b90565b7fc8fcad8db84d3cc18b4c41d551ea0ee66dd599cde068d998e57d5e09332c131c90565b61275b61272f565b90565b90565b61277561277061277a9261275e565b610deb565b6101d3565b90565b612788612710612761565b90565b90565b6127a261279d6127a79261278b565b610deb565b6101d3565b90565b90565b6127c16127bc6127c6926127aa565b610deb565b6101d3565b90565b90565b6127e06127db6127e5926127c9565b610deb565b6101d3565b90565b6128ef906128ea6128da6127fa6124f7565b9261282c61280661277d565b612827612817600188018590611851565b6128216001611fe0565b90611885565b611037565b61285d61283761277d565b612858612848600188018590611851565b6128526002611fe0565b90611885565b611037565b61289161286b6104e261278e565b61288c61287c600188018590611851565b6128866004611fe0565b90611885565b611037565b6128c561289f610e106127ad565b6128c06128b0600188018590611851565b6128ba6006611fe0565b90611885565b611037565b60016128d3620f42406127cc565b9401611851565b6128e46009611fe0565b90611885565b611037565b565b61292461291461292992612903611cd1565b50600661290e6124f7565b01611851565b61291e60036117a0565b90611885565b610fb3565b90565b7f2eec39e2b6bcfb5f1ee2be0b6e9d5a470a45585b1e2f7f291af9fb9f551763d090565b61295861292c565b90565b90565b612976600061297b9261296f611cd1565b500161295b565b612f5d565b90565b61298a61298f91610f96565b611018565b90565b6129b8916129ae60006129b3936129a7611cd1565b500161295b565b612fdb565b61297e565b90565b60018060401b0381116129d7576129d3602091610c8d565b0190565b610c97565b906129ee6129e9836129bb565b610cd4565b918252565b6129fd60006129dc565b90565b612a086129f3565b90565b612a4b612a5391949394612a4685612a40612a316000612a29612ee3565b018890610f7e565b91612a3b83610fb3565b612340565b90611037565b610e2e565b84849161303d565b916006909192612a61612a00565b612a9d612a97612a917fa5a40b103c251a8a92f4f0417a34aa5561df1cb24587a7366483504d6707648b94610f62565b94612380565b94611057565b94612ab2612aa9610183565b928392836123ef565b0390a4565b612ac090610e0a565b90565b90565b612ada612ad5612adf92612ac3565b610deb565b6101d3565b90565b600080fd5b600080fd5b90939293848311612b0c578411612b07576001820201920390565b612ae7565b612ae2565b5090565b63ffffffff60e01b1690565b1b90565b90612b33612b3a9183612b11565b9135612b15565b9060048110612b48575b5090565b612b609063ffffffff60e01b90600403600802612b21565b1638612b44565b612b7b612b76612b8092610ecd565b610deb565b612128565b90565b9190612b9790600060208501940190610e8b565b565b60a01b90565b90612bae60ff60a01b91612b99565b9181191691161790565b90565b90612bd0612bcb612bd79261195b565b612bb8565b8254612b9f565b9055565b612be490610dee565b90565b612bf090612bdb565b90565b612bfc90610e0a565b90565b6000910312612c0a57565b61018e565b9190612c2981612c2281612c2e95612390565b8095610f12565b610c8d565b0190565b91612c58939192612c4b60408201946000830190610e8b565b6020818503910152612c0f565b90565b612c636130d6565b91612cb6612cae612c726130e6565b84612c7c30612ab7565b90612ca8612ca2878b600090612c9c612c96600493610ed0565b92612ac6565b92612aec565b90612b25565b9261323f565b9190156104cc565b612cc2575b5050505050565b612cd5612ccf6000612b67565b91612128565b11600014612d9d57612ceb600160008501612bbb565b612d03612cfe612cf96130e6565b612be7565b612bf3565b6394c7d7ee92919492813b15612d98576000612d3291612d3d8296612d26610183565b998a9788968795610e57565b855260048501612c32565b03925af1918215612d9357612d5c92612d66575b506000809101612bbb565b3880808080612cbb565b612d869060003d8111612d8c575b612d7e8183610cad565b810190612bff565b38612d51565b503d612d74565b610ebc565b610e52565b612dbe82612da9610183565b91829162d1953b60e31b835260048301612b83565b0390fd5b612dcc905161044d565b90565b612e18612e1e92612dde61176a565b50612deb60808401612654565b90612e056040612dfe6101208701612661565b9201612dc2565b90612e1260a08601612647565b92612720565b906133ae565b90565b612e30612e369193929361044d565b9261044d565b80830192600082851215818312169285129112151617612e5257565b610fc0565b90612e6061128b565b91612e6b6000610ed0565b925b83612e88612e82612e7d856106b7565b6101d3565b916101d3565b1015612eba57612eae612eb491612ea8612ea38588906119a3565b612dc2565b90612e21565b93611d7d565b92612e6d565b925050565b7f4487c6deafb3b968c18f689f85fbb6df4ca91ac06c46b27d8f8dd3839c79c8c990565b612eeb612ebf565b90565b612ef6611cd1565b5081612f0b612f056000610ed0565b916101d3565b14612f4957612f3b612f36612f4694612f31612f40946006612f2b6124f7565b01611851565b611885565b610fb3565b61365e565b90613695565b90565b505050612f566000610ed0565b90565b5490565b6000612f7291612f6b611cd1565b5001612f59565b90565b600090565b600052602060002090565b612f8e81612f59565b821015612fa957612fa0600191612f7a565b91020190600090565b61189d565b1c90565b90565b612fc5906008612fca9302612fae565b612fb2565b90565b90612fd89154612fb5565b90565b612ffa916000612ff492612fed612f75565b5001612f85565b90612fcd565b90565b61301161300c61301692612128565b610e57565b612b15565b90565b91602061303b92949361303460408201966000830190610e8b565b019061094f565b565b90613084613089936130756004949361305c63a9059cbb919391612ffd565b92613065610183565b9687946020860190815201613019565b60208201810382520383610cad565b6136c5565b565b90565b6130a261309d6130a79261308b565b610ffb565b611300565b90565b6130d37ff3177357ab46d8af007ab3fdb9af81da189e1068fefdc0073dca88a2cab40a0061308e565b90565b6130de6130aa565b90565b600090565b6130ee6130e1565b5061310260006130fc6130d6565b0161161e565b90565b600090565b600090565b61311890612b15565b9052565b60409061314661314d949695939661313c60608401986000850190610e8b565b6020830190610e8b565b019061310f565b565b9061316161315c83610ef1565b610cd4565b918252565b606090565b3d6000146131885761317c3d61314f565b903d6000602084013e5b565b613190613166565b90613186565b90565b6131ad6131a86131b292613196565b610deb565b6101d3565b90565b90565b6131cc6131c76131d1926131b5565b610deb565b6101d3565b90565b905051906131e1826104d1565b565b906020828203126131fd576131fa916000016131d4565b90565b61018e565b9050519061320f82612131565b565b919060408382031261323a578061322e61323792600086016131d4565b93602001613202565b90565b61018e565b93926000918291613291613251613105565b9561328261325d61310a565b99949193613269610183565b94859360046020860163b700961360e01b81520161311c565b60208201810382520382610cad565b602081019051915afa6132a261316b565b906132ad575b509190565b906132b78261238c565b6132ca6132c46040613199565b916101d3565b10156000146132f957506132f091925060206132e58261238c565b818301019101613211565b91905b386132a8565b906133038161238c565b61331661331060206131b8565b916101d3565b1015613323575b506132f3565b61333e915060206133338261238c565b8183010191016131e3565b3861331d565b6003111561334e57565b61176f565b9061335d82613344565b565b6133699051613353565b90565b6133769051610888565b90565b61338861338e919392936101d3565b926101d3565b9161339a8382026101d3565b9281840414901517156133a957565b610fc0565b6133b661176a565b506133f66133d46133cf6133ca600c6117a0565b6117ac565b61191c565b926133f1846133eb6133e660026117a0565b6117ac565b906119a3565b6119c3565b6134036101208201612661565b6134166134106000610ed0565b916101d3565b1480613636575b6136325761342d60c08201612647565b6000146135435761348c61346b61346661344960808501612654565b6134566101208601612661565b61346060006117a0565b91612eee565b61266e565b6134878461348161347c60006117a0565b6117ac565b906119a3565b6119c3565b5b61349a6102a0820161336c565b6134ad6134a76000611826565b91610888565b116134b7575b5090565b61351c61351761353d9261351161350c6102a06135056135006134f060066134dd6124f7565b016134ea60808901612654565b90611851565b6134fa60036117a0565b90611885565b610fb3565b930161336c565b6117ac565b90613379565b61266e565b6135388361353261352d60036117a0565b6117ac565b906119a3565b6119c3565b386134b3565b61359b61357a61357561355860808501612654565b6135656101208601612661565b61356f60016117a0565b91612eee565b61266e565b6135968461359061358b60016117a0565b6117ac565b906119a3565b6119c3565b6135a8610240820161335f565b6135bb6135b56001613353565b91613353565b146135c6575b61348d565b61362d61360c6136076136026135f260066135df6124f7565b016135ec60808801612654565b90611851565b6135fc60046117a0565b90611885565b610fb3565b61266e565b6136288461362261361d60046117a0565b6117ac565b906119a3565b6119c3565b6135c1565b5090565b506136446101608201612661565b6136576136516000610ed0565b916101d3565b141561341d565b613666611cd1565b508061367b6136756000610ed0565b916101d3565b14600014613690575061368c61277d565b5b90565b61368d565b61369d611cd1565b50816113886000190304811115821517156136c057612710916113889102010490565b600080fd5b906136d8906136d383610e3a565b61375e565b6136e18161238c565b6136f46136ee6000610ed0565b916101d3565b14159081613733575b506137055750565b61371161372f91610e3a565b613719610183565b918291635274afe760e01b835260048301612b83565b0390fd5b61375891506137529060206137478261238c565b8183010191016131e3565b156104cc565b386136fd565b9061377d9161376b613166565b50906137776000610ed0565b9161378c565b90565b61378990610e0a565b90565b9091613796613166565b506137a030613780565b316137b36137ad836101d3565b916101d3565b106137e057600080916137dd948491602082019151925af1906137d461316b565b9091909161380e565b90565b61380a6137ec30613780565b6137f4610183565b91829163cd78605960e01b835260048301612b83565b0390fd5b906138229061381b613166565b50156104cc565b60001461382f575061389c565b6138388261238c565b61384b6138456000610ed0565b916101d3565b1480613880575b61385a575090565b61387c90613866610183565b918291639996b31560e01b835260048301612b83565b0390fd5b50803b6138966138906000610ed0565b916101d3565b14613852565b6138a58161238c565b6138b86138b26000610ed0565b916101d3565b116000146138c857805190602001fd5b6138d0610183565b630a12f52160e11b8152806138e760048201610235565b0390fdfea264697066735822122048470b169a193b5e40f927d11dc6c64eade67bcacfc8ebae4d6bec20a45cdff164736f6c63430008180033",
  "devdoc": {
    "errors": {
      "AddressEmptyCode(address)": [
        {
          "details": "There's no code at `target` (it is not a contract)."
        }
      ],
      "AddressInsufficientBalance(address)": [
        {
          "details": "The ETH balance of the account is not enough to perform the operation."
        }
      ],
      "FailedInnerCall()": [
        {
          "details": "A call to an address target failed. The target may have reverted."
        }
      ],
      "SafeERC20FailedOperation(address)": [
        {
          "details": "An operation with an ERC20 token failed."
        }
      ]
    },
    "kind": "dev",
    "methods": {},
    "version": 1
  },
  "userdoc": {
    "kind": "user",
    "methods": {},
    "version": 1
  },
  "storageLayout": {
    "storage": [],
    "types": null
  }
}