{
  "address": "0x15FFCf112d28802faBc32A81CeE67Be7CBcDc084",
  "abi": [
    {
      "inputs": [
        {
          "internalType": "address",
          "name": "authority",
          "type": "address"
        }
      ],
      "name": "AccessManagedInvalidAuthority",
      "type": "error"
    },
    {
      "inputs": [
        {
          "internalType": "address",
          "name": "caller",
          "type": "address"
        },
        {
          "internalType": "uint32",
          "name": "delay",
          "type": "uint32"
        }
      ],
      "name": "AccessManagedRequiredDelay",
      "type": "error"
    },
    {
      "inputs": [
        {
          "internalType": "address",
          "name": "caller",
          "type": "address"
        }
      ],
      "name": "AccessManagedUnauthorized",
      "type": "error"
    },
    {
      "inputs": [
        {
          "internalType": "address",
          "name": "target",
          "type": "address"
        }
      ],
      "name": "AddressEmptyCode",
      "type": "error"
    },
    {
      "inputs": [
        {
          "internalType": "address",
          "name": "account",
          "type": "address"
        }
      ],
      "name": "AddressInsufficientBalance",
      "type": "error"
    },
    {
      "inputs": [],
      "name": "FailedInnerCall",
      "type": "error"
    },
    {
      "inputs": [
        {
          "internalType": "address",
          "name": "token",
          "type": "address"
        }
      ],
      "name": "SafeERC20FailedOperation",
      "type": "error"
    },
    {
      "anonymous": false,
      "inputs": [
        {
          "indexed": true,
          "internalType": "uint16",
          "name": "market",
          "type": "uint16"
        },
        {
          "indexed": true,
          "internalType": "enum BalanceHandler.Type",
          "name": "transferType",
          "type": "uint8"
        },
        {
          "indexed": true,
          "internalType": "address",
          "name": "account",
          "type": "address"
        },
        {
          "indexed": false,
          "internalType": "uint256",
          "name": "value",
          "type": "uint256"
        },
        {
          "indexed": false,
          "internalType": "bytes",
          "name": "extra",
          "type": "bytes"
        }
      ],
      "name": "Transfer",
      "type": "event"
    },
    {
      "anonymous": false,
      "inputs": [
        {
          "indexed": true,
          "internalType": "address",
          "name": "account",
          "type": "address"
        },
        {
          "indexed": true,
          "internalType": "uint16",
          "name": "market",
          "type": "uint16"
        },
        {
          "indexed": false,
          "internalType": "int256[]",
          "name": "fees",
          "type": "int256[]"
        },
        {
          "indexed": false,
          "internalType": "uint256",
          "name": "amount",
          "type": "uint256"
        }
      ],
      "name": "UpdateFee",
      "type": "event"
    },
    {
      "inputs": [
        {
          "internalType": "uint16",
          "name": "market",
          "type": "uint16"
        },
        {
          "internalType": "bytes",
          "name": "fee",
          "type": "bytes"
        }
      ],
      "name": "_addFee",
      "outputs": [],
      "stateMutability": "nonpayable",
      "type": "function"
    },
    {
      "inputs": [
        {
          "internalType": "bytes",
          "name": "_data",
          "type": "bytes"
        }
      ],
      "name": "_collectFees",
      "outputs": [],
      "stateMutability": "nonpayable",
      "type": "function"
    },
    {
      "inputs": [
        {
          "internalType": "uint16",
          "name": "market",
          "type": "uint16"
        },
        {
          "internalType": "uint256",
          "name": "longSize",
          "type": "uint256"
        },
        {
          "internalType": "uint256",
          "name": "shortSize",
          "type": "uint256"
        }
      ],
      "name": "_updateCumulativeFundingRate",
      "outputs": [],
      "stateMutability": "nonpayable",
      "type": "function"
    },
    {
      "inputs": [
        {
          "internalType": "uint16",
          "name": "market",
          "type": "uint16"
        },
        {
          "internalType": "uint256",
          "name": "start",
          "type": "uint256"
        },
        {
          "internalType": "uint256",
          "name": "end",
          "type": "uint256"
        }
      ],
      "name": "addSkipTime",
      "outputs": [],
      "stateMutability": "nonpayable",
      "type": "function"
    },
    {
      "inputs": [
        {
          "internalType": "uint16",
          "name": "market",
          "type": "uint16"
        },
        {
          "internalType": "bool",
          "name": "isLong",
          "type": "bool"
        }
      ],
      "name": "cumulativeFundingRates",
      "outputs": [
        {
          "internalType": "int256",
          "name": "",
          "type": "int256"
        }
      ],
      "stateMutability": "view",
      "type": "function"
    },
    {
      "inputs": [
        {
          "internalType": "uint16",
          "name": "market",
          "type": "uint16"
        },
        {
          "internalType": "address",
          "name": "to",
          "type": "address"
        },
        {
          "internalType": "uint256",
          "name": "amount",
          "type": "uint256"
        }
      ],
      "name": "feeWithdraw",
      "outputs": [],
      "stateMutability": "nonpayable",
      "type": "function"
    },
    {
      "inputs": [
        {
          "internalType": "uint16",
          "name": "market",
          "type": "uint16"
        }
      ],
      "name": "getExecFee",
      "outputs": [
        {
          "internalType": "uint256",
          "name": "",
          "type": "uint256"
        }
      ],
      "stateMutability": "view",
      "type": "function"
    },
    {
      "inputs": [
        {
          "internalType": "uint16",
          "name": "market",
          "type": "uint16"
        }
      ],
      "name": "getFeeAndRatesOfMarket",
      "outputs": [
        {
          "internalType": "uint256[]",
          "name": "fees",
          "type": "uint256[]"
        },
        {
          "internalType": "int256[]",
          "name": "fundingRates",
          "type": "int256[]"
        },
        {
          "internalType": "int256[]",
          "name": "_cumulativeFundingRates",
          "type": "int256[]"
        }
      ],
      "stateMutability": "view",
      "type": "function"
    },
    {
      "inputs": [
        {
          "components": [
            {
              "internalType": "enum MarketBusinessType",
              "name": "busiType",
              "type": "uint8"
            },
            {
              "internalType": "uint256",
              "name": "oraclePrice",
              "type": "uint256"
            },
            {
              "internalType": "uint256",
              "name": "pay",
              "type": "uint256"
            },
            {
              "internalType": "uint256",
              "name": "slippage",
              "type": "uint256"
            },
            {
              "internalType": "uint16",
              "name": "market",
              "type": "uint16"
            },
            {
              "internalType": "bool",
              "name": "isLong",
              "type": "bool"
            },
            {
              "internalType": "bool",
              "name": "isOpen",
              "type": "bool"
            },
            {
              "internalType": "bool",
              "name": "isCreate",
              "type": "bool"
            },
            {
              "internalType": "bool",
              "name": "isFromMarket",
              "type": "bool"
            },
            {
              "internalType": "uint256",
              "name": "sizeDelta",
              "type": "uint256"
            },
            {
              "internalType": "uint256",
              "name": "price",
              "type": "uint256"
            },
            {
              "internalType": "uint256",
              "name": "collateralDelta",
              "type": "uint256"
            },
            {
              "internalType": "uint256",
              "name": "collateral",
              "type": "uint256"
            },
            {
              "internalType": "uint256",
              "name": "tp",
              "type": "uint256"
            },
            {
              "internalType": "uint256",
              "name": "sl",
              "type": "uint256"
            },
            {
              "internalType": "uint64",
              "name": "orderId",
              "type": "uint64"
            },
            {
              "internalType": "address",
              "name": "account",
              "type": "address"
            },
            {
              "internalType": "bool",
              "name": "isExec",
              "type": "bool"
            },
            {
              "internalType": "enum LiquidationState",
              "name": "liqState",
              "type": "uint8"
            },
            {
              "internalType": "uint64",
              "name": "fromOrder",
              "type": "uint64"
            },
            {
              "internalType": "bytes32",
              "name": "refCode",
              "type": "bytes32"
            },
            {
              "internalType": "uint8",
              "name": "execNum",
              "type": "uint8"
            },
            {
              "internalType": "bool",
              "name": "isKeepLev",
              "type": "bool"
            },
            {
              "internalType": "bool",
              "name": "isKeepLevTP",
              "type": "bool"
            },
            {
              "internalType": "bool",
              "name": "isKeepLevSL",
              "type": "bool"
            },
            {
              "internalType": "bool",
              "name": "triggerAbove",
              "type": "bool"
            },
            {
              "internalType": "uint128",
              "name": "gas",
              "type": "uint128"
            }
          ],
          "internalType": "struct MarketCache",
          "name": "params",
          "type": "tuple"
        },
        {
          "components": [
            {
              "internalType": "uint256",
              "name": "size",
              "type": "uint256"
            },
            {
              "internalType": "uint256",
              "name": "collateral",
              "type": "uint256"
            },
            {
              "internalType": "int256",
              "name": "entryFundingRate",
              "type": "int256"
            },
            {
              "internalType": "int256",
              "name": "realisedPnl",
              "type": "int256"
            },
            {
              "internalType": "uint256",
              "name": "averagePrice",
              "type": "uint256"
            },
            {
              "internalType": "bool",
              "name": "isLong",
              "type": "bool"
            },
            {
              "internalType": "uint32",
              "name": "lastTime",
              "type": "uint32"
            },
            {
              "internalType": "uint16",
              "name": "market",
              "type": "uint16"
            },
            {
              "internalType": "uint72",
              "name": "extra0",
              "type": "uint72"
            }
          ],
          "internalType": "struct PositionProps",
          "name": "position",
          "type": "tuple"
        }
      ],
      "name": "getFeesReceivable",
      "outputs": [
        {
          "internalType": "int256[]",
          "name": "fees",
          "type": "int256[]"
        },
        {
          "internalType": "int256",
          "name": "totalFee",
          "type": "int256"
        }
      ],
      "stateMutability": "view",
      "type": "function"
    },
    {
      "inputs": [
        {
          "internalType": "uint16",
          "name": "market",
          "type": "uint16"
        },
        {
          "internalType": "uint256",
          "name": "size",
          "type": "uint256"
        },
        {
          "internalType": "int256",
          "name": "entryFundingRate",
          "type": "int256"
        },
        {
          "internalType": "bool",
          "name": "isLong",
          "type": "bool"
        }
      ],
      "name": "getFundingFee",
      "outputs": [
        {
          "internalType": "int256",
          "name": "",
          "type": "int256"
        }
      ],
      "stateMutability": "view",
      "type": "function"
    },
    {
      "inputs": [
        {
          "internalType": "uint16",
          "name": "market",
          "type": "uint16"
        }
      ],
      "name": "getGlobalOpenInterest",
      "outputs": [
        {
          "internalType": "uint256",
          "name": "_globalSize",
          "type": "uint256"
        }
      ],
      "stateMutability": "view",
      "type": "function"
    },
    {
      "inputs": [
        {
          "internalType": "address",
          "name": "market",
          "type": "address"
        },
        {
          "internalType": "uint256",
          "name": "longSize",
          "type": "uint256"
        },
        {
          "internalType": "uint256",
          "name": "shortSize",
          "type": "uint256"
        }
      ],
      "name": "getNextFundingRate",
      "outputs": [],
      "stateMutability": "nonpayable",
      "type": "function"
    },
    {
      "inputs": [
        {
          "components": [
            {
              "internalType": "enum MarketBusinessType",
              "name": "busiType",
              "type": "uint8"
            },
            {
              "internalType": "uint256",
              "name": "oraclePrice",
              "type": "uint256"
            },
            {
              "internalType": "uint256",
              "name": "pay",
              "type": "uint256"
            },
            {
              "internalType": "uint256",
              "name": "slippage",
              "type": "uint256"
            },
            {
              "internalType": "uint16",
              "name": "market",
              "type": "uint16"
            },
            {
              "internalType": "bool",
              "name": "isLong",
              "type": "bool"
            },
            {
              "internalType": "bool",
              "name": "isOpen",
              "type": "bool"
            },
            {
              "internalType": "bool",
              "name": "isCreate",
              "type": "bool"
            },
            {
              "internalType": "bool",
              "name": "isFromMarket",
              "type": "bool"
            },
            {
              "internalType": "uint256",
              "name": "sizeDelta",
              "type": "uint256"
            },
            {
              "internalType": "uint256",
              "name": "price",
              "type": "uint256"
            },
            {
              "internalType": "uint256",
              "name": "collateralDelta",
              "type": "uint256"
            },
            {
              "internalType": "uint256",
              "name": "collateral",
              "type": "uint256"
            },
            {
              "internalType": "uint256",
              "name": "tp",
              "type": "uint256"
            },
            {
              "internalType": "uint256",
              "name": "sl",
              "type": "uint256"
            },
            {
              "internalType": "uint64",
              "name": "orderId",
              "type": "uint64"
            },
            {
              "internalType": "address",
              "name": "account",
              "type": "address"
            },
            {
              "internalType": "bool",
              "name": "isExec",
              "type": "bool"
            },
            {
              "internalType": "enum LiquidationState",
              "name": "liqState",
              "type": "uint8"
            },
            {
              "internalType": "uint64",
              "name": "fromOrder",
              "type": "uint64"
            },
            {
              "internalType": "bytes32",
              "name": "refCode",
              "type": "bytes32"
            },
            {
              "internalType": "uint8",
              "name": "execNum",
              "type": "uint8"
            },
            {
              "internalType": "bool",
              "name": "isKeepLev",
              "type": "bool"
            },
            {
              "internalType": "bool",
              "name": "isKeepLevTP",
              "type": "bool"
            },
            {
              "internalType": "bool",
              "name": "isKeepLevSL",
              "type": "bool"
            },
            {
              "internalType": "bool",
              "name": "triggerAbove",
              "type": "bool"
            },
            {
              "internalType": "uint128",
              "name": "gas",
              "type": "uint128"
            }
          ],
          "internalType": "struct MarketCache",
          "name": "data",
          "type": "tuple"
        }
      ],
      "name": "getOrderFees",
      "outputs": [
        {
          "internalType": "int256",
          "name": "fees",
          "type": "int256"
        }
      ],
      "stateMutability": "view",
      "type": "function"
    },
    {
      "inputs": [
        {
          "internalType": "uint16",
          "name": "market",
          "type": "uint16"
        }
      ],
      "name": "initFeeFacet",
      "outputs": [],
      "stateMutability": "nonpayable",
      "type": "function"
    },
    {
      "inputs": [
        {
          "internalType": "uint16",
          "name": "market",
          "type": "uint16"
        },
        {
          "internalType": "bool",
          "name": "isLong",
          "type": "bool"
        },
        {
          "internalType": "int256",
          "name": "calFundingRate",
          "type": "int256"
        }
      ],
      "name": "setCalFundingRates",
      "outputs": [],
      "stateMutability": "nonpayable",
      "type": "function"
    },
    {
      "inputs": [
        {
          "internalType": "uint16",
          "name": "market",
          "type": "uint16"
        },
        {
          "internalType": "uint256",
          "name": "interval",
          "type": "uint256"
        }
      ],
      "name": "setCalIntervals",
      "outputs": [],
      "stateMutability": "nonpayable",
      "type": "function"
    },
    {
      "inputs": [
        {
          "internalType": "uint16",
          "name": "market",
          "type": "uint16"
        },
        {
          "internalType": "uint8",
          "name": "feeType",
          "type": "uint8"
        },
        {
          "internalType": "uint256",
          "name": "feeAndRate",
          "type": "uint256"
        }
      ],
      "name": "setFeeAndRates",
      "outputs": [],
      "stateMutability": "nonpayable",
      "type": "function"
    },
    {
      "inputs": [
        {
          "internalType": "uint16",
          "name": "market",
          "type": "uint16"
        },
        {
          "internalType": "uint8",
          "name": "configType",
          "type": "uint8"
        },
        {
          "internalType": "uint256",
          "name": "value",
          "type": "uint256"
        }
      ],
      "name": "setFeeConfigs",
      "outputs": [],
      "stateMutability": "nonpayable",
      "type": "function"
    },
    {
      "inputs": [
        {
          "internalType": "uint16",
          "name": "market",
          "type": "uint16"
        },
        {
          "internalType": "uint256",
          "name": "loss",
          "type": "uint256"
        }
      ],
      "name": "setFundFeeLoss",
      "outputs": [],
      "stateMutability": "nonpayable",
      "type": "function"
    },
    {
      "inputs": [
        {
          "internalType": "uint16",
          "name": "market",
          "type": "uint16"
        },
        {
          "internalType": "uint256",
          "name": "interval",
          "type": "uint256"
        }
      ],
      "name": "setFundingIntervals",
      "outputs": [],
      "stateMutability": "nonpayable",
      "type": "function"
    },
    {
      "inputs": [
        {
          "internalType": "uint16",
          "name": "market",
          "type": "uint16"
        },
        {
          "internalType": "bool",
          "name": "isLong",
          "type": "bool"
        },
        {
          "internalType": "int256",
          "name": "fundingRate",
          "type": "int256"
        },
        {
          "internalType": "int256",
          "name": "cumulativeFundingRate",
          "type": "int256"
        }
      ],
      "name": "setFundingRates",
      "outputs": [],
      "stateMutability": "nonpayable",
      "type": "function"
    },
    {
      "inputs": [
        {
          "internalType": "uint16",
          "name": "market",
          "type": "uint16"
        },
        {
          "internalType": "uint256",
          "name": "lastCalTime",
          "type": "uint256"
        }
      ],
      "name": "setLastCalTimes",
      "outputs": [],
      "stateMutability": "nonpayable",
      "type": "function"
    }
  ],
  "transactionHash": "0x19b1f7b93b6bd77e9b0ee772315f0db61ae4c6d4da26266ac1ffcc8d852a0e6d",
  "args": [],
  "numDeployments": 6,
  "solcInputHash": "d809974f1acba5ed94eb449ed42024a5",
  "bytecode": "0x60806040523461002057610011610025565b61335162000031823961335190f35b61002b565b60405190565b600080fdfe60806040526004361015610013575b610c4c565b61001e60003561017d565b8063054aaca1146101785780632dacede914610173578063320de8e91461016e578063393e02e11461016957806348412d6214610164578063524430fe1461015f5780635ae70a2b1461015a5780635b97106414610155578063630dc5a01461015057806370802dac1461014b57806373ad39b31461014657806393b3b36314610141578063a9bd63d51461013c578063ac0b036414610137578063b5cc1d2014610132578063bf0d39b81461012d578063d4f8ba0114610128578063d7a799ce14610123578063df5c09191461011e578063f130c44514610119578063f2da13e2146101145763fa6d03c70361000e57610c18565b610be1565b610b63565b610ac4565b610a5b565b6109eb565b6109b7565b610982565b610931565b610903565b610894565b6107fb565b61078a565b610724565b6105a2565b61056f565b61051c565b610457565b61041e565b610355565b6102c2565b61023b565b60e01c90565b60405190565b600080fd5b600080fd5b600080fd5b60018060a01b031690565b6101ac90610198565b90565b6101b8816101a3565b036101bf57565b600080fd5b905035906101d1826101af565b565b90565b6101df816101d3565b036101e657565b600080fd5b905035906101f8826101d6565b565b90916060828403126102305761022d61021684600085016101c4565b9361022481602086016101eb565b936040016101eb565b90565b61018e565b60000190565b346102645761024b3660046101fa565b505050610256610183565b8061026081610235565b0390f35b610189565b61ffff1690565b61027981610269565b0361028057565b600080fd5b9050359061029282610270565b565b91906040838203126102bd57806102b16102ba9260008601610285565b936020016101eb565b90565b61018e565b346102f1576102db6102d5366004610294565b90610d0f565b6102e3610183565b806102ed81610235565b0390f35b610189565b600080fd5b908161036091031261030a5790565b6102f6565b906103608282031261032a57610327916000016102fb565b90565b61018e565b90565b61033b9061032f565b9052565b919061035390600060208501940190610332565b565b346103855761038161037061036b36600461030f565b610d20565b610378610183565b9182918261033f565b0390f35b610189565b6103938161032f565b0361039a57565b600080fd5b905035906103ac8261038a565b565b151590565b6103bc816103ae565b036103c357565b600080fd5b905035906103d5826103b3565b565b608081830312610419576103ee8260008301610285565b926104166103ff84602085016101eb565b9361040d816040860161039f565b936060016103c8565b90565b61018e565b346104525761044e61043d6104343660046103d7565b92919091610d35565b610445610183565b9182918261033f565b0390f35b610189565b346104865761047061046a366004610294565b90610d7c565b610478610183565b8061048281610235565b0390f35b610189565b600080fd5b600080fd5b600080fd5b909182601f830112156104d25781359160018060401b0383116104cd5760200192600183028401116104c857565b610495565b610490565b61048b565b919091604081840312610517576104f18360008301610285565b92602082013560018060401b0381116105125761050e920161049a565b9091565b610193565b61018e565b3461054b5761053561052f3660046104d7565b91610e9c565b61053d610183565b8061054781610235565b0390f35b610189565b9060208282031261056a5761056791600001610285565b90565b61018e565b3461059d57610587610582366004610550565b610fee565b61058f610183565b8061059981610235565b0390f35b610189565b346105d1576105bb6105b5366004610294565b90611024565b6105c3610183565b806105cd81610235565b0390f35b610189565b5190565b60209181520190565b60200190565b6105f2906101d3565b9052565b90610603816020936105e9565b0190565b60200190565b9061062a61062461061d846105d6565b80936105da565b926105e3565b9060005b81811061063b5750505090565b90919261065461064e60019286516105f6565b94610607565b910191909161062e565b5190565b60209181520190565b60200190565b61067a9061032f565b9052565b9061068b81602093610671565b0190565b60200190565b906106b26106ac6106a58461065e565b8093610662565b9261066b565b9060005b8181106106c35750505090565b9091926106dc6106d6600192865161067e565b9461068f565b91019190916106b6565b916107139061070561072195936060860190868203600088015261060d565b908482036020860152610695565b916040818403910152610695565b90565b346107575761075361073f61073a366004610550565b611319565b61074a939193610183565b938493846106e6565b0390f35b610189565b919060408382031261078557806107796107829260008601610285565b936020016103c8565b90565b61018e565b346107bb576107b76107a66107a036600461075c565b90611504565b6107ae610183565b9182918261033f565b0390f35b610189565b90916060828403126107f6576107f36107dc8460008501610285565b936107ea81602086016103c8565b9360400161039f565b90565b61018e565b3461082a5761081461080e3660046107c0565b916115aa565b61081c610183565b8061082681610235565b0390f35b610189565b60ff1690565b61083e8161082f565b0361084557565b600080fd5b9050359061085782610835565b565b909160608284031261088f5761088c6108758460008501610285565b93610883816020860161084a565b936040016101eb565b90565b61018e565b346108c3576108ad6108a7366004610859565b916115ed565b6108b5610183565b806108bf81610235565b0390f35b610189565b90916060828403126108fe576108fb6108e48460008501610285565b936108f281602086016101eb565b936040016101eb565b90565b61018e565b3461092c576109133660046108c8565b50505061091e610183565b8061092881610235565b0390f35b610189565b3461095a576109413660046108c8565b50505061094c610183565b8061095681610235565b0390f35b610189565b610968906101d3565b9052565b91906109809060006020850194019061095f565b565b346109b2576109ae61099d610998366004610550565b6115ff565b6109a5610183565b9182918261096c565b0390f35b610189565b346109e6576109d06109ca366004610294565b9061163f565b6109d8610183565b806109e281610235565b0390f35b610189565b34610a1b57610a17610a06610a01366004610550565b6117d5565b610a0e610183565b9182918261096c565b0390f35b610189565b9091606082840312610a5657610a53610a3c8460008501610285565b93610a4a81602086016101c4565b936040016101eb565b90565b61018e565b34610a8a57610a74610a6e366004610a20565b91611947565b610a7c610183565b80610a8681610235565b0390f35b610189565b90602082820312610abf57600082013560018060401b038111610aba57610ab6920161049a565b9091565b610193565b61018e565b34610af357610add610ad7366004610a8f565b90611d33565b610ae5610183565b80610aef81610235565b0390f35b610189565b9081610120910312610b075790565b6102f6565b919061048083820312610b375780610b2a610b3492600086016102fb565b9361036001610af8565b90565b61018e565b92916020610b59610b619360408701908782036000890152610695565b940190610332565b565b34610b9557610b7c610b76366004610b0c565b90611d3f565b90610b91610b88610183565b92839283610b3c565b0390f35b610189565b608081830312610bdc57610bb18260008301610285565b92610bd9610bc284602085016103c8565b93610bd0816040860161039f565b9360600161039f565b90565b61018e565b34610c1357610bfd610bf4366004610b9a565b92919091611dc7565b610c05610183565b80610c0f81610235565b0390f35b610189565b34610c4757610c31610c2b366004610859565b91611e0b565b610c39610183565b80610c4381610235565b0390f35b610189565b600080fd5b90610c5b91610cf0565b565b90565b610c74610c6f610c7992610269565b610c5d565b610269565b90565b90610c8690610c60565b600052602052604060002090565b60001b90565b90610ca760001991610c94565b9181191691161790565b610cc5610cc0610cca926101d3565b610c5d565b6101d3565b90565b90565b90610ce5610ce0610cec92610cb1565b610ccd565b8254610c9a565b9055565b610d08610d0d92916000610d02611e3c565b01610c7c565b610cd0565b565b90610d1991610c51565b565b600090565b610d3290610d2c610d1b565b50611e47565b90565b91610d4e939192610d44610d1b565b5092909192611e53565b90565b90610d5b91610d5d565b565b610d75610d7a92916005610d6f611e3c565b01610c7c565b610cd0565b565b90610d8691610d51565b565b610d9c610d97610da192610198565b610c5d565b610198565b90565b610dad90610d88565b90565b610db990610da4565b90565b919060a083820312610e0e57610dd581600085016101eb565b92610de382602083016101eb565b92610e0b610df484604085016101eb565b93610e0281606086016101eb565b936080016101eb565b90565b61018e565b90610e1d90610c60565b600052602052604060002090565b634e487b7160e01b600052602160045260246000fd5b600b1115610e4b57565b610e2b565b90610e5a82610e41565b565b610e6590610e50565b90565b610e7c610e77610e819261082f565b610c5d565b61082f565b90565b90610e8e90610e68565b600052602052604060002090565b90610faf610f17610f9e610f44610f71610ee1610fc498610fbf97610ec030610db0565b610ed2610ecc336101a3565b916101a3565b03610fc6575b90810190610dbc565b95929790939791939597610f12610f028d6001610efc611e3c565b01610e13565b610f0c6001610e5c565b90610e84565b610cd0565b610f3f610f2f6001610f27611e3c565b018c90610e13565b610f396002610e5c565b90610e84565b610cd0565b610f6c610f5c6001610f54611e3c565b018a90610e13565b610f666004610e5c565b90610e84565b610cd0565b610f99610f896001610f81611e3c565b018890610e13565b610f936006610e5c565b90610e84565b610cd0565b926001610fa9611e3c565b01610e13565b610fb96009610e5c565b90610e84565b610cd0565b565b610fd33360003691612018565b610ed8565b610fe190610fe3565b565b610fec9061220b565b565b610ff790610fd8565b565b9061100391611005565b565b61101d61102292916002611017611e3c565b01610c7c565b610cd0565b565b9061102e91610ff9565b565b606090565b606090565b600d111561104457565b610e2b565b906110538261103a565b565b61105e90611049565b90565b61107561107061107a9261082f565b610c5d565b6101d3565b90565b601f801991011690565b634e487b7160e01b600052604160045260246000fd5b906110a79061107d565b810190811060018060401b038211176110bf57604052565b611087565b906110d76110d0610183565b928361109d565b565b60018060401b0381116110ef5760208091020190565b611087565b90611106611101836110d9565b6110c4565b918252565b369037565b9061113561111d836110f4565b9260208061112b86936110d9565b920191039061110b565b565b90565b61114e61114961115392611137565b610c5d565b61082f565b90565b6001611162910161082f565b90565b60001c90565b90565b61117a61117f91611165565b61116b565b90565b61118c905461116e565b90565b634e487b7160e01b600052603260045260246000fd5b906111af826105d6565b8110156111c0576020809102010190565b61118f565b906111cf906101d3565b9052565b90565b6111ea6111e56111ef926111d3565b610c5d565b6101d3565b90565b60018060401b0381116112085760208091020190565b611087565b9061121f61121a836111f2565b6110c4565b918252565b369037565b9061124e6112368361120d565b9260208061124486936111f2565b9201910390611224565b565b9061125a90610c60565b600052602052604060002090565b611271906103ae565b90565b9061127e90611268565b600052602052604060002090565b90565b61129b6112a091611165565b61128c565b90565b6112ad905461128f565b90565b906112ba8261065e565b8110156112cb576020809102010190565b61118f565b6112e46112df6112e992611137565b610c5d565b6101d3565b90565b906112f69061032f565b9052565b90565b61131161130c611316926112fa565b610c5d565b6101d3565b90565b90611322611030565b5061132b611035565b50611334611035565b5061134f61134a611345600c611055565b611061565b611110565b9161135a600061113a565b5b8061137761137161136c600c611055565b61082f565b9161082f565b10156113cd576113c8906113c36113ab6113a661139f6006611397611e3c565b018790610e13565b8490610e84565b611182565b6113be876113b885611061565b906111a5565b6111c5565b611156565b61135b565b506113e06113db60026111d6565b611229565b9161142561140c6114076113ff60086113f7611e3c565b018690611250565b600190611274565b6112a3565b6114208561141a60006112d0565b906112b0565b6112ec565b61146961145061144b611443600861143b611e3c565b018690611250565b600090611274565b6112a3565b6114648561145e60016112fd565b906112b0565b6112ec565b6115026114e96114e46114dc61148761148260026111d6565b611229565b956114cc6114b36114ae6114a6600761149e611e3c565b018590611250565b600190611274565b6112a3565b6114c7896114c160006112d0565b906112b0565b6112ec565b60076114d6611e3c565b01611250565b600090611274565b6112a3565b6114fd846114f760016112fd565b906112b0565b6112ec565b565b6115329161152861152d92611517610d1b565b506007611522611e3c565b01611250565b611274565b6112a3565b90565b906115409291611581565b565b61155661155161155b9261032f565b610c5d565b61032f565b90565b90565b9061157661157161157d92611542565b61155e565b8254610c9a565b9055565b906115a39061159e6115a894936004611598611e3c565b01611250565b611274565b611561565b565b906115b59291611535565b565b906115c292916115c4565b565b906115e6906115e16115eb949360066115db611e3c565b01610e13565b610e84565b610cd0565b565b906115f892916115b7565b565b600090565b6116119061160b6115fa565b50612314565b90565b9061161e91611620565b565b61163861163d92916003611632611e3c565b01610c7c565b610cd0565b565b9061164991611614565b565b61165f61165a61166492611137565b610c5d565b610198565b90565b6116709061164b565b90565b61167c90610da4565b90565b9061168990611673565b600052602052604060002090565b90565b906116a490610c60565b600052602052604060002090565b60018060a01b031690565b6116c96116ce91611165565b6116b2565b90565b6116db90546116bd565b90565b60016116ea91016101d3565b90565b6117016116fc611706926101d3565b610c5d565b610269565b90565b61171290610d88565b90565b61171e90611709565b90565b61172a90610da4565b90565b600080fd5b60e01b90565b90505190611745826101d6565b565b906020828203126117615761175e91600001611738565b90565b61018e565b61176f90610269565b9052565b919061178790600060208501940190611766565b565b611791610183565b3d6000823e3d90fd5b634e487b7160e01b600052601160045260246000fd5b6117bf6117c5919392936101d3565b926101d3565b82018092116117d057565b61179a565b906117de6115fa565b506117e7612344565b6118256118206117f760006112d0565b9460026118196118146005870161180e6000611667565b9061167f565b611697565b940161169a565b6116d1565b9061183060006112d0565b935b8461184d61184761184285612352565b6101d3565b916101d3565b1015611904576118a3602061186b611866858990612386565b6116ed565b61187c61187787611715565b611721565b611898639a2f44ca61188c610183565b95869485938493611732565b835260048301611773565b03915afa80156118ff576118c9926118c3926000926118cf575b506117b0565b946116de565b93611832565b6118f191925060203d81116118f8575b6118e9818361109d565b810190611747565b90386118bd565b503d6118df565b611789565b929350505090565b906119179291611919565b565b90916119459261193c611937600361192f612344565b01859061169a565b6116d1565b929091926124cc565b565b90611952929161190c565b565b9061195e91611b75565b565b61196990610198565b90565b61197581611960565b0361197c57565b600080fd5b9050359061198e8261196c565b565b909291926119a56119a0826111f2565b6110c4565b93818552602080860192028301928184116119e257915b8383106119c95750505050565b602080916119d7848661039f565b8152019201916119bc565b610495565b9080601f83011215611a0557816020611a0293359101611990565b90565b61048b565b919060a083820312611a7257611a238160008501611981565b92611a318260208301611981565b92604082013560018060401b038111611a6d57611a5384611a6a9285016119e7565b93611a6181606086016101eb565b93608001610285565b90565b610193565b61018e565b611a8090610da4565b90565b611a8c90610d88565b90565b611a9890611a83565b90565b611aa490610da4565b90565b611ab0906101a3565b9052565b916020611ad6929493611acf60408201966000830190611aa7565b0190611aa7565b565b600080fd5b60018060401b038111611af957611af560209161107d565b0190565b611087565b90826000939282370152565b90929192611b1f611b1a82611add565b6110c4565b93818552602085019082840111611b3b57611b3992611afe565b565b611ad8565b611b4b913691611b0a565b90565b92916020611b6b611b739360408701908782036000890152610695565b94019061095f565b565b611b9d611ba3611bb1611bac93611b8f8187810190611a0a565b959398929691979098611a77565b95611a77565b95969395611a8f565b611a9b565b602063dd62ed3e913390611bdf611bc730610db0565b94611bea611bd3610183565b96879586948594611732565b845260048401611ab4565b03915afa908115611d2e57600091611d00575b509586611c13611c0d60006112d0565b916101d3565b03611ce1575b505080611c2f611c2960006112d0565b916101d3565b11611c86575b50909192611c6c611c667f7a605550c41cf86b0cc56e1245d08b2a276139d5bc5044ce01e9fb71bd1579ad93611673565b93610c60565b93611c81611c78610183565b92839283611b4e565b0390a3565b611cdb90611c9f6005611c97611e3c565b018590610c7c565b50611cd181611ccb611cbc6005611cb4611e3c565b018890610c7c565b91611cc683611182565b6117b0565b90610cd0565b839083869261264e565b38611c35565b611cf9918591611cf386918a93611b40565b92612578565b3880611c19565b611d21915060203d8111611d27575b611d19818361109d565b810190611747565b38611bfd565b503d611d0f565b611789565b90611d3d91611954565b565b90611d5b91611d4c611035565b50611d55610d1b565b506127a9565b90611d658261283e565b90565b90611d74939291611d76565b565b9190611dbb611dc594611daa611dc094611da5611d9e6008611d96611e3c565b018990611250565b8690611274565b611561565b936007611db5611e3c565b01611250565b611274565b611561565b565b90611dd3939291611d68565b565b90611de09291611de2565b565b90611e0490611dff611e0994936001611df9611e3c565b01610e13565b610e84565b610cd0565b565b90611e169291611dd5565b565b7f8044e54adfaacc587fefea0831a427898a157664a4fc313bb47c3132ec6276ed90565b611e44611e18565b90565b50611e50610d1b565b90565b50505050611e5f610d1b565b90565b611e6b90610da4565b90565b90565b611e85611e80611e8a92611e6e565b610c5d565b6101d3565b90565b600080fd5b600080fd5b90939293848311611eb7578411611eb2576001820201920390565b611e92565b611e8d565b5090565b63ffffffff60e01b1690565b1b90565b90611ede611ee59183611ebc565b9135611ec0565b9060048110611ef3575b5090565b611f0b9063ffffffff60e01b90600403600802611ecc565b1638611eef565b63ffffffff1690565b611f2f611f2a611f3492611137565b610c5d565b611f12565b90565b9190611f4b90600060208501940190611aa7565b565b60a01b90565b90611f6260ff60a01b91611f4d565b9181191691161790565b90565b90611f84611f7f611f8b92611268565b611f6c565b8254611f53565b9055565b611f9890610d88565b90565b611fa490611f8f565b90565b611fb090610da4565b90565b6000910312611fbe57565b61018e565b60209181520190565b9190611fe681611fdf81611feb95611fc3565b8095611afe565b61107d565b0190565b9161201593919261200860408201946000830190611aa7565b6020818503910152611fcc565b90565b6120206128f4565b9161207361206b61202f612904565b8461203930611e62565b9061206561205f878b6000906120596120536004936112d0565b92611e71565b92611e97565b90611ed0565b92612a72565b9190156103ae565b61207f575b5050505050565b61209261208c6000611f1b565b91611f12565b1160001461215a576120a8600160008501611f6f565b6120c06120bb6120b6612904565b611f9b565b611fa7565b6394c7d7ee92919492813b156121555760006120ef916120fa82966120e3610183565b998a9788968795611732565b855260048501611fef565b03925af19182156121505761211992612123575b506000809101611f6f565b3880808080612078565b6121439060003d8111612149575b61213b818361109d565b810190611fb3565b3861210e565b503d612131565b611789565b61172d565b61217b82612166610183565b91829162d1953b60e31b835260048301611f37565b0390fd5b90565b61219661219161219b9261217f565b610c5d565b6101d3565b90565b6121ab6305f5e100612182565b90565b90565b6121c56121c06121ca926121ae565b610c5d565b6101d3565b90565b90565b6121e46121df6121e9926121cd565b610c5d565b6101d3565b90565b90565b6122036121fe612208926121ec565b610c5d565b6101d3565b90565b6123129061230d6122fd61221d611e3c565b9261224f61222961219e565b61224a61223a600188018590610e13565b6122446001610e5c565b90610e84565b610cd0565b61228061225a61219e565b61227b61226b600188018590610e13565b6122756002610e5c565b90610e84565b610cd0565b6122b461228e6104e26121b1565b6122af61229f600188018590610e13565b6122a96004610e5c565b90610e84565b610cd0565b6122e86122c2610e106121d0565b6122e36122d3600188018590610e13565b6122dd6006610e5c565b90610e84565b610cd0565b60016122f6620f42406121ef565b9401610e13565b6123076009610e5c565b90610e84565b610cd0565b565b5061231d6115fa565b90565b7f2eec39e2b6bcfb5f1ee2be0b6e9d5a470a45585b1e2f7f291af9fb9f551763d090565b61234c612320565b90565b90565b61236a600061236f926123636115fa565b500161234f565b612b7b565b90565b61237e61238391611165565b610cb1565b90565b6123ac916123a260006123a79361239b6115fa565b500161234f565b612bf9565b612372565b90565b6123be6123c4919392936101d3565b926101d3565b82039182116123cf57565b61179a565b60018060401b0381116123f0576123ec60209161107d565b0190565b611087565b90612407612402836123d4565b6110c4565b918252565b61241660006123f5565b90565b61242161240c565b90565b6007111561242e57565b610e2b565b9061243d82612424565b565b61244890612433565b90565b5190565b60005b838110612463575050906000910152565b806020918301518185015201612452565b61249361249c6020936124a19361248a8161244b565b93848093611fc3565b9586910161244f565b61107d565b0190565b916124c9926124bc6040820193600083019061095f565b6020818403910152612474565b90565b61250c61251491949394612507856125016124f260006124ea612c3f565b018890610c7c565b916124fc83611182565b6123af565b90610cd0565b611a8f565b848491612c8a565b916006909192612522612419565b61255e6125586125527fa5a40b103c251a8a92f4f0417a34aa5561df1cb24587a7366483504d6707648b94610c60565b9461243f565b94611673565b9461257361256a610183565b928392836124a5565b0390a4565b6125a9836125a3612594600161258c612c3f565b018590610c7c565b9161259e83611182565b6123af565b90610cd0565b6125da836125d46125c560006125bd612c3f565b018590610c7c565b916125cf83611182565b6117b0565b90610cd0565b600191929361261b61261561260f7fa5a40b103c251a8a92f4f0417a34aa5561df1cb24587a7366483504d6707648b94610c60565b9461243f565b94611673565b94612630612627610183565b928392836124a5565b0390a4565b61264b9160208201916000818403910152610695565b90565b61266b612666600061265e612c3f565b018390610c7c565b611182565b8361267e612678836101d3565b916101d3565b1161276b575b506126b6836126b06126a16000612699612c3f565b018590610c7c565b916126ab83611182565b6123af565b90610cd0565b6126e7836126e16126d260016126ca612c3f565b018590610c7c565b916126dc83611182565b6117b0565b90610cd0565b61270661271560009394956126fa610183565b92839160208301612635565b6020820181038252038261109d565b61275161274b6127457fa5a40b103c251a8a92f4f0417a34aa5561df1cb24587a7366483504d6707648b94610c60565b9461243f565b94611673565b9461276661275d610183565b928392836124a5565b0390a4565b9092509138612684565b3561277f81610270565b90565b3561278c816101d6565b90565b356127998161038a565b90565b356127a6816103b3565b90565b6127f26127f8926127b8611035565b506127c560808401612775565b906127df60406127d86101208701612782565b920161278f565b906127ec60a0860161279c565b92611e53565b90612d6d565b90565b612805905161032f565b90565b61281761281d9193929361032f565b9261032f565b8083019260008285121581831216928512911215161761283957565b61179a565b90612847610d1b565b9161285260006112d0565b925b8361286f6128696128648561065e565b6101d3565b916101d3565b10156128a15761289561289b9161288f61288a8588906112b0565b6127fb565b90612808565b936116de565b92612854565b925050565b90565b90565b6128c06128bb6128c5926128a6565b610c94565b6128a9565b90565b6128f17ff3177357ab46d8af007ab3fdb9af81da189e1068fefdc0073dca88a2cab40a006128ac565b90565b6128fc6128c8565b90565b600090565b61290c6128ff565b50612920600061291a6128f4565b016116d1565b90565b600090565b600090565b61293690611ec0565b9052565b60409061296461296b949695939661295a60608401986000850190611aa7565b6020830190611aa7565b019061292d565b565b9061297f61297a83611add565b6110c4565b918252565b606090565b3d6000146129a65761299a3d61296d565b903d6000602084013e5b565b6129ae612984565b906129a4565b90565b6129cb6129c66129d0926129b4565b610c5d565b6101d3565b90565b90565b6129ea6129e56129ef926129d3565b610c5d565b6101d3565b90565b905051906129ff826103b3565b565b90602082820312612a1b57612a18916000016129f2565b90565b61018e565b612a2981611f12565b03612a3057565b600080fd5b90505190612a4282612a20565b565b9190604083820312612a6d5780612a61612a6a92600086016129f2565b93602001612a35565b90565b61018e565b93926000918291612ac4612a84612923565b95612ab5612a90612928565b99949193612a9c610183565b94859360046020860163b700961360e01b81520161293a565b6020820181038252038261109d565b602081019051915afa612ad5612989565b90612ae0575b509190565b90612aea8261244b565b612afd612af760406129b7565b916101d3565b1015600014612b2c5750612b239192506020612b188261244b565b818301019101612a44565b91905b38612adb565b90612b368161244b565b612b49612b4360206129d6565b916101d3565b1015612b56575b50612b26565b612b7191506020612b668261244b565b818301019101612a01565b38612b50565b5490565b6000612b9091612b896115fa565b5001612b77565b90565b600090565b600052602060002090565b612bac81612b77565b821015612bc757612bbe600191612b98565b91020190600090565b61118f565b1c90565b90565b612be3906008612be89302612bcc565b612bd0565b90565b90612bf69154612bd3565b90565b612c18916000612c1292612c0b612b93565b5001612ba3565b90612beb565b90565b7f4487c6deafb3b968c18f689f85fbb6df4ca91ac06c46b27d8f8dd3839c79c8c990565b612c47612c1b565b90565b612c5e612c59612c6392611f12565b611732565b611ec0565b90565b916020612c88929493612c8160408201966000830190611aa7565b019061095f565b565b90612cd1612cd693612cc260049493612ca963a9059cbb919391612c4a565b92612cb2610183565b9687946020860190815201612c66565b6020820181038252038361109d565b61301d565b565b612cec612ce7612cf1926101d3565b610c5d565b61032f565b90565b60031115612cfe57565b600080fd5b60031115612d0d57565b610e2b565b90612d1c82612d03565b565b35612d2881612cf4565b90565b35612d3581610835565b90565b612d47612d4d919392936101d3565b926101d3565b91612d598382026101d3565b928184041490151715612d6857565b61179a565b612d75611035565b50612db5612d93612d8e612d89600c611055565b611061565b611229565b92612db084612daa612da56002611055565b611061565b906112b0565b6112ec565b612dc26101208201612782565b612dd5612dcf60006112d0565b916101d3565b1480612ff5575b612ff157612dec60c0820161279c565b600014612f0257612e4b612e2a612e25612e0860808501612775565b612e156101208601612782565b612e1f6000611055565b916130b6565b612cd8565b612e4684612e40612e3b6000611055565b611061565b906112b0565b6112ec565b5b612e596102a08201612d2b565b612e6c612e66600061113a565b9161082f565b11612e76575b5090565b612edb612ed6612efc92612ed0612ecb6102a0612ec4612ebf612eaf6006612e9c611e3c565b01612ea960808901612775565b90610e13565b612eb96003611055565b90610e84565b611182565b9301612d2b565b611061565b90612d38565b612cd8565b612ef783612ef1612eec6003611055565b611061565b906112b0565b6112ec565b38612e72565b612f5a612f39612f34612f1760808501612775565b612f246101208601612782565b612f2e6001611055565b916130b6565b612cd8565b612f5584612f4f612f4a6001611055565b611061565b906112b0565b6112ec565b612f676102408201612d1e565b612f7a612f746001612d12565b91612d12565b14612f85575b612e4c565b612fec612fcb612fc6612fc1612fb16006612f9e611e3c565b01612fab60808801612775565b90610e13565b612fbb6004611055565b90610e84565b611182565b612cd8565b612fe784612fe1612fdc6004611055565b611061565b906112b0565b6112ec565b612f80565b5090565b506130036101608201612782565b61301661301060006112d0565b916101d3565b1415612ddc565b906130309061302b83611a9b565b613121565b6130398161244b565b61304c61304660006112d0565b916101d3565b1415908161308b575b5061305d5750565b61306961308791611a9b565b613071610183565b918291635274afe760e01b835260048301611f37565b0390fd5b6130b091506130aa90602061309f8261244b565b818301019101612a01565b156103ae565b38613055565b6130be6115fa565b50816130d36130cd60006112d0565b916101d3565b14613111576131036130fe61310e946130f96131089460066130f3611e3c565b01610e13565b610e84565b611182565b613143565b9061317a565b90565b50505061311e60006112d0565b90565b906131409161312e612984565b509061313a60006112d0565b916131bc565b90565b61314b6115fa565b508061316061315a60006112d0565b916101d3565b14600014613175575061317161219e565b5b90565b613172565b6131826115fa565b50816302faf0806000190304811115821517156131ab576305f5e100916302faf0809102010490565b600080fd5b6131b990610da4565b90565b90916131c6612984565b506131d0306131b0565b316131e36131dd836101d3565b916101d3565b10613210576000809161320d948491602082019151925af190613204612989565b9091909161323e565b90565b61323a61321c306131b0565b613224610183565b91829163cd78605960e01b835260048301611f37565b0390fd5b906132529061324b612984565b50156103ae565b60001461325f57506132cc565b6132688261244b565b61327b61327560006112d0565b916101d3565b14806132b0575b61328a575090565b6132ac90613296610183565b918291639996b31560e01b835260048301611f37565b0390fd5b50803b6132c66132c060006112d0565b916101d3565b14613282565b6132d58161244b565b6132e86132e260006112d0565b916101d3565b116000146132f857805190602001fd5b613300610183565b630a12f52160e11b81528061331760048201610235565b0390fdfea264697066735822122031609c36cba943a79a9e344f1ea66b5e49569ff4d020e9651b0c912673a4fc4664736f6c63430008180033",
  "devdoc": {
    "errors": {
      "AddressEmptyCode(address)": [
        {
          "details": "There's no code at `target` (it is not a contract)."
        }
      ],
      "AddressInsufficientBalance(address)": [
        {
          "details": "The ETH balance of the account is not enough to perform the operation."
        }
      ],
      "FailedInnerCall()": [
        {
          "details": "A call to an address target failed. The target may have reverted."
        }
      ],
      "SafeERC20FailedOperation(address)": [
        {
          "details": "An operation with an ERC20 token failed."
        }
      ]
    },
    "kind": "dev",
    "methods": {},
    "version": 1
  },
  "userdoc": {
    "kind": "user",
    "methods": {},
    "version": 1
  },
  "storageLayout": {
    "storage": [],
    "types": null
  }
}