{
  "address": "0x25638024AA6bf179F8Cb433903Bf63B875a6ad3A",
  "abi": [
    {
      "inputs": [
        {
          "internalType": "address",
          "name": "authority",
          "type": "address"
        }
      ],
      "name": "AccessManagedInvalidAuthority",
      "type": "error"
    },
    {
      "inputs": [
        {
          "internalType": "address",
          "name": "caller",
          "type": "address"
        },
        {
          "internalType": "uint32",
          "name": "delay",
          "type": "uint32"
        }
      ],
      "name": "AccessManagedRequiredDelay",
      "type": "error"
    },
    {
      "inputs": [
        {
          "internalType": "address",
          "name": "caller",
          "type": "address"
        }
      ],
      "name": "AccessManagedUnauthorized",
      "type": "error"
    },
    {
      "inputs": [
        {
          "internalType": "address",
          "name": "target",
          "type": "address"
        }
      ],
      "name": "AddressEmptyCode",
      "type": "error"
    },
    {
      "inputs": [
        {
          "internalType": "address",
          "name": "account",
          "type": "address"
        }
      ],
      "name": "AddressInsufficientBalance",
      "type": "error"
    },
    {
      "inputs": [],
      "name": "FailedInnerCall",
      "type": "error"
    },
    {
      "inputs": [
        {
          "internalType": "address",
          "name": "token",
          "type": "address"
        }
      ],
      "name": "SafeERC20FailedOperation",
      "type": "error"
    },
    {
      "anonymous": false,
      "inputs": [
        {
          "indexed": true,
          "internalType": "uint16",
          "name": "market",
          "type": "uint16"
        },
        {
          "indexed": true,
          "internalType": "enum BalanceHandler.Type",
          "name": "transferType",
          "type": "uint8"
        },
        {
          "indexed": true,
          "internalType": "address",
          "name": "account",
          "type": "address"
        },
        {
          "indexed": false,
          "internalType": "uint256",
          "name": "value",
          "type": "uint256"
        },
        {
          "indexed": false,
          "internalType": "bytes",
          "name": "extra",
          "type": "bytes"
        }
      ],
      "name": "Transfer",
      "type": "event"
    },
    {
      "anonymous": false,
      "inputs": [
        {
          "indexed": true,
          "internalType": "address",
          "name": "account",
          "type": "address"
        },
        {
          "indexed": true,
          "internalType": "uint16",
          "name": "market",
          "type": "uint16"
        },
        {
          "indexed": false,
          "internalType": "int256[]",
          "name": "fees",
          "type": "int256[]"
        },
        {
          "indexed": false,
          "internalType": "uint256",
          "name": "amount",
          "type": "uint256"
        }
      ],
      "name": "UpdateFee",
      "type": "event"
    },
    {
      "inputs": [
        {
          "internalType": "bytes",
          "name": "_data",
          "type": "bytes"
        }
      ],
      "name": "_collectFees",
      "outputs": [],
      "stateMutability": "nonpayable",
      "type": "function"
    },
    {
      "inputs": [
        {
          "internalType": "uint16",
          "name": "market",
          "type": "uint16"
        },
        {
          "internalType": "uint256",
          "name": "longSize",
          "type": "uint256"
        },
        {
          "internalType": "uint256",
          "name": "shortSize",
          "type": "uint256"
        }
      ],
      "name": "_updateCumulativeFundingRate",
      "outputs": [],
      "stateMutability": "nonpayable",
      "type": "function"
    },
    {
      "inputs": [
        {
          "internalType": "uint16",
          "name": "market",
          "type": "uint16"
        },
        {
          "internalType": "uint256",
          "name": "start",
          "type": "uint256"
        },
        {
          "internalType": "uint256",
          "name": "end",
          "type": "uint256"
        }
      ],
      "name": "addSkipTime",
      "outputs": [],
      "stateMutability": "nonpayable",
      "type": "function"
    },
    {
      "inputs": [
        {
          "internalType": "uint16",
          "name": "market",
          "type": "uint16"
        },
        {
          "internalType": "bool",
          "name": "isLong",
          "type": "bool"
        }
      ],
      "name": "cumulativeFundingRates",
      "outputs": [
        {
          "internalType": "int256",
          "name": "",
          "type": "int256"
        }
      ],
      "stateMutability": "view",
      "type": "function"
    },
    {
      "inputs": [
        {
          "internalType": "uint16",
          "name": "market",
          "type": "uint16"
        },
        {
          "internalType": "address",
          "name": "to",
          "type": "address"
        },
        {
          "internalType": "uint256",
          "name": "amount",
          "type": "uint256"
        }
      ],
      "name": "feeWithdraw",
      "outputs": [],
      "stateMutability": "nonpayable",
      "type": "function"
    },
    {
      "inputs": [
        {
          "internalType": "uint16",
          "name": "market",
          "type": "uint16"
        }
      ],
      "name": "getExecFee",
      "outputs": [
        {
          "internalType": "uint256",
          "name": "",
          "type": "uint256"
        }
      ],
      "stateMutability": "view",
      "type": "function"
    },
    {
      "inputs": [
        {
          "internalType": "uint16",
          "name": "market",
          "type": "uint16"
        }
      ],
      "name": "getFeeAndRatesOfMarket",
      "outputs": [
        {
          "internalType": "uint256[]",
          "name": "fees",
          "type": "uint256[]"
        },
        {
          "internalType": "int256[]",
          "name": "fundingRates",
          "type": "int256[]"
        },
        {
          "internalType": "int256[]",
          "name": "_cumulativeFundingRates",
          "type": "int256[]"
        }
      ],
      "stateMutability": "view",
      "type": "function"
    },
    {
      "inputs": [
        {
          "components": [
            {
              "internalType": "enum MarketBusinessType",
              "name": "busiType",
              "type": "uint8"
            },
            {
              "internalType": "uint256",
              "name": "oraclePrice",
              "type": "uint256"
            },
            {
              "internalType": "uint256",
              "name": "pay",
              "type": "uint256"
            },
            {
              "internalType": "uint256",
              "name": "slippage",
              "type": "uint256"
            },
            {
              "internalType": "uint16",
              "name": "market",
              "type": "uint16"
            },
            {
              "internalType": "bool",
              "name": "isLong",
              "type": "bool"
            },
            {
              "internalType": "bool",
              "name": "isOpen",
              "type": "bool"
            },
            {
              "internalType": "bool",
              "name": "isCreate",
              "type": "bool"
            },
            {
              "internalType": "bool",
              "name": "isFromMarket",
              "type": "bool"
            },
            {
              "internalType": "uint256",
              "name": "sizeDelta",
              "type": "uint256"
            },
            {
              "internalType": "uint256",
              "name": "price",
              "type": "uint256"
            },
            {
              "internalType": "uint256",
              "name": "collateralDelta",
              "type": "uint256"
            },
            {
              "internalType": "uint256",
              "name": "collateral",
              "type": "uint256"
            },
            {
              "internalType": "uint256",
              "name": "tp",
              "type": "uint256"
            },
            {
              "internalType": "uint256",
              "name": "sl",
              "type": "uint256"
            },
            {
              "internalType": "uint64",
              "name": "orderId",
              "type": "uint64"
            },
            {
              "internalType": "address",
              "name": "account",
              "type": "address"
            },
            {
              "internalType": "bool",
              "name": "isExec",
              "type": "bool"
            },
            {
              "internalType": "enum LiquidationState",
              "name": "liqState",
              "type": "uint8"
            },
            {
              "internalType": "uint64",
              "name": "fromOrder",
              "type": "uint64"
            },
            {
              "internalType": "bytes32",
              "name": "refCode",
              "type": "bytes32"
            },
            {
              "internalType": "uint8",
              "name": "execNum",
              "type": "uint8"
            },
            {
              "internalType": "bool",
              "name": "isKeepLev",
              "type": "bool"
            },
            {
              "internalType": "bool",
              "name": "isKeepLevTP",
              "type": "bool"
            },
            {
              "internalType": "bool",
              "name": "isKeepLevSL",
              "type": "bool"
            },
            {
              "internalType": "bool",
              "name": "triggerAbove",
              "type": "bool"
            },
            {
              "internalType": "uint128",
              "name": "gas",
              "type": "uint128"
            }
          ],
          "internalType": "struct MarketCache",
          "name": "params",
          "type": "tuple"
        },
        {
          "components": [
            {
              "internalType": "uint256",
              "name": "size",
              "type": "uint256"
            },
            {
              "internalType": "uint256",
              "name": "collateral",
              "type": "uint256"
            },
            {
              "internalType": "int256",
              "name": "entryFundingRate",
              "type": "int256"
            },
            {
              "internalType": "int256",
              "name": "realisedPnl",
              "type": "int256"
            },
            {
              "internalType": "uint256",
              "name": "averagePrice",
              "type": "uint256"
            },
            {
              "internalType": "bool",
              "name": "isLong",
              "type": "bool"
            },
            {
              "internalType": "uint32",
              "name": "lastTime",
              "type": "uint32"
            },
            {
              "internalType": "uint16",
              "name": "market",
              "type": "uint16"
            },
            {
              "internalType": "uint72",
              "name": "extra0",
              "type": "uint72"
            }
          ],
          "internalType": "struct PositionProps",
          "name": "position",
          "type": "tuple"
        }
      ],
      "name": "getFeesReceivable",
      "outputs": [
        {
          "internalType": "int256[]",
          "name": "fees",
          "type": "int256[]"
        },
        {
          "internalType": "int256",
          "name": "totalFee",
          "type": "int256"
        }
      ],
      "stateMutability": "view",
      "type": "function"
    },
    {
      "inputs": [
        {
          "internalType": "uint16",
          "name": "market",
          "type": "uint16"
        },
        {
          "internalType": "uint256",
          "name": "size",
          "type": "uint256"
        },
        {
          "internalType": "int256",
          "name": "entryFundingRate",
          "type": "int256"
        },
        {
          "internalType": "bool",
          "name": "isLong",
          "type": "bool"
        }
      ],
      "name": "getFundingFee",
      "outputs": [
        {
          "internalType": "int256",
          "name": "",
          "type": "int256"
        }
      ],
      "stateMutability": "view",
      "type": "function"
    },
    {
      "inputs": [
        {
          "internalType": "uint16",
          "name": "market",
          "type": "uint16"
        }
      ],
      "name": "getGlobalOpenInterest",
      "outputs": [
        {
          "internalType": "uint256",
          "name": "_globalSize",
          "type": "uint256"
        }
      ],
      "stateMutability": "view",
      "type": "function"
    },
    {
      "inputs": [
        {
          "internalType": "address",
          "name": "market",
          "type": "address"
        },
        {
          "internalType": "uint256",
          "name": "longSize",
          "type": "uint256"
        },
        {
          "internalType": "uint256",
          "name": "shortSize",
          "type": "uint256"
        }
      ],
      "name": "getNextFundingRate",
      "outputs": [],
      "stateMutability": "nonpayable",
      "type": "function"
    },
    {
      "inputs": [
        {
          "components": [
            {
              "internalType": "enum MarketBusinessType",
              "name": "busiType",
              "type": "uint8"
            },
            {
              "internalType": "uint256",
              "name": "oraclePrice",
              "type": "uint256"
            },
            {
              "internalType": "uint256",
              "name": "pay",
              "type": "uint256"
            },
            {
              "internalType": "uint256",
              "name": "slippage",
              "type": "uint256"
            },
            {
              "internalType": "uint16",
              "name": "market",
              "type": "uint16"
            },
            {
              "internalType": "bool",
              "name": "isLong",
              "type": "bool"
            },
            {
              "internalType": "bool",
              "name": "isOpen",
              "type": "bool"
            },
            {
              "internalType": "bool",
              "name": "isCreate",
              "type": "bool"
            },
            {
              "internalType": "bool",
              "name": "isFromMarket",
              "type": "bool"
            },
            {
              "internalType": "uint256",
              "name": "sizeDelta",
              "type": "uint256"
            },
            {
              "internalType": "uint256",
              "name": "price",
              "type": "uint256"
            },
            {
              "internalType": "uint256",
              "name": "collateralDelta",
              "type": "uint256"
            },
            {
              "internalType": "uint256",
              "name": "collateral",
              "type": "uint256"
            },
            {
              "internalType": "uint256",
              "name": "tp",
              "type": "uint256"
            },
            {
              "internalType": "uint256",
              "name": "sl",
              "type": "uint256"
            },
            {
              "internalType": "uint64",
              "name": "orderId",
              "type": "uint64"
            },
            {
              "internalType": "address",
              "name": "account",
              "type": "address"
            },
            {
              "internalType": "bool",
              "name": "isExec",
              "type": "bool"
            },
            {
              "internalType": "enum LiquidationState",
              "name": "liqState",
              "type": "uint8"
            },
            {
              "internalType": "uint64",
              "name": "fromOrder",
              "type": "uint64"
            },
            {
              "internalType": "bytes32",
              "name": "refCode",
              "type": "bytes32"
            },
            {
              "internalType": "uint8",
              "name": "execNum",
              "type": "uint8"
            },
            {
              "internalType": "bool",
              "name": "isKeepLev",
              "type": "bool"
            },
            {
              "internalType": "bool",
              "name": "isKeepLevTP",
              "type": "bool"
            },
            {
              "internalType": "bool",
              "name": "isKeepLevSL",
              "type": "bool"
            },
            {
              "internalType": "bool",
              "name": "triggerAbove",
              "type": "bool"
            },
            {
              "internalType": "uint128",
              "name": "gas",
              "type": "uint128"
            }
          ],
          "internalType": "struct MarketCache",
          "name": "data",
          "type": "tuple"
        }
      ],
      "name": "getOrderFees",
      "outputs": [
        {
          "internalType": "int256",
          "name": "fees",
          "type": "int256"
        }
      ],
      "stateMutability": "view",
      "type": "function"
    },
    {
      "inputs": [
        {
          "internalType": "uint16",
          "name": "market",
          "type": "uint16"
        }
      ],
      "name": "initFeeFacet",
      "outputs": [],
      "stateMutability": "nonpayable",
      "type": "function"
    },
    {
      "inputs": [
        {
          "internalType": "uint16",
          "name": "market",
          "type": "uint16"
        },
        {
          "internalType": "bool",
          "name": "isLong",
          "type": "bool"
        },
        {
          "internalType": "int256",
          "name": "calFundingRate",
          "type": "int256"
        }
      ],
      "name": "setCalFundingRates",
      "outputs": [],
      "stateMutability": "nonpayable",
      "type": "function"
    },
    {
      "inputs": [
        {
          "internalType": "uint16",
          "name": "market",
          "type": "uint16"
        },
        {
          "internalType": "uint256",
          "name": "interval",
          "type": "uint256"
        }
      ],
      "name": "setCalIntervals",
      "outputs": [],
      "stateMutability": "nonpayable",
      "type": "function"
    },
    {
      "inputs": [
        {
          "internalType": "uint16",
          "name": "market",
          "type": "uint16"
        },
        {
          "internalType": "uint8",
          "name": "feeType",
          "type": "uint8"
        },
        {
          "internalType": "uint256",
          "name": "feeAndRate",
          "type": "uint256"
        }
      ],
      "name": "setFeeAndRates",
      "outputs": [],
      "stateMutability": "nonpayable",
      "type": "function"
    },
    {
      "inputs": [
        {
          "internalType": "uint16",
          "name": "market",
          "type": "uint16"
        },
        {
          "internalType": "uint8",
          "name": "configType",
          "type": "uint8"
        },
        {
          "internalType": "uint256",
          "name": "value",
          "type": "uint256"
        }
      ],
      "name": "setFeeConfigs",
      "outputs": [],
      "stateMutability": "nonpayable",
      "type": "function"
    },
    {
      "inputs": [
        {
          "internalType": "uint16",
          "name": "market",
          "type": "uint16"
        },
        {
          "internalType": "uint256",
          "name": "loss",
          "type": "uint256"
        }
      ],
      "name": "setFundFeeLoss",
      "outputs": [],
      "stateMutability": "nonpayable",
      "type": "function"
    },
    {
      "inputs": [
        {
          "internalType": "uint16",
          "name": "market",
          "type": "uint16"
        },
        {
          "internalType": "uint256",
          "name": "interval",
          "type": "uint256"
        }
      ],
      "name": "setFundingIntervals",
      "outputs": [],
      "stateMutability": "nonpayable",
      "type": "function"
    },
    {
      "inputs": [
        {
          "internalType": "uint16",
          "name": "market",
          "type": "uint16"
        },
        {
          "internalType": "bool",
          "name": "isLong",
          "type": "bool"
        },
        {
          "internalType": "int256",
          "name": "fundingRate",
          "type": "int256"
        },
        {
          "internalType": "int256",
          "name": "cumulativeFundingRate",
          "type": "int256"
        }
      ],
      "name": "setFundingRates",
      "outputs": [],
      "stateMutability": "nonpayable",
      "type": "function"
    },
    {
      "inputs": [
        {
          "internalType": "uint16",
          "name": "market",
          "type": "uint16"
        },
        {
          "internalType": "uint256",
          "name": "lastCalTime",
          "type": "uint256"
        }
      ],
      "name": "setLastCalTimes",
      "outputs": [],
      "stateMutability": "nonpayable",
      "type": "function"
    }
  ],
  "transactionHash": "0x92814d650e0f097166e6dd1bd2b1b017932fae55c95cb0bc3a0b9f9b3dcafe6a",
  "args": [],
  "numDeployments": 5,
  "solcInputHash": "1dcb6aaba1ba97cd804fcdc1f6e94e24",
  "bytecode": "0x60806040523461002057610011610025565b612beb620000318239612beb90f35b61002b565b60405190565b600080fdfe60806040526004361015610013575b610bc3565b61001e60003561016d565b8063054aaca1146101685780632dacede914610163578063320de8e91461015e578063393e02e11461015957806348412d62146101545780635ae70a2b1461014f5780635b9710641461014a578063630dc5a01461014557806370802dac1461014057806373ad39b31461013b57806393b3b36314610136578063a9bd63d514610131578063ac0b03641461012c578063b5cc1d2014610127578063bf0d39b814610122578063d4f8ba011461011d578063d7a799ce14610118578063df5c091914610113578063f130c4451461010e578063f2da13e2146101095763fa6d03c70361000e57610b8f565b610b58565b610ada565b610a3b565b610986565b610916565b6108e2565b6108ad565b61085c565b61082e565b6107bf565b610726565b6106b5565b61064f565b6104cd565b61049a565b610447565b61040e565b610345565b6102b2565b61022b565b60e01c90565b60405190565b600080fd5b600080fd5b600080fd5b60018060a01b031690565b61019c90610188565b90565b6101a881610193565b036101af57565b600080fd5b905035906101c18261019f565b565b90565b6101cf816101c3565b036101d657565b600080fd5b905035906101e8826101c6565b565b90916060828403126102205761021d61020684600085016101b4565b9361021481602086016101db565b936040016101db565b90565b61017e565b60000190565b346102545761023b3660046101ea565b505050610246610173565b8061025081610225565b0390f35b610179565b61ffff1690565b61026981610259565b0361027057565b600080fd5b9050359061028282610260565b565b91906040838203126102ad57806102a16102aa9260008601610275565b936020016101db565b90565b61017e565b346102e1576102cb6102c5366004610284565b90610c86565b6102d3610173565b806102dd81610225565b0390f35b610179565b600080fd5b90816103609103126102fa5790565b6102e6565b906103608282031261031a57610317916000016102eb565b90565b61017e565b90565b61032b9061031f565b9052565b919061034390600060208501940190610322565b565b346103755761037161036061035b3660046102ff565b610c97565b610368610173565b9182918261032f565b0390f35b610179565b6103838161031f565b0361038a57565b600080fd5b9050359061039c8261037a565b565b151590565b6103ac8161039e565b036103b357565b600080fd5b905035906103c5826103a3565b565b608081830312610409576103de8260008301610275565b926104066103ef84602085016101db565b936103fd816040860161038f565b936060016103b8565b90565b61017e565b346104425761043e61042d6104243660046103c7565b92919091610cac565b610435610173565b9182918261032f565b0390f35b610179565b346104765761046061045a366004610284565b90610cf3565b610468610173565b8061047281610225565b0390f35b610179565b906020828203126104955761049291600001610275565b90565b61017e565b346104c8576104b26104ad36600461047b565b610d15565b6104ba610173565b806104c481610225565b0390f35b610179565b346104fc576104e66104e0366004610284565b90610d4b565b6104ee610173565b806104f881610225565b0390f35b610179565b5190565b60209181520190565b60200190565b61051d906101c3565b9052565b9061052e81602093610514565b0190565b60200190565b9061055561054f61054884610501565b8093610505565b9261050e565b9060005b8181106105665750505090565b90919261057f6105796001928651610521565b94610532565b9101919091610559565b5190565b60209181520190565b60200190565b6105a59061031f565b9052565b906105b68160209361059c565b0190565b60200190565b906105dd6105d76105d084610589565b809361058d565b92610596565b9060005b8181106105ee5750505090565b90919261060761060160019286516105a9565b946105ba565b91019190916105e1565b9161063e9061063061064c959360608601908682036000880152610538565b9084820360208601526105c0565b9160408184039101526105c0565b90565b346106825761067e61066a61066536600461047b565b6110a2565b610675939193610173565b93849384610611565b0390f35b610179565b91906040838203126106b057806106a46106ad9260008601610275565b936020016103b8565b90565b61017e565b346106e6576106e26106d16106cb366004610687565b9061128d565b6106d9610173565b9182918261032f565b0390f35b610179565b90916060828403126107215761071e6107078460008501610275565b9361071581602086016103b8565b9360400161038f565b90565b61017e565b346107555761073f6107393660046106eb565b91611333565b610747610173565b8061075181610225565b0390f35b610179565b60ff1690565b6107698161075a565b0361077057565b600080fd5b9050359061078282610760565b565b90916060828403126107ba576107b76107a08460008501610275565b936107ae8160208601610775565b936040016101db565b90565b61017e565b346107ee576107d86107d2366004610784565b91611376565b6107e0610173565b806107ea81610225565b0390f35b610179565b90916060828403126108295761082661080f8460008501610275565b9361081d81602086016101db565b936040016101db565b90565b61017e565b346108575761083e3660046107f3565b505050610849610173565b8061085381610225565b0390f35b610179565b346108855761086c3660046107f3565b505050610877610173565b8061088181610225565b0390f35b610179565b610893906101c3565b9052565b91906108ab9060006020850194019061088a565b565b346108dd576108d96108c86108c336600461047b565b611388565b6108d0610173565b91829182610897565b0390f35b610179565b34610911576108fb6108f5366004610284565b906113c8565b610903610173565b8061090d81610225565b0390f35b610179565b346109465761094261093161092c36600461047b565b611581565b610939610173565b91829182610897565b0390f35b610179565b90916060828403126109815761097e6109678460008501610275565b9361097581602086016101b4565b936040016101db565b90565b61017e565b346109b55761099f61099936600461094b565b916116f3565b6109a7610173565b806109b181610225565b0390f35b610179565b600080fd5b600080fd5b600080fd5b909182601f83011215610a015781359160018060401b0383116109fc5760200192600183028401116109f757565b6109c4565b6109bf565b6109ba565b90602082820312610a3657600082013560018060401b038111610a3157610a2d92016109c9565b9091565b610183565b61017e565b34610a6a57610a54610a4e366004610a06565b90611aeb565b610a5c610173565b80610a6681610225565b0390f35b610179565b9081610120910312610a7e5790565b6102e6565b919061048083820312610aae5780610aa1610aab92600086016102eb565b9361036001610a6f565b90565b61017e565b92916020610ad0610ad893604087019087820360008901526105c0565b940190610322565b565b34610b0c57610af3610aed366004610a83565b90611af7565b90610b08610aff610173565b92839283610ab3565b0390f35b610179565b608081830312610b5357610b288260008301610275565b92610b50610b3984602085016103b8565b93610b47816040860161038f565b9360600161038f565b90565b61017e565b34610b8a57610b74610b6b366004610b11565b92919091611b7f565b610b7c610173565b80610b8681610225565b0390f35b610179565b34610bbe57610ba8610ba2366004610784565b91611bc3565b610bb0610173565b80610bba81610225565b0390f35b610179565b600080fd5b90610bd291610c67565b565b90565b610beb610be6610bf092610259565b610bd4565b610259565b90565b90610bfd90610bd7565b600052602052604060002090565b60001b90565b90610c1e60001991610c0b565b9181191691161790565b610c3c610c37610c41926101c3565b610bd4565b6101c3565b90565b90565b90610c5c610c57610c6392610c28565b610c44565b8254610c11565b9055565b610c7f610c8492916000610c79611bf4565b01610bf3565b610c47565b565b90610c9091610bc8565b565b600090565b610ca990610ca3610c92565b50611bff565b90565b91610cc5939192610cbb610c92565b5092909192611c0b565b90565b90610cd291610cd4565b565b610cec610cf192916005610ce6611bf4565b01610bf3565b610c47565b565b90610cfd91610cc8565b565b610d0890610d0a565b565b610d1390611ccd565b565b610d1e90610cff565b565b90610d2a91610d2c565b565b610d44610d4992916002610d3e611bf4565b01610bf3565b610c47565b565b90610d5591610d20565b565b606090565b606090565b634e487b7160e01b600052602160045260246000fd5b600d1115610d8157565b610d61565b90610d9082610d77565b565b610d9b90610d86565b90565b610db2610dad610db79261075a565b610bd4565b6101c3565b90565b601f801991011690565b634e487b7160e01b600052604160045260246000fd5b90610de490610dba565b810190811060018060401b03821117610dfc57604052565b610dc4565b90610e14610e0d610173565b9283610dda565b565b60018060401b038111610e2c5760208091020190565b610dc4565b90610e43610e3e83610e16565b610e01565b918252565b369037565b90610e72610e5a83610e31565b92602080610e688693610e16565b9201910390610e48565b565b90565b610e8b610e86610e9092610e74565b610bd4565b61075a565b90565b6001610e9f910161075a565b90565b90610eac90610bd7565b600052602052604060002090565b610ece610ec9610ed39261075a565b610bd4565b61075a565b90565b90610ee090610eba565b600052602052604060002090565b60001c90565b90565b610f03610f0891610eee565b610ef4565b90565b610f159054610ef7565b90565b634e487b7160e01b600052603260045260246000fd5b90610f3882610501565b811015610f49576020809102010190565b610f18565b90610f58906101c3565b9052565b90565b610f73610f6e610f7892610f5c565b610bd4565b6101c3565b90565b60018060401b038111610f915760208091020190565b610dc4565b90610fa8610fa383610f7b565b610e01565b918252565b369037565b90610fd7610fbf83610f96565b92602080610fcd8693610f7b565b9201910390610fad565b565b90610fe390610bd7565b600052602052604060002090565b610ffa9061039e565b90565b9061100790610ff1565b600052602052604060002090565b90565b61102461102991610eee565b611015565b90565b6110369054611018565b90565b9061104382610589565b811015611054576020809102010190565b610f18565b61106d61106861107292610e74565b610bd4565b6101c3565b90565b9061107f9061031f565b9052565b90565b61109a61109561109f92611083565b610bd4565b6101c3565b90565b906110ab610d57565b506110b4610d5c565b506110bd610d5c565b506110d86110d36110ce600c610d92565b610d9e565b610e4d565b916110e36000610e77565b5b806111006110fa6110f5600c610d92565b61075a565b9161075a565b1015611156576111519061114c61113461112f6111286006611120611bf4565b018790610ea2565b8490610ed6565b610f0b565b6111478761114185610d9e565b90610f2e565b610f4e565b610e93565b6110e4565b506111696111646002610f5f565b610fb2565b916111ae6111956111906111886008611180611bf4565b018690610fd9565b600190610ffd565b61102c565b6111a9856111a36000611059565b90611039565b611075565b6111f26111d96111d46111cc60086111c4611bf4565b018690610fd9565b600090610ffd565b61102c565b6111ed856111e76001611086565b90611039565b611075565b61128b61127261126d61126561121061120b6002610f5f565b610fb2565b9561125561123c61123761122f6007611227611bf4565b018590610fd9565b600190610ffd565b61102c565b6112508961124a6000611059565b90611039565b611075565b600761125f611bf4565b01610fd9565b600090610ffd565b61102c565b611286846112806001611086565b90611039565b611075565b565b6112bb916112b16112b6926112a0610c92565b5060076112ab611bf4565b01610fd9565b610ffd565b61102c565b90565b906112c9929161130a565b565b6112df6112da6112e49261031f565b610bd4565b61031f565b90565b90565b906112ff6112fa611306926112cb565b6112e7565b8254610c11565b9055565b9061132c9061132761133194936004611321611bf4565b01610fd9565b610ffd565b6112ea565b565b9061133e92916112be565b565b9061134b929161134d565b565b9061136f9061136a61137494936006611364611bf4565b01610ea2565b610ed6565b610c47565b565b906113819291611340565b565b600090565b61139a90611394611383565b50611dd6565b90565b906113a7916113a9565b565b6113c16113c6929160036113bb611bf4565b01610bf3565b610c47565b565b906113d29161139d565b565b6113e86113e36113ed92610e74565b610bd4565b610188565b90565b6113f9906113d4565b90565b61141061140b61141592610188565b610bd4565b610188565b90565b611421906113fc565b90565b61142d90611418565b90565b9061143a90611424565b600052602052604060002090565b90565b9061145590610bd7565b600052602052604060002090565b60018060a01b031690565b61147a61147f91610eee565b611463565b90565b61148c905461146e565b90565b600161149b91016101c3565b90565b6114b26114ad6114b7926101c3565b610bd4565b610259565b90565b6114c3906113fc565b90565b6114cf906114ba565b90565b6114db90611418565b90565b60e01b90565b905051906114f1826101c6565b565b9060208282031261150d5761150a916000016114e4565b90565b61017e565b61151b90610259565b9052565b919061153390600060208501940190611512565b565b61153d610173565b3d6000823e3d90fd5b634e487b7160e01b600052601160045260246000fd5b61156b611571919392936101c3565b926101c3565b820180921161157c57565b611546565b9061158a611383565b50611593611e06565b6115d16115cc6115a36000611059565b9460026115c56115c0600587016115ba60006113f0565b90611430565b611448565b940161144b565b611482565b906115dc6000611059565b935b846115f96115f36115ee85611e14565b6101c3565b916101c3565b10156116b05761164f6020611617611612858990611e48565b61149e565b611628611623876114c6565b6114d2565b611644639a2f44ca611638610173565b958694859384936114de565b83526004830161151f565b03915afa80156116ab576116759261166f9260009261167b575b5061155c565b9461148f565b936115de565b61169d91925060203d81116116a4575b6116958183610dda565b8101906114f3565b9038611669565b503d61168b565b611535565b929350505090565b906116c392916116c5565b565b90916116f1926116e86116e360036116db611e06565b01859061144b565b611482565b92909192611f97565b565b906116fe92916116b8565b565b9061170a9161192d565b565b61171590610188565b90565b6117218161170c565b0361172857565b600080fd5b9050359061173a82611718565b565b9092919261175161174c82610f7b565b610e01565b938185526020808601920283019281841161178e57915b8383106117755750505050565b60208091611783848661038f565b815201920191611768565b6109c4565b9080601f830112156117b1578160206117ae9335910161173c565b90565b6109ba565b919060a08382031261181e576117cf816000850161172d565b926117dd826020830161172d565b92604082013560018060401b038111611819576117ff84611816928501611793565b9361180d81606086016101db565b93608001610275565b90565b610183565b61017e565b61182c90611418565b90565b611838906113fc565b90565b6118449061182f565b90565b61185090611418565b90565b61185c90611418565b90565b61186890610193565b9052565b91602061188e9294936118876040820196600083019061185f565b019061185f565b565b600080fd5b60018060401b0381116118b1576118ad602091610dba565b0190565b610dc4565b90826000939282370152565b909291926118d76118d282611895565b610e01565b938185526020850190828401116118f3576118f1926118b6565b565b611890565b6119039136916118c2565b90565b9291602061192361192b93604087019087820360008901526105c0565b94019061088a565b565b61195561195b6119696119649361194781878101906117b6565b959398929691979098611823565b95611823565b9596939561183b565b611847565b602063dd62ed3e91339061199761197f30611853565b946119a261198b610173565b968795869485946114de565b84526004840161186c565b03915afa908115611ae657600091611ab8575b5095866119cb6119c56000611059565b916101c3565b03611a99575b5050806119e76119e16000611059565b916101c3565b11611a3e575b50909192611a24611a1e7f7a605550c41cf86b0cc56e1245d08b2a276139d5bc5044ce01e9fb71bd1579ad93611424565b93610bd7565b93611a39611a30610173565b92839283611906565b0390a3565b611a9390611a576005611a4f611bf4565b018590610bf3565b50611a8981611a83611a746005611a6c611bf4565b018890610bf3565b91611a7e83610f0b565b61155c565b90610c47565b8390838692612119565b386119ed565b611ab1918591611aab86918a936118f8565b92612043565b38806119d1565b611ad9915060203d8111611adf575b611ad18183610dda565b8101906114f3565b386119b5565b503d611ac7565b611535565b90611af591611700565b565b90611b1391611b04610d5c565b50611b0d610c92565b50612274565b90611b1d82612309565b90565b90611b2c939291611b2e565b565b9190611b73611b7d94611b62611b7894611b5d611b566008611b4e611bf4565b018990610fd9565b8690610ffd565b6112ea565b936007611b6d611bf4565b01610fd9565b610ffd565b6112ea565b565b90611b8b939291611b20565b565b90611b989291611b9a565b565b90611bbc90611bb7611bc194936001611bb1611bf4565b01610ea2565b610ed6565b610c47565b565b90611bce9291611b8d565b565b7f8044e54adfaacc587fefea0831a427898a157664a4fc313bb47c3132ec6276ed90565b611bfc611bd0565b90565b50611c08610c92565b90565b50505050611c17610c92565b90565b90565b611c31611c2c611c3692611c1a565b610bd4565b6101c3565b90565b611c466305f5e100611c1d565b90565b600b1115611c5357565b610d61565b90611c6282611c49565b565b611c6d90611c58565b90565b90565b611c87611c82611c8c92611c70565b610bd4565b6101c3565b90565b90565b611ca6611ca1611cab92611c8f565b610bd4565b6101c3565b90565b90565b611cc5611cc0611cca92611cae565b610bd4565b6101c3565b90565b611dd490611dcf611dbf611cdf611bf4565b92611d11611ceb611c39565b611d0c611cfc600188018590610ea2565b611d066001611c64565b90610ed6565b610c47565b611d42611d1c611c39565b611d3d611d2d600188018590610ea2565b611d376002611c64565b90610ed6565b610c47565b611d76611d506104e2611c73565b611d71611d61600188018590610ea2565b611d6b6004611c64565b90610ed6565b610c47565b611daa611d84610e10611c92565b611da5611d95600188018590610ea2565b611d9f6006611c64565b90610ed6565b610c47565b6001611db8620f4240611cb1565b9401610ea2565b611dc96009611c64565b90610ed6565b610c47565b565b50611ddf611383565b90565b7f2eec39e2b6bcfb5f1ee2be0b6e9d5a470a45585b1e2f7f291af9fb9f551763d090565b611e0e611de2565b90565b90565b611e2c6000611e3192611e25611383565b5001611e11565b612375565b90565b611e40611e4591610eee565b610c28565b90565b611e6e91611e646000611e6993611e5d611383565b5001611e11565b6123f3565b611e34565b90565b611e80611e86919392936101c3565b926101c3565b8203918211611e9157565b611546565b60018060401b038111611eb257611eae602091610dba565b0190565b610dc4565b90611ec9611ec483611e96565b610e01565b918252565b611ed86000611eb7565b90565b611ee3611ece565b90565b60071115611ef057565b610d61565b90611eff82611ee6565b565b611f0a90611ef5565b90565b5190565b60209181520190565b60005b838110611f2e575050906000910152565b806020918301518185015201611f1d565b611f5e611f67602093611f6c93611f5581611f0d565b93848093611f11565b95869101611f1a565b610dba565b0190565b91611f9492611f876040820193600083019061088a565b6020818403910152611f3f565b90565b611fd7611fdf91949394611fd285611fcc611fbd6000611fb5612439565b018890610bf3565b91611fc783610f0b565b611e71565b90610c47565b61183b565b848491612499565b916006909192611fed611edb565b61202961202361201d7fa5a40b103c251a8a92f4f0417a34aa5561df1cb24587a7366483504d6707648b94610bd7565b94611f01565b94611424565b9461203e612035610173565b92839283611f70565b0390a4565b6120748361206e61205f6001612057612439565b018590610bf3565b9161206983610f0b565b611e71565b90610c47565b6120a58361209f6120906000612088612439565b018590610bf3565b9161209a83610f0b565b61155c565b90610c47565b60019192936120e66120e06120da7fa5a40b103c251a8a92f4f0417a34aa5561df1cb24587a7366483504d6707648b94610bd7565b94611f01565b94611424565b946120fb6120f2610173565b92839283611f70565b0390a4565b61211691602082019160008184039101526105c0565b90565b6121366121316000612129612439565b018390610bf3565b610f0b565b83612149612143836101c3565b916101c3565b11612236575b506121818361217b61216c6000612164612439565b018590610bf3565b9161217683610f0b565b611e71565b90610c47565b6121b2836121ac61219d6001612195612439565b018590610bf3565b916121a783610f0b565b61155c565b90610c47565b6121d16121e060009394956121c5610173565b92839160208301612100565b60208201810382520382610dda565b61221c6122166122107fa5a40b103c251a8a92f4f0417a34aa5561df1cb24587a7366483504d6707648b94610bd7565b94611f01565b94611424565b94612231612228610173565b92839283611f70565b0390a4565b909250913861214f565b3561224a81610260565b90565b35612257816101c6565b90565b356122648161037a565b90565b35612271816103a3565b90565b6122bd6122c392612283610d5c565b5061229060808401612240565b906122aa60406122a3610120870161224d565b920161225a565b906122b760a08601612267565b92611c0b565b9061257c565b90565b6122d0905161031f565b90565b6122e26122e89193929361031f565b9261031f565b8083019260008285121581831216928512911215161761230457565b611546565b90612312610c92565b9161231d6000611059565b925b8361233a61233461232f85610589565b6101c3565b916101c3565b101561236c576123606123669161235a612355858890611039565b6122c6565b906122d3565b9361148f565b9261231f565b925050565b5490565b600061238a91612383611383565b5001612371565b90565b600090565b600052602060002090565b6123a681612371565b8210156123c1576123b8600191612392565b91020190600090565b610f18565b1c90565b90565b6123dd9060086123e293026123c6565b6123ca565b90565b906123f091546123cd565b90565b61241291600061240c9261240561238d565b500161239d565b906123e5565b90565b7f4487c6deafb3b968c18f689f85fbb6df4ca91ac06c46b27d8f8dd3839c79c8c990565b612441612415565b90565b63ffffffff1690565b63ffffffff60e01b1690565b61246d61246861247292612444565b6114de565b61244d565b90565b9160206124979294936124906040820196600083019061185f565b019061088a565b565b906124e06124e5936124d1600494936124b863a9059cbb919391612459565b926124c1610173565b9687946020860190815201612475565b60208201810382520383610dda565b612870565b565b6124fb6124f6612500926101c3565b610bd4565b61031f565b90565b6003111561250d57565b600080fd5b6003111561251c57565b610d61565b9061252b82612512565b565b3561253781612503565b90565b3561254481610760565b90565b61255661255c919392936101c3565b926101c3565b916125688382026101c3565b92818404149015171561257757565b611546565b612584610d5c565b506125c46125a261259d612598600c610d92565b610d9e565b610fb2565b926125bf846125b96125b46002610d92565b610d9e565b90611039565b611075565b6125d1610120820161224d565b6125e46125de6000611059565b916101c3565b1480612804575b612800576125fb60c08201612267565b6000146127115761265a61263961263461261760808501612240565b612624610120860161224d565b61262e6000610d92565b91612909565b6124e7565b6126558461264f61264a6000610d92565b610d9e565b90611039565b611075565b5b6126686102a0820161253a565b61267b6126756000610e77565b9161075a565b11612685575b5090565b6126ea6126e561270b926126df6126da6102a06126d36126ce6126be60066126ab611bf4565b016126b860808901612240565b90610ea2565b6126c86003610d92565b90610ed6565b610f0b565b930161253a565b610d9e565b90612547565b6124e7565b612706836127006126fb6003610d92565b610d9e565b90611039565b611075565b38612681565b61276961274861274361272660808501612240565b612733610120860161224d565b61273d6001610d92565b91612909565b6124e7565b6127648461275e6127596001610d92565b610d9e565b90611039565b611075565b612776610240820161252d565b6127896127836001612521565b91612521565b14612794575b61265b565b6127fb6127da6127d56127d06127c060066127ad611bf4565b016127ba60808801612240565b90610ea2565b6127ca6004610d92565b90610ed6565b610f0b565b6124e7565b6127f6846127f06127eb6004610d92565b610d9e565b90611039565b611075565b61278f565b5090565b50612812610160820161224d565b61282561281f6000611059565b916101c3565b14156125eb565b90505190612839826103a3565b565b90602082820312612855576128529160000161282c565b90565b61017e565b919061286e9060006020850194019061185f565b565b906128839061287e83611847565b612979565b61288c81611f0d565b61289f6128996000611059565b916101c3565b141590816128de575b506128b05750565b6128bc6128da91611847565b6128c4610173565b918291635274afe760e01b83526004830161285a565b0390fd5b61290391506128fd9060206128f282611f0d565b81830101910161283b565b1561039e565b386128a8565b612911611383565b50816129266129206000611059565b916101c3565b14612964576129566129516129619461294c61295b946006612946611bf4565b01610ea2565b610ed6565b610f0b565b61299b565b906129d2565b90565b5050506129716000611059565b90565b606090565b9061299891612986612974565b50906129926000611059565b91612a56565b90565b6129a3611383565b50806129b86129b26000611059565b916101c3565b146000146129cd57506129c9611c39565b5b90565b6129ca565b6129da611383565b50816302faf080600019030481111582151715612a03576305f5e100916302faf0809102010490565b600080fd5b612a1190611418565b90565b90612a26612a2183611895565b610e01565b918252565b3d600014612a4857612a3c3d612a14565b903d6000602084013e5b565b612a50612974565b90612a46565b9091612a60612974565b50612a6a30612a08565b31612a7d612a77836101c3565b916101c3565b10612aaa5760008091612aa7948491602082019151925af190612a9e612a2b565b90919091612ad8565b90565b612ad4612ab630612a08565b612abe610173565b91829163cd78605960e01b83526004830161285a565b0390fd5b90612aec90612ae5612974565b501561039e565b600014612af95750612b66565b612b0282611f0d565b612b15612b0f6000611059565b916101c3565b1480612b4a575b612b24575090565b612b4690612b30610173565b918291639996b31560e01b83526004830161285a565b0390fd5b50803b612b60612b5a6000611059565b916101c3565b14612b1c565b612b6f81611f0d565b612b82612b7c6000611059565b916101c3565b11600014612b9257805190602001fd5b612b9a610173565b630a12f52160e11b815280612bb160048201610225565b0390fdfea264697066735822122081b29d8198f2fbfad91a408a5c474f9792de2ef06ded7109a3b324e460a6f73164736f6c63430008180033",
  "devdoc": {
    "errors": {
      "AddressEmptyCode(address)": [
        {
          "details": "There's no code at `target` (it is not a contract)."
        }
      ],
      "AddressInsufficientBalance(address)": [
        {
          "details": "The ETH balance of the account is not enough to perform the operation."
        }
      ],
      "FailedInnerCall()": [
        {
          "details": "A call to an address target failed. The target may have reverted."
        }
      ],
      "SafeERC20FailedOperation(address)": [
        {
          "details": "An operation with an ERC20 token failed."
        }
      ]
    },
    "kind": "dev",
    "methods": {},
    "version": 1
  },
  "userdoc": {
    "kind": "user",
    "methods": {},
    "version": 1
  },
  "storageLayout": {
    "storage": [],
    "types": null
  }
}