{
  "address": "0xdc6d2c76178bF3c56f5d7c5122a6D26db03b76EE",
  "abi": [
    {
      "inputs": [
        {
          "internalType": "address",
          "name": "authority",
          "type": "address"
        }
      ],
      "name": "AccessManagedInvalidAuthority",
      "type": "error"
    },
    {
      "inputs": [
        {
          "internalType": "address",
          "name": "caller",
          "type": "address"
        },
        {
          "internalType": "uint32",
          "name": "delay",
          "type": "uint32"
        }
      ],
      "name": "AccessManagedRequiredDelay",
      "type": "error"
    },
    {
      "inputs": [
        {
          "internalType": "address",
          "name": "caller",
          "type": "address"
        }
      ],
      "name": "AccessManagedUnauthorized",
      "type": "error"
    },
    {
      "inputs": [
        {
          "internalType": "address",
          "name": "target",
          "type": "address"
        }
      ],
      "name": "AddressEmptyCode",
      "type": "error"
    },
    {
      "inputs": [
        {
          "internalType": "address",
          "name": "account",
          "type": "address"
        }
      ],
      "name": "AddressInsufficientBalance",
      "type": "error"
    },
    {
      "inputs": [],
      "name": "FailedInnerCall",
      "type": "error"
    },
    {
      "inputs": [
        {
          "internalType": "address",
          "name": "token",
          "type": "address"
        }
      ],
      "name": "SafeERC20FailedOperation",
      "type": "error"
    },
    {
      "inputs": [
        {
          "internalType": "bytes",
          "name": "data",
          "type": "bytes"
        }
      ],
      "name": "addMarket",
      "outputs": [],
      "stateMutability": "nonpayable",
      "type": "function"
    },
    {
      "inputs": [
        {
          "internalType": "address",
          "name": "market",
          "type": "address"
        },
        {
          "internalType": "address",
          "name": "account",
          "type": "address"
        },
        {
          "internalType": "bool",
          "name": "isLong",
          "type": "bool"
        }
      ],
      "name": "availableLiquidity",
      "outputs": [
        {
          "internalType": "uint256",
          "name": "",
          "type": "uint256"
        }
      ],
      "stateMutability": "view",
      "type": "function"
    },
    {
      "inputs": [
        {
          "internalType": "uint16",
          "name": "marketId",
          "type": "uint16"
        }
      ],
      "name": "containsMarket",
      "outputs": [
        {
          "internalType": "bool",
          "name": "",
          "type": "bool"
        }
      ],
      "stateMutability": "view",
      "type": "function"
    },
    {
      "inputs": [
        {
          "internalType": "uint256",
          "name": "amount",
          "type": "uint256"
        },
        {
          "internalType": "uint8",
          "name": "collateralTokenDigits",
          "type": "uint8"
        }
      ],
      "name": "formatCollateral",
      "outputs": [
        {
          "internalType": "uint256",
          "name": "",
          "type": "uint256"
        }
      ],
      "stateMutability": "pure",
      "type": "function"
    },
    {
      "inputs": [
        {
          "internalType": "address",
          "name": "vault",
          "type": "address"
        }
      ],
      "name": "getGlobalPnl",
      "outputs": [
        {
          "internalType": "int256",
          "name": "",
          "type": "int256"
        }
      ],
      "stateMutability": "view",
      "type": "function"
    },
    {
      "inputs": [
        {
          "internalType": "uint16",
          "name": "market",
          "type": "uint16"
        }
      ],
      "name": "getMarket",
      "outputs": [
        {
          "internalType": "bytes",
          "name": "result",
          "type": "bytes"
        }
      ],
      "stateMutability": "view",
      "type": "function"
    },
    {
      "inputs": [],
      "name": "getMarkets",
      "outputs": [
        {
          "internalType": "bytes",
          "name": "result",
          "type": "bytes"
        }
      ],
      "stateMutability": "view",
      "type": "function"
    },
    {
      "inputs": [],
      "name": "getUSDDecimals",
      "outputs": [
        {
          "internalType": "uint8",
          "name": "",
          "type": "uint8"
        }
      ],
      "stateMutability": "pure",
      "type": "function"
    },
    {
      "inputs": [
        {
          "internalType": "uint16",
          "name": "market",
          "type": "uint16"
        },
        {
          "internalType": "address",
          "name": "account",
          "type": "address"
        },
        {
          "internalType": "bool",
          "name": "isLong",
          "type": "bool"
        }
      ],
      "name": "isLiquidate",
      "outputs": [],
      "stateMutability": "view",
      "type": "function"
    },
    {
      "inputs": [
        {
          "internalType": "uint16",
          "name": "market",
          "type": "uint16"
        }
      ],
      "name": "markeConfig",
      "outputs": [
        {
          "components": [
            {
              "internalType": "bool",
              "name": "isSuspended",
              "type": "bool"
            },
            {
              "internalType": "bool",
              "name": "allowOpen",
              "type": "bool"
            },
            {
              "internalType": "bool",
              "name": "allowClose",
              "type": "bool"
            },
            {
              "internalType": "bool",
              "name": "validDecrease",
              "type": "bool"
            },
            {
              "internalType": "uint16",
              "name": "minSlippage",
              "type": "uint16"
            },
            {
              "internalType": "uint16",
              "name": "maxSlippage",
              "type": "uint16"
            },
            {
              "internalType": "uint16",
              "name": "minLeverage",
              "type": "uint16"
            },
            {
              "internalType": "uint16",
              "name": "maxLeverage",
              "type": "uint16"
            },
            {
              "internalType": "uint16",
              "name": "minPayment",
              "type": "uint16"
            },
            {
              "internalType": "uint16",
              "name": "minCollateral",
              "type": "uint16"
            },
            {
              "internalType": "uint16",
              "name": "decreaseNumLimit",
              "type": "uint16"
            },
            {
              "internalType": "uint32",
              "name": "maxTradeAmount",
              "type": "uint32"
            }
          ],
          "internalType": "struct MarketHandler.Props",
          "name": "_config",
          "type": "tuple"
        }
      ],
      "stateMutability": "view",
      "type": "function"
    },
    {
      "inputs": [
        {
          "internalType": "uint256",
          "name": "amount",
          "type": "uint256"
        },
        {
          "internalType": "uint8",
          "name": "originDigits",
          "type": "uint8"
        }
      ],
      "name": "parseVaultAsset",
      "outputs": [
        {
          "internalType": "uint256",
          "name": "",
          "type": "uint256"
        }
      ],
      "stateMutability": "pure",
      "type": "function"
    },
    {
      "inputs": [
        {
          "internalType": "int256",
          "name": "amount",
          "type": "int256"
        },
        {
          "internalType": "uint8",
          "name": "collateralTokenDigits",
          "type": "uint8"
        }
      ],
      "name": "parseVaultAssetSigned",
      "outputs": [
        {
          "internalType": "int256",
          "name": "",
          "type": "int256"
        }
      ],
      "stateMutability": "pure",
      "type": "function"
    },
    {
      "inputs": [
        {
          "internalType": "uint16",
          "name": "marketId",
          "type": "uint16"
        }
      ],
      "name": "removeMarket",
      "outputs": [],
      "stateMutability": "nonpayable",
      "type": "function"
    },
    {
      "inputs": [
        {
          "internalType": "uint16",
          "name": "market",
          "type": "uint16"
        },
        {
          "components": [
            {
              "internalType": "bool",
              "name": "isSuspended",
              "type": "bool"
            },
            {
              "internalType": "bool",
              "name": "allowOpen",
              "type": "bool"
            },
            {
              "internalType": "bool",
              "name": "allowClose",
              "type": "bool"
            },
            {
              "internalType": "bool",
              "name": "validDecrease",
              "type": "bool"
            },
            {
              "internalType": "uint16",
              "name": "minSlippage",
              "type": "uint16"
            },
            {
              "internalType": "uint16",
              "name": "maxSlippage",
              "type": "uint16"
            },
            {
              "internalType": "uint16",
              "name": "minLeverage",
              "type": "uint16"
            },
            {
              "internalType": "uint16",
              "name": "maxLeverage",
              "type": "uint16"
            },
            {
              "internalType": "uint16",
              "name": "minPayment",
              "type": "uint16"
            },
            {
              "internalType": "uint16",
              "name": "minCollateral",
              "type": "uint16"
            },
            {
              "internalType": "uint16",
              "name": "decreaseNumLimit",
              "type": "uint16"
            },
            {
              "internalType": "uint32",
              "name": "maxTradeAmount",
              "type": "uint32"
            }
          ],
          "internalType": "struct MarketHandler.Props",
          "name": "data",
          "type": "tuple"
        }
      ],
      "name": "setConf",
      "outputs": [],
      "stateMutability": "nonpayable",
      "type": "function"
    },
    {
      "inputs": [
        {
          "internalType": "address",
          "name": "tokenAddress",
          "type": "address"
        },
        {
          "internalType": "address",
          "name": "_from",
          "type": "address"
        },
        {
          "internalType": "address",
          "name": "_to",
          "type": "address"
        },
        {
          "internalType": "uint256",
          "name": "_tokenAmount",
          "type": "uint256"
        }
      ],
      "name": "transferIn",
      "outputs": [],
      "stateMutability": "nonpayable",
      "type": "function"
    },
    {
      "inputs": [
        {
          "internalType": "address",
          "name": "tokenAddress",
          "type": "address"
        },
        {
          "internalType": "address",
          "name": "_to",
          "type": "address"
        },
        {
          "internalType": "uint256",
          "name": "_tokenAmount",
          "type": "uint256"
        }
      ],
      "name": "transferOut",
      "outputs": [],
      "stateMutability": "nonpayable",
      "type": "function"
    },
    {
      "inputs": [],
      "name": "usdDecimals",
      "outputs": [
        {
          "internalType": "uint8",
          "name": "",
          "type": "uint8"
        }
      ],
      "stateMutability": "view",
      "type": "function"
    }
  ],
  "transactionHash": "0xefea5e85ac6dcbd48ea4619001d45cabd4cea361f8d4d720ee385a3b34139f8e",
  "args": [],
  "numDeployments": 1,
  "solcInputHash": "bdd3f75851e051eb1462ab83403a0cb0",
  "bytecode": "0x608060405234801561001057600080fd5b50613fad806100206000396000f3fe608060405234801561001057600080fd5b50600436106100db5760003560e01c8063078d3b79146100e057806313a30013146100fc5780634fe0ae5e1461012c57806366a4b6c014610148578063735a28851461016657806379eba70914610196578063812b2f93146101c65780639823bc9b146101f6578063afc126ed14610226578063b0a3961a14610242578063b51b8de014610272578063bb715a851461028e578063cc55e9d1146102ac578063dd22378d146102dc578063e36b20c5146102f8578063e3bd030d14610314578063ec2c901614610344575b600080fd5b6100fa60048036038101906100f591906126c3565b610362565b005b61011660048036038101906101119190612750565b61041c565b604051610123919061280d565b60405180910390f35b6101466004803603810190610141919061282f565b610423565b005b6101506104dd565b60405161015d91906128b2565b60405180910390f35b610180600480360381019061017b9190612905565b6104e2565b60405161018d9190612967565b60405180910390f35b6101b060048036038101906101ab9190612750565b6104eb565b6040516101bd9190612ab5565b60405180910390f35b6101e060048036038101906101db9190612afd565b61069c565b6040516101ed9190612967565b60405180910390f35b610210600480360381019061020b9190612afd565b6106d9565b60405161021d9190612967565b60405180910390f35b610240600480360381019061023b9190612d0b565b610716565b005b61025c60048036038101906102579190612d4c565b6108e2565b6040516102699190612d92565b60405180910390f35b61028c60048036038101906102879190612e12565b6109b4565b005b61029661109b565b6040516102a391906128b2565b60405180910390f35b6102c660048036038101906102c19190612750565b6110a4565b6040516102d39190612e6e565b60405180910390f35b6102f660048036038101906102f19190612e89565b611153565b005b610312600480360381019061030d9190612750565b611158565b005b61032e60048036038101906103299190612f08565b611251565b60405161033b9190612d92565b60405180910390f35b61034c611291565b604051610359919061280d565b60405180910390f35b60008103156104175760008390506103e8828573ffffffffffffffffffffffffffffffffffffffff1663313ce5676040518163ffffffff1660e01b8152600401602060405180830381865afa1580156103bf573d6000803e3d6000fd5b505050506040513d601f19601f820116820180604052508101906103e39190612f5d565b61069c565b915061041583838373ffffffffffffffffffffffffffffffffffffffff166112969092919063ffffffff16565b505b505050565b6060919050565b60008103156104d75760008490506104d584846104ae858973ffffffffffffffffffffffffffffffffffffffff1663313ce5676040518163ffffffff1660e01b8152600401602060405180830381865afa158015610485573d6000803e3d6000fd5b505050506040513d601f19601f820116820180604052508101906104a99190612f5d565b61069c565b8473ffffffffffffffffffffffffffffffffffffffff16611315909392919063ffffffff16565b505b50505050565b601281565b60009392505050565b6104f361252d565b6104fb611397565b60010160008361ffff1661ffff168152602001908152602001600020604051806101800160405290816000820160009054906101000a900460ff161515151581526020016000820160019054906101000a900460ff161515151581526020016000820160029054906101000a900460ff161515151581526020016000820160039054906101000a900460ff161515151581526020016000820160049054906101000a900461ffff1661ffff1661ffff1681526020016000820160069054906101000a900461ffff1661ffff1661ffff1681526020016000820160089054906101000a900461ffff1661ffff1661ffff16815260200160008201600a9054906101000a900461ffff1661ffff1661ffff16815260200160008201600c9054906101000a900461ffff1661ffff1661ffff16815260200160008201600e9054906101000a900461ffff1661ffff1661ffff1681526020016000820160109054906101000a900461ffff1661ffff1661ffff1681526020016000820160129054906101000a900463ffffffff1663ffffffff1663ffffffff16815250509050919050565b60006012600a6106ac91906130ec565b8260ff16600a6106bc9190613137565b846106c79190613182565b6106d191906131f3565b905092915050565b600081600a6106e891906130ec565b601260ff16600a6106f99190613137565b846107049190613182565b61070e91906131f3565b905092915050565b8061071f611397565b60010160008461ffff1661ffff16815260200190815260200160002060008201518160000160006101000a81548160ff02191690831515021790555060208201518160000160016101000a81548160ff02191690831515021790555060408201518160000160026101000a81548160ff02191690831515021790555060608201518160000160036101000a81548160ff02191690831515021790555060808201518160000160046101000a81548161ffff021916908361ffff16021790555060a08201518160000160066101000a81548161ffff021916908361ffff16021790555060c08201518160000160086101000a81548161ffff021916908361ffff16021790555060e082015181600001600a6101000a81548161ffff021916908361ffff16021790555061010082015181600001600c6101000a81548161ffff021916908361ffff16021790555061012082015181600001600e6101000a81548161ffff021916908361ffff1602179055506101408201518160000160106101000a81548161ffff021916908361ffff1602179055506101608201518160000160126101000a81548163ffffffff021916908363ffffffff1602179055509050505050565b6000806108ed611397565b60060160008473ffffffffffffffffffffffffffffffffffffffff1673ffffffffffffffffffffffffffffffffffffffff1681526020019081526020016000209050600061093a826113c4565b90506000805b82518110156109a857600083828151811061095e5761095d613224565b5b60200260200101519050610987816109778360016113e5565b6109828460006113e5565b611408565b836109929190613253565b92505080806109a090613297565b915050610940565b50809350505050919050565b600080600080600086868101906109cb91906133d2565b94509450945094509450836109de611397565b60020160008761ffff1661ffff1681526020019081526020016000209081610a069190613681565b50600073ffffffffffffffffffffffffffffffffffffffff168273ffffffffffffffffffffffffffffffffffffffff1603610b11578273ffffffffffffffffffffffffffffffffffffffff166338d52e0f6040518163ffffffff1660e01b8152600401602060405180830381865afa158015610a86573d6000803e3d6000fd5b505050506040513d601f19601f82011682018060405250810190610aaa9190613768565b610ab2611397565b60040160008761ffff1661ffff16815260200190815260200160002060006101000a81548173ffffffffffffffffffffffffffffffffffffffff021916908373ffffffffffffffffffffffffffffffffffffffff160217905550610b75565b81610b1a611397565b60040160008761ffff1661ffff16815260200190815260200160002060006101000a81548173ffffffffffffffffffffffffffffffffffffffff021916908373ffffffffffffffffffffffffffffffffffffffff1602179055505b6000610bd58661ffff16610b87611397565b60060160008773ffffffffffffffffffffffffffffffffffffffff1673ffffffffffffffffffffffffffffffffffffffff16815260200190815260200160002061143d90919063ffffffff16565b905080610c17576040517f08c379a0000000000000000000000000000000000000000000000000000000008152600401610c0e90613818565b60405180910390fd5b83610c20611397565b60030160008861ffff1661ffff16815260200190815260200160002060006101000a81548173ffffffffffffffffffffffffffffffffffffffff021916908373ffffffffffffffffffffffffffffffffffffffff160217905550604051806101800160405280600015158152602001600115158152602001600115158152602001600115158152602001600061ffff168152602001606461ffff168152602001600161ffff168152602001606461ffff168152602001600061ffff168152602001600061ffff168152602001600a61ffff168152602001600063ffffffff16815250610d0a611397565b60010160008861ffff1661ffff16815260200190815260200160002060008201518160000160006101000a81548160ff02191690831515021790555060208201518160000160016101000a81548160ff02191690831515021790555060408201518160000160026101000a81548160ff02191690831515021790555060608201518160000160036101000a81548160ff02191690831515021790555060808201518160000160046101000a81548161ffff021916908361ffff16021790555060a08201518160000160066101000a81548161ffff021916908361ffff16021790555060c08201518160000160086101000a81548161ffff021916908361ffff16021790555060e082015181600001600a6101000a81548161ffff021916908361ffff16021790555061010082015181600001600c6101000a81548161ffff021916908361ffff16021790555061012082015181600001600e6101000a81548161ffff021916908361ffff1602179055506101408201518160000160106101000a81548161ffff021916908361ffff1602179055506101608201518160000160126101000a81548163ffffffff021916908363ffffffff16021790555090505081610ed2611397565b60010160008861ffff1661ffff16815260200190815260200160002060008201518160000160006101000a81548160ff02191690831515021790555060208201518160000160016101000a81548160ff02191690831515021790555060408201518160000160026101000a81548160ff02191690831515021790555060608201518160000160036101000a81548160ff02191690831515021790555060808201518160000160046101000a81548161ffff021916908361ffff16021790555060a08201518160000160066101000a81548161ffff021916908361ffff16021790555060c08201518160000160086101000a81548161ffff021916908361ffff16021790555060e082015181600001600a6101000a81548161ffff021916908361ffff16021790555061010082015181600001600c6101000a81548161ffff021916908361ffff16021790555061012082015181600001600e6101000a81548161ffff021916908361ffff1602179055506101408201518160000160106101000a81548161ffff021916908361ffff1602179055506101608201518160000160126101000a81548163ffffffff021916908363ffffffff1602179055509050505050505050505050565b60006012905090565b6000806110af611397565b905060008160030160008561ffff1661ffff16815260200190815260200160002060009054906101000a900473ffffffffffffffffffffffffffffffffffffffff16905061114a8461ffff168360060160008473ffffffffffffffffffffffffffffffffffffffff1673ffffffffffffffffffffffffffffffffffffffff16815260200190815260200160002061145790919063ffffffff16565b92505050919050565b505050565b6000611162611397565b905060008160030160008461ffff1661ffff16815260200190815260200160002060009054906101000a900473ffffffffffffffffffffffffffffffffffffffff1690506112048361ffff166111b6611397565b60060160008473ffffffffffffffffffffffffffffffffffffffff1673ffffffffffffffffffffffffffffffffffffffff16815260200190815260200160002061147190919063ffffffff16565b5061120d611397565b60030160008461ffff1661ffff16815260200190815260200160002060006101000a81549073ffffffffffffffffffffffffffffffffffffffff0219169055505050565b6000601260ff16600a6112649190613137565b8260ff16600a6112749190613137565b8461127f9190613838565b61128991906138b0565b905092915050565b606090565b611310838473ffffffffffffffffffffffffffffffffffffffff1663a9059cbb85856040516024016112c9929190613929565b604051602081830303815290604052915060e01b6020820180517bffffffffffffffffffffffffffffffffffffffffffffffffffffffff838183161783525050505061148b565b505050565b611391848573ffffffffffffffffffffffffffffffffffffffff166323b872dd86868660405160240161134a93929190613952565b604051602081830303815290604052915060e01b6020820180517bffffffffffffffffffffffffffffffffffffffffffffffffffffffff838183161783525050505061148b565b50505050565b6000807f2eec39e2b6bcfb5f1ee2be0b6e9d5a470a45585b1e2f7f291af9fb9f551763d090508091505090565b606060006113d483600001611522565b905060608190508092505050919050565b6000806113f2848461157e565b90506113ff848285611637565b91505092915050565b600080611417858560016117cd565b9050611425858460006117cd565b816114309190613253565b9050809150509392505050565b600061144f836000018360001b611837565b905092915050565b6000611469836000018360001b6118a7565b905092915050565b6000611483836000018360001b6118ca565b905092915050565b60006114b6828473ffffffffffffffffffffffffffffffffffffffff166119de90919063ffffffff16565b905060008151141580156114db5750808060200190518101906114d9919061399e565b155b1561151d57826040517f5274afe700000000000000000000000000000000000000000000000000000000815260040161151491906139cb565b60405180910390fd5b505050565b60608160000180548060200260200160405190810160405280929190818152602001828054801561157257602002820191906000526020600020905b81548152602001906001019080831161155e575b50505050509050919050565b60008061158b84846119f4565b9050600061159985856119f4565b90506c0c9f2c9cd04674edea400000007fffffffffffffffffffffffffffffffffffffffffffffffffffffffffffffffff6115d491906131f3565b82101561160857806c0c9f2c9cd04674edea40000000836115f59190613182565b6115ff91906131f3565b92505050611631565b806c0c9f2c9cd04674edea400000008361162291906131f3565b61162c9190613182565b925050505b92915050565b600080611642611f81565b60060160008661ffff1661ffff16815260200190815260200160002060000160149054906101000a900463ffffffff1663ffffffff1690506000611684611f81565b60040160008761ffff1661ffff1681526020019081526020016000205490506116ab611f81565b60010160000160089054906101000a900463ffffffff1663ffffffff16826116d391906139e6565b42118061170e57506116e3611f81565b60010160000160049054906101000a900463ffffffff1663ffffffff168261170b91906139e6565b42115b806117195750600081145b156117285784925050506117c6565b600081861161174257858261173d9190613a1a565b61174f565b818661174e9190613a1a565b5b905085612710826117609190613182565b61176a91906131f3565b905061177587611fae565b80156117a55750611784611f81565b60010160000160009054906101000a900463ffffffff1663ffffffff168111155b156117b5578193505050506117c6565b6117c086838761201b565b93505050505b9392505050565b6000806117e26117dd868561204f565b612084565b905060008160000151036117fa576000915050611830565b600080611810868461218390919063ffffffff16565b9150915081611828578061182390613a4e565b61182a565b805b93505050505b9392505050565b600061184383836118a7565b61189c5782600001829080600181540180825580915050600190039060005260206000200160009091909190915055826000018054905083600101600084815260200190815260200160002081905550600190506118a1565b600090505b92915050565b600080836001016000848152602001908152602001600020541415905092915050565b600080836001016000848152602001908152602001600020549050600081146119d25760006001826118fc9190613a1a565b90506000600186600001805490506119149190613a1a565b905080821461198357600086600001828154811061193557611934613224565b5b906000526020600020015490508087600001848154811061195957611958613224565b5b90600052602060002001819055508387600101600083815260200190815260200160002081905550505b8560000180548061199757611996613a96565b5b6001900381819060005260206000200160009055905585600101600086815260200190815260200160002060009055600193505050506119d8565b60009150505b92915050565b60606119ec83836000612212565b905092915050565b6000806119ff611f81565b60020160008561ffff1661ffff16815260200190815260200160002060009054906101000a900473ffffffffffffffffffffffffffffffffffffffff169050600073ffffffffffffffffffffffffffffffffffffffff168173ffffffffffffffffffffffffffffffffffffffff1603611aad576040517f08c379a0000000000000000000000000000000000000000000000000000000008152600401611aa490613b11565b60405180910390fd5b600080611ab8611f81565b60020160008761ffff1661ffff16815260200190815260200160002060009054906101000a900473ffffffffffffffffffffffffffffffffffffffff1673ffffffffffffffffffffffffffffffffffffffff1663668a0f026040518163ffffffff1660e01b8152600401602060405180830381865afa158015611b3f573d6000803e3d6000fd5b505050506040513d601f19601f82011682018060405250810190611b639190613b73565b905060005b611b70611f81565b60010160000160109054906101000a900463ffffffff1663ffffffff168169ffffffffffffffffffff161015611e47578069ffffffffffffffffffff168269ffffffffffffffffffff161115611e47576000808269ffffffffffffffffffff1603611cd8576000611bdf611f81565b60020160008a61ffff1661ffff16815260200190815260200160002060009054906101000a900473ffffffffffffffffffffffffffffffffffffffff1673ffffffffffffffffffffffffffffffffffffffff166350d25bcd6040518163ffffffff1660e01b8152600401602060405180830381865afa158015611c66573d6000803e3d6000fd5b505050506040513d601f19601f82011682018060405250810190611c8a9190613bb5565b905060008113611ccf576040517f08c379a0000000000000000000000000000000000000000000000000000000008152600401611cc690613c2e565b60405180910390fd5b80915050611df1565b6000611ce2611f81565b60020160008a61ffff1661ffff16815260200190815260200160002060009054906101000a900473ffffffffffffffffffffffffffffffffffffffff1673ffffffffffffffffffffffffffffffffffffffff16639a6fc8f58486611d469190613c4e565b6040518263ffffffff1660e01b8152600401611d629190613c9b565b60a060405180830381865afa158015611d7f573d6000803e3d6000fd5b505050506040513d601f19601f82011682018060405250810190611da39190613ccb565b50505091505060008113611dec576040517f08c379a0000000000000000000000000000000000000000000000000000000008152600401611de390613c2e565b60405180910390fd5b809150505b60008403611e025780935050611e34565b868015611e0e57508381115b15611e1c5780935050611e34565b86158015611e2957508381105b15611e32578093505b505b8080611e3f90613d46565b915050611b68565b5060008211611e8b576040517f08c379a0000000000000000000000000000000000000000000000000000000008152600401611e8290613dc4565b60405180910390fd5b6000611e95611f81565b60020160008861ffff1661ffff16815260200190815260200160002060009054906101000a900473ffffffffffffffffffffffffffffffffffffffff1673ffffffffffffffffffffffffffffffffffffffff1663313ce5676040518163ffffffff1660e01b8152600401602060405180830381865afa158015611f1c573d6000803e3d6000fd5b505050506040513d601f19601f82011682018060405250810190611f409190612f5d565b60ff16905080600a611f529190613137565b6c0c9f2c9cd04674edea4000000084611f6b9190613182565b611f7591906131f3565b94505050505092915050565b6000807f215c1de8a6459dcf0789cdceef063745b34797042fd1550737c0f263affdef6490508091505090565b6000806000611fbc846122df565b9350935050508181118015611fff5750611fd4611f81565b60050160008561ffff1661ffff168152602001908152602001600020548282611ffd9190613a1a565b115b1561200f57600092505050612016565b6001925050505b919050565b6000816120365782841061202f5782612031565b835b612046565b8284116120435782612045565b835b5b90509392505050565b60008183604051602001612064929190613e62565b60405160208183030381529060405261207c90613ebd565b905092915050565b61208c6125b8565b61209461242c565b60020160008381526020019081526020016000206040518061012001604052908160008201548152602001600182015481526020016002820154815260200160038201548152602001600482015481526020016005820160009054906101000a900460ff161515151581526020016005820160019054906101000a900463ffffffff1663ffffffff1663ffffffff1681526020016005820160059054906101000a900461ffff1661ffff1661ffff1681526020016005820160079054906101000a900468ffffffffffffffffff1668ffffffffffffffffff1668ffffffffffffffffff16815250509050919050565b6000806000838560800151116121a8578460800151846121a39190613a1a565b6121b9565b8385608001516121b89190613a1a565b5b9050600085608001518287600001516121d29190613182565b6121dc91906131f3565b905060008660a00151156121f857866080015186119050612202565b8587608001511190505b8082945094505050509250929050565b60608147101561225957306040517fcd78605900000000000000000000000000000000000000000000000000000000815260040161225091906139cb565b60405180910390fd5b6000808573ffffffffffffffffffffffffffffffffffffffff1684866040516122829190613f60565b60006040518083038185875af1925050503d80600081146122bf576040519150601f19603f3d011682016040523d82523d6000602084013e6122c4565b606091505b50915091506122d4868383612459565b925050509392505050565b60008060008060006122ef611f81565b60060160008761ffff1661ffff1681526020019081526020016000206040518060800160405290816000820160009054906101000a900473ffffffffffffffffffffffffffffffffffffffff1673ffffffffffffffffffffffffffffffffffffffff1673ffffffffffffffffffffffffffffffffffffffff1681526020016000820160149054906101000a900463ffffffff1663ffffffff1663ffffffff1681526020016000820160189054906101000a900463ffffffff1663ffffffff1663ffffffff16815260200160008201601c9054906101000a900463ffffffff1663ffffffff1663ffffffff16815250509050806000015173ffffffffffffffffffffffffffffffffffffffff16816020015163ffffffff16826040015163ffffffff16836060015163ffffffff169450945094509450509193509193565b6000807f92bcfabaf0a890def3092675474357e5f93a0f117ca63a3db421d44c5b55fba590508091505090565b60608261246e57612469826124e8565b6124e0565b60008251148015612496575060008473ffffffffffffffffffffffffffffffffffffffff163b145b156124d857836040517f9996b3150000000000000000000000000000000000000000000000000000000081526004016124cf91906139cb565b60405180910390fd5b8190506124e1565b5b9392505050565b6000815111156124fb5780518082602001fd5b6040517f1425ea4200000000000000000000000000000000000000000000000000000000815260040160405180910390fd5b604051806101800160405280600015158152602001600015158152602001600015158152602001600015158152602001600061ffff168152602001600061ffff168152602001600061ffff168152602001600061ffff168152602001600061ffff168152602001600061ffff168152602001600061ffff168152602001600063ffffffff1681525090565b6040518061012001604052806000815260200160008152602001600081526020016000815260200160008152602001600015158152602001600063ffffffff168152602001600061ffff168152602001600068ffffffffffffffffff1681525090565b6000604051905090565b600080fd5b600080fd5b600073ffffffffffffffffffffffffffffffffffffffff82169050919050565b600061265a8261262f565b9050919050565b61266a8161264f565b811461267557600080fd5b50565b60008135905061268781612661565b92915050565b6000819050919050565b6126a08161268d565b81146126ab57600080fd5b50565b6000813590506126bd81612697565b92915050565b6000806000606084860312156126dc576126db612625565b5b60006126ea86828701612678565b93505060206126fb86828701612678565b925050604061270c868287016126ae565b9150509250925092565b600061ffff82169050919050565b61272d81612716565b811461273857600080fd5b50565b60008135905061274a81612724565b92915050565b60006020828403121561276657612765612625565b5b60006127748482850161273b565b91505092915050565b600081519050919050565b600082825260208201905092915050565b60005b838110156127b757808201518184015260208101905061279c565b60008484015250505050565b6000601f19601f8301169050919050565b60006127df8261277d565b6127e98185612788565b93506127f9818560208601612799565b612802816127c3565b840191505092915050565b6000602082019050818103600083015261282781846127d4565b905092915050565b6000806000806080858703121561284957612848612625565b5b600061285787828801612678565b945050602061286887828801612678565b935050604061287987828801612678565b925050606061288a878288016126ae565b91505092959194509250565b600060ff82169050919050565b6128ac81612896565b82525050565b60006020820190506128c760008301846128a3565b92915050565b60008115159050919050565b6128e2816128cd565b81146128ed57600080fd5b50565b6000813590506128ff816128d9565b92915050565b60008060006060848603121561291e5761291d612625565b5b600061292c86828701612678565b935050602061293d86828701612678565b925050604061294e868287016128f0565b9150509250925092565b6129618161268d565b82525050565b600060208201905061297c6000830184612958565b92915050565b61298b816128cd565b82525050565b61299a81612716565b82525050565b600063ffffffff82169050919050565b6129b9816129a0565b82525050565b610180820160008201516129d66000850182612982565b5060208201516129e96020850182612982565b5060408201516129fc6040850182612982565b506060820151612a0f6060850182612982565b506080820151612a226080850182612991565b5060a0820151612a3560a0850182612991565b5060c0820151612a4860c0850182612991565b5060e0820151612a5b60e0850182612991565b50610100820151612a70610100850182612991565b50610120820151612a85610120850182612991565b50610140820151612a9a610140850182612991565b50610160820151612aaf6101608501826129b0565b50505050565b600061018082019050612acb60008301846129bf565b92915050565b612ada81612896565b8114612ae557600080fd5b50565b600081359050612af781612ad1565b92915050565b60008060408385031215612b1457612b13612625565b5b6000612b22858286016126ae565b9250506020612b3385828601612ae8565b9150509250929050565b600080fd5b7f4e487b7100000000000000000000000000000000000000000000000000000000600052604160045260246000fd5b612b7a826127c3565b810181811067ffffffffffffffff82111715612b9957612b98612b42565b5b80604052505050565b6000612bac61261b565b9050612bb88282612b71565b919050565b612bc6816129a0565b8114612bd157600080fd5b50565b600081359050612be381612bbd565b92915050565b60006101808284031215612c0057612bff612b3d565b5b612c0b610180612ba2565b90506000612c1b848285016128f0565b6000830152506020612c2f848285016128f0565b6020830152506040612c43848285016128f0565b6040830152506060612c57848285016128f0565b6060830152506080612c6b8482850161273b565b60808301525060a0612c7f8482850161273b565b60a08301525060c0612c938482850161273b565b60c08301525060e0612ca78482850161273b565b60e083015250610100612cbc8482850161273b565b61010083015250610120612cd28482850161273b565b61012083015250610140612ce88482850161273b565b61014083015250610160612cfe84828501612bd4565b6101608301525092915050565b6000806101a08385031215612d2357612d22612625565b5b6000612d318582860161273b565b9250506020612d4285828601612be9565b9150509250929050565b600060208284031215612d6257612d61612625565b5b6000612d7084828501612678565b91505092915050565b6000819050919050565b612d8c81612d79565b82525050565b6000602082019050612da76000830184612d83565b92915050565b600080fd5b600080fd5b600080fd5b60008083601f840112612dd257612dd1612dad565b5b8235905067ffffffffffffffff811115612def57612dee612db2565b5b602083019150836001820283011115612e0b57612e0a612db7565b5b9250929050565b60008060208385031215612e2957612e28612625565b5b600083013567ffffffffffffffff811115612e4757612e4661262a565b5b612e5385828601612dbc565b92509250509250929050565b612e68816128cd565b82525050565b6000602082019050612e836000830184612e5f565b92915050565b600080600060608486031215612ea257612ea1612625565b5b6000612eb08682870161273b565b9350506020612ec186828701612678565b9250506040612ed2868287016128f0565b9150509250925092565b612ee581612d79565b8114612ef057600080fd5b50565b600081359050612f0281612edc565b92915050565b60008060408385031215612f1f57612f1e612625565b5b6000612f2d85828601612ef3565b9250506020612f3e85828601612ae8565b9150509250929050565b600081519050612f5781612ad1565b92915050565b600060208284031215612f7357612f72612625565b5b6000612f8184828501612f48565b91505092915050565b7f4e487b7100000000000000000000000000000000000000000000000000000000600052601160045260246000fd5b60008160011c9050919050565b6000808291508390505b600185111561301057808604811115612fec57612feb612f8a565b5b6001851615612ffb5780820291505b808102905061300985612fb9565b9450612fd0565b94509492505050565b60008261302957600190506130e5565b8161303757600090506130e5565b816001811461304d576002811461305757613086565b60019150506130e5565b60ff84111561306957613068612f8a565b5b8360020a9150848211156130805761307f612f8a565b5b506130e5565b5060208310610133831016604e8410600b84101617156130bb5782820a9050838111156130b6576130b5612f8a565b5b6130e5565b6130c88484846001612fc6565b925090508184048111156130df576130de612f8a565b5b81810290505b9392505050565b60006130f78261268d565b915061310283612896565b925061312f7fffffffffffffffffffffffffffffffffffffffffffffffffffffffffffffffff8484613019565b905092915050565b60006131428261268d565b915061314d8361268d565b925061317a7fffffffffffffffffffffffffffffffffffffffffffffffffffffffffffffffff8484613019565b905092915050565b600061318d8261268d565b91506131988361268d565b92508282026131a68161268d565b915082820484148315176131bd576131bc612f8a565b5b5092915050565b7f4e487b7100000000000000000000000000000000000000000000000000000000600052601260045260246000fd5b60006131fe8261268d565b91506132098361268d565b925082613219576132186131c4565b5b828204905092915050565b7f4e487b7100000000000000000000000000000000000000000000000000000000600052603260045260246000fd5b600061325e82612d79565b915061326983612d79565b92508282019050828112156000831216838212600084121516171561329157613290612f8a565b5b92915050565b60006132a28261268d565b91507fffffffffffffffffffffffffffffffffffffffffffffffffffffffffffffffff82036132d4576132d3612f8a565b5b600182019050919050565b600080fd5b600067ffffffffffffffff8211156132ff576132fe612b42565b5b613308826127c3565b9050602081019050919050565b82818337600083830152505050565b6000613337613332846132e4565b612ba2565b905082815260208101848484011115613353576133526132df565b5b61335e848285613315565b509392505050565b600082601f83011261337b5761337a612dad565b5b813561338b848260208601613324565b91505092915050565b600061339f8261262f565b9050919050565b6133af81613394565b81146133ba57600080fd5b50565b6000813590506133cc816133a6565b92915050565b600080600080600061020086880312156133ef576133ee612625565b5b60006133fd8882890161273b565b955050602086013567ffffffffffffffff81111561341e5761341d61262a565b5b61342a88828901613366565b945050604061343b888289016133bd565b935050606061344c888289016133bd565b925050608061345d88828901612be9565b9150509295509295909350565b600081519050919050565b7f4e487b7100000000000000000000000000000000000000000000000000000000600052602260045260246000fd5b600060028204905060018216806134bc57607f821691505b6020821081036134cf576134ce613475565b5b50919050565b60008190508160005260206000209050919050565b60006020601f8301049050919050565b600082821b905092915050565b6000600883026135377fffffffffffffffffffffffffffffffffffffffffffffffffffffffffffffffff826134fa565b61354186836134fa565b95508019841693508086168417925050509392505050565b6000819050919050565b600061357e6135796135748461268d565b613559565b61268d565b9050919050565b6000819050919050565b61359883613563565b6135ac6135a482613585565b848454613507565b825550505050565b600090565b6135c16135b4565b6135cc81848461358f565b505050565b5b818110156135f0576135e56000826135b9565b6001810190506135d2565b5050565b601f82111561363557613606816134d5565b61360f846134ea565b8101602085101561361e578190505b61363261362a856134ea565b8301826135d1565b50505b505050565b600082821c905092915050565b60006136586000198460080261363a565b1980831691505092915050565b60006136718383613647565b9150826002028217905092915050565b61368a8261346a565b67ffffffffffffffff8111156136a3576136a2612b42565b5b6136ad82546134a4565b6136b88282856135f4565b600060209050601f8311600181146136eb57600084156136d9578287015190505b6136e38582613665565b86555061374b565b601f1984166136f9866134d5565b60005b82811015613721578489015182556001820191506020850194506020810190506136fc565b8683101561373e578489015161373a601f891682613647565b8355505b6001600288020188555050505b505050505050565b60008151905061376281612661565b92915050565b60006020828403121561377e5761377d612625565b5b600061378c84828501613753565b91505092915050565b600082825260208201905092915050565b7f4d61726b657446616365743a206d61726b657420616c7265616479206578697360008201527f7473000000000000000000000000000000000000000000000000000000000000602082015250565b6000613802602283613795565b915061380d826137a6565b604082019050919050565b60006020820190508181036000830152613831816137f5565b9050919050565b600061384382612d79565b915061384e83612d79565b925082820261385c81612d79565b91507f8000000000000000000000000000000000000000000000000000000000000000841460008412161561389457613893612f8a565b5b82820584148315176138a9576138a8612f8a565b5b5092915050565b60006138bb82612d79565b91506138c683612d79565b9250826138d6576138d56131c4565b5b600160000383147f80000000000000000000000000000000000000000000000000000000000000008314161561390f5761390e612f8a565b5b828205905092915050565b6139238161264f565b82525050565b600060408201905061393e600083018561391a565b61394b6020830184612958565b9392505050565b6000606082019050613967600083018661391a565b613974602083018561391a565b6139816040830184612958565b949350505050565b600081519050613998816128d9565b92915050565b6000602082840312156139b4576139b3612625565b5b60006139c284828501613989565b91505092915050565b60006020820190506139e0600083018461391a565b92915050565b60006139f18261268d565b91506139fc8361268d565b9250828201905080821115613a1457613a13612f8a565b5b92915050565b6000613a258261268d565b9150613a308361268d565b9250828203905081811115613a4857613a47612f8a565b5b92915050565b6000613a5982612d79565b91507f80000000000000000000000000000000000000000000000000000000000000008203613a8b57613a8a612f8a565b5b816000039050919050565b7f4e487b7100000000000000000000000000000000000000000000000000000000600052603160045260246000fd5b7f5072696365466565643a20696e76616c69642070726963652066656564000000600082015250565b6000613afb601d83613795565b9150613b0682613ac5565b602082019050919050565b60006020820190508181036000830152613b2a81613aee565b9050919050565b600069ffffffffffffffffffff82169050919050565b613b5081613b31565b8114613b5b57600080fd5b50565b600081519050613b6d81613b47565b92915050565b600060208284031215613b8957613b88612625565b5b6000613b9784828501613b5e565b91505092915050565b600081519050613baf81612edc565b92915050565b600060208284031215613bcb57613bca612625565b5b6000613bd984828501613ba0565b91505092915050565b7f5072696365466565643a20696e76616c69642070726963650000000000000000600082015250565b6000613c18601883613795565b9150613c2382613be2565b602082019050919050565b60006020820190508181036000830152613c4781613c0b565b9050919050565b6000613c5982613b31565b9150613c6483613b31565b9250828203905069ffffffffffffffffffff811115613c8657613c85612f8a565b5b92915050565b613c9581613b31565b82525050565b6000602082019050613cb06000830184613c8c565b92915050565b600081519050613cc581612697565b92915050565b600080600080600060a08688031215613ce757613ce6612625565b5b6000613cf588828901613b5e565b9550506020613d0688828901613ba0565b9450506040613d1788828901613cb6565b9350506060613d2888828901613cb6565b9250506080613d3988828901613b5e565b9150509295509295909350565b6000613d5182613b31565b915069ffffffffffffffffffff8203613d6d57613d6c612f8a565b5b600182019050919050565b7f5072696365466565643a20636f756c64206e6f74206665746368207072696365600082015250565b6000613dae602083613795565b9150613db982613d78565b602082019050919050565b60006020820190508181036000830152613ddd81613da1565b9050919050565b60008160f81b9050919050565b6000613dfc82613de4565b9050919050565b6000613e0e82613df1565b9050919050565b613e26613e21826128cd565b613e03565b82525050565b60008160f01b9050919050565b6000613e4482613e2c565b9050919050565b613e5c613e5782612716565b613e39565b82525050565b6000613e6e8285613e15565b600182019150613e7e8284613e4b565b6002820191508190509392505050565b6000819050602082019050919050565b6000819050919050565b6000613eb48251613e9e565b80915050919050565b6000613ec88261277d565b82613ed284613e8e565b9050613edd81613ea8565b92506020821015613f1d57613f187fffffffffffffffffffffffffffffffffffffffffffffffffffffffffffffffff836020036008026134fa565b831692505b5050919050565b600081905092915050565b6000613f3a8261277d565b613f448185613f24565b9350613f54818560208601612799565b80840191505092915050565b6000613f6c8284613f2f565b91508190509291505056fea2646970667358221220d2f22073d4b9a998189cf32a4ffc47a93ad460ec064c1444a15780e7bb31013164736f6c63430008140033",
  "devdoc": {
    "errors": {
      "AddressEmptyCode(address)": [
        {
          "details": "There's no code at `target` (it is not a contract)."
        }
      ],
      "AddressInsufficientBalance(address)": [
        {
          "details": "The ETH balance of the account is not enough to perform the operation."
        }
      ],
      "FailedInnerCall()": [
        {
          "details": "A call to an address target failed. The target may have reverted."
        }
      ],
      "SafeERC20FailedOperation(address)": [
        {
          "details": "An operation with an ERC20 token failed."
        }
      ]
    },
    "kind": "dev",
    "methods": {
      "formatCollateral(uint256,uint8)": {
        "details": "Formats the collateral amount by adjusting the number of decimal places.",
        "params": {
          "amount": "The original collateral amount. 18 decimals",
          "collateralTokenDigits": "The number of decimal places for the collateral token."
        },
        "returns": {
          "_0": "The formatted collateral amount."
        }
      },
      "getUSDDecimals()": {
        "details": "Retrieves the number of decimal places for USD.",
        "returns": {
          "_0": "The number of decimal places for USD."
        }
      },
      "parseVaultAsset(uint256,uint8)": {
        "details": "Parses the vault asset amount by adjusting the number of decimal places.",
        "params": {
          "amount": "The original asset amount in vault.",
          "originDigits": "The number of decimal places for the original asset."
        },
        "returns": {
          "_0": "The parsed vault asset amount."
        }
      },
      "parseVaultAssetSigned(int256,uint8)": {
        "details": "This library contains utility functions for transferring assets.",
        "params": {
          "amount": "The amount of assets to transfer in integer format with decimal precision.",
          "collateralTokenDigits": "The decimal precision of the collateral token."
        },
        "returns": {
          "_0": "The transferred asset amount converted to integer with decimal precision for the USD stablecoin. This function is internal and can only be accessed within the current contract or library."
        }
      },
      "transferIn(address,address,address,uint256)": {
        "details": "Transfers a specified amount of tokens from a given address to another address.",
        "params": {
          "_from": "The address from which the tokens will be transferred.",
          "_to": "The address to which the tokens will be transferred.",
          "_tokenAmount": "The amount of tokens to be transferred.",
          "tokenAddress": "The address of the token."
        }
      },
      "transferOut(address,address,uint256)": {
        "details": "Transfers a specified amount of tokens to a given address.",
        "params": {
          "_to": "The address to which the tokens will be transferred.",
          "_tokenAmount": "The amount of tokens to be transferred.",
          "tokenAddress": "The address of the token."
        }
      }
    },
    "version": 1
  },
  "userdoc": {
    "kind": "user",
    "methods": {},
    "version": 1
  },
  "storageLayout": {
    "storage": [],
    "types": null
  }
}