{
  "address": "0x962AedeBc774aA2Ba30f13f0b07111308CA90e0E",
  "abi": [
    {
      "inputs": [
        {
          "internalType": "address",
          "name": "authority",
          "type": "address"
        }
      ],
      "name": "AccessManagedInvalidAuthority",
      "type": "error"
    },
    {
      "inputs": [
        {
          "internalType": "address",
          "name": "caller",
          "type": "address"
        },
        {
          "internalType": "uint32",
          "name": "delay",
          "type": "uint32"
        }
      ],
      "name": "AccessManagedRequiredDelay",
      "type": "error"
    },
    {
      "inputs": [
        {
          "internalType": "address",
          "name": "caller",
          "type": "address"
        }
      ],
      "name": "AccessManagedUnauthorized",
      "type": "error"
    },
    {
      "inputs": [
        {
          "internalType": "address",
          "name": "target",
          "type": "address"
        }
      ],
      "name": "AddressEmptyCode",
      "type": "error"
    },
    {
      "inputs": [
        {
          "internalType": "address",
          "name": "account",
          "type": "address"
        }
      ],
      "name": "AddressInsufficientBalance",
      "type": "error"
    },
    {
      "inputs": [],
      "name": "FailedInnerCall",
      "type": "error"
    },
    {
      "inputs": [
        {
          "internalType": "address",
          "name": "token",
          "type": "address"
        }
      ],
      "name": "SafeERC20FailedOperation",
      "type": "error"
    },
    {
      "inputs": [
        {
          "internalType": "bytes",
          "name": "data",
          "type": "bytes"
        }
      ],
      "name": "addMarket",
      "outputs": [],
      "stateMutability": "nonpayable",
      "type": "function"
    },
    {
      "inputs": [
        {
          "internalType": "address",
          "name": "market",
          "type": "address"
        },
        {
          "internalType": "address",
          "name": "account",
          "type": "address"
        },
        {
          "internalType": "bool",
          "name": "isLong",
          "type": "bool"
        }
      ],
      "name": "availableLiquidity",
      "outputs": [
        {
          "internalType": "uint256",
          "name": "",
          "type": "uint256"
        }
      ],
      "stateMutability": "view",
      "type": "function"
    },
    {
      "inputs": [
        {
          "internalType": "uint16",
          "name": "marketId",
          "type": "uint16"
        }
      ],
      "name": "containsMarket",
      "outputs": [
        {
          "internalType": "bool",
          "name": "",
          "type": "bool"
        }
      ],
      "stateMutability": "view",
      "type": "function"
    },
    {
      "inputs": [
        {
          "internalType": "address",
          "name": "vault",
          "type": "address"
        }
      ],
      "name": "getGlobalPnl",
      "outputs": [
        {
          "internalType": "int256",
          "name": "",
          "type": "int256"
        }
      ],
      "stateMutability": "view",
      "type": "function"
    },
    {
      "inputs": [
        {
          "internalType": "uint16",
          "name": "market",
          "type": "uint16"
        }
      ],
      "name": "getMarket",
      "outputs": [
        {
          "internalType": "bytes",
          "name": "result",
          "type": "bytes"
        }
      ],
      "stateMutability": "view",
      "type": "function"
    },
    {
      "inputs": [],
      "name": "getMarkets",
      "outputs": [
        {
          "internalType": "bytes",
          "name": "result",
          "type": "bytes"
        }
      ],
      "stateMutability": "view",
      "type": "function"
    },
    {
      "inputs": [],
      "name": "getUSDDecimals",
      "outputs": [
        {
          "internalType": "uint8",
          "name": "",
          "type": "uint8"
        }
      ],
      "stateMutability": "pure",
      "type": "function"
    },
    {
      "inputs": [
        {
          "internalType": "uint16",
          "name": "market",
          "type": "uint16"
        },
        {
          "internalType": "address",
          "name": "account",
          "type": "address"
        },
        {
          "internalType": "bool",
          "name": "isLong",
          "type": "bool"
        }
      ],
      "name": "isLiquidate",
      "outputs": [],
      "stateMutability": "view",
      "type": "function"
    },
    {
      "inputs": [
        {
          "internalType": "uint16",
          "name": "market",
          "type": "uint16"
        }
      ],
      "name": "markeConfig",
      "outputs": [
        {
          "components": [
            {
              "internalType": "bool",
              "name": "isSuspended",
              "type": "bool"
            },
            {
              "internalType": "bool",
              "name": "allowOpen",
              "type": "bool"
            },
            {
              "internalType": "bool",
              "name": "allowClose",
              "type": "bool"
            },
            {
              "internalType": "bool",
              "name": "validDecrease",
              "type": "bool"
            },
            {
              "internalType": "uint16",
              "name": "minSlippage",
              "type": "uint16"
            },
            {
              "internalType": "uint16",
              "name": "maxSlippage",
              "type": "uint16"
            },
            {
              "internalType": "uint16",
              "name": "minLeverage",
              "type": "uint16"
            },
            {
              "internalType": "uint16",
              "name": "maxLeverage",
              "type": "uint16"
            },
            {
              "internalType": "uint16",
              "name": "minPayment",
              "type": "uint16"
            },
            {
              "internalType": "uint16",
              "name": "minCollateral",
              "type": "uint16"
            },
            {
              "internalType": "uint16",
              "name": "decreaseNumLimit",
              "type": "uint16"
            },
            {
              "internalType": "uint32",
              "name": "maxTradeAmount",
              "type": "uint32"
            }
          ],
          "internalType": "struct MarketHandler.Props",
          "name": "_config",
          "type": "tuple"
        }
      ],
      "stateMutability": "view",
      "type": "function"
    },
    {
      "inputs": [
        {
          "internalType": "uint256",
          "name": "amount",
          "type": "uint256"
        },
        {
          "internalType": "uint8",
          "name": "originDigits",
          "type": "uint8"
        }
      ],
      "name": "parseVaultAsset",
      "outputs": [
        {
          "internalType": "uint256",
          "name": "",
          "type": "uint256"
        }
      ],
      "stateMutability": "pure",
      "type": "function"
    },
    {
      "inputs": [
        {
          "internalType": "int256",
          "name": "amount",
          "type": "int256"
        },
        {
          "internalType": "uint8",
          "name": "collateralTokenDigits",
          "type": "uint8"
        }
      ],
      "name": "parseVaultAssetSigned",
      "outputs": [
        {
          "internalType": "int256",
          "name": "",
          "type": "int256"
        }
      ],
      "stateMutability": "pure",
      "type": "function"
    },
    {
      "inputs": [
        {
          "internalType": "uint16",
          "name": "marketId",
          "type": "uint16"
        }
      ],
      "name": "removeMarket",
      "outputs": [],
      "stateMutability": "nonpayable",
      "type": "function"
    },
    {
      "inputs": [
        {
          "internalType": "uint16",
          "name": "market",
          "type": "uint16"
        },
        {
          "components": [
            {
              "internalType": "bool",
              "name": "isSuspended",
              "type": "bool"
            },
            {
              "internalType": "bool",
              "name": "allowOpen",
              "type": "bool"
            },
            {
              "internalType": "bool",
              "name": "allowClose",
              "type": "bool"
            },
            {
              "internalType": "bool",
              "name": "validDecrease",
              "type": "bool"
            },
            {
              "internalType": "uint16",
              "name": "minSlippage",
              "type": "uint16"
            },
            {
              "internalType": "uint16",
              "name": "maxSlippage",
              "type": "uint16"
            },
            {
              "internalType": "uint16",
              "name": "minLeverage",
              "type": "uint16"
            },
            {
              "internalType": "uint16",
              "name": "maxLeverage",
              "type": "uint16"
            },
            {
              "internalType": "uint16",
              "name": "minPayment",
              "type": "uint16"
            },
            {
              "internalType": "uint16",
              "name": "minCollateral",
              "type": "uint16"
            },
            {
              "internalType": "uint16",
              "name": "decreaseNumLimit",
              "type": "uint16"
            },
            {
              "internalType": "uint32",
              "name": "maxTradeAmount",
              "type": "uint32"
            }
          ],
          "internalType": "struct MarketHandler.Props",
          "name": "data",
          "type": "tuple"
        }
      ],
      "name": "setMarketConf",
      "outputs": [],
      "stateMutability": "nonpayable",
      "type": "function"
    },
    {
      "inputs": [
        {
          "internalType": "address",
          "name": "tokenAddress",
          "type": "address"
        },
        {
          "internalType": "address",
          "name": "_from",
          "type": "address"
        },
        {
          "internalType": "address",
          "name": "_to",
          "type": "address"
        },
        {
          "internalType": "uint256",
          "name": "_tokenAmount",
          "type": "uint256"
        }
      ],
      "name": "transferIn",
      "outputs": [],
      "stateMutability": "nonpayable",
      "type": "function"
    }
  ],
  "transactionHash": "0x6d49f567e716b79db7061daec7743b8bfca68a121b4c73ebacade1a7aa6d7115",
  "args": [],
  "numDeployments": 3,
  "solcInputHash": "b09ed9757b62f343008692714e77e5d5",
  "bytecode": "0x608060405234801561001057600080fd5b50613ce7806100206000396000f3fe608060405234801561001057600080fd5b50600436106100ba5760003560e01c806313a30013146100bf5780634fe0ae5e146100ef578063735a28851461010b57806379c1122b1461013b57806379eba709146101575780639823bc9b14610187578063b0a3961a146101b7578063b51b8de0146101e7578063bb715a8514610203578063cc55e9d114610221578063dd22378d14610251578063e36b20c51461026d578063e3bd030d14610289578063ec2c9016146102b9575b600080fd5b6100d960048036038101906100d49190612499565b6102d7565b6040516100e69190612556565b60405180910390f35b6101096004803603810190610104919061260c565b6102de565b005b610125600480360381019061012091906126ab565b61032a565b604051610132919061270d565b60405180910390f35b61015560048036038101906101509190612906565b610333565b005b610171600480360381019061016c9190612499565b6104ff565b60405161017e9190612a6a565b60405180910390f35b6101a1600480360381019061019c9190612abf565b6106b0565b6040516101ae919061270d565b60405180910390f35b6101d160048036038101906101cc9190612aff565b6106ed565b6040516101de9190612b45565b60405180910390f35b61020160048036038101906101fc9190612bc5565b6107b9565b005b61020b610ea0565b6040516102189190612c21565b60405180910390f35b61023b60048036038101906102369190612499565b610ea9565b6040516102489190612c4b565b60405180910390f35b61026b60048036038101906102669190612c66565b610f58565b005b61028760048036038101906102829190612499565b610f5d565b005b6102a3600480360381019061029e9190612ce5565b611056565b6040516102b09190612b45565b60405180910390f35b6102c1611096565b6040516102ce9190612556565b60405180910390f35b6060919050565b600081031561032457600084905061032284846102fb858961109b565b8473ffffffffffffffffffffffffffffffffffffffff1661114b909392919063ffffffff16565b505b50505050565b60009392505050565b8061033c6111cd565b60000160008461ffff1661ffff16815260200190815260200160002060008201518160000160006101000a81548160ff02191690831515021790555060208201518160000160016101000a81548160ff02191690831515021790555060408201518160000160026101000a81548160ff02191690831515021790555060608201518160000160036101000a81548160ff02191690831515021790555060808201518160000160046101000a81548161ffff021916908361ffff16021790555060a08201518160000160066101000a81548161ffff021916908361ffff16021790555060c08201518160000160086101000a81548161ffff021916908361ffff16021790555060e082015181600001600a6101000a81548161ffff021916908361ffff16021790555061010082015181600001600c6101000a81548161ffff021916908361ffff16021790555061012082015181600001600e6101000a81548161ffff021916908361ffff1602179055506101408201518160000160106101000a81548161ffff021916908361ffff1602179055506101608201518160000160126101000a81548163ffffffff021916908363ffffffff1602179055509050505050565b61050761235d565b61050f6111cd565b60000160008361ffff1661ffff168152602001908152602001600020604051806101800160405290816000820160009054906101000a900460ff161515151581526020016000820160019054906101000a900460ff161515151581526020016000820160029054906101000a900460ff161515151581526020016000820160039054906101000a900460ff161515151581526020016000820160049054906101000a900461ffff1661ffff1661ffff1681526020016000820160069054906101000a900461ffff1661ffff1661ffff1681526020016000820160089054906101000a900461ffff1661ffff1661ffff16815260200160008201600a9054906101000a900461ffff1661ffff1661ffff16815260200160008201600c9054906101000a900461ffff1661ffff1661ffff16815260200160008201600e9054906101000a900461ffff1661ffff1661ffff1681526020016000820160109054906101000a900461ffff1661ffff1661ffff1681526020016000820160129054906101000a900463ffffffff1663ffffffff1663ffffffff16815250509050919050565b600081600a6106bf9190612e87565b601260ff16600a6106d09190612ed2565b846106db9190612f1d565b6106e59190612f8e565b905092915050565b6000806106f86111cd565b60050160008473ffffffffffffffffffffffffffffffffffffffff1673ffffffffffffffffffffffffffffffffffffffff16815260200190815260200160002090506000610745826111fa565b90506000805b82518110156107ad57600083828151811061076957610768612fbf565b5b602002602001015190506107928161078283600161121b565b61078d84600061121b565b61123e565b8361079d9190612fee565b925050808060010191505061074b565b50809350505050919050565b600080600080600086868101906107d09190613125565b94509450945094509450836107e36111cd565b60010160008761ffff1661ffff168152602001908152602001600020908161080b91906133d4565b50600073ffffffffffffffffffffffffffffffffffffffff168273ffffffffffffffffffffffffffffffffffffffff1603610916578273ffffffffffffffffffffffffffffffffffffffff166338d52e0f6040518163ffffffff1660e01b8152600401602060405180830381865afa15801561088b573d6000803e3d6000fd5b505050506040513d601f19601f820116820180604052508101906108af91906134bb565b6108b76111cd565b60030160008761ffff1661ffff16815260200190815260200160002060006101000a81548173ffffffffffffffffffffffffffffffffffffffff021916908373ffffffffffffffffffffffffffffffffffffffff16021790555061097a565b8161091f6111cd565b60030160008761ffff1661ffff16815260200190815260200160002060006101000a81548173ffffffffffffffffffffffffffffffffffffffff021916908373ffffffffffffffffffffffffffffffffffffffff1602179055505b60006109da8661ffff1661098c6111cd565b60050160008773ffffffffffffffffffffffffffffffffffffffff1673ffffffffffffffffffffffffffffffffffffffff16815260200190815260200160002061127390919063ffffffff16565b905080610a1c576040517f08c379a0000000000000000000000000000000000000000000000000000000008152600401610a139061356b565b60405180910390fd5b83610a256111cd565b60020160008861ffff1661ffff16815260200190815260200160002060006101000a81548173ffffffffffffffffffffffffffffffffffffffff021916908373ffffffffffffffffffffffffffffffffffffffff160217905550604051806101800160405280600015158152602001600115158152602001600115158152602001600115158152602001600061ffff168152602001606461ffff168152602001600161ffff168152602001606461ffff168152602001600061ffff168152602001600061ffff168152602001600a61ffff168152602001600063ffffffff16815250610b0f6111cd565b60000160008861ffff1661ffff16815260200190815260200160002060008201518160000160006101000a81548160ff02191690831515021790555060208201518160000160016101000a81548160ff02191690831515021790555060408201518160000160026101000a81548160ff02191690831515021790555060608201518160000160036101000a81548160ff02191690831515021790555060808201518160000160046101000a81548161ffff021916908361ffff16021790555060a08201518160000160066101000a81548161ffff021916908361ffff16021790555060c08201518160000160086101000a81548161ffff021916908361ffff16021790555060e082015181600001600a6101000a81548161ffff021916908361ffff16021790555061010082015181600001600c6101000a81548161ffff021916908361ffff16021790555061012082015181600001600e6101000a81548161ffff021916908361ffff1602179055506101408201518160000160106101000a81548161ffff021916908361ffff1602179055506101608201518160000160126101000a81548163ffffffff021916908363ffffffff16021790555090505081610cd76111cd565b60000160008861ffff1661ffff16815260200190815260200160002060008201518160000160006101000a81548160ff02191690831515021790555060208201518160000160016101000a81548160ff02191690831515021790555060408201518160000160026101000a81548160ff02191690831515021790555060608201518160000160036101000a81548160ff02191690831515021790555060808201518160000160046101000a81548161ffff021916908361ffff16021790555060a08201518160000160066101000a81548161ffff021916908361ffff16021790555060c08201518160000160086101000a81548161ffff021916908361ffff16021790555060e082015181600001600a6101000a81548161ffff021916908361ffff16021790555061010082015181600001600c6101000a81548161ffff021916908361ffff16021790555061012082015181600001600e6101000a81548161ffff021916908361ffff1602179055506101408201518160000160106101000a81548161ffff021916908361ffff1602179055506101608201518160000160126101000a81548163ffffffff021916908363ffffffff1602179055509050505050505050505050565b60006012905090565b600080610eb46111cd565b905060008160020160008561ffff1661ffff16815260200190815260200160002060009054906101000a900473ffffffffffffffffffffffffffffffffffffffff169050610f4f8461ffff168360050160008473ffffffffffffffffffffffffffffffffffffffff1673ffffffffffffffffffffffffffffffffffffffff16815260200190815260200160002061128d90919063ffffffff16565b92505050919050565b505050565b6000610f676111cd565b905060008160020160008461ffff1661ffff16815260200190815260200160002060009054906101000a900473ffffffffffffffffffffffffffffffffffffffff1690506110098361ffff16610fbb6111cd565b60050160008473ffffffffffffffffffffffffffffffffffffffff1673ffffffffffffffffffffffffffffffffffffffff1681526020019081526020016000206112a790919063ffffffff16565b506110126111cd565b60020160008461ffff1661ffff16815260200190815260200160002060006101000a81549073ffffffffffffffffffffffffffffffffffffffff0219169055505050565b6000601260ff16600a6110699190612ed2565b8260ff16600a6110799190612ed2565b84611084919061358b565b61108e9190613603565b905092915050565b606090565b6000808273ffffffffffffffffffffffffffffffffffffffff1663313ce5676040518163ffffffff1660e01b8152600401602060405180830381865afa1580156110e9573d6000803e3d6000fd5b505050506040513d601f19601f8201168201806040525081019061110d9190613682565b90506012600a61111d9190612e87565b8160ff16600a61112d9190612ed2565b856111389190612f1d565b6111429190612f8e565b91505092915050565b6111c7848573ffffffffffffffffffffffffffffffffffffffff166323b872dd868686604051602401611180939291906136be565b604051602081830303815290604052915060e01b6020820180517bffffffffffffffffffffffffffffffffffffffffffffffffffffffff83818316178352505050506112c1565b50505050565b6000807f2eec39e2b6bcfb5f1ee2be0b6e9d5a470a45585b1e2f7f291af9fb9f551763d090508091505090565b6060600061120a83600001611358565b905060608190508092505050919050565b60008061122884846113b4565b905061123584828561146d565b91505092915050565b60008061124d85856001611603565b905061125b85846000611603565b816112669190612fee565b9050809150509392505050565b6000611285836000018360001b61166d565b905092915050565b600061129f836000018360001b6116dd565b905092915050565b60006112b9836000018360001b611700565b905092915050565b60006112ec828473ffffffffffffffffffffffffffffffffffffffff1661181490919063ffffffff16565b9050600081511415801561131157508080602001905181019061130f919061370a565b155b1561135357826040517f5274afe700000000000000000000000000000000000000000000000000000000815260040161134a9190613737565b60405180910390fd5b505050565b6060816000018054806020026020016040519081016040528092919081815260200182805480156113a857602002820191906000526020600020905b815481526020019060010190808311611394575b50505050509050919050565b6000806113c1848461182a565b905060006113cf858561182a565b90506c0c9f2c9cd04674edea400000007fffffffffffffffffffffffffffffffffffffffffffffffffffffffffffffffff61140a9190612f8e565b82101561143e57806c0c9f2c9cd04674edea400000008361142b9190612f1d565b6114359190612f8e565b92505050611467565b806c0c9f2c9cd04674edea40000000836114589190612f8e565b6114629190612f1d565b925050505b92915050565b600080611478611db1565b60060160008661ffff1661ffff16815260200190815260200160002060000160149054906101000a900463ffffffff1663ffffffff16905060006114ba611db1565b60040160008761ffff1661ffff1681526020019081526020016000205490506114e1611db1565b60010160000160089054906101000a900463ffffffff1663ffffffff16826115099190613752565b4211806115445750611519611db1565b60010160000160049054906101000a900463ffffffff1663ffffffff16826115419190613752565b42115b8061154f5750600081145b1561155e5784925050506115fc565b60008186116115785785826115739190613786565b611585565b81866115849190613786565b5b905085612710826115969190612f1d565b6115a09190612f8e565b90506115ab87611dde565b80156115db57506115ba611db1565b60010160000160009054906101000a900463ffffffff1663ffffffff168111155b156115eb578193505050506115fc565b6115f6868387611e4b565b93505050505b9392505050565b6000806116186116138685611e7f565b611eb4565b90506000816000015103611630576000915050611666565b6000806116468684611fb390919063ffffffff16565b915091508161165e5780611659906137ba565b611660565b805b93505050505b9392505050565b600061167983836116dd565b6116d25782600001829080600181540180825580915050600190039060005260206000200160009091909190915055826000018054905083600101600084815260200190815260200160002081905550600190506116d7565b600090505b92915050565b600080836001016000848152602001908152602001600020541415905092915050565b600080836001016000848152602001908152602001600020549050600081146118085760006001826117329190613786565b905060006001866000018054905061174a9190613786565b90508082146117b957600086600001828154811061176b5761176a612fbf565b5b906000526020600020015490508087600001848154811061178f5761178e612fbf565b5b90600052602060002001819055508387600101600083815260200190815260200160002081905550505b856000018054806117cd576117cc613802565b5b60019003818190600052602060002001600090559055856001016000868152602001908152602001600020600090556001935050505061180e565b60009150505b92915050565b606061182283836000612042565b905092915050565b600080611835611db1565b60020160008561ffff1661ffff16815260200190815260200160002060009054906101000a900473ffffffffffffffffffffffffffffffffffffffff169050600073ffffffffffffffffffffffffffffffffffffffff168173ffffffffffffffffffffffffffffffffffffffff16036118e3576040517f08c379a00000000000000000000000000000000000000000000000000000000081526004016118da9061387d565b60405180910390fd5b6000806118ee611db1565b60020160008761ffff1661ffff16815260200190815260200160002060009054906101000a900473ffffffffffffffffffffffffffffffffffffffff1673ffffffffffffffffffffffffffffffffffffffff1663668a0f026040518163ffffffff1660e01b8152600401602060405180830381865afa158015611975573d6000803e3d6000fd5b505050506040513d601f19601f8201168201806040525081019061199991906138df565b905060005b6119a6611db1565b60010160000160109054906101000a900463ffffffff1663ffffffff168169ffffffffffffffffffff161015611c77578069ffffffffffffffffffff168269ffffffffffffffffffff161115611c77576000808269ffffffffffffffffffff1603611b0e576000611a15611db1565b60020160008a61ffff1661ffff16815260200190815260200160002060009054906101000a900473ffffffffffffffffffffffffffffffffffffffff1673ffffffffffffffffffffffffffffffffffffffff166350d25bcd6040518163ffffffff1660e01b8152600401602060405180830381865afa158015611a9c573d6000803e3d6000fd5b505050506040513d601f19601f82011682018060405250810190611ac09190613921565b905060008113611b05576040517f08c379a0000000000000000000000000000000000000000000000000000000008152600401611afc9061399a565b60405180910390fd5b80915050611c27565b6000611b18611db1565b60020160008a61ffff1661ffff16815260200190815260200160002060009054906101000a900473ffffffffffffffffffffffffffffffffffffffff1673ffffffffffffffffffffffffffffffffffffffff16639a6fc8f58486611b7c91906139ba565b6040518263ffffffff1660e01b8152600401611b989190613a07565b60a060405180830381865afa158015611bb5573d6000803e3d6000fd5b505050506040513d601f19601f82011682018060405250810190611bd99190613a37565b50505091505060008113611c22576040517f08c379a0000000000000000000000000000000000000000000000000000000008152600401611c199061399a565b60405180910390fd5b809150505b60008403611c385780935050611c6a565b868015611c4457508381115b15611c525780935050611c6a565b86158015611c5f57508381105b15611c68578093505b505b808060010191505061199e565b5060008211611cbb576040517f08c379a0000000000000000000000000000000000000000000000000000000008152600401611cb290613afe565b60405180910390fd5b6000611cc5611db1565b60020160008861ffff1661ffff16815260200190815260200160002060009054906101000a900473ffffffffffffffffffffffffffffffffffffffff1673ffffffffffffffffffffffffffffffffffffffff1663313ce5676040518163ffffffff1660e01b8152600401602060405180830381865afa158015611d4c573d6000803e3d6000fd5b505050506040513d601f19601f82011682018060405250810190611d709190613682565b60ff16905080600a611d829190612ed2565b6c0c9f2c9cd04674edea4000000084611d9b9190612f1d565b611da59190612f8e565b94505050505092915050565b6000807f215c1de8a6459dcf0789cdceef063745b34797042fd1550737c0f263affdef6490508091505090565b6000806000611dec8461210f565b9350935050508181118015611e2f5750611e04611db1565b60050160008561ffff1661ffff168152602001908152602001600020548282611e2d9190613786565b115b15611e3f57600092505050611e46565b6001925050505b919050565b600081611e6657828410611e5f5782611e61565b835b611e76565b828411611e735782611e75565b835b5b90509392505050565b60008183604051602001611e94929190613b9c565b604051602081830303815290604052611eac90613bf7565b905092915050565b611ebc6123e8565b611ec461225c565b60020160008381526020019081526020016000206040518061012001604052908160008201548152602001600182015481526020016002820154815260200160038201548152602001600482015481526020016005820160009054906101000a900460ff161515151581526020016005820160019054906101000a900463ffffffff1663ffffffff1663ffffffff1681526020016005820160059054906101000a900461ffff1661ffff1661ffff1681526020016005820160079054906101000a900468ffffffffffffffffff1668ffffffffffffffffff1668ffffffffffffffffff16815250509050919050565b600080600083856080015111611fd857846080015184611fd39190613786565b611fe9565b838560800151611fe89190613786565b5b9050600085608001518287600001516120029190612f1d565b61200c9190612f8e565b905060008660a001511561202857866080015186119050612032565b8587608001511190505b8082945094505050509250929050565b60608147101561208957306040517fcd7860590000000000000000000000000000000000000000000000000000000081526004016120809190613737565b60405180910390fd5b6000808573ffffffffffffffffffffffffffffffffffffffff1684866040516120b29190613c9a565b60006040518083038185875af1925050503d80600081146120ef576040519150601f19603f3d011682016040523d82523d6000602084013e6120f4565b606091505b5091509150612104868383612289565b925050509392505050565b600080600080600061211f611db1565b60060160008761ffff1661ffff1681526020019081526020016000206040518060800160405290816000820160009054906101000a900473ffffffffffffffffffffffffffffffffffffffff1673ffffffffffffffffffffffffffffffffffffffff1673ffffffffffffffffffffffffffffffffffffffff1681526020016000820160149054906101000a900463ffffffff1663ffffffff1663ffffffff1681526020016000820160189054906101000a900463ffffffff1663ffffffff1663ffffffff16815260200160008201601c9054906101000a900463ffffffff1663ffffffff1663ffffffff16815250509050806000015173ffffffffffffffffffffffffffffffffffffffff16816020015163ffffffff16826040015163ffffffff16836060015163ffffffff169450945094509450509193509193565b6000807f92bcfabaf0a890def3092675474357e5f93a0f117ca63a3db421d44c5b55fba590508091505090565b60608261229e5761229982612318565b612310565b600082511480156122c6575060008473ffffffffffffffffffffffffffffffffffffffff163b145b1561230857836040517f9996b3150000000000000000000000000000000000000000000000000000000081526004016122ff9190613737565b60405180910390fd5b819050612311565b5b9392505050565b60008151111561232b5780518082602001fd5b6040517f1425ea4200000000000000000000000000000000000000000000000000000000815260040160405180910390fd5b604051806101800160405280600015158152602001600015158152602001600015158152602001600015158152602001600061ffff168152602001600061ffff168152602001600061ffff168152602001600061ffff168152602001600061ffff168152602001600061ffff168152602001600061ffff168152602001600063ffffffff1681525090565b6040518061012001604052806000815260200160008152602001600081526020016000815260200160008152602001600015158152602001600063ffffffff168152602001600061ffff168152602001600068ffffffffffffffffff1681525090565b6000604051905090565b600080fd5b600080fd5b600061ffff82169050919050565b6124768161245f565b811461248157600080fd5b50565b6000813590506124938161246d565b92915050565b6000602082840312156124af576124ae612455565b5b60006124bd84828501612484565b91505092915050565b600081519050919050565b600082825260208201905092915050565b60005b838110156125005780820151818401526020810190506124e5565b60008484015250505050565b6000601f19601f8301169050919050565b6000612528826124c6565b61253281856124d1565b93506125428185602086016124e2565b61254b8161250c565b840191505092915050565b60006020820190508181036000830152612570818461251d565b905092915050565b600073ffffffffffffffffffffffffffffffffffffffff82169050919050565b60006125a382612578565b9050919050565b6125b381612598565b81146125be57600080fd5b50565b6000813590506125d0816125aa565b92915050565b6000819050919050565b6125e9816125d6565b81146125f457600080fd5b50565b600081359050612606816125e0565b92915050565b6000806000806080858703121561262657612625612455565b5b6000612634878288016125c1565b9450506020612645878288016125c1565b9350506040612656878288016125c1565b9250506060612667878288016125f7565b91505092959194509250565b60008115159050919050565b61268881612673565b811461269357600080fd5b50565b6000813590506126a58161267f565b92915050565b6000806000606084860312156126c4576126c3612455565b5b60006126d2868287016125c1565b93505060206126e3868287016125c1565b92505060406126f486828701612696565b9150509250925092565b612707816125d6565b82525050565b600060208201905061272260008301846126fe565b92915050565b600080fd5b7f4e487b7100000000000000000000000000000000000000000000000000000000600052604160045260246000fd5b6127658261250c565b810181811067ffffffffffffffff821117156127845761278361272d565b5b80604052505050565b600061279761244b565b90506127a3828261275c565b919050565b600063ffffffff82169050919050565b6127c1816127a8565b81146127cc57600080fd5b50565b6000813590506127de816127b8565b92915050565b600061018082840312156127fb576127fa612728565b5b61280661018061278d565b9050600061281684828501612696565b600083015250602061282a84828501612696565b602083015250604061283e84828501612696565b604083015250606061285284828501612696565b606083015250608061286684828501612484565b60808301525060a061287a84828501612484565b60a08301525060c061288e84828501612484565b60c08301525060e06128a284828501612484565b60e0830152506101006128b784828501612484565b610100830152506101206128cd84828501612484565b610120830152506101406128e384828501612484565b610140830152506101606128f9848285016127cf565b6101608301525092915050565b6000806101a0838503121561291e5761291d612455565b5b600061292c85828601612484565b925050602061293d858286016127e4565b9150509250929050565b61295081612673565b82525050565b61295f8161245f565b82525050565b61296e816127a8565b82525050565b6101808201600082015161298b6000850182612947565b50602082015161299e6020850182612947565b5060408201516129b16040850182612947565b5060608201516129c46060850182612947565b5060808201516129d76080850182612956565b5060a08201516129ea60a0850182612956565b5060c08201516129fd60c0850182612956565b5060e0820151612a1060e0850182612956565b50610100820151612a25610100850182612956565b50610120820151612a3a610120850182612956565b50610140820151612a4f610140850182612956565b50610160820151612a64610160850182612965565b50505050565b600061018082019050612a806000830184612974565b92915050565b600060ff82169050919050565b612a9c81612a86565b8114612aa757600080fd5b50565b600081359050612ab981612a93565b92915050565b60008060408385031215612ad657612ad5612455565b5b6000612ae4858286016125f7565b9250506020612af585828601612aaa565b9150509250929050565b600060208284031215612b1557612b14612455565b5b6000612b23848285016125c1565b91505092915050565b6000819050919050565b612b3f81612b2c565b82525050565b6000602082019050612b5a6000830184612b36565b92915050565b600080fd5b600080fd5b600080fd5b60008083601f840112612b8557612b84612b60565b5b8235905067ffffffffffffffff811115612ba257612ba1612b65565b5b602083019150836001820283011115612bbe57612bbd612b6a565b5b9250929050565b60008060208385031215612bdc57612bdb612455565b5b600083013567ffffffffffffffff811115612bfa57612bf961245a565b5b612c0685828601612b6f565b92509250509250929050565b612c1b81612a86565b82525050565b6000602082019050612c366000830184612c12565b92915050565b612c4581612673565b82525050565b6000602082019050612c606000830184612c3c565b92915050565b600080600060608486031215612c7f57612c7e612455565b5b6000612c8d86828701612484565b9350506020612c9e868287016125c1565b9250506040612caf86828701612696565b9150509250925092565b612cc281612b2c565b8114612ccd57600080fd5b50565b600081359050612cdf81612cb9565b92915050565b60008060408385031215612cfc57612cfb612455565b5b6000612d0a85828601612cd0565b9250506020612d1b85828601612aaa565b9150509250929050565b7f4e487b7100000000000000000000000000000000000000000000000000000000600052601160045260246000fd5b60008160011c9050919050565b6000808291508390505b6001851115612dab57808604811115612d8757612d86612d25565b5b6001851615612d965780820291505b8081029050612da485612d54565b9450612d6b565b94509492505050565b600082612dc45760019050612e80565b81612dd25760009050612e80565b8160018114612de85760028114612df257612e21565b6001915050612e80565b60ff841115612e0457612e03612d25565b5b8360020a915084821115612e1b57612e1a612d25565b5b50612e80565b5060208310610133831016604e8410600b8410161715612e565782820a905083811115612e5157612e50612d25565b5b612e80565b612e638484846001612d61565b92509050818404811115612e7a57612e79612d25565b5b81810290505b9392505050565b6000612e92826125d6565b9150612e9d83612a86565b9250612eca7fffffffffffffffffffffffffffffffffffffffffffffffffffffffffffffffff8484612db4565b905092915050565b6000612edd826125d6565b9150612ee8836125d6565b9250612f157fffffffffffffffffffffffffffffffffffffffffffffffffffffffffffffffff8484612db4565b905092915050565b6000612f28826125d6565b9150612f33836125d6565b9250828202612f41816125d6565b91508282048414831517612f5857612f57612d25565b5b5092915050565b7f4e487b7100000000000000000000000000000000000000000000000000000000600052601260045260246000fd5b6000612f99826125d6565b9150612fa4836125d6565b925082612fb457612fb3612f5f565b5b828204905092915050565b7f4e487b7100000000000000000000000000000000000000000000000000000000600052603260045260246000fd5b6000612ff982612b2c565b915061300483612b2c565b92508282019050828112156000831216838212600084121516171561302c5761302b612d25565b5b92915050565b600080fd5b600067ffffffffffffffff8211156130525761305161272d565b5b61305b8261250c565b9050602081019050919050565b82818337600083830152505050565b600061308a61308584613037565b61278d565b9050828152602081018484840111156130a6576130a5613032565b5b6130b1848285613068565b509392505050565b600082601f8301126130ce576130cd612b60565b5b81356130de848260208601613077565b91505092915050565b60006130f282612578565b9050919050565b613102816130e7565b811461310d57600080fd5b50565b60008135905061311f816130f9565b92915050565b6000806000806000610200868803121561314257613141612455565b5b600061315088828901612484565b955050602086013567ffffffffffffffff8111156131715761317061245a565b5b61317d888289016130b9565b945050604061318e88828901613110565b935050606061319f88828901613110565b92505060806131b0888289016127e4565b9150509295509295909350565b600081519050919050565b7f4e487b7100000000000000000000000000000000000000000000000000000000600052602260045260246000fd5b6000600282049050600182168061320f57607f821691505b602082108103613222576132216131c8565b5b50919050565b60008190508160005260206000209050919050565b60006020601f8301049050919050565b600082821b905092915050565b60006008830261328a7fffffffffffffffffffffffffffffffffffffffffffffffffffffffffffffffff8261324d565b613294868361324d565b95508019841693508086168417925050509392505050565b6000819050919050565b60006132d16132cc6132c7846125d6565b6132ac565b6125d6565b9050919050565b6000819050919050565b6132eb836132b6565b6132ff6132f7826132d8565b84845461325a565b825550505050565b600090565b613314613307565b61331f8184846132e2565b505050565b5b818110156133435761333860008261330c565b600181019050613325565b5050565b601f8211156133885761335981613228565b6133628461323d565b81016020851015613371578190505b61338561337d8561323d565b830182613324565b50505b505050565b600082821c905092915050565b60006133ab6000198460080261338d565b1980831691505092915050565b60006133c4838361339a565b9150826002028217905092915050565b6133dd826131bd565b67ffffffffffffffff8111156133f6576133f561272d565b5b61340082546131f7565b61340b828285613347565b600060209050601f83116001811461343e576000841561342c578287015190505b61343685826133b8565b86555061349e565b601f19841661344c86613228565b60005b828110156134745784890151825560018201915060208501945060208101905061344f565b86831015613491578489015161348d601f89168261339a565b8355505b6001600288020188555050505b505050505050565b6000815190506134b5816125aa565b92915050565b6000602082840312156134d1576134d0612455565b5b60006134df848285016134a6565b91505092915050565b600082825260208201905092915050565b7f4d61726b657446616365743a206d61726b657420616c7265616479206578697360008201527f7473000000000000000000000000000000000000000000000000000000000000602082015250565b60006135556022836134e8565b9150613560826134f9565b604082019050919050565b6000602082019050818103600083015261358481613548565b9050919050565b600061359682612b2c565b91506135a183612b2c565b92508282026135af81612b2c565b91507f800000000000000000000000000000000000000000000000000000000000000084146000841216156135e7576135e6612d25565b5b82820584148315176135fc576135fb612d25565b5b5092915050565b600061360e82612b2c565b915061361983612b2c565b92508261362957613628612f5f565b5b600160000383147f80000000000000000000000000000000000000000000000000000000000000008314161561366257613661612d25565b5b828205905092915050565b60008151905061367c81612a93565b92915050565b60006020828403121561369857613697612455565b5b60006136a68482850161366d565b91505092915050565b6136b881612598565b82525050565b60006060820190506136d360008301866136af565b6136e060208301856136af565b6136ed60408301846126fe565b949350505050565b6000815190506137048161267f565b92915050565b6000602082840312156137205761371f612455565b5b600061372e848285016136f5565b91505092915050565b600060208201905061374c60008301846136af565b92915050565b600061375d826125d6565b9150613768836125d6565b92508282019050808211156137805761377f612d25565b5b92915050565b6000613791826125d6565b915061379c836125d6565b92508282039050818111156137b4576137b3612d25565b5b92915050565b60006137c582612b2c565b91507f800000000000000000000000000000000000000000000000000000000000000082036137f7576137f6612d25565b5b816000039050919050565b7f4e487b7100000000000000000000000000000000000000000000000000000000600052603160045260246000fd5b7f5072696365466565643a20696e76616c69642070726963652066656564000000600082015250565b6000613867601d836134e8565b915061387282613831565b602082019050919050565b600060208201905081810360008301526138968161385a565b9050919050565b600069ffffffffffffffffffff82169050919050565b6138bc8161389d565b81146138c757600080fd5b50565b6000815190506138d9816138b3565b92915050565b6000602082840312156138f5576138f4612455565b5b6000613903848285016138ca565b91505092915050565b60008151905061391b81612cb9565b92915050565b60006020828403121561393757613936612455565b5b60006139458482850161390c565b91505092915050565b7f5072696365466565643a20696e76616c69642070726963650000000000000000600082015250565b60006139846018836134e8565b915061398f8261394e565b602082019050919050565b600060208201905081810360008301526139b381613977565b9050919050565b60006139c58261389d565b91506139d08361389d565b9250828203905069ffffffffffffffffffff8111156139f2576139f1612d25565b5b92915050565b613a018161389d565b82525050565b6000602082019050613a1c60008301846139f8565b92915050565b600081519050613a31816125e0565b92915050565b600080600080600060a08688031215613a5357613a52612455565b5b6000613a61888289016138ca565b9550506020613a728882890161390c565b9450506040613a8388828901613a22565b9350506060613a9488828901613a22565b9250506080613aa5888289016138ca565b9150509295509295909350565b7f5072696365466565643a20636f756c64206e6f74206665746368207072696365600082015250565b6000613ae86020836134e8565b9150613af382613ab2565b602082019050919050565b60006020820190508181036000830152613b1781613adb565b9050919050565b60008160f81b9050919050565b6000613b3682613b1e565b9050919050565b6000613b4882613b2b565b9050919050565b613b60613b5b82612673565b613b3d565b82525050565b60008160f01b9050919050565b6000613b7e82613b66565b9050919050565b613b96613b918261245f565b613b73565b82525050565b6000613ba88285613b4f565b600182019150613bb88284613b85565b6002820191508190509392505050565b6000819050602082019050919050565b6000819050919050565b6000613bee8251613bd8565b80915050919050565b6000613c02826124c6565b82613c0c84613bc8565b9050613c1781613be2565b92506020821015613c5757613c527fffffffffffffffffffffffffffffffffffffffffffffffffffffffffffffffff8360200360080261324d565b831692505b5050919050565b600081905092915050565b6000613c74826124c6565b613c7e8185613c5e565b9350613c8e8185602086016124e2565b80840191505092915050565b6000613ca68284613c69565b91508190509291505056fea26469706673582212209b1e646baf429f7a97f500408d24680b24ec80d150341fba385b63c707b90bb664736f6c63430008180033",
  "devdoc": {
    "errors": {
      "AddressEmptyCode(address)": [
        {
          "details": "There's no code at `target` (it is not a contract)."
        }
      ],
      "AddressInsufficientBalance(address)": [
        {
          "details": "The ETH balance of the account is not enough to perform the operation."
        }
      ],
      "FailedInnerCall()": [
        {
          "details": "A call to an address target failed. The target may have reverted."
        }
      ],
      "SafeERC20FailedOperation(address)": [
        {
          "details": "An operation with an ERC20 token failed."
        }
      ]
    },
    "kind": "dev",
    "methods": {
      "getUSDDecimals()": {
        "details": "Retrieves the number of decimal places for USD.",
        "returns": {
          "_0": "The number of decimal places for USD."
        }
      },
      "parseVaultAsset(uint256,uint8)": {
        "details": "Parses the vault asset amount by adjusting the number of decimal places.",
        "params": {
          "amount": "The original asset amount in vault.",
          "originDigits": "The number of decimal places for the original asset."
        },
        "returns": {
          "_0": "The parsed vault asset amount."
        }
      },
      "parseVaultAssetSigned(int256,uint8)": {
        "details": "This library contains utility functions for transferring assets.",
        "params": {
          "amount": "The amount of assets to transfer in integer format with decimal precision.",
          "collateralTokenDigits": "The decimal precision of the collateral token."
        },
        "returns": {
          "_0": "The transferred asset amount converted to integer with decimal precision for the USD stablecoin. This function is internal and can only be accessed within the current contract or library."
        }
      },
      "transferIn(address,address,address,uint256)": {
        "details": "Transfers a specified amount of tokens from a given address to another address.",
        "params": {
          "_from": "The address from which the tokens will be transferred.",
          "_to": "The address to which the tokens will be transferred.",
          "_tokenAmount": "The amount of tokens to be transferred.",
          "tokenAddress": "The address of the token."
        }
      }
    },
    "version": 1
  },
  "userdoc": {
    "kind": "user",
    "methods": {},
    "version": 1
  },
  "storageLayout": {
    "storage": [],
    "types": null
  }
}