{
  "address": "0x12ebC99Cd0163535c7dEc5D33E08a6d8480dD085",
  "abi": [
    {
      "inputs": [
        {
          "internalType": "address",
          "name": "authority",
          "type": "address"
        }
      ],
      "name": "AccessManagedInvalidAuthority",
      "type": "error"
    },
    {
      "inputs": [
        {
          "internalType": "address",
          "name": "caller",
          "type": "address"
        },
        {
          "internalType": "uint32",
          "name": "delay",
          "type": "uint32"
        }
      ],
      "name": "AccessManagedRequiredDelay",
      "type": "error"
    },
    {
      "inputs": [
        {
          "internalType": "address",
          "name": "caller",
          "type": "address"
        }
      ],
      "name": "AccessManagedUnauthorized",
      "type": "error"
    },
    {
      "anonymous": false,
      "inputs": [
        {
          "indexed": false,
          "internalType": "uint16",
          "name": "market",
          "type": "uint16"
        },
        {
          "indexed": false,
          "internalType": "string",
          "name": "name",
          "type": "string"
        },
        {
          "indexed": false,
          "internalType": "address",
          "name": "vault",
          "type": "address"
        },
        {
          "indexed": false,
          "internalType": "address",
          "name": "token",
          "type": "address"
        },
        {
          "components": [
            {
              "internalType": "bool",
              "name": "isSuspended",
              "type": "bool"
            },
            {
              "internalType": "bool",
              "name": "allowOpen",
              "type": "bool"
            },
            {
              "internalType": "bool",
              "name": "allowClose",
              "type": "bool"
            },
            {
              "internalType": "bool",
              "name": "validDecrease",
              "type": "bool"
            },
            {
              "internalType": "uint16",
              "name": "minSlippage",
              "type": "uint16"
            },
            {
              "internalType": "uint16",
              "name": "maxSlippage",
              "type": "uint16"
            },
            {
              "internalType": "uint16",
              "name": "minLeverage",
              "type": "uint16"
            },
            {
              "internalType": "uint16",
              "name": "maxLeverage",
              "type": "uint16"
            },
            {
              "internalType": "uint16",
              "name": "minPayment",
              "type": "uint16"
            },
            {
              "internalType": "uint16",
              "name": "minCollateral",
              "type": "uint16"
            },
            {
              "internalType": "uint16",
              "name": "decreaseNumLimit",
              "type": "uint16"
            },
            {
              "internalType": "uint32",
              "name": "maxTradeAmount",
              "type": "uint32"
            }
          ],
          "indexed": false,
          "internalType": "struct MarketHandler.Props",
          "name": "config",
          "type": "tuple"
        }
      ],
      "name": "MarketAdded",
      "type": "event"
    },
    {
      "anonymous": false,
      "inputs": [
        {
          "indexed": false,
          "internalType": "uint16",
          "name": "market",
          "type": "uint16"
        },
        {
          "indexed": false,
          "internalType": "address",
          "name": "pricefeed",
          "type": "address"
        },
        {
          "indexed": false,
          "internalType": "uint256",
          "name": "maxCumulativeDeltaDiffs",
          "type": "uint256"
        }
      ],
      "name": "OracleAdded",
      "type": "event"
    },
    {
      "inputs": [
        {
          "internalType": "uint16",
          "name": "market",
          "type": "uint16"
        },
        {
          "internalType": "uint256",
          "name": "maxMarketSizeLimit",
          "type": "uint256"
        }
      ],
      "name": "_addGValid",
      "outputs": [],
      "stateMutability": "nonpayable",
      "type": "function"
    },
    {
      "inputs": [
        {
          "internalType": "bytes",
          "name": "data",
          "type": "bytes"
        }
      ],
      "name": "_addMarket",
      "outputs": [
        {
          "internalType": "uint16",
          "name": "market",
          "type": "uint16"
        }
      ],
      "stateMutability": "nonpayable",
      "type": "function"
    },
    {
      "inputs": [
        {
          "internalType": "uint16",
          "name": "market",
          "type": "uint16"
        },
        {
          "internalType": "bytes",
          "name": "oracle",
          "type": "bytes"
        }
      ],
      "name": "_addOracle",
      "outputs": [],
      "stateMutability": "nonpayable",
      "type": "function"
    },
    {
      "inputs": [
        {
          "internalType": "string",
          "name": "name",
          "type": "string"
        },
        {
          "internalType": "address",
          "name": "_vault",
          "type": "address"
        },
        {
          "internalType": "uint256",
          "name": "maxMarketSizeLimit",
          "type": "uint256"
        },
        {
          "components": [
            {
              "internalType": "bool",
              "name": "isSuspended",
              "type": "bool"
            },
            {
              "internalType": "bool",
              "name": "allowOpen",
              "type": "bool"
            },
            {
              "internalType": "bool",
              "name": "allowClose",
              "type": "bool"
            },
            {
              "internalType": "bool",
              "name": "validDecrease",
              "type": "bool"
            },
            {
              "internalType": "uint16",
              "name": "minSlippage",
              "type": "uint16"
            },
            {
              "internalType": "uint16",
              "name": "maxSlippage",
              "type": "uint16"
            },
            {
              "internalType": "uint16",
              "name": "minLeverage",
              "type": "uint16"
            },
            {
              "internalType": "uint16",
              "name": "maxLeverage",
              "type": "uint16"
            },
            {
              "internalType": "uint16",
              "name": "minPayment",
              "type": "uint16"
            },
            {
              "internalType": "uint16",
              "name": "minCollateral",
              "type": "uint16"
            },
            {
              "internalType": "uint16",
              "name": "decreaseNumLimit",
              "type": "uint16"
            },
            {
              "internalType": "uint32",
              "name": "maxTradeAmount",
              "type": "uint32"
            }
          ],
          "internalType": "struct MarketHandler.Props",
          "name": "config",
          "type": "tuple"
        },
        {
          "internalType": "bytes",
          "name": "oracle",
          "type": "bytes"
        },
        {
          "internalType": "bytes",
          "name": "fee",
          "type": "bytes"
        }
      ],
      "name": "addMarket",
      "outputs": [
        {
          "internalType": "uint16",
          "name": "market",
          "type": "uint16"
        }
      ],
      "stateMutability": "nonpayable",
      "type": "function"
    },
    {
      "inputs": [
        {
          "internalType": "address",
          "name": "market",
          "type": "address"
        },
        {
          "internalType": "address",
          "name": "account",
          "type": "address"
        },
        {
          "internalType": "bool",
          "name": "isLong",
          "type": "bool"
        }
      ],
      "name": "availableLiquidity",
      "outputs": [
        {
          "internalType": "uint256",
          "name": "",
          "type": "uint256"
        }
      ],
      "stateMutability": "view",
      "type": "function"
    },
    {
      "inputs": [
        {
          "internalType": "uint16",
          "name": "marketId",
          "type": "uint16"
        }
      ],
      "name": "containsMarket",
      "outputs": [
        {
          "internalType": "bool",
          "name": "",
          "type": "bool"
        }
      ],
      "stateMutability": "view",
      "type": "function"
    },
    {
      "inputs": [
        {
          "components": [
            {
              "internalType": "uint16",
              "name": "market",
              "type": "uint16"
            },
            {
              "internalType": "bool",
              "name": "isLong",
              "type": "bool"
            },
            {
              "internalType": "bool",
              "name": "isIncrease",
              "type": "bool"
            },
            {
              "internalType": "uint256",
              "name": "start",
              "type": "uint256"
            },
            {
              "internalType": "uint256",
              "name": "end",
              "type": "uint256"
            },
            {
              "internalType": "bool",
              "name": "isOpen",
              "type": "bool"
            },
            {
              "internalType": "uint256",
              "name": "oraclePrice",
              "type": "uint256"
            },
            {
              "internalType": "bytes32",
              "name": "storageKey",
              "type": "bytes32"
            }
          ],
          "internalType": "struct OrderFinderCache",
          "name": "cache",
          "type": "tuple"
        }
      ],
      "name": "getExecutableOrdersByPrice",
      "outputs": [
        {
          "components": [
            {
              "internalType": "bytes32",
              "name": "refCode",
              "type": "bytes32"
            },
            {
              "internalType": "uint128",
              "name": "collateral",
              "type": "uint128"
            },
            {
              "internalType": "uint128",
              "name": "size",
              "type": "uint128"
            },
            {
              "internalType": "uint256",
              "name": "price",
              "type": "uint256"
            },
            {
              "internalType": "uint256",
              "name": "tp",
              "type": "uint256"
            },
            {
              "internalType": "bool",
              "name": "triggerAbove",
              "type": "bool"
            },
            {
              "internalType": "bool",
              "name": "isFromMarket",
              "type": "bool"
            },
            {
              "internalType": "bool",
              "name": "isKeepLev",
              "type": "bool"
            },
            {
              "internalType": "bool",
              "name": "isKeepLevTP",
              "type": "bool"
            },
            {
              "internalType": "bool",
              "name": "isKeepLevSL",
              "type": "bool"
            },
            {
              "internalType": "uint64",
              "name": "orderID",
              "type": "uint64"
            },
            {
              "internalType": "uint64",
              "name": "pairId",
              "type": "uint64"
            },
            {
              "internalType": "uint64",
              "name": "fromId",
              "type": "uint64"
            },
            {
              "internalType": "uint32",
              "name": "updatedAtBlock",
              "type": "uint32"
            },
            {
              "internalType": "uint8",
              "name": "extra0",
              "type": "uint8"
            },
            {
              "internalType": "address",
              "name": "account",
              "type": "address"
            },
            {
              "internalType": "uint96",
              "name": "extra1",
              "type": "uint96"
            },
            {
              "internalType": "uint256",
              "name": "sl",
              "type": "uint256"
            },
            {
              "internalType": "bool",
              "name": "isIncrease",
              "type": "bool"
            },
            {
              "internalType": "bool",
              "name": "isLong",
              "type": "bool"
            },
            {
              "internalType": "uint16",
              "name": "market",
              "type": "uint16"
            },
            {
              "internalType": "uint96",
              "name": "extra2",
              "type": "uint96"
            },
            {
              "internalType": "uint128",
              "name": "gas",
              "type": "uint128"
            },
            {
              "internalType": "uint8",
              "name": "version",
              "type": "uint8"
            }
          ],
          "internalType": "struct OrderProps[]",
          "name": "_orders",
          "type": "tuple[]"
        }
      ],
      "stateMutability": "view",
      "type": "function"
    },
    {
      "inputs": [
        {
          "internalType": "address",
          "name": "_vault",
          "type": "address"
        }
      ],
      "name": "getGlobalPnl",
      "outputs": [
        {
          "internalType": "int256",
          "name": "",
          "type": "int256"
        }
      ],
      "stateMutability": "view",
      "type": "function"
    },
    {
      "inputs": [
        {
          "internalType": "uint16",
          "name": "market",
          "type": "uint16"
        }
      ],
      "name": "getMarket",
      "outputs": [
        {
          "internalType": "bytes",
          "name": "result",
          "type": "bytes"
        }
      ],
      "stateMutability": "view",
      "type": "function"
    },
    {
      "inputs": [],
      "name": "getMarkets",
      "outputs": [
        {
          "internalType": "bytes",
          "name": "result",
          "type": "bytes"
        }
      ],
      "stateMutability": "view",
      "type": "function"
    },
    {
      "inputs": [],
      "name": "getUSDDecimals",
      "outputs": [
        {
          "internalType": "uint8",
          "name": "",
          "type": "uint8"
        }
      ],
      "stateMutability": "pure",
      "type": "function"
    },
    {
      "inputs": [
        {
          "internalType": "uint16",
          "name": "market",
          "type": "uint16"
        }
      ],
      "name": "markeConfig",
      "outputs": [
        {
          "components": [
            {
              "internalType": "bool",
              "name": "isSuspended",
              "type": "bool"
            },
            {
              "internalType": "bool",
              "name": "allowOpen",
              "type": "bool"
            },
            {
              "internalType": "bool",
              "name": "allowClose",
              "type": "bool"
            },
            {
              "internalType": "bool",
              "name": "validDecrease",
              "type": "bool"
            },
            {
              "internalType": "uint16",
              "name": "minSlippage",
              "type": "uint16"
            },
            {
              "internalType": "uint16",
              "name": "maxSlippage",
              "type": "uint16"
            },
            {
              "internalType": "uint16",
              "name": "minLeverage",
              "type": "uint16"
            },
            {
              "internalType": "uint16",
              "name": "maxLeverage",
              "type": "uint16"
            },
            {
              "internalType": "uint16",
              "name": "minPayment",
              "type": "uint16"
            },
            {
              "internalType": "uint16",
              "name": "minCollateral",
              "type": "uint16"
            },
            {
              "internalType": "uint16",
              "name": "decreaseNumLimit",
              "type": "uint16"
            },
            {
              "internalType": "uint32",
              "name": "maxTradeAmount",
              "type": "uint32"
            }
          ],
          "internalType": "struct MarketHandler.Props",
          "name": "_config",
          "type": "tuple"
        }
      ],
      "stateMutability": "view",
      "type": "function"
    },
    {
      "inputs": [
        {
          "internalType": "uint16",
          "name": "marketId",
          "type": "uint16"
        }
      ],
      "name": "removeMarket",
      "outputs": [],
      "stateMutability": "nonpayable",
      "type": "function"
    },
    {
      "inputs": [
        {
          "internalType": "uint16",
          "name": "market",
          "type": "uint16"
        },
        {
          "components": [
            {
              "internalType": "bool",
              "name": "isSuspended",
              "type": "bool"
            },
            {
              "internalType": "bool",
              "name": "allowOpen",
              "type": "bool"
            },
            {
              "internalType": "bool",
              "name": "allowClose",
              "type": "bool"
            },
            {
              "internalType": "bool",
              "name": "validDecrease",
              "type": "bool"
            },
            {
              "internalType": "uint16",
              "name": "minSlippage",
              "type": "uint16"
            },
            {
              "internalType": "uint16",
              "name": "maxSlippage",
              "type": "uint16"
            },
            {
              "internalType": "uint16",
              "name": "minLeverage",
              "type": "uint16"
            },
            {
              "internalType": "uint16",
              "name": "maxLeverage",
              "type": "uint16"
            },
            {
              "internalType": "uint16",
              "name": "minPayment",
              "type": "uint16"
            },
            {
              "internalType": "uint16",
              "name": "minCollateral",
              "type": "uint16"
            },
            {
              "internalType": "uint16",
              "name": "decreaseNumLimit",
              "type": "uint16"
            },
            {
              "internalType": "uint32",
              "name": "maxTradeAmount",
              "type": "uint32"
            }
          ],
          "internalType": "struct MarketHandler.Props",
          "name": "data",
          "type": "tuple"
        }
      ],
      "name": "setMarketConf",
      "outputs": [],
      "stateMutability": "nonpayable",
      "type": "function"
    }
  ],
  "transactionHash": "0x1a990ac46c459e1bf8a7bd5020de6dd87f9d2c4c5af48fd384bf2f60392f1174",
  "args": [],
  "numDeployments": 8,
  "solcInputHash": "4179a7a63aef7d735cf27dac7b1dd28d",
  "bytecode": "0x60806040523462000023576200001462000029565b615e02620000358239615e0290f35b6200002f565b60405190565b600080fdfe60806040526004361015610013575b610f74565b61001e6000356100fd565b8063080c5c67146100f857806313a30013146100f357806331ab264f146100ee5780634a492f02146100e95780635874b736146100e4578063735a2885146100df57806379c1122b146100da57806379eba709146100d5578063b0a3961a146100d0578063bb715a85146100cb578063cc55e9d1146100c6578063e36b20c5146100c1578063e75c252e146100bc5763ec2c90160361000e57610f3f565b610f0b565b610eaa565b610e75565b610e1d565b610db5565b610d3b565b610c0f565b610a87565b6109ea565b610843565b6107c3565b6102c2565b6101c3565b60e01c90565b60405190565b600080fd5b600080fd5b600080fd5b600080fd5b600080fd5b600080fd5b909182601f8301121561015f5781359160018060401b03831161015a57602001926001830284011161015557565b610122565b61011d565b610118565b9060208282031261019457600082013560018060401b03811161018f5761018b9201610127565b9091565b610113565b61010e565b61ffff1690565b6101a990610199565b9052565b91906101c1906000602085019401906101a0565b565b346101f4576101f06101df6101d9366004610164565b90611aae565b6101e7610103565b918291826101ad565b0390f35b610109565b61020281610199565b0361020957565b600080fd5b9050359061021b826101f9565b565b90602082820312610237576102349160000161020e565b90565b61010e565b5190565b60209181520190565b60005b83811061025d575050906000910152565b80602091830151818501520161024c565b601f801991011690565b6102976102a06020936102a59361028e8161023c565b93848093610240565b95869101610249565b61026e565b0190565b6102bf9160208201916000818403910152610278565b90565b346102f2576102ee6102dd6102d836600461021d565b6120af565b6102e5610103565b918291826102a9565b0390f35b610109565b600080fd5b634e487b7160e01b600052604160045260246000fd5b9061031c9061026e565b810190811060018060401b0382111761033457604052565b6102fc565b9061034c610345610103565b9283610312565b565b151590565b61035c8161034e565b0361036357565b600080fd5b9050359061037582610353565b565b90565b61038381610377565b0361038a57565b600080fd5b9050359061039c8261037a565b565b90565b6103aa8161039e565b036103b157565b600080fd5b905035906103c3826103a1565b565b91906101008382031261046f57610468906103e1610100610339565b936103ef826000830161020e565b60008601526104018260208301610368565b60208601526104138260408301610368565b6040860152610425826060830161038f565b6060860152610437826080830161038f565b60808601526104498260a08301610368565b60a086015261045b8260c0830161038f565b60c086015260e0016103b6565b60e0830152565b6102f7565b906101008282031261048f5761048c916000016103c5565b90565b61010e565b5190565b60209181520190565b60200190565b6104b09061039e565b9052565b60018060801b031690565b6104c8906104b4565b9052565b6104d590610377565b9052565b6104e29061034e565b9052565b60018060401b031690565b6104fa906104e6565b9052565b63ffffffff1690565b610510906104fe565b9052565b60ff1690565b61052390610514565b9052565b60018060a01b031690565b61053b90610527565b90565b61054790610532565b9052565b60018060601b031690565b61055f9061054b565b9052565b61056c90610199565b9052565b906102e08061073f9361058b600082015160008601906104a7565b61059d602082015160208601906104bf565b6105af604082015160408601906104bf565b6105c1606082015160608601906104cc565b6105d3608082015160808601906104cc565b6105e560a082015160a08601906104d9565b6105f760c082015160c08601906104d9565b61060960e082015160e08601906104d9565b61061d6101008201516101008601906104d9565b6106316101208201516101208601906104d9565b6106456101408201516101408601906104f1565b6106596101608201516101608601906104f1565b61066d6101808201516101808601906104f1565b6106816101a08201516101a0860190610507565b6106956101c08201516101c086019061051a565b6106a96101e08201516101e086019061053e565b6106bd610200820151610200860190610556565b6106d16102208201516102208601906104cc565b6106e56102408201516102408601906104d9565b6106f96102608201516102608601906104d9565b61070d610280820151610280860190610563565b6107216102a08201516102a0860190610556565b6107356102c08201516102c08601906104bf565b015191019061051a565b565b9061074f8161030093610570565b0190565b60200190565b9061077661077061076984610494565b8093610498565b926104a1565b9060005b8181106107875750505090565b9091926107a061079a6001928651610741565b94610753565b910191909161077a565b6107c09160208201916000818403910152610759565b90565b346107f3576107ef6107de6107d9366004610474565b612152565b6107e6610103565b918291826107aa565b0390f35b610109565b91909160408184031261083857610812836000830161020e565b92602082013560018060401b0381116108335761082f9201610127565b9091565b610113565b61010e565b60000190565b346108725761085c6108563660046107f8565b916121cc565b610864610103565b8061086e8161083d565b0390f35b610109565b600080fd5b60018060401b0381116108985761089460209161026e565b0190565b6102fc565b90826000939282370152565b909291926108be6108b98261087c565b610339565b938185526020850190828401116108da576108d89261089d565b565b610877565b9080601f830112156108fd578160206108fa933591016108a9565b90565b610118565b61090b81610532565b0361091257565b600080fd5b9050359061092482610902565b565b600080fd5b908161018091031261093a5790565b610926565b610220818303126109e557600081013560018060401b0381116109e057826109689183016108df565b926109768360208401610917565b92610984816040850161038f565b92610992826060830161092b565b926101e082013560018060401b0381116109db57836109b2918401610127565b92909361020082013560018060401b0381116109d6576109d29201610127565b9091565b610113565b610113565b610113565b61010e565b34610a2457610a20610a0f610a0036600461093f565b969590959491949392936127a9565b610a17610103565b918291826101ad565b0390f35b610109565b9091606082840312610a5f57610a5c610a458460008501610917565b93610a538160208601610917565b93604001610368565b90565b61010e565b610a6d90610377565b9052565b9190610a8590600060208501940190610a64565b565b34610ab857610ab4610aa3610a9d366004610a29565b916127c4565b610aab610103565b91829182610a71565b0390f35b610109565b610ac6816104fe565b03610acd57565b600080fd5b90503590610adf82610abd565b565b919061018083820312610bdb57610bd390610afd610180610339565b93610b0b8260008301610368565b6000860152610b1d8260208301610368565b6020860152610b2f8260408301610368565b6040860152610b418260608301610368565b6060860152610b53826080830161020e565b6080860152610b658260a0830161020e565b60a0860152610b778260c0830161020e565b60c0860152610b898260e0830161020e565b60e0860152610b9c82610100830161020e565b610100860152610bb082610120830161020e565b610120860152610bc482610140830161020e565b61014086015261016001610ad2565b610160830152565b6102f7565b91906101a083820312610c0a5780610bfe610c07926000860161020e565b93602001610ae1565b90565b61010e565b34610c3e57610c28610c22366004610be0565b906127fd565b610c30610103565b80610c3a8161083d565b0390f35b610109565b9061016080610d2293610c5e600082015160008601906104d9565b610c70602082015160208601906104d9565b610c82604082015160408601906104d9565b610c94606082015160608601906104d9565b610ca660808201516080860190610563565b610cb860a082015160a0860190610563565b610cca60c082015160c0860190610563565b610cdc60e082015160e0860190610563565b610cf0610100820151610100860190610563565b610d04610120820151610120860190610563565b610d18610140820151610140860190610563565b0151910190610507565b565b9190610d399060006101808501940190610c43565b565b34610d6b57610d67610d56610d5136600461021d565b612ac4565b610d5e610103565b91829182610d24565b0390f35b610109565b90602082820312610d8a57610d8791600001610917565b90565b61010e565b90565b610d9b90610d8f565b9052565b9190610db390600060208501940190610d92565b565b34610de557610de1610dd0610dcb366004610d70565b612bd1565b610dd8610103565b91829182610d9f565b0390f35b610109565b6000910312610df557565b61010e565b610e0390610514565b9052565b9190610e1b90600060208501940190610dfa565b565b34610e4d57610e2d366004610dea565b610e49610e38612cc3565b610e40610103565b91829182610e07565b0390f35b610109565b610e5b9061034e565b9052565b9190610e7390600060208501940190610e52565b565b34610ea557610ea1610e90610e8b36600461021d565b612cdc565b610e98610103565b91829182610e5f565b0390f35b610109565b34610ed857610ec2610ebd36600461021d565b612e08565b610eca610103565b80610ed48161083d565b0390f35b610109565b9190604083820312610f065780610efa610f03926000860161020e565b9360200161038f565b90565b61010e565b34610f3a57610f24610f1e366004610edd565b90612e2b565b610f2c610103565b80610f368161083d565b0390f35b610109565b34610f6f57610f4f366004610dea565b610f6b610f5a612f35565b610f62610103565b918291826102a9565b0390f35b610109565b600080fd5b600090565b90565b610f95610f90610f9a92610527565b610f7e565b610527565b90565b610fa690610f81565b90565b610fb290610f9d565b90565b60001c90565b61ffff1690565b610fce610fd391610fb5565b610fbb565b90565b610fe09054610fc2565b90565b90565b610ffa610ff5610fff92610fe3565b610f7e565b610199565b90565b634e487b7160e01b600052601160045260246000fd5b61102461102a91610199565b91610199565b019061ffff821161103757565b611002565b61104590610527565b90565b6110518161103c565b0361105857565b600080fd5b9050359061106a82611048565b565b6101e0818303126110c557600081013560018060401b0381116110c057826110959183016108df565b926110bd6110a6846020850161105d565b936110b4816040860161105d565b93606001610ae1565b90565b610113565b61010e565b6110d390610f9d565b90565b6110ea6110e56110ef92610199565b610f7e565b610199565b90565b906110fc906110d6565b600052602052604060002090565b5190565b634e487b7160e01b600052602260045260246000fd5b9060016002830492168015611144575b602083101461113f57565b61110e565b91607f1691611134565b600052602060002090565b601f602091010490565b1b90565b9190600861118391029161117d60001984611163565b92611163565b9181191691161790565b6111a161119c6111a692610377565b610f7e565b610377565b90565b90565b91906111c26111bd6111ca9361118d565b6111a9565b908354611167565b9055565b600090565b6111e5916111df6111ce565b916111ac565b565b5b8181106111f3575050565b8061120160006001936111d3565b016111e8565b9190601f8111611217575b505050565b6112236112489361114e565b90602061122f84611159565b83019310611250575b61124190611159565b01906111e7565b388080611212565b915061124181929050611238565b1c90565b90611273906000199060080261125e565b191690565b8161128291611262565b906002021790565b906112948161110a565b9060018060401b038211611354576112b6826112b08554611124565b85611207565b602090601f83116001146112eb579180916112da936000926112df575b5050611278565b90555b565b909150015138806112d3565b601f198316916112fa8561114e565b9260005b81811061133c57509160029391856001969410611322575b505050020190556112dd565b611332910151601f841690611262565b9055388080611316565b919360206001819287870151815501950192016112fe565b6102fc565b906113639161128a565b565b90565b61137c61137761138192611365565b610f7e565b610527565b90565b61138d90611368565b90565b9061139a906110d6565b600052602052604060002090565b60001b90565b906113bf60018060a01b03916113a8565b9181191691161790565b6113d290610f9d565b90565b90565b906113ed6113e86113f4926113c9565b6113d5565b82546113ae565b9055565b61140190610f81565b90565b61140d906113f8565b90565b61141990610f9d565b90565b600080fd5b60e01b90565b9050519061143482610902565b565b906020828203126114505761144d91600001611427565b90565b61010e565b61145d610103565b3d6000823e3d90fd5b90611470906113c9565b600052602052604060002090565b90565b61149561149061149a92610199565b610f7e565b610377565b90565b60209181520190565b60207f7473000000000000000000000000000000000000000000000000000000000000917f4d61726b657446616365743a206d61726b657420616c7265616479206578697360008201520152565b611501602260409261149d565b61150a816114a6565b0190565b61152490602081019060008183039101526114f4565b90565b1561152e57565b611536610103565b62461bcd60e51b81528061154c6004820161150e565b0390fd5b9061155a906110d6565b600052602052604060002090565b611572905161034e565b90565b9061158160ff916113a8565b9181191691161790565b6115949061034e565b90565b90565b906115af6115aa6115b69261158b565b611597565b8254611575565b9055565b60081b90565b906115cd61ff00916115ba565b9181191691161790565b906115ec6115e76115f39261158b565b611597565b82546115c0565b9055565b60101b90565b9061160b62ff0000916115f7565b9181191691161790565b9061162a6116256116319261158b565b611597565b82546115fd565b9055565b60181b90565b9061164a63ff00000091611635565b9181191691161790565b906116696116646116709261158b565b611597565b825461163b565b9055565b61167e9051610199565b90565b60201b90565b9061169761ffff60201b91611681565b9181191691161790565b90565b906116b96116b46116c0926110d6565b6116a1565b8254611687565b9055565b60301b90565b906116da61ffff60301b916116c4565b9181191691161790565b906116f96116f4611700926110d6565b6116a1565b82546116ca565b9055565b60401b90565b9061171a61ffff60401b91611704565b9181191691161790565b90611739611734611740926110d6565b6116a1565b825461170a565b9055565b60501b90565b9061175a61ffff60501b91611744565b9181191691161790565b90611779611774611780926110d6565b6116a1565b825461174a565b9055565b60601b90565b9061179a61ffff60601b91611784565b9181191691161790565b906117b96117b46117c0926110d6565b6116a1565b825461178a565b9055565b60701b90565b906117da61ffff60701b916117c4565b9181191691161790565b906117f96117f4611800926110d6565b6116a1565b82546117ca565b9055565b60801b90565b9061181a61ffff60801b91611804565b9181191691161790565b90611839611834611840926110d6565b6116a1565b825461180a565b9055565b61184e90516104fe565b90565b60901b90565b9061186963ffffffff60901b91611851565b9181191691161790565b61188761188261188c926104fe565b610f7e565b6104fe565b90565b90565b906118a76118a26118ae92611873565b61188f565b8254611857565b9055565b906119d161016060006119d7946118d68282016118d0848801611568565b9061159a565b6118ee8282016118e860208801611568565b906115d7565b61190682820161190060408801611568565b90611615565b61191e82820161191860608801611568565b90611654565b61193682820161193060808801611674565b906116a4565b61194e82820161194860a08801611674565b906116e4565b61196682820161196060c08801611674565b90611724565b61197e82820161197860e08801611674565b90611764565b6119978282016119916101008801611674565b906117a4565b6119b08282016119aa6101208801611674565b906117e4565b6119c98282016119c36101408801611674565b90611824565b019201611844565b90611892565b565b906119e3916118b2565b565b906119f261ffff916113a8565b9181191691161790565b90611a11611a0c611a18926110d6565b6116a1565b82546119e5565b9055565b611a3b611a44602093611a4993611a328161110a565b9384809361149d565b95869101610249565b61026e565b0190565b611a5690610532565b9052565b90611aac94611a9b611a90611aa5936080969a99979a611a8361020088019260008901906101a0565b8682036020880152611a1c565b986040850190611a4d565b6060830190611a4d565b0190610c43565b565b9190611b20611b14611b2692611ac2610f79565b50611acc30610fa9565b611ade611ad833610532565b91610532565b03611cfa575b611b0a611afa6006611af461336d565b01610fd6565b611b046001610fe6565b90611018565b959081019061106c565b949192939093926110ca565b926110ca565b92611b4582611b406001611b3861336d565b0189906110f2565b611359565b83611b61611b5b611b566000611384565b610532565b91610532565b14600014611cd357611b96906020611b80611b7b86611404565b611410565b6338d52e0f90611b8e610103565b948592611421565b82528180611ba66004820161083d565b03915afa918215611cce57611c9b92611bdc91600091611ca0575b50611bd76003611bcf61336d565b018a90611390565b6113d8565b5b611c14611c0f611c00611bfb6005611bf361336d565b018890611466565b61147e565b611c098a611481565b90613397565b611527565b611c3284611c2d6002611c2561336d565b018a90611390565b6113d8565b611c5081611c4b6000611c4361336d565b018a90611550565b6119d9565b611c64876006611c5e61336d565b016119fc565b869293947f09889d650492190b1f8223699629e1608c1b0732c9b808fc509260af2f6e087195611c92610103565b95869586611a5a565b0390a1565b611cc1915060203d8111611cc7575b611cb98183610312565b810190611436565b38611bc1565b503d611caf565b611455565b611c9b90611cf585611cf06003611ce861336d565b018a90611390565b6113d8565b611bdd565b611d0733600036916131e2565b611ae4565b606090565b60018060a01b031690565b611d28611d2d91610fb5565b611d11565b90565b611d3a9054611d1c565b90565b90611d47906110d6565b600052602052604060002090565b90565b611d64611d6991610fb5565b611d55565b90565b611d769054611d58565b90565b9060009291805490611d94611d8d83611124565b809461149d565b91600181169081600014611ded5750600114611db0575b505050565b611dbd919293945061114e565b916000925b818410611dd55750500190388080611dab565b60018160209295939554848601520191019290611dc2565b92949550505060ff1916825215156020020190388080611dab565b60ff1690565b611e1a611e1f91610fb5565b611e08565b90565b60081c90565b611e34611e3991611e22565b611e08565b90565b60101c90565b611e4e611e5391611e3c565b611e08565b90565b60181c90565b611e68611e6d91611e56565b611e08565b90565b60201c90565b611e82611e8791611e70565b610fbb565b90565b60301c90565b611e9c611ea191611e8a565b610fbb565b90565b60401c90565b611eb6611ebb91611ea4565b610fbb565b90565b60501c90565b611ed0611ed591611ebe565b610fbb565b90565b60601c90565b611eea611eef91611ed8565b610fbb565b90565b60701c90565b611f04611f0991611ef2565b610fbb565b90565b60801c90565b611f1e611f2391611f0c565b610fbb565b90565b60901c90565b63ffffffff1690565b611f41611f4691611f26565b611f2c565b90565b90610160612052600061205a940154611f6e611f6482611e0e565b60008601906104d9565b611f84611f7a82611e28565b60208601906104d9565b611f9a611f9082611e42565b60408601906104d9565b611fb0611fa682611e5c565b60608601906104d9565b611fc6611fbc82611e76565b6080860190610563565b611fdc611fd282611e90565b60a0860190610563565b611ff2611fe882611eaa565b60c0860190610563565b612008611ffe82611ec4565b60e0860190610563565b61201f61201482611ede565b610100860190610563565b61203661202b82611ef8565b610120860190610563565b61204d61204282611f12565b610140860190610563565b611f35565b910190610507565b565b906120ad9461209c6080949897956120926120876120a69561020088019088820360008a0152611d79565b9a6020870190611a4d565b6040850190611a4d565b6060830190610a64565b0190611f49565b565b6120b7611d0c565b5061214a6120c361336d565b9161213b6120d56001850183906110f2565b916120ec6120e7600287018390611390565b611d30565b94612126612106612101600384018590611390565b611d30565b92600061211f61211a600486018490611d3d565b611d6c565b9301611550565b9161212f610103565b9687956020870161205c565b60208201810382520382610312565b90565b606090565b6121649061215e61214d565b506136bc565b90565b9190604083820312612190578061218461218d926000860161105d565b9360200161038f565b90565b61010e565b906121a2600019916113a8565b9181191691161790565b906121c16121bc6121c89261118d565b6111a9565b8254612195565b9055565b61223390600561221961222c612212612238976121e830610fa9565b6121fa6121f433610532565b91610532565b0361223a575b612208613967565b9790810190612167565b92906110ca565b612227600288018690611390565b6113d8565b9301611d3d565b6121ac565b565b61224733600036916131e2565b612200565b9061225d9897969594939291612507565b90565b61226990610f81565b90565b61227590612260565b90565b50612287906020810190610368565b90565b5061229990602081019061020e565b90565b506122ab906020810190610ad2565b90565b906101606123e66123ee936122d36122c96000830183612278565b60008601906104d9565b6122ed6122e36020830183612278565b60208601906104d9565b6123076122fd6040830183612278565b60408601906104d9565b6123216123176060830183612278565b60608601906104d9565b61233b612331608083018361228a565b6080860190610563565b61235561234b60a083018361228a565b60a0860190610563565b61236f61236560c083018361228a565b60c0860190610563565b61238961237f60e083018361228a565b60e0860190610563565b6123a561239a61010083018361228a565b610100860190610563565b6123c16123b661012083018361228a565b610120860190610563565b6123dd6123d261014083018361228a565b610140860190610563565b8281019061229c565b910190610507565b565b61242c61243394612422612417606095999896996101e08601908682036000880152611a1c565b986020850190611a4d565b6040830190611a4d565b01906122ae565b565b90505190612442826101f9565b565b9060208282031261245e5761245b91600001612435565b90565b61010e565b600091031261246e57565b61010e565b919061248d816124868161249295610240565b809561089d565b61026e565b0190565b916124bc9391926124af604082019460008301906101a0565b6020818503910152612473565b90565b9160206124e19294936124da604082019660008301906101a0565b0190610a64565b565b6124ec90610f81565b90565b6124f8906124e3565b90565b61250490610f9d565b90565b91612582600061258d95979b9a999896936020955061256e61253861253361252e30610fa9565b61226c565b610fa9565b9461256063080c5c6793919761254d86611384565b612555610103565b998a948c86016123f0565b888201810382520386610312565b612576610103565b96879586948593611421565b8352600483016102a9565b03925af19081156127a457600091612776575b50956125bb6125b66125b130610fa9565b61226c565b610fa9565b90634a492f029188919392813b156127715760006125ec916125f782966125e0610103565b98899788968795611421565b855260048501612496565b03925af1801561276c5761273f575b5061262061261b61261630610fa9565b61226c565b610fa9565b9063e75c252e90869092803b1561273a5761264f6000809461265a612643610103565b97889687958694611421565b8452600484016124bf565b03925af1801561273557612708575b5061268361267e61267930610fa9565b6124ef565b6124fb565b9063524430fe9185919392813b156127035760006126b4916126bf82966126a8610103565b98899788968795611421565b855260048501612496565b03925af180156126fe576126d1575b50565b6126f19060003d81116126f7575b6126e98183610312565b810190612463565b386126ce565b503d6126df565b611455565b61141c565b6127289060003d811161272e575b6127208183610312565b810190612463565b38612669565b503d612716565b611455565b61141c565b61275f9060003d8111612765575b6127578183610312565b810190612463565b38612606565b503d61274d565b611455565b61141c565b612797915060203d811161279d575b61278f8183610312565b810190612444565b386125a0565b503d612785565b611455565b906127c1979695949392916127bc610f79565b61224c565b90565b5050506127cf6111ce565b90565b906127dc916127de565b565b6127f66127fb929160006127f061336d565b01611550565b6119d9565b565b90612807916127d2565b565b612814610180610339565b90565b600090565b600090565b600090565b61282e612809565b90602080808080808080808080808d612845612817565b815201612850612817565b81520161285b612817565b815201612866612817565b81520161287161281c565b81520161287c61281c565b81520161288761281c565b81520161289261281c565b81520161289d61281c565b8152016128a861281c565b8152016128b361281c565b8152016128be612821565b81525050565b6128cc612826565b90565b6128d99054611e0e565b90565b906128e69061034e565b9052565b6128f49054611e28565b90565b6129019054611e42565b90565b61290e9054611e5c565b90565b61291b9054611e76565b90565b9061292890610199565b9052565b6129369054611e90565b90565b6129439054611eaa565b90565b6129509054611ec4565b90565b61295d9054611ede565b90565b61296a9054611ef8565b90565b6129779054611f12565b90565b6129849054611f35565b90565b90612991906104fe565b9052565b90612ab6612aac60006129a6612809565b946129bd6129b58383016128cf565b8388016128dc565b6129d46129cb8383016128ea565b602088016128dc565b6129eb6129e28383016128f7565b604088016128dc565b612a026129f9838301612904565b606088016128dc565b612a19612a10838301612911565b6080880161291e565b612a30612a2783830161292c565b60a0880161291e565b612a47612a3e838301612939565b60c0880161291e565b612a5e612a55838301612946565b60e0880161291e565b612a76612a6c838301612953565b610100880161291e565b612a8e612a84838301612960565b610120880161291e565b612aa6612a9c83830161296d565b610140880161291e565b0161297a565b6101608401612987565b565b612ac190612995565b90565b612ae4612ae991612ad36128c4565b506000612ade61336d565b01611550565b612ab8565b90565b600090565b612b05612b00612b0a92611365565b610f7e565b610d8f565b90565b612b21612b1c612b2692611365565b610f7e565b610377565b90565b6001612b359101610377565b90565b5190565b634e487b7160e01b600052603260045260246000fd5b90612b5c82612b38565b811015612b6d576020809102010190565b612b3c565b612b7c9051610377565b90565b612b93612b8e612b9892610377565b610f7e565b610199565b90565b612baa612bb091939293610d8f565b92610d8f565b80830192600082851215818312169285129112151617612bcc57565b611002565b612bf9612bf4612bfe92612be3612aec565b506005612bee61336d565b01611466565b61147e565b613977565b612c086000612af1565b90612c136000612b0d565b915b82612c30612c2a612c2585612b38565b610377565b91610377565b1015612c8c57612c80612c8691612c7a612c5b612c56612c51878990612b52565b612b72565b612b7f565b80612c74612c6b826001906139a0565b916000906139a0565b916139c2565b90612b9b565b92612b29565b91612c15565b91505090565b600090565b90565b612cae612ca9612cb392612c97565b610f7e565b610514565b90565b612cc06012612c9a565b90565b612ccb612c92565b50612cd4612cb6565b90565b600090565b612d2a90612ce8612cd7565b50612d24612d1e612d19612cfa61336d565b6005612d12612d0d600284018890611390565b611d30565b9101611466565b61147e565b91611481565b906139f4565b90565b612d3690612d9d565b565b91906008612d58910291612d5260018060a01b0384611163565b92611163565b9181191691161790565b9190612d78612d73612d80936113c9565b6113d5565b908354612d38565b9055565b600090565b612d9b91612d95612d84565b91612d62565b565b6000612e01612e0692612df0612de1612ddc612dcc612dc76002612dbf61336d565b018690611390565b611d30565b6005612dd661336d565b01611466565b61147e565b612dea83611481565b90613a1f565b506002612dfb61336d565b01611390565b612d89565b565b612e1190612d2d565b565b90612e1d90611481565b600052602052604060002090565b90612e64612e6992612e3c30610fa9565b612e4e612e4833610532565b91610532565b03612e6b575b6003612e5e613a6e565b01612e13565b6121ac565b565b612e7833600036916131e2565b612e54565b90565b612e94612e8f612e9992612e7d565b610f7e565b610377565b90565b612eab612eb191939293610377565b92610377565b91612ebd838202610377565b928184041490151715612ecc57565b611002565b60018060401b038111612eed57612ee960209161026e565b0190565b6102fc565b90612f04612eff83612ed1565b610339565b918252565b369037565b90612f33612f1b83612ef2565b92602080612f298693612ed1565b9201910390612f09565b565b612f3d611d0c565b50612f4661336d565b90612f65612f60612f5b600585013390611466565b61147e565b613977565b91612f8a612f85612f7585612b38565b612f7f6020612e80565b90612e9c565b612f0e565b90612f956000612b0d565b5b80612fb1612fab612fa688612b38565b610377565b91610377565b10156130705761306b90612fd6612fd1612fcc888490612b52565b612b72565b612b7f565b61305f612fe76001860183906110f2565b613050613000612ffb600289018690611390565b611d30565b9361301761301260038a018390611390565b611d30565b9061303b61303161302c60048c018490611d3d565b611d6c565b9160008b01611550565b91613044610103565b9687956020870161205c565b60208201810382520382610312565b60208202850152612b29565b612f96565b505090915090565b61308190610f9d565b90565b90565b61309b6130966130a092613084565b610f7e565b610377565b90565b600080fd5b600080fd5b909392938483116130cd5784116130c8576001820201920390565b6130a8565b6130a3565b5090565b63ffffffff60e01b1690565b906130f06130f791836130d2565b91356130d6565b9060048110613105575b5090565b61311d9063ffffffff60e01b90600403600802611163565b1638613101565b61313861313361313d92611365565b610f7e565b6104fe565b90565b919061315490600060208501940190611a4d565b565b60a01b90565b9061316b60ff60a01b91613156565b9181191691161790565b9061318a6131856131919261158b565b611597565b825461315c565b9055565b61319e90610f81565b90565b6131aa90613195565b90565b6131b690610f9d565b90565b916131df9391926131d260408201946000830190611a4d565b6020818503910152612473565b90565b6131ea613ac4565b9161323d6132356131f9613acf565b8461320330613078565b9061322f613229878b60009061322361321d600493612b0d565b92613087565b926130ad565b906130e2565b92613be8565b91901561034e565b613249575b5050505050565b61325c6132566000613124565b916104fe565b1160001461332457613272600160008501613175565b61328a613285613280613acf565b6131a1565b6131ad565b6394c7d7ee92919492813b1561331f5760006132b9916132c482966132ad610103565b998a9788968795611421565b8552600485016131b9565b03925af191821561331a576132e3926132ed575b506000809101613175565b3880808080613242565b61330d9060003d8111613313575b6133058183610312565b810190612463565b386132d8565b503d6132fb565b611455565b61141c565b61334582613330610103565b91829162d1953b60e31b835260048301613140565b0390fd5b7f2eec39e2b6bcfb5f1ee2be0b6e9d5a470a45585b1e2f7f291af9fb9f551763d090565b613375613349565b90565b61338c61338761339192610377565b6113a8565b61039e565b90565b90565b906133ba6133b460006133bf946133ac612cd7565b500192613378565b91613394565b613dae565b90565b906133cc9061039e565b9052565b60007f6f7261636c655072696365207a65726f00000000000000000000000000000000910152565b613405601060209261149d565b61340e816133d0565b0190565b61342890602081019060008183039101526133f8565b90565b1561343257565b61343a610103565b62461bcd60e51b81528061345060048201613412565b0390fd5b61345e905161039e565b90565b5190565b9061346f82613461565b811015613480576020809102010190565b612b3c565b61349961349461349e92611365565b6113a8565b61039e565b90565b60018060401b0381116134b75760208091020190565b6102fc565b906134ce6134c9836134a1565b610339565b918252565b6134de610300610339565b90565b600090565b600090565b600090565b600090565b600090565b600090565b600090565b61350c6134d3565b90816135166134e1565b81526020016135236134e6565b81526020016135306134e6565b815260200161353d6134eb565b815260200161354a6134eb565b8152602001613557612817565b8152602001613564612817565b8152602001613571612817565b815260200161357e612817565b815260200161358b612817565b81526020016135986134f0565b81526020016135a56134f0565b81526020016135b26134f0565b81526020016135bf612821565b81526020016135cc6134f5565b81526020016135d96134fa565b81526020016135e66134ff565b81526020016135f36134eb565b8152602001613600612817565b815260200161360d612817565b815260200161361a61281c565b81526020016136276134ff565b81526020016136346134e6565b81526020016136416134f5565b815250565b61364e613504565b90565b60005b82811061366057505050565b60209061366b613646565b8184015201613654565b9061369a613682836134bc565b9260208061369086936134a1565b9201910390613651565b565b906136a682610494565b8110156136b7576020809102010190565b612b3c565b906136c561214d565b506136ff6136f66136d860008501611674565b6136e460208601611568565b6136f060408701611568565b91613ee8565b60e084016133c2565b61372761370e60c08401612b72565b61372161371b6000612b0d565b91610377565b1161342b565b61375461373660e08401613454565b61374260608501612b72565b61374e60808601612b72565b91613f4a565b9161375d6111ce565b9061376784613461565b61376f6111ce565b5b8061378361377d84610377565b91610377565b101561383a5761379c613797878390613465565b613454565b6137b26137ab60e08601613454565b829061447e565b906137c9826137c360c08801612b72565b906144af565b9081613815575b50908115613802575b506137ed575b6137e890612b29565b613770565b926137fa6137e891612b29565b9390506137df565b61380f915060c001611568565b386137d9565b905061383261382c6138276000613485565b61039e565b9161039e565b1415386137d0565b5092909161384790613675565b916138506111ce565b916138596111ce565b5b8061386d61386788610377565b91610377565b101561393a57613886613881888390613465565b613454565b61389c61389560e08601613454565b829061447e565b906138b3826138ad60c08801612b72565b906144af565b9081613915575b508015613903575b6138d6575b506138d190612b29565b61385a565b6138d191946138f56138fc928883916138ef838361369c565b5261369c565b5150612b29565b93906138c7565b5061391060c08201611568565b6138c2565b905061393261392c6139276000613485565b61039e565b9161039e565b1415386138ba565b50935050509150565b7f215c1de8a6459dcf0789cdceef063745b34797042fd1550737c0f263affdef6490565b61396f613943565b90565b606090565b61398f600061399492613988613972565b5001613394565b6145dd565b61399c613972565b5090565b6139bf916139ac6111ce565b506139b8828290614683565b9091614823565b90565b906139f1926139e16139eb926139d6612aec565b508490600191614a21565b9290600091614a21565b90612b9b565b90565b90613a17613a116000613a1c94613a09612cd7565b500192613378565b91613394565b614aa5565b90565b90613a42613a3c6000613a4794613a34612cd7565b500192613378565b91613394565b614b9f565b90565b7f4d502ef5fdff70d438af9761f5d88171826a8d62a1895d92f16b3f9b850427db90565b613a76613a4a565b90565b90565b613a90613a8b613a9592613a79565b6113a8565b61039e565b90565b613ac17ff3177357ab46d8af007ab3fdb9af81da189e1068fefdc0073dca88a2cab40a00613a7c565b90565b613acc613a98565b90565b613ad7612d84565b50613aeb6000613ae5613ac4565b01611d30565b90565b600090565b613afc906130d6565b9052565b604090613b2a613b319496959396613b2060608401986000850190611a4d565b6020830190611a4d565b0190613af3565b565b3d600014613b5057613b443d612ef2565b903d6000602084013e5b565b613b58611d0c565b90613b4e565b90565b613b75613b70613b7a92613b5e565b610f7e565b610377565b90565b90505190613b8a82610353565b565b90602082820312613ba657613ba391600001613b7d565b90565b61010e565b90505190613bb882610abd565b565b9190604083820312613be35780613bd7613be09260008601613b7d565b93602001613bab565b90565b61010e565b93926000918291613c3a613bfa612cd7565b95613c2b613c06613aee565b99949193613c12610103565b94859360046020860163b700961360e01b815201613b00565b60208201810382520382610312565b602081019051915afa613c4b613b33565b90613c56575b509190565b90613c608261023c565b613c73613c6d6040613b61565b91610377565b1015600014613ca25750613c999192506020613c8e8261023c565b818301019101613bba565b91905b38613c51565b90613cac8161023c565b613cbf613cb96020612e80565b91610377565b1015613ccc575b50613c9c565b613ce791506020613cdc8261023c565b818301019101613b8c565b38613cc6565b90565b600052602060002090565b5490565b613d0881613cfb565b821015613d2357613d1a600191613cf0565b91020190600090565b612b3c565b613d319061039e565b90565b613d3d90610fb5565b90565b9190613d56613d51613d5e93613d28565b613d34565b908354611167565b9055565b90815491600160401b831015613d8d5782613d85916001613d8b95018155613cff565b90613d40565b565b6102fc565b5490565b90613da090613d28565b600052602052604060002090565b613db6612cd7565b50613dcb613dc5828490614aa5565b1561034e565b600014613e0e57613e04613e0992613def613de860008501613ced565b8290613d62565b6001613dfd60008501613d92565b9301613d96565b6121ac565b600190565b5050600090565b600090565b60f81b90565b613e2990613e1a565b90565b613e3590613e20565b90565b613e44613e499161034e565b613e2c565b9052565b60f01b90565b613e5c90613e4d565b90565b613e6b613e7091610199565b613e53565b9052565b60029392613e94600183613e8c8295613e9c97613e38565b018092613e38565b018092613e5f565b0190565b60200190565b613ec0613ebb613eb58361023c565b92613ea0565b613454565b9060208110613ece575b5090565b613ee19060001990602003600802611163565b1638613eca565b90613f2792613f13613f2292613efc613e15565b509193613f07610103565b94859360208501613e74565b60208201810382520382610312565b613ea6565b90565b606090565b90613f3990613d28565b600052602052604060002090565b90565b91613f73613f6e613f7b94613f5d613f2a565b506004613f68614ccd565b01613f2f565b613f47565b919091614d36565b90565b613f86613504565b90565b90613f9390613d28565b600052602052604060002090565b90613fab90613d28565b600052602052604060002090565b90565b613fc8613fcd91610fb5565b613fb9565b90565b613fda9054613fbc565b90565b60018060801b031690565b613ff4613ff991610fb5565b613fdd565b90565b6140069054613fe8565b90565b90614013906104b4565b9052565b61402361402891611f0c565b613fdd565b90565b6140359054614017565b90565b9061404290610377565b9052565b61405261405791611e70565b611e08565b90565b6140649054614046565b90565b60281c90565b60018060401b031690565b61408461408991614067565b61406d565b90565b6140969054614078565b90565b906140a3906104e6565b9052565b60681c90565b6140b96140be916140a7565b61406d565b90565b6140cb90546140ad565b90565b60a81c90565b6140e06140e5916140ce565b61406d565b90565b6140f290546140d4565b90565b61410161410691610fb5565b611f2c565b90565b61411390546140f5565b90565b60ff1690565b61412861412d91611e70565b614116565b90565b61413a905461411c565b90565b9061414790610514565b9052565b61415761415c91614067565b611d11565b90565b614169905461414b565b90565b9061417690610532565b9052565b60018060601b031690565b61419161419691610fb5565b61417a565b90565b6141a39054614185565b90565b906141b09061054b565b9052565b6141c06141c591611e3c565b610fbb565b90565b6141d290546141b4565b90565b6141e16141e691611e70565b61417a565b90565b6141f390546141d5565b90565b61420261420791610fb5565b614116565b90565b61421490546141f6565b90565b9061447061446660096142286134d3565b9461424161423860008301613fd0565b600088016133c2565b61425961425060018301613ffc565b60208801614009565b6142716142686001830161402b565b60408801614009565b61428961428060028301611d6c565b60608801614038565b6142a161429860038301611d6c565b60808801614038565b6142b96142b0600483016128cf565b60a088016128dc565b6142d16142c8600483016128ea565b60c088016128dc565b6142e96142e0600483016128f7565b60e088016128dc565b6143026142f860048301612904565b61010088016128dc565b61431b6143116004830161405a565b61012088016128dc565b61433461432a6004830161408c565b6101408801614099565b61434d614343600483016140c1565b6101608801614099565b61436661435c600483016140e8565b6101808801614099565b61437f61437560058301614109565b6101a08801612987565b61439861438e60058301614130565b6101c0880161413d565b6143b16143a76005830161415f565b6101e0880161416c565b6143ca6143c060068301614199565b61020088016141a6565b6143e36143d960078301611d6c565b6102208801614038565b6143fc6143f2600883016128cf565b61024088016128dc565b61441561440b600883016128ea565b61026088016128dc565b61442e614424600883016141c8565b610280880161291e565b61444761443d600883016141e9565b6102a088016141a6565b6144606144566008830161402b565b6102c08801614009565b0161420a565b6102e0840161413d565b565b61447b90614217565b90565b6144ac916144a26144a792614491613f7e565b50600061449c614ccd565b01613f89565b613fa1565b614472565b90565b906144b8612cd7565b506144c560a08301611568565b6000146144ef576144e46144df60606144ea939401612b72565b610377565b91610377565b101590565b614507614502606061450d939401612b72565b610377565b91610377565b111590565b60209181520190565b600052602060002090565b90614533816020936104a7565b0190565b6145419054613fbc565b90565b60010190565b9061456761456161455a84613d92565b8093614512565b9261451b565b9060005b8181106145785750505090565b90919261459861459260019261458d87614537565b614526565b94614544565b910191909161456b565b906145ac9161454a565b90565b906145cf6145c8926145bf610103565b938480926145a2565b0383610312565b565b6145da906145af565b90565b60006145f2916145eb613f2a565b50016145d1565b90565b90565b61460c614607614611926145f5565b610f7e565b610377565b90565b61462968327cb2734119d3b7a9601e1b6145f8565b90565b90565b61464361463e6146489261462c565b610f7e565b610377565b90565b634e487b7160e01b600052601260045260246000fd5b61466d61467391610377565b91610377565b90811561467e570490565b61464b565b906146a2906146906111ce565b5061469c8382906151d0565b926151d0565b816146d06146ca6146c56000196146c06146ba614614565b9161462f565b614661565b610377565b91610377565b106146f2576146ea6146ef926146e4614614565b90614661565b612e9c565b90565b61470761470c92614701614614565b90612e9c565b614661565b90565b90614719906110d6565b600052602052604060002090565b60a01c90565b61473961473e91614727565b611f2c565b90565b61474b905461472d565b90565b61476261475d614767926104fe565b610f7e565b610377565b90565b61477661477b91611ea4565b611f2c565b90565b614788905461476a565b90565b61479a6147a091939293610377565b92610377565b82018092116147ab57565b611002565b6147bc6147c191611e70565b611f2c565b90565b6147ce90546147b0565b90565b6147e06147e691939293610377565b92610377565b82039182116147f157565b611002565b90565b61480d614808614812926147f6565b610f7e565b610377565b90565b6148206127106147f9565b90565b909161482d6111ce565b50614856614851600061484b6006614843613967565b01869061470f565b01614741565b61474e565b9161487461486f6004614867613967565b018390611d3d565b611d6c565b92426148af6148a96148a48461489e61489960006001614892613967565b010161477e565b61474e565b9061478b565b610377565b91610377565b119081156149a3575b508015614988575b61498257836148d76148d185610377565b91610377565b116000146149695761490f6149096149026148f38787906147d1565b5b6148fc614815565b90612e9c565b8690614661565b9161568f565b9081614930575b5061492a5761492792919091615715565b90565b50905090565b905061496161495b6149566149516000600161494a613967565b0101614109565b61474e565b610377565b91610377565b111538614916565b61490f61490961490261497d8688906147d1565b6148f4565b50505090565b508261499d6149976000612b0d565b91610377565b146148c0565b90506149df6149d96149d442936149ce6149c9600060016149c2613967565b01016147c4565b61474e565b9061478b565b610377565b91610377565b11386148b8565b6149fa6149f56149ff92610377565b610f7e565b610d8f565b90565b614a0b90610d8f565b600160ff1b8114614a1c5760000390565b611002565b614a3d9192614a3891614a32612aec565b50615796565b615a35565b90614a4a60008301612b72565b614a5d614a576000612b0d565b91610377565b14614a9657614a6b91615a5d565b90600014614a8057614a7c906149e6565b5b90565b614a8c614a91916149e6565b614a02565b614a7d565b5050614aa26000612af1565b90565b614ac3916001614abe92614ab7612cd7565b5001613d96565b611d6c565b614ad6614ad06000612b0d565b91610377565b141590565b614aef614aea614af492610fe3565b610f7e565b610377565b90565b614b0081613d92565b821015614b1b57614b1260019161451b565b91020190600090565b612b3c565b614b30906008614b35930261125e565b613fb9565b90565b90614b439154614b20565b90565b634e487b7160e01b600052603160045260246000fd5b614b6e91614b68613e15565b91613d40565b565b614b7981613cfb565b8015614b9a576001900390614b97614b918383613cff565b90614b5c565b55565b614b46565b614ba7612cd7565b50614bbe614bb9600183018490613d96565b611d6c565b9081614bd3614bcd6000612b0d565b91610377565b1415600014614ca157614c53926001614c4e9284614bfc600096614bf685614adb565b906147d1565b614c19614c0a888501613d92565b614c1386614adb565b906147d1565b81614c2c614c2683610377565b91610377565b03614c58575b505050614c48614c43868301613ced565b614b70565b01613d96565b6111d3565b600190565b614c9992614c8b614c77614c71614c94948c8901614af7565b90614b38565b93614c8585918c8901614af7565b90613d40565b91858501613d96565b6121ac565b388080614c32565b505050600090565b7fbf93ccae7e050fdad00615e220e3f9b7ebb112ac9318fb8604653a7d8091238890565b614cd5614ca9565b90565b60018060401b038111614cee5760208091020190565b6102fc565b90614d05614d0083614cd8565b610339565b918252565b369037565b90614d34614d1c83614cf3565b92602080614d2a8693614cd8565b9201910390614d0a565b565b929092614d41613f2a565b50614d4b81615b5f565b83614d5e614d5883610377565b91610377565b11614dd5575b50614d78614d738486906147d1565b614d0f565b91845b80614d8e614d8887610377565b91610377565b1015614dcc57614dc790614dc2614da6858390615b7f565b614dbd8791614db6858c906147d1565b9092613465565b6133c2565b612b29565b614d7b565b50935050905090565b9092509138614d64565b60007f5072696365466565643a20696e76616c69642070726963652066656564000000910152565b614e14601d60209261149d565b614e1d81614ddf565b0190565b614e379060208101906000818303910152614e07565b90565b15614e4157565b614e49610103565b62461bcd60e51b815280614e5f60048201614e21565b0390fd5b614e6c90610f81565b90565b614e7890614e63565b90565b614e8490610f9d565b90565b60018060501b031690565b614e9b81614e87565b03614ea257565b600080fd5b90505190614eb482614e92565b565b90602082820312614ed057614ecd91600001614ea7565b90565b61010e565b614ee9614ee4614eee92611365565b610f7e565b614e87565b90565b6001614efd9101614e87565b90565b614f0c614f1191611f0c565b611f2c565b90565b614f1e9054614f00565b90565b614f35614f30614f3a926104fe565b610f7e565b614e87565b90565b614f49614f4f91614e87565b91614e87565b90039060018060501b038211614f6157565b611002565b614f6f81610d8f565b03614f7657565b600080fd5b90505190614f8882614f66565b565b90505190614f978261037a565b565b919060a083820312614feb57614fb28160008501614ea7565b92614fc08260208301614f7b565b92614fe8614fd18460408501614f8a565b93614fdf8160608601614f8a565b93608001614ea7565b90565b61010e565b614ff990614e87565b9052565b919061501190600060208501940190614ff0565b565b60007f5072696365466565643a20696e76616c69642070726963650000000000000000910152565b615048601860209261149d565b61505181615013565b0190565b61506b906020810190600081830391015261503b565b90565b1561507557565b61507d610103565b62461bcd60e51b81528061509360048201615055565b0390fd5b6150ab6150a66150b092610d8f565b610f7e565b610377565b90565b906020828203126150cd576150ca91600001614f7b565b90565b61010e565b60007f5072696365466565643a20636f756c64206e6f74206665746368207072696365910152565b6151066020809261149d565b61510f816150d2565b0190565b61512990602081019060008183039101526150fa565b90565b1561513357565b61513b610103565b62461bcd60e51b81528061515160048201615113565b0390fd5b61515e81610514565b0361516557565b600080fd5b9050519061517782615155565b565b90602082820312615193576151909160000161516a565b90565b61010e565b6151ac6151a76151b192610514565b610f7e565b610377565b90565b6151bd90610377565b604d81116151cb57600a0a90565b611002565b91906151da6111ce565b5061521d6151fb6151f660026151ee613967565b018690611390565b611d30565b61521661521061520b6000611384565b610532565b91610532565b1415614e3a565b6152276000612b0d565b61526f602061525961525461524f61524a6002615242613967565b018a90611390565b611d30565b614e6f565b614e7b565b63668a0f0290615267610103565b938492611421565b8252818061527f6004820161083d565b03915afa90811561568a5760009161565c575b5061529d6000614ed5565b5b806152c66152c06152bb600060016152b4613967565b0101614f14565b614f21565b91614e87565b101561564057816152df6152d983614e87565b91614e87565b111561554e576152ed6111ce565b50806153026152fc6000614ed5565b91614e87565b1460001461547157615352602061533c61533761533261532d6002615325613967565b018c90611390565b611d30565b614e6f565b614e7b565b6350d25bcd9061534a610103565b938492611421565b825281806153626004820161083d565b03915afa801561546c5761539b9160009161543e575b506153968161539061538a6000612af1565b91610d8f565b1361506e565b615097565b5b836153b06153aa6000612b0d565b91610377565b14615432578480615418575b61540c576153ca851561034e565b806153f2575b6153e5575b506153e0905b614ef1565b61529e565b6153e091935092906153d5565b508061540661540086610377565b91610377565b106153d0565b6153e0919350926153db565b508061542c61542686610377565b91610377565b116153bc565b6153e0919350926153db565b61545f915060203d8111615465575b6154578183610312565b8101906150b3565b38615378565b503d61544d565b611455565b6154d760a06154a361549e615499615494600261548c613967565b018c90611390565b611d30565b614e6f565b614e7b565b639a6fc8f5906154cc6154b7878790614f3d565b926154c0610103565b95869485938493611421565b835260048301614ffd565b03915afa80156155495761551391600080929050615518575b5061550e816155086155026000612af1565b91610d8f565b1361506e565b615097565b61539c565b615539915060a03d8111615542575b6155318183610312565b810190614f99565b505050906154f0565b503d615527565b611455565b5050905060206155a261559d6155986155936155b896975b6155838761557d6155776000612b0d565b91610377565b1161512c565b600261558d613967565b01611390565b611d30565b614e6f565b614e7b565b63313ce567906155b0610103565b948592611421565b825281806155c86004820161083d565b03915afa91821561563b576155fe6155ef61560a946156049360009161560d575b50615198565b926155f8614614565b90612e9c565b916151b4565b90614661565b90565b61562e915060203d8111615634575b6156268183610312565b810190615179565b386155e9565b503d61561c565b611455565b5050905060206155a261559d6155986155936155b89697615566565b61567d915060203d8111615683575b6156758183610312565b810190614eb6565b38615292565b503d61566b565b611455565b615697612cd7565b506156a181615ccb565b9392509050826156b96156b383610377565b91610377565b1192836156d2575b5050506156cd57600190565b600090565b61570c9293506156fc6156eb61570693615701936147d1565b9460056156f6613967565b01611d3d565b611d6c565b610377565b91610377565b113880806156c1565b9161571e6111ce565b5060001461574e578161573961573383610377565b91610377565b1160001461574757505b5b90565b9050615743565b8161576161575b83610377565b91610377565b1060001461577057505b615744565b905061576b565b60018161578a6157929360029695613e38565b018092613e5f565b0190565b6157cc6157d1926157a5613e15565b506157bd6157b1610103565b93849260208401615777565b60208201810382520382610312565b613ea6565b90565b6157df610120610339565b90565b600090565b600090565b6157f46157d4565b90602080808080808080808a6158086134eb565b8152016158136134eb565b81520161581e6157e2565b8152016158296157e2565b8152016158346134eb565b81520161583f612817565b81520161584a612821565b81520161585561281c565b8152016158606157e7565b81525050565b61586e6157ec565b90565b9061587b90613d28565b600052602052604060002090565b90565b61589861589d91610fb5565b615889565b90565b6158aa905461588c565b90565b906158b790610d8f565b9052565b6158c76158cc91611e22565b611f2c565b90565b6158d990546158bb565b90565b6158e86158ed91614067565b610fbb565b90565b6158fa90546158dc565b90565b60381c90565b60018060481b031690565b61591a61591f916158fd565b615903565b90565b61592c905461590e565b90565b60018060481b031690565b906159449061592f565b9052565b90615a27615a1d60056159596157d4565b9461597261596960008301611d6c565b60008801614038565b61598a61598160018301611d6c565b60208801614038565b6159a2615999600283016158a0565b604088016158ad565b6159ba6159b1600383016158a0565b606088016158ad565b6159d26159c960048301611d6c565b60808801614038565b6159e96159e08383016128cf565b60a088016128dc565b615a006159f78383016158cf565b60c08801612987565b615a17615a0e8383016158f0565b60e0880161291e565b01615922565b610100840161593a565b565b615a3290615948565b90565b615a55615a5a91615a44615866565b506002615a4f615d87565b01615871565b615a29565b90565b919091615a68612cd7565b50615a716111ce565b50615a7e60808201612b72565b615a90615a8a85610377565b91610377565b11600014615b3e57615ad8615ac6615ab4615aad60808501612b72565b86906147d1565b5b615ac160008501612b72565b612e9c565b615ad260808401612b72565b90614661565b92615ae1612cd7565b50615aee60a08301611568565b600014615b1957615b0d615b086080615b13939401612b72565b610377565b91610377565b115b9190565b90615b32615b2c6080615b389301612b72565b92610377565b91610377565b11615b15565b615ad8615ac6615b5a85615b5460808601612b72565b906147d1565b615ab5565b615b776000615b7c92615b706111ce565b5001613394565b615d92565b90565b90615b986000615b9d93615b91613e15565b5001613394565b615daa565b90565b60018060a01b031690565b615bb7615bbc91610fb5565b615ba0565b90565b615bc99054615bab565b90565b90615bd690610527565b9052565b60c01c90565b615bec615bf191615bda565b611f2c565b90565b615bfe9054615be0565b90565b615c0d615c12916100fd565b611f2c565b90565b615c1f9054615c01565b90565b615c2c6080610339565b90565b90615c94615c8b6000615c40615c22565b94615c57615c4f838301615bbf565b838801615bcc565b615c6e615c65838301614741565b60208801612987565b615c85615c7c838301615bf4565b60408801612987565b01615c15565b60608401612987565b565b615c9f90615c2f565b90565b615cac9051610527565b90565b615cc3615cbe615cc892610527565b610f7e565b610377565b90565b615d06615d0b91615cda6111ce565b50615ce36111ce565b50615cec6111ce565b50615cf56111ce565b506006615d00613967565b0161470f565b615c96565b615d1f615d1a60008301615ca2565b615caf565b615d33615d2e60208401611844565b61474e565b92615d5c615d576060615d50615d4b60408801611844565b61474e565b9501611844565b61474e565b9193929190565b7f92bcfabaf0a890def3092675474357e5f93a0f117ca63a3db421d44c5b55fba590565b615d8f615d63565b90565b6000615da791615da06111ce565b5001613d92565b90565b615dc9916000615dc392615dbc613e15565b5001614af7565b90614b38565b9056fea2646970667358221220ca18b9c90fa58bb9c1ff6a720f28eaf9f7e1128f7d2f716500f5ffc68bd8fe7164736f6c63430008180033",
  "devdoc": {
    "kind": "dev",
    "methods": {},
    "version": 1
  },
  "userdoc": {
    "kind": "user",
    "methods": {},
    "version": 1
  },
  "storageLayout": {
    "storage": [],
    "types": null
  }
}