{
  "address": "0x81a7F4ba3c18736b03ad6127fE5fa4E4215C7b68",
  "abi": [
    {
      "inputs": [
        {
          "internalType": "address",
          "name": "authority",
          "type": "address"
        }
      ],
      "name": "AccessManagedInvalidAuthority",
      "type": "error"
    },
    {
      "inputs": [
        {
          "internalType": "address",
          "name": "caller",
          "type": "address"
        },
        {
          "internalType": "uint32",
          "name": "delay",
          "type": "uint32"
        }
      ],
      "name": "AccessManagedRequiredDelay",
      "type": "error"
    },
    {
      "inputs": [
        {
          "internalType": "address",
          "name": "caller",
          "type": "address"
        }
      ],
      "name": "AccessManagedUnauthorized",
      "type": "error"
    },
    {
      "anonymous": false,
      "inputs": [
        {
          "indexed": false,
          "internalType": "uint16",
          "name": "market",
          "type": "uint16"
        },
        {
          "indexed": false,
          "internalType": "string",
          "name": "name",
          "type": "string"
        },
        {
          "indexed": false,
          "internalType": "address",
          "name": "vault",
          "type": "address"
        },
        {
          "indexed": false,
          "internalType": "address",
          "name": "token",
          "type": "address"
        },
        {
          "components": [
            {
              "internalType": "bool",
              "name": "isSuspended",
              "type": "bool"
            },
            {
              "internalType": "bool",
              "name": "allowOpen",
              "type": "bool"
            },
            {
              "internalType": "bool",
              "name": "allowClose",
              "type": "bool"
            },
            {
              "internalType": "bool",
              "name": "validDecrease",
              "type": "bool"
            },
            {
              "internalType": "uint16",
              "name": "minSlippage",
              "type": "uint16"
            },
            {
              "internalType": "uint16",
              "name": "maxSlippage",
              "type": "uint16"
            },
            {
              "internalType": "uint16",
              "name": "minLeverage",
              "type": "uint16"
            },
            {
              "internalType": "uint16",
              "name": "maxLeverage",
              "type": "uint16"
            },
            {
              "internalType": "uint16",
              "name": "minPayment",
              "type": "uint16"
            },
            {
              "internalType": "uint16",
              "name": "minCollateral",
              "type": "uint16"
            },
            {
              "internalType": "uint16",
              "name": "decreaseNumLimit",
              "type": "uint16"
            },
            {
              "internalType": "uint32",
              "name": "maxTradeAmount",
              "type": "uint32"
            }
          ],
          "indexed": false,
          "internalType": "struct MarketHandler.Props",
          "name": "config",
          "type": "tuple"
        }
      ],
      "name": "MarketAdded",
      "type": "event"
    },
    {
      "inputs": [
        {
          "internalType": "bytes",
          "name": "data",
          "type": "bytes"
        }
      ],
      "name": "_addMarket",
      "outputs": [],
      "stateMutability": "nonpayable",
      "type": "function"
    },
    {
      "inputs": [
        {
          "internalType": "string",
          "name": "name",
          "type": "string"
        },
        {
          "internalType": "address",
          "name": "_vault",
          "type": "address"
        },
        {
          "internalType": "bool",
          "name": "isSuspended",
          "type": "bool"
        },
        {
          "internalType": "bool",
          "name": "allowOpen",
          "type": "bool"
        },
        {
          "internalType": "bool",
          "name": "allowClose",
          "type": "bool"
        },
        {
          "internalType": "bool",
          "name": "validDecrease",
          "type": "bool"
        },
        {
          "internalType": "uint16",
          "name": "minSlippage",
          "type": "uint16"
        },
        {
          "internalType": "uint16",
          "name": "maxSlippage",
          "type": "uint16"
        },
        {
          "internalType": "uint16",
          "name": "minLeverage",
          "type": "uint16"
        },
        {
          "internalType": "uint16",
          "name": "maxLeverage",
          "type": "uint16"
        },
        {
          "internalType": "uint16",
          "name": "minPayment",
          "type": "uint16"
        },
        {
          "internalType": "uint16",
          "name": "minCollateral",
          "type": "uint16"
        },
        {
          "internalType": "uint16",
          "name": "decreaseNumLimit",
          "type": "uint16"
        },
        {
          "internalType": "uint32",
          "name": "maxTradeAmount",
          "type": "uint32"
        }
      ],
      "name": "addMarket",
      "outputs": [],
      "stateMutability": "nonpayable",
      "type": "function"
    },
    {
      "inputs": [
        {
          "internalType": "address",
          "name": "market",
          "type": "address"
        },
        {
          "internalType": "address",
          "name": "account",
          "type": "address"
        },
        {
          "internalType": "bool",
          "name": "isLong",
          "type": "bool"
        }
      ],
      "name": "availableLiquidity",
      "outputs": [
        {
          "internalType": "uint256",
          "name": "",
          "type": "uint256"
        }
      ],
      "stateMutability": "view",
      "type": "function"
    },
    {
      "inputs": [
        {
          "internalType": "uint16",
          "name": "marketId",
          "type": "uint16"
        }
      ],
      "name": "containsMarket",
      "outputs": [
        {
          "internalType": "bool",
          "name": "",
          "type": "bool"
        }
      ],
      "stateMutability": "view",
      "type": "function"
    },
    {
      "inputs": [
        {
          "components": [
            {
              "internalType": "uint16",
              "name": "market",
              "type": "uint16"
            },
            {
              "internalType": "bool",
              "name": "isLong",
              "type": "bool"
            },
            {
              "internalType": "bool",
              "name": "isIncrease",
              "type": "bool"
            },
            {
              "internalType": "uint256",
              "name": "start",
              "type": "uint256"
            },
            {
              "internalType": "uint256",
              "name": "end",
              "type": "uint256"
            },
            {
              "internalType": "bool",
              "name": "isOpen",
              "type": "bool"
            },
            {
              "internalType": "uint256",
              "name": "oraclePrice",
              "type": "uint256"
            },
            {
              "internalType": "bytes32",
              "name": "storageKey",
              "type": "bytes32"
            }
          ],
          "internalType": "struct OrderFinderCache",
          "name": "cache",
          "type": "tuple"
        }
      ],
      "name": "getExecutableOrdersByPrice",
      "outputs": [
        {
          "components": [
            {
              "internalType": "bytes32",
              "name": "refCode",
              "type": "bytes32"
            },
            {
              "internalType": "uint128",
              "name": "collateral",
              "type": "uint128"
            },
            {
              "internalType": "uint128",
              "name": "size",
              "type": "uint128"
            },
            {
              "internalType": "uint256",
              "name": "price",
              "type": "uint256"
            },
            {
              "internalType": "uint256",
              "name": "tp",
              "type": "uint256"
            },
            {
              "internalType": "bool",
              "name": "triggerAbove",
              "type": "bool"
            },
            {
              "internalType": "bool",
              "name": "isFromMarket",
              "type": "bool"
            },
            {
              "internalType": "bool",
              "name": "isKeepLev",
              "type": "bool"
            },
            {
              "internalType": "bool",
              "name": "isKeepLevTP",
              "type": "bool"
            },
            {
              "internalType": "bool",
              "name": "isKeepLevSL",
              "type": "bool"
            },
            {
              "internalType": "uint64",
              "name": "orderID",
              "type": "uint64"
            },
            {
              "internalType": "uint64",
              "name": "pairId",
              "type": "uint64"
            },
            {
              "internalType": "uint64",
              "name": "fromId",
              "type": "uint64"
            },
            {
              "internalType": "uint32",
              "name": "updatedAtBlock",
              "type": "uint32"
            },
            {
              "internalType": "uint8",
              "name": "extra0",
              "type": "uint8"
            },
            {
              "internalType": "address",
              "name": "account",
              "type": "address"
            },
            {
              "internalType": "uint96",
              "name": "extra1",
              "type": "uint96"
            },
            {
              "internalType": "uint256",
              "name": "sl",
              "type": "uint256"
            },
            {
              "internalType": "bool",
              "name": "isIncrease",
              "type": "bool"
            },
            {
              "internalType": "bool",
              "name": "isLong",
              "type": "bool"
            },
            {
              "internalType": "uint16",
              "name": "market",
              "type": "uint16"
            },
            {
              "internalType": "uint96",
              "name": "extra2",
              "type": "uint96"
            },
            {
              "internalType": "uint128",
              "name": "gas",
              "type": "uint128"
            },
            {
              "internalType": "uint8",
              "name": "version",
              "type": "uint8"
            }
          ],
          "internalType": "struct OrderProps[]",
          "name": "_orders",
          "type": "tuple[]"
        }
      ],
      "stateMutability": "view",
      "type": "function"
    },
    {
      "inputs": [
        {
          "internalType": "address",
          "name": "_vault",
          "type": "address"
        }
      ],
      "name": "getGlobalPnl",
      "outputs": [
        {
          "internalType": "int256",
          "name": "",
          "type": "int256"
        }
      ],
      "stateMutability": "view",
      "type": "function"
    },
    {
      "inputs": [
        {
          "internalType": "uint16",
          "name": "market",
          "type": "uint16"
        }
      ],
      "name": "getMarket",
      "outputs": [
        {
          "internalType": "bytes",
          "name": "result",
          "type": "bytes"
        }
      ],
      "stateMutability": "view",
      "type": "function"
    },
    {
      "inputs": [],
      "name": "getMarkets",
      "outputs": [
        {
          "internalType": "bytes",
          "name": "result",
          "type": "bytes"
        }
      ],
      "stateMutability": "view",
      "type": "function"
    },
    {
      "inputs": [],
      "name": "getUSDDecimals",
      "outputs": [
        {
          "internalType": "uint8",
          "name": "",
          "type": "uint8"
        }
      ],
      "stateMutability": "pure",
      "type": "function"
    },
    {
      "inputs": [
        {
          "internalType": "uint16",
          "name": "market",
          "type": "uint16"
        }
      ],
      "name": "markeConfig",
      "outputs": [
        {
          "components": [
            {
              "internalType": "bool",
              "name": "isSuspended",
              "type": "bool"
            },
            {
              "internalType": "bool",
              "name": "allowOpen",
              "type": "bool"
            },
            {
              "internalType": "bool",
              "name": "allowClose",
              "type": "bool"
            },
            {
              "internalType": "bool",
              "name": "validDecrease",
              "type": "bool"
            },
            {
              "internalType": "uint16",
              "name": "minSlippage",
              "type": "uint16"
            },
            {
              "internalType": "uint16",
              "name": "maxSlippage",
              "type": "uint16"
            },
            {
              "internalType": "uint16",
              "name": "minLeverage",
              "type": "uint16"
            },
            {
              "internalType": "uint16",
              "name": "maxLeverage",
              "type": "uint16"
            },
            {
              "internalType": "uint16",
              "name": "minPayment",
              "type": "uint16"
            },
            {
              "internalType": "uint16",
              "name": "minCollateral",
              "type": "uint16"
            },
            {
              "internalType": "uint16",
              "name": "decreaseNumLimit",
              "type": "uint16"
            },
            {
              "internalType": "uint32",
              "name": "maxTradeAmount",
              "type": "uint32"
            }
          ],
          "internalType": "struct MarketHandler.Props",
          "name": "_config",
          "type": "tuple"
        }
      ],
      "stateMutability": "view",
      "type": "function"
    },
    {
      "inputs": [
        {
          "internalType": "uint16",
          "name": "marketId",
          "type": "uint16"
        }
      ],
      "name": "removeMarket",
      "outputs": [],
      "stateMutability": "nonpayable",
      "type": "function"
    },
    {
      "inputs": [
        {
          "internalType": "uint16",
          "name": "market",
          "type": "uint16"
        },
        {
          "components": [
            {
              "internalType": "bool",
              "name": "isSuspended",
              "type": "bool"
            },
            {
              "internalType": "bool",
              "name": "allowOpen",
              "type": "bool"
            },
            {
              "internalType": "bool",
              "name": "allowClose",
              "type": "bool"
            },
            {
              "internalType": "bool",
              "name": "validDecrease",
              "type": "bool"
            },
            {
              "internalType": "uint16",
              "name": "minSlippage",
              "type": "uint16"
            },
            {
              "internalType": "uint16",
              "name": "maxSlippage",
              "type": "uint16"
            },
            {
              "internalType": "uint16",
              "name": "minLeverage",
              "type": "uint16"
            },
            {
              "internalType": "uint16",
              "name": "maxLeverage",
              "type": "uint16"
            },
            {
              "internalType": "uint16",
              "name": "minPayment",
              "type": "uint16"
            },
            {
              "internalType": "uint16",
              "name": "minCollateral",
              "type": "uint16"
            },
            {
              "internalType": "uint16",
              "name": "decreaseNumLimit",
              "type": "uint16"
            },
            {
              "internalType": "uint32",
              "name": "maxTradeAmount",
              "type": "uint32"
            }
          ],
          "internalType": "struct MarketHandler.Props",
          "name": "data",
          "type": "tuple"
        }
      ],
      "name": "setMarketConf",
      "outputs": [],
      "stateMutability": "nonpayable",
      "type": "function"
    }
  ],
  "transactionHash": "0xe5b4756fcbc00a54d8bba5f21e48229603b494664979bf862fb6edfa9618cd4e",
  "args": [],
  "numDeployments": 6,
  "solcInputHash": "1dcb6aaba1ba97cd804fcdc1f6e94e24",
  "bytecode": "0x60806040523462000023576200001462000029565b615a60620000358239615a6090f35b6200002f565b60405190565b600080fdfe60806040526004361015610013575b610e89565b61001e6000356100dd565b8063080c5c67146100d857806313a30013146100d357806331ab264f146100ce578063735a2885146100c957806379c1122b146100c457806379eba709146100bf578063b0a3961a146100ba578063bb715a85146100b5578063ca2287f1146100b0578063cc55e9d1146100ab578063e36b20c5146100a65763ec2c90160361000e57610e54565b610e21565b610dec565b610d83565b610bd1565b610b69565b610aef565b6109c3565b61083b565b610784565b610283565b61017f565b60e01c90565b60405190565b600080fd5b600080fd5b600080fd5b600080fd5b600080fd5b600080fd5b909182601f8301121561013f5781359160018060401b03831161013a57602001926001830284011161013557565b610102565b6100fd565b6100f8565b9060208282031261017457600082013560018060401b03811161016f5761016b9201610107565b9091565b6100f3565b6100ee565b60000190565b346101ae57610198610192366004610144565b90611a79565b6101a06100e3565b806101aa81610179565b0390f35b6100e9565b61ffff1690565b6101c3816101b3565b036101ca57565b600080fd5b905035906101dc826101ba565b565b906020828203126101f8576101f5916000016101cf565b90565b6100ee565b5190565b60209181520190565b60005b83811061021e575050906000910152565b80602091830151818501520161020d565b601f801991011690565b6102586102616020936102669361024f816101fd565b93848093610201565b9586910161020a565b61022f565b0190565b6102809160208201916000818403910152610239565b90565b346102b3576102af61029e6102993660046101de565b6121ac565b6102a66100e3565b9182918261026a565b0390f35b6100e9565b600080fd5b634e487b7160e01b600052604160045260246000fd5b906102dd9061022f565b810190811060018060401b038211176102f557604052565b6102bd565b9061030d6103066100e3565b92836102d3565b565b151590565b61031d8161030f565b0361032457565b600080fd5b9050359061033682610314565b565b90565b61034481610338565b0361034b57565b600080fd5b9050359061035d8261033b565b565b90565b61036b8161035f565b0361037257565b600080fd5b9050359061038482610362565b565b91906101008382031261043057610429906103a26101006102fa565b936103b082600083016101cf565b60008601526103c28260208301610329565b60208601526103d48260408301610329565b60408601526103e68260608301610350565b60608601526103f88260808301610350565b608086015261040a8260a08301610329565b60a086015261041c8260c08301610350565b60c086015260e001610377565b60e0830152565b6102b8565b90610100828203126104505761044d91600001610386565b90565b6100ee565b5190565b60209181520190565b60200190565b6104719061035f565b9052565b60018060801b031690565b61048990610475565b9052565b61049690610338565b9052565b6104a39061030f565b9052565b60018060401b031690565b6104bb906104a7565b9052565b63ffffffff1690565b6104d1906104bf565b9052565b60ff1690565b6104e4906104d5565b9052565b60018060a01b031690565b6104fc906104e8565b90565b610508906104f3565b9052565b60018060601b031690565b6105209061050c565b9052565b61052d906101b3565b9052565b906102e0806107009361054c60008201516000860190610468565b61055e60208201516020860190610480565b61057060408201516040860190610480565b6105826060820151606086019061048d565b6105946080820151608086019061048d565b6105a660a082015160a086019061049a565b6105b860c082015160c086019061049a565b6105ca60e082015160e086019061049a565b6105de61010082015161010086019061049a565b6105f261012082015161012086019061049a565b6106066101408201516101408601906104b2565b61061a6101608201516101608601906104b2565b61062e6101808201516101808601906104b2565b6106426101a08201516101a08601906104c8565b6106566101c08201516101c08601906104db565b61066a6101e08201516101e08601906104ff565b61067e610200820151610200860190610517565b61069261022082015161022086019061048d565b6106a661024082015161024086019061049a565b6106ba61026082015161026086019061049a565b6106ce610280820151610280860190610524565b6106e26102a08201516102a0860190610517565b6106f66102c08201516102c0860190610480565b01519101906104db565b565b906107108161030093610531565b0190565b60200190565b9061073761073161072a84610455565b8093610459565b92610462565b9060005b8181106107485750505090565b90919261076161075b6001928651610702565b94610714565b910191909161073b565b610781916020820191600081840391015261071a565b90565b346107b4576107b061079f61079a366004610435565b61224f565b6107a76100e3565b9182918261076b565b0390f35b6100e9565b6107c2816104f3565b036107c957565b600080fd5b905035906107db826107b9565b565b9091606082840312610813576108106107f984600085016107ce565b9361080781602086016107ce565b93604001610329565b90565b6100ee565b61082190610338565b9052565b919061083990600060208501940190610818565b565b3461086c576108686108576108513660046107dd565b91612264565b61085f6100e3565b91829182610825565b0390f35b6100e9565b61087a816104bf565b0361088157565b600080fd5b9050359061089382610871565b565b91906101808382031261098f57610987906108b16101806102fa565b936108bf8260008301610329565b60008601526108d18260208301610329565b60208601526108e38260408301610329565b60408601526108f58260608301610329565b606086015261090782608083016101cf565b60808601526109198260a083016101cf565b60a086015261092b8260c083016101cf565b60c086015261093d8260e083016101cf565b60e08601526109508261010083016101cf565b6101008601526109648261012083016101cf565b6101208601526109788261014083016101cf565b61014086015261016001610886565b610160830152565b6102b8565b91906101a0838203126109be57806109b26109bb92600086016101cf565b93602001610895565b90565b6100ee565b346109f2576109dc6109d6366004610994565b9061229d565b6109e46100e3565b806109ee81610179565b0390f35b6100e9565b9061016080610ad693610a126000820151600086019061049a565b610a246020820151602086019061049a565b610a366040820151604086019061049a565b610a486060820151606086019061049a565b610a5a60808201516080860190610524565b610a6c60a082015160a0860190610524565b610a7e60c082015160c0860190610524565b610a9060e082015160e0860190610524565b610aa4610100820151610100860190610524565b610ab8610120820151610120860190610524565b610acc610140820151610140860190610524565b01519101906104c8565b565b9190610aed90600061018085019401906109f7565b565b34610b1f57610b1b610b0a610b053660046101de565b61253a565b610b126100e3565b91829182610ad8565b0390f35b6100e9565b90602082820312610b3e57610b3b916000016107ce565b90565b6100ee565b90565b610b4f90610b43565b9052565b9190610b6790600060208501940190610b46565b565b34610b9957610b95610b84610b7f366004610b24565b612647565b610b8c6100e3565b91829182610b53565b0390f35b6100e9565b6000910312610ba957565b6100ee565b610bb7906104d5565b9052565b9190610bcf90600060208501940190610bae565b565b34610c0157610be1366004610b9e565b610bfd610bec612739565b610bf46100e3565b91829182610bbb565b0390f35b6100e9565b600080fd5b60018060401b038111610c2757610c2360209161022f565b0190565b6102bd565b90826000939282370152565b90929192610c4d610c4882610c0b565b6102fa565b93818552602085019082840111610c6957610c6792610c2c565b565b610c06565b9080601f83011215610c8c57816020610c8993359101610c38565b90565b6100f8565b91906101c083820312610d7e57600083013560018060401b038111610d795781610cbc918501610c6e565b92610cca82602083016107ce565b92610cd88360408401610329565b92610ce68160608501610329565b92610cf48260808301610329565b92610d028360a08401610329565b92610d108160c085016101cf565b92610d1e8260e083016101cf565b92610d2d8361010084016101cf565b92610d3c8161012085016101cf565b92610d4b8261014083016101cf565b92610d76610d5d8461016085016101cf565b93610d6c8161018086016101cf565b936101a001610886565b90565b6100f3565b6100ee565b34610dc457610dae610d96366004610c91565b9c9b909b9a919a999299989398979497969596612978565b610db66100e3565b80610dc081610179565b0390f35b6100e9565b610dd29061030f565b9052565b9190610dea90600060208501940190610dc9565b565b34610e1c57610e18610e07610e023660046101de565b612995565b610e0f6100e3565b91829182610dd6565b0390f35b6100e9565b34610e4f57610e39610e343660046101de565b612ac1565b610e416100e3565b80610e4b81610179565b0390f35b6100e9565b34610e8457610e64366004610b9e565b610e80610e6f612b84565b610e776100e3565b9182918261026a565b0390f35b6100e9565b600080fd5b90565b610ea5610ea0610eaa926104e8565b610e8e565b6104e8565b90565b610eb690610e91565b90565b610ec290610ead565b90565b60001c90565b61ffff1690565b610ede610ee391610ec5565b610ecb565b90565b610ef09054610ed2565b90565b90565b610f0a610f05610f0f92610ef3565b610e8e565b6101b3565b90565b634e487b7160e01b600052601160045260246000fd5b610f34610f3a916101b3565b916101b3565b019061ffff8211610f4757565b610f12565b610f55906104e8565b90565b610f6181610f4c565b03610f6857565b600080fd5b90503590610f7a82610f58565b565b6101e081830312610fd557600081013560018060401b038111610fd05782610fa5918301610c6e565b92610fcd610fb68460208501610f6d565b93610fc48160408601610f6d565b93606001610895565b90565b6100f3565b6100ee565b610fe390610ead565b90565b610ffa610ff5610fff926101b3565b610e8e565b6101b3565b90565b9061100c90610fe6565b600052602052604060002090565b5190565b634e487b7160e01b600052602260045260246000fd5b9060016002830492168015611054575b602083101461104f57565b61101e565b91607f1691611044565b600052602060002090565b601f602091010490565b1b90565b9190600861109391029161108d60001984611073565b92611073565b9181191691161790565b6110b16110ac6110b692610338565b610e8e565b610338565b90565b90565b91906110d26110cd6110da9361109d565b6110b9565b908354611077565b9055565b600090565b6110f5916110ef6110de565b916110bc565b565b5b818110611103575050565b8061111160006001936110e3565b016110f8565b9190601f8111611127575b505050565b6111336111589361105e565b90602061113f84611069565b83019310611160575b61115190611069565b01906110f7565b388080611122565b915061115181929050611148565b1c90565b90611183906000199060080261116e565b191690565b8161119291611172565b906002021790565b906111a48161101a565b9060018060401b038211611264576111c6826111c08554611034565b85611117565b602090601f83116001146111fb579180916111ea936000926111ef575b5050611188565b90555b565b909150015138806111e3565b601f1983169161120a8561105e565b9260005b81811061124c57509160029391856001969410611232575b505050020190556111ed565b611242910151601f841690611172565b9055388080611226565b9193602060018192878701518155019501920161120e565b6102bd565b906112739161119a565b565b90565b61128c61128761129192611275565b610e8e565b6104e8565b90565b61129d90611278565b90565b906112aa90610fe6565b600052602052604060002090565b60001b90565b906112cf60018060a01b03916112b8565b9181191691161790565b6112e290610ead565b90565b90565b906112fd6112f8611304926112d9565b6112e5565b82546112be565b9055565b61131190610e91565b90565b61131d90611308565b90565b61132990610ead565b90565b600080fd5b60e01b90565b90505190611344826107b9565b565b906020828203126113605761135d91600001611337565b90565b6100ee565b61136d6100e3565b3d6000823e3d90fd5b90611380906112d9565b600052602052604060002090565b90565b6113a56113a06113aa926101b3565b610e8e565b610338565b90565b60209181520190565b60207f7473000000000000000000000000000000000000000000000000000000000000917f4d61726b657446616365743a206d61726b657420616c7265616479206578697360008201520152565b61141160226040926113ad565b61141a816113b6565b0190565b6114349060208101906000818303910152611404565b90565b1561143e57565b6114466100e3565b62461bcd60e51b81528061145c6004820161141e565b0390fd5b61146b6101806102fa565b90565b906114789061030f565b9052565b61149061148b61149592611275565b610e8e565b6101b3565b90565b906114a2906101b3565b9052565b90565b6114bd6114b86114c2926114a6565b610e8e565b6101b3565b90565b90565b6114dc6114d76114e1926114c5565b610e8e565b6101b3565b90565b6114f86114f36114fd92611275565b610e8e565b6104bf565b90565b9061150a906104bf565b9052565b9061151890610fe6565b600052602052604060002090565b611530905161030f565b90565b9061153f60ff916112b8565b9181191691161790565b6115529061030f565b90565b90565b9061156d61156861157492611549565b611555565b8254611533565b9055565b60081b90565b9061158b61ff0091611578565b9181191691161790565b906115aa6115a56115b192611549565b611555565b825461157e565b9055565b60101b90565b906115c962ff0000916115b5565b9181191691161790565b906115e86115e36115ef92611549565b611555565b82546115bb565b9055565b60181b90565b9061160863ff000000916115f3565b9181191691161790565b9061162761162261162e92611549565b611555565b82546115f9565b9055565b61163c90516101b3565b90565b60201b90565b9061165561ffff60201b9161163f565b9181191691161790565b90565b9061167761167261167e92610fe6565b61165f565b8254611645565b9055565b60301b90565b9061169861ffff60301b91611682565b9181191691161790565b906116b76116b26116be92610fe6565b61165f565b8254611688565b9055565b60401b90565b906116d861ffff60401b916116c2565b9181191691161790565b906116f76116f26116fe92610fe6565b61165f565b82546116c8565b9055565b60501b90565b9061171861ffff60501b91611702565b9181191691161790565b9061173761173261173e92610fe6565b61165f565b8254611708565b9055565b60601b90565b9061175861ffff60601b91611742565b9181191691161790565b9061177761177261177e92610fe6565b61165f565b8254611748565b9055565b60701b90565b9061179861ffff60701b91611782565b9181191691161790565b906117b76117b26117be92610fe6565b61165f565b8254611788565b9055565b60801b90565b906117d861ffff60801b916117c2565b9181191691161790565b906117f76117f26117fe92610fe6565b61165f565b82546117c8565b9055565b61180c90516104bf565b90565b60901b90565b9061182763ffffffff60901b9161180f565b9181191691161790565b61184561184061184a926104bf565b610e8e565b6104bf565b90565b90565b9061186561186061186c92611831565b61184d565b8254611815565b9055565b9061198f61016060006119959461189482820161188e848801611526565b90611558565b6118ac8282016118a660208801611526565b90611595565b6118c48282016118be60408801611526565b906115d3565b6118dc8282016118d660608801611526565b90611612565b6118f48282016118ee60808801611632565b90611662565b61190c82820161190660a08801611632565b906116a2565b61192482820161191e60c08801611632565b906116e2565b61193c82820161193660e08801611632565b90611722565b61195582820161194f6101008801611632565b90611762565b61196e8282016119686101208801611632565b906117a2565b6119878282016119816101408801611632565b906117e2565b019201611802565b90611850565b565b906119a191611870565b565b906119b061ffff916112b8565b9181191691161790565b906119cf6119ca6119d692610fe6565b61165f565b82546119a3565b9055565b6119e3906101b3565b9052565b611a06611a0f602093611a14936119fd8161101a565b938480936113ad565b9586910161020a565b61022f565b0190565b611a21906104f3565b9052565b90611a7794611a66611a5b611a70936080969a99979a611a4e61020088019260008901906119da565b86820360208801526119e7565b986040850190611a18565b6060830190611a18565b01906109f7565b565b90611ae1611ad5611ae792611a8d30610eb9565b611a9f611a99336104f3565b916104f3565b03611df7575b611acb611abb6006611ab5612fc3565b01610ee6565b611ac56001610ef6565b90610f28565b9490810190610f7c565b94919293909392610fda565b92610fda565b9293611b0782611b026001611afa612fc3565b018490611002565b611269565b83611b23611b1d611b186000611294565b6104f3565b916104f3565b14600014611dd457611b576020611b41611b3c86611314565b611320565b6338d52e0f90611b4f6100e3565b938492611331565b82528180611b6760048201610179565b03915afa8015611dcf57611b9891600091611da1575b50611b936003611b8b612fc3565b0184906112a0565b6112e8565b5b611ba1612fc3565b60050183611bae91611376565b611bb79061138e565b81611bc190611391565b611bca91612fed565b611bd390611437565b82611bdc612fc3565b60020182611be9916112a0565b90611bf3916112e8565b60006001806001600060646001606491600093600095600a97600099611c17611460565b9b60008d0190611c269161146e565b60208c0190611c349161146e565b60408b0190611c429161146e565b60608a0190611c509161146e565b611c599061147c565b6080890190611c6791611498565b611c70906114a9565b60a0880190611c7e91611498565b611c8790610ef6565b60c0870190611c9591611498565b611c9e906114a9565b60e0860190611cac91611498565b611cb59061147c565b610100850190611cc491611498565b611ccd9061147c565b610120840190611cdc91611498565b611ce5906114c8565b610140830190611cf491611498565b611cfd906114e4565b610160820190611d0c91611500565b611d14612fc3565b60000182611d219161150e565b90611d2b91611997565b84611d34612fc3565b60000182611d419161150e565b90611d4b91611997565b80611d54612fc3565b60060190611d61916119ba565b909192937f09889d650492190b1f8223699629e1608c1b0732c9b808fc509260af2f6e087194611d8f6100e3565b948594611d9c9486611a25565b0390a1565b611dc2915060203d8111611dc8575b611dba81836102d3565b810190611346565b38611b7d565b503d611db0565b611365565b611df284611ded6003611de5612fc3565b0184906112a0565b6112e8565b611b99565b611e043360003691612e38565b611aa5565b606090565b60018060a01b031690565b611e25611e2a91610ec5565b611e0e565b90565b611e379054611e19565b90565b90611e4490610fe6565b600052602052604060002090565b90565b611e61611e6691610ec5565b611e52565b90565b611e739054611e55565b90565b9060009291805490611e91611e8a83611034565b80946113ad565b91600181169081600014611eea5750600114611ead575b505050565b611eba919293945061105e565b916000925b818410611ed25750500190388080611ea8565b60018160209295939554848601520191019290611ebf565b92949550505060ff1916825215156020020190388080611ea8565b60ff1690565b611f17611f1c91610ec5565b611f05565b90565b60081c90565b611f31611f3691611f1f565b611f05565b90565b60101c90565b611f4b611f5091611f39565b611f05565b90565b60181c90565b611f65611f6a91611f53565b611f05565b90565b60201c90565b611f7f611f8491611f6d565b610ecb565b90565b60301c90565b611f99611f9e91611f87565b610ecb565b90565b60401c90565b611fb3611fb891611fa1565b610ecb565b90565b60501c90565b611fcd611fd291611fbb565b610ecb565b90565b60601c90565b611fe7611fec91611fd5565b610ecb565b90565b60701c90565b61200161200691611fef565b610ecb565b90565b60801c90565b61201b61202091612009565b610ecb565b90565b60901c90565b63ffffffff1690565b61203e61204391612023565b612029565b90565b9061016061214f600061215794015461206b61206182611f0b565b600086019061049a565b61208161207782611f25565b602086019061049a565b61209761208d82611f3f565b604086019061049a565b6120ad6120a382611f59565b606086019061049a565b6120c36120b982611f73565b6080860190610524565b6120d96120cf82611f8d565b60a0860190610524565b6120ef6120e582611fa7565b60c0860190610524565b6121056120fb82611fc1565b60e0860190610524565b61211c61211182611fdb565b610100860190610524565b61213361212882611ff5565b610120860190610524565b61214a61213f8261200f565b610140860190610524565b612032565b9101906104c8565b565b906121aa9461219960809498979561218f6121846121a39561020088019088820360008a0152611e76565b9a6020870190611a18565b6040850190611a18565b6060830190610818565b0190612046565b565b6121b4611e09565b506122476121c0612fc3565b916122386121d2600185018390611002565b916121e96121e46002870183906112a0565b611e2d565b946122236122036121fe6003840185906112a0565b611e2d565b92600061221c612217600486018490611e3a565b611e69565b930161150e565b9161222c6100e3565b96879560208701612159565b602082018103825203826102d3565b90565b606090565b6122619061225b61224a565b50613312565b90565b50505061226f6110de565b90565b9061227c9161227e565b565b61229661229b92916000612290612fc3565b0161150e565b611997565b565b906122a791612272565b565b6122b46101806102fa565b90565b600090565b600090565b600090565b6122ce6122a9565b90602080808080808080808080808d6122e56122b7565b8152016122f06122b7565b8152016122fb6122b7565b8152016123066122b7565b8152016123116122bc565b81520161231c6122bc565b8152016123276122bc565b8152016123326122bc565b81520161233d6122bc565b8152016123486122bc565b8152016123536122bc565b81520161235e6122c1565b81525050565b61236c6122c6565b90565b6123799054611f0b565b90565b6123869054611f25565b90565b6123939054611f3f565b90565b6123a09054611f59565b90565b6123ad9054611f73565b90565b6123ba9054611f8d565b90565b6123c79054611fa7565b90565b6123d49054611fc1565b90565b6123e19054611fdb565b90565b6123ee9054611ff5565b90565b6123fb905461200f565b90565b6124089054612032565b90565b9061252c612522600061241c6122a9565b9461243361242b83830161236f565b83880161146e565b61244a61244183830161237c565b6020880161146e565b612461612458838301612389565b6040880161146e565b61247861246f838301612396565b6060880161146e565b61248f6124868383016123a3565b60808801611498565b6124a661249d8383016123b0565b60a08801611498565b6124bd6124b48383016123bd565b60c08801611498565b6124d46124cb8383016123ca565b60e08801611498565b6124ec6124e28383016123d7565b6101008801611498565b6125046124fa8383016123e4565b6101208801611498565b61251c6125128383016123f1565b6101408801611498565b016123fe565b6101608401611500565b565b6125379061240b565b90565b61255a61255f91612549612364565b506000612554612fc3565b0161150e565b61252e565b90565b600090565b61257b61257661258092611275565b610e8e565b610b43565b90565b61259761259261259c92611275565b610e8e565b610338565b90565b60016125ab9101610338565b90565b5190565b634e487b7160e01b600052603260045260246000fd5b906125d2826125ae565b8110156125e3576020809102010190565b6125b2565b6125f29051610338565b90565b61260961260461260e92610338565b610e8e565b6101b3565b90565b61262061262691939293610b43565b92610b43565b8083019260008285121581831216928512911215161761264257565b610f12565b61266f61266a61267492612659612562565b506005612664612fc3565b01611376565b61138e565b61359e565b61267e6000612567565b906126896000612583565b915b826126a66126a061269b856125ae565b610338565b91610338565b1015612702576126f66126fc916126f06126d16126cc6126c78789906125c8565b6125e8565b6125f5565b806126ea6126e1826001906135c7565b916000906135c7565b916135e9565b90612611565b9261259f565b9161268b565b91505090565b600090565b90565b61272461271f6127299261270d565b610e8e565b6104d5565b90565b6127366012612710565b90565b612741612708565b5061274a61272c565b90565b906127639d9c9b9a9998979695949392916127d2565b565b61276e90610e91565b90565b61277a90612765565b90565b6127b96127c0946127af6127a4606095999896996101e086019086820360008801526119e7565b986020850190611a18565b6040830190611a18565b01906109f7565b565b60009103126127cd57565b6100ee565b9b949992979098919a93969c959c306127ea90610eb9565b6127f390612771565b6127fc90610eb9565b9d63080c5c679d9a9b600061281090611294565b9d9a9990919293949596979899612825611460565b9b60008d01906128349161146e565b60208c01906128429161146e565b60408b01906128509161146e565b60608a019061285e9161146e565b608089019061286c91611498565b60a088019061287a91611498565b60c087019061288891611498565b60e086019061289691611498565b6101008501906128a591611498565b6101208401906128b491611498565b6101408301906128c391611498565b6101608201906128d291611500565b6128da6100e3565b93849360208501936128eb9461277d565b6020820181038252036128fe90826102d3565b823b156129735761292f92612924600080946129186100e3565b96879586948593611331565b83526004830161026a565b03925af1801561296e57612941575b50565b6129619060003d8111612967575b61295981836102d3565b8101906127c2565b3861293e565b503d61294f565b611365565b61132c565b9061298e9d9c9b9a99989796959493929161274d565b565b600090565b6129e3906129a1612990565b506129dd6129d76129d26129b3612fc3565b60056129cb6129c66002840188906112a0565b611e2d565b9101611376565b61138e565b91611391565b9061361b565b90565b6129ef90612a56565b565b91906008612a11910291612a0b60018060a01b0384611073565b92611073565b9181191691161790565b9190612a31612a2c612a39936112d9565b6112e5565b9083546129f1565b9055565b600090565b612a5491612a4e612a3d565b91612a1b565b565b6000612aba612abf92612aa9612a9a612a95612a85612a806002612a78612fc3565b0186906112a0565b611e2d565b6005612a8f612fc3565b01611376565b61138e565b612aa383611391565b90613646565b506002612ab4612fc3565b016112a0565b612a42565b565b612aca906129e6565b565b90565b612ae3612ade612ae892612acc565b610e8e565b610338565b90565b612afa612b0091939293610338565b92610338565b91612b0c838202610338565b928184041490151715612b1b57565b610f12565b60018060401b038111612b3c57612b3860209161022f565b0190565b6102bd565b90612b53612b4e83612b20565b6102fa565b918252565b369037565b90612b82612b6a83612b41565b92602080612b788693612b20565b9201910390612b58565b565b612b8c611e09565b50612b95612fc3565b90612bb4612baf612baa600585013390611376565b61138e565b61359e565b91612bd9612bd4612bc4856125ae565b612bce6020612acf565b90612aeb565b612b5d565b90612be46000612583565b5b80612c00612bfa612bf5886125ae565b610338565b91610338565b1015612cbf57612cba90612c25612c20612c1b8884906125c8565b6125e8565b6125f5565b612cae612c36600186018390611002565b612c9f612c4f612c4a6002890186906112a0565b611e2d565b93612c66612c6160038a0183906112a0565b611e2d565b90612c8a612c80612c7b60048c018490611e3a565b611e69565b9160008b0161150e565b91612c936100e3565b96879560208701612159565b602082018103825203826102d3565b6020820285015261259f565b612be5565b505090915090565b612cd090610ead565b90565b90565b612cea612ce5612cef92612cd3565b610e8e565b610338565b90565b600080fd5b600080fd5b90939293848311612d1c578411612d17576001820201920390565b612cf7565b612cf2565b5090565b63ffffffff60e01b1690565b90612d3f612d469183612d21565b9135612d25565b9060048110612d54575b5090565b612d6c9063ffffffff60e01b90600403600802611073565b1638612d50565b9190612d8790600060208501940190611a18565b565b60a01b90565b90612d9e60ff60a01b91612d89565b9181191691161790565b90612dbd612db8612dc492611549565b611555565b8254612d8f565b9055565b612dd190610e91565b90565b612ddd90612dc8565b90565b612de990610ead565b90565b9190612e0681612dff81612e0b95610201565b8095610c2c565b61022f565b0190565b91612e35939192612e2860408201946000830190611a18565b6020818503910152612dec565b90565b612e406136bc565b91612e93612e8b612e4f6136c7565b84612e5930612cc7565b90612e85612e7f878b600090612e79612e73600493612583565b92612cd6565b92612cfc565b90612d31565b926137e0565b91901561030f565b612e9f575b5050505050565b612eb2612eac60006114e4565b916104bf565b11600014612f7a57612ec8600160008501612da8565b612ee0612edb612ed66136c7565b612dd4565b612de0565b6394c7d7ee92919492813b15612f75576000612f0f91612f1a8296612f036100e3565b998a9788968795611331565b855260048501612e0f565b03925af1918215612f7057612f3992612f43575b506000809101612da8565b3880808080612e98565b612f639060003d8111612f69575b612f5b81836102d3565b8101906127c2565b38612f2e565b503d612f51565b611365565b61132c565b612f9b82612f866100e3565b91829162d1953b60e31b835260048301612d73565b0390fd5b7f2eec39e2b6bcfb5f1ee2be0b6e9d5a470a45585b1e2f7f291af9fb9f551763d090565b612fcb612f9f565b90565b612fe2612fdd612fe792610338565b6112b8565b61035f565b90565b90565b9061301061300a600061301594613002612990565b500192612fce565b91612fea565b6139dd565b90565b906130229061035f565b9052565b60007f6f7261636c655072696365207a65726f00000000000000000000000000000000910152565b61305b60106020926113ad565b61306481613026565b0190565b61307e906020810190600081830391015261304e565b90565b1561308857565b6130906100e3565b62461bcd60e51b8152806130a660048201613068565b0390fd5b6130b4905161035f565b90565b5190565b906130c5826130b7565b8110156130d6576020809102010190565b6125b2565b6130ef6130ea6130f492611275565b6112b8565b61035f565b90565b60018060401b03811161310d5760208091020190565b6102bd565b9061312461311f836130f7565b6102fa565b918252565b6131346103006102fa565b90565b600090565b600090565b600090565b600090565b600090565b600090565b600090565b613162613129565b908161316c613137565b815260200161317961313c565b815260200161318661313c565b8152602001613193613141565b81526020016131a0613141565b81526020016131ad6122b7565b81526020016131ba6122b7565b81526020016131c76122b7565b81526020016131d46122b7565b81526020016131e16122b7565b81526020016131ee613146565b81526020016131fb613146565b8152602001613208613146565b81526020016132156122c1565b815260200161322261314b565b815260200161322f613150565b815260200161323c613155565b8152602001613249613141565b81526020016132566122b7565b81526020016132636122b7565b81526020016132706122bc565b815260200161327d613155565b815260200161328a61313c565b815260200161329761314b565b815250565b6132a461315a565b90565b60005b8281106132b657505050565b6020906132c161329c565b81840152016132aa565b906132f06132d883613112565b926020806132e686936130f7565b92019103906132a7565b565b906132fc82610455565b81101561330d576020809102010190565b6125b2565b9061331b61224a565b5061335561334c61332e60008501611632565b61333a60208601611526565b61334660408701611526565b91613b17565b60e08401613018565b61337d61336460c084016125e8565b6133776133716000612583565b91610338565b11613081565b6133aa61338c60e084016130aa565b613398606085016125e8565b6133a4608086016125e8565b91613b79565b916133b36110de565b906133bd846130b7565b6133c56110de565b5b806133d96133d384610338565b91610338565b1015613490576133f26133ed8783906130bb565b6130aa565b61340861340160e086016130aa565b82906140ad565b9061341f8261341960c088016125e8565b906140de565b908161346b575b50908115613458575b50613443575b61343e9061259f565b6133c6565b9261345061343e9161259f565b939050613435565b613465915060c001611526565b3861342f565b905061348861348261347d60006130db565b61035f565b9161035f565b141538613426565b5092909161349d906132cb565b916134a66110de565b916134af6110de565b5b806134c36134bd88610338565b91610338565b1015613590576134dc6134d78883906130bb565b6130aa565b6134f26134eb60e086016130aa565b82906140ad565b906135098261350360c088016125e8565b906140de565b908161356b575b508015613559575b61352c575b506135279061259f565b6134b0565b613527919461354b6135529288839161354583836132f2565b526132f2565b515061259f565b939061351d565b5061356660c08201611526565b613518565b905061358861358261357d60006130db565b61035f565b9161035f565b141538613510565b50935050509150565b606090565b6135b660006135bb926135af613599565b5001612fea565b61420c565b6135c3613599565b5090565b6135e6916135d36110de565b506135df8282906142b2565b9091614452565b90565b9061361892613608613612926135fd612562565b508490600191614650565b9290600091614650565b90612611565b90565b9061363e613638600061364394613630612990565b500192612fce565b91612fea565b6146d4565b90565b90613669613663600061366e9461365b612990565b500192612fce565b91612fea565b6147ce565b90565b90565b61368861368361368d92613671565b6112b8565b61035f565b90565b6136b97ff3177357ab46d8af007ab3fdb9af81da189e1068fefdc0073dca88a2cab40a00613674565b90565b6136c4613690565b90565b6136cf612a3d565b506136e360006136dd6136bc565b01611e2d565b90565b600090565b6136f490612d25565b9052565b604090613722613729949695939661371860608401986000850190611a18565b6020830190611a18565b01906136eb565b565b3d6000146137485761373c3d612b41565b903d6000602084013e5b565b613750611e09565b90613746565b90565b61376d61376861377292613756565b610e8e565b610338565b90565b9050519061378282610314565b565b9060208282031261379e5761379b91600001613775565b90565b6100ee565b905051906137b082610871565b565b91906040838203126137db57806137cf6137d89260008601613775565b936020016137a3565b90565b6100ee565b939260009182916138326137f2612990565b956138236137fe6136e6565b9994919361380a6100e3565b94859360046020860163b700961360e01b8152016136f8565b602082018103825203826102d3565b602081019051915afa61384361372b565b9061384e575b509190565b90613858826101fd565b61386b6138656040613759565b91610338565b101560001461389a57506138919192506020613886826101fd565b8183010191016137b2565b91905b38613849565b906138a4816101fd565b6138b76138b16020612acf565b91610338565b10156138c4575b50613894565b6138df915060206138d4826101fd565b818301019101613784565b386138be565b90565b600052602060002090565b5490565b613900816138f3565b82101561391b576139126001916138e8565b91020190600090565b6125b2565b6139299061035f565b90565b61393590610ec5565b90565b919061394e61394961395693613920565b61392c565b908354611077565b9055565b90815491600160401b831015613985578261397d916001613983950181556138f7565b90613938565b565b6102bd565b5490565b9061399890613920565b600052602052604060002090565b906139b3600019916112b8565b9181191691161790565b906139d26139cd6139d99261109d565b6110b9565b82546139a6565b9055565b6139e5612990565b506139fa6139f48284906146d4565b1561030f565b600014613a3d57613a33613a3892613a1e613a17600085016138e5565b829061395a565b6001613a2c6000850161398a565b930161398e565b6139bd565b600190565b5050600090565b600090565b60f81b90565b613a5890613a49565b90565b613a6490613a4f565b90565b613a73613a789161030f565b613a5b565b9052565b60f01b90565b613a8b90613a7c565b90565b613a9a613a9f916101b3565b613a82565b9052565b60029392613ac3600183613abb8295613acb97613a67565b018092613a67565b018092613a8e565b0190565b60200190565b613aef613aea613ae4836101fd565b92613acf565b6130aa565b9060208110613afd575b5090565b613b109060001990602003600802611073565b1638613af9565b90613b5692613b42613b5192613b2b613a44565b509193613b366100e3565b94859360208501613aa3565b602082018103825203826102d3565b613ad5565b90565b606090565b90613b6890613920565b600052602052604060002090565b90565b91613ba2613b9d613baa94613b8c613b59565b506004613b976148fc565b01613b5e565b613b76565b919091614965565b90565b613bb561315a565b90565b90613bc290613920565b600052602052604060002090565b90613bda90613920565b600052602052604060002090565b90565b613bf7613bfc91610ec5565b613be8565b90565b613c099054613beb565b90565b60018060801b031690565b613c23613c2891610ec5565b613c0c565b90565b613c359054613c17565b90565b90613c4290610475565b9052565b613c52613c5791612009565b613c0c565b90565b613c649054613c46565b90565b90613c7190610338565b9052565b613c81613c8691611f6d565b611f05565b90565b613c939054613c75565b90565b60281c90565b60018060401b031690565b613cb3613cb891613c96565b613c9c565b90565b613cc59054613ca7565b90565b90613cd2906104a7565b9052565b60681c90565b613ce8613ced91613cd6565b613c9c565b90565b613cfa9054613cdc565b90565b60a81c90565b613d0f613d1491613cfd565b613c9c565b90565b613d219054613d03565b90565b613d30613d3591610ec5565b612029565b90565b613d429054613d24565b90565b60ff1690565b613d57613d5c91611f6d565b613d45565b90565b613d699054613d4b565b90565b90613d76906104d5565b9052565b613d86613d8b91613c96565b611e0e565b90565b613d989054613d7a565b90565b90613da5906104f3565b9052565b60018060601b031690565b613dc0613dc591610ec5565b613da9565b90565b613dd29054613db4565b90565b90613ddf9061050c565b9052565b613def613df491611f39565b610ecb565b90565b613e019054613de3565b90565b613e10613e1591611f6d565b613da9565b90565b613e229054613e04565b90565b613e31613e3691610ec5565b613d45565b90565b613e439054613e25565b90565b9061409f6140956009613e57613129565b94613e70613e6760008301613bff565b60008801613018565b613e88613e7f60018301613c2b565b60208801613c38565b613ea0613e9760018301613c5a565b60408801613c38565b613eb8613eaf60028301611e69565b60608801613c67565b613ed0613ec760038301611e69565b60808801613c67565b613ee8613edf6004830161236f565b60a0880161146e565b613f00613ef76004830161237c565b60c0880161146e565b613f18613f0f60048301612389565b60e0880161146e565b613f31613f2760048301612396565b610100880161146e565b613f4a613f4060048301613c89565b610120880161146e565b613f63613f5960048301613cbb565b6101408801613cc8565b613f7c613f7260048301613cf0565b6101608801613cc8565b613f95613f8b60048301613d17565b6101808801613cc8565b613fae613fa460058301613d38565b6101a08801611500565b613fc7613fbd60058301613d5f565b6101c08801613d6c565b613fe0613fd660058301613d8e565b6101e08801613d9b565b613ff9613fef60068301613dc8565b6102008801613dd5565b61401261400860078301611e69565b6102208801613c67565b61402b6140216008830161236f565b610240880161146e565b61404461403a6008830161237c565b610260880161146e565b61405d61405360088301613df7565b6102808801611498565b61407661406c60088301613e18565b6102a08801613dd5565b61408f61408560088301613c5a565b6102c08801613c38565b01613e39565b6102e08401613d6c565b565b6140aa90613e46565b90565b6140db916140d16140d6926140c0613bad565b5060006140cb6148fc565b01613bb8565b613bd0565b6140a1565b90565b906140e7612990565b506140f460a08301611526565b60001461411e5761411361410e60606141199394016125e8565b610338565b91610338565b101590565b614136614131606061413c9394016125e8565b610338565b91610338565b111590565b60209181520190565b600052602060002090565b9061416281602093610468565b0190565b6141709054613beb565b90565b60010190565b906141966141906141898461398a565b8093614141565b9261414a565b9060005b8181106141a75750505090565b9091926141c76141c16001926141bc87614166565b614155565b94614173565b910191909161419a565b906141db91614179565b90565b906141fe6141f7926141ee6100e3565b938480926141d1565b03836102d3565b565b614209906141de565b90565b60006142219161421a613b59565b5001614200565b90565b90565b61423b61423661424092614224565b610e8e565b610338565b90565b61425868327cb2734119d3b7a9601e1b614227565b90565b90565b61427261426d6142779261425b565b610e8e565b610338565b90565b634e487b7160e01b600052601260045260246000fd5b61429c6142a291610338565b91610338565b9081156142ad570490565b61427a565b906142d1906142bf6110de565b506142cb838290614dff565b92614dff565b816142ff6142f96142f46000196142ef6142e9614243565b9161425e565b614290565b610338565b91610338565b106143215761431961431e92614313614243565b90614290565b612aeb565b90565b61433661433b92614330614243565b90612aeb565b614290565b90565b9061434890610fe6565b600052602052604060002090565b60a01c90565b61436861436d91614356565b612029565b90565b61437a905461435c565b90565b61439161438c614396926104bf565b610e8e565b610338565b90565b6143a56143aa91611fa1565b612029565b90565b6143b79054614399565b90565b6143c96143cf91939293610338565b92610338565b82018092116143da57565b610f12565b6143eb6143f091611f6d565b612029565b90565b6143fd90546143df565b90565b61440f61441591939293610338565b92610338565b820391821161442057565b610f12565b90565b61443c61443761444192614425565b610e8e565b610338565b90565b61444f612710614428565b90565b909161445c6110de565b50614485614480600061447a60066144726152e2565b01869061433e565b01614370565b61437d565b916144a361449e60046144966152e2565b018390611e3a565b611e69565b92426144de6144d86144d3846144cd6144c8600060016144c16152e2565b01016143ad565b61437d565b906143ba565b610338565b91610338565b119081156145d2575b5080156145b7575b6145b1578361450661450085610338565b91610338565b116000146145985761453e614538614531614522878790614400565b5b61452b614444565b90612aeb565b8690614290565b916152ed565b908161455f575b506145595761455692919091615373565b90565b50905090565b905061459061458a614585614580600060016145796152e2565b0101613d38565b61437d565b610338565b91610338565b111538614545565b61453e6145386145316145ac868890614400565b614523565b50505090565b50826145cc6145c66000612583565b91610338565b146144ef565b905061460e61460861460342936145fd6145f8600060016145f16152e2565b01016143f3565b61437d565b906143ba565b610338565b91610338565b11386144e7565b61462961462461462e92610338565b610e8e565b610b43565b90565b61463a90610b43565b600160ff1b811461464b5760000390565b610f12565b61466c919261466791614661612562565b506153f4565b615693565b90614679600083016125e8565b61468c6146866000612583565b91610338565b146146c55761469a916156bb565b906000146146af576146ab90614615565b5b90565b6146bb6146c091614615565b614631565b6146ac565b50506146d16000612567565b90565b6146f29160016146ed926146e6612990565b500161398e565b611e69565b6147056146ff6000612583565b91610338565b141590565b61471e61471961472392610ef3565b610e8e565b610338565b90565b61472f8161398a565b82101561474a5761474160019161414a565b91020190600090565b6125b2565b61475f906008614764930261116e565b613be8565b90565b90614772915461474f565b90565b634e487b7160e01b600052603160045260246000fd5b61479d91614797613a44565b91613938565b565b6147a8816138f3565b80156147c95760019003906147c66147c083836138f7565b9061478b565b55565b614775565b6147d6612990565b506147ed6147e860018301849061398e565b611e69565b90816148026147fc6000612583565b91610338565b14156000146148d05761488292600161487d928461482b6000966148258561470a565b90614400565b61484861483988850161398a565b6148428661470a565b90614400565b8161485b61485583610338565b91610338565b03614887575b5050506148776148728683016138e5565b61479f565b0161398e565b6110e3565b600190565b6148c8926148ba6148a66148a06148c3948c8901614726565b90614767565b936148b485918c8901614726565b90613938565b9185850161398e565b6139bd565b388080614861565b505050600090565b7fbf93ccae7e050fdad00615e220e3f9b7ebb112ac9318fb8604653a7d8091238890565b6149046148d8565b90565b60018060401b03811161491d5760208091020190565b6102bd565b9061493461492f83614907565b6102fa565b918252565b369037565b9061496361494b83614922565b926020806149598693614907565b9201910390614939565b565b929092614970613b59565b5061497a816157bd565b8361498d61498783610338565b91610338565b11614a04575b506149a76149a2848690614400565b61493e565b91845b806149bd6149b787610338565b91610338565b10156149fb576149f6906149f16149d58583906157dd565b6149ec87916149e5858c90614400565b90926130bb565b613018565b61259f565b6149aa565b50935050905090565b9092509138614993565b60007f5072696365466565643a20696e76616c69642070726963652066656564000000910152565b614a43601d6020926113ad565b614a4c81614a0e565b0190565b614a669060208101906000818303910152614a36565b90565b15614a7057565b614a786100e3565b62461bcd60e51b815280614a8e60048201614a50565b0390fd5b614a9b90610e91565b90565b614aa790614a92565b90565b614ab390610ead565b90565b60018060501b031690565b614aca81614ab6565b03614ad157565b600080fd5b90505190614ae382614ac1565b565b90602082820312614aff57614afc91600001614ad6565b90565b6100ee565b614b18614b13614b1d92611275565b610e8e565b614ab6565b90565b6001614b2c9101614ab6565b90565b614b3b614b4091612009565b612029565b90565b614b4d9054614b2f565b90565b614b64614b5f614b69926104bf565b610e8e565b614ab6565b90565b614b78614b7e91614ab6565b91614ab6565b90039060018060501b038211614b9057565b610f12565b614b9e81610b43565b03614ba557565b600080fd5b90505190614bb782614b95565b565b90505190614bc68261033b565b565b919060a083820312614c1a57614be18160008501614ad6565b92614bef8260208301614baa565b92614c17614c008460408501614bb9565b93614c0e8160608601614bb9565b93608001614ad6565b90565b6100ee565b614c2890614ab6565b9052565b9190614c4090600060208501940190614c1f565b565b60007f5072696365466565643a20696e76616c69642070726963650000000000000000910152565b614c7760186020926113ad565b614c8081614c42565b0190565b614c9a9060208101906000818303910152614c6a565b90565b15614ca457565b614cac6100e3565b62461bcd60e51b815280614cc260048201614c84565b0390fd5b614cda614cd5614cdf92610b43565b610e8e565b610338565b90565b90602082820312614cfc57614cf991600001614baa565b90565b6100ee565b60007f5072696365466565643a20636f756c64206e6f74206665746368207072696365910152565b614d35602080926113ad565b614d3e81614d01565b0190565b614d589060208101906000818303910152614d29565b90565b15614d6257565b614d6a6100e3565b62461bcd60e51b815280614d8060048201614d42565b0390fd5b614d8d816104d5565b03614d9457565b600080fd5b90505190614da682614d84565b565b90602082820312614dc257614dbf91600001614d99565b90565b6100ee565b614ddb614dd6614de0926104d5565b610e8e565b610338565b90565b614dec90610338565b604d8111614dfa57600a0a90565b610f12565b9190614e096110de565b50614e4c614e2a614e256002614e1d6152e2565b0186906112a0565b611e2d565b614e45614e3f614e3a6000611294565b6104f3565b916104f3565b1415614a69565b614e566000612583565b614e9e6020614e88614e83614e7e614e796002614e716152e2565b018a906112a0565b611e2d565b614a9e565b614aaa565b63668a0f0290614e966100e3565b938492611331565b82528180614eae60048201610179565b03915afa9081156152b95760009161528b575b50614ecc6000614b04565b5b80614ef5614eef614eea60006001614ee36152e2565b0101614b43565b614b50565b91614ab6565b101561526f5781614f0e614f0883614ab6565b91614ab6565b111561517d57614f1c6110de565b5080614f31614f2b6000614b04565b91614ab6565b146000146150a057614f816020614f6b614f66614f61614f5c6002614f546152e2565b018c906112a0565b611e2d565b614a9e565b614aaa565b6350d25bcd90614f796100e3565b938492611331565b82528180614f9160048201610179565b03915afa801561509b57614fca9160009161506d575b50614fc581614fbf614fb96000612567565b91610b43565b13614c9d565b614cc6565b5b83614fdf614fd96000612583565b91610338565b14615061578480615047575b61503b57614ff9851561030f565b80615021575b615014575b5061500f905b614b20565b614ecd565b61500f9193509290615004565b508061503561502f86610338565b91610338565b10614fff565b61500f9193509261500a565b508061505b61505586610338565b91610338565b11614feb565b61500f9193509261500a565b61508e915060203d8111615094575b61508681836102d3565b810190614ce2565b38614fa7565b503d61507c565b611365565b61510660a06150d26150cd6150c86150c360026150bb6152e2565b018c906112a0565b611e2d565b614a9e565b614aaa565b639a6fc8f5906150fb6150e6878790614b6c565b926150ef6100e3565b95869485938493611331565b835260048301614c2c565b03915afa80156151785761514291600080929050615147575b5061513d816151376151316000612567565b91610b43565b13614c9d565b614cc6565b614fcb565b615168915060a03d8111615171575b61516081836102d3565b810190614bc8565b5050509061511f565b503d615156565b611365565b5050905060206151d16151cc6151c76151c26151e796975b6151b2876151ac6151a66000612583565b91610338565b11614d5b565b60026151bc6152e2565b016112a0565b611e2d565b614a9e565b614aaa565b63313ce567906151df6100e3565b948592611331565b825281806151f760048201610179565b03915afa91821561526a5761522d61521e615239946152339360009161523c575b50614dc7565b92615227614243565b90612aeb565b91614de3565b90614290565b90565b61525d915060203d8111615263575b61525581836102d3565b810190614da8565b38615218565b503d61524b565b611365565b5050905060206151d16151cc6151c76151c26151e79697615195565b6152ac915060203d81116152b2575b6152a481836102d3565b810190614ae5565b38614ec1565b503d61529a565b611365565b7f215c1de8a6459dcf0789cdceef063745b34797042fd1550737c0f263affdef6490565b6152ea6152be565b90565b6152f5612990565b506152ff81615929565b93925090508261531761531183610338565b91610338565b119283615330575b50505061532b57600190565b600090565b61536a92935061535a6153496153649361535f93614400565b9460056153546152e2565b01611e3a565b611e69565b610338565b91610338565b1138808061531f565b9161537c6110de565b506000146153ac578161539761539183610338565b91610338565b116000146153a557505b5b90565b90506153a1565b816153bf6153b983610338565b91610338565b106000146153ce57505b6153a2565b90506153c9565b6001816153e86153f09360029695613a67565b018092613a8e565b0190565b61542a61542f92615403613a44565b5061541b61540f6100e3565b938492602084016153d5565b602082018103825203826102d3565b613ad5565b90565b61543d6101206102fa565b90565b600090565b600090565b615452615432565b90602080808080808080808a615466613141565b815201615471613141565b81520161547c615440565b815201615487615440565b815201615492613141565b81520161549d6122b7565b8152016154a86122c1565b8152016154b36122bc565b8152016154be615445565b81525050565b6154cc61544a565b90565b906154d990613920565b600052602052604060002090565b90565b6154f66154fb91610ec5565b6154e7565b90565b61550890546154ea565b90565b9061551590610b43565b9052565b61552561552a91611f1f565b612029565b90565b6155379054615519565b90565b61554661554b91613c96565b610ecb565b90565b615558905461553a565b90565b60381c90565b60018060481b031690565b61557861557d9161555b565b615561565b90565b61558a905461556c565b90565b60018060481b031690565b906155a29061558d565b9052565b9061568561567b60056155b7615432565b946155d06155c760008301611e69565b60008801613c67565b6155e86155df60018301611e69565b60208801613c67565b6156006155f7600283016154fe565b6040880161550b565b61561861560f600383016154fe565b6060880161550b565b61563061562760048301611e69565b60808801613c67565b61564761563e83830161236f565b60a0880161146e565b61565e61565583830161552d565b60c08801611500565b61567561566c83830161554e565b60e08801611498565b01615580565b6101008401615598565b565b615690906155a6565b90565b6156b36156b8916156a26154c4565b5060026156ad6159e5565b016154cf565b615687565b90565b9190916156c6612990565b506156cf6110de565b506156dc608082016125e8565b6156ee6156e885610338565b91610338565b1160001461579c5761573661572461571261570b608085016125e8565b8690614400565b5b61571f600085016125e8565b612aeb565b615730608084016125e8565b90614290565b9261573f612990565b5061574c60a08301611526565b6000146157775761576b61576660806157719394016125e8565b610338565b91610338565b115b9190565b9061579061578a608061579693016125e8565b92610338565b91610338565b11615773565b6157366157246157b8856157b2608086016125e8565b90614400565b615713565b6157d560006157da926157ce6110de565b5001612fea565b6159f0565b90565b906157f660006157fb936157ef613a44565b5001612fea565b615a08565b90565b60018060a01b031690565b61581561581a91610ec5565b6157fe565b90565b6158279054615809565b90565b90615834906104e8565b9052565b60c01c90565b61584a61584f91615838565b612029565b90565b61585c905461583e565b90565b61586b615870916100dd565b612029565b90565b61587d905461585f565b90565b61588a60806102fa565b90565b906158f26158e9600061589e615880565b946158b56158ad83830161581d565b83880161582a565b6158cc6158c3838301614370565b60208801611500565b6158e36158da838301615852565b60408801611500565b01615873565b60608401611500565b565b6158fd9061588d565b90565b61590a90516104e8565b90565b61592161591c615926926104e8565b610e8e565b610338565b90565b615964615969916159386110de565b506159416110de565b5061594a6110de565b506159536110de565b50600661595e6152e2565b0161433e565b6158f4565b61597d61597860008301615900565b61590d565b61599161598c60208401611802565b61437d565b926159ba6159b560606159ae6159a960408801611802565b61437d565b9501611802565b61437d565b9193929190565b7f92bcfabaf0a890def3092675474357e5f93a0f117ca63a3db421d44c5b55fba590565b6159ed6159c1565b90565b6000615a05916159fe6110de565b500161398a565b90565b615a27916000615a2192615a1a613a44565b5001614726565b90614767565b9056fea26469706673582212200d0bddcfff14125ead83d443218d9126f154e20bdf76677ce83e2da147c84c9564736f6c63430008180033",
  "devdoc": {
    "kind": "dev",
    "methods": {},
    "version": 1
  },
  "userdoc": {
    "kind": "user",
    "methods": {},
    "version": 1
  },
  "storageLayout": {
    "storage": [],
    "types": null
  }
}