{
  "address": "0x76263A64234487101f9FF49281b273e4f435A857",
  "abi": [
    {
      "inputs": [
        {
          "internalType": "address",
          "name": "authority",
          "type": "address"
        }
      ],
      "name": "AccessManagedInvalidAuthority",
      "type": "error"
    },
    {
      "inputs": [
        {
          "internalType": "address",
          "name": "caller",
          "type": "address"
        },
        {
          "internalType": "uint32",
          "name": "delay",
          "type": "uint32"
        }
      ],
      "name": "AccessManagedRequiredDelay",
      "type": "error"
    },
    {
      "inputs": [
        {
          "internalType": "address",
          "name": "caller",
          "type": "address"
        }
      ],
      "name": "AccessManagedUnauthorized",
      "type": "error"
    },
    {
      "anonymous": false,
      "inputs": [
        {
          "indexed": false,
          "internalType": "uint16",
          "name": "market",
          "type": "uint16"
        },
        {
          "indexed": false,
          "internalType": "string",
          "name": "name",
          "type": "string"
        },
        {
          "indexed": false,
          "internalType": "address",
          "name": "vault",
          "type": "address"
        },
        {
          "indexed": false,
          "internalType": "address",
          "name": "token",
          "type": "address"
        },
        {
          "components": [
            {
              "internalType": "bool",
              "name": "isSuspended",
              "type": "bool"
            },
            {
              "internalType": "bool",
              "name": "allowOpen",
              "type": "bool"
            },
            {
              "internalType": "bool",
              "name": "allowClose",
              "type": "bool"
            },
            {
              "internalType": "bool",
              "name": "validDecrease",
              "type": "bool"
            },
            {
              "internalType": "uint16",
              "name": "minSlippage",
              "type": "uint16"
            },
            {
              "internalType": "uint16",
              "name": "maxSlippage",
              "type": "uint16"
            },
            {
              "internalType": "uint16",
              "name": "minLeverage",
              "type": "uint16"
            },
            {
              "internalType": "uint16",
              "name": "maxLeverage",
              "type": "uint16"
            },
            {
              "internalType": "uint16",
              "name": "minPayment",
              "type": "uint16"
            },
            {
              "internalType": "uint16",
              "name": "minCollateral",
              "type": "uint16"
            },
            {
              "internalType": "uint16",
              "name": "decreaseNumLimit",
              "type": "uint16"
            },
            {
              "internalType": "uint32",
              "name": "maxTradeAmount",
              "type": "uint32"
            }
          ],
          "indexed": false,
          "internalType": "struct MarketHandler.Props",
          "name": "config",
          "type": "tuple"
        }
      ],
      "name": "MarketAdded",
      "type": "event"
    },
    {
      "anonymous": false,
      "inputs": [
        {
          "indexed": false,
          "internalType": "uint16",
          "name": "market",
          "type": "uint16"
        },
        {
          "indexed": false,
          "internalType": "address",
          "name": "pricefeed",
          "type": "address"
        },
        {
          "indexed": false,
          "internalType": "uint256",
          "name": "maxCumulativeDeltaDiffs",
          "type": "uint256"
        }
      ],
      "name": "OracleAdded",
      "type": "event"
    },
    {
      "inputs": [
        {
          "internalType": "uint16",
          "name": "market",
          "type": "uint16"
        },
        {
          "internalType": "uint256",
          "name": "maxMarketSizeLimit",
          "type": "uint256"
        }
      ],
      "name": "SELF_addGValid",
      "outputs": [],
      "stateMutability": "nonpayable",
      "type": "function"
    },
    {
      "inputs": [
        {
          "internalType": "bytes",
          "name": "data",
          "type": "bytes"
        }
      ],
      "name": "SELF_addMarket",
      "outputs": [
        {
          "internalType": "uint16",
          "name": "market",
          "type": "uint16"
        }
      ],
      "stateMutability": "nonpayable",
      "type": "function"
    },
    {
      "inputs": [
        {
          "internalType": "uint16",
          "name": "market",
          "type": "uint16"
        },
        {
          "internalType": "bytes",
          "name": "oracle",
          "type": "bytes"
        }
      ],
      "name": "SELF_addOracle",
      "outputs": [],
      "stateMutability": "nonpayable",
      "type": "function"
    },
    {
      "inputs": [
        {
          "internalType": "string",
          "name": "name",
          "type": "string"
        },
        {
          "internalType": "address",
          "name": "_vault",
          "type": "address"
        },
        {
          "internalType": "uint256",
          "name": "maxMarketSizeLimit",
          "type": "uint256"
        },
        {
          "components": [
            {
              "internalType": "bool",
              "name": "isSuspended",
              "type": "bool"
            },
            {
              "internalType": "bool",
              "name": "allowOpen",
              "type": "bool"
            },
            {
              "internalType": "bool",
              "name": "allowClose",
              "type": "bool"
            },
            {
              "internalType": "bool",
              "name": "validDecrease",
              "type": "bool"
            },
            {
              "internalType": "uint16",
              "name": "minSlippage",
              "type": "uint16"
            },
            {
              "internalType": "uint16",
              "name": "maxSlippage",
              "type": "uint16"
            },
            {
              "internalType": "uint16",
              "name": "minLeverage",
              "type": "uint16"
            },
            {
              "internalType": "uint16",
              "name": "maxLeverage",
              "type": "uint16"
            },
            {
              "internalType": "uint16",
              "name": "minPayment",
              "type": "uint16"
            },
            {
              "internalType": "uint16",
              "name": "minCollateral",
              "type": "uint16"
            },
            {
              "internalType": "uint16",
              "name": "decreaseNumLimit",
              "type": "uint16"
            },
            {
              "internalType": "uint32",
              "name": "maxTradeAmount",
              "type": "uint32"
            }
          ],
          "internalType": "struct MarketHandler.Props",
          "name": "config",
          "type": "tuple"
        },
        {
          "internalType": "bytes",
          "name": "oracle",
          "type": "bytes"
        },
        {
          "internalType": "bytes",
          "name": "fee",
          "type": "bytes"
        }
      ],
      "name": "addMarket",
      "outputs": [
        {
          "internalType": "uint16",
          "name": "market",
          "type": "uint16"
        }
      ],
      "stateMutability": "nonpayable",
      "type": "function"
    },
    {
      "inputs": [
        {
          "internalType": "address",
          "name": "market",
          "type": "address"
        },
        {
          "internalType": "address",
          "name": "account",
          "type": "address"
        },
        {
          "internalType": "bool",
          "name": "isLong",
          "type": "bool"
        }
      ],
      "name": "availableLiquidity",
      "outputs": [
        {
          "internalType": "uint256",
          "name": "",
          "type": "uint256"
        }
      ],
      "stateMutability": "view",
      "type": "function"
    },
    {
      "inputs": [
        {
          "internalType": "uint16",
          "name": "marketId",
          "type": "uint16"
        }
      ],
      "name": "containsMarket",
      "outputs": [
        {
          "internalType": "bool",
          "name": "",
          "type": "bool"
        }
      ],
      "stateMutability": "view",
      "type": "function"
    },
    {
      "inputs": [
        {
          "components": [
            {
              "internalType": "uint16",
              "name": "market",
              "type": "uint16"
            },
            {
              "internalType": "bool",
              "name": "isLong",
              "type": "bool"
            },
            {
              "internalType": "bool",
              "name": "isIncrease",
              "type": "bool"
            },
            {
              "internalType": "uint256",
              "name": "start",
              "type": "uint256"
            },
            {
              "internalType": "uint256",
              "name": "end",
              "type": "uint256"
            },
            {
              "internalType": "bool",
              "name": "isOpen",
              "type": "bool"
            },
            {
              "internalType": "uint256",
              "name": "oraclePrice",
              "type": "uint256"
            },
            {
              "internalType": "bytes32",
              "name": "storageKey",
              "type": "bytes32"
            }
          ],
          "internalType": "struct OrderFinderCache",
          "name": "cache",
          "type": "tuple"
        }
      ],
      "name": "getExecutableOrdersByPrice",
      "outputs": [
        {
          "components": [
            {
              "internalType": "bytes32",
              "name": "refCode",
              "type": "bytes32"
            },
            {
              "internalType": "uint128",
              "name": "collateral",
              "type": "uint128"
            },
            {
              "internalType": "uint128",
              "name": "size",
              "type": "uint128"
            },
            {
              "internalType": "uint256",
              "name": "price",
              "type": "uint256"
            },
            {
              "internalType": "uint256",
              "name": "tp",
              "type": "uint256"
            },
            {
              "internalType": "bool",
              "name": "triggerAbove",
              "type": "bool"
            },
            {
              "internalType": "bool",
              "name": "isFromMarket",
              "type": "bool"
            },
            {
              "internalType": "bool",
              "name": "isKeepLev",
              "type": "bool"
            },
            {
              "internalType": "bool",
              "name": "isKeepLevTP",
              "type": "bool"
            },
            {
              "internalType": "bool",
              "name": "isKeepLevSL",
              "type": "bool"
            },
            {
              "internalType": "uint64",
              "name": "orderID",
              "type": "uint64"
            },
            {
              "internalType": "uint64",
              "name": "pairId",
              "type": "uint64"
            },
            {
              "internalType": "uint64",
              "name": "fromId",
              "type": "uint64"
            },
            {
              "internalType": "uint32",
              "name": "updatedAtBlock",
              "type": "uint32"
            },
            {
              "internalType": "uint8",
              "name": "extra0",
              "type": "uint8"
            },
            {
              "internalType": "address",
              "name": "account",
              "type": "address"
            },
            {
              "internalType": "uint96",
              "name": "extra1",
              "type": "uint96"
            },
            {
              "internalType": "uint256",
              "name": "sl",
              "type": "uint256"
            },
            {
              "internalType": "bool",
              "name": "isIncrease",
              "type": "bool"
            },
            {
              "internalType": "bool",
              "name": "isLong",
              "type": "bool"
            },
            {
              "internalType": "uint16",
              "name": "market",
              "type": "uint16"
            },
            {
              "internalType": "uint96",
              "name": "extra2",
              "type": "uint96"
            },
            {
              "internalType": "uint128",
              "name": "gas",
              "type": "uint128"
            },
            {
              "internalType": "uint8",
              "name": "version",
              "type": "uint8"
            }
          ],
          "internalType": "struct OrderProps[]",
          "name": "_orders",
          "type": "tuple[]"
        }
      ],
      "stateMutability": "view",
      "type": "function"
    },
    {
      "inputs": [
        {
          "internalType": "address",
          "name": "_vault",
          "type": "address"
        }
      ],
      "name": "getGlobalPnl",
      "outputs": [
        {
          "internalType": "int256",
          "name": "",
          "type": "int256"
        }
      ],
      "stateMutability": "view",
      "type": "function"
    },
    {
      "inputs": [
        {
          "internalType": "uint16",
          "name": "market",
          "type": "uint16"
        }
      ],
      "name": "getMarket",
      "outputs": [
        {
          "internalType": "bytes",
          "name": "result",
          "type": "bytes"
        }
      ],
      "stateMutability": "view",
      "type": "function"
    },
    {
      "inputs": [],
      "name": "getMarkets",
      "outputs": [
        {
          "internalType": "bytes",
          "name": "result",
          "type": "bytes"
        }
      ],
      "stateMutability": "view",
      "type": "function"
    },
    {
      "inputs": [],
      "name": "getUSDDecimals",
      "outputs": [
        {
          "internalType": "uint8",
          "name": "",
          "type": "uint8"
        }
      ],
      "stateMutability": "pure",
      "type": "function"
    },
    {
      "inputs": [
        {
          "internalType": "uint16",
          "name": "market",
          "type": "uint16"
        }
      ],
      "name": "markeConfig",
      "outputs": [
        {
          "components": [
            {
              "internalType": "bool",
              "name": "isSuspended",
              "type": "bool"
            },
            {
              "internalType": "bool",
              "name": "allowOpen",
              "type": "bool"
            },
            {
              "internalType": "bool",
              "name": "allowClose",
              "type": "bool"
            },
            {
              "internalType": "bool",
              "name": "validDecrease",
              "type": "bool"
            },
            {
              "internalType": "uint16",
              "name": "minSlippage",
              "type": "uint16"
            },
            {
              "internalType": "uint16",
              "name": "maxSlippage",
              "type": "uint16"
            },
            {
              "internalType": "uint16",
              "name": "minLeverage",
              "type": "uint16"
            },
            {
              "internalType": "uint16",
              "name": "maxLeverage",
              "type": "uint16"
            },
            {
              "internalType": "uint16",
              "name": "minPayment",
              "type": "uint16"
            },
            {
              "internalType": "uint16",
              "name": "minCollateral",
              "type": "uint16"
            },
            {
              "internalType": "uint16",
              "name": "decreaseNumLimit",
              "type": "uint16"
            },
            {
              "internalType": "uint32",
              "name": "maxTradeAmount",
              "type": "uint32"
            }
          ],
          "internalType": "struct MarketHandler.Props",
          "name": "_config",
          "type": "tuple"
        }
      ],
      "stateMutability": "view",
      "type": "function"
    },
    {
      "inputs": [
        {
          "internalType": "uint16",
          "name": "marketId",
          "type": "uint16"
        }
      ],
      "name": "removeMarket",
      "outputs": [],
      "stateMutability": "nonpayable",
      "type": "function"
    },
    {
      "inputs": [
        {
          "internalType": "uint16",
          "name": "market",
          "type": "uint16"
        },
        {
          "components": [
            {
              "internalType": "bool",
              "name": "isSuspended",
              "type": "bool"
            },
            {
              "internalType": "bool",
              "name": "allowOpen",
              "type": "bool"
            },
            {
              "internalType": "bool",
              "name": "allowClose",
              "type": "bool"
            },
            {
              "internalType": "bool",
              "name": "validDecrease",
              "type": "bool"
            },
            {
              "internalType": "uint16",
              "name": "minSlippage",
              "type": "uint16"
            },
            {
              "internalType": "uint16",
              "name": "maxSlippage",
              "type": "uint16"
            },
            {
              "internalType": "uint16",
              "name": "minLeverage",
              "type": "uint16"
            },
            {
              "internalType": "uint16",
              "name": "maxLeverage",
              "type": "uint16"
            },
            {
              "internalType": "uint16",
              "name": "minPayment",
              "type": "uint16"
            },
            {
              "internalType": "uint16",
              "name": "minCollateral",
              "type": "uint16"
            },
            {
              "internalType": "uint16",
              "name": "decreaseNumLimit",
              "type": "uint16"
            },
            {
              "internalType": "uint32",
              "name": "maxTradeAmount",
              "type": "uint32"
            }
          ],
          "internalType": "struct MarketHandler.Props",
          "name": "data",
          "type": "tuple"
        }
      ],
      "name": "setMarketConf",
      "outputs": [],
      "stateMutability": "nonpayable",
      "type": "function"
    }
  ],
  "args": [],
  "numDeployments": 9,
  "solcInputHash": "8d8e6e1fbf0edfe343a1be3391dbac70",
  "bytecode": "0x60806040523462000023576200001462000029565b615e24620000358239615e2490f35b6200002f565b60405190565b600080fdfe60806040526004361015610013575b610f74565b61001e6000356100fd565b806313a30013146100f857806331ab264f146100f35780635874b736146100ee5780635add2fb0146100e9578063603d16fb146100e4578063735a2885146100df57806379c1122b146100da57806379eba709146100d5578063b0a3961a146100d0578063bb715a85146100cb578063cc55e9d1146100c6578063e36b20c5146100c1578063eb7d06c4146100bc5763ec2c90160361000e57610f3f565b610f09565b610ea1565b610e6c565b610e14565b610dac565b610d32565b610c06565b610a7e565b6109ec565b61098a565b610900565b6106e9565b6101e8565b60e01c90565b60405190565b600080fd5b600080fd5b600080fd5b61ffff1690565b61012881610118565b0361012f57565b600080fd5b905035906101418261011f565b565b9060208282031261015d5761015a91600001610134565b90565b61010e565b5190565b60209181520190565b60005b838110610183575050906000910152565b806020918301518185015201610172565b601f801991011690565b6101bd6101c66020936101cb936101b481610162565b93848093610166565b9586910161016f565b610194565b0190565b6101e5916020820191600081840391015261019e565b90565b34610218576102146102036101fe366004610143565b6113f1565b61020b610103565b918291826101cf565b0390f35b610109565b600080fd5b634e487b7160e01b600052604160045260246000fd5b9061024290610194565b810190811060018060401b0382111761025a57604052565b610222565b9061027261026b610103565b9283610238565b565b151590565b61028281610274565b0361028957565b600080fd5b9050359061029b82610279565b565b90565b6102a98161029d565b036102b057565b600080fd5b905035906102c2826102a0565b565b90565b6102d0816102c4565b036102d757565b600080fd5b905035906102e9826102c7565b565b9190610100838203126103955761038e9061030761010061025f565b936103158260008301610134565b6000860152610327826020830161028e565b6020860152610339826040830161028e565b604086015261034b82606083016102b5565b606086015261035d82608083016102b5565b608086015261036f8260a0830161028e565b60a08601526103818260c083016102b5565b60c086015260e0016102dc565b60e0830152565b61021d565b90610100828203126103b5576103b2916000016102eb565b90565b61010e565b5190565b60209181520190565b60200190565b6103d6906102c4565b9052565b60018060801b031690565b6103ee906103da565b9052565b6103fb9061029d565b9052565b61040890610274565b9052565b60018060401b031690565b6104209061040c565b9052565b63ffffffff1690565b61043690610424565b9052565b60ff1690565b6104499061043a565b9052565b60018060a01b031690565b6104619061044d565b90565b61046d90610458565b9052565b60018060601b031690565b61048590610471565b9052565b61049290610118565b9052565b906102e080610665936104b1600082015160008601906103cd565b6104c3602082015160208601906103e5565b6104d5604082015160408601906103e5565b6104e7606082015160608601906103f2565b6104f9608082015160808601906103f2565b61050b60a082015160a08601906103ff565b61051d60c082015160c08601906103ff565b61052f60e082015160e08601906103ff565b6105436101008201516101008601906103ff565b6105576101208201516101208601906103ff565b61056b610140820151610140860190610417565b61057f610160820151610160860190610417565b610593610180820151610180860190610417565b6105a76101a08201516101a086019061042d565b6105bb6101c08201516101c0860190610440565b6105cf6101e08201516101e0860190610464565b6105e361020082015161020086019061047c565b6105f76102208201516102208601906103f2565b61060b6102408201516102408601906103ff565b61061f6102608201516102608601906103ff565b610633610280820151610280860190610489565b6106476102a08201516102a086019061047c565b61065b6102c08201516102c08601906103e5565b0151910190610440565b565b906106758161030093610496565b0190565b60200190565b9061069c61069661068f846103ba565b80936103be565b926103c7565b9060005b8181106106ad5750505090565b9091926106c66106c06001928651610667565b94610679565b91019190916106a0565b6106e6916020820191600081840391015261067f565b90565b34610719576107156107046106ff36600461039a565b611494565b61070c610103565b918291826106d0565b0390f35b610109565b600080fd5b600080fd5b60018060401b03811161074457610740602091610194565b0190565b610222565b90826000939282370152565b9092919261076a61076582610728565b61025f565b938185526020850190828401116107865761078492610749565b565b610723565b9080601f830112156107a9578160206107a693359101610755565b90565b61071e565b6107b781610458565b036107be57565b600080fd5b905035906107d0826107ae565b565b600080fd5b90816101809103126107e65790565b6107d2565b600080fd5b600080fd5b909182601f8301121561082d5781359160018060401b03831161082857602001926001830284011161082357565b6107f0565b6107eb565b61071e565b610220818303126108d857600081013560018060401b0381116108d3578261085b91830161078b565b9261086983602084016107c3565b9261087781604085016102b5565b9261088582606083016107d7565b926101e082013560018060401b0381116108ce57836108a59184016107f5565b92909361020082013560018060401b0381116108c9576108c592016107f5565b9091565b610113565b610113565b610113565b61010e565b6108e690610118565b9052565b91906108fe906000602085019401906108dd565b565b3461093a57610936610925610916366004610832565b96959095949194939293611abb565b61092d610103565b918291826108ea565b0390f35b610109565b91909160408184031261097f576109598360008301610134565b92602082013560018060401b03811161097a5761097692016107f5565b9091565b610113565b61010e565b60000190565b346109b9576109a361099d36600461093f565b91611be6565b6109ab610103565b806109b581610984565b0390f35b610109565b91906040838203126109e757806109db6109e49260008601610134565b936020016102b5565b90565b61010e565b34610a1b57610a056109ff3660046109be565b90611c9a565b610a0d610103565b80610a1781610984565b0390f35b610109565b9091606082840312610a5657610a53610a3c84600085016107c3565b93610a4a81602086016107c3565b9360400161028e565b90565b61010e565b610a649061029d565b9052565b9190610a7c90600060208501940190610a5b565b565b34610aaf57610aab610a9a610a94366004610a20565b91611cf1565b610aa2610103565b91829182610a68565b0390f35b610109565b610abd81610424565b03610ac457565b600080fd5b90503590610ad682610ab4565b565b919061018083820312610bd257610bca90610af461018061025f565b93610b02826000830161028e565b6000860152610b14826020830161028e565b6020860152610b26826040830161028e565b6040860152610b38826060830161028e565b6060860152610b4a8260808301610134565b6080860152610b5c8260a08301610134565b60a0860152610b6e8260c08301610134565b60c0860152610b808260e08301610134565b60e0860152610b93826101008301610134565b610100860152610ba7826101208301610134565b610120860152610bbb826101408301610134565b61014086015261016001610ac9565b610160830152565b61021d565b91906101a083820312610c015780610bf5610bfe9260008601610134565b93602001610ad8565b90565b61010e565b34610c3557610c1f610c19366004610bd7565b906121a7565b610c27610103565b80610c3181610984565b0390f35b610109565b9061016080610d1993610c55600082015160008601906103ff565b610c67602082015160208601906103ff565b610c79604082015160408601906103ff565b610c8b606082015160608601906103ff565b610c9d60808201516080860190610489565b610caf60a082015160a0860190610489565b610cc160c082015160c0860190610489565b610cd360e082015160e0860190610489565b610ce7610100820151610100860190610489565b610cfb610120820151610120860190610489565b610d0f610140820151610140860190610489565b015191019061042d565b565b9190610d309060006101808501940190610c3a565b565b34610d6257610d5e610d4d610d48366004610143565b61246e565b610d55610103565b91829182610d1b565b0390f35b610109565b90602082820312610d8157610d7e916000016107c3565b90565b61010e565b90565b610d9290610d86565b9052565b9190610daa90600060208501940190610d89565b565b34610ddc57610dd8610dc7610dc2366004610d67565b6125ac565b610dcf610103565b91829182610d96565b0390f35b610109565b6000910312610dec57565b61010e565b610dfa9061043a565b9052565b9190610e1290600060208501940190610df1565b565b34610e4457610e24366004610de1565b610e40610e2f61269e565b610e37610103565b91829182610dfe565b0390f35b610109565b610e5290610274565b9052565b9190610e6a90600060208501940190610e49565b565b34610e9c57610e98610e87610e82366004610143565b6126b7565b610e8f610103565b91829182610e56565b0390f35b610109565b34610ecf57610eb9610eb4366004610143565b6127e7565b610ec1610103565b80610ecb81610984565b0390f35b610109565b90602082820312610f0457600082013560018060401b038111610eff57610efb92016107f5565b9091565b610113565b61010e565b34610f3a57610f36610f25610f1f366004610ed4565b90612c1f565b610f2d610103565b918291826108ea565b0390f35b610109565b34610f6f57610f4f366004610de1565b610f6b610f5a612f35565b610f62610103565b918291826101cf565b0390f35b610109565b600080fd5b606090565b90565b610f95610f90610f9a92610118565b610f7e565b610118565b90565b90610fa790610f81565b600052602052604060002090565b90610fbf90610f81565b600052602052604060002090565b60001c90565b60018060a01b031690565b610fea610fef91610fcd565b610fd3565b90565b610ffc9054610fde565b90565b9061100990610f81565b600052602052604060002090565b90565b61102661102b91610fcd565b611017565b90565b611038905461101a565b90565b9061104590610f81565b600052602052604060002090565b634e487b7160e01b600052602260045260246000fd5b9060016002830492168015611089575b602083101461108457565b611053565b91607f1691611079565b60209181520190565b600052602060002090565b90600092918054906110c26110bb83611069565b8094611093565b9160018116908160001461111b57506001146110de575b505050565b6110eb919293945061109c565b916000925b81841061110357505001903880806110d9565b600181602092959395548486015201910192906110f0565b92949550505060ff19168252151560200201903880806110d9565b61113f90610458565b9052565b60ff1690565b61115561115a91610fcd565b611143565b90565b60081c90565b61116f6111749161115d565b611143565b90565b60101c90565b61118961118e91611177565b611143565b90565b60181c90565b6111a36111a891611191565b611143565b90565b60201c90565b61ffff1690565b6111c46111c9916111ab565b6111b1565b90565b60301c90565b6111de6111e3916111cc565b6111b1565b90565b60401c90565b6111f86111fd916111e6565b6111b1565b90565b60501c90565b61121261121791611200565b6111b1565b90565b60601c90565b61122c6112319161121a565b6111b1565b90565b60701c90565b61124661124b91611234565b6111b1565b90565b60801c90565b6112606112659161124e565b6111b1565b90565b60901c90565b63ffffffff1690565b61128361128891611268565b61126e565b90565b90610160611394600061139c9401546112b06112a682611149565b60008601906103ff565b6112c66112bc82611163565b60208601906103ff565b6112dc6112d28261117d565b60408601906103ff565b6112f26112e882611197565b60608601906103ff565b6113086112fe826111b8565b6080860190610489565b61131e611314826111d2565b60a0860190610489565b61133461132a826111ec565b60c0860190610489565b61134a61134082611206565b60e0860190610489565b61136161135682611220565b610100860190610489565b61137861136d8261123a565b610120860190610489565b61138f61138482611254565b610140860190610489565b611277565b91019061042d565b565b906113ef946113de6080949897956113d46113c96113e89561020088019088820360008a01526110a7565b9a6020870190611136565b6040850190611136565b6060830190610a5b565b019061128b565b565b6113f9610f79565b5061148c61140561309c565b9161147d611417600185018390610f9d565b9161142e611429600287018390610fb5565b610ff2565b94611468611448611443600384018590610fb5565b610ff2565b92600061146161145c600486018490610fff565b61102e565b930161103b565b91611471610103565b9687956020870161139e565b60208201810382520382610238565b90565b606090565b6114a6906114a061148f565b506133a1565b90565b600090565b906114bf9897969594939291611819565b90565b6114d66114d16114db9261044d565b610f7e565b61044d565b90565b6114e7906114c2565b90565b6114f3906114de565b90565b6114ff906114c2565b90565b61150b906114f6565b90565b90565b61152561152061152a9261150e565b610f7e565b61044d565b90565b61153690611511565b90565b5190565b61155c61156560209361156a9361155381611539565b93848093611093565b9586910161016f565b610194565b0190565b5061157d90602081019061028e565b90565b5061158f906020810190610134565b90565b506115a1906020810190610ac9565b90565b906101606116dc6116e4936115c96115bf600083018361156e565b60008601906103ff565b6115e36115d9602083018361156e565b60208601906103ff565b6115fd6115f3604083018361156e565b60408601906103ff565b61161761160d606083018361156e565b60608601906103ff565b6116316116276080830183611580565b6080860190610489565b61164b61164160a0830183611580565b60a0860190610489565b61166561165b60c0830183611580565b60c0860190610489565b61167f61167560e0830183611580565b60e0860190610489565b61169b611690610100830183611580565b610100860190610489565b6116b76116ac610120830183611580565b610120860190610489565b6116d36116c8610140830183611580565b610140860190610489565b82810190611592565b91019061042d565b565b6117226117299461171861170d606095999896996101e0860190868203600088015261153d565b986020850190611136565b6040830190611136565b01906115a4565b565b600080fd5b60e01b90565b905051906117438261011f565b565b9060208282031261175f5761175c91600001611736565b90565b61010e565b61176c610103565b3d6000823e3d90fd5b600091031261178057565b61010e565b919061179f81611798816117a495610166565b8095610749565b610194565b0190565b916117ce9391926117c1604082019460008301906108dd565b6020818503910152611785565b90565b9160206117f39294936117ec604082019660008301906108dd565b0190610a5b565b565b6117fe906114c2565b90565b61180a906117f5565b90565b611816906114de565b90565b91611894600061189f95979b9a999896936020955061188061184a611845611840306114ea565b611502565b6114ea565b9461187263eb7d06c493919761185f8661152d565b611867610103565b998a948c86016116e6565b888201810382520386610238565b611888610103565b96879586948593611730565b8352600483016101cf565b03925af1908115611ab657600091611a88575b50956118cd6118c86118c3306114ea565b611502565b6114ea565b90635add2fb09188919392813b15611a835760006118fe9161190982966118f2610103565b98899788968795611730565b8552600485016117a8565b03925af18015611a7e57611a51575b5061193261192d611928306114ea565b611502565b6114ea565b9063603d16fb90869092803b15611a4c576119616000809461196c611955610103565b97889687958694611730565b8452600484016117d1565b03925af18015611a4757611a1a575b5061199561199061198b306114ea565b611801565b61180d565b9063e9210a029185919392813b15611a155760006119c6916119d182966119ba610103565b98899788968795611730565b8552600485016117a8565b03925af18015611a10576119e3575b50565b611a039060003d8111611a09575b6119fb8183610238565b810190611775565b386119e0565b503d6119f1565b611764565b61172b565b611a3a9060003d8111611a40575b611a328183610238565b810190611775565b3861197b565b503d611a28565b611764565b61172b565b611a719060003d8111611a77575b611a698183610238565b810190611775565b38611918565b503d611a5f565b611764565b61172b565b611aa9915060203d8111611aaf575b611aa18183610238565b810190611745565b386118b2565b503d611a97565b611764565b90611ad397969594939291611ace6114a9565b6114ae565b90565b611adf9061044d565b90565b611aeb81611ad6565b03611af257565b600080fd5b90503590611b0482611ae2565b565b9190604083820312611b2f5780611b23611b2c9260008601611af7565b936020016102b5565b90565b61010e565b611b3d906114de565b90565b60001b90565b90611b5760018060a01b0391611b40565b9181191691161790565b611b6a906114de565b90565b90565b90611b85611b80611b8c92611b61565b611b6d565b8254611b46565b9055565b90611b9d60001991611b40565b9181191691161790565b611bbb611bb6611bc09261029d565b610f7e565b61029d565b90565b90565b90611bdb611bd6611be292611ba7565b611bc3565b8254611b90565b9055565b611c4d906005611c33611c46611c2c611c5297611c02306114ea565b611c14611c0e33610458565b91610458565b03611c54575b611c2261391d565b9790810190611b06565b9290611b34565b611c41600288018690610fb5565b611b70565b9301610fff565b611bc6565b565b611c613360003691613792565b611c1a565b611c7a611c75611c7f92610118565b610f7e565b61029d565b90565b90611c8c90611c66565b600052602052604060002090565b90611cd3611cd892611cab306114ea565b611cbd611cb733610458565b91610458565b03611cda575b6003611ccd61394c565b01611c82565b611bc6565b565b611ce73360003691613792565b611cc3565b600090565b505050611cfc611cec565b90565b90611d0991612188565b565b611d159051610274565b90565b90611d2460ff91611b40565b9181191691161790565b611d3790610274565b90565b90565b90611d52611d4d611d5992611d2e565b611d3a565b8254611d18565b9055565b60081b90565b90611d7061ff0091611d5d565b9181191691161790565b90611d8f611d8a611d9692611d2e565b611d3a565b8254611d63565b9055565b60101b90565b90611dae62ff000091611d9a565b9181191691161790565b90611dcd611dc8611dd492611d2e565b611d3a565b8254611da0565b9055565b60181b90565b90611ded63ff00000091611dd8565b9181191691161790565b90611e0c611e07611e1392611d2e565b611d3a565b8254611dde565b9055565b611e219051610118565b90565b60201b90565b90611e3a61ffff60201b91611e24565b9181191691161790565b90565b90611e5c611e57611e6392610f81565b611e44565b8254611e2a565b9055565b60301b90565b90611e7d61ffff60301b91611e67565b9181191691161790565b90611e9c611e97611ea392610f81565b611e44565b8254611e6d565b9055565b60401b90565b90611ebd61ffff60401b91611ea7565b9181191691161790565b90611edc611ed7611ee392610f81565b611e44565b8254611ead565b9055565b60501b90565b90611efd61ffff60501b91611ee7565b9181191691161790565b90611f1c611f17611f2392610f81565b611e44565b8254611eed565b9055565b60601b90565b90611f3d61ffff60601b91611f27565b9181191691161790565b90611f5c611f57611f6392610f81565b611e44565b8254611f2d565b9055565b60701b90565b90611f7d61ffff60701b91611f67565b9181191691161790565b90611f9c611f97611fa392610f81565b611e44565b8254611f6d565b9055565b60801b90565b90611fbd61ffff60801b91611fa7565b9181191691161790565b90611fdc611fd7611fe392610f81565b611e44565b8254611fad565b9055565b611ff19051610424565b90565b60901b90565b9061200c63ffffffff60901b91611ff4565b9181191691161790565b61202a61202561202f92610424565b610f7e565b610424565b90565b90565b9061204a61204561205192612016565b612032565b8254611ffa565b9055565b90612174610160600061217a94612079828201612073848801611d0b565b90611d3d565b61209182820161208b60208801611d0b565b90611d7a565b6120a98282016120a360408801611d0b565b90611db8565b6120c18282016120bb60608801611d0b565b90611df7565b6120d98282016120d360808801611e17565b90611e47565b6120f18282016120eb60a08801611e17565b90611e87565b61210982820161210360c08801611e17565b90611ec7565b61212182820161211b60e08801611e17565b90611f07565b61213a8282016121346101008801611e17565b90611f47565b61215382820161214d6101208801611e17565b90611f87565b61216c8282016121666101408801611e17565b90611fc7565b019201611fe7565b90612035565b565b9061218691612055565b565b6121a06121a59291600061219a61309c565b0161103b565b61217c565b565b906121b191611cff565b565b6121be61018061025f565b90565b600090565b600090565b600090565b6121d86121b3565b90602080808080808080808080808d6121ef6121c1565b8152016121fa6121c1565b8152016122056121c1565b8152016122106121c1565b81520161221b6121c6565b8152016122266121c6565b8152016122316121c6565b81520161223c6121c6565b8152016122476121c6565b8152016122526121c6565b81520161225d6121c6565b8152016122686121cb565b81525050565b6122766121d0565b90565b6122839054611149565b90565b9061229090610274565b9052565b61229e9054611163565b90565b6122ab905461117d565b90565b6122b89054611197565b90565b6122c590546111b8565b90565b906122d290610118565b9052565b6122e090546111d2565b90565b6122ed90546111ec565b90565b6122fa9054611206565b90565b6123079054611220565b90565b612314905461123a565b90565b6123219054611254565b90565b61232e9054611277565b90565b9061233b90610424565b9052565b9061246061245660006123506121b3565b9461236761235f838301612279565b838801612286565b61237e612375838301612294565b60208801612286565b61239561238c8383016122a1565b60408801612286565b6123ac6123a38383016122ae565b60608801612286565b6123c36123ba8383016122bb565b608088016122c8565b6123da6123d18383016122d6565b60a088016122c8565b6123f16123e88383016122e3565b60c088016122c8565b6124086123ff8383016122f0565b60e088016122c8565b6124206124168383016122fd565b61010088016122c8565b61243861242e83830161230a565b61012088016122c8565b612450612446838301612317565b61014088016122c8565b01612324565b6101608401612331565b565b61246b9061233f565b90565b61248e6124939161247d61226e565b50600061248861309c565b0161103b565b612462565b90565b600090565b906124a590611b61565b600052602052604060002090565b90565b6124ca6124c56124cf9261150e565b610f7e565b610d86565b90565b6124e66124e16124eb9261150e565b610f7e565b61029d565b90565b60016124fa910161029d565b90565b5190565b634e487b7160e01b600052603260045260246000fd5b90612521826124fd565b811015612532576020809102010190565b612501565b612541905161029d565b90565b61255861255361255d9261029d565b610f7e565b610118565b90565b634e487b7160e01b600052601160045260246000fd5b61258561258b91939293610d86565b92610d86565b808301926000828512158183121692851291121516176125a757565b612560565b6125d46125cf6125d9926125be612496565b5060056125c961309c565b0161249b565b6124b3565b61395f565b6125e360006124b6565b906125ee60006124d2565b915b8261260b612605612600856124fd565b61029d565b9161029d565b10156126675761265b6126619161265561263661263161262c878990612517565b612537565b612544565b8061264f61264682600190613988565b91600090613988565b916139aa565b90612576565b926124ee565b916125f0565b91505090565b600090565b90565b61268961268461268e92612672565b610f7e565b61043a565b90565b61269b6012612675565b90565b6126a661266d565b506126af612691565b90565b600090565b612705906126c36126b2565b506126ff6126f96126f46126d561309c565b60056126ed6126e8600284018890610fb5565b610ff2565b910161249b565b6124b3565b91611c66565b906139f8565b90565b6127119061277c565b565b1b90565b9190600861273791029161273160018060a01b0384612713565b92612713565b9181191691161790565b919061275761275261275f93611b61565b611b6d565b908354612717565b9055565b600090565b61277a91612774612763565b91612741565b565b60006127e06127e5926127cf6127c06127bb6127ab6127a6600261279e61309c565b018690610fb5565b610ff2565b60056127b561309c565b0161249b565b6124b3565b6127c983611c66565b90613a23565b5060026127da61309c565b01610fb5565b612768565b565b6127f090612708565b565b6127fe61280391610fcd565b6111b1565b90565b61281090546127f2565b90565b90565b61282a61282561282f92612813565b610f7e565b610118565b90565b61283e61284491610118565b91610118565b019061ffff821161285157565b612560565b6101e0818303126128af57600081013560018060401b0381116128aa578261287f91830161078b565b926128a76128908460208501611af7565b9361289e8160408601611af7565b93606001610ad8565b90565b610113565b61010e565b601f602091010490565b919060086128da9102916128d460001984612713565b92612713565b9181191691161790565b91906128fa6128f561290293611ba7565b611bc3565b9083546128be565b9055565b61291891612912611cec565b916128e4565b565b5b818110612926575050565b806129346000600193612906565b0161291b565b9190601f811161294a575b505050565b61295661297b9361109c565b906020612962846128b4565b83019310612983575b612974906128b4565b019061291a565b388080612945565b91506129748192905061296b565b1c90565b906129a69060001990600802612991565b191690565b816129b591612995565b906002021790565b906129c781611539565b9060018060401b038211612a87576129e9826129e38554611069565b8561293a565b602090601f8311600114612a1e57918091612a0d93600092612a12575b50506129ab565b90555b565b90915001513880612a06565b601f19831691612a2d8561109c565b9260005b818110612a6f57509160029391856001969410612a55575b50505002019055612a10565b612a65910151601f841690612995565b9055388080612a49565b91936020600181928787015181550195019201612a31565b610222565b90612a96916129bd565b565b612aa1906114c2565b90565b612aad90612a98565b90565b612ab9906114de565b90565b90505190612ac9826107ae565b565b90602082820312612ae557612ae291600001612abc565b90565b61010e565b60207f7473000000000000000000000000000000000000000000000000000000000000917f4d61726b657446616365743a206d61726b657420616c7265616479206578697360008201520152565b612b456022604092611093565b612b4e81612aea565b0190565b612b689060208101906000818303910152612b38565b90565b15612b7257565b612b7a610103565b62461bcd60e51b815280612b9060048201612b52565b0390fd5b90612ba161ffff91611b40565b9181191691161790565b90612bc0612bbb612bc792610f81565b611e44565b8254612b94565b9055565b90612c1d94612c0c612c01612c16936080969a99979a612bf461020088019260008901906108dd565b868203602088015261153d565b986040850190611136565b6060830190611136565b0190610c3a565b565b9190612c91612c85612c9792612c336114a9565b50612c3d306114ea565b612c4f612c4933610458565b91610458565b03612e6b575b612c7b612c6b6006612c6561309c565b01612806565b612c756001612816565b90612832565b9590810190612856565b94919293909392611b34565b92611b34565b92612cb682612cb16001612ca961309c565b018990610f9d565b612a8c565b83612cd2612ccc612cc7600061152d565b610458565b91610458565b14600014612e4457612d07906020612cf1612cec86612aa4565b612ab0565b6338d52e0f90612cff610103565b948592611730565b82528180612d1760048201610984565b03915afa918215612e3f57612e0c92612d4d91600091612e11575b50612d486003612d4061309c565b018a90610fb5565b611b70565b5b612d85612d80612d71612d6c6005612d6461309c565b01889061249b565b6124b3565b612d7a8a611c66565b90613a4e565b612b6b565b612da384612d9e6002612d9661309c565b018a90610fb5565b611b70565b612dc181612dbc6000612db461309c565b018a9061103b565b61217c565b612dd5876006612dcf61309c565b01612bab565b869293947f09889d650492190b1f8223699629e1608c1b0732c9b808fc509260af2f6e087195612e03610103565b95869586612bcb565b0390a1565b612e32915060203d8111612e38575b612e2a8183610238565b810190612acb565b38612d32565b503d612e20565b611764565b612e0c90612e6685612e616003612e5961309c565b018a90610fb5565b611b70565b612d4e565b612e783360003691613792565b612c55565b90565b612e94612e8f612e9992612e7d565b610f7e565b61029d565b90565b612eab612eb19193929361029d565b9261029d565b91612ebd83820261029d565b928184041490151715612ecc57565b612560565b60018060401b038111612eed57612ee9602091610194565b0190565b610222565b90612f04612eff83612ed1565b61025f565b918252565b369037565b90612f33612f1b83612ef2565b92602080612f298693612ed1565b9201910390612f09565b565b612f3d610f79565b50612f4661309c565b90612f65612f60612f5b60058501339061249b565b6124b3565b61395f565b91612f8a612f85612f75856124fd565b612f7f6020612e80565b90612e9c565b612f0e565b90612f9560006124d2565b5b80612fb1612fab612fa6886124fd565b61029d565b9161029d565b10156130705761306b90612fd6612fd1612fcc888490612517565b612537565b612544565b61305f612fe7600186018390610f9d565b613050613000612ffb600289018690610fb5565b610ff2565b9361301761301260038a018390610fb5565b610ff2565b9061303b61303161302c60048c018490610fff565b61102e565b9160008b0161103b565b91613044610103565b9687956020870161139e565b60208201810382520382610238565b602082028501526124ee565b612f96565b505090915090565b7f2eec39e2b6bcfb5f1ee2be0b6e9d5a470a45585b1e2f7f291af9fb9f551763d090565b6130a4613078565b90565b906130b1906102c4565b9052565b60007f6f7261636c655072696365207a65726f00000000000000000000000000000000910152565b6130ea6010602092611093565b6130f3816130b5565b0190565b61310d90602081019060008183039101526130dd565b90565b1561311757565b61311f610103565b62461bcd60e51b815280613135600482016130f7565b0390fd5b61314390516102c4565b90565b5190565b9061315482613146565b811015613165576020809102010190565b612501565b61317e6131796131839261150e565b611b40565b6102c4565b90565b60018060401b03811161319c5760208091020190565b610222565b906131b36131ae83613186565b61025f565b918252565b6131c361030061025f565b90565b600090565b600090565b600090565b600090565b600090565b600090565b600090565b6131f16131b8565b90816131fb6131c6565b81526020016132086131cb565b81526020016132156131cb565b81526020016132226131d0565b815260200161322f6131d0565b815260200161323c6121c1565b81526020016132496121c1565b81526020016132566121c1565b81526020016132636121c1565b81526020016132706121c1565b815260200161327d6131d5565b815260200161328a6131d5565b81526020016132976131d5565b81526020016132a46121cb565b81526020016132b16131da565b81526020016132be6131df565b81526020016132cb6131e4565b81526020016132d86131d0565b81526020016132e56121c1565b81526020016132f26121c1565b81526020016132ff6121c6565b815260200161330c6131e4565b81526020016133196131cb565b81526020016133266131da565b815250565b6133336131e9565b90565b60005b82811061334557505050565b60209061335061332b565b8184015201613339565b9061337f613367836131a1565b926020806133758693613186565b9201910390613336565b565b9061338b826103ba565b81101561339c576020809102010190565b612501565b906133aa61148f565b506133e46133db6133bd60008501611e17565b6133c960208601611d0b565b6133d560408701611d0b565b91613af9565b60e084016130a7565b61340c6133f360c08401612537565b61340661340060006124d2565b9161029d565b11613110565b61343961341b60e08401613139565b61342760608501612537565b61343360808601612537565b91613b67565b91613442611cec565b9061344c84613146565b613454611cec565b5b806134686134628461029d565b9161029d565b101561351f5761348161347c87839061314a565b613139565b61349761349060e08601613139565b829061409b565b906134ae826134a860c08801612537565b906140cc565b90816134fa575b509081156134e7575b506134d2575b6134cd906124ee565b613455565b926134df6134cd916124ee565b9390506134c4565b6134f4915060c001611d0b565b386134be565b905061351761351161350c600061316a565b6102c4565b916102c4565b1415386134b5565b5092909161352c9061335a565b91613535611cec565b9161353e611cec565b5b8061355261354c8861029d565b9161029d565b101561361f5761356b61356688839061314a565b613139565b61358161357a60e08601613139565b829061409b565b906135988261359260c08801612537565b906140cc565b90816135fa575b5080156135e8575b6135bb575b506135b6906124ee565b61353f565b6135b691946135da6135e1928883916135d48383613381565b52613381565b51506124ee565b93906135ac565b506135f560c08201611d0b565b6135a7565b905061361761361161360c600061316a565b6102c4565b916102c4565b14153861359f565b50935050509150565b613631906114de565b90565b90565b61364b61364661365092613634565b610f7e565b61029d565b90565b600080fd5b600080fd5b9093929384831161367d578411613678576001820201920390565b613658565b613653565b5090565b63ffffffff60e01b1690565b906136a06136a79183613682565b9135613686565b90600481106136b5575b5090565b6136cd9063ffffffff60e01b90600403600802612713565b16386136b1565b6136e86136e36136ed9261150e565b610f7e565b610424565b90565b919061370490600060208501940190611136565b565b60a01b90565b9061371b60ff60a01b91613706565b9181191691161790565b9061373a61373561374192611d2e565b611d3a565b825461370c565b9055565b61374e906114c2565b90565b61375a90613745565b90565b613766906114de565b90565b9161378f93919261378260408201946000830190611136565b6020818503910152611785565b90565b61379a61417a565b916137ed6137e56137a9614185565b846137b330613628565b906137df6137d9878b6000906137d36137cd6004936124d2565b92613637565b9261365d565b90613692565b9261429e565b919015610274565b6137f9575b5050505050565b61380c61380660006136d4565b91610424565b116000146138d457613822600160008501613725565b61383a613835613830614185565b613751565b61375d565b6394c7d7ee92919492813b156138cf57600061386991613874829661385d610103565b998a9788968795611730565b855260048501613769565b03925af19182156138ca576138939261389d575b506000809101613725565b38808080806137f2565b6138bd9060003d81116138c3575b6138b58183610238565b810190611775565b38613888565b503d6138ab565b611764565b61172b565b6138f5826138e0610103565b91829162d1953b60e31b8352600483016136f0565b0390fd5b7f215c1de8a6459dcf0789cdceef063745b34797042fd1550737c0f263affdef6490565b6139256138f9565b90565b7f4d502ef5fdff70d438af9761f5d88171826a8d62a1895d92f16b3f9b850427db90565b613954613928565b90565b606090565b90565b613977600061397c92613970613957565b500161395c565b614472565b613984613957565b5090565b6139a791613994611cec565b506139a0828290614518565b90916146b8565b90565b906139d9926139c96139d3926139be612496565b5084906001916148b6565b92906000916148b6565b90612576565b90565b6139f06139eb6139f59261029d565b611b40565b6102c4565b90565b90613a1b613a156000613a2094613a0d6126b2565b5001926139dc565b9161395c565b614952565b90565b90613a46613a406000613a4b94613a386126b2565b5001926139dc565b9161395c565b614ab5565b90565b90613a71613a6b6000613a7694613a636126b2565b5001926139dc565b9161395c565b614bef565b90565b600090565b604090613aa8613aaf9496959396613a9e60608401986000850190610e49565b6020830190610e49565b01906108dd565b565b60200190565b613ad1613acc613ac683610162565b92613ab1565b613139565b9060208110613adf575b5090565b613af29060001990602003600802612713565b1638613adb565b90613b3892613b24613b3392613b0d613a79565b509193613b18610103565b94859360208501613a7e565b60208201810382520382610238565b613ab7565b90565b606090565b613b49906102c4565b90565b90613b5690613b40565b600052602052604060002090565b90565b91613b90613b8b613b9894613b7a613b3b565b506004613b85614c7a565b01613b4c565b613b64565b919091614ce3565b90565b613ba36131e9565b90565b90613bb090613b40565b600052602052604060002090565b90613bc890613b40565b600052602052604060002090565b90565b613be5613bea91610fcd565b613bd6565b90565b613bf79054613bd9565b90565b60018060801b031690565b613c11613c1691610fcd565b613bfa565b90565b613c239054613c05565b90565b90613c30906103da565b9052565b613c40613c459161124e565b613bfa565b90565b613c529054613c34565b90565b90613c5f9061029d565b9052565b613c6f613c74916111ab565b611143565b90565b613c819054613c63565b90565b60281c90565b60018060401b031690565b613ca1613ca691613c84565b613c8a565b90565b613cb39054613c95565b90565b90613cc09061040c565b9052565b60681c90565b613cd6613cdb91613cc4565b613c8a565b90565b613ce89054613cca565b90565b60a81c90565b613cfd613d0291613ceb565b613c8a565b90565b613d0f9054613cf1565b90565b613d1e613d2391610fcd565b61126e565b90565b613d309054613d12565b90565b60ff1690565b613d45613d4a916111ab565b613d33565b90565b613d579054613d39565b90565b90613d649061043a565b9052565b613d74613d7991613c84565b610fd3565b90565b613d869054613d68565b90565b90613d9390610458565b9052565b60018060601b031690565b613dae613db391610fcd565b613d97565b90565b613dc09054613da2565b90565b90613dcd90610471565b9052565b613ddd613de291611177565b6111b1565b90565b613def9054613dd1565b90565b613dfe613e03916111ab565b613d97565b90565b613e109054613df2565b90565b613e1f613e2491610fcd565b613d33565b90565b613e319054613e13565b90565b9061408d6140836009613e456131b8565b94613e5e613e5560008301613bed565b600088016130a7565b613e76613e6d60018301613c19565b60208801613c26565b613e8e613e8560018301613c48565b60408801613c26565b613ea6613e9d6002830161102e565b60608801613c55565b613ebe613eb56003830161102e565b60808801613c55565b613ed6613ecd60048301612279565b60a08801612286565b613eee613ee560048301612294565b60c08801612286565b613f06613efd600483016122a1565b60e08801612286565b613f1f613f15600483016122ae565b6101008801612286565b613f38613f2e60048301613c77565b6101208801612286565b613f51613f4760048301613ca9565b6101408801613cb6565b613f6a613f6060048301613cde565b6101608801613cb6565b613f83613f7960048301613d05565b6101808801613cb6565b613f9c613f9260058301613d26565b6101a08801612331565b613fb5613fab60058301613d4d565b6101c08801613d5a565b613fce613fc460058301613d7c565b6101e08801613d89565b613fe7613fdd60068301613db6565b6102008801613dc3565b614000613ff66007830161102e565b6102208801613c55565b61401961400f60088301612279565b6102408801612286565b61403261402860088301612294565b6102608801612286565b61404b61404160088301613de5565b61028088016122c8565b61406461405a60088301613e06565b6102a08801613dc3565b61407d61407360088301613c48565b6102c08801613c26565b01613e27565b6102e08401613d5a565b565b61409890613e34565b90565b6140c9916140bf6140c4926140ae613b9b565b5060006140b9614c7a565b01613ba6565b613bbe565b61408f565b90565b906140d56126b2565b506140e260a08301611d0b565b60001461410c576141016140fc6060614107939401612537565b61029d565b9161029d565b101590565b61412461411f606061412a939401612537565b61029d565b9161029d565b111590565b90565b61414661414161414b9261412f565b611b40565b6102c4565b90565b6141777ff3177357ab46d8af007ab3fdb9af81da189e1068fefdc0073dca88a2cab40a00614132565b90565b61418261414e565b90565b61418d612763565b506141a1600061419b61417a565b01610ff2565b90565b600090565b6141b290613686565b9052565b6040906141e06141e794969593966141d660608401986000850190611136565b6020830190611136565b01906141a9565b565b3d600014614206576141fa3d612ef2565b903d6000602084013e5b565b61420e610f79565b90614204565b90565b61422b61422661423092614214565b610f7e565b61029d565b90565b9050519061424082610279565b565b9060208282031261425c5761425991600001614233565b90565b61010e565b9050519061426e82610ab4565b565b9190604083820312614299578061428d6142969260008601614233565b93602001614261565b90565b61010e565b939260009182916142f06142b06126b2565b956142e16142bc6141a4565b999491936142c8610103565b94859360046020860163b700961360e01b8152016141b6565b60208201810382520382610238565b602081019051915afa6143016141e9565b9061430c575b509190565b9061431682610162565b6143296143236040614217565b9161029d565b1015600014614358575061434f919250602061434482610162565b818301019101614270565b91905b38614307565b9061436281610162565b61437561436f6020612e80565b9161029d565b1015614382575b50614352565b61439d9150602061439282610162565b818301019101614242565b3861437c565b5490565b60209181520190565b600052602060002090565b906143c8816020936103cd565b0190565b6143d69054613bd9565b90565b60010190565b906143fc6143f66143ef846143a3565b80936143a7565b926143b0565b9060005b81811061440d5750505090565b90919261442d614427600192614422876143cc565b6143bb565b946143d9565b9101919091614400565b90614441916143df565b90565b9061446461445d92614454610103565b93848092614437565b0383610238565b565b61446f90614444565b90565b600061448791614480613b3b565b5001614466565b90565b90565b6144a161449c6144a69261448a565b610f7e565b61029d565b90565b6144be68327cb2734119d3b7a9601e1b61448d565b90565b90565b6144d86144d36144dd926144c1565b610f7e565b61029d565b90565b634e487b7160e01b600052601260045260246000fd5b6145026145089161029d565b9161029d565b908115614513570490565b6144e0565b9061453790614525611cec565b5061453183829061517d565b9261517d565b8161456561455f61455a60001961455561454f6144a9565b916144c4565b6144f6565b61029d565b9161029d565b106145875761457f614584926145796144a9565b906144f6565b612e9c565b90565b61459c6145a1926145966144a9565b90612e9c565b6144f6565b90565b906145ae90610f81565b600052602052604060002090565b60a01c90565b6145ce6145d3916145bc565b61126e565b90565b6145e090546145c2565b90565b6145f76145f26145fc92610424565b610f7e565b61029d565b90565b61460b614610916111e6565b61126e565b90565b61461d90546145ff565b90565b61462f6146359193929361029d565b9261029d565b820180921161464057565b612560565b614651614656916111ab565b61126e565b90565b6146639054614645565b90565b61467561467b9193929361029d565b9261029d565b820391821161468657565b612560565b90565b6146a261469d6146a79261468b565b610f7e565b61029d565b90565b6146b561271061468e565b90565b90916146c2611cec565b506146eb6146e660006146e060066146d861391d565b0186906145a4565b016145d6565b6145e3565b9161470961470460046146fc61391d565b018390610fff565b61102e565b924261474461473e6147398461473361472e6000600161472761391d565b0101614613565b6145e3565b90614620565b61029d565b9161029d565b11908115614838575b50801561481d575b614817578361476c6147668561029d565b9161029d565b116000146147fe576147a461479e614797614788878790614666565b5b6147916146aa565b90612e9c565b86906144f6565b9161563c565b90816147c5575b506147bf576147bc9291909161567d565b90565b50905090565b90506147f66147f06147eb6147e6600060016147df61391d565b0101613d26565b6145e3565b61029d565b9161029d565b1115386147ab565b6147a461479e614797614812868890614666565b614789565b50505090565b508261483261482c60006124d2565b9161029d565b14614755565b905061487461486e614869429361486361485e6000600161485761391d565b0101614659565b6145e3565b90614620565b61029d565b9161029d565b113861474d565b61488f61488a6148949261029d565b610f7e565b610d86565b90565b6148a090610d86565b600160ff1b81146148b15760000390565b612560565b6148d291926148cd916148c7612496565b50615758565b6159f7565b906148df60008301612537565b6148f26148ec60006124d2565b9161029d565b1461492b5761490091615a1f565b90600014614915576149119061487b565b5b90565b6149216149269161487b565b614897565b614912565b505061493760006124b6565b90565b9061494490613b40565b600052602052604060002090565b61497091600161496b926149646126b2565b500161493a565b61102e565b61498361497d60006124d2565b9161029d565b141590565b61499c6149976149a192612813565b610f7e565b61029d565b90565b6149ad816143a3565b8210156149c8576149bf6001916143b0565b91020190600090565b612501565b6149dd9060086149e29302612991565b613bd6565b90565b906149f091546149cd565b90565b6149fc90610fcd565b90565b9190614a15614a10614a1d93613b40565b6149f3565b9083546128be565b9055565b90565b634e487b7160e01b600052603160045260246000fd5b5490565b600052602060002090565b614a5281614a3a565b821015614a6d57614a64600191614a3e565b91020190600090565b612501565b614a8491614a7e613a79565b916149ff565b565b614a8f81614a3a565b8015614ab0576001900390614aad614aa78383614a49565b90614a72565b55565b614a24565b614abd6126b2565b50614ad4614acf60018301849061493a565b61102e565b9081614ae9614ae360006124d2565b9161029d565b1415600014614bb757614b69926001614b649284614b12600096614b0c85614988565b90614666565b614b2f614b208885016143a3565b614b2986614988565b90614666565b81614b42614b3c8361029d565b9161029d565b03614b6e575b505050614b5e614b59868301614a21565b614a86565b0161493a565b612906565b600190565b614baf92614ba1614b8d614b87614baa948c89016149a4565b906149e5565b93614b9b85918c89016149a4565b906149ff565b9185850161493a565b611bc6565b388080614b48565b505050600090565b90815491600160401b831015614bea5782614be2916001614be895018155614a49565b906149ff565b565b610222565b614bf76126b2565b50614c0c614c06828490614952565b15610274565b600014614c4f57614c45614c4a92614c30614c2960008501614a21565b8290614bbf565b6001614c3e600085016143a3565b930161493a565b611bc6565b600190565b5050600090565b7fbf93ccae7e050fdad00615e220e3f9b7ebb112ac9318fb8604653a7d8091238890565b614c82614c56565b90565b60018060401b038111614c9b5760208091020190565b610222565b90614cb2614cad83614c85565b61025f565b918252565b369037565b90614ce1614cc983614ca0565b92602080614cd78693614c85565b9201910390614cb7565b565b929092614cee613b3b565b50614cf881615b21565b83614d0b614d058361029d565b9161029d565b11614d82575b50614d25614d20848690614666565b614cbc565b91845b80614d3b614d358761029d565b9161029d565b1015614d7957614d7490614d6f614d53858390615b41565b614d6a8791614d63858c90614666565b909261314a565b6130a7565b6124ee565b614d28565b50935050905090565b9092509138614d11565b60007f5072696365466565643a20696e76616c69642070726963652066656564000000910152565b614dc1601d602092611093565b614dca81614d8c565b0190565b614de49060208101906000818303910152614db4565b90565b15614dee57565b614df6610103565b62461bcd60e51b815280614e0c60048201614dce565b0390fd5b614e19906114c2565b90565b614e2590614e10565b90565b614e31906114de565b90565b60018060501b031690565b614e4881614e34565b03614e4f57565b600080fd5b90505190614e6182614e3f565b565b90602082820312614e7d57614e7a91600001614e54565b90565b61010e565b614e96614e91614e9b9261150e565b610f7e565b614e34565b90565b6001614eaa9101614e34565b90565b614eb9614ebe9161124e565b61126e565b90565b614ecb9054614ead565b90565b614ee2614edd614ee792610424565b610f7e565b614e34565b90565b614ef6614efc91614e34565b91614e34565b90039060018060501b038211614f0e57565b612560565b614f1c81610d86565b03614f2357565b600080fd5b90505190614f3582614f13565b565b90505190614f44826102a0565b565b919060a083820312614f9857614f5f8160008501614e54565b92614f6d8260208301614f28565b92614f95614f7e8460408501614f37565b93614f8c8160608601614f37565b93608001614e54565b90565b61010e565b614fa690614e34565b9052565b9190614fbe90600060208501940190614f9d565b565b60007f5072696365466565643a20696e76616c69642070726963650000000000000000910152565b614ff56018602092611093565b614ffe81614fc0565b0190565b6150189060208101906000818303910152614fe8565b90565b1561502257565b61502a610103565b62461bcd60e51b81528061504060048201615002565b0390fd5b61505861505361505d92610d86565b610f7e565b61029d565b90565b9060208282031261507a5761507791600001614f28565b90565b61010e565b60007f5072696365466565643a20636f756c64206e6f74206665746368207072696365910152565b6150b360208092611093565b6150bc8161507f565b0190565b6150d690602081019060008183039101526150a7565b90565b156150e057565b6150e8610103565b62461bcd60e51b8152806150fe600482016150c0565b0390fd5b61510b8161043a565b0361511257565b600080fd5b9050519061512482615102565b565b906020828203126151405761513d91600001615117565b90565b61010e565b61515961515461515e9261043a565b610f7e565b61029d565b90565b61516a9061029d565b604d811161517857600a0a90565b612560565b9190615187611cec565b506151ca6151a86151a3600261519b61391d565b018690610fb5565b610ff2565b6151c36151bd6151b8600061152d565b610458565b91610458565b1415614de7565b6151d460006124d2565b61521c60206152066152016151fc6151f760026151ef61391d565b018a90610fb5565b610ff2565b614e1c565b614e28565b63668a0f0290615214610103565b938492611730565b8252818061522c60048201610984565b03915afa90811561563757600091615609575b5061524a6000614e82565b5b8061527361526d6152686000600161526161391d565b0101614ec1565b614ece565b91614e34565b10156155ed578161528c61528683614e34565b91614e34565b11156154fb5761529a611cec565b50806152af6152a96000614e82565b91614e34565b1460001461541e576152ff60206152e96152e46152df6152da60026152d261391d565b018c90610fb5565b610ff2565b614e1c565b614e28565b6350d25bcd906152f7610103565b938492611730565b8252818061530f60048201610984565b03915afa801561541957615348916000916153eb575b506153438161533d61533760006124b6565b91610d86565b1361501b565b615044565b5b8361535d61535760006124d2565b9161029d565b146153df5784806153c5575b6153b9576153778515610274565b8061539f575b615392575b5061538d905b614e9e565b61524b565b61538d9193509290615382565b50806153b36153ad8661029d565b9161029d565b1061537d565b61538d91935092615388565b50806153d96153d38661029d565b9161029d565b11615369565b61538d91935092615388565b61540c915060203d8111615412575b6154048183610238565b810190615060565b38615325565b503d6153fa565b611764565b61548460a061545061544b615446615441600261543961391d565b018c90610fb5565b610ff2565b614e1c565b614e28565b639a6fc8f590615479615464878790614eea565b9261546d610103565b95869485938493611730565b835260048301614faa565b03915afa80156154f6576154c0916000809290506154c5575b506154bb816154b56154af60006124b6565b91610d86565b1361501b565b615044565b615349565b6154e6915060a03d81116154ef575b6154de8183610238565b810190614f46565b5050509061549d565b503d6154d4565b611764565b50509050602061554f61554a61554561554061556596975b6155308761552a61552460006124d2565b9161029d565b116150d9565b600261553a61391d565b01610fb5565b610ff2565b614e1c565b614e28565b63313ce5679061555d610103565b948592611730565b8252818061557560048201610984565b03915afa9182156155e8576155ab61559c6155b7946155b1936000916155ba575b50615145565b926155a56144a9565b90612e9c565b91615161565b906144f6565b90565b6155db915060203d81116155e1575b6155d38183610238565b810190615126565b38615596565b503d6155c9565b611764565b50509050602061554f61554a6155456155406155659697615513565b61562a915060203d8111615630575b6156228183610238565b810190614e63565b3861523f565b503d615618565b611764565b61566f61567a9161564b6126b2565b5061567461565882615c8d565b95925090509392600561566961391d565b01610fff565b61102e565b91615d25565b90565b91615686611cec565b506000146156b657816156a161569b8361029d565b9161029d565b116000146156af57505b5b90565b90506156ab565b816156c96156c38361029d565b9161029d565b106000146156d857505b6156ac565b90506156d3565b60f81b90565b6156ee906156df565b90565b6156fa906156e5565b90565b61570961570e91610274565b6156f1565b9052565b60f01b90565b61572190615712565b90565b61573061573591610118565b615718565b9052565b60018161574c61575493600296956156fd565b018092615724565b0190565b61578e61579392615767613a79565b5061577f615773610103565b93849260208401615739565b60208201810382520382610238565b613ab7565b90565b6157a161012061025f565b90565b600090565b600090565b6157b6615796565b90602080808080808080808a6157ca6131d0565b8152016157d56131d0565b8152016157e06157a4565b8152016157eb6157a4565b8152016157f66131d0565b8152016158016121c1565b81520161580c6121cb565b8152016158176121c6565b8152016158226157a9565b81525050565b6158306157ae565b90565b9061583d90613b40565b600052602052604060002090565b90565b61585a61585f91610fcd565b61584b565b90565b61586c905461584e565b90565b9061587990610d86565b9052565b61588961588e9161115d565b61126e565b90565b61589b905461587d565b90565b6158aa6158af91613c84565b6111b1565b90565b6158bc905461589e565b90565b60381c90565b60018060481b031690565b6158dc6158e1916158bf565b6158c5565b90565b6158ee90546158d0565b90565b60018060481b031690565b90615906906158f1565b9052565b906159e96159df600561591b615796565b9461593461592b6000830161102e565b60008801613c55565b61594c6159436001830161102e565b60208801613c55565b61596461595b60028301615862565b6040880161586f565b61597c61597360038301615862565b6060880161586f565b61599461598b6004830161102e565b60808801613c55565b6159ab6159a2838301612279565b60a08801612286565b6159c26159b9838301615891565b60c08801612331565b6159d96159d08383016158b2565b60e088016122c8565b016158e4565b61010084016158fc565b565b6159f49061590a565b90565b615a17615a1c91615a06615828565b506002615a11615da9565b01615833565b6159eb565b90565b919091615a2a6126b2565b50615a33611cec565b50615a4060808201612537565b615a52615a4c8561029d565b9161029d565b11600014615b0057615a9a615a88615a76615a6f60808501612537565b8690614666565b5b615a8360008501612537565b612e9c565b615a9460808401612537565b906144f6565b92615aa36126b2565b50615ab060a08301611d0b565b600014615adb57615acf615aca6080615ad5939401612537565b61029d565b9161029d565b115b9190565b90615af4615aee6080615afa9301612537565b9261029d565b9161029d565b11615ad7565b615a9a615a88615b1c85615b1660808601612537565b90614666565b615a77565b615b396000615b3e92615b32611cec565b500161395c565b615db4565b90565b90615b5a6000615b5f93615b53613a79565b500161395c565b615dcc565b90565b60018060a01b031690565b615b79615b7e91610fcd565b615b62565b90565b615b8b9054615b6d565b90565b90615b989061044d565b9052565b60c01c90565b615bae615bb391615b9c565b61126e565b90565b615bc09054615ba2565b90565b615bcf615bd4916100fd565b61126e565b90565b615be19054615bc3565b90565b615bee608061025f565b90565b90615c56615c4d6000615c02615be4565b94615c19615c11838301615b81565b838801615b8e565b615c30615c278383016145d6565b60208801612331565b615c47615c3e838301615bb6565b60408801612331565b01615bd7565b60608401612331565b565b615c6190615bf1565b90565b615c6e905161044d565b90565b615c85615c80615c8a9261044d565b610f7e565b61029d565b90565b615cc8615ccd91615c9c611cec565b50615ca5611cec565b50615cae611cec565b50615cb7611cec565b506006615cc261391d565b016145a4565b615c58565b615ce1615cdc60008301615c64565b615c71565b615cf5615cf060208401611fe7565b6145e3565b92615d1e615d196060615d12615d0d60408801611fe7565b6145e3565b9501611fe7565b6145e3565b9193929190565b919091615d306126b2565b5082615d44615d3e8361029d565b9161029d565b119283615d5d575b505050615d5857600190565b600090565b615d7c929350615d7691615d7091614666565b9261029d565b9161029d565b11388080615d4c565b7f92bcfabaf0a890def3092675474357e5f93a0f117ca63a3db421d44c5b55fba590565b615db1615d85565b90565b6000615dc991615dc2611cec565b50016143a3565b90565b615deb916000615de592615dde613a79565b50016149a4565b906149e5565b9056fea2646970667358221220c9c7fba5eba77ac54d74327cfafb58dee20b405329c5a33e6c29e57d730998d964736f6c63430008180033",
  "devdoc": {
    "kind": "dev",
    "methods": {},
    "version": 1
  },
  "userdoc": {
    "kind": "user",
    "methods": {},
    "version": 1
  },
  "storageLayout": {
    "storage": [],
    "types": null
  }
}