{
  "address": "0x3Cc4A26C5e065c27332B7b70Cf3bE007f5A7D0F9",
  "abi": [
    {
      "inputs": [
        {
          "internalType": "address",
          "name": "authority",
          "type": "address"
        }
      ],
      "name": "AccessManagedInvalidAuthority",
      "type": "error"
    },
    {
      "inputs": [
        {
          "internalType": "address",
          "name": "caller",
          "type": "address"
        },
        {
          "internalType": "uint32",
          "name": "delay",
          "type": "uint32"
        }
      ],
      "name": "AccessManagedRequiredDelay",
      "type": "error"
    },
    {
      "inputs": [
        {
          "internalType": "address",
          "name": "caller",
          "type": "address"
        }
      ],
      "name": "AccessManagedUnauthorized",
      "type": "error"
    },
    {
      "anonymous": false,
      "inputs": [
        {
          "indexed": false,
          "internalType": "uint16",
          "name": "market",
          "type": "uint16"
        },
        {
          "indexed": false,
          "internalType": "string",
          "name": "name",
          "type": "string"
        },
        {
          "indexed": false,
          "internalType": "address",
          "name": "vault",
          "type": "address"
        },
        {
          "indexed": false,
          "internalType": "address",
          "name": "token",
          "type": "address"
        },
        {
          "components": [
            {
              "internalType": "bool",
              "name": "isSuspended",
              "type": "bool"
            },
            {
              "internalType": "bool",
              "name": "allowOpen",
              "type": "bool"
            },
            {
              "internalType": "bool",
              "name": "allowClose",
              "type": "bool"
            },
            {
              "internalType": "bool",
              "name": "validDecrease",
              "type": "bool"
            },
            {
              "internalType": "uint16",
              "name": "minSlippage",
              "type": "uint16"
            },
            {
              "internalType": "uint16",
              "name": "maxSlippage",
              "type": "uint16"
            },
            {
              "internalType": "uint16",
              "name": "minLeverage",
              "type": "uint16"
            },
            {
              "internalType": "uint16",
              "name": "maxLeverage",
              "type": "uint16"
            },
            {
              "internalType": "uint16",
              "name": "minPayment",
              "type": "uint16"
            },
            {
              "internalType": "uint16",
              "name": "minCollateral",
              "type": "uint16"
            },
            {
              "internalType": "uint16",
              "name": "decreaseNumLimit",
              "type": "uint16"
            },
            {
              "internalType": "uint32",
              "name": "maxTradeAmount",
              "type": "uint32"
            }
          ],
          "indexed": false,
          "internalType": "struct MarketHandler.Props",
          "name": "config",
          "type": "tuple"
        }
      ],
      "name": "MarketAdded",
      "type": "event"
    },
    {
      "anonymous": false,
      "inputs": [
        {
          "indexed": false,
          "internalType": "uint16",
          "name": "market",
          "type": "uint16"
        },
        {
          "indexed": false,
          "internalType": "address",
          "name": "pricefeed",
          "type": "address"
        },
        {
          "indexed": false,
          "internalType": "uint256",
          "name": "maxCumulativeDeltaDiffs",
          "type": "uint256"
        }
      ],
      "name": "OracleAdded",
      "type": "event"
    },
    {
      "inputs": [
        {
          "internalType": "uint16",
          "name": "market",
          "type": "uint16"
        },
        {
          "internalType": "uint256",
          "name": "maxMarketSizeLimit",
          "type": "uint256"
        }
      ],
      "name": "_addGValid",
      "outputs": [],
      "stateMutability": "nonpayable",
      "type": "function"
    },
    {
      "inputs": [
        {
          "internalType": "bytes",
          "name": "data",
          "type": "bytes"
        }
      ],
      "name": "_addMarket",
      "outputs": [
        {
          "internalType": "uint16",
          "name": "market",
          "type": "uint16"
        }
      ],
      "stateMutability": "nonpayable",
      "type": "function"
    },
    {
      "inputs": [
        {
          "internalType": "uint16",
          "name": "market",
          "type": "uint16"
        },
        {
          "internalType": "bytes",
          "name": "oracle",
          "type": "bytes"
        }
      ],
      "name": "_addOracle",
      "outputs": [],
      "stateMutability": "nonpayable",
      "type": "function"
    },
    {
      "inputs": [
        {
          "internalType": "string",
          "name": "name",
          "type": "string"
        },
        {
          "internalType": "address",
          "name": "_vault",
          "type": "address"
        },
        {
          "internalType": "uint256",
          "name": "maxMarketSizeLimit",
          "type": "uint256"
        },
        {
          "components": [
            {
              "internalType": "bool",
              "name": "isSuspended",
              "type": "bool"
            },
            {
              "internalType": "bool",
              "name": "allowOpen",
              "type": "bool"
            },
            {
              "internalType": "bool",
              "name": "allowClose",
              "type": "bool"
            },
            {
              "internalType": "bool",
              "name": "validDecrease",
              "type": "bool"
            },
            {
              "internalType": "uint16",
              "name": "minSlippage",
              "type": "uint16"
            },
            {
              "internalType": "uint16",
              "name": "maxSlippage",
              "type": "uint16"
            },
            {
              "internalType": "uint16",
              "name": "minLeverage",
              "type": "uint16"
            },
            {
              "internalType": "uint16",
              "name": "maxLeverage",
              "type": "uint16"
            },
            {
              "internalType": "uint16",
              "name": "minPayment",
              "type": "uint16"
            },
            {
              "internalType": "uint16",
              "name": "minCollateral",
              "type": "uint16"
            },
            {
              "internalType": "uint16",
              "name": "decreaseNumLimit",
              "type": "uint16"
            },
            {
              "internalType": "uint32",
              "name": "maxTradeAmount",
              "type": "uint32"
            }
          ],
          "internalType": "struct MarketHandler.Props",
          "name": "config",
          "type": "tuple"
        },
        {
          "internalType": "bytes",
          "name": "oracle",
          "type": "bytes"
        },
        {
          "internalType": "bytes",
          "name": "fee",
          "type": "bytes"
        }
      ],
      "name": "addMarket",
      "outputs": [
        {
          "internalType": "uint16",
          "name": "market",
          "type": "uint16"
        }
      ],
      "stateMutability": "nonpayable",
      "type": "function"
    },
    {
      "inputs": [
        {
          "internalType": "address",
          "name": "market",
          "type": "address"
        },
        {
          "internalType": "address",
          "name": "account",
          "type": "address"
        },
        {
          "internalType": "bool",
          "name": "isLong",
          "type": "bool"
        }
      ],
      "name": "availableLiquidity",
      "outputs": [
        {
          "internalType": "uint256",
          "name": "",
          "type": "uint256"
        }
      ],
      "stateMutability": "view",
      "type": "function"
    },
    {
      "inputs": [
        {
          "internalType": "uint16",
          "name": "marketId",
          "type": "uint16"
        }
      ],
      "name": "containsMarket",
      "outputs": [
        {
          "internalType": "bool",
          "name": "",
          "type": "bool"
        }
      ],
      "stateMutability": "view",
      "type": "function"
    },
    {
      "inputs": [
        {
          "components": [
            {
              "internalType": "uint16",
              "name": "market",
              "type": "uint16"
            },
            {
              "internalType": "bool",
              "name": "isLong",
              "type": "bool"
            },
            {
              "internalType": "bool",
              "name": "isIncrease",
              "type": "bool"
            },
            {
              "internalType": "uint256",
              "name": "start",
              "type": "uint256"
            },
            {
              "internalType": "uint256",
              "name": "end",
              "type": "uint256"
            },
            {
              "internalType": "bool",
              "name": "isOpen",
              "type": "bool"
            },
            {
              "internalType": "uint256",
              "name": "oraclePrice",
              "type": "uint256"
            },
            {
              "internalType": "bytes32",
              "name": "storageKey",
              "type": "bytes32"
            }
          ],
          "internalType": "struct OrderFinderCache",
          "name": "cache",
          "type": "tuple"
        }
      ],
      "name": "getExecutableOrdersByPrice",
      "outputs": [
        {
          "components": [
            {
              "internalType": "bytes32",
              "name": "refCode",
              "type": "bytes32"
            },
            {
              "internalType": "uint128",
              "name": "collateral",
              "type": "uint128"
            },
            {
              "internalType": "uint128",
              "name": "size",
              "type": "uint128"
            },
            {
              "internalType": "uint256",
              "name": "price",
              "type": "uint256"
            },
            {
              "internalType": "uint256",
              "name": "tp",
              "type": "uint256"
            },
            {
              "internalType": "bool",
              "name": "triggerAbove",
              "type": "bool"
            },
            {
              "internalType": "bool",
              "name": "isFromMarket",
              "type": "bool"
            },
            {
              "internalType": "bool",
              "name": "isKeepLev",
              "type": "bool"
            },
            {
              "internalType": "bool",
              "name": "isKeepLevTP",
              "type": "bool"
            },
            {
              "internalType": "bool",
              "name": "isKeepLevSL",
              "type": "bool"
            },
            {
              "internalType": "uint64",
              "name": "orderID",
              "type": "uint64"
            },
            {
              "internalType": "uint64",
              "name": "pairId",
              "type": "uint64"
            },
            {
              "internalType": "uint64",
              "name": "fromId",
              "type": "uint64"
            },
            {
              "internalType": "uint32",
              "name": "updatedAtBlock",
              "type": "uint32"
            },
            {
              "internalType": "uint8",
              "name": "extra0",
              "type": "uint8"
            },
            {
              "internalType": "address",
              "name": "account",
              "type": "address"
            },
            {
              "internalType": "uint96",
              "name": "extra1",
              "type": "uint96"
            },
            {
              "internalType": "uint256",
              "name": "sl",
              "type": "uint256"
            },
            {
              "internalType": "bool",
              "name": "isIncrease",
              "type": "bool"
            },
            {
              "internalType": "bool",
              "name": "isLong",
              "type": "bool"
            },
            {
              "internalType": "uint16",
              "name": "market",
              "type": "uint16"
            },
            {
              "internalType": "uint96",
              "name": "extra2",
              "type": "uint96"
            },
            {
              "internalType": "uint128",
              "name": "gas",
              "type": "uint128"
            },
            {
              "internalType": "uint8",
              "name": "version",
              "type": "uint8"
            }
          ],
          "internalType": "struct OrderProps[]",
          "name": "_orders",
          "type": "tuple[]"
        }
      ],
      "stateMutability": "view",
      "type": "function"
    },
    {
      "inputs": [
        {
          "internalType": "address",
          "name": "_vault",
          "type": "address"
        }
      ],
      "name": "getGlobalPnl",
      "outputs": [
        {
          "internalType": "int256",
          "name": "",
          "type": "int256"
        }
      ],
      "stateMutability": "view",
      "type": "function"
    },
    {
      "inputs": [
        {
          "internalType": "uint16",
          "name": "market",
          "type": "uint16"
        }
      ],
      "name": "getMarket",
      "outputs": [
        {
          "internalType": "bytes",
          "name": "result",
          "type": "bytes"
        }
      ],
      "stateMutability": "view",
      "type": "function"
    },
    {
      "inputs": [],
      "name": "getMarkets",
      "outputs": [
        {
          "internalType": "bytes",
          "name": "result",
          "type": "bytes"
        }
      ],
      "stateMutability": "view",
      "type": "function"
    },
    {
      "inputs": [],
      "name": "getUSDDecimals",
      "outputs": [
        {
          "internalType": "uint8",
          "name": "",
          "type": "uint8"
        }
      ],
      "stateMutability": "pure",
      "type": "function"
    },
    {
      "inputs": [
        {
          "internalType": "uint16",
          "name": "market",
          "type": "uint16"
        }
      ],
      "name": "markeConfig",
      "outputs": [
        {
          "components": [
            {
              "internalType": "bool",
              "name": "isSuspended",
              "type": "bool"
            },
            {
              "internalType": "bool",
              "name": "allowOpen",
              "type": "bool"
            },
            {
              "internalType": "bool",
              "name": "allowClose",
              "type": "bool"
            },
            {
              "internalType": "bool",
              "name": "validDecrease",
              "type": "bool"
            },
            {
              "internalType": "uint16",
              "name": "minSlippage",
              "type": "uint16"
            },
            {
              "internalType": "uint16",
              "name": "maxSlippage",
              "type": "uint16"
            },
            {
              "internalType": "uint16",
              "name": "minLeverage",
              "type": "uint16"
            },
            {
              "internalType": "uint16",
              "name": "maxLeverage",
              "type": "uint16"
            },
            {
              "internalType": "uint16",
              "name": "minPayment",
              "type": "uint16"
            },
            {
              "internalType": "uint16",
              "name": "minCollateral",
              "type": "uint16"
            },
            {
              "internalType": "uint16",
              "name": "decreaseNumLimit",
              "type": "uint16"
            },
            {
              "internalType": "uint32",
              "name": "maxTradeAmount",
              "type": "uint32"
            }
          ],
          "internalType": "struct MarketHandler.Props",
          "name": "_config",
          "type": "tuple"
        }
      ],
      "stateMutability": "view",
      "type": "function"
    },
    {
      "inputs": [
        {
          "internalType": "uint16",
          "name": "marketId",
          "type": "uint16"
        }
      ],
      "name": "removeMarket",
      "outputs": [],
      "stateMutability": "nonpayable",
      "type": "function"
    },
    {
      "inputs": [
        {
          "internalType": "uint16",
          "name": "market",
          "type": "uint16"
        },
        {
          "components": [
            {
              "internalType": "bool",
              "name": "isSuspended",
              "type": "bool"
            },
            {
              "internalType": "bool",
              "name": "allowOpen",
              "type": "bool"
            },
            {
              "internalType": "bool",
              "name": "allowClose",
              "type": "bool"
            },
            {
              "internalType": "bool",
              "name": "validDecrease",
              "type": "bool"
            },
            {
              "internalType": "uint16",
              "name": "minSlippage",
              "type": "uint16"
            },
            {
              "internalType": "uint16",
              "name": "maxSlippage",
              "type": "uint16"
            },
            {
              "internalType": "uint16",
              "name": "minLeverage",
              "type": "uint16"
            },
            {
              "internalType": "uint16",
              "name": "maxLeverage",
              "type": "uint16"
            },
            {
              "internalType": "uint16",
              "name": "minPayment",
              "type": "uint16"
            },
            {
              "internalType": "uint16",
              "name": "minCollateral",
              "type": "uint16"
            },
            {
              "internalType": "uint16",
              "name": "decreaseNumLimit",
              "type": "uint16"
            },
            {
              "internalType": "uint32",
              "name": "maxTradeAmount",
              "type": "uint32"
            }
          ],
          "internalType": "struct MarketHandler.Props",
          "name": "data",
          "type": "tuple"
        }
      ],
      "name": "setMarketConf",
      "outputs": [],
      "stateMutability": "nonpayable",
      "type": "function"
    }
  ],
  "transactionHash": "0x9d7ea2728b4c70ccd20f4a3ec67a35095ad2c0a6514f5e877803de338391e8c3",
  "args": [],
  "numDeployments": 7,
  "solcInputHash": "d809974f1acba5ed94eb449ed42024a5",
  "bytecode": "0x60806040523462000023576200001462000029565b615fa6620000358239615fa690f35b6200002f565b60405190565b600080fdfe60806040526004361015610013575b610f74565b61001e6000356100fd565b8063080c5c67146100f857806313a30013146100f357806331ab264f146100ee5780634a492f02146100e95780635874b736146100e4578063735a2885146100df57806379c1122b146100da57806379eba709146100d5578063b0a3961a146100d0578063bb715a85146100cb578063cc55e9d1146100c6578063e36b20c5146100c1578063e75c252e146100bc5763ec2c90160361000e57610f3f565b610f0b565b610eaa565b610e75565b610e1d565b610db5565b610d3b565b610c0f565b610a87565b6109ea565b610843565b6107c3565b6102c2565b6101c3565b60e01c90565b60405190565b600080fd5b600080fd5b600080fd5b600080fd5b600080fd5b600080fd5b909182601f8301121561015f5781359160018060401b03831161015a57602001926001830284011161015557565b610122565b61011d565b610118565b9060208282031261019457600082013560018060401b03811161018f5761018b9201610127565b9091565b610113565b61010e565b61ffff1690565b6101a990610199565b9052565b91906101c1906000602085019401906101a0565b565b346101f4576101f06101df6101d9366004610164565b90611b5c565b6101e7610103565b918291826101ad565b0390f35b610109565b61020281610199565b0361020957565b600080fd5b9050359061021b826101f9565b565b90602082820312610237576102349160000161020e565b90565b61010e565b5190565b60209181520190565b60005b83811061025d575050906000910152565b80602091830151818501520161024c565b601f801991011690565b6102976102a06020936102a59361028e8161023c565b93848093610240565b95869101610249565b61026e565b0190565b6102bf9160208201916000818403910152610278565b90565b346102f2576102ee6102dd6102d836600461021d565b612299565b6102e5610103565b918291826102a9565b0390f35b610109565b600080fd5b634e487b7160e01b600052604160045260246000fd5b9061031c9061026e565b810190811060018060401b0382111761033457604052565b6102fc565b9061034c610345610103565b9283610312565b565b151590565b61035c8161034e565b0361036357565b600080fd5b9050359061037582610353565b565b90565b61038381610377565b0361038a57565b600080fd5b9050359061039c8261037a565b565b90565b6103aa8161039e565b036103b157565b600080fd5b905035906103c3826103a1565b565b91906101008382031261046f57610468906103e1610100610339565b936103ef826000830161020e565b60008601526104018260208301610368565b60208601526104138260408301610368565b6040860152610425826060830161038f565b6060860152610437826080830161038f565b60808601526104498260a08301610368565b60a086015261045b8260c0830161038f565b60c086015260e0016103b6565b60e0830152565b6102f7565b906101008282031261048f5761048c916000016103c5565b90565b61010e565b5190565b60209181520190565b60200190565b6104b09061039e565b9052565b60018060801b031690565b6104c8906104b4565b9052565b6104d590610377565b9052565b6104e29061034e565b9052565b60018060401b031690565b6104fa906104e6565b9052565b63ffffffff1690565b610510906104fe565b9052565b60ff1690565b61052390610514565b9052565b60018060a01b031690565b61053b90610527565b90565b61054790610532565b9052565b60018060601b031690565b61055f9061054b565b9052565b61056c90610199565b9052565b906102e08061073f9361058b600082015160008601906104a7565b61059d602082015160208601906104bf565b6105af604082015160408601906104bf565b6105c1606082015160608601906104cc565b6105d3608082015160808601906104cc565b6105e560a082015160a08601906104d9565b6105f760c082015160c08601906104d9565b61060960e082015160e08601906104d9565b61061d6101008201516101008601906104d9565b6106316101208201516101208601906104d9565b6106456101408201516101408601906104f1565b6106596101608201516101608601906104f1565b61066d6101808201516101808601906104f1565b6106816101a08201516101a0860190610507565b6106956101c08201516101c086019061051a565b6106a96101e08201516101e086019061053e565b6106bd610200820151610200860190610556565b6106d16102208201516102208601906104cc565b6106e56102408201516102408601906104d9565b6106f96102608201516102608601906104d9565b61070d610280820151610280860190610563565b6107216102a08201516102a0860190610556565b6107356102c08201516102c08601906104bf565b015191019061051a565b565b9061074f8161030093610570565b0190565b60200190565b9061077661077061076984610494565b8093610498565b926104a1565b9060005b8181106107875750505090565b9091926107a061079a6001928651610741565b94610753565b910191909161077a565b6107c09160208201916000818403910152610759565b90565b346107f3576107ef6107de6107d9366004610474565b61233c565b6107e6610103565b918291826107aa565b0390f35b610109565b91909160408184031261083857610812836000830161020e565b92602082013560018060401b0381116108335761082f9201610127565b9091565b610113565b61010e565b60000190565b346108725761085c6108563660046107f8565b916123b6565b610864610103565b8061086e8161083d565b0390f35b610109565b600080fd5b60018060401b0381116108985761089460209161026e565b0190565b6102fc565b90826000939282370152565b909291926108be6108b98261087c565b610339565b938185526020850190828401116108da576108d89261089d565b565b610877565b9080601f830112156108fd578160206108fa933591016108a9565b90565b610118565b61090b81610532565b0361091257565b600080fd5b9050359061092482610902565b565b600080fd5b908161018091031261093a5790565b610926565b610220818303126109e557600081013560018060401b0381116109e057826109689183016108df565b926109768360208401610917565b92610984816040850161038f565b92610992826060830161092b565b926101e082013560018060401b0381116109db57836109b2918401610127565b92909361020082013560018060401b0381116109d6576109d29201610127565b9091565b610113565b610113565b610113565b61010e565b34610a2457610a20610a0f610a0036600461093f565b96959095949194939293612993565b610a17610103565b918291826101ad565b0390f35b610109565b9091606082840312610a5f57610a5c610a458460008501610917565b93610a538160208601610917565b93604001610368565b90565b61010e565b610a6d90610377565b9052565b9190610a8590600060208501940190610a64565b565b34610ab857610ab4610aa3610a9d366004610a29565b916129ae565b610aab610103565b91829182610a71565b0390f35b610109565b610ac6816104fe565b03610acd57565b600080fd5b90503590610adf82610abd565b565b919061018083820312610bdb57610bd390610afd610180610339565b93610b0b8260008301610368565b6000860152610b1d8260208301610368565b6020860152610b2f8260408301610368565b6040860152610b418260608301610368565b6060860152610b53826080830161020e565b6080860152610b658260a0830161020e565b60a0860152610b778260c0830161020e565b60c0860152610b898260e0830161020e565b60e0860152610b9c82610100830161020e565b610100860152610bb082610120830161020e565b610120860152610bc482610140830161020e565b61014086015261016001610ad2565b610160830152565b6102f7565b91906101a083820312610c0a5780610bfe610c07926000860161020e565b93602001610ae1565b90565b61010e565b34610c3e57610c28610c22366004610be0565b906129e7565b610c30610103565b80610c3a8161083d565b0390f35b610109565b9061016080610d2293610c5e600082015160008601906104d9565b610c70602082015160208601906104d9565b610c82604082015160408601906104d9565b610c94606082015160608601906104d9565b610ca660808201516080860190610563565b610cb860a082015160a0860190610563565b610cca60c082015160c0860190610563565b610cdc60e082015160e0860190610563565b610cf0610100820151610100860190610563565b610d04610120820151610120860190610563565b610d18610140820151610140860190610563565b0151910190610507565b565b9190610d399060006101808501940190610c43565b565b34610d6b57610d67610d56610d5136600461021d565b612c84565b610d5e610103565b91829182610d24565b0390f35b610109565b90602082820312610d8a57610d8791600001610917565b90565b61010e565b90565b610d9b90610d8f565b9052565b9190610db390600060208501940190610d92565b565b34610de557610de1610dd0610dcb366004610d70565b612d91565b610dd8610103565b91829182610d9f565b0390f35b610109565b6000910312610df557565b61010e565b610e0390610514565b9052565b9190610e1b90600060208501940190610dfa565b565b34610e4d57610e2d366004610dea565b610e49610e38612e83565b610e40610103565b91829182610e07565b0390f35b610109565b610e5b9061034e565b9052565b9190610e7390600060208501940190610e52565b565b34610ea557610ea1610e90610e8b36600461021d565b612e9c565b610e98610103565b91829182610e5f565b0390f35b610109565b34610ed857610ec2610ebd36600461021d565b612fc8565b610eca610103565b80610ed48161083d565b0390f35b610109565b9190604083820312610f065780610efa610f03926000860161020e565b9360200161038f565b90565b61010e565b34610f3a57610f24610f1e366004610edd565b90612feb565b610f2c610103565b80610f368161083d565b0390f35b610109565b34610f6f57610f4f366004610dea565b610f6b610f5a6130f5565b610f62610103565b918291826102a9565b0390f35b610109565b600080fd5b600090565b90565b610f95610f90610f9a92610527565b610f7e565b610527565b90565b610fa690610f81565b90565b610fb290610f9d565b90565b60001c90565b61ffff1690565b610fce610fd391610fb5565b610fbb565b90565b610fe09054610fc2565b90565b90565b610ffa610ff5610fff92610fe3565b610f7e565b610199565b90565b634e487b7160e01b600052601160045260246000fd5b61102461102a91610199565b91610199565b019061ffff821161103757565b611002565b61104590610527565b90565b6110518161103c565b0361105857565b600080fd5b9050359061106a82611048565b565b6101e0818303126110c557600081013560018060401b0381116110c057826110959183016108df565b926110bd6110a6846020850161105d565b936110b4816040860161105d565b93606001610ae1565b90565b610113565b61010e565b6110d390610f9d565b90565b6110ea6110e56110ef92610199565b610f7e565b610199565b90565b906110fc906110d6565b600052602052604060002090565b5190565b634e487b7160e01b600052602260045260246000fd5b9060016002830492168015611144575b602083101461113f57565b61110e565b91607f1691611134565b600052602060002090565b601f602091010490565b1b90565b9190600861118391029161117d60001984611163565b92611163565b9181191691161790565b6111a161119c6111a692610377565b610f7e565b610377565b90565b90565b91906111c26111bd6111ca9361118d565b6111a9565b908354611167565b9055565b600090565b6111e5916111df6111ce565b916111ac565b565b5b8181106111f3575050565b8061120160006001936111d3565b016111e8565b9190601f8111611217575b505050565b6112236112489361114e565b90602061122f84611159565b83019310611250575b61124190611159565b01906111e7565b388080611212565b915061124181929050611238565b1c90565b90611273906000199060080261125e565b191690565b8161128291611262565b906002021790565b906112948161110a565b9060018060401b038211611354576112b6826112b08554611124565b85611207565b602090601f83116001146112eb579180916112da936000926112df575b5050611278565b90555b565b909150015138806112d3565b601f198316916112fa8561114e565b9260005b81811061133c57509160029391856001969410611322575b505050020190556112dd565b611332910151601f841690611262565b9055388080611316565b919360206001819287870151815501950192016112fe565b6102fc565b906113639161128a565b565b90565b61137c61137761138192611365565b610f7e565b610527565b90565b61138d90611368565b90565b9061139a906110d6565b600052602052604060002090565b60001b90565b906113bf60018060a01b03916113a8565b9181191691161790565b6113d290610f9d565b90565b90565b906113ed6113e86113f4926113c9565b6113d5565b82546113ae565b9055565b61140190610f81565b90565b61140d906113f8565b90565b61141990610f9d565b90565b600080fd5b60e01b90565b9050519061143482610902565b565b906020828203126114505761144d91600001611427565b90565b61010e565b61145d610103565b3d6000823e3d90fd5b90611470906113c9565b600052602052604060002090565b90565b61149561149061149a92610199565b610f7e565b610377565b90565b60209181520190565b60207f7473000000000000000000000000000000000000000000000000000000000000917f4d61726b657446616365743a206d61726b657420616c7265616479206578697360008201520152565b611501602260409261149d565b61150a816114a6565b0190565b61152490602081019060008183039101526114f4565b90565b1561152e57565b611536610103565b62461bcd60e51b81528061154c6004820161150e565b0390fd5b61155b610180610339565b90565b906115689061034e565b9052565b61158061157b61158592611365565b610f7e565b610199565b90565b9061159290610199565b9052565b90565b6115ad6115a86115b292611596565b610f7e565b610199565b90565b90565b6115cc6115c76115d1926115b5565b610f7e565b610199565b90565b6115e86115e36115ed92611365565b610f7e565b6104fe565b90565b906115fa906104fe565b9052565b90611608906110d6565b600052602052604060002090565b611620905161034e565b90565b9061162f60ff916113a8565b9181191691161790565b6116429061034e565b90565b90565b9061165d61165861166492611639565b611645565b8254611623565b9055565b60081b90565b9061167b61ff0091611668565b9181191691161790565b9061169a6116956116a192611639565b611645565b825461166e565b9055565b60101b90565b906116b962ff0000916116a5565b9181191691161790565b906116d86116d36116df92611639565b611645565b82546116ab565b9055565b60181b90565b906116f863ff000000916116e3565b9181191691161790565b9061171761171261171e92611639565b611645565b82546116e9565b9055565b61172c9051610199565b90565b60201b90565b9061174561ffff60201b9161172f565b9181191691161790565b90565b9061176761176261176e926110d6565b61174f565b8254611735565b9055565b60301b90565b9061178861ffff60301b91611772565b9181191691161790565b906117a76117a26117ae926110d6565b61174f565b8254611778565b9055565b60401b90565b906117c861ffff60401b916117b2565b9181191691161790565b906117e76117e26117ee926110d6565b61174f565b82546117b8565b9055565b60501b90565b9061180861ffff60501b916117f2565b9181191691161790565b9061182761182261182e926110d6565b61174f565b82546117f8565b9055565b60601b90565b9061184861ffff60601b91611832565b9181191691161790565b9061186761186261186e926110d6565b61174f565b8254611838565b9055565b60701b90565b9061188861ffff60701b91611872565b9181191691161790565b906118a76118a26118ae926110d6565b61174f565b8254611878565b9055565b60801b90565b906118c861ffff60801b916118b2565b9181191691161790565b906118e76118e26118ee926110d6565b61174f565b82546118b8565b9055565b6118fc90516104fe565b90565b60901b90565b9061191763ffffffff60901b916118ff565b9181191691161790565b61193561193061193a926104fe565b610f7e565b6104fe565b90565b90565b9061195561195061195c92611921565b61193d565b8254611905565b9055565b90611a7f6101606000611a859461198482820161197e848801611616565b90611648565b61199c82820161199660208801611616565b90611685565b6119b48282016119ae60408801611616565b906116c3565b6119cc8282016119c660608801611616565b90611702565b6119e48282016119de60808801611722565b90611752565b6119fc8282016119f660a08801611722565b90611792565b611a14828201611a0e60c08801611722565b906117d2565b611a2c828201611a2660e08801611722565b90611812565b611a45828201611a3f6101008801611722565b90611852565b611a5e828201611a586101208801611722565b90611892565b611a77828201611a716101408801611722565b906118d2565b0192016118f2565b90611940565b565b90611a9191611960565b565b90611aa061ffff916113a8565b9181191691161790565b90611abf611aba611ac6926110d6565b61174f565b8254611a93565b9055565b611ae9611af2602093611af793611ae08161110a565b9384809361149d565b95869101610249565b61026e565b0190565b611b0490610532565b9052565b90611b5a94611b49611b3e611b53936080969a99979a611b3161020088019260008901906101a0565b8682036020880152611aca565b986040850190611afb565b6060830190611afb565b0190610c43565b565b9190611bd3611bc2611bcd92611b70610f79565b50611b7a30610fa9565b611b8c611b8633610532565b91610532565b03611ee4575b611bb8611ba86006611ba2613511565b01610fd6565b611bb26001610fe6565b90611018565b959081019061106c565b9391949092946110ca565b916110ca565b9192611bf381611bee6001611be6613511565b0189906110f2565b611359565b82611c0f611c09611c046000611384565b610532565b91610532565b14600014611ec157611c436020611c2d611c2885611404565b611410565b6338d52e0f90611c3b610103565b938492611421565b82528180611c536004820161083d565b03915afa8015611ebc57611c8491600091611e8e575b50611c7f6003611c77613511565b018990611390565b6113d8565b5b611c8d613511565b60050182611c9a91611466565b611ca39061147e565b86611cad90611481565b611cb69161353b565b611cbf90611527565b81611cc8613511565b60020187611cd591611390565b90611cdf916113d8565b60006001806001600060646001606491600093600095600a97600099611d03611550565b9b60008d0190611d129161155e565b60208c0190611d209161155e565b60408b0190611d2e9161155e565b60608a0190611d3c9161155e565b611d459061156c565b6080890190611d5391611588565b611d5c90611599565b60a0880190611d6a91611588565b611d7390610fe6565b60c0870190611d8191611588565b611d8a90611599565b60e0860190611d9891611588565b611da19061156c565b610100850190611db091611588565b611db99061156c565b610120840190611dc891611588565b611dd1906115b8565b610140830190611de091611588565b611de9906115d4565b610160820190611df8916115f0565b611e00613511565b60000187611e0d916115fe565b90611e1791611a87565b83611e20613511565b60000187611e2d916115fe565b90611e3791611a87565b85611e40613511565b60060190611e4d91611aaa565b85909192937f09889d650492190b1f8223699629e1608c1b0732c9b808fc509260af2f6e087194611e7c610103565b948594611e899486611b08565b0390a1565b611eaf915060203d8111611eb5575b611ea78183610312565b810190611436565b38611c69565b503d611e9d565b611455565b611edf83611eda6003611ed2613511565b018990611390565b6113d8565b611c85565b611ef13360003691613386565b611b92565b606090565b60018060a01b031690565b611f12611f1791610fb5565b611efb565b90565b611f249054611f06565b90565b90611f31906110d6565b600052602052604060002090565b90565b611f4e611f5391610fb5565b611f3f565b90565b611f609054611f42565b90565b9060009291805490611f7e611f7783611124565b809461149d565b91600181169081600014611fd75750600114611f9a575b505050565b611fa7919293945061114e565b916000925b818410611fbf5750500190388080611f95565b60018160209295939554848601520191019290611fac565b92949550505060ff1916825215156020020190388080611f95565b60ff1690565b61200461200991610fb5565b611ff2565b90565b60081c90565b61201e6120239161200c565b611ff2565b90565b60101c90565b61203861203d91612026565b611ff2565b90565b60181c90565b61205261205791612040565b611ff2565b90565b60201c90565b61206c6120719161205a565b610fbb565b90565b60301c90565b61208661208b91612074565b610fbb565b90565b60401c90565b6120a06120a59161208e565b610fbb565b90565b60501c90565b6120ba6120bf916120a8565b610fbb565b90565b60601c90565b6120d46120d9916120c2565b610fbb565b90565b60701c90565b6120ee6120f3916120dc565b610fbb565b90565b60801c90565b61210861210d916120f6565b610fbb565b90565b60901c90565b63ffffffff1690565b61212b61213091612110565b612116565b90565b9061016061223c600061224494015461215861214e82611ff8565b60008601906104d9565b61216e61216482612012565b60208601906104d9565b61218461217a8261202c565b60408601906104d9565b61219a61219082612046565b60608601906104d9565b6121b06121a682612060565b6080860190610563565b6121c66121bc8261207a565b60a0860190610563565b6121dc6121d282612094565b60c0860190610563565b6121f26121e8826120ae565b60e0860190610563565b6122096121fe826120c8565b610100860190610563565b612220612215826120e2565b610120860190610563565b61223761222c826120fc565b610140860190610563565b61211f565b910190610507565b565b906122979461228660809498979561227c6122716122909561020088019088820360008a0152611f63565b9a6020870190611afb565b6040850190611afb565b6060830190610a64565b0190612133565b565b6122a1611ef6565b506123346122ad613511565b916123256122bf6001850183906110f2565b916122d66122d1600287018390611390565b611f1a565b946123106122f06122eb600384018590611390565b611f1a565b926000612309612304600486018490611f27565b611f56565b93016115fe565b91612319610103565b96879560208701612246565b60208201810382520382610312565b90565b606090565b61234e90612348612337565b50613860565b90565b919060408382031261237a578061236e612377926000860161105d565b9360200161038f565b90565b61010e565b9061238c600019916113a8565b9181191691161790565b906123ab6123a66123b29261118d565b6111a9565b825461237f565b9055565b61241d9060056124036124166123fc612422976123d230610fa9565b6123e46123de33610532565b91610532565b03612424575b6123f2613b0b565b9790810190612351565b92906110ca565b612411600288018690611390565b6113d8565b9301611f27565b612396565b565b6124313360003691613386565b6123ea565b9061244798979695949392916126f1565b90565b61245390610f81565b90565b61245f9061244a565b90565b50612471906020810190610368565b90565b5061248390602081019061020e565b90565b50612495906020810190610ad2565b90565b906101606125d06125d8936124bd6124b36000830183612462565b60008601906104d9565b6124d76124cd6020830183612462565b60208601906104d9565b6124f16124e76040830183612462565b60408601906104d9565b61250b6125016060830183612462565b60608601906104d9565b61252561251b6080830183612474565b6080860190610563565b61253f61253560a0830183612474565b60a0860190610563565b61255961254f60c0830183612474565b60c0860190610563565b61257361256960e0830183612474565b60e0860190610563565b61258f612584610100830183612474565b610100860190610563565b6125ab6125a0610120830183612474565b610120860190610563565b6125c76125bc610140830183612474565b610140860190610563565b82810190612486565b910190610507565b565b61261661261d9461260c612601606095999896996101e08601908682036000880152611aca565b986020850190611afb565b6040830190611afb565b0190612498565b565b9050519061262c826101f9565b565b90602082820312612648576126459160000161261f565b90565b61010e565b600091031261265857565b61010e565b9190612677816126708161267c95610240565b809561089d565b61026e565b0190565b916126a6939192612699604082019460008301906101a0565b602081850391015261265d565b90565b9160206126cb9294936126c4604082019660008301906101a0565b0190610a64565b565b6126d690610f81565b90565b6126e2906126cd565b90565b6126ee90610f9d565b90565b9161276c600061277795979b9a999896936020955061275861272261271d61271830610fa9565b612456565b610fa9565b9461274a63080c5c6793919761273786611384565b61273f610103565b998a948c86016125da565b888201810382520386610312565b612760610103565b96879586948593611421565b8352600483016102a9565b03925af190811561298e57600091612960575b50956127a56127a061279b30610fa9565b612456565b610fa9565b90634a492f029188919392813b1561295b5760006127d6916127e182966127ca610103565b98899788968795611421565b855260048501612680565b03925af1801561295657612929575b5061280a61280561280030610fa9565b612456565b610fa9565b9063e75c252e90869092803b15612924576128396000809461284461282d610103565b97889687958694611421565b8452600484016126a9565b03925af1801561291f576128f2575b5061286d61286861286330610fa9565b6126d9565b6126e5565b9063524430fe9185919392813b156128ed57600061289e916128a98296612892610103565b98899788968795611421565b855260048501612680565b03925af180156128e8576128bb575b50565b6128db9060003d81116128e1575b6128d38183610312565b81019061264d565b386128b8565b503d6128c9565b611455565b61141c565b6129129060003d8111612918575b61290a8183610312565b81019061264d565b38612853565b503d612900565b611455565b61141c565b6129499060003d811161294f575b6129418183610312565b81019061264d565b386127f0565b503d612937565b611455565b61141c565b612981915060203d8111612987575b6129798183610312565b81019061262e565b3861278a565b503d61296f565b611455565b906129ab979695949392916129a6610f79565b612436565b90565b5050506129b96111ce565b90565b906129c6916129c8565b565b6129e06129e5929160006129da613511565b016115fe565b611a87565b565b906129f1916129bc565b565b6129fe610180610339565b90565b600090565b600090565b600090565b612a186129f3565b90602080808080808080808080808d612a2f612a01565b815201612a3a612a01565b815201612a45612a01565b815201612a50612a01565b815201612a5b612a06565b815201612a66612a06565b815201612a71612a06565b815201612a7c612a06565b815201612a87612a06565b815201612a92612a06565b815201612a9d612a06565b815201612aa8612a0b565b81525050565b612ab6612a10565b90565b612ac39054611ff8565b90565b612ad09054612012565b90565b612add905461202c565b90565b612aea9054612046565b90565b612af79054612060565b90565b612b04905461207a565b90565b612b119054612094565b90565b612b1e90546120ae565b90565b612b2b90546120c8565b90565b612b3890546120e2565b90565b612b4590546120fc565b90565b612b52905461211f565b90565b90612c76612c6c6000612b666129f3565b94612b7d612b75838301612ab9565b83880161155e565b612b94612b8b838301612ac6565b6020880161155e565b612bab612ba2838301612ad3565b6040880161155e565b612bc2612bb9838301612ae0565b6060880161155e565b612bd9612bd0838301612aed565b60808801611588565b612bf0612be7838301612afa565b60a08801611588565b612c07612bfe838301612b07565b60c08801611588565b612c1e612c15838301612b14565b60e08801611588565b612c36612c2c838301612b21565b6101008801611588565b612c4e612c44838301612b2e565b6101208801611588565b612c66612c5c838301612b3b565b6101408801611588565b01612b48565b61016084016115f0565b565b612c8190612b55565b90565b612ca4612ca991612c93612aae565b506000612c9e613511565b016115fe565b612c78565b90565b600090565b612cc5612cc0612cca92611365565b610f7e565b610d8f565b90565b612ce1612cdc612ce692611365565b610f7e565b610377565b90565b6001612cf59101610377565b90565b5190565b634e487b7160e01b600052603260045260246000fd5b90612d1c82612cf8565b811015612d2d576020809102010190565b612cfc565b612d3c9051610377565b90565b612d53612d4e612d5892610377565b610f7e565b610199565b90565b612d6a612d7091939293610d8f565b92610d8f565b80830192600082851215818312169285129112151617612d8c57565b611002565b612db9612db4612dbe92612da3612cac565b506005612dae613511565b01611466565b61147e565b613b1b565b612dc86000612cb1565b90612dd36000612ccd565b915b82612df0612dea612de585612cf8565b610377565b91610377565b1015612e4c57612e40612e4691612e3a612e1b612e16612e11878990612d12565b612d32565b612d3f565b80612e34612e2b82600190613b44565b91600090613b44565b91613b66565b90612d5b565b92612ce9565b91612dd5565b91505090565b600090565b90565b612e6e612e69612e7392612e57565b610f7e565b610514565b90565b612e806012612e5a565b90565b612e8b612e52565b50612e94612e76565b90565b600090565b612eea90612ea8612e97565b50612ee4612ede612ed9612eba613511565b6005612ed2612ecd600284018890611390565b611f1a565b9101611466565b61147e565b91611481565b90613b98565b90565b612ef690612f5d565b565b91906008612f18910291612f1260018060a01b0384611163565b92611163565b9181191691161790565b9190612f38612f33612f40936113c9565b6113d5565b908354612ef8565b9055565b600090565b612f5b91612f55612f44565b91612f22565b565b6000612fc1612fc692612fb0612fa1612f9c612f8c612f876002612f7f613511565b018690611390565b611f1a565b6005612f96613511565b01611466565b61147e565b612faa83611481565b90613bc3565b506002612fbb613511565b01611390565b612f49565b565b612fd190612eed565b565b90612fdd90611481565b600052602052604060002090565b9061302461302992612ffc30610fa9565b61300e61300833610532565b91610532565b0361302b575b600361301e613c12565b01612fd3565b612396565b565b6130383360003691613386565b613014565b90565b61305461304f6130599261303d565b610f7e565b610377565b90565b61306b61307191939293610377565b92610377565b9161307d838202610377565b92818404149015171561308c57565b611002565b60018060401b0381116130ad576130a960209161026e565b0190565b6102fc565b906130c46130bf83613091565b610339565b918252565b369037565b906130f36130db836130b2565b926020806130e98693613091565b92019103906130c9565b565b6130fd611ef6565b50613106613511565b9061312561312061311b600585013390611466565b61147e565b613b1b565b9161314a61314561313585612cf8565b61313f6020613040565b9061305c565b6130ce565b906131556000612ccd565b5b8061317161316b61316688612cf8565b610377565b91610377565b10156132305761322b9061319661319161318c888490612d12565b612d32565b612d3f565b61321f6131a76001860183906110f2565b6132106131c06131bb600289018690611390565b611f1a565b936131d76131d260038a018390611390565b611f1a565b906131fb6131f16131ec60048c018490611f27565b611f56565b9160008b016115fe565b91613204610103565b96879560208701612246565b60208201810382520382610312565b60208202850152612ce9565b613156565b505090915090565b61324190610f9d565b90565b90565b61325b61325661326092613244565b610f7e565b610377565b90565b600080fd5b600080fd5b9093929384831161328d578411613288576001820201920390565b613268565b613263565b5090565b63ffffffff60e01b1690565b906132b06132b79183613292565b9135613296565b90600481106132c5575b5090565b6132dd9063ffffffff60e01b90600403600802611163565b16386132c1565b91906132f890600060208501940190611afb565b565b60a01b90565b9061330f60ff60a01b916132fa565b9181191691161790565b9061332e61332961333592611639565b611645565b8254613300565b9055565b61334290610f81565b90565b61334e90613339565b90565b61335a90610f9d565b90565b9161338393919261337660408201946000830190611afb565b602081850391015261265d565b90565b61338e613c68565b916133e16133d961339d613c73565b846133a730613238565b906133d36133cd878b6000906133c76133c1600493612ccd565b92613247565b9261326d565b906132a2565b92613d8c565b91901561034e565b6133ed575b5050505050565b6134006133fa60006115d4565b916104fe565b116000146134c857613416600160008501613319565b61342e613429613424613c73565b613345565b613351565b6394c7d7ee92919492813b156134c357600061345d916134688296613451610103565b998a9788968795611421565b85526004850161335d565b03925af19182156134be5761348792613491575b506000809101613319565b38808080806133e6565b6134b19060003d81116134b7575b6134a98183610312565b81019061264d565b3861347c565b503d61349f565b611455565b61141c565b6134e9826134d4610103565b91829162d1953b60e31b8352600483016132e4565b0390fd5b7f2eec39e2b6bcfb5f1ee2be0b6e9d5a470a45585b1e2f7f291af9fb9f551763d090565b6135196134ed565b90565b61353061352b61353592610377565b6113a8565b61039e565b90565b90565b9061355e613558600061356394613550612e97565b50019261351c565b91613538565b613f52565b90565b906135709061039e565b9052565b60007f6f7261636c655072696365207a65726f00000000000000000000000000000000910152565b6135a9601060209261149d565b6135b281613574565b0190565b6135cc906020810190600081830391015261359c565b90565b156135d657565b6135de610103565b62461bcd60e51b8152806135f4600482016135b6565b0390fd5b613602905161039e565b90565b5190565b9061361382613605565b811015613624576020809102010190565b612cfc565b61363d61363861364292611365565b6113a8565b61039e565b90565b60018060401b03811161365b5760208091020190565b6102fc565b9061367261366d83613645565b610339565b918252565b613682610300610339565b90565b600090565b600090565b600090565b600090565b600090565b600090565b600090565b6136b0613677565b90816136ba613685565b81526020016136c761368a565b81526020016136d461368a565b81526020016136e161368f565b81526020016136ee61368f565b81526020016136fb612a01565b8152602001613708612a01565b8152602001613715612a01565b8152602001613722612a01565b815260200161372f612a01565b815260200161373c613694565b8152602001613749613694565b8152602001613756613694565b8152602001613763612a0b565b8152602001613770613699565b815260200161377d61369e565b815260200161378a6136a3565b815260200161379761368f565b81526020016137a4612a01565b81526020016137b1612a01565b81526020016137be612a06565b81526020016137cb6136a3565b81526020016137d861368a565b81526020016137e5613699565b815250565b6137f26136a8565b90565b60005b82811061380457505050565b60209061380f6137ea565b81840152016137f8565b9061383e61382683613660565b926020806138348693613645565b92019103906137f5565b565b9061384a82610494565b81101561385b576020809102010190565b612cfc565b90613869612337565b506138a361389a61387c60008501611722565b61388860208601611616565b61389460408701611616565b9161408c565b60e08401613566565b6138cb6138b260c08401612d32565b6138c56138bf6000612ccd565b91610377565b116135cf565b6138f86138da60e084016135f8565b6138e660608501612d32565b6138f260808601612d32565b916140ee565b916139016111ce565b9061390b84613605565b6139136111ce565b5b8061392761392184610377565b91610377565b10156139de5761394061393b878390613609565b6135f8565b61395661394f60e086016135f8565b8290614622565b9061396d8261396760c08801612d32565b90614653565b90816139b9575b509081156139a6575b50613991575b61398c90612ce9565b613914565b9261399e61398c91612ce9565b939050613983565b6139b3915060c001611616565b3861397d565b90506139d66139d06139cb6000613629565b61039e565b9161039e565b141538613974565b509290916139eb90613819565b916139f46111ce565b916139fd6111ce565b5b80613a11613a0b88610377565b91610377565b1015613ade57613a2a613a25888390613609565b6135f8565b613a40613a3960e086016135f8565b8290614622565b90613a5782613a5160c08801612d32565b90614653565b9081613ab9575b508015613aa7575b613a7a575b50613a7590612ce9565b6139fe565b613a759194613a99613aa092888391613a938383613840565b52613840565b5150612ce9565b9390613a6b565b50613ab460c08201611616565b613a66565b9050613ad6613ad0613acb6000613629565b61039e565b9161039e565b141538613a5e565b50935050509150565b7f215c1de8a6459dcf0789cdceef063745b34797042fd1550737c0f263affdef6490565b613b13613ae7565b90565b606090565b613b336000613b3892613b2c613b16565b5001613538565b614781565b613b40613b16565b5090565b613b6391613b506111ce565b50613b5c828290614827565b90916149c7565b90565b90613b9592613b85613b8f92613b7a612cac565b508490600191614bc5565b9290600091614bc5565b90612d5b565b90565b90613bbb613bb56000613bc094613bad612e97565b50019261351c565b91613538565b614c49565b90565b90613be6613be06000613beb94613bd8612e97565b50019261351c565b91613538565b614d43565b90565b7f4d502ef5fdff70d438af9761f5d88171826a8d62a1895d92f16b3f9b850427db90565b613c1a613bee565b90565b90565b613c34613c2f613c3992613c1d565b6113a8565b61039e565b90565b613c657ff3177357ab46d8af007ab3fdb9af81da189e1068fefdc0073dca88a2cab40a00613c20565b90565b613c70613c3c565b90565b613c7b612f44565b50613c8f6000613c89613c68565b01611f1a565b90565b600090565b613ca090613296565b9052565b604090613cce613cd59496959396613cc460608401986000850190611afb565b6020830190611afb565b0190613c97565b565b3d600014613cf457613ce83d6130b2565b903d6000602084013e5b565b613cfc611ef6565b90613cf2565b90565b613d19613d14613d1e92613d02565b610f7e565b610377565b90565b90505190613d2e82610353565b565b90602082820312613d4a57613d4791600001613d21565b90565b61010e565b90505190613d5c82610abd565b565b9190604083820312613d875780613d7b613d849260008601613d21565b93602001613d4f565b90565b61010e565b93926000918291613dde613d9e612e97565b95613dcf613daa613c92565b99949193613db6610103565b94859360046020860163b700961360e01b815201613ca4565b60208201810382520382610312565b602081019051915afa613def613cd7565b90613dfa575b509190565b90613e048261023c565b613e17613e116040613d05565b91610377565b1015600014613e465750613e3d9192506020613e328261023c565b818301019101613d5e565b91905b38613df5565b90613e508161023c565b613e63613e5d6020613040565b91610377565b1015613e70575b50613e40565b613e8b91506020613e808261023c565b818301019101613d30565b38613e6a565b90565b600052602060002090565b5490565b613eac81613e9f565b821015613ec757613ebe600191613e94565b91020190600090565b612cfc565b613ed59061039e565b90565b613ee190610fb5565b90565b9190613efa613ef5613f0293613ecc565b613ed8565b908354611167565b9055565b90815491600160401b831015613f315782613f29916001613f2f95018155613ea3565b90613ee4565b565b6102fc565b5490565b90613f4490613ecc565b600052602052604060002090565b613f5a612e97565b50613f6f613f69828490614c49565b1561034e565b600014613fb257613fa8613fad92613f93613f8c60008501613e91565b8290613f06565b6001613fa160008501613f36565b9301613f3a565b612396565b600190565b5050600090565b600090565b60f81b90565b613fcd90613fbe565b90565b613fd990613fc4565b90565b613fe8613fed9161034e565b613fd0565b9052565b60f01b90565b61400090613ff1565b90565b61400f61401491610199565b613ff7565b9052565b60029392614038600183614030829561404097613fdc565b018092613fdc565b018092614003565b0190565b60200190565b61406461405f6140598361023c565b92614044565b6135f8565b9060208110614072575b5090565b6140859060001990602003600802611163565b163861406e565b906140cb926140b76140c6926140a0613fb9565b5091936140ab610103565b94859360208501614018565b60208201810382520382610312565b61404a565b90565b606090565b906140dd90613ecc565b600052602052604060002090565b90565b9161411761411261411f946141016140ce565b50600461410c614e71565b016140d3565b6140eb565b919091614eda565b90565b61412a6136a8565b90565b9061413790613ecc565b600052602052604060002090565b9061414f90613ecc565b600052602052604060002090565b90565b61416c61417191610fb5565b61415d565b90565b61417e9054614160565b90565b60018060801b031690565b61419861419d91610fb5565b614181565b90565b6141aa905461418c565b90565b906141b7906104b4565b9052565b6141c76141cc916120f6565b614181565b90565b6141d990546141bb565b90565b906141e690610377565b9052565b6141f66141fb9161205a565b611ff2565b90565b61420890546141ea565b90565b60281c90565b60018060401b031690565b61422861422d9161420b565b614211565b90565b61423a905461421c565b90565b90614247906104e6565b9052565b60681c90565b61425d6142629161424b565b614211565b90565b61426f9054614251565b90565b60a81c90565b61428461428991614272565b614211565b90565b6142969054614278565b90565b6142a56142aa91610fb5565b612116565b90565b6142b79054614299565b90565b60ff1690565b6142cc6142d19161205a565b6142ba565b90565b6142de90546142c0565b90565b906142eb90610514565b9052565b6142fb6143009161420b565b611efb565b90565b61430d90546142ef565b90565b9061431a90610532565b9052565b60018060601b031690565b61433561433a91610fb5565b61431e565b90565b6143479054614329565b90565b906143549061054b565b9052565b61436461436991612026565b610fbb565b90565b6143769054614358565b90565b61438561438a9161205a565b61431e565b90565b6143979054614379565b90565b6143a66143ab91610fb5565b6142ba565b90565b6143b8905461439a565b90565b9061461461460a60096143cc613677565b946143e56143dc60008301614174565b60008801613566565b6143fd6143f4600183016141a0565b602088016141ad565b61441561440c600183016141cf565b604088016141ad565b61442d61442460028301611f56565b606088016141dc565b61444561443c60038301611f56565b608088016141dc565b61445d61445460048301612ab9565b60a0880161155e565b61447561446c60048301612ac6565b60c0880161155e565b61448d61448460048301612ad3565b60e0880161155e565b6144a661449c60048301612ae0565b610100880161155e565b6144bf6144b5600483016141fe565b610120880161155e565b6144d86144ce60048301614230565b610140880161423d565b6144f16144e760048301614265565b610160880161423d565b61450a6145006004830161428c565b610180880161423d565b614523614519600583016142ad565b6101a088016115f0565b61453c614532600583016142d4565b6101c088016142e1565b61455561454b60058301614303565b6101e08801614310565b61456e6145646006830161433d565b610200880161434a565b61458761457d60078301611f56565b61022088016141dc565b6145a061459660088301612ab9565b610240880161155e565b6145b96145af60088301612ac6565b610260880161155e565b6145d26145c86008830161436c565b6102808801611588565b6145eb6145e16008830161438d565b6102a0880161434a565b6146046145fa600883016141cf565b6102c088016141ad565b016143ae565b6102e084016142e1565b565b61461f906143bb565b90565b6146509161464661464b92614635614122565b506000614640614e71565b0161412d565b614145565b614616565b90565b9061465c612e97565b5061466960a08301611616565b60001461469357614688614683606061468e939401612d32565b610377565b91610377565b101590565b6146ab6146a660606146b1939401612d32565b610377565b91610377565b111590565b60209181520190565b600052602060002090565b906146d7816020936104a7565b0190565b6146e59054614160565b90565b60010190565b9061470b6147056146fe84613f36565b80936146b6565b926146bf565b9060005b81811061471c5750505090565b90919261473c614736600192614731876146db565b6146ca565b946146e8565b910191909161470f565b90614750916146ee565b90565b9061477361476c92614763610103565b93848092614746565b0383610312565b565b61477e90614753565b90565b60006147969161478f6140ce565b5001614775565b90565b90565b6147b06147ab6147b592614799565b610f7e565b610377565b90565b6147cd68327cb2734119d3b7a9601e1b61479c565b90565b90565b6147e76147e26147ec926147d0565b610f7e565b610377565b90565b634e487b7160e01b600052601260045260246000fd5b61481161481791610377565b91610377565b908115614822570490565b6147ef565b90614846906148346111ce565b50614840838290615374565b92615374565b8161487461486e61486960001961486461485e6147b8565b916147d3565b614805565b610377565b91610377565b106148965761488e614893926148886147b8565b90614805565b61305c565b90565b6148ab6148b0926148a56147b8565b9061305c565b614805565b90565b906148bd906110d6565b600052602052604060002090565b60a01c90565b6148dd6148e2916148cb565b612116565b90565b6148ef90546148d1565b90565b61490661490161490b926104fe565b610f7e565b610377565b90565b61491a61491f9161208e565b612116565b90565b61492c905461490e565b90565b61493e61494491939293610377565b92610377565b820180921161494f57565b611002565b6149606149659161205a565b612116565b90565b6149729054614954565b90565b61498461498a91939293610377565b92610377565b820391821161499557565b611002565b90565b6149b16149ac6149b69261499a565b610f7e565b610377565b90565b6149c461271061499d565b90565b90916149d16111ce565b506149fa6149f560006149ef60066149e7613b0b565b0186906148b3565b016148e5565b6148f2565b91614a18614a136004614a0b613b0b565b018390611f27565b611f56565b9242614a53614a4d614a4884614a42614a3d60006001614a36613b0b565b0101614922565b6148f2565b9061492f565b610377565b91610377565b11908115614b47575b508015614b2c575b614b265783614a7b614a7585610377565b91610377565b11600014614b0d57614ab3614aad614aa6614a97878790614975565b5b614aa06149b9565b9061305c565b8690614805565b91615833565b9081614ad4575b50614ace57614acb929190916158b9565b90565b50905090565b9050614b05614aff614afa614af560006001614aee613b0b565b01016142ad565b6148f2565b610377565b91610377565b111538614aba565b614ab3614aad614aa6614b21868890614975565b614a98565b50505090565b5082614b41614b3b6000612ccd565b91610377565b14614a64565b9050614b83614b7d614b784293614b72614b6d60006001614b66613b0b565b0101614968565b6148f2565b9061492f565b610377565b91610377565b1138614a5c565b614b9e614b99614ba392610377565b610f7e565b610d8f565b90565b614baf90610d8f565b600160ff1b8114614bc05760000390565b611002565b614be19192614bdc91614bd6612cac565b5061593a565b615bd9565b90614bee60008301612d32565b614c01614bfb6000612ccd565b91610377565b14614c3a57614c0f91615c01565b90600014614c2457614c2090614b8a565b5b90565b614c30614c3591614b8a565b614ba6565b614c21565b5050614c466000612cb1565b90565b614c67916001614c6292614c5b612e97565b5001613f3a565b611f56565b614c7a614c746000612ccd565b91610377565b141590565b614c93614c8e614c9892610fe3565b610f7e565b610377565b90565b614ca481613f36565b821015614cbf57614cb66001916146bf565b91020190600090565b612cfc565b614cd4906008614cd9930261125e565b61415d565b90565b90614ce79154614cc4565b90565b634e487b7160e01b600052603160045260246000fd5b614d1291614d0c613fb9565b91613ee4565b565b614d1d81613e9f565b8015614d3e576001900390614d3b614d358383613ea3565b90614d00565b55565b614cea565b614d4b612e97565b50614d62614d5d600183018490613f3a565b611f56565b9081614d77614d716000612ccd565b91610377565b1415600014614e4557614df7926001614df29284614da0600096614d9a85614c7f565b90614975565b614dbd614dae888501613f36565b614db786614c7f565b90614975565b81614dd0614dca83610377565b91610377565b03614dfc575b505050614dec614de7868301613e91565b614d14565b01613f3a565b6111d3565b600190565b614e3d92614e2f614e1b614e15614e38948c8901614c9b565b90614cdc565b93614e2985918c8901614c9b565b90613ee4565b91858501613f3a565b612396565b388080614dd6565b505050600090565b7fbf93ccae7e050fdad00615e220e3f9b7ebb112ac9318fb8604653a7d8091238890565b614e79614e4d565b90565b60018060401b038111614e925760208091020190565b6102fc565b90614ea9614ea483614e7c565b610339565b918252565b369037565b90614ed8614ec083614e97565b92602080614ece8693614e7c565b9201910390614eae565b565b929092614ee56140ce565b50614eef81615d03565b83614f02614efc83610377565b91610377565b11614f79575b50614f1c614f17848690614975565b614eb3565b91845b80614f32614f2c87610377565b91610377565b1015614f7057614f6b90614f66614f4a858390615d23565b614f618791614f5a858c90614975565b9092613609565b613566565b612ce9565b614f1f565b50935050905090565b9092509138614f08565b60007f5072696365466565643a20696e76616c69642070726963652066656564000000910152565b614fb8601d60209261149d565b614fc181614f83565b0190565b614fdb9060208101906000818303910152614fab565b90565b15614fe557565b614fed610103565b62461bcd60e51b81528061500360048201614fc5565b0390fd5b61501090610f81565b90565b61501c90615007565b90565b61502890610f9d565b90565b60018060501b031690565b61503f8161502b565b0361504657565b600080fd5b9050519061505882615036565b565b90602082820312615074576150719160000161504b565b90565b61010e565b61508d61508861509292611365565b610f7e565b61502b565b90565b60016150a1910161502b565b90565b6150b06150b5916120f6565b612116565b90565b6150c290546150a4565b90565b6150d96150d46150de926104fe565b610f7e565b61502b565b90565b6150ed6150f39161502b565b9161502b565b90039060018060501b03821161510557565b611002565b61511381610d8f565b0361511a57565b600080fd5b9050519061512c8261510a565b565b9050519061513b8261037a565b565b919060a08382031261518f57615156816000850161504b565b92615164826020830161511f565b9261518c615175846040850161512e565b93615183816060860161512e565b9360800161504b565b90565b61010e565b61519d9061502b565b9052565b91906151b590600060208501940190615194565b565b60007f5072696365466565643a20696e76616c69642070726963650000000000000000910152565b6151ec601860209261149d565b6151f5816151b7565b0190565b61520f90602081019060008183039101526151df565b90565b1561521957565b615221610103565b62461bcd60e51b815280615237600482016151f9565b0390fd5b61524f61524a61525492610d8f565b610f7e565b610377565b90565b906020828203126152715761526e9160000161511f565b90565b61010e565b60007f5072696365466565643a20636f756c64206e6f74206665746368207072696365910152565b6152aa6020809261149d565b6152b381615276565b0190565b6152cd906020810190600081830391015261529e565b90565b156152d757565b6152df610103565b62461bcd60e51b8152806152f5600482016152b7565b0390fd5b61530281610514565b0361530957565b600080fd5b9050519061531b826152f9565b565b90602082820312615337576153349160000161530e565b90565b61010e565b61535061534b61535592610514565b610f7e565b610377565b90565b61536190610377565b604d811161536f57600a0a90565b611002565b919061537e6111ce565b506153c161539f61539a6002615392613b0b565b018690611390565b611f1a565b6153ba6153b46153af6000611384565b610532565b91610532565b1415614fde565b6153cb6000612ccd565b61541360206153fd6153f86153f36153ee60026153e6613b0b565b018a90611390565b611f1a565b615013565b61501f565b63668a0f029061540b610103565b938492611421565b825281806154236004820161083d565b03915afa90811561582e57600091615800575b506154416000615079565b5b8061546a61546461545f60006001615458613b0b565b01016150b8565b6150c5565b9161502b565b10156157e4578161548361547d8361502b565b9161502b565b11156156f2576154916111ce565b50806154a66154a06000615079565b9161502b565b14600014615615576154f660206154e06154db6154d66154d160026154c9613b0b565b018c90611390565b611f1a565b615013565b61501f565b6350d25bcd906154ee610103565b938492611421565b825281806155066004820161083d565b03915afa80156156105761553f916000916155e2575b5061553a8161553461552e6000612cb1565b91610d8f565b13615212565b61523b565b5b8361555461554e6000612ccd565b91610377565b146155d65784806155bc575b6155b05761556e851561034e565b80615596575b615589575b50615584905b615095565b615442565b6155849193509290615579565b50806155aa6155a486610377565b91610377565b10615574565b6155849193509261557f565b50806155d06155ca86610377565b91610377565b11615560565b6155849193509261557f565b615603915060203d8111615609575b6155fb8183610312565b810190615257565b3861551c565b503d6155f1565b611455565b61567b60a061564761564261563d6156386002615630613b0b565b018c90611390565b611f1a565b615013565b61501f565b639a6fc8f59061567061565b8787906150e1565b92615664610103565b95869485938493611421565b8352600483016151a1565b03915afa80156156ed576156b7916000809290506156bc575b506156b2816156ac6156a66000612cb1565b91610d8f565b13615212565b61523b565b615540565b6156dd915060a03d81116156e6575b6156d58183610312565b81019061513d565b50505090615694565b503d6156cb565b611455565b50509050602061574661574161573c61573761575c96975b6157278761572161571b6000612ccd565b91610377565b116152d0565b6002615731613b0b565b01611390565b611f1a565b615013565b61501f565b63313ce56790615754610103565b948592611421565b8252818061576c6004820161083d565b03915afa9182156157df576157a26157936157ae946157a8936000916157b1575b5061533c565b9261579c6147b8565b9061305c565b91615358565b90614805565b90565b6157d2915060203d81116157d8575b6157ca8183610312565b81019061531d565b3861578d565b503d6157c0565b611455565b50509050602061574661574161573c61573761575c969761570a565b615821915060203d8111615827575b6158198183610312565b81019061505a565b38615436565b503d61580f565b611455565b61583b612e97565b5061584581615e6f565b93925090508261585d61585783610377565b91610377565b119283615876575b50505061587157600190565b600090565b6158b09293506158a061588f6158aa936158a593614975565b94600561589a613b0b565b01611f27565b611f56565b610377565b91610377565b11388080615865565b916158c26111ce565b506000146158f257816158dd6158d783610377565b91610377565b116000146158eb57505b5b90565b90506158e7565b816159056158ff83610377565b91610377565b1060001461591457505b6158e8565b905061590f565b60018161592e6159369360029695613fdc565b018092614003565b0190565b61597061597592615949613fb9565b50615961615955610103565b9384926020840161591b565b60208201810382520382610312565b61404a565b90565b615983610120610339565b90565b600090565b600090565b615998615978565b90602080808080808080808a6159ac61368f565b8152016159b761368f565b8152016159c2615986565b8152016159cd615986565b8152016159d861368f565b8152016159e3612a01565b8152016159ee612a0b565b8152016159f9612a06565b815201615a0461598b565b81525050565b615a12615990565b90565b90615a1f90613ecc565b600052602052604060002090565b90565b615a3c615a4191610fb5565b615a2d565b90565b615a4e9054615a30565b90565b90615a5b90610d8f565b9052565b615a6b615a709161200c565b612116565b90565b615a7d9054615a5f565b90565b615a8c615a919161420b565b610fbb565b90565b615a9e9054615a80565b90565b60381c90565b60018060481b031690565b615abe615ac391615aa1565b615aa7565b90565b615ad09054615ab2565b90565b60018060481b031690565b90615ae890615ad3565b9052565b90615bcb615bc16005615afd615978565b94615b16615b0d60008301611f56565b600088016141dc565b615b2e615b2560018301611f56565b602088016141dc565b615b46615b3d60028301615a44565b60408801615a51565b615b5e615b5560038301615a44565b60608801615a51565b615b76615b6d60048301611f56565b608088016141dc565b615b8d615b84838301612ab9565b60a0880161155e565b615ba4615b9b838301615a73565b60c088016115f0565b615bbb615bb2838301615a94565b60e08801611588565b01615ac6565b6101008401615ade565b565b615bd690615aec565b90565b615bf9615bfe91615be8615a0a565b506002615bf3615f2b565b01615a15565b615bcd565b90565b919091615c0c612e97565b50615c156111ce565b50615c2260808201612d32565b615c34615c2e85610377565b91610377565b11600014615ce257615c7c615c6a615c58615c5160808501612d32565b8690614975565b5b615c6560008501612d32565b61305c565b615c7660808401612d32565b90614805565b92615c85612e97565b50615c9260a08301611616565b600014615cbd57615cb1615cac6080615cb7939401612d32565b610377565b91610377565b115b9190565b90615cd6615cd06080615cdc9301612d32565b92610377565b91610377565b11615cb9565b615c7c615c6a615cfe85615cf860808601612d32565b90614975565b615c59565b615d1b6000615d2092615d146111ce565b5001613538565b615f36565b90565b90615d3c6000615d4193615d35613fb9565b5001613538565b615f4e565b90565b60018060a01b031690565b615d5b615d6091610fb5565b615d44565b90565b615d6d9054615d4f565b90565b90615d7a90610527565b9052565b60c01c90565b615d90615d9591615d7e565b612116565b90565b615da29054615d84565b90565b615db1615db6916100fd565b612116565b90565b615dc39054615da5565b90565b615dd06080610339565b90565b90615e38615e2f6000615de4615dc6565b94615dfb615df3838301615d63565b838801615d70565b615e12615e098383016148e5565b602088016115f0565b615e29615e20838301615d98565b604088016115f0565b01615db9565b606084016115f0565b565b615e4390615dd3565b90565b615e509051610527565b90565b615e67615e62615e6c92610527565b610f7e565b610377565b90565b615eaa615eaf91615e7e6111ce565b50615e876111ce565b50615e906111ce565b50615e996111ce565b506006615ea4613b0b565b016148b3565b615e3a565b615ec3615ebe60008301615e46565b615e53565b615ed7615ed2602084016118f2565b6148f2565b92615f00615efb6060615ef4615eef604088016118f2565b6148f2565b95016118f2565b6148f2565b9193929190565b7f92bcfabaf0a890def3092675474357e5f93a0f117ca63a3db421d44c5b55fba590565b615f33615f07565b90565b6000615f4b91615f446111ce565b5001613f36565b90565b615f6d916000615f6792615f60613fb9565b5001614c9b565b90614cdc565b9056fea264697066735822122029f2d4a149b31e71e576c632f1c00a29b115815bdbe5cbc793e0b3b80fddd03064736f6c63430008180033",
  "devdoc": {
    "kind": "dev",
    "methods": {},
    "version": 1
  },
  "userdoc": {
    "kind": "user",
    "methods": {},
    "version": 1
  },
  "storageLayout": {
    "storage": [],
    "types": null
  }
}