{
  "address": "0xd399Ed7Ec12163d430148b18688c6Efa52e3EC70",
  "abi": [
    {
      "inputs": [
        {
          "internalType": "address",
          "name": "spender",
          "type": "address"
        },
        {
          "internalType": "uint256",
          "name": "allowance",
          "type": "uint256"
        },
        {
          "internalType": "uint256",
          "name": "needed",
          "type": "uint256"
        }
      ],
      "name": "ERC20InsufficientAllowance",
      "type": "error"
    },
    {
      "inputs": [
        {
          "internalType": "address",
          "name": "sender",
          "type": "address"
        },
        {
          "internalType": "uint256",
          "name": "balance",
          "type": "uint256"
        },
        {
          "internalType": "uint256",
          "name": "needed",
          "type": "uint256"
        }
      ],
      "name": "ERC20InsufficientBalance",
      "type": "error"
    },
    {
      "inputs": [
        {
          "internalType": "address",
          "name": "approver",
          "type": "address"
        }
      ],
      "name": "ERC20InvalidApprover",
      "type": "error"
    },
    {
      "inputs": [
        {
          "internalType": "address",
          "name": "receiver",
          "type": "address"
        }
      ],
      "name": "ERC20InvalidReceiver",
      "type": "error"
    },
    {
      "inputs": [
        {
          "internalType": "address",
          "name": "sender",
          "type": "address"
        }
      ],
      "name": "ERC20InvalidSender",
      "type": "error"
    },
    {
      "inputs": [
        {
          "internalType": "address",
          "name": "spender",
          "type": "address"
        }
      ],
      "name": "ERC20InvalidSpender",
      "type": "error"
    },
    {
      "inputs": [],
      "name": "InvalidInitialization",
      "type": "error"
    },
    {
      "inputs": [],
      "name": "NotInitializing",
      "type": "error"
    },
    {
      "anonymous": false,
      "inputs": [
        {
          "indexed": true,
          "internalType": "address",
          "name": "owner",
          "type": "address"
        },
        {
          "indexed": true,
          "internalType": "address",
          "name": "spender",
          "type": "address"
        },
        {
          "indexed": false,
          "internalType": "uint256",
          "name": "value",
          "type": "uint256"
        }
      ],
      "name": "Approval",
      "type": "event"
    },
    {
      "anonymous": false,
      "inputs": [
        {
          "indexed": false,
          "internalType": "uint64",
          "name": "version",
          "type": "uint64"
        }
      ],
      "name": "Initialized",
      "type": "event"
    },
    {
      "anonymous": false,
      "inputs": [
        {
          "indexed": true,
          "internalType": "address",
          "name": "from",
          "type": "address"
        },
        {
          "indexed": true,
          "internalType": "address",
          "name": "to",
          "type": "address"
        },
        {
          "indexed": false,
          "internalType": "uint256",
          "name": "value",
          "type": "uint256"
        }
      ],
      "name": "Transfer",
      "type": "event"
    },
    {
      "inputs": [
        {
          "internalType": "address",
          "name": "owner",
          "type": "address"
        },
        {
          "internalType": "address",
          "name": "spender",
          "type": "address"
        }
      ],
      "name": "allowance",
      "outputs": [
        {
          "internalType": "uint256",
          "name": "",
          "type": "uint256"
        }
      ],
      "stateMutability": "view",
      "type": "function"
    },
    {
      "inputs": [
        {
          "internalType": "address",
          "name": "spender",
          "type": "address"
        },
        {
          "internalType": "uint256",
          "name": "value",
          "type": "uint256"
        }
      ],
      "name": "approve",
      "outputs": [
        {
          "internalType": "bool",
          "name": "",
          "type": "bool"
        }
      ],
      "stateMutability": "nonpayable",
      "type": "function"
    },
    {
      "inputs": [
        {
          "internalType": "address",
          "name": "account",
          "type": "address"
        }
      ],
      "name": "balanceOf",
      "outputs": [
        {
          "internalType": "uint256",
          "name": "",
          "type": "uint256"
        }
      ],
      "stateMutability": "view",
      "type": "function"
    },
    {
      "inputs": [],
      "name": "decimals",
      "outputs": [
        {
          "internalType": "uint8",
          "name": "",
          "type": "uint8"
        }
      ],
      "stateMutability": "view",
      "type": "function"
    },
    {
      "inputs": [
        {
          "internalType": "string",
          "name": "_name",
          "type": "string"
        },
        {
          "internalType": "string",
          "name": "_symbol",
          "type": "string"
        },
        {
          "internalType": "address",
          "name": "to",
          "type": "address"
        },
        {
          "internalType": "uint256",
          "name": "amount",
          "type": "uint256"
        }
      ],
      "name": "initialize",
      "outputs": [],
      "stateMutability": "nonpayable",
      "type": "function"
    },
    {
      "inputs": [
        {
          "internalType": "address",
          "name": "to",
          "type": "address"
        },
        {
          "internalType": "uint256",
          "name": "amount",
          "type": "uint256"
        }
      ],
      "name": "mint",
      "outputs": [],
      "stateMutability": "nonpayable",
      "type": "function"
    },
    {
      "inputs": [],
      "name": "name",
      "outputs": [
        {
          "internalType": "string",
          "name": "",
          "type": "string"
        }
      ],
      "stateMutability": "view",
      "type": "function"
    },
    {
      "inputs": [],
      "name": "symbol",
      "outputs": [
        {
          "internalType": "string",
          "name": "",
          "type": "string"
        }
      ],
      "stateMutability": "view",
      "type": "function"
    },
    {
      "inputs": [],
      "name": "totalSupply",
      "outputs": [
        {
          "internalType": "uint256",
          "name": "",
          "type": "uint256"
        }
      ],
      "stateMutability": "view",
      "type": "function"
    },
    {
      "inputs": [
        {
          "internalType": "address",
          "name": "to",
          "type": "address"
        },
        {
          "internalType": "uint256",
          "name": "value",
          "type": "uint256"
        }
      ],
      "name": "transfer",
      "outputs": [
        {
          "internalType": "bool",
          "name": "",
          "type": "bool"
        }
      ],
      "stateMutability": "nonpayable",
      "type": "function"
    },
    {
      "inputs": [
        {
          "internalType": "address",
          "name": "from",
          "type": "address"
        },
        {
          "internalType": "address",
          "name": "to",
          "type": "address"
        },
        {
          "internalType": "uint256",
          "name": "value",
          "type": "uint256"
        }
      ],
      "name": "transferFrom",
      "outputs": [
        {
          "internalType": "bool",
          "name": "",
          "type": "bool"
        }
      ],
      "stateMutability": "nonpayable",
      "type": "function"
    }
  ],
  "transactionHash": "0xe2f554e3591ca006738c4fd1a57f9ca7cf6b53225c720593368da573e58671b7",
  "args": [],
  "numDeployments": 3,
  "solcInputHash": "64c840e4c6c24f35262b1c07da6f077a",
  "bytecode": "0x608060405234801561001057600080fd5b50611700806100206000396000f3fe608060405234801561001057600080fd5b50600436106100995760003560e01c806306fdde031461009e578063095ea7b3146100bc57806318160ddd146100ec57806323b872dd1461010a578063313ce5671461013a57806340c10f191461015857806370a082311461017457806395d89b41146101a4578063a9059cbb146101c2578063dd62ed3e146101f2578063f542033f14610222575b600080fd5b6100a661023e565b6040516100b39190610e89565b60405180910390f35b6100d660048036038101906100d19190610f53565b6102df565b6040516100e39190610fae565b60405180910390f35b6100f4610302565b6040516101019190610fd8565b60405180910390f35b610124600480360381019061011f9190610ff3565b61031a565b6040516101319190610fae565b60405180910390f35b610142610349565b60405161014f9190611062565b60405180910390f35b610172600480360381019061016d9190610f53565b610352565b005b61018e6004803603810190610189919061107d565b610360565b60405161019b9190610fd8565b60405180910390f35b6101ac6103b7565b6040516101b99190610e89565b60405180910390f35b6101dc60048036038101906101d79190610f53565b610458565b6040516101e99190610fae565b60405180910390f35b61020c600480360381019061020791906110aa565b61047b565b6040516102199190610fd8565b60405180910390f35b61023c6004803603810190610237919061121f565b610510565b005b6060600061024a6106ad565b905080600301805461025b906112ed565b80601f0160208091040260200160405190810160405280929190818152602001828054610287906112ed565b80156102d45780601f106102a9576101008083540402835291602001916102d4565b820191906000526020600020905b8154815290600101906020018083116102b757829003601f168201915b505050505091505090565b6000806102ea6106d5565b90506102f78185856106dd565b600191505092915050565b60008061030d6106ad565b9050806002015491505090565b6000806103256106d5565b90506103328582856106ef565b61033d858585610783565b60019150509392505050565b60006012905090565b61035c8282610877565b5050565b60008061036b6106ad565b90508060000160008473ffffffffffffffffffffffffffffffffffffffff1673ffffffffffffffffffffffffffffffffffffffff16815260200190815260200160002054915050919050565b606060006103c36106ad565b90508060040180546103d4906112ed565b80601f0160208091040260200160405190810160405280929190818152602001828054610400906112ed565b801561044d5780601f106104225761010080835404028352916020019161044d565b820191906000526020600020905b81548152906001019060200180831161043057829003601f168201915b505050505091505090565b6000806104636106d5565b9050610470818585610783565b600191505092915050565b6000806104866106ad565b90508060010160008573ffffffffffffffffffffffffffffffffffffffff1673ffffffffffffffffffffffffffffffffffffffff16815260200190815260200160002060008473ffffffffffffffffffffffffffffffffffffffff1673ffffffffffffffffffffffffffffffffffffffff1681526020019081526020016000205491505092915050565b600061051a6108f9565b905060008160000160089054906101000a900460ff1615905060008260000160009054906101000a900467ffffffffffffffff1690506000808267ffffffffffffffff161480156105685750825b9050600060018367ffffffffffffffff1614801561059d575060003073ffffffffffffffffffffffffffffffffffffffff163b145b9050811580156105ab575080155b156105e2576040517ff92ee8a900000000000000000000000000000000000000000000000000000000815260040160405180910390fd5b60018560000160006101000a81548167ffffffffffffffff021916908367ffffffffffffffff16021790555083156106325760018560000160086101000a81548160ff0219169083151502179055505b61063c8989610921565b6106468787610877565b83156106a25760008560000160086101000a81548160ff0219169083151502179055507fc7f505b2f371ae2175ee4913f4499e1f2633a7b5936321eed1cdaeb6115181d260016040516106999190611377565b60405180910390a15b505050505050505050565b60007f52c63247e1f47db19d5ce0460030c497f067ca4cebf71ba98eeadabe20bace00905090565b600033905090565b6106ea8383836001610937565b505050565b60006106fb848461047b565b90507fffffffffffffffffffffffffffffffffffffffffffffffffffffffffffffffff811461077d578181101561076d578281836040517ffb8f41b2000000000000000000000000000000000000000000000000000000008152600401610764939291906113a1565b60405180910390fd5b61077c84848484036000610937565b5b50505050565b600073ffffffffffffffffffffffffffffffffffffffff168373ffffffffffffffffffffffffffffffffffffffff16036107f55760006040517f96c6fd1e0000000000000000000000000000000000000000000000000000000081526004016107ec91906113d8565b60405180910390fd5b600073ffffffffffffffffffffffffffffffffffffffff168273ffffffffffffffffffffffffffffffffffffffff16036108675760006040517fec442f0500000000000000000000000000000000000000000000000000000000815260040161085e91906113d8565b60405180910390fd5b610872838383610b1d565b505050565b600073ffffffffffffffffffffffffffffffffffffffff168273ffffffffffffffffffffffffffffffffffffffff16036108e95760006040517fec442f050000000000000000000000000000000000000000000000000000000081526004016108e091906113d8565b60405180910390fd5b6108f560008383610b1d565b5050565b60007ff0c57e16840df040f15088dc2f81fe391c3923bec73e23a9662efc9c229c6a00905090565b610929610d5c565b6109338282610d9c565b5050565b60006109416106ad565b9050600073ffffffffffffffffffffffffffffffffffffffff168573ffffffffffffffffffffffffffffffffffffffff16036109b55760006040517fe602df050000000000000000000000000000000000000000000000000000000081526004016109ac91906113d8565b60405180910390fd5b600073ffffffffffffffffffffffffffffffffffffffff168473ffffffffffffffffffffffffffffffffffffffff1603610a275760006040517f94280d62000000000000000000000000000000000000000000000000000000008152600401610a1e91906113d8565b60405180910390fd5b828160010160008773ffffffffffffffffffffffffffffffffffffffff1673ffffffffffffffffffffffffffffffffffffffff16815260200190815260200160002060008673ffffffffffffffffffffffffffffffffffffffff1673ffffffffffffffffffffffffffffffffffffffff168152602001908152602001600020819055508115610b16578373ffffffffffffffffffffffffffffffffffffffff168573ffffffffffffffffffffffffffffffffffffffff167f8c5be1e5ebec7d5bd14f71427d1e84f3dd0314c0f7b2291e5b200ac8c7c3b92585604051610b0d9190610fd8565b60405180910390a35b5050505050565b6000610b276106ad565b9050600073ffffffffffffffffffffffffffffffffffffffff168473ffffffffffffffffffffffffffffffffffffffff1603610b7d5781816002016000828254610b719190611422565b92505081905550610c56565b60008160000160008673ffffffffffffffffffffffffffffffffffffffff1673ffffffffffffffffffffffffffffffffffffffff16815260200190815260200160002054905082811015610c0c578481846040517fe450d38c000000000000000000000000000000000000000000000000000000008152600401610c03939291906113a1565b60405180910390fd5b8281038260000160008773ffffffffffffffffffffffffffffffffffffffff1673ffffffffffffffffffffffffffffffffffffffff16815260200190815260200160002081905550505b600073ffffffffffffffffffffffffffffffffffffffff168373ffffffffffffffffffffffffffffffffffffffff1603610ca157818160020160008282540392505081905550610cf1565b818160000160008573ffffffffffffffffffffffffffffffffffffffff1673ffffffffffffffffffffffffffffffffffffffff168152602001908152602001600020600082825401925050819055505b8273ffffffffffffffffffffffffffffffffffffffff168473ffffffffffffffffffffffffffffffffffffffff167fddf252ad1be2c89b69c2b068fc378daa952ba7f163c4a11628f55a4df523b3ef84604051610d4e9190610fd8565b60405180910390a350505050565b610d64610dd9565b610d9a576040517fd7e6bcf800000000000000000000000000000000000000000000000000000000815260040160405180910390fd5b565b610da4610d5c565b6000610dae6106ad565b905082816003019081610dc191906115f8565b5081816004019081610dd391906115f8565b50505050565b6000610de36108f9565b60000160089054906101000a900460ff16905090565b600081519050919050565b600082825260208201905092915050565b60005b83811015610e33578082015181840152602081019050610e18565b60008484015250505050565b6000601f19601f8301169050919050565b6000610e5b82610df9565b610e658185610e04565b9350610e75818560208601610e15565b610e7e81610e3f565b840191505092915050565b60006020820190508181036000830152610ea38184610e50565b905092915050565b6000604051905090565b600080fd5b600080fd5b600073ffffffffffffffffffffffffffffffffffffffff82169050919050565b6000610eea82610ebf565b9050919050565b610efa81610edf565b8114610f0557600080fd5b50565b600081359050610f1781610ef1565b92915050565b6000819050919050565b610f3081610f1d565b8114610f3b57600080fd5b50565b600081359050610f4d81610f27565b92915050565b60008060408385031215610f6a57610f69610eb5565b5b6000610f7885828601610f08565b9250506020610f8985828601610f3e565b9150509250929050565b60008115159050919050565b610fa881610f93565b82525050565b6000602082019050610fc36000830184610f9f565b92915050565b610fd281610f1d565b82525050565b6000602082019050610fed6000830184610fc9565b92915050565b60008060006060848603121561100c5761100b610eb5565b5b600061101a86828701610f08565b935050602061102b86828701610f08565b925050604061103c86828701610f3e565b9150509250925092565b600060ff82169050919050565b61105c81611046565b82525050565b60006020820190506110776000830184611053565b92915050565b60006020828403121561109357611092610eb5565b5b60006110a184828501610f08565b91505092915050565b600080604083850312156110c1576110c0610eb5565b5b60006110cf85828601610f08565b92505060206110e085828601610f08565b9150509250929050565b600080fd5b600080fd5b7f4e487b7100000000000000000000000000000000000000000000000000000000600052604160045260246000fd5b61112c82610e3f565b810181811067ffffffffffffffff8211171561114b5761114a6110f4565b5b80604052505050565b600061115e610eab565b905061116a8282611123565b919050565b600067ffffffffffffffff82111561118a576111896110f4565b5b61119382610e3f565b9050602081019050919050565b82818337600083830152505050565b60006111c26111bd8461116f565b611154565b9050828152602081018484840111156111de576111dd6110ef565b5b6111e98482856111a0565b509392505050565b600082601f830112611206576112056110ea565b5b81356112168482602086016111af565b91505092915050565b6000806000806080858703121561123957611238610eb5565b5b600085013567ffffffffffffffff81111561125757611256610eba565b5b611263878288016111f1565b945050602085013567ffffffffffffffff81111561128457611283610eba565b5b611290878288016111f1565b93505060406112a187828801610f08565b92505060606112b287828801610f3e565b91505092959194509250565b7f4e487b7100000000000000000000000000000000000000000000000000000000600052602260045260246000fd5b6000600282049050600182168061130557607f821691505b602082108103611318576113176112be565b5b50919050565b6000819050919050565b600067ffffffffffffffff82169050919050565b6000819050919050565b600061136161135c6113578461131e565b61133c565b611328565b9050919050565b61137181611346565b82525050565b600060208201905061138c6000830184611368565b92915050565b61139b81610edf565b82525050565b60006060820190506113b66000830186611392565b6113c36020830185610fc9565b6113d06040830184610fc9565b949350505050565b60006020820190506113ed6000830184611392565b92915050565b7f4e487b7100000000000000000000000000000000000000000000000000000000600052601160045260246000fd5b600061142d82610f1d565b915061143883610f1d565b92508282019050808211156114505761144f6113f3565b5b92915050565b60008190508160005260206000209050919050565b60006020601f8301049050919050565b600082821b905092915050565b6000600883026114b87fffffffffffffffffffffffffffffffffffffffffffffffffffffffffffffffff8261147b565b6114c2868361147b565b95508019841693508086168417925050509392505050565b60006114f56114f06114eb84610f1d565b61133c565b610f1d565b9050919050565b6000819050919050565b61150f836114da565b61152361151b826114fc565b848454611488565b825550505050565b600090565b61153861152b565b611543818484611506565b505050565b5b818110156115675761155c600082611530565b600181019050611549565b5050565b601f8211156115ac5761157d81611456565b6115868461146b565b81016020851015611595578190505b6115a96115a18561146b565b830182611548565b50505b505050565b600082821c905092915050565b60006115cf600019846008026115b1565b1980831691505092915050565b60006115e883836115be565b9150826002028217905092915050565b61160182610df9565b67ffffffffffffffff81111561161a576116196110f4565b5b61162482546112ed565b61162f82828561156b565b600060209050601f8311600181146116625760008415611650578287015190505b61165a85826115dc565b8655506116c2565b601f19841661167086611456565b60005b8281101561169857848901518255600182019150602085019450602081019050611673565b868310156116b557848901516116b1601f8916826115be565b8355505b6001600288020188555050505b50505050505056fea264697066735822122030840f53616d5f700db62cbbdac73dd05d9ac0adb4217dff31b1f37507acd55964736f6c63430008180033",
  "devdoc": {
    "errors": {
      "ERC20InsufficientAllowance(address,uint256,uint256)": [
        {
          "details": "Indicates a failure with the `spender`s `allowance`. Used in transfers.",
          "params": {
            "allowance": "Amount of tokens a `spender` is allowed to operate with.",
            "needed": "Minimum amount required to perform a transfer.",
            "spender": "Address that may be allowed to operate on tokens without being their owner."
          }
        }
      ],
      "ERC20InsufficientBalance(address,uint256,uint256)": [
        {
          "details": "Indicates an error related to the current `balance` of a `sender`. Used in transfers.",
          "params": {
            "balance": "Current balance for the interacting account.",
            "needed": "Minimum amount required to perform a transfer.",
            "sender": "Address whose tokens are being transferred."
          }
        }
      ],
      "ERC20InvalidApprover(address)": [
        {
          "details": "Indicates a failure with the `approver` of a token to be approved. Used in approvals.",
          "params": {
            "approver": "Address initiating an approval operation."
          }
        }
      ],
      "ERC20InvalidReceiver(address)": [
        {
          "details": "Indicates a failure with the token `receiver`. Used in transfers.",
          "params": {
            "receiver": "Address to which tokens are being transferred."
          }
        }
      ],
      "ERC20InvalidSender(address)": [
        {
          "details": "Indicates a failure with the token `sender`. Used in transfers.",
          "params": {
            "sender": "Address whose tokens are being transferred."
          }
        }
      ],
      "ERC20InvalidSpender(address)": [
        {
          "details": "Indicates a failure with the `spender` to be approved. Used in approvals.",
          "params": {
            "spender": "Address that may be allowed to operate on tokens without being their owner."
          }
        }
      ],
      "InvalidInitialization()": [
        {
          "details": "The contract is already initialized."
        }
      ],
      "NotInitializing()": [
        {
          "details": "The contract is not initializing."
        }
      ]
    },
    "events": {
      "Approval(address,address,uint256)": {
        "details": "Emitted when the allowance of a `spender` for an `owner` is set by a call to {approve}. `value` is the new allowance."
      },
      "Initialized(uint64)": {
        "details": "Triggered when the contract has been initialized or reinitialized."
      },
      "Transfer(address,address,uint256)": {
        "details": "Emitted when `value` tokens are moved from one account (`from`) to another (`to`). Note that `value` may be zero."
      }
    },
    "kind": "dev",
    "methods": {
      "allowance(address,address)": {
        "details": "See {IERC20-allowance}."
      },
      "approve(address,uint256)": {
        "details": "See {IERC20-approve}. NOTE: If `value` is the maximum `uint256`, the allowance is not updated on `transferFrom`. This is semantically equivalent to an infinite approval. Requirements: - `spender` cannot be the zero address."
      },
      "balanceOf(address)": {
        "details": "See {IERC20-balanceOf}."
      },
      "decimals()": {
        "details": "Returns the number of decimals used to get its user representation. For example, if `decimals` equals `2`, a balance of `505` tokens should be displayed to a user as `5.05` (`505 / 10 ** 2`). Tokens usually opt for a value of 18, imitating the relationship between Ether and Wei. This is the default value returned by this function, unless it's overridden. NOTE: This information is only used for _display_ purposes: it in no way affects any of the arithmetic of the contract, including {IERC20-balanceOf} and {IERC20-transfer}."
      },
      "name()": {
        "details": "Returns the name of the token."
      },
      "symbol()": {
        "details": "Returns the symbol of the token, usually a shorter version of the name."
      },
      "totalSupply()": {
        "details": "See {IERC20-totalSupply}."
      },
      "transfer(address,uint256)": {
        "details": "See {IERC20-transfer}. Requirements: - `to` cannot be the zero address. - the caller must have a balance of at least `value`."
      },
      "transferFrom(address,address,uint256)": {
        "details": "See {IERC20-transferFrom}. Emits an {Approval} event indicating the updated allowance. This is not required by the EIP. See the note at the beginning of {ERC20}. NOTE: Does not update the allowance if the current allowance is the maximum `uint256`. Requirements: - `from` and `to` cannot be the zero address. - `from` must have a balance of at least `value`. - the caller must have allowance for ``from``'s tokens of at least `value`."
      }
    },
    "version": 1
  },
  "userdoc": {
    "kind": "user",
    "methods": {},
    "version": 1
  },
  "storageLayout": {
    "storage": [],
    "types": null
  }
}