{
  "address": "0x1CB83d4b2a23AC16a5ffbc115C11247741D2a019",
  "abi": [
    {
      "inputs": [
        {
          "internalType": "uint16",
          "name": "market",
          "type": "uint16"
        },
        {
          "internalType": "uint256",
          "name": "amount",
          "type": "uint256"
        }
      ],
      "name": "borrowFromVault",
      "outputs": [],
      "stateMutability": "nonpayable",
      "type": "function"
    },
    {
      "inputs": [],
      "name": "buyLpFee",
      "outputs": [
        {
          "internalType": "uint256",
          "name": "",
          "type": "uint256"
        }
      ],
      "stateMutability": "view",
      "type": "function"
    },
    {
      "inputs": [
        {
          "internalType": "bool",
          "name": "isBuy",
          "type": "bool"
        },
        {
          "internalType": "uint256",
          "name": "amount",
          "type": "uint256"
        }
      ],
      "name": "computationalCosts",
      "outputs": [
        {
          "internalType": "uint256",
          "name": "",
          "type": "uint256"
        }
      ],
      "stateMutability": "view",
      "type": "function"
    },
    {
      "inputs": [
        {
          "internalType": "uint16",
          "name": "market",
          "type": "uint16"
        }
      ],
      "name": "fundsUsed",
      "outputs": [
        {
          "internalType": "uint256",
          "name": "",
          "type": "uint256"
        }
      ],
      "stateMutability": "view",
      "type": "function"
    },
    {
      "inputs": [],
      "name": "getAUM",
      "outputs": [
        {
          "internalType": "uint256",
          "name": "",
          "type": "uint256"
        }
      ],
      "stateMutability": "view",
      "type": "function"
    },
    {
      "inputs": [
        {
          "internalType": "bool",
          "name": "isBuy",
          "type": "bool"
        }
      ],
      "name": "getLPFee",
      "outputs": [
        {
          "internalType": "uint256",
          "name": "",
          "type": "uint256"
        }
      ],
      "stateMutability": "view",
      "type": "function"
    },
    {
      "inputs": [],
      "name": "getUSDBalance",
      "outputs": [
        {
          "internalType": "uint256",
          "name": "",
          "type": "uint256"
        }
      ],
      "stateMutability": "view",
      "type": "function"
    },
    {
      "inputs": [],
      "name": "priceDecimals",
      "outputs": [
        {
          "internalType": "uint256",
          "name": "",
          "type": "uint256"
        }
      ],
      "stateMutability": "pure",
      "type": "function"
    },
    {
      "inputs": [
        {
          "internalType": "uint16",
          "name": "market",
          "type": "uint16"
        },
        {
          "internalType": "uint256",
          "name": "amount",
          "type": "uint256"
        }
      ],
      "name": "repayToVault",
      "outputs": [],
      "stateMutability": "nonpayable",
      "type": "function"
    },
    {
      "inputs": [],
      "name": "sellLpFee",
      "outputs": [
        {
          "internalType": "uint256",
          "name": "",
          "type": "uint256"
        }
      ],
      "stateMutability": "view",
      "type": "function"
    },
    {
      "inputs": [
        {
          "internalType": "address",
          "name": "to",
          "type": "address"
        },
        {
          "internalType": "uint256",
          "name": "amount",
          "type": "uint256"
        }
      ],
      "name": "withdrawFromVault",
      "outputs": [],
      "stateMutability": "nonpayable",
      "type": "function"
    }
  ],
  "transactionHash": "0x7cdba746b047dac447c8abb425b00fd9eeaf5d0dbc65273d6d22b94e6cdf637b",
  "args": [],
  "numDeployments": 4,
  "solcInputHash": "ae8e633405c82115b04e4b26f122c4f8",
  "bytecode": "0x60806040523461001f57610011610024565b6105c161003082396105c190f35b61002a565b60405190565b600080fdfe60806040526004361015610013575b6104ca565b61001e6000356100cd565b806305300b28146100c857806321116f4e146100c35780632e7e8415146100be578063315c1e08146100b95780636dc7b0a1146100b45780636fd3acb4146100af57806381558551146100aa5780639a2f44ca146100a5578063c1201054146100a0578063c7b8b46d1461009b5763f5151f350361000e5761049d565b610468565b610433565b6103fe565b6103b2565b610324565b6102ef565b6102b9565b610256565b6101e1565b610119565b60e01c90565b60405190565b600080fd5b600080fd5b60009103126100ee57565b6100de565b90565b6100ff906100f3565b9052565b9190610117906000602085019401906100f6565b565b34610149576101293660046100e3565b6101456101346104f6565b61013c6100d3565b91829182610103565b0390f35b6100d9565b60018060a01b031690565b6101629061014e565b90565b61016e81610159565b0361017557565b600080fd5b9050359061018782610165565b565b610192816100f3565b0361019957565b600080fd5b905035906101ab82610189565b565b91906040838203126101d657806101ca6101d3926000860161017a565b9360200161019e565b90565b6100de565b60000190565b34610209576101f13660046101ad565b50506101fb6100d3565b80610205816101db565b0390f35b6100d9565b151590565b61021c8161020e565b0361022357565b600080fd5b9050359061023582610213565b565b906020828203126102515761024e91600001610228565b90565b6100de565b346102865761028261027161026c366004610237565b61050c565b6102796100d3565b91829182610103565b0390f35b6100d9565b91906040838203126102b457806102a86102b19260008601610228565b9360200161019e565b90565b6100de565b346102ea576102e66102d56102cf36600461028b565b90610518565b6102dd6100d3565b91829182610103565b0390f35b6100d9565b3461031f576102ff3660046100e3565b61031b61030a610544565b6103126100d3565b91829182610103565b0390f35b6100d9565b34610354576103343660046100e3565b61035061033f61055e565b6103476100d3565b91829182610103565b0390f35b6100d9565b61ffff1690565b61036981610359565b0361037057565b600080fd5b9050359061038282610360565b565b91906040838203126103ad57806103a16103aa9260008601610375565b9360200161019e565b90565b6100de565b346103da576103c2366004610384565b50506103cc6100d3565b806103d6816101db565b0390f35b6100d9565b906020828203126103f9576103f691600001610375565b90565b6100de565b3461042e5761042a6104196104143660046103df565b610569565b6104216100d3565b91829182610103565b0390f35b6100d9565b34610463576104433660046100e3565b61045f61044e610575565b6104566100d3565b91829182610103565b0390f35b6100d9565b34610498576104783660046100e3565b610494610483610580565b61048b6100d3565b91829182610103565b0390f35b6100d9565b346104c5576104ad366004610384565b50506104b76100d3565b806104c1816101db565b0390f35b6100d9565b600080fd5b600090565b90565b90565b6104ee6104e96104f3926104d4565b6104d7565b6100f3565b90565b6104fe6104cf565b5061050960086104da565b90565b506105156104cf565b90565b50506105226104cf565b90565b90565b61053c61053761054192610525565b6104d7565b6100f3565b90565b61054c6104cf565b5061055b6402540be400610528565b90565b6105666104cf565b90565b506105726104cf565b90565b61057d6104cf565b90565b6105886104cf565b9056fea264697066735822122049998054b8695245697a1db84793e133433f5f2ba03d034930627c879e99778164736f6c63430008180033",
  "devdoc": {
    "kind": "dev",
    "methods": {},
    "version": 1
  },
  "userdoc": {
    "kind": "user",
    "methods": {},
    "version": 1
  },
  "storageLayout": {
    "storage": [],
    "types": null
  }
}