{
  "address": "0x3a914620D9451e8F7A1a326aB89a594C165754C3",
  "abi": [
    {
      "inputs": [
        {
          "internalType": "address",
          "name": "spender",
          "type": "address"
        },
        {
          "internalType": "uint256",
          "name": "allowance",
          "type": "uint256"
        },
        {
          "internalType": "uint256",
          "name": "needed",
          "type": "uint256"
        }
      ],
      "name": "ERC20InsufficientAllowance",
      "type": "error"
    },
    {
      "inputs": [
        {
          "internalType": "address",
          "name": "sender",
          "type": "address"
        },
        {
          "internalType": "uint256",
          "name": "balance",
          "type": "uint256"
        },
        {
          "internalType": "uint256",
          "name": "needed",
          "type": "uint256"
        }
      ],
      "name": "ERC20InsufficientBalance",
      "type": "error"
    },
    {
      "inputs": [
        {
          "internalType": "address",
          "name": "approver",
          "type": "address"
        }
      ],
      "name": "ERC20InvalidApprover",
      "type": "error"
    },
    {
      "inputs": [
        {
          "internalType": "address",
          "name": "receiver",
          "type": "address"
        }
      ],
      "name": "ERC20InvalidReceiver",
      "type": "error"
    },
    {
      "inputs": [
        {
          "internalType": "address",
          "name": "sender",
          "type": "address"
        }
      ],
      "name": "ERC20InvalidSender",
      "type": "error"
    },
    {
      "inputs": [
        {
          "internalType": "address",
          "name": "spender",
          "type": "address"
        }
      ],
      "name": "ERC20InvalidSpender",
      "type": "error"
    },
    {
      "inputs": [],
      "name": "InvalidInitialization",
      "type": "error"
    },
    {
      "inputs": [],
      "name": "NotInitializing",
      "type": "error"
    },
    {
      "anonymous": false,
      "inputs": [
        {
          "indexed": true,
          "internalType": "address",
          "name": "owner",
          "type": "address"
        },
        {
          "indexed": true,
          "internalType": "address",
          "name": "spender",
          "type": "address"
        },
        {
          "indexed": false,
          "internalType": "uint256",
          "name": "value",
          "type": "uint256"
        }
      ],
      "name": "Approval",
      "type": "event"
    },
    {
      "anonymous": false,
      "inputs": [
        {
          "indexed": false,
          "internalType": "uint64",
          "name": "version",
          "type": "uint64"
        }
      ],
      "name": "Initialized",
      "type": "event"
    },
    {
      "anonymous": false,
      "inputs": [
        {
          "indexed": true,
          "internalType": "address",
          "name": "from",
          "type": "address"
        },
        {
          "indexed": true,
          "internalType": "address",
          "name": "to",
          "type": "address"
        },
        {
          "indexed": false,
          "internalType": "uint256",
          "name": "value",
          "type": "uint256"
        }
      ],
      "name": "Transfer",
      "type": "event"
    },
    {
      "inputs": [
        {
          "internalType": "address",
          "name": "owner",
          "type": "address"
        },
        {
          "internalType": "address",
          "name": "spender",
          "type": "address"
        }
      ],
      "name": "allowance",
      "outputs": [
        {
          "internalType": "uint256",
          "name": "",
          "type": "uint256"
        }
      ],
      "stateMutability": "view",
      "type": "function"
    },
    {
      "inputs": [
        {
          "internalType": "address",
          "name": "spender",
          "type": "address"
        },
        {
          "internalType": "uint256",
          "name": "value",
          "type": "uint256"
        }
      ],
      "name": "approve",
      "outputs": [
        {
          "internalType": "bool",
          "name": "",
          "type": "bool"
        }
      ],
      "stateMutability": "nonpayable",
      "type": "function"
    },
    {
      "inputs": [
        {
          "internalType": "address",
          "name": "account",
          "type": "address"
        }
      ],
      "name": "balanceOf",
      "outputs": [
        {
          "internalType": "uint256",
          "name": "",
          "type": "uint256"
        }
      ],
      "stateMutability": "view",
      "type": "function"
    },
    {
      "inputs": [],
      "name": "decimals",
      "outputs": [
        {
          "internalType": "uint8",
          "name": "",
          "type": "uint8"
        }
      ],
      "stateMutability": "view",
      "type": "function"
    },
    {
      "inputs": [
        {
          "internalType": "string",
          "name": "_name",
          "type": "string"
        },
        {
          "internalType": "string",
          "name": "_symbol",
          "type": "string"
        },
        {
          "internalType": "address",
          "name": "to",
          "type": "address"
        },
        {
          "internalType": "uint256",
          "name": "amount",
          "type": "uint256"
        }
      ],
      "name": "initialize",
      "outputs": [],
      "stateMutability": "nonpayable",
      "type": "function"
    },
    {
      "inputs": [
        {
          "internalType": "address",
          "name": "to",
          "type": "address"
        },
        {
          "internalType": "uint256",
          "name": "amount",
          "type": "uint256"
        }
      ],
      "name": "mint",
      "outputs": [],
      "stateMutability": "nonpayable",
      "type": "function"
    },
    {
      "inputs": [],
      "name": "name",
      "outputs": [
        {
          "internalType": "string",
          "name": "",
          "type": "string"
        }
      ],
      "stateMutability": "view",
      "type": "function"
    },
    {
      "inputs": [],
      "name": "symbol",
      "outputs": [
        {
          "internalType": "string",
          "name": "",
          "type": "string"
        }
      ],
      "stateMutability": "view",
      "type": "function"
    },
    {
      "inputs": [],
      "name": "totalSupply",
      "outputs": [
        {
          "internalType": "uint256",
          "name": "",
          "type": "uint256"
        }
      ],
      "stateMutability": "view",
      "type": "function"
    },
    {
      "inputs": [
        {
          "internalType": "address",
          "name": "to",
          "type": "address"
        },
        {
          "internalType": "uint256",
          "name": "value",
          "type": "uint256"
        }
      ],
      "name": "transfer",
      "outputs": [
        {
          "internalType": "bool",
          "name": "",
          "type": "bool"
        }
      ],
      "stateMutability": "nonpayable",
      "type": "function"
    },
    {
      "inputs": [
        {
          "internalType": "address",
          "name": "from",
          "type": "address"
        },
        {
          "internalType": "address",
          "name": "to",
          "type": "address"
        },
        {
          "internalType": "uint256",
          "name": "value",
          "type": "uint256"
        }
      ],
      "name": "transferFrom",
      "outputs": [
        {
          "internalType": "bool",
          "name": "",
          "type": "bool"
        }
      ],
      "stateMutability": "nonpayable",
      "type": "function"
    }
  ],
  "transactionHash": "0x3eff015ce0d739dda908b35febf765f9f40a611b3a2d3b4b791a4063da515b23",
  "args": [],
  "numDeployments": 4,
  "solcInputHash": "ae8e633405c82115b04e4b26f122c4f8",
  "bytecode": "0x60806040523461001f57610011610024565b6115f861003082396115f890f35b61002a565b60405190565b600080fdfe60806040526004361015610013575b6106b1565b61001e6000356100cd565b806306fdde03146100c8578063095ea7b3146100c357806318160ddd146100be57806323b872dd146100b9578063313ce567146100b457806340c10f19146100af57806370a08231146100aa57806395d89b41146100a5578063a9059cbb146100a0578063dd62ed3e1461009b5763f542033f0361000e5761067a565b6104ef565b61048b565b610456565b610421565b6103ce565b610393565b610334565b6102c4565b61026b565b610179565b60e01c90565b60405190565b600080fd5b600080fd5b60009103126100ee57565b6100de565b5190565b60209181520190565b60005b838110610114575050906000910152565b806020918301518185015201610103565b601f801991011690565b61014e61015760209361015c93610145816100f3565b938480936100f7565b95869101610100565b610125565b0190565b610176916020820191600081840391015261012f565b90565b346101a9576101893660046100e3565b6101a56101946107d9565b61019c6100d3565b91829182610160565b0390f35b6100d9565b600080fd5b60018060a01b031690565b6101c7906101b3565b90565b6101d3816101be565b036101da57565b600080fd5b905035906101ec826101ca565b565b90565b6101fa816101ee565b0361020157565b600080fd5b90503590610213826101f1565b565b919060408382031261023e578061023261023b92600086016101df565b93602001610206565b90565b6100de565b151590565b61025190610243565b9052565b919061026990600060208501940190610248565b565b3461029c57610298610287610281366004610215565b906107fd565b61028f6100d3565b91829182610255565b0390f35b6100d9565b6102aa906101ee565b9052565b91906102c2906000602085019401906102a1565b565b346102f4576102d43660046100e3565b6102f06102df61084e565b6102e76100d3565b918291826102ae565b0390f35b6100d9565b909160608284031261032f5761032c61031584600085016101df565b9361032381602086016101df565b93604001610206565b90565b6100de565b346103655761036161035061034a3660046102f9565b9161086d565b6103586100d3565b91829182610255565b0390f35b6100d9565b60ff1690565b6103799061036a565b9052565b919061039190600060208501940190610370565b565b346103c3576103a33660046100e3565b6103bf6103ae6108c3565b6103b66100d3565b9182918261037d565b0390f35b6100d9565b60000190565b346103fd576103e76103e1366004610215565b906108d9565b6103ef6100d3565b806103f9816103c8565b0390f35b6100d9565b9060208282031261041c57610419916000016101df565b90565b6100de565b346104515761044d61043c610437366004610402565b610931565b6104446100d3565b918291826102ae565b0390f35b6100d9565b34610486576104663660046100e3565b610482610471610959565b6104796100d3565b91829182610160565b0390f35b6100d9565b346104bc576104b86104a76104a1366004610215565b90610978565b6104af6100d3565b91829182610255565b0390f35b6100d9565b91906040838203126104ea57806104de6104e792600086016101df565b936020016101df565b90565b6100de565b346105205761051c61050b6105053660046104c1565b906109b2565b6105136100d3565b918291826102ae565b0390f35b6100d9565b600080fd5b600080fd5b634e487b7160e01b600052604160045260246000fd5b9061054f90610125565b810190811060018060401b0382111761056757604052565b61052f565b9061057f6105786100d3565b9283610545565b565b60018060401b03811161059d57610599602091610125565b0190565b61052f565b90826000939282370152565b909291926105c36105be82610581565b61056c565b938185526020850190828401116105df576105dd926105a2565b565b61052a565b9080601f83011215610602578160206105ff933591016105ae565b90565b610525565b60808183031261067557600081013560018060401b038111610670578261062f9183016105e4565b92602082013560018060401b03811161066b57610651846106689285016105e4565b9361065f81604086016101df565b93606001610206565b90565b6101ae565b6101ae565b6100de565b346106ac5761069661068d366004610607565b92919091610d02565b61069e6100d3565b806106a8816103c8565b0390f35b6100d9565b600080fd5b606090565b634e487b7160e01b600052602260045260246000fd5b90600160028304921680156106f1575b60208310146106ec57565b6106bb565b91607f16916106e1565b60209181520190565b600052602060002090565b906000929180549061072a610723836106d1565b80946106fb565b916001811690816000146107835750600114610746575b505050565b6107539192939450610704565b916000925b81841061076b5750500190388080610741565b60018160209295939554848601520191019290610758565b92949550505060ff1916825215156020020190388080610741565b906107a89161070f565b90565b906107cb6107c4926107bb6100d3565b9384809261079e565b0383610545565b565b6107d6906107ab565b90565b6107e16106b6565b506107f560036107ef610d10565b016107cd565b90565b600090565b61081a916108096107f8565b50610812610d39565b919091610d46565b600190565b600090565b60001c90565b90565b61083961083e91610824565b61082a565b90565b61084b905461082d565b90565b61085661081f565b5061086a6002610864610d10565b01610841565b90565b916108979261087a6107f8565b5061088f610886610d39565b82908491610da4565b919091610e77565b600190565b600090565b90565b90565b6108bb6108b66108c0926108a1565b6108a4565b61036a565b90565b6108cb61089c565b506108d660126108a7565b90565b906108e391610f26565b565b6108f96108f46108fe926101b3565b6108a4565b6101b3565b90565b61090a906108e5565b90565b61091690610901565b90565b906109239061090d565b600052602052604060002090565b6109516109569161094061081f565b50600061094b610d10565b01610919565b610841565b90565b6109616106b6565b50610975600461096f610d10565b016107cd565b90565b610995916109846107f8565b5061098d610d39565b919091610e77565b600190565b906109a49061090d565b600052602052604060002090565b6109e0916109d66109db926109c561081f565b5060016109d0610d10565b0161099a565b610919565b610841565b90565b60401c90565b60ff1690565b6109fb610a00916109e3565b6109e9565b90565b610a0d90546109ef565b90565b60018060401b031690565b610a27610a2c91610824565b610a10565b90565b610a399054610a1b565b90565b60018060401b031690565b90565b610a5e610a59610a6392610a47565b6108a4565b610a3c565b90565b90565b610a7d610a78610a8292610a66565b6108a4565b610a3c565b90565b610a8e90610901565b90565b610aa5610aa0610aaa92610a47565b6108a4565b6101ee565b90565b60001b90565b90610ac460018060401b0391610aad565b9181191691161790565b610ae2610add610ae792610a3c565b6108a4565b610a3c565b90565b90565b90610b02610afd610b0992610ace565b610aea565b8254610ab3565b9055565b60401b90565b90610b2260ff60401b91610b0d565b9181191691161790565b610b3590610243565b90565b90565b90610b50610b4b610b5792610b2c565b610b38565b8254610b13565b9055565b610b6490610a69565b9052565b9190610b7c90600060208501940190610b5b565b565b909192610b89610f8e565b93610b9f610b9960008701610a03565b15610243565b93610bac60008701610a2f565b80610bc0610bba6000610a4a565b91610a3c565b1480610ce5575b90610bdb610bd56001610a69565b91610a3c565b1480610cbc575b610bed909115610243565b9081610cab575b50610c8857610c1e93610c13610c0a6001610a69565b60008901610aed565b85610c75575b610cec565b610c26575b50565b610c34906000809101610b3b565b6001610c6c7fc7f505b2f371ae2175ee4913f4499e1f2633a7b5936321eed1cdaeb6115181d291610c636100d3565b91829182610b68565b0390a138610c23565b610c83600160008901610b3b565b610c19565b610c906100d3565b63f92ee8a960e01b815280610ca7600482016103c8565b0390fd5b610cb6915015610243565b38610bf4565b50610bed610cc930610a85565b3b610cdd610cd76000610a91565b916101ee565b149050610be2565b5085610bc7565b610d00939291610cfb91610fd2565b610f26565b565b90610d0e939291610b7e565b565b7f52c63247e1f47db19d5ce0460030c497f067ca4cebf71ba98eeadabe20bace0090565b600090565b610d41610d34565b503390565b91610d549291600192611034565b565b610d5f906101be565b9052565b604090610d8d610d949496959396610d8360608401986000850190610d56565b60208301906102a1565b01906102a1565b565b90610da191036101ee565b90565b929192610db28183906109b2565b9081610dc8610dc26000196101ee565b916101ee565b03610dd5575b5050509050565b81610de8610de2876101ee565b916101ee565b10610e0f57610e069394610dfd919392610d96565b90600092611034565b80388080610dce565b50610e3584929192610e1f6100d3565b938493637dc7a0d960e11b855260048501610d63565b0390fd5b610e4d610e48610e5292610a47565b6108a4565b6101b3565b90565b610e5e90610e39565b90565b9190610e7590600060208501940190610d56565b565b9182610e94610e8e610e896000610e55565b6101be565b916101be565b14610ef75781610eb5610eaf610eaa6000610e55565b6101be565b916101be565b14610ec857610ec6929190916111a9565b565b610ef3610ed56000610e55565b610edd6100d3565b91829163ec442f0560e01b835260048301610e61565b0390fd5b610f22610f046000610e55565b610f0c6100d3565b918291634b637e8f60e11b835260048301610e61565b0390fd5b80610f42610f3c610f376000610e55565b6101be565b916101be565b14610f5f57610f5d91610f556000610e55565b9190916111a9565b565b610f8a610f6c6000610e55565b610f746100d3565b91829163ec442f0560e01b835260048301610e61565b0390fd5b7ff0c57e16840df040f15088dc2f81fe391c3923bec73e23a9662efc9c229c6a0090565b90610fc491610fbf61133d565b610fc6565b565b90610fd091611597565b565b90610fdc91610fb2565b565b90610feb60001991610aad565b9181191691161790565b61100961100461100e926101ee565b6108a4565b6101ee565b90565b90565b9061102961102461103092610ff5565b611011565b8254610fde565b9055565b909261103e610d10565b8261105a61105461104f6000610e55565b6101be565b916101be565b14611131578461107b6110756110706000610e55565b6101be565b916101be565b14611102576110a29061109d6110966001879301869061099a565b8790610919565b611014565b6110ac575b505050565b9190916110f76110e56110df7f8c5be1e5ebec7d5bd14f71427d1e84f3dd0314c0f7b2291e5b200ac8c7c3b9259361090d565b9361090d565b936110ee6100d3565b918291826102ae565b0390a33880806110a7565b61112d61110f6000610e55565b6111176100d3565b918291634a1406b160e11b835260048301610e61565b0390fd5b61115c61113e6000610e55565b6111466100d3565b91829163e602df0560e01b835260048301610e61565b0390fd5b634e487b7160e01b600052601160045260246000fd5b61118561118b919392936101ee565b926101ee565b820180921161119657565b611160565b906111a691016101ee565b90565b9190916111b4610d10565b816111d06111ca6111c56000610e55565b6101be565b916101be565b146000146112bf576111f8836111f260028401916111ed83610841565b611176565b90611014565b5b8361121561120f61120a6000610e55565b6101be565b916101be565b1460001461128f5761123e9061123860028592019161123383610841565b610d96565b90611014565b5b91909161128a6112786112727fddf252ad1be2c89b69c2b068fc378daa952ba7f163c4a11628f55a4df523b3ef9361090d565b9361090d565b936112816100d3565b918291826102ae565b0390a3565b6112ba906112b46112a560008693018790610919565b916112af83610841565b61119b565b90611014565b61123f565b6112d56112d0600083018490610919565b610841565b806112e86112e2866101ee565b916101ee565b10611313576112fb61130e918590610d96565b611309600084018590610919565b611014565b6111f9565b91611339915091926113236100d3565b93849363391434e360e21b855260048501610d63565b0390fd5b61134e6113486115a3565b15610243565b61135457565b61135c6100d3565b631afcd79f60e31b815280611373600482016103c8565b0390fd5b906113899161138461133d565b611573565b565b601f602091010490565b1b90565b919060086113b59102916113af60001984611395565b92611395565b9181191691161790565b91906113d56113d06113dd93610ff5565b611011565b908354611399565b9055565b6113f3916113ed61081f565b916113bf565b565b5b818110611401575050565b8061140f60006001936113e1565b016113f6565b9190601f8111611425575b505050565b61143161145693610704565b90602061143d8461138b565b8301931061145e575b61144f9061138b565b01906113f5565b388080611420565b915061144f81929050611446565b1c90565b90611481906000199060080261146c565b191690565b8161149091611470565b906002021790565b906114a2816100f3565b9060018060401b038211611562576114c4826114be85546106d1565b85611415565b602090601f83116001146114f9579180916114e8936000926114ed575b5050611486565b90555b565b909150015138806114e1565b601f1983169161150885610704565b9260005b81811061154a57509160029391856001969410611530575b505050020190556114eb565b611540910151601f841690611470565b9055388080611524565b9193602060018192878701518155019501920161150c565b61052f565b9061157191611498565b565b60046115959261158e611584610d10565b9360038501611567565b9101611567565b565b906115a191611377565b565b6115ab6107f8565b506115bf60006115b9610f8e565b01610a03565b9056fea26469706673582212204dd7e989b5fdc08ae464262d1b666d1c48f82b27e221be32f582e6a45018f93c64736f6c63430008180033",
  "devdoc": {
    "errors": {
      "ERC20InsufficientAllowance(address,uint256,uint256)": [
        {
          "details": "Indicates a failure with the `spender`s `allowance`. Used in transfers.",
          "params": {
            "allowance": "Amount of tokens a `spender` is allowed to operate with.",
            "needed": "Minimum amount required to perform a transfer.",
            "spender": "Address that may be allowed to operate on tokens without being their owner."
          }
        }
      ],
      "ERC20InsufficientBalance(address,uint256,uint256)": [
        {
          "details": "Indicates an error related to the current `balance` of a `sender`. Used in transfers.",
          "params": {
            "balance": "Current balance for the interacting account.",
            "needed": "Minimum amount required to perform a transfer.",
            "sender": "Address whose tokens are being transferred."
          }
        }
      ],
      "ERC20InvalidApprover(address)": [
        {
          "details": "Indicates a failure with the `approver` of a token to be approved. Used in approvals.",
          "params": {
            "approver": "Address initiating an approval operation."
          }
        }
      ],
      "ERC20InvalidReceiver(address)": [
        {
          "details": "Indicates a failure with the token `receiver`. Used in transfers.",
          "params": {
            "receiver": "Address to which tokens are being transferred."
          }
        }
      ],
      "ERC20InvalidSender(address)": [
        {
          "details": "Indicates a failure with the token `sender`. Used in transfers.",
          "params": {
            "sender": "Address whose tokens are being transferred."
          }
        }
      ],
      "ERC20InvalidSpender(address)": [
        {
          "details": "Indicates a failure with the `spender` to be approved. Used in approvals.",
          "params": {
            "spender": "Address that may be allowed to operate on tokens without being their owner."
          }
        }
      ],
      "InvalidInitialization()": [
        {
          "details": "The contract is already initialized."
        }
      ],
      "NotInitializing()": [
        {
          "details": "The contract is not initializing."
        }
      ]
    },
    "events": {
      "Approval(address,address,uint256)": {
        "details": "Emitted when the allowance of a `spender` for an `owner` is set by a call to {approve}. `value` is the new allowance."
      },
      "Initialized(uint64)": {
        "details": "Triggered when the contract has been initialized or reinitialized."
      },
      "Transfer(address,address,uint256)": {
        "details": "Emitted when `value` tokens are moved from one account (`from`) to another (`to`). Note that `value` may be zero."
      }
    },
    "kind": "dev",
    "methods": {
      "allowance(address,address)": {
        "details": "See {IERC20-allowance}."
      },
      "approve(address,uint256)": {
        "details": "See {IERC20-approve}. NOTE: If `value` is the maximum `uint256`, the allowance is not updated on `transferFrom`. This is semantically equivalent to an infinite approval. Requirements: - `spender` cannot be the zero address."
      },
      "balanceOf(address)": {
        "details": "See {IERC20-balanceOf}."
      },
      "decimals()": {
        "details": "Returns the number of decimals used to get its user representation. For example, if `decimals` equals `2`, a balance of `505` tokens should be displayed to a user as `5.05` (`505 / 10 ** 2`). Tokens usually opt for a value of 18, imitating the relationship between Ether and Wei. This is the default value returned by this function, unless it's overridden. NOTE: This information is only used for _display_ purposes: it in no way affects any of the arithmetic of the contract, including {IERC20-balanceOf} and {IERC20-transfer}."
      },
      "name()": {
        "details": "Returns the name of the token."
      },
      "symbol()": {
        "details": "Returns the symbol of the token, usually a shorter version of the name."
      },
      "totalSupply()": {
        "details": "See {IERC20-totalSupply}."
      },
      "transfer(address,uint256)": {
        "details": "See {IERC20-transfer}. Requirements: - `to` cannot be the zero address. - the caller must have a balance of at least `value`."
      },
      "transferFrom(address,address,uint256)": {
        "details": "See {IERC20-transferFrom}. Emits an {Approval} event indicating the updated allowance. This is not required by the EIP. See the note at the beginning of {ERC20}. NOTE: Does not update the allowance if the current allowance is the maximum `uint256`. Requirements: - `from` and `to` cannot be the zero address. - `from` must have a balance of at least `value`. - the caller must have allowance for ``from``'s tokens of at least `value`."
      }
    },
    "version": 1
  },
  "userdoc": {
    "kind": "user",
    "methods": {},
    "version": 1
  },
  "storageLayout": {
    "storage": [],
    "types": null
  }
}