{
  "address": "0xA9D131209F0588d791E882F3954d800E0637DfDb",
  "abi": [
    {
      "inputs": [
        {
          "internalType": "uint16",
          "name": "market",
          "type": "uint16"
        },
        {
          "internalType": "uint256",
          "name": "amount",
          "type": "uint256"
        }
      ],
      "name": "borrowFromVault",
      "outputs": [],
      "stateMutability": "nonpayable",
      "type": "function"
    },
    {
      "inputs": [],
      "name": "buyLpFee",
      "outputs": [
        {
          "internalType": "uint256",
          "name": "",
          "type": "uint256"
        }
      ],
      "stateMutability": "view",
      "type": "function"
    },
    {
      "inputs": [
        {
          "internalType": "bool",
          "name": "isBuy",
          "type": "bool"
        },
        {
          "internalType": "uint256",
          "name": "amount",
          "type": "uint256"
        }
      ],
      "name": "computationalCosts",
      "outputs": [
        {
          "internalType": "uint256",
          "name": "",
          "type": "uint256"
        }
      ],
      "stateMutability": "view",
      "type": "function"
    },
    {
      "inputs": [
        {
          "internalType": "uint16",
          "name": "market",
          "type": "uint16"
        }
      ],
      "name": "fundsUsed",
      "outputs": [
        {
          "internalType": "uint256",
          "name": "",
          "type": "uint256"
        }
      ],
      "stateMutability": "view",
      "type": "function"
    },
    {
      "inputs": [],
      "name": "getAUM",
      "outputs": [
        {
          "internalType": "uint256",
          "name": "",
          "type": "uint256"
        }
      ],
      "stateMutability": "view",
      "type": "function"
    },
    {
      "inputs": [
        {
          "internalType": "bool",
          "name": "isBuy",
          "type": "bool"
        }
      ],
      "name": "getLPFee",
      "outputs": [
        {
          "internalType": "uint256",
          "name": "",
          "type": "uint256"
        }
      ],
      "stateMutability": "view",
      "type": "function"
    },
    {
      "inputs": [],
      "name": "getUSDBalance",
      "outputs": [
        {
          "internalType": "uint256",
          "name": "",
          "type": "uint256"
        }
      ],
      "stateMutability": "view",
      "type": "function"
    },
    {
      "inputs": [],
      "name": "priceDecimals",
      "outputs": [
        {
          "internalType": "uint256",
          "name": "",
          "type": "uint256"
        }
      ],
      "stateMutability": "pure",
      "type": "function"
    },
    {
      "inputs": [
        {
          "internalType": "uint16",
          "name": "market",
          "type": "uint16"
        },
        {
          "internalType": "uint256",
          "name": "amount",
          "type": "uint256"
        }
      ],
      "name": "repayToVault",
      "outputs": [],
      "stateMutability": "nonpayable",
      "type": "function"
    },
    {
      "inputs": [],
      "name": "sellLpFee",
      "outputs": [
        {
          "internalType": "uint256",
          "name": "",
          "type": "uint256"
        }
      ],
      "stateMutability": "view",
      "type": "function"
    },
    {
      "inputs": [
        {
          "internalType": "address",
          "name": "to",
          "type": "address"
        },
        {
          "internalType": "uint256",
          "name": "amount",
          "type": "uint256"
        }
      ],
      "name": "withdrawFromVault",
      "outputs": [],
      "stateMutability": "nonpayable",
      "type": "function"
    }
  ],
  "transactionHash": "0x34410b4cd30987f8bd3e6ae2ca7270e6304ac94ef8a1938632923cbf40a30006",
  "args": [],
  "numDeployments": 2,
  "solcInputHash": "bac06c1b1d7b4b959ce05a1f97f41a2e",
  "bytecode": "0x608060405234801561001057600080fd5b506104e4806100206000396000f3fe608060405234801561001057600080fd5b50600436106100995760003560e01c806305300b281461009e57806321116f4e146100bc5780632e7e8415146100d8578063315c1e08146101085780636dc7b0a1146101385780636fd3acb41461015657806381558551146101745780639a2f44ca14610190578063c1201054146101c0578063c7b8b46d146101de578063f5151f35146101fc575b600080fd5b6100a6610218565b6040516100b39190610278565b60405180910390f35b6100d660048036038101906100d19190610322565b610221565b005b6100f260048036038101906100ed919061039a565b610225565b6040516100ff9190610278565b60405180910390f35b610122600480360381019061011d91906103c7565b61022c565b60405161012f9190610278565b60405180910390f35b610140610234565b60405161014d9190610278565b60405180910390f35b61015e610241565b60405161016b9190610278565b60405180910390f35b61018e60048036038101906101899190610441565b610246565b005b6101aa60048036038101906101a59190610481565b61024a565b6040516101b79190610278565b60405180910390f35b6101c8610251565b6040516101d59190610278565b60405180910390f35b6101e6610256565b6040516101f39190610278565b60405180910390f35b61021660048036038101906102119190610441565b61025b565b005b60006008905090565b5050565b6000919050565b600092915050565b60006402540be400905090565b600090565b5050565b6000919050565b600090565b600090565b5050565b6000819050919050565b6102728161025f565b82525050565b600060208201905061028d6000830184610269565b92915050565b600080fd5b600073ffffffffffffffffffffffffffffffffffffffff82169050919050565b60006102c382610298565b9050919050565b6102d3816102b8565b81146102de57600080fd5b50565b6000813590506102f0816102ca565b92915050565b6102ff8161025f565b811461030a57600080fd5b50565b60008135905061031c816102f6565b92915050565b6000806040838503121561033957610338610293565b5b6000610347858286016102e1565b92505060206103588582860161030d565b9150509250929050565b60008115159050919050565b61037781610362565b811461038257600080fd5b50565b6000813590506103948161036e565b92915050565b6000602082840312156103b0576103af610293565b5b60006103be84828501610385565b91505092915050565b600080604083850312156103de576103dd610293565b5b60006103ec85828601610385565b92505060206103fd8582860161030d565b9150509250929050565b600061ffff82169050919050565b61041e81610407565b811461042957600080fd5b50565b60008135905061043b81610415565b92915050565b6000806040838503121561045857610457610293565b5b60006104668582860161042c565b92505060206104778582860161030d565b9150509250929050565b60006020828403121561049757610496610293565b5b60006104a58482850161042c565b9150509291505056fea2646970667358221220e2badbbcab7e4164c560717b000495f52e8ad1e42d8e57754826731a32bf0d3464736f6c63430008140033",
  "devdoc": {
    "kind": "dev",
    "methods": {},
    "version": 1
  },
  "userdoc": {
    "kind": "user",
    "methods": {},
    "version": 1
  },
  "storageLayout": {
    "storage": [],
    "types": null
  }
}