{
  "address": "0xB749fA72064B1f9a76B3dff4B9A40cc2388ce873",
  "abi": [
    {
      "inputs": [
        {
          "internalType": "bytes[]",
          "name": "calls",
          "type": "bytes[]"
        }
      ],
      "name": "aggregateCall",
      "outputs": [
        {
          "internalType": "uint256",
          "name": "blockNumber",
          "type": "uint256"
        },
        {
          "internalType": "bytes[]",
          "name": "returnData",
          "type": "bytes[]"
        }
      ],
      "stateMutability": "nonpayable",
      "type": "function"
    },
    {
      "inputs": [
        {
          "internalType": "bytes[]",
          "name": "calls",
          "type": "bytes[]"
        }
      ],
      "name": "aggregateStaticCall",
      "outputs": [
        {
          "internalType": "uint256",
          "name": "blockNumber",
          "type": "uint256"
        },
        {
          "internalType": "bytes[]",
          "name": "returnData",
          "type": "bytes[]"
        }
      ],
      "stateMutability": "view",
      "type": "function"
    },
    {
      "inputs": [
        {
          "internalType": "bytes[]",
          "name": "calls",
          "type": "bytes[]"
        }
      ],
      "name": "blockAndAggregate",
      "outputs": [
        {
          "internalType": "uint256",
          "name": "blockNumber",
          "type": "uint256"
        },
        {
          "internalType": "bytes32",
          "name": "blockHash",
          "type": "bytes32"
        },
        {
          "components": [
            {
              "internalType": "bool",
              "name": "success",
              "type": "bool"
            },
            {
              "internalType": "bytes",
              "name": "returnData",
              "type": "bytes"
            }
          ],
          "internalType": "struct MultiCallFacet.Result[]",
          "name": "returnData",
          "type": "tuple[]"
        }
      ],
      "stateMutability": "nonpayable",
      "type": "function"
    },
    {
      "inputs": [
        {
          "internalType": "uint256",
          "name": "blockNumber",
          "type": "uint256"
        }
      ],
      "name": "getBlockHash",
      "outputs": [
        {
          "internalType": "bytes32",
          "name": "blockHash",
          "type": "bytes32"
        }
      ],
      "stateMutability": "view",
      "type": "function"
    },
    {
      "inputs": [],
      "name": "getBlockNumber",
      "outputs": [
        {
          "internalType": "uint256",
          "name": "blockNumber",
          "type": "uint256"
        }
      ],
      "stateMutability": "view",
      "type": "function"
    },
    {
      "inputs": [],
      "name": "getCurrentBlockCoinbase",
      "outputs": [
        {
          "internalType": "address",
          "name": "coinbase",
          "type": "address"
        }
      ],
      "stateMutability": "view",
      "type": "function"
    },
    {
      "inputs": [],
      "name": "getCurrentBlockGasLimit",
      "outputs": [
        {
          "internalType": "uint256",
          "name": "gaslimit",
          "type": "uint256"
        }
      ],
      "stateMutability": "view",
      "type": "function"
    },
    {
      "inputs": [],
      "name": "getCurrentBlockTimestamp",
      "outputs": [
        {
          "internalType": "uint256",
          "name": "timestamp",
          "type": "uint256"
        }
      ],
      "stateMutability": "view",
      "type": "function"
    },
    {
      "inputs": [
        {
          "internalType": "address",
          "name": "addr",
          "type": "address"
        }
      ],
      "name": "getEthBalance",
      "outputs": [
        {
          "internalType": "uint256",
          "name": "balance",
          "type": "uint256"
        }
      ],
      "stateMutability": "view",
      "type": "function"
    },
    {
      "inputs": [],
      "name": "getLastBlockHash",
      "outputs": [
        {
          "internalType": "bytes32",
          "name": "blockHash",
          "type": "bytes32"
        }
      ],
      "stateMutability": "view",
      "type": "function"
    },
    {
      "inputs": [
        {
          "internalType": "bool",
          "name": "requireSuccess",
          "type": "bool"
        },
        {
          "internalType": "bytes[]",
          "name": "calls",
          "type": "bytes[]"
        }
      ],
      "name": "tryAggregate",
      "outputs": [
        {
          "components": [
            {
              "internalType": "bool",
              "name": "success",
              "type": "bool"
            },
            {
              "internalType": "bytes",
              "name": "returnData",
              "type": "bytes"
            }
          ],
          "internalType": "struct MultiCallFacet.Result[]",
          "name": "returnData",
          "type": "tuple[]"
        }
      ],
      "stateMutability": "nonpayable",
      "type": "function"
    },
    {
      "inputs": [
        {
          "internalType": "bool",
          "name": "requireSuccess",
          "type": "bool"
        },
        {
          "internalType": "bytes[]",
          "name": "calls",
          "type": "bytes[]"
        }
      ],
      "name": "tryBlockAndAggregate",
      "outputs": [
        {
          "internalType": "uint256",
          "name": "blockNumber",
          "type": "uint256"
        },
        {
          "internalType": "bytes32",
          "name": "blockHash",
          "type": "bytes32"
        },
        {
          "components": [
            {
              "internalType": "bool",
              "name": "success",
              "type": "bool"
            },
            {
              "internalType": "bytes",
              "name": "returnData",
              "type": "bytes"
            }
          ],
          "internalType": "struct MultiCallFacet.Result[]",
          "name": "returnData",
          "type": "tuple[]"
        }
      ],
      "stateMutability": "nonpayable",
      "type": "function"
    }
  ],
  "args": [],
  "numDeployments": 3,
  "solcInputHash": "8d8e6e1fbf0edfe343a1be3391dbac70",
  "bytecode": "0x60806040523461001f57610011610024565b611229610030823961122990f35b61002a565b60405190565b600080fdfe60806040526004361015610013575b610909565b61001e6000356100dd565b8063055af76d146100d85780630f28c97d146100d35780631e0a95af146100ce57806320136e03146100c957806327e86d6e146100c457806342cbb15c146100bf5780634d2301cc146100ba57806386d516e8146100b5578063a8b0574e146100b0578063c8a1918f146100ab578063ee82ac5e146100a65763f15bd1570361000e576108d3565b61089e565b610822565b6107ed565b610795565b610760565b6106d1565b61069c565b61064e565b6105d3565b61044d565b6103f1565b60e01c90565b60405190565b600080fd5b600080fd5b600080fd5b600080fd5b601f801991011690565b634e487b7160e01b600052604160045260246000fd5b90610127906100fd565b810190811060018060401b0382111761013f57604052565b610107565b906101576101506100e3565b928361011d565b565b60018060401b03811161016f5760208091020190565b610107565b600080fd5b600080fd5b60018060401b03811161019a576101966020916100fd565b0190565b610107565b90826000939282370152565b909291926101c06101bb8261017e565b610144565b938185526020850190828401116101dc576101da9261019f565b565b610179565b9080601f830112156101ff578160206101fc933591016101ab565b90565b6100f8565b92919061021861021382610159565b610144565b938185526020808601920281019183831161026d5781905b83821061023e575050505050565b813560018060401b0381116102685760209161025d87849387016101e1565b815201910190610230565b6100f8565b610174565b9080601f830112156102905781602061028d93359101610204565b90565b6100f8565b906020828203126102c457600082013560018060401b0381116102bf576102bc9201610272565b90565b6100f3565b6100ee565b90565b6102d5906102c9565b9052565b5190565b60209181520190565b60200190565b5190565b60209181520190565b60005b83811061030d575050906000910152565b8060209183015181850152016102fc565b61033d61034660209361034b93610334816102ec565b938480936102f0565b958691016102f9565b6100fd565b0190565b906103599161031e565b90565b60200190565b9061037661036f836102d9565b80926102dd565b9081610387602083028401946102e6565b926000915b83831061039b57505050505090565b909192939460206103bd6103b78385600195038752895161034f565b9761035c565b930193019193929061038c565b916103ee926103e1604082019360008301906102cc565b6020818403910152610362565b90565b3461042257610409610404366004610295565b610be1565b9061041e6104156100e3565b928392836103ca565b0390f35b6100e9565b600091031261043257565b6100ee565b919061044b906000602085019401906102cc565b565b3461047d5761045d366004610427565b610479610468610cac565b6104706100e3565b91829182610437565b0390f35b6100e9565b151590565b61049081610482565b0361049757565b600080fd5b905035906104a982610487565b565b9190916040818403126104ea576104c5836000830161049c565b92602082013560018060401b0381116104e5576104e29201610272565b90565b6100f3565b6100ee565b5190565b60209181520190565b60200190565b61050b90610482565b9052565b61053c916020604082019261052c60008201516000850190610502565b015190602081840391015261031e565b90565b906105499161050f565b90565b60200190565b9061056661055f836104ef565b80926104f3565b9081610577602083028401946104fc565b926000915b83831061058b57505050505090565b909192939460206105ad6105a78385600195038752895161053f565b9761054c565b930193019193929061057c565b6105d09160208201916000818403910152610552565b90565b34610604576106006105ef6105e93660046104ab565b90610e66565b6105f76100e3565b918291826105ba565b0390f35b6100e9565b90565b61061590610609565b9052565b61063e61064b949293610634606084019560008501906102cc565b602083019061060c565b6040818403910152610552565b90565b346106815761067d610669610664366004610295565b610f5c565b6106749391936100e3565b93849384610619565b0390f35b6100e9565b919061069a9060006020850194019061060c565b565b346106cc576106ac366004610427565b6106c86106b7610fe1565b6106bf6100e3565b91829182610686565b0390f35b6100e9565b34610701576106e1366004610427565b6106fd6106ec611002565b6106f46100e3565b91829182610437565b0390f35b6100e9565b60018060a01b031690565b61071a90610706565b90565b61072681610711565b0361072d57565b600080fd5b9050359061073f8261071d565b565b9060208282031261075b5761075891600001610732565b90565b6100ee565b346107905761078c61077b610776366004610741565b61100f565b6107836100e3565b91829182610437565b0390f35b6100e9565b346107c5576107a5366004610427565b6107c16107b061101c565b6107b86100e3565b91829182610437565b0390f35b6100e9565b6107d390610711565b9052565b91906107eb906000602085019401906107ca565b565b3461081d576107fd366004610427565b61081961080861102e565b6108106100e3565b918291826107d7565b0390f35b6100e9565b346108565761085261083e6108383660046104ab565b90611043565b6108499391936100e3565b93849384610619565b0390f35b6100e9565b610864816102c9565b0361086b57565b600080fd5b9050359061087d8261085b565b565b906020828203126108995761089691600001610870565b90565b6100ee565b346108ce576108ca6108b96108b436600461087f565b611070565b6108c16100e3565b91829182610686565b0390f35b6100e9565b34610904576108eb6108e6366004610295565b611127565b906109006108f76100e3565b928392836103ca565b0390f35b6100e9565b600080fd5b600090565b606090565b9061092a61092583610159565b610144565b918252565b606090565b60005b82811061094357505050565b60209061094e61092f565b8184015201610937565b9061097d61096583610918565b926020806109738693610159565b9201910390610934565b565b90565b90565b61099961099461099e9261097f565b610982565b6102c9565b90565b60016109ad91016102c9565b90565b634e487b7160e01b600052603260045260246000fd5b906109d0826102d9565b8110156109e1576020809102010190565b6109b0565b6109ef90610706565b90565b6109fb816109e6565b03610a0257565b600080fd5b90505190610a14826109f2565b565b90929192610a2b610a268261017e565b610144565b93818552602085019082840111610a4757610a45926102f9565b565b610179565b9080601f83011215610a6a57816020610a6793519101610a16565b90565b6100f8565b919091604081840312610aae57610a898360008301610a07565b92602082015160018060401b038111610aa957610aa69201610a4c565b90565b6100f3565b6100ee565b610ac7610ac2610acc92610706565b610982565b610706565b90565b610ad890610ab3565b90565b610ae490610acf565b90565b90610af9610af48361017e565b610144565b918252565b606090565b3d600014610b2057610b143d610ae7565b903d6000602084013e5b565b610b28610afe565b90610b1e565b60209181520190565b60207f616c6c2063616c6c206661696c65640000000000000000000000000000000000917f426c65784d756c746963616c6c206167677265676174653a207374617469636360008201520152565b610b92602f604092610b2e565b610b9b81610b37565b0190565b610bb59060208101906000818303910152610b85565b90565b15610bbf57565b610bc76100e3565b62461bcd60e51b815280610bdd60048201610b9f565b0390fd5b610be961090e565b50610bf2610913565b504390610c06610c01826102d9565b610958565b91610c116000610985565b5b80610c2d610c27610c22866102d9565b6102c9565b916102c9565b1015610ca657610ca190610c9a600080610c6c610c65610c4e8987906109c6565b516020610c5a826102ec565b818301019101610a6f565b9190610adb565b90602081019051915afa610c87610c81610b03565b91610bb8565b868391610c9483836109c6565b526109c6565b51506109a1565b610c12565b50929050565b610cb461090e565b504290565b606090565b60018060401b038111610cd45760208091020190565b610107565b90610ceb610ce683610cbe565b610144565b918252565b610cfa6040610144565b90565b600090565b610d0a610cf0565b9060208083610d17610cfd565b815201610d2261092f565b81525050565b610d30610d02565b90565b60005b828110610d4257505050565b602090610d4d610d28565b8184015201610d36565b90610d7c610d6483610cd9565b92602080610d728693610cbe565b9201910390610d33565b565b60207f6400000000000000000000000000000000000000000000000000000000000000917f4d756c746963616c6c32206167677265676174653a2063616c6c206661696c6560008201520152565b610dd96021604092610b2e565b610de281610d7e565b0190565b610dfc9060208101906000818303910152610dcc565b90565b15610e0657565b610e0e6100e3565b62461bcd60e51b815280610e2460048201610de6565b0390fd5b610e326040610144565b90565b90610e3f90610482565b9052565b52565b90610e50826104ef565b811015610e61576020809102010190565b6109b0565b919091610e71610cb9565b50610e83610e7e846102d9565b610d57565b92610e8e6000610985565b5b80610eaa610ea4610e9f856102d9565b6102c9565b916102c9565b1015610f5257610f3f90610f38600080610ee9610ee2610ecb8887906109c6565b516020610ed7826102ec565b818301019101610a6f565b9190610adb565b9082602082019151925af1610f25610eff610b03565b9187610f44575b91610f1c610f12610e28565b9360008501610e35565b60208301610e43565b878391610f328383610e46565b52610e46565b51506109a1565b610e8f565b610f4d81610dff565b610f06565b505050565b600090565b610f8290610f6861090e565b50610f71610f57565b50610f7a610cb9565b506001611043565b909192565b90565b610f9e610f99610fa392610f87565b610982565b6102c9565b90565b634e487b7160e01b600052601160045260246000fd5b610fcb610fd1919392936102c9565b926102c9565b8203918211610fdc57565b610fa6565b610fe9610f57565b50610ffe43610ff86001610f8a565b90610fbc565b4090565b61100a61090e565b504390565b61101761090e565b503190565b61102461090e565b504590565b600090565b611036611029565b5061104041610adb565b90565b909161104d61090e565b50611056610f57565b5061105f610cb9565b5061106d4393434093610e66565b90565b611078610f57565b504090565b60207f696c656400000000000000000000000000000000000000000000000000000000917f426c65784d756c746963616c6c206167677265676174653a2063616c6c20666160008201520152565b6110d86024604092610b2e565b6110e18161107d565b0190565b6110fb90602081019060008183039101526110cb565b90565b1561110557565b61110d6100e3565b62461bcd60e51b815280611123600482016110e5565b0390fd5b61112f61090e565b50611138610913565b50439061114c611147826102d9565b610958565b916111576000610985565b5b8061117361116d611168866102d9565b6102c9565b916102c9565b10156111ed576111e8906111e16000806111b26111ab6111948987906109c6565b5160206111a0826102ec565b818301019101610a6f565b9190610adb565b9082602082019151925af16111ce6111c8610b03565b916110fe565b8683916111db83836109c6565b526109c6565b51506109a1565b611158565b5092905056fea2646970667358221220209ad1a3b513e085a85b673ce4928ea6f74cd9cbef41ee075e1167ff307c5de364736f6c63430008180033",
  "devdoc": {
    "kind": "dev",
    "methods": {},
    "version": 1
  },
  "userdoc": {
    "kind": "user",
    "methods": {},
    "version": 1
  },
  "storageLayout": {
    "storage": [],
    "types": null
  }
}