{
  "address": "0x279aE2a6C541C8d6402Dc291088b3c48c3797A2e",
  "abi": [
    {
      "inputs": [
        {
          "internalType": "address",
          "name": "authority",
          "type": "address"
        }
      ],
      "name": "AccessManagedInvalidAuthority",
      "type": "error"
    },
    {
      "inputs": [
        {
          "internalType": "address",
          "name": "caller",
          "type": "address"
        },
        {
          "internalType": "uint32",
          "name": "delay",
          "type": "uint32"
        }
      ],
      "name": "AccessManagedRequiredDelay",
      "type": "error"
    },
    {
      "inputs": [
        {
          "internalType": "address",
          "name": "caller",
          "type": "address"
        }
      ],
      "name": "AccessManagedUnauthorized",
      "type": "error"
    },
    {
      "inputs": [
        {
          "internalType": "int256",
          "name": "value",
          "type": "int256"
        }
      ],
      "name": "SafeCastOverflowedIntToUint",
      "type": "error"
    },
    {
      "anonymous": false,
      "inputs": [
        {
          "indexed": false,
          "internalType": "uint16",
          "name": "market",
          "type": "uint16"
        },
        {
          "indexed": false,
          "internalType": "uint256",
          "name": "refPrice",
          "type": "uint256"
        },
        {
          "indexed": false,
          "internalType": "uint256",
          "name": "fastPrice",
          "type": "uint256"
        },
        {
          "indexed": false,
          "internalType": "uint256",
          "name": "cumulativeRefDelta",
          "type": "uint256"
        },
        {
          "indexed": false,
          "internalType": "uint256",
          "name": "cumulativeFastDelta",
          "type": "uint256"
        }
      ],
      "name": "MaxCumulativeDeltaDiffExceeded",
      "type": "event"
    },
    {
      "anonymous": false,
      "inputs": [
        {
          "indexed": false,
          "internalType": "uint16",
          "name": "market",
          "type": "uint16"
        },
        {
          "indexed": false,
          "internalType": "uint256",
          "name": "refPrice",
          "type": "uint256"
        },
        {
          "indexed": false,
          "internalType": "uint256",
          "name": "fastPrice",
          "type": "uint256"
        },
        {
          "indexed": false,
          "internalType": "uint256",
          "name": "cumulativeRefDelta",
          "type": "uint256"
        },
        {
          "indexed": false,
          "internalType": "uint256",
          "name": "cumulativeFastDelta",
          "type": "uint256"
        }
      ],
      "name": "PriceData",
      "type": "event"
    },
    {
      "anonymous": false,
      "inputs": [
        {
          "indexed": false,
          "internalType": "address",
          "name": "feed",
          "type": "address"
        },
        {
          "indexed": true,
          "internalType": "uint16",
          "name": "market",
          "type": "uint16"
        },
        {
          "indexed": false,
          "internalType": "uint256",
          "name": "price",
          "type": "uint256"
        }
      ],
      "name": "UpdatePrice",
      "type": "event"
    },
    {
      "inputs": [
        {
          "internalType": "uint16",
          "name": "market",
          "type": "uint16"
        },
        {
          "internalType": "bool",
          "name": "_maximise",
          "type": "bool"
        }
      ],
      "name": "getChainPrice",
      "outputs": [
        {
          "internalType": "uint256",
          "name": "",
          "type": "uint256"
        }
      ],
      "stateMutability": "view",
      "type": "function"
    },
    {
      "inputs": [
        {
          "internalType": "uint16",
          "name": "market",
          "type": "uint16"
        },
        {
          "internalType": "uint256",
          "name": "_referencePrice",
          "type": "uint256"
        },
        {
          "internalType": "bool",
          "name": "_maximise",
          "type": "bool"
        }
      ],
      "name": "getFastPrice",
      "outputs": [
        {
          "internalType": "uint256",
          "name": "",
          "type": "uint256"
        }
      ],
      "stateMutability": "view",
      "type": "function"
    },
    {
      "inputs": [
        {
          "internalType": "uint16",
          "name": "market",
          "type": "uint16"
        },
        {
          "internalType": "bool",
          "name": "_maximise",
          "type": "bool"
        }
      ],
      "name": "getPrice",
      "outputs": [
        {
          "internalType": "uint256",
          "name": "",
          "type": "uint256"
        }
      ],
      "stateMutability": "view",
      "type": "function"
    },
    {
      "inputs": [],
      "name": "initDefaultOracleConfig",
      "outputs": [],
      "stateMutability": "nonpayable",
      "type": "function"
    },
    {
      "inputs": [
        {
          "internalType": "uint16",
          "name": "market",
          "type": "uint16"
        }
      ],
      "name": "priceFeed",
      "outputs": [
        {
          "internalType": "address",
          "name": "",
          "type": "address"
        }
      ],
      "stateMutability": "view",
      "type": "function"
    },
    {
      "inputs": [
        {
          "internalType": "uint16[]",
          "name": "_market",
          "type": "uint16[]"
        },
        {
          "internalType": "uint256[]",
          "name": "_maxCumulativeDeltaDiffs",
          "type": "uint256[]"
        }
      ],
      "name": "setMaxCumulativeDeltaDiffs",
      "outputs": [],
      "stateMutability": "nonpayable",
      "type": "function"
    },
    {
      "inputs": [
        {
          "components": [
            {
              "internalType": "uint32",
              "name": "maxDeviationBP",
              "type": "uint32"
            },
            {
              "internalType": "uint32",
              "name": "priceDuration",
              "type": "uint32"
            },
            {
              "internalType": "uint32",
              "name": "maxPriceUpdateDelay",
              "type": "uint32"
            },
            {
              "internalType": "uint32",
              "name": "priceDataInterval",
              "type": "uint32"
            },
            {
              "internalType": "uint32",
              "name": "sampleSpace",
              "type": "uint32"
            }
          ],
          "internalType": "struct OracleHandler.ConfigStruct",
          "name": "_config",
          "type": "tuple"
        }
      ],
      "name": "setOracleConfig",
      "outputs": [],
      "stateMutability": "nonpayable",
      "type": "function"
    },
    {
      "inputs": [
        {
          "internalType": "uint16[]",
          "name": "_markets",
          "type": "uint16[]"
        },
        {
          "internalType": "uint256[]",
          "name": "_prices",
          "type": "uint256[]"
        }
      ],
      "name": "setPrices",
      "outputs": [],
      "stateMutability": "nonpayable",
      "type": "function"
    },
    {
      "inputs": [
        {
          "internalType": "address",
          "name": "_feed",
          "type": "address"
        }
      ],
      "name": "setUSDT",
      "outputs": [],
      "stateMutability": "nonpayable",
      "type": "function"
    },
    {
      "inputs": [],
      "name": "usdtFeed",
      "outputs": [
        {
          "internalType": "address",
          "name": "",
          "type": "address"
        }
      ],
      "stateMutability": "view",
      "type": "function"
    }
  ],
  "transactionHash": "0xba5974fa12571fcc815a30cff3294578b115b7d2bb1f3c7783d8ab3a670479f6",
  "args": [],
  "numDeployments": 3,
  "solcInputHash": "ae8e633405c82115b04e4b26f122c4f8",
  "bytecode": "0x60806040523461002057610011610025565b612afb620000318239612afb90f35b61002b565b60405190565b600080fdfe60806040526004361015610013575b610750565b61001e6000356100bd565b80632e6e6ea9146100b85780633d58e05c146100b357806350c1b923146100ae57806364b6db53146100a957806367af1a03146100a4578063aa94bda81461009f578063cd5ba3d41461009a578063db61122514610095578063df66914e146100905763f224f69a0361000e5761071c565b6106e7565b6106b1565b61067e565b610582565b610365565b61031f565b6102be565b610240565b6101b1565b60e01c90565b60405190565b600080fd5b600080fd5b600080fd5b61ffff1690565b6100e8816100d8565b036100ef57565b600080fd5b90503590610101826100df565b565b90565b61010f81610103565b0361011657565b600080fd5b9050359061012882610106565b565b151590565b6101388161012a565b0361013f57565b600080fd5b905035906101518261012f565b565b90916060828403126101895761018661016f84600085016100f4565b9361017d816020860161011b565b93604001610144565b90565b6100ce565b61019790610103565b9052565b91906101af9060006020850194019061018e565b565b346101e2576101de6101cd6101c7366004610153565b9161075a565b6101d56100c3565b9182918261019b565b0390f35b6100c9565b90602082820312610201576101fe916000016100f4565b90565b6100ce565b60018060a01b031690565b61021a90610206565b90565b61022690610211565b9052565b919061023e9060006020850194019061021d565b565b346102705761026c61025b6102563660046101e7565b6107e1565b6102636100c3565b9182918261022a565b0390f35b6100c9565b61027e81610211565b0361028557565b600080fd5b9050359061029782610275565b565b906020828203126102b3576102b09160000161028a565b90565b6100ce565b60000190565b346102ec576102d66102d1366004610299565b6108a2565b6102de6100c3565b806102e8816102b8565b0390f35b6100c9565b919060408382031261031a578061030e61031792600086016100f4565b93602001610144565b90565b6100ce565b346103505761034c61033b6103353660046102f1565b906108ad565b6103436100c3565b9182918261019b565b0390f35b6100c9565b600091031261036057565b6100ce565b3461039357610375366004610355565b61037d610c18565b6103856100c3565b8061038f816102b8565b0390f35b6100c9565b600080fd5b601f801991011690565b634e487b7160e01b600052604160045260246000fd5b906103c79061039d565b810190811060018060401b038211176103df57604052565b6103a7565b906103f76103f06100c3565b92836103bd565b565b60018060401b03811161040f5760208091020190565b6103a7565b600080fd5b9092919261042e610429826103f9565b6103e4565b938185526020808601920283019281841161046b57915b8383106104525750505050565b6020809161046084866100f4565b815201920191610445565b610414565b9080601f8301121561048e5781602061048b93359101610419565b90565b610398565b60018060401b0381116104a95760208091020190565b6103a7565b909291926104c36104be82610493565b6103e4565b938185526020808601920283019281841161050057915b8383106104e75750505050565b602080916104f5848661011b565b8152019201916104da565b610414565b9080601f8301121561052357816020610520933591016104ae565b90565b610398565b91909160408184031261057d57600081013560018060401b0381116105785783610553918301610470565b92602082013560018060401b038111610573576105709201610505565b90565b6100d3565b6100d3565b6100ce565b346105b15761059b610595366004610528565b90610dc6565b6105a36100c3565b806105ad816102b8565b0390f35b6100c9565b600080fd5b63ffffffff1690565b6105cd816105bb565b036105d457565b600080fd5b905035906105e6826105c4565b565b919060a08382031261065a576106539061060260a06103e4565b9361061082600083016105d9565b600086015261062282602083016105d9565b602086015261063482604083016105d9565b604086015261064682606083016105d9565b60608601526080016105d9565b6080830152565b6105b6565b9060a08282031261067957610676916000016105e8565b90565b6100ce565b346106ac5761069661069136600461065f565b610df3565b61069e6100c3565b806106a8816102b8565b0390f35b6100c9565b346106e2576106de6106cd6106c73660046102f1565b90610dfe565b6106d56100c3565b9182918261019b565b0390f35b6100c9565b34610717576106f7366004610355565b610713610702610e14565b61070a6100c3565b9182918261022a565b0390f35b6100c9565b3461074b5761073561072f366004610528565b90610e4b565b61073d6100c3565b80610747816102b8565b0390f35b6100c9565b600080fd5b600090565b9161077092610767610755565b50919091611048565b90565b600090565b90565b61078f61078a610794926100d8565b610778565b6100d8565b90565b906107a19061077b565b600052602052604060002090565b60001c90565b60018060a01b031690565b6107cc6107d1916107af565b6107b5565b90565b6107de90546107c0565b90565b610801610806916107f0610773565b5060026107fb61122f565b01610797565b6107d4565b90565b6108129061088c565b565b60001b90565b9061082b60018060a01b0391610814565b9181191691161790565b61084961084461084e92610206565b610778565b610206565b90565b61085a90610835565b90565b61086690610851565b90565b90565b9061088161087c6108889261085d565b610869565b825461081a565b9055565b6108a090600061089a61122f565b0161086c565b565b6108ab90610809565b565b906108c0916108ba610755565b50611290565b90565b6108cb610b77565b565b6108d760a06103e4565b90565b90565b6108f16108ec6108f6926108da565b610778565b6105bb565b90565b90610903906105bb565b9052565b90565b61091e61091961092392610907565b610778565b6105bb565b90565b90565b61093d61093861094292610926565b610778565b6105bb565b90565b90565b61095c61095761096192610945565b610778565b6105bb565b90565b90565b61097b61097661098092610964565b610778565b6105bb565b90565b61098d90516105bb565b90565b9061099f63ffffffff91610814565b9181191691161790565b6109bd6109b86109c2926105bb565b610778565b6105bb565b90565b90565b906109dd6109d86109e4926109a9565b6109c5565b8254610990565b9055565b60201b90565b90610a0063ffffffff60201b916109e8565b9181191691161790565b90610a1f610a1a610a26926109a9565b6109c5565b82546109ee565b9055565b60401b90565b90610a4263ffffffff60401b91610a2a565b9181191691161790565b90610a61610a5c610a68926109a9565b6109c5565b8254610a30565b9055565b60601b90565b90610a8463ffffffff60601b91610a6c565b9181191691161790565b90610aa3610a9e610aaa926109a9565b6109c5565b8254610a72565b9055565b60801b90565b90610ac663ffffffff60801b91610aae565b9181191691161790565b90610ae5610ae0610aec926109a9565b6109c5565b8254610ab4565b9055565b90610b6360806000610b6994610b13828201610b0d848801610983565b906109c8565b610b2b828201610b2560208801610983565b90610a0a565b610b43828201610b3d60408801610983565b90610a4c565b610b5b828201610b5560608801610983565b90610a8e565b019201610983565b90610ad0565b565b90610b7591610af0565b565b606461012c610e10603c90600192610b8d6108cd565b94610b97906108dd565b6000860190610ba5916108f9565b610bae9061090a565b6020850190610bbc916108f9565b610bc590610929565b6040840190610bd3916108f9565b610bdc90610948565b6060830190610bea916108f9565b610bf390610967565b6080820190610c01916108f9565b610c0961122f565b60010190610c1691610b6b565b565b610c206108c3565b565b90610c2c91610d42565b565b90565b610c45610c40610c4a92610c2e565b610778565b610103565b90565b6001610c599101610103565b90565b5190565b634e487b7160e01b600052603260045260246000fd5b5190565b90610c8482610c76565b811015610c95576020809102010190565b610c60565b610ca49051610103565b90565b90610cb182610c5c565b811015610cc2576020809102010190565b610c60565b610cd190516100d8565b90565b90610cde9061077b565b600052602052604060002090565b90610cf960001991610814565b9181191691161790565b610d17610d12610d1c92610103565b610778565b610103565b90565b90565b90610d37610d32610d3e92610d03565b610d1f565b8254610cec565b9055565b9190610d4e6000610c31565b5b80610d6a610d64610d5f87610c5c565b610103565b91610103565b1015610dc057610dbb90610db6610d8a610d85858490610c7a565b610c9a565b610db16005610d9761122f565b01610dab610da68a8790610ca7565b610cc7565b90610cd4565b610d22565b610c4d565b610d4f565b50509050565b90610dd091610c22565b565b610ddb90610ddd565b565b610df1906001610deb61122f565b01610b6b565b565b610dfc90610dd2565b565b90610e1191610e0b610755565b5061131c565b90565b610e1c610773565b50610e306000610e2a61122f565b016107d4565b90565b90610e3d91610e3f565b565b90610e499161133e565b565b90610e5591610e33565b565b90610e619061077b565b600052602052604060002090565b60a01c90565b63ffffffff1690565b610e8a610e8f91610e6f565b610e75565b90565b610e9c9054610e7e565b90565b610eb3610eae610eb8926105bb565b610778565b610103565b90565b90565b610eca610ecf916107af565b610ebb565b90565b610edc9054610ebe565b90565b60401c90565b610ef1610ef691610edf565b610e75565b90565b610f039054610ee5565b90565b634e487b7160e01b600052601160045260246000fd5b610f2b610f3191939293610103565b92610103565b8201809211610f3c57565b610f06565b60201c90565b610f53610f5891610f41565b610e75565b90565b610f659054610f47565b90565b610f77610f7d91939293610103565b92610103565b8203918211610f8857565b610f06565b90565b610fa4610f9f610fa992610f8d565b610778565b610103565b90565b610fb7612710610f90565b90565b610fc9610fcf91939293610103565b92610103565b91610fdb838202610103565b928184041490151715610fea57565b610f06565b634e487b7160e01b600052601260045260246000fd5b61101161101791610103565b91610103565b908115611022570490565b610fef565b611033611038916107af565b610e75565b90565b6110459054611027565b90565b9091611052610755565b5061107b6110766000611070600661106861122f565b018690610e57565b01610e92565b610e9f565b91611099611094600461108c61122f565b018390610cd4565b610ed2565b92426110d46110ce6110c9846110c36110be600060016110b761122f565b0101610ef9565b610e9f565b90610f1c565b610103565b91610103565b119081156111c8575b5080156111ad575b6111a757836110fc6110f685610103565b91610103565b1160001461118e5761113461112e611127611118878790610f68565b5b611121610fac565b90610fba565b8690611005565b916113b5565b9081611155575b5061114f5761114c9291909161143b565b90565b50905090565b905061118661118061117b6111766000600161116f61122f565b010161103b565b610e9f565b610103565b91610103565b11153861113b565b61113461112e6111276111a2868890610f68565b611119565b50505090565b50826111c26111bc6000610c31565b91610103565b146110e5565b90506112046111fe6111f942936111f36111ee600060016111e761122f565b0101610f5b565b610e9f565b90610f1c565b610103565b91610103565b11386110dd565b7f215c1de8a6459dcf0789cdceef063745b34797042fd1550737c0f263affdef6490565b61123761120b565b90565b90565b61125161124c6112569261123a565b610778565b610103565b90565b61126e68327cb2734119d3b7a9601e1b61123d565b90565b90565b61128861128361128d92611271565b610778565b610103565b90565b906112af9061129d610755565b506112a9838290611901565b92611901565b816112dd6112d76112d26000196112cd6112c7611259565b91611274565b611005565b610103565b91610103565b106112ff576112f76112fc926112f1611259565b90611005565b610fba565b90565b6113146113199261130e611259565b90610fba565b611005565b90565b61133b91611328610755565b50611334828290611290565b9091611048565b90565b91909161134b6000610c31565b5b8061136761136161135c85610c5c565b610103565b91610103565b10156113aa576113a5906113a0611387611382858490610ca7565b610cc7565b61139a611395888590610c7a565b610c9a565b90611e94565b610c4d565b61134c565b50509050565b600090565b6113bd6113b0565b506113c78161231d565b9392509050826113df6113d983610103565b91610103565b1192836113f8575b5050506113f357600190565b600090565b61143292935061142261141161142c9361142793610f68565b94600561141c61122f565b01610cd4565b610ed2565b610103565b91610103565b113880806113e7565b91611444610755565b50600014611474578161145f61145983610103565b91610103565b1160001461146d57505b5b90565b9050611469565b8161148761148183610103565b91610103565b1060001461149657505b61146a565b9050611491565b6114b16114ac6114b692610c2e565b610778565b610206565b90565b6114c29061149d565b90565b60209181520190565b60007f5072696365466565643a20696e76616c69642070726963652066656564000000910152565b611503601d6020926114c5565b61150c816114ce565b0190565b61152690602081019060008183039101526114f6565b90565b1561153057565b6115386100c3565b62461bcd60e51b81528061154e60048201611510565b0390fd5b61155b90610835565b90565b61156790611552565b90565b61157390610851565b90565b60e01b90565b60018060501b031690565b6115908161157c565b0361159757565b600080fd5b905051906115a982611587565b565b906020828203126115c5576115c29160000161159c565b90565b6100ce565b6115d26100c3565b3d6000823e3d90fd5b6115ef6115ea6115f492610c2e565b610778565b61157c565b90565b6001611603910161157c565b90565b60801c90565b61161861161d91611606565b610e75565b90565b61162a905461160c565b90565b61164161163c611646926105bb565b610778565b61157c565b90565b61165561165b9161157c565b9161157c565b90039060018060501b03821161166d57565b610f06565b90565b61167e81611672565b0361168557565b600080fd5b9050519061169782611675565b565b905051906116a682610106565b565b919060a0838203126116fa576116c1816000850161159c565b926116cf826020830161168a565b926116f76116e08460408501611699565b936116ee8160608601611699565b9360800161159c565b90565b6100ce565b6117089061157c565b9052565b9190611720906000602085019401906116ff565b565b61173661173161173b92610c2e565b610778565b611672565b90565b60007f5072696365466565643a20696e76616c69642070726963650000000000000000910152565b61177360186020926114c5565b61177c8161173e565b0190565b6117969060208101906000818303910152611766565b90565b156117a057565b6117a86100c3565b62461bcd60e51b8152806117be60048201611780565b0390fd5b6117d66117d16117db92611672565b610778565b610103565b90565b906020828203126117f8576117f59160000161168a565b90565b6100ce565b60007f5072696365466565643a20636f756c64206e6f74206665746368207072696365910152565b611831602080926114c5565b61183a816117fd565b0190565b6118549060208101906000818303910152611825565b90565b1561185e57565b6118666100c3565b62461bcd60e51b81528061187c6004820161183e565b0390fd5b60ff1690565b61188f81611880565b0361189657565b600080fd5b905051906118a882611886565b565b906020828203126118c4576118c19160000161189b565b90565b6100ce565b6118dd6118d86118e292611880565b610778565b610103565b90565b6118ee90610103565b604d81116118fc57600a0a90565b610f06565b919061190b610755565b5061194e61192c611927600261191f61122f565b018690610797565b6107d4565b61194761194161193c60006114b9565b610211565b91610211565b1415611529565b6119586000610c31565b6119a0602061198a61198561198061197b600261197361122f565b018a90610797565b6107d4565b61155e565b61156a565b63668a0f02906119986100c3565b938492611576565b825281806119b0600482016102b8565b03915afa908115611dbb57600091611d8d575b506119ce60006115db565b5b806119f76119f16119ec600060016119e561122f565b0101611620565b61162d565b9161157c565b1015611d715781611a10611a0a8361157c565b9161157c565b1115611c7f57611a1e610755565b5080611a33611a2d60006115db565b9161157c565b14600014611ba257611a836020611a6d611a68611a63611a5e6002611a5661122f565b018c90610797565b6107d4565b61155e565b61156a565b6350d25bcd90611a7b6100c3565b938492611576565b82528180611a93600482016102b8565b03915afa8015611b9d57611acc91600091611b6f575b50611ac781611ac1611abb6000611722565b91611672565b13611799565b6117c2565b5b83611ae1611adb6000610c31565b91610103565b14611b63578480611b49575b611b3d57611afb851561012a565b80611b23575b611b16575b50611b11905b6115f7565b6119cf565b611b119193509290611b06565b5080611b37611b3186610103565b91610103565b10611b01565b611b1191935092611b0c565b5080611b5d611b5786610103565b91610103565b11611aed565b611b1191935092611b0c565b611b90915060203d8111611b96575b611b8881836103bd565b8101906117de565b38611aa9565b503d611b7e565b6115ca565b611c0860a0611bd4611bcf611bca611bc56002611bbd61122f565b018c90610797565b6107d4565b61155e565b61156a565b639a6fc8f590611bfd611be8878790611649565b92611bf16100c3565b95869485938493611576565b83526004830161170c565b03915afa8015611c7a57611c4491600080929050611c49575b50611c3f81611c39611c336000611722565b91611672565b13611799565b6117c2565b611acd565b611c6a915060a03d8111611c73575b611c6281836103bd565b8101906116a8565b50505090611c21565b503d611c58565b6115ca565b505090506020611cd3611cce611cc9611cc4611ce996975b611cb487611cae611ca86000610c31565b91610103565b11611857565b6002611cbe61122f565b01610797565b6107d4565b61155e565b61156a565b63313ce56790611ce16100c3565b948592611576565b82528180611cf9600482016102b8565b03915afa918215611d6c57611d2f611d20611d3b94611d3593600091611d3e575b506118c9565b92611d29611259565b90610fba565b916118e5565b90611005565b90565b611d5f915060203d8111611d65575b611d5781836103bd565b8101906118aa565b38611d1a565b503d611d4d565b6115ca565b505090506020611cd3611cce611cc9611cc4611ce99697611c97565b611dae915060203d8111611db4575b611da681836103bd565b8101906115ab565b386119c3565b503d611d9c565b6115ca565b60601c90565b611dd2611dd791611dc0565b610e75565b90565b611de49054611dc6565b90565b90565b611dfe611df9611e0392611de7565b610778565b610103565b90565b611e1262989680611dea565b90565b611e1e906100d8565b9052565b90959492611e6e94611e5d611e6792611e53608096611e4960a088019c6000890190611e15565b602087019061018e565b604085019061018e565b606083019061018e565b019061018e565b565b916020611e92929493611e8b6040820196600083019061021d565b019061018e565b565b90611eb2611ead6002611ea561122f565b018490610797565b6107d4565b611ecd611ec7611ec260006114b9565b610211565b91610211565b03611f38575b611ef181611eec6004611ee461122f565b018590610cd4565b610d22565b339190611f1e7ff653c98010ec108e873f9d5638c10569732da12002329d3774f0d71d8e8665149261077b565b92611f33611f2a6100c3565b92839283611e70565b0390a2565b611f41826123b5565b611f5e611f596004611f5161122f565b018590610cd4565b610ed2565b611f678461231d565b94929190949180611f81611f7b6000610c31565b91610103565b1161207e575b505080611ff191611fa0611f9a87610103565b91610103565b118061203e575b611ff9575b611fba878487908492612872565b869293947f42c806f38e7c76d89b3ad48a1519c8ba45071b5c990c34328b7f97e342781c1f95611fe86100c3565b95869586611e22565b0390a1611ed3565b868385916120368885907f47cda1c6d4dcb5355efae6dfde16ddf80dbe6f35912baa2068348a0fd49f5f439561202d6100c3565b95869586611e22565b0390a1611fac565b5061204a818690610f68565b61207861207261206d612068600561206061122f565b018c90610cd4565b610ed2565b610103565b91610103565b11611fa7565b839591929561209561208f83610103565b91610103565b116000146121e2576120a8848290610f68565b5b91856120bd6120b78a610103565b91610103565b116000146121cf576120f96120d3878a90610f68565b5b946120f36120ee600060016120e761122f565b0101611dda565b610e9f565b90611005565b61213261212c6121274261212161211c6000600161211561122f565b0101611dda565b610e9f565b90611005565b610103565b91610103565b0361218f575b61217b61216b61218894612165611ff19795612160612182969361215a611e06565b90610fba565b611005565b90610f1c565b9792612175611e06565b90610fba565b8690611005565b90610f1c565b9038611f87565b509450611ff19161218261217b61216b612188946121656121b06000610c31565b9a6121606121be6000610c31565b9c9650509597505094505050612138565b6120f96121dd898890610f68565b6120d4565b6121ed818590610f68565b6120a9565b60018060a01b031690565b61220961220e916107af565b6121f2565b90565b61221b90546121fd565b90565b9061222890610206565b9052565b60c01c90565b61223e6122439161222c565b610e75565b90565b6122509054612232565b90565b61225f612264916100bd565b610e75565b90565b6122719054612253565b90565b61227e60806103e4565b90565b906122e66122dd6000612292612274565b946122a96122a1838301612211565b83880161221e565b6122c06122b7838301610e92565b602088016108f9565b6122d76122ce838301612246565b604088016108f9565b01612267565b606084016108f9565b565b6122f190612281565b90565b6122fe9051610206565b90565b61231561231061231a92610206565b610778565b610103565b90565b61235861235d9161232c610755565b50612335610755565b5061233e610755565b50612347610755565b50600661235261122f565b01610e57565b6122e8565b61237161236c600083016122f4565b612301565b61238561238060208401610983565b610e9f565b926123ae6123a960606123a261239d60408801610983565b610e9f565b9501610983565b610e9f565b9193929190565b6123c7906123c1610755565b50612959565b61240560206123ef6123ea6123e560006123df61122f565b016107d4565b61155e565b61156a565b6350d25bcd906123fd6100c3565b938492611576565b82528180612415600482016102b8565b03915afa80156124cc576124319160009161249e575b50612a71565b8161245f61245961245460001961244f612449611259565b91611274565b611005565b610103565b91610103565b106124815761247961247e92612473611259565b90611005565b610fba565b90565b61249661249b92612490611259565b90610fba565b611005565b90565b6124bf915060203d81116124c5575b6124b781836103bd565b8101906117de565b3861242b565b503d6124ad565b6115ca565b6124e060018060a01b03612301565b90565b60007f466173745072696365466565643a20696e76616c696420726566507269636500910152565b612518601f6020926114c5565b612521816124e3565b0190565b61253b906020810190600081830391015261250b565b90565b1561254557565b61254d6100c3565b62461bcd60e51b81528061256360048201612525565b0390fd5b61257463ffffffff610e9f565b90565b60207f6552656644656c74610000000000000000000000000000000000000000000000917f466173745072696365466565643a20696e76616c69642063756d756c6174697660008201520152565b6125d260296040926114c5565b6125db81612577565b0190565b6125f590602081019060008183039101526125c5565b90565b156125ff57565b6126076100c3565b62461bcd60e51b81528061261d600482016125df565b0390fd5b61262e63ffffffff610e9f565b90565b60207f654661737444656c746100000000000000000000000000000000000000000000917f466173745072696365466565643a20696e76616c69642063756d756c6174697660008201520152565b61268c602a6040926114c5565b61269581612631565b0190565b6126af906020810190600081830391015261267f565b90565b156126b957565b6126c16100c3565b62461bcd60e51b8152806126d760048201612699565b0390fd5b6126ef6126ea6126f492610103565b610778565b610206565b90565b61270b61270661271092610103565b610778565b6105bb565b90565b61271d60806103e4565b90565b90565b9061273861273361273f92610835565b612720565b825461081a565b9055565b60a01b90565b9061275b63ffffffff60a01b91612743565b9181191691161790565b9061277a612775612781926109a9565b6109c5565b8254612749565b9055565b60c01b90565b9061279d63ffffffff60c01b91612785565b9181191691161790565b906127bc6127b76127c3926109a9565b6109c5565b825461278b565b9055565b906127d963ffffffff60e01b91611576565b9181191691161790565b906127f86127f36127ff926109a9565b6109c5565b82546127c7565b9055565b9061285e60606000612864946128268282016128208488016122f4565b90612723565b61283e82820161283860208801610983565b90612765565b61285682820161285060408801610983565b906127a7565b019201610983565b906127e3565b565b9061287091612803565b565b61294261295794936129396128f2612952956128a7816128a161289b6128966124d1565b610103565b91610103565b1061253e565b6128ca846128c46128be6128b9612567565b610103565b91610103565b106125f8565b6128ed886128e76128e16128dc612621565b610103565b91610103565b106126b2565b6126db565b9561293061291161290b612905426126f7565b956126f7565b926126f7565b9361292761291d612713565b9960008b0161221e565b602089016108f9565b604087016108f9565b606085016108f9565b600661294c61122f565b01610e57565b612866565b565b60206129b96129b46129896129846129cf95612973610755565b50600261297e61122f565b01610797565b6107d4565b6129af816129a86129a261299d60006114b9565b610211565b91610211565b1415611529565b61155e565b61156a565b6350d25bcd906129c76100c3565b938492611576565b825281806129df600482016102b8565b03915afa8015612a4957612a1891600091612a1b575b50612a1381612a0d612a076000611722565b91611672565b13611799565b6117c2565b90565b612a3c915060203d8111612a42575b612a3481836103bd565b8101906117de565b386129f5565b503d612a2a565b6115ca565b612a5790611672565b9052565b9190612a6f90600060208501940190612a4e565b565b612a79610755565b5080612a8e612a886000611722565b91611672565b12612a9f57612a9c906117c2565b90565b612ac190612aab6100c3565b918291635467221960e11b835260048301612a5b565b0390fdfea2646970667358221220693442d128676a7883912b8acdfb556b1c7ff85cfba91065715647353b70902564736f6c63430008180033",
  "devdoc": {
    "errors": {
      "SafeCastOverflowedIntToUint(int256)": [
        {
          "details": "An int value doesn't fit in an uint of `bits` size."
        }
      ]
    },
    "kind": "dev",
    "methods": {},
    "version": 1
  },
  "userdoc": {
    "kind": "user",
    "methods": {},
    "version": 1
  },
  "storageLayout": {
    "storage": [],
    "types": null
  }
}