{
  "address": "0xBc6E531Cd4b3b58fA8B8F7B0Db05705e64447ec8",
  "abi": [
    {
      "inputs": [
        {
          "internalType": "address",
          "name": "authority",
          "type": "address"
        }
      ],
      "name": "AccessManagedInvalidAuthority",
      "type": "error"
    },
    {
      "inputs": [
        {
          "internalType": "address",
          "name": "caller",
          "type": "address"
        },
        {
          "internalType": "uint32",
          "name": "delay",
          "type": "uint32"
        }
      ],
      "name": "AccessManagedRequiredDelay",
      "type": "error"
    },
    {
      "inputs": [
        {
          "internalType": "address",
          "name": "caller",
          "type": "address"
        }
      ],
      "name": "AccessManagedUnauthorized",
      "type": "error"
    },
    {
      "inputs": [
        {
          "internalType": "int256",
          "name": "value",
          "type": "int256"
        }
      ],
      "name": "SafeCastOverflowedIntToUint",
      "type": "error"
    },
    {
      "anonymous": false,
      "inputs": [
        {
          "indexed": false,
          "internalType": "uint16",
          "name": "market",
          "type": "uint16"
        },
        {
          "indexed": false,
          "internalType": "uint256",
          "name": "refPrice",
          "type": "uint256"
        },
        {
          "indexed": false,
          "internalType": "uint256",
          "name": "fastPrice",
          "type": "uint256"
        },
        {
          "indexed": false,
          "internalType": "uint256",
          "name": "cumulativeRefDelta",
          "type": "uint256"
        },
        {
          "indexed": false,
          "internalType": "uint256",
          "name": "cumulativeFastDelta",
          "type": "uint256"
        }
      ],
      "name": "MaxCumulativeDeltaDiffExceeded",
      "type": "event"
    },
    {
      "anonymous": false,
      "inputs": [
        {
          "indexed": false,
          "internalType": "uint16",
          "name": "market",
          "type": "uint16"
        },
        {
          "indexed": false,
          "internalType": "uint256",
          "name": "refPrice",
          "type": "uint256"
        },
        {
          "indexed": false,
          "internalType": "uint256",
          "name": "fastPrice",
          "type": "uint256"
        },
        {
          "indexed": false,
          "internalType": "uint256",
          "name": "cumulativeRefDelta",
          "type": "uint256"
        },
        {
          "indexed": false,
          "internalType": "uint256",
          "name": "cumulativeFastDelta",
          "type": "uint256"
        }
      ],
      "name": "PriceData",
      "type": "event"
    },
    {
      "anonymous": false,
      "inputs": [
        {
          "indexed": false,
          "internalType": "address",
          "name": "feed",
          "type": "address"
        },
        {
          "indexed": true,
          "internalType": "uint16",
          "name": "market",
          "type": "uint16"
        },
        {
          "indexed": false,
          "internalType": "uint256",
          "name": "price",
          "type": "uint256"
        }
      ],
      "name": "UpdatePrice",
      "type": "event"
    },
    {
      "inputs": [
        {
          "internalType": "uint16",
          "name": "market",
          "type": "uint16"
        },
        {
          "internalType": "bool",
          "name": "_maximise",
          "type": "bool"
        }
      ],
      "name": "getChainPrice",
      "outputs": [
        {
          "internalType": "uint256",
          "name": "",
          "type": "uint256"
        }
      ],
      "stateMutability": "view",
      "type": "function"
    },
    {
      "inputs": [
        {
          "internalType": "uint16",
          "name": "market",
          "type": "uint16"
        },
        {
          "internalType": "uint256",
          "name": "_referencePrice",
          "type": "uint256"
        },
        {
          "internalType": "bool",
          "name": "_maximise",
          "type": "bool"
        }
      ],
      "name": "getFastPrice",
      "outputs": [
        {
          "internalType": "uint256",
          "name": "",
          "type": "uint256"
        }
      ],
      "stateMutability": "view",
      "type": "function"
    },
    {
      "inputs": [
        {
          "internalType": "uint16",
          "name": "market",
          "type": "uint16"
        },
        {
          "internalType": "bool",
          "name": "_maximise",
          "type": "bool"
        }
      ],
      "name": "getPrice",
      "outputs": [
        {
          "internalType": "uint256",
          "name": "",
          "type": "uint256"
        }
      ],
      "stateMutability": "view",
      "type": "function"
    },
    {
      "inputs": [],
      "name": "initDefaultOracleConfig",
      "outputs": [],
      "stateMutability": "nonpayable",
      "type": "function"
    },
    {
      "inputs": [
        {
          "internalType": "uint16",
          "name": "market",
          "type": "uint16"
        }
      ],
      "name": "priceFeed",
      "outputs": [
        {
          "internalType": "address",
          "name": "",
          "type": "address"
        }
      ],
      "stateMutability": "view",
      "type": "function"
    },
    {
      "inputs": [
        {
          "internalType": "uint16[]",
          "name": "_market",
          "type": "uint16[]"
        },
        {
          "internalType": "uint256[]",
          "name": "_maxCumulativeDeltaDiffs",
          "type": "uint256[]"
        }
      ],
      "name": "setMaxCumulativeDeltaDiffs",
      "outputs": [],
      "stateMutability": "nonpayable",
      "type": "function"
    },
    {
      "inputs": [
        {
          "components": [
            {
              "internalType": "uint32",
              "name": "maxDeviationBP",
              "type": "uint32"
            },
            {
              "internalType": "uint32",
              "name": "priceDuration",
              "type": "uint32"
            },
            {
              "internalType": "uint32",
              "name": "maxPriceUpdateDelay",
              "type": "uint32"
            },
            {
              "internalType": "uint32",
              "name": "priceDataInterval",
              "type": "uint32"
            },
            {
              "internalType": "uint32",
              "name": "sampleSpace",
              "type": "uint32"
            }
          ],
          "internalType": "struct OracleHandler.ConfigStruct",
          "name": "_config",
          "type": "tuple"
        }
      ],
      "name": "setOracleConfig",
      "outputs": [],
      "stateMutability": "nonpayable",
      "type": "function"
    },
    {
      "inputs": [
        {
          "internalType": "uint16[]",
          "name": "_markets",
          "type": "uint16[]"
        },
        {
          "internalType": "uint256[]",
          "name": "_prices",
          "type": "uint256[]"
        }
      ],
      "name": "setPrices",
      "outputs": [],
      "stateMutability": "nonpayable",
      "type": "function"
    },
    {
      "inputs": [
        {
          "internalType": "address",
          "name": "_feed",
          "type": "address"
        }
      ],
      "name": "setUSDT",
      "outputs": [],
      "stateMutability": "nonpayable",
      "type": "function"
    },
    {
      "inputs": [],
      "name": "usdtFeed",
      "outputs": [
        {
          "internalType": "address",
          "name": "",
          "type": "address"
        }
      ],
      "stateMutability": "view",
      "type": "function"
    }
  ],
  "args": [],
  "numDeployments": 5,
  "solcInputHash": "8d8e6e1fbf0edfe343a1be3391dbac70",
  "bytecode": "0x60806040523461002057610011610025565b612c1e620000318239612c1e90f35b61002b565b60405190565b600080fdfe60806040526004361015610013575b610750565b61001e6000356100bd565b80632e6e6ea9146100b85780633d58e05c146100b357806350c1b923146100ae57806364b6db53146100a957806367af1a03146100a4578063aa94bda81461009f578063cd5ba3d41461009a578063db61122514610095578063df66914e146100905763f224f69a0361000e5761071c565b6106e7565b6106b1565b61067e565b610582565b610365565b61031f565b6102be565b610240565b6101b1565b60e01c90565b60405190565b600080fd5b600080fd5b600080fd5b61ffff1690565b6100e8816100d8565b036100ef57565b600080fd5b90503590610101826100df565b565b90565b61010f81610103565b0361011657565b600080fd5b9050359061012882610106565b565b151590565b6101388161012a565b0361013f57565b600080fd5b905035906101518261012f565b565b90916060828403126101895761018661016f84600085016100f4565b9361017d816020860161011b565b93604001610144565b90565b6100ce565b61019790610103565b9052565b91906101af9060006020850194019061018e565b565b346101e2576101de6101cd6101c7366004610153565b9161075a565b6101d56100c3565b9182918261019b565b0390f35b6100c9565b90602082820312610201576101fe916000016100f4565b90565b6100ce565b60018060a01b031690565b61021a90610206565b90565b61022690610211565b9052565b919061023e9060006020850194019061021d565b565b346102705761026c61025b6102563660046101e7565b6107e1565b6102636100c3565b9182918261022a565b0390f35b6100c9565b61027e81610211565b0361028557565b600080fd5b9050359061029782610275565b565b906020828203126102b3576102b09160000161028a565b90565b6100ce565b60000190565b346102ec576102d66102d1366004610299565b6108a2565b6102de6100c3565b806102e8816102b8565b0390f35b6100c9565b919060408382031261031a578061030e61031792600086016100f4565b93602001610144565b90565b6100ce565b346103505761034c61033b6103353660046102f1565b906108ad565b6103436100c3565b9182918261019b565b0390f35b6100c9565b600091031261036057565b6100ce565b3461039357610375366004610355565b61037d610cfa565b6103856100c3565b8061038f816102b8565b0390f35b6100c9565b600080fd5b601f801991011690565b634e487b7160e01b600052604160045260246000fd5b906103c79061039d565b810190811060018060401b038211176103df57604052565b6103a7565b906103f76103f06100c3565b92836103bd565b565b60018060401b03811161040f5760208091020190565b6103a7565b600080fd5b9092919261042e610429826103f9565b6103e4565b938185526020808601920283019281841161046b57915b8383106104525750505050565b6020809161046084866100f4565b815201920191610445565b610414565b9080601f8301121561048e5781602061048b93359101610419565b90565b610398565b60018060401b0381116104a95760208091020190565b6103a7565b909291926104c36104be82610493565b6103e4565b938185526020808601920283019281841161050057915b8383106104e75750505050565b602080916104f5848661011b565b8152019201916104da565b610414565b9080601f8301121561052357816020610520933591016104ae565b90565b610398565b91909160408184031261057d57600081013560018060401b0381116105785783610553918301610470565b92602082013560018060401b038111610573576105709201610505565b90565b6100d3565b6100d3565b6100ce565b346105b15761059b610595366004610528565b90610ea8565b6105a36100c3565b806105ad816102b8565b0390f35b6100c9565b600080fd5b63ffffffff1690565b6105cd816105bb565b036105d457565b600080fd5b905035906105e6826105c4565b565b919060a08382031261065a576106539061060260a06103e4565b9361061082600083016105d9565b600086015261062282602083016105d9565b602086015261063482604083016105d9565b604086015261064682606083016105d9565b60608601526080016105d9565b6080830152565b6105b6565b9060a08282031261067957610676916000016105e8565b90565b6100ce565b346106ac5761069661069136600461065f565b610ed5565b61069e6100c3565b806106a8816102b8565b0390f35b6100c9565b346106e2576106de6106cd6106c73660046102f1565b90610ee0565b6106d56100c3565b9182918261019b565b0390f35b6100c9565b34610717576106f7366004610355565b610713610702610ef6565b61070a6100c3565b9182918261022a565b0390f35b6100c9565b3461074b5761073561072f366004610528565b90610f2d565b61073d6100c3565b80610747816102b8565b0390f35b6100c9565b600080fd5b600090565b9161077092610767610755565b5091909161112a565b90565b600090565b90565b61078f61078a610794926100d8565b610778565b6100d8565b90565b906107a19061077b565b600052602052604060002090565b60001c90565b60018060a01b031690565b6107cc6107d1916107af565b6107b5565b90565b6107de90546107c0565b90565b610801610806916107f0610773565b5060026107fb611311565b01610797565b6107d4565b90565b6108129061088c565b565b60001b90565b9061082b60018060a01b0391610814565b9181191691161790565b61084961084461084e92610206565b610778565b610206565b90565b61085a90610835565b90565b61086690610851565b90565b90565b9061088161087c6108889261085d565b610869565b825461081a565b9055565b6108a090600061089a611311565b0161086c565b565b6108ab90610809565b565b906108c0916108ba610755565b50611372565b90565b60209181520190565b60207f207468697320616374696f6e0000000000000000000000000000000000000000917f4f6e6c79206f776e657220697320616c6c6f77656420746f20706572666f726d60008201520152565b610927602c6040926108c3565b610930816108cc565b0190565b61094a906020810190600081830391015261091a565b90565b1561095457565b61095c6100c3565b62461bcd60e51b81528061097260048201610934565b0390fd5b6109a5610981611422565b61099f61099961099460043394016107d4565b610211565b91610211565b1461094d565b6109ad610c59565b565b6109b960a06103e4565b90565b90565b6109d36109ce6109d8926109bc565b610778565b6105bb565b90565b906109e5906105bb565b9052565b90565b610a006109fb610a05926109e9565b610778565b6105bb565b90565b90565b610a1f610a1a610a2492610a08565b610778565b6105bb565b90565b90565b610a3e610a39610a4392610a27565b610778565b6105bb565b90565b90565b610a5d610a58610a6292610a46565b610778565b6105bb565b90565b610a6f90516105bb565b90565b90610a8163ffffffff91610814565b9181191691161790565b610a9f610a9a610aa4926105bb565b610778565b6105bb565b90565b90565b90610abf610aba610ac692610a8b565b610aa7565b8254610a72565b9055565b60201b90565b90610ae263ffffffff60201b91610aca565b9181191691161790565b90610b01610afc610b0892610a8b565b610aa7565b8254610ad0565b9055565b60401b90565b90610b2463ffffffff60401b91610b0c565b9181191691161790565b90610b43610b3e610b4a92610a8b565b610aa7565b8254610b12565b9055565b60601b90565b90610b6663ffffffff60601b91610b4e565b9181191691161790565b90610b85610b80610b8c92610a8b565b610aa7565b8254610b54565b9055565b60801b90565b90610ba863ffffffff60801b91610b90565b9181191691161790565b90610bc7610bc2610bce92610a8b565b610aa7565b8254610b96565b9055565b90610c4560806000610c4b94610bf5828201610bef848801610a65565b90610aaa565b610c0d828201610c0760208801610a65565b90610aec565b610c25828201610c1f60408801610a65565b90610b2e565b610c3d828201610c3760608801610a65565b90610b70565b019201610a65565b90610bb2565b565b90610c5791610bd2565b565b606461012c610e10603c90600192610c6f6109af565b94610c79906109bf565b6000860190610c87916109db565b610c90906109ec565b6020850190610c9e916109db565b610ca790610a0b565b6040840190610cb5916109db565b610cbe90610a2a565b6060830190610ccc916109db565b610cd590610a49565b6080820190610ce3916109db565b610ceb611311565b60010190610cf891610c4d565b565b610d02610976565b565b90610d0e91610e24565b565b90565b610d27610d22610d2c92610d10565b610778565b610103565b90565b6001610d3b9101610103565b90565b5190565b634e487b7160e01b600052603260045260246000fd5b5190565b90610d6682610d58565b811015610d77576020809102010190565b610d42565b610d869051610103565b90565b90610d9382610d3e565b811015610da4576020809102010190565b610d42565b610db390516100d8565b90565b90610dc09061077b565b600052602052604060002090565b90610ddb60001991610814565b9181191691161790565b610df9610df4610dfe92610103565b610778565b610103565b90565b90565b90610e19610e14610e2092610de5565b610e01565b8254610dce565b9055565b9190610e306000610d13565b5b80610e4c610e46610e4187610d3e565b610103565b91610103565b1015610ea257610e9d90610e98610e6c610e67858490610d5c565b610d7c565b610e936005610e79611311565b01610e8d610e888a8790610d89565b610da9565b90610db6565b610e04565b610d2f565b610e31565b50509050565b90610eb291610d04565b565b610ebd90610ebf565b565b610ed3906001610ecd611311565b01610c4d565b565b610ede90610eb4565b565b90610ef391610eed610755565b5061142d565b90565b610efe610773565b50610f126000610f0c611311565b016107d4565b90565b90610f1f91610f21565b565b90610f2b9161144f565b565b90610f3791610f15565b565b90610f439061077b565b600052602052604060002090565b60a01c90565b63ffffffff1690565b610f6c610f7191610f51565b610f57565b90565b610f7e9054610f60565b90565b610f95610f90610f9a926105bb565b610778565b610103565b90565b90565b610fac610fb1916107af565b610f9d565b90565b610fbe9054610fa0565b90565b60401c90565b610fd3610fd891610fc1565b610f57565b90565b610fe59054610fc7565b90565b634e487b7160e01b600052601160045260246000fd5b61100d61101391939293610103565b92610103565b820180921161101e57565b610fe8565b60201c90565b61103561103a91611023565b610f57565b90565b6110479054611029565b90565b61105961105f91939293610103565b92610103565b820391821161106a57565b610fe8565b90565b61108661108161108b9261106f565b610778565b610103565b90565b611099612710611072565b90565b6110ab6110b191939293610103565b92610103565b916110bd838202610103565b9281840414901517156110cc57565b610fe8565b634e487b7160e01b600052601260045260246000fd5b6110f36110f991610103565b91610103565b908115611104570490565b6110d1565b61111561111a916107af565b610f57565b90565b6111279054611109565b90565b9091611134610755565b5061115d6111586000611152600661114a611311565b018690610f39565b01610f74565b610f81565b9161117b611176600461116e611311565b018390610db6565b610fb4565b92426111b66111b06111ab846111a56111a060006001611199611311565b0101610fdb565b610f81565b90610ffe565b610103565b91610103565b119081156112aa575b50801561128f575b61128957836111de6111d885610103565b91610103565b11600014611270576112166112106112096111fa87879061104a565b5b61120361108e565b9061109c565b86906110e7565b916114c6565b9081611237575b506112315761122e92919091611507565b90565b50905090565b905061126861126261125d61125860006001611251611311565b010161111d565b610f81565b610103565b91610103565b11153861121d565b61121661121061120961128486889061104a565b6111fb565b50505090565b50826112a461129e6000610d13565b91610103565b146111c7565b90506112e66112e06112db42936112d56112d0600060016112c9611311565b010161103d565b610f81565b90610ffe565b610103565b91610103565b11386111bf565b7f215c1de8a6459dcf0789cdceef063745b34797042fd1550737c0f263affdef6490565b6113196112ed565b90565b90565b61133361132e6113389261131c565b610778565b610103565b90565b61135068327cb2734119d3b7a9601e1b61131f565b90565b90565b61136a61136561136f92611353565b610778565b610103565b90565b906113919061137f610755565b5061138b8382906119c4565b926119c4565b816113bf6113b96113b46000196113af6113a961133b565b91611356565b6110e7565b610103565b91610103565b106113e1576113d96113de926113d361133b565b906110e7565b61109c565b90565b6113f66113fb926113f061133b565b9061109c565b6110e7565b90565b7fc8fcad8db84d3cc18b4c41d551ea0ee66dd599cde068d998e57d5e09332c131c90565b61142a6113fe565b90565b61144c91611439610755565b50611445828290611372565b909161112a565b90565b91909161145c6000610d13565b5b8061147861147261146d85610d3e565b610103565b91610103565b10156114bb576114b6906114b1611498611493858490610d89565b610da9565b6114ab6114a6888590610d5c565b610d7c565b90611f57565b610d2f565b61145d565b50509050565b600090565b6114f9611504916114d56114c1565b506114fe6114e2826123e0565b9592509050939260056114f3611311565b01610db6565b610fb4565b91612478565b90565b91611510610755565b50600014611540578161152b61152583610103565b91610103565b1160001461153957505b5b90565b9050611535565b8161155361154d83610103565b91610103565b1060001461156257505b611536565b905061155d565b61157d61157861158292610d10565b610778565b610206565b90565b61158e90611569565b90565b60007f5072696365466565643a20696e76616c69642070726963652066656564000000910152565b6115c6601d6020926108c3565b6115cf81611591565b0190565b6115e990602081019060008183039101526115b9565b90565b156115f357565b6115fb6100c3565b62461bcd60e51b815280611611600482016115d3565b0390fd5b61161e90610835565b90565b61162a90611615565b90565b61163690610851565b90565b60e01b90565b60018060501b031690565b6116538161163f565b0361165a57565b600080fd5b9050519061166c8261164a565b565b90602082820312611688576116859160000161165f565b90565b6100ce565b6116956100c3565b3d6000823e3d90fd5b6116b26116ad6116b792610d10565b610778565b61163f565b90565b60016116c6910161163f565b90565b60801c90565b6116db6116e0916116c9565b610f57565b90565b6116ed90546116cf565b90565b6117046116ff611709926105bb565b610778565b61163f565b90565b61171861171e9161163f565b9161163f565b90039060018060501b03821161173057565b610fe8565b90565b61174181611735565b0361174857565b600080fd5b9050519061175a82611738565b565b9050519061176982610106565b565b919060a0838203126117bd57611784816000850161165f565b92611792826020830161174d565b926117ba6117a3846040850161175c565b936117b1816060860161175c565b9360800161165f565b90565b6100ce565b6117cb9061163f565b9052565b91906117e3906000602085019401906117c2565b565b6117f96117f46117fe92610d10565b610778565b611735565b90565b60007f5072696365466565643a20696e76616c69642070726963650000000000000000910152565b61183660186020926108c3565b61183f81611801565b0190565b6118599060208101906000818303910152611829565b90565b1561186357565b61186b6100c3565b62461bcd60e51b81528061188160048201611843565b0390fd5b61189961189461189e92611735565b610778565b610103565b90565b906020828203126118bb576118b89160000161174d565b90565b6100ce565b60007f5072696365466565643a20636f756c64206e6f74206665746368207072696365910152565b6118f4602080926108c3565b6118fd816118c0565b0190565b61191790602081019060008183039101526118e8565b90565b1561192157565b6119296100c3565b62461bcd60e51b81528061193f60048201611901565b0390fd5b60ff1690565b61195281611943565b0361195957565b600080fd5b9050519061196b82611949565b565b90602082820312611987576119849160000161195e565b90565b6100ce565b6119a061199b6119a592611943565b610778565b610103565b90565b6119b190610103565b604d81116119bf57600a0a90565b610fe8565b91906119ce610755565b50611a116119ef6119ea60026119e2611311565b018690610797565b6107d4565b611a0a611a046119ff6000611585565b610211565b91610211565b14156115ec565b611a1b6000610d13565b611a636020611a4d611a48611a43611a3e6002611a36611311565b018a90610797565b6107d4565b611621565b61162d565b63668a0f0290611a5b6100c3565b938492611639565b82528180611a73600482016102b8565b03915afa908115611e7e57600091611e50575b50611a91600061169e565b5b80611aba611ab4611aaf60006001611aa8611311565b01016116e3565b6116f0565b9161163f565b1015611e345781611ad3611acd8361163f565b9161163f565b1115611d4257611ae1610755565b5080611af6611af0600061169e565b9161163f565b14600014611c6557611b466020611b30611b2b611b26611b216002611b19611311565b018c90610797565b6107d4565b611621565b61162d565b6350d25bcd90611b3e6100c3565b938492611639565b82528180611b56600482016102b8565b03915afa8015611c6057611b8f91600091611c32575b50611b8a81611b84611b7e60006117e5565b91611735565b1361185c565b611885565b5b83611ba4611b9e6000610d13565b91610103565b14611c26578480611c0c575b611c0057611bbe851561012a565b80611be6575b611bd9575b50611bd4905b6116ba565b611a92565b611bd49193509290611bc9565b5080611bfa611bf486610103565b91610103565b10611bc4565b611bd491935092611bcf565b5080611c20611c1a86610103565b91610103565b11611bb0565b611bd491935092611bcf565b611c53915060203d8111611c59575b611c4b81836103bd565b8101906118a1565b38611b6c565b503d611c41565b61168d565b611ccb60a0611c97611c92611c8d611c886002611c80611311565b018c90610797565b6107d4565b611621565b61162d565b639a6fc8f590611cc0611cab87879061170c565b92611cb46100c3565b95869485938493611639565b8352600483016117cf565b03915afa8015611d3d57611d0791600080929050611d0c575b50611d0281611cfc611cf660006117e5565b91611735565b1361185c565b611885565b611b90565b611d2d915060a03d8111611d36575b611d2581836103bd565b81019061176b565b50505090611ce4565b503d611d1b565b61168d565b505090506020611d96611d91611d8c611d87611dac96975b611d7787611d71611d6b6000610d13565b91610103565b1161191a565b6002611d81611311565b01610797565b6107d4565b611621565b61162d565b63313ce56790611da46100c3565b948592611639565b82528180611dbc600482016102b8565b03915afa918215611e2f57611df2611de3611dfe94611df893600091611e01575b5061198c565b92611dec61133b565b9061109c565b916119a8565b906110e7565b90565b611e22915060203d8111611e28575b611e1a81836103bd565b81019061196d565b38611ddd565b503d611e10565b61168d565b505090506020611d96611d91611d8c611d87611dac9697611d5a565b611e71915060203d8111611e77575b611e6981836103bd565b81019061166e565b38611a86565b503d611e5f565b61168d565b60601c90565b611e95611e9a91611e83565b610f57565b90565b611ea79054611e89565b90565b90565b611ec1611ebc611ec692611eaa565b610778565b610103565b90565b611ed562989680611ead565b90565b611ee1906100d8565b9052565b90959492611f3194611f20611f2a92611f16608096611f0c60a088019c6000890190611ed8565b602087019061018e565b604085019061018e565b606083019061018e565b019061018e565b565b916020611f55929493611f4e6040820196600083019061021d565b019061018e565b565b90611f75611f706002611f68611311565b018490610797565b6107d4565b611f90611f8a611f856000611585565b610211565b91610211565b03611ffb575b611fb481611faf6004611fa7611311565b018590610db6565b610e04565b339190611fe17ff653c98010ec108e873f9d5638c10569732da12002329d3774f0d71d8e8665149261077b565b92611ff6611fed6100c3565b92839283611f33565b0390a2565b612004826124d8565b61202161201c6004612014611311565b018590610db6565b610fb4565b61202a846123e0565b9492919094918061204461203e6000610d13565b91610103565b11612141575b5050806120b49161206361205d87610103565b91610103565b1180612101575b6120bc575b61207d878487908492612995565b869293947f42c806f38e7c76d89b3ad48a1519c8ba45071b5c990c34328b7f97e342781c1f956120ab6100c3565b95869586611ee5565b0390a1611f96565b868385916120f98885907f47cda1c6d4dcb5355efae6dfde16ddf80dbe6f35912baa2068348a0fd49f5f43956120f06100c3565b95869586611ee5565b0390a161206f565b5061210d81869061104a565b61213b61213561213061212b6005612123611311565b018c90610db6565b610fb4565b610103565b91610103565b1161206a565b839591929561215861215283610103565b91610103565b116000146122a55761216b84829061104a565b5b918561218061217a8a610103565b91610103565b11600014612292576121bc612196878a9061104a565b5b946121b66121b1600060016121aa611311565b0101611e9d565b610f81565b906110e7565b6121f56121ef6121ea426121e46121df600060016121d8611311565b0101611e9d565b610f81565b906110e7565b610103565b91610103565b03612252575b61223e61222e61224b946122286120b49795612223612245969361221d611ec9565b9061109c565b6110e7565b90610ffe565b9792612238611ec9565b9061109c565b86906110e7565b90610ffe565b903861204a565b5094506120b49161224561223e61222e61224b946122286122736000610d13565b9a6122236122816000610d13565b9c96505095975050945050506121fb565b6121bc6122a089889061104a565b612197565b6122b081859061104a565b61216c565b60018060a01b031690565b6122cc6122d1916107af565b6122b5565b90565b6122de90546122c0565b90565b906122eb90610206565b9052565b60c01c90565b612301612306916122ef565b610f57565b90565b61231390546122f5565b90565b612322612327916100bd565b610f57565b90565b6123349054612316565b90565b61234160806103e4565b90565b906123a96123a06000612355612337565b9461236c6123648383016122d4565b8388016122e1565b61238361237a838301610f74565b602088016109db565b61239a612391838301612309565b604088016109db565b0161232a565b606084016109db565b565b6123b490612344565b90565b6123c19051610206565b90565b6123d86123d36123dd92610206565b610778565b610103565b90565b61241b612420916123ef610755565b506123f8610755565b50612401610755565b5061240a610755565b506006612415611311565b01610f39565b6123ab565b61243461242f600083016123b7565b6123c4565b61244861244360208401610a65565b610f81565b9261247161246c606061246561246060408801610a65565b610f81565b9501610a65565b610f81565b9193929190565b9190916124836114c1565b508261249761249183610103565b91610103565b1192836124b0575b5050506124ab57600190565b600090565b6124cf9293506124c9916124c39161104a565b92610103565b91610103565b1138808061249f565b6124ea906124e4610755565b50612a7c565b612528602061251261250d6125086000612502611311565b016107d4565b611621565b61162d565b6350d25bcd906125206100c3565b938492611639565b82528180612538600482016102b8565b03915afa80156125ef57612554916000916125c1575b50612b94565b8161258261257c61257760001961257261256c61133b565b91611356565b6110e7565b610103565b91610103565b106125a45761259c6125a19261259661133b565b906110e7565b61109c565b90565b6125b96125be926125b361133b565b9061109c565b6110e7565b90565b6125e2915060203d81116125e8575b6125da81836103bd565b8101906118a1565b3861254e565b503d6125d0565b61168d565b61260360018060a01b036123c4565b90565b60007f466173745072696365466565643a20696e76616c696420726566507269636500910152565b61263b601f6020926108c3565b61264481612606565b0190565b61265e906020810190600081830391015261262e565b90565b1561266857565b6126706100c3565b62461bcd60e51b81528061268660048201612648565b0390fd5b61269763ffffffff610f81565b90565b60207f6552656644656c74610000000000000000000000000000000000000000000000917f466173745072696365466565643a20696e76616c69642063756d756c6174697660008201520152565b6126f560296040926108c3565b6126fe8161269a565b0190565b61271890602081019060008183039101526126e8565b90565b1561272257565b61272a6100c3565b62461bcd60e51b81528061274060048201612702565b0390fd5b61275163ffffffff610f81565b90565b60207f654661737444656c746100000000000000000000000000000000000000000000917f466173745072696365466565643a20696e76616c69642063756d756c6174697660008201520152565b6127af602a6040926108c3565b6127b881612754565b0190565b6127d290602081019060008183039101526127a2565b90565b156127dc57565b6127e46100c3565b62461bcd60e51b8152806127fa600482016127bc565b0390fd5b61281261280d61281792610103565b610778565b610206565b90565b61282e61282961283392610103565b610778565b6105bb565b90565b61284060806103e4565b90565b90565b9061285b61285661286292610835565b612843565b825461081a565b9055565b60a01b90565b9061287e63ffffffff60a01b91612866565b9181191691161790565b9061289d6128986128a492610a8b565b610aa7565b825461286c565b9055565b60c01b90565b906128c063ffffffff60c01b916128a8565b9181191691161790565b906128df6128da6128e692610a8b565b610aa7565b82546128ae565b9055565b906128fc63ffffffff60e01b91611639565b9181191691161790565b9061291b61291661292292610a8b565b610aa7565b82546128ea565b9055565b9061298160606000612987946129498282016129438488016123b7565b90612846565b61296182820161295b60208801610a65565b90612888565b61297982820161297360408801610a65565b906128ca565b019201610a65565b90612906565b565b9061299391612926565b565b612a65612a7a9493612a5c612a15612a75956129ca816129c46129be6129b96125f4565b610103565b91610103565b10612661565b6129ed846129e76129e16129dc61268a565b610103565b91610103565b1061271b565b612a1088612a0a612a046129ff612744565b610103565b91610103565b106127d5565b6127fe565b95612a53612a34612a2e612a284261281a565b9561281a565b9261281a565b93612a4a612a40612836565b9960008b016122e1565b602089016109db565b604087016109db565b606085016109db565b6006612a6f611311565b01610f39565b612989565b565b6020612adc612ad7612aac612aa7612af295612a96610755565b506002612aa1611311565b01610797565b6107d4565b612ad281612acb612ac5612ac06000611585565b610211565b91610211565b14156115ec565b611621565b61162d565b6350d25bcd90612aea6100c3565b938492611639565b82528180612b02600482016102b8565b03915afa8015612b6c57612b3b91600091612b3e575b50612b3681612b30612b2a60006117e5565b91611735565b1361185c565b611885565b90565b612b5f915060203d8111612b65575b612b5781836103bd565b8101906118a1565b38612b18565b503d612b4d565b61168d565b612b7a90611735565b9052565b9190612b9290600060208501940190612b71565b565b612b9c610755565b5080612bb1612bab60006117e5565b91611735565b12612bc257612bbf90611885565b90565b612be490612bce6100c3565b918291635467221960e11b835260048301612b7e565b0390fdfea2646970667358221220f5c1d0197b700a953a893a8a7e07225a34c23aafea7bb3e874705720bce2e43164736f6c63430008180033",
  "devdoc": {
    "errors": {
      "SafeCastOverflowedIntToUint(int256)": [
        {
          "details": "An int value doesn't fit in an uint of `bits` size."
        }
      ]
    },
    "kind": "dev",
    "methods": {},
    "version": 1
  },
  "userdoc": {
    "kind": "user",
    "methods": {},
    "version": 1
  },
  "storageLayout": {
    "storage": [],
    "types": null
  }
}