{
  "address": "0x5532Df60a5147CdBC382a4F1AeA188feF20715f0",
  "abi": [
    {
      "inputs": [
        {
          "internalType": "address",
          "name": "authority",
          "type": "address"
        }
      ],
      "name": "AccessManagedInvalidAuthority",
      "type": "error"
    },
    {
      "inputs": [
        {
          "internalType": "address",
          "name": "caller",
          "type": "address"
        },
        {
          "internalType": "uint32",
          "name": "delay",
          "type": "uint32"
        }
      ],
      "name": "AccessManagedRequiredDelay",
      "type": "error"
    },
    {
      "inputs": [
        {
          "internalType": "address",
          "name": "caller",
          "type": "address"
        }
      ],
      "name": "AccessManagedUnauthorized",
      "type": "error"
    },
    {
      "inputs": [
        {
          "internalType": "int256",
          "name": "value",
          "type": "int256"
        }
      ],
      "name": "SafeCastOverflowedIntToUint",
      "type": "error"
    },
    {
      "anonymous": false,
      "inputs": [
        {
          "indexed": false,
          "internalType": "uint16",
          "name": "market",
          "type": "uint16"
        },
        {
          "indexed": false,
          "internalType": "uint256",
          "name": "refPrice",
          "type": "uint256"
        },
        {
          "indexed": false,
          "internalType": "uint256",
          "name": "fastPrice",
          "type": "uint256"
        },
        {
          "indexed": false,
          "internalType": "uint256",
          "name": "cumulativeRefDelta",
          "type": "uint256"
        },
        {
          "indexed": false,
          "internalType": "uint256",
          "name": "cumulativeFastDelta",
          "type": "uint256"
        }
      ],
      "name": "MaxCumulativeDeltaDiffExceeded",
      "type": "event"
    },
    {
      "anonymous": false,
      "inputs": [
        {
          "indexed": false,
          "internalType": "uint16",
          "name": "market",
          "type": "uint16"
        },
        {
          "indexed": false,
          "internalType": "uint256",
          "name": "refPrice",
          "type": "uint256"
        },
        {
          "indexed": false,
          "internalType": "uint256",
          "name": "fastPrice",
          "type": "uint256"
        },
        {
          "indexed": false,
          "internalType": "uint256",
          "name": "cumulativeRefDelta",
          "type": "uint256"
        },
        {
          "indexed": false,
          "internalType": "uint256",
          "name": "cumulativeFastDelta",
          "type": "uint256"
        }
      ],
      "name": "PriceData",
      "type": "event"
    },
    {
      "anonymous": false,
      "inputs": [
        {
          "indexed": false,
          "internalType": "address",
          "name": "feed",
          "type": "address"
        },
        {
          "indexed": true,
          "internalType": "uint16",
          "name": "market",
          "type": "uint16"
        },
        {
          "indexed": false,
          "internalType": "uint256",
          "name": "price",
          "type": "uint256"
        }
      ],
      "name": "UpdatePrice",
      "type": "event"
    },
    {
      "inputs": [
        {
          "internalType": "uint16",
          "name": "market",
          "type": "uint16"
        },
        {
          "internalType": "bool",
          "name": "_maximise",
          "type": "bool"
        }
      ],
      "name": "getChainPrice",
      "outputs": [
        {
          "internalType": "uint256",
          "name": "",
          "type": "uint256"
        }
      ],
      "stateMutability": "view",
      "type": "function"
    },
    {
      "inputs": [
        {
          "internalType": "uint16",
          "name": "market",
          "type": "uint16"
        },
        {
          "internalType": "uint256",
          "name": "_referencePrice",
          "type": "uint256"
        },
        {
          "internalType": "bool",
          "name": "_maximise",
          "type": "bool"
        }
      ],
      "name": "getFastPrice",
      "outputs": [
        {
          "internalType": "uint256",
          "name": "",
          "type": "uint256"
        }
      ],
      "stateMutability": "view",
      "type": "function"
    },
    {
      "inputs": [
        {
          "internalType": "uint16",
          "name": "market",
          "type": "uint16"
        },
        {
          "internalType": "bool",
          "name": "_maximise",
          "type": "bool"
        }
      ],
      "name": "getPrice",
      "outputs": [
        {
          "internalType": "uint256",
          "name": "",
          "type": "uint256"
        }
      ],
      "stateMutability": "view",
      "type": "function"
    },
    {
      "inputs": [],
      "name": "initDefaultOracleConfig",
      "outputs": [],
      "stateMutability": "nonpayable",
      "type": "function"
    },
    {
      "inputs": [
        {
          "internalType": "bytes",
          "name": "_data",
          "type": "bytes"
        }
      ],
      "name": "setConfig",
      "outputs": [],
      "stateMutability": "nonpayable",
      "type": "function"
    },
    {
      "inputs": [
        {
          "internalType": "uint16[]",
          "name": "_market",
          "type": "uint16[]"
        },
        {
          "internalType": "uint256[]",
          "name": "_maxCumulativeDeltaDiffs",
          "type": "uint256[]"
        }
      ],
      "name": "setMaxCumulativeDeltaDiffs",
      "outputs": [],
      "stateMutability": "nonpayable",
      "type": "function"
    },
    {
      "inputs": [
        {
          "internalType": "uint16[]",
          "name": "_markets",
          "type": "uint16[]"
        },
        {
          "internalType": "uint256[]",
          "name": "_prices",
          "type": "uint256[]"
        }
      ],
      "name": "setPrices",
      "outputs": [],
      "stateMutability": "nonpayable",
      "type": "function"
    },
    {
      "inputs": [
        {
          "internalType": "address",
          "name": "_feed",
          "type": "address"
        }
      ],
      "name": "setUSDT",
      "outputs": [],
      "stateMutability": "nonpayable",
      "type": "function"
    }
  ],
  "transactionHash": "0x32a39b81b06eef2cd7f8caaab88e41e63ed6f6134922730dcaedb8c589da34c4",
  "args": [],
  "numDeployments": 1,
  "solcInputHash": "f6719ff3a2395d03b26d7bb330f0d005",
  "bytecode": "0x608060405234801561001057600080fd5b5061273c806100206000396000f3fe608060405234801561001057600080fd5b50600436106100785760003560e01c80632e6e6ea91461007d578063354497aa146100ad57806350c1b923146100c957806364b6db53146100e557806367af1a0314610115578063aa94bda81461011f578063db6112251461013b578063f224f69a1461016b575b600080fd5b6100976004803603810190610092919061184f565b610187565b6040516100a491906118b1565b60405180910390f35b6100c760048036038101906100c29190611931565b61019d565b005b6100e360048036038101906100de91906119dc565b61028d565b005b6100ff60048036038101906100fa9190611a09565b6102e0565b60405161010c91906118b1565b60405180910390f35b61011d6102f4565b005b61013960048036038101906101349190611c5b565b61041f565b005b61015560048036038101906101509190611a09565b6104a0565b60405161016291906118b1565b60405180910390f35b61018560048036038101906101809190611c5b565b6104b4565b005b60006101948484846104c2565b90509392505050565b600082828101906101ae9190611da0565b905060006101ba610658565b9050818160010160008201518160000160006101000a81548163ffffffff021916908363ffffffff16021790555060208201518160000160046101000a81548163ffffffff021916908363ffffffff16021790555060408201518160000160086101000a81548163ffffffff021916908363ffffffff160217905550606082015181600001600c6101000a81548163ffffffff021916908363ffffffff16021790555060808201518160000160106101000a81548163ffffffff021916908363ffffffff16021790555090505050505050565b6000610297610658565b9050818160000160006101000a81548173ffffffffffffffffffffffffffffffffffffffff021916908373ffffffffffffffffffffffffffffffffffffffff1602179055505050565b60006102ec8383610685565b905092915050565b60006040518060a00160405280606463ffffffff16815260200161012c63ffffffff168152602001610e1063ffffffff168152602001603c63ffffffff168152602001600163ffffffff168152509050600061034e610658565b9050818160010160008201518160000160006101000a81548163ffffffff021916908363ffffffff16021790555060208201518160000160046101000a81548163ffffffff021916908363ffffffff16021790555060408201518160000160086101000a81548163ffffffff021916908363ffffffff160217905550606082015181600001600c6101000a81548163ffffffff021916908363ffffffff16021790555060808201518160000160106101000a81548163ffffffff021916908363ffffffff1602179055509050505050565b60005b825181101561049b5781818151811061043e5761043d611dcd565b5b602002602001015161044e610658565b600501600085848151811061046657610465611dcd565b5b602002602001015161ffff1661ffff16815260200190815260200160002081905550808061049390611e2b565b915050610422565b505050565b60006104ac838361073e565b905092915050565b6104be8282610761565b5050565b6000806104cd610658565b60060160008661ffff1661ffff16815260200190815260200160002060000160149054906101000a900463ffffffff1663ffffffff169050600061050f610658565b60040160008761ffff1661ffff168152602001908152602001600020549050610536610658565b60010160000160089054906101000a900463ffffffff1663ffffffff168261055e9190611e73565b421180610599575061056e610658565b60010160000160049054906101000a900463ffffffff1663ffffffff16826105969190611e73565b42115b806105a45750600081145b156105b3578492505050610651565b60008186116105cd5785826105c89190611ea7565b6105da565b81866105d99190611ea7565b5b905085612710826105eb9190611edb565b6105f59190611f4c565b9050610600876107c3565b8015610630575061060f610658565b60010160000160009054906101000a900463ffffffff1663ffffffff168111155b1561064057819350505050610651565b61064b868387610830565b93505050505b9392505050565b6000807f215c1de8a6459dcf0789cdceef063745b34797042fd1550737c0f263affdef6490508091505090565b6000806106928484610864565b905060006106a08585610864565b90506c0c9f2c9cd04674edea400000007fffffffffffffffffffffffffffffffffffffffffffffffffffffffffffffffff6106db9190611f4c565b82101561070f57806c0c9f2c9cd04674edea40000000836106fc9190611edb565b6107069190611f4c565b92505050610738565b806c0c9f2c9cd04674edea40000000836107299190611f4c565b6107339190611edb565b925050505b92915050565b60008061074b8484610685565b90506107588482856104c2565b91505092915050565b60005b82518110156107be576107ab83828151811061078357610782611dcd565b5b602002602001015183838151811061079e5761079d611dcd565b5b6020026020010151610df1565b80806107b690611e2b565b915050610764565b505050565b60008060006107d18461110f565b935093505050818111801561081457506107e9610658565b60050160008561ffff1661ffff1681526020019081526020016000205482826108129190611ea7565b115b156108245760009250505061082b565b6001925050505b919050565b60008161084b578284106108445782610846565b835b61085b565b828411610858578261085a565b835b5b90509392505050565b60008061086f610658565b60020160008561ffff1661ffff16815260200190815260200160002060009054906101000a900473ffffffffffffffffffffffffffffffffffffffff169050600073ffffffffffffffffffffffffffffffffffffffff168173ffffffffffffffffffffffffffffffffffffffff160361091d576040517f08c379a000000000000000000000000000000000000000000000000000000000815260040161091490611fda565b60405180910390fd5b600080610928610658565b60020160008761ffff1661ffff16815260200190815260200160002060009054906101000a900473ffffffffffffffffffffffffffffffffffffffff1673ffffffffffffffffffffffffffffffffffffffff1663668a0f026040518163ffffffff1660e01b8152600401602060405180830381865afa1580156109af573d6000803e3d6000fd5b505050506040513d601f19601f820116820180604052508101906109d3919061203c565b905060005b6109e0610658565b60010160000160109054906101000a900463ffffffff1663ffffffff168169ffffffffffffffffffff161015610cb7578069ffffffffffffffffffff168269ffffffffffffffffffff161115610cb7576000808269ffffffffffffffffffff1603610b48576000610a4f610658565b60020160008a61ffff1661ffff16815260200190815260200160002060009054906101000a900473ffffffffffffffffffffffffffffffffffffffff1673ffffffffffffffffffffffffffffffffffffffff166350d25bcd6040518163ffffffff1660e01b8152600401602060405180830381865afa158015610ad6573d6000803e3d6000fd5b505050506040513d601f19601f82011682018060405250810190610afa919061209f565b905060008113610b3f576040517f08c379a0000000000000000000000000000000000000000000000000000000008152600401610b3690612118565b60405180910390fd5b80915050610c61565b6000610b52610658565b60020160008a61ffff1661ffff16815260200190815260200160002060009054906101000a900473ffffffffffffffffffffffffffffffffffffffff1673ffffffffffffffffffffffffffffffffffffffff16639a6fc8f58486610bb69190612138565b6040518263ffffffff1660e01b8152600401610bd29190612185565b60a060405180830381865afa158015610bef573d6000803e3d6000fd5b505050506040513d601f19601f82011682018060405250810190610c1391906121b5565b50505091505060008113610c5c576040517f08c379a0000000000000000000000000000000000000000000000000000000008152600401610c5390612118565b60405180910390fd5b809150505b60008403610c725780935050610ca4565b868015610c7e57508381115b15610c8c5780935050610ca4565b86158015610c9957508381105b15610ca2578093505b505b8080610caf90612230565b9150506109d8565b5060008211610cfb576040517f08c379a0000000000000000000000000000000000000000000000000000000008152600401610cf2906122ae565b60405180910390fd5b6000610d05610658565b60020160008861ffff1661ffff16815260200190815260200160002060009054906101000a900473ffffffffffffffffffffffffffffffffffffffff1673ffffffffffffffffffffffffffffffffffffffff1663313ce5676040518163ffffffff1660e01b8152600401602060405180830381865afa158015610d8c573d6000803e3d6000fd5b505050506040513d601f19601f82011682018060405250810190610db09190612307565b60ff16905080600a610dc29190612467565b6c0c9f2c9cd04674edea4000000084610ddb9190611edb565b610de59190611f4c565b94505050505092915050565b600073ffffffffffffffffffffffffffffffffffffffff16610e11610658565b60020160008461ffff1661ffff16815260200190815260200160002060009054906101000a900473ffffffffffffffffffffffffffffffffffffffff1673ffffffffffffffffffffffffffffffffffffffff16146110a4576000610e748361125c565b90506000610e80610658565b60040160008561ffff1661ffff168152602001908152602001600020549050600080600080610eae8861110f565b93509350935093506000841115610fd0576000848711610ed9578685610ed49190611ea7565b610ee6565b8487610ee59190611ea7565b5b90506000888711610f02578689610efd9190611ea7565b610f0f565b8887610f0e9190611ea7565b5b9050610f19610658565b600101600001600c9054906101000a900463ffffffff1663ffffffff1642610f419190611f4c565b610f49610658565b600101600001600c9054906101000a900463ffffffff1663ffffffff1686610f719190611f4c565b14610f7f5760009350600092505b856298968083610f8f9190611edb565b610f999190611f4c565b84610fa49190611e73565b9350866298968082610fb69190611edb565b610fc09190611f4c565b83610fcb9190611e73565b925050505b818111801561100d5750610fe2610658565b60050160008961ffff1661ffff16815260200190815260200160002054828261100b9190611ea7565b115b15611052577f47cda1c6d4dcb5355efae6dfde16ddf80dbe6f35912baa2068348a0fd49f5f4388878785856040516110499594939291906124c1565b60405180910390a15b61105e888784846113ab565b7f42c806f38e7c76d89b3ad48a1519c8ba45071b5c990c34328b7f97e342781c1f88878785856040516110959594939291906124c1565b60405180910390a15050505050505b806110ad610658565b60040160008461ffff1661ffff168152602001908152602001600020819055508161ffff167ff653c98010ec108e873f9d5638c10569732da12002329d3774f0d71d8e8665143383604051611103929190612523565b60405180910390a25050565b600080600080600061111f610658565b60060160008761ffff1661ffff1681526020019081526020016000206040518060800160405290816000820160009054906101000a900473ffffffffffffffffffffffffffffffffffffffff1673ffffffffffffffffffffffffffffffffffffffff1673ffffffffffffffffffffffffffffffffffffffff1681526020016000820160149054906101000a900463ffffffff1663ffffffff1663ffffffff1681526020016000820160189054906101000a900463ffffffff1663ffffffff1663ffffffff16815260200160008201601c9054906101000a900463ffffffff1663ffffffff1663ffffffff16815250509050806000015173ffffffffffffffffffffffffffffffffffffffff16816020015163ffffffff16826040015163ffffffff16836060015163ffffffff169450945094509450509193509193565b600080611268836115c5565b9050600061130e611277610658565b60000160009054906101000a900473ffffffffffffffffffffffffffffffffffffffff1673ffffffffffffffffffffffffffffffffffffffff166350d25bcd6040518163ffffffff1660e01b8152600401602060405180830381865afa1580156112e5573d6000803e3d6000fd5b505050506040513d601f19601f82011682018060405250810190611309919061209f565b611744565b90506c0c9f2c9cd04674edea400000007fffffffffffffffffffffffffffffffffffffffffffffffffffffffffffffffff6113499190611f4c565b82101561137d57806c0c9f2c9cd04674edea400000008361136a9190611edb565b6113749190611f4c565b925050506113a6565b806c0c9f2c9cd04674edea40000000836113979190611f4c565b6113a19190611edb565b925050505b919050565b73ffffffffffffffffffffffffffffffffffffffff80168310611403576040517f08c379a00000000000000000000000000000000000000000000000000000000081526004016113fa90612598565b60405180910390fd5b63ffffffff8016821061144b576040517f08c379a00000000000000000000000000000000000000000000000000000000081526004016114429061262a565b60405180910390fd5b63ffffffff80168110611493576040517f08c379a000000000000000000000000000000000000000000000000000000000815260040161148a906126bc565b60405180910390fd5b60405180608001604052808473ffffffffffffffffffffffffffffffffffffffff1681526020014263ffffffff1681526020018363ffffffff1681526020018263ffffffff168152506114e4610658565b60060160008661ffff1661ffff16815260200190815260200160002060008201518160000160006101000a81548173ffffffffffffffffffffffffffffffffffffffff021916908373ffffffffffffffffffffffffffffffffffffffff16021790555060208201518160000160146101000a81548163ffffffff021916908363ffffffff16021790555060408201518160000160186101000a81548163ffffffff021916908363ffffffff160217905550606082015181600001601c6101000a81548163ffffffff021916908363ffffffff16021790555090505050505050565b6000806115d0610658565b60020160008461ffff1661ffff16815260200190815260200160002060009054906101000a900473ffffffffffffffffffffffffffffffffffffffff169050600073ffffffffffffffffffffffffffffffffffffffff168173ffffffffffffffffffffffffffffffffffffffff160361167e576040517f08c379a000000000000000000000000000000000000000000000000000000000815260040161167590611fda565b60405180910390fd5b600081905060008173ffffffffffffffffffffffffffffffffffffffff166350d25bcd6040518163ffffffff1660e01b8152600401602060405180830381865afa1580156116d0573d6000803e3d6000fd5b505050506040513d601f19601f820116820180604052508101906116f4919061209f565b905060008113611739576040517f08c379a000000000000000000000000000000000000000000000000000000000815260040161173090612118565b60405180910390fd5b809350505050919050565b60008082121561178b57816040517fa8ce443200000000000000000000000000000000000000000000000000000000815260040161178291906126eb565b60405180910390fd5b819050919050565b6000604051905090565b600080fd5b600080fd5b600061ffff82169050919050565b6117be816117a7565b81146117c957600080fd5b50565b6000813590506117db816117b5565b92915050565b6000819050919050565b6117f4816117e1565b81146117ff57600080fd5b50565b600081359050611811816117eb565b92915050565b60008115159050919050565b61182c81611817565b811461183757600080fd5b50565b60008135905061184981611823565b92915050565b6000806000606084860312156118685761186761179d565b5b6000611876868287016117cc565b935050602061188786828701611802565b92505060406118988682870161183a565b9150509250925092565b6118ab816117e1565b82525050565b60006020820190506118c660008301846118a2565b92915050565b600080fd5b600080fd5b600080fd5b60008083601f8401126118f1576118f06118cc565b5b8235905067ffffffffffffffff81111561190e5761190d6118d1565b5b60208301915083600182028301111561192a576119296118d6565b5b9250929050565b600080602083850312156119485761194761179d565b5b600083013567ffffffffffffffff811115611966576119656117a2565b5b611972858286016118db565b92509250509250929050565b600073ffffffffffffffffffffffffffffffffffffffff82169050919050565b60006119a98261197e565b9050919050565b6119b98161199e565b81146119c457600080fd5b50565b6000813590506119d6816119b0565b92915050565b6000602082840312156119f2576119f161179d565b5b6000611a00848285016119c7565b91505092915050565b60008060408385031215611a2057611a1f61179d565b5b6000611a2e858286016117cc565b9250506020611a3f8582860161183a565b9150509250929050565b6000601f19601f8301169050919050565b7f4e487b7100000000000000000000000000000000000000000000000000000000600052604160045260246000fd5b611a9282611a49565b810181811067ffffffffffffffff82111715611ab157611ab0611a5a565b5b80604052505050565b6000611ac4611793565b9050611ad08282611a89565b919050565b600067ffffffffffffffff821115611af057611aef611a5a565b5b602082029050602081019050919050565b6000611b14611b0f84611ad5565b611aba565b90508083825260208201905060208402830185811115611b3757611b366118d6565b5b835b81811015611b605780611b4c88826117cc565b845260208401935050602081019050611b39565b5050509392505050565b600082601f830112611b7f57611b7e6118cc565b5b8135611b8f848260208601611b01565b91505092915050565b600067ffffffffffffffff821115611bb357611bb2611a5a565b5b602082029050602081019050919050565b6000611bd7611bd284611b98565b611aba565b90508083825260208201905060208402830185811115611bfa57611bf96118d6565b5b835b81811015611c235780611c0f8882611802565b845260208401935050602081019050611bfc565b5050509392505050565b600082601f830112611c4257611c416118cc565b5b8135611c52848260208601611bc4565b91505092915050565b60008060408385031215611c7257611c7161179d565b5b600083013567ffffffffffffffff811115611c9057611c8f6117a2565b5b611c9c85828601611b6a565b925050602083013567ffffffffffffffff811115611cbd57611cbc6117a2565b5b611cc985828601611c2d565b9150509250929050565b600080fd5b600063ffffffff82169050919050565b611cf181611cd8565b8114611cfc57600080fd5b50565b600081359050611d0e81611ce8565b92915050565b600060a08284031215611d2a57611d29611cd3565b5b611d3460a0611aba565b90506000611d4484828501611cff565b6000830152506020611d5884828501611cff565b6020830152506040611d6c84828501611cff565b6040830152506060611d8084828501611cff565b6060830152506080611d9484828501611cff565b60808301525092915050565b600060a08284031215611db657611db561179d565b5b6000611dc484828501611d14565b91505092915050565b7f4e487b7100000000000000000000000000000000000000000000000000000000600052603260045260246000fd5b7f4e487b7100000000000000000000000000000000000000000000000000000000600052601160045260246000fd5b6000611e36826117e1565b91507fffffffffffffffffffffffffffffffffffffffffffffffffffffffffffffffff8203611e6857611e67611dfc565b5b600182019050919050565b6000611e7e826117e1565b9150611e89836117e1565b9250828201905080821115611ea157611ea0611dfc565b5b92915050565b6000611eb2826117e1565b9150611ebd836117e1565b9250828203905081811115611ed557611ed4611dfc565b5b92915050565b6000611ee6826117e1565b9150611ef1836117e1565b9250828202611eff816117e1565b91508282048414831517611f1657611f15611dfc565b5b5092915050565b7f4e487b7100000000000000000000000000000000000000000000000000000000600052601260045260246000fd5b6000611f57826117e1565b9150611f62836117e1565b925082611f7257611f71611f1d565b5b828204905092915050565b600082825260208201905092915050565b7f5072696365466565643a20696e76616c69642070726963652066656564000000600082015250565b6000611fc4601d83611f7d565b9150611fcf82611f8e565b602082019050919050565b60006020820190508181036000830152611ff381611fb7565b9050919050565b600069ffffffffffffffffffff82169050919050565b61201981611ffa565b811461202457600080fd5b50565b60008151905061203681612010565b92915050565b6000602082840312156120525761205161179d565b5b600061206084828501612027565b91505092915050565b6000819050919050565b61207c81612069565b811461208757600080fd5b50565b60008151905061209981612073565b92915050565b6000602082840312156120b5576120b461179d565b5b60006120c38482850161208a565b91505092915050565b7f5072696365466565643a20696e76616c69642070726963650000000000000000600082015250565b6000612102601883611f7d565b915061210d826120cc565b602082019050919050565b60006020820190508181036000830152612131816120f5565b9050919050565b600061214382611ffa565b915061214e83611ffa565b9250828203905069ffffffffffffffffffff8111156121705761216f611dfc565b5b92915050565b61217f81611ffa565b82525050565b600060208201905061219a6000830184612176565b92915050565b6000815190506121af816117eb565b92915050565b600080600080600060a086880312156121d1576121d061179d565b5b60006121df88828901612027565b95505060206121f08882890161208a565b9450506040612201888289016121a0565b9350506060612212888289016121a0565b925050608061222388828901612027565b9150509295509295909350565b600061223b82611ffa565b915069ffffffffffffffffffff820361225757612256611dfc565b5b600182019050919050565b7f5072696365466565643a20636f756c64206e6f74206665746368207072696365600082015250565b6000612298602083611f7d565b91506122a382612262565b602082019050919050565b600060208201905081810360008301526122c78161228b565b9050919050565b600060ff82169050919050565b6122e4816122ce565b81146122ef57600080fd5b50565b600081519050612301816122db565b92915050565b60006020828403121561231d5761231c61179d565b5b600061232b848285016122f2565b91505092915050565b60008160011c9050919050565b6000808291508390505b600185111561238b5780860481111561236757612366611dfc565b5b60018516156123765780820291505b808102905061238485612334565b945061234b565b94509492505050565b6000826123a45760019050612460565b816123b25760009050612460565b81600181146123c857600281146123d257612401565b6001915050612460565b60ff8411156123e4576123e3611dfc565b5b8360020a9150848211156123fb576123fa611dfc565b5b50612460565b5060208310610133831016604e8410600b84101617156124365782820a90508381111561243157612430611dfc565b5b612460565b6124438484846001612341565b9250905081840481111561245a57612459611dfc565b5b81810290505b9392505050565b6000612472826117e1565b915061247d836117e1565b92506124aa7fffffffffffffffffffffffffffffffffffffffffffffffffffffffffffffffff8484612394565b905092915050565b6124bb816117a7565b82525050565b600060a0820190506124d660008301886124b2565b6124e360208301876118a2565b6124f060408301866118a2565b6124fd60608301856118a2565b61250a60808301846118a2565b9695505050505050565b61251d8161199e565b82525050565b60006040820190506125386000830185612514565b61254560208301846118a2565b9392505050565b7f466173745072696365466565643a20696e76616c696420726566507269636500600082015250565b6000612582601f83611f7d565b915061258d8261254c565b602082019050919050565b600060208201905081810360008301526125b181612575565b9050919050565b7f466173745072696365466565643a20696e76616c69642063756d756c6174697660008201527f6552656644656c74610000000000000000000000000000000000000000000000602082015250565b6000612614602983611f7d565b915061261f826125b8565b604082019050919050565b6000602082019050818103600083015261264381612607565b9050919050565b7f466173745072696365466565643a20696e76616c69642063756d756c6174697660008201527f654661737444656c746100000000000000000000000000000000000000000000602082015250565b60006126a6602a83611f7d565b91506126b18261264a565b604082019050919050565b600060208201905081810360008301526126d581612699565b9050919050565b6126e581612069565b82525050565b600060208201905061270060008301846126dc565b9291505056fea2646970667358221220f4fcabd7019c69d1d4958f723b06ae31510897fa7ff6ae867b35c07a4f79f7dd64736f6c63430008140033",
  "devdoc": {
    "errors": {
      "SafeCastOverflowedIntToUint(int256)": [
        {
          "details": "An int value doesn't fit in an uint of `bits` size."
        }
      ]
    },
    "kind": "dev",
    "methods": {},
    "version": 1
  },
  "userdoc": {
    "kind": "user",
    "methods": {},
    "version": 1
  },
  "storageLayout": {
    "storage": [],
    "types": null
  }
}