{
  "address": "0xd183a01812e1CBCE445F92668258454c8D10d9ec",
  "abi": [
    {
      "inputs": [
        {
          "internalType": "address",
          "name": "authority",
          "type": "address"
        }
      ],
      "name": "AccessManagedInvalidAuthority",
      "type": "error"
    },
    {
      "inputs": [
        {
          "internalType": "address",
          "name": "caller",
          "type": "address"
        },
        {
          "internalType": "uint32",
          "name": "delay",
          "type": "uint32"
        }
      ],
      "name": "AccessManagedRequiredDelay",
      "type": "error"
    },
    {
      "inputs": [
        {
          "internalType": "address",
          "name": "caller",
          "type": "address"
        }
      ],
      "name": "AccessManagedUnauthorized",
      "type": "error"
    },
    {
      "inputs": [
        {
          "internalType": "address",
          "name": "markets",
          "type": "address"
        },
        {
          "internalType": "bool",
          "name": "isIncrease",
          "type": "bool"
        },
        {
          "internalType": "uint256",
          "name": "orderID",
          "type": "uint256"
        },
        {
          "internalType": "bool",
          "name": "isLong",
          "type": "bool"
        }
      ],
      "name": "cancelOrder",
      "outputs": [],
      "stateMutability": "nonpayable",
      "type": "function"
    },
    {
      "inputs": [
        {
          "internalType": "address",
          "name": "user",
          "type": "address"
        },
        {
          "internalType": "address",
          "name": "markets",
          "type": "address"
        },
        {
          "internalType": "bool",
          "name": "isIncrease",
          "type": "bool"
        },
        {
          "internalType": "uint256",
          "name": "orderID",
          "type": "uint256"
        },
        {
          "internalType": "bool",
          "name": "isLong",
          "type": "bool"
        }
      ],
      "name": "sysCancelOrder",
      "outputs": [],
      "stateMutability": "nonpayable",
      "type": "function"
    },
    {
      "inputs": [
        {
          "internalType": "bytes",
          "name": "data",
          "type": "bytes"
        }
      ],
      "name": "updateOrder",
      "outputs": [],
      "stateMutability": "payable",
      "type": "function"
    }
  ],
  "transactionHash": "0x835c6dc5f28025c627cf10bc6ca83a40d25c9ffbd574132b6b47ad5a8cb61a77",
  "args": [],
  "numDeployments": 1,
  "solcInputHash": "f6719ff3a2395d03b26d7bb330f0d005",
  "bytecode": "0x608060405234801561001057600080fd5b50610e1d806100206000396000f3fe6080604052600436106100345760003560e01c8063a9487c2314610039578063a9cd76f614610055578063dc821f691461007e575b600080fd5b610053600480360381019061004e9190610489565b6100a7565b005b34801561006157600080fd5b5061007c600480360381019061007791906105a2565b6100c5565b005b34801561008a57600080fd5b506100a560048036038101906100a09190610609565b6100d8565b005b600082828101906100b89190610a9c565b90508060c0015150505050565b6100d2338585858561012d565b50505050565b3073ffffffffffffffffffffffffffffffffffffffff163373ffffffffffffffffffffffffffffffffffffffff1603156101195761011833600036610134565b5b610126858585858561012d565b5050505050565b5050505050565b600061013e610287565b905060008061017461014e6102b7565b8730888860009060049261016493929190610ad4565b9061016f9190610b53565b6102ea565b915091508161027f5760008163ffffffff1611156102415760018360000160146101000a81548160ff0219169083151502179055506101b16102b7565b73ffffffffffffffffffffffffffffffffffffffff166394c7d7ee8787876040518463ffffffff1660e01b81526004016101ed93929190610c0e565b600060405180830381600087803b15801561020757600080fd5b505af115801561021b573d6000803e3d6000fd5b5050505060008360000160146101000a81548160ff02191690831515021790555061027e565b856040517f068ca9d80000000000000000000000000000000000000000000000000000000081526004016102759190610c40565b60405180910390fd5b5b505050505050565b6000807ff3177357ab46d8af007ab3fdb9af81da189e1068fefdc0073dca88a2cab40a0060001b90508091505090565b60006102c1610287565b60000160009054906101000a900473ffffffffffffffffffffffffffffffffffffffff16905090565b6000806000808773ffffffffffffffffffffffffffffffffffffffff1687878760405160240161031c93929190610c6a565b60405160208183030381529060405263b700961360e01b6020820180517bffffffffffffffffffffffffffffffffffffffffffffffffffffffff838183161783525050505060405161036e9190610d12565b600060405180830381855afa9150503d80600081146103a9576040519150601f19603f3d011682016040523d82523d6000602084013e6103ae565b606091505b509150915081156104055760408151106103e357808060200190518101906103d69190610d7a565b8094508195505050610404565b602081511061040357808060200190518101906104009190610dba565b93505b5b5b505094509492505050565b6000604051905090565b600080fd5b600080fd5b600080fd5b600080fd5b600080fd5b60008083601f84011261044957610448610424565b5b8235905067ffffffffffffffff81111561046657610465610429565b5b6020830191508360018202830111156104825761048161042e565b5b9250929050565b600080602083850312156104a05761049f61041a565b5b600083013567ffffffffffffffff8111156104be576104bd61041f565b5b6104ca85828601610433565b92509250509250929050565b600073ffffffffffffffffffffffffffffffffffffffff82169050919050565b6000610501826104d6565b9050919050565b610511816104f6565b811461051c57600080fd5b50565b60008135905061052e81610508565b92915050565b60008115159050919050565b61054981610534565b811461055457600080fd5b50565b60008135905061056681610540565b92915050565b6000819050919050565b61057f8161056c565b811461058a57600080fd5b50565b60008135905061059c81610576565b92915050565b600080600080608085870312156105bc576105bb61041a565b5b60006105ca8782880161051f565b94505060206105db87828801610557565b93505060406105ec8782880161058d565b92505060606105fd87828801610557565b91505092959194509250565b600080600080600060a086880312156106255761062461041a565b5b60006106338882890161051f565b95505060206106448882890161051f565b945050604061065588828901610557565b93505060606106668882890161058d565b925050608061067788828901610557565b9150509295509295909350565b600080fd5b6000601f19601f8301169050919050565b7f4e487b7100000000000000000000000000000000000000000000000000000000600052604160045260246000fd5b6106d282610689565b810181811067ffffffffffffffff821117156106f1576106f061069a565b5b80604052505050565b6000610704610410565b905061071082826106c9565b919050565b600061ffff82169050919050565b61072c81610715565b811461073757600080fd5b50565b60008135905061074981610723565b92915050565b600067ffffffffffffffff82169050919050565b61076c8161074f565b811461077757600080fd5b50565b60008135905061078981610763565b92915050565b600060ff82169050919050565b6107a58161078f565b81146107b057600080fd5b50565b6000813590506107c28161079c565b92915050565b6000819050919050565b6107db816107c8565b81146107e657600080fd5b50565b6000813590506107f8816107d2565b92915050565b60006fffffffffffffffffffffffffffffffff82169050919050565b610823816107fe565b811461082e57600080fd5b50565b6000813590506108408161081a565b92915050565b6000610340828403121561085d5761085c610684565b5b6108686103406106fa565b905060006108788482850161058d565b600083015250602061088c8482850161058d565b60208301525060406108a08482850161058d565b60408301525060606108b48482850161073a565b60608301525060806108c884828501610557565b60808301525060a06108dc84828501610557565b60a08301525060c06108f084828501610557565b60c08301525060e061090484828501610557565b60e0830152506101006109198482850161058d565b6101008301525061012061092f8482850161058d565b610120830152506101406109458482850161058d565b6101408301525061016061095b8482850161058d565b610160830152506101806109718482850161058d565b610180830152506101a06109878482850161058d565b6101a0830152506101c061099d8482850161077a565b6101c0830152506101e06109b38482850161051f565b6101e0830152506102006109c984828501610557565b610200830152506102206109df848285016107b3565b610220830152506102406109f58482850161077a565b61024083015250610260610a0b848285016107e9565b61026083015250610280610a21848285016107b3565b610280830152506102a0610a3784828501610557565b6102a0830152506102c0610a4d84828501610557565b6102c0830152506102e0610a6384828501610557565b6102e083015250610300610a7984828501610557565b61030083015250610320610a8f84828501610831565b6103208301525092915050565b60006103408284031215610ab357610ab261041a565b5b6000610ac184828501610846565b91505092915050565b600080fd5b600080fd5b60008085851115610ae857610ae7610aca565b5b83861115610af957610af8610acf565b5b6001850283019150848603905094509492505050565b600082905092915050565b60007fffffffff0000000000000000000000000000000000000000000000000000000082169050919050565b600082821b905092915050565b6000610b5f8383610b0f565b82610b6a8135610b1a565b92506004821015610baa57610ba57fffffffff0000000000000000000000000000000000000000000000000000000083600403600802610b46565b831692505b505092915050565b610bbb816104f6565b82525050565b600082825260208201905092915050565b82818337600083830152505050565b6000610bed8385610bc1565b9350610bfa838584610bd2565b610c0383610689565b840190509392505050565b6000604082019050610c236000830186610bb2565b8181036020830152610c36818486610be1565b9050949350505050565b6000602082019050610c556000830184610bb2565b92915050565b610c6481610b1a565b82525050565b6000606082019050610c7f6000830186610bb2565b610c8c6020830185610bb2565b610c996040830184610c5b565b949350505050565b600081519050919050565b600081905092915050565b60005b83811015610cd5578082015181840152602081019050610cba565b60008484015250505050565b6000610cec82610ca1565b610cf68185610cac565b9350610d06818560208601610cb7565b80840191505092915050565b6000610d1e8284610ce1565b915081905092915050565b600081519050610d3881610540565b92915050565b600063ffffffff82169050919050565b610d5781610d3e565b8114610d6257600080fd5b50565b600081519050610d7481610d4e565b92915050565b60008060408385031215610d9157610d9061041a565b5b6000610d9f85828601610d29565b9250506020610db085828601610d65565b9150509250929050565b600060208284031215610dd057610dcf61041a565b5b6000610dde84828501610d29565b9150509291505056fea26469706673582212207faf483a1a7357cadd10ad843927b71555ccbd87d8ddd0994d13f86949b38a9164736f6c63430008140033",
  "devdoc": {
    "kind": "dev",
    "methods": {},
    "version": 1
  },
  "userdoc": {
    "kind": "user",
    "methods": {},
    "version": 1
  },
  "storageLayout": {
    "storage": [],
    "types": null
  }
}