{
  "address": "0x96E3C7Dcb882b0bd1Ac934661f5BCaDb838eF9a3",
  "abi": [
    {
      "inputs": [
        {
          "internalType": "address",
          "name": "authority",
          "type": "address"
        }
      ],
      "name": "AccessManagedInvalidAuthority",
      "type": "error"
    },
    {
      "inputs": [
        {
          "internalType": "address",
          "name": "caller",
          "type": "address"
        },
        {
          "internalType": "uint32",
          "name": "delay",
          "type": "uint32"
        }
      ],
      "name": "AccessManagedRequiredDelay",
      "type": "error"
    },
    {
      "inputs": [
        {
          "internalType": "address",
          "name": "caller",
          "type": "address"
        }
      ],
      "name": "AccessManagedUnauthorized",
      "type": "error"
    },
    {
      "inputs": [
        {
          "internalType": "address",
          "name": "target",
          "type": "address"
        }
      ],
      "name": "AddressEmptyCode",
      "type": "error"
    },
    {
      "inputs": [
        {
          "internalType": "address",
          "name": "account",
          "type": "address"
        }
      ],
      "name": "AddressInsufficientBalance",
      "type": "error"
    },
    {
      "inputs": [],
      "name": "FailedInnerCall",
      "type": "error"
    },
    {
      "inputs": [
        {
          "internalType": "address",
          "name": "token",
          "type": "address"
        }
      ],
      "name": "SafeERC20FailedOperation",
      "type": "error"
    },
    {
      "inputs": [
        {
          "components": [
            {
              "internalType": "enum MarketBusinessType",
              "name": "busiType",
              "type": "uint8"
            },
            {
              "internalType": "uint256",
              "name": "oraclePrice",
              "type": "uint256"
            },
            {
              "internalType": "uint256",
              "name": "pay",
              "type": "uint256"
            },
            {
              "internalType": "uint256",
              "name": "slippage",
              "type": "uint256"
            },
            {
              "internalType": "uint16",
              "name": "market",
              "type": "uint16"
            },
            {
              "internalType": "bool",
              "name": "isLong",
              "type": "bool"
            },
            {
              "internalType": "bool",
              "name": "isOpen",
              "type": "bool"
            },
            {
              "internalType": "bool",
              "name": "isCreate",
              "type": "bool"
            },
            {
              "internalType": "bool",
              "name": "isFromMarket",
              "type": "bool"
            },
            {
              "internalType": "uint256",
              "name": "sizeDelta",
              "type": "uint256"
            },
            {
              "internalType": "uint256",
              "name": "price",
              "type": "uint256"
            },
            {
              "internalType": "uint256",
              "name": "collateralDelta",
              "type": "uint256"
            },
            {
              "internalType": "uint256",
              "name": "collateral",
              "type": "uint256"
            },
            {
              "internalType": "uint256",
              "name": "tp",
              "type": "uint256"
            },
            {
              "internalType": "uint256",
              "name": "sl",
              "type": "uint256"
            },
            {
              "internalType": "uint64",
              "name": "orderId",
              "type": "uint64"
            },
            {
              "internalType": "address",
              "name": "account",
              "type": "address"
            },
            {
              "internalType": "bool",
              "name": "isExec",
              "type": "bool"
            },
            {
              "internalType": "enum LiquidationState",
              "name": "liqState",
              "type": "uint8"
            },
            {
              "internalType": "uint64",
              "name": "fromOrder",
              "type": "uint64"
            },
            {
              "internalType": "bytes32",
              "name": "refCode",
              "type": "bytes32"
            },
            {
              "internalType": "uint8",
              "name": "execNum",
              "type": "uint8"
            },
            {
              "internalType": "bool",
              "name": "isKeepLev",
              "type": "bool"
            },
            {
              "internalType": "bool",
              "name": "isKeepLevTP",
              "type": "bool"
            },
            {
              "internalType": "bool",
              "name": "isKeepLevSL",
              "type": "bool"
            },
            {
              "internalType": "bool",
              "name": "triggerAbove",
              "type": "bool"
            },
            {
              "internalType": "uint128",
              "name": "gas",
              "type": "uint128"
            }
          ],
          "internalType": "struct MarketCache[]",
          "name": "_inputs",
          "type": "tuple[]"
        }
      ],
      "name": "_addOrders",
      "outputs": [
        {
          "components": [
            {
              "internalType": "bytes32",
              "name": "refCode",
              "type": "bytes32"
            },
            {
              "internalType": "uint128",
              "name": "collateral",
              "type": "uint128"
            },
            {
              "internalType": "uint128",
              "name": "size",
              "type": "uint128"
            },
            {
              "internalType": "uint256",
              "name": "price",
              "type": "uint256"
            },
            {
              "internalType": "uint256",
              "name": "tp",
              "type": "uint256"
            },
            {
              "internalType": "bool",
              "name": "triggerAbove",
              "type": "bool"
            },
            {
              "internalType": "bool",
              "name": "isFromMarket",
              "type": "bool"
            },
            {
              "internalType": "bool",
              "name": "isKeepLev",
              "type": "bool"
            },
            {
              "internalType": "bool",
              "name": "isKeepLevTP",
              "type": "bool"
            },
            {
              "internalType": "bool",
              "name": "isKeepLevSL",
              "type": "bool"
            },
            {
              "internalType": "uint64",
              "name": "orderID",
              "type": "uint64"
            },
            {
              "internalType": "uint64",
              "name": "pairId",
              "type": "uint64"
            },
            {
              "internalType": "uint64",
              "name": "fromId",
              "type": "uint64"
            },
            {
              "internalType": "uint32",
              "name": "updatedAtBlock",
              "type": "uint32"
            },
            {
              "internalType": "uint8",
              "name": "extra0",
              "type": "uint8"
            },
            {
              "internalType": "address",
              "name": "account",
              "type": "address"
            },
            {
              "internalType": "uint96",
              "name": "extra1",
              "type": "uint96"
            },
            {
              "internalType": "uint256",
              "name": "sl",
              "type": "uint256"
            },
            {
              "internalType": "bool",
              "name": "isIncrease",
              "type": "bool"
            },
            {
              "internalType": "bool",
              "name": "isLong",
              "type": "bool"
            },
            {
              "internalType": "uint16",
              "name": "market",
              "type": "uint16"
            },
            {
              "internalType": "uint96",
              "name": "extra2",
              "type": "uint96"
            },
            {
              "internalType": "uint128",
              "name": "gas",
              "type": "uint128"
            },
            {
              "internalType": "uint8",
              "name": "version",
              "type": "uint8"
            }
          ],
          "internalType": "struct OrderProps[]",
          "name": "_orders",
          "type": "tuple[]"
        }
      ],
      "stateMutability": "nonpayable",
      "type": "function"
    },
    {
      "inputs": [
        {
          "internalType": "address",
          "name": "account",
          "type": "address"
        },
        {
          "internalType": "uint16",
          "name": "market",
          "type": "uint16"
        },
        {
          "internalType": "bool",
          "name": "isIncrease",
          "type": "bool"
        },
        {
          "internalType": "uint256",
          "name": "orderID",
          "type": "uint256"
        },
        {
          "internalType": "bool",
          "name": "isLong",
          "type": "bool"
        }
      ],
      "name": "cancelOrder",
      "outputs": [
        {
          "components": [
            {
              "internalType": "bytes32",
              "name": "refCode",
              "type": "bytes32"
            },
            {
              "internalType": "uint128",
              "name": "collateral",
              "type": "uint128"
            },
            {
              "internalType": "uint128",
              "name": "size",
              "type": "uint128"
            },
            {
              "internalType": "uint256",
              "name": "price",
              "type": "uint256"
            },
            {
              "internalType": "uint256",
              "name": "tp",
              "type": "uint256"
            },
            {
              "internalType": "bool",
              "name": "triggerAbove",
              "type": "bool"
            },
            {
              "internalType": "bool",
              "name": "isFromMarket",
              "type": "bool"
            },
            {
              "internalType": "bool",
              "name": "isKeepLev",
              "type": "bool"
            },
            {
              "internalType": "bool",
              "name": "isKeepLevTP",
              "type": "bool"
            },
            {
              "internalType": "bool",
              "name": "isKeepLevSL",
              "type": "bool"
            },
            {
              "internalType": "uint64",
              "name": "orderID",
              "type": "uint64"
            },
            {
              "internalType": "uint64",
              "name": "pairId",
              "type": "uint64"
            },
            {
              "internalType": "uint64",
              "name": "fromId",
              "type": "uint64"
            },
            {
              "internalType": "uint32",
              "name": "updatedAtBlock",
              "type": "uint32"
            },
            {
              "internalType": "uint8",
              "name": "extra0",
              "type": "uint8"
            },
            {
              "internalType": "address",
              "name": "account",
              "type": "address"
            },
            {
              "internalType": "uint96",
              "name": "extra1",
              "type": "uint96"
            },
            {
              "internalType": "uint256",
              "name": "sl",
              "type": "uint256"
            },
            {
              "internalType": "bool",
              "name": "isIncrease",
              "type": "bool"
            },
            {
              "internalType": "bool",
              "name": "isLong",
              "type": "bool"
            },
            {
              "internalType": "uint16",
              "name": "market",
              "type": "uint16"
            },
            {
              "internalType": "uint96",
              "name": "extra2",
              "type": "uint96"
            },
            {
              "internalType": "uint128",
              "name": "gas",
              "type": "uint128"
            },
            {
              "internalType": "uint8",
              "name": "version",
              "type": "uint8"
            }
          ],
          "internalType": "struct OrderProps[]",
          "name": "_orders",
          "type": "tuple[]"
        }
      ],
      "stateMutability": "nonpayable",
      "type": "function"
    },
    {
      "inputs": [
        {
          "components": [
            {
              "internalType": "enum MarketBusinessType",
              "name": "busiType",
              "type": "uint8"
            },
            {
              "internalType": "uint256",
              "name": "oraclePrice",
              "type": "uint256"
            },
            {
              "internalType": "uint256",
              "name": "pay",
              "type": "uint256"
            },
            {
              "internalType": "uint256",
              "name": "slippage",
              "type": "uint256"
            },
            {
              "internalType": "uint16",
              "name": "market",
              "type": "uint16"
            },
            {
              "internalType": "bool",
              "name": "isLong",
              "type": "bool"
            },
            {
              "internalType": "bool",
              "name": "isOpen",
              "type": "bool"
            },
            {
              "internalType": "bool",
              "name": "isCreate",
              "type": "bool"
            },
            {
              "internalType": "bool",
              "name": "isFromMarket",
              "type": "bool"
            },
            {
              "internalType": "uint256",
              "name": "sizeDelta",
              "type": "uint256"
            },
            {
              "internalType": "uint256",
              "name": "price",
              "type": "uint256"
            },
            {
              "internalType": "uint256",
              "name": "collateralDelta",
              "type": "uint256"
            },
            {
              "internalType": "uint256",
              "name": "collateral",
              "type": "uint256"
            },
            {
              "internalType": "uint256",
              "name": "tp",
              "type": "uint256"
            },
            {
              "internalType": "uint256",
              "name": "sl",
              "type": "uint256"
            },
            {
              "internalType": "uint64",
              "name": "orderId",
              "type": "uint64"
            },
            {
              "internalType": "address",
              "name": "account",
              "type": "address"
            },
            {
              "internalType": "bool",
              "name": "isExec",
              "type": "bool"
            },
            {
              "internalType": "enum LiquidationState",
              "name": "liqState",
              "type": "uint8"
            },
            {
              "internalType": "uint64",
              "name": "fromOrder",
              "type": "uint64"
            },
            {
              "internalType": "bytes32",
              "name": "refCode",
              "type": "bytes32"
            },
            {
              "internalType": "uint8",
              "name": "execNum",
              "type": "uint8"
            },
            {
              "internalType": "bool",
              "name": "isKeepLev",
              "type": "bool"
            },
            {
              "internalType": "bool",
              "name": "isKeepLevTP",
              "type": "bool"
            },
            {
              "internalType": "bool",
              "name": "isKeepLevSL",
              "type": "bool"
            },
            {
              "internalType": "bool",
              "name": "triggerAbove",
              "type": "bool"
            },
            {
              "internalType": "uint128",
              "name": "gas",
              "type": "uint128"
            }
          ],
          "internalType": "struct MarketCache",
          "name": "_inputs",
          "type": "tuple"
        }
      ],
      "name": "updateOrder",
      "outputs": [],
      "stateMutability": "payable",
      "type": "function"
    }
  ],
  "transactionHash": "0x641a27d50186f59ba806d76fb026c362132b9467554066bed6113ab48bfe3b42",
  "args": [],
  "numDeployments": 8,
  "solcInputHash": "1dcb6aaba1ba97cd804fcdc1f6e94e24",
  "bytecode": "0x60806040523462000023576200001462000029565b614b68620000358239614b6890f35b6200002f565b60405190565b600080fdfe60806040526004361015610013575b61097c565b61001e60003561004d565b806370192b6e146100485780637377e4d71461004357638114baa80361000e57610943565b6108c3565b610868565b60e01c90565b60405190565b600080fd5b600080fd5b600080fd5b600080fd5b601f801991011690565b634e487b7160e01b600052604160045260246000fd5b906100979061006d565b810190811060018060401b038211176100af57604052565b610077565b906100c76100c0610053565b928361008d565b565b60018060401b0381116100df5760208091020190565b610077565b600080fd5b600080fd5b600511156100f857565b600080fd5b9050359061010a826100ee565b565b90565b6101188161010c565b0361011f57565b600080fd5b905035906101318261010f565b565b61ffff1690565b61014381610133565b0361014a57565b600080fd5b9050359061015c8261013a565b565b151590565b61016c8161015e565b0361017357565b600080fd5b9050359061018582610163565b565b60018060401b031690565b61019b81610187565b036101a257565b600080fd5b905035906101b482610192565b565b60018060a01b031690565b6101ca906101b6565b90565b6101d6816101c1565b036101dd57565b600080fd5b905035906101ef826101cd565b565b600311156101fb57565b600080fd5b9050359061020d826101f1565b565b90565b61021b8161020f565b0361022257565b600080fd5b9050359061023482610212565b565b60ff1690565b61024581610236565b0361024c57565b600080fd5b9050359061025e8261023c565b565b60018060801b031690565b61027481610260565b0361027b57565b600080fd5b9050359061028d8261026b565b565b9190610360838203126104b5576104ad906102ab6103606100b4565b936102b982600083016100fd565b60008601526102cb8260208301610124565b60208601526102dd8260408301610124565b60408601526102ef8260608301610124565b6060860152610301826080830161014f565b60808601526103138260a08301610178565b60a08601526103258260c08301610178565b60c08601526103378260e08301610178565b60e086015261034a826101008301610178565b61010086015261035e826101208301610124565b610120860152610372826101408301610124565b610140860152610386826101608301610124565b61016086015261039a826101808301610124565b6101808601526103ae826101a08301610124565b6101a08601526103c2826101c08301610124565b6101c08601526103d6826101e083016101a7565b6101e08601526103ea8261020083016101e2565b6102008601526103fe826102208301610178565b610220860152610412826102408301610200565b6102408601526104268261026083016101a7565b61026086015261043a826102808301610227565b61028086015261044e826102a08301610251565b6102a0860152610462826102c08301610178565b6102c0860152610476826102e08301610178565b6102e086015261048a826103008301610178565b61030086015261049e826103208301610178565b61032086015261034001610280565b610340830152565b6100e9565b909291926104cf6104ca826100c9565b6100b4565b9381855261036060208601920283019281841161051057915b8383106104f55750505050565b602061036091610505848661028f565b8152019201916104e8565b6100e4565b9080601f8301121561053357816020610530933591016104ba565b90565b610068565b9060208282031261056757600082013560018060401b0381116105625761055f9201610515565b90565b610063565b61005e565b5190565b60209181520190565b60200190565b6105889061020f565b9052565b61059590610260565b9052565b6105a29061010c565b9052565b6105af9061015e565b9052565b6105bc90610187565b9052565b63ffffffff1690565b6105d2906105c0565b9052565b6105df90610236565b9052565b6105ec906101c1565b9052565b60018060601b031690565b610604906105f0565b9052565b61061190610133565b9052565b906102e0806107e4936106306000820151600086019061057f565b6106426020820151602086019061058c565b6106546040820151604086019061058c565b61066660608201516060860190610599565b61067860808201516080860190610599565b61068a60a082015160a08601906105a6565b61069c60c082015160c08601906105a6565b6106ae60e082015160e08601906105a6565b6106c26101008201516101008601906105a6565b6106d66101208201516101208601906105a6565b6106ea6101408201516101408601906105b3565b6106fe6101608201516101608601906105b3565b6107126101808201516101808601906105b3565b6107266101a08201516101a08601906105c9565b61073a6101c08201516101c08601906105d6565b61074e6101e08201516101e08601906105e3565b6107626102008201516102008601906105fb565b610776610220820151610220860190610599565b61078a6102408201516102408601906105a6565b61079e6102608201516102608601906105a6565b6107b2610280820151610280860190610608565b6107c66102a08201516102a08601906105fb565b6107da6102c08201516102c086019061058c565b01519101906105d6565b565b906107f48161030093610615565b0190565b60200190565b9061081b61081561080e8461056c565b8093610570565b92610579565b9060005b81811061082c5750505090565b90919261084561083f60019286516107e6565b946107f8565b910191909161081f565b61086591602082019160008184039101526107fe565b90565b346108985761089461088361087e366004610538565b6109a1565b61088b610053565b9182918261084f565b0390f35b610059565b90610360828203126108b8576108b59160000161028f565b90565b61005e565b60000190565b6108d66108d136600461089d565b611333565b6108de610053565b806108e8816108bd565b0390f35b919060a08382031261093e5761090581600085016101e2565b92610913826020830161014f565b9261093b6109248460408501610178565b936109328160608601610124565b93608001610178565b90565b61005e565b34610977576109736109626109593660046108ec565b939290926116bf565b61096a610053565b9182918261084f565b0390f35b610059565b600080fd5b606090565b9061099091610993565b90565b9061099e9150611827565b90565b6109b2906109ad610981565b610986565b90565b90565b90565b6109cf6109ca6109d4926109b5565b6109b8565b61010c565b90565b906109e96109e4836100c9565b6100b4565b918252565b6109f96103606100b4565b90565b600090565b600090565b600090565b600090565b600090565b600090565b600090565b600090565b600090565b600090565b610a366109ee565b9081610a406109fc565b8152602001610a4d610a01565b8152602001610a5a610a01565b8152602001610a67610a01565b8152602001610a74610a06565b8152602001610a81610a0b565b8152602001610a8e610a0b565b8152602001610a9b610a0b565b8152602001610aa8610a0b565b8152602001610ab5610a01565b8152602001610ac2610a01565b8152602001610acf610a01565b8152602001610adc610a01565b8152602001610ae9610a01565b8152602001610af6610a01565b8152602001610b03610a10565b8152602001610b10610a15565b8152602001610b1d610a0b565b8152602001610b2a610a1a565b8152602001610b37610a10565b8152602001610b44610a1f565b8152602001610b51610a24565b8152602001610b5e610a0b565b8152602001610b6b610a0b565b8152602001610b78610a0b565b8152602001610b85610a0b565b8152602001610b92610a29565b815250565b610b9f610a2e565b90565b60005b828110610bb157505050565b602090610bbc610b97565b8184015201610ba5565b90610beb610bd3836109d7565b92602080610be186936100c9565b9201910390610ba2565b565b634e487b7160e01b600052603260045260246000fd5b5190565b90610c1182610c03565b811015610c22576020809102010190565b610bed565b90565b610c3e610c39610c4392610c27565b6109b8565b61010c565b90565b610c50905161015e565b90565b610c5d9051610133565b90565b610c6a905161010c565b90565b90610c779061010c565b9052565b610c8f610c8a610c94926101b6565b6109b8565b6101b6565b90565b610ca090610c7b565b90565b610cac90610c97565b90565b610cb890610c97565b90565b600080fd5b60e01b90565b90565b610cd281610cc6565b03610cd957565b600080fd5b90505190610ceb82610cc9565b565b90602082820312610d0757610d0491600001610cde565b90565b61005e565b634e487b7160e01b600052602160045260246000fd5b60051115610d2c57565b610d0c565b90610d3b82610d22565b565b610d4690610d31565b90565b610d5290610d3d565b9052565b60031115610d6057565b610d0c565b90610d6f82610d56565b565b610d7a90610d65565b90565b610d8690610d71565b9052565b9061034080610f9593610da560008201516000860190610d49565b610db760208201516020860190610599565b610dc960408201516040860190610599565b610ddb60608201516060860190610599565b610ded60808201516080860190610608565b610dff60a082015160a08601906105a6565b610e1160c082015160c08601906105a6565b610e2360e082015160e08601906105a6565b610e376101008201516101008601906105a6565b610e4b610120820151610120860190610599565b610e5f610140820151610140860190610599565b610e73610160820151610160860190610599565b610e87610180820151610180860190610599565b610e9b6101a08201516101a0860190610599565b610eaf6101c08201516101c0860190610599565b610ec36101e08201516101e08601906105b3565b610ed76102008201516102008601906105e3565b610eeb6102208201516102208601906105a6565b610eff610240820151610240860190610d7d565b610f136102608201516102608601906105b3565b610f2761028082015161028086019061057f565b610f3b6102a08201516102a08601906105d6565b610f4f6102c08201516102c08601906105a6565b610f636102e08201516102e08601906105a6565b610f776103008201516103008601906105a6565b610f8b6103208201516103208601906105a6565b015191019061058c565b565b9190610fac9060006103608501940190610d8a565b565b610fb6610053565b3d6000823e3d90fd5b610fc890610c97565b90565b610fd590516101c1565b90565b90505190610fe58261010f565b565b90505190610ff482610163565b565b610fff816105c0565b0361100657565b600080fd5b9050519061101882610ff6565b565b905051906110278261013a565b565b60018060481b031690565b61103d81611029565b0361104457565b600080fd5b9050519061105682611034565b565b9190610120838203126111165761110e906110746101206100b4565b936110828260008301610fd8565b60008601526110948260208301610fd8565b60208601526110a68260408301610cde565b60408601526110b88260608301610cde565b60608601526110ca8260808301610fd8565b60808601526110dc8260a08301610fe7565b60a08601526110ee8260c0830161100b565b60c08601526111008260e0830161101a565b60e086015261010001611049565b610100830152565b6100e9565b90610120828203126111365761113391600001611058565b90565b61005e565b61114490610133565b9052565b611151906101c1565b9052565b61115e9061010c565b9052565b61116b9061015e565b9052565b6111a56111ac9461119b606094989795611191608086019a600087019061113b565b6020850190611148565b6040830190611155565b0190611162565b565b6111b96103006100b4565b90565b600090565b600090565b6111ce6111ae565b90816111d8610a1f565b81526020016111e5610a29565b81526020016111f2610a29565b81526020016111ff610a01565b815260200161120c610a01565b8152602001611219610a0b565b8152602001611226610a0b565b8152602001611233610a0b565b8152602001611240610a0b565b815260200161124d610a0b565b815260200161125a610a10565b8152602001611267610a10565b8152602001611274610a10565b81526020016112816111bc565b815260200161128e610a24565b815260200161129b610a15565b81526020016112a86111c1565b81526020016112b5610a01565b81526020016112c2610a0b565b81526020016112cf610a0b565b81526020016112dc610a06565b81526020016112e96111c1565b81526020016112f6610a29565b8152602001611303610a24565b815250565b6113106111c6565b90565b9061131d8261056c565b81101561132e576020809102010190565b610bed565b61134561134060016109bb565b610bc6565b906113708161136a849160009061136461135e83610c2a565b85610c07565b52610c2a565b90610c07565b515061137e60c08201610c46565b806116ad575b611687575b6113c76113be61139b60a08401610c46565b6113b86113b26113ad60c08701610c46565b61015e565b9161015e565b14611be1565b60208301610c6d565b6113d46101008201610c46565b61166c575b6113e560e08201610c46565b611438575b6113f2611308565b506113ff60e08201610c46565b600014611428575061141361142391611827565b61141d6000610c2a565b90611313565b51505b565b6114329150612208565b50611426565b61146d61144f61144a60808401610c53565b611d53565b3361145930610ca3565b906114676101608601610c60565b92611dab565b61147960c08201610c46565b60001461149f5761149961148f60408301610c60565b6101808301610c6d565b5b6113ea565b6114de60206114b46114af611e1e565b610caf565b63320de8e9906114d385926114c7610053565b95869485938493610cc0565b835260048301610f97565b03915afa90811561166757600091611639575b506115026114fd611e58565b610fbf565b906101206389d797b99261151860808601610c53565b9061155a6115296102008801610fcb565b9561156561153960208a01610c60565b61154560a08b01610c46565b9061154e610053565b998a9788968796610cc0565b86526004860161116f565b03915afa80156116345761160092600091611605575b5061158860808501610c53565b9161159560208301610c60565b916115af60006115a86101608901610c60565b9201610c60565b906115bd6101208801610c60565b92936115fa6115ce60808a01610c53565b6115da60a08b01610c46565b6115e660c08c01610c46565b906115f46102008d01610fcb565b92611ee1565b9561201a565b61149a565b61162791506101203d811161162d575b61161f818361008d565b81019061111b565b3861157b565b503d611615565b610fae565b61165a915060203d8111611660575b611652818361008d565b810190610ced565b386114f1565b503d611648565b610fae565b61168261167882611c4d565b6101408301610c6d565b6113d9565b6116a861169660808301610c53565b6116a260408401610c60565b90611ba5565b611389565b506116ba60e08201610c46565b611384565b9061170494919392936116d0610981565b506116da30610ca3565b6116ec6116e6336101c1565b916101c1565b14159081611719575b50611707575b9233929361278f565b90565b611714336000369161257c565b6116fb565b905061172d611727336101c1565b916101c1565b1415386116f5565b60018060401b03811161174b5760208091020190565b610077565b9061176261175d83611735565b6100b4565b918252565b61176f6111c6565b90565b60005b82811061178157505050565b60209061178c611767565b8184015201611775565b906117bb6117a383611750565b926020806117b18693611735565b9201910390611772565b565b600090565b6117d66117d16117db9261010c565b6109b8565b610187565b90565b906117e890610187565b9052565b60016117f8910161010c565b90565b90565b61181261180d611817926117fb565b6109b8565b61010c565b90565b6118249051610187565b90565b90611830610981565b5061183a82610c03565b9161184483611796565b9261184d6117bd565b5b8061186161185b8461010c565b9161010c565b10156119235761191e90611917611904611879611308565b6118f36118e96118e46118d1878b6118cb60c06118c46118bc60a06118b56118ae60806118a7898b90610c07565b5101610c53565b9787610c07565b5101610c46565b938d90610c07565b5101610c46565b916128e9565b6118de6101e08601610fcb565b90612995565b6117c2565b61014083016117de565b6118fe878590610c07565b51612a3c565b8783916119118383611313565b52611313565b51506117ec565b61184e565b50918261193961193360026117fe565b9161010c565b14611a0f575b6119476117bd565b5b8061195b6119558661010c565b9161010c565b1015611a0957611a04906119ff611973878390611313565b516119ac8161198f60c06119888a8890610c07565b5101610c46565b6119a660a061199f8b8990610c07565b5101610c46565b91612c98565b6119fa6119c660806119bf898790610c07565b5101610c53565b6119dd60a06119d68a8890610c07565b5101610c46565b6119f460c06119ed8b8990610c07565b5101610c46565b916128e9565b6134c0565b6117ec565b611948565b50915050565b611a51611a33610140611a2c87611a2660016109bb565b90611313565b510161181a565b610160611a4a87611a446000610c2a565b90611313565b51016117de565b611a93611a75610140611a6e87611a686000610c2a565b90611313565b510161181a565b610160611a8c87611a8660016109bb565b90611313565b51016117de565b61193f565b611aac611aa7611ab192610133565b6109b8565b610133565b90565b90611abe90611a98565b600052602052604060002090565b60901c90565b63ffffffff1690565b611ae7611aec91611acc565b611ad2565b90565b611af99054611adb565b90565b611b10611b0b611b15926105c0565b6109b8565b61010c565b90565b60209181520190565b60007f4d61726b657456616c69643a7061793e4d61785472616465416d6f756e740000910152565b611b56601e602092611b18565b611b5f81611b21565b0190565b611b799060208101906000818303910152611b49565b90565b15611b8357565b611b8b610053565b62461bcd60e51b815280611ba160048201611b63565b0390fd5b90611bd8611bd2611bcd6000611bc7611bdf9682611bc16135dc565b01611ab4565b01611aef565b611afc565b9161010c565b1115611b7c565b565b50611bea6117bd565b90565b634e487b7160e01b600052601160045260246000fd5b611c12611c189193929361010c565b9261010c565b8203918211611c2357565b611bed565b611c37611c3d9193929361010c565b9261010c565b8201809211611c4857565b611bed565b611c556117bd565b50611c6260a08201610c46565b611c7f611c79611c7460c08501610c46565b61015e565b9161015e565b14600014611cc55780611cbb611c9b610140611cc19401610c60565b91611cb56060611cae6101408401610c60565b9201610c60565b906135e7565b90611c28565b5b90565b80611cf9611cd9610140611cff9401610c60565b91611cf36060611cec6101408401610c60565b9201610c60565b906135e7565b90611c03565b611cc2565b600090565b90611d1390611a98565b600052602052604060002090565b60001c90565b60018060a01b031690565b611d3e611d4391611d21565b611d27565b90565b611d509054611d32565b90565b611d73611d7891611d62611d04565b506003611d6d6135dc565b01611d09565b611d46565b90565b611d8490610c7b565b90565b611d9090611d7b565b90565b611d9c90610c7b565b90565b611da890611d93565b90565b92909181611dc2611dbc6000610c2a565b9161010c565b14611def57611de784611ddf611dda611ded97611d87565b611d9f565b949293613744565b92613863565b565b50505050565b600090565b611e0390610c97565b90565b611e0f90610c7b565b90565b611e1b90611e06565b90565b611e26611df5565b50611e38611e3330611dfa565b611e12565b90565b600090565b611e4990610c7b565b90565b611e5590611e40565b90565b611e60611e3b565b50611e72611e6d30611dfa565b611e4c565b90565b611e7e9061020f565b90565b90611e8b90611e75565b600052602052604060002090565b611ea290610c97565b90565b90611eaf90611e99565b600052602052604060002090565b90565b611ecc611ed191611d21565b611ebd565b90565b611ede9054611ec0565b90565b611f02611f1c9492611f1794611f1293611ef96117bd565b509190916128e9565b6002611f0c6138d7565b01611e81565b611ea5565b611ed4565b90565b60801c90565b61ffff1690565b611f38611f3d91611f1f565b611f25565b90565b611f4a9054611f2c565b90565b611f61611f5c611f6692610133565b6109b8565b61010c565b90565b60007f4d6178206f72646572733a636f6e666967206c696d6974000000000000000000910152565b611f9e6017602092611b18565b611fa781611f69565b0190565b611fc19060208101906000818303910152611f91565b90565b15611fcb57565b611fd3610053565b62461bcd60e51b815280611fe960048201611fab565b0390fd5b60181c90565b60ff1690565b61200561200a91611fed565b611ff3565b90565b6120179054611ff9565b90565b949392919095600061208c81886120786120929561207161206b6120666120558761204f6120466135dc565b98828a01611ab4565b01611f40565b9361206060016109bb565b90611c28565b61010c565b91611f4d565b1015611fc4565b61208487898491613966565b018890611ab4565b0161200d565b61209f575b505050505050565b6120b195600395909192939495613b46565b388080808080612097565b60007f4f72646572426f6f6b3a696e76616c6964206f726465724b6579000000000000910152565b6120f1601a602092611b18565b6120fa816120bc565b0190565b61211490602081019060008183039101526120e4565b90565b1561211e57565b612126610053565b62461bcd60e51b81528061213c600482016120fe565b0390fd5b61214a9051610236565b90565b61216161215c612166926109b5565b6109b8565b610236565b90565b612173600161214d565b90565b60007f4f72646572426f6f6b3a77726f6e672076657273696f6e000000000000000000910152565b6121ab6017602092611b18565b6121b481612176565b0190565b6121ce906020810190600081830391015261219e565b90565b156121d857565b6121e0610053565b62461bcd60e51b8152806121f6600482016121b8565b0390fd5b906122049061015e565b9052565b90612211611308565b506123446122386122256102008501610fcb565b6122326101e0860161181a565b90613e2e565b61233e61230c61228861226e61225060808901610c53565b61225c60a08a01610c46565b61226860c08b01610c46565b916128e9565b9361228261227d868390613e7c565b612117565b846143a7565b6122b76122986102e08301612140565b6122b16122ab6122a6612169565b610236565b91610236565b146121d1565b6122d06122c76101408901610c60565b60608301610c6d565b6122e56122df60c08901610c46565b1561015e565b60001461237e576123056122fc6103208901610c46565b60a083016121fa565b5b86612a3c565b9461231960c08201610c46565b612346575b859061233860a061233160c08401610c46565b9201610c46565b91612c98565b836143d8565b565b61235f6123566101a08301610c60565b60808801610c6d565b61237961236f6101c08301610c60565b6102208801610c6d565b61231e565b61239861238e6102e08901610c46565b61010083016121fa565b6123b26123a86103008901610c46565b61012083016121fa565b612306565b6123c090610c97565b90565b90565b6123da6123d56123df926123c3565b6109b8565b61010c565b90565b600080fd5b600080fd5b9093929384831161240c578411612407576001820201920390565b6123e7565b6123e2565b5090565b63ffffffff60e01b1690565b1b90565b9061243361243a9183612411565b9135612415565b9060048110612448575b5090565b6124609063ffffffff60e01b90600403600802612421565b1638612444565b61247b61247661248092610c27565b6109b8565b6105c0565b90565b919061249790600060208501940190611148565b565b60a01b90565b906124ae60ff60a01b91612499565b9181191691161790565b6124c19061015e565b90565b90565b906124dc6124d76124e3926124b8565b6124c4565b825461249f565b9055565b6124f090610c7b565b90565b6124fc906124e7565b90565b61250890610c97565b90565b600091031261251657565b61005e565b60209181520190565b90826000939282370152565b919061254a816125438161254f9561251b565b8095612524565b61006d565b0190565b9161257993919261256c60408201946000830190611148565b6020818503910152612530565b90565b61258461445c565b916125d76125cf612593614467565b8461259d306123b7565b906125c96125c3878b6000906125bd6125b7600493610c2a565b926123c6565b926123ec565b90612425565b926145be565b91901561015e565b6125e3575b5050505050565b6125f66125f06000612467565b916105c0565b116000146126be5761260c6001600085016124c7565b61262461261f61261a614467565b6124f3565b6124ff565b6394c7d7ee92919492813b156126b95760006126539161265e8296612647610053565b998a9788968795610cc0565b855260048501612553565b03925af19182156126b45761267d92612687575b5060008091016124c7565b38808080806125dc565b6126a79060003d81116126ad575b61269f818361008d565b81019061250b565b38612672565b503d612695565b610fae565b610cbb565b6126df826126ca610053565b91829162d1953b60e31b835260048301612483565b0390fd5b6126f76126f26126fc92610c27565b6109b8565b6101b6565b90565b612708906126e3565b90565b60007f506f736974696f6e5375624d67723a216163636f756e74000000000000000000910152565b6127406017602092611b18565b6127498161270b565b0190565b6127639060208101906000818303910152612733565b90565b1561276d57565b612775610053565b62461bcd60e51b81528061278b6004820161274d565b0390fd5b949391926127af6127bc946127b6936127a6610981565b989190916128e9565b50916117c2565b90613e2e565b506128036127e16101e06127da856127d46000610c2a565b90611313565b5101610fcb565b6127fc6127f66127f160006126ff565b6101c1565b916101c1565b1415612766565b565b600090565b60f81b90565b6128199061280a565b90565b61282590612810565b90565b6128346128399161015e565b61281c565b9052565b60f01b90565b61284c9061283d565b90565b61285b61286091610133565b612843565b9052565b6002939261288460018361287c829561288c97612828565b018092612828565b01809261284f565b0190565b5190565b60200190565b6128a4905161020f565b90565b6128c16128bc6128b683612890565b92612894565b61289a565b90602081106128cf575b5090565b6128e29060001990602003600802612421565b16386128cb565b9061292892612914612923926128fd612805565b509193612908610053565b94859360208501612864565b6020820181038252038261008d565b6128a7565b90565b90612936910161010c565b90565b60001b90565b9061294c60001991612939565b9181191691161790565b61296a61296561296f9261010c565b6109b8565b61010c565b90565b90565b9061298a61298561299192612956565b612972565b825461293f565b9055565b9190916129a06117bd565b506129c86129c36129bc60016129b46138d7565b018490611e81565b8590611ea5565b611ed4565b92836129dd6129d76000610c2a565b9161010c565b14612a1f575b90612a18612a1d92612a136129f66138d7565b936001612a0c89612a06836109bb565b9061292b565b9501611e81565b611ea5565b612975565b565b9250612a1d90612a18612a3260016109bb565b94919250506129e3565b612a44611308565b50612a526101008201610c46565b600014612aab5780612a8f612a89612a84612a7e60a0612a7760c0612a999801610c46565b9501610c46565b1561015e565b61015e565b9161015e565b1460a083016121fa565b612aa7600160c083016121fa565b5b90565b612ab760c08201610c46565b600014612ae557612ad6612ad060a0612adf9301610c46565b1561015e565b60a083016121fa565b5b612aa8565b612af26103208201610c46565b612b05612aff600061015e565b9161015e565b14600014612b4957612b1c6020612b439201610c60565b612b39612b33612b2e60608601610c60565b61010c565b9161010c565b1060a083016121fa565b5b612ae0565b612b59610320612b629201610c46565b60a083016121fa565b612b44565b612b719051610260565b90565b612b88612b83612b8d92610c27565b6109b8565b610260565b90565b60007f4f423a696e76616c696420636f6c6c61746572616c0000000000000000000000910152565b612bc56015602092611b18565b612bce81612b90565b0190565b612be89060208101906000818303910152612bb8565b90565b15612bf257565b612bfa610053565b62461bcd60e51b815280612c1060048201612bd2565b0390fd5b60007f4f72646572426f6f6b3a696e76616c6964206163636f756e7400000000000000910152565b612c496019602092611b18565b612c5281612c14565b0190565b612c6c9060208101906000818303910152612c3c565b90565b15612c7657565b612c7e610053565b62461bcd60e51b815280612c9460048201612c56565b0390fd5b612cd292506101e090612cb092612cd4575b01610fcb565b612ccb612cc5612cc060006126ff565b6101c1565b916101c1565b1415612c6f565b565b612cfc612ce360208301612b67565b612cf6612cf06000612b74565b91610260565b11612beb565b612caa565b90612d0b90611e75565b600052602052604060002090565b90612d2390611e75565b600052602052604060002090565b612d3a90611d21565b90565b90612d52612d4d612d5992611e75565b612d31565b825461293f565b9055565b90612d6e60018060801b0391612939565b9181191691161790565b612d8c612d87612d9192610260565b6109b8565b610260565b90565b90565b90612dac612da7612db392612d78565b612d94565b8254612d5d565b9055565b60801b90565b90612dcf60018060801b031991612db7565b9181191691161790565b90612dee612de9612df592612d78565b612d94565b8254612dbd565b9055565b90612e0560ff91612939565b9181191691161790565b90612e24612e1f612e2b926124b8565b6124c4565b8254612df9565b9055565b60081b90565b90612e4261ff0091612e2f565b9181191691161790565b90612e61612e5c612e68926124b8565b6124c4565b8254612e35565b9055565b60101b90565b90612e8062ff000091612e6c565b9181191691161790565b90612e9f612e9a612ea6926124b8565b6124c4565b8254612e72565b9055565b60181b90565b90612ebf63ff00000091612eaa565b9181191691161790565b90612ede612ed9612ee5926124b8565b6124c4565b8254612eb0565b9055565b60201b90565b90612efe60ff60201b91612ee9565b9181191691161790565b90612f1d612f18612f24926124b8565b6124c4565b8254612eef565b9055565b60281b90565b90612f43600160281b600160681b0391612f28565b9181191691161790565b612f61612f5c612f6692610187565b6109b8565b610187565b90565b90565b90612f81612f7c612f8892612f4d565b612f69565b8254612f2e565b9055565b60681b90565b90612fa7600160681b600160a81b0391612f8c565b9181191691161790565b90612fc6612fc1612fcd92612f4d565b612f69565b8254612f92565b9055565b60a81b90565b90612fec600160a81b600160e81b0391612fd1565b9181191691161790565b9061300b61300661301292612f4d565b612f69565b8254612fd7565b9055565b61302090516105c0565b90565b9061303263ffffffff91612939565b9181191691161790565b61305061304b613055926105c0565b6109b8565b6105c0565b90565b90565b9061307061306b6130779261303c565b613058565b8254613023565b9055565b61308f61308a61309492610236565b6109b8565b610236565b90565b90565b906130af6130aa6130b69261307b565b613097565b8254612eef565b9055565b906130cf600160281b600160c81b0391612f28565b9181191691161790565b90565b906130f16130ec6130f892611e99565b6130d9565b82546130ba565b9055565b61310690516105f0565b90565b9061311a60018060601b0391612939565b9181191691161790565b61313861313361313d926105f0565b6109b8565b6105f0565b90565b90565b9061315861315361315f92613124565b613140565b8254613109565b9055565b9061317263ffff000091612e6c565b9181191691161790565b90565b9061319461318f61319b92611a98565b61317c565b8254613163565b9055565b906131b4600160201b600160801b0391612ee9565b9181191691161790565b906131d36131ce6131da92613124565b613140565b825461319f565b9055565b906131f36131ee6131fa9261307b565b613097565b8254612df9565b9055565b906134616102e06009613467946132246000820161321e6000880161289a565b90612d3d565b61323d6001820161323760208801612b67565b90612d97565b6132566001820161325060408801612b67565b90612dd9565b61326f6002820161326960608801610c60565b90612975565b6132886003820161328260808801610c60565b90612975565b6132a16004820161329b60a08801610c46565b90612e0f565b6132ba600482016132b460c08801610c46565b90612e4c565b6132d3600482016132cd60e08801610c46565b90612e8a565b6132ed600482016132e76101008801610c46565b90612ec9565b613307600482016133016101208801610c46565b90612f08565b6133216004820161331b610140880161181a565b90612f6c565b61333b60048201613335610160880161181a565b90612fb1565b6133556004820161334f610180880161181a565b90612ff6565b61336f600582016133696101a08801613016565b9061305b565b613389600582016133836101c08801612140565b9061309a565b6133a36005820161339d6101e08801610fcb565b906130dc565b6133bd600682016133b761020088016130fc565b90613143565b6133d7600782016133d16102208801610c60565b90612975565b6133f1600882016133eb6102408801610c46565b90612e0f565b61340b600882016134056102608801610c46565b90612e4c565b6134256008820161341f6102808801610c53565b9061317f565b61343f600882016134396102a088016130fc565b906131be565b613459600882016134536102c08801612b67565b90612dd9565b019201612140565b906131de565b565b90613473916131fe565b565b9061347f90611e75565b600052602052604060002090565b90565b9061349a90611e75565b600052602052604060002090565b906134b290611e99565b600052602052604060002090565b906135af6135a96135a46135916135b5956134da866146df565b6135306134e6876146f8565b61350e8861350961350260006134fa6138d7565b018790612d01565b8490612d19565b613469565b61352b613526600461351e6138d7565b018590613475565b61348d565b61475e565b5061358161353e60016109bb565b61357b61356c61355960026135516138d7565b018690611e81565b6135666101e08c01610fcb565b90611ea5565b9161357683611ed4565b611c28565b90612975565b600361358b6138d7565b01613490565b61359e6101e08601610fcb565b906134a8565b61348d565b916146f8565b9061475e565b50565b7f2eec39e2b6bcfb5f1ee2be0b6e9d5a470a45585b1e2f7f291af9fb9f551763d090565b6135e46135b8565b90565b6135ef6117bd565b50816302faf080600019030481111582151715613618576305f5e100916302faf0809102010490565b600080fd5b61362690610c97565b90565b905051906136368261023c565b565b906020828203126136525761364f91600001613629565b90565b61005e565b61366b61366661367092610236565b6109b8565b61010c565b90565b61367c9061010c565b604d811161368a57600a0a90565b611bed565b61369e6136a49193929361010c565b9261010c565b916136b083820261010c565b9281840414901517156136bf57565b611bed565b90565b6136db6136d66136e0926136c4565b6109b8565b610236565b90565b6136ed60126136c7565b90565b6136f990610236565b604d811161370757600a0a90565b611bed565b634e487b7160e01b600052601260045260246000fd5b61372e6137349161010c565b9161010c565b90811561373f570490565b61370c565b90602061376461375f61377a936137596117bd565b50611d87565b61361d565b63313ce56790613772610053565b938492610cc0565b8252818061378a600482016108bd565b03915afa918215613803576137b66137b16137d2946137bc946000916137d5575b50613657565b613673565b9061368f565b6137cc6137c76136e3565b6136f0565b90613722565b90565b6137f6915060203d81116137fc575b6137ee818361008d565b810190613638565b386137ab565b503d6137e4565b610fae565b61381190610c97565b90565b61382861382361382d926105c0565b610cc0565b612415565b90565b60409061385a613861949695939661385060608401986000850190611148565b6020830190611148565b0190611155565b565b60049261389d6138b195936138ac93946138846323b872dd92949192613814565b9361388d610053565b9788956020870190815201613830565b6020820181038252038361008d565b61477f565b565b7fbf93ccae7e050fdad00615e220e3f9b7ebb112ac9318fb8604653a7d8091238890565b6138df6138b3565b90565b60007f4d61726b657456616c69643a53697a6500000000000000000000000000000000910152565b6139176010602092611b18565b613920816138e2565b0190565b61393a906020810190600081830391015261390a565b90565b1561394457565b61394c610053565b62461bcd60e51b81528061396260048201613924565b0390fd5b9061397a9291821561397c575b505061393d565b565b61399291925061398c909261010c565b9161010c565b10153880613973565b60081c90565b6139ad6139b29161399b565b611ff3565b90565b6139bf90546139a1565b90565b60101c90565b6139d46139d9916139c2565b611ff3565b90565b6139e690546139c8565b90565b60007f4d61726b657456616c69643a4d61726b6574436c6f7365640000000000000000910152565b613a1e6018602092611b18565b613a27816139e9565b0190565b613a419060208101906000818303910152613a11565b90565b613a58613a53613a5d92610c27565b6109b8565b610cc6565b90565b613a6990610cc6565b600160ff1b8114613a7a5760000390565b611bed565b613a93613a8e613a9892610cc6565b6109b8565b61010c565b90565b60007f4d61726b657456616c69643a436f6c6c61746572616c00000000000000000000910152565b613ad06016602092611b18565b613ad981613a9b565b0190565b613af39060208101906000818303910152613ac3565b90565b15613afd57565b613b05610053565b62461bcd60e51b815280613b1b60048201613add565b0390fd5b60601c90565b613b31613b3691613b1f565b611f25565b90565b613b439054613b25565b90565b9095919394613b536135dc565b95613b75613b6f6000613b69818b018c90611ab4565b016139b5565b1561015e565b80613d99575b8015613d50575b613d2e5782613b9a613b946003610d31565b91610d31565b10159182613d10575b5050613d085780613bbd613bb76002610d31565b91610d31565b1115600014613cf857613bd1848490611c28565b5b81613be6613be06003610d31565b91610d31565b1480613cdd575b613cd457613c7d966000613c7095613c5e85613c44613c769a613c6b99613c6598879a613c23613c1d6002610d31565b91610d31565b1115613c7f575b5050613c3e613c3887610c2a565b9161010c565b11613af6565b613c57613c516001610d31565b91610d31565b1415613af6565b9701611ab4565b01613b39565b611f4d565b9161010c565b1015613af6565b565b81613c92613c8c8a613a44565b91610cc6565b138814613cb457613ca5613cab92613a7f565b90611c03565b505b3880613c2a565b613cc8613cc3613cce93613a60565b613a7f565b90611c28565b50613cad565b50505050505050565b5080613cf2613cec6000610c2a565b9161010c565b14613bed565b613d03848490611c03565b613bd2565b505050505050565b613d26919250613d20909261010c565b9161010c565b143880613ba3565b613d36610053565b62461bcd60e51b815280613d4c60048201613a2b565b0390fd5b50613d72613d6c6000613d66818b018c90611ab4565b016139dc565b1561015e565b80613d7d575b613b82565b5082613d92613d8c6003610d31565b91610d31565b1015613d78565b5082613dae613da86002610d31565b91610d31565b1115613b7b565b60601b90565b613dc490613db5565b90565b613dd090613dbb565b90565b613ddf613de4916101c1565b613dc7565b9052565b60c01b90565b613df790613de8565b90565b613e06613e0b91610187565b613dee565b9052565b601481613e22613e2a9360089695613dd3565b018092613dfa565b0190565b613e6190613e3a612805565b50613e52613e46610053565b93849260208401613e0f565b6020820181038252038261008d565b613e73613e6d82612890565b91612894565b2090565b600090565b90613ea5613ea0613eaa93613e8f613e77565b506004613e9a6138d7565b01613475565b61348d565b614818565b90565b90565b613ebc613ec191611d21565b613ead565b90565b613ece9054613eb0565b90565b90613edb9061020f565b9052565b60018060801b031690565b613ef6613efb91611d21565b613edf565b90565b613f089054613eea565b90565b90613f1590610260565b9052565b613f25613f2a91611f1f565b613edf565b90565b613f379054613f19565b90565b613f46613f4b91611d21565b611ff3565b90565b613f589054613f3a565b90565b60201c90565b613f6d613f7291613f5b565b611ff3565b90565b613f7f9054613f61565b90565b60281c90565b60018060401b031690565b613f9f613fa491613f82565b613f88565b90565b613fb19054613f93565b90565b60681c90565b613fc6613fcb91613fb4565b613f88565b90565b613fd89054613fba565b90565b60a81c90565b613fed613ff291613fdb565b613f88565b90565b613fff9054613fe1565b90565b61400e61401391611d21565b611ad2565b90565b6140209054614002565b90565b9061402d906105c0565b9052565b60ff1690565b61404361404891613f5b565b614031565b90565b6140559054614037565b90565b9061406290610236565b9052565b61407261407791613f82565b611d27565b90565b6140849054614066565b90565b90614091906101c1565b9052565b60018060601b031690565b6140ac6140b191611d21565b614095565b90565b6140be90546140a0565b90565b906140cb906105f0565b9052565b6140db6140e0916139c2565b611f25565b90565b6140ed90546140cf565b90565b906140fa90610133565b9052565b61410a61410f91613f5b565b614095565b90565b61411c90546140fe565b90565b61412b61413091611d21565b614031565b90565b61413d905461411f565b90565b9061439961438f60096141516111ae565b9461416a61416160008301613ec4565b60008801613ed1565b61418261417960018301613efe565b60208801613f0b565b61419a61419160018301613f2d565b60408801613f0b565b6141b26141a960028301611ed4565b60608801610c6d565b6141ca6141c160038301611ed4565b60808801610c6d565b6141e26141d960048301613f4e565b60a088016121fa565b6141fa6141f1600483016139b5565b60c088016121fa565b614212614209600483016139dc565b60e088016121fa565b61422b6142216004830161200d565b61010088016121fa565b61424461423a60048301613f75565b61012088016121fa565b61425d61425360048301613fa7565b61014088016117de565b61427661426c60048301613fce565b61016088016117de565b61428f61428560048301613ff5565b61018088016117de565b6142a861429e60058301614016565b6101a08801614023565b6142c16142b76005830161404b565b6101c08801614058565b6142da6142d06005830161407a565b6101e08801614087565b6142f36142e9600683016140b4565b61020088016140c1565b61430c61430260078301611ed4565b6102208801610c6d565b61432561431b60088301613f4e565b61024088016121fa565b61433e614334600883016139b5565b61026088016121fa565b61435761434d600883016140e3565b61028088016140f0565b61437061436660088301614112565b6102a088016140c1565b61438961437f60088301613f2d565b6102c08801613f0b565b01614133565b6102e08401614058565b565b6143a490614140565b90565b6143d5916143cb6143d0926143ba611308565b5060006143c56138d7565b01612d01565b612d19565b61439b565b90565b61440a61440f926143e8836146df565b6144056143f4846146f8565b9160006143ff6138d7565b01612d01565b612d19565b613469565b565b90565b61442861442361442d92614411565b612939565b61020f565b90565b6144597ff3177357ab46d8af007ab3fdb9af81da189e1068fefdc0073dca88a2cab40a00614414565b90565b614464614430565b90565b61446f611d04565b50614483600061447d61445c565b01611d46565b90565b600090565b61449490612415565b9052565b6040906144c26144c994969593966144b860608401986000850190611148565b6020830190611148565b019061448b565b565b60018060401b0381116144e7576144e360209161006d565b0190565b610077565b906144fe6144f9836144cb565b6100b4565b918252565b606090565b3d600014614525576145193d6144ec565b903d6000602084013e5b565b61452d614503565b90614523565b90565b61454a61454561454f92614533565b6109b8565b61010c565b90565b90565b61456961456461456e92614552565b6109b8565b61010c565b90565b9060208282031261458b5761458891600001610fe7565b90565b61005e565b91906040838203126145b957806145ad6145b69260008601610fe7565b9360200161100b565b90565b61005e565b939260009182916146106145d0613e77565b956146016145dc614486565b999491936145e8610053565b94859360046020860163b700961360e01b815201614498565b6020820181038252038261008d565b602081019051915afa614621614508565b9061462c575b509190565b9061463682612890565b6146496146436040614536565b9161010c565b1015600014614678575061466f919250602061466482612890565b818301019101614590565b91905b38614627565b9061468281612890565b61469561468f6020614555565b9161010c565b10156146a2575b50614672565b6146bd915060206146b282612890565b818301019101614571565b3861469c565b6146d76146d26146dc9261010c565b6109b8565b6105c0565b90565b6146f6906101a06146ef426146c3565b9101614023565b565b614700612805565b5061474561471e6101406147176101e08501610fcb565b930161181a565b9161473661472a610053565b93849260208401613e0f565b6020820181038252038261008d565b61475761475182612890565b91612894565b2090565b90565b90614777600061477c93614770613e77565b500161475b565b614908565b90565b906147929061478d83613808565b61496f565b61479b81612890565b6147ae6147a86000610c2a565b9161010c565b141590816147ed575b506147bf5750565b6147cb6147e991613808565b6147d3610053565b918291635274afe760e01b835260048301612483565b0390fd5b614812915061480c90602061480182612890565b818301019101614571565b1561015e565b386147b7565b9061483160006148369361482a613e77565b500161475b565b614991565b90565b90565b600052602060002090565b5490565b61485481614847565b82101561486f5761486660019161483c565b91020190600090565b610bed565b9190600861489091029161488a60001984612421565b92612421565b9181191691161790565b91906148b06148ab6148b893611e75565b612d31565b908354614874565b9055565b90815491600160401b8310156148e757826148df9160016148e59501815561484b565b9061489a565b565b610077565b5490565b906148fa90611e75565b600052602052604060002090565b614910613e77565b5061492561491f828490614991565b1561015e565b6000146149685761495e6149639261494961494260008501614839565b82906148bc565b6001614957600085016148ec565b93016148f0565b612975565b600190565b5050600090565b9061498e9161497c614503565b50906149886000610c2a565b916149d3565b90565b6149af9160016149aa926149a3613e77565b50016148f0565b611ed4565b6149c26149bc6000610c2a565b9161010c565b141590565b6149d090610c97565b90565b90916149dd614503565b506149e7306149c7565b316149fa6149f48361010c565b9161010c565b10614a275760008091614a24948491602082019151925af190614a1b614508565b90919091614a55565b90565b614a51614a33306149c7565b614a3b610053565b91829163cd78605960e01b835260048301612483565b0390fd5b90614a6990614a62614503565b501561015e565b600014614a765750614ae3565b614a7f82612890565b614a92614a8c6000610c2a565b9161010c565b1480614ac7575b614aa1575090565b614ac390614aad610053565b918291639996b31560e01b835260048301612483565b0390fd5b50803b614add614ad76000610c2a565b9161010c565b14614a99565b614aec81612890565b614aff614af96000610c2a565b9161010c565b11600014614b0f57805190602001fd5b614b17610053565b630a12f52160e11b815280614b2e600482016108bd565b0390fdfea26469706673582212206a7fc2a3db7e697bbf6a806d08d57b79704f1c27e4dca32e37f4975b367a653464736f6c63430008180033",
  "devdoc": {
    "errors": {
      "AddressEmptyCode(address)": [
        {
          "details": "There's no code at `target` (it is not a contract)."
        }
      ],
      "AddressInsufficientBalance(address)": [
        {
          "details": "The ETH balance of the account is not enough to perform the operation."
        }
      ],
      "FailedInnerCall()": [
        {
          "details": "A call to an address target failed. The target may have reverted."
        }
      ],
      "SafeERC20FailedOperation(address)": [
        {
          "details": "An operation with an ERC20 token failed."
        }
      ]
    },
    "kind": "dev",
    "methods": {},
    "version": 1
  },
  "userdoc": {
    "kind": "user",
    "methods": {},
    "version": 1
  },
  "storageLayout": {
    "storage": [],
    "types": null
  }
}