{
  "address": "0xd9cC202b0500c1cc0Ba2786C9ED2B169f9F5d531",
  "abi": [
    {
      "inputs": [
        {
          "internalType": "address",
          "name": "authority",
          "type": "address"
        }
      ],
      "name": "AccessManagedInvalidAuthority",
      "type": "error"
    },
    {
      "inputs": [
        {
          "internalType": "address",
          "name": "caller",
          "type": "address"
        },
        {
          "internalType": "uint32",
          "name": "delay",
          "type": "uint32"
        }
      ],
      "name": "AccessManagedRequiredDelay",
      "type": "error"
    },
    {
      "inputs": [
        {
          "internalType": "address",
          "name": "caller",
          "type": "address"
        }
      ],
      "name": "AccessManagedUnauthorized",
      "type": "error"
    },
    {
      "inputs": [
        {
          "internalType": "address",
          "name": "target",
          "type": "address"
        }
      ],
      "name": "AddressEmptyCode",
      "type": "error"
    },
    {
      "inputs": [
        {
          "internalType": "address",
          "name": "account",
          "type": "address"
        }
      ],
      "name": "AddressInsufficientBalance",
      "type": "error"
    },
    {
      "inputs": [],
      "name": "FailedInnerCall",
      "type": "error"
    },
    {
      "inputs": [
        {
          "internalType": "address",
          "name": "token",
          "type": "address"
        }
      ],
      "name": "SafeERC20FailedOperation",
      "type": "error"
    },
    {
      "inputs": [
        {
          "components": [
            {
              "internalType": "enum MarketBusinessType",
              "name": "busiType",
              "type": "uint8"
            },
            {
              "internalType": "uint256",
              "name": "oraclePrice",
              "type": "uint256"
            },
            {
              "internalType": "uint256",
              "name": "pay",
              "type": "uint256"
            },
            {
              "internalType": "uint256",
              "name": "slippage",
              "type": "uint256"
            },
            {
              "internalType": "uint16",
              "name": "market",
              "type": "uint16"
            },
            {
              "internalType": "bool",
              "name": "isLong",
              "type": "bool"
            },
            {
              "internalType": "bool",
              "name": "isOpen",
              "type": "bool"
            },
            {
              "internalType": "bool",
              "name": "isCreate",
              "type": "bool"
            },
            {
              "internalType": "bool",
              "name": "isFromMarket",
              "type": "bool"
            },
            {
              "internalType": "uint256",
              "name": "sizeDelta",
              "type": "uint256"
            },
            {
              "internalType": "uint256",
              "name": "price",
              "type": "uint256"
            },
            {
              "internalType": "uint256",
              "name": "collateralDelta",
              "type": "uint256"
            },
            {
              "internalType": "uint256",
              "name": "collateral",
              "type": "uint256"
            },
            {
              "internalType": "uint256",
              "name": "tp",
              "type": "uint256"
            },
            {
              "internalType": "uint256",
              "name": "sl",
              "type": "uint256"
            },
            {
              "internalType": "uint64",
              "name": "orderId",
              "type": "uint64"
            },
            {
              "internalType": "address",
              "name": "account",
              "type": "address"
            },
            {
              "internalType": "bool",
              "name": "isExec",
              "type": "bool"
            },
            {
              "internalType": "enum LiquidationState",
              "name": "liqState",
              "type": "uint8"
            },
            {
              "internalType": "uint64",
              "name": "fromOrder",
              "type": "uint64"
            },
            {
              "internalType": "bytes32",
              "name": "refCode",
              "type": "bytes32"
            },
            {
              "internalType": "uint8",
              "name": "execNum",
              "type": "uint8"
            },
            {
              "internalType": "bool",
              "name": "isKeepLev",
              "type": "bool"
            },
            {
              "internalType": "bool",
              "name": "isKeepLevTP",
              "type": "bool"
            },
            {
              "internalType": "bool",
              "name": "isKeepLevSL",
              "type": "bool"
            },
            {
              "internalType": "bool",
              "name": "triggerAbove",
              "type": "bool"
            },
            {
              "internalType": "uint128",
              "name": "gas",
              "type": "uint128"
            }
          ],
          "internalType": "struct MarketCache[]",
          "name": "_inputs",
          "type": "tuple[]"
        }
      ],
      "name": "SELF_addOrders",
      "outputs": [
        {
          "components": [
            {
              "internalType": "bytes32",
              "name": "refCode",
              "type": "bytes32"
            },
            {
              "internalType": "uint128",
              "name": "collateral",
              "type": "uint128"
            },
            {
              "internalType": "uint128",
              "name": "size",
              "type": "uint128"
            },
            {
              "internalType": "uint256",
              "name": "price",
              "type": "uint256"
            },
            {
              "internalType": "uint256",
              "name": "tp",
              "type": "uint256"
            },
            {
              "internalType": "bool",
              "name": "triggerAbove",
              "type": "bool"
            },
            {
              "internalType": "bool",
              "name": "isFromMarket",
              "type": "bool"
            },
            {
              "internalType": "bool",
              "name": "isKeepLev",
              "type": "bool"
            },
            {
              "internalType": "bool",
              "name": "isKeepLevTP",
              "type": "bool"
            },
            {
              "internalType": "bool",
              "name": "isKeepLevSL",
              "type": "bool"
            },
            {
              "internalType": "uint64",
              "name": "orderID",
              "type": "uint64"
            },
            {
              "internalType": "uint64",
              "name": "pairId",
              "type": "uint64"
            },
            {
              "internalType": "uint64",
              "name": "fromId",
              "type": "uint64"
            },
            {
              "internalType": "uint32",
              "name": "updatedAtBlock",
              "type": "uint32"
            },
            {
              "internalType": "uint8",
              "name": "extra0",
              "type": "uint8"
            },
            {
              "internalType": "address",
              "name": "account",
              "type": "address"
            },
            {
              "internalType": "uint96",
              "name": "extra1",
              "type": "uint96"
            },
            {
              "internalType": "uint256",
              "name": "sl",
              "type": "uint256"
            },
            {
              "internalType": "bool",
              "name": "isIncrease",
              "type": "bool"
            },
            {
              "internalType": "bool",
              "name": "isLong",
              "type": "bool"
            },
            {
              "internalType": "uint16",
              "name": "market",
              "type": "uint16"
            },
            {
              "internalType": "uint96",
              "name": "extra2",
              "type": "uint96"
            },
            {
              "internalType": "uint128",
              "name": "gas",
              "type": "uint128"
            },
            {
              "internalType": "uint8",
              "name": "version",
              "type": "uint8"
            }
          ],
          "internalType": "struct OrderProps[]",
          "name": "_orders",
          "type": "tuple[]"
        }
      ],
      "stateMutability": "nonpayable",
      "type": "function"
    },
    {
      "inputs": [
        {
          "internalType": "address",
          "name": "account",
          "type": "address"
        },
        {
          "internalType": "uint16",
          "name": "market",
          "type": "uint16"
        },
        {
          "internalType": "bool",
          "name": "isIncrease",
          "type": "bool"
        },
        {
          "internalType": "uint256",
          "name": "orderID",
          "type": "uint256"
        },
        {
          "internalType": "bool",
          "name": "isLong",
          "type": "bool"
        }
      ],
      "name": "cancelOrder",
      "outputs": [
        {
          "components": [
            {
              "internalType": "bytes32",
              "name": "refCode",
              "type": "bytes32"
            },
            {
              "internalType": "uint128",
              "name": "collateral",
              "type": "uint128"
            },
            {
              "internalType": "uint128",
              "name": "size",
              "type": "uint128"
            },
            {
              "internalType": "uint256",
              "name": "price",
              "type": "uint256"
            },
            {
              "internalType": "uint256",
              "name": "tp",
              "type": "uint256"
            },
            {
              "internalType": "bool",
              "name": "triggerAbove",
              "type": "bool"
            },
            {
              "internalType": "bool",
              "name": "isFromMarket",
              "type": "bool"
            },
            {
              "internalType": "bool",
              "name": "isKeepLev",
              "type": "bool"
            },
            {
              "internalType": "bool",
              "name": "isKeepLevTP",
              "type": "bool"
            },
            {
              "internalType": "bool",
              "name": "isKeepLevSL",
              "type": "bool"
            },
            {
              "internalType": "uint64",
              "name": "orderID",
              "type": "uint64"
            },
            {
              "internalType": "uint64",
              "name": "pairId",
              "type": "uint64"
            },
            {
              "internalType": "uint64",
              "name": "fromId",
              "type": "uint64"
            },
            {
              "internalType": "uint32",
              "name": "updatedAtBlock",
              "type": "uint32"
            },
            {
              "internalType": "uint8",
              "name": "extra0",
              "type": "uint8"
            },
            {
              "internalType": "address",
              "name": "account",
              "type": "address"
            },
            {
              "internalType": "uint96",
              "name": "extra1",
              "type": "uint96"
            },
            {
              "internalType": "uint256",
              "name": "sl",
              "type": "uint256"
            },
            {
              "internalType": "bool",
              "name": "isIncrease",
              "type": "bool"
            },
            {
              "internalType": "bool",
              "name": "isLong",
              "type": "bool"
            },
            {
              "internalType": "uint16",
              "name": "market",
              "type": "uint16"
            },
            {
              "internalType": "uint96",
              "name": "extra2",
              "type": "uint96"
            },
            {
              "internalType": "uint128",
              "name": "gas",
              "type": "uint128"
            },
            {
              "internalType": "uint8",
              "name": "version",
              "type": "uint8"
            }
          ],
          "internalType": "struct OrderProps[]",
          "name": "_orders",
          "type": "tuple[]"
        }
      ],
      "stateMutability": "nonpayable",
      "type": "function"
    },
    {
      "inputs": [
        {
          "components": [
            {
              "internalType": "enum MarketBusinessType",
              "name": "busiType",
              "type": "uint8"
            },
            {
              "internalType": "uint256",
              "name": "oraclePrice",
              "type": "uint256"
            },
            {
              "internalType": "uint256",
              "name": "pay",
              "type": "uint256"
            },
            {
              "internalType": "uint256",
              "name": "slippage",
              "type": "uint256"
            },
            {
              "internalType": "uint16",
              "name": "market",
              "type": "uint16"
            },
            {
              "internalType": "bool",
              "name": "isLong",
              "type": "bool"
            },
            {
              "internalType": "bool",
              "name": "isOpen",
              "type": "bool"
            },
            {
              "internalType": "bool",
              "name": "isCreate",
              "type": "bool"
            },
            {
              "internalType": "bool",
              "name": "isFromMarket",
              "type": "bool"
            },
            {
              "internalType": "uint256",
              "name": "sizeDelta",
              "type": "uint256"
            },
            {
              "internalType": "uint256",
              "name": "price",
              "type": "uint256"
            },
            {
              "internalType": "uint256",
              "name": "collateralDelta",
              "type": "uint256"
            },
            {
              "internalType": "uint256",
              "name": "collateral",
              "type": "uint256"
            },
            {
              "internalType": "uint256",
              "name": "tp",
              "type": "uint256"
            },
            {
              "internalType": "uint256",
              "name": "sl",
              "type": "uint256"
            },
            {
              "internalType": "uint64",
              "name": "orderId",
              "type": "uint64"
            },
            {
              "internalType": "address",
              "name": "account",
              "type": "address"
            },
            {
              "internalType": "bool",
              "name": "isExec",
              "type": "bool"
            },
            {
              "internalType": "enum LiquidationState",
              "name": "liqState",
              "type": "uint8"
            },
            {
              "internalType": "uint64",
              "name": "fromOrder",
              "type": "uint64"
            },
            {
              "internalType": "bytes32",
              "name": "refCode",
              "type": "bytes32"
            },
            {
              "internalType": "uint8",
              "name": "execNum",
              "type": "uint8"
            },
            {
              "internalType": "bool",
              "name": "isKeepLev",
              "type": "bool"
            },
            {
              "internalType": "bool",
              "name": "isKeepLevTP",
              "type": "bool"
            },
            {
              "internalType": "bool",
              "name": "isKeepLevSL",
              "type": "bool"
            },
            {
              "internalType": "bool",
              "name": "triggerAbove",
              "type": "bool"
            },
            {
              "internalType": "uint128",
              "name": "gas",
              "type": "uint128"
            }
          ],
          "internalType": "struct MarketCache",
          "name": "_inputs",
          "type": "tuple"
        }
      ],
      "name": "updateOrder",
      "outputs": [],
      "stateMutability": "payable",
      "type": "function"
    }
  ],
  "args": [],
  "numDeployments": 10,
  "solcInputHash": "8d8e6e1fbf0edfe343a1be3391dbac70",
  "bytecode": "0x60806040523462000023576200001462000029565b614ac7620000358239614ac790f35b6200002f565b60405190565b600080fdfe60806040526004361015610013575b61097c565b61001e60003561004d565b80637377e4d7146100485780638114baa81461004357639787b6a50361000e57610947565b610837565b6104b6565b60e01c90565b60405190565b600080fd5b600080fd5b600080fd5b601f801991011690565b634e487b7160e01b600052604160045260246000fd5b9061009290610068565b810190811060018060401b038211176100aa57604052565b610072565b906100c26100bb610053565b9283610088565b565b600511156100ce57565b600080fd5b905035906100e0826100c4565b565b90565b6100ee816100e2565b036100f557565b600080fd5b90503590610107826100e5565b565b61ffff1690565b61011981610109565b0361012057565b600080fd5b9050359061013282610110565b565b151590565b61014281610134565b0361014957565b600080fd5b9050359061015b82610139565b565b60018060401b031690565b6101718161015d565b0361017857565b600080fd5b9050359061018a82610168565b565b60018060a01b031690565b6101a09061018c565b90565b6101ac81610197565b036101b357565b600080fd5b905035906101c5826101a3565b565b600311156101d157565b600080fd5b905035906101e3826101c7565b565b90565b6101f1816101e5565b036101f857565b600080fd5b9050359061020a826101e8565b565b60ff1690565b61021b8161020c565b0361022257565b600080fd5b9050359061023482610212565b565b60018060801b031690565b61024a81610236565b0361025157565b600080fd5b9050359061026382610241565b565b91906103608382031261048b57610483906102816103606100af565b9361028f82600083016100d3565b60008601526102a182602083016100fa565b60208601526102b382604083016100fa565b60408601526102c582606083016100fa565b60608601526102d78260808301610125565b60808601526102e98260a0830161014e565b60a08601526102fb8260c0830161014e565b60c086015261030d8260e0830161014e565b60e086015261032082610100830161014e565b6101008601526103348261012083016100fa565b6101208601526103488261014083016100fa565b61014086015261035c8261016083016100fa565b6101608601526103708261018083016100fa565b610180860152610384826101a083016100fa565b6101a0860152610398826101c083016100fa565b6101c08601526103ac826101e0830161017d565b6101e08601526103c08261020083016101b8565b6102008601526103d482610220830161014e565b6102208601526103e88261024083016101d6565b6102408601526103fc82610260830161017d565b6102608601526104108261028083016101fd565b610280860152610424826102a08301610227565b6102a0860152610438826102c0830161014e565b6102c086015261044c826102e0830161014e565b6102e086015261046082610300830161014e565b61030086015261047482610320830161014e565b61032086015261034001610256565b610340830152565b610063565b90610360828203126104ab576104a891600001610265565b90565b610059565b60000190565b6104c96104c4366004610490565b6112ff565b6104d1610053565b806104db816104b0565b0390f35b600080fd5b919060a083820312610536576104fd81600085016101b8565b9261050b8260208301610125565b9261053361051c846040850161014e565b9361052a81606086016100fa565b9360800161014e565b90565b610059565b5190565b60209181520190565b60200190565b610557906101e5565b9052565b61056490610236565b9052565b610571906100e2565b9052565b61057e90610134565b9052565b61058b9061015d565b9052565b63ffffffff1690565b6105a19061058f565b9052565b6105ae9061020c565b9052565b6105bb90610197565b9052565b60018060601b031690565b6105d3906105bf565b9052565b6105e090610109565b9052565b906102e0806107b3936105ff6000820151600086019061054e565b6106116020820151602086019061055b565b6106236040820151604086019061055b565b61063560608201516060860190610568565b61064760808201516080860190610568565b61065960a082015160a0860190610575565b61066b60c082015160c0860190610575565b61067d60e082015160e0860190610575565b610691610100820151610100860190610575565b6106a5610120820151610120860190610575565b6106b9610140820151610140860190610582565b6106cd610160820151610160860190610582565b6106e1610180820151610180860190610582565b6106f56101a08201516101a0860190610598565b6107096101c08201516101c08601906105a5565b61071d6101e08201516101e08601906105b2565b6107316102008201516102008601906105ca565b610745610220820151610220860190610568565b610759610240820151610240860190610575565b61076d610260820151610260860190610575565b6107816102808201516102808601906105d7565b6107956102a08201516102a08601906105ca565b6107a96102c08201516102c086019061055b565b01519101906105a5565b565b906107c381610300936105e4565b0190565b60200190565b906107ea6107e46107dd8461053b565b809361053f565b92610548565b9060005b8181106107fb5750505090565b90919261081461080e60019286516107b5565b946107c7565b91019190916107ee565b61083491602082019160008184039101526107cd565b90565b3461086b5761086761085661084d3660046104e4565b93929092611690565b61085e610053565b9182918261081e565b0390f35b6104df565b600080fd5b60018060401b03811161088b5760208091020190565b610072565b600080fd5b909291926108aa6108a582610875565b6100af565b938185526103606020860192028301928184116108eb57915b8383106108d05750505050565b6020610360916108e08486610265565b8152019201916108c3565b610890565b9080601f8301121561090e5781602061090b93359101610895565b90565b610870565b9060208282031261094257600082013560018060401b03811161093d5761093a92016108f0565b90565b61005e565b610059565b346109775761097361096261095d366004610913565b611721565b61096a610053565b9182918261081e565b0390f35b6104df565b600080fd5b90565b90565b61099b6109966109a092610981565b610984565b6100e2565b90565b906109b56109b083610875565b6100af565b918252565b6109c56103606100af565b90565b600090565b600090565b600090565b600090565b600090565b600090565b600090565b600090565b600090565b600090565b610a026109ba565b9081610a0c6109c8565b8152602001610a196109cd565b8152602001610a266109cd565b8152602001610a336109cd565b8152602001610a406109d2565b8152602001610a4d6109d7565b8152602001610a5a6109d7565b8152602001610a676109d7565b8152602001610a746109d7565b8152602001610a816109cd565b8152602001610a8e6109cd565b8152602001610a9b6109cd565b8152602001610aa86109cd565b8152602001610ab56109cd565b8152602001610ac26109cd565b8152602001610acf6109dc565b8152602001610adc6109e1565b8152602001610ae96109d7565b8152602001610af66109e6565b8152602001610b036109dc565b8152602001610b106109eb565b8152602001610b1d6109f0565b8152602001610b2a6109d7565b8152602001610b376109d7565b8152602001610b446109d7565b8152602001610b516109d7565b8152602001610b5e6109f5565b815250565b610b6b6109fa565b90565b60005b828110610b7d57505050565b602090610b88610b63565b8184015201610b71565b90610bb7610b9f836109a3565b92602080610bad8693610875565b9201910390610b6e565b565b634e487b7160e01b600052603260045260246000fd5b5190565b90610bdd82610bcf565b811015610bee576020809102010190565b610bb9565b90565b610c0a610c05610c0f92610bf3565b610984565b6100e2565b90565b610c1c9051610134565b90565b610c299051610109565b90565b610c3690516100e2565b90565b90610c43906100e2565b9052565b610c5b610c56610c609261018c565b610984565b61018c565b90565b610c6c90610c47565b90565b610c7890610c63565b90565b610c8490610c63565b90565b600080fd5b60e01b90565b90565b610c9e81610c92565b03610ca557565b600080fd5b90505190610cb782610c95565b565b90602082820312610cd357610cd091600001610caa565b90565b610059565b634e487b7160e01b600052602160045260246000fd5b60051115610cf857565b610cd8565b90610d0782610cee565b565b610d1290610cfd565b90565b610d1e90610d09565b9052565b60031115610d2c57565b610cd8565b90610d3b82610d22565b565b610d4690610d31565b90565b610d5290610d3d565b9052565b9061034080610f6193610d7160008201516000860190610d15565b610d8360208201516020860190610568565b610d9560408201516040860190610568565b610da760608201516060860190610568565b610db9608082015160808601906105d7565b610dcb60a082015160a0860190610575565b610ddd60c082015160c0860190610575565b610def60e082015160e0860190610575565b610e03610100820151610100860190610575565b610e17610120820151610120860190610568565b610e2b610140820151610140860190610568565b610e3f610160820151610160860190610568565b610e53610180820151610180860190610568565b610e676101a08201516101a0860190610568565b610e7b6101c08201516101c0860190610568565b610e8f6101e08201516101e0860190610582565b610ea36102008201516102008601906105b2565b610eb7610220820151610220860190610575565b610ecb610240820151610240860190610d49565b610edf610260820151610260860190610582565b610ef361028082015161028086019061054e565b610f076102a08201516102a08601906105a5565b610f1b6102c08201516102c0860190610575565b610f2f6102e08201516102e0860190610575565b610f43610300820151610300860190610575565b610f57610320820151610320860190610575565b015191019061055b565b565b9190610f789060006103608501940190610d56565b565b610f82610053565b3d6000823e3d90fd5b610f9490610c63565b90565b610fa19051610197565b90565b90505190610fb1826100e5565b565b90505190610fc082610139565b565b610fcb8161058f565b03610fd257565b600080fd5b90505190610fe482610fc2565b565b90505190610ff382610110565b565b60018060481b031690565b61100981610ff5565b0361101057565b600080fd5b9050519061102282611000565b565b9190610120838203126110e2576110da906110406101206100af565b9361104e8260008301610fa4565b60008601526110608260208301610fa4565b60208601526110728260408301610caa565b60408601526110848260608301610caa565b60608601526110968260808301610fa4565b60808601526110a88260a08301610fb3565b60a08601526110ba8260c08301610fd7565b60c08601526110cc8260e08301610fe6565b60e086015261010001611015565b610100830152565b610063565b9061012082820312611102576110ff91600001611024565b90565b610059565b61111090610109565b9052565b61111d90610197565b9052565b61112a906100e2565b9052565b61113790610134565b9052565b6111716111789461116760609498979561115d608086019a6000870190611107565b6020850190611114565b6040830190611121565b019061112e565b565b6111856103006100af565b90565b600090565b600090565b61119a61117a565b90816111a46109eb565b81526020016111b16109f5565b81526020016111be6109f5565b81526020016111cb6109cd565b81526020016111d86109cd565b81526020016111e56109d7565b81526020016111f26109d7565b81526020016111ff6109d7565b815260200161120c6109d7565b81526020016112196109d7565b81526020016112266109dc565b81526020016112336109dc565b81526020016112406109dc565b815260200161124d611188565b815260200161125a6109f0565b81526020016112676109e1565b815260200161127461118d565b81526020016112816109cd565b815260200161128e6109d7565b815260200161129b6109d7565b81526020016112a86109d2565b81526020016112b561118d565b81526020016112c26109f5565b81526020016112cf6109f0565b815250565b6112dc611192565b90565b906112e98261053b565b8110156112fa576020809102010190565b610bb9565b61131161130c6001610987565b610b92565b9061133c81611336849160009061133061132a83610bf6565b85610bd3565b52610bf6565b90610bd3565b515061134a60c08201610c12565b80611679575b611653575b61139361138a61136760a08401610c12565b61138461137e61137960c08701610c12565b610134565b91610134565b14611883565b60208301610c39565b6113a06101008201610c12565b611638575b6113b160e08201610c12565b611404575b6113be6112d4565b506113cb60e08201610c12565b6000146113f457506113df6113ef91612146565b6113e96000610bf6565b906112df565b51505b565b6113fe9150611eb7565b506113f2565b61143961141b61141660808401610c1f565b6119f5565b3361142530610c6f565b906114336101608601610c2c565b92611a4d565b61144560c08201610c12565b60001461146b5761146561145b60408301610c2c565b6101808301610c39565b5b6113b6565b6114aa602061148061147b611ac0565b610c7b565b63320de8e99061149f8592611493610053565b95869485938493610c8c565b835260048301610f63565b03915afa90811561163357600091611605575b506114ce6114c9611afa565b610f8b565b906101206389d797b9926114e460808601610c1f565b906115266114f56102008801610f97565b9561153161150560208a01610c2c565b61151160a08b01610c12565b9061151a610053565b998a9788968796610c8c565b86526004860161113b565b03915afa8015611600576115cc926000916115d1575b5061155460808501610c1f565b9161156160208301610c2c565b9161157b60006115746101608901610c2c565b9201610c2c565b906115896101208801610c2c565b92936115c661159a60808a01610c1f565b6115a660a08b01610c12565b6115b260c08c01610c12565b906115c06102008d01610f97565b92611b83565b95611cbc565b611466565b6115f391506101203d81116115f9575b6115eb8183610088565b8101906110e7565b38611547565b503d6115e1565b610f7a565b611626915060203d811161162c575b61161e8183610088565b810190610cb9565b386114bd565b503d611614565b610f7a565b61164e611644826118ef565b6101408301610c39565b6113a5565b61167461166260808301610c1f565b61166e60408401610c2c565b90611842565b611355565b5061168660e08201610c12565b611350565b606090565b906116d594919392936116a161168b565b506116ab30610c6f565b6116bd6116b733610197565b91610197565b141590816116ea575b506116d8575b9233929361278f565b90565b6116e5336000369161257c565b6116cc565b90506116fe6116f833610197565b91610197565b1415386116c6565b9061171091611713565b90565b9061171e9150612146565b90565b6117329061172d61168b565b611706565b90565b61174961174461174e92610109565b610984565b610109565b90565b9061175b90611735565b600052602052604060002090565b60901c90565b63ffffffff1690565b61178461178991611769565b61176f565b90565b6117969054611778565b90565b6117ad6117a86117b29261058f565b610984565b6100e2565b90565b60209181520190565b60007f4d61726b657456616c69643a7061793e4d61785472616465416d6f756e740000910152565b6117f3601e6020926117b5565b6117fc816117be565b0190565b61181690602081019060008183039101526117e6565b90565b1561182057565b611828610053565b62461bcd60e51b81528061183e60048201611800565b0390fd5b9061187561186f61186a600061186461187c968261185e612829565b01611751565b0161178c565b611799565b916100e2565b1115611819565b565b600090565b5061188c61187e565b90565b634e487b7160e01b600052601160045260246000fd5b6118b46118ba919392936100e2565b926100e2565b82039182116118c557565b61188f565b6118d96118df919392936100e2565b926100e2565b82018092116118ea57565b61188f565b6118f761187e565b5061190460a08201610c12565b61192161191b61191660c08501610c12565b610134565b91610134565b14600014611967578061195d61193d6101406119639401610c2c565b9161195760606119506101408401610c2c565b9201610c2c565b90612834565b906118ca565b5b90565b8061199b61197b6101406119a19401610c2c565b91611995606061198e6101408401610c2c565b9201610c2c565b90612834565b906118a5565b611964565b600090565b906119b590611735565b600052602052604060002090565b60001c90565b60018060a01b031690565b6119e06119e5916119c3565b6119c9565b90565b6119f290546119d4565b90565b611a15611a1a91611a046119a6565b506003611a0f612829565b016119ab565b6119e8565b90565b611a2690610c47565b90565b611a3290611a1d565b90565b611a3e90610c47565b90565b611a4a90611a35565b90565b92909181611a64611a5e6000610bf6565b916100e2565b14611a9157611a8984611a81611a7c611a8f97611a29565b611a41565b94929361298b565b92612aaa565b565b50505050565b600090565b611aa590610c63565b90565b611ab190610c47565b90565b611abd90611aa8565b90565b611ac8611a97565b50611ada611ad530611a9c565b611ab4565b90565b600090565b611aeb90610c47565b90565b611af790611ae2565b90565b611b02611add565b50611b14611b0f30611a9c565b611aee565b90565b611b20906101e5565b90565b90611b2d90611b17565b600052602052604060002090565b611b4490610c63565b90565b90611b5190611b3b565b600052602052604060002090565b90565b611b6e611b73916119c3565b611b5f565b90565b611b809054611b62565b90565b611ba4611bbe9492611bb994611bb493611b9b61187e565b50919091612b8b565b6002611bae612bf1565b01611b23565b611b47565b611b76565b90565b60801c90565b61ffff1690565b611bda611bdf91611bc1565b611bc7565b90565b611bec9054611bce565b90565b611c03611bfe611c0892610109565b610984565b6100e2565b90565b60007f4d6178206f72646572733a636f6e666967206c696d6974000000000000000000910152565b611c4060176020926117b5565b611c4981611c0b565b0190565b611c639060208101906000818303910152611c33565b90565b15611c6d57565b611c75610053565b62461bcd60e51b815280611c8b60048201611c4d565b0390fd5b60181c90565b60ff1690565b611ca7611cac91611c8f565b611c95565b90565b611cb99054611c9b565b90565b9493929190956000611d2e8188611d1a611d3495611d13611d0d611d08611cf787611cf1611ce8612829565b98828a01611751565b01611be2565b93611d026001610987565b906118ca565b6100e2565b91611bef565b1015611c66565b611d2687898491612c80565b018890611751565b01611caf565b611d41575b505050505050565b611d5395600395909192939495612e60565b388080808080611d39565b611d68905161015d565b90565b60007f4f72646572426f6f6b3a696e76616c6964206f726465724b6579000000000000910152565b611da0601a6020926117b5565b611da981611d6b565b0190565b611dc39060208101906000818303910152611d93565b90565b15611dcd57565b611dd5610053565b62461bcd60e51b815280611deb60048201611dad565b0390fd5b611df9905161020c565b90565b611e10611e0b611e1592610981565b610984565b61020c565b90565b611e226001611dfc565b90565b60007f4f72646572426f6f6b3a77726f6e672076657273696f6e000000000000000000910152565b611e5a60176020926117b5565b611e6381611e25565b0190565b611e7d9060208101906000818303910152611e4d565b90565b15611e8757565b611e8f610053565b62461bcd60e51b815280611ea560048201611e67565b0390fd5b90611eb390610134565b9052565b90611ec06112d4565b50611ff3611ee7611ed46102008501610f97565b611ee16101e08601611d5e565b90613100565b611fed611fbb611f37611f1d611eff60808901610c1f565b611f0b60a08a01610c12565b611f1760c08b01610c12565b91612b8b565b93611f31611f2c868390613169565b611dc6565b846136c4565b611f66611f476102e08301611def565b611f60611f5a611f55611e18565b61020c565b9161020c565b14611e80565b611f7f611f766101408901610c2c565b60608301610c39565b611f94611f8e60c08901610c12565b15610134565b60001461202d57611fb4611fab6103208901610c12565b60a08301611ea9565b5b866136f5565b94611fc860c08201610c12565b611ff5575b8590611fe760a0611fe060c08401610c12565b9201610c12565b91613951565b8361415a565b565b61200e6120056101a08301610c2c565b60808801610c39565b61202861201e6101c08301610c2c565b6102208801610c39565b611fcd565b61204761203d6102e08901610c12565b6101008301611ea9565b6120616120576103008901610c12565b6101208301611ea9565b611fb5565b60018060401b03811161207c5760208091020190565b610072565b9061209361208e83612066565b6100af565b918252565b6120a0611192565b90565b60005b8281106120b257505050565b6020906120bd612098565b81840152016120a6565b906120ec6120d483612081565b926020806120e28693612066565b92019103906120a3565b565b6121026120fd612107926100e2565b610984565b61015d565b90565b906121149061015d565b9052565b600161212491016100e2565b90565b90565b61213e61213961214392612127565b610984565b6100e2565b90565b9061214f61168b565b5061215982610bcf565b91612163836120c7565b9261216c61187e565b5b8061218061217a846100e2565b916100e2565b10156122425761223d906122366122236121986112d4565b6122126122086122036121f0878b6121ea60c06121e36121db60a06121d46121cd60806121c6898b90610bd3565b5101610c1f565b9787610bd3565b5101610c12565b938d90610bd3565b5101610c12565b91612b8b565b6121fd6101e08601610f97565b906141a1565b6120ee565b610140830161210a565b61221d878590610bd3565b516136f5565b87839161223083836112df565b526112df565b5150612118565b61216d565b509182612258612252600261212a565b916100e2565b1461232e575b61226661187e565b5b8061227a612274866100e2565b916100e2565b1015612328576123239061231e6122928783906112df565b516122cb816122ae60c06122a78a8890610bd3565b5101610c12565b6122c560a06122be8b8990610bd3565b5101610c12565b91613951565b6123196122e560806122de898790610bd3565b5101610c1f565b6122fc60a06122f58a8890610bd3565b5101610c12565b61231360c061230c8b8990610bd3565b5101610c12565b91612b8b565b614278565b612118565b612267565b50915050565b61237061235261014061234b876123456001610987565b906112df565b5101611d5e565b610160612369876123636000610bf6565b906112df565b510161210a565b6123b261239461014061238d876123876000610bf6565b906112df565b5101611d5e565b6101606123ab876123a56001610987565b906112df565b510161210a565b61225e565b6123c090610c63565b90565b90565b6123da6123d56123df926123c3565b610984565b6100e2565b90565b600080fd5b600080fd5b9093929384831161240c578411612407576001820201920390565b6123e7565b6123e2565b5090565b63ffffffff60e01b1690565b1b90565b9061243361243a9183612411565b9135612415565b9060048110612448575b5090565b6124609063ffffffff60e01b90600403600802612421565b1638612444565b61247b61247661248092610bf3565b610984565b61058f565b90565b919061249790600060208501940190611114565b565b60a01b90565b906124ae60ff60a01b91612499565b9181191691161790565b6124c190610134565b90565b90565b906124dc6124d76124e3926124b8565b6124c4565b825461249f565b9055565b6124f090610c47565b90565b6124fc906124e7565b90565b61250890610c63565b90565b600091031261251657565b610059565b60209181520190565b90826000939282370152565b919061254a816125438161254f9561251b565b8095612524565b610068565b0190565b9161257993919261256c60408201946000830190611114565b6020818503910152612530565b90565b6125846143bb565b916125d76125cf6125936143c6565b8461259d306123b7565b906125c96125c3878b6000906125bd6125b7600493610bf6565b926123c6565b926123ec565b90612425565b9261451d565b919015610134565b6125e3575b5050505050565b6125f66125f06000612467565b9161058f565b116000146126be5761260c6001600085016124c7565b61262461261f61261a6143c6565b6124f3565b6124ff565b6394c7d7ee92919492813b156126b95760006126539161265e8296612647610053565b998a9788968795610c8c565b855260048501612553565b03925af19182156126b45761267d92612687575b5060008091016124c7565b38808080806125dc565b6126a79060003d81116126ad575b61269f8183610088565b81019061250b565b38612672565b503d612695565b610f7a565b610c87565b6126df826126ca610053565b91829162d1953b60e31b835260048301612483565b0390fd5b6126f76126f26126fc92610bf3565b610984565b61018c565b90565b612708906126e3565b90565b60007f506f736974696f6e5375624d67723a216163636f756e74000000000000000000910152565b61274060176020926117b5565b6127498161270b565b0190565b6127639060208101906000818303910152612733565b90565b1561276d57565b612775610053565b62461bcd60e51b81528061278b6004820161274d565b0390fd5b949391926127af6127bc946127b6936127a661168b565b98919091612b8b565b50916120ee565b90613100565b506128036127e16101e06127da856127d46000610bf6565b906112df565b5101610f97565b6127fc6127f66127f160006126ff565b610197565b91610197565b1415612766565b565b7f2eec39e2b6bcfb5f1ee2be0b6e9d5a470a45585b1e2f7f291af9fb9f551763d090565b612831612805565b90565b61283c61187e565b508161138860001903048111158215171561285f57612710916113889102010490565b600080fd5b61286d90610c63565b90565b9050519061287d82610212565b565b906020828203126128995761289691600001612870565b90565b610059565b6128b26128ad6128b79261020c565b610984565b6100e2565b90565b6128c3906100e2565b604d81116128d157600a0a90565b61188f565b6128e56128eb919392936100e2565b926100e2565b916128f78382026100e2565b92818404149015171561290657565b61188f565b90565b61292261291d6129279261290b565b610984565b61020c565b90565b612934601261290e565b90565b6129409061020c565b604d811161294e57600a0a90565b61188f565b634e487b7160e01b600052601260045260246000fd5b61297561297b916100e2565b916100e2565b908115612986570490565b612953565b9060206129ab6129a66129c1936129a061187e565b50611a29565b612864565b63313ce567906129b9610053565b938492610c8c565b825281806129d1600482016104b0565b03915afa918215612a4a576129fd6129f8612a1994612a0394600091612a1c575b5061289e565b6128ba565b906128d6565b612a13612a0e61292a565b612937565b90612969565b90565b612a3d915060203d8111612a43575b612a358183610088565b81019061287f565b386129f2565b503d612a2b565b610f7a565b612a5890610c63565b90565b612a6f612a6a612a749261058f565b610c8c565b612415565b90565b604090612aa1612aa89496959396612a9760608401986000850190611114565b6020830190611114565b0190611121565b565b600492612ae4612af89593612af39394612acb6323b872dd92949192612a5b565b93612ad4610053565b9788956020870190815201612a77565b60208201810382520383610088565b614622565b565b600090565b604090612b29612b309496959396612b1f6060840198600085019061112e565b602083019061112e565b0190611107565b565b5190565b60200190565b612b4690516101e5565b90565b612b63612b5e612b5883612b32565b92612b36565b612b3c565b9060208110612b71575b5090565b612b849060001990602003600802612421565b1638612b6d565b90612bca92612bb6612bc592612b9f612afa565b509193612baa610053565b94859360208501612aff565b60208201810382520382610088565b612b49565b90565b7fbf93ccae7e050fdad00615e220e3f9b7ebb112ac9318fb8604653a7d8091238890565b612bf9612bcd565b90565b60007f4d61726b657456616c69643a53697a6500000000000000000000000000000000910152565b612c3160106020926117b5565b612c3a81612bfc565b0190565b612c549060208101906000818303910152612c24565b90565b15612c5e57565b612c66610053565b62461bcd60e51b815280612c7c60048201612c3e565b0390fd5b90612c9492918215612c96575b5050612c57565b565b612cac919250612ca690926100e2565b916100e2565b10153880612c8d565b60081c90565b612cc7612ccc91612cb5565b611c95565b90565b612cd99054612cbb565b90565b60101c90565b612cee612cf391612cdc565b611c95565b90565b612d009054612ce2565b90565b60007f4d61726b657456616c69643a4d61726b6574436c6f7365640000000000000000910152565b612d3860186020926117b5565b612d4181612d03565b0190565b612d5b9060208101906000818303910152612d2b565b90565b612d72612d6d612d7792610bf3565b610984565b610c92565b90565b612d8390610c92565b600160ff1b8114612d945760000390565b61188f565b612dad612da8612db292610c92565b610984565b6100e2565b90565b60007f4d61726b657456616c69643a436f6c6c61746572616c00000000000000000000910152565b612dea60166020926117b5565b612df381612db5565b0190565b612e0d9060208101906000818303910152612ddd565b90565b15612e1757565b612e1f610053565b62461bcd60e51b815280612e3560048201612df7565b0390fd5b60601c90565b612e4b612e5091612e39565b611bc7565b90565b612e5d9054612e3f565b90565b9095919394612e6d612829565b95612e8f612e896000612e83818b018c90611751565b01612ccf565b15610134565b806130b3575b801561306a575b6130485782612eb4612eae6003610cfd565b91610cfd565b1015918261302a575b50506130225780612ed7612ed16002610cfd565b91610cfd565b111560001461301257612eeb8484906118ca565b5b81612f00612efa6003610cfd565b91610cfd565b1480612ff7575b612fee57612f97966000612f8a95612f7885612f5e612f909a612f8599612f7f98879a612f3d612f376002610cfd565b91610cfd565b1115612f99575b5050612f58612f5287610bf6565b916100e2565b11612e10565b612f71612f6b6001610cfd565b91610cfd565b1415612e10565b9701611751565b01612e53565b611bef565b916100e2565b1015612e10565b565b81612fac612fa68a612d5e565b91610c92565b138814612fce57612fbf612fc592612d99565b906118a5565b505b3880612f44565b612fe2612fdd612fe893612d7a565b612d99565b906118ca565b50612fc7565b50505050505050565b508061300c6130066000610bf6565b916100e2565b14612f07565b61301d8484906118a5565b612eec565b505050505050565b61304091925061303a90926100e2565b916100e2565b143880612ebd565b613050610053565b62461bcd60e51b81528061306660048201612d45565b0390fd5b5061308c6130866000613080818b018c90611751565b01612cf6565b15610134565b80613097575b612e9c565b50826130ac6130a66003610cfd565b91610cfd565b1015613092565b50826130c86130c26002610cfd565b91610cfd565b1115612e95565b6130d89061015d565b9052565b9160206130fe9294936130f760408201966000830190611114565b01906130cf565b565b6131339061310c612afa565b50613124613118610053565b938492602084016130dc565b60208201810382520382610088565b61314561313f82612b32565b91612b36565b2090565b600090565b9061315890611b17565b600052602052604060002090565b90565b9061319261318d6131979361317c613149565b506004613187612bf1565b0161314e565b613166565b6146be565b90565b906131a490611b17565b600052602052604060002090565b906131bc90611b17565b600052602052604060002090565b90565b6131d96131de916119c3565b6131ca565b90565b6131eb90546131cd565b90565b906131f8906101e5565b9052565b60018060801b031690565b613213613218916119c3565b6131fc565b90565b6132259054613207565b90565b9061323290610236565b9052565b61324261324791611bc1565b6131fc565b90565b6132549054613236565b90565b613263613268916119c3565b611c95565b90565b6132759054613257565b90565b60201c90565b61328a61328f91613278565b611c95565b90565b61329c905461327e565b90565b60281c90565b60018060401b031690565b6132bc6132c19161329f565b6132a5565b90565b6132ce90546132b0565b90565b60681c90565b6132e36132e8916132d1565b6132a5565b90565b6132f590546132d7565b90565b60a81c90565b61330a61330f916132f8565b6132a5565b90565b61331c90546132fe565b90565b61332b613330916119c3565b61176f565b90565b61333d905461331f565b90565b9061334a9061058f565b9052565b60ff1690565b61336061336591613278565b61334e565b90565b6133729054613354565b90565b9061337f9061020c565b9052565b61338f6133949161329f565b6119c9565b90565b6133a19054613383565b90565b906133ae90610197565b9052565b60018060601b031690565b6133c96133ce916119c3565b6133b2565b90565b6133db90546133bd565b90565b906133e8906105bf565b9052565b6133f86133fd91612cdc565b611bc7565b90565b61340a90546133ec565b90565b9061341790610109565b9052565b61342761342c91613278565b6133b2565b90565b613439905461341b565b90565b61344861344d916119c3565b61334e565b90565b61345a905461343c565b90565b906136b66136ac600961346e61117a565b9461348761347e600083016131e1565b600088016131ee565b61349f6134966001830161321b565b60208801613228565b6134b76134ae6001830161324a565b60408801613228565b6134cf6134c660028301611b76565b60608801610c39565b6134e76134de60038301611b76565b60808801610c39565b6134ff6134f66004830161326b565b60a08801611ea9565b61351761350e60048301612ccf565b60c08801611ea9565b61352f61352660048301612cf6565b60e08801611ea9565b61354861353e60048301611caf565b6101008801611ea9565b61356161355760048301613292565b6101208801611ea9565b61357a613570600483016132c4565b610140880161210a565b613593613589600483016132eb565b610160880161210a565b6135ac6135a260048301613312565b610180880161210a565b6135c56135bb60058301613333565b6101a08801613340565b6135de6135d460058301613368565b6101c08801613375565b6135f76135ed60058301613397565b6101e088016133a4565b613610613606600683016133d1565b61020088016133de565b61362961361f60078301611b76565b6102208801610c39565b6136426136386008830161326b565b6102408801611ea9565b61365b61365160088301612ccf565b6102608801611ea9565b61367461366a60088301613400565b610280880161340d565b61368d6136836008830161342f565b6102a088016133de565b6136a661369c6008830161324a565b6102c08801613228565b01613450565b6102e08401613375565b565b6136c19061345d565b90565b6136f2916136e86136ed926136d76112d4565b5060006136e2612bf1565b0161319a565b6131b2565b6136b8565b90565b6136fd6112d4565b5061370b6101008201610c12565b600014613764578061374861374261373d61373760a061373060c06137529801610c12565b9501610c12565b15610134565b610134565b91610134565b1460a08301611ea9565b613760600160c08301611ea9565b5b90565b61377060c08201610c12565b60001461379e5761378f61378960a06137989301610c12565b15610134565b60a08301611ea9565b5b613761565b6137ab6103208201610c12565b6137be6137b86000610134565b91610134565b14600014613802576137d560206137fc9201610c2c565b6137f26137ec6137e760608601610c2c565b6100e2565b916100e2565b1060a08301611ea9565b5b613799565b61381261032061381b9201610c12565b60a08301611ea9565b6137fd565b61382a9051610236565b90565b61384161383c61384692610bf3565b610984565b610236565b90565b60007f4f423a696e76616c696420636f6c6c61746572616c0000000000000000000000910152565b61387e60156020926117b5565b61388781613849565b0190565b6138a19060208101906000818303910152613871565b90565b156138ab57565b6138b3610053565b62461bcd60e51b8152806138c96004820161388b565b0390fd5b60007f4f72646572426f6f6b3a696e76616c6964206163636f756e7400000000000000910152565b61390260196020926117b5565b61390b816138cd565b0190565b61392590602081019060008183039101526138f5565b90565b1561392f57565b613937610053565b62461bcd60e51b81528061394d6004820161390f565b0390fd5b61398b92506101e0906139699261398d575b01610f97565b61398461397e61397960006126ff565b610197565b91610197565b1415613928565b565b6139b561399c60208301613820565b6139af6139a9600061382d565b91610236565b116138a4565b613963565b60001b90565b906139cd600019916139ba565b9181191691161790565b6139e0906119c3565b90565b906139f86139f36139ff92611b17565b6139d7565b82546139c0565b9055565b90613a1460018060801b03916139ba565b9181191691161790565b613a32613a2d613a3792610236565b610984565b610236565b90565b90565b90613a52613a4d613a5992613a1e565b613a3a565b8254613a03565b9055565b60801b90565b90613a7560018060801b031991613a5d565b9181191691161790565b90613a94613a8f613a9b92613a1e565b613a3a565b8254613a63565b9055565b613ab3613aae613ab8926100e2565b610984565b6100e2565b90565b90565b90613ad3613ace613ada92613a9f565b613abb565b82546139c0565b9055565b90613aea60ff916139ba565b9181191691161790565b90613b09613b04613b10926124b8565b6124c4565b8254613ade565b9055565b60081b90565b90613b2761ff0091613b14565b9181191691161790565b90613b46613b41613b4d926124b8565b6124c4565b8254613b1a565b9055565b60101b90565b90613b6562ff000091613b51565b9181191691161790565b90613b84613b7f613b8b926124b8565b6124c4565b8254613b57565b9055565b60181b90565b90613ba463ff00000091613b8f565b9181191691161790565b90613bc3613bbe613bca926124b8565b6124c4565b8254613b95565b9055565b60201b90565b90613be360ff60201b91613bce565b9181191691161790565b90613c02613bfd613c09926124b8565b6124c4565b8254613bd4565b9055565b60281b90565b90613c28600160281b600160681b0391613c0d565b9181191691161790565b613c46613c41613c4b9261015d565b610984565b61015d565b90565b90565b90613c66613c61613c6d92613c32565b613c4e565b8254613c13565b9055565b60681b90565b90613c8c600160681b600160a81b0391613c71565b9181191691161790565b90613cab613ca6613cb292613c32565b613c4e565b8254613c77565b9055565b60a81b90565b90613cd1600160a81b600160e81b0391613cb6565b9181191691161790565b90613cf0613ceb613cf792613c32565b613c4e565b8254613cbc565b9055565b613d05905161058f565b90565b90613d1763ffffffff916139ba565b9181191691161790565b613d35613d30613d3a9261058f565b610984565b61058f565b90565b90565b90613d55613d50613d5c92613d21565b613d3d565b8254613d08565b9055565b613d74613d6f613d799261020c565b610984565b61020c565b90565b90565b90613d94613d8f613d9b92613d60565b613d7c565b8254613bd4565b9055565b90613db4600160281b600160c81b0391613c0d565b9181191691161790565b90565b90613dd6613dd1613ddd92611b3b565b613dbe565b8254613d9f565b9055565b613deb90516105bf565b90565b90613dff60018060601b03916139ba565b9181191691161790565b613e1d613e18613e22926105bf565b610984565b6105bf565b90565b90565b90613e3d613e38613e4492613e09565b613e25565b8254613dee565b9055565b90613e5763ffff000091613b51565b9181191691161790565b90565b90613e79613e74613e8092611735565b613e61565b8254613e48565b9055565b90613e99600160201b600160801b0391613bce565b9181191691161790565b90613eb8613eb3613ebf92613e09565b613e25565b8254613e84565b9055565b90613ed8613ed3613edf92613d60565b613d7c565b8254613ade565b9055565b906141466102e0600961414c94613f0960008201613f0360008801612b3c565b906139e3565b613f2260018201613f1c60208801613820565b90613a3d565b613f3b60018201613f3560408801613820565b90613a7f565b613f5460028201613f4e60608801610c2c565b90613abe565b613f6d60038201613f6760808801610c2c565b90613abe565b613f8660048201613f8060a08801610c12565b90613af4565b613f9f60048201613f9960c08801610c12565b90613b31565b613fb860048201613fb260e08801610c12565b90613b6f565b613fd260048201613fcc6101008801610c12565b90613bae565b613fec60048201613fe66101208801610c12565b90613bed565b614006600482016140006101408801611d5e565b90613c51565b6140206004820161401a6101608801611d5e565b90613c96565b61403a600482016140346101808801611d5e565b90613cdb565b6140546005820161404e6101a08801613cfb565b90613d40565b61406e600582016140686101c08801611def565b90613d7f565b614088600582016140826101e08801610f97565b90613dc1565b6140a26006820161409c6102008801613de1565b90613e28565b6140bc600782016140b66102208801610c2c565b90613abe565b6140d6600882016140d06102408801610c12565b90613af4565b6140f0600882016140ea6102608801610c12565b90613b31565b61410a600882016141046102808801610c1f565b90613e64565b6141246008820161411e6102a08801613de1565b90613ea3565b61413e600882016141386102c08801613820565b90613a7f565b019201611def565b90613ec3565b565b9061415891613ee3565b565b61418c6141919261416a836146fb565b61418761417684614714565b916000614181612bf1565b0161319a565b6131b2565b61414e565b565b9061419e91016100e2565b90565b9190916141ac61187e565b506141d46141cf6141c860016141c0612bf1565b018490611b23565b8590611b47565b611b76565b92836141e96141e36000610bf6565b916100e2565b1461422b575b906142246142299261421f614202612bf1565b9360016142188961421283610987565b90614193565b9501611b23565b611b47565b613abe565b565b92506142299061422461423e6001610987565b94919250506141ef565b9061425290611b17565b600052602052604060002090565b9061426a90611b3b565b600052602052604060002090565b9061436761436161435c61434961436d95614292866146fb565b6142e861429e87614714565b6142c6886142c16142ba60006142b2612bf1565b01879061319a565b84906131b2565b61414e565b6142e36142de60046142d6612bf1565b01859061314e565b613166565b614777565b506143396142f66001610987565b6143336143246143116002614309612bf1565b018690611b23565b61431e6101e08c01610f97565b90611b47565b9161432e83611b76565b6118ca565b90613abe565b6003614343612bf1565b01614248565b6143566101e08601610f97565b90614260565b613166565b91614714565b90614777565b50565b90565b61438761438261438c92614370565b6139ba565b6101e5565b90565b6143b87ff3177357ab46d8af007ab3fdb9af81da189e1068fefdc0073dca88a2cab40a00614373565b90565b6143c361438f565b90565b6143ce6119a6565b506143e260006143dc6143bb565b016119e8565b90565b600090565b6143f390612415565b9052565b604090614421614428949695939661441760608401986000850190611114565b6020830190611114565b01906143ea565b565b60018060401b03811161444657614442602091610068565b0190565b610072565b9061445d6144588361442a565b6100af565b918252565b606090565b3d600014614484576144783d61444b565b903d6000602084013e5b565b61448c614462565b90614482565b90565b6144a96144a46144ae92614492565b610984565b6100e2565b90565b90565b6144c86144c36144cd926144b1565b610984565b6100e2565b90565b906020828203126144ea576144e791600001610fb3565b90565b610059565b9190604083820312614518578061450c6145159260008601610fb3565b93602001610fd7565b90565b610059565b9392600091829161456f61452f613149565b9561456061453b6143e5565b99949193614547610053565b94859360046020860163b700961360e01b8152016143f7565b60208201810382520382610088565b602081019051915afa614580614467565b9061458b575b509190565b9061459582612b32565b6145a86145a26040614495565b916100e2565b10156000146145d757506145ce91925060206145c382612b32565b8183010191016144ef565b91905b38614586565b906145e181612b32565b6145f46145ee60206144b4565b916100e2565b1015614601575b506145d1565b61461c9150602061461182612b32565b8183010191016144d0565b386145fb565b906146359061463083612a4f565b614798565b61463e81612b32565b61465161464b6000610bf6565b916100e2565b14159081614690575b506146625750565b61466e61468c91612a4f565b614676610053565b918291635274afe760e01b835260048301612483565b0390fd5b6146b591506146af9060206146a482612b32565b8183010191016144d0565b15610134565b3861465a565b90565b906146d760006146dc936146d0613149565b50016146bb565b6147d2565b90565b6146f36146ee6146f8926100e2565b610984565b61058f565b90565b614712906101a061470b426146df565b9101613340565b565b61471c612afa565b5061476161473a6101406147336101e08501610f97565b9301611d5e565b91614752614746610053565b938492602084016130dc565b60208201810382520382610088565b61477361476d82612b32565b91612b36565b2090565b90614790600061479593614789613149565b50016146bb565b6148bf565b90565b906147b7916147a5614462565b50906147b16000610bf6565b91614932565b90565b906147c490611b17565b600052602052604060002090565b6147f09160016147eb926147e4613149565b50016147ba565b611b76565b6148036147fd6000610bf6565b916100e2565b141590565b90565b600052602060002090565b5490565b61482381614816565b82101561483e5761483560019161480b565b91020190600090565b610bb9565b9190600861485f91029161485960001984612421565b92612421565b9181191691161790565b919061487f61487a61488793611b17565b6139d7565b908354614843565b9055565b90815491600160401b8310156148b657826148ae9160016148b49501815561481a565b90614869565b565b610072565b5490565b6148c7613149565b506148dc6148d68284906147d2565b15610134565b60001461491f5761491561491a926149006148f960008501614808565b829061488b565b600161490e600085016148bb565b93016147ba565b613abe565b600190565b5050600090565b61492f90610c63565b90565b909161493c614462565b5061494630614926565b31614959614953836100e2565b916100e2565b106149865760008091614983948491602082019151925af19061497a614467565b909190916149b4565b90565b6149b061499230614926565b61499a610053565b91829163cd78605960e01b835260048301612483565b0390fd5b906149c8906149c1614462565b5015610134565b6000146149d55750614a42565b6149de82612b32565b6149f16149eb6000610bf6565b916100e2565b1480614a26575b614a00575090565b614a2290614a0c610053565b918291639996b31560e01b835260048301612483565b0390fd5b50803b614a3c614a366000610bf6565b916100e2565b146149f8565b614a4b81612b32565b614a5e614a586000610bf6565b916100e2565b11600014614a6e57805190602001fd5b614a76610053565b630a12f52160e11b815280614a8d600482016104b0565b0390fdfea2646970667358221220121e74f46de0617d52dedaeceb3f468633b00fb653ee6f939b142c4abead2d8764736f6c63430008180033",
  "devdoc": {
    "errors": {
      "AddressEmptyCode(address)": [
        {
          "details": "There's no code at `target` (it is not a contract)."
        }
      ],
      "AddressInsufficientBalance(address)": [
        {
          "details": "The ETH balance of the account is not enough to perform the operation."
        }
      ],
      "FailedInnerCall()": [
        {
          "details": "A call to an address target failed. The target may have reverted."
        }
      ],
      "SafeERC20FailedOperation(address)": [
        {
          "details": "An operation with an ERC20 token failed."
        }
      ]
    },
    "kind": "dev",
    "methods": {},
    "version": 1
  },
  "userdoc": {
    "kind": "user",
    "methods": {},
    "version": 1
  },
  "storageLayout": {
    "storage": [],
    "types": null
  }
}