{
  "address": "0x1EA58B7F602Ad582581112aDbC360607Cf61ACa1",
  "abi": [
    {
      "inputs": [
        {
          "internalType": "address",
          "name": "authority",
          "type": "address"
        }
      ],
      "name": "AccessManagedInvalidAuthority",
      "type": "error"
    },
    {
      "inputs": [
        {
          "internalType": "address",
          "name": "caller",
          "type": "address"
        },
        {
          "internalType": "uint32",
          "name": "delay",
          "type": "uint32"
        }
      ],
      "name": "AccessManagedRequiredDelay",
      "type": "error"
    },
    {
      "inputs": [
        {
          "internalType": "address",
          "name": "caller",
          "type": "address"
        }
      ],
      "name": "AccessManagedUnauthorized",
      "type": "error"
    },
    {
      "inputs": [
        {
          "internalType": "int256",
          "name": "value",
          "type": "int256"
        }
      ],
      "name": "SafeCastOverflowedIntToUint",
      "type": "error"
    },
    {
      "inputs": [
        {
          "internalType": "uint256",
          "name": "value",
          "type": "uint256"
        }
      ],
      "name": "SafeCastOverflowedUintToInt",
      "type": "error"
    },
    {
      "inputs": [],
      "name": "TotalFeesLtZero",
      "type": "error"
    },
    {
      "inputs": [
        {
          "components": [
            {
              "internalType": "bytes32",
              "name": "refCode",
              "type": "bytes32"
            },
            {
              "internalType": "uint128",
              "name": "collateral",
              "type": "uint128"
            },
            {
              "internalType": "uint128",
              "name": "size",
              "type": "uint128"
            },
            {
              "internalType": "uint256",
              "name": "price",
              "type": "uint256"
            },
            {
              "internalType": "uint256",
              "name": "tp",
              "type": "uint256"
            },
            {
              "internalType": "bool",
              "name": "triggerAbove",
              "type": "bool"
            },
            {
              "internalType": "bool",
              "name": "isFromMarket",
              "type": "bool"
            },
            {
              "internalType": "bool",
              "name": "isKeepLev",
              "type": "bool"
            },
            {
              "internalType": "bool",
              "name": "isKeepLevTP",
              "type": "bool"
            },
            {
              "internalType": "bool",
              "name": "isKeepLevSL",
              "type": "bool"
            },
            {
              "internalType": "uint64",
              "name": "orderID",
              "type": "uint64"
            },
            {
              "internalType": "uint64",
              "name": "pairId",
              "type": "uint64"
            },
            {
              "internalType": "uint64",
              "name": "fromId",
              "type": "uint64"
            },
            {
              "internalType": "uint32",
              "name": "updatedAtBlock",
              "type": "uint32"
            },
            {
              "internalType": "uint8",
              "name": "extra0",
              "type": "uint8"
            },
            {
              "internalType": "address",
              "name": "account",
              "type": "address"
            },
            {
              "internalType": "uint96",
              "name": "extra1",
              "type": "uint96"
            },
            {
              "internalType": "uint256",
              "name": "sl",
              "type": "uint256"
            },
            {
              "internalType": "bool",
              "name": "isIncrease",
              "type": "bool"
            },
            {
              "internalType": "bool",
              "name": "isLong",
              "type": "bool"
            },
            {
              "internalType": "uint16",
              "name": "market",
              "type": "uint16"
            },
            {
              "internalType": "uint96",
              "name": "extra2",
              "type": "uint96"
            },
            {
              "internalType": "uint128",
              "name": "gas",
              "type": "uint128"
            },
            {
              "internalType": "uint8",
              "name": "version",
              "type": "uint8"
            }
          ],
          "internalType": "struct Order.Props",
          "name": "order",
          "type": "tuple"
        },
        {
          "components": [
            {
              "internalType": "uint256",
              "name": "oraclePrice",
              "type": "uint256"
            },
            {
              "internalType": "uint256",
              "name": "pay",
              "type": "uint256"
            },
            {
              "internalType": "uint256",
              "name": "slippage",
              "type": "uint256"
            },
            {
              "internalType": "uint16",
              "name": "market",
              "type": "uint16"
            },
            {
              "internalType": "bool",
              "name": "isLong",
              "type": "bool"
            },
            {
              "internalType": "bool",
              "name": "isOpen",
              "type": "bool"
            },
            {
              "internalType": "bool",
              "name": "isCreate",
              "type": "bool"
            },
            {
              "internalType": "bool",
              "name": "isFromMarket",
              "type": "bool"
            },
            {
              "internalType": "uint256",
              "name": "sizeDelta",
              "type": "uint256"
            },
            {
              "internalType": "uint256",
              "name": "price",
              "type": "uint256"
            },
            {
              "internalType": "uint256",
              "name": "collateralDelta",
              "type": "uint256"
            },
            {
              "internalType": "uint256",
              "name": "collateral",
              "type": "uint256"
            },
            {
              "internalType": "uint256",
              "name": "tp",
              "type": "uint256"
            },
            {
              "internalType": "uint256",
              "name": "sl",
              "type": "uint256"
            },
            {
              "internalType": "uint64",
              "name": "orderId",
              "type": "uint64"
            },
            {
              "internalType": "address",
              "name": "account",
              "type": "address"
            },
            {
              "internalType": "bool",
              "name": "isExec",
              "type": "bool"
            },
            {
              "internalType": "uint8",
              "name": "liqState",
              "type": "uint8"
            },
            {
              "internalType": "uint64",
              "name": "fromOrder",
              "type": "uint64"
            },
            {
              "internalType": "bytes32",
              "name": "refCode",
              "type": "bytes32"
            },
            {
              "internalType": "uint8",
              "name": "execNum",
              "type": "uint8"
            },
            {
              "internalType": "bool",
              "name": "isKeepLev",
              "type": "bool"
            },
            {
              "internalType": "bool",
              "name": "isKeepLevTP",
              "type": "bool"
            },
            {
              "internalType": "bool",
              "name": "isKeepLevSL",
              "type": "bool"
            },
            {
              "internalType": "bool",
              "name": "triggerAbove",
              "type": "bool"
            },
            {
              "internalType": "uint128",
              "name": "gas",
              "type": "uint128"
            }
          ],
          "internalType": "struct MarketDataTypes.Cache",
          "name": "_params",
          "type": "tuple"
        }
      ],
      "name": "execSubOrderKey",
      "outputs": [],
      "stateMutability": "nonpayable",
      "type": "function"
    },
    {
      "inputs": [
        {
          "internalType": "uint16",
          "name": "market",
          "type": "uint16"
        },
        {
          "internalType": "address",
          "name": "accounts",
          "type": "address"
        },
        {
          "internalType": "bool",
          "name": "_isLong",
          "type": "bool"
        }
      ],
      "name": "liquidate",
      "outputs": [],
      "stateMutability": "nonpayable",
      "type": "function"
    }
  ],
  "transactionHash": "0x6acd38f052de7c546cb643b8388f93a5247de50b3382861d9468199510912ccc",
  "args": [],
  "numDeployments": 1,
  "solcInputHash": "bdd3f75851e051eb1462ab83403a0cb0",
  "bytecode": "0x608060405234801561001057600080fd5b506145ba806100206000396000f3fe608060405234801561001057600080fd5b50600436106100365760003560e01c80633d12067a1461003b578063fe0e467e14610057575b600080fd5b610055600480360381019061005091906131c5565b610073565b005b610071600480360381019061006c9190613207565b6101e7565b005b61007c826101ec565b600015158160a001511515146100c7576040517f08c379a00000000000000000000000000000000000000000000000000000000081526004016100be906132b7565b60405180910390fd5b6000806100e38360600151856101e001518486608001516102b5565b90506000806100f06103fd565b73ffffffffffffffffffffffffffffffffffffffff16632ba88be9868560405160200161011e92919061366e565b6040516020818303038152906040526040518263ffffffff1660e01b81526004016101499190613718565b600060405180830381865afa158015610166573d6000803e3d6000fd5b505050506040513d6000823e3d601f19601f8201168201806040525081019061018f9190613833565b915091506101d4856060015182846004600c8111156101b1576101b061388f565b5b60ff16815181106101c5576101c46138be565b5b60200260200101516001610405565b506101df868661040f565b505050505050565b505050565b600073ffffffffffffffffffffffffffffffffffffffff16816101e0015173ffffffffffffffffffffffffffffffffffffffff1603610260576040517f08c379a000000000000000000000000000000000000000000000000000000000815260040161025790613939565b60405180910390fd5b600081610140015167ffffffffffffffff16036102b2576040517f08c379a00000000000000000000000000000000000000000000000000000000081526004016102a990613939565b60405180910390fd5b50565b6102bd6127e9565b6102c56106f3565b60000160006102d48785610720565b815260200190815260200160002060008573ffffffffffffffffffffffffffffffffffffffff1673ffffffffffffffffffffffffffffffffffffffff1681526020019081526020016000206040518061012001604052908160008201548152602001600182015481526020016002820154815260200160038201548152602001600482015481526020016005820160009054906101000a900460ff161515151581526020016005820160019054906101000a900463ffffffff1663ffffffff1663ffffffff1681526020016005820160059054906101000a900461ffff1661ffff1661ffff1681526020016005820160079054906101000a900468ffffffffffffffffff1668ffffffffffffffffff1668ffffffffffffffffff16815250509050949350505050565b600030905090565b6000949350505050565b61042181606001518260800151610755565b81600001818152505060006104498260600151846101e00151846000015185608001516102b5565b9050600083604001516fffffffffffffffffffffffffffffffff1611156104a3576104988360e00151826000015185604001516fffffffffffffffffffffffffffffffff1684602001516107e3565b826101400181815250505b60006104d283606001518460a001518560800151876101e0015188610140015167ffffffffffffffff16610816565b9050600073ffffffffffffffffffffffffffffffffffffffff1681600081518110610500576104ff6138be565b5b60200260200101516101e0015173ffffffffffffffffffffffffffffffffffffffff1603610563576040517f08c379a000000000000000000000000000000000000000000000000000000000815260040161055a906139a5565b60405180910390fd5b60005b81518110156106e2576000828281518110610584576105836138be565b5b60200260200101519050806101e0015173ffffffffffffffffffffffffffffffffffffffff16600073ffffffffffffffffffffffffffffffffffffffff16036105cd57506106cf565b600082036106cd57600185610280018181516105e991906139f4565b91509060ff16908160ff168152505061060f85600001518261084090919063ffffffff16565b8660c00151610653576040518060400160405280601b81526020017f506f736974696f6e4164644d67723a7472696767657261626f7665000000000081525061068a565b6040518060400160405280601e81526020017f506f736974696f6e5375624d67723a6d61726b657420736c69707061676500008152505b906106cb576040517f08c379a00000000000000000000000000000000000000000000000000000000081526004016106c29190613a6d565b60405180910390fd5b505b505b80806106da90613a8f565b915050610566565b506106ed838361085d565b50505050565b6000807f92bcfabaf0a890def3092675474357e5f93a0f117ca63a3db421d44c5b55fba590508091505090565b60008183604051602001610735929190613b55565b60405160208183030381529060405261074d90613bb3565b905092915050565b600061075f610fe6565b73ffffffffffffffffffffffffffffffffffffffff1663db6112258484156040518363ffffffff1660e01b815260040161079a929190613c38565b602060405180830381865afa1580156107b7573d6000803e3d6000fd5b505050506040513d601f19601f820116820180604052508101906107db9190613c76565b905092915050565b60008415610809578383836107f89190613ca3565b6108029190613d14565b905061080e565b600090505b949350505050565b60606000610825878688610fee565b905060006108338585611026565b9050505095945050505050565b60008260c00151806108555750818360600151145b905092915050565b6000816000015114806108a15750600073ffffffffffffffffffffffffffffffffffffffff16826101e0015173ffffffffffffffffffffffffffffffffffffffff16145b610fe2576108b28260600151611059565b6000826101000151826000015114905080156109c157600060029050600184610220015160ff16036108e757600190506108fd565b600284610220015160ff16036108fc57600790505b5b6000610919856060015160008760800151886101e001516110e4565b905060005b81518110156109bd57600082828151811061093c5761093b6138be565b5b60200260200101519050600073ffffffffffffffffffffffffffffffffffffffff16816101e0015173ffffffffffffffffffffffffffffffffffffffff160361098557506109aa565b6001876102800181815161099991906139f4565b91509060ff16908160ff1681525050505b80806109b590613a8f565b91505061091e565b5050505b6000806109cc6103fd565b73ffffffffffffffffffffffffffffffffffffffff16632ba88be986866040516020016109fa92919061366e565b6040516020818303038152906040526040518263ffffffff1660e01b8152600401610a259190613718565b600060405180830381865afa158015610a42573d6000803e3d6000fd5b505050506040513d6000823e3d601f19601f82011682018060405250810190610a6b9190613833565b91509150600085610100015103610af657600080821315610a90578460200151610ab1565b610ab082610aa18760200151611332565b610aab9190613d45565b6113a1565b5b9050610af06004828861014001518860000151600080604051602001610adc96959493929190613e17565b6040516020818303038152906040526113f0565b50610b23565b610b22858584604051602001610b0e93929190613f27565b6040516020818303038152906040526113f3565b5b6000808661010001511115610bd457610b3a6113f6565b73ffffffffffffffffffffffffffffffffffffffff16637370cf1c8760600151886101e001518961010001518a600001518b608001516040518663ffffffff1660e01b8152600401610b90959493929190613f77565b602060405180830381865afa158015610bad573d6000803e3d6000fd5b505050506040513d601f19601f82011682018060405250810190610bd19190613fca565b90505b808560600181815250506000610bec878784876113fe565b90506000610bf86103fd565b73ffffffffffffffffffffffffffffffffffffffff166370802dac89606001518a608001516040518363ffffffff1660e01b8152600401610c3a929190613c38565b602060405180830381865afa158015610c57573d6000803e3d6000fd5b505050506040513d601f19601f82011682018060405250810190610c7b9190613fca565b905060008260400151118015610c95575060008260800151135b15610d5b57610ca26113f6565b73ffffffffffffffffffffffffffffffffffffffff1663db73bcb3896101e00151846080015160008c60000151868e60800151604051602001610cea96959493929190614006565b6040516020818303038152906040526040518263ffffffff1660e01b8152600401610d159190613718565b610120604051808303816000875af1158015610d35573d6000803e3d6000fd5b505050506040513d601f19601f82011682018060405250810190610d5991906141b2565b505b6000610d6a896060015161161c565b9050610d79896060015161166a565b73ffffffffffffffffffffffffffffffffffffffff1663815585518a60600151610da161167c565b73ffffffffffffffffffffffffffffffffffffffff1663812b2f938d61010001518673ffffffffffffffffffffffffffffffffffffffff1663313ce5676040518163ffffffff1660e01b8152600401602060405180830381865afa158015610e0d573d6000803e3d6000fd5b505050506040513d601f19601f82011682018060405250810190610e3191906141f5565b6040518363ffffffff1660e01b8152600401610e4e929190614231565b602060405180830381865afa158015610e6b573d6000803e3d6000fd5b505050506040513d601f19601f82011682018060405250810190610e8f9190613c76565b6040518363ffffffff1660e01b8152600401610eac92919061425a565b600060405180830381600087803b158015610ec657600080fd5b505af1158015610eda573d6000803e3d6000fd5b505050506000610ee86113f6565b73ffffffffffffffffffffffffffffffffffffffff16636c1a66cb8b6101e001518660c001518d6101000151878f60800151604051602001610f2e959493929190614283565b6040516020818303038152906040526040518263ffffffff1660e01b8152600401610f599190613718565b610120604051808303816000875af1158015610f79573d6000803e3d6000fd5b505050506040513d601f19601f82011682018060405250810190610f9d91906141b2565b9050610fb68a6060015182600001518360200151611684565b610fc08a8a611689565b15610fd957610fd88a6101e001518b608001516116c9565b5b50505050505050505b5050565b600030905090565b6000828285604051602001611005939291906142d6565b60405160208183030381529060405261101d90613bb3565b90509392505050565b6000828260405160200161103b929190614391565b60405160208183030381529060405280519060200120905092915050565b600080611065836116cd565b915091506110716103fd565b73ffffffffffffffffffffffffffffffffffffffff1663a256a1168484846040518463ffffffff1660e01b81526004016110ad939291906143bd565b600060405180830381600087803b1580156110c757600080fd5b505af11580156110db573d6000803e3d6000fd5b50505050505050565b606060006110f3868587610fee565b9050600073ffffffffffffffffffffffffffffffffffffffff168373ffffffffffffffffffffffffffffffffffffffff160361112f575061132a565b600061119261113c61172c565b600301600084815260200190815260200160002060008673ffffffffffffffffffffffffffffffffffffffff1673ffffffffffffffffffffffffffffffffffffffff168152602001908152602001600020611759565b905060006111a0838361177a565b90506000825190508167ffffffffffffffff8111156111c2576111c1612a4d565b5b6040519080825280602002602001820160405280156111fb57816020015b6111e861284c565b8152602001906001900390816111e05790505b509450600080600090505b828110801561121457508382105b156112b057600085828151811061122e5761122d6138be565b5b602002602001015190506112668161124461172c565b60040160008a815260200190815260200160002061180990919063ffffffff16565b156112a25760006112778883611820565b90508089858151811061128d5761128c6138be565b5b60200260200101819052508380600101945050505b818060010192505050611206565b506112b961172c565b600301600086815260200190815260200160002060008873ffffffffffffffffffffffffffffffffffffffff1673ffffffffffffffffffffffffffffffffffffffff16815260200190815260200160002060008082016000808201600061132091906129a8565b5050505050505050505b949350505050565b60007f7fffffffffffffffffffffffffffffffffffffffffffffffffffffffffffffff82111561139957816040517f24775e0600000000000000000000000000000000000000000000000000000000815260040161139091906143f4565b60405180910390fd5b819050919050565b6000808212156113e857816040517fa8ce44320000000000000000000000000000000000000000000000000000000081526004016113df919061440f565b60405180910390fd5b819050919050565b50565b50565b600030905090565b6114066129c9565b61141d84848488611f79909392919063ffffffff16565b905060006114386114318660200151611332565b85856120d8565b90506000611449876060015161161c565b90506000819050600061145a61167c565b73ffffffffffffffffffffffffffffffffffffffff1663812b2f9360008760000151121561149d5761149887600001516114939061442a565b6113a1565b6114ab565b6114aa87600001516113a1565b5b8473ffffffffffffffffffffffffffffffffffffffff1663313ce5676040518163ffffffff1660e01b8152600401602060405180830381865afa1580156114f6573d6000803e3d6000fd5b505050506040513d601f19601f8201168201806040525081019061151a91906141f5565b6040518363ffffffff1660e01b8152600401611537929190614231565b602060405180830381865afa158015611554573d6000803e3d6000fd5b505050506040513d601f19601f820116820180604052508101906115789190613c76565b90506000856000015150506000856060015113156116105761159861167c565b73ffffffffffffffffffffffffffffffffffffffff1663078d3b79848b6101e0015188606001516040518463ffffffff1660e01b81526004016115dd93929190614472565b600060405180830381600087803b1580156115f757600080fd5b505af115801561160b573d6000803e3d6000fd5b505050505b50505050949350505050565b600061162661219f565b60040160008361ffff1661ffff16815260200190815260200160002060009054906101000a900473ffffffffffffffffffffffffffffffffffffffff169050919050565b6000611675826121cc565b9050919050565b600030905090565b505050565b6000600183610220015160ff161415806116ac5750600283610220015160ff1614155b80156116c15750816000015183610100015114155b905092915050565b5050565b60008060006116da6106f3565b90508060020160006116ed866001610720565b8152602001908152602001600020600001549250806002016000611712866000610720565b815260200190815260200160002060000154915050915091565b6000807fbf93ccae7e050fdad00615e220e3f9b7ebb112ac9318fb8604653a7d8091238890508091505090565b606060006117698360000161221a565b905060608190508092505050919050565b6000808251905060005b818110156118015760008482815181106117a1576117a06138be565b5b602002602001015190506117d9816117b761172c565b600401600089815260200190815260200160002061180990919063ffffffff16565b156117ed5783806117e990613a8f565b9450505b5080806117f990613a8f565b915050611784565b505092915050565b60006118188360000183612276565b905092915050565b61182861284c565b61183061172c565b6000016000848152602001908152602001600020600083815260200190815260200160002060405180610300016040529081600082015481526020016001820160009054906101000a90046fffffffffffffffffffffffffffffffff166fffffffffffffffffffffffffffffffff166fffffffffffffffffffffffffffffffff1681526020016001820160109054906101000a90046fffffffffffffffffffffffffffffffff166fffffffffffffffffffffffffffffffff166fffffffffffffffffffffffffffffffff16815260200160028201548152602001600382015481526020016004820160009054906101000a900460ff161515151581526020016004820160019054906101000a900460ff161515151581526020016004820160029054906101000a900460ff161515151581526020016004820160039054906101000a900460ff161515151581526020016004820160049054906101000a900460ff161515151581526020016004820160059054906101000a900467ffffffffffffffff1667ffffffffffffffff1667ffffffffffffffff16815260200160048201600d9054906101000a900467ffffffffffffffff1667ffffffffffffffff1667ffffffffffffffff1681526020016004820160159054906101000a900467ffffffffffffffff1667ffffffffffffffff1667ffffffffffffffff1681526020016005820160009054906101000a900463ffffffff1663ffffffff1663ffffffff1681526020016005820160049054906101000a900460ff1660ff1660ff1681526020016005820160059054906101000a900473ffffffffffffffffffffffffffffffffffffffff1673ffffffffffffffffffffffffffffffffffffffff1673ffffffffffffffffffffffffffffffffffffffff1681526020016006820160009054906101000a90046bffffffffffffffffffffffff166bffffffffffffffffffffffff166bffffffffffffffffffffffff168152602001600782015481526020016008820160009054906101000a900460ff161515151581526020016008820160019054906101000a900460ff161515151581526020016008820160029054906101000a900461ffff1661ffff1661ffff1681526020016008820160049054906101000a90046bffffffffffffffffffffffff166bffffffffffffffffffffffff166bffffffffffffffffffffffff1681526020016008820160109054906101000a90046fffffffffffffffffffffffffffffffff166fffffffffffffffffffffffffffffffff166fffffffffffffffffffffffffffffffff1681526020016009820160009054906101000a900460ff1660ff1660ff168152505090506001611c1861172c565b60020160008581526020019081526020016000206000836101e0015173ffffffffffffffffffffffffffffffffffffffff1673ffffffffffffffffffffffffffffffffffffffff1681526020019081526020016000206000828254611c7d91906144a9565b92505081905550611c8c61172c565b600001600084815260200190815260200160002060008381526020019081526020016000206000808201600090556001820160006101000a8154906fffffffffffffffffffffffffffffffff02191690556001820160106101000a8154906fffffffffffffffffffffffffffffffff0219169055600282016000905560038201600090556004820160006101000a81549060ff02191690556004820160016101000a81549060ff02191690556004820160026101000a81549060ff02191690556004820160036101000a81549060ff02191690556004820160046101000a81549060ff02191690556004820160056101000a81549067ffffffffffffffff021916905560048201600d6101000a81549067ffffffffffffffff02191690556004820160156101000a81549067ffffffffffffffff02191690556005820160006101000a81549063ffffffff02191690556005820160046101000a81549060ff02191690556005820160056101000a81549073ffffffffffffffffffffffffffffffffffffffff02191690556006820160006101000a8154906bffffffffffffffffffffffff021916905560078201600090556008820160006101000a81549060ff02191690556008820160016101000a81549060ff02191690556008820160026101000a81549061ffff02191690556008820160046101000a8154906bffffffffffffffffffffffff02191690556008820160106101000a8154906fffffffffffffffffffffffffffffffff02191690556009820160006101000a81549060ff02191690555050611f0182611edf61172c565b600401600086815260200190815260200160002061229990919063ffffffff16565b50611f7282611f0e61172c565b60030160008681526020019081526020016000206000846101e0015173ffffffffffffffffffffffffffffffffffffffff1673ffffffffffffffffffffffffffffffffffffffff16815260200190815260200160002061229990919063ffffffff16565b5092915050565b611f816129c9565b600080611f8d846122b0565b91509150600080831315611fbf578287602001818151611fad91906144dd565b91508181525050828460800181815250505b82611fcb8888846123ee565b611fd59190613d45565b846000018181525050611ff4611fee8860200151611332565b8761246a565b84602001818152505061200988888884612498565b84604001818152505061201e88888884612596565b84606001818152505087610100015187600001510361206857612040836113a1565b8760200181815161205191906144a9565b915081815250508660200151886101400181815250505b8360400151876020015161207c91906144a9565b8460c00181815250508761010001518760000151146120b65783608001516120a78560c00151611332565b6120b19190613d45565b6120c4565b6120c38760200151611332565b5b8460a0018181525050505050949350505050565b600080826002600c8111156120f0576120ef61388f565b5b60ff1681518110612104576121036138be565b5b6020026020010151905060008486856001600c8111156121275761212661388f565b5b60ff168151811061213b5761213a6138be565b5b602002602001015161214c9061442a565b6121569190614511565b6121609190614511565b905060008213801561217157508082135b15612195576121818160006126a3565b8261218c9190613d45565b92505050612198565b50505b9392505050565b6000807f2eec39e2b6bcfb5f1ee2be0b6e9d5a470a45585b1e2f7f291af9fb9f551763d090508091505090565b60006121d661219f565b60030160008361ffff1661ffff16815260200190815260200160002060009054906101000a900473ffffffffffffffffffffffffffffffffffffffff169050919050565b60608160000180548060200260200160405190810160405280929190818152602001828054801561226a57602002820191906000526020600020905b815481526020019060010190808311612256575b50505050509050919050565b600080836001016000848152602001908152602001600020541415905092915050565b60006122a883600001836126bc565b905092915050565b600060606000836002600c8111156122cb576122ca61388f565b5b60ff16815181106122df576122de6138be565b5b60200260200101519050600081126122fe5760008492509250506123e9565b835167ffffffffffffffff81111561231957612318612a4d565b5b6040519080825280602002602001820160405280156123475781602001602082028036833780820191505090505b50915060005b84518110156123a357848181518110612369576123686138be565b5b6020026020010151838281518110612384576123836138be565b5b602002602001018181525050808061239b90613a8f565b91505061234d565b506000826002600c8111156123bb576123ba61388f565b5b60ff16815181106123cf576123ce6138be565b5b602002602001018181525050806123e59061442a565b9250505b915091565b600080836123ff8660200151611332565b6124099190614511565b90506000831215612446576040517f0d56a7db00000000000000000000000000000000000000000000000000000000815260040160405180910390fd5b60008113156124615761245981846127d0565b915050612463565b505b9392505050565b60008082846124799190614511565b131561248e57816124899061442a565b612490565b825b905092915050565b600080856101000151856000015114905080156124bf578460200151866101400181815250505b600086610220015160ff1611806124d35750805b156124e257600091505061258e565b600083856124f38860200151611332565b6124fd9190614511565b6125079190613d45565b1361251657600091505061258e565b60008385612528896101400151611332565b6125329190614511565b61253c9190613d45565b12156125755761256d83856125548860200151611332565b61255e9190614511565b6125689190613d45565b6113a1565b91505061258e565b856101400151856020015161258a91906144a9565b9150505b949350505050565b600080856101000151856000015114905080156125bd578460200151866101400181815250505b600083856125ce8860200151611332565b6125d89190614511565b6125e29190613d45565b136125f157600091505061269b565b60008385612603896101400151611332565b61260d9190614511565b6126179190613d45565b131561264957828461262d886101400151611332565b6126379190614511565b6126419190613d45565b91505061269b565b6000838561265b896101400151611332565b6126659190614511565b61266f9190613d45565b1361267e57600091505061269b565b8361268d876101400151611332565b6126979190614511565b9150505b949350505050565b60008183136126b257816126b4565b825b905092915050565b600080836001016000848152602001908152602001600020549050600081146127c45760006001826126ee91906144a9565b905060006001866000018054905061270691906144a9565b9050808214612775576000866000018281548110612727576127266138be565b5b906000526020600020015490508087600001848154811061274b5761274a6138be565b5b90600052602060002001819055508387600101600083815260200190815260200160002081905550505b8560000180548061278957612788614555565b5b6001900381819060005260206000200160009055905585600101600086815260200190815260200160002060009055600193505050506127ca565b60009150505b92915050565b60008183126127df57816127e1565b825b905092915050565b6040518061012001604052806000815260200160008152602001600081526020016000815260200160008152602001600015158152602001600063ffffffff168152602001600061ffff168152602001600068ffffffffffffffffff1681525090565b6040518061030001604052806000801916815260200160006fffffffffffffffffffffffffffffffff16815260200160006fffffffffffffffffffffffffffffffff1681526020016000815260200160008152602001600015158152602001600015158152602001600015158152602001600015158152602001600015158152602001600067ffffffffffffffff168152602001600067ffffffffffffffff168152602001600067ffffffffffffffff168152602001600063ffffffff168152602001600060ff168152602001600073ffffffffffffffffffffffffffffffffffffffff16815260200160006bffffffffffffffffffffffff16815260200160008152602001600015158152602001600015158152602001600061ffff16815260200160006bffffffffffffffffffffffff16815260200160006fffffffffffffffffffffffffffffffff168152602001600060ff1681525090565b50805460008255906000526020600020908101906129c69190612a06565b50565b6040518060e00160405280600081526020016000815260200160008152602001600081526020016000815260200160008152602001600081525090565b5b80821115612a1f576000816000905550600101612a07565b5090565b6000604051905090565b600080fd5b600080fd5b600080fd5b6000601f19601f8301169050919050565b7f4e487b7100000000000000000000000000000000000000000000000000000000600052604160045260246000fd5b612a8582612a3c565b810181811067ffffffffffffffff82111715612aa457612aa3612a4d565b5b80604052505050565b6000612ab7612a23565b9050612ac38282612a7c565b919050565b6000819050919050565b612adb81612ac8565b8114612ae657600080fd5b50565b600081359050612af881612ad2565b92915050565b60006fffffffffffffffffffffffffffffffff82169050919050565b612b2381612afe565b8114612b2e57600080fd5b50565b600081359050612b4081612b1a565b92915050565b6000819050919050565b612b5981612b46565b8114612b6457600080fd5b50565b600081359050612b7681612b50565b92915050565b60008115159050919050565b612b9181612b7c565b8114612b9c57600080fd5b50565b600081359050612bae81612b88565b92915050565b600067ffffffffffffffff82169050919050565b612bd181612bb4565b8114612bdc57600080fd5b50565b600081359050612bee81612bc8565b92915050565b600063ffffffff82169050919050565b612c0d81612bf4565b8114612c1857600080fd5b50565b600081359050612c2a81612c04565b92915050565b600060ff82169050919050565b612c4681612c30565b8114612c5157600080fd5b50565b600081359050612c6381612c3d565b92915050565b600073ffffffffffffffffffffffffffffffffffffffff82169050919050565b6000612c9482612c69565b9050919050565b612ca481612c89565b8114612caf57600080fd5b50565b600081359050612cc181612c9b565b92915050565b60006bffffffffffffffffffffffff82169050919050565b612ce881612cc7565b8114612cf357600080fd5b50565b600081359050612d0581612cdf565b92915050565b600061ffff82169050919050565b612d2281612d0b565b8114612d2d57600080fd5b50565b600081359050612d3f81612d19565b92915050565b60006103008284031215612d5c57612d5b612a37565b5b612d67610300612aad565b90506000612d7784828501612ae9565b6000830152506020612d8b84828501612b31565b6020830152506040612d9f84828501612b31565b6040830152506060612db384828501612b67565b6060830152506080612dc784828501612b67565b60808301525060a0612ddb84828501612b9f565b60a08301525060c0612def84828501612b9f565b60c08301525060e0612e0384828501612b9f565b60e083015250610100612e1884828501612b9f565b61010083015250610120612e2e84828501612b9f565b61012083015250610140612e4484828501612bdf565b61014083015250610160612e5a84828501612bdf565b61016083015250610180612e7084828501612bdf565b610180830152506101a0612e8684828501612c1b565b6101a0830152506101c0612e9c84828501612c54565b6101c0830152506101e0612eb284828501612cb2565b6101e083015250610200612ec884828501612cf6565b61020083015250610220612ede84828501612b67565b61022083015250610240612ef484828501612b9f565b61024083015250610260612f0a84828501612b9f565b61026083015250610280612f2084828501612d30565b610280830152506102a0612f3684828501612cf6565b6102a0830152506102c0612f4c84828501612b31565b6102c0830152506102e0612f6284828501612c54565b6102e08301525092915050565b60006103408284031215612f8657612f85612a37565b5b612f91610340612aad565b90506000612fa184828501612b67565b6000830152506020612fb584828501612b67565b6020830152506040612fc984828501612b67565b6040830152506060612fdd84828501612d30565b6060830152506080612ff184828501612b9f565b60808301525060a061300584828501612b9f565b60a08301525060c061301984828501612b9f565b60c08301525060e061302d84828501612b9f565b60e08301525061010061304284828501612b67565b6101008301525061012061305884828501612b67565b6101208301525061014061306e84828501612b67565b6101408301525061016061308484828501612b67565b6101608301525061018061309a84828501612b67565b610180830152506101a06130b084828501612b67565b6101a0830152506101c06130c684828501612bdf565b6101c0830152506101e06130dc84828501612cb2565b6101e0830152506102006130f284828501612b9f565b6102008301525061022061310884828501612c54565b6102208301525061024061311e84828501612bdf565b6102408301525061026061313484828501612ae9565b6102608301525061028061314a84828501612c54565b610280830152506102a061316084828501612b9f565b6102a0830152506102c061317684828501612b9f565b6102c0830152506102e061318c84828501612b9f565b6102e0830152506103006131a284828501612b9f565b610300830152506103206131b884828501612b31565b6103208301525092915050565b60008061064083850312156131dd576131dc612a2d565b5b60006131eb85828601612d45565b9250506103006131fd85828601612f6f565b9150509250929050565b6000806000606084860312156132205761321f612a2d565b5b600061322e86828701612d30565b935050602061323f86828701612cb2565b925050604061325086828701612b9f565b9150509250925092565b600082825260208201905092915050565b7f506f736974696f6e5375624d67723a696e76616c69642069734f70656e000000600082015250565b60006132a1601d8361325a565b91506132ac8261326b565b602082019050919050565b600060208201905081810360008301526132d081613294565b9050919050565b6132e081612b46565b82525050565b6132ef81612d0b565b82525050565b6132fe81612b7c565b82525050565b61330d81612bb4565b82525050565b61331c81612c89565b82525050565b61332b81612c30565b82525050565b61333a81612ac8565b82525050565b61334981612afe565b82525050565b6103408201600082015161336660008501826132d7565b50602082015161337960208501826132d7565b50604082015161338c60408501826132d7565b50606082015161339f60608501826132e6565b5060808201516133b260808501826132f5565b5060a08201516133c560a08501826132f5565b5060c08201516133d860c08501826132f5565b5060e08201516133eb60e08501826132f5565b506101008201516134006101008501826132d7565b506101208201516134156101208501826132d7565b5061014082015161342a6101408501826132d7565b5061016082015161343f6101608501826132d7565b506101808201516134546101808501826132d7565b506101a08201516134696101a08501826132d7565b506101c082015161347e6101c0850182613304565b506101e08201516134936101e0850182613313565b506102008201516134a86102008501826132f5565b506102208201516134bd610220850182613322565b506102408201516134d2610240850182613304565b506102608201516134e7610260850182613331565b506102808201516134fc610280850182613322565b506102a08201516135116102a08501826132f5565b506102c08201516135266102c08501826132f5565b506102e082015161353b6102e08501826132f5565b506103008201516135506103008501826132f5565b50610320820151613565610320850182613340565b50505050565b6000819050919050565b61357e8161356b565b82525050565b61358d81612bf4565b82525050565b600068ffffffffffffffffff82169050919050565b6135b181613593565b82525050565b610120820160008201516135ce60008501826132d7565b5060208201516135e160208501826132d7565b5060408201516135f46040850182613575565b5060608201516136076060850182613575565b50608082015161361a60808501826132d7565b5060a082015161362d60a08501826132f5565b5060c082015161364060c0850182613584565b5060e082015161365360e08501826132e6565b506101008201516136686101008501826135a8565b50505050565b600061046082019050613684600083018561334f565b6136926103408301846135b7565b9392505050565b600081519050919050565b600082825260208201905092915050565b60005b838110156136d35780820151818401526020810190506136b8565b60008484015250505050565b60006136ea82613699565b6136f481856136a4565b93506137048185602086016136b5565b61370d81612a3c565b840191505092915050565b6000602082019050818103600083015261373281846136df565b905092915050565b600080fd5b600067ffffffffffffffff82111561375a57613759612a4d565b5b602082029050602081019050919050565b600080fd5b6137798161356b565b811461378457600080fd5b50565b60008151905061379681613770565b92915050565b60006137af6137aa8461373f565b612aad565b905080838252602082019050602084028301858111156137d2576137d161376b565b5b835b818110156137fb57806137e78882613787565b8452602084019350506020810190506137d4565b5050509392505050565b600082601f83011261381a5761381961373a565b5b815161382a84826020860161379c565b91505092915050565b6000806040838503121561384a57613849612a2d565b5b600083015167ffffffffffffffff81111561386857613867612a32565b5b61387485828601613805565b925050602061388585828601613787565b9150509250929050565b7f4e487b7100000000000000000000000000000000000000000000000000000000600052602160045260246000fd5b7f4e487b7100000000000000000000000000000000000000000000000000000000600052603260045260246000fd5b7f696e76616c6964206f72646572206b6579000000000000000000000000000000600082015250565b600061392360118361325a565b915061392e826138ed565b602082019050919050565b6000602082019050818103600083015261395281613916565b9050919050565b7f506f736974696f6e5375624d67723a216163636f756e74000000000000000000600082015250565b600061398f60178361325a565b915061399a82613959565b602082019050919050565b600060208201905081810360008301526139be81613982565b9050919050565b7f4e487b7100000000000000000000000000000000000000000000000000000000600052601160045260246000fd5b60006139ff82612c30565b9150613a0a83612c30565b9250828201905060ff811115613a2357613a226139c5565b5b92915050565b600081519050919050565b6000613a3f82613a29565b613a49818561325a565b9350613a598185602086016136b5565b613a6281612a3c565b840191505092915050565b60006020820190508181036000830152613a878184613a34565b905092915050565b6000613a9a82612b46565b91507fffffffffffffffffffffffffffffffffffffffffffffffffffffffffffffffff8203613acc57613acb6139c5565b5b600182019050919050565b60008160f81b9050919050565b6000613aef82613ad7565b9050919050565b6000613b0182613ae4565b9050919050565b613b19613b1482612b7c565b613af6565b82525050565b60008160f01b9050919050565b6000613b3782613b1f565b9050919050565b613b4f613b4a82612d0b565b613b2c565b82525050565b6000613b618285613b08565b600182019150613b718284613b3e565b6002820191508190509392505050565b6000819050602082019050919050565b6000613b9d8251612ac8565b80915050919050565b600082821b905092915050565b6000613bbe82613699565b82613bc884613b81565b9050613bd381613b91565b92506020821015613c1357613c0e7fffffffffffffffffffffffffffffffffffffffffffffffffffffffffffffffff83602003600802613ba6565b831692505b5050919050565b613c2381612d0b565b82525050565b613c3281612b7c565b82525050565b6000604082019050613c4d6000830185613c1a565b613c5a6020830184613c29565b9392505050565b600081519050613c7081612b50565b92915050565b600060208284031215613c8c57613c8b612a2d565b5b6000613c9a84828501613c61565b91505092915050565b6000613cae82612b46565b9150613cb983612b46565b9250828202613cc781612b46565b91508282048414831517613cde57613cdd6139c5565b5b5092915050565b7f4e487b7100000000000000000000000000000000000000000000000000000000600052601260045260246000fd5b6000613d1f82612b46565b9150613d2a83612b46565b925082613d3a57613d39613ce5565b5b828204905092915050565b6000613d508261356b565b9150613d5b8361356b565b9250828203905081811260008412168282136000851215161715613d8257613d816139c5565b5b92915050565b6000819050919050565b6000819050919050565b6000613db7613db2613dad84613d88565b613d92565b612c30565b9050919050565b613dc781613d9c565b82525050565b613dd681612b46565b82525050565b6000819050919050565b6000613e01613dfc613df784613ddc565b613d92565b612c30565b9050919050565b613e1181613de6565b82525050565b600060c082019050613e2c6000830189613dbe565b613e396020830188613dcd565b613e466040830187613dcd565b613e536060830186613dcd565b613e606080830185613e08565b613e6d60a0830184613e08565b979650505050505050565b600081519050919050565b600082825260208201905092915050565b6000819050602082019050919050565b6000613eb08383613575565b60208301905092915050565b6000602082019050919050565b6000613ed482613e78565b613ede8185613e83565b9350613ee983613e94565b8060005b83811015613f1a578151613f018882613ea4565b9750613f0c83613ebc565b925050600181019050613eed565b5085935050505092915050565b600061048082019050613f3d600083018661334f565b613f4b6103408301856135b7565b818103610460830152613f5e8184613ec9565b9050949350505050565b613f7181612c89565b82525050565b600060a082019050613f8c6000830188613c1a565b613f996020830187613f68565b613fa66040830186613dcd565b613fb36060830185613dcd565b613fc06080830184613c29565b9695505050505050565b600060208284031215613fe057613fdf612a2d565b5b6000613fee84828501613787565b91505092915050565b6140008161356b565b82525050565b600060c08201905061401b6000830189613f68565b6140286020830188613ff7565b6140356040830187613e08565b6140426060830186613dcd565b61404f6080830185613ff7565b61405c60a0830184613c29565b979650505050505050565b60008151905061407681612b88565b92915050565b60008151905061408b81612c04565b92915050565b6000815190506140a081612d19565b92915050565b6140af81613593565b81146140ba57600080fd5b50565b6000815190506140cc816140a6565b92915050565b600061012082840312156140e9576140e8612a37565b5b6140f4610120612aad565b9050600061410484828501613c61565b600083015250602061411884828501613c61565b602083015250604061412c84828501613787565b604083015250606061414084828501613787565b606083015250608061415484828501613c61565b60808301525060a061416884828501614067565b60a08301525060c061417c8482850161407c565b60c08301525060e061419084828501614091565b60e0830152506101006141a5848285016140bd565b6101008301525092915050565b600061012082840312156141c9576141c8612a2d565b5b60006141d7848285016140d2565b91505092915050565b6000815190506141ef81612c3d565b92915050565b60006020828403121561420b5761420a612a2d565b5b6000614219848285016141e0565b91505092915050565b61422b81612c30565b82525050565b60006040820190506142466000830185613dcd565b6142536020830184614222565b9392505050565b600060408201905061426f6000830185613c1a565b61427c6020830184613dcd565b9392505050565b600060a0820190506142986000830188613f68565b6142a56020830187613dcd565b6142b26040830186613dcd565b6142bf6060830185613ff7565b6142cc6080830184613c29565b9695505050505050565b60006142e28286613b08565b6001820191506142f28285613b08565b6001820191506143028284613b3e565b600282019150819050949350505050565b60008160601b9050919050565b600061432b82614313565b9050919050565b600061433d82614320565b9050919050565b61435561435082612c89565b614332565b82525050565b60008160c01b9050919050565b60006143738261435b565b9050919050565b61438b61438682612bb4565b614368565b82525050565b600061439d8285614344565b6014820191506143ad828461437a565b6008820191508190509392505050565b60006060820190506143d26000830186613c1a565b6143df6020830185613dcd565b6143ec6040830184613dcd565b949350505050565b60006020820190506144096000830184613dcd565b92915050565b60006020820190506144246000830184613ff7565b92915050565b60006144358261356b565b91507f80000000000000000000000000000000000000000000000000000000000000008203614467576144666139c5565b5b816000039050919050565b60006060820190506144876000830186613f68565b6144946020830185613f68565b6144a16040830184613dcd565b949350505050565b60006144b482612b46565b91506144bf83612b46565b92508282039050818111156144d7576144d66139c5565b5b92915050565b60006144e882612b46565b91506144f383612b46565b925082820190508082111561450b5761450a6139c5565b5b92915050565b600061451c8261356b565b91506145278361356b565b92508282019050828112156000831216838212600084121516171561454f5761454e6139c5565b5b92915050565b7f4e487b7100000000000000000000000000000000000000000000000000000000600052603160045260246000fdfea2646970667358221220f7d09d10b762d543e48ea3a53aadda6a496dc74b59a0e20e3a13b06966314dc964736f6c63430008140033",
  "devdoc": {
    "errors": {
      "SafeCastOverflowedIntToUint(int256)": [
        {
          "details": "An int value doesn't fit in an uint of `bits` size."
        }
      ],
      "SafeCastOverflowedUintToInt(uint256)": [
        {
          "details": "An uint value doesn't fit in an int of `bits` size."
        }
      ]
    },
    "kind": "dev",
    "methods": {},
    "version": 1
  },
  "userdoc": {
    "kind": "user",
    "methods": {},
    "version": 1
  },
  "storageLayout": {
    "storage": [],
    "types": null
  }
}