{
  "address": "0xb5957F62186b31D2fA9736047605E51E9B8bb84E",
  "abi": [
    {
      "inputs": [
        {
          "internalType": "address",
          "name": "authority",
          "type": "address"
        }
      ],
      "name": "AccessManagedInvalidAuthority",
      "type": "error"
    },
    {
      "inputs": [
        {
          "internalType": "address",
          "name": "caller",
          "type": "address"
        },
        {
          "internalType": "uint32",
          "name": "delay",
          "type": "uint32"
        }
      ],
      "name": "AccessManagedRequiredDelay",
      "type": "error"
    },
    {
      "inputs": [
        {
          "internalType": "address",
          "name": "caller",
          "type": "address"
        }
      ],
      "name": "AccessManagedUnauthorized",
      "type": "error"
    },
    {
      "inputs": [
        {
          "internalType": "address",
          "name": "target",
          "type": "address"
        }
      ],
      "name": "AddressEmptyCode",
      "type": "error"
    },
    {
      "inputs": [
        {
          "internalType": "address",
          "name": "account",
          "type": "address"
        }
      ],
      "name": "AddressInsufficientBalance",
      "type": "error"
    },
    {
      "inputs": [],
      "name": "FailedInnerCall",
      "type": "error"
    },
    {
      "inputs": [
        {
          "internalType": "int256",
          "name": "value",
          "type": "int256"
        }
      ],
      "name": "SafeCastOverflowedIntToUint",
      "type": "error"
    },
    {
      "inputs": [
        {
          "internalType": "uint256",
          "name": "value",
          "type": "uint256"
        }
      ],
      "name": "SafeCastOverflowedUintToInt",
      "type": "error"
    },
    {
      "inputs": [
        {
          "internalType": "address",
          "name": "token",
          "type": "address"
        }
      ],
      "name": "SafeERC20FailedOperation",
      "type": "error"
    },
    {
      "inputs": [
        {
          "internalType": "int256",
          "name": "fees",
          "type": "int256"
        }
      ],
      "name": "TotalFeesLtZero",
      "type": "error"
    },
    {
      "inputs": [
        {
          "components": [
            {
              "internalType": "bytes32",
              "name": "refCode",
              "type": "bytes32"
            },
            {
              "internalType": "uint128",
              "name": "collateral",
              "type": "uint128"
            },
            {
              "internalType": "uint128",
              "name": "size",
              "type": "uint128"
            },
            {
              "internalType": "uint256",
              "name": "price",
              "type": "uint256"
            },
            {
              "internalType": "uint256",
              "name": "tp",
              "type": "uint256"
            },
            {
              "internalType": "bool",
              "name": "triggerAbove",
              "type": "bool"
            },
            {
              "internalType": "bool",
              "name": "isFromMarket",
              "type": "bool"
            },
            {
              "internalType": "bool",
              "name": "isKeepLev",
              "type": "bool"
            },
            {
              "internalType": "bool",
              "name": "isKeepLevTP",
              "type": "bool"
            },
            {
              "internalType": "bool",
              "name": "isKeepLevSL",
              "type": "bool"
            },
            {
              "internalType": "uint64",
              "name": "orderID",
              "type": "uint64"
            },
            {
              "internalType": "uint64",
              "name": "pairId",
              "type": "uint64"
            },
            {
              "internalType": "uint64",
              "name": "fromId",
              "type": "uint64"
            },
            {
              "internalType": "uint32",
              "name": "updatedAtBlock",
              "type": "uint32"
            },
            {
              "internalType": "uint8",
              "name": "extra0",
              "type": "uint8"
            },
            {
              "internalType": "address",
              "name": "account",
              "type": "address"
            },
            {
              "internalType": "uint96",
              "name": "extra1",
              "type": "uint96"
            },
            {
              "internalType": "uint256",
              "name": "sl",
              "type": "uint256"
            },
            {
              "internalType": "bool",
              "name": "isIncrease",
              "type": "bool"
            },
            {
              "internalType": "bool",
              "name": "isLong",
              "type": "bool"
            },
            {
              "internalType": "uint16",
              "name": "market",
              "type": "uint16"
            },
            {
              "internalType": "uint96",
              "name": "extra2",
              "type": "uint96"
            },
            {
              "internalType": "uint128",
              "name": "gas",
              "type": "uint128"
            },
            {
              "internalType": "uint8",
              "name": "version",
              "type": "uint8"
            }
          ],
          "internalType": "struct OrderProps",
          "name": "order",
          "type": "tuple"
        },
        {
          "components": [
            {
              "internalType": "enum MarketBusinessType",
              "name": "busiType",
              "type": "uint8"
            },
            {
              "internalType": "uint256",
              "name": "oraclePrice",
              "type": "uint256"
            },
            {
              "internalType": "uint256",
              "name": "pay",
              "type": "uint256"
            },
            {
              "internalType": "uint256",
              "name": "slippage",
              "type": "uint256"
            },
            {
              "internalType": "uint16",
              "name": "market",
              "type": "uint16"
            },
            {
              "internalType": "bool",
              "name": "isLong",
              "type": "bool"
            },
            {
              "internalType": "bool",
              "name": "isOpen",
              "type": "bool"
            },
            {
              "internalType": "bool",
              "name": "isCreate",
              "type": "bool"
            },
            {
              "internalType": "bool",
              "name": "isFromMarket",
              "type": "bool"
            },
            {
              "internalType": "uint256",
              "name": "sizeDelta",
              "type": "uint256"
            },
            {
              "internalType": "uint256",
              "name": "price",
              "type": "uint256"
            },
            {
              "internalType": "uint256",
              "name": "collateralDelta",
              "type": "uint256"
            },
            {
              "internalType": "uint256",
              "name": "collateral",
              "type": "uint256"
            },
            {
              "internalType": "uint256",
              "name": "tp",
              "type": "uint256"
            },
            {
              "internalType": "uint256",
              "name": "sl",
              "type": "uint256"
            },
            {
              "internalType": "uint64",
              "name": "orderId",
              "type": "uint64"
            },
            {
              "internalType": "address",
              "name": "account",
              "type": "address"
            },
            {
              "internalType": "bool",
              "name": "isExec",
              "type": "bool"
            },
            {
              "internalType": "enum LiquidationState",
              "name": "liqState",
              "type": "uint8"
            },
            {
              "internalType": "uint64",
              "name": "fromOrder",
              "type": "uint64"
            },
            {
              "internalType": "bytes32",
              "name": "refCode",
              "type": "bytes32"
            },
            {
              "internalType": "uint8",
              "name": "execNum",
              "type": "uint8"
            },
            {
              "internalType": "bool",
              "name": "isKeepLev",
              "type": "bool"
            },
            {
              "internalType": "bool",
              "name": "isKeepLevTP",
              "type": "bool"
            },
            {
              "internalType": "bool",
              "name": "isKeepLevSL",
              "type": "bool"
            },
            {
              "internalType": "bool",
              "name": "triggerAbove",
              "type": "bool"
            },
            {
              "internalType": "uint128",
              "name": "gas",
              "type": "uint128"
            }
          ],
          "internalType": "struct MarketCache",
          "name": "_params",
          "type": "tuple"
        }
      ],
      "name": "execSubOrder",
      "outputs": [],
      "stateMutability": "nonpayable",
      "type": "function"
    },
    {
      "inputs": [
        {
          "internalType": "uint16",
          "name": "market",
          "type": "uint16"
        },
        {
          "internalType": "address",
          "name": "accounts",
          "type": "address"
        },
        {
          "internalType": "bool",
          "name": "_isLong",
          "type": "bool"
        }
      ],
      "name": "liquidate",
      "outputs": [],
      "stateMutability": "nonpayable",
      "type": "function"
    }
  ],
  "transactionHash": "0xbeaee4ec2c39e9820ea8d82837252509c7f663e72fc62294f031fb388780aad5",
  "args": [],
  "numDeployments": 3,
  "solcInputHash": "b09ed9757b62f343008692714e77e5d5",
  "bytecode": "0x608060405234801561001057600080fd5b50614b60806100206000396000f3fe608060405234801561001057600080fd5b50600436106100365760003560e01c80634dee5f261461003b578063fe0e467e14610057575b600080fd5b6100556004803603810190610050919061331f565b610073565b005b610071600480360381019061006c9190613361565b6103ad565b005b61008581608001518260a001516103b2565b81602001818152505060006100ad8260800151846101e0015184602001518560a00151610440565b90506000806100ba610588565b73ffffffffffffffffffffffffffffffffffffffff16632ba88be985856040516020016100e892919061381f565b6040516020818303038152906040526040518263ffffffff1660e01b815260040161011391906138c9565b600060405180830381865afa158015610130573d6000803e3d6000fd5b505050506040513d6000823e3d601f19601f8201168201806040525081019061015991906139e4565b91509150600085604001516fffffffffffffffffffffffffffffffff1611156101b5576101aa8560e00151846000015187604001516fffffffffffffffffffffffffffffffff168660200151610590565b846101600181815250505b6101be856105c3565b600015158460c00151151514610209576040517f08c379a000000000000000000000000000000000000000000000000000000000815260040161020090613a9d565b60405180910390fd5b61024a846080015182846004600c811115610227576102266133b4565b5b60ff168151811061023b5761023a613abd565b5b6020026020010151600161068c565b506000610255610696565b73ffffffffffffffffffffffffffffffffffffffff16638114baa886610200015187608001518860c001518a61014001518a60a001516040518663ffffffff1660e01b81526004016102ab959493929190613b54565b6000604051808303816000875af11580156102ca573d6000803e3d6000fd5b505050506040513d6000823e3d601f19601f820116820180604052508101906102f39190613f68565b905060005b815181101561039a57600082828151811061031657610315613abd565b5b60200260200101519050806101e0015173ffffffffffffffffffffffffffffffffffffffff16600073ffffffffffffffffffffffffffffffffffffffff160361035f575061038d565b6000820361038b576001876102a00181815161037b9190613fe0565b91509060ff16908160ff16815250505b505b80806001019150506102f8565b506103a5858561069e565b505050505050565b505050565b60006103bc610cfa565b73ffffffffffffffffffffffffffffffffffffffff1663db6112258484156040518363ffffffff1660e01b81526004016103f7929190614015565b602060405180830381865afa158015610414573d6000803e3d6000fd5b505050506040513d601f19601f82011682018060405250810190610438919061403e565b905092915050565b6104486128e3565b610450610d02565b600001600061045f8785610d2f565b815260200190815260200160002060008573ffffffffffffffffffffffffffffffffffffffff1673ffffffffffffffffffffffffffffffffffffffff1681526020019081526020016000206040518061012001604052908160008201548152602001600182015481526020016002820154815260200160038201548152602001600482015481526020016005820160009054906101000a900460ff161515151581526020016005820160019054906101000a900463ffffffff1663ffffffff1663ffffffff1681526020016005820160059054906101000a900461ffff1661ffff1661ffff1681526020016005820160079054906101000a900468ffffffffffffffffff1668ffffffffffffffffff1668ffffffffffffffffff16815250509050949350505050565b600030905090565b600084156105b6578383836105a5919061406b565b6105af91906140dc565b90506105bb565b600090505b949350505050565b600073ffffffffffffffffffffffffffffffffffffffff16816101e0015173ffffffffffffffffffffffffffffffffffffffff1603610637576040517f08c379a000000000000000000000000000000000000000000000000000000000815260040161062e90614159565b60405180910390fd5b600081610140015167ffffffffffffffff1603610689576040517f08c379a000000000000000000000000000000000000000000000000000000000815260040161068090614159565b60405180910390fd5b50565b6000949350505050565b600030905090565b6000816000015114806106e25750600073ffffffffffffffffffffffffffffffffffffffff1682610200015173ffffffffffffffffffffffffffffffffffffffff16145b610cf6576106f38260800151610d64565b60008261012001518260000151149050801561083d5760006002905060016002811115610723576107226133b4565b5b846102400151600281111561073b5761073a6133b4565b5b03610749576001905061077f565b60028081111561075c5761075b6133b4565b5b8461024001516002811115610774576107736133b4565b5b0361077e57600790505b5b600061079b856080015160008760a00151886102000151610def565b905060005b81518110156108395760008282815181106107be576107bd613abd565b5b60200260200101519050600073ffffffffffffffffffffffffffffffffffffffff16816101e0015173ffffffffffffffffffffffffffffffffffffffff1603610807575061082c565b6001876102a00181815161081b9190613fe0565b91509060ff16908160ff1681525050505b80806001019150506107a0565b5050505b600080610848610588565b73ffffffffffffffffffffffffffffffffffffffff16632ba88be9868660405160200161087692919061381f565b6040516020818303038152906040526040518263ffffffff1660e01b81526004016108a191906138c9565b600060405180830381865afa1580156108be573d6000803e3d6000fd5b505050506040513d6000823e3d601f19601f820116820180604052508101906108e791906139e4565b915091506000856101200151036109355760008082131561090c57846020015161092d565b61092c8261091d876020015161103d565b6109279190614179565b6110ac565b5b905050610936565b5b60008086610120015111156109e75761094d6110fb565b73ffffffffffffffffffffffffffffffffffffffff16637370cf1c87608001518861020001518961012001518a602001518b60a001516040518663ffffffff1660e01b81526004016109a39594939291906141cb565b602060405180830381865afa1580156109c0573d6000803e3d6000fd5b505050506040513d601f19601f820116820180604052508101906109e4919061421e565b90505b8085606001818152505060006109ff87878487611103565b90506000610a0b610588565b73ffffffffffffffffffffffffffffffffffffffff166370802dac89608001518a60a001516040518363ffffffff1660e01b8152600401610a4d929190614015565b602060405180830381865afa158015610a6a573d6000803e3d6000fd5b505050506040513d601f19601f82011682018060405250810190610a8e919061421e565b905060008260400151118015610aa8575060008260800151135b15610b6e57610ab56110fb565b73ffffffffffffffffffffffffffffffffffffffff1663db73bcb3896102000151846080015160008c60200151868e60a00151604051602001610afd96959493929190614295565b6040516020818303038152906040526040518263ffffffff1660e01b8152600401610b2891906138c9565b610120604051808303816000875af1158015610b48573d6000803e3d6000fd5b505050506040513d601f19601f82011682018060405250810190610b6c9190614402565b505b6000610b7d89608001516111c9565b9050610b8c8960800151611217565b73ffffffffffffffffffffffffffffffffffffffff1663815585518a60800151610bbb8c610120015185611229565b6040518363ffffffff1660e01b8152600401610bd8929190614430565b600060405180830381600087803b158015610bf257600080fd5b505af1158015610c06573d6000803e3d6000fd5b505050506000610c146110fb565b73ffffffffffffffffffffffffffffffffffffffff16636c1a66cb8b61020001518660c001518d6101200151878f60a00151604051602001610c5a959493929190614459565b6040516020818303038152906040526040518263ffffffff1660e01b8152600401610c8591906138c9565b610120604051808303816000875af1158015610ca5573d6000803e3d6000fd5b505050506040513d601f19601f82011682018060405250810190610cc99190614402565b9050610ce28a60800151826000015183602001516112d9565b610cec8a8a6113fa565b5050505050505050505b5050565b600030905090565b6000807f92bcfabaf0a890def3092675474357e5f93a0f117ca63a3db421d44c5b55fba590508091505090565b60008183604051602001610d4492919061452a565b604051602081830303815290604052610d5c90614588565b905092915050565b600080610d708361147b565b91509150610d7c610588565b73ffffffffffffffffffffffffffffffffffffffff1663a256a1168484846040518463ffffffff1660e01b8152600401610db8939291906145ef565b600060405180830381600087803b158015610dd257600080fd5b505af1158015610de6573d6000803e3d6000fd5b50505050505050565b60606000610dfe8685876114da565b9050600073ffffffffffffffffffffffffffffffffffffffff168373ffffffffffffffffffffffffffffffffffffffff1603610e3a5750611035565b6000610e9d610e47611512565b600301600084815260200190815260200160002060008673ffffffffffffffffffffffffffffffffffffffff1673ffffffffffffffffffffffffffffffffffffffff16815260200190815260200160002061153f565b90506000610eab8383611560565b90506000825190508167ffffffffffffffff811115610ecd57610ecc612b47565b5b604051908082528060200260200182016040528015610f0657816020015b610ef3612946565b815260200190600190039081610eeb5790505b509450600080600090505b8281108015610f1f57508382105b15610fbb576000858281518110610f3957610f38613abd565b5b60200260200101519050610f7181610f4f611512565b60040160008a81526020019081526020016000206115e990919063ffffffff16565b15610fad576000610f828883611600565b905080898581518110610f9857610f97613abd565b5b60200260200101819052508380600101945050505b818060010192505050610f11565b50610fc4611512565b600301600086815260200190815260200160002060008873ffffffffffffffffffffffffffffffffffffffff1673ffffffffffffffffffffffffffffffffffffffff16815260200190815260200160002060008082016000808201600061102b9190612aa2565b5050505050505050505b949350505050565b60007f7fffffffffffffffffffffffffffffffffffffffffffffffffffffffffffffff8211156110a457816040517f24775e0600000000000000000000000000000000000000000000000000000000815260040161109b9190614626565b60405180910390fd5b819050919050565b6000808212156110f357816040517fa8ce44320000000000000000000000000000000000000000000000000000000081526004016110ea9190614641565b60405180910390fd5b819050919050565b600030905090565b61110b612ac3565b61112284848488611d59909392919063ffffffff16565b9050600061113d611136866020015161103d565b8585611eb8565b9050600061114e87608001516111c9565b9050600061119160008560000151121561117d5761117885600001516111739061465c565b6110ac565b61118b565b61118a85600001516110ac565b5b83611229565b90506000846000015150506000846060015113156111be576111bd828961020001518660600151611f7f565b5b505050949350505050565b60006111d3611fa5565b60030160008361ffff1661ffff16815260200190815260200160002060009054906101000a900473ffffffffffffffffffffffffffffffffffffffff169050919050565b600061122282611fd2565b9050919050565b6000808273ffffffffffffffffffffffffffffffffffffffff1663313ce5676040518163ffffffff1660e01b8152600401602060405180830381865afa158015611277573d6000803e3d6000fd5b505050506040513d601f19601f8201168201806040525081019061129b91906146a4565b90506012600a6112ab9190614804565b8160ff16600a6112bb919061484f565b856112c6919061406b565b6112d091906140dc565b91505092915050565b60008214806112e85750600081145b6113f557600081836112fa91906140dc565b90506000611306611fa5565b90508060000160008661ffff1661ffff168152602001908152602001600020600001600a9054906101000a900461ffff1661ffff1682111561137d576040517f08c379a0000000000000000000000000000000000000000000000000000000008152600401611374906148e6565b60405180910390fd5b8060000160008661ffff1661ffff16815260200190815260200160002060000160089054906101000a900461ffff1661ffff168210156113f2576040517f08c379a00000000000000000000000000000000000000000000000000000000081526004016113e9906148e6565b60405180910390fd5b50505b505050565b6000600160028111156114105761140f6133b4565b5b8361024001516002811115611428576114276133b4565b5b14158061145e5750600280811115611443576114426133b4565b5b836102400151600281111561145b5761145a6133b4565b5b14155b80156114735750816000015183610120015114155b905092915050565b6000806000611488610d02565b905080600201600061149b866001610d2f565b81526020019081526020016000206000015492508060020160006114c0866000610d2f565b815260200190815260200160002060000154915050915091565b60008282856040516020016114f193929190614906565b60405160208183030381529060405261150990614588565b90509392505050565b6000807fbf93ccae7e050fdad00615e220e3f9b7ebb112ac9318fb8604653a7d8091238890508091505090565b6060600061154f83600001612020565b905060608190508092505050919050565b6000808251905060005b818110156115e157600084828151811061158757611586613abd565b5b602002602001015190506115bf8161159d611512565b60040160008981526020019081526020016000206115e990919063ffffffff16565b156115d35783806115cf90614943565b9450505b50808060010191505061156a565b505092915050565b60006115f8836000018361207c565b905092915050565b611608612946565b611610611512565b6000016000848152602001908152602001600020600083815260200190815260200160002060405180610300016040529081600082015481526020016001820160009054906101000a90046fffffffffffffffffffffffffffffffff166fffffffffffffffffffffffffffffffff166fffffffffffffffffffffffffffffffff1681526020016001820160109054906101000a90046fffffffffffffffffffffffffffffffff166fffffffffffffffffffffffffffffffff166fffffffffffffffffffffffffffffffff16815260200160028201548152602001600382015481526020016004820160009054906101000a900460ff161515151581526020016004820160019054906101000a900460ff161515151581526020016004820160029054906101000a900460ff161515151581526020016004820160039054906101000a900460ff161515151581526020016004820160049054906101000a900460ff161515151581526020016004820160059054906101000a900467ffffffffffffffff1667ffffffffffffffff1667ffffffffffffffff16815260200160048201600d9054906101000a900467ffffffffffffffff1667ffffffffffffffff1667ffffffffffffffff1681526020016004820160159054906101000a900467ffffffffffffffff1667ffffffffffffffff1667ffffffffffffffff1681526020016005820160009054906101000a900463ffffffff1663ffffffff1663ffffffff1681526020016005820160049054906101000a900460ff1660ff1660ff1681526020016005820160059054906101000a900473ffffffffffffffffffffffffffffffffffffffff1673ffffffffffffffffffffffffffffffffffffffff1673ffffffffffffffffffffffffffffffffffffffff1681526020016006820160009054906101000a90046bffffffffffffffffffffffff166bffffffffffffffffffffffff166bffffffffffffffffffffffff168152602001600782015481526020016008820160009054906101000a900460ff161515151581526020016008820160019054906101000a900460ff161515151581526020016008820160029054906101000a900461ffff1661ffff1661ffff1681526020016008820160049054906101000a90046bffffffffffffffffffffffff166bffffffffffffffffffffffff166bffffffffffffffffffffffff1681526020016008820160109054906101000a90046fffffffffffffffffffffffffffffffff166fffffffffffffffffffffffffffffffff166fffffffffffffffffffffffffffffffff1681526020016009820160009054906101000a900460ff1660ff1660ff1681525050905060016119f8611512565b60020160008581526020019081526020016000206000836101e0015173ffffffffffffffffffffffffffffffffffffffff1673ffffffffffffffffffffffffffffffffffffffff1681526020019081526020016000206000828254611a5d919061498b565b92505081905550611a6c611512565b600001600084815260200190815260200160002060008381526020019081526020016000206000808201600090556001820160006101000a8154906fffffffffffffffffffffffffffffffff02191690556001820160106101000a8154906fffffffffffffffffffffffffffffffff0219169055600282016000905560038201600090556004820160006101000a81549060ff02191690556004820160016101000a81549060ff02191690556004820160026101000a81549060ff02191690556004820160036101000a81549060ff02191690556004820160046101000a81549060ff02191690556004820160056101000a81549067ffffffffffffffff021916905560048201600d6101000a81549067ffffffffffffffff02191690556004820160156101000a81549067ffffffffffffffff02191690556005820160006101000a81549063ffffffff02191690556005820160046101000a81549060ff02191690556005820160056101000a81549073ffffffffffffffffffffffffffffffffffffffff02191690556006820160006101000a8154906bffffffffffffffffffffffff021916905560078201600090556008820160006101000a81549060ff02191690556008820160016101000a81549060ff02191690556008820160026101000a81549061ffff02191690556008820160046101000a8154906bffffffffffffffffffffffff02191690556008820160106101000a8154906fffffffffffffffffffffffffffffffff02191690556009820160006101000a81549060ff02191690555050611ce182611cbf611512565b600401600086815260200190815260200160002061209f90919063ffffffff16565b50611d5282611cee611512565b60030160008681526020019081526020016000206000846101e0015173ffffffffffffffffffffffffffffffffffffffff1673ffffffffffffffffffffffffffffffffffffffff16815260200190815260200160002061209f90919063ffffffff16565b5092915050565b611d61612ac3565b600080611d6d846120b6565b91509150600080831315611d9f578287602001818151611d8d91906149bf565b91508181525050828460800181815250505b82611dab8888846121ee565b611db59190614179565b846000018181525050611dd4611dce886020015161103d565b87612275565b846020018181525050611de9888888846122a3565b846040018181525050611dfe888888846123c3565b846060018181525050876101200151876000015103611e4857611e20836110ac565b87602001818151611e31919061498b565b915081815250508660200151886101600181815250505b83604001518760200151611e5c919061498b565b8460c0018181525050876101200151876000015114611e96578360800151611e878560c0015161103d565b611e919190614179565b611ea4565b611ea3876020015161103d565b5b8460a0018181525050505050949350505050565b600080826002600c811115611ed057611ecf6133b4565b5b60ff1681518110611ee457611ee3613abd565b5b6020026020010151905060008486856001600c811115611f0757611f066133b4565b5b60ff1681518110611f1b57611f1a613abd565b5b6020026020010151611f2c9061465c565b611f3691906149f3565b611f4091906149f3565b9050600082138015611f5157508082135b15611f7557611f618160006124d0565b82611f6c9190614179565b92505050611f78565b50505b9392505050565b6000810315611fa057611f928184611229565b9050611f9f8383836124e9565b5b505050565b6000807f2eec39e2b6bcfb5f1ee2be0b6e9d5a470a45585b1e2f7f291af9fb9f551763d090508091505090565b6000611fdc611fa5565b60020160008361ffff1661ffff16815260200190815260200160002060009054906101000a900473ffffffffffffffffffffffffffffffffffffffff169050919050565b60608160000180548060200260200160405190810160405280929190818152602001828054801561207057602002820191906000526020600020905b81548152602001906001019080831161205c575b50505050509050919050565b600080836001016000848152602001908152602001600020541415905092915050565b60006120ae8360000183612568565b905092915050565b600060606000836002600c8111156120d1576120d06133b4565b5b60ff16815181106120e5576120e4613abd565b5b60200260200101519050600081126121045760008492509250506121e9565b835167ffffffffffffffff81111561211f5761211e612b47565b5b60405190808252806020026020018201604052801561214d5781602001602082028036833780820191505090505b50915060005b84518110156121a35784818151811061216f5761216e613abd565b5b602002602001015183828151811061218a57612189613abd565b5b6020026020010181815250508080600101915050612153565b506000826002600c8111156121bb576121ba6133b4565b5b60ff16815181106121cf576121ce613abd565b5b602002602001018181525050806121e59061465c565b9250505b915091565b600080836121ff866020015161103d565b61220991906149f3565b9050600083121561225157826040517fcf36c5090000000000000000000000000000000000000000000000000000000081526004016122489190614641565b60405180910390fd5b600081131561226c57612264818461267c565b91505061226e565b505b9392505050565b600080828461228491906149f3565b131561229957816122949061465c565b61229b565b825b905092915050565b600080856101200151856000015114905080156122ca578460200151866101600181815250505b600060028111156122de576122dd6133b4565b5b86610240015160028111156122f6576122f56133b4565b5b1415806123005750805b1561230f5760009150506123bb565b60008385612320886020015161103d565b61232a91906149f3565b6123349190614179565b136123435760009150506123bb565b6000838561235589610160015161103d565b61235f91906149f3565b6123699190614179565b12156123a25761239a8385612381886020015161103d565b61238b91906149f3565b6123959190614179565b6110ac565b9150506123bb565b85610160015185602001516123b7919061498b565b9150505b949350505050565b600080856101200151856000015114905080156123ea578460200151866101600181815250505b600083856123fb886020015161103d565b61240591906149f3565b61240f9190614179565b1361241e5760009150506124c8565b6000838561243089610160015161103d565b61243a91906149f3565b6124449190614179565b131561247657828461245a88610160015161103d565b61246491906149f3565b61246e9190614179565b9150506124c8565b6000838561248889610160015161103d565b61249291906149f3565b61249c9190614179565b136124ab5760009150506124c8565b836124ba87610160015161103d565b6124c491906149f3565b9150505b949350505050565b60008183136124df57816124e1565b825b905092915050565b612563838473ffffffffffffffffffffffffffffffffffffffff1663a9059cbb858560405160240161251c929190614a37565b604051602081830303815290604052915060e01b6020820180517bffffffffffffffffffffffffffffffffffffffffffffffffffffffff8381831617835250505050612695565b505050565b6000808360010160008481526020019081526020016000205490506000811461267057600060018261259a919061498b565b90506000600186600001805490506125b2919061498b565b90508082146126215760008660000182815481106125d3576125d2613abd565b5b90600052602060002001549050808760000184815481106125f7576125f6613abd565b5b90600052602060002001819055508387600101600083815260200190815260200160002081905550505b8560000180548061263557612634614a60565b5b600190038181906000526020600020016000905590558560010160008681526020019081526020016000206000905560019350505050612676565b60009150505b92915050565b600081831261268b578161268d565b825b905092915050565b60006126c0828473ffffffffffffffffffffffffffffffffffffffff1661272c90919063ffffffff16565b905060008151141580156126e55750808060200190518101906126e39190614a8f565b155b1561272757826040517f5274afe700000000000000000000000000000000000000000000000000000000815260040161271e9190614abc565b60405180910390fd5b505050565b606061273a83836000612742565b905092915050565b60608147101561278957306040517fcd7860590000000000000000000000000000000000000000000000000000000081526004016127809190614abc565b60405180910390fd5b6000808573ffffffffffffffffffffffffffffffffffffffff1684866040516127b29190614b13565b60006040518083038185875af1925050503d80600081146127ef576040519150601f19603f3d011682016040523d82523d6000602084013e6127f4565b606091505b509150915061280486838361280f565b925050509392505050565b6060826128245761281f8261289e565b612896565b6000825114801561284c575060008473ffffffffffffffffffffffffffffffffffffffff163b145b1561288e57836040517f9996b3150000000000000000000000000000000000000000000000000000000081526004016128859190614abc565b60405180910390fd5b819050612897565b5b9392505050565b6000815111156128b15780518082602001fd5b6040517f1425ea4200000000000000000000000000000000000000000000000000000000815260040160405180910390fd5b6040518061012001604052806000815260200160008152602001600081526020016000815260200160008152602001600015158152602001600063ffffffff168152602001600061ffff168152602001600068ffffffffffffffffff1681525090565b6040518061030001604052806000801916815260200160006fffffffffffffffffffffffffffffffff16815260200160006fffffffffffffffffffffffffffffffff1681526020016000815260200160008152602001600015158152602001600015158152602001600015158152602001600015158152602001600015158152602001600067ffffffffffffffff168152602001600067ffffffffffffffff168152602001600067ffffffffffffffff168152602001600063ffffffff168152602001600060ff168152602001600073ffffffffffffffffffffffffffffffffffffffff16815260200160006bffffffffffffffffffffffff16815260200160008152602001600015158152602001600015158152602001600061ffff16815260200160006bffffffffffffffffffffffff16815260200160006fffffffffffffffffffffffffffffffff168152602001600060ff1681525090565b5080546000825590600052602060002090810190612ac09190612b00565b50565b6040518060e00160405280600081526020016000815260200160008152602001600081526020016000815260200160008152602001600081525090565b5b80821115612b19576000816000905550600101612b01565b5090565b6000604051905090565b600080fd5b600080fd5b600080fd5b6000601f19601f8301169050919050565b7f4e487b7100000000000000000000000000000000000000000000000000000000600052604160045260246000fd5b612b7f82612b36565b810181811067ffffffffffffffff82111715612b9e57612b9d612b47565b5b80604052505050565b6000612bb1612b1d565b9050612bbd8282612b76565b919050565b6000819050919050565b612bd581612bc2565b8114612be057600080fd5b50565b600081359050612bf281612bcc565b92915050565b60006fffffffffffffffffffffffffffffffff82169050919050565b612c1d81612bf8565b8114612c2857600080fd5b50565b600081359050612c3a81612c14565b92915050565b6000819050919050565b612c5381612c40565b8114612c5e57600080fd5b50565b600081359050612c7081612c4a565b92915050565b60008115159050919050565b612c8b81612c76565b8114612c9657600080fd5b50565b600081359050612ca881612c82565b92915050565b600067ffffffffffffffff82169050919050565b612ccb81612cae565b8114612cd657600080fd5b50565b600081359050612ce881612cc2565b92915050565b600063ffffffff82169050919050565b612d0781612cee565b8114612d1257600080fd5b50565b600081359050612d2481612cfe565b92915050565b600060ff82169050919050565b612d4081612d2a565b8114612d4b57600080fd5b50565b600081359050612d5d81612d37565b92915050565b600073ffffffffffffffffffffffffffffffffffffffff82169050919050565b6000612d8e82612d63565b9050919050565b612d9e81612d83565b8114612da957600080fd5b50565b600081359050612dbb81612d95565b92915050565b60006bffffffffffffffffffffffff82169050919050565b612de281612dc1565b8114612ded57600080fd5b50565b600081359050612dff81612dd9565b92915050565b600061ffff82169050919050565b612e1c81612e05565b8114612e2757600080fd5b50565b600081359050612e3981612e13565b92915050565b60006103008284031215612e5657612e55612b31565b5b612e61610300612ba7565b90506000612e7184828501612be3565b6000830152506020612e8584828501612c2b565b6020830152506040612e9984828501612c2b565b6040830152506060612ead84828501612c61565b6060830152506080612ec184828501612c61565b60808301525060a0612ed584828501612c99565b60a08301525060c0612ee984828501612c99565b60c08301525060e0612efd84828501612c99565b60e083015250610100612f1284828501612c99565b61010083015250610120612f2884828501612c99565b61012083015250610140612f3e84828501612cd9565b61014083015250610160612f5484828501612cd9565b61016083015250610180612f6a84828501612cd9565b610180830152506101a0612f8084828501612d15565b6101a0830152506101c0612f9684828501612d4e565b6101c0830152506101e0612fac84828501612dac565b6101e083015250610200612fc284828501612df0565b61020083015250610220612fd884828501612c61565b61022083015250610240612fee84828501612c99565b6102408301525061026061300484828501612c99565b6102608301525061028061301a84828501612e2a565b610280830152506102a061303084828501612df0565b6102a0830152506102c061304684828501612c2b565b6102c0830152506102e061305c84828501612d4e565b6102e08301525092915050565b6005811061307657600080fd5b50565b60008135905061308881613069565b92915050565b6003811061309b57600080fd5b50565b6000813590506130ad8161308e565b92915050565b600061036082840312156130ca576130c9612b31565b5b6130d5610360612ba7565b905060006130e584828501613079565b60008301525060206130f984828501612c61565b602083015250604061310d84828501612c61565b604083015250606061312184828501612c61565b606083015250608061313584828501612e2a565b60808301525060a061314984828501612c99565b60a08301525060c061315d84828501612c99565b60c08301525060e061317184828501612c99565b60e08301525061010061318684828501612c99565b6101008301525061012061319c84828501612c61565b610120830152506101406131b284828501612c61565b610140830152506101606131c884828501612c61565b610160830152506101806131de84828501612c61565b610180830152506101a06131f484828501612c61565b6101a0830152506101c061320a84828501612c61565b6101c0830152506101e061322084828501612cd9565b6101e08301525061020061323684828501612dac565b6102008301525061022061324c84828501612c99565b610220830152506102406132628482850161309e565b6102408301525061026061327884828501612cd9565b6102608301525061028061328e84828501612be3565b610280830152506102a06132a484828501612d4e565b6102a0830152506102c06132ba84828501612c99565b6102c0830152506102e06132d084828501612c99565b6102e0830152506103006132e684828501612c99565b610300830152506103206132fc84828501612c99565b6103208301525061034061331284828501612c2b565b6103408301525092915050565b600080610660838503121561333757613336612b27565b5b600061334585828601612e3f565b925050610300613357858286016130b3565b9150509250929050565b60008060006060848603121561337a57613379612b27565b5b600061338886828701612e2a565b935050602061339986828701612dac565b92505060406133aa86828701612c99565b9150509250925092565b7f4e487b7100000000000000000000000000000000000000000000000000000000600052602160045260246000fd5b600581106133f4576133f36133b4565b5b50565b6000819050613405826133e3565b919050565b6000613415826133f7565b9050919050565b6134258161340a565b82525050565b61343481612c40565b82525050565b61344381612e05565b82525050565b61345281612c76565b82525050565b61346181612cae565b82525050565b61347081612d83565b82525050565b60038110613487576134866133b4565b5b50565b600081905061349882613476565b919050565b60006134a88261348a565b9050919050565b6134b88161349d565b82525050565b6134c781612bc2565b82525050565b6134d681612d2a565b82525050565b6134e581612bf8565b82525050565b61036082016000820151613502600085018261341c565b506020820151613515602085018261342b565b506040820151613528604085018261342b565b50606082015161353b606085018261342b565b50608082015161354e608085018261343a565b5060a082015161356160a0850182613449565b5060c082015161357460c0850182613449565b5060e082015161358760e0850182613449565b5061010082015161359c610100850182613449565b506101208201516135b161012085018261342b565b506101408201516135c661014085018261342b565b506101608201516135db61016085018261342b565b506101808201516135f061018085018261342b565b506101a08201516136056101a085018261342b565b506101c082015161361a6101c085018261342b565b506101e082015161362f6101e0850182613458565b50610200820151613644610200850182613467565b50610220820151613659610220850182613449565b5061024082015161366e6102408501826134af565b50610260820151613683610260850182613458565b506102808201516136986102808501826134be565b506102a08201516136ad6102a08501826134cd565b506102c08201516136c26102c0850182613449565b506102e08201516136d76102e0850182613449565b506103008201516136ec610300850182613449565b50610320820151613701610320850182613449565b506103408201516137166103408501826134dc565b50505050565b6000819050919050565b61372f8161371c565b82525050565b61373e81612cee565b82525050565b600068ffffffffffffffffff82169050919050565b61376281613744565b82525050565b6101208201600082015161377f600085018261342b565b506020820151613792602085018261342b565b5060408201516137a56040850182613726565b5060608201516137b86060850182613726565b5060808201516137cb608085018261342b565b5060a08201516137de60a0850182613449565b5060c08201516137f160c0850182613735565b5060e082015161380460e085018261343a565b50610100820151613819610100850182613759565b50505050565b60006104808201905061383560008301856134eb565b613843610360830184613768565b9392505050565b600081519050919050565b600082825260208201905092915050565b60005b83811015613884578082015181840152602081019050613869565b60008484015250505050565b600061389b8261384a565b6138a58185613855565b93506138b5818560208601613866565b6138be81612b36565b840191505092915050565b600060208201905081810360008301526138e38184613890565b905092915050565b600080fd5b600067ffffffffffffffff82111561390b5761390a612b47565b5b602082029050602081019050919050565b600080fd5b61392a8161371c565b811461393557600080fd5b50565b60008151905061394781613921565b92915050565b600061396061395b846138f0565b612ba7565b905080838252602082019050602084028301858111156139835761398261391c565b5b835b818110156139ac57806139988882613938565b845260208401935050602081019050613985565b5050509392505050565b600082601f8301126139cb576139ca6138eb565b5b81516139db84826020860161394d565b91505092915050565b600080604083850312156139fb576139fa612b27565b5b600083015167ffffffffffffffff811115613a1957613a18612b2c565b5b613a25858286016139b6565b9250506020613a3685828601613938565b9150509250929050565b600082825260208201905092915050565b7f506f736974696f6e5375624d67723a696e76616c69642069734f70656e000000600082015250565b6000613a87601d83613a40565b9150613a9282613a51565b602082019050919050565b60006020820190508181036000830152613ab681613a7a565b9050919050565b7f4e487b7100000000000000000000000000000000000000000000000000000000600052603260045260246000fd5b613af581612d83565b82525050565b613b0481612e05565b82525050565b613b1381612c76565b82525050565b6000819050919050565b6000613b3e613b39613b3484612cae565b613b19565b612c40565b9050919050565b613b4e81613b23565b82525050565b600060a082019050613b696000830188613aec565b613b766020830187613afb565b613b836040830186613b0a565b613b906060830185613b45565b613b9d6080830184613b0a565b9695505050505050565b600067ffffffffffffffff821115613bc257613bc1612b47565b5b602082029050602081019050919050565b600081519050613be281612bcc565b92915050565b600081519050613bf781612c14565b92915050565b600081519050613c0c81612c4a565b92915050565b600081519050613c2181612c82565b92915050565b600081519050613c3681612cc2565b92915050565b600081519050613c4b81612cfe565b92915050565b600081519050613c6081612d37565b92915050565b600081519050613c7581612d95565b92915050565b600081519050613c8a81612dd9565b92915050565b600081519050613c9f81612e13565b92915050565b60006103008284031215613cbc57613cbb612b31565b5b613cc7610300612ba7565b90506000613cd784828501613bd3565b6000830152506020613ceb84828501613be8565b6020830152506040613cff84828501613be8565b6040830152506060613d1384828501613bfd565b6060830152506080613d2784828501613bfd565b60808301525060a0613d3b84828501613c12565b60a08301525060c0613d4f84828501613c12565b60c08301525060e0613d6384828501613c12565b60e083015250610100613d7884828501613c12565b61010083015250610120613d8e84828501613c12565b61012083015250610140613da484828501613c27565b61014083015250610160613dba84828501613c27565b61016083015250610180613dd084828501613c27565b610180830152506101a0613de684828501613c3c565b6101a0830152506101c0613dfc84828501613c51565b6101c0830152506101e0613e1284828501613c66565b6101e083015250610200613e2884828501613c7b565b61020083015250610220613e3e84828501613bfd565b61022083015250610240613e5484828501613c12565b61024083015250610260613e6a84828501613c12565b61026083015250610280613e8084828501613c90565b610280830152506102a0613e9684828501613c7b565b6102a0830152506102c0613eac84828501613be8565b6102c0830152506102e0613ec284828501613c51565b6102e08301525092915050565b6000613ee2613edd84613ba7565b612ba7565b9050808382526020820190506103008402830185811115613f0657613f0561391c565b5b835b81811015613f305780613f1b8882613ca5565b84526020840193505061030081019050613f08565b5050509392505050565b600082601f830112613f4f57613f4e6138eb565b5b8151613f5f848260208601613ecf565b91505092915050565b600060208284031215613f7e57613f7d612b27565b5b600082015167ffffffffffffffff811115613f9c57613f9b612b2c565b5b613fa884828501613f3a565b91505092915050565b7f4e487b7100000000000000000000000000000000000000000000000000000000600052601160045260246000fd5b6000613feb82612d2a565b9150613ff683612d2a565b9250828201905060ff81111561400f5761400e613fb1565b5b92915050565b600060408201905061402a6000830185613afb565b6140376020830184613b0a565b9392505050565b60006020828403121561405457614053612b27565b5b600061406284828501613bfd565b91505092915050565b600061407682612c40565b915061408183612c40565b925082820261408f81612c40565b915082820484148315176140a6576140a5613fb1565b5b5092915050565b7f4e487b7100000000000000000000000000000000000000000000000000000000600052601260045260246000fd5b60006140e782612c40565b91506140f283612c40565b925082614102576141016140ad565b5b828204905092915050565b7f696e76616c6964206f72646572206b6579000000000000000000000000000000600082015250565b6000614143601183613a40565b915061414e8261410d565b602082019050919050565b6000602082019050818103600083015261417281614136565b9050919050565b60006141848261371c565b915061418f8361371c565b92508282039050818112600084121682821360008512151617156141b6576141b5613fb1565b5b92915050565b6141c581612c40565b82525050565b600060a0820190506141e06000830188613afb565b6141ed6020830187613aec565b6141fa60408301866141bc565b61420760608301856141bc565b6142146080830184613b0a565b9695505050505050565b60006020828403121561423457614233612b27565b5b600061424284828501613938565b91505092915050565b6142548161371c565b82525050565b6000819050919050565b600061427f61427a6142758461425a565b613b19565b612d2a565b9050919050565b61428f81614264565b82525050565b600060c0820190506142aa6000830189613aec565b6142b7602083018861424b565b6142c46040830187614286565b6142d160608301866141bc565b6142de608083018561424b565b6142eb60a0830184613b0a565b979650505050505050565b6142ff81613744565b811461430a57600080fd5b50565b60008151905061431c816142f6565b92915050565b6000610120828403121561433957614338612b31565b5b614344610120612ba7565b9050600061435484828501613bfd565b600083015250602061436884828501613bfd565b602083015250604061437c84828501613938565b604083015250606061439084828501613938565b60608301525060806143a484828501613bfd565b60808301525060a06143b884828501613c12565b60a08301525060c06143cc84828501613c3c565b60c08301525060e06143e084828501613c90565b60e0830152506101006143f58482850161430d565b6101008301525092915050565b6000610120828403121561441957614418612b27565b5b600061442784828501614322565b91505092915050565b60006040820190506144456000830185613afb565b61445260208301846141bc565b9392505050565b600060a08201905061446e6000830188613aec565b61447b60208301876141bc565b61448860408301866141bc565b614495606083018561424b565b6144a26080830184613b0a565b9695505050505050565b60008160f81b9050919050565b60006144c4826144ac565b9050919050565b60006144d6826144b9565b9050919050565b6144ee6144e982612c76565b6144cb565b82525050565b60008160f01b9050919050565b600061450c826144f4565b9050919050565b61452461451f82612e05565b614501565b82525050565b600061453682856144dd565b6001820191506145468284614513565b6002820191508190509392505050565b6000819050602082019050919050565b60006145728251612bc2565b80915050919050565b600082821b905092915050565b60006145938261384a565b8261459d84614556565b90506145a881614566565b925060208210156145e8576145e37fffffffffffffffffffffffffffffffffffffffffffffffffffffffffffffffff8360200360080261457b565b831692505b5050919050565b60006060820190506146046000830186613afb565b61461160208301856141bc565b61461e60408301846141bc565b949350505050565b600060208201905061463b60008301846141bc565b92915050565b6000602082019050614656600083018461424b565b92915050565b60006146678261371c565b91507f8000000000000000000000000000000000000000000000000000000000000000820361469957614698613fb1565b5b816000039050919050565b6000602082840312156146ba576146b9612b27565b5b60006146c884828501613c51565b91505092915050565b60008160011c9050919050565b6000808291508390505b60018511156147285780860481111561470457614703613fb1565b5b60018516156147135780820291505b8081029050614721856146d1565b94506146e8565b94509492505050565b60008261474157600190506147fd565b8161474f57600090506147fd565b8160018114614765576002811461476f5761479e565b60019150506147fd565b60ff84111561478157614780613fb1565b5b8360020a91508482111561479857614797613fb1565b5b506147fd565b5060208310610133831016604e8410600b84101617156147d35782820a9050838111156147ce576147cd613fb1565b5b6147fd565b6147e084848460016146de565b925090508184048111156147f7576147f6613fb1565b5b81810290505b9392505050565b600061480f82612c40565b915061481a83612d2a565b92506148477fffffffffffffffffffffffffffffffffffffffffffffffffffffffffffffffff8484614731565b905092915050565b600061485a82612c40565b915061486583612c40565b92506148927fffffffffffffffffffffffffffffffffffffffffffffffffffffffffffffffff8484614731565b905092915050565b7f4d61726b657456616c69643a4c65760000000000000000000000000000000000600082015250565b60006148d0600f83613a40565b91506148db8261489a565b602082019050919050565b600060208201905081810360008301526148ff816148c3565b9050919050565b600061491282866144dd565b60018201915061492282856144dd565b6001820191506149328284614513565b600282019150819050949350505050565b600061494e82612c40565b91507fffffffffffffffffffffffffffffffffffffffffffffffffffffffffffffffff82036149805761497f613fb1565b5b600182019050919050565b600061499682612c40565b91506149a183612c40565b92508282039050818111156149b9576149b8613fb1565b5b92915050565b60006149ca82612c40565b91506149d583612c40565b92508282019050808211156149ed576149ec613fb1565b5b92915050565b60006149fe8261371c565b9150614a098361371c565b925082820190508281121560008312168382126000841215161715614a3157614a30613fb1565b5b92915050565b6000604082019050614a4c6000830185613aec565b614a5960208301846141bc565b9392505050565b7f4e487b7100000000000000000000000000000000000000000000000000000000600052603160045260246000fd5b600060208284031215614aa557614aa4612b27565b5b6000614ab384828501613c12565b91505092915050565b6000602082019050614ad16000830184613aec565b92915050565b600081905092915050565b6000614aed8261384a565b614af78185614ad7565b9350614b07818560208601613866565b80840191505092915050565b6000614b1f8284614ae2565b91508190509291505056fea26469706673582212209cd0de9e0f74f972816c40fc9700ad9bc37648365e014b0d512560b3b9aa33fa64736f6c63430008180033",
  "devdoc": {
    "errors": {
      "AddressEmptyCode(address)": [
        {
          "details": "There's no code at `target` (it is not a contract)."
        }
      ],
      "AddressInsufficientBalance(address)": [
        {
          "details": "The ETH balance of the account is not enough to perform the operation."
        }
      ],
      "FailedInnerCall()": [
        {
          "details": "A call to an address target failed. The target may have reverted."
        }
      ],
      "SafeCastOverflowedIntToUint(int256)": [
        {
          "details": "An int value doesn't fit in an uint of `bits` size."
        }
      ],
      "SafeCastOverflowedUintToInt(uint256)": [
        {
          "details": "An uint value doesn't fit in an int of `bits` size."
        }
      ],
      "SafeERC20FailedOperation(address)": [
        {
          "details": "An operation with an ERC20 token failed."
        }
      ]
    },
    "kind": "dev",
    "methods": {},
    "version": 1
  },
  "userdoc": {
    "kind": "user",
    "methods": {},
    "version": 1
  },
  "storageLayout": {
    "storage": [],
    "types": null
  }
}