{
  "address": "0x063D72852a0024CEb9De20606848884Ee8dC4847",
  "abi": [
    {
      "inputs": [
        {
          "internalType": "address",
          "name": "authority",
          "type": "address"
        }
      ],
      "name": "AccessManagedInvalidAuthority",
      "type": "error"
    },
    {
      "inputs": [
        {
          "internalType": "address",
          "name": "caller",
          "type": "address"
        },
        {
          "internalType": "uint32",
          "name": "delay",
          "type": "uint32"
        }
      ],
      "name": "AccessManagedRequiredDelay",
      "type": "error"
    },
    {
      "inputs": [
        {
          "internalType": "address",
          "name": "caller",
          "type": "address"
        }
      ],
      "name": "AccessManagedUnauthorized",
      "type": "error"
    },
    {
      "inputs": [
        {
          "internalType": "address",
          "name": "target",
          "type": "address"
        }
      ],
      "name": "AddressEmptyCode",
      "type": "error"
    },
    {
      "inputs": [
        {
          "internalType": "address",
          "name": "account",
          "type": "address"
        }
      ],
      "name": "AddressInsufficientBalance",
      "type": "error"
    },
    {
      "inputs": [],
      "name": "FailedInnerCall",
      "type": "error"
    },
    {
      "inputs": [
        {
          "internalType": "int256",
          "name": "value",
          "type": "int256"
        }
      ],
      "name": "SafeCastOverflowedIntToUint",
      "type": "error"
    },
    {
      "inputs": [
        {
          "internalType": "uint256",
          "name": "value",
          "type": "uint256"
        }
      ],
      "name": "SafeCastOverflowedUintToInt",
      "type": "error"
    },
    {
      "inputs": [
        {
          "internalType": "address",
          "name": "token",
          "type": "address"
        }
      ],
      "name": "SafeERC20FailedOperation",
      "type": "error"
    },
    {
      "inputs": [
        {
          "internalType": "int256",
          "name": "fees",
          "type": "int256"
        }
      ],
      "name": "TotalFeesLtZero",
      "type": "error"
    },
    {
      "inputs": [
        {
          "components": [
            {
              "internalType": "bytes32",
              "name": "refCode",
              "type": "bytes32"
            },
            {
              "internalType": "uint128",
              "name": "collateral",
              "type": "uint128"
            },
            {
              "internalType": "uint128",
              "name": "size",
              "type": "uint128"
            },
            {
              "internalType": "uint256",
              "name": "price",
              "type": "uint256"
            },
            {
              "internalType": "uint256",
              "name": "tp",
              "type": "uint256"
            },
            {
              "internalType": "bool",
              "name": "triggerAbove",
              "type": "bool"
            },
            {
              "internalType": "bool",
              "name": "isFromMarket",
              "type": "bool"
            },
            {
              "internalType": "bool",
              "name": "isKeepLev",
              "type": "bool"
            },
            {
              "internalType": "bool",
              "name": "isKeepLevTP",
              "type": "bool"
            },
            {
              "internalType": "bool",
              "name": "isKeepLevSL",
              "type": "bool"
            },
            {
              "internalType": "uint64",
              "name": "orderID",
              "type": "uint64"
            },
            {
              "internalType": "uint64",
              "name": "pairId",
              "type": "uint64"
            },
            {
              "internalType": "uint64",
              "name": "fromId",
              "type": "uint64"
            },
            {
              "internalType": "uint32",
              "name": "updatedAtBlock",
              "type": "uint32"
            },
            {
              "internalType": "uint8",
              "name": "extra0",
              "type": "uint8"
            },
            {
              "internalType": "address",
              "name": "account",
              "type": "address"
            },
            {
              "internalType": "uint96",
              "name": "extra1",
              "type": "uint96"
            },
            {
              "internalType": "uint256",
              "name": "sl",
              "type": "uint256"
            },
            {
              "internalType": "bool",
              "name": "isIncrease",
              "type": "bool"
            },
            {
              "internalType": "bool",
              "name": "isLong",
              "type": "bool"
            },
            {
              "internalType": "uint16",
              "name": "market",
              "type": "uint16"
            },
            {
              "internalType": "uint96",
              "name": "extra2",
              "type": "uint96"
            },
            {
              "internalType": "uint128",
              "name": "gas",
              "type": "uint128"
            },
            {
              "internalType": "uint8",
              "name": "version",
              "type": "uint8"
            }
          ],
          "internalType": "struct OrderProps",
          "name": "order",
          "type": "tuple"
        },
        {
          "components": [
            {
              "internalType": "enum MarketBusinessType",
              "name": "busiType",
              "type": "uint8"
            },
            {
              "internalType": "uint256",
              "name": "oraclePrice",
              "type": "uint256"
            },
            {
              "internalType": "uint256",
              "name": "pay",
              "type": "uint256"
            },
            {
              "internalType": "uint256",
              "name": "slippage",
              "type": "uint256"
            },
            {
              "internalType": "uint16",
              "name": "market",
              "type": "uint16"
            },
            {
              "internalType": "bool",
              "name": "isLong",
              "type": "bool"
            },
            {
              "internalType": "bool",
              "name": "isOpen",
              "type": "bool"
            },
            {
              "internalType": "bool",
              "name": "isCreate",
              "type": "bool"
            },
            {
              "internalType": "bool",
              "name": "isFromMarket",
              "type": "bool"
            },
            {
              "internalType": "uint256",
              "name": "sizeDelta",
              "type": "uint256"
            },
            {
              "internalType": "uint256",
              "name": "price",
              "type": "uint256"
            },
            {
              "internalType": "uint256",
              "name": "collateralDelta",
              "type": "uint256"
            },
            {
              "internalType": "uint256",
              "name": "collateral",
              "type": "uint256"
            },
            {
              "internalType": "uint256",
              "name": "tp",
              "type": "uint256"
            },
            {
              "internalType": "uint256",
              "name": "sl",
              "type": "uint256"
            },
            {
              "internalType": "uint64",
              "name": "orderId",
              "type": "uint64"
            },
            {
              "internalType": "address",
              "name": "account",
              "type": "address"
            },
            {
              "internalType": "bool",
              "name": "isExec",
              "type": "bool"
            },
            {
              "internalType": "enum LiquidationState",
              "name": "liqState",
              "type": "uint8"
            },
            {
              "internalType": "uint64",
              "name": "fromOrder",
              "type": "uint64"
            },
            {
              "internalType": "bytes32",
              "name": "refCode",
              "type": "bytes32"
            },
            {
              "internalType": "uint8",
              "name": "execNum",
              "type": "uint8"
            },
            {
              "internalType": "bool",
              "name": "isKeepLev",
              "type": "bool"
            },
            {
              "internalType": "bool",
              "name": "isKeepLevTP",
              "type": "bool"
            },
            {
              "internalType": "bool",
              "name": "isKeepLevSL",
              "type": "bool"
            },
            {
              "internalType": "bool",
              "name": "triggerAbove",
              "type": "bool"
            },
            {
              "internalType": "uint128",
              "name": "gas",
              "type": "uint128"
            }
          ],
          "internalType": "struct MarketCache",
          "name": "_params",
          "type": "tuple"
        }
      ],
      "name": "execSubOrder",
      "outputs": [],
      "stateMutability": "nonpayable",
      "type": "function"
    },
    {
      "inputs": [
        {
          "internalType": "uint16",
          "name": "market",
          "type": "uint16"
        },
        {
          "internalType": "address",
          "name": "accounts",
          "type": "address"
        },
        {
          "internalType": "bool",
          "name": "_isLong",
          "type": "bool"
        }
      ],
      "name": "liquidate",
      "outputs": [],
      "stateMutability": "nonpayable",
      "type": "function"
    }
  ],
  "transactionHash": "0x7385d7ab7af25bd25090aff53d52c17d434a07c4e7de64fbc51b4af40ce7a320",
  "args": [],
  "numDeployments": 8,
  "solcInputHash": "1dcb6aaba1ba97cd804fcdc1f6e94e24",
  "bytecode": "0x60806040523462000023576200001462000029565b61538162000035823961538190f35b6200002f565b60405190565b600080fdfe60806040526004361015610013575b6107a3565b61001e60003561003d565b80634dee5f26146100385763fe0e467e0361000e57610775565b610706565b60e01c90565b60405190565b600080fd5b600080fd5b600080fd5b600080fd5b601f801991011690565b634e487b7160e01b600052604160045260246000fd5b906100879061005d565b810190811060018060401b0382111761009f57604052565b610067565b906100b76100b0610043565b928361007d565b565b90565b6100c5816100b9565b036100cc57565b600080fd5b905035906100de826100bc565b565b60018060801b031690565b6100f4816100e0565b036100fb57565b600080fd5b9050359061010d826100eb565b565b90565b61011b8161010f565b0361012257565b600080fd5b9050359061013482610112565b565b151590565b61014481610136565b0361014b57565b600080fd5b9050359061015d8261013b565b565b60018060401b031690565b6101738161015f565b0361017a57565b600080fd5b9050359061018c8261016a565b565b63ffffffff1690565b6101a08161018e565b036101a757565b600080fd5b905035906101b982610197565b565b60ff1690565b6101ca816101bb565b036101d157565b600080fd5b905035906101e3826101c1565b565b60018060a01b031690565b6101f9906101e5565b90565b610205816101f0565b0361020c57565b600080fd5b9050359061021e826101fc565b565b60018060601b031690565b61023481610220565b0361023b57565b600080fd5b9050359061024d8261022b565b565b61ffff1690565b61025f8161024f565b0361026657565b600080fd5b9050359061027882610256565b565b9190610300838203126104645761045c906102966103006100a4565b936102a482600083016100d1565b60008601526102b68260208301610100565b60208601526102c88260408301610100565b60408601526102da8260608301610127565b60608601526102ec8260808301610127565b60808601526102fe8260a08301610150565b60a08601526103108260c08301610150565b60c08601526103228260e08301610150565b60e0860152610335826101008301610150565b610100860152610349826101208301610150565b61012086015261035d82610140830161017f565b61014086015261037182610160830161017f565b61016086015261038582610180830161017f565b610180860152610399826101a083016101ac565b6101a08601526103ad826101c083016101d6565b6101c08601526103c1826101e08301610211565b6101e08601526103d5826102008301610240565b6102008601526103e9826102208301610127565b6102208601526103fd826102408301610150565b610240860152610411826102608301610150565b61026086015261042582610280830161026b565b610280860152610439826102a08301610240565b6102a086015261044d826102c08301610100565b6102c08601526102e0016101d6565b6102e0830152565b610058565b6005111561047357565b600080fd5b9050359061048582610469565b565b6003111561049157565b600080fd5b905035906104a382610487565b565b9190610360838203126106cb576106c3906104c16103606100a4565b936104cf8260008301610478565b60008601526104e18260208301610127565b60208601526104f38260408301610127565b60408601526105058260608301610127565b6060860152610517826080830161026b565b60808601526105298260a08301610150565b60a086015261053b8260c08301610150565b60c086015261054d8260e08301610150565b60e0860152610560826101008301610150565b610100860152610574826101208301610127565b610120860152610588826101408301610127565b61014086015261059c826101608301610127565b6101608601526105b0826101808301610127565b6101808601526105c4826101a08301610127565b6101a08601526105d8826101c08301610127565b6101c08601526105ec826101e0830161017f565b6101e0860152610600826102008301610211565b610200860152610614826102208301610150565b610220860152610628826102408301610496565b61024086015261063c82610260830161017f565b6102608601526106508261028083016100d1565b610280860152610664826102a083016101d6565b6102a0860152610678826102c08301610150565b6102c086015261068c826102e08301610150565b6102e08601526106a0826103008301610150565b6103008601526106b4826103208301610150565b61032086015261034001610100565b610340830152565b610058565b9190610660838203126106fb57806106ee6106f8926000860161027a565b93610300016104a5565b90565b61004e565b60000190565b346107355761071f6107193660046106d0565b906116dc565b610727610043565b8061073181610700565b0390f35b610049565b90916060828403126107705761076d610756846000850161026b565b936107648160208601610211565b93604001610150565b90565b61004e565b3461079e5761078536600461073a565b505050610790610043565b8061079a81610700565b0390f35b610049565b600080fd5b906107b291611395565b565b6107be905161024f565b90565b6107cb9051610136565b90565b906107d89061010f565b9052565b6107e690516101f0565b90565b6107f3905161010f565b90565b90565b61080d610808610812926101e5565b6107f6565b6101e5565b90565b61081e906107f9565b90565b61082a90610815565b90565b600080fd5b60e01b90565b600080fd5b60018060401b0381116108535760208091020190565b610067565b600080fd5b90565b6108698161085d565b0361087057565b600080fd5b9050519061088282610860565b565b909291926108996108948261083d565b6100a4565b93818552602080860192028301928184116108d657915b8383106108bd5750505050565b602080916108cb8486610875565b8152019201916108b0565b610858565b9080601f830112156108f9578160206108f693519101610884565b90565b610838565b919060408382031261093d5760008301519060018060401b0382116109385761092c816109359386016108db565b93602001610875565b90565b610053565b61004e565b634e487b7160e01b600052602160045260246000fd5b6005111561096257565b610942565b9061097182610958565b565b61097c90610967565b90565b61098890610973565b9052565b6109959061010f565b9052565b6109a29061024f565b9052565b6109af90610136565b9052565b6109bc9061015f565b9052565b6109c9906101f0565b9052565b600311156109d757565b610942565b906109e6826109cd565b565b6109f1906109dc565b90565b6109fd906109e8565b9052565b610a0a906100b9565b9052565b610a17906101bb565b9052565b610a24906100e0565b9052565b9061034080610c3393610a436000820151600086019061097f565b610a556020820151602086019061098c565b610a676040820151604086019061098c565b610a796060820151606086019061098c565b610a8b60808201516080860190610999565b610a9d60a082015160a08601906109a6565b610aaf60c082015160c08601906109a6565b610ac160e082015160e08601906109a6565b610ad56101008201516101008601906109a6565b610ae961012082015161012086019061098c565b610afd61014082015161014086019061098c565b610b1161016082015161016086019061098c565b610b2561018082015161018086019061098c565b610b396101a08201516101a086019061098c565b610b4d6101c08201516101c086019061098c565b610b616101e08201516101e08601906109b3565b610b756102008201516102008601906109c0565b610b896102208201516102208601906109a6565b610b9d6102408201516102408601906109f4565b610bb16102608201516102608601906109b3565b610bc5610280820151610280860190610a01565b610bd96102a08201516102a0860190610a0e565b610bed6102c08201516102c08601906109a6565b610c016102e08201516102e08601906109a6565b610c156103008201516103008601906109a6565b610c296103208201516103208601906109a6565b0151910190610a1b565b565b610c3e9061085d565b9052565b610c4b9061018e565b9052565b60018060481b031690565b610c6390610c4f565b9052565b9061010080610d0a93610c826000820151600086019061098c565b610c946020820151602086019061098c565b610ca660408201516040860190610c35565b610cb860608201516060860190610c35565b610cca6080820151608086019061098c565b610cdc60a082015160a08601906109a6565b610cee60c082015160c0860190610c42565b610d0060e082015160e0860190610999565b0151910190610c5a565b565b91610360610d30929493610d296104808201966000830190610a28565b0190610c67565b565b610d3a610043565b3d6000823e3d90fd5b610d4d90516100e0565b90565b90565b610d67610d62610d6c92610d50565b6107f6565b6100e0565b90565b610d83610d7e610d88926100e0565b6107f6565b61010f565b90565b60209181520190565b60007f506f736974696f6e5375624d67723a696e76616c69642069734f70656e000000910152565b610dc9601d602092610d8b565b610dd281610d94565b0190565b610dec9060208101906000818303910152610dbc565b90565b15610df657565b610dfe610043565b62461bcd60e51b815280610e1460048201610dd6565b0390fd5b600d1115610e2257565b610942565b90610e3182610e18565b565b610e3c90610e27565b90565b634e487b7160e01b600052603260045260246000fd5b5190565b90610e6382610e55565b811015610e74576020809102010190565b610e3f565b610e8d610e88610e92926101bb565b6107f6565b61010f565b90565b610e9f905161085d565b90565b610eab90610815565b90565b610eb8905161015f565b90565b60018060401b038111610ed15760208091020190565b610067565b90505190610ee3826100bc565b565b90505190610ef2826100eb565b565b90505190610f0182610112565b565b90505190610f108261013b565b565b90505190610f1f8261016a565b565b90505190610f2e82610197565b565b90505190610f3d826101c1565b565b90505190610f4c826101fc565b565b90505190610f5b8261022b565b565b90505190610f6a82610256565b565b9190610300838203126111565761114e90610f886103006100a4565b93610f968260008301610ed6565b6000860152610fa88260208301610ee5565b6020860152610fba8260408301610ee5565b6040860152610fcc8260608301610ef4565b6060860152610fde8260808301610ef4565b6080860152610ff08260a08301610f03565b60a08601526110028260c08301610f03565b60c08601526110148260e08301610f03565b60e0860152611027826101008301610f03565b61010086015261103b826101208301610f03565b61012086015261104f826101408301610f12565b610140860152611063826101608301610f12565b610160860152611077826101808301610f12565b61018086015261108b826101a08301610f21565b6101a086015261109f826101c08301610f30565b6101c08601526110b3826101e08301610f3f565b6101e08601526110c7826102008301610f4e565b6102008601526110db826102208301610ef4565b6102208601526110ef826102408301610f03565b610240860152611103826102608301610f03565b610260860152611117826102808301610f5d565b61028086015261112b826102a08301610f4e565b6102a086015261113f826102c08301610ee5565b6102c08601526102e001610f30565b6102e0830152565b610058565b9092919261117061116b82610ebb565b6100a4565b938185526103006020860192028301928184116111b157915b8383106111965750505050565b6020610300916111a68486610f6c565b815201920191611189565b610858565b9080601f830112156111d4578160206111d19351910161115b565b90565b610838565b9060208282031261120857600082015160018060401b0381116112035761120092016111b6565b90565b610053565b61004e565b611216906101f0565b9052565b6112239061024f565b9052565b61123090610136565b9052565b61124861124361124d9261015f565b6107f6565b61010f565b90565b61125990611234565b9052565b909594926112a9946112986112a29261128e60809661128460a088019c600089019061120d565b602087019061121a565b6040850190611227565b6060830190611250565b0190611227565b565b6112bf6112ba6112c492610d50565b6107f6565b61010f565b90565b60016112d3910161010f565b90565b5190565b906112e4826112d6565b8110156112f5576020809102010190565b610e3f565b61130e61130961131392610d50565b6107f6565b6101e5565b90565b61131f906112fa565b90565b90565b61133961133461133e92611322565b6107f6565b6101bb565b90565b61134b90516101bb565b90565b634e487b7160e01b600052601160045260246000fd5b611370611376916101bb565b916101bb565b019060ff821161138257565b61134e565b90611391906101bb565b9052565b90916113c46113bb6113a9608086016107b4565b6113b560a087016107c1565b9061173c565b602085016107ce565b6113ff6113d3608085016107b4565b6113e06101e085016107dc565b6113ec602087016107e9565b906113f960a088016107c1565b92611b0a565b9161141061140b611b70565b610821565b600063f130c445918690611436879461144161142a610043565b96879586948594610832565b845260048401610d0c565b03915afa9081156116d7576114d0916114cb916000916116b5575b5061146960408501610d43565b61147c6114766000610d53565b916100e0565b1161165f575b61148b84611cd7565b6114b361149a60c089016107c1565b6114ad6114a76000610136565b91610136565b14610def565b6114c56114c06004610e33565b610e79565b90610e59565b610e95565b5060006114e36114de611d52565b610ea2565b638114baa890611546836114fa6102008a016107dc565b9361155161150a60808c016107b4565b978b61153160a061152a61014061152360c086016107c1565b9501610eae565b92016107c1565b9161153a610043565b9a8b998a988997610832565b87526004870161125d565b03925af190811561165a57600091611637575b509061157060006112ab565b5b8061158c611586611581866112d6565b61010f565b9161010f565b1015611628576115ef906115a18482906112da565b516115ca6115c46115bf6101e06115b86000611316565b94016107dc565b6101f0565b916101f0565b1461162357806115e36115dd60006112ab565b9161010f565b146115f4575b5b6112c7565b611571565b61161e6116016001611325565b6116186102a089019161161383611341565b611364565b90611387565b6115e9565b6115ea565b50926116359291506120fe565b565b61165491503d806000833e61164c818361007d565b8101906111d9565b38611564565b610d32565b6116b06116a661167160e087016107c1565b61167d60008a016107e9565b9061168a60408901610d43565b916116a061169a60208d016107e9565b93610d6f565b91611bfa565b61016089016107ce565b611482565b6116d291503d806000833e6116ca818361007d565b8101906108fe565b61145c565b610d32565b906116e6916107a8565b565b600090565b6116f690610815565b90565b906020828203126117135761171091600001610ef4565b90565b61004e565b91602061173a9294936117336040820196600083019061121a565b0190611227565b565b906020906117486116e8565b5061175961175461299e565b6116ed565b61178461176c63db611225959315610136565b9461178f611778610043565b96879586948594610832565b845260048401611718565b03915afa9081156117d4576000916117a6575b5090565b6117c7915060203d81116117cd575b6117bf818361007d565b8101906116f9565b386117a2565b503d6117b5565b610d32565b6117e46101206100a4565b90565b600090565b600090565b600090565b600090565b600090565b600090565b61180d6117d9565b90602080808080808080808a6118216117e7565b81520161182c6117e7565b8152016118376117ec565b8152016118426117ec565b81520161184d6117e7565b8152016118586117f1565b8152016118636117f6565b81520161186e6117fb565b815201611879611800565b81525050565b611887611805565b90565b611893906100b9565b90565b906118a09061188a565b600052602052604060002090565b6118b790610815565b90565b906118c4906118ae565b600052602052604060002090565b60001c90565b90565b6118e76118ec916118d2565b6118d8565b90565b6118f990546118db565b90565b90565b61190b611910916118d2565b6118fc565b90565b61191d90546118ff565b90565b9061192a9061085d565b9052565b60ff1690565b611940611945916118d2565b61192e565b90565b6119529054611934565b90565b9061195f90610136565b9052565b60081c90565b63ffffffff1690565b61197e61198391611963565b611969565b90565b6119909054611972565b90565b9061199d9061018e565b9052565b60281c90565b61ffff1690565b6119ba6119bf916119a1565b6119a7565b90565b6119cc90546119ae565b90565b906119d99061024f565b9052565b60381c90565b60018060481b031690565b6119fa6119ff916119dd565b6119e3565b90565b611a0c90546119ee565b90565b90611a1990610c4f565b9052565b90611afc611af26005611a2e6117d9565b94611a47611a3e600083016118ef565b600088016107ce565b611a5f611a56600183016118ef565b602088016107ce565b611a77611a6e60028301611913565b60408801611920565b611a8f611a8660038301611913565b60608801611920565b611aa7611a9e600483016118ef565b608088016107ce565b611abe611ab5838301611948565b60a08801611955565b611ad5611acc838301611986565b60c08801611993565b611aec611ae38383016119c2565b60e088016119cf565b01611a02565b6101008401611a0f565b565b611b0790611a1d565b90565b611b3f9250611b3a90611b34611b4495611b2261187f565b506000611b2d6129df565b0192612ac5565b90611896565b6118ba565b611afe565b90565b600090565b611b5590610815565b90565b611b61906107f9565b90565b611b6d90611b58565b90565b611b78611b47565b50611b8a611b8530611b4c565b611b64565b90565b611b9c611ba29193929361010f565b9261010f565b91611bae83820261010f565b928184041490151715611bbd57565b61134e565b634e487b7160e01b600052601260045260246000fd5b611be4611bea9161010f565b9161010f565b908115611bf5570490565b611bc2565b92909192611c066116e8565b50600014611c2457611c2092611c1b91611b8d565b611bd8565b905b565b505050611c3160006112ab565b90611c22565b60007f696e76616c6964206f72646572206b6579000000000000000000000000000000910152565b611c6c6011602092610d8b565b611c7581611c37565b0190565b611c8f9060208101906000818303910152611c5f565b90565b15611c9957565b611ca1610043565b62461bcd60e51b815280611cb760048201611c79565b0390fd5b611ccf611cca611cd492610d50565b6107f6565b61015f565b90565b611d19610140611d3392611d13611cf16101e083016107dc565b611d0c611d06611d016000611316565b6101f0565b916101f0565b1415611c92565b01610eae565b611d2c611d266000611cbb565b9161015f565b1415611c92565b565b600090565b611d43906107f9565b90565b611d4f90611d3a565b90565b611d5a611d35565b50611d6c611d6730611b4c565b611d46565b90565b611d7990516109dc565b90565b611d90611d8b611d9592610d50565b6107f6565b61085d565b90565b611da7611dad9193929361085d565b9261085d565b91828103926000828512818312169285139112151617611dc957565b61134e565b600090565b611ddc90610815565b90565b90602082820312611df957611df691600001610875565b90565b61004e565b611e079061010f565b9052565b90959492611e5794611e46611e5092611e3c608096611e3260a088019c600089019061121a565b602087019061120d565b6040850190611dfe565b6060830190611dfe565b0190611227565b565b611e6360e06100a4565b90565b90611e70906101f0565b9052565b611e7d81610c4f565b03611e8457565b600080fd5b90505190611e9682611e74565b565b919061012083820312611f5657611f4e90611eb46101206100a4565b93611ec28260008301610ef4565b6000860152611ed48260208301610ef4565b6020860152611ee68260408301610875565b6040860152611ef88260608301610875565b6060860152611f0a8260808301610ef4565b6080860152611f1c8260a08301610f03565b60a0860152611f2e8260c08301610f21565b60c0860152611f408260e08301610f5d565b60e086015261010001611e89565b610100830152565b610058565b9061012082820312611f7657611f7391600001611e98565b90565b61004e565b9060c080611ff993611f9560008201516000860190610999565b611fa7602082015160208601906109c0565b611fb960408201516040860190610c35565b611fcb6060820151606086019061098c565b611fdd6080820151608086019061098c565b611fef60a082015160a0860190610c35565b01519101906109a6565b565b919061200f90600060e08501940190611f7b565b565b61201a90610815565b90565b600091031261202857565b61004e565b91602061204f9294936120486040820196600083019061121a565b0190611dfe565b565b61206561206061206a9261010f565b6107f6565b61085d565b90565b61207760c06100a4565b90565b9060a0806120e69361209460008201516000860190610999565b6120a6602082015160208601906109c0565b6120b860408201516040860190610c35565b6120ca6060820151606086019061098c565b6120dc60808201516080860190610c35565b01519101906109a6565b565b91906120fc90600060c0850194019061207a565b565b9061210b600082016107e9565b61211e61211860006112ab565b9161010f565b148015612952575b61294e5761213e612139608084016107b4565b612b36565b61214a600082016107e9565b61216861216261215d61012086016107e9565b61010f565b9161010f565b14612817575b61217e612179611b70565b610821565b600063f130c4459184906121a485946121af612198610043565b96879586948594610832565b845260048401610d0c565b03915afa8015612812576000809290916127ec575b50906121d361012085016107e9565b6121e66121e060006112ab565b9161010f565b146000146127e657806122026121fc6000611d7c565b9161085d565b13156000146127d35761222b61223091612226612221602087016107e9565b613181565b611d98565b613205565b505b5b61223b611dce565b61224861012085016107e9565b61225b61225560006112ab565b9161010f565b11612702575b61227d916122728260608601611920565b84918490919261332c565b9161228e612289611b70565b610821565b60206370802dac916122a2608085016107b4565b906122ca6122b260a087016107c1565b946122d56122be610043565b96879586948594610832565b845260048401611718565b03915afa9081156126fd576000916126cf575b50926122f6604082016107e9565b61230961230360006112ab565b9161010f565b11806126a9575b612563575b612329612324608084016107b4565b6134d6565b61234561234061233b608086016107b4565b61351b565b612011565b9063815585519061236e61235b608087016107b4565b9161236961012088016107e9565b6135df565b92803b1561255e576123946000809461239f612388610043565b97889687958694610832565b84526004840161202d565b03925af180156125595761252c575b506123b7613276565b6123c090611dd3565b9063ee89368890836080016123d4906107b4565b9584610200016123e3906107dc565b9160c0016123f0906107e9565b6123f990612051565b908561012001612408906107e9565b90918660a001612417906107c1565b9361242061206d565b9960008b019061242f916119cf565b60208a019061243d91611e66565b604089019061244b91611920565b6060880190612459916107ce565b608087019061246791611920565b60a086019061247591611955565b61247d610043565b80956124898293610832565b82526004820190612499916120e8565b03815a61012094600091f1928315612527576124ec936124e7916000916124f8575b506124c8608084016107b4565b906124e160206124da600084016107e9565b92016107e9565b916137a9565b61386b565b6124f3575b565b6124f1565b61251a91506101203d8111612520575b612512818361007d565b810190611f5b565b386124bb565b503d612508565b610d32565b61254c9060003d8111612552575b612544818361007d565b81019061201d565b386123ae565b503d61253a565b610d32565b61082d565b61256b613276565b61257490611dd3565b6341ec6c659083608001612587906107b4565b918461020001612596906107dc565b846080016125a390610e95565b6000876020016125b2906107e9565b908a928960a0016125c2906107c1565b946125cb611e59565b9860008a01906125da916119cf565b60208901906125e891611e66565b60408801906125f691611920565b6125ff906112ab565b606087019061260d916107ce565b608086019061261b916107ce565b60a085019061262991611920565b60c084019061263791611955565b61263f610043565b809361264b8293610832565b8252600482019061265b91611ffb565b03815a61012094600091f180156126a457612677575b50612315565b612698906101203d811161269d575b612690818361007d565b810190611f5b565b612671565b503d612686565b610d32565b506126b660808201610e95565b6126c96126c36000611d7c565b9161085d565b13612310565b6126f0915060203d81116126f6575b6126e8818361007d565b810190611ddf565b386122e8565b503d6126de565b610d32565b5061271361270e613276565b611dd3565b906020635530409792612728608087016107b4565b9061277661273961020089016107dc565b9561278161274a6101208b016107e9565b612755878c016107e9565b61276160a08d016107c1565b9161276a610043565b9a8b9889978897610832565b875260048701611e0b565b03915afa80156127ce5761227d926000916127a0575b50909150612261565b6127c1915060203d81116127c7575b6127b9818361007d565b810190611ddf565b38612797565b503d6127af565b610d32565b506127e0602083016107e9565b50612232565b50612233565b905061280b91503d806000833e612803818361007d565b8101906108fe565b90386121c4565b610d32565b906128256102408201611d6f565b61283861283260016109dc565b916109dc565b1460001461291e575b612872612850608083016107b4565b600061285e60a085016107c1565b9061286c61020086016107dc565b92612fbb565b9261287d60006112ab565b5b8061289961289361288e886112d6565b61010f565b9161010f565b10156129155761290b906128bb6101e06128b48884906112da565b51016107dc565b6128d66128d06128cb6000611316565b6101f0565b916101f0565b14612910576129056128e86001611325565b6128ff6102a08701916128fa83611341565b611364565b90611387565b5b6112c7565b61287e565b612906565b5092509061216e565b61292b6102408201611d6f565b61293e61293860026109dc565b916109dc565b14612949575b612841565b612944565b5050565b5061296061020083016107dc565b61297b6129756129706000611316565b6101f0565b916101f0565b14612126565b600090565b61298f906107f9565b90565b61299b90612986565b90565b6129a6612981565b506129b86129b330611b4c565b612992565b90565b7f92bcfabaf0a890def3092675474357e5f93a0f117ca63a3db421d44c5b55fba590565b6129e76129bb565b90565b600090565b60f81b90565b6129fe906129ef565b90565b612a0a906129f5565b90565b612a19612a1e91610136565b612a01565b9052565b60f01b90565b612a3190612a22565b90565b612a40612a459161024f565b612a28565b9052565b600181612a5c612a649360029695612a0d565b018092612a34565b0190565b5190565b60200190565b612a7c90516100b9565b90565b1b90565b612a9d612a98612a9283612a68565b92612a6c565b612a72565b9060208110612aab575b5090565b612abe9060001990602003600802612a7f565b1638612aa7565b612afb612b0092612ad46129ea565b50612aec612ae0610043565b93849260208401612a49565b6020820181038252038261007d565b612a83565b90565b604090612b2d612b349496959396612b236060840198600085019061121a565b6020830190611dfe565b0190611dfe565b565b612b3f81613920565b9190612b51612b4c611b70565b610821565b63ac0b036492919392813b15612bcf576000612b8091612b8b8296612b74610043565b98899788968795610832565b855260048501612b03565b03925af18015612bca57612b9d575b50565b612bbd9060003d8111612bc3575b612bb5818361007d565b81019061201d565b38612b9a565b503d612bab565b610d32565b61082d565b606090565b90612be39061188a565b600052602052604060002090565b90612bfb906118ae565b600052602052604060002090565b90565b5190565b90612c22612c1d83610ebb565b6100a4565b918252565b612c326103006100a4565b90565b600090565b600090565b600090565b600090565b600090565b600090565b612c5b612c27565b9081612c65612c35565b8152602001612c72612c3a565b8152602001612c7f612c3a565b8152602001612c8c6117e7565b8152602001612c996117e7565b8152602001612ca66117f1565b8152602001612cb36117f1565b8152602001612cc06117f1565b8152602001612ccd6117f1565b8152602001612cda6117f1565b8152602001612ce7612c3f565b8152602001612cf4612c3f565b8152602001612d01612c3f565b8152602001612d0e6117f6565b8152602001612d1b612c44565b8152602001612d28612c49565b8152602001612d35612c4e565b8152602001612d426117e7565b8152602001612d4f6117f1565b8152602001612d5c6117f1565b8152602001612d696117fb565b8152602001612d76612c4e565b8152602001612d83612c3a565b8152602001612d90612c44565b815250565b612d9d612c53565b90565b60005b828110612daf57505050565b602090612dba612d95565b8184015201612da3565b90612de9612dd183612c10565b92602080612ddf8693610ebb565b9201910390612da0565b565b90612df582612c0c565b811015612e06576020809102010190565b610e3f565b90612e159061188a565b600052602052604060002090565b5490565b600190818003010490565b600052602060002090565b91906008612e59910291612e5360001984612a7f565b92612a7f565b9181191691161790565b612e6c906118d2565b90565b9190612e85612e80612e8d9361188a565b612e63565b908354612e3d565b9055565b612ea391612e9d6129ea565b91612e6f565b565b5b818110612eb1575050565b80612ebf6000600193612e91565b01612ea6565b1c90565b9091828110612ed8575b505050565b612ef6612ef0612eea612f0195612e27565b92612e27565b92612e32565b918201910190612ea5565b388080612ed3565b90600160401b8111612f2d5781612f22612f2b93612e23565b90828155612ec9565b565b610067565b6000612f3d91612f09565b565b634e487b7160e01b600052600060045260246000fd5b90600003612f6857612f6690612f32565b565b612f3f565b600080612f7a9201612f55565b565b90600003612f8f57612f8d90612f6d565b565b612f3f565b600080612fa19201612f7c565b565b90600003612fb657612fb490612f94565b565b612f3f565b91612fd491949394612fcb612bd4565b939190916139b0565b9083612ff1612feb612fe66000611316565b6101f0565b916101f0565b14613148575061302661302161301c613015600361300d613a16565b018590612bd9565b8690612bf1565b612c09565b613a29565b613031828290613a6f565b9061303b81612c0c565b9361304583612dc4565b9561304e6116e8565b9361305960006112ab565b5b8061306d6130678a61010f565b9161010f565b108061312e575b156130fd5761308c613087868390612deb565b612a72565b6130b36130ac6130a7600461309f613a16565b018b90612e0b565b612c09565b8290613b10565b6130c7575b506130c2906112c7565b61305a565b6130c291966130ef6130dc6130f6938b6141ff565b8c83916130e983836112da565b526112da565b51506112c7565b95906130b8565b505090945060009250613127915061312261312c94600361311c613a16565b01612bd9565b612bf1565b612fa3565b565b508561314261313c8461010f565b9161010f565b10613074565b9192505090565b61316361315e6131689261085d565b6107f6565b61010f565b90565b919061317f90600060208501940190611dfe565b565b613189611dce565b50806131ab6131a56131a060018060ff1b0361314f565b61010f565b9161010f565b116131bc576131b990612051565b90565b6131de906131c8610043565b91829163123baf0360e11b83526004830161316b565b0390fd5b6131eb9061085d565b9052565b9190613203906000602085019401906131e2565b565b61320d6116e8565b508061322261321c6000611d7c565b9161085d565b12613233576132309061314f565b90565b6132559061323f610043565b918291635467221960e11b8352600483016131ef565b0390fd5b600090565b613267906107f9565b90565b6132739061325e565b90565b61327e613259565b5061329061328b30611b4c565b61326a565b90565b61329d60e06100a4565b90565b6132a8613293565b906020808080808080886132ba6117ec565b8152016132c56117ec565b8152016132d06117e7565b8152016132db6117ec565b8152016132e66117ec565b8152016132f16117ec565b8152016132fc6117e7565b81525050565b61330a6132a0565b90565b6133169061085d565b600160ff1b81146133275760000390565b61134e565b9161336691949361333b613302565b5061335e6133596020613352878a87908792614335565b98016107e9565b613181565b91909161458b565b5061337b613376608083016107b4565b6134d6565b9061338860008501610e95565b61339b6133956000611d7c565b9161085d565b121560001461344d576133c36133bb6133b660008701610e95565b613205565b5b83906135df565b506133d060008501610e95565b6133e36133dd6000611d7c565b9161085d565b1215600014613448575b6133f960608501610e95565b61340c6134066000611d7c565b9161085d565b13613416575b5050565b6134276102006134419392016107dc565b61343b61343660608701610e95565b61314f565b9161467b565b3880613412565b6133ed565b6133c361346c61346761346260008801610e95565b61330d565b613205565b6133bc565b600090565b61348a61348561348f9261024f565b6107f6565b61024f565b90565b9061349c90613476565b600052602052604060002090565b60018060a01b031690565b6134c16134c6916118d2565b6134aa565b90565b6134d390546134b5565b90565b6134f66134fb916134e5613471565b5060036134f06146e6565b01613492565b6134c9565b90565b600090565b61350c906107f9565b90565b61351890613503565b90565b6135306135359161352a6134fe565b506146f1565b61350f565b90565b613541906107f9565b90565b61354d90613538565b90565b61355990610815565b90565b906020828203126135765761357391600001610f30565b90565b61004e565b6135849061010f565b604d811161359257600a0a90565b61134e565b90565b6135ae6135a96135b392613597565b6107f6565b6101bb565b90565b6135c0601261359a565b90565b6135cc906101bb565b604d81116135da57600a0a90565b61134e565b9060206135ff6135fa613615936135f46116e8565b50613544565b613550565b63313ce5679061360d610043565b938492610832565b8252818061362560048201610700565b03915afa91821561369e5761365161364c61366d9461365794600091613670575b50610e79565b61357b565b90611b8d565b6136676136626135b6565b6135c3565b90611bd8565b90565b613691915060203d8111613697575b613689818361007d565b81019061355c565b38613646565b503d61367f565b610d32565b906136ad90613476565b600052602052604060002090565b60501c90565b6136cd6136d2916136bb565b6119a7565b90565b6136df90546136c1565b90565b6136f66136f16136fb9261024f565b6107f6565b61010f565b90565b60007f4d61726b657456616c69643a4c65760000000000000000000000000000000000910152565b613733600f602092610d8b565b61373c816136fe565b0190565b6137569060208101906000818303910152613726565b90565b1561376057565b613768610043565b62461bcd60e51b81528061377e60048201613740565b0390fd5b60401c90565b61379461379991613782565b6119a7565b90565b6137a69054613788565b90565b9091826137bf6137b960006112ab565b9161010f565b14801561384b575b61384657613837613832600061382c6137e661383d9561384498611bd8565b95826137f06146e6565b976138258961381e6138186138138661380d818896018a906136a3565b016136d5565b6136e2565b9161010f565b1115613759565b97016136a3565b0161379c565b6136e2565b9161010f565b1015613759565b565b505050565b508061386061385a60006112ab565b9161010f565b146137c7565b600090565b90613874613866565b506138826102408301611d6f565b61389561388f60016109dc565b916109dc565b141580156138e0575b91826138aa575b505090565b6138d79192506138cc60006138c56101206138d194016107e9565b94016107e9565b61010f565b9161010f565b141538806138a5565b506138ee6102408301611d6f565b6139016138fb60026109dc565b916109dc565b141561389e565b906139129061188a565b600052602052604060002090565b906139296116e8565b506139326116e8565b50613981600061397b6139436129df565b94613975600261396b85613965838b0161395f87600190612ac5565b90613908565b016118ef565b9701918490612ac5565b90613908565b016118ef565b90565b600293926139a460018361399c82956139ac97612a0d565b018092612a0d565b018092612a34565b0190565b906139ef926139db6139ea926139c46129ea565b5091936139cf610043565b94859360208501613984565b6020820181038252038261007d565b612a83565b90565b7fbf93ccae7e050fdad00615e220e3f9b7ebb112ac9318fb8604653a7d8091238890565b613a1e6139f2565b90565b606090565b90565b613a416000613a4692613a3a613a21565b5001613a26565b6147d9565b613a4e613a21565b5090565b613a5b9061010f565b6000198114613a6a5760010190565b61134e565b919091613a7a6116e8565b92613a8481612c0c565b92613a8f60006112ab565b5b80613aa3613a9d8761010f565b9161010f565b1015613b0957613ae1613abf613aba858490612deb565b612a72565b613adc613ad76004613acf613a16565b018890612e0b565b612c09565b613b10565b613af4575b613aef906112c7565b613a90565b94613b01613aef91613a52565b959050613ae6565b5092505050565b90613b296000613b2e93613b22613866565b5001613a26565b614809565b90565b613b39612c53565b90565b90613b469061188a565b600052602052604060002090565b90613b5e9061188a565b600052602052604060002090565b90565b613b7b613b80916118d2565b613b6c565b90565b613b8d9054613b6f565b90565b90613b9a906100b9565b9052565b60018060801b031690565b613bb5613bba916118d2565b613b9e565b90565b613bc79054613ba9565b90565b90613bd4906100e0565b9052565b60801c90565b613bea613bef91613bd8565b613b9e565b90565b613bfc9054613bde565b90565b613c0b613c1091611963565b61192e565b90565b613c1d9054613bff565b90565b60101c90565b613c32613c3791613c20565b61192e565b90565b613c449054613c26565b90565b60181c90565b613c59613c5e91613c47565b61192e565b90565b613c6b9054613c4d565b90565b60201c90565b613c80613c8591613c6e565b61192e565b90565b613c929054613c74565b90565b60018060401b031690565b613cac613cb1916119a1565b613c95565b90565b613cbe9054613ca0565b90565b90613ccb9061015f565b9052565b60681c90565b613ce1613ce691613ccf565b613c95565b90565b613cf39054613cd5565b90565b60a81c90565b613d08613d0d91613cf6565b613c95565b90565b613d1a9054613cfc565b90565b613d29613d2e916118d2565b611969565b90565b613d3b9054613d1d565b90565b60ff1690565b613d50613d5591613c6e565b613d3e565b90565b613d629054613d44565b90565b613d71613d76916119a1565b6134aa565b90565b613d839054613d65565b90565b60018060601b031690565b613d9d613da2916118d2565b613d86565b90565b613daf9054613d91565b90565b90613dbc90610220565b9052565b613dcc613dd191613c20565b6119a7565b90565b613dde9054613dc0565b90565b613ded613df291613c6e565b613d86565b90565b613dff9054613de1565b90565b613e0e613e13916118d2565b613d3e565b90565b613e209054613e02565b90565b9061407c6140726009613e34612c27565b94613e4d613e4460008301613b83565b60008801613b90565b613e65613e5c60018301613bbd565b60208801613bca565b613e7d613e7460018301613bf2565b60408801613bca565b613e95613e8c600283016118ef565b606088016107ce565b613ead613ea4600383016118ef565b608088016107ce565b613ec5613ebc60048301611948565b60a08801611955565b613edd613ed460048301613c13565b60c08801611955565b613ef5613eec60048301613c3a565b60e08801611955565b613f0e613f0460048301613c61565b6101008801611955565b613f27613f1d60048301613c88565b6101208801611955565b613f40613f3660048301613cb4565b6101408801613cc1565b613f59613f4f60048301613ce9565b6101608801613cc1565b613f72613f6860048301613d10565b6101808801613cc1565b613f8b613f8160058301613d31565b6101a08801611993565b613fa4613f9a60058301613d58565b6101c08801611387565b613fbd613fb360058301613d79565b6101e08801611e66565b613fd6613fcc60068301613da5565b6102008801613db2565b613fef613fe5600783016118ef565b61022088016107ce565b614008613ffe60088301611948565b6102408801611955565b61402161401760088301613c13565b6102608801611955565b61403a61403060088301613dd4565b61028088016119cf565b61405361404960088301613df5565b6102a08801613db2565b61406c61406260088301613bf2565b6102c08801613bca565b01613e16565b6102e08401611387565b565b61408790613e23565b90565b61409e6140996140a392611322565b6107f6565b61010f565b90565b906140b09061188a565b600052602052604060002090565b906140c8906118ae565b600052602052604060002090565b6140e56140eb9193929361010f565b9261010f565b82039182116140f657565b61134e565b60001b90565b9061410e600019916140fb565b9181191691161790565b61412c6141276141319261010f565b6107f6565b61010f565b90565b90565b9061414c61414761415392614118565b614134565b8254614101565b9055565b919061416d61416861417593614118565b614134565b908354612e3d565b9055565b61418b916141856116e8565b91614157565b565b600960009161419e83808301612e91565b8260018201556141b18360028301614179565b6141be8360038301614179565b8260048201558260058201558260068201556141dd8360078301614179565b8260088201550155565b906000036141fa576141f89061418d565b565b612f3f565b919061430d9061420d613b31565b506143086143036142f061423e614239614232600061422a613a16565b018a90613b3c565b8690613b54565b61407e565b9661429061424c600161408a565b61428a61427b8b6142756101e061426e6002614266613a16565b0189906140a6565b92016107dc565b906140be565b91614285836118ef565b6140d6565b90614137565b6142b860006142b36142ac826142a4613a16565b018590613b3c565b8890613b54565b6141e7565b6142df6142d86142d360046142cb613a16565b018490612e0b565b612c09565b869061483f565b5060036142ea613a16565b01612bd9565b6142fd6101e088016107dc565b90612bf1565b612c09565b61483f565b50565b61431f6143259193929361010f565b9261010f565b820180921161433057565b61134e565b90919392936143ef6143e661435161434b613302565b976148a8565b509261435b611dce565b8461436f6143696000611d7c565b9161085d565b1361451b575b61439761438e614387898585916149bc565b8790611d98565b60008b01611920565b6143c16143b86143b16143ac60208b016107e9565b613181565b8490614a4e565b60208b01611920565b6143db6143d2878985908592614a93565b60408b016107ce565b859187909192614c23565b60608701611920565b6143fb600084016107e9565b61441961441361440e61012086016107e9565b61010f565b9161010f565b146144d4575b5061444d614444614432602085016107e9565b61443e604088016107e9565b906140d6565b60c086016107ce565b61447761447161446c610120614465600087016107e9565b94016107e9565b61010f565b9161010f565b146000146144a25761449661449160206144a093016107e9565b613181565b5b60a08401611920565b565b506144a06144cf6144bd6144b860c086016107e9565b613181565b6144c960808601610e95565b90611d98565b614497565b6144e06144fc91613205565b6144f660208501916144f1836107e9565b6140d6565b906107ce565b61451561450b602084016107e9565b61016083016107ce565b3861441f565b6145436145278661314f565b61453d60208a0191614538836107e9565b614310565b906107ce565b6145508560808b01611920565b614375565b61456461456a9193929361085d565b9261085d565b8083019260008285121581831216928512911215161761458657565b61134e565b9291906145f8906145f361459d6116e8565b956145ee6145e96145e46145cb6145c6896145c06145bb6002610e33565b610e79565b90610e59565b610e95565b976145de6145d96001610e33565b610e79565b90610e59565b610e95565b61330d565b614555565b614555565b908061460d6146076000611d7c565b9161085d565b1380614649575b61461c575050565b6146469293509061463b61464192916146356000611d7c565b90614da7565b90611d98565b61314f565b90565b508061465d6146578461085d565b9161085d565b13614614565b61466c906107f9565b90565b61467890614663565b90565b8261468f61468960006112ab565b9161010f565b146146bd576146b66146ae6146a86146bb9584906135df565b92613544565b92919261466f565b614e30565b565b505050565b7f2eec39e2b6bcfb5f1ee2be0b6e9d5a470a45585b1e2f7f291af9fb9f551763d090565b6146ee6146c2565b90565b61471161471691614700613471565b50600261470b6146e6565b01613492565b6134c9565b90565b60209181520190565b9061472f81602093610a01565b0190565b61473d9054613b6f565b90565b60010190565b9061476361475d61475684612e23565b8093614719565b92612e32565b9060005b8181106147745750505090565b90919261479461478e60019261478987614733565b614722565b94614740565b9101919091614767565b906147a891614746565b90565b906147cb6147c4926147bb610043565b9384809261479e565b038361007d565b565b6147d6906147ab565b90565b60006147ee916147e7613a21565b50016147cd565b90565b906147fb9061188a565b600052602052604060002090565b6148279160016148229261481b613866565b50016147f1565b6118ef565b61483a61483460006112ab565b9161010f565b141590565b90614858600061485d93614851613866565b5001613a26565b614f4d565b90565b606090565b906148776148728361083d565b6100a4565b918252565b369037565b906148a661488e83614865565b9260208061489c869361083d565b920191039061487c565b565b6148b0611dce565b506148b9614860565b506148de6148d9826148d36148ce6002610e33565b610e79565b90610e59565b610e95565b90816148f36148ed6000611d7c565b9161085d565b12156149ab5761490a61490582610e55565b614881565b9261491560006112ab565b5b8061493161492b61492686610e55565b61010f565b9161010f565b101561496d576149689061496361495161494c868490610e59565b610e95565b61495e8891849092610e59565b611920565b6112c7565b614916565b50916149a791506149a26149816000611d7c565b61499d866149976149926002610e33565b610e79565b90610e59565b611920565b61330d565b9190565b9190506149b86000611d7c565b9190565b9291906149e4906149df6149da60206149d3611dce565b97016107e9565b613181565b614555565b816149f86149f26000611d7c565b9161085d565b12614a285780614a11614a0b6000611d7c565b9161085d565b13614a1a575050565b614a25929350615057565b90565b614a4a82614a34610043565b91829163cf36c50960e01b8352600483016131ef565b0390fd5b90614a57611dce565b50614a63828290614555565b614a76614a706000611d7c565b9161085d565b1315600014614a8457505b90565b614a8e915061330d565b614a81565b91929092614a9f6116e8565b50614aac600085016107e9565b614aca614ac4614abf61012087016107e9565b61010f565b9161010f565b1480614c05575b614ade6102408501611d6f565b614af1614aeb60006109dc565b916109dc565b1415908115614bfd575b50614bec57614b28614b21614b1a614b15602088016107e9565b613181565b8390614555565b8390611d98565b614b3b614b356000611d7c565b9161085d565b1315614bdb57614b6a614b63614b5c614b5761016087016107e9565b613181565b8390614555565b8390611d98565b614b7d614b776000611d7c565b9161085d565b12614ba9575050614ba0610160614b996020614ba695016107e9565b92016107e9565b906140d6565b90565b614bd39250614bce90614bc9614bc46020614bd897016107e9565b613181565b614555565b611d98565b613205565b90565b50505050614be960006112ab565b90565b50505050614bfa60006112ab565b90565b905038614afb565b614c1e614c14602087016107e9565b61016086016107ce565b614ad1565b9290614c7f614c78614c736020614c8694614c3c611dce565b50614c49600082016107e9565b614c67614c61614c5c6101208d016107e9565b61010f565b9161010f565b14614d8a575b016107e9565b613181565b8490614555565b8290611d98565b614c99614c936000611d7c565b9161085d565b1315614d7a57614cc8614cc1614cba614cb561016087016107e9565b613181565b8490614555565b8290611d98565b614cdb614cd56000611d7c565b9161085d565b13614d5057614d0890614d03614cfc614cf761016087016107e9565b613181565b8490614555565b611d98565b614d1b614d156000611d7c565b9161085d565b1315614d4157614d39614d34610160614d3e94016107e9565b613181565b614555565b90565b5050614d4d6000611d7c565b90565b90614d7290614d6d614d68610160614d7796016107e9565b613181565b614555565b611d98565b90565b505050614d876000611d7c565b90565b614da2614d988383016107e9565b6101608b016107ce565b614c6d565b90614db0611dce565b5081614dc4614dbe8361085d565b9161085d565b13600014614dd157505b90565b9050614dce565b614de190610815565b90565b63ffffffff60e01b1690565b614e04614dff614e099261018e565b610832565b614de4565b90565b916020614e2e929493614e276040820196600083019061120d565b0190611dfe565b565b90614e77614e7c93614e6860049493614e4f63a9059cbb919391614df0565b92614e58610043565b9687946020860190815201614e0c565b6020820181038252038361007d565b6150bd565b565b614e8781612e23565b821015614ea257614e99600191612e32565b91020190600090565b610e3f565b614eb7906008614ebc9302612ec5565b613b6c565b90565b90614eca9154614ea7565b90565b90565b634e487b7160e01b600052603160045260246000fd5b5490565b600052602060002090565b614efe81614ee6565b821015614f1957614f10600191614eea565b91020190600090565b610e3f565b614f2781614ee6565b8015614f48576001900390614f45614f3f8383614ef5565b90612e91565b55565b614ed0565b614f55613866565b50614f6c614f676001830184906147f1565b6118ef565b9081614f81614f7b60006112ab565b9161010f565b141560001461504f57615001926001614ffc9284614faa600096614fa48561408a565b906140d6565b614fc7614fb8888501612e23565b614fc18661408a565b906140d6565b81614fda614fd48361010f565b9161010f565b03615006575b505050614ff6614ff1868301614ecd565b614f1e565b016147f1565b614179565b600190565b6150479261503961502561501f615042948c8901614e7e565b90614ebf565b9361503385918c8901614e7e565b90612e6f565b918585016147f1565b614137565b388080614fe0565b505050600090565b90615060611dce565b508161507461506e8361085d565b9161085d565b1260001461508157505b90565b905061507e565b906020828203126150a25761509f91600001610f03565b90565b61004e565b91906150bb9060006020850194019061120d565b565b906150d0906150cb83614dd8565b61515b565b6150d981612a68565b6150ec6150e660006112ab565b9161010f565b1415908161512b575b506150fd5750565b61510961512791614dd8565b615111610043565b918291635274afe760e01b8352600483016150a7565b0390fd5b615150915061514a90602061513f82612a68565b818301019101615088565b15610136565b386150f5565b606090565b9061517a91615168615156565b509061517460006112ab565b916151ec565b90565b61518690610815565b90565b60018060401b0381116151a5576151a160209161005d565b0190565b610067565b906151bc6151b783615189565b6100a4565b918252565b3d6000146151de576151d23d6151aa565b903d6000602084013e5b565b6151e6615156565b906151dc565b90916151f6615156565b506152003061517d565b3161521361520d8361010f565b9161010f565b10615240576000809161523d948491602082019151925af1906152346151c1565b9091909161526e565b90565b61526a61524c3061517d565b615254610043565b91829163cd78605960e01b8352600483016150a7565b0390fd5b906152829061527b615156565b5015610136565b60001461528f57506152fc565b61529882612a68565b6152ab6152a560006112ab565b9161010f565b14806152e0575b6152ba575090565b6152dc906152c6610043565b918291639996b31560e01b8352600483016150a7565b0390fd5b50803b6152f66152f060006112ab565b9161010f565b146152b2565b61530581612a68565b61531861531260006112ab565b9161010f565b1160001461532857805190602001fd5b615330610043565b630a12f52160e11b81528061534760048201610700565b0390fdfea264697066735822122003bb070deae594e09a610854a7e7da970a76bc0ad0eba493553de11701ed4df464736f6c63430008180033",
  "devdoc": {
    "errors": {
      "AddressEmptyCode(address)": [
        {
          "details": "There's no code at `target` (it is not a contract)."
        }
      ],
      "AddressInsufficientBalance(address)": [
        {
          "details": "The ETH balance of the account is not enough to perform the operation."
        }
      ],
      "FailedInnerCall()": [
        {
          "details": "A call to an address target failed. The target may have reverted."
        }
      ],
      "SafeCastOverflowedIntToUint(int256)": [
        {
          "details": "An int value doesn't fit in an uint of `bits` size."
        }
      ],
      "SafeCastOverflowedUintToInt(uint256)": [
        {
          "details": "An uint value doesn't fit in an int of `bits` size."
        }
      ],
      "SafeERC20FailedOperation(address)": [
        {
          "details": "An operation with an ERC20 token failed."
        }
      ]
    },
    "kind": "dev",
    "methods": {},
    "version": 1
  },
  "userdoc": {
    "kind": "user",
    "methods": {},
    "version": 1
  },
  "storageLayout": {
    "storage": [],
    "types": null
  }
}