{
  "address": "0xF963992e5954D5a78c491c8e0F4E4F79C16cf967",
  "abi": [
    {
      "inputs": [
        {
          "internalType": "address",
          "name": "authority",
          "type": "address"
        }
      ],
      "name": "AccessManagedInvalidAuthority",
      "type": "error"
    },
    {
      "inputs": [
        {
          "internalType": "address",
          "name": "caller",
          "type": "address"
        },
        {
          "internalType": "uint32",
          "name": "delay",
          "type": "uint32"
        }
      ],
      "name": "AccessManagedRequiredDelay",
      "type": "error"
    },
    {
      "inputs": [
        {
          "internalType": "address",
          "name": "caller",
          "type": "address"
        }
      ],
      "name": "AccessManagedUnauthorized",
      "type": "error"
    },
    {
      "inputs": [
        {
          "internalType": "int256",
          "name": "value",
          "type": "int256"
        }
      ],
      "name": "SafeCastOverflowedIntToUint",
      "type": "error"
    },
    {
      "inputs": [
        {
          "internalType": "uint256",
          "name": "value",
          "type": "uint256"
        }
      ],
      "name": "SafeCastOverflowedUintToInt",
      "type": "error"
    },
    {
      "anonymous": false,
      "inputs": [
        {
          "indexed": false,
          "internalType": "uint16",
          "name": "market",
          "type": "uint16"
        },
        {
          "indexed": false,
          "internalType": "bool",
          "name": "isLong",
          "type": "bool"
        },
        {
          "components": [
            {
              "internalType": "uint256",
              "name": "size",
              "type": "uint256"
            },
            {
              "internalType": "uint256",
              "name": "collateral",
              "type": "uint256"
            },
            {
              "internalType": "int256",
              "name": "entryFundingRate",
              "type": "int256"
            },
            {
              "internalType": "int256",
              "name": "realisedPnl",
              "type": "int256"
            },
            {
              "internalType": "uint256",
              "name": "averagePrice",
              "type": "uint256"
            },
            {
              "internalType": "bool",
              "name": "isLong",
              "type": "bool"
            },
            {
              "internalType": "uint32",
              "name": "lastTime",
              "type": "uint32"
            },
            {
              "internalType": "uint16",
              "name": "market",
              "type": "uint16"
            },
            {
              "internalType": "uint72",
              "name": "extra0",
              "type": "uint72"
            }
          ],
          "indexed": false,
          "internalType": "struct PositionProps",
          "name": "oldPosition",
          "type": "tuple"
        },
        {
          "components": [
            {
              "internalType": "uint256",
              "name": "size",
              "type": "uint256"
            },
            {
              "internalType": "uint256",
              "name": "collateral",
              "type": "uint256"
            },
            {
              "internalType": "int256",
              "name": "entryFundingRate",
              "type": "int256"
            },
            {
              "internalType": "int256",
              "name": "realisedPnl",
              "type": "int256"
            },
            {
              "internalType": "uint256",
              "name": "averagePrice",
              "type": "uint256"
            },
            {
              "internalType": "bool",
              "name": "isLong",
              "type": "bool"
            },
            {
              "internalType": "uint32",
              "name": "lastTime",
              "type": "uint32"
            },
            {
              "internalType": "uint16",
              "name": "market",
              "type": "uint16"
            },
            {
              "internalType": "uint72",
              "name": "extra0",
              "type": "uint72"
            }
          ],
          "indexed": false,
          "internalType": "struct PositionProps",
          "name": "newPosition",
          "type": "tuple"
        }
      ],
      "name": "GlobalPositionUpdate",
      "type": "event"
    },
    {
      "anonymous": false,
      "inputs": [
        {
          "indexed": true,
          "internalType": "address",
          "name": "account",
          "type": "address"
        },
        {
          "indexed": false,
          "internalType": "uint16",
          "name": "market",
          "type": "uint16"
        },
        {
          "indexed": false,
          "internalType": "bool",
          "name": "isLong",
          "type": "bool"
        },
        {
          "components": [
            {
              "internalType": "uint256",
              "name": "size",
              "type": "uint256"
            },
            {
              "internalType": "uint256",
              "name": "collateral",
              "type": "uint256"
            },
            {
              "internalType": "int256",
              "name": "entryFundingRate",
              "type": "int256"
            },
            {
              "internalType": "int256",
              "name": "realisedPnl",
              "type": "int256"
            },
            {
              "internalType": "uint256",
              "name": "averagePrice",
              "type": "uint256"
            },
            {
              "internalType": "bool",
              "name": "isLong",
              "type": "bool"
            },
            {
              "internalType": "uint32",
              "name": "lastTime",
              "type": "uint32"
            },
            {
              "internalType": "uint16",
              "name": "market",
              "type": "uint16"
            },
            {
              "internalType": "uint72",
              "name": "extra0",
              "type": "uint72"
            }
          ],
          "indexed": false,
          "internalType": "struct PositionProps",
          "name": "oldPosition",
          "type": "tuple"
        }
      ],
      "name": "PositionDelete",
      "type": "event"
    },
    {
      "anonymous": false,
      "inputs": [
        {
          "indexed": true,
          "internalType": "address",
          "name": "account",
          "type": "address"
        },
        {
          "indexed": false,
          "internalType": "uint16",
          "name": "market",
          "type": "uint16"
        },
        {
          "indexed": false,
          "internalType": "bool",
          "name": "isLong",
          "type": "bool"
        }
      ],
      "name": "PositionKeyAdd",
      "type": "event"
    },
    {
      "anonymous": false,
      "inputs": [
        {
          "indexed": true,
          "internalType": "address",
          "name": "account",
          "type": "address"
        },
        {
          "indexed": false,
          "internalType": "uint16",
          "name": "market",
          "type": "uint16"
        },
        {
          "indexed": false,
          "internalType": "bool",
          "name": "isLong",
          "type": "bool"
        }
      ],
      "name": "PositionKeyDelete",
      "type": "event"
    },
    {
      "anonymous": false,
      "inputs": [
        {
          "indexed": true,
          "internalType": "address",
          "name": "account",
          "type": "address"
        },
        {
          "indexed": false,
          "internalType": "uint16",
          "name": "market",
          "type": "uint16"
        },
        {
          "indexed": false,
          "internalType": "bool",
          "name": "isLong",
          "type": "bool"
        },
        {
          "components": [
            {
              "internalType": "uint256",
              "name": "size",
              "type": "uint256"
            },
            {
              "internalType": "uint256",
              "name": "collateral",
              "type": "uint256"
            },
            {
              "internalType": "int256",
              "name": "entryFundingRate",
              "type": "int256"
            },
            {
              "internalType": "int256",
              "name": "realisedPnl",
              "type": "int256"
            },
            {
              "internalType": "uint256",
              "name": "averagePrice",
              "type": "uint256"
            },
            {
              "internalType": "bool",
              "name": "isLong",
              "type": "bool"
            },
            {
              "internalType": "uint32",
              "name": "lastTime",
              "type": "uint32"
            },
            {
              "internalType": "uint16",
              "name": "market",
              "type": "uint16"
            },
            {
              "internalType": "uint72",
              "name": "extra0",
              "type": "uint72"
            }
          ],
          "indexed": false,
          "internalType": "struct PositionProps",
          "name": "oldPosition",
          "type": "tuple"
        },
        {
          "components": [
            {
              "internalType": "uint256",
              "name": "size",
              "type": "uint256"
            },
            {
              "internalType": "uint256",
              "name": "collateral",
              "type": "uint256"
            },
            {
              "internalType": "int256",
              "name": "entryFundingRate",
              "type": "int256"
            },
            {
              "internalType": "int256",
              "name": "realisedPnl",
              "type": "int256"
            },
            {
              "internalType": "uint256",
              "name": "averagePrice",
              "type": "uint256"
            },
            {
              "internalType": "bool",
              "name": "isLong",
              "type": "bool"
            },
            {
              "internalType": "uint32",
              "name": "lastTime",
              "type": "uint32"
            },
            {
              "internalType": "uint16",
              "name": "market",
              "type": "uint16"
            },
            {
              "internalType": "uint72",
              "name": "extra0",
              "type": "uint72"
            }
          ],
          "indexed": false,
          "internalType": "struct PositionProps",
          "name": "newPosition",
          "type": "tuple"
        }
      ],
      "name": "PositionUpdate",
      "type": "event"
    },
    {
      "inputs": [
        {
          "components": [
            {
              "internalType": "uint16",
              "name": "market",
              "type": "uint16"
            },
            {
              "internalType": "address",
              "name": "account",
              "type": "address"
            },
            {
              "internalType": "int256",
              "name": "collateralDelta",
              "type": "int256"
            },
            {
              "internalType": "uint256",
              "name": "sizeDelta",
              "type": "uint256"
            },
            {
              "internalType": "int256",
              "name": "fundingRate",
              "type": "int256"
            },
            {
              "internalType": "bool",
              "name": "isLong",
              "type": "bool"
            }
          ],
          "internalType": "struct DecreasePositionInputs",
          "name": "inputs",
          "type": "tuple"
        }
      ],
      "name": "_decreasePosition",
      "outputs": [
        {
          "components": [
            {
              "internalType": "uint256",
              "name": "size",
              "type": "uint256"
            },
            {
              "internalType": "uint256",
              "name": "collateral",
              "type": "uint256"
            },
            {
              "internalType": "int256",
              "name": "entryFundingRate",
              "type": "int256"
            },
            {
              "internalType": "int256",
              "name": "realisedPnl",
              "type": "int256"
            },
            {
              "internalType": "uint256",
              "name": "averagePrice",
              "type": "uint256"
            },
            {
              "internalType": "bool",
              "name": "isLong",
              "type": "bool"
            },
            {
              "internalType": "uint32",
              "name": "lastTime",
              "type": "uint32"
            },
            {
              "internalType": "uint16",
              "name": "market",
              "type": "uint16"
            },
            {
              "internalType": "uint72",
              "name": "extra0",
              "type": "uint72"
            }
          ],
          "internalType": "struct PositionProps",
          "name": "result",
          "type": "tuple"
        }
      ],
      "stateMutability": "nonpayable",
      "type": "function"
    },
    {
      "inputs": [
        {
          "components": [
            {
              "internalType": "uint16",
              "name": "market",
              "type": "uint16"
            },
            {
              "internalType": "address",
              "name": "account",
              "type": "address"
            },
            {
              "internalType": "int256",
              "name": "collateralDelta",
              "type": "int256"
            },
            {
              "internalType": "uint256",
              "name": "sizeDelta",
              "type": "uint256"
            },
            {
              "internalType": "uint256",
              "name": "markPrice",
              "type": "uint256"
            },
            {
              "internalType": "int256",
              "name": "fundingRate",
              "type": "int256"
            },
            {
              "internalType": "bool",
              "name": "isLong",
              "type": "bool"
            }
          ],
          "internalType": "struct IncreasePositionInputs",
          "name": "_data",
          "type": "tuple"
        }
      ],
      "name": "_increasePosition",
      "outputs": [
        {
          "components": [
            {
              "internalType": "uint256",
              "name": "size",
              "type": "uint256"
            },
            {
              "internalType": "uint256",
              "name": "collateral",
              "type": "uint256"
            },
            {
              "internalType": "int256",
              "name": "entryFundingRate",
              "type": "int256"
            },
            {
              "internalType": "int256",
              "name": "realisedPnl",
              "type": "int256"
            },
            {
              "internalType": "uint256",
              "name": "averagePrice",
              "type": "uint256"
            },
            {
              "internalType": "bool",
              "name": "isLong",
              "type": "bool"
            },
            {
              "internalType": "uint32",
              "name": "lastTime",
              "type": "uint32"
            },
            {
              "internalType": "uint16",
              "name": "market",
              "type": "uint16"
            },
            {
              "internalType": "uint72",
              "name": "extra0",
              "type": "uint72"
            }
          ],
          "internalType": "struct PositionProps",
          "name": "result",
          "type": "tuple"
        }
      ],
      "stateMutability": "nonpayable",
      "type": "function"
    },
    {
      "inputs": [
        {
          "internalType": "uint16",
          "name": "market",
          "type": "uint16"
        },
        {
          "internalType": "address",
          "name": "account",
          "type": "address"
        },
        {
          "internalType": "uint256",
          "name": "oraclePrice",
          "type": "uint256"
        },
        {
          "internalType": "bool",
          "name": "isLong",
          "type": "bool"
        }
      ],
      "name": "_liquidatePosition",
      "outputs": [
        {
          "components": [
            {
              "internalType": "uint256",
              "name": "size",
              "type": "uint256"
            },
            {
              "internalType": "uint256",
              "name": "collateral",
              "type": "uint256"
            },
            {
              "internalType": "int256",
              "name": "entryFundingRate",
              "type": "int256"
            },
            {
              "internalType": "int256",
              "name": "realisedPnl",
              "type": "int256"
            },
            {
              "internalType": "uint256",
              "name": "averagePrice",
              "type": "uint256"
            },
            {
              "internalType": "bool",
              "name": "isLong",
              "type": "bool"
            },
            {
              "internalType": "uint32",
              "name": "lastTime",
              "type": "uint32"
            },
            {
              "internalType": "uint16",
              "name": "market",
              "type": "uint16"
            },
            {
              "internalType": "uint72",
              "name": "extra0",
              "type": "uint72"
            }
          ],
          "internalType": "struct PositionProps",
          "name": "result",
          "type": "tuple"
        }
      ],
      "stateMutability": "nonpayable",
      "type": "function"
    },
    {
      "inputs": [
        {
          "internalType": "uint16",
          "name": "market",
          "type": "uint16"
        },
        {
          "internalType": "address",
          "name": "account",
          "type": "address"
        }
      ],
      "name": "containsPositionOfUser",
      "outputs": [
        {
          "internalType": "bool",
          "name": "",
          "type": "bool"
        }
      ],
      "stateMutability": "view",
      "type": "function"
    },
    {
      "inputs": [
        {
          "internalType": "uint16",
          "name": "market",
          "type": "uint16"
        },
        {
          "internalType": "address",
          "name": "account",
          "type": "address"
        }
      ],
      "name": "getAccountSize",
      "outputs": [
        {
          "internalType": "uint256",
          "name": "",
          "type": "uint256"
        },
        {
          "internalType": "uint256",
          "name": "",
          "type": "uint256"
        }
      ],
      "stateMutability": "view",
      "type": "function"
    },
    {
      "inputs": [
        {
          "internalType": "uint16",
          "name": "market",
          "type": "uint16"
        },
        {
          "internalType": "bool",
          "name": "isLong",
          "type": "bool"
        }
      ],
      "name": "getGlobalPosition",
      "outputs": [
        {
          "components": [
            {
              "internalType": "uint256",
              "name": "size",
              "type": "uint256"
            },
            {
              "internalType": "uint256",
              "name": "collateral",
              "type": "uint256"
            },
            {
              "internalType": "int256",
              "name": "entryFundingRate",
              "type": "int256"
            },
            {
              "internalType": "int256",
              "name": "realisedPnl",
              "type": "int256"
            },
            {
              "internalType": "uint256",
              "name": "averagePrice",
              "type": "uint256"
            },
            {
              "internalType": "bool",
              "name": "isLong",
              "type": "bool"
            },
            {
              "internalType": "uint32",
              "name": "lastTime",
              "type": "uint32"
            },
            {
              "internalType": "uint16",
              "name": "market",
              "type": "uint16"
            },
            {
              "internalType": "uint72",
              "name": "extra0",
              "type": "uint72"
            }
          ],
          "internalType": "struct PositionProps",
          "name": "",
          "type": "tuple"
        }
      ],
      "stateMutability": "view",
      "type": "function"
    },
    {
      "inputs": [
        {
          "internalType": "uint16",
          "name": "market",
          "type": "uint16"
        }
      ],
      "name": "getMarketSizes",
      "outputs": [
        {
          "internalType": "uint256",
          "name": "",
          "type": "uint256"
        },
        {
          "internalType": "uint256",
          "name": "",
          "type": "uint256"
        }
      ],
      "stateMutability": "view",
      "type": "function"
    },
    {
      "inputs": [
        {
          "internalType": "uint16",
          "name": "market",
          "type": "uint16"
        }
      ],
      "name": "getPNLOfMarket",
      "outputs": [
        {
          "internalType": "int256",
          "name": "pnl",
          "type": "int256"
        }
      ],
      "stateMutability": "view",
      "type": "function"
    },
    {
      "inputs": [
        {
          "internalType": "uint16",
          "name": "market",
          "type": "uint16"
        },
        {
          "internalType": "address",
          "name": "account",
          "type": "address"
        },
        {
          "internalType": "uint256",
          "name": "sizeDelta",
          "type": "uint256"
        },
        {
          "internalType": "uint256",
          "name": "markPrice",
          "type": "uint256"
        },
        {
          "internalType": "bool",
          "name": "isLong",
          "type": "bool"
        }
      ],
      "name": "getPNLOfUser",
      "outputs": [
        {
          "internalType": "int256",
          "name": "",
          "type": "int256"
        }
      ],
      "stateMutability": "view",
      "type": "function"
    },
    {
      "inputs": [
        {
          "internalType": "uint16",
          "name": "market",
          "type": "uint16"
        },
        {
          "internalType": "address",
          "name": "account",
          "type": "address"
        },
        {
          "internalType": "uint256",
          "name": "markPrice",
          "type": "uint256"
        },
        {
          "internalType": "bool",
          "name": "isLong",
          "type": "bool"
        }
      ],
      "name": "getPosition",
      "outputs": [
        {
          "components": [
            {
              "internalType": "uint256",
              "name": "size",
              "type": "uint256"
            },
            {
              "internalType": "uint256",
              "name": "collateral",
              "type": "uint256"
            },
            {
              "internalType": "int256",
              "name": "entryFundingRate",
              "type": "int256"
            },
            {
              "internalType": "int256",
              "name": "realisedPnl",
              "type": "int256"
            },
            {
              "internalType": "uint256",
              "name": "averagePrice",
              "type": "uint256"
            },
            {
              "internalType": "bool",
              "name": "isLong",
              "type": "bool"
            },
            {
              "internalType": "uint32",
              "name": "lastTime",
              "type": "uint32"
            },
            {
              "internalType": "uint16",
              "name": "market",
              "type": "uint16"
            },
            {
              "internalType": "uint72",
              "name": "extra0",
              "type": "uint72"
            }
          ],
          "internalType": "struct PositionProps",
          "name": "",
          "type": "tuple"
        }
      ],
      "stateMutability": "view",
      "type": "function"
    },
    {
      "inputs": [
        {
          "internalType": "uint16",
          "name": "market",
          "type": "uint16"
        },
        {
          "internalType": "bool",
          "name": "isLong",
          "type": "bool"
        }
      ],
      "name": "getPositionCount",
      "outputs": [
        {
          "internalType": "uint256",
          "name": "",
          "type": "uint256"
        }
      ],
      "stateMutability": "view",
      "type": "function"
    },
    {
      "inputs": [
        {
          "internalType": "uint16",
          "name": "market",
          "type": "uint16"
        },
        {
          "internalType": "uint256",
          "name": "start",
          "type": "uint256"
        },
        {
          "internalType": "uint256",
          "name": "end",
          "type": "uint256"
        },
        {
          "internalType": "bool",
          "name": "isLong",
          "type": "bool"
        }
      ],
      "name": "getPositionKeys",
      "outputs": [
        {
          "internalType": "address[]",
          "name": "",
          "type": "address[]"
        }
      ],
      "stateMutability": "view",
      "type": "function"
    },
    {
      "inputs": [
        {
          "internalType": "uint16",
          "name": "market",
          "type": "uint16"
        },
        {
          "internalType": "address",
          "name": "account",
          "type": "address"
        }
      ],
      "name": "getPositions",
      "outputs": [
        {
          "components": [
            {
              "internalType": "uint256",
              "name": "size",
              "type": "uint256"
            },
            {
              "internalType": "uint256",
              "name": "collateral",
              "type": "uint256"
            },
            {
              "internalType": "int256",
              "name": "entryFundingRate",
              "type": "int256"
            },
            {
              "internalType": "int256",
              "name": "realisedPnl",
              "type": "int256"
            },
            {
              "internalType": "uint256",
              "name": "averagePrice",
              "type": "uint256"
            },
            {
              "internalType": "bool",
              "name": "isLong",
              "type": "bool"
            },
            {
              "internalType": "uint32",
              "name": "lastTime",
              "type": "uint32"
            },
            {
              "internalType": "uint16",
              "name": "market",
              "type": "uint16"
            },
            {
              "internalType": "uint72",
              "name": "extra0",
              "type": "uint72"
            }
          ],
          "internalType": "struct PositionProps",
          "name": "posLong",
          "type": "tuple"
        },
        {
          "components": [
            {
              "internalType": "uint256",
              "name": "size",
              "type": "uint256"
            },
            {
              "internalType": "uint256",
              "name": "collateral",
              "type": "uint256"
            },
            {
              "internalType": "int256",
              "name": "entryFundingRate",
              "type": "int256"
            },
            {
              "internalType": "int256",
              "name": "realisedPnl",
              "type": "int256"
            },
            {
              "internalType": "uint256",
              "name": "averagePrice",
              "type": "uint256"
            },
            {
              "internalType": "bool",
              "name": "isLong",
              "type": "bool"
            },
            {
              "internalType": "uint32",
              "name": "lastTime",
              "type": "uint32"
            },
            {
              "internalType": "uint16",
              "name": "market",
              "type": "uint16"
            },
            {
              "internalType": "uint72",
              "name": "extra0",
              "type": "uint72"
            }
          ],
          "internalType": "struct PositionProps",
          "name": "posShort",
          "type": "tuple"
        }
      ],
      "stateMutability": "view",
      "type": "function"
    },
    {
      "inputs": [
        {
          "internalType": "address",
          "name": "_account",
          "type": "address"
        },
        {
          "internalType": "uint16",
          "name": "_market",
          "type": "uint16"
        },
        {
          "internalType": "bool",
          "name": "_isLong",
          "type": "bool"
        },
        {
          "internalType": "uint256",
          "name": "_price",
          "type": "uint256"
        }
      ],
      "name": "isLiquidate",
      "outputs": [
        {
          "internalType": "enum LiquidationState",
          "name": "_state",
          "type": "uint8"
        }
      ],
      "stateMutability": "view",
      "type": "function"
    }
  ],
  "transactionHash": "0x4ab6d1be834f3cc339c217355758968aba1690ff432f82faf715d49a8e8aef40",
  "args": [],
  "numDeployments": 3,
  "solcInputHash": "ae8e633405c82115b04e4b26f122c4f8",
  "bytecode": "0x60806040523462000023576200001462000029565b613a01620000358239613a0190f35b6200002f565b60405190565b600080fdfe60806040526004361015610013575b6109b0565b61001e6000356100fd565b8063334253c1146100f857806341ec6c65146100f35780634da4ef30146100ee57806355304097146100e9578063653d64b6146100e457806371127e8a146100df57806388639412146100da57806389d797b9146100d55780638d094b1e146100d0578063991ceecf146100cb578063bd11025d146100c6578063d76ce277146100c1578063daa39c53146100bc5763ee8936880361000e5761097b565b610912565b6108dd565b6108a7565b610858565b610821565b6107c2565b610745565b6106be565b610638565b6105d1565b61051e565b610401565b610270565b60e01c90565b60405190565b600080fd5b600080fd5b60018060a01b031690565b61012790610113565b90565b6101338161011e565b0361013a57565b600080fd5b9050359061014c8261012a565b565b61ffff1690565b61015e8161014e565b0361016557565b600080fd5b9050359061017782610155565b565b151590565b61018781610179565b0361018e57565b600080fd5b905035906101a08261017e565b565b90565b6101ae816101a2565b036101b557565b600080fd5b905035906101c7826101a5565b565b60808183031261020b576101e0826000830161013f565b926102086101f1846020850161016a565b936101ff8160408601610193565b936060016101ba565b90565b61010e565b634e487b7160e01b600052602160045260246000fd5b6003111561023057565b610210565b9061023f82610226565b565b61024a90610235565b90565b61025690610241565b9052565b919061026e9060006020850194019061024d565b565b346102a4576102a061028f6102863660046101c9565b929190916109ba565b610297610103565b9182918261025a565b0390f35b610109565b600080fd5b908160e09103126102bc5790565b6102a9565b9060e0828203126102db576102d8916000016102ae565b90565b61010e565b6102e9906101a2565b9052565b90565b6102f9906102ed565b9052565b61030690610179565b9052565b63ffffffff1690565b61031c9061030a565b9052565b6103299061014e565b9052565b60018060481b031690565b6103419061032d565b9052565b90610100806103e893610360600082015160008601906102e0565b610372602082015160208601906102e0565b610384604082015160408601906102f0565b610396606082015160608601906102f0565b6103a8608082015160808601906102e0565b6103ba60a082015160a08601906102fd565b6103cc60c082015160c0860190610313565b6103de60e082015160e0860190610320565b0151910190610338565b565b91906103ff9060006101208501940190610345565b565b346104315761042d61041c6104173660046102c1565b610cfd565b610424610103565b918291826103ea565b0390f35b610109565b6080818303126104785761044d826000830161016a565b9261047561045e84602085016101ba565b9361046c81604086016101ba565b93606001610193565b90565b61010e565b5190565b60209181520190565b60200190565b6104999061011e565b9052565b906104aa81602093610490565b0190565b60200190565b906104d16104cb6104c48461047d565b8093610481565b9261048a565b9060005b8181106104e25750505090565b9091926104fb6104f5600192865161049d565b946104ae565b91019190916104d5565b61051b91602082019160008184039101526104b4565b90565b346105525761054e61053d610534366004610436565b92919091610dc0565b610545610103565b91829182610505565b0390f35b610109565b919060a0838203126105a957610570816000850161016a565b9261057e826020830161013f565b926105a661058f84604085016101ba565b9361059d81606086016101ba565b93608001610193565b90565b61010e565b6105b7906102ed565b9052565b91906105cf906000602085019401906105ae565b565b34610605576106016105f06105e7366004610557565b93929092610e8b565b6105f8610103565b918291826105bb565b0390f35b610109565b91906040838203126106335780610627610630926000860161016a565b93602001610193565b90565b61010e565b346106695761066561065461064e36600461060a565b90610eaa565b61065c610103565b918291826103ea565b0390f35b610109565b90602082820312610688576106859160000161016a565b90565b61010e565b610696906101a2565b9052565b9160206106bc9294936106b56040820196600083019061068d565b019061068d565b565b346106ef576106d66106d136600461066e565b610ec5565b906106eb6106e2610103565b9283928361069a565b0390f35b610109565b919060408382031261071d578061071161071a926000860161016a565b9360200161013f565b90565b61010e565b61072b90610179565b9052565b919061074390600060208501940190610722565b565b346107765761077261076161075b3660046106f4565b90610f79565b610769610103565b9182918261072f565b0390f35b610109565b6080818303126107bd57610792826000830161016a565b926107ba6107a3846020850161013f565b936107b181604086016101ba565b93606001610193565b90565b61010e565b346107f6576107f26107e16107d836600461077b565b92919091611025565b6107e9610103565b918291826103ea565b0390f35b610109565b9161012061081f9294936108186102408201966000830190610345565b0190610345565b565b346108535761083a6108343660046106f4565b90611041565b9061084f610846610103565b928392836107fb565b0390f35b610109565b3461088c5761088861087761086e36600461077b565b929190916110bd565b61087f610103565b918291826103ea565b0390f35b610109565b91906108a59060006020850194019061068d565b565b346108d8576108d46108c36108bd36600461060a565b906110d4565b6108cb610103565b91829182610891565b0390f35b610109565b3461090d576109096108f86108f336600461066e565b61110f565b610900610103565b918291826105bb565b0390f35b610109565b346109445761092b6109253660046106f4565b9061111b565b90610940610937610103565b9283928361069a565b0390f35b610109565b908160c09103126109575790565b6102a9565b9060c0828203126109765761097391600001610949565b90565b61010e565b346109ab576109a761099661099136600461095c565b6111ef565b61099e610103565b918291826103ea565b0390f35b610109565b600080fd5b600090565b505050506109c66109b5565b90565b601f801991011690565b634e487b7160e01b600052604160045260246000fd5b906109f3906109c9565b810190811060018060401b03821117610a0b57604052565b6109d3565b90610a23610a1c610103565b92836109e9565b565b610a30610120610a10565b90565b600090565b600090565b600090565b600090565b600090565b600090565b610a59610a25565b90602080808080808080808a610a6d610a33565b815201610a78610a33565b815201610a83610a38565b815201610a8e610a38565b815201610a99610a33565b815201610aa4610a3d565b815201610aaf610a42565b815201610aba610a47565b815201610ac5610a4c565b81525050565b610ad3610a51565b90565b90610ae091610c3f565b90565b610aee610160610a10565b90565b600090565b600090565b610b03610a51565b90565b610b0e610ae3565b906020808080808080808080808c610b24610a47565b815201610b2f610af1565b815201610b3a610a38565b815201610b45610a33565b815201610b50610a33565b815201610b5b610a38565b815201610b66610a3d565b815201610b71610a3d565b815201610b7c610af6565b815201610b87610afb565b815201610b92610afb565b81525050565b610ba0610b06565b90565b35610bad81610155565b90565b90610bba9061014e565b9052565b35610bc88161012a565b90565b90610bd59061011e565b9052565b610be2816102ed565b03610be957565b600080fd5b35610bf881610bd9565b90565b90610c05906102ed565b9052565b35610c13816101a5565b90565b90610c20906101a2565b9052565b35610c2e8161017e565b90565b90610c3b90610179565b9052565b90610cfa9150610cf5610cec60c0610c55610b98565b93610c6e610c6560008301610ba3565b60008701610bb0565b610c86610c7d60208301610bbe565b60208701610bcb565b610c9e610c9560408301610bee565b60408701610bfb565b610cb6610cad60608301610c09565b60608701610c16565b610cce610cc560808301610c09565b60808701610c16565b610ce6610cdd60a08301610bee565b60a08701610bfb565b01610c24565b60c08301610c31565b6115db565b90565b610d0e90610d09610acb565b610ad6565b90565b606090565b90565b610d2290610d16565b90565b90610d2f90610d19565b600052602052604060002090565b90565b90565b90565b610d5a610d55610d5f92610d40565b610d43565b6101a2565b90565b60018060401b038111610d785760208091020190565b6109d3565b90610d8f610d8a83610d62565b610a10565b918252565b369037565b90610dbe610da683610d7d565b92602080610db48693610d62565b9201910390610d94565b565b92610ddf90929192610dd0610d11565b50610dd96118ff565b946119d8565b610dfd610df8610df3600187018490610d25565b610d3d565b611a19565b9384610e12610e0c6000610d46565b916101a2565b14610e6c57610e529483610e2e610e28836101a2565b916101a2565b11610e55575b50610e4a916001610e459201610d25565b610d3d565b919091611aa3565b90565b610e45919350916001610e4a939492505091610e34565b5050505050610e83610e7e6000610d46565b610d99565b90565b600090565b91610ea79492939193610e9c610e86565b509390919293611b4c565b90565b90610ebd91610eb7610acb565b50611b75565b90565b600090565b610ee090610ed1610ec0565b50610eda610ec0565b50611bab565b91909190565b600090565b90610ef590610d19565b600052602052604060002090565b610f17610f12610f1c92610113565b610d43565b610113565b90565b610f2890610f03565b90565b610f3490610f1f565b90565b90610f4190610f2b565b600052602052604060002090565b60001c90565b90565b610f64610f6991610f4f565b610f55565b90565b610f769054610f58565b90565b90610f82610ee6565b50610f8b6118ff565b91610fb96000610fb3610fac828701610fa6866001906119d8565b90610eeb565b8590610f37565b01610f6c565b610fcc610fc66000610d46565b916101a2565b11928315610fdb575b50505090565b611009935091610ffe61100392610ff860008096019186906119d8565b90610eeb565b610f37565b01610f6c565b61101c6110166000610d46565b916101a2565b11388080610fd5565b9161103e939192611034610acb565b5092909192611c0f565b90565b9061105d9161104e610acb565b50611057610acb565b50611c4c565b91909190565b9061107094939291611073565b90565b6110ba9491936110a36110b5946110ac935061109a611090610b98565b9760008901610bb0565b60208701610bcb565b60808501610c16565b60c08301610c31565b611d6a565b90565b906110d19392916110cc610acb565b611063565b90565b611102611107916110fc61110c946110ea610ec0565b5060016110f56118ff565b01926119d8565b90610d25565b610d3d565b611a19565b90565b50611118610e86565b90565b9061113791611128610ec0565b50611131610ec0565b50611ec0565b91909190565b906111479161114a565b90565b906111ec91506111e76111de60a0611160610b98565b9361117961117060008301610ba3565b60008701610bb0565b61119161118860208301610bbe565b60208701610bcb565b6111a96111a060408301610bee565b60408701610bfb565b6111c16111b860608301610c09565b60608701610c16565b6111d86111d060808301610bee565b838701610bfb565b01610c24565b60c08301610c31565b6120f0565b90565b611200906111fb610acb565b61113d565b90565b61120d905161014e565b90565b61121a9051610179565b90565b9061122790610d16565b9052565b6112359051610d16565b90565b611242905161011e565b90565b90565b61125461125991610f4f565b611245565b90565b6112669054611248565b90565b60ff1690565b61127b61128091610f4f565b611269565b90565b61128d905461126f565b90565b60081c90565b63ffffffff1690565b6112ab6112b091611290565b611296565b90565b6112bd905461129f565b90565b906112ca9061030a565b9052565b60281c90565b61ffff1690565b6112e76112ec916112ce565b6112d4565b90565b6112f990546112db565b90565b60381c90565b60018060481b031690565b61131961131e916112fc565b611302565b90565b61132b905461130d565b90565b906113389061032d565b9052565b9061141b611411600561134d610a25565b9461136661135d60008301610f6c565b60008801610c16565b61137e61137560018301610f6c565b60208801610c16565b61139661138d6002830161125c565b60408801610bfb565b6113ae6113a56003830161125c565b60608801610bfb565b6113c66113bd60048301610f6c565b60808801610c16565b6113dd6113d4838301611283565b60a08801610c31565b6113f46113eb8383016112b3565b60c088016112c0565b61140b6114028383016112ef565b60e08801610bb0565b01611321565b610100840161132e565b565b6114269061133c565b90565b61143390516101a2565b90565b60018060801b031690565b61145561145061145a926101a2565b610d43565b611436565b90565b61147161146c61147692611436565b610d43565b6101a2565b90565b61148d611488611492926101a2565b610d43565b6102ed565b90565b634e487b7160e01b600052601160045260246000fd5b6114b4906102ed565b600160ff1b81146114c55760000390565b611495565b6114d490516102ed565b90565b6114e66114ec919392936102ed565b926102ed565b8083019260008285121581831216928512911215161761150857565b611495565b61151c611522919392936101a2565b926101a2565b820180921161152d57565b611495565b61154661154161154b926101a2565b610d43565b61030a565b90565b60209181520190565b60007f706f736974696f6e426f6f6b3a20696e76616c696420706f736974696f6e0000910152565b61158c601e60209261154e565b61159581611557565b0190565b6115af906020810190600081830391015261157f565b90565b156115b957565b6115c1610103565b62461bcd60e51b8152806115d760048201611599565b0390fd5b906117df6117d660206101206115ef610acb565b956115fe600160e08301610c31565b61162c61162261161060008401611203565b61161c60c08501611210565b906119d8565b610100830161121d565b611661611650600061163c6118ff565b0161164a610100850161122b565b90610eeb565b61165b858401611238565b90610f37565b61166d8383019161141d565b905261167e60008383015101611429565b61169161168b6000610d46565b916101a2565b146118ab575b6116a660008383015101611429565b6116b96116b36000610d46565b916101a2565b1180611885575b6117e1575b6117066116fb6116f66116e46116df878787015101611429565b6125ca565b6116f0604086016114ca565b906114d7565b61262b565b848484015101610c16565b61172161171560a083016114ca565b60408484015101610bfb565b61175461174861173660008585015101611429565b61174260608501611429565b9061150d565b60008484015101610c16565b61176f61176360c08301611210565b60a08484015101610c31565b61178761177b42611532565b60c084840151016112c0565b61179b6117968383015161267f565b6115b2565b6117a48161278d565b6101408201526117b381612c99565b6117ce6117c560008484015101611429565b60008901610c16565b015101611429565b60208401610c16565b565b61184f6117fd838301516117f760808501611429565b90612411565b906118356118298686015161181460608801611429565b61182060808901611429565b86918693612513565b60808787015101610c16565b60001461186f5761184590611479565b5b60608901610bfb565b61186a61186160808484015101611429565b60808901610c16565b6116c5565b61187b61188091611479565b6114ab565b611846565b5061189260608201611429565b6118a561189f6000610d46565b916101a2565b116116c0565b6118d66118ca6118c56118c060808501611429565b611441565b61145d565b60808484015101610c16565b611697565b7f92bcfabaf0a890def3092675474357e5f93a0f117ca63a3db421d44c5b55fba590565b6119076118db565b90565b600090565b60f81b90565b61191e9061190f565b90565b61192a90611915565b90565b61193961193e91610179565b611921565b9052565b60f01b90565b61195190611942565b90565b6119606119659161014e565b611948565b9052565b60018161197c611984936002969561192d565b018092611954565b0190565b5190565b60200190565b1b90565b6119b06119ab6119a583611988565b9261198c565b61122b565b90602081106119be575b5090565b6119d19060001990602003600802611992565b16386119ba565b611a0e611a13926119e761190a565b506119ff6119f3610103565b93849260208401611969565b602082018103825203826109e9565b611996565b90565b90565b611a316000611a3692611a2a610ec0565b5001611a16565b612eeb565b90565b611a48611a4e919392936101a2565b926101a2565b8203918211611a5957565b611495565b6001611a6a91016101a2565b90565b634e487b7160e01b600052603260045260246000fd5b90611a8d8261047d565b811015611a9e576020809102010190565b611a6d565b929092611aae610d11565b50611ab881611a19565b83611acb611ac5836101a2565b916101a2565b11611b42575b50611ae5611ae0848690611a39565b610d99565b91845b80611afb611af5876101a2565b916101a2565b1015611b3957611b3490611b2f611b13858390612f38565b611b2a8791611b23858c90611a39565b9092611a83565b610bcb565b611a5e565b611ae8565b50935050905090565b9092509138611ad1565b90611b7294611b6a92949394611b60610e86565b5091849192611c0f565b919091612f71565b90565b611b9091611b8b91611b85610acb565b506119d8565b61302c565b90565b90611b9d90610d19565b600052602052604060002090565b90611bb4610ec0565b50611bbd610ec0565b50611c0c6000611c06611bce6118ff565b94611c006002611bf685611bf0838b01611bea876001906119d8565b90611b93565b01610f6c565b97019184906119d8565b90611b93565b01610f6c565b90565b611c449250611c3f90611c39611c4995611c27610acb565b506000611c326118ff565b01926119d8565b90610eeb565b610f37565b61141d565b90565b9190611cb8611cbd91611c5d610acb565b50611c66610acb565b50611cb3611c726118ff565b95611cad6000611ca2611c9d611c96838c01611c90876001906119d8565b90610eeb565b8790610f37565b61141d565b9801916000906119d8565b90610eeb565b610f37565b61141d565b90565b60207f6578697374000000000000000000000000000000000000000000000000000000917f706f736974696f6e426f6f6b3a20706f736974696f6e20646f6573206e6f742060008201520152565b611d1b602560409261154e565b611d2481611cc0565b0190565b611d3e9060208101906000818303910152611d0e565b90565b15611d4857565b611d50610103565b62461bcd60e51b815280611d6660048201611d28565b0390fd5b90611e6c611e636020610120611d7e610acb565b95611d8d600060e08301610c31565b611dbb611db1611d9f60008401611203565b611dab60c08501611210565b906119d8565b610100830161121d565b611df0611ddf6000611dcb6118ff565b01611dd9610100850161122b565b90610eeb565b611dea858401611238565b90610f37565b611dfc8383019161141d565b9052611e12611e0d83830151613054565b611d41565b611e1e60808201611429565b611e31611e2b6000610d46565b916101a2565b03611e6e575b611e408161322b565b611e5b611e5260008484015101611429565b60008901610c16565b015101611429565b60208401610c16565b565b611ea5611e8a83830151611e8460808501611429565b90612411565b90600014611eaa57611e9b90611479565b5b60608901610bfb565b611e37565b611eb6611ebb91611479565b6114ab565b611e9c565b91906000611efd611f0392611ed3610ec0565b50611edc610ec0565b50611ef483611eee888460019161348a565b01611429565b9590839161348a565b01611429565b90565b611f10905161030a565b90565b60007f70623a73616d6520626c6f636b00000000000000000000000000000000000000910152565b611f48600d60209261154e565b611f5181611f13565b0190565b611f6b9060208101906000818303910152611f3b565b90565b15611f7557565b611f7d610103565b62461bcd60e51b815280611f9360048201611f55565b0390fd5b611fab611fa6611fb092610d40565b610d43565b6102ed565b90565b60007f706f736974696f6e426f6f6b3a20696e76616c696420636f6c6c61746572616c910152565b611fe76020809261154e565b611ff081611fb3565b0190565b61200a9060208101906000818303910152611fdb565b90565b1561201457565b61201c610103565b62461bcd60e51b81528061203260048201611ff4565b0390fd5b60007f706f736974696f6e426f6f6b3a20696e76616c69642073697a65000000000000910152565b61206b601a60209261154e565b61207481612036565b0190565b61208e906020810190600081830391015261205e565b90565b1561209857565b6120a0610103565b62461bcd60e51b8152806120b660048201612078565b0390fd5b6120c96120cf919392936102ed565b926102ed565b918281039260008285128183121692851391121516176120eb57565b611495565b906120f9610acb565b91612108600060e08301610c31565b61213661212c61211a60008401611203565b61212660c08501611210565b906119d8565b610100830161121d565b61216c61215a60006121466118ff565b01612154610100850161122b565b90610eeb565b61216660208401611238565b90610f37565b61217a61012083019161141d565b90526121b161219060c061012084015101611f06565b6121aa6121a461219f42611532565b61030a565b9161030a565b1415611f6e565b6121c76121c261012083015161267f565b6115b2565b6121d3604082016114ca565b6121e66121e06000611f97565b916102ed565b1361235f575b612224612200600061012084015101611429565b61221d61221761221260608601611429565b6101a2565b916101a2565b1015612091565b612235600061012083015101611429565b61225261224c61224760608501611429565b6101a2565b916101a2565b14156000146123515761234560206101208361228261227660a061234e97016114ca565b60408484015101610bfb565b6122b56122a961229760008585015101611429565b6122a360608501611429565b90611a39565b60008484015101610c16565b6122f66122eb6122e66122d46122cf878787015101611429565b6125ca565b6122e0604086016114ca565b906120ba565b61262b565b848484015101610c16565b61230a6123058383015161267f565b6115b2565b6123138161278d565b61014082015261232281612c99565b61233d61233460008484015101611429565b60008901610c16565b015101611429565b60208401610c16565b5b565b61235a9061322b565b61234f565b61239f612373602061012084015101611429565b61239861239261238d612388604087016114ca565b61262b565b6101a2565b916101a2565b101561200d565b6121ec565b6123b36123b9919392936101a2565b926101a2565b916123c58382026101a2565b9281840414901517156123d457565b611495565b634e487b7160e01b600052601260045260246000fd5b6123fb612401916101a2565b916101a2565b90811561240c570490565b6123d9565b91909161241c610ee6565b50612425610ec0565b5061243260808201611429565b61244461243e856101a2565b916101a2565b116000146124f25761248c61247a61246861246160808501611429565b8690611a39565b5b61247560008501611429565b6123a4565b61248660808401611429565b906123ef565b92612495610ee6565b506124a260a08301611210565b6000146124cd576124c16124bc60806124c7939401611429565b6101a2565b916101a2565b115b9190565b906124e66124e060806124ec9301611429565b926101a2565b916101a2565b116124c9565b61248c61247a61250e8561250860808601611429565b90611a39565b612469565b90926125759461255060a0612540612570969761252e610ec0565b5061253b60008801611429565b61150d565b94612549610ec0565b5001611210565b6000146125875760001461257857612568908261150d565b5b925b6123a4565b6123ef565b90565b6125829082611a39565b612569565b60001461259f576125989082611a39565b5b9261256b565b6125a9908261150d565b612599565b6125c26125bd6125c7926102ed565b610d43565b6101a2565b90565b6125d2610e86565b50806125f46125ee6125e960018060ff1b036125ae565b6101a2565b916101a2565b116126055761260290611479565b90565b61262790612611610103565b91829163123baf0360e11b835260048301610891565b0390fd5b612633610ec0565b50806126486126426000611f97565b916102ed565b1261265957612656906125ae565b90565b61267b90612665610103565b918291635467221960e11b8352600483016105bb565b0390fd5b612687610ee6565b5061269460008201611429565b6126a76126a16000610d46565b916101a2565b146126e4576126d56126cf6126ca60206126c360008601611429565b9401611429565b6101a2565b916101a2565b106126df57600190565b600090565b50600090565b90565b6127016126fc612706926126ea565b610d43565b6101a2565b90565b60007f70623a696e76616c696420676c6f62616c20706f736974696f6e000000000000910152565b61273e601a60209261154e565b61274781612709565b0190565b6127619060208101906000818303910152612731565b90565b1561276b57565b612773610103565b62461bcd60e51b8152806127896004820161274b565b0390fd5b612795610acb565b506127bf6127ba60026127a66118ff565b016127b4610100850161122b565b90611b93565b61141d565b906127cc60e08201611210565b6128315761281261280d6040836128076127eb606061282e9701611429565b61280160008901916127fc83611429565b611a39565b90610c16565b016114ca565b61262b565b612828602084019161282383611429565b611a39565b90610c16565b90565b6128f360c06128fc9261288561285f8661284d60608501611429565b61285960808601611429565b916134c6565b61287c8161287661287060646126ed565b916101a2565b11612764565b60808701610c16565b6128b061289460608301611429565b6128aa60008801916128a583611429565b61150d565b90610c16565b6128ed6128e46128df6128cd6128c860208a01611429565b6125ca565b6128d9604086016114ca565b906114d7565b61262b565b60208701610c16565b01611210565b60a08301610c31565b61291161290842611532565b60c083016112c0565b90565b634e487b7160e01b600052600060045260246000fd5b60001b90565b9061293d6000199161292a565b9181191691161790565b61295b612956612960926101a2565b610d43565b6101a2565b90565b90565b9061297b61297661298292612947565b612963565b8254612930565b9055565b61299a61299561299f926102ed565b610d43565b6102ed565b90565b90565b906129ba6129b56129c192612986565b6129a2565b8254612930565b9055565b906129d160ff9161292a565b9181191691161790565b6129e490610179565b90565b90565b906129ff6129fa612a06926129db565b6129e7565b82546129c5565b9055565b60081b90565b90612a2064ffffffff0091612a0a565b9181191691161790565b612a3e612a39612a439261030a565b610d43565b61030a565b90565b90565b90612a5e612a59612a6592612a2a565b612a46565b8254612a10565b9055565b60281b90565b90612a7f61ffff60281b91612a69565b9181191691161790565b612a9d612a98612aa29261014e565b610d43565b61014e565b90565b90565b90612abd612ab8612ac492612a89565b612aa5565b8254612a6f565b9055565b612ad2905161032d565b90565b60381b90565b90612af0600160381b600160801b0391612ad5565b9181191691161790565b612b0e612b09612b139261032d565b610d43565b61032d565b90565b90565b90612b2e612b29612b3592612afa565b612b16565b8254612adb565b9055565b90612c136101006005612c1994612b5f60008201612b5960008801611429565b90612966565b612b7860018201612b7260208801611429565b90612966565b612b9160028201612b8b604088016114ca565b906129a5565b612baa60038201612ba4606088016114ca565b906129a5565b612bc360048201612bbd60808801611429565b90612966565b612bdb828201612bd560a08801611210565b906129ea565b612bf3828201612bed60c08801611f06565b90612a49565b612c0b828201612c0560e08801611203565b90612aa8565b019201612ac8565b90612b19565b565b90612c2591612b39565b565b612c309061014e565b9052565b612c6c612c7394612c6261016094989795612c5861028086019a6000870190612c27565b6020850190610722565b6040830190610345565b0190610345565b565b916020612c97929493612c9060408201966000830190612c27565b0190610722565b565b612cd7612cd2612cc06000612cac6118ff565b01612cba610100860161122b565b90610eeb565b612ccc60208501611238565b90610f37565b61141d565b612d00612cfb6002612ce76118ff565b01612cf5610100860161122b565b90611b93565b61141d565b50612d45610120830151612d40612d2e6000612d1a6118ff565b01612d28610100880161122b565b90610eeb565b612d3a60208701611238565b90610f37565b612c1b565b612d74610140830151612d6f6002612d5b6118ff565b01612d69610100870161122b565b90611b93565b612c1b565b612db2612da0612d9b6001612d876118ff565b01612d95610100870161122b565b90610d25565b610d3d565b612dac60208501611238565b906135c7565b50612dbf60208301611238565b612dcb60008401611203565b91612dd860c08501611210565b9092612e1f610120860151612e0d7f3f663a06383ad0bc9cbe3599153a1bee79dec0ca9fc45d5ce8be06547418fc3995610f2b565b95612e16610103565b94859485612c34565b0390a2612e2e60208201611238565b612e3a60008301611203565b90612e4760c08401611210565b612e717fd32e0f6e0e5fa2152d0dff1f562bd0b5e41af8afb6591d9840711c6d3367a3a792610f2b565b92612e86612e7d610103565b92839283612c75565b0390a2612e9560008201611203565b612ea160c08301611210565b90612ee2610140808501519401517f820c306f14dfba38a11ea769e86e1e02d4cbed2a6a733a93fb95c62242b3e24d94612ed9610103565b94859485612c34565b0390a1565b5490565b6000612f0091612ef9610ec0565b5001612ee7565b90565b600090565b612f14612f1991610f4f565b612947565b90565b612f30612f2b612f35926101a2565b610d43565b610113565b90565b612f64612f5f612f6e93612f5a6000612f6995612f53612f03565b5001611a16565b613663565b612f08565b612f1c565b610f1f565b90565b9091612f7b610e86565b50612f8860008301611429565b612f9b612f956000610d46565b916101a2565b1461301c57612faa9082612411565b9190919280612fc2612fbc6000610d46565b916101a2565b03612ff4575b5050600014612fde57612fda90611479565b5b90565b612fea612fef91611479565b6114ab565b612fdb565b6000613007613014949561300e936123a4565b9201611429565b906123ef565b903880612fc8565b5050506130296000611f97565b90565b61304c6130519161303b610acb565b5060026130466118ff565b01611b93565b61141d565b90565b600061306991613062610ee6565b5001611429565b61307c6130766000610d46565b916101a2565b1190565b60007f706f736974696f6e20646f6573206e6f74206578697374000000000000000000910152565b6130b5601760209261154e565b6130be81613080565b0190565b6130d890602081019060008183039101526130a8565b90565b156130e257565b6130ea610103565b62461bcd60e51b815280613100600482016130c2565b0390fd5b9190600861312091029161311a60001984611992565b92611992565b9181191691161790565b919061314061313b61314893612947565b612963565b908354613104565b9055565b61315e91613158610ec0565b9161312a565b565b919061317661317161317e93612986565b6129a2565b908354613104565b9055565b6131949161318e610e86565b91613160565b565b60056000916131a78380830161314c565b6131b4836001830161314c565b6131c18360028301613182565b6131ce8360038301613182565b6131db836004830161314c565b0155565b906000036131f2576131f090613196565b565b612914565b60409061322261322994969593966132186101608401986000850190612c27565b6020830190610722565b0190610345565b565b613269613264613252600061323e6118ff565b0161324c610100860161122b565b90610eeb565b61325e60208501611238565b90610f37565b61141d565b6132af6132aa613298613293600161327f6118ff565b0161328d610100880161122b565b90610d25565b610d3d565b6132a460208601611238565b90613685565b6130db565b6132de6101408301516132d960026132c56118ff565b016132d3610100870161122b565b90611b93565b612c1b565b61331d6000613318613306826132f26118ff565b01613300610100880161122b565b90610eeb565b61331260208701611238565b90610f37565b6131df565b61335b61334961334460016133306118ff565b0161333e610100870161122b565b90610d25565b610d3d565b61335560208501611238565b906136c0565b5061336860208301611238565b61337460008401611203565b9161338160c08501611210565b90926133c26133b07f5cb07172b706ed68ac7cc56d9ff6d43cb9eb09ebd57da6f3fc7acaad93b57c3794610f2b565b946133b9610103565b938493846131f7565b0390a26133d160208201611238565b6133dd60008301611203565b906133ea60c08401611210565b6134147f50e30fbf63d66a65bf343192bf7d60a3bf0cfc38a5b3ce44bff008dc815a8d3192610f2b565b92613429613420610103565b92839283612c75565b0390a261343860008201611203565b61344460c08301611210565b90613485610140808501519401517f820c306f14dfba38a11ea769e86e1e02d4cbed2a6a733a93fb95c62242b3e24d9461347c610103565b94859485612c34565b0390a1565b906134b96134be926134b36134c3956134a1610acb565b5060006134ac6118ff565b01926119d8565b90610eeb565b610f37565b61141d565b90565b906134cf610ec0565b506134dc60008301611429565b6134ef6134e96000610d46565b916101a2565b1461357e579060809161352f9361350860008401611429565b61351b6135156000610d46565b916101a2565b1180613563575b613532575b505001611429565b90565b61355c9161355491613545858290612411565b91909190869390919293612513565b838301610c16565b3880613527565b50816135786135726000610d46565b916101a2565b11613522565b505090565b61358c90610f03565b90565b6135a361359e6135a892610113565b610d43565b6101a2565b90565b6135bf6135ba6135c4926101a2565b61292a565b610d16565b90565b906135fa6135f46135ef6135ea60006135ff966135e2610ee6565b500194613583565b61358f565b6135ab565b91611a16565b6137ac565b90565b600052602060002090565b61361681612ee7565b82101561363157613628600191613602565b91020190600090565b611a6d565b1c90565b90565b61364d9060086136529302613636565b61363a565b90565b90613660915461363d565b90565b61368291600061367c9261367561190a565b500161360d565b90613655565b90565b906136b86136b26136ad6136a860006136bd966136a0610ee6565b500194613583565b61358f565b6135ab565b91611a16565b613813565b90565b906136f36136ed6136e86136e360006136f8966136db610ee6565b500194613583565b61358f565b6135ab565b91611a16565b6138c1565b90565b90565b600052602060002090565b5490565b61371681613709565b821015613731576137286001916136fe565b91020190600090565b611a6d565b61373f90610f4f565b90565b919061375861375361376093610d19565b613736565b908354613104565b9055565b90815491600160401b83101561378f578261378791600161378d9501815561370d565b90613742565b565b6109d3565b9061379e90610d19565b600052602052604060002090565b6137b4610ee6565b506137c96137c3828490613813565b15610179565b60001461380c57613802613807926137ed6137e6600085016136fb565b8290613764565b60016137fb60008501612ee7565b9301613794565b612966565b600190565b5050600090565b61383191600161382c92613825610ee6565b5001613794565b610f6c565b61384461383e6000610d46565b916101a2565b141590565b90565b61386061385b61386592613849565b610d43565b6101a2565b90565b634e487b7160e01b600052603160045260246000fd5b6138909161388a61190a565b91613742565b565b61389b81613709565b80156138bc5760019003906138b96138b3838361370d565b9061387e565b55565b613868565b6138c9610ee6565b506138e06138db600183018490613794565b610f6c565b90816138f56138ef6000610d46565b916101a2565b14156000146139c357613975926001613970928461391e6000966139188561384c565b90611a39565b61393b61392c888501612ee7565b6139358661384c565b90611a39565b8161394e613948836101a2565b916101a2565b0361397a575b50505061396a6139658683016136fb565b613892565b01613794565b61314c565b600190565b6139bb926139ad6139996139936139b6948c890161360d565b90613655565b936139a785918c890161360d565b90613742565b91858501613794565b612966565b388080613954565b50505060009056fea2646970667358221220f429174ddde93fbe134d5e5a2e0c0520d01e0b3dbd261741ce8728a7206f4cae64736f6c63430008180033",
  "devdoc": {
    "errors": {
      "SafeCastOverflowedIntToUint(int256)": [
        {
          "details": "An int value doesn't fit in an uint of `bits` size."
        }
      ],
      "SafeCastOverflowedUintToInt(uint256)": [
        {
          "details": "An uint value doesn't fit in an int of `bits` size."
        }
      ]
    },
    "kind": "dev",
    "methods": {},
    "version": 1
  },
  "userdoc": {
    "kind": "user",
    "methods": {},
    "version": 1
  },
  "storageLayout": {
    "storage": [],
    "types": null
  }
}