{
  "address": "0x637c27AD8C54807492C85b03e8640ae8d0a1c5d8",
  "abi": [
    {
      "inputs": [
        {
          "internalType": "address",
          "name": "authority",
          "type": "address"
        }
      ],
      "name": "AccessManagedInvalidAuthority",
      "type": "error"
    },
    {
      "inputs": [
        {
          "internalType": "address",
          "name": "caller",
          "type": "address"
        },
        {
          "internalType": "uint32",
          "name": "delay",
          "type": "uint32"
        }
      ],
      "name": "AccessManagedRequiredDelay",
      "type": "error"
    },
    {
      "inputs": [
        {
          "internalType": "address",
          "name": "caller",
          "type": "address"
        }
      ],
      "name": "AccessManagedUnauthorized",
      "type": "error"
    },
    {
      "inputs": [
        {
          "internalType": "uint256",
          "name": "value",
          "type": "uint256"
        }
      ],
      "name": "SafeCastOverflowedUintToInt",
      "type": "error"
    },
    {
      "anonymous": false,
      "inputs": [
        {
          "indexed": true,
          "internalType": "address",
          "name": "account",
          "type": "address"
        },
        {
          "indexed": false,
          "internalType": "bool",
          "name": "isLong",
          "type": "bool"
        },
        {
          "indexed": false,
          "internalType": "bool",
          "name": "isIncrease",
          "type": "bool"
        },
        {
          "indexed": false,
          "internalType": "uint256",
          "name": "orderID",
          "type": "uint256"
        },
        {
          "indexed": false,
          "internalType": "uint16",
          "name": "market",
          "type": "uint16"
        },
        {
          "indexed": false,
          "internalType": "uint8",
          "name": "reason",
          "type": "uint8"
        },
        {
          "indexed": false,
          "internalType": "string",
          "name": "reasonStr",
          "type": "string"
        },
        {
          "indexed": false,
          "internalType": "uint256",
          "name": "price",
          "type": "uint256"
        },
        {
          "indexed": false,
          "internalType": "int256",
          "name": "dPNL",
          "type": "int256"
        }
      ],
      "name": "DeleteOrder",
      "type": "event"
    },
    {
      "inputs": [
        {
          "components": [
            {
              "internalType": "uint256",
              "name": "oraclePrice",
              "type": "uint256"
            },
            {
              "internalType": "uint256",
              "name": "pay",
              "type": "uint256"
            },
            {
              "internalType": "uint256",
              "name": "slippage",
              "type": "uint256"
            },
            {
              "internalType": "uint16",
              "name": "market",
              "type": "uint16"
            },
            {
              "internalType": "bool",
              "name": "isLong",
              "type": "bool"
            },
            {
              "internalType": "bool",
              "name": "isOpen",
              "type": "bool"
            },
            {
              "internalType": "bool",
              "name": "isCreate",
              "type": "bool"
            },
            {
              "internalType": "bool",
              "name": "isFromMarket",
              "type": "bool"
            },
            {
              "internalType": "uint256",
              "name": "sizeDelta",
              "type": "uint256"
            },
            {
              "internalType": "uint256",
              "name": "price",
              "type": "uint256"
            },
            {
              "internalType": "uint256",
              "name": "collateralDelta",
              "type": "uint256"
            },
            {
              "internalType": "uint256",
              "name": "collateral",
              "type": "uint256"
            },
            {
              "internalType": "uint256",
              "name": "tp",
              "type": "uint256"
            },
            {
              "internalType": "uint256",
              "name": "sl",
              "type": "uint256"
            },
            {
              "internalType": "uint64",
              "name": "orderId",
              "type": "uint64"
            },
            {
              "internalType": "address",
              "name": "account",
              "type": "address"
            },
            {
              "internalType": "bool",
              "name": "isExec",
              "type": "bool"
            },
            {
              "internalType": "uint8",
              "name": "liqState",
              "type": "uint8"
            },
            {
              "internalType": "uint64",
              "name": "fromOrder",
              "type": "uint64"
            },
            {
              "internalType": "bytes32",
              "name": "refCode",
              "type": "bytes32"
            },
            {
              "internalType": "uint8",
              "name": "execNum",
              "type": "uint8"
            },
            {
              "internalType": "bool",
              "name": "isKeepLev",
              "type": "bool"
            },
            {
              "internalType": "bool",
              "name": "isKeepLevTP",
              "type": "bool"
            },
            {
              "internalType": "bool",
              "name": "isKeepLevSL",
              "type": "bool"
            },
            {
              "internalType": "bool",
              "name": "triggerAbove",
              "type": "bool"
            },
            {
              "internalType": "uint128",
              "name": "gas",
              "type": "uint128"
            }
          ],
          "internalType": "struct MarketDataTypes.Cache",
          "name": "_inputs",
          "type": "tuple"
        }
      ],
      "name": "_increasePositionWithOrders",
      "outputs": [],
      "stateMutability": "nonpayable",
      "type": "function"
    },
    {
      "inputs": [
        {
          "components": [
            {
              "internalType": "bytes32",
              "name": "refCode",
              "type": "bytes32"
            },
            {
              "internalType": "uint128",
              "name": "collateral",
              "type": "uint128"
            },
            {
              "internalType": "uint128",
              "name": "size",
              "type": "uint128"
            },
            {
              "internalType": "uint256",
              "name": "price",
              "type": "uint256"
            },
            {
              "internalType": "uint256",
              "name": "tp",
              "type": "uint256"
            },
            {
              "internalType": "bool",
              "name": "triggerAbove",
              "type": "bool"
            },
            {
              "internalType": "bool",
              "name": "isFromMarket",
              "type": "bool"
            },
            {
              "internalType": "bool",
              "name": "isKeepLev",
              "type": "bool"
            },
            {
              "internalType": "bool",
              "name": "isKeepLevTP",
              "type": "bool"
            },
            {
              "internalType": "bool",
              "name": "isKeepLevSL",
              "type": "bool"
            },
            {
              "internalType": "uint64",
              "name": "orderID",
              "type": "uint64"
            },
            {
              "internalType": "uint64",
              "name": "pairId",
              "type": "uint64"
            },
            {
              "internalType": "uint64",
              "name": "fromId",
              "type": "uint64"
            },
            {
              "internalType": "uint32",
              "name": "updatedAtBlock",
              "type": "uint32"
            },
            {
              "internalType": "uint8",
              "name": "extra0",
              "type": "uint8"
            },
            {
              "internalType": "address",
              "name": "account",
              "type": "address"
            },
            {
              "internalType": "uint96",
              "name": "extra1",
              "type": "uint96"
            },
            {
              "internalType": "uint256",
              "name": "sl",
              "type": "uint256"
            },
            {
              "internalType": "bool",
              "name": "isIncrease",
              "type": "bool"
            },
            {
              "internalType": "bool",
              "name": "isLong",
              "type": "bool"
            },
            {
              "internalType": "uint16",
              "name": "market",
              "type": "uint16"
            },
            {
              "internalType": "uint96",
              "name": "extra2",
              "type": "uint96"
            },
            {
              "internalType": "uint128",
              "name": "gas",
              "type": "uint128"
            },
            {
              "internalType": "uint8",
              "name": "version",
              "type": "uint8"
            }
          ],
          "internalType": "struct Order.Props",
          "name": "exeOrder",
          "type": "tuple"
        },
        {
          "components": [
            {
              "internalType": "uint256",
              "name": "oraclePrice",
              "type": "uint256"
            },
            {
              "internalType": "uint256",
              "name": "pay",
              "type": "uint256"
            },
            {
              "internalType": "uint256",
              "name": "slippage",
              "type": "uint256"
            },
            {
              "internalType": "uint16",
              "name": "market",
              "type": "uint16"
            },
            {
              "internalType": "bool",
              "name": "isLong",
              "type": "bool"
            },
            {
              "internalType": "bool",
              "name": "isOpen",
              "type": "bool"
            },
            {
              "internalType": "bool",
              "name": "isCreate",
              "type": "bool"
            },
            {
              "internalType": "bool",
              "name": "isFromMarket",
              "type": "bool"
            },
            {
              "internalType": "uint256",
              "name": "sizeDelta",
              "type": "uint256"
            },
            {
              "internalType": "uint256",
              "name": "price",
              "type": "uint256"
            },
            {
              "internalType": "uint256",
              "name": "collateralDelta",
              "type": "uint256"
            },
            {
              "internalType": "uint256",
              "name": "collateral",
              "type": "uint256"
            },
            {
              "internalType": "uint256",
              "name": "tp",
              "type": "uint256"
            },
            {
              "internalType": "uint256",
              "name": "sl",
              "type": "uint256"
            },
            {
              "internalType": "uint64",
              "name": "orderId",
              "type": "uint64"
            },
            {
              "internalType": "address",
              "name": "account",
              "type": "address"
            },
            {
              "internalType": "bool",
              "name": "isExec",
              "type": "bool"
            },
            {
              "internalType": "uint8",
              "name": "liqState",
              "type": "uint8"
            },
            {
              "internalType": "uint64",
              "name": "fromOrder",
              "type": "uint64"
            },
            {
              "internalType": "bytes32",
              "name": "refCode",
              "type": "bytes32"
            },
            {
              "internalType": "uint8",
              "name": "execNum",
              "type": "uint8"
            },
            {
              "internalType": "bool",
              "name": "isKeepLev",
              "type": "bool"
            },
            {
              "internalType": "bool",
              "name": "isKeepLevTP",
              "type": "bool"
            },
            {
              "internalType": "bool",
              "name": "isKeepLevSL",
              "type": "bool"
            },
            {
              "internalType": "bool",
              "name": "triggerAbove",
              "type": "bool"
            },
            {
              "internalType": "uint128",
              "name": "gas",
              "type": "uint128"
            }
          ],
          "internalType": "struct MarketDataTypes.Cache",
          "name": "_params",
          "type": "tuple"
        }
      ],
      "name": "execAddOrderKey",
      "outputs": [],
      "stateMutability": "nonpayable",
      "type": "function"
    },
    {
      "inputs": [
        {
          "internalType": "uint16",
          "name": "market",
          "type": "uint16"
        },
        {
          "internalType": "address",
          "name": "account",
          "type": "address"
        }
      ],
      "name": "getAccountSizeOfMarkets",
      "outputs": [
        {
          "internalType": "uint256",
          "name": "sizesL",
          "type": "uint256"
        },
        {
          "internalType": "uint256",
          "name": "sizesS",
          "type": "uint256"
        }
      ],
      "stateMutability": "view",
      "type": "function"
    },
    {
      "inputs": [
        {
          "internalType": "uint16",
          "name": "market",
          "type": "uint16"
        }
      ],
      "name": "getGlobalSize",
      "outputs": [
        {
          "internalType": "uint256",
          "name": "sizesLong",
          "type": "uint256"
        },
        {
          "internalType": "uint256",
          "name": "sizesShort",
          "type": "uint256"
        }
      ],
      "stateMutability": "view",
      "type": "function"
    }
  ],
  "transactionHash": "0xd51bd6dc000a55927069efe198bec5a17746fbcedcb223bc096b9794fe32aecd",
  "args": [],
  "numDeployments": 1,
  "solcInputHash": "bdd3f75851e051eb1462ab83403a0cb0",
  "bytecode": "0x608060405234801561001057600080fd5b50613dfe806100206000396000f3fe608060405234801561001057600080fd5b506004361061004c5760003560e01c8063599ec4ee14610051578063799721f91461006d5780638593090f14610089578063a01e7bc6146100ba575b600080fd5b61006b600480360381019061006691906128d8565b6100eb565b005b6100876004803603810190610082919061291a565b610146565b005b6100a3600480360381019061009e9190612948565b610472565b6040516100b1929190612997565b60405180910390f35b6100d460048036038101906100cf91906129c0565b6104f3565b6040516100e2929190612997565b60405180910390f35b6100f482610571565b8060a00151610138576040517f08c379a000000000000000000000000000000000000000000000000000000000815260040161012f90612a4a565b60405180910390fd5b610142828261063a565b5050565b6101598160600151826101400151610962565b6000816040015114801561017c575080610240015167ffffffffffffffff166000145b1561018d57601e8160400181815250505b610195610966565b73ffffffffffffffffffffffffffffffffffffffff1663db611225826060015183608001516040518363ffffffff1660e01b81526004016101d7929190612a88565b602060405180830381865afa1580156101f4573d6000803e3d6000fd5b505050506040513d601f19601f820116820180604052508101906102189190612ac6565b81600001818152505060006102558260600151836101e0015160008561010001511461024857846000015161024b565b60005b856080015161096e565b905060006102638383610ab6565b9050600081121561027357600090505b600061029f846060015161029a866060015187608001518860a00151896101e00151610cc0565b610d35565b90508015156000151514806102b957506000846101000151145b156102c65750505061046f565b6000808561018001511415801561030457508460800151151585610120015186610180015111151514806103035750846101200151856101800151145b5b9050600080866101a00151141580156103445750856101a001518661012001511115158660800151151514806103435750856101a00151866101200151145b5b9050606060008380156103545750825b6103745783806103615750825b61036c57600061036f565b60015b610377565b60025b60ff169050600081111561045b578067ffffffffffffffff81111561039f5761039e612160565b5b6040519080825280602002602001820160405280156103d857816020015b6103c5611f5c565b8152602001906001900390816103bd5790505b5091506103fd8887866103f0578a6101a001516103f7565b8a61018001515b87610d3d565b8260008151811061041157610410612af3565b5b6020026020010181905250600281036104565761043688878a6101a001516000610d3d565b8260018151811061044a57610449612af3565b5b60200260200101819052505b610467565b5050505050505061046f565b505050505050505b50565b600080600061048085610f24565b905060005b81518110156104ea576000806104b58484815181106104a7576104a6612af3565b5b602002602001015188610fc7565b9150915081866104c59190612b51565b955080856104d39190612b51565b9450505080806104e290612b85565b915050610485565b50509250929050565b600080600061050184610f24565b905060005b815181101561056a5760008061053584848151811061052857610527612af3565b5b6020026020010151610ff5565b9150915081866105459190612b51565b955080856105539190612b51565b94505050808061056290612b85565b915050610506565b5050915091565b600073ffffffffffffffffffffffffffffffffffffffff16816101e0015173ffffffffffffffffffffffffffffffffffffffff16036105e5576040517f08c379a00000000000000000000000000000000000000000000000000000000081526004016105dc90612c19565b60405180910390fd5b600081610140015167ffffffffffffffff1603610637576040517f08c379a000000000000000000000000000000000000000000000000000000000815260040161062e90612c19565b60405180910390fd5b50565b610642610966565b73ffffffffffffffffffffffffffffffffffffffff1663db611225826060015183608001516040518363ffffffff1660e01b8152600401610684929190612a88565b602060405180830381865afa1580156106a1573d6000803e3d6000fd5b505050506040513d601f19601f820116820180604052508101906106c59190612ac6565b816000018181525050600073ffffffffffffffffffffffffffffffffffffffff16826101e0015173ffffffffffffffffffffffffffffffffffffffff1603610742576040517f08c379a000000000000000000000000000000000000000000000000000000000815260040161073990612c85565b60405180910390fd5b61074b81611054565b61077881606001518260a001518360800151856101e0015186610140015167ffffffffffffffff16611260565b506001816102800181815161078d9190612ca5565b91509060ff16908160ff16815250506107b381600001518361128a90919063ffffffff16565b8260c001516107f7576040518060400160405280601b81526020017f506f736974696f6e4164644d67723a7472696767657261626f7665000000000081525061082e565b6040518060400160405280601e81526020017f506f736974696f6e4164644d67723a6d61726b657420736c69707061676500008152505b9061086f576040517f08c379a00000000000000000000000000000000000000000000000000000000081526004016108669190612d48565b60405180910390fd5b5081602001516fffffffffffffffffffffffffffffffff16816101400151146108cd576040517f08c379a00000000000000000000000000000000000000000000000000000000081526004016108c490612ddc565b60405180910390fd5b816101e0015173ffffffffffffffffffffffffffffffffffffffff167f41d5395cd16fc4604df1bdb606cb21b8df927081e897d9137fbae993cc44ddd982608001518360a0015185610140015185606001516003600781111561093357610932612dfc565b5b8760000151600060405161094d9796959493929190612eb4565b60405180910390a261095e81610146565b5050565b5050565b600030905090565b61097661207a565b61097e6112a7565b600001600061098d87856112d4565b815260200190815260200160002060008573ffffffffffffffffffffffffffffffffffffffff1673ffffffffffffffffffffffffffffffffffffffff1681526020019081526020016000206040518061012001604052908160008201548152602001600182015481526020016002820154815260200160038201548152602001600482015481526020016005820160009054906101000a900460ff161515151581526020016005820160019054906101000a900463ffffffff1663ffffffff1663ffffffff1681526020016005820160059054906101000a900461ffff1661ffff1661ffff1681526020016005820160079054906101000a900468ffffffffffffffffff1668ffffffffffffffffff1668ffffffffffffffffff16815250509050949350505050565b6000610ac58360600151611309565b600080610ad0611394565b73ffffffffffffffffffffffffffffffffffffffff16632ba88be98686604051602001610afe9291906132c4565b6040516020818303038152906040526040518263ffffffff1660e01b8152600401610b299190613344565b600060405180830381865afa158015610b46573d6000803e3d6000fd5b505050506040513d6000823e3d601f19601f82011682018060405250810190610b6f919061345f565b9150915060008561010001511115610bb257610bad858584604051602001610b999392919061356a565b60405160208183030381529060405261139c565b610bf4565b610bf3600285602001518761014001518760000151600086604051602001610bdf96959493929190613621565b60405160208183030381529060405261139f565b5b6000610bfe611394565b73ffffffffffffffffffffffffffffffffffffffff166370802dac876060015188608001516040518363ffffffff1660e01b8152600401610c40929190612a88565b602060405180830381865afa158015610c5d573d6000803e3d6000fd5b505050506040513d601f19601f82011682018060405250810190610c819190613682565b905081610c928761014001516113a2565b610c9c91906136af565b9350610ca9868583611411565b50856101e001518660800151505050505092915050565b600080610cce868686611760565b9050610cd8611798565b600201600082815260200190815260200160002060008473ffffffffffffffffffffffffffffffffffffffff1673ffffffffffffffffffffffffffffffffffffffff16815260200190815260200160002054915050949350505050565b600092915050565b610d45611f5c565b8460600151816060019061ffff16908161ffff16815250508460800151816080019015159081151581525050610d79610966565b73ffffffffffffffffffffffffffffffffffffffff1663db61122586606001518760800151156040518363ffffffff1660e01b8152600401610dbc929190612a88565b602060405180830381865afa158015610dd9573d6000803e3d6000fd5b505050506040513d601f19601f82011682018060405250810190610dfd9190612ac6565b81600001818152505060018160c001901515908115158152505084610240015181610240019067ffffffffffffffff16908167ffffffffffffffff1681525050846101e00151816101e0019073ffffffffffffffffffffffffffffffffffffffff16908173ffffffffffffffffffffffffffffffffffffffff168152505084610100015181610100018181525050600081610160018181525050818015610ea65750846102c001515b80610ec3575081151560001515148015610ec25750846102e001515b5b15610ee65783816101600181815250506001816102a00190151590811515815250505b846080015115158215151481610300019015159081151581525050828161012001818152505084610260015181610260018181525050949350505050565b60606000610f306117c5565b60030160008461ffff1661ffff16815260200190815260200160002060009054906101000a900473ffffffffffffffffffffffffffffffffffffffff169050610fbf610f7a6117c5565b60060160008373ffffffffffffffffffffffffffffffffffffffff1673ffffffffffffffffffffffffffffffffffffffff1681526020019081526020016000206117f2565b915050919050565b600080610fd684846001611813565b600001519150610fe884846000611813565b6000015190509250929050565b60008060006110026112a7565b90508060020160006110158660016112d4565b815260200190815260200160002060000154925080600201600061103a8660006112d4565b815260200190815260200160002060000154915050915091565b61105c6120dd565b8160600151816000019061ffff16908161ffff168152505081608001518160400190151590811515815250508161010001518160200181815250506110a482606001516104f3565b8260600183608001828152508281525050506110c98160000151836101e00151610472565b8260a0018360c001828152508281525050506110e88160000151610ff5565b8260e001836101000182815250828152505050600061110a836060015161195a565b90506111146119a8565b73ffffffffffffffffffffffffffffffffffffffff16639823bc9b61113c85606001516119b0565b8373ffffffffffffffffffffffffffffffffffffffff1663313ce5676040518163ffffffff1660e01b8152600401602060405180830381865afa158015611187573d6000803e3d6000fd5b505050506040513d601f19601f820116820180604052508101906111ab9190613707565b6040518363ffffffff1660e01b81526004016111c8929190613734565b602060405180830381865afa1580156111e5573d6000803e3d6000fd5b505050506040513d601f19601f820116820180604052508101906112099190612ac6565b8261012001818152505061121c82611a77565b61125b576040517f08c379a0000000000000000000000000000000000000000000000000000000008152600401611252906137a9565b60405180910390fd5b505050565b6060600061126f878688611760565b9050600061127d8585611aab565b9050505095945050505050565b60008260c001518061129f5750818360600151145b905092915050565b6000807f92bcfabaf0a890def3092675474357e5f93a0f117ca63a3db421d44c5b55fba590508091505090565b600081836040516020016112e9929190613847565b604051602081830303815290604052611301906138a5565b905092915050565b60008061131583610ff5565b91509150611321611394565b73ffffffffffffffffffffffffffffffffffffffff1663a256a1168484846040518463ffffffff1660e01b815260040161135d9392919061390c565b600060405180830381600087803b15801561137757600080fd5b505af115801561138b573d6000803e3d6000fd5b50505050505050565b600030905090565b50565b50565b60007f7fffffffffffffffffffffffffffffffffffffffffffffffffffffffffffffff82111561140957816040517f24775e060000000000000000000000000000000000000000000000000000000081526004016114009190613943565b60405180910390fd5b819050919050565b61141961207a565b600084610100015114801561142e5750600083125b156114fc5761143b611ade565b73ffffffffffffffffffffffffffffffffffffffff16636c1a66cb856101e00151856114669061395e565b8761010001518689608001516040516020016114869594939291906139b5565b6040516020818303038152906040526040518263ffffffff1660e01b81526004016114b19190613344565b610120604051808303816000875af11580156114d1573d6000803e3d6000fd5b505050506040513d601f19601f820116820180604052508101906114f59190613b53565b9050611742565b600061150b856060015161195a565b905061151a8560600151611ae6565b73ffffffffffffffffffffffffffffffffffffffff1663f5151f3586606001516115426119a8565b73ffffffffffffffffffffffffffffffffffffffff1663812b2f938961010001518673ffffffffffffffffffffffffffffffffffffffff1663313ce5676040518163ffffffff1660e01b8152600401602060405180830381865afa1580156115ae573d6000803e3d6000fd5b505050506040513d601f19601f820116820180604052508101906115d29190613707565b6040518363ffffffff1660e01b81526004016115ef929190613734565b602060405180830381865afa15801561160c573d6000803e3d6000fd5b505050506040513d601f19601f820116820180604052508101906116309190612ac6565b6040518363ffffffff1660e01b815260040161164d929190613b81565b600060405180830381600087803b15801561166757600080fd5b505af115801561167b573d6000803e3d6000fd5b50505050611687611ade565b73ffffffffffffffffffffffffffffffffffffffff1663db73bcb3866101e00151868861010001518960000151888b608001516040516020016116cf96959493929190613baa565b6040516020818303038152906040526040518263ffffffff1660e01b81526004016116fa9190613344565b610120604051808303816000875af115801561171a573d6000803e3d6000fd5b505050506040513d601f19601f8201168201806040525081019061173e9190613b53565b9150505b611759846060015182600001518360200151611af8565b9392505050565b600082828560405160200161177793929190613c0b565b60405160208183030381529060405261178f906138a5565b90509392505050565b6000807fbf93ccae7e050fdad00615e220e3f9b7ebb112ac9318fb8604653a7d8091238890508091505090565b6000807f2eec39e2b6bcfb5f1ee2be0b6e9d5a470a45585b1e2f7f291af9fb9f551763d090508091505090565b6060600061180283600001611afd565b905060608190508092505050919050565b61181b61207a565b6118236112a7565b600001600061183286856112d4565b815260200190815260200160002060008473ffffffffffffffffffffffffffffffffffffffff1673ffffffffffffffffffffffffffffffffffffffff1681526020019081526020016000206040518061012001604052908160008201548152602001600182015481526020016002820154815260200160038201548152602001600482015481526020016005820160009054906101000a900460ff161515151581526020016005820160019054906101000a900463ffffffff1663ffffffff1663ffffffff1681526020016005820160059054906101000a900461ffff1661ffff1661ffff1681526020016005820160079054906101000a900468ffffffffffffffffff1668ffffffffffffffffff1668ffffffffffffffffff168152505090509392505050565b60006119646117c5565b60040160008361ffff1661ffff16815260200190815260200160002060009054906101000a900473ffffffffffffffffffffffffffffffffffffffff169050919050565b600030905090565b6000806119bb6117c5565b905060008160030160008561ffff1661ffff16815260200190815260200160002060009054906101000a900473ffffffffffffffffffffffffffffffffffffffff1690508073ffffffffffffffffffffffffffffffffffffffff16636dc7b0a16040518163ffffffff1660e01b8152600401602060405180830381865afa158015611a4a573d6000803e3d6000fd5b505050506040513d601f19601f82011682018060405250810190611a6e9190612ac6565b92505050919050565b600080826020015103611a8d5760019050611aa6565b6000611a9883611b59565b905082602001518110159150505b919050565b60008282604051602001611ac0929190613cc6565b60405160208183030381529060405280519060200120905092915050565b600030905090565b6000611af182611c41565b9050919050565b505050565b606081600001805480602002602001604051908101604052809291908181526020018280548015611b4d57602002820191906000526020600020905b815481526020019060010190808311611b39575b50505050509050919050565b600080611b79836060015184608001518561012001518660400151611c8f565b905060008103611b8d576000915050611c3c565b6000611bac846060015185608001518661012001518760400151611cf6565b905060008103611bc157600092505050611c3c565b81811015611bcd578091505b611bea8460a001518560c001518661012001518760400151611d82565b905060008103611bff57600092505050611c3c565b81811015611c0b578091505b611c28846000015185604001518660e00151876101000151611e0e565b905081811015611c36578091505b81925050505b919050565b6000611c4b6117c5565b60030160008361ffff1661ffff16815260200190815260200160002060009054906101000a900473ffffffffffffffffffffffffffffffffffffffff169050919050565b60008082611c9d5784611c9f565b855b90506000670de0b6b3a7640000611cb4611e58565b86611cbf9190613cf2565b611cc99190613d63565b9050808210611cdd57600092505050611cee565b8181611ce99190613d94565b925050505b949350505050565b60008082611d045784611d06565b855b90506000670de0b6b3a7640000611d1b611e87565b86611d269190613cf2565b611d309190613d63565b905083611d48578681611d439190612b51565b611d55565b8581611d549190612b51565b5b9050808210611d6957600092505050611d7a565b8181611d759190613d94565b925050505b949350505050565b60008082611d905784611d92565b855b90506000670de0b6b3a7640000611da7611eb6565b86611db29190613cf2565b611dbc9190613d63565b905083611dd4578681611dcf9190612b51565b611de1565b8581611de09190612b51565b5b9050808210611df557600092505050611e06565b8181611e019190613d94565b925050505b949350505050565b600080611e1a86611ee5565b9050600085611e295783611e2b565b845b9050818110611e3f57600092505050611e50565b8082611e4b9190613d94565b925050505b949350505050565b600080611e63611f2f565b60000154905060008114611e775780611e81565b670de0b6b3a76400005b91505090565b600080611e92611f2f565b60010154905060008114611ea65780611eb0565b670de0b6b3a76400005b91505090565b600080611ec1611f2f565b60020154905060008114611ed55780611edf565b670de0b6b3a76400005b91505090565b600080611ef0611f2f565b60030160008461ffff1661ffff16815260200190815260200160002054905060008114611f1d5780611f27565b670de0b6b3a76400005b915050919050565b6000807f4d502ef5fdff70d438af9761f5d88171826a8d62a1895d92f16b3f9b850427db90508091505090565b604051806103400160405280600081526020016000815260200160008152602001600061ffff168152602001600015158152602001600015158152602001600015158152602001600015158152602001600081526020016000815260200160008152602001600081526020016000815260200160008152602001600067ffffffffffffffff168152602001600073ffffffffffffffffffffffffffffffffffffffff168152602001600015158152602001600060ff168152602001600067ffffffffffffffff16815260200160008019168152602001600060ff16815260200160001515815260200160001515815260200160001515815260200160001515815260200160006fffffffffffffffffffffffffffffffff1681525090565b6040518061012001604052806000815260200160008152602001600081526020016000815260200160008152602001600015158152602001600063ffffffff168152602001600061ffff168152602001600068ffffffffffffffffff1681525090565b604051806101400160405280600061ffff16815260200160008152602001600015158152602001600081526020016000815260200160008152602001600081526020016000815260200160008152602001600081525090565b6000604051905090565b600080fd5b600080fd5b600080fd5b6000601f19601f8301169050919050565b7f4e487b7100000000000000000000000000000000000000000000000000000000600052604160045260246000fd5b6121988261214f565b810181811067ffffffffffffffff821117156121b7576121b6612160565b5b80604052505050565b60006121ca612136565b90506121d6828261218f565b919050565b6000819050919050565b6121ee816121db565b81146121f957600080fd5b50565b60008135905061220b816121e5565b92915050565b60006fffffffffffffffffffffffffffffffff82169050919050565b61223681612211565b811461224157600080fd5b50565b6000813590506122538161222d565b92915050565b6000819050919050565b61226c81612259565b811461227757600080fd5b50565b60008135905061228981612263565b92915050565b60008115159050919050565b6122a48161228f565b81146122af57600080fd5b50565b6000813590506122c18161229b565b92915050565b600067ffffffffffffffff82169050919050565b6122e4816122c7565b81146122ef57600080fd5b50565b600081359050612301816122db565b92915050565b600063ffffffff82169050919050565b61232081612307565b811461232b57600080fd5b50565b60008135905061233d81612317565b92915050565b600060ff82169050919050565b61235981612343565b811461236457600080fd5b50565b60008135905061237681612350565b92915050565b600073ffffffffffffffffffffffffffffffffffffffff82169050919050565b60006123a78261237c565b9050919050565b6123b78161239c565b81146123c257600080fd5b50565b6000813590506123d4816123ae565b92915050565b60006bffffffffffffffffffffffff82169050919050565b6123fb816123da565b811461240657600080fd5b50565b600081359050612418816123f2565b92915050565b600061ffff82169050919050565b6124358161241e565b811461244057600080fd5b50565b6000813590506124528161242c565b92915050565b6000610300828403121561246f5761246e61214a565b5b61247a6103006121c0565b9050600061248a848285016121fc565b600083015250602061249e84828501612244565b60208301525060406124b284828501612244565b60408301525060606124c68482850161227a565b60608301525060806124da8482850161227a565b60808301525060a06124ee848285016122b2565b60a08301525060c0612502848285016122b2565b60c08301525060e0612516848285016122b2565b60e08301525061010061252b848285016122b2565b61010083015250610120612541848285016122b2565b61012083015250610140612557848285016122f2565b6101408301525061016061256d848285016122f2565b61016083015250610180612583848285016122f2565b610180830152506101a06125998482850161232e565b6101a0830152506101c06125af84828501612367565b6101c0830152506101e06125c5848285016123c5565b6101e0830152506102006125db84828501612409565b610200830152506102206125f18482850161227a565b61022083015250610240612607848285016122b2565b6102408301525061026061261d848285016122b2565b6102608301525061028061263384828501612443565b610280830152506102a061264984828501612409565b6102a0830152506102c061265f84828501612244565b6102c0830152506102e061267584828501612367565b6102e08301525092915050565b600061034082840312156126995761269861214a565b5b6126a46103406121c0565b905060006126b48482850161227a565b60008301525060206126c88482850161227a565b60208301525060406126dc8482850161227a565b60408301525060606126f084828501612443565b6060830152506080612704848285016122b2565b60808301525060a0612718848285016122b2565b60a08301525060c061272c848285016122b2565b60c08301525060e0612740848285016122b2565b60e0830152506101006127558482850161227a565b6101008301525061012061276b8482850161227a565b610120830152506101406127818482850161227a565b610140830152506101606127978482850161227a565b610160830152506101806127ad8482850161227a565b610180830152506101a06127c38482850161227a565b6101a0830152506101c06127d9848285016122f2565b6101c0830152506101e06127ef848285016123c5565b6101e083015250610200612805848285016122b2565b6102008301525061022061281b84828501612367565b61022083015250610240612831848285016122f2565b61024083015250610260612847848285016121fc565b6102608301525061028061285d84828501612367565b610280830152506102a0612873848285016122b2565b6102a0830152506102c0612889848285016122b2565b6102c0830152506102e061289f848285016122b2565b6102e0830152506103006128b5848285016122b2565b610300830152506103206128cb84828501612244565b6103208301525092915050565b60008061064083850312156128f0576128ef612140565b5b60006128fe85828601612458565b92505061030061291085828601612682565b9150509250929050565b6000610340828403121561293157612930612140565b5b600061293f84828501612682565b91505092915050565b6000806040838503121561295f5761295e612140565b5b600061296d85828601612443565b925050602061297e858286016123c5565b9150509250929050565b61299181612259565b82525050565b60006040820190506129ac6000830185612988565b6129b96020830184612988565b9392505050565b6000602082840312156129d6576129d5612140565b5b60006129e484828501612443565b91505092915050565b600082825260208201905092915050565b7f506f736974696f6e4164644d67723a696e76616c69642069736f70656e000000600082015250565b6000612a34601d836129ed565b9150612a3f826129fe565b602082019050919050565b60006020820190508181036000830152612a6381612a27565b9050919050565b612a738161241e565b82525050565b612a828161228f565b82525050565b6000604082019050612a9d6000830185612a6a565b612aaa6020830184612a79565b9392505050565b600081519050612ac081612263565b92915050565b600060208284031215612adc57612adb612140565b5b6000612aea84828501612ab1565b91505092915050565b7f4e487b7100000000000000000000000000000000000000000000000000000000600052603260045260246000fd5b7f4e487b7100000000000000000000000000000000000000000000000000000000600052601160045260246000fd5b6000612b5c82612259565b9150612b6783612259565b9250828201905080821115612b7f57612b7e612b22565b5b92915050565b6000612b9082612259565b91507fffffffffffffffffffffffffffffffffffffffffffffffffffffffffffffffff8203612bc257612bc1612b22565b5b600182019050919050565b7f696e76616c6964206f72646572206b6579000000000000000000000000000000600082015250565b6000612c036011836129ed565b9150612c0e82612bcd565b602082019050919050565b60006020820190508181036000830152612c3281612bf6565b9050919050565b7f506f736974696f6e4164644d67723a216163636f756e74000000000000000000600082015250565b6000612c6f6017836129ed565b9150612c7a82612c39565b602082019050919050565b60006020820190508181036000830152612c9e81612c62565b9050919050565b6000612cb082612343565b9150612cbb83612343565b9250828201905060ff811115612cd457612cd3612b22565b5b92915050565b600081519050919050565b60005b83811015612d03578082015181840152602081019050612ce8565b60008484015250505050565b6000612d1a82612cda565b612d2481856129ed565b9350612d34818560208601612ce5565b612d3d8161214f565b840191505092915050565b60006020820190508181036000830152612d628184612d0f565b905092915050565b7f506f736974696f6e4164644d67723a20696e73756666696369656e7420636f6c60008201527f6c61746572616c00000000000000000000000000000000000000000000000000602082015250565b6000612dc66027836129ed565b9150612dd182612d6a565b604082019050919050565b60006020820190508181036000830152612df581612db9565b9050919050565b7f4e487b7100000000000000000000000000000000000000000000000000000000600052602160045260246000fd5b6000819050919050565b6000612e50612e4b612e46846122c7565b612e2b565b612259565b9050919050565b612e6081612e35565b82525050565b612e6f81612343565b82525050565b50565b6000612e856000836129ed565b9150612e9082612e75565b600082019050919050565b6000819050919050565b612eae81612e9b565b82525050565b600061010082019050612eca600083018a612a79565b612ed76020830189612a79565b612ee46040830188612e57565b612ef16060830187612a6a565b612efe6080830186612e66565b81810360a0830152612f0f81612e78565b9050612f1e60c0830185612988565b612f2b60e0830184612ea5565b98975050505050505050565b612f4081612259565b82525050565b612f4f8161241e565b82525050565b612f5e8161228f565b82525050565b612f6d816122c7565b82525050565b612f7c8161239c565b82525050565b612f8b81612343565b82525050565b612f9a816121db565b82525050565b612fa981612211565b82525050565b61034082016000820151612fc66000850182612f37565b506020820151612fd96020850182612f37565b506040820151612fec6040850182612f37565b506060820151612fff6060850182612f46565b5060808201516130126080850182612f55565b5060a082015161302560a0850182612f55565b5060c082015161303860c0850182612f55565b5060e082015161304b60e0850182612f55565b50610100820151613060610100850182612f37565b50610120820151613075610120850182612f37565b5061014082015161308a610140850182612f37565b5061016082015161309f610160850182612f37565b506101808201516130b4610180850182612f37565b506101a08201516130c96101a0850182612f37565b506101c08201516130de6101c0850182612f64565b506101e08201516130f36101e0850182612f73565b50610200820151613108610200850182612f55565b5061022082015161311d610220850182612f82565b50610240820151613132610240850182612f64565b50610260820151613147610260850182612f91565b5061028082015161315c610280850182612f82565b506102a08201516131716102a0850182612f55565b506102c08201516131866102c0850182612f55565b506102e082015161319b6102e0850182612f55565b506103008201516131b0610300850182612f55565b506103208201516131c5610320850182612fa0565b50505050565b6131d481612e9b565b82525050565b6131e381612307565b82525050565b600068ffffffffffffffffff82169050919050565b613207816131e9565b82525050565b610120820160008201516132246000850182612f37565b5060208201516132376020850182612f37565b50604082015161324a60408501826131cb565b50606082015161325d60608501826131cb565b5060808201516132706080850182612f37565b5060a082015161328360a0850182612f55565b5060c082015161329660c08501826131da565b5060e08201516132a960e0850182612f46565b506101008201516132be6101008501826131fe565b50505050565b6000610460820190506132da6000830185612faf565b6132e861034083018461320d565b9392505050565b600081519050919050565b600082825260208201905092915050565b6000613316826132ef565b61332081856132fa565b9350613330818560208601612ce5565b6133398161214f565b840191505092915050565b6000602082019050818103600083015261335e818461330b565b905092915050565b600080fd5b600067ffffffffffffffff82111561338657613385612160565b5b602082029050602081019050919050565b600080fd5b6133a581612e9b565b81146133b057600080fd5b50565b6000815190506133c28161339c565b92915050565b60006133db6133d68461336b565b6121c0565b905080838252602082019050602084028301858111156133fe576133fd613397565b5b835b81811015613427578061341388826133b3565b845260208401935050602081019050613400565b5050509392505050565b600082601f83011261344657613445613366565b5b81516134568482602086016133c8565b91505092915050565b6000806040838503121561347657613475612140565b5b600083015167ffffffffffffffff81111561349457613493612145565b5b6134a085828601613431565b92505060206134b1858286016133b3565b9150509250929050565b600081519050919050565b600082825260208201905092915050565b6000819050602082019050919050565b60006134f383836131cb565b60208301905092915050565b6000602082019050919050565b6000613517826134bb565b61352181856134c6565b935061352c836134d7565b8060005b8381101561355d57815161354488826134e7565b975061354f836134ff565b925050600181019050613530565b5085935050505092915050565b6000610480820190506135806000830186612faf565b61358e61034083018561320d565b8181036104608301526135a1818461350c565b9050949350505050565b6000819050919050565b60006135d06135cb6135c6846135ab565b612e2b565b612343565b9050919050565b6135e0816135b5565b82525050565b6000819050919050565b600061360b613606613601846135e6565b612e2b565b612343565b9050919050565b61361b816135f0565b82525050565b600060c08201905061363660008301896135d7565b6136436020830188612988565b6136506040830187612988565b61365d6060830186612988565b61366a6080830185613612565b61367760a0830184612ea5565b979650505050505050565b60006020828403121561369857613697612140565b5b60006136a6848285016133b3565b91505092915050565b60006136ba82612e9b565b91506136c583612e9b565b92508282039050818112600084121682821360008512151617156136ec576136eb612b22565b5b92915050565b60008151905061370181612350565b92915050565b60006020828403121561371d5761371c612140565b5b600061372b848285016136f2565b91505092915050565b60006040820190506137496000830185612988565b6137566020830184612e66565b9392505050565b7f6d723a6776000000000000000000000000000000000000000000000000000000600082015250565b60006137936005836129ed565b915061379e8261375d565b602082019050919050565b600060208201905081810360008301526137c281613786565b9050919050565b60008160f81b9050919050565b60006137e1826137c9565b9050919050565b60006137f3826137d6565b9050919050565b61380b6138068261228f565b6137e8565b82525050565b60008160f01b9050919050565b600061382982613811565b9050919050565b61384161383c8261241e565b61381e565b82525050565b600061385382856137fa565b6001820191506138638284613830565b6002820191508190509392505050565b6000819050602082019050919050565b600061388f82516121db565b80915050919050565b600082821b905092915050565b60006138b0826132ef565b826138ba84613873565b90506138c581613883565b92506020821015613905576139007fffffffffffffffffffffffffffffffffffffffffffffffffffffffffffffffff83602003600802613898565b831692505b5050919050565b60006060820190506139216000830186612a6a565b61392e6020830185612988565b61393b6040830184612988565b949350505050565b60006020820190506139586000830184612988565b92915050565b600061396982612e9b565b91507f8000000000000000000000000000000000000000000000000000000000000000820361399b5761399a612b22565b5b816000039050919050565b6139af8161239c565b82525050565b600060a0820190506139ca60008301886139a6565b6139d76020830187612988565b6139e46040830186612988565b6139f16060830185612ea5565b6139fe6080830184612a79565b9695505050505050565b600081519050613a178161229b565b92915050565b600081519050613a2c81612317565b92915050565b600081519050613a418161242c565b92915050565b613a50816131e9565b8114613a5b57600080fd5b50565b600081519050613a6d81613a47565b92915050565b60006101208284031215613a8a57613a8961214a565b5b613a956101206121c0565b90506000613aa584828501612ab1565b6000830152506020613ab984828501612ab1565b6020830152506040613acd848285016133b3565b6040830152506060613ae1848285016133b3565b6060830152506080613af584828501612ab1565b60808301525060a0613b0984828501613a08565b60a08301525060c0613b1d84828501613a1d565b60c08301525060e0613b3184828501613a32565b60e083015250610100613b4684828501613a5e565b6101008301525092915050565b60006101208284031215613b6a57613b69612140565b5b6000613b7884828501613a73565b91505092915050565b6000604082019050613b966000830185612a6a565b613ba36020830184612988565b9392505050565b600060c082019050613bbf60008301896139a6565b613bcc6020830188612ea5565b613bd96040830187612988565b613be66060830186612988565b613bf36080830185612ea5565b613c0060a0830184612a79565b979650505050505050565b6000613c1782866137fa565b600182019150613c2782856137fa565b600182019150613c378284613830565b600282019150819050949350505050565b60008160601b9050919050565b6000613c6082613c48565b9050919050565b6000613c7282613c55565b9050919050565b613c8a613c858261239c565b613c67565b82525050565b60008160c01b9050919050565b6000613ca882613c90565b9050919050565b613cc0613cbb826122c7565b613c9d565b82525050565b6000613cd28285613c79565b601482019150613ce28284613caf565b6008820191508190509392505050565b6000613cfd82612259565b9150613d0883612259565b9250828202613d1681612259565b91508282048414831517613d2d57613d2c612b22565b5b5092915050565b7f4e487b7100000000000000000000000000000000000000000000000000000000600052601260045260246000fd5b6000613d6e82612259565b9150613d7983612259565b925082613d8957613d88613d34565b5b828204905092915050565b6000613d9f82612259565b9150613daa83612259565b9250828203905081811115613dc257613dc1612b22565b5b9291505056fea2646970667358221220a97f99b1e252004f63e2314501d23761e495578c1db171e5dba3d20ad05f670664736f6c63430008140033",
  "devdoc": {
    "errors": {
      "SafeCastOverflowedUintToInt(uint256)": [
        {
          "details": "An uint value doesn't fit in an int of `bits` size."
        }
      ]
    },
    "kind": "dev",
    "methods": {},
    "version": 1
  },
  "userdoc": {
    "kind": "user",
    "methods": {},
    "version": 1
  },
  "storageLayout": {
    "storage": [],
    "types": null
  }
}