{
  "address": "0xd02a7687888c848C8aF2462C1D145Aca1256656D",
  "abi": [
    {
      "inputs": [
        {
          "internalType": "address",
          "name": "authority",
          "type": "address"
        }
      ],
      "name": "AccessManagedInvalidAuthority",
      "type": "error"
    },
    {
      "inputs": [
        {
          "internalType": "address",
          "name": "caller",
          "type": "address"
        },
        {
          "internalType": "uint32",
          "name": "delay",
          "type": "uint32"
        }
      ],
      "name": "AccessManagedRequiredDelay",
      "type": "error"
    },
    {
      "inputs": [
        {
          "internalType": "address",
          "name": "caller",
          "type": "address"
        }
      ],
      "name": "AccessManagedUnauthorized",
      "type": "error"
    },
    {
      "inputs": [
        {
          "internalType": "uint256",
          "name": "value",
          "type": "uint256"
        }
      ],
      "name": "SafeCastOverflowedUintToInt",
      "type": "error"
    },
    {
      "anonymous": false,
      "inputs": [
        {
          "indexed": true,
          "internalType": "address",
          "name": "account",
          "type": "address"
        },
        {
          "indexed": false,
          "internalType": "bool",
          "name": "isLong",
          "type": "bool"
        },
        {
          "indexed": false,
          "internalType": "bool",
          "name": "isIncrease",
          "type": "bool"
        },
        {
          "indexed": false,
          "internalType": "uint256",
          "name": "orderID",
          "type": "uint256"
        },
        {
          "indexed": false,
          "internalType": "uint16",
          "name": "market",
          "type": "uint16"
        },
        {
          "indexed": false,
          "internalType": "uint8",
          "name": "reason",
          "type": "uint8"
        },
        {
          "indexed": false,
          "internalType": "string",
          "name": "reasonStr",
          "type": "string"
        },
        {
          "indexed": false,
          "internalType": "uint256",
          "name": "price",
          "type": "uint256"
        },
        {
          "indexed": false,
          "internalType": "int256",
          "name": "dPNL",
          "type": "int256"
        }
      ],
      "name": "DeleteOrder",
      "type": "event"
    },
    {
      "inputs": [
        {
          "components": [
            {
              "internalType": "bytes32",
              "name": "refCode",
              "type": "bytes32"
            },
            {
              "internalType": "uint128",
              "name": "collateral",
              "type": "uint128"
            },
            {
              "internalType": "uint128",
              "name": "size",
              "type": "uint128"
            },
            {
              "internalType": "uint256",
              "name": "price",
              "type": "uint256"
            },
            {
              "internalType": "uint256",
              "name": "tp",
              "type": "uint256"
            },
            {
              "internalType": "bool",
              "name": "triggerAbove",
              "type": "bool"
            },
            {
              "internalType": "bool",
              "name": "isFromMarket",
              "type": "bool"
            },
            {
              "internalType": "bool",
              "name": "isKeepLev",
              "type": "bool"
            },
            {
              "internalType": "bool",
              "name": "isKeepLevTP",
              "type": "bool"
            },
            {
              "internalType": "bool",
              "name": "isKeepLevSL",
              "type": "bool"
            },
            {
              "internalType": "uint64",
              "name": "orderID",
              "type": "uint64"
            },
            {
              "internalType": "uint64",
              "name": "pairId",
              "type": "uint64"
            },
            {
              "internalType": "uint64",
              "name": "fromId",
              "type": "uint64"
            },
            {
              "internalType": "uint32",
              "name": "updatedAtBlock",
              "type": "uint32"
            },
            {
              "internalType": "uint8",
              "name": "extra0",
              "type": "uint8"
            },
            {
              "internalType": "address",
              "name": "account",
              "type": "address"
            },
            {
              "internalType": "uint96",
              "name": "extra1",
              "type": "uint96"
            },
            {
              "internalType": "uint256",
              "name": "sl",
              "type": "uint256"
            },
            {
              "internalType": "bool",
              "name": "isIncrease",
              "type": "bool"
            },
            {
              "internalType": "bool",
              "name": "isLong",
              "type": "bool"
            },
            {
              "internalType": "uint16",
              "name": "market",
              "type": "uint16"
            },
            {
              "internalType": "uint96",
              "name": "extra2",
              "type": "uint96"
            },
            {
              "internalType": "uint128",
              "name": "gas",
              "type": "uint128"
            },
            {
              "internalType": "uint8",
              "name": "version",
              "type": "uint8"
            }
          ],
          "internalType": "struct OrderProps",
          "name": "order",
          "type": "tuple"
        },
        {
          "components": [
            {
              "internalType": "enum MarketBusinessType",
              "name": "busiType",
              "type": "uint8"
            },
            {
              "internalType": "uint256",
              "name": "oraclePrice",
              "type": "uint256"
            },
            {
              "internalType": "uint256",
              "name": "pay",
              "type": "uint256"
            },
            {
              "internalType": "uint256",
              "name": "slippage",
              "type": "uint256"
            },
            {
              "internalType": "uint16",
              "name": "market",
              "type": "uint16"
            },
            {
              "internalType": "bool",
              "name": "isLong",
              "type": "bool"
            },
            {
              "internalType": "bool",
              "name": "isOpen",
              "type": "bool"
            },
            {
              "internalType": "bool",
              "name": "isCreate",
              "type": "bool"
            },
            {
              "internalType": "bool",
              "name": "isFromMarket",
              "type": "bool"
            },
            {
              "internalType": "uint256",
              "name": "sizeDelta",
              "type": "uint256"
            },
            {
              "internalType": "uint256",
              "name": "price",
              "type": "uint256"
            },
            {
              "internalType": "uint256",
              "name": "collateralDelta",
              "type": "uint256"
            },
            {
              "internalType": "uint256",
              "name": "collateral",
              "type": "uint256"
            },
            {
              "internalType": "uint256",
              "name": "tp",
              "type": "uint256"
            },
            {
              "internalType": "uint256",
              "name": "sl",
              "type": "uint256"
            },
            {
              "internalType": "uint64",
              "name": "orderId",
              "type": "uint64"
            },
            {
              "internalType": "address",
              "name": "account",
              "type": "address"
            },
            {
              "internalType": "bool",
              "name": "isExec",
              "type": "bool"
            },
            {
              "internalType": "enum LiquidationState",
              "name": "liqState",
              "type": "uint8"
            },
            {
              "internalType": "uint64",
              "name": "fromOrder",
              "type": "uint64"
            },
            {
              "internalType": "bytes32",
              "name": "refCode",
              "type": "bytes32"
            },
            {
              "internalType": "uint8",
              "name": "execNum",
              "type": "uint8"
            },
            {
              "internalType": "bool",
              "name": "isKeepLev",
              "type": "bool"
            },
            {
              "internalType": "bool",
              "name": "isKeepLevTP",
              "type": "bool"
            },
            {
              "internalType": "bool",
              "name": "isKeepLevSL",
              "type": "bool"
            },
            {
              "internalType": "bool",
              "name": "triggerAbove",
              "type": "bool"
            },
            {
              "internalType": "uint128",
              "name": "gas",
              "type": "uint128"
            }
          ],
          "internalType": "struct MarketCache",
          "name": "_params",
          "type": "tuple"
        }
      ],
      "name": "execAddOrder",
      "outputs": [],
      "stateMutability": "nonpayable",
      "type": "function"
    },
    {
      "inputs": [
        {
          "internalType": "uint16",
          "name": "market",
          "type": "uint16"
        },
        {
          "internalType": "address",
          "name": "account",
          "type": "address"
        }
      ],
      "name": "getAccountSizeOfMarkets",
      "outputs": [
        {
          "internalType": "uint256",
          "name": "sizesL",
          "type": "uint256"
        },
        {
          "internalType": "uint256",
          "name": "sizesS",
          "type": "uint256"
        }
      ],
      "stateMutability": "view",
      "type": "function"
    },
    {
      "inputs": [
        {
          "internalType": "uint16",
          "name": "market",
          "type": "uint16"
        }
      ],
      "name": "getGlobalSize",
      "outputs": [
        {
          "internalType": "uint256",
          "name": "sizesLong",
          "type": "uint256"
        },
        {
          "internalType": "uint256",
          "name": "sizesShort",
          "type": "uint256"
        }
      ],
      "stateMutability": "view",
      "type": "function"
    },
    {
      "inputs": [
        {
          "internalType": "uint16",
          "name": "market",
          "type": "uint16"
        }
      ],
      "name": "getMarketsOfMarket",
      "outputs": [
        {
          "internalType": "uint256[]",
          "name": "",
          "type": "uint256[]"
        }
      ],
      "stateMutability": "view",
      "type": "function"
    }
  ],
  "transactionHash": "0xa04ee131671aaf5f44509cb42717eea22abbd9ebac554e5c4f4d7521bac3df57",
  "args": [],
  "numDeployments": 9,
  "solcInputHash": "d809974f1acba5ed94eb449ed42024a5",
  "bytecode": "0x60806040523462000023576200001462000029565b6158fe6200003582396158fe90f35b6200002f565b60405190565b600080fdfe60806040526004361015610013575b61091b565b61001e60003561005d565b806369e135f9146100585780638593090f146100535780639d24a6881461004e5763a01e7bc60361000e576108e5565b6108b0565b6107b9565b610726565b60e01c90565b60405190565b600080fd5b600080fd5b600080fd5b600080fd5b601f801991011690565b634e487b7160e01b600052604160045260246000fd5b906100a79061007d565b810190811060018060401b038211176100bf57604052565b610087565b906100d76100d0610063565b928361009d565b565b90565b6100e5816100d9565b036100ec57565b600080fd5b905035906100fe826100dc565b565b60018060801b031690565b61011481610100565b0361011b57565b600080fd5b9050359061012d8261010b565b565b90565b61013b8161012f565b0361014257565b600080fd5b9050359061015482610132565b565b151590565b61016481610156565b0361016b57565b600080fd5b9050359061017d8261015b565b565b60018060401b031690565b6101938161017f565b0361019a57565b600080fd5b905035906101ac8261018a565b565b63ffffffff1690565b6101c0816101ae565b036101c757565b600080fd5b905035906101d9826101b7565b565b60ff1690565b6101ea816101db565b036101f157565b600080fd5b90503590610203826101e1565b565b60018060a01b031690565b61021990610205565b90565b61022581610210565b0361022c57565b600080fd5b9050359061023e8261021c565b565b60018060601b031690565b61025481610240565b0361025b57565b600080fd5b9050359061026d8261024b565b565b61ffff1690565b61027f8161026f565b0361028657565b600080fd5b9050359061029882610276565b565b9190610300838203126104845761047c906102b66103006100c4565b936102c482600083016100f1565b60008601526102d68260208301610120565b60208601526102e88260408301610120565b60408601526102fa8260608301610147565b606086015261030c8260808301610147565b608086015261031e8260a08301610170565b60a08601526103308260c08301610170565b60c08601526103428260e08301610170565b60e0860152610355826101008301610170565b610100860152610369826101208301610170565b61012086015261037d82610140830161019f565b61014086015261039182610160830161019f565b6101608601526103a582610180830161019f565b6101808601526103b9826101a083016101cc565b6101a08601526103cd826101c083016101f6565b6101c08601526103e1826101e08301610231565b6101e08601526103f5826102008301610260565b610200860152610409826102208301610147565b61022086015261041d826102408301610170565b610240860152610431826102608301610170565b61026086015261044582610280830161028b565b610280860152610459826102a08301610260565b6102a086015261046d826102c08301610120565b6102c08601526102e0016101f6565b6102e0830152565b610078565b6005111561049357565b600080fd5b905035906104a582610489565b565b600311156104b157565b600080fd5b905035906104c3826104a7565b565b9190610360838203126106eb576106e3906104e16103606100c4565b936104ef8260008301610498565b60008601526105018260208301610147565b60208601526105138260408301610147565b60408601526105258260608301610147565b6060860152610537826080830161028b565b60808601526105498260a08301610170565b60a086015261055b8260c08301610170565b60c086015261056d8260e08301610170565b60e0860152610580826101008301610170565b610100860152610594826101208301610147565b6101208601526105a8826101408301610147565b6101408601526105bc826101608301610147565b6101608601526105d0826101808301610147565b6101808601526105e4826101a08301610147565b6101a08601526105f8826101c08301610147565b6101c086015261060c826101e0830161019f565b6101e0860152610620826102008301610231565b610200860152610634826102208301610170565b6102208601526106488261024083016104b6565b61024086015261065c82610260830161019f565b6102608601526106708261028083016100f1565b610280860152610684826102a083016101f6565b6102a0860152610698826102c08301610170565b6102c08601526106ac826102e08301610170565b6102e08601526106c0826103008301610170565b6103008601526106d4826103208301610170565b61032086015261034001610120565b610340830152565b610078565b91906106608382031261071b578061070e610718926000860161029a565b93610300016104c5565b90565b61006e565b60000190565b346107555761073f6107393660046106f0565b90612048565b610747610063565b8061075181610720565b0390f35b610069565b91906040838203126107835780610777610780926000860161028b565b93602001610231565b90565b61006e565b6107919061012f565b9052565b9160206107b79294936107b060408201966000830190610788565b0190610788565b565b346107eb576107d26107cc36600461075a565b906120c9565b906107e76107de610063565b92839283610795565b0390f35b610069565b9060208282031261080a576108079160000161028b565b90565b61006e565b5190565b60209181520190565b60200190565b61082b9061012f565b9052565b9061083c81602093610822565b0190565b60200190565b9061086361085d6108568461080f565b8093610813565b9261081c565b9060005b8181106108745750505090565b90919261088d610887600192865161082f565b94610840565b9101919091610867565b6108ad9160208201916000818403910152610846565b90565b346108e0576108dc6108cb6108c63660046107f0565b6121e8565b6108d3610063565b91829182610897565b0390f35b610069565b34610916576108fd6108f83660046107f0565b612233565b90610912610909610063565b92839283610795565b0390f35b610069565b600080fd5b9061092a916118f9565b565b610936905161026f565b90565b6109439051610156565b90565b906109509061012f565b9052565b61095e905161012f565b90565b90565b90565b61097b61097661098092610961565b610964565b61012f565b90565b61098d905161017f565b90565b6109a461099f6109a992610961565b610964565b61017f565b90565b90565b6109c36109be6109c8926109ac565b610964565b61012f565b90565b60209181520190565b60007f506f736974696f6e4164644d67723a696e76616c69642069736f70656e000000910152565b610a09601d6020926109cb565b610a12816109d4565b0190565b610a2c90602081019060008183039101526109fc565b90565b15610a3657565b610a3e610063565b62461bcd60e51b815280610a5460048201610a16565b0390fd5b610a629051610100565b90565b610a79610a74610a7e92610100565b610964565b61012f565b90565b60207f6c61746572616c00000000000000000000000000000000000000000000000000917f506f736974696f6e4164644d67723a20696e73756666696369656e7420636f6c60008201520152565b610adc60276040926109cb565b610ae581610a81565b0190565b610aff9060208101906000818303910152610acf565b90565b15610b0957565b610b11610063565b62461bcd60e51b815280610b2760048201610ae9565b0390fd5b60018060401b038111610b4757610b4360209161007d565b0190565b610087565b90610b5e610b5983610b2b565b6100c4565b918252565b60007f506f736974696f6e4164644d67723a7472696767657261626f76650000000000910152565b610b95601b610b4c565b90610ba260208301610b63565b565b610bac610b8b565b90565b610bb7610ba4565b90565b60007f506f736974696f6e4164644d67723a6d61726b657420736c6970706167650000910152565b610bec601e610b4c565b90610bf960208301610bba565b565b610c03610be2565b90565b5190565b60005b838110610c1e575050906000910152565b806020918301518185015201610c0d565b610c4e610c57602093610c5c93610c4581610c06565b938480936109cb565b95869101610c0a565b61007d565b0190565b610c769160208201916000818403910152610c2f565b90565b15610c815750565b610ca290610c8d610063565b91829162461bcd60e51b835260048301610c60565b0390fd5b610cba610cb5610cbf92610205565b610964565b610205565b90565b610ccb90610ca6565b90565b610cd790610cc2565b90565b610ce49051610210565b90565b600080fd5b60e01b90565b600080fd5b60018060401b038111610d0d5760208091020190565b610087565b600080fd5b90505190610d24826100dc565b565b90505190610d338261010b565b565b90505190610d4282610132565b565b90505190610d518261015b565b565b90505190610d608261018a565b565b90505190610d6f826101b7565b565b90505190610d7e826101e1565b565b90505190610d8d8261021c565b565b90505190610d9c8261024b565b565b90505190610dab82610276565b565b919061030083820312610f9757610f8f90610dc96103006100c4565b93610dd78260008301610d17565b6000860152610de98260208301610d26565b6020860152610dfb8260408301610d26565b6040860152610e0d8260608301610d35565b6060860152610e1f8260808301610d35565b6080860152610e318260a08301610d44565b60a0860152610e438260c08301610d44565b60c0860152610e558260e08301610d44565b60e0860152610e68826101008301610d44565b610100860152610e7c826101208301610d44565b610120860152610e90826101408301610d53565b610140860152610ea4826101608301610d53565b610160860152610eb8826101808301610d53565b610180860152610ecc826101a08301610d62565b6101a0860152610ee0826101c08301610d71565b6101c0860152610ef4826101e08301610d80565b6101e0860152610f08826102008301610d8f565b610200860152610f1c826102208301610d35565b610220860152610f30826102408301610d44565b610240860152610f44826102608301610d44565b610260860152610f58826102808301610d9e565b610280860152610f6c826102a08301610d8f565b6102a0860152610f80826102c08301610d26565b6102c08601526102e001610d71565b6102e0830152565b610078565b90929192610fb1610fac82610cf7565b6100c4565b93818552610300602086019202830192818411610ff257915b838310610fd75750505050565b602061030091610fe78486610dad565b815201920191610fca565b610d12565b9080601f830112156110155781602061101293519101610f9c565b90565b610cf2565b9060208282031261104957600082015160018060401b038111611044576110419201610ff7565b90565b610073565b61006e565b61105790610210565b9052565b6110649061026f565b9052565b61107190610156565b9052565b61108961108461108e9261017f565b610964565b61012f565b90565b61109a90611075565b9052565b909594926110ea946110d96110e3926110cf6080966110c560a088019c600089019061104e565b602087019061105b565b6040850190611068565b6060830190611091565b0190611068565b565b6110f4610063565b3d6000823e3d90fd5b90565b61111461110f611119926110fd565b610964565b6101db565b90565b61112690516101db565b90565b634e487b7160e01b600052601160045260246000fd5b61114b611151916101db565b916101db565b019060ff821161115d57565b611129565b9061116c906101db565b9052565b634e487b7160e01b600052602160045260246000fd5b6008111561119057565b611170565b9061119f82611186565b565b6111aa90611195565b90565b90565b6111c46111bf6111c992610961565b610964565b6111ad565b90565b6111d590610cc2565b90565b6111e1906101db565b9052565b6111f1600080926109cb565b0190565b6111fe906111ad565b9052565b61125c61127b9799989661125260e097611248859861123e611274996112346112699a60006101008c019b0190611068565b60208c0190611068565b60408a0190611091565b606088019061105b565b60808601906111d8565b83810360a08501526111e5565b9660c0830190610788565b01906111f5565b565b606090565b61129661129161129b92610961565b610964565b6101db565b90565b90565b6112b56112b06112ba9261129e565b610964565b6101db565b90565b6112d16112cc6112d6926101db565b610964565b61012f565b90565b60018060401b0381116112ef5760208091020190565b610087565b90611306611301836112d9565b6100c4565b918252565b6113166103606100c4565b90565b600090565b600090565b600090565b600090565b600090565b600090565b600090565b600090565b600090565b600090565b61135361130b565b908161135d611319565b815260200161136a61131e565b815260200161137761131e565b815260200161138461131e565b8152602001611391611323565b815260200161139e611328565b81526020016113ab611328565b81526020016113b8611328565b81526020016113c5611328565b81526020016113d261131e565b81526020016113df61131e565b81526020016113ec61131e565b81526020016113f961131e565b815260200161140661131e565b815260200161141361131e565b815260200161142061132d565b815260200161142d611332565b815260200161143a611328565b8152602001611447611337565b815260200161145461132d565b815260200161146161133c565b815260200161146e611341565b815260200161147b611328565b8152602001611488611328565b8152602001611495611328565b81526020016114a2611328565b81526020016114af611346565b815250565b6114bc61134b565b90565b60005b8281106114ce57505050565b6020906114d96114b4565b81840152016114c2565b906115086114f0836112f4565b926020806114fe86936112d9565b92019103906114bf565b565b61151e611519611523926111ad565b610964565b61012f565b90565b634e487b7160e01b600052603260045260246000fd5b5190565b9061154a8261153c565b81101561155b576020809102010190565b611526565b61157461156f6115799261129e565b610964565b61012f565b90565b61159061158b611595926110fd565b610964565b61012f565b90565b60209181520190565b60200190565b600511156115b157565b611170565b906115c0826115a7565b565b6115cb906115b6565b90565b6115d7906115c2565b9052565b6115e49061026f565b9052565b6115f190610156565b9052565b6115fe9061017f565b9052565b61160b90610210565b9052565b6003111561161957565b611170565b906116288261160f565b565b6116339061161e565b90565b61163f9061162a565b9052565b61164c906100d9565b9052565b611659906101db565b9052565b61166690610100565b9052565b906103408061187593611685600082015160008601906115ce565b61169760208201516020860190610822565b6116a960408201516040860190610822565b6116bb60608201516060860190610822565b6116cd608082015160808601906115db565b6116df60a082015160a08601906115e8565b6116f160c082015160c08601906115e8565b61170360e082015160e08601906115e8565b6117176101008201516101008601906115e8565b61172b610120820151610120860190610822565b61173f610140820151610140860190610822565b611753610160820151610160860190610822565b611767610180820151610180860190610822565b61177b6101a08201516101a0860190610822565b61178f6101c08201516101c0860190610822565b6117a36101e08201516101e08601906115f5565b6117b7610200820151610200860190611602565b6117cb6102208201516102208601906115e8565b6117df610240820151610240860190611636565b6117f36102608201516102608601906115f5565b611807610280820151610280860190611643565b61181b6102a08201516102a0860190611650565b61182f6102c08201516102c08601906115e8565b6118436102e08201516102e08601906115e8565b6118576103008201516103008601906115e8565b61186b6103208201516103208601906115e8565b015191019061165d565b565b90611885816103609361166a565b0190565b60200190565b906118ac6118a661189f8461153c565b8093611598565b926115a1565b9060005b8181106118bd5750505090565b9091926118d66118d06001928651611877565b94611889565b91019190916118b0565b6118f6916020820191600081840391015261188f565b90565b61192661191d61190b6080850161092c565b61191760a08601610939565b90612316565b60208401610946565b600061194561193f61193a60608601610954565b61012f565b91610967565b1480612021575b612006575b61196561196060c08401610939565b610a2f565b6119986119756101608401610954565b61199261198c61198760208601610a58565b610a65565b9161012f565b14610b02565b6119a181612456565b6119dc6119ba826119b460208601610954565b906124b9565b6119c660c08401610939565b600014611ff8576119d5610bfb565b905b610c79565b6119e582612667565b6119f56119f061284c565b610cce565b6000638114baa891611a0a6101e08501610cda565b90611a5983611a1b6080890161092c565b95611a64611a2b60c08b01610939565b611a386101408b01610983565b611a4460a08d01610939565b91611a4d610063565b9a8b998a988997610cec565b87526004870161109e565b03925af18015611ff357611fd2575b50611a9e611a816001611100565b611a986102a0850191611a938361111c565b61113f565b90611162565b611aab6101e08201610cda565b611ab760a08401610939565b91611ad1610140611aca60c08701610939565b9201610983565b92611b3f611ae16080870161092c565b611aeb60036111a1565b611af760208901610954565b90611b0260006111b0565b92611b2d7f41d5395cd16fc4604df1bdb606cb21b8df927081e897d9137fbae993cc44ddd9986111cc565b98611b36610063565b97889788611202565b0390a2611bad611ba7611b546080840161092c565b611b616102008501610cda565b611b6e6101208601610954565b611b81611b7b6000610967565b9161012f565b14600014611fc057611b936000610967565b905b611ba160a08701610939565b92612b68565b82613007565b80611bc1611bbb60006111b0565b916111ad565b12611fb0575b611c17611bd66080840161092c565b611c11611be56080860161092c565b611bf160a08701610939565b611bfd60c08801610939565b90611c0b6102008901610cda565b9261322e565b906132ca565b611c2b611c25600092610156565b91610156565b148015611f89575b611f8557611c446101a08301610954565b611c57611c516000610967565b9161012f565b141580611efc575b611c6c6101c08401610954565b611c7f611c796000610967565b9161012f565b141580611e73575b611c8f61127d565b508180611e6c575b600014611e2e5750611cb2611cac60026112a1565b5b6112bd565b9182611cc7611cc16000610967565b9161012f565b11600014611e2857611d879383611d32611d0d611ce56000976114e3565b958490611cf18761150a565b818a14611e1557611d056101a08801610954565b915b92613365565b611d2c86918890611d26611d2083610967565b85611540565b52610967565b90611540565b5150611d47611d416002611560565b9161012f565b14611dbf575b5050611d5f611d5a61284c565b610cce565b611d7c836370192b6e611d70610063565b96879586948593610cec565b8352600483016118e0565b03925af18015611dba57611d99575b50565b611db5903d806000833e611dad818361009d565b81019061101a565b611d96565b6110ec565b611e0c9181611dde6101c0611dd7611de6959461150a565b9201610954565b908692613365565b611e068391600190611e00611dfa8361157c565b85611540565b5261157c565b90611540565b51503880611d4d565b611e226101c08801610954565b91611d07565b50505050565b81908115611e64575b50600014611e5257611cb2611e4c6001611100565b5b611cad565b611cb2611e5f6000611282565b611e4d565b905038611e37565b5080611c97565b50611e8060a08401610939565b611ebd611eb7611e936101408701610954565b611eb1611eab611ea66101c08a01610954565b61012f565b9161012f565b11610156565b91610156565b148015611eca575b611c87565b50611ed86101408401610954565b611ef6611ef0611eeb6101c08701610954565b61012f565b9161012f565b14611ec5565b50611f0a6101a08301610954565b611f28611f22611f1d6101408601610954565b61012f565b9161012f565b11611f46611f40611f3b60a08601610939565b610156565b91610156565b148015611f53575b611c5f565b50611f616101a08301610954565b611f7f611f79611f746101408601610954565b61012f565b9161012f565b14611f4e565b5050565b50611f976101208301610954565b611faa611fa46000610967565b9161012f565b14611c33565b50611fbb60006111b0565b611bc7565b611fcc60208601610954565b90611b95565b611fee903d806000833e611fe6818361009d565b81019061101a565b611a73565b6110ec565b612000610baf565b906119d7565b61201c612013601e6109af565b60608401610946565b611951565b50600061204261203c6120376102608601610983565b61017f565b91610990565b1461194c565b9061205291610920565b565b600090565b6001612065910161012f565b90565b906120728261080f565b811015612083576020809102010190565b611526565b61209c6120976120a19261012f565b610964565b61026f565b90565b6120b36120b99193929361012f565b9261012f565b82018092116120c457565b611129565b9190916120d4612054565b926120e66120e0612054565b926121e8565b6120f06000610967565b925b8361210d6121076121028561080f565b61012f565b9161012f565b101561215b5761214f6121559161214861214261213b612136612131888b90612068565b610954565b612088565b8790613514565b996120a4565b97906120a4565b93612059565b926120f2565b9392505050565b606090565b61217b6121766121809261026f565b610964565b61026f565b90565b9061218d90612167565b600052602052604060002090565b60001c90565b60018060a01b031690565b6121b86121bd9161219b565b6121a1565b90565b6121ca90546121ac565b90565b906121d7906111cc565b600052602052604060002090565b90565b61222b61222661221661221161223094612200612162565b50600261220b61357e565b01612183565b6121c0565b600561222061357e565b016121cd565b6121e5565b61358c565b90565b9061223c612054565b9161224e612248612054565b916121e8565b6122586000610967565b915b8261227561226f61226a8561080f565b61012f565b9161012f565b10156122c1576122b56122bb916122ae6122a86122a361229e612299888a90612068565b610954565b612088565b6135cd565b986120a4565b96906120a4565b92612059565b9161225a565b92915050565b6122d090610cc2565b90565b906020828203126122ed576122ea91600001610d35565b90565b61006e565b91602061231492949361230d6040820196600083019061105b565b0190611068565b565b90602090612322612054565b5061233361232e61364e565b6122c7565b61235563db611225949294612360612349610063565b96879586948594610cec565b8452600484016122f2565b03915afa9081156123a557600091612377575b5090565b612398915060203d811161239e575b612390818361009d565b8101906122d3565b38612373565b503d612386565b6110ec565b6123be6123b96123c392610961565b610964565b610205565b90565b6123cf906123aa565b90565b60007f696e76616c6964206f72646572206b6579000000000000000000000000000000910152565b61240760116020926109cb565b612410816123d2565b0190565b61242a90602081019060008183039101526123fa565b90565b1561243457565b61243c610063565b62461bcd60e51b81528061245260048201612414565b0390fd5b6124986101406124b2926124926124706101e08301610cda565b61248b61248561248060006123c6565b610210565b91610210565b141561242d565b01610983565b6124ab6124a56000610990565b9161017f565b141561242d565b565b600090565b906124c26124b4565b506124cf60a08301610939565b6000146124f9576124ee6124e960606124f4939401610954565b61012f565b9161012f565b101590565b61251161250c6060612517939401610954565b61012f565b9161012f565b111590565b6125276101406100c4565b90565b61253261251c565b9060208080808080808080808b612547611323565b81520161255261131e565b81520161255d611328565b81520161256861131e565b81520161257361131e565b81520161257e61131e565b81520161258961131e565b81520161259461131e565b81520161259f61131e565b8152016125aa61131e565b81525050565b6125b861252a565b90565b906125c59061026f565b9052565b906125d390610156565b9052565b6125e090610cc2565b90565b60007f6d723a6776000000000000000000000000000000000000000000000000000000910152565b61261860056020926109cb565b612621816125e3565b0190565b61263b906020810190600081830391015261260b565b90565b1561264557565b61264d610063565b62461bcd60e51b81528061266360048201612625565b0390fd5b61279f906126736125b0565b61268b6126826080840161092c565b600083016125bb565b6126a361269a60a08401610939565b604083016125c9565b6126bc6126b36101208401610954565b60208301610946565b6126eb6126d36126ce6080850161092c565b612233565b906126e5606085019260808601610946565b90610946565b6127286127106126fd6000840161092c565b61270a6102008601610cda565b906120c9565b9061272260a085019260c08601610946565b90610946565b61275861273f61273a6000840161092c565b6135cd565b9061275260e08501926101008601610946565b90610946565b602061278961278461277f608061277861277382890161092c565b613670565b960161092c565b6136b5565b6125d7565b636dc7b0a190612797610063565b958692610cec565b825281806127af60048201610720565b03915afa91821561281e576127d86127e7936127e2926127ec966000926127ee575b50906137e6565b6101208301610946565b6138aa565b61263e565b565b61281091925060203d8111612817575b612808818361009d565b8101906122d3565b90386127d1565b503d6127fe565b6110ec565b600090565b61283190610cc2565b90565b61283d90610ca6565b90565b61284990612834565b90565b612854612823565b5061286661286130612828565b612840565b90565b6128746101206100c4565b90565b600090565b600090565b600090565b61288e612869565b90602080808080808080808a6128a261131e565b8152016128ad61131e565b8152016128b8612877565b8152016128c3612877565b8152016128ce61131e565b8152016128d9611328565b8152016128e461287c565b8152016128ef611323565b8152016128fa612881565b81525050565b612908612886565b90565b612914906100d9565b90565b906129219061290b565b600052602052604060002090565b90612939906111cc565b600052602052604060002090565b90565b61295661295b9161219b565b612947565b90565b612968905461294a565b90565b90565b61297a61297f9161219b565b61296b565b90565b61298c905461296e565b90565b90612999906111ad565b9052565b60ff1690565b6129af6129b49161219b565b61299d565b90565b6129c190546129a3565b90565b60081c90565b63ffffffff1690565b6129df6129e4916129c4565b6129ca565b90565b6129f190546129d3565b90565b906129fe906101ae565b9052565b60281c90565b61ffff1690565b612a1b612a2091612a02565b612a08565b90565b612a2d9054612a0f565b90565b60381c90565b60018060481b031690565b612a4d612a5291612a30565b612a36565b90565b612a5f9054612a41565b90565b60018060481b031690565b90612a7790612a62565b9052565b90612b5a612b506005612a8c612869565b94612aa5612a9c6000830161295e565b60008801610946565b612abd612ab46001830161295e565b60208801610946565b612ad5612acc60028301612982565b6040880161298f565b612aed612ae460038301612982565b6060880161298f565b612b05612afc6004830161295e565b60808801610946565b612b1c612b138383016129b7565b60a088016125c9565b612b33612b2a8383016129e7565b60c088016129f4565b612b4a612b41838301612a23565b60e088016125bb565b01612a55565b6101008401612a6d565b565b612b6590612a7b565b90565b612b9d9250612b9890612b92612ba295612b80612900565b506000612b8b61392c565b0192613a05565b90612917565b61292f565b612b5c565b90565b600090565b612bb390610cc2565b90565b60018060401b038111612bcc5760208091020190565b610087565b612bda816111ad565b03612be157565b600080fd5b90505190612bf382612bd1565b565b90929192612c0a612c0582612bb6565b6100c4565b9381855260208086019202830192818411612c4757915b838310612c2e5750505050565b60208091612c3c8486612be6565b815201920191612c21565b610d12565b9080601f83011215612c6a57816020612c6793519101612bf5565b90565b610cf2565b9190604083820312612cae5760008301519060018060401b038211612ca957612c9d81612ca6938601612c4c565b93602001612be6565b90565b610073565b61006e565b9061034080612ebe93612cce600082015160008601906115ce565b612ce060208201516020860190610822565b612cf260408201516040860190610822565b612d0460608201516060860190610822565b612d16608082015160808601906115db565b612d2860a082015160a08601906115e8565b612d3a60c082015160c08601906115e8565b612d4c60e082015160e08601906115e8565b612d606101008201516101008601906115e8565b612d74610120820151610120860190610822565b612d88610140820151610140860190610822565b612d9c610160820151610160860190610822565b612db0610180820151610180860190610822565b612dc46101a08201516101a0860190610822565b612dd86101c08201516101c0860190610822565b612dec6101e08201516101e08601906115f5565b612e00610200820151610200860190611602565b612e146102208201516102208601906115e8565b612e28610240820151610240860190611636565b612e3c6102608201516102608601906115f5565b612e50610280820151610280860190611643565b612e646102a08201516102a0860190611650565b612e786102c08201516102c08601906115e8565b612e8c6102e08201516102e08601906115e8565b612ea06103008201516103008601906115e8565b612eb46103208201516103208601906115e8565b015191019061165d565b565b612ec9906111ad565b9052565b612ed6906101ae565b9052565b612ee390612a62565b9052565b9061010080612f8a93612f0260008201516000860190610822565b612f1460208201516020860190610822565b612f2660408201516040860190612ec0565b612f3860608201516060860190612ec0565b612f4a60808201516080860190610822565b612f5c60a082015160a08601906115e8565b612f6e60c082015160c0860190612ecd565b612f8060e082015160e08601906115db565b0151910190612eda565b565b91610360612fb0929493612fa96104808201966000830190612cb3565b0190612ee7565b565b90602082820312612fcc57612fc991600001612be6565b90565b61006e565b612fe0612fe6919392936111ad565b926111ad565b9182810392600082851281831216928513911215161761300257565b611129565b9190613011612ba5565b506130266130216080850161092c565b613a86565b613036613031613b41565b612baa565b600063f130c44591859061305c8594613067613050610063565b96879586948594610cec565b845260048401612f8c565b03915afa9081156131f9576000809290506131d6575b509061308c6101208501610954565b61309f6130996000610967565b9161012f565b11600014613184576130b4908490839161400b565b5b6130c56130c0613b41565b612baa565b9060206370802dac926130da6080870161092c565b906131026130ea60a08901610939565b9561310d6130f6610063565b97889586948594610cec565b8452600484016122f2565b03915afa91821561317f5761314e9261314491600091613151575b509161313f61313a6101608801610954565b6142a0565b612fd1565b939084909161456c565b50565b613172915060203d8111613178575b61316a818361009d565b810190612fb2565b38613128565b503d613160565b6110ec565b6131d19060026131966080870161092c565b916131a360208201610954565b906131bd60006131b66101608b01610954565b9201610954565b916000946131cb8896610967565b94613cf0565b6130b5565b6131f391503d806000833e6131eb818361009d565b810190612c6f565b9061307d565b6110ec565b906132089061290b565b600052602052604060002090565b90613220906111cc565b600052602052604060002090565b61324f61326994926132649461325f93613246612054565b50919091614961565b60026132596149c7565b016131fe565b613216565b61295e565b90565b9061327690612167565b600052602052604060002090565b90565b60801c90565b61329961329e91613287565b612a08565b90565b6132ab905461328d565b90565b6132c26132bd6132c79261026f565b610964565b61012f565b90565b61331861331361330260006132fc6132f761331e966132e76124b4565b50836132f161357e565b0161326c565b613284565b016132a1565b9361330d600161157c565b906120a4565b61012f565b916132ae565b101590565b61332b61134b565b90565b906133389061017f565b9052565b9061334690610210565b9052565b61335490516100d9565b90565b90613361906100d9565b9052565b610280906134986134a89461348e61349e959897613381613323565b9961339a6133916080880161092c565b60808d016125bb565b6133b26133a960a08801610939565b60a08d016125c9565b6133df6133d66133c46080890161092c565b6133d060a08a01610939565b906149d2565b60208d01610946565b6133ed600160e08d016125c9565b6134076133fd6102608801610983565b6102608d0161332e565b6134216134176102008801610cda565b6102008d0161333c565b61343b6134316101208801610954565b6101208d01610946565b6134526134486000610967565b6101808d01610946565b8180613501575b80156134cd575b6134aa575b5061348361347d61347860a08801610939565b610156565b91610156565b146103208a016125c9565b6101408801610946565b0161334a565b6102808401613357565b565b6134b8906101808c01610946565b6134c760016102c08c016125c9565b38613465565b5060006134e26134dc84610156565b91610156565b14806134ee575b613460565b506134fc6103008701610939565b6134e9565b5061350f6102e08701610939565b613459565b9190600061355161355792613527612054565b50613530612054565b50613548836135428884600191614a6f565b01610954565b95908391614a6f565b01610954565b90565b7f2eec39e2b6bcfb5f1ee2be0b6e9d5a470a45585b1e2f7f291af9fb9f551763d090565b61358661355a565b90565b90565b6135a460006135a99261359d612162565b5001613589565b614b96565b6135b1612162565b5090565b906135bf9061290b565b600052602052604060002090565b906135d6612054565b506135df612054565b5061362e60006136286135f061392c565b94613622600261361885613612838b0161360c87600190613a05565b906135b5565b0161295e565b9701918490613a05565b906135b5565b0161295e565b90565b600090565b61363f90610ca6565b90565b61364b90613636565b90565b613656613631565b5061366861366330612828565b613642565b90565b600090565b6136906136959161367f61366b565b50600361368a61357e565b01612183565b6121c0565b90565b600090565b6136a690610ca6565b90565b6136b29061369d565b90565b6136ca6136cf916136c4613698565b50614bae565b6136a9565b90565b6136db90610ca6565b90565b6136e7906136d2565b90565b6136f390610cc2565b90565b906020828203126137105761370d91600001610d71565b90565b61006e565b90565b61372c61372761373192613715565b610964565b6101db565b90565b61373e6012613718565b90565b61374a9061012f565b604d811161375857600a0a90565b611129565b61376c6137729193929361012f565b9261012f565b9161377e83820261012f565b92818404149015171561378d57565b611129565b61379b906101db565b604d81116137a957600a0a90565b611129565b634e487b7160e01b600052601260045260246000fd5b6137d06137d69161012f565b9161012f565b9081156137e1570490565b6137ae565b602061380561380061381b946137fa612054565b506136de565b6136ea565b63313ce56790613813610063565b948592610cec565b8252818061382b60048201610720565b03915afa80156138a55761386861386e9161387494600091613877575b509261386261385d613858613734565b6112bd565b613741565b9061375d565b91613792565b906137c4565b90565b613898915060203d811161389e575b613890818361009d565b8101906136f6565b38613848565b503d613886565b6110ec565b6138b26124b4565b506138bf60208201610954565b6138d26138cc6000610967565b9161012f565b14613902576138fd6138f76138f260206138eb85614bd6565b9401610954565b61012f565b9161012f565b101590565b50600190565b7f92bcfabaf0a890def3092675474357e5f93a0f117ca63a3db421d44c5b55fba590565b613934613908565b90565b600090565b60f81b90565b61394b9061393c565b90565b61395790613942565b90565b61396661396b91610156565b61394e565b9052565b60f01b90565b61397e9061396f565b90565b61398d6139929161026f565b613975565b9052565b6001816139a96139b1936002969561395a565b018092613981565b0190565b5190565b60200190565b1b90565b6139dd6139d86139d2836139b5565b926139b9565b61334a565b90602081106139eb575b5090565b6139fe90600019906020036008026139bf565b16386139e7565b613a3b613a4092613a14613937565b50613a2c613a20610063565b93849260208401613996565b6020820181038252038261009d565b6139c3565b90565b6000910312613a4e57565b61006e565b604090613a7d613a849496959396613a736060840198600085019061105b565b6020830190610788565b0190610788565b565b613a8f816135cd565b9190613aa1613a9c613b41565b612baa565b63ac0b036492919392813b15613b1f576000613ad091613adb8296613ac4610063565b98899788968795610cec565b855260048501613a53565b03925af18015613b1a57613aed575b50565b613b0d9060003d8111613b13575b613b05818361009d565b810190613a43565b38613aea565b503d613afb565b6110ec565b610ce7565b600090565b613b3290610ca6565b90565b613b3e90613b29565b90565b613b49613b24565b50613b5b613b5630612828565b613b35565b90565b613b6a613b6f916129c4565b61299d565b90565b613b7c9054613b5e565b90565b60101c90565b613b91613b9691613b7f565b61299d565b90565b613ba39054613b85565b90565b60007f4d61726b657456616c69643a4d61726b6574436c6f7365640000000000000000910152565b613bdb60186020926109cb565b613be481613ba6565b0190565b613bfe9060208101906000818303910152613bce565b90565b613c10613c169193929361012f565b9261012f565b8203918211613c2157565b611129565b613c2f906111ad565b600160ff1b8114613c405760000390565b611129565b60007f4d61726b657456616c69643a436f6c6c61746572616c00000000000000000000910152565b613c7a60166020926109cb565b613c8381613c45565b0190565b613c9d9060208101906000818303910152613c6d565b90565b15613ca757565b613caf610063565b62461bcd60e51b815280613cc560048201613c87565b0390fd5b60601c90565b613cdb613ce091613cc9565b612a08565b90565b613ced9054613ccf565b90565b9095919394613cfd61357e565b95613d1f613d196000613d13818b018c9061326c565b01613b72565b15610156565b80613f43575b8015613efa575b613ed85782613d44613d3e60036115b6565b916115b6565b10159182613eba575b5050613eb25780613d67613d6160026115b6565b916115b6565b1115600014613ea257613d7b8484906120a4565b5b81613d90613d8a60036115b6565b916115b6565b1480613e87575b613e7e57613e27966000613e1a95613e0885613dee613e209a613e1599613e0f98879a613dcd613dc760026115b6565b916115b6565b1115613e29575b5050613de8613de287610967565b9161012f565b11613ca0565b613e01613dfb60016115b6565b916115b6565b1415613ca0565b970161326c565b01613ce3565b6132ae565b9161012f565b1015613ca0565b565b81613e3c613e368a6111b0565b916111ad565b138814613e5e57613e4f613e559261150a565b90613c01565b505b3880613dd4565b613e72613e6d613e7893613c26565b61150a565b906120a4565b50613e57565b50505050505050565b5080613e9c613e966000610967565b9161012f565b14613d97565b613ead848490613c01565b613d7c565b505050505050565b613ed0919250613eca909261012f565b9161012f565b143880613d4d565b613ee0610063565b62461bcd60e51b815280613ef660048201613be8565b0390fd5b50613f1c613f166000613f10818b018c9061326c565b01613b99565b15610156565b80613f27575b613d2c565b5082613f3c613f3660036115b6565b916115b6565b1015613f22565b5082613f58613f5260026115b6565b916115b6565b1115613d25565b90613f69906115b6565b9052565b613f7790516115b6565b90565b613f84905161161e565b90565b60007f696e76616c6964206f7261636c65207072696365000000000000000000000000910152565b613fbc60146020926109cb565b613fc581613f87565b0190565b613fdf9060208101906000818303910152613faf565b90565b15613fe957565b613ff1610063565b62461bcd60e51b81528061400760048201613fc9565b0390fd5b919061403b61401c60008301610954565b6140296101208601610954565b61403560c08701610939565b91614e3b565b61404760c08401610939565b600014614197576140ff916140746140616080860161092c565b61406e6101608701610954565b90614f37565b6140816101208501610954565b61409461408e6000610967565b9161012f565b1160001461418d576140ab60015b60008601613f5f565b6140b760008501613f6d565b916140c46080860161092c565b906140d160208201610954565b6140ea60006140e36101608a01610954565b9301610954565b926140f86101208901610954565b9495613cf0565b5b61410d6101208201610954565b61412061411a6000610967565b9161012f565b1180614166575b61412f575b50565b8061415b61414260206141609401610954565b61415561414f6000610967565b9161012f565b11613fe2565b61501e565b3861412c565b506141746102408201613f7a565b614187614181600061161e565b9161161e565b14614127565b6140ab60026140a2565b6141a46101208401610954565b6141b76141b16000610967565b9161012f565b11600014614264576141ce60035b60008501613f5f565b6141db6101208401610954565b6141f86141f26141ed60008501610954565b61012f565b9161012f565b03614205575b5050614100565b61425d9161421560008501613f6d565b916142226080860161092c565b9061422f60208201610954565b61424860006142416101608a01610954565b9301610954565b926142566101208901610954565b9495613cf0565b38806141fe565b6141ce60046141c5565b919061428290600060208501940190610788565b565b61429861429361429d9261012f565b610964565b6111ad565b90565b6142a8612ba5565b50806142ca6142c46142bf60018060ff1b0361150a565b61012f565b9161012f565b116142db576142d890614284565b90565b6142fd906142e7610063565b91829163123baf0360e11b83526004830161426e565b0390fd5b91602061432392949361431c6040820196600083019061105b565b0190610788565b565b61432e90610cc2565b90565b61433b60e06100c4565b90565b61434781612a62565b0361434e57565b600080fd5b905051906143608261433e565b565b919061012083820312614420576144189061437e6101206100c4565b9361438c8260008301610d35565b600086015261439e8260208301610d35565b60208601526143b08260408301612be6565b60408601526143c28260608301612be6565b60608601526143d48260808301610d35565b60808601526143e68260a08301610d44565b60a08601526143f88260c08301610d62565b60c086015261440a8260e08301610d9e565b60e086015261010001614353565b610100830152565b610078565b90610120828203126144405761443d91600001614362565b90565b61006e565b9060c0806144c39361445f600082015160008601906115db565b61447160208201516020860190611602565b61448360408201516040860190612ec0565b61449560608201516060860190610822565b6144a760808201516080860190610822565b6144b960a082015160a0860190612ec0565b01519101906115e8565b565b91906144d990600060e08501940190614445565b565b6144e560c06100c4565b90565b9060a08061455493614502600082015160008601906115db565b61451460208201516020860190611602565b61452660408201516040860190612ec0565b61453860608201516060860190610822565b61454a60808201516080860190612ec0565b01519101906115e8565b565b919061456a90600060c085019401906144e8565b565b929190614577612900565b506145856101208501610954565b6145986145926000610967565b9161012f565b148061491a575b6000146146fb576145ae615183565b6145b790614325565b9063ee89368890856080016145cb9061092c565b9386610200016145da90610cda565b919087610120016145ea90610954565b90918860a0016145f990610939565b936146026144db565b976000890190614611916125bb565b602088019061461f9161333c565b604087019061462d9161298f565b606086019061463b91610946565b60808501906146499161298f565b60a0840190614657916125c9565b61465f610063565b809361466b8293610cec565b8252600482019061467b91614556565b03815a61012094600091f180156146f65760806146a7916146c5936000916146c7575b50945b0161092c565b6146b360008501610954565b6146bf60208601610954565b91615272565b565b6146e991506101203d81116146ef575b6146e1818361009d565b810190614425565b3861469e565b503d6146d7565b6110ec565b61470f61470a6080860161092c565b613670565b61472b6147266147216080880161092c565b6136b5565b6125d7565b9063f5151f35906147546147416080890161092c565b9161474f6101208a01610954565b6150a2565b92803b156149155761477a6000809461478561476e610063565b97889687958694610cec565b845260048401614301565b03925af18015614910576148e3575b5061479d615183565b6147a690614325565b906341ec6c6590856080016147ba9061092c565b9386610200016147c990610cda565b919087610120016147d990610954565b886020016147e690610954565b91928960a0016147f590610939565b946147fe614331565b9860008a019061480d916125bb565b602089019061481b9161333c565b60408801906148299161298f565b606087019061483791610946565b608086019061484591610946565b60a08501906148539161298f565b60c0840190614861916125c9565b614869610063565b80936148758293610cec565b82526004820190614885916144c5565b03815a61012094600091f180156148de5760806146a7916146c5936000916148af575b50946146a1565b6148d191506101203d81116148d7575b6148c9818361009d565b810190614425565b386148a8565b503d6148bf565b6110ec565b6149039060003d8111614909575b6148fb818361009d565b810190613a43565b38614794565b503d6148f1565b6110ec565b610ce7565b508061492f61492960006111b0565b916111ad565b1261459f565b6002939261495560018361494d829561495d9761395a565b01809261395a565b018092613981565b0190565b906149a09261498c61499b92614975613937565b509193614980610063565b94859360208501614935565b6020820181038252038261009d565b6139c3565b90565b7fbf93ccae7e050fdad00615e220e3f9b7ebb112ac9318fb8604653a7d8091238890565b6149cf6149a3565b90565b906020906149de612054565b506149ef6149ea61364e565b6122c7565b614a1a614a0263db611225959315610156565b94614a25614a0e610063565b96879586948594610cec565b8452600484016122f2565b03915afa908115614a6a57600091614a3c575b5090565b614a5d915060203d8111614a63575b614a55818361009d565b8101906122d3565b38614a38565b503d614a4b565b6110ec565b90614a9e614aa392614a98614aa895614a86612900565b506000614a9161392c565b0192613a05565b90612917565b61292f565b612b5c565b90565b606090565b5490565b60209181520190565b600052602060002090565b90614ad581602093611643565b0190565b90565b614ae8614aed9161219b565b614ad9565b90565b614afa9054614adc565b90565b60010190565b90614b20614b1a614b1384614ab0565b8093614ab4565b92614abd565b9060005b818110614b315750505090565b909192614b51614b4b600192614b4687614af0565b614ac8565b94614afd565b9101919091614b24565b90614b6591614b03565b90565b90614b88614b8192614b78610063565b93848092614b5b565b038361009d565b565b614b9390614b68565b90565b6000614bab91614ba4614aab565b5001614b8a565b90565b614bce614bd391614bbd61366b565b506002614bc861357e565b01612183565b6121c0565b90565b614bde612054565b50614c1a614bee60608301610954565b614bfa60808401610954565b614c076101208501610954565b90614c1460408601610939565b9261532f565b9081614c2f614c296000610967565b9161012f565b14614da857614c6f614c4360608301610954565b614c4f60808401610954565b614c5c6101208501610954565b90614c6960408601610939565b92615368565b80614c83614c7d6000610967565b9161012f565b14614d985780614c9b614c958561012f565b9161012f565b10614d8e575b50614cdd614cb160a08301610954565b614cbd60c08401610954565b614cca6101208501610954565b90614cd760408601610939565b926153c8565b80614cf1614ceb6000610967565b9161012f565b14614d7e5780614d09614d038561012f565b9161012f565b10614d71575b5080614d206000614d4c930161092c565b90614d2d60408201610939565b614d46610100614d3f60e08501610954565b9301610954565b92615428565b80614d5f614d598461012f565b9161012f565b10614d69575b5090565b905038614d65565b614d4c9192509190614d0f565b505050614d8b6000610967565b90565b9091509038614ca1565b505050614da56000610967565b90565b5050614db46000610967565b90565b60007f4d61726b657456616c69643a53697a6500000000000000000000000000000000910152565b614dec60106020926109cb565b614df581614db7565b0190565b614e0f9060208101906000818303910152614ddf565b90565b15614e1957565b614e21610063565b62461bcd60e51b815280614e3760048201614df9565b0390fd5b90614e4f92918215614e51575b5050614e12565b565b614e67919250614e61909261012f565b9161012f565b10153880614e48565b60901c90565b614e82614e8791614e70565b6129ca565b90565b614e949054614e76565b90565b614eab614ea6614eb0926101ae565b610964565b61012f565b90565b60007f4d61726b657456616c69643a7061793e4d61785472616465416d6f756e740000910152565b614ee8601e6020926109cb565b614ef181614eb3565b0190565b614f0b9060208101906000818303910152614edb565b90565b15614f1557565b614f1d610063565b62461bcd60e51b815280614f3360048201614ef5565b0390fd5b90614f6a614f64614f5f6000614f59614f719682614f5361357e565b0161326c565b01614e8a565b614e97565b9161012f565b1115614f0e565b565b60301c90565b614f85614f8a91614f73565b612a08565b90565b614f979054614f79565b90565b60007f4d61726b657456616c69643a696e707574207072696365207a65726f00000000910152565b614fcf601c6020926109cb565b614fd881614f9a565b0190565b614ff29060208101906000818303910152614fc2565b90565b15614ffc57565b615004610063565b62461bcd60e51b81528061501a60048201614fdc565b0390fd5b6150a09061507661506d61503061357e565b615067615062600061505c8161504860608a01610954565b950161505660808a0161092c565b9061326c565b01614f8d565b6132ae565b9061545a565b60608301610946565b61509b6150828261548b565b61509561508f6000610967565b9161012f565b11614ff5565b61564a565b565b9060206150c26150bd6150d8936150b7612054565b506136de565b6136ea565b63313ce567906150d0610063565b938492610cec565b825281806150e860048201610720565b03915afa9182156151615761511461510f6151309461511a94600091615133575b506112bd565b613741565b9061375d565b61512a615125613734565b613792565b906137c4565b90565b615154915060203d811161515a575b61514c818361009d565b8101906136f6565b38615109565b503d615142565b6110ec565b600090565b61517490610ca6565b90565b6151809061516b565b90565b61518b615166565b5061519d61519830612828565b615177565b90565b60501c90565b6151b26151b7916151a0565b612a08565b90565b6151c490546151a6565b90565b60007f4d61726b657456616c69643a4c65760000000000000000000000000000000000910152565b6151fc600f6020926109cb565b615205816151c7565b0190565b61521f90602081019060008183039101526151ef565b90565b1561522957565b615231610063565b62461bcd60e51b81528061524760048201615209565b0390fd5b60401c90565b61525d6152629161524b565b612a08565b90565b61526f9054615251565b90565b9091826152886152826000610967565b9161012f565b148015615314575b61530f576153006152fb60006152f56152af6153069561530d986137c4565b95826152b961357e565b976152ee896152e76152e16152dc866152d6818896018a9061326c565b016151ba565b6132ae565b9161012f565b1115615222565b970161326c565b01615265565b6132ae565b9161012f565b1015615222565b565b505050565b50806153296153236000610967565b9161012f565b14615290565b6153589161535e9461533f612054565b5060001461536157505b91615352615703565b9061572a565b90615760565b90565b9050615349565b906153ac9391615376612054565b50826000146153bf57615393815b9461538d61579d565b9061572a565b926000146153af57506153a5916120a4565b5b90615760565b90565b90506153ba916120a4565b6153a6565b61539382615384565b9061540c93916153d6612054565b508260001461541f576153f3815b946153ed6157c4565b9061572a565b9260001461540f5750615405916120a4565b5b90615760565b90565b905061541a916120a4565b615406565b6153f3826153e4565b926154416154509493929361543b612054565b50615803565b9260001461545357505b615760565b90565b905061544b565b90615463612054565b50816154776154718361012f565b9161012f565b1060001461548457505b90565b9050615481565b615493612054565b506154a060a08201610939565b6154bd6154b76154b260c08501610939565b610156565b91610156565b1460001461550357806154f96154d96101406154ff9401610954565b916154f360606154ec6101408401610954565b9201610954565b9061572a565b906120a4565b5b90565b8061553761551761014061553d9401610954565b91615531606061552a6101408401610954565b9201610954565b9061572a565b90613c01565b615500565b60007f4d61726b657456616c69643a216f7261636c6500000000000000000000000000910152565b61557760136020926109cb565b61558081615542565b0190565b61559a906020810190600081830391015261556a565b90565b156155a457565b6155ac610063565b62461bcd60e51b8152806155c260048201615584565b0390fd5b60007f4d61726b657456616c69643a2166726f6e742d656e6420707269636500000000910152565b6155fb601c6020926109cb565b615604816155c6565b0190565b61561e90602081019060008183039101526155ee565b90565b1561562857565b615630610063565b62461bcd60e51b81528061564660048201615608565b0390fd5b6156919061567661565d60208301610954565b61567061566a6000610967565b9161012f565b1161559d565b6156836102208201610939565b908115615693575b50615621565b565b90506156fc6156f66156a760a08401610939565b6156c46156be6156b960c08701610939565b610156565b91610156565b14926156f06156ea6156e560206156de6101408601610954565b9401610954565b61012f565b9161012f565b11610156565b91610156565b143861568b565b61570b612054565b50615727615722600061571c615857565b0161295e565b615891565b90565b615732612054565b50816302faf08060001903048111158215171561575b576305f5e100916302faf0809102010490565b600080fd5b615768612054565b508061577c6157768461012f565b9161012f565b101561578e5761578b91613c01565b90565b505061579a6000610967565b90565b6157a5612054565b506157c16157bc60016157b6615857565b0161295e565b615891565b90565b6157cc612054565b506157e86157e360026157dd615857565b0161295e565b615891565b90565b906157f5906132ae565b600052602052604060002090565b61582b61582661583092615815612054565b506003615820615857565b016157eb565b61295e565b615891565b90565b7f4d502ef5fdff70d438af9761f5d88171826a8d62a1895d92f16b3f9b850427db90565b61585f615833565b90565b90565b61587961587461587e92615862565b610964565b61012f565b90565b61588e6305f5e100615865565b90565b615899612054565b50806158ae6158a86000610967565b9161012f565b146000146158c357506158bf615881565b5b90565b6158c056fea2646970667358221220fe8601168d87e857db5619fb112b97c2abe06545e847e3cd7f1bd27dcdcb5a1d64736f6c63430008180033",
  "devdoc": {
    "errors": {
      "SafeCastOverflowedUintToInt(uint256)": [
        {
          "details": "An uint value doesn't fit in an int of `bits` size."
        }
      ]
    },
    "kind": "dev",
    "methods": {},
    "version": 1
  },
  "userdoc": {
    "kind": "user",
    "methods": {},
    "version": 1
  },
  "storageLayout": {
    "storage": [],
    "types": null
  }
}