{
  "address": "0x3c7dbDbb82a51f19ec250e3E8b76E8F92892eD6E",
  "abi": [
    {
      "inputs": [
        {
          "internalType": "address",
          "name": "authority",
          "type": "address"
        }
      ],
      "name": "AccessManagedInvalidAuthority",
      "type": "error"
    },
    {
      "inputs": [
        {
          "internalType": "address",
          "name": "caller",
          "type": "address"
        },
        {
          "internalType": "uint32",
          "name": "delay",
          "type": "uint32"
        }
      ],
      "name": "AccessManagedRequiredDelay",
      "type": "error"
    },
    {
      "inputs": [
        {
          "internalType": "address",
          "name": "caller",
          "type": "address"
        }
      ],
      "name": "AccessManagedUnauthorized",
      "type": "error"
    },
    {
      "inputs": [
        {
          "internalType": "uint256",
          "name": "value",
          "type": "uint256"
        }
      ],
      "name": "SafeCastOverflowedUintToInt",
      "type": "error"
    },
    {
      "anonymous": false,
      "inputs": [
        {
          "indexed": true,
          "internalType": "address",
          "name": "account",
          "type": "address"
        },
        {
          "indexed": false,
          "internalType": "bool",
          "name": "isLong",
          "type": "bool"
        },
        {
          "indexed": false,
          "internalType": "bool",
          "name": "isIncrease",
          "type": "bool"
        },
        {
          "indexed": false,
          "internalType": "uint256",
          "name": "orderID",
          "type": "uint256"
        },
        {
          "indexed": false,
          "internalType": "uint16",
          "name": "market",
          "type": "uint16"
        },
        {
          "indexed": false,
          "internalType": "uint8",
          "name": "reason",
          "type": "uint8"
        },
        {
          "indexed": false,
          "internalType": "string",
          "name": "reasonStr",
          "type": "string"
        },
        {
          "indexed": false,
          "internalType": "uint256",
          "name": "price",
          "type": "uint256"
        },
        {
          "indexed": false,
          "internalType": "int256",
          "name": "dPNL",
          "type": "int256"
        }
      ],
      "name": "DeleteOrder",
      "type": "event"
    },
    {
      "inputs": [
        {
          "components": [
            {
              "internalType": "bytes32",
              "name": "refCode",
              "type": "bytes32"
            },
            {
              "internalType": "uint128",
              "name": "collateral",
              "type": "uint128"
            },
            {
              "internalType": "uint128",
              "name": "size",
              "type": "uint128"
            },
            {
              "internalType": "uint256",
              "name": "price",
              "type": "uint256"
            },
            {
              "internalType": "uint256",
              "name": "tp",
              "type": "uint256"
            },
            {
              "internalType": "bool",
              "name": "triggerAbove",
              "type": "bool"
            },
            {
              "internalType": "bool",
              "name": "isFromMarket",
              "type": "bool"
            },
            {
              "internalType": "bool",
              "name": "isKeepLev",
              "type": "bool"
            },
            {
              "internalType": "bool",
              "name": "isKeepLevTP",
              "type": "bool"
            },
            {
              "internalType": "bool",
              "name": "isKeepLevSL",
              "type": "bool"
            },
            {
              "internalType": "uint64",
              "name": "orderID",
              "type": "uint64"
            },
            {
              "internalType": "uint64",
              "name": "pairId",
              "type": "uint64"
            },
            {
              "internalType": "uint64",
              "name": "fromId",
              "type": "uint64"
            },
            {
              "internalType": "uint32",
              "name": "updatedAtBlock",
              "type": "uint32"
            },
            {
              "internalType": "uint8",
              "name": "extra0",
              "type": "uint8"
            },
            {
              "internalType": "address",
              "name": "account",
              "type": "address"
            },
            {
              "internalType": "uint96",
              "name": "extra1",
              "type": "uint96"
            },
            {
              "internalType": "uint256",
              "name": "sl",
              "type": "uint256"
            },
            {
              "internalType": "bool",
              "name": "isIncrease",
              "type": "bool"
            },
            {
              "internalType": "bool",
              "name": "isLong",
              "type": "bool"
            },
            {
              "internalType": "uint16",
              "name": "market",
              "type": "uint16"
            },
            {
              "internalType": "uint96",
              "name": "extra2",
              "type": "uint96"
            },
            {
              "internalType": "uint128",
              "name": "gas",
              "type": "uint128"
            },
            {
              "internalType": "uint8",
              "name": "version",
              "type": "uint8"
            }
          ],
          "internalType": "struct OrderProps",
          "name": "order",
          "type": "tuple"
        },
        {
          "components": [
            {
              "internalType": "enum MarketBusinessType",
              "name": "busiType",
              "type": "uint8"
            },
            {
              "internalType": "uint256",
              "name": "oraclePrice",
              "type": "uint256"
            },
            {
              "internalType": "uint256",
              "name": "pay",
              "type": "uint256"
            },
            {
              "internalType": "uint256",
              "name": "slippage",
              "type": "uint256"
            },
            {
              "internalType": "uint16",
              "name": "market",
              "type": "uint16"
            },
            {
              "internalType": "bool",
              "name": "isLong",
              "type": "bool"
            },
            {
              "internalType": "bool",
              "name": "isOpen",
              "type": "bool"
            },
            {
              "internalType": "bool",
              "name": "isCreate",
              "type": "bool"
            },
            {
              "internalType": "bool",
              "name": "isFromMarket",
              "type": "bool"
            },
            {
              "internalType": "uint256",
              "name": "sizeDelta",
              "type": "uint256"
            },
            {
              "internalType": "uint256",
              "name": "price",
              "type": "uint256"
            },
            {
              "internalType": "uint256",
              "name": "collateralDelta",
              "type": "uint256"
            },
            {
              "internalType": "uint256",
              "name": "collateral",
              "type": "uint256"
            },
            {
              "internalType": "uint256",
              "name": "tp",
              "type": "uint256"
            },
            {
              "internalType": "uint256",
              "name": "sl",
              "type": "uint256"
            },
            {
              "internalType": "uint64",
              "name": "orderId",
              "type": "uint64"
            },
            {
              "internalType": "address",
              "name": "account",
              "type": "address"
            },
            {
              "internalType": "bool",
              "name": "isExec",
              "type": "bool"
            },
            {
              "internalType": "enum LiquidationState",
              "name": "liqState",
              "type": "uint8"
            },
            {
              "internalType": "uint64",
              "name": "fromOrder",
              "type": "uint64"
            },
            {
              "internalType": "bytes32",
              "name": "refCode",
              "type": "bytes32"
            },
            {
              "internalType": "uint8",
              "name": "execNum",
              "type": "uint8"
            },
            {
              "internalType": "bool",
              "name": "isKeepLev",
              "type": "bool"
            },
            {
              "internalType": "bool",
              "name": "isKeepLevTP",
              "type": "bool"
            },
            {
              "internalType": "bool",
              "name": "isKeepLevSL",
              "type": "bool"
            },
            {
              "internalType": "bool",
              "name": "triggerAbove",
              "type": "bool"
            },
            {
              "internalType": "uint128",
              "name": "gas",
              "type": "uint128"
            }
          ],
          "internalType": "struct MarketCache",
          "name": "_params",
          "type": "tuple"
        }
      ],
      "name": "execAddOrder",
      "outputs": [],
      "stateMutability": "nonpayable",
      "type": "function"
    },
    {
      "inputs": [
        {
          "internalType": "uint16",
          "name": "market",
          "type": "uint16"
        },
        {
          "internalType": "address",
          "name": "account",
          "type": "address"
        }
      ],
      "name": "getAccountSizeOfMarkets",
      "outputs": [
        {
          "internalType": "uint256",
          "name": "sizesL",
          "type": "uint256"
        },
        {
          "internalType": "uint256",
          "name": "sizesS",
          "type": "uint256"
        }
      ],
      "stateMutability": "view",
      "type": "function"
    },
    {
      "inputs": [
        {
          "internalType": "uint16",
          "name": "market",
          "type": "uint16"
        }
      ],
      "name": "getGlobalSize",
      "outputs": [
        {
          "internalType": "uint256",
          "name": "sizesLong",
          "type": "uint256"
        },
        {
          "internalType": "uint256",
          "name": "sizesShort",
          "type": "uint256"
        }
      ],
      "stateMutability": "view",
      "type": "function"
    },
    {
      "inputs": [
        {
          "internalType": "uint16",
          "name": "market",
          "type": "uint16"
        }
      ],
      "name": "getMarketsOfMarket",
      "outputs": [
        {
          "internalType": "uint256[]",
          "name": "",
          "type": "uint256[]"
        }
      ],
      "stateMutability": "view",
      "type": "function"
    }
  ],
  "transactionHash": "0xde8aeac8d7892bcaf79daa93785827f0833c62077601cc6683c2a3254665b19d",
  "args": [],
  "numDeployments": 3,
  "solcInputHash": "b09ed9757b62f343008692714e77e5d5",
  "bytecode": "0x608060405234801561001057600080fd5b50614d6a806100206000396000f3fe608060405234801561001057600080fd5b506004361061004c5760003560e01c806369e135f9146100515780638593090f1461006d5780639d24a6881461009e578063a01e7bc6146100ce575b600080fd5b61006b60048036038101906100669190613098565b6100ff565b005b610087600480360381019061008291906130da565b610670565b604051610095929190613129565b60405180910390f35b6100b860048036038101906100b39190613152565b6106eb565b6040516100c5919061323d565b60405180910390f35b6100e860048036038101906100e39190613152565b61078e565b6040516100f6929190613129565b60405180910390f35b61011181608001518260a00151610806565b8160200181815250508060600151600014801561013d575080610260015167ffffffffffffffff166000145b1561014e57601e8160600181815250505b8060c00151610192576040517f08c379a0000000000000000000000000000000000000000000000000000000008152600401610189906132bc565b60405180910390fd5b81602001516fffffffffffffffffffffffffffffffff16816101600151146101ef576040517f08c379a00000000000000000000000000000000000000000000000000000000081526004016101e69061334e565b60405180910390fd5b6101f882610893565b61020682826020015161095c565b8260c0015161024a576040518060400160405280601b81526020017f506f736974696f6e4164644d67723a7472696767657261626f76650000000000815250610281565b6040518060400160405280601e81526020017f506f736974696f6e4164644d67723a6d61726b657420736c69707061676500008152505b906102c2576040517f08c379a00000000000000000000000000000000000000000000000000000000081526004016102b991906133dc565b60405180910390fd5b506102cc81610988565b6102d4610c02565b73ffffffffffffffffffffffffffffffffffffffff16638114baa8836101e0015183608001518460c001518661014001518660a001516040518663ffffffff1660e01b815260040161032a959493929190613466565b6000604051808303816000875af1158015610349573d6000803e3d6000fd5b505050506040513d6000823e3d601f19601f820116820180604052508101906103729190613884565b506001816102a00181815161038791906138fc565b91509060ff16908160ff1681525050816101e0015173ffffffffffffffffffffffffffffffffffffffff167f41d5395cd16fc4604df1bdb606cb21b8df927081e897d9137fbae993cc44ddd98260a001518360c001518561014001518560800151600360078111156103fc576103fb613931565b5b8760200151600060405161041697969594939291906139ae565b60405180910390a260006104528260800151836102000151600085610120015114610445578460200151610448565b60005b8560a00151610c0a565b905060006104608383610d52565b9050600081121561047057600090505b600061049c846080015161049786608001518760a001518860c00151896102000151610f0f565b610f84565b90508015156000151514806104b657506000846101200151145b156104c35750505061066c565b600080856101a001511415801561050157508460a001511515856101400151866101a0015111151514806105005750846101400151856101a00151145b5b9050600080866101c00151141580156105415750856101c001518661014001511115158660a00151151514806105405750856101c00151866101400151145b5b9050606060008380156105515750825b61057157838061055e5750825b61056957600061056c565b60015b610574565b60025b60ff1690506000811115610658578067ffffffffffffffff81111561059c5761059b6128c0565b5b6040519080825280602002602001820160405280156105d557816020015b6105c2612694565b8152602001906001900390816105ba5790505b5091506105fa8887866105ed578a6101c001516105f4565b8a6101a001515b87610fdc565b8260008151811061060e5761060d613a31565b5b6020026020010181905250600281036106535761063388878a6101c001516000610fdc565b8260018151811061064757610646613a31565b5b60200260200101819052505b610664565b5050505050505061066c565b505050505050505b5050565b600080600061067e856106eb565b905060005b81518110156106e2576000806106b38484815181106106a5576106a4613a31565b5b602002602001015188611149565b9150915081866106c39190613a60565b955080856106d19190613a60565b945050508080600101915050610683565b50509250929050565b606060006106f7611177565b60020160008461ffff1661ffff16815260200190815260200160002060009054906101000a900473ffffffffffffffffffffffffffffffffffffffff169050610786610741611177565b60050160008373ffffffffffffffffffffffffffffffffffffffff1673ffffffffffffffffffffffffffffffffffffffff1681526020019081526020016000206111a4565b915050919050565b600080600061079c846106eb565b905060005b81518110156107ff576000806107d08484815181106107c3576107c2613a31565b5b60200260200101516111c5565b9150915081866107e09190613a60565b955080856107ee9190613a60565b9450505080806001019150506107a1565b5050915091565b6000610810611224565b73ffffffffffffffffffffffffffffffffffffffff1663db61122584846040518363ffffffff1660e01b815260040161084a929190613a94565b602060405180830381865afa158015610867573d6000803e3d6000fd5b505050506040513d601f19601f8201168201806040525081019061088b9190613abd565b905092915050565b600073ffffffffffffffffffffffffffffffffffffffff16816101e0015173ffffffffffffffffffffffffffffffffffffffff1603610907576040517f08c379a00000000000000000000000000000000000000000000000000000000081526004016108fe90613b36565b60405180910390fd5b600081610140015167ffffffffffffffff1603610959576040517f08c379a000000000000000000000000000000000000000000000000000000000815260040161095090613b36565b60405180910390fd5b50565b60008260a00151156109775782606001518210159050610982565b826060015182111590505b92915050565b6109906127da565b8160800151816000019061ffff16908161ffff16815250508160a001518160400190151590811515815250508161012001518160200181815250506109d8826080015161078e565b8260600183608001828152508281525050506109fd8160000151836102000151610670565b8260a0018360c00182815250828152505050610a1c81600001516111c5565b8260e0018361010001828152508281525050506000610a3e836080015161122c565b9050610a4861127a565b73ffffffffffffffffffffffffffffffffffffffff16639823bc9b610a708560800151611282565b73ffffffffffffffffffffffffffffffffffffffff16636dc7b0a16040518163ffffffff1660e01b8152600401602060405180830381865afa158015610aba573d6000803e3d6000fd5b505050506040513d601f19601f82011682018060405250810190610ade9190613abd565b8373ffffffffffffffffffffffffffffffffffffffff1663313ce5676040518163ffffffff1660e01b8152600401602060405180830381865afa158015610b29573d6000803e3d6000fd5b505050506040513d601f19601f82011682018060405250810190610b4d9190613b56565b6040518363ffffffff1660e01b8152600401610b6a929190613b83565b602060405180830381865afa158015610b87573d6000803e3d6000fd5b505050506040513d601f19601f82011682018060405250810190610bab9190613abd565b82610120018181525050610bbe82611294565b610bfd576040517f08c379a0000000000000000000000000000000000000000000000000000000008152600401610bf490613bf8565b60405180910390fd5b505050565b600030905090565b610c12612833565b610c1a6112c8565b6000016000610c2987856112f5565b815260200190815260200160002060008573ffffffffffffffffffffffffffffffffffffffff1673ffffffffffffffffffffffffffffffffffffffff1681526020019081526020016000206040518061012001604052908160008201548152602001600182015481526020016002820154815260200160038201548152602001600482015481526020016005820160009054906101000a900460ff161515151581526020016005820160019054906101000a900463ffffffff1663ffffffff1663ffffffff1681526020016005820160059054906101000a900461ffff1661ffff1661ffff1681526020016005820160079054906101000a900468ffffffffffffffffff1668ffffffffffffffffff1668ffffffffffffffffff16815250509050949350505050565b6000610d61836080015161132a565b600080610d6c6113b5565b73ffffffffffffffffffffffffffffffffffffffff16632ba88be98686604051602001610d9a92919061403b565b6040516020818303038152906040526040518263ffffffff1660e01b8152600401610dc591906140bb565b600060405180830381865afa158015610de2573d6000803e3d6000fd5b505050506040513d6000823e3d601f19601f82011682018060405250810190610e0b91906141cc565b9150915060008561012001511115610e2d57610e288585836113bd565b610e50565b610e4f6002866080015186602001518861016001518860000151600087611580565b5b6000610e5a6113b5565b73ffffffffffffffffffffffffffffffffffffffff166370802dac87608001518860a001516040518363ffffffff1660e01b8152600401610e9c929190613a94565b602060405180830381865afa158015610eb9573d6000803e3d6000fd5b505050506040513d601f19601f82011682018060405250810190610edd9190614228565b905081610eee8761016001516118ed565b610ef89190614255565b9350610f0586858361195c565b5050505092915050565b600080610f1d868686611bc4565b9050610f27611bfc565b600201600082815260200190815260200160002060008473ffffffffffffffffffffffffffffffffffffffff1673ffffffffffffffffffffffffffffffffffffffff16815260200190815260200160002054915050949350505050565b600080610f8f611177565b60000160008561ffff1661ffff1681526020019081526020016000209050600183610fba9190613a60565b8160000160109054906101000a900461ffff1661ffff16101591505092915050565b610fe4612694565b8460800151816080019061ffff16908161ffff16815250508460a001518160a001901515908115158152505061102285608001518660a00151611c29565b81602001818152505060018160e001901515908115158152505084610260015181610260019067ffffffffffffffff16908167ffffffffffffffff168152505084610200015181610200019073ffffffffffffffffffffffffffffffffffffffff16908173ffffffffffffffffffffffffffffffffffffffff1681525050846101200151816101200181815250506000816101800181815250508180156110cb5750846102e001515b806110e85750811515600015151480156110e757508461030001515b5b1561110b5783816101800181815250506001816102c00190151590811515815250505b8460a0015115158215151481610320019015159081151581525050828161014001818152505084610280015181610280018181525050949350505050565b60008061115884846001611cb7565b60000151915061116a84846000611cb7565b6000015190509250929050565b6000807f2eec39e2b6bcfb5f1ee2be0b6e9d5a470a45585b1e2f7f291af9fb9f551763d090508091505090565b606060006111b483600001611dfe565b905060608190508092505050919050565b60008060006111d26112c8565b90508060020160006111e58660016112f5565b815260200190815260200160002060000154925080600201600061120a8660006112f5565b815260200190815260200160002060000154915050915091565b600030905090565b6000611236611177565b60030160008361ffff1661ffff16815260200190815260200160002060009054906101000a900473ffffffffffffffffffffffffffffffffffffffff169050919050565b600030905090565b600061128d82611e5a565b9050919050565b6000808260200151036112aa57600190506112c3565b60006112b583611ea8565b905082602001518110159150505b919050565b6000807f92bcfabaf0a890def3092675474357e5f93a0f117ca63a3db421d44c5b55fba590508091505090565b6000818360405160200161130a929190614316565b60405160208183030381529060405261132290614374565b905092915050565b600080611336836111c5565b915091506113426113b5565b73ffffffffffffffffffffffffffffffffffffffff1663a256a1168484846040518463ffffffff1660e01b815260040161137e939291906143db565b600060405180830381600087803b15801561139857600080fd5b505af11580156113ac573d6000803e3d6000fd5b50505050505050565b600030905090565b6113d582600001518461012001518560c00151611f90565b8260c0015115611466576113f28360800151846101600151611fe0565b600083610120015111611406576002611409565b60015b836000019060048111156114205761141f613931565b5b9081600481111561143457611433613931565b5b81525050611461836000015184608001518460200151866101600151866000015188610120015187611580565b6114e7565b60008361012001511161147a57600461147d565b60035b8360000190600481111561149457611493613931565b5b908160048111156114a8576114a7613931565b5b815250508160000151836101200151146114e6576114e5836000015184608001518460200151866101600151866000015188610120015187611580565b5b5b600083610120015111801561152557506000600281111561150b5761150a613931565b5b836102400151600281111561152357611522613931565b5b145b1561157b576000836020015111611571576040517f08c379a00000000000000000000000000000000000000000000000000000000081526004016115689061445e565b60405180910390fd5b61157a8361206a565b5b505050565b600061158a611177565b90508060000160008861ffff1661ffff16815260200190815260200160002060000160019054906101000a900460ff161580156115ec5750600260048111156115d6576115d5613931565b5b8860048111156115e9576115e8613931565b5b11155b8061165357508060000160008861ffff1661ffff16815260200190815260200160002060000160029054906101000a900460ff1615801561165257506003600481111561163c5761163b613931565b5b88600481111561164f5761164e613931565b5b10155b5b15611693576040517f08c379a000000000000000000000000000000000000000000000000000000000815260040161168a906144ca565b60405180910390fd5b600360048111156116a7576116a6613931565b5b8860048111156116ba576116b9613931565b5b101580156116c757508383145b156116d257506118e4565b6000600260048111156116e8576116e7613931565b5b8960048111156116fb576116fa613931565b5b111561171257858761170d91906144ea565b61171f565b858761171e9190613a60565b5b90506003600481111561173557611734613931565b5b89600481111561174857611747613931565b5b1480156117555750600081145b156117615750506118e4565b6002600481111561177557611774613931565b5b89600481111561178857611787613931565b5b116117c25760008313156117a95782816117a291906144ea565b90506117c1565b826117b39061451e565b816117be9190613a60565b90505b5b60008711611805576040517f08c379a00000000000000000000000000000000000000000000000000000000081526004016117fc906145b2565b60405180910390fd5b6001600481111561181957611818613931565b5b89600481111561182c5761182b613931565b5b0361186c576040517f08c379a0000000000000000000000000000000000000000000000000000000008152600401611863906145b2565b60405180910390fd5b8160000160008961ffff1661ffff168152602001908152602001600020600001600c9054906101000a900461ffff1661ffff168610156118e1576040517f08c379a00000000000000000000000000000000000000000000000000000000081526004016118d8906145b2565b60405180910390fd5b50505b50505050505050565b60007f7fffffffffffffffffffffffffffffffffffffffffffffffffffffffffffffff82111561195457816040517f24775e0600000000000000000000000000000000000000000000000000000000815260040161194b91906145d2565b60405180910390fd5b819050919050565b611964612833565b60008461012001511480156119795750600083125b15611a4757611986612175565b73ffffffffffffffffffffffffffffffffffffffff16636c1a66cb856102000151856119b19061451e565b876101200151868960a001516040516020016119d19594939291906145ed565b6040516020818303038152906040526040518263ffffffff1660e01b81526004016119fc91906140bb565b610120604051808303816000875af1158015611a1c573d6000803e3d6000fd5b505050506040513d601f19601f82011682018060405250810190611a40919061474c565b9050611ba6565b6000611a56856080015161122c565b9050611a658560800151611282565b73ffffffffffffffffffffffffffffffffffffffff1663f5151f358660800151611a948861012001518561217d565b6040518363ffffffff1660e01b8152600401611ab192919061477a565b600060405180830381600087803b158015611acb57600080fd5b505af1158015611adf573d6000803e3d6000fd5b50505050611aeb612175565b73ffffffffffffffffffffffffffffffffffffffff1663db73bcb3866102000151868861012001518960200151888b60a00151604051602001611b33969594939291906147a3565b6040516020818303038152906040526040518263ffffffff1660e01b8152600401611b5e91906140bb565b610120604051808303816000875af1158015611b7e573d6000803e3d6000fd5b505050506040513d601f19601f82011682018060405250810190611ba2919061474c565b9150505b611bbd84608001518260000151836020015161222d565b9392505050565b6000828285604051602001611bdb93929190614804565b604051602081830303815290604052611bf390614374565b90509392505050565b6000807fbf93ccae7e050fdad00615e220e3f9b7ebb112ac9318fb8604653a7d8091238890508091505090565b6000611c33611224565b73ffffffffffffffffffffffffffffffffffffffff1663db6112258484156040518363ffffffff1660e01b8152600401611c6e929190613a94565b602060405180830381865afa158015611c8b573d6000803e3d6000fd5b505050506040513d601f19601f82011682018060405250810190611caf9190613abd565b905092915050565b611cbf612833565b611cc76112c8565b6000016000611cd686856112f5565b815260200190815260200160002060008473ffffffffffffffffffffffffffffffffffffffff1673ffffffffffffffffffffffffffffffffffffffff1681526020019081526020016000206040518061012001604052908160008201548152602001600182015481526020016002820154815260200160038201548152602001600482015481526020016005820160009054906101000a900460ff161515151581526020016005820160019054906101000a900463ffffffff1663ffffffff1663ffffffff1681526020016005820160059054906101000a900461ffff1661ffff1661ffff1681526020016005820160079054906101000a900468ffffffffffffffffff1668ffffffffffffffffff1668ffffffffffffffffff168152505090509392505050565b606081600001805480602002602001604051908101604052809291908181526020018280548015611e4e57602002820191906000526020600020905b815481526020019060010190808311611e3a575b50505050509050919050565b6000611e64611177565b60020160008361ffff1661ffff16815260200190815260200160002060009054906101000a900473ffffffffffffffffffffffffffffffffffffffff169050919050565b600080611ec883606001518460800151856101200151866040015161234e565b905060008103611edc576000915050611f8b565b6000611efb846060015185608001518661012001518760400151612394565b905060008103611f1057600092505050611f8b565b81811015611f1c578091505b611f398460a001518560c0015186610120015187604001516123ff565b905060008103611f4e57600092505050611f8b565b81811015611f5a578091505b611f77846000015185604001518660e0015187610100015161246a565b905081811015611f85578091505b81925050505b919050565b8080611f9c5750818310155b611fdb576040517f08c379a0000000000000000000000000000000000000000000000000000000008152600401611fd29061488d565b60405180910390fd5b505050565b6000611fea611177565b90508060000160008461ffff1661ffff16815260200190815260200160002060000160129054906101000a900463ffffffff1663ffffffff16821115612065576040517f08c379a000000000000000000000000000000000000000000000000000000000815260040161205c906148f9565b60405180910390fd5b505050565b6000612074611177565b90506120ba8260600151826000016000856080015161ffff1661ffff16815260200190815260200160002060000160069054906101000a900461ffff1661ffff1661249f565b8260600181815250506000806120e284606001518561014001516124b890919063ffffffff16565b90508360c0015115158460a0015115150361210f57808461014001516121089190613a60565b9150612123565b8084610140015161212091906144ea565b91505b60008211612166576040517f08c379a000000000000000000000000000000000000000000000000000000000815260040161215d90614965565b60405180910390fd5b61216f846124eb565b50505050565b600030905090565b6000808273ffffffffffffffffffffffffffffffffffffffff1663313ce5676040518163ffffffff1660e01b8152600401602060405180830381865afa1580156121cb573d6000803e3d6000fd5b505050506040513d601f19601f820116820180604052508101906121ef9190613b56565b90506012600a6121ff9190614ab8565b8160ff16600a61220f9190614b03565b8561221a9190614b4e565b6122249190614bbf565b91505092915050565b600082148061223c5750600081145b612349576000818361224e9190614bbf565b9050600061225a611177565b90508060000160008661ffff1661ffff168152602001908152602001600020600001600a9054906101000a900461ffff1661ffff168211156122d1576040517f08c379a00000000000000000000000000000000000000000000000000000000081526004016122c890614c3c565b60405180910390fd5b8060000160008661ffff1661ffff16815260200190815260200160002060000160089054906101000a900461ffff1661ffff16821015612346576040517f08c379a000000000000000000000000000000000000000000000000000000000815260040161233d90614c3c565b60405180910390fd5b50505b505050565b6000808261235c578461235e565b855b9050600061237c61236d6125a1565b866124b890919063ffffffff16565b905061238882826125bc565b92505050949350505050565b600080826123a257846123a4565b855b905060006123c26123b36125e3565b866124b890919063ffffffff16565b9050836123da5786816123d59190613a60565b6123e7565b85816123e69190613a60565b5b90506123f382826125bc565b92505050949350505050565b6000808261240d578461240f565b855b9050600061242d61241e6125fe565b866124b890919063ffffffff16565b9050836124455786816124409190613a60565b612452565b85816124519190613a60565b5b905061245e82826125bc565b92505050949350505050565b60008061247686612619565b90506000856124855783612487565b845b905061249381836125bc565b92505050949350505050565b60008183106124ae57816124b0565b825b905092915050565b6000816302faf08060001903048311158215176124d457600080fd5b6305f5e1006302faf0808385020104905092915050565b6000816020015111612532576040517f08c379a000000000000000000000000000000000000000000000000000000000815260040161252990614ca8565b60405180910390fd5b8061022001518061255f575080602001518161014001511115158160c0015115158260a001511515141515145b61259e576040517f08c379a000000000000000000000000000000000000000000000000000000000815260040161259590614d14565b60405180910390fd5b50565b60006125b76125ae61264b565b60000154612678565b905090565b60008183106125ce57600090506125dd565b82826125da91906144ea565b90505b92915050565b60006125f96125f061264b565b60010154612678565b905090565b600061261461260b61264b565b60020154612678565b905090565b600061264461262661264b565b60030160008461ffff16815260200190815260200160002054612678565b9050919050565b6000807f4d502ef5fdff70d438af9761f5d88171826a8d62a1895d92f16b3f9b850427db90508091505090565b6000808214612687578161268d565b6305f5e1005b9050919050565b604051806103600160405280600060048111156126b4576126b3613931565b5b8152602001600081526020016000815260200160008152602001600061ffff168152602001600015158152602001600015158152602001600015158152602001600015158152602001600081526020016000815260200160008152602001600081526020016000815260200160008152602001600067ffffffffffffffff168152602001600073ffffffffffffffffffffffffffffffffffffffff1681526020016000151581526020016000600281111561277257612771613931565b5b8152602001600067ffffffffffffffff16815260200160008019168152602001600060ff16815260200160001515815260200160001515815260200160001515815260200160001515815260200160006fffffffffffffffffffffffffffffffff1681525090565b604051806101400160405280600061ffff16815260200160008152602001600015158152602001600081526020016000815260200160008152602001600081526020016000815260200160008152602001600081525090565b6040518061012001604052806000815260200160008152602001600081526020016000815260200160008152602001600015158152602001600063ffffffff168152602001600061ffff168152602001600068ffffffffffffffffff1681525090565b6000604051905090565b600080fd5b600080fd5b600080fd5b6000601f19601f8301169050919050565b7f4e487b7100000000000000000000000000000000000000000000000000000000600052604160045260246000fd5b6128f8826128af565b810181811067ffffffffffffffff82111715612917576129166128c0565b5b80604052505050565b600061292a612896565b905061293682826128ef565b919050565b6000819050919050565b61294e8161293b565b811461295957600080fd5b50565b60008135905061296b81612945565b92915050565b60006fffffffffffffffffffffffffffffffff82169050919050565b61299681612971565b81146129a157600080fd5b50565b6000813590506129b38161298d565b92915050565b6000819050919050565b6129cc816129b9565b81146129d757600080fd5b50565b6000813590506129e9816129c3565b92915050565b60008115159050919050565b612a04816129ef565b8114612a0f57600080fd5b50565b600081359050612a21816129fb565b92915050565b600067ffffffffffffffff82169050919050565b612a4481612a27565b8114612a4f57600080fd5b50565b600081359050612a6181612a3b565b92915050565b600063ffffffff82169050919050565b612a8081612a67565b8114612a8b57600080fd5b50565b600081359050612a9d81612a77565b92915050565b600060ff82169050919050565b612ab981612aa3565b8114612ac457600080fd5b50565b600081359050612ad681612ab0565b92915050565b600073ffffffffffffffffffffffffffffffffffffffff82169050919050565b6000612b0782612adc565b9050919050565b612b1781612afc565b8114612b2257600080fd5b50565b600081359050612b3481612b0e565b92915050565b60006bffffffffffffffffffffffff82169050919050565b612b5b81612b3a565b8114612b6657600080fd5b50565b600081359050612b7881612b52565b92915050565b600061ffff82169050919050565b612b9581612b7e565b8114612ba057600080fd5b50565b600081359050612bb281612b8c565b92915050565b60006103008284031215612bcf57612bce6128aa565b5b612bda610300612920565b90506000612bea8482850161295c565b6000830152506020612bfe848285016129a4565b6020830152506040612c12848285016129a4565b6040830152506060612c26848285016129da565b6060830152506080612c3a848285016129da565b60808301525060a0612c4e84828501612a12565b60a08301525060c0612c6284828501612a12565b60c08301525060e0612c7684828501612a12565b60e083015250610100612c8b84828501612a12565b61010083015250610120612ca184828501612a12565b61012083015250610140612cb784828501612a52565b61014083015250610160612ccd84828501612a52565b61016083015250610180612ce384828501612a52565b610180830152506101a0612cf984828501612a8e565b6101a0830152506101c0612d0f84828501612ac7565b6101c0830152506101e0612d2584828501612b25565b6101e083015250610200612d3b84828501612b69565b61020083015250610220612d51848285016129da565b61022083015250610240612d6784828501612a12565b61024083015250610260612d7d84828501612a12565b61026083015250610280612d9384828501612ba3565b610280830152506102a0612da984828501612b69565b6102a0830152506102c0612dbf848285016129a4565b6102c0830152506102e0612dd584828501612ac7565b6102e08301525092915050565b60058110612def57600080fd5b50565b600081359050612e0181612de2565b92915050565b60038110612e1457600080fd5b50565b600081359050612e2681612e07565b92915050565b60006103608284031215612e4357612e426128aa565b5b612e4e610360612920565b90506000612e5e84828501612df2565b6000830152506020612e72848285016129da565b6020830152506040612e86848285016129da565b6040830152506060612e9a848285016129da565b6060830152506080612eae84828501612ba3565b60808301525060a0612ec284828501612a12565b60a08301525060c0612ed684828501612a12565b60c08301525060e0612eea84828501612a12565b60e083015250610100612eff84828501612a12565b61010083015250610120612f15848285016129da565b61012083015250610140612f2b848285016129da565b61014083015250610160612f41848285016129da565b61016083015250610180612f57848285016129da565b610180830152506101a0612f6d848285016129da565b6101a0830152506101c0612f83848285016129da565b6101c0830152506101e0612f9984828501612a52565b6101e083015250610200612faf84828501612b25565b61020083015250610220612fc584828501612a12565b61022083015250610240612fdb84828501612e17565b61024083015250610260612ff184828501612a52565b610260830152506102806130078482850161295c565b610280830152506102a061301d84828501612ac7565b6102a0830152506102c061303384828501612a12565b6102c0830152506102e061304984828501612a12565b6102e08301525061030061305f84828501612a12565b6103008301525061032061307584828501612a12565b6103208301525061034061308b848285016129a4565b6103408301525092915050565b60008061066083850312156130b0576130af6128a0565b5b60006130be85828601612bb8565b9250506103006130d085828601612e2c565b9150509250929050565b600080604083850312156130f1576130f06128a0565b5b60006130ff85828601612ba3565b925050602061311085828601612b25565b9150509250929050565b613123816129b9565b82525050565b600060408201905061313e600083018561311a565b61314b602083018461311a565b9392505050565b600060208284031215613168576131676128a0565b5b600061317684828501612ba3565b91505092915050565b600081519050919050565b600082825260208201905092915050565b6000819050602082019050919050565b6131b4816129b9565b82525050565b60006131c683836131ab565b60208301905092915050565b6000602082019050919050565b60006131ea8261317f565b6131f4818561318a565b93506131ff8361319b565b8060005b8381101561323057815161321788826131ba565b9750613222836131d2565b925050600181019050613203565b5085935050505092915050565b6000602082019050818103600083015261325781846131df565b905092915050565b600082825260208201905092915050565b7f506f736974696f6e4164644d67723a696e76616c69642069736f70656e000000600082015250565b60006132a6601d8361325f565b91506132b182613270565b602082019050919050565b600060208201905081810360008301526132d581613299565b9050919050565b7f506f736974696f6e4164644d67723a20696e73756666696369656e7420636f6c60008201527f6c61746572616c00000000000000000000000000000000000000000000000000602082015250565b600061333860278361325f565b9150613343826132dc565b604082019050919050565b600060208201905081810360008301526133678161332b565b9050919050565b600081519050919050565b60005b8381101561339757808201518184015260208101905061337c565b60008484015250505050565b60006133ae8261336e565b6133b8818561325f565b93506133c8818560208601613379565b6133d1816128af565b840191505092915050565b600060208201905081810360008301526133f681846133a3565b905092915050565b61340781612afc565b82525050565b61341681612b7e565b82525050565b613425816129ef565b82525050565b6000819050919050565b600061345061344b61344684612a27565b61342b565b6129b9565b9050919050565b61346081613435565b82525050565b600060a08201905061347b60008301886133fe565b613488602083018761340d565b613495604083018661341c565b6134a26060830185613457565b6134af608083018461341c565b9695505050505050565b600080fd5b600067ffffffffffffffff8211156134d9576134d86128c0565b5b602082029050602081019050919050565b600080fd5b6000815190506134fe81612945565b92915050565b6000815190506135138161298d565b92915050565b600081519050613528816129c3565b92915050565b60008151905061353d816129fb565b92915050565b60008151905061355281612a3b565b92915050565b60008151905061356781612a77565b92915050565b60008151905061357c81612ab0565b92915050565b60008151905061359181612b0e565b92915050565b6000815190506135a681612b52565b92915050565b6000815190506135bb81612b8c565b92915050565b600061030082840312156135d8576135d76128aa565b5b6135e3610300612920565b905060006135f3848285016134ef565b600083015250602061360784828501613504565b602083015250604061361b84828501613504565b604083015250606061362f84828501613519565b606083015250608061364384828501613519565b60808301525060a06136578482850161352e565b60a08301525060c061366b8482850161352e565b60c08301525060e061367f8482850161352e565b60e0830152506101006136948482850161352e565b610100830152506101206136aa8482850161352e565b610120830152506101406136c084828501613543565b610140830152506101606136d684828501613543565b610160830152506101806136ec84828501613543565b610180830152506101a061370284828501613558565b6101a0830152506101c06137188482850161356d565b6101c0830152506101e061372e84828501613582565b6101e08301525061020061374484828501613597565b6102008301525061022061375a84828501613519565b610220830152506102406137708482850161352e565b610240830152506102606137868482850161352e565b6102608301525061028061379c848285016135ac565b610280830152506102a06137b284828501613597565b6102a0830152506102c06137c884828501613504565b6102c0830152506102e06137de8482850161356d565b6102e08301525092915050565b60006137fe6137f9846134be565b612920565b9050808382526020820190506103008402830185811115613822576138216134ea565b5b835b8181101561384c578061383788826135c1565b84526020840193505061030081019050613824565b5050509392505050565b600082601f83011261386b5761386a6134b9565b5b815161387b8482602086016137eb565b91505092915050565b60006020828403121561389a576138996128a0565b5b600082015167ffffffffffffffff8111156138b8576138b76128a5565b5b6138c484828501613856565b91505092915050565b7f4e487b7100000000000000000000000000000000000000000000000000000000600052601160045260246000fd5b600061390782612aa3565b915061391283612aa3565b9250828201905060ff81111561392b5761392a6138cd565b5b92915050565b7f4e487b7100000000000000000000000000000000000000000000000000000000600052602160045260246000fd5b61396981612aa3565b82525050565b50565b600061397f60008361325f565b915061398a8261396f565b600082019050919050565b6000819050919050565b6139a881613995565b82525050565b6000610100820190506139c4600083018a61341c565b6139d1602083018961341c565b6139de6040830188613457565b6139eb606083018761340d565b6139f86080830186613960565b81810360a0830152613a0981613972565b9050613a1860c083018561311a565b613a2560e083018461399f565b98975050505050505050565b7f4e487b7100000000000000000000000000000000000000000000000000000000600052603260045260246000fd5b6000613a6b826129b9565b9150613a76836129b9565b9250828201905080821115613a8e57613a8d6138cd565b5b92915050565b6000604082019050613aa9600083018561340d565b613ab6602083018461341c565b9392505050565b600060208284031215613ad357613ad26128a0565b5b6000613ae184828501613519565b91505092915050565b7f696e76616c6964206f72646572206b6579000000000000000000000000000000600082015250565b6000613b2060118361325f565b9150613b2b82613aea565b602082019050919050565b60006020820190508181036000830152613b4f81613b13565b9050919050565b600060208284031215613b6c57613b6b6128a0565b5b6000613b7a8482850161356d565b91505092915050565b6000604082019050613b98600083018561311a565b613ba56020830184613960565b9392505050565b7f6d723a6776000000000000000000000000000000000000000000000000000000600082015250565b6000613be260058361325f565b9150613bed82613bac565b602082019050919050565b60006020820190508181036000830152613c1181613bd5565b9050919050565b60058110613c2957613c28613931565b5b50565b6000819050613c3a82613c18565b919050565b6000613c4a82613c2c565b9050919050565b613c5a81613c3f565b82525050565b613c6981612b7e565b82525050565b613c78816129ef565b82525050565b613c8781612a27565b82525050565b613c9681612afc565b82525050565b60038110613cad57613cac613931565b5b50565b6000819050613cbe82613c9c565b919050565b6000613cce82613cb0565b9050919050565b613cde81613cc3565b82525050565b613ced8161293b565b82525050565b613cfc81612aa3565b82525050565b613d0b81612971565b82525050565b61036082016000820151613d286000850182613c51565b506020820151613d3b60208501826131ab565b506040820151613d4e60408501826131ab565b506060820151613d6160608501826131ab565b506080820151613d746080850182613c60565b5060a0820151613d8760a0850182613c6f565b5060c0820151613d9a60c0850182613c6f565b5060e0820151613dad60e0850182613c6f565b50610100820151613dc2610100850182613c6f565b50610120820151613dd76101208501826131ab565b50610140820151613dec6101408501826131ab565b50610160820151613e016101608501826131ab565b50610180820151613e166101808501826131ab565b506101a0820151613e2b6101a08501826131ab565b506101c0820151613e406101c08501826131ab565b506101e0820151613e556101e0850182613c7e565b50610200820151613e6a610200850182613c8d565b50610220820151613e7f610220850182613c6f565b50610240820151613e94610240850182613cd5565b50610260820151613ea9610260850182613c7e565b50610280820151613ebe610280850182613ce4565b506102a0820151613ed36102a0850182613cf3565b506102c0820151613ee86102c0850182613c6f565b506102e0820151613efd6102e0850182613c6f565b50610300820151613f12610300850182613c6f565b50610320820151613f27610320850182613c6f565b50610340820151613f3c610340850182613d02565b50505050565b613f4b81613995565b82525050565b613f5a81612a67565b82525050565b600068ffffffffffffffffff82169050919050565b613f7e81613f60565b82525050565b61012082016000820151613f9b60008501826131ab565b506020820151613fae60208501826131ab565b506040820151613fc16040850182613f42565b506060820151613fd46060850182613f42565b506080820151613fe760808501826131ab565b5060a0820151613ffa60a0850182613c6f565b5060c082015161400d60c0850182613f51565b5060e082015161402060e0850182613c60565b50610100820151614035610100850182613f75565b50505050565b6000610480820190506140516000830185613d11565b61405f610360830184613f84565b9392505050565b600081519050919050565b600082825260208201905092915050565b600061408d82614066565b6140978185614071565b93506140a7818560208601613379565b6140b0816128af565b840191505092915050565b600060208201905081810360008301526140d58184614082565b905092915050565b600067ffffffffffffffff8211156140f8576140f76128c0565b5b602082029050602081019050919050565b61411281613995565b811461411d57600080fd5b50565b60008151905061412f81614109565b92915050565b6000614148614143846140dd565b612920565b9050808382526020820190506020840283018581111561416b5761416a6134ea565b5b835b8181101561419457806141808882614120565b84526020840193505060208101905061416d565b5050509392505050565b600082601f8301126141b3576141b26134b9565b5b81516141c3848260208601614135565b91505092915050565b600080604083850312156141e3576141e26128a0565b5b600083015167ffffffffffffffff811115614201576142006128a5565b5b61420d8582860161419e565b925050602061421e85828601614120565b9150509250929050565b60006020828403121561423e5761423d6128a0565b5b600061424c84828501614120565b91505092915050565b600061426082613995565b915061426b83613995565b9250828203905081811260008412168282136000851215161715614292576142916138cd565b5b92915050565b60008160f81b9050919050565b60006142b082614298565b9050919050565b60006142c2826142a5565b9050919050565b6142da6142d5826129ef565b6142b7565b82525050565b60008160f01b9050919050565b60006142f8826142e0565b9050919050565b61431061430b82612b7e565b6142ed565b82525050565b600061432282856142c9565b60018201915061433282846142ff565b6002820191508190509392505050565b6000819050602082019050919050565b600061435e825161293b565b80915050919050565b600082821b905092915050565b600061437f82614066565b8261438984614342565b905061439481614352565b925060208210156143d4576143cf7fffffffffffffffffffffffffffffffffffffffffffffffffffffffffffffffff83602003600802614367565b831692505b5050919050565b60006060820190506143f0600083018661340d565b6143fd602083018561311a565b61440a604083018461311a565b949350505050565b7f696e76616c6964206f7261636c65207072696365000000000000000000000000600082015250565b600061444860148361325f565b915061445382614412565b602082019050919050565b600060208201905081810360008301526144778161443b565b9050919050565b7f4d61726b657456616c69643a4d61726b6574436c6f7365640000000000000000600082015250565b60006144b460188361325f565b91506144bf8261447e565b602082019050919050565b600060208201905081810360008301526144e3816144a7565b9050919050565b60006144f5826129b9565b9150614500836129b9565b9250828203905081811115614518576145176138cd565b5b92915050565b600061452982613995565b91507f8000000000000000000000000000000000000000000000000000000000000000820361455b5761455a6138cd565b5b816000039050919050565b7f4d61726b657456616c69643a436f6c6c61746572616c00000000000000000000600082015250565b600061459c60168361325f565b91506145a782614566565b602082019050919050565b600060208201905081810360008301526145cb8161458f565b9050919050565b60006020820190506145e7600083018461311a565b92915050565b600060a08201905061460260008301886133fe565b61460f602083018761311a565b61461c604083018661311a565b614629606083018561399f565b614636608083018461341c565b9695505050505050565b61464981613f60565b811461465457600080fd5b50565b60008151905061466681614640565b92915050565b60006101208284031215614683576146826128aa565b5b61468e610120612920565b9050600061469e84828501613519565b60008301525060206146b284828501613519565b60208301525060406146c684828501614120565b60408301525060606146da84828501614120565b60608301525060806146ee84828501613519565b60808301525060a06147028482850161352e565b60a08301525060c061471684828501613558565b60c08301525060e061472a848285016135ac565b60e08301525061010061473f84828501614657565b6101008301525092915050565b60006101208284031215614763576147626128a0565b5b60006147718482850161466c565b91505092915050565b600060408201905061478f600083018561340d565b61479c602083018461311a565b9392505050565b600060c0820190506147b860008301896133fe565b6147c5602083018861399f565b6147d2604083018761311a565b6147df606083018661311a565b6147ec608083018561399f565b6147f960a083018461341c565b979650505050505050565b600061481082866142c9565b60018201915061482082856142c9565b60018201915061483082846142ff565b600282019150819050949350505050565b7f4d61726b657456616c69643a53697a6500000000000000000000000000000000600082015250565b600061487760108361325f565b915061488282614841565b602082019050919050565b600060208201905081810360008301526148a68161486a565b9050919050565b7f4d61726b657456616c69643a7061793e4d61785472616465416d6f756e740000600082015250565b60006148e3601e8361325f565b91506148ee826148ad565b602082019050919050565b60006020820190508181036000830152614912816148d6565b9050919050565b7f4d61726b657456616c69643a696e707574207072696365207a65726f00000000600082015250565b600061494f601c8361325f565b915061495a82614919565b602082019050919050565b6000602082019050818103600083015261497e81614942565b9050919050565b60008160011c9050919050565b6000808291508390505b60018511156149dc578086048111156149b8576149b76138cd565b5b60018516156149c75780820291505b80810290506149d585614985565b945061499c565b94509492505050565b6000826149f55760019050614ab1565b81614a035760009050614ab1565b8160018114614a195760028114614a2357614a52565b6001915050614ab1565b60ff841115614a3557614a346138cd565b5b8360020a915084821115614a4c57614a4b6138cd565b5b50614ab1565b5060208310610133831016604e8410600b8410161715614a875782820a905083811115614a8257614a816138cd565b5b614ab1565b614a948484846001614992565b92509050818404811115614aab57614aaa6138cd565b5b81810290505b9392505050565b6000614ac3826129b9565b9150614ace83612aa3565b9250614afb7fffffffffffffffffffffffffffffffffffffffffffffffffffffffffffffffff84846149e5565b905092915050565b6000614b0e826129b9565b9150614b19836129b9565b9250614b467fffffffffffffffffffffffffffffffffffffffffffffffffffffffffffffffff84846149e5565b905092915050565b6000614b59826129b9565b9150614b64836129b9565b9250828202614b72816129b9565b91508282048414831517614b8957614b886138cd565b5b5092915050565b7f4e487b7100000000000000000000000000000000000000000000000000000000600052601260045260246000fd5b6000614bca826129b9565b9150614bd5836129b9565b925082614be557614be4614b90565b5b828204905092915050565b7f4d61726b657456616c69643a4c65760000000000000000000000000000000000600082015250565b6000614c26600f8361325f565b9150614c3182614bf0565b602082019050919050565b60006020820190508181036000830152614c5581614c19565b9050919050565b7f4d61726b657456616c69643a216f7261636c6500000000000000000000000000600082015250565b6000614c9260138361325f565b9150614c9d82614c5c565b602082019050919050565b60006020820190508181036000830152614cc181614c85565b9050919050565b7f4d61726b657456616c69643a2166726f6e742d656e6420707269636500000000600082015250565b6000614cfe601c8361325f565b9150614d0982614cc8565b602082019050919050565b60006020820190508181036000830152614d2d81614cf1565b905091905056fea264697066735822122099ca22cc45444efa3f849797aa530f65da6e537c4f16f7f1d912185ca13d45aa64736f6c63430008180033",
  "devdoc": {
    "errors": {
      "SafeCastOverflowedUintToInt(uint256)": [
        {
          "details": "An uint value doesn't fit in an int of `bits` size."
        }
      ]
    },
    "kind": "dev",
    "methods": {},
    "version": 1
  },
  "userdoc": {
    "kind": "user",
    "methods": {},
    "version": 1
  },
  "storageLayout": {
    "storage": [],
    "types": null
  }
}