{
  "address": "0xb2beb8E6E5759003d9ec1023C5425Ca587BfE79D",
  "abi": [
    {
      "inputs": [
        {
          "internalType": "address",
          "name": "authority",
          "type": "address"
        }
      ],
      "name": "AccessManagedInvalidAuthority",
      "type": "error"
    },
    {
      "inputs": [
        {
          "internalType": "address",
          "name": "caller",
          "type": "address"
        },
        {
          "internalType": "uint32",
          "name": "delay",
          "type": "uint32"
        }
      ],
      "name": "AccessManagedRequiredDelay",
      "type": "error"
    },
    {
      "inputs": [
        {
          "internalType": "address",
          "name": "caller",
          "type": "address"
        }
      ],
      "name": "AccessManagedUnauthorized",
      "type": "error"
    },
    {
      "inputs": [
        {
          "internalType": "int256",
          "name": "value",
          "type": "int256"
        }
      ],
      "name": "SafeCastOverflowedIntToUint",
      "type": "error"
    },
    {
      "inputs": [
        {
          "internalType": "uint256",
          "name": "value",
          "type": "uint256"
        }
      ],
      "name": "SafeCastOverflowedUintToInt",
      "type": "error"
    },
    {
      "anonymous": false,
      "inputs": [
        {
          "indexed": false,
          "internalType": "uint16",
          "name": "market",
          "type": "uint16"
        },
        {
          "indexed": false,
          "internalType": "bool",
          "name": "isLong",
          "type": "bool"
        },
        {
          "components": [
            {
              "internalType": "uint256",
              "name": "size",
              "type": "uint256"
            },
            {
              "internalType": "uint256",
              "name": "collateral",
              "type": "uint256"
            },
            {
              "internalType": "int256",
              "name": "entryFundingRate",
              "type": "int256"
            },
            {
              "internalType": "int256",
              "name": "realisedPnl",
              "type": "int256"
            },
            {
              "internalType": "uint256",
              "name": "averagePrice",
              "type": "uint256"
            },
            {
              "internalType": "bool",
              "name": "isLong",
              "type": "bool"
            },
            {
              "internalType": "uint32",
              "name": "lastTime",
              "type": "uint32"
            },
            {
              "internalType": "uint16",
              "name": "market",
              "type": "uint16"
            },
            {
              "internalType": "uint72",
              "name": "extra0",
              "type": "uint72"
            }
          ],
          "indexed": false,
          "internalType": "struct PositionProps",
          "name": "oldPosition",
          "type": "tuple"
        },
        {
          "components": [
            {
              "internalType": "uint256",
              "name": "size",
              "type": "uint256"
            },
            {
              "internalType": "uint256",
              "name": "collateral",
              "type": "uint256"
            },
            {
              "internalType": "int256",
              "name": "entryFundingRate",
              "type": "int256"
            },
            {
              "internalType": "int256",
              "name": "realisedPnl",
              "type": "int256"
            },
            {
              "internalType": "uint256",
              "name": "averagePrice",
              "type": "uint256"
            },
            {
              "internalType": "bool",
              "name": "isLong",
              "type": "bool"
            },
            {
              "internalType": "uint32",
              "name": "lastTime",
              "type": "uint32"
            },
            {
              "internalType": "uint16",
              "name": "market",
              "type": "uint16"
            },
            {
              "internalType": "uint72",
              "name": "extra0",
              "type": "uint72"
            }
          ],
          "indexed": false,
          "internalType": "struct PositionProps",
          "name": "newPosition",
          "type": "tuple"
        }
      ],
      "name": "GlobalPositionUpdate",
      "type": "event"
    },
    {
      "anonymous": false,
      "inputs": [
        {
          "indexed": true,
          "internalType": "address",
          "name": "account",
          "type": "address"
        },
        {
          "indexed": false,
          "internalType": "uint16",
          "name": "market",
          "type": "uint16"
        },
        {
          "indexed": false,
          "internalType": "bool",
          "name": "isLong",
          "type": "bool"
        },
        {
          "components": [
            {
              "internalType": "uint256",
              "name": "size",
              "type": "uint256"
            },
            {
              "internalType": "uint256",
              "name": "collateral",
              "type": "uint256"
            },
            {
              "internalType": "int256",
              "name": "entryFundingRate",
              "type": "int256"
            },
            {
              "internalType": "int256",
              "name": "realisedPnl",
              "type": "int256"
            },
            {
              "internalType": "uint256",
              "name": "averagePrice",
              "type": "uint256"
            },
            {
              "internalType": "bool",
              "name": "isLong",
              "type": "bool"
            },
            {
              "internalType": "uint32",
              "name": "lastTime",
              "type": "uint32"
            },
            {
              "internalType": "uint16",
              "name": "market",
              "type": "uint16"
            },
            {
              "internalType": "uint72",
              "name": "extra0",
              "type": "uint72"
            }
          ],
          "indexed": false,
          "internalType": "struct PositionProps",
          "name": "oldPosition",
          "type": "tuple"
        }
      ],
      "name": "PositionDelete",
      "type": "event"
    },
    {
      "anonymous": false,
      "inputs": [
        {
          "indexed": true,
          "internalType": "address",
          "name": "account",
          "type": "address"
        },
        {
          "indexed": false,
          "internalType": "uint16",
          "name": "market",
          "type": "uint16"
        },
        {
          "indexed": false,
          "internalType": "bool",
          "name": "isLong",
          "type": "bool"
        }
      ],
      "name": "PositionKeyAdd",
      "type": "event"
    },
    {
      "anonymous": false,
      "inputs": [
        {
          "indexed": true,
          "internalType": "address",
          "name": "account",
          "type": "address"
        },
        {
          "indexed": false,
          "internalType": "uint16",
          "name": "market",
          "type": "uint16"
        },
        {
          "indexed": false,
          "internalType": "bool",
          "name": "isLong",
          "type": "bool"
        }
      ],
      "name": "PositionKeyDelete",
      "type": "event"
    },
    {
      "anonymous": false,
      "inputs": [
        {
          "indexed": true,
          "internalType": "address",
          "name": "account",
          "type": "address"
        },
        {
          "indexed": false,
          "internalType": "uint16",
          "name": "market",
          "type": "uint16"
        },
        {
          "indexed": false,
          "internalType": "bool",
          "name": "isLong",
          "type": "bool"
        },
        {
          "components": [
            {
              "internalType": "uint256",
              "name": "size",
              "type": "uint256"
            },
            {
              "internalType": "uint256",
              "name": "collateral",
              "type": "uint256"
            },
            {
              "internalType": "int256",
              "name": "entryFundingRate",
              "type": "int256"
            },
            {
              "internalType": "int256",
              "name": "realisedPnl",
              "type": "int256"
            },
            {
              "internalType": "uint256",
              "name": "averagePrice",
              "type": "uint256"
            },
            {
              "internalType": "bool",
              "name": "isLong",
              "type": "bool"
            },
            {
              "internalType": "uint32",
              "name": "lastTime",
              "type": "uint32"
            },
            {
              "internalType": "uint16",
              "name": "market",
              "type": "uint16"
            },
            {
              "internalType": "uint72",
              "name": "extra0",
              "type": "uint72"
            }
          ],
          "indexed": false,
          "internalType": "struct PositionProps",
          "name": "oldPosition",
          "type": "tuple"
        },
        {
          "components": [
            {
              "internalType": "uint256",
              "name": "size",
              "type": "uint256"
            },
            {
              "internalType": "uint256",
              "name": "collateral",
              "type": "uint256"
            },
            {
              "internalType": "int256",
              "name": "entryFundingRate",
              "type": "int256"
            },
            {
              "internalType": "int256",
              "name": "realisedPnl",
              "type": "int256"
            },
            {
              "internalType": "uint256",
              "name": "averagePrice",
              "type": "uint256"
            },
            {
              "internalType": "bool",
              "name": "isLong",
              "type": "bool"
            },
            {
              "internalType": "uint32",
              "name": "lastTime",
              "type": "uint32"
            },
            {
              "internalType": "uint16",
              "name": "market",
              "type": "uint16"
            },
            {
              "internalType": "uint72",
              "name": "extra0",
              "type": "uint72"
            }
          ],
          "indexed": false,
          "internalType": "struct PositionProps",
          "name": "newPosition",
          "type": "tuple"
        }
      ],
      "name": "PositionUpdate",
      "type": "event"
    },
    {
      "inputs": [
        {
          "components": [
            {
              "internalType": "uint16",
              "name": "market",
              "type": "uint16"
            },
            {
              "internalType": "address",
              "name": "account",
              "type": "address"
            },
            {
              "internalType": "int256",
              "name": "collateralDelta",
              "type": "int256"
            },
            {
              "internalType": "uint256",
              "name": "sizeDelta",
              "type": "uint256"
            },
            {
              "internalType": "int256",
              "name": "fundingRate",
              "type": "int256"
            },
            {
              "internalType": "bool",
              "name": "isLong",
              "type": "bool"
            }
          ],
          "internalType": "struct DecreasePositionInputs",
          "name": "inputs",
          "type": "tuple"
        }
      ],
      "name": "SELF_decreasePosition",
      "outputs": [
        {
          "components": [
            {
              "internalType": "uint256",
              "name": "size",
              "type": "uint256"
            },
            {
              "internalType": "uint256",
              "name": "collateral",
              "type": "uint256"
            },
            {
              "internalType": "int256",
              "name": "entryFundingRate",
              "type": "int256"
            },
            {
              "internalType": "int256",
              "name": "realisedPnl",
              "type": "int256"
            },
            {
              "internalType": "uint256",
              "name": "averagePrice",
              "type": "uint256"
            },
            {
              "internalType": "bool",
              "name": "isLong",
              "type": "bool"
            },
            {
              "internalType": "uint32",
              "name": "lastTime",
              "type": "uint32"
            },
            {
              "internalType": "uint16",
              "name": "market",
              "type": "uint16"
            },
            {
              "internalType": "uint72",
              "name": "extra0",
              "type": "uint72"
            }
          ],
          "internalType": "struct PositionProps",
          "name": "result",
          "type": "tuple"
        }
      ],
      "stateMutability": "nonpayable",
      "type": "function"
    },
    {
      "inputs": [
        {
          "components": [
            {
              "internalType": "uint16",
              "name": "market",
              "type": "uint16"
            },
            {
              "internalType": "address",
              "name": "account",
              "type": "address"
            },
            {
              "internalType": "int256",
              "name": "collateralDelta",
              "type": "int256"
            },
            {
              "internalType": "uint256",
              "name": "sizeDelta",
              "type": "uint256"
            },
            {
              "internalType": "uint256",
              "name": "markPrice",
              "type": "uint256"
            },
            {
              "internalType": "int256",
              "name": "fundingRate",
              "type": "int256"
            },
            {
              "internalType": "bool",
              "name": "isLong",
              "type": "bool"
            }
          ],
          "internalType": "struct IncreasePositionInputs",
          "name": "_data",
          "type": "tuple"
        }
      ],
      "name": "SELF_increasePosition",
      "outputs": [
        {
          "components": [
            {
              "internalType": "uint256",
              "name": "size",
              "type": "uint256"
            },
            {
              "internalType": "uint256",
              "name": "collateral",
              "type": "uint256"
            },
            {
              "internalType": "int256",
              "name": "entryFundingRate",
              "type": "int256"
            },
            {
              "internalType": "int256",
              "name": "realisedPnl",
              "type": "int256"
            },
            {
              "internalType": "uint256",
              "name": "averagePrice",
              "type": "uint256"
            },
            {
              "internalType": "bool",
              "name": "isLong",
              "type": "bool"
            },
            {
              "internalType": "uint32",
              "name": "lastTime",
              "type": "uint32"
            },
            {
              "internalType": "uint16",
              "name": "market",
              "type": "uint16"
            },
            {
              "internalType": "uint72",
              "name": "extra0",
              "type": "uint72"
            }
          ],
          "internalType": "struct PositionProps",
          "name": "result",
          "type": "tuple"
        }
      ],
      "stateMutability": "nonpayable",
      "type": "function"
    },
    {
      "inputs": [
        {
          "internalType": "uint16",
          "name": "market",
          "type": "uint16"
        },
        {
          "internalType": "address",
          "name": "account",
          "type": "address"
        },
        {
          "internalType": "uint256",
          "name": "oraclePrice",
          "type": "uint256"
        },
        {
          "internalType": "bool",
          "name": "isLong",
          "type": "bool"
        }
      ],
      "name": "SELF_liquidatePosition",
      "outputs": [
        {
          "components": [
            {
              "internalType": "uint256",
              "name": "size",
              "type": "uint256"
            },
            {
              "internalType": "uint256",
              "name": "collateral",
              "type": "uint256"
            },
            {
              "internalType": "int256",
              "name": "entryFundingRate",
              "type": "int256"
            },
            {
              "internalType": "int256",
              "name": "realisedPnl",
              "type": "int256"
            },
            {
              "internalType": "uint256",
              "name": "averagePrice",
              "type": "uint256"
            },
            {
              "internalType": "bool",
              "name": "isLong",
              "type": "bool"
            },
            {
              "internalType": "uint32",
              "name": "lastTime",
              "type": "uint32"
            },
            {
              "internalType": "uint16",
              "name": "market",
              "type": "uint16"
            },
            {
              "internalType": "uint72",
              "name": "extra0",
              "type": "uint72"
            }
          ],
          "internalType": "struct PositionProps",
          "name": "result",
          "type": "tuple"
        }
      ],
      "stateMutability": "nonpayable",
      "type": "function"
    },
    {
      "inputs": [
        {
          "internalType": "uint16",
          "name": "market",
          "type": "uint16"
        },
        {
          "internalType": "address",
          "name": "account",
          "type": "address"
        }
      ],
      "name": "containsPositionOfUser",
      "outputs": [
        {
          "internalType": "bool",
          "name": "",
          "type": "bool"
        }
      ],
      "stateMutability": "view",
      "type": "function"
    },
    {
      "inputs": [
        {
          "internalType": "uint16",
          "name": "market",
          "type": "uint16"
        },
        {
          "internalType": "address",
          "name": "account",
          "type": "address"
        }
      ],
      "name": "getAccountSize",
      "outputs": [
        {
          "internalType": "uint256",
          "name": "",
          "type": "uint256"
        },
        {
          "internalType": "uint256",
          "name": "",
          "type": "uint256"
        }
      ],
      "stateMutability": "view",
      "type": "function"
    },
    {
      "inputs": [
        {
          "internalType": "uint16",
          "name": "market",
          "type": "uint16"
        },
        {
          "internalType": "bool",
          "name": "isLong",
          "type": "bool"
        }
      ],
      "name": "getGlobalPosition",
      "outputs": [
        {
          "components": [
            {
              "internalType": "uint256",
              "name": "size",
              "type": "uint256"
            },
            {
              "internalType": "uint256",
              "name": "collateral",
              "type": "uint256"
            },
            {
              "internalType": "int256",
              "name": "entryFundingRate",
              "type": "int256"
            },
            {
              "internalType": "int256",
              "name": "realisedPnl",
              "type": "int256"
            },
            {
              "internalType": "uint256",
              "name": "averagePrice",
              "type": "uint256"
            },
            {
              "internalType": "bool",
              "name": "isLong",
              "type": "bool"
            },
            {
              "internalType": "uint32",
              "name": "lastTime",
              "type": "uint32"
            },
            {
              "internalType": "uint16",
              "name": "market",
              "type": "uint16"
            },
            {
              "internalType": "uint72",
              "name": "extra0",
              "type": "uint72"
            }
          ],
          "internalType": "struct PositionProps",
          "name": "",
          "type": "tuple"
        }
      ],
      "stateMutability": "view",
      "type": "function"
    },
    {
      "inputs": [
        {
          "internalType": "uint16",
          "name": "market",
          "type": "uint16"
        }
      ],
      "name": "getMarketSizes",
      "outputs": [
        {
          "internalType": "uint256",
          "name": "",
          "type": "uint256"
        },
        {
          "internalType": "uint256",
          "name": "",
          "type": "uint256"
        }
      ],
      "stateMutability": "view",
      "type": "function"
    },
    {
      "inputs": [
        {
          "internalType": "uint16",
          "name": "market",
          "type": "uint16"
        }
      ],
      "name": "getPNLOfMarket",
      "outputs": [
        {
          "internalType": "int256",
          "name": "pnl",
          "type": "int256"
        }
      ],
      "stateMutability": "view",
      "type": "function"
    },
    {
      "inputs": [
        {
          "internalType": "uint16",
          "name": "market",
          "type": "uint16"
        },
        {
          "internalType": "address",
          "name": "account",
          "type": "address"
        },
        {
          "internalType": "uint256",
          "name": "sizeDelta",
          "type": "uint256"
        },
        {
          "internalType": "uint256",
          "name": "markPrice",
          "type": "uint256"
        },
        {
          "internalType": "bool",
          "name": "isLong",
          "type": "bool"
        }
      ],
      "name": "getPNLOfUser",
      "outputs": [
        {
          "internalType": "int256",
          "name": "",
          "type": "int256"
        }
      ],
      "stateMutability": "view",
      "type": "function"
    },
    {
      "inputs": [
        {
          "internalType": "uint16",
          "name": "market",
          "type": "uint16"
        },
        {
          "internalType": "address",
          "name": "account",
          "type": "address"
        },
        {
          "internalType": "uint256",
          "name": "markPrice",
          "type": "uint256"
        },
        {
          "internalType": "bool",
          "name": "isLong",
          "type": "bool"
        }
      ],
      "name": "getPosition",
      "outputs": [
        {
          "components": [
            {
              "internalType": "uint256",
              "name": "size",
              "type": "uint256"
            },
            {
              "internalType": "uint256",
              "name": "collateral",
              "type": "uint256"
            },
            {
              "internalType": "int256",
              "name": "entryFundingRate",
              "type": "int256"
            },
            {
              "internalType": "int256",
              "name": "realisedPnl",
              "type": "int256"
            },
            {
              "internalType": "uint256",
              "name": "averagePrice",
              "type": "uint256"
            },
            {
              "internalType": "bool",
              "name": "isLong",
              "type": "bool"
            },
            {
              "internalType": "uint32",
              "name": "lastTime",
              "type": "uint32"
            },
            {
              "internalType": "uint16",
              "name": "market",
              "type": "uint16"
            },
            {
              "internalType": "uint72",
              "name": "extra0",
              "type": "uint72"
            }
          ],
          "internalType": "struct PositionProps",
          "name": "",
          "type": "tuple"
        }
      ],
      "stateMutability": "view",
      "type": "function"
    },
    {
      "inputs": [
        {
          "internalType": "uint16",
          "name": "market",
          "type": "uint16"
        },
        {
          "internalType": "bool",
          "name": "isLong",
          "type": "bool"
        }
      ],
      "name": "getPositionCount",
      "outputs": [
        {
          "internalType": "uint256",
          "name": "",
          "type": "uint256"
        }
      ],
      "stateMutability": "view",
      "type": "function"
    },
    {
      "inputs": [
        {
          "internalType": "uint16",
          "name": "market",
          "type": "uint16"
        },
        {
          "internalType": "uint256",
          "name": "start",
          "type": "uint256"
        },
        {
          "internalType": "uint256",
          "name": "end",
          "type": "uint256"
        },
        {
          "internalType": "bool",
          "name": "isLong",
          "type": "bool"
        }
      ],
      "name": "getPositionKeys",
      "outputs": [
        {
          "internalType": "address[]",
          "name": "",
          "type": "address[]"
        }
      ],
      "stateMutability": "view",
      "type": "function"
    },
    {
      "inputs": [
        {
          "internalType": "uint16",
          "name": "market",
          "type": "uint16"
        },
        {
          "internalType": "address",
          "name": "account",
          "type": "address"
        }
      ],
      "name": "getPositions",
      "outputs": [
        {
          "components": [
            {
              "internalType": "uint256",
              "name": "size",
              "type": "uint256"
            },
            {
              "internalType": "uint256",
              "name": "collateral",
              "type": "uint256"
            },
            {
              "internalType": "int256",
              "name": "entryFundingRate",
              "type": "int256"
            },
            {
              "internalType": "int256",
              "name": "realisedPnl",
              "type": "int256"
            },
            {
              "internalType": "uint256",
              "name": "averagePrice",
              "type": "uint256"
            },
            {
              "internalType": "bool",
              "name": "isLong",
              "type": "bool"
            },
            {
              "internalType": "uint32",
              "name": "lastTime",
              "type": "uint32"
            },
            {
              "internalType": "uint16",
              "name": "market",
              "type": "uint16"
            },
            {
              "internalType": "uint72",
              "name": "extra0",
              "type": "uint72"
            }
          ],
          "internalType": "struct PositionProps",
          "name": "posLong",
          "type": "tuple"
        },
        {
          "components": [
            {
              "internalType": "uint256",
              "name": "size",
              "type": "uint256"
            },
            {
              "internalType": "uint256",
              "name": "collateral",
              "type": "uint256"
            },
            {
              "internalType": "int256",
              "name": "entryFundingRate",
              "type": "int256"
            },
            {
              "internalType": "int256",
              "name": "realisedPnl",
              "type": "int256"
            },
            {
              "internalType": "uint256",
              "name": "averagePrice",
              "type": "uint256"
            },
            {
              "internalType": "bool",
              "name": "isLong",
              "type": "bool"
            },
            {
              "internalType": "uint32",
              "name": "lastTime",
              "type": "uint32"
            },
            {
              "internalType": "uint16",
              "name": "market",
              "type": "uint16"
            },
            {
              "internalType": "uint72",
              "name": "extra0",
              "type": "uint72"
            }
          ],
          "internalType": "struct PositionProps",
          "name": "posShort",
          "type": "tuple"
        }
      ],
      "stateMutability": "view",
      "type": "function"
    },
    {
      "inputs": [
        {
          "internalType": "address",
          "name": "_account",
          "type": "address"
        },
        {
          "internalType": "uint16",
          "name": "_market",
          "type": "uint16"
        },
        {
          "internalType": "bool",
          "name": "_isLong",
          "type": "bool"
        },
        {
          "internalType": "uint256",
          "name": "_price",
          "type": "uint256"
        }
      ],
      "name": "isLiquidate",
      "outputs": [
        {
          "internalType": "enum LiquidationState",
          "name": "_state",
          "type": "uint8"
        }
      ],
      "stateMutability": "view",
      "type": "function"
    }
  ],
  "args": [],
  "numDeployments": 4,
  "solcInputHash": "8d8e6e1fbf0edfe343a1be3391dbac70",
  "bytecode": "0x60806040523462000023576200001462000029565b613a01620000358239613a0190f35b6200002f565b60405190565b600080fdfe60806040526004361015610013575b6109b0565b61001e6000356100fd565b80630a0dcf7b146100f8578063334253c1146100f35780634da4ef30146100ee57806355304097146100e9578063653d64b6146100e4578063704a6fd0146100df57806371127e8a146100da57806388639412146100d557806389d797b9146100d05780638d094b1e146100cb578063bd11025d146100c6578063c76cb0d0146100c1578063d76ce277146100bc5763daa39c530361000e57610979565b610944565b61090f565b6108a7565b61085a565b6107fb565b6107c5565b61073e565b6106b5565b610638565b6105d1565b61051e565b6103fd565b61027a565b60e01c90565b60405190565b600080fd5b600080fd5b600080fd5b908160c09103126101265790565b610113565b9060c0828203126101455761014291600001610118565b90565b61010e565b90565b6101569061014a565b9052565b90565b6101669061015a565b9052565b151590565b6101789061016a565b9052565b63ffffffff1690565b61018e9061017c565b9052565b61ffff1690565b6101a290610192565b9052565b60018060481b031690565b6101ba906101a6565b9052565b9061010080610261936101d96000820151600086019061014d565b6101eb6020820151602086019061014d565b6101fd6040820151604086019061015d565b61020f6060820151606086019061015d565b6102216080820151608086019061014d565b61023360a082015160a086019061016f565b61024560c082015160c0860190610185565b61025760e082015160e0860190610199565b01519101906101b1565b565b919061027890600061012085019401906101be565b565b346102aa576102a661029561029036600461012b565b610cd0565b61029d610103565b91829182610263565b0390f35b610109565b60018060a01b031690565b6102c3906102af565b90565b6102cf816102ba565b036102d657565b600080fd5b905035906102e8826102c6565b565b6102f381610192565b036102fa57565b600080fd5b9050359061030c826102ea565b565b6103178161016a565b0361031e57565b600080fd5b905035906103308261030e565b565b61033b8161014a565b0361034257565b600080fd5b9050359061035482610332565b565b6080818303126103985761036d82600083016102db565b9261039561037e84602085016102ff565b9361038c8160408601610323565b93606001610347565b90565b61010e565b634e487b7160e01b600052602160045260246000fd5b600311156103bd57565b61039d565b906103cc826103b3565b565b6103d7906103c2565b90565b6103e3906103ce565b9052565b91906103fb906000602085019401906103da565b565b346104315761042d61041c610413366004610356565b92919091610ce9565b610424610103565b918291826103e7565b0390f35b610109565b6080818303126104785761044d82600083016102ff565b9261047561045e8460208501610347565b9361046c8160408601610347565b93606001610323565b90565b61010e565b5190565b60209181520190565b60200190565b610499906102ba565b9052565b906104aa81602093610490565b0190565b60200190565b906104d16104cb6104c48461047d565b8093610481565b9261048a565b9060005b8181106104e25750505090565b9091926104fb6104f5600192865161049d565b946104ae565b91019190916104d5565b61051b91602082019160008184039101526104b4565b90565b346105525761054e61053d610534366004610436565b92919091610da7565b610545610103565b91829182610505565b0390f35b610109565b919060a0838203126105a95761057081600085016102ff565b9261057e82602083016102db565b926105a661058f8460408501610347565b9361059d8160608601610347565b93608001610323565b90565b61010e565b6105b79061015a565b9052565b91906105cf906000602085019401906105ae565b565b34610605576106016105f06105e7366004610557565b93929092610e72565b6105f8610103565b918291826105bb565b0390f35b610109565b9190604083820312610633578061062761063092600086016102ff565b93602001610323565b90565b61010e565b346106695761066561065461064e36600461060a565b90610e91565b61065c610103565b91829182610263565b0390f35b610109565b6080818303126106b05761068582600083016102ff565b926106ad61069684602085016102db565b936106a48160408601610347565b93606001610323565b90565b61010e565b346106e9576106e56106d46106cb36600461066e565b92919091610f01565b6106dc610103565b91829182610263565b0390f35b610109565b9060208282031261070857610705916000016102ff565b90565b61010e565b6107169061014a565b9052565b91602061073c9294936107356040820196600083019061070d565b019061070d565b565b3461076f576107566107513660046106ee565b610f1d565b9061076b610762610103565b9283928361071a565b0390f35b610109565b919060408382031261079d578061079161079a92600086016102ff565b936020016102db565b90565b61010e565b6107ab9061016a565b9052565b91906107c3906000602085019401906107a2565b565b346107f6576107f26107e16107db366004610774565b90610fd1565b6107e9610103565b918291826107af565b0390f35b610109565b3461082f5761082b61081a61081136600461066e565b9291909161107d565b610822610103565b91829182610263565b0390f35b610109565b9161012061085892949361085161024082019660008301906101be565b01906101be565b565b3461088c5761087361086d366004610774565b90611099565b9061088861087f610103565b92839283610834565b0390f35b610109565b91906108a59060006020850194019061070d565b565b346108d8576108d46108c36108bd36600461060a565b906110bb565b6108cb610103565b91829182610891565b0390f35b610109565b908160e09103126108eb5790565b610113565b9060e08282031261090a57610907916000016108dd565b90565b61010e565b3461093f5761093b61092a6109253660046108f0565b6111c1565b610932610103565b91829182610263565b0390f35b610109565b346109745761097061095f61095a3660046106ee565b6111d5565b610967610103565b918291826105bb565b0390f35b610109565b346109ab5761099261098c366004610774565b906111e1565b906109a761099e610103565b9283928361071a565b0390f35b610109565b600080fd5b601f801991011690565b634e487b7160e01b600052604160045260246000fd5b906109df906109b5565b810190811060018060401b038211176109f757604052565b6109bf565b90610a0f610a08610103565b92836109d5565b565b610a1c6101206109fc565b90565b600090565b600090565b600090565b600090565b600090565b600090565b610a45610a11565b90602080808080808080808a610a59610a1f565b815201610a64610a1f565b815201610a6f610a24565b815201610a7a610a24565b815201610a85610a1f565b815201610a90610a29565b815201610a9b610a2e565b815201610aa6610a33565b815201610ab1610a38565b81525050565b610abf610a3d565b90565b90610acc91610c2b565b90565b610ada6101606109fc565b90565b600090565b600090565b610aef610a3d565b90565b610afa610acf565b906020808080808080808080808c610b10610a33565b815201610b1b610add565b815201610b26610a24565b815201610b31610a1f565b815201610b3c610a1f565b815201610b47610a24565b815201610b52610a29565b815201610b5d610a29565b815201610b68610ae2565b815201610b73610ae7565b815201610b7e610ae7565b81525050565b610b8c610af2565b90565b35610b99816102ea565b90565b90610ba690610192565b9052565b35610bb4816102c6565b90565b90610bc1906102ba565b9052565b610bce8161015a565b03610bd557565b600080fd5b35610be481610bc5565b90565b90610bf19061015a565b9052565b35610bff81610332565b90565b90610c0c9061014a565b9052565b35610c1a8161030e565b90565b90610c279061016a565b9052565b90610ccd9150610cc8610cbf60a0610c41610b84565b93610c5a610c5160008301610b8f565b60008701610b9c565b610c72610c6960208301610baa565b60208701610bb7565b610c8a610c8160408301610bda565b60408701610be7565b610ca2610c9960608301610bf5565b60608701610c02565b610cb9610cb160808301610bda565b838701610be7565b01610c10565b60c08301610c1d565b611711565b90565b610ce190610cdc610ab7565b610ac2565b90565b600090565b50505050610cf5610ce4565b90565b606090565b90565b610d0990610cfd565b90565b90610d1690610d00565b600052602052604060002090565b90565b90565b90565b610d41610d3c610d4692610d27565b610d2a565b61014a565b90565b60018060401b038111610d5f5760208091020190565b6109bf565b90610d76610d7183610d49565b6109fc565b918252565b369037565b90610da5610d8d83610d64565b92602080610d9b8693610d49565b9201910390610d7b565b565b92610dc690929192610db7610cf8565b50610dc06119e9565b94611ac2565b610de4610ddf610dda600187018490610d0c565b610d24565b611b03565b9384610df9610df36000610d2d565b9161014a565b14610e5357610e399483610e15610e0f8361014a565b9161014a565b11610e3c575b50610e31916001610e2c9201610d0c565b610d24565b919091611b68565b90565b610e2c919350916001610e31939492505091610e1b565b5050505050610e6a610e656000610d2d565b610d80565b90565b600090565b91610e8e9492939193610e83610e6d565b509390919293611c11565b90565b90610ea491610e9e610ab7565b50611c3a565b90565b90610eb494939291610eb7565b90565b610efe949193610ee7610ef994610ef09350610ede610ed4610b84565b9760008901610b9c565b60208701610bb7565b60808501610c02565b60c08301610c1d565b611d3d565b90565b90610f15939291610f10610ab7565b610ea7565b90565b600090565b610f3890610f29610f18565b50610f32610f18565b50611eab565b91909190565b600090565b90610f4d90610d00565b600052602052604060002090565b610f6f610f6a610f74926102af565b610d2a565b6102af565b90565b610f8090610f5b565b90565b610f8c90610f77565b90565b90610f9990610f83565b600052602052604060002090565b60001c90565b90565b610fbc610fc191610fa7565b610fad565b90565b610fce9054610fb0565b90565b90610fda610f3e565b50610fe36119e9565b91611011600061100b611004828701610ffe86600190611ac2565b90610f43565b8590610f8f565b01610fc4565b61102461101e6000610d2d565b9161014a565b11928315611033575b50505090565b61106193509161105661105b926110506000809601918690611ac2565b90610f43565b610f8f565b01610fc4565b61107461106e6000610d2d565b9161014a565b1138808061102d565b9161109693919261108c610ab7565b5092909192611f0f565b90565b906110b5916110a6610ab7565b506110af610ab7565b50611f4c565b91909190565b6110e96110ee916110e36110f3946110d1610f18565b5060016110dc6119e9565b0192611ac2565b90610d0c565b610d24565b611b03565b90565b9061110091611103565b90565b906111be91506111b96111b060c0611119610b84565b9361113261112960008301610b8f565b60008701610b9c565b61114a61114160208301610baa565b60208701610bb7565b61116261115960408301610bda565b60408701610be7565b61117a61117160608301610bf5565b60608701610c02565b61119261118960808301610bf5565b60808701610c02565b6111aa6111a160a08301610bda565b60a08701610be7565b01610c10565b60c08301610c1d565b61205e565b90565b6111d2906111cd610ab7565b6110f6565b90565b506111de610e6d565b90565b906111fd916111ee610f18565b506111f7610f18565b5061235e565b91909190565b61120d9051610192565b90565b61121a905161016a565b90565b9061122790610cfd565b9052565b6112359051610cfd565b90565b61124290516102ba565b90565b90565b61125461125991610fa7565b611245565b90565b6112669054611248565b90565b60ff1690565b61127b61128091610fa7565b611269565b90565b61128d905461126f565b90565b60081c90565b63ffffffff1690565b6112ab6112b091611290565b611296565b90565b6112bd905461129f565b90565b906112ca9061017c565b9052565b60281c90565b61ffff1690565b6112e76112ec916112ce565b6112d4565b90565b6112f990546112db565b90565b60381c90565b60018060481b031690565b61131961131e916112fc565b611302565b90565b61132b905461130d565b90565b90611338906101a6565b9052565b9061141b611411600561134d610a11565b9461136661135d60008301610fc4565b60008801610c02565b61137e61137560018301610fc4565b60208801610c02565b61139661138d6002830161125c565b60408801610be7565b6113ae6113a56003830161125c565b60608801610be7565b6113c66113bd60048301610fc4565b60808801610c02565b6113dd6113d4838301611283565b60a08801610c1d565b6113f46113eb8383016112b3565b60c088016112c0565b61140b6114028383016112ef565b60e08801610b9c565b01611321565b610100840161132e565b565b6114269061133c565b90565b611433905161017c565b90565b61144a61144561144f9261014a565b610d2a565b61017c565b90565b60209181520190565b60007f70623a73616d6520626c6f636b00000000000000000000000000000000000000910152565b611490600d602092611452565b6114998161145b565b0190565b6114b39060208101906000818303910152611483565b90565b156114bd57565b6114c5610103565b62461bcd60e51b8152806114db6004820161149d565b0390fd5b60007f706f736974696f6e426f6f6b3a20696e76616c696420706f736974696f6e0000910152565b611514601e602092611452565b61151d816114df565b0190565b6115379060208101906000818303910152611507565b90565b1561154157565b611549610103565b62461bcd60e51b81528061155f60048201611521565b0390fd5b61156d905161015a565b90565b61158461157f61158992610d27565b610d2a565b61015a565b90565b611596905161014a565b90565b60007f706f736974696f6e426f6f6b3a20696e76616c696420636f6c6c61746572616c910152565b6115cd60208092611452565b6115d681611599565b0190565b6115f090602081019060008183039101526115c1565b90565b156115fa57565b611602610103565b62461bcd60e51b815280611618600482016115da565b0390fd5b60007f706f736974696f6e426f6f6b3a20696e76616c69642073697a65000000000000910152565b611651601a602092611452565b61165a8161161c565b0190565b6116749060208101906000818303910152611644565b90565b1561167e57565b611686610103565b62461bcd60e51b81528061169c6004820161165e565b0390fd5b634e487b7160e01b600052601160045260246000fd5b6116c56116cb9193929361014a565b9261014a565b82039182116116d657565b6116a0565b6116ea6116f09193929361015a565b9261015a565b9182810392600082851281831216928513911215161761170c57565b6116a0565b9061171a610ab7565b91611729600060e08301610c1d565b61175761174d61173b60008401611203565b61174760c08501611210565b90611ac2565b610100830161121d565b61178d61177b60006117676119e9565b01611775610100850161122b565b90610f43565b61178760208401611238565b90610f8f565b61179b61012083019161141d565b90526117d26117b160c061012084015101611429565b6117cb6117c56117c042611436565b61017c565b9161017c565b14156114b6565b6117e86117e36101208301516123a4565b61153a565b6117f460408201611563565b6118076118016000611570565b9161015a565b13611980575b61184561182160006101208401510161158c565b61183e6118386118336060860161158c565b61014a565b9161014a565b1015611677565b61185660006101208301510161158c565b61187361186d6118686060850161158c565b61014a565b9161014a565b1415600014611972576119666020610120836118a361189760a061196f9701611563565b60408484015101610be7565b6118d66118ca6118b86000858501510161158c565b6118c46060850161158c565b906116b6565b60008484015101610c02565b61191761190c6119076118f56118f087878701510161158c565b612c0e565b61190160408601611563565b906116db565b61242b565b848484015101610c02565b61192b611926838301516123a4565b61153a565b61193481612d12565b61014082015261194381612e99565b61195e6119556000848401510161158c565b60008901610c02565b01510161158c565b60208401610c02565b5b565b61197b906129af565b611970565b6119c061199460206101208401510161158c565b6119b96119b36119ae6119a960408701611563565b61242b565b61014a565b9161014a565b10156115f3565b61180d565b7f92bcfabaf0a890def3092675474357e5f93a0f117ca63a3db421d44c5b55fba590565b6119f16119c5565b90565b600090565b60f81b90565b611a08906119f9565b90565b611a14906119ff565b90565b611a23611a289161016a565b611a0b565b9052565b60f01b90565b611a3b90611a2c565b90565b611a4a611a4f91610192565b611a32565b9052565b600181611a66611a6e9360029695611a17565b018092611a3e565b0190565b5190565b60200190565b1b90565b611a9a611a95611a8f83611a72565b92611a76565b61122b565b9060208110611aa8575b5090565b611abb9060001990602003600802611a7c565b1638611aa4565b611af8611afd92611ad16119f4565b50611ae9611add610103565b93849260208401611a53565b602082018103825203826109d5565b611a80565b90565b90565b611b1b6000611b2092611b14610f18565b5001611b00565b6130eb565b90565b6001611b2f910161014a565b90565b634e487b7160e01b600052603260045260246000fd5b90611b528261047d565b811015611b63576020809102010190565b611b32565b929092611b73610cf8565b50611b7d81611b03565b83611b90611b8a8361014a565b9161014a565b11611c07575b50611baa611ba58486906116b6565b610d80565b91845b80611bc0611bba8761014a565b9161014a565b1015611bfe57611bf990611bf4611bd8858390613138565b611bef8791611be8858c906116b6565b9092611b48565b610bb7565b611b23565b611bad565b50935050905090565b9092509138611b96565b90611c3794611c2f92949394611c25610e6d565b5091849192611f0f565b9190916131de565b90565b611c5591611c5091611c4a610ab7565b50611ac2565b613299565b90565b60207f6578697374000000000000000000000000000000000000000000000000000000917f706f736974696f6e426f6f6b3a20706f736974696f6e20646f6573206e6f742060008201520152565b611cb36025604092611452565b611cbc81611c58565b0190565b611cd69060208101906000818303910152611ca6565b90565b15611ce057565b611ce8610103565b62461bcd60e51b815280611cfe60048201611cc0565b0390fd5b611d16611d11611d1b9261014a565b610d2a565b61015a565b90565b611d279061015a565b600160ff1b8114611d385760000390565b6116a0565b90611e3f611e366020610120611d51610ab7565b95611d60600060e08301610c1d565b611d8e611d84611d7260008401611203565b611d7e60c08501611210565b90611ac2565b610100830161121d565b611dc3611db26000611d9e6119e9565b01611dac610100850161122b565b90610f43565b611dbd858401611238565b90610f8f565b611dcf8383019161141d565b9052611de5611de0838301516132c1565b611cd9565b611df16080820161158c565b611e04611dfe6000610d2d565b9161014a565b03611e41575b611e13816129af565b611e2e611e256000848401510161158c565b60008901610c02565b01510161158c565b60208401610c02565b565b611e78611e5d83830151611e576080850161158c565b906132ed565b90600014611e7d57611e6e90611d02565b5b60608901610be7565b611e0a565b611e89611e8e91611d02565b611d1e565b611e6f565b90611e9d90610d00565b600052602052604060002090565b90611eb4610f18565b50611ebd610f18565b50611f0c6000611f06611ece6119e9565b94611f006002611ef685611ef0838b01611eea87600190611ac2565b90611e93565b01610fc4565b9701918490611ac2565b90611e93565b01610fc4565b90565b611f449250611f3f90611f39611f4995611f27610ab7565b506000611f326119e9565b0192611ac2565b90610f43565b610f8f565b61141d565b90565b9190611fb8611fbd91611f5d610ab7565b50611f66610ab7565b50611fb3611f726119e9565b95611fad6000611fa2611f9d611f96838c01611f9087600190611ac2565b90610f43565b8790610f8f565b61141d565b980191600090611ac2565b90610f43565b610f8f565b61141d565b90565b60018060801b031690565b611fdf611fda611fe49261014a565b610d2a565b611fc0565b90565b611ffb611ff661200092611fc0565b610d2a565b61014a565b90565b6120126120189193929361015a565b9261015a565b8083019260008285121581831216928512911215161761203457565b6116a0565b61204861204e9193929361014a565b9261014a565b820180921161205957565b6116a0565b906122626122596020610120612072610ab7565b95612081600160e08301610c1d565b6120af6120a561209360008401611203565b61209f60c08501611210565b90611ac2565b610100830161121d565b6120e46120d360006120bf6119e9565b016120cd610100850161122b565b90610f43565b6120de858401611238565b90610f8f565b6120f08383019161141d565b90526121016000838301510161158c565b61211461210e6000610d2d565b9161014a565b1461232e575b6121296000838301510161158c565b61213c6121366000610d2d565b9161014a565b1180612308575b612264575b61218961217e61217961216761216287878701510161158c565b612c0e565b61217360408601611563565b90612003565b61242b565b848484015101610c02565b6121a461219860a08301611563565b60408484015101610be7565b6121d76121cb6121b96000858501510161158c565b6121c56060850161158c565b90612039565b60008484015101610c02565b6121f26121e660c08301611210565b60a08484015101610c1d565b61220a6121fe42611436565b60c084840151016112c0565b61221e612219838301516123a4565b61153a565b61222781612d12565b61014082015261223681612e99565b6122516122486000848401510161158c565b60008901610c02565b01510161158c565b60208401610c02565b565b6122d26122808383015161227a6080850161158c565b906132ed565b906122b86122ac868601516122976060880161158c565b6122a36080890161158c565b869186936133ef565b60808787015101610c02565b6000146122f2576122c890611d02565b5b60608901610be7565b6122ed6122e46080848401510161158c565b60808901610c02565b612148565b6122fe61230391611d02565b611d1e565b6122c9565b506123156060820161158c565b6123286123226000610d2d565b9161014a565b11612143565b61235961234d6123486123436080850161158c565b611fcb565b611fe7565b60808484015101610c02565b61211a565b9190600061239b6123a192612371610f18565b5061237a610f18565b506123928361238c888460019161348a565b0161158c565b9590839161348a565b0161158c565b90565b6123ac610f3e565b506123b96000820161158c565b6123cc6123c66000610d2d565b9161014a565b14612409576123fa6123f46123ef60206123e86000860161158c565b940161158c565b61014a565b9161014a565b1061240457600190565b600090565b50600090565b61242361241e6124289261015a565b610d2a565b61014a565b90565b612433610f18565b50806124486124426000611570565b9161015a565b12612459576124569061240f565b90565b61247b90612465610103565b918291635467221960e11b8352600483016105bb565b0390fd5b60007f706f736974696f6e20646f6573206e6f74206578697374000000000000000000910152565b6124b46017602092611452565b6124bd8161247f565b0190565b6124d790602081019060008183039101526124a7565b90565b156124e157565b6124e9610103565b62461bcd60e51b8152806124ff600482016124c1565b0390fd5b634e487b7160e01b600052600060045260246000fd5b60001b90565b9061252c60001991612519565b9181191691161790565b61254a61254561254f9261014a565b610d2a565b61014a565b90565b90565b9061256a61256561257192612536565b612552565b825461251f565b9055565b61258961258461258e9261015a565b610d2a565b61015a565b90565b90565b906125a96125a46125b092612575565b612591565b825461251f565b9055565b906125c060ff91612519565b9181191691161790565b6125d39061016a565b90565b90565b906125ee6125e96125f5926125ca565b6125d6565b82546125b4565b9055565b60081b90565b9061260f64ffffffff00916125f9565b9181191691161790565b61262d6126286126329261017c565b610d2a565b61017c565b90565b90565b9061264d61264861265492612619565b612635565b82546125ff565b9055565b60281b90565b9061266e61ffff60281b91612658565b9181191691161790565b61268c61268761269192610192565b610d2a565b610192565b90565b90565b906126ac6126a76126b392612678565b612694565b825461265e565b9055565b6126c190516101a6565b90565b60381b90565b906126df600160381b600160801b03916126c4565b9181191691161790565b6126fd6126f8612702926101a6565b610d2a565b6101a6565b90565b90565b9061271d612718612724926126e9565b612705565b82546126ca565b9055565b9061280261010060056128089461274e600082016127486000880161158c565b90612555565b612767600182016127616020880161158c565b90612555565b6127806002820161277a60408801611563565b90612594565b6127996003820161279360608801611563565b90612594565b6127b2600482016127ac6080880161158c565b90612555565b6127ca8282016127c460a08801611210565b906125d9565b6127e28282016127dc60c08801611429565b90612638565b6127fa8282016127f460e08801611203565b90612697565b0192016126b7565b90612708565b565b9061281491612728565b565b9190600861283291029161282c60001984611a7c565b92611a7c565b9181191691161790565b919061285261284d61285a93612536565b612552565b908354612816565b9055565b6128709161286a610f18565b9161283c565b565b919061288861288361289093612575565b612591565b908354612816565b9055565b6128a6916128a0610e6d565b91612872565b565b60056000916128b98380830161285e565b6128c6836001830161285e565b6128d38360028301612894565b6128e08360038301612894565b6128ed836004830161285e565b0155565b9060000361290457612902906128a8565b565b612503565b61291290610192565b9052565b60409061294161294894969593966129376101608401986000850190612909565b60208301906107a2565b01906101be565b565b91602061296c92949361296560408201966000830190612909565b01906107a2565b565b6129a66129ad9461299c6101609498979561299261028086019a6000870190612909565b60208501906107a2565b60408301906101be565b01906101be565b565b6129ed6129e86129d660006129c26119e9565b016129d0610100860161122b565b90610f43565b6129e260208501611238565b90610f8f565b61141d565b612a33612a2e612a1c612a176001612a036119e9565b01612a11610100880161122b565b90610d0c565b610d24565b612a2860208601611238565b9061350a565b6124da565b612a62610140830151612a5d6002612a496119e9565b01612a57610100870161122b565b90611e93565b61280a565b612aa16000612a9c612a8a82612a766119e9565b01612a84610100880161122b565b90610f43565b612a9660208701611238565b90610f8f565b6128f1565b612adf612acd612ac86001612ab46119e9565b01612ac2610100870161122b565b90610d0c565b610d24565b612ad960208501611238565b90613545565b50612aec60208301611238565b612af860008401611203565b91612b0560c08501611210565b9092612b46612b347f5cb07172b706ed68ac7cc56d9ff6d43cb9eb09ebd57da6f3fc7acaad93b57c3794610f83565b94612b3d610103565b93849384612916565b0390a2612b5560208201611238565b612b6160008301611203565b90612b6e60c08401611210565b612b987f50e30fbf63d66a65bf343192bf7d60a3bf0cfc38a5b3ce44bff008dc815a8d3192610f83565b92612bad612ba4610103565b9283928361294a565b0390a2612bbc60008201611203565b612bc860c08301611210565b90612c09610140808501519401517f820c306f14dfba38a11ea769e86e1e02d4cbed2a6a733a93fb95c62242b3e24d94612c00610103565b9485948561296e565b0390a1565b612c16610e6d565b5080612c38612c32612c2d60018060ff1b0361240f565b61014a565b9161014a565b11612c4957612c4690611d02565b90565b612c6b90612c55610103565b91829163123baf0360e11b835260048301610891565b0390fd5b90565b612c86612c81612c8b92612c6f565b610d2a565b61014a565b90565b60007f70623a696e76616c696420676c6f62616c20706f736974696f6e000000000000910152565b612cc3601a602092611452565b612ccc81612c8e565b0190565b612ce69060208101906000818303910152612cb6565b90565b15612cf057565b612cf8610103565b62461bcd60e51b815280612d0e60048201612cd0565b0390fd5b612d1a610ab7565b50612d44612d3f6002612d2b6119e9565b01612d39610100850161122b565b90611e93565b61141d565b90612d5160e08201611210565b612db657612d97612d92604083612d8c612d706060612db3970161158c565b612d866000890191612d818361158c565b6116b6565b90610c02565b01611563565b61242b565b612dad6020840191612da88361158c565b6116b6565b90610c02565b90565b612e7860c0612e8192612e0a612de486612dd26060850161158c565b612dde6080860161158c565b91613580565b612e0181612dfb612df56064612c72565b9161014a565b11612ce9565b60808701610c02565b612e35612e196060830161158c565b612e2f6000880191612e2a8361158c565b612039565b90610c02565b612e72612e69612e64612e52612e4d60208a0161158c565b612c0e565b612e5e60408601611563565b90612003565b61242b565b60208701610c02565b01611210565b60a08301610c1d565b612e96612e8d42611436565b60c083016112c0565b90565b612ed7612ed2612ec06000612eac6119e9565b01612eba610100860161122b565b90610f43565b612ecc60208501611238565b90610f8f565b61141d565b612f00612efb6002612ee76119e9565b01612ef5610100860161122b565b90611e93565b61141d565b50612f45610120830151612f40612f2e6000612f1a6119e9565b01612f28610100880161122b565b90610f43565b612f3a60208701611238565b90610f8f565b61280a565b612f74610140830151612f6f6002612f5b6119e9565b01612f69610100870161122b565b90611e93565b61280a565b612fb2612fa0612f9b6001612f876119e9565b01612f95610100870161122b565b90610d0c565b610d24565b612fac60208501611238565b9061363d565b50612fbf60208301611238565b612fcb60008401611203565b91612fd860c08501611210565b909261301f61012086015161300d7f3f663a06383ad0bc9cbe3599153a1bee79dec0ca9fc45d5ce8be06547418fc3995610f83565b95613016610103565b9485948561296e565b0390a261302e60208201611238565b61303a60008301611203565b9061304760c08401611210565b6130717fd32e0f6e0e5fa2152d0dff1f562bd0b5e41af8afb6591d9840711c6d3367a3a792610f83565b9261308661307d610103565b9283928361294a565b0390a261309560008201611203565b6130a160c08301611210565b906130e2610140808501519401517f820c306f14dfba38a11ea769e86e1e02d4cbed2a6a733a93fb95c62242b3e24d946130d9610103565b9485948561296e565b0390a1565b5490565b6000613100916130f9610f18565b50016130e7565b90565b600090565b61311461311991610fa7565b612536565b90565b61313061312b6131359261014a565b610d2a565b6102af565b90565b61316461315f61316e9361315a600061316995613153613103565b5001611b00565b6136d9565b613108565b61311c565b610f77565b90565b6131806131869193929361014a565b9261014a565b9161319283820261014a565b9281840414901517156131a157565b6116a0565b634e487b7160e01b600052601260045260246000fd5b6131c86131ce9161014a565b9161014a565b9081156131d9570490565b6131a6565b90916131e8610e6d565b506131f56000830161158c565b6132086132026000610d2d565b9161014a565b146132895761321790826132ed565b919091928061322f6132296000610d2d565b9161014a565b03613261575b505060001461324b5761324790611d02565b5b90565b61325761325c91611d02565b611d1e565b613248565b6000613274613281949561327b93613171565b920161158c565b906131bc565b903880613235565b5050506132966000611570565b90565b6132b96132be916132a8610ab7565b5060026132b36119e9565b01611e93565b61141d565b90565b60006132d6916132cf610f3e565b500161158c565b6132e96132e36000610d2d565b9161014a565b1190565b9190916132f8610f3e565b50613301610f18565b5061330e6080820161158c565b61332061331a8561014a565b9161014a565b116000146133ce5761336861335661334461333d6080850161158c565b86906116b6565b5b6133516000850161158c565b613171565b6133626080840161158c565b906131bc565b92613371610f3e565b5061337e60a08301611210565b6000146133a95761339d61339860806133a393940161158c565b61014a565b9161014a565b115b9190565b906133c26133bc60806133c8930161158c565b9261014a565b9161014a565b116133a5565b6133686133566133ea856133e46080860161158c565b906116b6565b613345565b90926134519461342c60a061341c61344c969761340a610f18565b506134176000880161158c565b612039565b94613425610f18565b5001611210565b60001461346357600014613454576134449082612039565b5b925b613171565b6131bc565b90565b61345e90826116b6565b613445565b60001461347b5761347490826116b6565b5b92613447565b6134859082612039565b613475565b906134b96134be926134b36134c3956134a1610ab7565b5060006134ac6119e9565b0192611ac2565b90610f43565b610f8f565b61141d565b90565b6134cf90610f5b565b90565b6134e66134e16134eb926102af565b610d2a565b61014a565b90565b6135026134fd6135079261014a565b612519565b610cfd565b90565b9061353d61353761353261352d600061354296613525610f3e565b5001946134c6565b6134d2565b6134ee565b91611b00565b613713565b90565b9061357861357261356d613568600061357d96613560610f3e565b5001946134c6565b6134d2565b6134ee565b91611b00565b61382a565b90565b90613589610f18565b506135966000830161158c565b6135a96135a36000610d2d565b9161014a565b1461363857906080916135e9936135c26000840161158c565b6135d56135cf6000610d2d565b9161014a565b118061361d575b6135ec575b50500161158c565b90565b6136169161360e916135ff8582906132ed565b919091908693909192936133ef565b838301610c02565b38806135e1565b508161363261362c6000610d2d565b9161014a565b116135dc565b505090565b9061367061366a613665613660600061367596613658610f3e565b5001946134c6565b6134d2565b6134ee565b91611b00565b613964565b90565b600052602060002090565b61368c816130e7565b8210156136a75761369e600191613678565b91020190600090565b611b32565b1c90565b90565b6136c39060086136c893026136ac565b6136b0565b90565b906136d691546136b3565b90565b6136f89160006136f2926136eb6119f4565b5001613683565b906136cb565b90565b9061370590610d00565b600052602052604060002090565b61373191600161372c92613725610f3e565b50016136fb565b610fc4565b61374461373e6000610d2d565b9161014a565b141590565b90565b61376061375b61376592613749565b610d2a565b61014a565b90565b61377190610fa7565b90565b919061378a61378561379293610d00565b613768565b908354612816565b9055565b90565b634e487b7160e01b600052603160045260246000fd5b5490565b600052602060002090565b6137c7816137af565b8210156137e2576137d96001916137b3565b91020190600090565b611b32565b6137f9916137f36119f4565b91613774565b565b613804816137af565b801561382557600190039061382261381c83836137be565b906137e7565b55565b613799565b613832610f3e565b506138496138446001830184906136fb565b610fc4565b908161385e6138586000610d2d565b9161014a565b141560001461392c576138de9260016138d992846138876000966138818561374c565b906116b6565b6138a46138958885016130e7565b61389e8661374c565b906116b6565b816138b76138b18361014a565b9161014a565b036138e3575b5050506138d36138ce868301613796565b6137fb565b016136fb565b61285e565b600190565b613924926139166139026138fc61391f948c8901613683565b906136cb565b9361391085918c8901613683565b90613774565b918585016136fb565b612555565b3880806138bd565b505050600090565b90815491600160401b83101561395f578261395791600161395d950181556137be565b90613774565b565b6109bf565b61396c610f3e565b5061398161397b828490613713565b1561016a565b6000146139c4576139ba6139bf926139a561399e60008501613796565b8290613934565b60016139b3600085016130e7565b93016136fb565b612555565b600190565b505060009056fea2646970667358221220c6997bcc577e3a8fde97cb0fe05478503fbd7719ef88c60fa036996f3c62e9c164736f6c63430008180033",
  "devdoc": {
    "errors": {
      "SafeCastOverflowedIntToUint(int256)": [
        {
          "details": "An int value doesn't fit in an uint of `bits` size."
        }
      ],
      "SafeCastOverflowedUintToInt(uint256)": [
        {
          "details": "An uint value doesn't fit in an int of `bits` size."
        }
      ]
    },
    "kind": "dev",
    "methods": {},
    "version": 1
  },
  "userdoc": {
    "kind": "user",
    "methods": {},
    "version": 1
  },
  "storageLayout": {
    "storage": [],
    "types": null
  }
}