{
  "address": "0xD2205de8964FF72bb25a6F251E76b8c969c2242D",
  "abi": [
    {
      "inputs": [
        {
          "internalType": "address",
          "name": "authority",
          "type": "address"
        }
      ],
      "name": "AccessManagedInvalidAuthority",
      "type": "error"
    },
    {
      "inputs": [
        {
          "internalType": "address",
          "name": "caller",
          "type": "address"
        },
        {
          "internalType": "uint32",
          "name": "delay",
          "type": "uint32"
        }
      ],
      "name": "AccessManagedRequiredDelay",
      "type": "error"
    },
    {
      "inputs": [
        {
          "internalType": "address",
          "name": "caller",
          "type": "address"
        }
      ],
      "name": "AccessManagedUnauthorized",
      "type": "error"
    },
    {
      "inputs": [],
      "name": "InvalidInitialization",
      "type": "error"
    },
    {
      "inputs": [],
      "name": "NotInitializing",
      "type": "error"
    },
    {
      "inputs": [],
      "name": "ReentrancyGuardReentrantCall",
      "type": "error"
    },
    {
      "anonymous": false,
      "inputs": [
        {
          "indexed": false,
          "internalType": "address",
          "name": "account",
          "type": "address"
        },
        {
          "indexed": false,
          "internalType": "uint256",
          "name": "sizeDelta",
          "type": "uint256"
        },
        {
          "indexed": false,
          "internalType": "uint256",
          "name": "marginFeeBP",
          "type": "uint256"
        },
        {
          "indexed": false,
          "internalType": "bytes32",
          "name": "referralCode",
          "type": "bytes32"
        },
        {
          "indexed": false,
          "internalType": "address",
          "name": "referrer",
          "type": "address"
        }
      ],
      "name": "DecreasePositionReferral",
      "type": "event"
    },
    {
      "anonymous": false,
      "inputs": [
        {
          "indexed": false,
          "internalType": "bytes32",
          "name": "code",
          "type": "bytes32"
        },
        {
          "indexed": false,
          "internalType": "address",
          "name": "newAccount",
          "type": "address"
        }
      ],
      "name": "GovSetCodeOwner",
      "type": "event"
    },
    {
      "anonymous": false,
      "inputs": [
        {
          "indexed": false,
          "internalType": "address",
          "name": "account",
          "type": "address"
        },
        {
          "indexed": false,
          "internalType": "uint256",
          "name": "sizeDelta",
          "type": "uint256"
        },
        {
          "indexed": false,
          "internalType": "uint256",
          "name": "marginFeeBP",
          "type": "uint256"
        },
        {
          "indexed": false,
          "internalType": "bytes32",
          "name": "referralCode",
          "type": "bytes32"
        },
        {
          "indexed": false,
          "internalType": "address",
          "name": "referrer",
          "type": "address"
        }
      ],
      "name": "IncreasePositionReferral",
      "type": "event"
    },
    {
      "anonymous": false,
      "inputs": [
        {
          "indexed": false,
          "internalType": "uint64",
          "name": "version",
          "type": "uint64"
        }
      ],
      "name": "Initialized",
      "type": "event"
    },
    {
      "anonymous": false,
      "inputs": [
        {
          "indexed": false,
          "internalType": "address",
          "name": "account",
          "type": "address"
        },
        {
          "indexed": false,
          "internalType": "bytes32",
          "name": "code",
          "type": "bytes32"
        }
      ],
      "name": "RegisterCode",
      "type": "event"
    },
    {
      "anonymous": false,
      "inputs": [
        {
          "indexed": false,
          "internalType": "address",
          "name": "account",
          "type": "address"
        },
        {
          "indexed": false,
          "internalType": "address",
          "name": "newAccount",
          "type": "address"
        },
        {
          "indexed": false,
          "internalType": "bytes32",
          "name": "code",
          "type": "bytes32"
        }
      ],
      "name": "SetCodeOwner",
      "type": "event"
    },
    {
      "anonymous": false,
      "inputs": [
        {
          "indexed": false,
          "internalType": "uint256",
          "name": "tierId",
          "type": "uint256"
        },
        {
          "indexed": false,
          "internalType": "uint256",
          "name": "totalRebate",
          "type": "uint256"
        },
        {
          "indexed": false,
          "internalType": "uint256",
          "name": "discountShare",
          "type": "uint256"
        }
      ],
      "name": "SetTier",
      "type": "event"
    },
    {
      "anonymous": false,
      "inputs": [
        {
          "indexed": false,
          "internalType": "address",
          "name": "account",
          "type": "address"
        },
        {
          "indexed": false,
          "internalType": "bytes32",
          "name": "code",
          "type": "bytes32"
        }
      ],
      "name": "SetTraderReferralCode",
      "type": "event"
    },
    {
      "anonymous": false,
      "inputs": [
        {
          "indexed": false,
          "internalType": "address",
          "name": "account",
          "type": "address"
        },
        {
          "indexed": false,
          "internalType": "address",
          "name": "inviter",
          "type": "address"
        },
        {
          "indexed": false,
          "internalType": "bytes32",
          "name": "code",
          "type": "bytes32"
        }
      ],
      "name": "SetTraderReferralCode",
      "type": "event"
    },
    {
      "inputs": [
        {
          "internalType": "bytes32",
          "name": "_code",
          "type": "bytes32"
        }
      ],
      "name": "getCodeOwners",
      "outputs": [
        {
          "internalType": "address",
          "name": "",
          "type": "address"
        }
      ],
      "stateMutability": "view",
      "type": "function"
    },
    {
      "inputs": [
        {
          "internalType": "bytes32",
          "name": "_code",
          "type": "bytes32"
        },
        {
          "internalType": "address",
          "name": "_newAccount",
          "type": "address"
        }
      ],
      "name": "govSetCodeOwner",
      "outputs": [],
      "stateMutability": "nonpayable",
      "type": "function"
    },
    {
      "inputs": [
        {
          "internalType": "bytes32",
          "name": "_code",
          "type": "bytes32"
        }
      ],
      "name": "registerCode",
      "outputs": [],
      "stateMutability": "nonpayable",
      "type": "function"
    },
    {
      "inputs": [
        {
          "internalType": "bytes32",
          "name": "_code",
          "type": "bytes32"
        },
        {
          "internalType": "address",
          "name": "_newAccount",
          "type": "address"
        }
      ],
      "name": "setCodeOwner",
      "outputs": [],
      "stateMutability": "nonpayable",
      "type": "function"
    },
    {
      "inputs": [
        {
          "internalType": "address",
          "name": "_account",
          "type": "address"
        },
        {
          "internalType": "uint256",
          "name": "_discountShare",
          "type": "uint256"
        }
      ],
      "name": "setReferrerDiscountShare",
      "outputs": [],
      "stateMutability": "nonpayable",
      "type": "function"
    },
    {
      "inputs": [
        {
          "internalType": "address",
          "name": "_referrer",
          "type": "address"
        },
        {
          "internalType": "uint256",
          "name": "_tierId",
          "type": "uint256"
        }
      ],
      "name": "setReferrerTier",
      "outputs": [],
      "stateMutability": "nonpayable",
      "type": "function"
    },
    {
      "inputs": [
        {
          "internalType": "uint256",
          "name": "_tierId",
          "type": "uint256"
        },
        {
          "internalType": "uint256",
          "name": "_totalRebate",
          "type": "uint256"
        },
        {
          "internalType": "uint256",
          "name": "_discountShare",
          "type": "uint256"
        }
      ],
      "name": "setTier",
      "outputs": [],
      "stateMutability": "nonpayable",
      "type": "function"
    },
    {
      "inputs": [
        {
          "internalType": "address",
          "name": "_account",
          "type": "address"
        },
        {
          "internalType": "bytes32",
          "name": "_code",
          "type": "bytes32"
        }
      ],
      "name": "setTraderReferralCode",
      "outputs": [],
      "stateMutability": "nonpayable",
      "type": "function"
    },
    {
      "inputs": [
        {
          "internalType": "bytes32",
          "name": "_code",
          "type": "bytes32"
        }
      ],
      "name": "setTraderReferralCodeByUser",
      "outputs": [],
      "stateMutability": "nonpayable",
      "type": "function"
    },
    {
      "inputs": [
        {
          "components": [
            {
              "components": [
                {
                  "internalType": "uint256",
                  "name": "oraclePrice",
                  "type": "uint256"
                },
                {
                  "internalType": "uint256",
                  "name": "pay",
                  "type": "uint256"
                },
                {
                  "internalType": "uint256",
                  "name": "slippage",
                  "type": "uint256"
                },
                {
                  "internalType": "uint16",
                  "name": "market",
                  "type": "uint16"
                },
                {
                  "internalType": "bool",
                  "name": "isLong",
                  "type": "bool"
                },
                {
                  "internalType": "bool",
                  "name": "isOpen",
                  "type": "bool"
                },
                {
                  "internalType": "bool",
                  "name": "isCreate",
                  "type": "bool"
                },
                {
                  "internalType": "bool",
                  "name": "isFromMarket",
                  "type": "bool"
                },
                {
                  "internalType": "uint256",
                  "name": "sizeDelta",
                  "type": "uint256"
                },
                {
                  "internalType": "uint256",
                  "name": "price",
                  "type": "uint256"
                },
                {
                  "internalType": "uint256",
                  "name": "collateralDelta",
                  "type": "uint256"
                },
                {
                  "internalType": "uint256",
                  "name": "collateral",
                  "type": "uint256"
                },
                {
                  "internalType": "uint256",
                  "name": "tp",
                  "type": "uint256"
                },
                {
                  "internalType": "uint256",
                  "name": "sl",
                  "type": "uint256"
                },
                {
                  "internalType": "uint64",
                  "name": "orderId",
                  "type": "uint64"
                },
                {
                  "internalType": "address",
                  "name": "account",
                  "type": "address"
                },
                {
                  "internalType": "bool",
                  "name": "isExec",
                  "type": "bool"
                },
                {
                  "internalType": "uint8",
                  "name": "liqState",
                  "type": "uint8"
                },
                {
                  "internalType": "uint64",
                  "name": "fromOrder",
                  "type": "uint64"
                },
                {
                  "internalType": "bytes32",
                  "name": "refCode",
                  "type": "bytes32"
                },
                {
                  "internalType": "uint8",
                  "name": "execNum",
                  "type": "uint8"
                },
                {
                  "internalType": "bool",
                  "name": "isKeepLev",
                  "type": "bool"
                },
                {
                  "internalType": "bool",
                  "name": "isKeepLevTP",
                  "type": "bool"
                },
                {
                  "internalType": "bool",
                  "name": "isKeepLevSL",
                  "type": "bool"
                },
                {
                  "internalType": "bool",
                  "name": "triggerAbove",
                  "type": "bool"
                },
                {
                  "internalType": "uint128",
                  "name": "gas",
                  "type": "uint128"
                }
              ],
              "internalType": "struct MarketDataTypes.Cache",
              "name": "inputs",
              "type": "tuple"
            },
            {
              "components": [
                {
                  "internalType": "uint256",
                  "name": "size",
                  "type": "uint256"
                },
                {
                  "internalType": "uint256",
                  "name": "collateral",
                  "type": "uint256"
                },
                {
                  "internalType": "int256",
                  "name": "entryFundingRate",
                  "type": "int256"
                },
                {
                  "internalType": "int256",
                  "name": "realisedPnl",
                  "type": "int256"
                },
                {
                  "internalType": "uint256",
                  "name": "averagePrice",
                  "type": "uint256"
                },
                {
                  "internalType": "bool",
                  "name": "isLong",
                  "type": "bool"
                },
                {
                  "internalType": "uint32",
                  "name": "lastTime",
                  "type": "uint32"
                },
                {
                  "internalType": "uint16",
                  "name": "market",
                  "type": "uint16"
                },
                {
                  "internalType": "uint72",
                  "name": "extra0",
                  "type": "uint72"
                }
              ],
              "internalType": "struct Position.Props",
              "name": "position",
              "type": "tuple"
            },
            {
              "internalType": "int256[]",
              "name": "fees",
              "type": "int256[]"
            },
            {
              "internalType": "address",
              "name": "collateralToken",
              "type": "address"
            },
            {
              "internalType": "address",
              "name": "indexToken",
              "type": "address"
            },
            {
              "internalType": "int256",
              "name": "collateralDeltaAfter",
              "type": "int256"
            }
          ],
          "internalType": "struct ReferralType.UpdatePositionEvent",
          "name": "_event",
          "type": "tuple"
        }
      ],
      "name": "updatePositionCallback",
      "outputs": [],
      "stateMutability": "nonpayable",
      "type": "function"
    }
  ],
  "transactionHash": "0xa1d5d1f1555ed3387c951df056a8da6aac99e22e8580f54b7eb1589bb4f8ad2a",
  "args": [],
  "numDeployments": 1,
  "solcInputHash": "3730bc42df8a62d72c2e90f982bc91fa",
  "bytecode": "0x608060405234801561001057600080fd5b506113ee806100206000396000f3fe608060405234801561001057600080fd5b506004361061008e5760003560e01c806336def2c8146100935780633d34960f146100af5780633fb8b323146100df57806356b4b2ad146100fb578063766238db14610117578063836a018714610133578063dfcfa2501461014f578063e1e01bf31461016b578063ebf1ff7714610187578063ed843134146101a3575b600080fd5b6100ad60048036038101906100a89190610c8c565b6101bf565b005b6100c960048036038101906100c49190610c8c565b6101db565b6040516100d69190610cfa565b60405180910390f35b6100f960048036038101906100f49190610d77565b6101e2565b005b61011560048036038101906101109190610db7565b6101e6565b005b610131600480360381019061012c9190610d77565b6101ea565b005b61014d60048036038101906101489190610df7565b6101ee565b005b61016960048036038101906101649190610e4a565b6101fe565b005b61018560048036038101906101809190610c8c565b61020c565b005b6101a1600480360381019061019c9190610eaf565b610229565b005b6101bd60048036038101906101b89190610e4a565b610235565b005b6101c7610253565b6101d0816102aa565b6101d8610431565b50565b6000919050565b5050565b5050565b5050565b6101f983838361044a565b505050565b610208828261059c565b5050565b610214610253565b61021e3382610679565b610226610431565b50565b6102328161077a565b50565b61023d610253565b61024782826109bd565b61024f610431565b5050565b600061025d610b4e565b9050600281600001540361029d576040517f3ee5aeb500000000000000000000000000000000000000000000000000000000815260040160405180910390fd5b6002816000018190555050565b6000801b81036102ef576040517f08c379a00000000000000000000000000000000000000000000000000000000081526004016102e690610f55565b60405180910390fd5b600073ffffffffffffffffffffffffffffffffffffffff1661030f610b76565b600301600083815260200190815260200160002060009054906101000a900473ffffffffffffffffffffffffffffffffffffffff1673ffffffffffffffffffffffffffffffffffffffff161461039a576040517f08c379a000000000000000000000000000000000000000000000000000000000815260040161039190610fc1565b60405180910390fd5b336103a3610b76565b600301600083815260200190815260200160002060006101000a81548173ffffffffffffffffffffffffffffffffffffffff021916908373ffffffffffffffffffffffffffffffffffffffff1602179055507f04f82286a2a3b2ee5c8555de8304dfe2ea70991613213184b73a9e408d2d80293382604051610426929190610ff0565b60405180910390a150565b600061043b610b4e565b90506001816000018190555050565b61271082111561048f576040517f08c379a000000000000000000000000000000000000000000000000000000000815260040161048690611065565b60405180910390fd5b6127108111156104d4576040517f08c379a00000000000000000000000000000000000000000000000000000000081526004016104cb906110d1565b60405180910390fd5b60006104de610b76565b6002016000858152602001908152602001600020604051806040016040529081600082015481526020016001820154815250509050828160000181815250508181602001818152505080610530610b76565b600201600086815260200190815260200160002060008201518160000155602082015181600101559050507f4ebd23a492b2bd79586cb57cae40d7793408265f20320f68b478b971e696f4c784848460405161058e93929190611100565b60405180910390a150505050565b6000801b82036105e1576040517f08c379a00000000000000000000000000000000000000000000000000000000081526004016105d890610f55565b60405180910390fd5b806105ea610b76565b600301600084815260200190815260200160002060006101000a81548173ffffffffffffffffffffffffffffffffffffffff021916908373ffffffffffffffffffffffffffffffffffffffff1602179055507f6431f88c655dd0e2b8d09b6405c007c515c66d67f2998e69c902873a8c8f3e97828260405161066d929190611137565b60405180910390a15050565b80610682610b76565b60040160008473ffffffffffffffffffffffffffffffffffffffff1673ffffffffffffffffffffffffffffffffffffffff168152602001908152602001600020819055507f43825f14567dda057e821be2e51a5aa79aa51f3907a647e3ed2bd486a01050f182826040516106f7929190610ff0565b60405180910390a17f85ead20f9d95a7f2553193e136366cc5a80cadcb6d5526267d8bb5c4239d2b3282610729610b76565b600301600084815260200190815260200160002060009054906101000a900473ffffffffffffffffffffffffffffffffffffffff168360405161076e93929190611160565b60405180910390a15050565b60008061079c836000016101e00160208101906107979190611197565b610ba3565b915091506000801b8203610860576107b2610b76565b6003016000846000016102600135815260200190815260200160002060009054906101000a900473ffffffffffffffffffffffffffffffffffffffff169050600073ffffffffffffffffffffffffffffffffffffffff168173ffffffffffffffffffffffffffffffffffffffff160361082c5750506109ba565b610854836000016101e00160208101906108469190611197565b846000016102600135610679565b82600001610260013591505b8260000160a001602081019061087691906111fc565b1561091b577fc2414023ce7002ee98557d1e7be21e5559073336f2217ee5f9b2e50fd85f71ee836000016101e00160208101906108b39190611197565b846000016101000135858061046001906108cd9190611238565b6000600c8111156108e1576108e061129b565b5b60ff168181106108f4576108f36112ca565b5b90506020020135858560405161090e9594939291906112f9565b60405180910390a16109b7565b7f474c763ff84bf2c2039a6d9fea955ecd0f724030e3c365b91169c6a16fe751b7836000016101e00160208101906109539190611197565b8460000161010001358580610460019061096d9190611238565b6001600c8111156109815761098061129b565b5b60ff16818110610994576109936112ca565b5b9050602002013585856040516109ae9594939291906112f9565b60405180910390a15b50505b50565b8160006109c8610b76565b600301600083815260200190815260200160002060009054906101000a900473ffffffffffffffffffffffffffffffffffffffff1690508073ffffffffffffffffffffffffffffffffffffffff163373ffffffffffffffffffffffffffffffffffffffff1614610a6d576040517f08c379a0000000000000000000000000000000000000000000000000000000008152600401610a6490611398565b60405180910390fd5b6000801b8403610ab2576040517f08c379a0000000000000000000000000000000000000000000000000000000008152600401610aa990610f55565b60405180910390fd5b82610abb610b76565b600301600086815260200190815260200160002060006101000a81548173ffffffffffffffffffffffffffffffffffffffff021916908373ffffffffffffffffffffffffffffffffffffffff1602179055507f5640856798d41ce9ca0a109b54c20a06eb99ba9c36ab4547115dafb8473cf397338486604051610b4093929190611160565b60405180910390a150505050565b60007f9b779b17422d0df92223018b32b4d1fa46e071723d6817e2486d003becc55f00905090565b6000807fcd1d5fd6eb562bc62a0f3e6bd658f3d52d7b5321ea221704899fc60994df9bf790508091505090565b6000806000610bb0610b76565b60040160008573ffffffffffffffffffffffffffffffffffffffff1673ffffffffffffffffffffffffffffffffffffffff16815260200190815260200160002054905060008060001b8214610c3f57610c07610b76565b600301600083815260200190815260200160002060009054906101000a900473ffffffffffffffffffffffffffffffffffffffff1690505b8181935093505050915091565b600080fd5b600080fd5b6000819050919050565b610c6981610c56565b8114610c7457600080fd5b50565b600081359050610c8681610c60565b92915050565b600060208284031215610ca257610ca1610c4c565b5b6000610cb084828501610c77565b91505092915050565b600073ffffffffffffffffffffffffffffffffffffffff82169050919050565b6000610ce482610cb9565b9050919050565b610cf481610cd9565b82525050565b6000602082019050610d0f6000830184610ceb565b92915050565b610d1e81610cd9565b8114610d2957600080fd5b50565b600081359050610d3b81610d15565b92915050565b6000819050919050565b610d5481610d41565b8114610d5f57600080fd5b50565b600081359050610d7181610d4b565b92915050565b60008060408385031215610d8e57610d8d610c4c565b5b6000610d9c85828601610d2c565b9250506020610dad85828601610d62565b9150509250929050565b60008060408385031215610dce57610dcd610c4c565b5b6000610ddc85828601610d2c565b9250506020610ded85828601610c77565b9150509250929050565b600080600060608486031215610e1057610e0f610c4c565b5b6000610e1e86828701610d62565b9350506020610e2f86828701610d62565b9250506040610e4086828701610d62565b9150509250925092565b60008060408385031215610e6157610e60610c4c565b5b6000610e6f85828601610c77565b9250506020610e8085828601610d2c565b9150509250929050565b600080fd5b60006104e08284031215610ea657610ea5610e8a565b5b81905092915050565b600060208284031215610ec557610ec4610c4c565b5b600082013567ffffffffffffffff811115610ee357610ee2610c51565b5b610eef84828501610e8f565b91505092915050565b600082825260208201905092915050565b7f526566657272616c3a20696e76616c6964205f636f6465000000000000000000600082015250565b6000610f3f601783610ef8565b9150610f4a82610f09565b602082019050919050565b60006020820190508181036000830152610f6e81610f32565b9050919050565b7f526566657272616c3a20636f646520616c726561647920657869737473000000600082015250565b6000610fab601d83610ef8565b9150610fb682610f75565b602082019050919050565b60006020820190508181036000830152610fda81610f9e565b9050919050565b610fea81610c56565b82525050565b60006040820190506110056000830185610ceb565b6110126020830184610fe1565b9392505050565b7f526566657272616c3a20696e76616c696420746f74616c526562617465000000600082015250565b600061104f601d83610ef8565b915061105a82611019565b602082019050919050565b6000602082019050818103600083015261107e81611042565b9050919050565b7f526566657272616c3a20696e76616c696420646973636f756e74536861726500600082015250565b60006110bb601f83610ef8565b91506110c682611085565b602082019050919050565b600060208201905081810360008301526110ea816110ae565b9050919050565b6110fa81610d41565b82525050565b600060608201905061111560008301866110f1565b61112260208301856110f1565b61112f60408301846110f1565b949350505050565b600060408201905061114c6000830185610fe1565b6111596020830184610ceb565b9392505050565b60006060820190506111756000830186610ceb565b6111826020830185610ceb565b61118f6040830184610fe1565b949350505050565b6000602082840312156111ad576111ac610c4c565b5b60006111bb84828501610d2c565b91505092915050565b60008115159050919050565b6111d9816111c4565b81146111e457600080fd5b50565b6000813590506111f6816111d0565b92915050565b60006020828403121561121257611211610c4c565b5b6000611220848285016111e7565b91505092915050565b600080fd5b600080fd5b600080fd5b6000808335600160200384360303811261125557611254611229565b5b80840192508235915067ffffffffffffffff8211156112775761127661122e565b5b60208301925060208202360383131561129357611292611233565b5b509250929050565b7f4e487b7100000000000000000000000000000000000000000000000000000000600052602160045260246000fd5b7f4e487b7100000000000000000000000000000000000000000000000000000000600052603260045260246000fd5b600060a08201905061130e6000830188610ceb565b61131b60208301876110f1565b61132860408301866110f1565b6113356060830185610fe1565b6113426080830184610ceb565b9695505050505050565b7f526566657272616c3a20666f7262696464656e00000000000000000000000000600082015250565b6000611382601383610ef8565b915061138d8261134c565b602082019050919050565b600060208201905081810360008301526113b181611375565b905091905056fea2646970667358221220f5b7a6c5a791c4af0b717f5bb251304e6b7997951c170fe6632a752ed3728c5b64736f6c63430008140033",
  "devdoc": {
    "errors": {
      "InvalidInitialization()": [
        {
          "details": "The contract is already initialized."
        }
      ],
      "NotInitializing()": [
        {
          "details": "The contract is not initializing."
        }
      ],
      "ReentrancyGuardReentrantCall()": [
        {
          "details": "Unauthorized reentrant call."
        }
      ]
    },
    "events": {
      "Initialized(uint64)": {
        "details": "Triggered when the contract has been initialized or reinitialized."
      }
    },
    "kind": "dev",
    "methods": {},
    "version": 1
  },
  "userdoc": {
    "kind": "user",
    "methods": {},
    "version": 1
  },
  "storageLayout": {
    "storage": [],
    "types": null
  }
}