{
  "address": "0xa9EaFB3A87EFC093Fb279f0Dcf8E8C65eF3f2d5d",
  "abi": [
    {
      "inputs": [
        {
          "internalType": "address",
          "name": "authority",
          "type": "address"
        }
      ],
      "name": "AccessManagedInvalidAuthority",
      "type": "error"
    },
    {
      "inputs": [
        {
          "internalType": "address",
          "name": "caller",
          "type": "address"
        },
        {
          "internalType": "uint32",
          "name": "delay",
          "type": "uint32"
        }
      ],
      "name": "AccessManagedRequiredDelay",
      "type": "error"
    },
    {
      "inputs": [
        {
          "internalType": "address",
          "name": "caller",
          "type": "address"
        }
      ],
      "name": "AccessManagedUnauthorized",
      "type": "error"
    },
    {
      "inputs": [],
      "name": "InvalidInitialization",
      "type": "error"
    },
    {
      "inputs": [],
      "name": "NotInitializing",
      "type": "error"
    },
    {
      "inputs": [],
      "name": "ReentrancyGuardReentrantCall",
      "type": "error"
    },
    {
      "anonymous": false,
      "inputs": [
        {
          "indexed": false,
          "internalType": "address",
          "name": "account",
          "type": "address"
        },
        {
          "indexed": false,
          "internalType": "uint256",
          "name": "sizeDelta",
          "type": "uint256"
        },
        {
          "indexed": false,
          "internalType": "uint256",
          "name": "marginFeeBP",
          "type": "uint256"
        },
        {
          "indexed": false,
          "internalType": "bytes32",
          "name": "referralCode",
          "type": "bytes32"
        },
        {
          "indexed": false,
          "internalType": "address",
          "name": "referrer",
          "type": "address"
        }
      ],
      "name": "DecreasePositionReferral",
      "type": "event"
    },
    {
      "anonymous": false,
      "inputs": [
        {
          "indexed": false,
          "internalType": "bytes32",
          "name": "code",
          "type": "bytes32"
        },
        {
          "indexed": false,
          "internalType": "address",
          "name": "newAccount",
          "type": "address"
        }
      ],
      "name": "GovSetCodeOwner",
      "type": "event"
    },
    {
      "anonymous": false,
      "inputs": [
        {
          "indexed": false,
          "internalType": "address",
          "name": "account",
          "type": "address"
        },
        {
          "indexed": false,
          "internalType": "uint256",
          "name": "sizeDelta",
          "type": "uint256"
        },
        {
          "indexed": false,
          "internalType": "uint256",
          "name": "marginFeeBP",
          "type": "uint256"
        },
        {
          "indexed": false,
          "internalType": "bytes32",
          "name": "referralCode",
          "type": "bytes32"
        },
        {
          "indexed": false,
          "internalType": "address",
          "name": "referrer",
          "type": "address"
        }
      ],
      "name": "IncreasePositionReferral",
      "type": "event"
    },
    {
      "anonymous": false,
      "inputs": [
        {
          "indexed": false,
          "internalType": "uint64",
          "name": "version",
          "type": "uint64"
        }
      ],
      "name": "Initialized",
      "type": "event"
    },
    {
      "anonymous": false,
      "inputs": [
        {
          "indexed": false,
          "internalType": "address",
          "name": "account",
          "type": "address"
        },
        {
          "indexed": false,
          "internalType": "bytes32",
          "name": "code",
          "type": "bytes32"
        }
      ],
      "name": "RegisterCode",
      "type": "event"
    },
    {
      "anonymous": false,
      "inputs": [
        {
          "indexed": false,
          "internalType": "address",
          "name": "account",
          "type": "address"
        },
        {
          "indexed": false,
          "internalType": "address",
          "name": "newAccount",
          "type": "address"
        },
        {
          "indexed": false,
          "internalType": "bytes32",
          "name": "code",
          "type": "bytes32"
        }
      ],
      "name": "SetCodeOwner",
      "type": "event"
    },
    {
      "anonymous": false,
      "inputs": [
        {
          "indexed": false,
          "internalType": "uint256",
          "name": "tierId",
          "type": "uint256"
        },
        {
          "indexed": false,
          "internalType": "uint256",
          "name": "totalRebate",
          "type": "uint256"
        },
        {
          "indexed": false,
          "internalType": "uint256",
          "name": "discountShare",
          "type": "uint256"
        }
      ],
      "name": "SetTier",
      "type": "event"
    },
    {
      "anonymous": false,
      "inputs": [
        {
          "indexed": false,
          "internalType": "address",
          "name": "account",
          "type": "address"
        },
        {
          "indexed": false,
          "internalType": "bytes32",
          "name": "code",
          "type": "bytes32"
        }
      ],
      "name": "SetTraderReferralCode",
      "type": "event"
    },
    {
      "anonymous": false,
      "inputs": [
        {
          "indexed": false,
          "internalType": "address",
          "name": "account",
          "type": "address"
        },
        {
          "indexed": false,
          "internalType": "address",
          "name": "inviter",
          "type": "address"
        },
        {
          "indexed": false,
          "internalType": "bytes32",
          "name": "code",
          "type": "bytes32"
        }
      ],
      "name": "SetTraderReferralCodeWithInviter",
      "type": "event"
    },
    {
      "inputs": [
        {
          "components": [
            {
              "components": [
                {
                  "internalType": "enum MarketBusinessType",
                  "name": "busiType",
                  "type": "uint8"
                },
                {
                  "internalType": "uint256",
                  "name": "oraclePrice",
                  "type": "uint256"
                },
                {
                  "internalType": "uint256",
                  "name": "pay",
                  "type": "uint256"
                },
                {
                  "internalType": "uint256",
                  "name": "slippage",
                  "type": "uint256"
                },
                {
                  "internalType": "uint16",
                  "name": "market",
                  "type": "uint16"
                },
                {
                  "internalType": "bool",
                  "name": "isLong",
                  "type": "bool"
                },
                {
                  "internalType": "bool",
                  "name": "isOpen",
                  "type": "bool"
                },
                {
                  "internalType": "bool",
                  "name": "isCreate",
                  "type": "bool"
                },
                {
                  "internalType": "bool",
                  "name": "isFromMarket",
                  "type": "bool"
                },
                {
                  "internalType": "uint256",
                  "name": "sizeDelta",
                  "type": "uint256"
                },
                {
                  "internalType": "uint256",
                  "name": "price",
                  "type": "uint256"
                },
                {
                  "internalType": "uint256",
                  "name": "collateralDelta",
                  "type": "uint256"
                },
                {
                  "internalType": "uint256",
                  "name": "collateral",
                  "type": "uint256"
                },
                {
                  "internalType": "uint256",
                  "name": "tp",
                  "type": "uint256"
                },
                {
                  "internalType": "uint256",
                  "name": "sl",
                  "type": "uint256"
                },
                {
                  "internalType": "uint64",
                  "name": "orderId",
                  "type": "uint64"
                },
                {
                  "internalType": "address",
                  "name": "account",
                  "type": "address"
                },
                {
                  "internalType": "bool",
                  "name": "isExec",
                  "type": "bool"
                },
                {
                  "internalType": "enum LiquidationState",
                  "name": "liqState",
                  "type": "uint8"
                },
                {
                  "internalType": "uint64",
                  "name": "fromOrder",
                  "type": "uint64"
                },
                {
                  "internalType": "bytes32",
                  "name": "refCode",
                  "type": "bytes32"
                },
                {
                  "internalType": "uint8",
                  "name": "execNum",
                  "type": "uint8"
                },
                {
                  "internalType": "bool",
                  "name": "isKeepLev",
                  "type": "bool"
                },
                {
                  "internalType": "bool",
                  "name": "isKeepLevTP",
                  "type": "bool"
                },
                {
                  "internalType": "bool",
                  "name": "isKeepLevSL",
                  "type": "bool"
                },
                {
                  "internalType": "bool",
                  "name": "triggerAbove",
                  "type": "bool"
                },
                {
                  "internalType": "uint128",
                  "name": "gas",
                  "type": "uint128"
                }
              ],
              "internalType": "struct MarketCache",
              "name": "inputs",
              "type": "tuple"
            },
            {
              "components": [
                {
                  "internalType": "uint256",
                  "name": "size",
                  "type": "uint256"
                },
                {
                  "internalType": "uint256",
                  "name": "collateral",
                  "type": "uint256"
                },
                {
                  "internalType": "int256",
                  "name": "entryFundingRate",
                  "type": "int256"
                },
                {
                  "internalType": "int256",
                  "name": "realisedPnl",
                  "type": "int256"
                },
                {
                  "internalType": "uint256",
                  "name": "averagePrice",
                  "type": "uint256"
                },
                {
                  "internalType": "bool",
                  "name": "isLong",
                  "type": "bool"
                },
                {
                  "internalType": "uint32",
                  "name": "lastTime",
                  "type": "uint32"
                },
                {
                  "internalType": "uint16",
                  "name": "market",
                  "type": "uint16"
                },
                {
                  "internalType": "uint72",
                  "name": "extra0",
                  "type": "uint72"
                }
              ],
              "internalType": "struct PositionProps",
              "name": "position",
              "type": "tuple"
            },
            {
              "internalType": "int256[]",
              "name": "fees",
              "type": "int256[]"
            },
            {
              "internalType": "address",
              "name": "collateralToken",
              "type": "address"
            },
            {
              "internalType": "address",
              "name": "indexToken",
              "type": "address"
            },
            {
              "internalType": "int256",
              "name": "collateralDeltaAfter",
              "type": "int256"
            }
          ],
          "internalType": "struct ReferralUpdatePositionEvent",
          "name": "_event",
          "type": "tuple"
        }
      ],
      "name": "_updatePositionCallback",
      "outputs": [],
      "stateMutability": "nonpayable",
      "type": "function"
    },
    {
      "inputs": [
        {
          "internalType": "bytes32",
          "name": "_code",
          "type": "bytes32"
        }
      ],
      "name": "getCodeOwners",
      "outputs": [
        {
          "internalType": "address",
          "name": "",
          "type": "address"
        }
      ],
      "stateMutability": "view",
      "type": "function"
    },
    {
      "inputs": [
        {
          "internalType": "bytes32",
          "name": "_code",
          "type": "bytes32"
        },
        {
          "internalType": "address",
          "name": "_newAccount",
          "type": "address"
        }
      ],
      "name": "govSetCodeOwner",
      "outputs": [],
      "stateMutability": "nonpayable",
      "type": "function"
    },
    {
      "inputs": [
        {
          "internalType": "bytes32",
          "name": "_code",
          "type": "bytes32"
        }
      ],
      "name": "registerCode",
      "outputs": [],
      "stateMutability": "nonpayable",
      "type": "function"
    },
    {
      "inputs": [
        {
          "internalType": "bytes32",
          "name": "_code",
          "type": "bytes32"
        },
        {
          "internalType": "address",
          "name": "_newAccount",
          "type": "address"
        }
      ],
      "name": "setCodeOwner",
      "outputs": [],
      "stateMutability": "nonpayable",
      "type": "function"
    },
    {
      "inputs": [
        {
          "internalType": "address",
          "name": "_account",
          "type": "address"
        },
        {
          "internalType": "uint256",
          "name": "_discountShare",
          "type": "uint256"
        }
      ],
      "name": "setReferrerDiscountShare",
      "outputs": [],
      "stateMutability": "nonpayable",
      "type": "function"
    },
    {
      "inputs": [
        {
          "internalType": "address",
          "name": "_referrer",
          "type": "address"
        },
        {
          "internalType": "uint256",
          "name": "_tierId",
          "type": "uint256"
        }
      ],
      "name": "setReferrerTier",
      "outputs": [],
      "stateMutability": "nonpayable",
      "type": "function"
    },
    {
      "inputs": [
        {
          "internalType": "uint256",
          "name": "_tierId",
          "type": "uint256"
        },
        {
          "internalType": "uint256",
          "name": "_totalRebate",
          "type": "uint256"
        },
        {
          "internalType": "uint256",
          "name": "_discountShare",
          "type": "uint256"
        }
      ],
      "name": "setTier",
      "outputs": [],
      "stateMutability": "nonpayable",
      "type": "function"
    },
    {
      "inputs": [
        {
          "internalType": "address",
          "name": "_account",
          "type": "address"
        },
        {
          "internalType": "bytes32",
          "name": "_code",
          "type": "bytes32"
        }
      ],
      "name": "setTraderReferralCodeByGov",
      "outputs": [],
      "stateMutability": "nonpayable",
      "type": "function"
    },
    {
      "inputs": [
        {
          "internalType": "bytes32",
          "name": "_code",
          "type": "bytes32"
        }
      ],
      "name": "setTraderReferralCodeByUser",
      "outputs": [],
      "stateMutability": "nonpayable",
      "type": "function"
    }
  ],
  "transactionHash": "0xcce19ad4ead9a4fb1cc02d08453e4562fbf7b702b1da715f80852d435d742b69",
  "args": [],
  "numDeployments": 5,
  "solcInputHash": "ae8e633405c82115b04e4b26f122c4f8",
  "bytecode": "0x60806040523461001f57610011610024565b6115e461003082396115e490f35b61002a565b60405190565b600080fdfe60806040526004361015610013575b6104ac565b61001e6000356100bd565b806336def2c8146100b85780633d34960f146100b35780633fb8b323146100ae578063766238db146100a9578063836a0187146100a4578063875f7ec31461009f578063dfcfa2501461009a578063e1e01bf314610095578063ed843134146100905763f3c3cff20361000e57610479565b6103f8565b6103c5565b610391565b610336565b6102d4565b61026c565b61023f565b610191565b610124565b60e01c90565b60405190565b600080fd5b600080fd5b600080fd5b90565b6100e4816100d8565b036100eb57565b600080fd5b905035906100fd826100db565b565b9060208282031261011957610116916000016100f0565b90565b6100ce565b60000190565b346101525761013c6101373660046100ff565b6104d7565b6101446100c3565b8061014e8161011e565b0390f35b6100c9565b60018060a01b031690565b61016b90610157565b90565b61017790610162565b9052565b919061018f9060006020850194019061016e565b565b346101c1576101bd6101ac6101a73660046100ff565b6104e7565b6101b46100c3565b9182918261017b565b0390f35b6100c9565b6101cf81610162565b036101d657565b600080fd5b905035906101e8826101c6565b565b90565b6101f6816101ea565b036101fd57565b600080fd5b9050359061020f826101ed565b565b919060408382031261023a578061022e61023792600086016101db565b93602001610202565b90565b6100ce565b346102675761024f366004610211565b50506102596100c3565b806102638161011e565b0390f35b6100c9565b346102945761027c366004610211565b50506102866100c3565b806102908161011e565b0390f35b6100c9565b90916060828403126102cf576102cc6102b58460008501610202565b936102c38160208601610202565b93604001610202565b90565b6100ce565b34610303576102ed6102e7366004610299565b9161050f565b6102f56100c3565b806102ff8161011e565b0390f35b6100c9565b9190604083820312610331578061032561032e92600086016101db565b936020016100f0565b90565b6100ce565b3461035e57610346366004610308565b50506103506100c3565b8061035a8161011e565b0390f35b6100c9565b919060408382031261038c578061038061038992600086016100f0565b936020016101db565b90565b6100ce565b346103c0576103aa6103a4366004610363565b90610534565b6103b26100c3565b806103bc8161011e565b0390f35b6100c9565b346103f3576103dd6103d83660046100ff565b610567565b6103e56100c3565b806103ef8161011e565b0390f35b6100c9565b346104275761041161040b366004610363565b9061059a565b6104196100c3565b806104238161011e565b0390f35b6100c9565b600080fd5b90816105009103126104405790565b61042c565b9060208282031261047457600082013560018060401b03811161046f5761046c9201610431565b90565b6100d3565b6100ce565b346104a75761049161048c366004610445565b6105bc565b6104996100c3565b806104a38161011e565b0390f35b6100c9565b600080fd5b6104c2906104bd61067c565b6104cc565b6104ca610714565b565b6104d59061097d565b565b6104e0906104b1565b565b600090565b506104f06104e2565b90565b906104fe9291610500565b565b9161050d92919091610cd8565b565b9061051a92916104f3565b565b9061052691610528565b565b9061053291610dd9565b565b9061053e9161051c565b565b6105519061054c61067c565b61055b565b610559610714565b565b6105659033610ed0565b565b61057090610540565b565b906105849161057f61067c565b61058e565b61058c610714565b565b90610598916110cf565b565b906105a491610572565b565b6105af906105b1565b565b6105ba90611296565b565b6105c5906105a6565b565b60001c90565b90565b6105dc6105e1916105c7565b6105cd565b90565b6105ee90546105d0565b90565b90565b90565b61060b610606610610926105f1565b6105f4565b6101ea565b90565b61061d60026105f7565b90565b60001b90565b9061063360001991610620565b9181191691161790565b61065161064c610656926101ea565b6105f4565b6101ea565b90565b90565b9061067161066c6106789261063d565b610659565b8254610626565b9055565b6106846114af565b610690600082016105e4565b6106a96106a361069e610613565b6101ea565b916101ea565b146106c5576106c39060006106bc610613565b910161065c565b565b6106cd6100c3565b633ee5aeb560e01b8152806106e46004820161011e565b0390fd5b90565b6106ff6106fa610704926106e8565b6105f4565b6101ea565b90565b61071160016106eb565b90565b61073061071f6114af565b6000610729610707565b910161065c565b565b90565b61074961074461074e92610732565b610620565b6100d8565b90565b60209181520190565b60007f526566657272616c3a20696e76616c6964205f636f6465000000000000000000910152565b61078f6017602092610751565b6107988161075a565b0190565b6107b29060208101906000818303910152610782565b90565b156107bc57565b6107c46100c3565b62461bcd60e51b8152806107da6004820161079c565b0390fd5b6107e7906100d8565b90565b906107f4906107de565b600052602052604060002090565b60018060a01b031690565b61081961081e916105c7565b610802565b90565b61082b905461080d565b90565b61084261083d61084792610732565b6105f4565b610157565b90565b6108539061082e565b90565b60007f526566657272616c3a20636f646520616c726561647920657869737473000000910152565b61088b601d602092610751565b61089481610856565b0190565b6108ae906020810190600081830391015261087e565b90565b156108b857565b6108c06100c3565b62461bcd60e51b8152806108d660048201610898565b0390fd5b906108eb60018060a01b0391610620565b9181191691161790565b61090961090461090e92610157565b6105f4565b610157565b90565b61091a906108f5565b90565b61092690610911565b90565b90565b9061094161093c6109489261091d565b610929565b82546108da565b9055565b610955906100d8565b9052565b91602061097b9294936109746040820196600083019061016e565b019061094c565b565b6109a38161099c6109966109916000610735565b6100d8565b916100d8565b14156107b5565b6109e46109c36109be60036109b66114f7565b0184906107ea565b610821565b6109de6109d86109d3600061084a565b610162565b91610162565b146108b1565b610a02336109fd60036109f56114f7565b0184906107ea565b61092c565b33907f04f82286a2a3b2ee5c8555de8304dfe2ea70991613213184b73a9e408d2d802991610a3a610a316100c3565b92839283610959565b0390a1565b90565b610a56610a51610a5b92610a3f565b6105f4565b6101ea565b90565b610a69612710610a42565b90565b60007f526566657272616c3a20696e76616c696420746f74616c526562617465000000910152565b610aa1601d602092610751565b610aaa81610a6c565b0190565b610ac49060208101906000818303910152610a94565b90565b15610ace57565b610ad66100c3565b62461bcd60e51b815280610aec60048201610aae565b0390fd5b60007f526566657272616c3a20696e76616c696420646973636f756e74536861726500910152565b610b25601f602092610751565b610b2e81610af0565b0190565b610b489060208101906000818303910152610b18565b90565b15610b5257565b610b5a6100c3565b62461bcd60e51b815280610b7060048201610b32565b0390fd5b90610b7e9061063d565b600052602052604060002090565b90610b96906101ea565b9052565b601f801991011690565b634e487b7160e01b600052604160045260246000fd5b90610bc490610b9a565b810190811060018060401b03821117610bdc57604052565b610ba4565b90610bf4610bed6100c3565b9283610bba565b565b610c006040610be1565b90565b90610c3c610c336001610c14610bf6565b94610c2d610c24600083016105e4565b60008801610b8c565b016105e4565b60208401610b8c565b565b610c4790610c03565b90565b610c5490516101ea565b90565b90610c8460206001610c8a94610c7c60008201610c7660008801610c4a565b9061065c565b019201610c4a565b9061065c565b565b90610c9691610c57565b565b610ca1906101ea565b9052565b604090610ccf610cd69496959396610cc560608401986000850190610c98565b6020830190610c98565b0190610c98565b565b919091610cff83610cf8610cf2610ced610a5e565b6101ea565b916101ea565b1115610ac7565b610d2382610d1c610d16610d11610a5e565b6101ea565b916101ea565b1115610b4b565b610d77610d43610d3e6002610d366114f7565b018490610b74565b610c3e565b610d508560008301610b8c565b610d5d8460208301610b8c565b610d726002610d6a6114f7565b018490610b74565b610c8c565b919091610db07f4ebd23a492b2bd79586cb57cae40d7793408265f20320f68b478b971e696f4c793610da76100c3565b93849384610ca5565b0390a1565b916020610dd7929493610dd06040820196600083019061094c565b019061016e565b565b610dff81610df8610df2610ded6000610735565b6100d8565b916100d8565b14156107b5565b610e1d82610e186003610e106114f7565b0184906107ea565b61092c565b907f6431f88c655dd0e2b8d09b6405c007c515c66d67f2998e69c902873a8c8f3e9791610e54610e4b6100c3565b92839283610db5565b0390a1565b90610e639061091d565b600052602052604060002090565b610e7a906105c7565b90565b90610e92610e8d610e99926107de565b610e71565b8254610626565b9055565b604090610ec7610ece9496959396610ebd6060840198600085019061016e565b602083019061016e565b019061094c565b565b610eee82610ee96004610ee16114f7565b018490610e59565b610e7d565b80827f43825f14567dda057e821be2e51a5aa79aa51f3907a647e3ed2bd486a01050f191610f26610f1d6100c3565b92839283610959565b0390a190610f47610f426003610f3a6114f7565b0183906107ea565b610821565b9091610f7f7f0444f28cdf121b6d1d19c359d0811e32896fee8dbaf9cbb697f8ca4f9a149e1f93610f766100c3565b93849384610e9d565b0390a1565b60007f526566657272616c3a20666f7262696464656e00000000000000000000000000910152565b610fb96013602092610751565b610fc281610f84565b0190565b610fdc9060208101906000818303910152610fac565b90565b15610fe657565b610fee6100c3565b62461bcd60e51b81528061100460048201610fc6565b0390fd5b9061104a9161104561102c6110278360036110216114f7565b016107ea565b610821565b61103f6110393392610162565b91610162565b14610fdf565b61104c565b565b6110728161106b6110656110606000610735565b6100d8565b916100d8565b14156107b5565b6110908261108b60036110836114f7565b0184906107ea565b61092c565b339190916110ca7f5640856798d41ce9ca0a109b54c20a06eb99ba9c36ab4547115dafb8473cf397936110c16100c3565b93849384610e9d565b0390a1565b906110d991611008565b565b356110e5816101c6565b90565b356110f2816100db565b90565b151590565b611103816110f5565b0361110a57565b600080fd5b35611119816110fa565b90565b35611126816101ed565b90565b600080fd5b600080fd5b600080fd5b903590600160200381360303821215611178570180359060018060401b0382116111735760200191602082023603831361116e57565b611133565b61112e565b611129565b634e487b7160e01b600052602160045260246000fd5b600d111561119d57565b61117d565b906111ac82611193565b565b6111b7906111a2565b90565b634e487b7160e01b600052603260045260246000fd5b91908110156111e0576020020190565b6111ba565b60ff1690565b6111ff6111fa611204926111e5565b6105f4565b6101ea565b90565b90565b61121381611207565b0361121a57565b600080fd5b356112298161120a565b90565b61124061123b61124592611207565b6105f4565b6101ea565b90565b909594926112949461128361128d9261127960809661126f60a088019c600089019061016e565b6020870190610c98565b6040850190610c98565b606083019061094c565b019061016e565b565b6112ae6112a961020060008401016110db565b61152b565b919091826112cd6112c76112c26000610735565b6100d8565b916100d8565b1461141b575b6112e260c0600084010161110f565b6000146113815761137b6112fc61020060008501016110db565b9161134761134261133d61132561131961012060008a010161111c565b97610480810190611138565b61133761133260006111ae565b6111eb565b916111d0565b61121f565b61122c565b947fc2414023ce7002ee98557d1e7be21e5559073336f2217ee5f9b2e50fd85f71ee956113726100c3565b95869586611248565b0390a15b565b61141361139461020060008501016110db565b916113df6113da6113d56113bd6113b161012060008a010161111c565b97610480810190611138565b6113cf6113ca60016111ae565b6111eb565b916111d0565b61121f565b61122c565b947f474c763ff84bf2c2039a6d9fea955ecd0f724030e3c365b91169c6a16fe751b79561140a6100c3565b95869586611248565b0390a161137f565b50905061144a611445600361142e6114f7565b0161143f61028060008601016110e8565b906107ea565b610821565b908161146761146161145c600061084a565b610162565b91610162565b146114ab5761149561147f61020060008401016110db565b61148f61028060008501016110e8565b90610ed0565b6114a561028060008301016110e8565b916112d3565b5050565b7f9b779b17422d0df92223018b32b4d1fa46e071723d6817e2486d003becc55f0090565b7fcd1d5fd6eb562bc62a0f3e6bd658f3d52d7b5321ea221704899fc60994df9bf790565b6114ff6114d3565b90565b600090565b90565b61151661151b916105c7565b611507565b90565b611528905461150a565b90565b6115546115599161153a611502565b506115436104e2565b50600461154e6114f7565b01610e59565b61151e565b906115626104e2565b918061157f6115796115746000610735565b6100d8565b916100d8565b03611589575b9190565b91506115a86115a3600361159b6114f7565b0184906107ea565b610821565b9161158556fea2646970667358221220e9abdc99831fb4efb4ba6c1e6710a2c6f03c6477bd5dfdeb13449e523e0ec40064736f6c63430008180033",
  "devdoc": {
    "errors": {
      "InvalidInitialization()": [
        {
          "details": "The contract is already initialized."
        }
      ],
      "NotInitializing()": [
        {
          "details": "The contract is not initializing."
        }
      ],
      "ReentrancyGuardReentrantCall()": [
        {
          "details": "Unauthorized reentrant call."
        }
      ]
    },
    "events": {
      "Initialized(uint64)": {
        "details": "Triggered when the contract has been initialized or reinitialized."
      }
    },
    "kind": "dev",
    "methods": {},
    "version": 1
  },
  "userdoc": {
    "kind": "user",
    "methods": {},
    "version": 1
  },
  "storageLayout": {
    "storage": [],
    "types": null
  }
}