{
  "address": "0x0A84fdF2A7Aa8eefac4856A38B5DFA7D49Db84f7",
  "abi": [
    {
      "anonymous": false,
      "inputs": [
        {
          "indexed": false,
          "internalType": "address",
          "name": "authority",
          "type": "address"
        }
      ],
      "name": "AuthorityUpdated",
      "type": "event"
    },
    {
      "inputs": [],
      "name": "authority",
      "outputs": [
        {
          "internalType": "address",
          "name": "",
          "type": "address"
        }
      ],
      "stateMutability": "view",
      "type": "function"
    },
    {
      "inputs": [
        {
          "internalType": "address",
          "name": "newAuthority",
          "type": "address"
        }
      ],
      "name": "setAuthority",
      "outputs": [],
      "stateMutability": "nonpayable",
      "type": "function"
    }
  ],
  "transactionHash": "0xc76cc24eacf4fdea6db47a752132e6662bada8f8942581f28693618327479de1",
  "args": [],
  "numDeployments": 2,
  "solcInputHash": "f55c29bc3a0cf2a25f4960c8a342f62b",
  "bytecode": "0x608060405234801561001057600080fd5b5061048a806100206000396000f3fe608060405234801561001057600080fd5b50600436106100365760003560e01c80637a9e5e4b1461003b578063bf7e214f14610057575b600080fd5b610055600480360381019061005091906102c8565b610075565b005b61005f610202565b60405161006c9190610304565b60405180910390f35b600073ffffffffffffffffffffffffffffffffffffffff16610095610235565b60000160009054906101000a900473ffffffffffffffffffffffffffffffffffffffff1673ffffffffffffffffffffffffffffffffffffffff161461010f576040517f08c379a0000000000000000000000000000000000000000000000000000000008152600401610106906103a2565b60405180910390fd5b600073ffffffffffffffffffffffffffffffffffffffff168173ffffffffffffffffffffffffffffffffffffffff160361017e576040517f08c379a000000000000000000000000000000000000000000000000000000000815260040161017590610434565b60405180910390fd5b80610187610235565b60000160006101000a81548173ffffffffffffffffffffffffffffffffffffffff021916908373ffffffffffffffffffffffffffffffffffffffff1602179055507f2f658b440c35314f52658ea8a740e05b284cdc84dc9ae01e891f21b8933e7cad816040516101f79190610304565b60405180910390a150565b600061020c610235565b60000160009054906101000a900473ffffffffffffffffffffffffffffffffffffffff16905090565b6000807ff3177357ab46d8af007ab3fdb9af81da189e1068fefdc0073dca88a2cab40a0060001b90508091505090565b600080fd5b600073ffffffffffffffffffffffffffffffffffffffff82169050919050565b60006102958261026a565b9050919050565b6102a58161028a565b81146102b057600080fd5b50565b6000813590506102c28161029c565b92915050565b6000602082840312156102de576102dd610265565b5b60006102ec848285016102b3565b91505092915050565b6102fe8161028a565b82525050565b600060208201905061031960008301846102f5565b92915050565b600082825260208201905092915050565b7f4163636573734d616e6167656446616365743a20617574686f7269747920616c60008201527f7265616479207365740000000000000000000000000000000000000000000000602082015250565b600061038c60298361031f565b915061039782610330565b604082019050919050565b600060208201905081810360008301526103bb8161037f565b9050919050565b7f4163636573734d616e6167656446616365743a206e657720617574686f72697460008201527f7920697320746865207a65726f20616464726573730000000000000000000000602082015250565b600061041e60358361031f565b9150610429826103c2565b604082019050919050565b6000602082019050818103600083015261044d81610411565b905091905056fea264697066735822122084364d784790e8b686d8e7505e9a86a9cbdcac46a619c7b1fc5f0c6543c8c04464736f6c63430008140033",
  "devdoc": {
    "kind": "dev",
    "methods": {},
    "version": 1
  },
  "userdoc": {
    "kind": "user",
    "methods": {},
    "version": 1
  },
  "storageLayout": {
    "storage": [],
    "types": null
  }
}