{
  "address": "0xc03C811E0F68b2b4F0f4F510b061840Df7467816",
  "abi": [
    {
      "inputs": [
        {
          "internalType": "address",
          "name": "authority",
          "type": "address"
        }
      ],
      "name": "AccessManagedInvalidAuthority",
      "type": "error"
    },
    {
      "inputs": [
        {
          "internalType": "address",
          "name": "caller",
          "type": "address"
        },
        {
          "internalType": "uint32",
          "name": "delay",
          "type": "uint32"
        }
      ],
      "name": "AccessManagedRequiredDelay",
      "type": "error"
    },
    {
      "inputs": [
        {
          "internalType": "address",
          "name": "caller",
          "type": "address"
        }
      ],
      "name": "AccessManagedUnauthorized",
      "type": "error"
    },
    {
      "inputs": [
        {
          "internalType": "address",
          "name": "target",
          "type": "address"
        }
      ],
      "name": "AddressEmptyCode",
      "type": "error"
    },
    {
      "inputs": [
        {
          "internalType": "address",
          "name": "account",
          "type": "address"
        }
      ],
      "name": "AddressInsufficientBalance",
      "type": "error"
    },
    {
      "inputs": [],
      "name": "FailedInnerCall",
      "type": "error"
    },
    {
      "inputs": [
        {
          "internalType": "address",
          "name": "token",
          "type": "address"
        }
      ],
      "name": "SafeERC20FailedOperation",
      "type": "error"
    },
    {
      "anonymous": false,
      "inputs": [
        {
          "indexed": true,
          "internalType": "uint16",
          "name": "market",
          "type": "uint16"
        },
        {
          "indexed": true,
          "internalType": "uint8",
          "name": "transferType",
          "type": "uint8"
        },
        {
          "indexed": true,
          "internalType": "address",
          "name": "account",
          "type": "address"
        },
        {
          "indexed": false,
          "internalType": "uint256",
          "name": "value",
          "type": "uint256"
        },
        {
          "indexed": false,
          "internalType": "bytes",
          "name": "extra",
          "type": "bytes"
        }
      ],
      "name": "Transfer",
      "type": "event"
    },
    {
      "anonymous": false,
      "inputs": [
        {
          "indexed": true,
          "internalType": "address",
          "name": "account",
          "type": "address"
        },
        {
          "indexed": true,
          "internalType": "uint16",
          "name": "market",
          "type": "uint16"
        },
        {
          "indexed": false,
          "internalType": "int256[]",
          "name": "fees",
          "type": "int256[]"
        },
        {
          "indexed": false,
          "internalType": "uint256",
          "name": "amount",
          "type": "uint256"
        }
      ],
      "name": "UpdateFee",
      "type": "event"
    },
    {
      "inputs": [
        {
          "internalType": "uint16",
          "name": "market",
          "type": "uint16"
        },
        {
          "internalType": "uint256",
          "name": "start",
          "type": "uint256"
        },
        {
          "internalType": "uint256",
          "name": "end",
          "type": "uint256"
        }
      ],
      "name": "addSkipTime",
      "outputs": [],
      "stateMutability": "nonpayable",
      "type": "function"
    },
    {
      "inputs": [
        {
          "internalType": "bytes",
          "name": "_data",
          "type": "bytes"
        }
      ],
      "name": "collectFees",
      "outputs": [],
      "stateMutability": "nonpayable",
      "type": "function"
    },
    {
      "inputs": [
        {
          "internalType": "uint16",
          "name": "market",
          "type": "uint16"
        },
        {
          "internalType": "address",
          "name": "to",
          "type": "address"
        },
        {
          "internalType": "uint256",
          "name": "amount",
          "type": "uint256"
        }
      ],
      "name": "feeVaultWithdraw",
      "outputs": [],
      "stateMutability": "nonpayable",
      "type": "function"
    },
    {
      "inputs": [
        {
          "internalType": "uint16",
          "name": "market",
          "type": "uint16"
        }
      ],
      "name": "initFeeFacet",
      "outputs": [],
      "stateMutability": "nonpayable",
      "type": "function"
    },
    {
      "inputs": [
        {
          "internalType": "uint16",
          "name": "market",
          "type": "uint16"
        },
        {
          "internalType": "bool",
          "name": "isLong",
          "type": "bool"
        },
        {
          "internalType": "int256",
          "name": "calFundingRate",
          "type": "int256"
        }
      ],
      "name": "setCalFundingRates",
      "outputs": [],
      "stateMutability": "nonpayable",
      "type": "function"
    },
    {
      "inputs": [
        {
          "internalType": "uint16",
          "name": "market",
          "type": "uint16"
        },
        {
          "internalType": "uint256",
          "name": "interval",
          "type": "uint256"
        }
      ],
      "name": "setCalIntervals",
      "outputs": [],
      "stateMutability": "nonpayable",
      "type": "function"
    },
    {
      "inputs": [
        {
          "internalType": "uint16",
          "name": "market",
          "type": "uint16"
        },
        {
          "internalType": "uint8",
          "name": "configType",
          "type": "uint8"
        },
        {
          "internalType": "uint256",
          "name": "value",
          "type": "uint256"
        }
      ],
      "name": "setConfigs",
      "outputs": [],
      "stateMutability": "nonpayable",
      "type": "function"
    },
    {
      "inputs": [
        {
          "internalType": "uint16",
          "name": "market",
          "type": "uint16"
        },
        {
          "internalType": "uint8",
          "name": "feeType",
          "type": "uint8"
        },
        {
          "internalType": "uint256",
          "name": "feeAndRate",
          "type": "uint256"
        }
      ],
      "name": "setFeeAndRates",
      "outputs": [],
      "stateMutability": "nonpayable",
      "type": "function"
    },
    {
      "inputs": [
        {
          "internalType": "uint16",
          "name": "market",
          "type": "uint16"
        },
        {
          "internalType": "uint256",
          "name": "loss",
          "type": "uint256"
        }
      ],
      "name": "setFundFeeLoss",
      "outputs": [],
      "stateMutability": "nonpayable",
      "type": "function"
    },
    {
      "inputs": [
        {
          "internalType": "uint16",
          "name": "market",
          "type": "uint16"
        },
        {
          "internalType": "uint256",
          "name": "interval",
          "type": "uint256"
        }
      ],
      "name": "setFundingIntervals",
      "outputs": [],
      "stateMutability": "nonpayable",
      "type": "function"
    },
    {
      "inputs": [
        {
          "internalType": "uint16",
          "name": "market",
          "type": "uint16"
        },
        {
          "internalType": "uint256",
          "name": "lastCalTime",
          "type": "uint256"
        }
      ],
      "name": "setLastCalTimes",
      "outputs": [],
      "stateMutability": "nonpayable",
      "type": "function"
    }
  ],
  "transactionHash": "0x10482c3b9dd1c4fc3dbb4429f0bce27a23dfd8654d44ca750926d9bddad43c63",
  "args": [],
  "numDeployments": 1,
  "solcInputHash": "9031d520f4cfa04a13a1a7f207723cb1",
  "bytecode": "0x608060405234801561001057600080fd5b50611d1f806100206000396000f3fe608060405234801561001057600080fd5b50600436106100995760003560e01c80632dacede91461009e57806348412d62146100ba5780634c131493146100d65780635ae70a2b146100f25780635b9710641461010e57806373ad39b31461012a57806393b3b36314610146578063a9bd63d514610162578063bf0b1f3f1461017e578063bf0d39b81461019a578063f546898f146101b6575b600080fd5b6100b860048036038101906100b39190611156565b6101d2565b005b6100d460048036038101906100cf9190611156565b61020b565b005b6100f060048036038101906100eb91906111fb565b610244565b005b61010c60048036038101906101079190611248565b610287565b005b61012860048036038101906101239190611156565b61029f565b005b610144600480360381019061013f91906112e3565b6102d8565b005b610160600480360381019061015b919061136f565b610327565b005b61017c600480360381019061017791906113c2565b610378565b005b6101986004803603810190610193919061136f565b610389565b005b6101b460048036038101906101af9190611156565b6103da565b005b6101d060048036038101906101cb9190611473565b610413565b005b6101de3360003661047a565b806101e76105cd565b60000160008461ffff1661ffff168152602001908152602001600020819055505050565b6102173360003661047a565b806102206105cd565b60050160008461ffff1661ffff168152602001908152602001600020819055505050565b6102503360003661047a565b600080600080600086868101906102679190611653565b9450945094509450945061027e81868686866105fa565b50505050505050565b6102933360003661047a565b61029c81610766565b50565b6102ab3360003661047a565b806102b46105cd565b60020160008461ffff1661ffff168152602001908152602001600020819055505050565b6102e43360003661047a565b806102ed6105cd565b60040160008561ffff1661ffff16815260200190815260200160002060008415151515815260200190815260200160002081905550505050565b6103333360003661047a565b8061033c6105cd565b60060160008561ffff1661ffff16815260200190815260200160002060008460ff1660ff16815260200190815260200160002081905550505050565b6103843360003661047a565b505050565b6103953360003661047a565b8061039e6105cd565b60010160008561ffff1661ffff16815260200190815260200160002060008460ff1660ff16815260200190815260200160002081905550505050565b6103e63360003661047a565b806103ef6105cd565b60030160008461ffff1661ffff168152602001908152602001600020819055505050565b61041f3360003661047a565b6000610429610909565b60040160008561ffff1661ffff16815260200190815260200160002060009054906101000a900473ffffffffffffffffffffffffffffffffffffffff16905061047481858585610936565b50505050565b6000610484610a1c565b90506000806104ba610494610a4c565b873088886000906004926104aa939291906116f4565b906104b59190611773565b610a7f565b91509150816105c55760008163ffffffff1611156105875760018360000160146101000a81548160ff0219169083151502179055506104f7610a4c565b73ffffffffffffffffffffffffffffffffffffffff166394c7d7ee8787876040518463ffffffff1660e01b81526004016105339392919061182e565b600060405180830381600087803b15801561054d57600080fd5b505af1158015610561573d6000803e3d6000fd5b5050505060008360000160146101000a81548160ff0219169083151502179055506105c4565b856040517f068ca9d80000000000000000000000000000000000000000000000000000000081526004016105bb9190611860565b60405180910390fd5b5b505050505050565b6000807f8044e54adfaacc587fefea0831a427898a157664a4fc313bb47c3132ec6276ed90508091505090565b60008373ffffffffffffffffffffffffffffffffffffffff1663dd62ed3e33306040518363ffffffff1660e01b815260040161063792919061187b565b602060405180830381865afa158015610654573d6000803e3d6000fd5b505050506040513d601f19601f8201168201806040525081019061067891906118b9565b90506000811461068e5761068d868683610ba5565b5b60008211156107095760006106a16105cd565b60050160008861ffff1661ffff168152602001908152602001600020549050826106c96105cd565b60050160008961ffff1661ffff16815260200190815260200160002060008282546106f49190611915565b9250508190555061070787878686610c9b565b505b8561ffff168573ffffffffffffffffffffffffffffffffffffffff167f7a605550c41cf86b0cc56e1245d08b2a276139d5bc5044ce01e9fb71bd1579ad8584604051610756929190611a16565b60405180910390a3505050505050565b60006107706105cd565b9050670de0b6b3a76400008160010160008461ffff1661ffff16815260200190815260200160002060006001600a8111156107ae576107ad611a46565b5b60ff1660ff16815260200190815260200160002081905550670de0b6b3a76400008160010160008461ffff1661ffff16815260200190815260200160002060006002600a81111561080257610801611a46565b5b60ff1660ff168152602001908152602001600020819055506104e28160010160008461ffff1661ffff16815260200190815260200160002060006004600a8111156108505761084f611a46565b5b60ff1660ff16815260200190815260200160002081905550610e108160010160008461ffff1661ffff16815260200190815260200160002060006006600a81111561089e5761089d611a46565b5b60ff1660ff16815260200190815260200160002081905550629896808160010160008461ffff1661ffff16815260200190815260200160002060006009600a8111156108ed576108ec611a46565b5b60ff1660ff168152602001908152602001600020819055505050565b6000807f2eec39e2b6bcfb5f1ee2be0b6e9d5a470a45585b1e2f7f291af9fb9f551763d090508091505090565b8061093f610dd8565b60000160008561ffff1661ffff168152602001908152602001600020600082825461096a9190611a75565b9250508190555061099c82828673ffffffffffffffffffffffffffffffffffffffff16610e059092919063ffffffff16565b8173ffffffffffffffffffffffffffffffffffffffff166006808111156109c6576109c5611a46565b5b60ff168461ffff167fa5a40b103c251a8a92f4f0417a34aa5561df1cb24587a7366483504d6707648b8460405180602001604052806000815250604051610a0e929190611b17565b60405180910390a450505050565b6000807ff3177357ab46d8af007ab3fdb9af81da189e1068fefdc0073dca88a2cab40a0060001b90508091505090565b6000610a56610a1c565b60000160009054906101000a900473ffffffffffffffffffffffffffffffffffffffff16905090565b6000806000808773ffffffffffffffffffffffffffffffffffffffff16878787604051602401610ab193929190611b56565b60405160208183030381529060405263b700961360e01b6020820180517bffffffffffffffffffffffffffffffffffffffffffffffffffffffff8381831617835250505050604051610b039190611bc9565b600060405180830381855afa9150503d8060008114610b3e576040519150601f19603f3d011682016040523d82523d6000602084013e610b43565b606091505b50915091508115610b9a576040815110610b785780806020019051810190610b6b9190611c31565b8094508195505050610b99565b6020815110610b985780806020019051810190610b959190611c71565b93505b5b5b505094509492505050565b80610bae610dd8565b60010160008561ffff1661ffff1681526020019081526020016000206000828254610bd99190611a75565b9250508190555080610be9610dd8565b60000160008561ffff1661ffff1681526020019081526020016000206000828254610c149190611915565b925050819055508173ffffffffffffffffffffffffffffffffffffffff1660016006811115610c4657610c45611a46565b5b60ff168461ffff167fa5a40b103c251a8a92f4f0417a34aa5561df1cb24587a7366483504d6707648b8460405180602001604052806000815250604051610c8e929190611b17565b60405180910390a4505050565b6000610ca5610dd8565b60000160008661ffff1661ffff16815260200190815260200160002054905080821115610cd0578091505b81610cd9610dd8565b60000160008761ffff1661ffff1681526020019081526020016000206000828254610d049190611a75565b9250508190555081610d14610dd8565b60010160008761ffff1661ffff1681526020019081526020016000206000828254610d3f9190611915565b925050819055508373ffffffffffffffffffffffffffffffffffffffff1660006006811115610d7157610d70611a46565b5b60ff168661ffff167fa5a40b103c251a8a92f4f0417a34aa5561df1cb24587a7366483504d6707648b8587604051602001610dac9190611c9e565b604051602081830303815290604052604051610dc9929190611b17565b60405180910390a45050505050565b6000807f4487c6deafb3b968c18f689f85fbb6df4ca91ac06c46b27d8f8dd3839c79c8c990508091505090565b610e7f838473ffffffffffffffffffffffffffffffffffffffff1663a9059cbb8585604051602401610e38929190611cc0565b604051602081830303815290604052915060e01b6020820180517bffffffffffffffffffffffffffffffffffffffffffffffffffffffff8381831617835250505050610e84565b505050565b6000610eaf828473ffffffffffffffffffffffffffffffffffffffff16610f1b90919063ffffffff16565b90506000815114158015610ed4575080806020019051810190610ed29190611c71565b155b15610f1657826040517f5274afe7000000000000000000000000000000000000000000000000000000008152600401610f0d9190611860565b60405180910390fd5b505050565b6060610f2983836000610f31565b905092915050565b606081471015610f7857306040517fcd786059000000000000000000000000000000000000000000000000000000008152600401610f6f9190611860565b60405180910390fd5b6000808573ffffffffffffffffffffffffffffffffffffffff168486604051610fa19190611bc9565b60006040518083038185875af1925050503d8060008114610fde576040519150601f19603f3d011682016040523d82523d6000602084013e610fe3565b606091505b5091509150610ff3868383610ffe565b925050509392505050565b6060826110135761100e8261108d565b611085565b6000825114801561103b575060008473ffffffffffffffffffffffffffffffffffffffff163b145b1561107d57836040517f9996b3150000000000000000000000000000000000000000000000000000000081526004016110749190611860565b60405180910390fd5b819050611086565b5b9392505050565b6000815111156110a05780518082602001fd5b6040517f1425ea4200000000000000000000000000000000000000000000000000000000815260040160405180910390fd5b6000604051905090565b600080fd5b600080fd5b600061ffff82169050919050565b6110fd816110e6565b811461110857600080fd5b50565b60008135905061111a816110f4565b92915050565b6000819050919050565b61113381611120565b811461113e57600080fd5b50565b6000813590506111508161112a565b92915050565b6000806040838503121561116d5761116c6110dc565b5b600061117b8582860161110b565b925050602061118c85828601611141565b9150509250929050565b600080fd5b600080fd5b600080fd5b60008083601f8401126111bb576111ba611196565b5b8235905067ffffffffffffffff8111156111d8576111d761119b565b5b6020830191508360018202830111156111f4576111f36111a0565b5b9250929050565b60008060208385031215611212576112116110dc565b5b600083013567ffffffffffffffff8111156112305761122f6110e1565b5b61123c858286016111a5565b92509250509250929050565b60006020828403121561125e5761125d6110dc565b5b600061126c8482850161110b565b91505092915050565b60008115159050919050565b61128a81611275565b811461129557600080fd5b50565b6000813590506112a781611281565b92915050565b6000819050919050565b6112c0816112ad565b81146112cb57600080fd5b50565b6000813590506112dd816112b7565b92915050565b6000806000606084860312156112fc576112fb6110dc565b5b600061130a8682870161110b565b935050602061131b86828701611298565b925050604061132c868287016112ce565b9150509250925092565b600060ff82169050919050565b61134c81611336565b811461135757600080fd5b50565b60008135905061136981611343565b92915050565b600080600060608486031215611388576113876110dc565b5b60006113968682870161110b565b93505060206113a78682870161135a565b92505060406113b886828701611141565b9150509250925092565b6000806000606084860312156113db576113da6110dc565b5b60006113e98682870161110b565b93505060206113fa86828701611141565b925050604061140b86828701611141565b9150509250925092565b600073ffffffffffffffffffffffffffffffffffffffff82169050919050565b600061144082611415565b9050919050565b61145081611435565b811461145b57600080fd5b50565b60008135905061146d81611447565b92915050565b60008060006060848603121561148c5761148b6110dc565b5b600061149a8682870161110b565b93505060206114ab8682870161145e565b92505060406114bc86828701611141565b9150509250925092565b60006114d182611415565b9050919050565b6114e1816114c6565b81146114ec57600080fd5b50565b6000813590506114fe816114d8565b92915050565b6000601f19601f8301169050919050565b7f4e487b7100000000000000000000000000000000000000000000000000000000600052604160045260246000fd5b61154d82611504565b810181811067ffffffffffffffff8211171561156c5761156b611515565b5b80604052505050565b600061157f6110d2565b905061158b8282611544565b919050565b600067ffffffffffffffff8211156115ab576115aa611515565b5b602082029050602081019050919050565b60006115cf6115ca84611590565b611575565b905080838252602082019050602084028301858111156115f2576115f16111a0565b5b835b8181101561161b578061160788826112ce565b8452602084019350506020810190506115f4565b5050509392505050565b600082601f83011261163a57611639611196565b5b813561164a8482602086016115bc565b91505092915050565b600080600080600060a0868803121561166f5761166e6110dc565b5b600061167d888289016114ef565b955050602061168e888289016114ef565b945050604086013567ffffffffffffffff8111156116af576116ae6110e1565b5b6116bb88828901611625565b93505060606116cc88828901611141565b92505060806116dd8882890161110b565b9150509295509295909350565b600080fd5b600080fd5b60008085851115611708576117076116ea565b5b83861115611719576117186116ef565b5b6001850283019150848603905094509492505050565b600082905092915050565b60007fffffffff0000000000000000000000000000000000000000000000000000000082169050919050565b600082821b905092915050565b600061177f838361172f565b8261178a813561173a565b925060048210156117ca576117c57fffffffff0000000000000000000000000000000000000000000000000000000083600403600802611766565b831692505b505092915050565b6117db81611435565b82525050565b600082825260208201905092915050565b82818337600083830152505050565b600061180d83856117e1565b935061181a8385846117f2565b61182383611504565b840190509392505050565b600060408201905061184360008301866117d2565b8181036020830152611856818486611801565b9050949350505050565b600060208201905061187560008301846117d2565b92915050565b600060408201905061189060008301856117d2565b61189d60208301846117d2565b9392505050565b6000815190506118b38161112a565b92915050565b6000602082840312156118cf576118ce6110dc565b5b60006118dd848285016118a4565b91505092915050565b7f4e487b7100000000000000000000000000000000000000000000000000000000600052601160045260246000fd5b600061192082611120565b915061192b83611120565b9250828201905080821115611943576119426118e6565b5b92915050565b600081519050919050565b600082825260208201905092915050565b6000819050602082019050919050565b61197e816112ad565b82525050565b60006119908383611975565b60208301905092915050565b6000602082019050919050565b60006119b482611949565b6119be8185611954565b93506119c983611965565b8060005b838110156119fa5781516119e18882611984565b97506119ec8361199c565b9250506001810190506119cd565b5085935050505092915050565b611a1081611120565b82525050565b60006040820190508181036000830152611a3081856119a9565b9050611a3f6020830184611a07565b9392505050565b7f4e487b7100000000000000000000000000000000000000000000000000000000600052602160045260246000fd5b6000611a8082611120565b9150611a8b83611120565b9250828203905081811115611aa357611aa26118e6565b5b92915050565b600081519050919050565b60005b83811015611ad2578082015181840152602081019050611ab7565b60008484015250505050565b6000611ae982611aa9565b611af381856117e1565b9350611b03818560208601611ab4565b611b0c81611504565b840191505092915050565b6000604082019050611b2c6000830185611a07565b8181036020830152611b3e8184611ade565b90509392505050565b611b508161173a565b82525050565b6000606082019050611b6b60008301866117d2565b611b7860208301856117d2565b611b856040830184611b47565b949350505050565b600081905092915050565b6000611ba382611aa9565b611bad8185611b8d565b9350611bbd818560208601611ab4565b80840191505092915050565b6000611bd58284611b98565b915081905092915050565b600081519050611bef81611281565b92915050565b600063ffffffff82169050919050565b611c0e81611bf5565b8114611c1957600080fd5b50565b600081519050611c2b81611c05565b92915050565b60008060408385031215611c4857611c476110dc565b5b6000611c5685828601611be0565b9250506020611c6785828601611c1c565b9150509250929050565b600060208284031215611c8757611c866110dc565b5b6000611c9584828501611be0565b91505092915050565b60006020820190508181036000830152611cb881846119a9565b905092915050565b6000604082019050611cd560008301856117d2565b611ce26020830184611a07565b939250505056fea264697066735822122018a4e995a6f5f4ee610a6161ba67ba6ffe6f8dacbe6e5892a89e5d7e069babf564736f6c63430008140033",
  "devdoc": {
    "errors": {
      "AddressEmptyCode(address)": [
        {
          "details": "There's no code at `target` (it is not a contract)."
        }
      ],
      "AddressInsufficientBalance(address)": [
        {
          "details": "The ETH balance of the account is not enough to perform the operation."
        }
      ],
      "FailedInnerCall()": [
        {
          "details": "A call to an address target failed. The target may have reverted."
        }
      ],
      "SafeERC20FailedOperation(address)": [
        {
          "details": "An operation with an ERC20 token failed."
        }
      ]
    },
    "kind": "dev",
    "methods": {},
    "version": 1
  },
  "userdoc": {
    "kind": "user",
    "methods": {},
    "version": 1
  },
  "storageLayout": {
    "storage": [],
    "types": null
  }
}