{
  "address": "0xF28E47AF55843Af75063f6E7735C4e315bf5Eab6",
  "abi": [
    {
      "inputs": [
        {
          "internalType": "address",
          "name": "market",
          "type": "address"
        },
        {
          "internalType": "address",
          "name": "account",
          "type": "address"
        },
        {
          "internalType": "bool",
          "name": "isLong",
          "type": "bool"
        }
      ],
      "name": "availableLiquidity",
      "outputs": [
        {
          "internalType": "uint256",
          "name": "",
          "type": "uint256"
        }
      ],
      "stateMutability": "view",
      "type": "function"
    },
    {
      "inputs": [
        {
          "internalType": "uint16",
          "name": "market",
          "type": "uint16"
        },
        {
          "internalType": "address",
          "name": "account",
          "type": "address"
        }
      ],
      "name": "contains",
      "outputs": [
        {
          "internalType": "bool",
          "name": "",
          "type": "bool"
        }
      ],
      "stateMutability": "view",
      "type": "function"
    },
    {
      "inputs": [
        {
          "internalType": "uint16",
          "name": "market",
          "type": "uint16"
        }
      ],
      "name": "feeAndRates",
      "outputs": [
        {
          "internalType": "uint256[]",
          "name": "fees",
          "type": "uint256[]"
        },
        {
          "internalType": "int256[]",
          "name": "fundingRates",
          "type": "int256[]"
        },
        {
          "internalType": "int256[]",
          "name": "_cumulativeFundingRates",
          "type": "int256[]"
        }
      ],
      "stateMutability": "view",
      "type": "function"
    },
    {
      "inputs": [
        {
          "internalType": "uint16",
          "name": "market",
          "type": "uint16"
        },
        {
          "internalType": "address",
          "name": "account",
          "type": "address"
        }
      ],
      "name": "getAccountSize",
      "outputs": [
        {
          "internalType": "uint256",
          "name": "",
          "type": "uint256"
        },
        {
          "internalType": "uint256",
          "name": "",
          "type": "uint256"
        }
      ],
      "stateMutability": "view",
      "type": "function"
    },
    {
      "inputs": [
        {
          "internalType": "uint16",
          "name": "market",
          "type": "uint16"
        }
      ],
      "name": "getGlobalOpenInterest",
      "outputs": [
        {
          "internalType": "uint256",
          "name": "_globalSize",
          "type": "uint256"
        }
      ],
      "stateMutability": "view",
      "type": "function"
    },
    {
      "inputs": [
        {
          "internalType": "address",
          "name": "vault",
          "type": "address"
        }
      ],
      "name": "getGlobalPnl",
      "outputs": [
        {
          "internalType": "int256",
          "name": "",
          "type": "int256"
        }
      ],
      "stateMutability": "view",
      "type": "function"
    },
    {
      "inputs": [
        {
          "internalType": "uint16",
          "name": "market",
          "type": "uint16"
        },
        {
          "internalType": "bool",
          "name": "isLong",
          "type": "bool"
        }
      ],
      "name": "getGlobalPosition",
      "outputs": [
        {
          "components": [
            {
              "internalType": "uint256",
              "name": "size",
              "type": "uint256"
            },
            {
              "internalType": "uint256",
              "name": "collateral",
              "type": "uint256"
            },
            {
              "internalType": "int256",
              "name": "entryFundingRate",
              "type": "int256"
            },
            {
              "internalType": "int256",
              "name": "realisedPnl",
              "type": "int256"
            },
            {
              "internalType": "uint256",
              "name": "averagePrice",
              "type": "uint256"
            },
            {
              "internalType": "bool",
              "name": "isLong",
              "type": "bool"
            },
            {
              "internalType": "uint32",
              "name": "lastTime",
              "type": "uint32"
            },
            {
              "internalType": "uint16",
              "name": "market",
              "type": "uint16"
            },
            {
              "internalType": "uint72",
              "name": "extra0",
              "type": "uint72"
            }
          ],
          "internalType": "struct Position.Props",
          "name": "",
          "type": "tuple"
        }
      ],
      "stateMutability": "view",
      "type": "function"
    },
    {
      "inputs": [
        {
          "internalType": "uint16",
          "name": "market",
          "type": "uint16"
        }
      ],
      "name": "getMarket",
      "outputs": [
        {
          "internalType": "bytes",
          "name": "result",
          "type": "bytes"
        }
      ],
      "stateMutability": "view",
      "type": "function"
    },
    {
      "inputs": [
        {
          "internalType": "uint16",
          "name": "market",
          "type": "uint16"
        }
      ],
      "name": "getMarketSizes",
      "outputs": [
        {
          "internalType": "uint256",
          "name": "",
          "type": "uint256"
        },
        {
          "internalType": "uint256",
          "name": "",
          "type": "uint256"
        }
      ],
      "stateMutability": "view",
      "type": "function"
    },
    {
      "inputs": [],
      "name": "getMarkets",
      "outputs": [
        {
          "internalType": "bytes",
          "name": "result",
          "type": "bytes"
        }
      ],
      "stateMutability": "view",
      "type": "function"
    },
    {
      "inputs": [
        {
          "internalType": "uint16",
          "name": "market",
          "type": "uint16"
        },
        {
          "internalType": "address",
          "name": "account",
          "type": "address"
        },
        {
          "internalType": "uint256",
          "name": "sizeDelta",
          "type": "uint256"
        },
        {
          "internalType": "uint256",
          "name": "markPrice",
          "type": "uint256"
        },
        {
          "internalType": "bool",
          "name": "isLong",
          "type": "bool"
        }
      ],
      "name": "getPNL",
      "outputs": [
        {
          "internalType": "int256",
          "name": "",
          "type": "int256"
        }
      ],
      "stateMutability": "view",
      "type": "function"
    },
    {
      "inputs": [
        {
          "internalType": "uint16",
          "name": "market",
          "type": "uint16"
        }
      ],
      "name": "getPNL",
      "outputs": [
        {
          "internalType": "int256",
          "name": "pnl",
          "type": "int256"
        }
      ],
      "stateMutability": "view",
      "type": "function"
    },
    {
      "inputs": [
        {
          "internalType": "uint16",
          "name": "market",
          "type": "uint16"
        },
        {
          "internalType": "address",
          "name": "account",
          "type": "address"
        },
        {
          "internalType": "uint256",
          "name": "markPrice",
          "type": "uint256"
        },
        {
          "internalType": "bool",
          "name": "isLong",
          "type": "bool"
        }
      ],
      "name": "getPosition",
      "outputs": [
        {
          "components": [
            {
              "internalType": "uint256",
              "name": "size",
              "type": "uint256"
            },
            {
              "internalType": "uint256",
              "name": "collateral",
              "type": "uint256"
            },
            {
              "internalType": "int256",
              "name": "entryFundingRate",
              "type": "int256"
            },
            {
              "internalType": "int256",
              "name": "realisedPnl",
              "type": "int256"
            },
            {
              "internalType": "uint256",
              "name": "averagePrice",
              "type": "uint256"
            },
            {
              "internalType": "bool",
              "name": "isLong",
              "type": "bool"
            },
            {
              "internalType": "uint32",
              "name": "lastTime",
              "type": "uint32"
            },
            {
              "internalType": "uint16",
              "name": "market",
              "type": "uint16"
            },
            {
              "internalType": "uint72",
              "name": "extra0",
              "type": "uint72"
            }
          ],
          "internalType": "struct Position.Props",
          "name": "",
          "type": "tuple"
        }
      ],
      "stateMutability": "view",
      "type": "function"
    },
    {
      "inputs": [
        {
          "internalType": "uint16",
          "name": "market",
          "type": "uint16"
        },
        {
          "internalType": "bool",
          "name": "isLong",
          "type": "bool"
        }
      ],
      "name": "getPositionCount",
      "outputs": [
        {
          "internalType": "uint256",
          "name": "",
          "type": "uint256"
        }
      ],
      "stateMutability": "view",
      "type": "function"
    },
    {
      "inputs": [
        {
          "internalType": "uint16",
          "name": "market",
          "type": "uint16"
        },
        {
          "internalType": "uint256",
          "name": "start",
          "type": "uint256"
        },
        {
          "internalType": "uint256",
          "name": "end",
          "type": "uint256"
        },
        {
          "internalType": "bool",
          "name": "isLong",
          "type": "bool"
        }
      ],
      "name": "getPositionKeys",
      "outputs": [
        {
          "internalType": "address[]",
          "name": "",
          "type": "address[]"
        }
      ],
      "stateMutability": "view",
      "type": "function"
    },
    {
      "inputs": [
        {
          "internalType": "uint16",
          "name": "market",
          "type": "uint16"
        },
        {
          "internalType": "address",
          "name": "account",
          "type": "address"
        }
      ],
      "name": "getPositions",
      "outputs": [
        {
          "components": [
            {
              "internalType": "uint256",
              "name": "size",
              "type": "uint256"
            },
            {
              "internalType": "uint256",
              "name": "collateral",
              "type": "uint256"
            },
            {
              "internalType": "int256",
              "name": "entryFundingRate",
              "type": "int256"
            },
            {
              "internalType": "int256",
              "name": "realisedPnl",
              "type": "int256"
            },
            {
              "internalType": "uint256",
              "name": "averagePrice",
              "type": "uint256"
            },
            {
              "internalType": "bool",
              "name": "isLong",
              "type": "bool"
            },
            {
              "internalType": "uint32",
              "name": "lastTime",
              "type": "uint32"
            },
            {
              "internalType": "uint16",
              "name": "market",
              "type": "uint16"
            },
            {
              "internalType": "uint72",
              "name": "extra0",
              "type": "uint72"
            }
          ],
          "internalType": "struct Position.Props",
          "name": "posLong",
          "type": "tuple"
        },
        {
          "components": [
            {
              "internalType": "uint256",
              "name": "size",
              "type": "uint256"
            },
            {
              "internalType": "uint256",
              "name": "collateral",
              "type": "uint256"
            },
            {
              "internalType": "int256",
              "name": "entryFundingRate",
              "type": "int256"
            },
            {
              "internalType": "int256",
              "name": "realisedPnl",
              "type": "int256"
            },
            {
              "internalType": "uint256",
              "name": "averagePrice",
              "type": "uint256"
            },
            {
              "internalType": "bool",
              "name": "isLong",
              "type": "bool"
            },
            {
              "internalType": "uint32",
              "name": "lastTime",
              "type": "uint32"
            },
            {
              "internalType": "uint16",
              "name": "market",
              "type": "uint16"
            },
            {
              "internalType": "uint72",
              "name": "extra0",
              "type": "uint72"
            }
          ],
          "internalType": "struct Position.Props",
          "name": "posShort",
          "type": "tuple"
        }
      ],
      "stateMutability": "view",
      "type": "function"
    },
    {
      "inputs": [
        {
          "internalType": "uint16",
          "name": "market",
          "type": "uint16"
        },
        {
          "internalType": "address",
          "name": "account",
          "type": "address"
        },
        {
          "internalType": "bool",
          "name": "isLong",
          "type": "bool"
        }
      ],
      "name": "isLiquidate",
      "outputs": [],
      "stateMutability": "view",
      "type": "function"
    },
    {
      "inputs": [
        {
          "internalType": "uint16",
          "name": "market",
          "type": "uint16"
        }
      ],
      "name": "markeConfig",
      "outputs": [
        {
          "components": [
            {
              "internalType": "bool",
              "name": "isSuspended",
              "type": "bool"
            },
            {
              "internalType": "bool",
              "name": "allowOpen",
              "type": "bool"
            },
            {
              "internalType": "bool",
              "name": "allowClose",
              "type": "bool"
            },
            {
              "internalType": "bool",
              "name": "validDecrease",
              "type": "bool"
            },
            {
              "internalType": "uint16",
              "name": "minSlippage",
              "type": "uint16"
            },
            {
              "internalType": "uint16",
              "name": "maxSlippage",
              "type": "uint16"
            },
            {
              "internalType": "uint16",
              "name": "minLeverage",
              "type": "uint16"
            },
            {
              "internalType": "uint16",
              "name": "maxLeverage",
              "type": "uint16"
            },
            {
              "internalType": "uint16",
              "name": "minPayment",
              "type": "uint16"
            },
            {
              "internalType": "uint16",
              "name": "minCollateral",
              "type": "uint16"
            },
            {
              "internalType": "uint16",
              "name": "decreaseNumLimit",
              "type": "uint16"
            },
            {
              "internalType": "uint32",
              "name": "maxTradeAmount",
              "type": "uint32"
            }
          ],
          "internalType": "struct MarketHandler.Props",
          "name": "_config",
          "type": "tuple"
        }
      ],
      "stateMutability": "view",
      "type": "function"
    }
  ],
  "transactionHash": "0x57904ab1bc1afe9917b5878324fb1b74df9c8fab5fb673af0b0f17e0c00c6c4e",
  "args": [],
  "numDeployments": 1,
  "solcInputHash": "5611c5c87ae95ca3b689d6aa1111e5c4",
  "bytecode": "0x608060405234801561001057600080fd5b5061352d806100206000396000f3fe608060405234801561001057600080fd5b50600436106100e55760003560e01c8062056b95146100ea57806313a300131461011c5780634da4ef301461014c578063653d64b61461017c57806370801978146101ac57806371127e8a146101dc578063735a28851461020d5780637370cf1c1461023d57806379eba7091461026d57806389d797b91461029d5780638d094b1e146102cd578063b0a3961a146102fe578063bd11025d1461032e578063cf9410f11461035e578063d4f8ba011461038e578063daa39c53146103be578063dd22378d146103ef578063ec2c90161461040b575b600080fd5b61010460048036038101906100ff91906121ab565b610429565b60405161011393929190612368565b60405180910390f35b610136600480360381019061013191906121ab565b61072c565b6040516101439190612444565b60405180910390f35b610166600480360381019061016191906124ca565b610733565b6040516101739190612621565b60405180910390f35b61019660048036038101906101919190612643565b61077e565b6040516101a3919061279b565b60405180910390f35b6101c660048036038101906101c191906127e3565b61088d565b6040516101d39190612832565b60405180910390f35b6101f660048036038101906101f191906121ab565b610970565b60405161020492919061285c565b60405180910390f35b61022760048036038101906102229190612885565b6109cf565b60405161023491906128d8565b60405180910390f35b610257600480360381019061025291906128f3565b6109d8565b604051610264919061297d565b60405180910390f35b610287600480360381019061028291906121ab565b6109e3565b6040516102949190612a8e565b60405180910390f35b6102b760048036038101906102b29190612aaa565b610b94565b6040516102c4919061279b565b60405180910390f35b6102e760048036038101906102e291906127e3565b610ce2565b6040516102f5929190612b11565b60405180910390f35b61031860048036038101906103139190612b3c565b610f6a565b604051610325919061297d565b60405180910390f35b61034860048036038101906103439190612643565b61103c565b60405161035591906128d8565b60405180910390f35b610378600480360381019061037391906121ab565b611078565b604051610385919061297d565b60405180910390f35b6103a860048036038101906103a391906121ab565b61107f565b6040516103b591906128d8565b60405180910390f35b6103d860048036038101906103d391906127e3565b611086565b6040516103e692919061285c565b60405180910390f35b61040960048036038101906104049190612b69565b611161565b005b610413611166565b6040516104209190612444565b60405180910390f35b6060806060600c8081111561044157610440612bbc565b5b60ff1667ffffffffffffffff81111561045d5761045c612beb565b5b60405190808252806020026020018201604052801561048b5781602001602082028036833780820191505090505b50925060005b600c808111156104a4576104a3612bbc565b5b60ff168160ff161015610522576104b961116b565b60060160008661ffff1661ffff16815260200190815260200160002060008260ff1660ff16815260200190815260200160002054848260ff168151811061050357610502612c1a565b5b602002602001018181525050808061051a90612c85565b915050610491565b50600267ffffffffffffffff81111561053e5761053d612beb565b5b60405190808252806020026020018201604052801561056c5781602001602082028036833780820191505090505b50915061057761116b565b60080160008561ffff1661ffff1681526020019081526020016000206000600115151515815260200190815260200160002054826000815181106105be576105bd612c1a565b5b6020026020010181815250506105d261116b565b60080160008561ffff1661ffff168152602001908152602001600020600080151515158152602001908152602001600020548260018151811061061857610617612c1a565b5b602002602001018181525050600267ffffffffffffffff81111561063f5761063e612beb565b5b60405190808252806020026020018201604052801561066d5781602001602082028036833780820191505090505b50905061067861116b565b60070160008561ffff1661ffff1681526020019081526020016000206000600115151515815260200190815260200160002054816000815181106106bf576106be612c1a565b5b6020026020010181815250506106d361116b565b60070160008561ffff1661ffff168152602001908152602001600020600080151515158152602001908152602001600020548160018151811061071957610718612c1a565b5b6020026020010181815250509193909250565b6060919050565b6060600061073f611198565b905061077385858360010160006107568b896111c5565b81526020019081526020016000206111fa9092919063ffffffff16565b915050949350505050565b61078661207e565b6000610790611198565b90508060020160006107a286866111c5565b81526020019081526020016000206040518061012001604052908160008201548152602001600182015481526020016002820154815260200160038201548152602001600482015481526020016005820160009054906101000a900460ff161515151581526020016005820160019054906101000a900463ffffffff1663ffffffff1663ffffffff1681526020016005820160059054906101000a900461ffff1661ffff1661ffff1681526020016005820160079054906101000a900468ffffffffffffffffff1668ffffffffffffffffff1668ffffffffffffffffff168152505091505092915050565b600080610898611198565b905060008160000160006108ad8760016111c5565b815260200190815260200160002060008573ffffffffffffffffffffffffffffffffffffffff1673ffffffffffffffffffffffffffffffffffffffff168152602001908152602001600020600001541180610967575060008160000160006109168760006111c5565b815260200190815260200160002060008573ffffffffffffffffffffffffffffffffffffffff1673ffffffffffffffffffffffffffffffffffffffff16815260200190815260200160002060000154115b91505092915050565b600080600061097d611198565b90508060020160006109908660016111c5565b8152602001908152602001600020600001548160020160006109b38760006111c5565b8152602001908152602001600020600001549250925050915091565b60009392505050565b600095945050505050565b6109eb6120e1565b6109f3611306565b60010160008361ffff1661ffff168152602001908152602001600020604051806101800160405290816000820160009054906101000a900460ff161515151581526020016000820160019054906101000a900460ff161515151581526020016000820160029054906101000a900460ff161515151581526020016000820160039054906101000a900460ff161515151581526020016000820160049054906101000a900461ffff1661ffff1661ffff1681526020016000820160069054906101000a900461ffff1661ffff1661ffff1681526020016000820160089054906101000a900461ffff1661ffff1661ffff16815260200160008201600a9054906101000a900461ffff1661ffff1661ffff16815260200160008201600c9054906101000a900461ffff1661ffff1661ffff16815260200160008201600e9054906101000a900461ffff1661ffff1661ffff1681526020016000820160109054906101000a900461ffff1661ffff1661ffff1681526020016000820160129054906101000a900463ffffffff1663ffffffff1663ffffffff16815250509050919050565b610b9c61207e565b6000610ba6611198565b9050806000016000610bb888866111c5565b815260200190815260200160002060008673ffffffffffffffffffffffffffffffffffffffff1673ffffffffffffffffffffffffffffffffffffffff1681526020019081526020016000206040518061012001604052908160008201548152602001600182015481526020016002820154815260200160038201548152602001600482015481526020016005820160009054906101000a900460ff161515151581526020016005820160019054906101000a900463ffffffff1663ffffffff1663ffffffff1681526020016005820160059054906101000a900461ffff1661ffff1661ffff1681526020016005820160079054906101000a900468ffffffffffffffffff1668ffffffffffffffffff1668ffffffffffffffffff1681525050915050949350505050565b610cea61207e565b610cf261207e565b6000610cfc611198565b9050806000016000610d0f8760016111c5565b815260200190815260200160002060008573ffffffffffffffffffffffffffffffffffffffff1673ffffffffffffffffffffffffffffffffffffffff1681526020019081526020016000206040518061012001604052908160008201548152602001600182015481526020016002820154815260200160038201548152602001600482015481526020016005820160009054906101000a900460ff161515151581526020016005820160019054906101000a900463ffffffff1663ffffffff1663ffffffff1681526020016005820160059054906101000a900461ffff1661ffff1661ffff1681526020016005820160079054906101000a900468ffffffffffffffffff1668ffffffffffffffffff1668ffffffffffffffffff16815250509250806000016000610e418760006111c5565b815260200190815260200160002060008573ffffffffffffffffffffffffffffffffffffffff1673ffffffffffffffffffffffffffffffffffffffff1681526020019081526020016000206040518061012001604052908160008201548152602001600182015481526020016002820154815260200160038201548152602001600482015481526020016005820160009054906101000a900460ff161515151581526020016005820160019054906101000a900463ffffffff1663ffffffff1663ffffffff1681526020016005820160059054906101000a900461ffff1661ffff1661ffff1681526020016005820160079054906101000a900468ffffffffffffffffff1668ffffffffffffffffff1668ffffffffffffffffff16815250509150509250929050565b600080610f75611306565b60060160008473ffffffffffffffffffffffffffffffffffffffff1673ffffffffffffffffffffffffffffffffffffffff16815260200190815260200160002090506000610fc282611333565b90506000805b8251811015611030576000838281518110610fe657610fe5612c1a565b5b6020026020010151905061100f81610fff836001611354565b61100a846000611354565b611377565b8361101a9190612cae565b925050808061102890612cf2565b915050610fc8565b50809350505050919050565b600080611047611198565b905061106f81600101600061105c87876111c5565b81526020019081526020016000206113ac565b91505092915050565b6000919050565b6000919050565b6000806000611093611198565b90508060000160006110a68760016111c5565b815260200190815260200160002060008573ffffffffffffffffffffffffffffffffffffffff1673ffffffffffffffffffffffffffffffffffffffff168152602001908152602001600020600001548160000160006111068860006111c5565b815260200190815260200160002060008673ffffffffffffffffffffffffffffffffffffffff1673ffffffffffffffffffffffffffffffffffffffff1681526020019081526020016000206000015492509250509250929050565b505050565b606090565b6000807f8044e54adfaacc587fefea0831a427898a157664a4fc313bb47c3132ec6276ed90508091505090565b6000807f92bcfabaf0a890def3092675474357e5f93a0f117ca63a3db421d44c5b55fba590508091505090565b600081836040516020016111da929190612db8565b6040516020818303038152906040526111f290612e20565b905092915050565b60606000611207856113ac565b905080831115611215578092505b600084846112239190612e87565b67ffffffffffffffff81111561123c5761123b612beb565b5b60405190808252806020026020018201604052801561126a5781602001602082028036833780820191505090505b50905060008590505b848110156112f95761128e81886113c190919063ffffffff16565b82878361129b9190612e87565b815181106112ac576112ab612c1a565b5b602002602001019073ffffffffffffffffffffffffffffffffffffffff16908173ffffffffffffffffffffffffffffffffffffffff168152505080806112f190612cf2565b915050611273565b5080925050509392505050565b6000807f2eec39e2b6bcfb5f1ee2be0b6e9d5a470a45585b1e2f7f291af9fb9f551763d090508091505090565b60606000611343836000016113db565b905060608190508092505050919050565b6000806113618484611437565b905061136e8482856114f0565b91505092915050565b60008061138685856001611686565b905061139485846000611686565b8161139f9190612cae565b9050809150509392505050565b60006113ba826000016116e7565b9050919050565b60006113d083600001836116f8565b60001c905092915050565b60608160000180548060200260200160405190810160405280929190818152602001828054801561142b57602002820191906000526020600020905b815481526020019060010190808311611417575b50505050509050919050565b6000806114448484611723565b905060006114528585611723565b90506c0c9f2c9cd04674edea400000007fffffffffffffffffffffffffffffffffffffffffffffffffffffffffffffffff61148d9190612eea565b8210156114c157806c0c9f2c9cd04674edea40000000836114ae9190612f1b565b6114b89190612eea565b925050506114ea565b806c0c9f2c9cd04674edea40000000836114db9190612eea565b6114e59190612f1b565b925050505b92915050565b6000806114fb611cb0565b60060160008661ffff1661ffff16815260200190815260200160002060000160149054906101000a900463ffffffff1663ffffffff169050600061153d611cb0565b60040160008761ffff1661ffff168152602001908152602001600020549050611564611cb0565b60010160000160089054906101000a900463ffffffff1663ffffffff168261158c9190612f5d565b4211806115c7575061159c611cb0565b60010160000160049054906101000a900463ffffffff1663ffffffff16826115c49190612f5d565b42115b806115d25750600081145b156115e157849250505061167f565b60008186116115fb5785826115f69190612e87565b611608565b81866116079190612e87565b5b905085612710826116199190612f1b565b6116239190612eea565b905061162e87611cdd565b801561165e575061163d611cb0565b60010160000160009054906101000a900463ffffffff1663ffffffff168111155b1561166e5781935050505061167f565b611679868387611d4a565b93505050505b9392505050565b60008061169b61169686856111c5565b611d7e565b905060008160000151036116b35760009150506116e0565b6000806116c08387611e7d565b91509150816116d857806116d390612f91565b6116da565b805b93505050505b9392505050565b600081600001805490509050919050565b60008260000182815481106117105761170f612c1a565b5b9060005260206000200154905092915050565b60008061172e611cb0565b60020160008561ffff1661ffff16815260200190815260200160002060009054906101000a900473ffffffffffffffffffffffffffffffffffffffff169050600073ffffffffffffffffffffffffffffffffffffffff168173ffffffffffffffffffffffffffffffffffffffff16036117dc576040517f08c379a00000000000000000000000000000000000000000000000000000000081526004016117d390613036565b60405180910390fd5b6000806117e7611cb0565b60020160008761ffff1661ffff16815260200190815260200160002060009054906101000a900473ffffffffffffffffffffffffffffffffffffffff1673ffffffffffffffffffffffffffffffffffffffff1663668a0f026040518163ffffffff1660e01b8152600401602060405180830381865afa15801561186e573d6000803e3d6000fd5b505050506040513d601f19601f820116820180604052508101906118929190613098565b905060005b61189f611cb0565b60010160000160109054906101000a900463ffffffff1663ffffffff168169ffffffffffffffffffff161015611b76578069ffffffffffffffffffff168269ffffffffffffffffffff161115611b76576000808269ffffffffffffffffffff1603611a0757600061190e611cb0565b60020160008a61ffff1661ffff16815260200190815260200160002060009054906101000a900473ffffffffffffffffffffffffffffffffffffffff1673ffffffffffffffffffffffffffffffffffffffff166350d25bcd6040518163ffffffff1660e01b8152600401602060405180830381865afa158015611995573d6000803e3d6000fd5b505050506040513d601f19601f820116820180604052508101906119b991906130f1565b9050600081136119fe576040517f08c379a00000000000000000000000000000000000000000000000000000000081526004016119f59061316a565b60405180910390fd5b80915050611b20565b6000611a11611cb0565b60020160008a61ffff1661ffff16815260200190815260200160002060009054906101000a900473ffffffffffffffffffffffffffffffffffffffff1673ffffffffffffffffffffffffffffffffffffffff16639a6fc8f58486611a75919061318a565b6040518263ffffffff1660e01b8152600401611a9191906131d7565b60a060405180830381865afa158015611aae573d6000803e3d6000fd5b505050506040513d601f19601f82011682018060405250810190611ad29190613207565b50505091505060008113611b1b576040517f08c379a0000000000000000000000000000000000000000000000000000000008152600401611b129061316a565b60405180910390fd5b809150505b60008403611b315780935050611b63565b868015611b3d57508381115b15611b4b5780935050611b63565b86158015611b5857508381105b15611b61578093505b505b8080611b6e90613282565b915050611897565b5060008211611bba576040517f08c379a0000000000000000000000000000000000000000000000000000000008152600401611bb190613300565b60405180910390fd5b6000611bc4611cb0565b60020160008861ffff1661ffff16815260200190815260200160002060009054906101000a900473ffffffffffffffffffffffffffffffffffffffff1673ffffffffffffffffffffffffffffffffffffffff1663313ce5676040518163ffffffff1660e01b8152600401602060405180830381865afa158015611c4b573d6000803e3d6000fd5b505050506040513d601f19601f82011682018060405250810190611c6f919061334c565b60ff16905080600a611c8191906134ac565b6c0c9f2c9cd04674edea4000000084611c9a9190612f1b565b611ca49190612eea565b94505050505092915050565b6000807f215c1de8a6459dcf0789cdceef063745b34797042fd1550737c0f263affdef6490508091505090565b6000806000611ceb84611ea2565b9350935050508181118015611d2e5750611d03611cb0565b60050160008561ffff1661ffff168152602001908152602001600020548282611d2c9190612e87565b115b15611d3e57600092505050611d45565b6001925050505b919050565b600081611d6557828410611d5e5782611d60565b835b611d75565b828411611d725782611d74565b835b5b90509392505050565b611d8661207e565b611d8e611198565b60020160008381526020019081526020016000206040518061012001604052908160008201548152602001600182015481526020016002820154815260200160038201548152602001600482015481526020016005820160009054906101000a900460ff161515151581526020016005820160019054906101000a900463ffffffff1663ffffffff1663ffffffff1681526020016005820160059054906101000a900461ffff1661ffff1661ffff1681526020016005820160079054906101000a900468ffffffffffffffffff1668ffffffffffffffffff1668ffffffffffffffffff16815250509050919050565b600080611e938385611fef90919063ffffffff16565b80925081935050509250929050565b6000806000806000611eb2611cb0565b60060160008761ffff1661ffff1681526020019081526020016000206040518060800160405290816000820160009054906101000a900473ffffffffffffffffffffffffffffffffffffffff1673ffffffffffffffffffffffffffffffffffffffff1673ffffffffffffffffffffffffffffffffffffffff1681526020016000820160149054906101000a900463ffffffff1663ffffffff1663ffffffff1681526020016000820160189054906101000a900463ffffffff1663ffffffff1663ffffffff16815260200160008201601c9054906101000a900463ffffffff1663ffffffff1663ffffffff16815250509050806000015173ffffffffffffffffffffffffffffffffffffffff16816020015163ffffffff16826040015163ffffffff16836060015163ffffffff169450945094509450509193509193565b6000806000838560800151116120145784608001518461200f9190612e87565b612025565b8385608001516120249190612e87565b5b90506000856080015182876000015161203e9190612f1b565b6120489190612eea565b905060008660a00151156120645786608001518611905061206e565b8587608001511190505b8082945094505050509250929050565b6040518061012001604052806000815260200160008152602001600081526020016000815260200160008152602001600015158152602001600063ffffffff168152602001600061ffff168152602001600068ffffffffffffffffff1681525090565b604051806101800160405280600015158152602001600015158152602001600015158152602001600015158152602001600061ffff168152602001600061ffff168152602001600061ffff168152602001600061ffff168152602001600061ffff168152602001600061ffff168152602001600061ffff168152602001600063ffffffff1681525090565b600080fd5b600061ffff82169050919050565b61218881612171565b811461219357600080fd5b50565b6000813590506121a58161217f565b92915050565b6000602082840312156121c1576121c061216c565b5b60006121cf84828501612196565b91505092915050565b600081519050919050565b600082825260208201905092915050565b6000819050602082019050919050565b6000819050919050565b61221781612204565b82525050565b6000612229838361220e565b60208301905092915050565b6000602082019050919050565b600061224d826121d8565b61225781856121e3565b9350612262836121f4565b8060005b8381101561229357815161227a888261221d565b975061228583612235565b925050600181019050612266565b5085935050505092915050565b600081519050919050565b600082825260208201905092915050565b6000819050602082019050919050565b6000819050919050565b6122df816122cc565b82525050565b60006122f183836122d6565b60208301905092915050565b6000602082019050919050565b6000612315826122a0565b61231f81856122ab565b935061232a836122bc565b8060005b8381101561235b57815161234288826122e5565b975061234d836122fd565b92505060018101905061232e565b5085935050505092915050565b600060608201905081810360008301526123828186612242565b90508181036020830152612396818561230a565b905081810360408301526123aa818461230a565b9050949350505050565b600081519050919050565b600082825260208201905092915050565b60005b838110156123ee5780820151818401526020810190506123d3565b60008484015250505050565b6000601f19601f8301169050919050565b6000612416826123b4565b61242081856123bf565b93506124308185602086016123d0565b612439816123fa565b840191505092915050565b6000602082019050818103600083015261245e818461240b565b905092915050565b61246f81612204565b811461247a57600080fd5b50565b60008135905061248c81612466565b92915050565b60008115159050919050565b6124a781612492565b81146124b257600080fd5b50565b6000813590506124c48161249e565b92915050565b600080600080608085870312156124e4576124e361216c565b5b60006124f287828801612196565b94505060206125038782880161247d565b93505060406125148782880161247d565b9250506060612525878288016124b5565b91505092959194509250565b600081519050919050565b600082825260208201905092915050565b6000819050602082019050919050565b600073ffffffffffffffffffffffffffffffffffffffff82169050919050565b60006125888261255d565b9050919050565b6125988161257d565b82525050565b60006125aa838361258f565b60208301905092915050565b6000602082019050919050565b60006125ce82612531565b6125d8818561253c565b93506125e38361254d565b8060005b838110156126145781516125fb888261259e565b9750612606836125b6565b9250506001810190506125e7565b5085935050505092915050565b6000602082019050818103600083015261263b81846125c3565b905092915050565b6000806040838503121561265a5761265961216c565b5b600061266885828601612196565b9250506020612679858286016124b5565b9150509250929050565b61268c81612492565b82525050565b600063ffffffff82169050919050565b6126ab81612692565b82525050565b6126ba81612171565b82525050565b600068ffffffffffffffffff82169050919050565b6126de816126c0565b82525050565b610120820160008201516126fb600085018261220e565b50602082015161270e602085018261220e565b50604082015161272160408501826122d6565b50606082015161273460608501826122d6565b506080820151612747608085018261220e565b5060a082015161275a60a0850182612683565b5060c082015161276d60c08501826126a2565b5060e082015161278060e08501826126b1565b506101008201516127956101008501826126d5565b50505050565b6000610120820190506127b160008301846126e4565b92915050565b6127c08161257d565b81146127cb57600080fd5b50565b6000813590506127dd816127b7565b92915050565b600080604083850312156127fa576127f961216c565b5b600061280885828601612196565b9250506020612819858286016127ce565b9150509250929050565b61282c81612492565b82525050565b60006020820190506128476000830184612823565b92915050565b61285681612204565b82525050565b6000604082019050612871600083018561284d565b61287e602083018461284d565b9392505050565b60008060006060848603121561289e5761289d61216c565b5b60006128ac868287016127ce565b93505060206128bd868287016127ce565b92505060406128ce868287016124b5565b9150509250925092565b60006020820190506128ed600083018461284d565b92915050565b600080600080600060a0868803121561290f5761290e61216c565b5b600061291d88828901612196565b955050602061292e888289016127ce565b945050604061293f8882890161247d565b93505060606129508882890161247d565b9250506080612961888289016124b5565b9150509295509295909350565b612977816122cc565b82525050565b6000602082019050612992600083018461296e565b92915050565b610180820160008201516129af6000850182612683565b5060208201516129c26020850182612683565b5060408201516129d56040850182612683565b5060608201516129e86060850182612683565b5060808201516129fb60808501826126b1565b5060a0820151612a0e60a08501826126b1565b5060c0820151612a2160c08501826126b1565b5060e0820151612a3460e08501826126b1565b50610100820151612a496101008501826126b1565b50610120820151612a5e6101208501826126b1565b50610140820151612a736101408501826126b1565b50610160820151612a886101608501826126a2565b50505050565b600061018082019050612aa46000830184612998565b92915050565b60008060008060808587031215612ac457612ac361216c565b5b6000612ad287828801612196565b9450506020612ae3878288016127ce565b9350506040612af48782880161247d565b9250506060612b05878288016124b5565b91505092959194509250565b600061024082019050612b2760008301856126e4565b612b356101208301846126e4565b9392505050565b600060208284031215612b5257612b5161216c565b5b6000612b60848285016127ce565b91505092915050565b600080600060608486031215612b8257612b8161216c565b5b6000612b9086828701612196565b9350506020612ba1868287016127ce565b9250506040612bb2868287016124b5565b9150509250925092565b7f4e487b7100000000000000000000000000000000000000000000000000000000600052602160045260246000fd5b7f4e487b7100000000000000000000000000000000000000000000000000000000600052604160045260246000fd5b7f4e487b7100000000000000000000000000000000000000000000000000000000600052603260045260246000fd5b7f4e487b7100000000000000000000000000000000000000000000000000000000600052601160045260246000fd5b600060ff82169050919050565b6000612c9082612c78565b915060ff8203612ca357612ca2612c49565b5b600182019050919050565b6000612cb9826122cc565b9150612cc4836122cc565b925082820190508281121560008312168382126000841215161715612cec57612ceb612c49565b5b92915050565b6000612cfd82612204565b91507fffffffffffffffffffffffffffffffffffffffffffffffffffffffffffffffff8203612d2f57612d2e612c49565b5b600182019050919050565b60008160f81b9050919050565b6000612d5282612d3a565b9050919050565b6000612d6482612d47565b9050919050565b612d7c612d7782612492565b612d59565b82525050565b60008160f01b9050919050565b6000612d9a82612d82565b9050919050565b612db2612dad82612171565b612d8f565b82525050565b6000612dc48285612d6b565b600182019150612dd48284612da1565b6002820191508190509392505050565b6000819050602082019050919050565b6000819050919050565b6000612e0a8251612df4565b80915050919050565b600082821b905092915050565b6000612e2b826123b4565b82612e3584612de4565b9050612e4081612dfe565b92506020821015612e8057612e7b7fffffffffffffffffffffffffffffffffffffffffffffffffffffffffffffffff83602003600802612e13565b831692505b5050919050565b6000612e9282612204565b9150612e9d83612204565b9250828203905081811115612eb557612eb4612c49565b5b92915050565b7f4e487b7100000000000000000000000000000000000000000000000000000000600052601260045260246000fd5b6000612ef582612204565b9150612f0083612204565b925082612f1057612f0f612ebb565b5b828204905092915050565b6000612f2682612204565b9150612f3183612204565b9250828202612f3f81612204565b91508282048414831517612f5657612f55612c49565b5b5092915050565b6000612f6882612204565b9150612f7383612204565b9250828201905080821115612f8b57612f8a612c49565b5b92915050565b6000612f9c826122cc565b91507f80000000000000000000000000000000000000000000000000000000000000008203612fce57612fcd612c49565b5b816000039050919050565b600082825260208201905092915050565b7f5072696365466565643a20696e76616c69642070726963652066656564000000600082015250565b6000613020601d83612fd9565b915061302b82612fea565b602082019050919050565b6000602082019050818103600083015261304f81613013565b9050919050565b600069ffffffffffffffffffff82169050919050565b61307581613056565b811461308057600080fd5b50565b6000815190506130928161306c565b92915050565b6000602082840312156130ae576130ad61216c565b5b60006130bc84828501613083565b91505092915050565b6130ce816122cc565b81146130d957600080fd5b50565b6000815190506130eb816130c5565b92915050565b6000602082840312156131075761310661216c565b5b6000613115848285016130dc565b91505092915050565b7f5072696365466565643a20696e76616c69642070726963650000000000000000600082015250565b6000613154601883612fd9565b915061315f8261311e565b602082019050919050565b6000602082019050818103600083015261318381613147565b9050919050565b600061319582613056565b91506131a083613056565b9250828203905069ffffffffffffffffffff8111156131c2576131c1612c49565b5b92915050565b6131d181613056565b82525050565b60006020820190506131ec60008301846131c8565b92915050565b60008151905061320181612466565b92915050565b600080600080600060a086880312156132235761322261216c565b5b600061323188828901613083565b9550506020613242888289016130dc565b9450506040613253888289016131f2565b9350506060613264888289016131f2565b925050608061327588828901613083565b9150509295509295909350565b600061328d82613056565b915069ffffffffffffffffffff82036132a9576132a8612c49565b5b600182019050919050565b7f5072696365466565643a20636f756c64206e6f74206665746368207072696365600082015250565b60006132ea602083612fd9565b91506132f5826132b4565b602082019050919050565b60006020820190508181036000830152613319816132dd565b9050919050565b61332981612c78565b811461333457600080fd5b50565b60008151905061334681613320565b92915050565b6000602082840312156133625761336161216c565b5b600061337084828501613337565b91505092915050565b60008160011c9050919050565b6000808291508390505b60018511156133d0578086048111156133ac576133ab612c49565b5b60018516156133bb5780820291505b80810290506133c985613379565b9450613390565b94509492505050565b6000826133e957600190506134a5565b816133f757600090506134a5565b816001811461340d576002811461341757613446565b60019150506134a5565b60ff84111561342957613428612c49565b5b8360020a9150848211156134405761343f612c49565b5b506134a5565b5060208310610133831016604e8410600b841016171561347b5782820a90508381111561347657613475612c49565b5b6134a5565b6134888484846001613386565b9250905081840481111561349f5761349e612c49565b5b81810290505b9392505050565b60006134b782612204565b91506134c283612204565b92506134ef7fffffffffffffffffffffffffffffffffffffffffffffffffffffffffffffffff84846133d9565b90509291505056fea26469706673582212208744dc554d8f9a14442cdb9fbc694ed23b8ff6ff0c497f25e36a8e9d855540cb64736f6c63430008140033",
  "devdoc": {
    "kind": "dev",
    "methods": {},
    "version": 1
  },
  "userdoc": {
    "kind": "user",
    "methods": {},
    "version": 1
  },
  "storageLayout": {
    "storage": [],
    "types": null
  }
}