{
  "address": "0x2f233889d77dFbed27b3EA7d1AB5e766980E1548",
  "abi": [
    {
      "inputs": [
        {
          "internalType": "address",
          "name": "authority",
          "type": "address"
        }
      ],
      "name": "AccessManagedInvalidAuthority",
      "type": "error"
    },
    {
      "inputs": [
        {
          "internalType": "address",
          "name": "caller",
          "type": "address"
        },
        {
          "internalType": "uint32",
          "name": "delay",
          "type": "uint32"
        }
      ],
      "name": "AccessManagedRequiredDelay",
      "type": "error"
    },
    {
      "inputs": [
        {
          "internalType": "address",
          "name": "caller",
          "type": "address"
        }
      ],
      "name": "AccessManagedUnauthorized",
      "type": "error"
    },
    {
      "inputs": [
        {
          "internalType": "address",
          "name": "target",
          "type": "address"
        }
      ],
      "name": "AddressEmptyCode",
      "type": "error"
    },
    {
      "inputs": [
        {
          "internalType": "address",
          "name": "account",
          "type": "address"
        }
      ],
      "name": "AddressInsufficientBalance",
      "type": "error"
    },
    {
      "inputs": [],
      "name": "FailedInnerCall",
      "type": "error"
    },
    {
      "inputs": [
        {
          "internalType": "address",
          "name": "token",
          "type": "address"
        }
      ],
      "name": "SafeERC20FailedOperation",
      "type": "error"
    },
    {
      "inputs": [
        {
          "internalType": "bytes",
          "name": "data",
          "type": "bytes"
        }
      ],
      "name": "addMarket",
      "outputs": [],
      "stateMutability": "nonpayable",
      "type": "function"
    },
    {
      "inputs": [
        {
          "internalType": "uint16",
          "name": "marketId",
          "type": "uint16"
        }
      ],
      "name": "containsMarket",
      "outputs": [
        {
          "internalType": "bool",
          "name": "",
          "type": "bool"
        }
      ],
      "stateMutability": "view",
      "type": "function"
    },
    {
      "inputs": [
        {
          "internalType": "uint256",
          "name": "amount",
          "type": "uint256"
        },
        {
          "internalType": "uint8",
          "name": "collateralTokenDigits",
          "type": "uint8"
        }
      ],
      "name": "formatCollateral",
      "outputs": [
        {
          "internalType": "uint256",
          "name": "",
          "type": "uint256"
        }
      ],
      "stateMutability": "pure",
      "type": "function"
    },
    {
      "inputs": [],
      "name": "getUSDDecimals",
      "outputs": [
        {
          "internalType": "uint8",
          "name": "",
          "type": "uint8"
        }
      ],
      "stateMutability": "pure",
      "type": "function"
    },
    {
      "inputs": [
        {
          "internalType": "uint256",
          "name": "amount",
          "type": "uint256"
        },
        {
          "internalType": "uint8",
          "name": "originDigits",
          "type": "uint8"
        }
      ],
      "name": "parseVaultAsset",
      "outputs": [
        {
          "internalType": "uint256",
          "name": "",
          "type": "uint256"
        }
      ],
      "stateMutability": "pure",
      "type": "function"
    },
    {
      "inputs": [
        {
          "internalType": "int256",
          "name": "amount",
          "type": "int256"
        },
        {
          "internalType": "uint8",
          "name": "collateralTokenDigits",
          "type": "uint8"
        }
      ],
      "name": "parseVaultAssetSigned",
      "outputs": [
        {
          "internalType": "int256",
          "name": "",
          "type": "int256"
        }
      ],
      "stateMutability": "pure",
      "type": "function"
    },
    {
      "inputs": [
        {
          "internalType": "uint16",
          "name": "marketId",
          "type": "uint16"
        }
      ],
      "name": "removeMarket",
      "outputs": [],
      "stateMutability": "nonpayable",
      "type": "function"
    },
    {
      "inputs": [
        {
          "internalType": "uint16",
          "name": "market",
          "type": "uint16"
        },
        {
          "components": [
            {
              "internalType": "bool",
              "name": "isSuspended",
              "type": "bool"
            },
            {
              "internalType": "bool",
              "name": "allowOpen",
              "type": "bool"
            },
            {
              "internalType": "bool",
              "name": "allowClose",
              "type": "bool"
            },
            {
              "internalType": "bool",
              "name": "validDecrease",
              "type": "bool"
            },
            {
              "internalType": "uint16",
              "name": "minSlippage",
              "type": "uint16"
            },
            {
              "internalType": "uint16",
              "name": "maxSlippage",
              "type": "uint16"
            },
            {
              "internalType": "uint16",
              "name": "minLeverage",
              "type": "uint16"
            },
            {
              "internalType": "uint16",
              "name": "maxLeverage",
              "type": "uint16"
            },
            {
              "internalType": "uint16",
              "name": "minPayment",
              "type": "uint16"
            },
            {
              "internalType": "uint16",
              "name": "minCollateral",
              "type": "uint16"
            },
            {
              "internalType": "uint16",
              "name": "decreaseNumLimit",
              "type": "uint16"
            },
            {
              "internalType": "uint32",
              "name": "maxTradeAmount",
              "type": "uint32"
            }
          ],
          "internalType": "struct MarketHandler.Props",
          "name": "data",
          "type": "tuple"
        }
      ],
      "name": "setConf",
      "outputs": [],
      "stateMutability": "nonpayable",
      "type": "function"
    },
    {
      "inputs": [
        {
          "internalType": "address",
          "name": "tokenAddress",
          "type": "address"
        },
        {
          "internalType": "address",
          "name": "_from",
          "type": "address"
        },
        {
          "internalType": "address",
          "name": "_to",
          "type": "address"
        },
        {
          "internalType": "uint256",
          "name": "_tokenAmount",
          "type": "uint256"
        }
      ],
      "name": "transferIn",
      "outputs": [],
      "stateMutability": "nonpayable",
      "type": "function"
    },
    {
      "inputs": [
        {
          "internalType": "address",
          "name": "tokenAddress",
          "type": "address"
        },
        {
          "internalType": "address",
          "name": "_to",
          "type": "address"
        },
        {
          "internalType": "uint256",
          "name": "_tokenAmount",
          "type": "uint256"
        }
      ],
      "name": "transferOut",
      "outputs": [],
      "stateMutability": "nonpayable",
      "type": "function"
    }
  ],
  "transactionHash": "0xe52bb7005767e945a84f724c21dd9b14d1efeddf2632ed2cf012347d82d65f09",
  "args": [],
  "numDeployments": 7,
  "solcInputHash": "26b1a606330f68ddbf2a31d4b14378a8",
  "bytecode": "0x608060405234801561001057600080fd5b506125ad806100206000396000f3fe608060405234801561001057600080fd5b506004361061008e5760003560e01c8063078d3b79146100935780634fe0ae5e146100af578063812b2f93146100cb5780639823bc9b146100fb578063afc126ed1461012b578063b51b8de014610147578063bb715a8514610163578063cc55e9d114610181578063e36b20c5146101b1578063e3bd030d146101cd575b600080fd5b6100ad60048036038101906100a891906114a8565b6101fd565b005b6100c960048036038101906100c491906114fb565b6102b7565b005b6100e560048036038101906100e0919061159b565b610371565b6040516100f291906115ea565b60405180910390f35b6101156004803603810190610110919061159b565b6103ae565b60405161012291906115ea565b60405180910390f35b61014560048036038101906101409190611866565b6103eb565b005b610161600480360381019061015c919061190c565b6105b7565b005b61016b610c9e565b6040516101789190611968565b60405180910390f35b61019b60048036038101906101969190611983565b610ca7565b6040516101a891906119bf565b60405180910390f35b6101cb60048036038101906101c69190611983565b610d56565b005b6101e760048036038101906101e29190611a10565b610e4f565b6040516101f49190611a5f565b60405180910390f35b60008103156102b2576000839050610283828573ffffffffffffffffffffffffffffffffffffffff1663313ce5676040518163ffffffff1660e01b8152600401602060405180830381865afa15801561025a573d6000803e3d6000fd5b505050506040513d601f19601f8201168201806040525081019061027e9190611a8f565b610371565b91506102b083838373ffffffffffffffffffffffffffffffffffffffff16610e8f9092919063ffffffff16565b505b505050565b600081031561036b5760008490506103698484610342858973ffffffffffffffffffffffffffffffffffffffff1663313ce5676040518163ffffffff1660e01b8152600401602060405180830381865afa158015610319573d6000803e3d6000fd5b505050506040513d601f19601f8201168201806040525081019061033d9190611a8f565b610371565b8473ffffffffffffffffffffffffffffffffffffffff16610f0e909392919063ffffffff16565b505b50505050565b60006012600a6103819190611c1e565b8260ff16600a6103919190611c69565b8461039c9190611cb4565b6103a69190611d25565b905092915050565b600081600a6103bd9190611c1e565b601260ff16600a6103ce9190611c69565b846103d99190611cb4565b6103e39190611d25565b905092915050565b806103f4610f90565b60010160008461ffff1661ffff16815260200190815260200160002060008201518160000160006101000a81548160ff02191690831515021790555060208201518160000160016101000a81548160ff02191690831515021790555060408201518160000160026101000a81548160ff02191690831515021790555060608201518160000160036101000a81548160ff02191690831515021790555060808201518160000160046101000a81548161ffff021916908361ffff16021790555060a08201518160000160066101000a81548161ffff021916908361ffff16021790555060c08201518160000160086101000a81548161ffff021916908361ffff16021790555060e082015181600001600a6101000a81548161ffff021916908361ffff16021790555061010082015181600001600c6101000a81548161ffff021916908361ffff16021790555061012082015181600001600e6101000a81548161ffff021916908361ffff1602179055506101408201518160000160106101000a81548161ffff021916908361ffff1602179055506101608201518160000160126101000a81548163ffffffff021916908363ffffffff1602179055509050505050565b600080600080600086868101906105ce9190611e49565b94509450945094509450836105e1610f90565b60020160008761ffff1661ffff168152602001908152602001600020908161060991906120f8565b50600073ffffffffffffffffffffffffffffffffffffffff168273ffffffffffffffffffffffffffffffffffffffff1603610714578273ffffffffffffffffffffffffffffffffffffffff166338d52e0f6040518163ffffffff1660e01b8152600401602060405180830381865afa158015610689573d6000803e3d6000fd5b505050506040513d601f19601f820116820180604052508101906106ad91906121df565b6106b5610f90565b60040160008761ffff1661ffff16815260200190815260200160002060006101000a81548173ffffffffffffffffffffffffffffffffffffffff021916908373ffffffffffffffffffffffffffffffffffffffff160217905550610778565b8161071d610f90565b60040160008761ffff1661ffff16815260200190815260200160002060006101000a81548173ffffffffffffffffffffffffffffffffffffffff021916908373ffffffffffffffffffffffffffffffffffffffff1602179055505b60006107d88661ffff1661078a610f90565b60060160008773ffffffffffffffffffffffffffffffffffffffff1673ffffffffffffffffffffffffffffffffffffffff168152602001908152602001600020610fbd90919063ffffffff16565b90508061081a576040517f08c379a00000000000000000000000000000000000000000000000000000000081526004016108119061228f565b60405180910390fd5b83610823610f90565b60030160008861ffff1661ffff16815260200190815260200160002060006101000a81548173ffffffffffffffffffffffffffffffffffffffff021916908373ffffffffffffffffffffffffffffffffffffffff160217905550604051806101800160405280600015158152602001600115158152602001600115158152602001600115158152602001600061ffff168152602001606461ffff168152602001600161ffff168152602001606461ffff168152602001600061ffff168152602001600061ffff168152602001600a61ffff168152602001600063ffffffff1681525061090d610f90565b60010160008861ffff1661ffff16815260200190815260200160002060008201518160000160006101000a81548160ff02191690831515021790555060208201518160000160016101000a81548160ff02191690831515021790555060408201518160000160026101000a81548160ff02191690831515021790555060608201518160000160036101000a81548160ff02191690831515021790555060808201518160000160046101000a81548161ffff021916908361ffff16021790555060a08201518160000160066101000a81548161ffff021916908361ffff16021790555060c08201518160000160086101000a81548161ffff021916908361ffff16021790555060e082015181600001600a6101000a81548161ffff021916908361ffff16021790555061010082015181600001600c6101000a81548161ffff021916908361ffff16021790555061012082015181600001600e6101000a81548161ffff021916908361ffff1602179055506101408201518160000160106101000a81548161ffff021916908361ffff1602179055506101608201518160000160126101000a81548163ffffffff021916908363ffffffff16021790555090505081610ad5610f90565b60010160008861ffff1661ffff16815260200190815260200160002060008201518160000160006101000a81548160ff02191690831515021790555060208201518160000160016101000a81548160ff02191690831515021790555060408201518160000160026101000a81548160ff02191690831515021790555060608201518160000160036101000a81548160ff02191690831515021790555060808201518160000160046101000a81548161ffff021916908361ffff16021790555060a08201518160000160066101000a81548161ffff021916908361ffff16021790555060c08201518160000160086101000a81548161ffff021916908361ffff16021790555060e082015181600001600a6101000a81548161ffff021916908361ffff16021790555061010082015181600001600c6101000a81548161ffff021916908361ffff16021790555061012082015181600001600e6101000a81548161ffff021916908361ffff1602179055506101408201518160000160106101000a81548161ffff021916908361ffff1602179055506101608201518160000160126101000a81548163ffffffff021916908363ffffffff1602179055509050505050505050505050565b60006012905090565b600080610cb2610f90565b905060008160030160008561ffff1661ffff16815260200190815260200160002060009054906101000a900473ffffffffffffffffffffffffffffffffffffffff169050610d4d8461ffff168360060160008473ffffffffffffffffffffffffffffffffffffffff1673ffffffffffffffffffffffffffffffffffffffff168152602001908152602001600020610fd790919063ffffffff16565b92505050919050565b6000610d60610f90565b905060008160030160008461ffff1661ffff16815260200190815260200160002060009054906101000a900473ffffffffffffffffffffffffffffffffffffffff169050610e028361ffff16610db4610f90565b60060160008473ffffffffffffffffffffffffffffffffffffffff1673ffffffffffffffffffffffffffffffffffffffff168152602001908152602001600020610ff190919063ffffffff16565b50610e0b610f90565b60030160008461ffff1661ffff16815260200190815260200160002060006101000a81549073ffffffffffffffffffffffffffffffffffffffff0219169055505050565b6000601260ff16600a610e629190611c69565b8260ff16600a610e729190611c69565b84610e7d91906122af565b610e879190612327565b905092915050565b610f09838473ffffffffffffffffffffffffffffffffffffffff1663a9059cbb8585604051602401610ec29291906123a0565b604051602081830303815290604052915060e01b6020820180517bffffffffffffffffffffffffffffffffffffffffffffffffffffffff838183161783525050505061100b565b505050565b610f8a848573ffffffffffffffffffffffffffffffffffffffff166323b872dd868686604051602401610f43939291906123c9565b604051602081830303815290604052915060e01b6020820180517bffffffffffffffffffffffffffffffffffffffffffffffffffffffff838183161783525050505061100b565b50505050565b6000807f2eec39e2b6bcfb5f1ee2be0b6e9d5a470a45585b1e2f7f291af9fb9f551763d090508091505090565b6000610fcf836000018360001b6110a2565b905092915050565b6000610fe9836000018360001b611112565b905092915050565b6000611003836000018360001b611135565b905092915050565b6000611036828473ffffffffffffffffffffffffffffffffffffffff1661124990919063ffffffff16565b9050600081511415801561105b5750808060200190518101906110599190612415565b155b1561109d57826040517f5274afe70000000000000000000000000000000000000000000000000000000081526004016110949190612442565b60405180910390fd5b505050565b60006110ae8383611112565b61110757826000018290806001815401808255809150506001900390600052602060002001600090919091909150558260000180549050836001016000848152602001908152602001600020819055506001905061110c565b600090505b92915050565b600080836001016000848152602001908152602001600020541415905092915050565b6000808360010160008481526020019081526020016000205490506000811461123d576000600182611167919061245d565b905060006001866000018054905061117f919061245d565b90508082146111ee5760008660000182815481106111a05761119f612491565b5b90600052602060002001549050808760000184815481106111c4576111c3612491565b5b90600052602060002001819055508387600101600083815260200190815260200160002081905550505b85600001805480611202576112016124c0565b5b600190038181906000526020600020016000905590558560010160008681526020019081526020016000206000905560019350505050611243565b60009150505b92915050565b60606112578383600061125f565b905092915050565b6060814710156112a657306040517fcd78605900000000000000000000000000000000000000000000000000000000815260040161129d9190612442565b60405180910390fd5b6000808573ffffffffffffffffffffffffffffffffffffffff1684866040516112cf9190612560565b60006040518083038185875af1925050503d806000811461130c576040519150601f19603f3d011682016040523d82523d6000602084013e611311565b606091505b509150915061132186838361132c565b925050509392505050565b6060826113415761133c826113bb565b6113b3565b60008251148015611369575060008473ffffffffffffffffffffffffffffffffffffffff163b145b156113ab57836040517f9996b3150000000000000000000000000000000000000000000000000000000081526004016113a29190612442565b60405180910390fd5b8190506113b4565b5b9392505050565b6000815111156113ce5780518082602001fd5b6040517f1425ea4200000000000000000000000000000000000000000000000000000000815260040160405180910390fd5b6000604051905090565b600080fd5b600080fd5b600073ffffffffffffffffffffffffffffffffffffffff82169050919050565b600061143f82611414565b9050919050565b61144f81611434565b811461145a57600080fd5b50565b60008135905061146c81611446565b92915050565b6000819050919050565b61148581611472565b811461149057600080fd5b50565b6000813590506114a28161147c565b92915050565b6000806000606084860312156114c1576114c061140a565b5b60006114cf8682870161145d565b93505060206114e08682870161145d565b92505060406114f186828701611493565b9150509250925092565b600080600080608085870312156115155761151461140a565b5b60006115238782880161145d565b94505060206115348782880161145d565b93505060406115458782880161145d565b925050606061155687828801611493565b91505092959194509250565b600060ff82169050919050565b61157881611562565b811461158357600080fd5b50565b6000813590506115958161156f565b92915050565b600080604083850312156115b2576115b161140a565b5b60006115c085828601611493565b92505060206115d185828601611586565b9150509250929050565b6115e481611472565b82525050565b60006020820190506115ff60008301846115db565b92915050565b600061ffff82169050919050565b61161c81611605565b811461162757600080fd5b50565b60008135905061163981611613565b92915050565b600080fd5b6000601f19601f8301169050919050565b7f4e487b7100000000000000000000000000000000000000000000000000000000600052604160045260246000fd5b61168d82611644565b810181811067ffffffffffffffff821117156116ac576116ab611655565b5b80604052505050565b60006116bf611400565b90506116cb8282611684565b919050565b60008115159050919050565b6116e5816116d0565b81146116f057600080fd5b50565b600081359050611702816116dc565b92915050565b600063ffffffff82169050919050565b61172181611708565b811461172c57600080fd5b50565b60008135905061173e81611718565b92915050565b6000610180828403121561175b5761175a61163f565b5b6117666101806116b5565b90506000611776848285016116f3565b600083015250602061178a848285016116f3565b602083015250604061179e848285016116f3565b60408301525060606117b2848285016116f3565b60608301525060806117c68482850161162a565b60808301525060a06117da8482850161162a565b60a08301525060c06117ee8482850161162a565b60c08301525060e06118028482850161162a565b60e0830152506101006118178482850161162a565b6101008301525061012061182d8482850161162a565b610120830152506101406118438482850161162a565b610140830152506101606118598482850161172f565b6101608301525092915050565b6000806101a0838503121561187e5761187d61140a565b5b600061188c8582860161162a565b925050602061189d85828601611744565b9150509250929050565b600080fd5b600080fd5b600080fd5b60008083601f8401126118cc576118cb6118a7565b5b8235905067ffffffffffffffff8111156118e9576118e86118ac565b5b602083019150836001820283011115611905576119046118b1565b5b9250929050565b600080602083850312156119235761192261140a565b5b600083013567ffffffffffffffff8111156119415761194061140f565b5b61194d858286016118b6565b92509250509250929050565b61196281611562565b82525050565b600060208201905061197d6000830184611959565b92915050565b6000602082840312156119995761199861140a565b5b60006119a78482850161162a565b91505092915050565b6119b9816116d0565b82525050565b60006020820190506119d460008301846119b0565b92915050565b6000819050919050565b6119ed816119da565b81146119f857600080fd5b50565b600081359050611a0a816119e4565b92915050565b60008060408385031215611a2757611a2661140a565b5b6000611a35858286016119fb565b9250506020611a4685828601611586565b9150509250929050565b611a59816119da565b82525050565b6000602082019050611a746000830184611a50565b92915050565b600081519050611a898161156f565b92915050565b600060208284031215611aa557611aa461140a565b5b6000611ab384828501611a7a565b91505092915050565b7f4e487b7100000000000000000000000000000000000000000000000000000000600052601160045260246000fd5b60008160011c9050919050565b6000808291508390505b6001851115611b4257808604811115611b1e57611b1d611abc565b5b6001851615611b2d5780820291505b8081029050611b3b85611aeb565b9450611b02565b94509492505050565b600082611b5b5760019050611c17565b81611b695760009050611c17565b8160018114611b7f5760028114611b8957611bb8565b6001915050611c17565b60ff841115611b9b57611b9a611abc565b5b8360020a915084821115611bb257611bb1611abc565b5b50611c17565b5060208310610133831016604e8410600b8410161715611bed5782820a905083811115611be857611be7611abc565b5b611c17565b611bfa8484846001611af8565b92509050818404811115611c1157611c10611abc565b5b81810290505b9392505050565b6000611c2982611472565b9150611c3483611562565b9250611c617fffffffffffffffffffffffffffffffffffffffffffffffffffffffffffffffff8484611b4b565b905092915050565b6000611c7482611472565b9150611c7f83611472565b9250611cac7fffffffffffffffffffffffffffffffffffffffffffffffffffffffffffffffff8484611b4b565b905092915050565b6000611cbf82611472565b9150611cca83611472565b9250828202611cd881611472565b91508282048414831517611cef57611cee611abc565b5b5092915050565b7f4e487b7100000000000000000000000000000000000000000000000000000000600052601260045260246000fd5b6000611d3082611472565b9150611d3b83611472565b925082611d4b57611d4a611cf6565b5b828204905092915050565b600080fd5b600067ffffffffffffffff821115611d7657611d75611655565b5b611d7f82611644565b9050602081019050919050565b82818337600083830152505050565b6000611dae611da984611d5b565b6116b5565b905082815260208101848484011115611dca57611dc9611d56565b5b611dd5848285611d8c565b509392505050565b600082601f830112611df257611df16118a7565b5b8135611e02848260208601611d9b565b91505092915050565b6000611e1682611414565b9050919050565b611e2681611e0b565b8114611e3157600080fd5b50565b600081359050611e4381611e1d565b92915050565b60008060008060006102008688031215611e6657611e6561140a565b5b6000611e748882890161162a565b955050602086013567ffffffffffffffff811115611e9557611e9461140f565b5b611ea188828901611ddd565b9450506040611eb288828901611e34565b9350506060611ec388828901611e34565b9250506080611ed488828901611744565b9150509295509295909350565b600081519050919050565b7f4e487b7100000000000000000000000000000000000000000000000000000000600052602260045260246000fd5b60006002820490506001821680611f3357607f821691505b602082108103611f4657611f45611eec565b5b50919050565b60008190508160005260206000209050919050565b60006020601f8301049050919050565b600082821b905092915050565b600060088302611fae7fffffffffffffffffffffffffffffffffffffffffffffffffffffffffffffffff82611f71565b611fb88683611f71565b95508019841693508086168417925050509392505050565b6000819050919050565b6000611ff5611ff0611feb84611472565b611fd0565b611472565b9050919050565b6000819050919050565b61200f83611fda565b61202361201b82611ffc565b848454611f7e565b825550505050565b600090565b61203861202b565b612043818484612006565b505050565b5b818110156120675761205c600082612030565b600181019050612049565b5050565b601f8211156120ac5761207d81611f4c565b61208684611f61565b81016020851015612095578190505b6120a96120a185611f61565b830182612048565b50505b505050565b600082821c905092915050565b60006120cf600019846008026120b1565b1980831691505092915050565b60006120e883836120be565b9150826002028217905092915050565b61210182611ee1565b67ffffffffffffffff81111561211a57612119611655565b5b6121248254611f1b565b61212f82828561206b565b600060209050601f8311600181146121625760008415612150578287015190505b61215a85826120dc565b8655506121c2565b601f19841661217086611f4c565b60005b8281101561219857848901518255600182019150602085019450602081019050612173565b868310156121b557848901516121b1601f8916826120be565b8355505b6001600288020188555050505b505050505050565b6000815190506121d981611446565b92915050565b6000602082840312156121f5576121f461140a565b5b6000612203848285016121ca565b91505092915050565b600082825260208201905092915050565b7f4d61726b657446616365743a206d61726b657420616c7265616479206578697360008201527f7473000000000000000000000000000000000000000000000000000000000000602082015250565b600061227960228361220c565b91506122848261221d565b604082019050919050565b600060208201905081810360008301526122a88161226c565b9050919050565b60006122ba826119da565b91506122c5836119da565b92508282026122d3816119da565b91507f8000000000000000000000000000000000000000000000000000000000000000841460008412161561230b5761230a611abc565b5b82820584148315176123205761231f611abc565b5b5092915050565b6000612332826119da565b915061233d836119da565b92508261234d5761234c611cf6565b5b600160000383147f80000000000000000000000000000000000000000000000000000000000000008314161561238657612385611abc565b5b828205905092915050565b61239a81611434565b82525050565b60006040820190506123b56000830185612391565b6123c260208301846115db565b9392505050565b60006060820190506123de6000830186612391565b6123eb6020830185612391565b6123f860408301846115db565b949350505050565b60008151905061240f816116dc565b92915050565b60006020828403121561242b5761242a61140a565b5b600061243984828501612400565b91505092915050565b60006020820190506124576000830184612391565b92915050565b600061246882611472565b915061247383611472565b925082820390508181111561248b5761248a611abc565b5b92915050565b7f4e487b7100000000000000000000000000000000000000000000000000000000600052603260045260246000fd5b7f4e487b7100000000000000000000000000000000000000000000000000000000600052603160045260246000fd5b600081519050919050565b600081905092915050565b60005b83811015612523578082015181840152602081019050612508565b60008484015250505050565b600061253a826124ef565b61254481856124fa565b9350612554818560208601612505565b80840191505092915050565b600061256c828461252f565b91508190509291505056fea26469706673582212206ea1fcefece312853d1a1f7944e419e9194bad13a2de6a2b17fb1ba3a67b38d264736f6c63430008140033",
  "devdoc": {
    "errors": {
      "AddressEmptyCode(address)": [
        {
          "details": "There's no code at `target` (it is not a contract)."
        }
      ],
      "AddressInsufficientBalance(address)": [
        {
          "details": "The ETH balance of the account is not enough to perform the operation."
        }
      ],
      "FailedInnerCall()": [
        {
          "details": "A call to an address target failed. The target may have reverted."
        }
      ],
      "SafeERC20FailedOperation(address)": [
        {
          "details": "An operation with an ERC20 token failed."
        }
      ]
    },
    "kind": "dev",
    "methods": {
      "formatCollateral(uint256,uint8)": {
        "details": "Formats the collateral amount by adjusting the number of decimal places.",
        "params": {
          "amount": "The original collateral amount. 18 decimals",
          "collateralTokenDigits": "The number of decimal places for the collateral token."
        },
        "returns": {
          "_0": "The formatted collateral amount."
        }
      },
      "getUSDDecimals()": {
        "details": "Retrieves the number of decimal places for USD.",
        "returns": {
          "_0": "The number of decimal places for USD."
        }
      },
      "parseVaultAsset(uint256,uint8)": {
        "details": "Parses the vault asset amount by adjusting the number of decimal places.",
        "params": {
          "amount": "The original asset amount in vault.",
          "originDigits": "The number of decimal places for the original asset."
        },
        "returns": {
          "_0": "The parsed vault asset amount."
        }
      },
      "parseVaultAssetSigned(int256,uint8)": {
        "details": "This library contains utility functions for transferring assets.",
        "params": {
          "amount": "The amount of assets to transfer in integer format with decimal precision.",
          "collateralTokenDigits": "The decimal precision of the collateral token."
        },
        "returns": {
          "_0": "The transferred asset amount converted to integer with decimal precision for the USD stablecoin. This function is internal and can only be accessed within the current contract or library."
        }
      },
      "transferIn(address,address,address,uint256)": {
        "details": "Transfers a specified amount of tokens from a given address to another address.",
        "params": {
          "_from": "The address from which the tokens will be transferred.",
          "_to": "The address to which the tokens will be transferred.",
          "_tokenAmount": "The amount of tokens to be transferred.",
          "tokenAddress": "The address of the token."
        }
      },
      "transferOut(address,address,uint256)": {
        "details": "Transfers a specified amount of tokens to a given address.",
        "params": {
          "_to": "The address to which the tokens will be transferred.",
          "_tokenAmount": "The amount of tokens to be transferred.",
          "tokenAddress": "The address of the token."
        }
      }
    },
    "version": 1
  },
  "userdoc": {
    "kind": "user",
    "methods": {},
    "version": 1
  },
  "storageLayout": {
    "storage": [],
    "types": null
  }
}