{
  "address": "0x5B3F618D731C40bb3DC5dE289BB15AB98075f821",
  "abi": [
    {
      "inputs": [
        {
          "internalType": "address",
          "name": "authority",
          "type": "address"
        }
      ],
      "name": "AccessManagedInvalidAuthority",
      "type": "error"
    },
    {
      "inputs": [
        {
          "internalType": "address",
          "name": "caller",
          "type": "address"
        },
        {
          "internalType": "uint32",
          "name": "delay",
          "type": "uint32"
        }
      ],
      "name": "AccessManagedRequiredDelay",
      "type": "error"
    },
    {
      "inputs": [
        {
          "internalType": "address",
          "name": "caller",
          "type": "address"
        }
      ],
      "name": "AccessManagedUnauthorized",
      "type": "error"
    },
    {
      "inputs": [
        {
          "internalType": "bytes",
          "name": "data",
          "type": "bytes"
        }
      ],
      "name": "addMarket",
      "outputs": [],
      "stateMutability": "nonpayable",
      "type": "function"
    },
    {
      "inputs": [
        {
          "internalType": "uint16",
          "name": "marketId",
          "type": "uint16"
        }
      ],
      "name": "containsMarket",
      "outputs": [
        {
          "internalType": "bool",
          "name": "",
          "type": "bool"
        }
      ],
      "stateMutability": "view",
      "type": "function"
    },
    {
      "inputs": [
        {
          "internalType": "uint16",
          "name": "marketId",
          "type": "uint16"
        }
      ],
      "name": "removeMarket",
      "outputs": [],
      "stateMutability": "nonpayable",
      "type": "function"
    },
    {
      "inputs": [
        {
          "internalType": "uint16",
          "name": "market",
          "type": "uint16"
        },
        {
          "components": [
            {
              "internalType": "bool",
              "name": "isSuspended",
              "type": "bool"
            },
            {
              "internalType": "bool",
              "name": "allowOpen",
              "type": "bool"
            },
            {
              "internalType": "bool",
              "name": "allowClose",
              "type": "bool"
            },
            {
              "internalType": "bool",
              "name": "validDecrease",
              "type": "bool"
            },
            {
              "internalType": "uint16",
              "name": "minSlippage",
              "type": "uint16"
            },
            {
              "internalType": "uint16",
              "name": "maxSlippage",
              "type": "uint16"
            },
            {
              "internalType": "uint16",
              "name": "minLeverage",
              "type": "uint16"
            },
            {
              "internalType": "uint16",
              "name": "maxLeverage",
              "type": "uint16"
            },
            {
              "internalType": "uint16",
              "name": "minPayment",
              "type": "uint16"
            },
            {
              "internalType": "uint16",
              "name": "minCollateral",
              "type": "uint16"
            },
            {
              "internalType": "uint16",
              "name": "decreaseNumLimit",
              "type": "uint16"
            },
            {
              "internalType": "uint32",
              "name": "maxTradeAmount",
              "type": "uint32"
            }
          ],
          "internalType": "struct MarketHandler.Props",
          "name": "data",
          "type": "tuple"
        }
      ],
      "name": "setConf",
      "outputs": [],
      "stateMutability": "nonpayable",
      "type": "function"
    }
  ],
  "transactionHash": "0xdbf5f5f0460709f15bbf2dd9ffd74541b2c0597c631ed87b5e6eb064efc60d03",
  "args": [],
  "numDeployments": 2,
  "solcInputHash": "31788595877d2958a4239ccf4945fae5",
  "bytecode": "0x608060405234801561001057600080fd5b50611ca7806100206000396000f3fe608060405234801561001057600080fd5b506004361061004c5760003560e01c8063afc126ed14610051578063b51b8de01461006d578063cc55e9d114610089578063e36b20c5146100b9575b600080fd5b61006b60048036038101906100669190611283565b6100d5565b005b61008760048036038101906100829190611329565b6102ad565b005b6100a3600480360381019061009e9190611376565b61095c565b6040516100b091906113b2565b60405180910390f35b6100d360048036038101906100ce9190611376565b610a0b565b005b6100e133600036610b10565b806100ea610c63565b60010160008461ffff1661ffff16815260200190815260200160002060008201518160000160006101000a81548160ff02191690831515021790555060208201518160000160016101000a81548160ff02191690831515021790555060408201518160000160026101000a81548160ff02191690831515021790555060608201518160000160036101000a81548160ff02191690831515021790555060808201518160000160046101000a81548161ffff021916908361ffff16021790555060a08201518160000160066101000a81548161ffff021916908361ffff16021790555060c08201518160000160086101000a81548161ffff021916908361ffff16021790555060e082015181600001600a6101000a81548161ffff021916908361ffff16021790555061010082015181600001600c6101000a81548161ffff021916908361ffff16021790555061012082015181600001600e6101000a81548161ffff021916908361ffff1602179055506101408201518160000160106101000a81548161ffff021916908361ffff1602179055506101608201518160000160126101000a81548163ffffffff021916908363ffffffff1602179055509050505050565b6102b933600036610b10565b600080600080600086868101906102d091906114e0565b94509450945094509450836102e3610c63565b60020160008761ffff1661ffff168152602001908152602001600020908161030b9190611799565b50600073ffffffffffffffffffffffffffffffffffffffff168273ffffffffffffffffffffffffffffffffffffffff1603610416578273ffffffffffffffffffffffffffffffffffffffff166338d52e0f6040518163ffffffff1660e01b8152600401602060405180830381865afa15801561038b573d6000803e3d6000fd5b505050506040513d601f19601f820116820180604052508101906103af91906118a9565b6103b7610c63565b60040160008761ffff1661ffff16815260200190815260200160002060006101000a81548173ffffffffffffffffffffffffffffffffffffffff021916908373ffffffffffffffffffffffffffffffffffffffff16021790555061047a565b8161041f610c63565b60040160008761ffff1661ffff16815260200190815260200160002060006101000a81548173ffffffffffffffffffffffffffffffffffffffff021916908373ffffffffffffffffffffffffffffffffffffffff1602179055505b6104d88561ffff1661048a610c63565b60060160008673ffffffffffffffffffffffffffffffffffffffff1673ffffffffffffffffffffffffffffffffffffffff168152602001908152602001600020610c9090919063ffffffff16565b50826104e2610c63565b60030160008761ffff1661ffff16815260200190815260200160002060006101000a81548173ffffffffffffffffffffffffffffffffffffffff021916908373ffffffffffffffffffffffffffffffffffffffff160217905550604051806101800160405280600015158152602001600115158152602001600115158152602001600115158152602001600061ffff168152602001606461ffff168152602001600161ffff168152602001606461ffff168152602001600061ffff168152602001600061ffff168152602001600a61ffff168152602001600063ffffffff168152506105cc610c63565b60010160008761ffff1661ffff16815260200190815260200160002060008201518160000160006101000a81548160ff02191690831515021790555060208201518160000160016101000a81548160ff02191690831515021790555060408201518160000160026101000a81548160ff02191690831515021790555060608201518160000160036101000a81548160ff02191690831515021790555060808201518160000160046101000a81548161ffff021916908361ffff16021790555060a08201518160000160066101000a81548161ffff021916908361ffff16021790555060c08201518160000160086101000a81548161ffff021916908361ffff16021790555060e082015181600001600a6101000a81548161ffff021916908361ffff16021790555061010082015181600001600c6101000a81548161ffff021916908361ffff16021790555061012082015181600001600e6101000a81548161ffff021916908361ffff1602179055506101408201518160000160106101000a81548161ffff021916908361ffff1602179055506101608201518160000160126101000a81548163ffffffff021916908363ffffffff16021790555090505080610794610c63565b60010160008761ffff1661ffff16815260200190815260200160002060008201518160000160006101000a81548160ff02191690831515021790555060208201518160000160016101000a81548160ff02191690831515021790555060408201518160000160026101000a81548160ff02191690831515021790555060608201518160000160036101000a81548160ff02191690831515021790555060808201518160000160046101000a81548161ffff021916908361ffff16021790555060a08201518160000160066101000a81548161ffff021916908361ffff16021790555060c08201518160000160086101000a81548161ffff021916908361ffff16021790555060e082015181600001600a6101000a81548161ffff021916908361ffff16021790555061010082015181600001600c6101000a81548161ffff021916908361ffff16021790555061012082015181600001600e6101000a81548161ffff021916908361ffff1602179055506101408201518160000160106101000a81548161ffff021916908361ffff1602179055506101608201518160000160126101000a81548163ffffffff021916908363ffffffff16021790555090505050505050505050565b600080610967610c63565b905060008160030160008561ffff1661ffff16815260200190815260200160002060009054906101000a900473ffffffffffffffffffffffffffffffffffffffff169050610a028461ffff168360060160008473ffffffffffffffffffffffffffffffffffffffff1673ffffffffffffffffffffffffffffffffffffffff168152602001908152602001600020610caa90919063ffffffff16565b92505050919050565b610a1733600036610b10565b6000610a21610c63565b905060008160030160008461ffff1661ffff16815260200190815260200160002060009054906101000a900473ffffffffffffffffffffffffffffffffffffffff169050610ac38361ffff16610a75610c63565b60060160008473ffffffffffffffffffffffffffffffffffffffff1673ffffffffffffffffffffffffffffffffffffffff168152602001908152602001600020610cc490919063ffffffff16565b50610acc610c63565b60030160008461ffff1661ffff16815260200190815260200160002060006101000a81549073ffffffffffffffffffffffffffffffffffffffff0219169055505050565b6000610b1a610cde565b9050600080610b50610b2a610d0e565b87308888600090600492610b40939291906118e0565b90610b4b9190611952565b610d41565b9150915081610c5b5760008163ffffffff161115610c1d5760018360000160146101000a81548160ff021916908315150217905550610b8d610d0e565b73ffffffffffffffffffffffffffffffffffffffff166394c7d7ee8787876040518463ffffffff1660e01b8152600401610bc9939291906119fe565b600060405180830381600087803b158015610be357600080fd5b505af1158015610bf7573d6000803e3d6000fd5b5050505060008360000160146101000a81548160ff021916908315150217905550610c5a565b856040517f068ca9d8000000000000000000000000000000000000000000000000000000008152600401610c519190611a30565b60405180910390fd5b5b505050505050565b6000807f2eec39e2b6bcfb5f1ee2be0b6e9d5a470a45585b1e2f7f291af9fb9f551763d090508091505090565b6000610ca2836000018360001b610e67565b905092915050565b6000610cbc836000018360001b610ed7565b905092915050565b6000610cd6836000018360001b610efa565b905092915050565b6000807ff3177357ab46d8af007ab3fdb9af81da189e1068fefdc0073dca88a2cab40a0060001b90508091505090565b6000610d18610cde565b60000160009054906101000a900473ffffffffffffffffffffffffffffffffffffffff16905090565b6000806000808773ffffffffffffffffffffffffffffffffffffffff16878787604051602401610d7393929190611a5a565b60405160208183030381529060405263b700961360e01b6020820180517bffffffffffffffffffffffffffffffffffffffffffffffffffffffff8381831617835250505050604051610dc59190611b02565b600060405180830381855afa9150503d8060008114610e00576040519150601f19603f3d011682016040523d82523d6000602084013e610e05565b606091505b50915091508115610e5c576040815110610e3a5780806020019051810190610e2d9190611b43565b8094508195505050610e5b565b6020815110610e5a5780806020019051810190610e579190611b83565b93505b5b5b505094509492505050565b6000610e738383610ed7565b610ecc578260000182908060018154018082558091505060019003906000526020600020016000909190919091505582600001805490508360010160008481526020019081526020016000208190555060019050610ed1565b600090505b92915050565b600080836001016000848152602001908152602001600020541415905092915050565b60008083600101600084815260200190815260200160002054905060008114611002576000600182610f2c9190611bdf565b9050600060018660000180549050610f449190611bdf565b9050808214610fb3576000866000018281548110610f6557610f64611c13565b5b9060005260206000200154905080876000018481548110610f8957610f88611c13565b5b90600052602060002001819055508387600101600083815260200190815260200160002081905550505b85600001805480610fc757610fc6611c42565b5b600190038181906000526020600020016000905590558560010160008681526020019081526020016000206000905560019350505050611008565b60009150505b92915050565b6000604051905090565b600080fd5b600080fd5b600061ffff82169050919050565b61103981611022565b811461104457600080fd5b50565b60008135905061105681611030565b92915050565b600080fd5b6000601f19601f8301169050919050565b7f4e487b7100000000000000000000000000000000000000000000000000000000600052604160045260246000fd5b6110aa82611061565b810181811067ffffffffffffffff821117156110c9576110c8611072565b5b80604052505050565b60006110dc61100e565b90506110e882826110a1565b919050565b60008115159050919050565b611102816110ed565b811461110d57600080fd5b50565b60008135905061111f816110f9565b92915050565b600063ffffffff82169050919050565b61113e81611125565b811461114957600080fd5b50565b60008135905061115b81611135565b92915050565b600061018082840312156111785761117761105c565b5b6111836101806110d2565b9050600061119384828501611110565b60008301525060206111a784828501611110565b60208301525060406111bb84828501611110565b60408301525060606111cf84828501611110565b60608301525060806111e384828501611047565b60808301525060a06111f784828501611047565b60a08301525060c061120b84828501611047565b60c08301525060e061121f84828501611047565b60e08301525061010061123484828501611047565b6101008301525061012061124a84828501611047565b6101208301525061014061126084828501611047565b610140830152506101606112768482850161114c565b6101608301525092915050565b6000806101a0838503121561129b5761129a611018565b5b60006112a985828601611047565b92505060206112ba85828601611161565b9150509250929050565b600080fd5b600080fd5b600080fd5b60008083601f8401126112e9576112e86112c4565b5b8235905067ffffffffffffffff811115611306576113056112c9565b5b602083019150836001820283011115611322576113216112ce565b5b9250929050565b600080602083850312156113405761133f611018565b5b600083013567ffffffffffffffff81111561135e5761135d61101d565b5b61136a858286016112d3565b92509250509250929050565b60006020828403121561138c5761138b611018565b5b600061139a84828501611047565b91505092915050565b6113ac816110ed565b82525050565b60006020820190506113c760008301846113a3565b92915050565b600080fd5b600067ffffffffffffffff8211156113ed576113ec611072565b5b6113f682611061565b9050602081019050919050565b82818337600083830152505050565b6000611425611420846113d2565b6110d2565b905082815260208101848484011115611441576114406113cd565b5b61144c848285611403565b509392505050565b600082601f830112611469576114686112c4565b5b8135611479848260208601611412565b91505092915050565b600073ffffffffffffffffffffffffffffffffffffffff82169050919050565b60006114ad82611482565b9050919050565b6114bd816114a2565b81146114c857600080fd5b50565b6000813590506114da816114b4565b92915050565b600080600080600061020086880312156114fd576114fc611018565b5b600061150b88828901611047565b955050602086013567ffffffffffffffff81111561152c5761152b61101d565b5b61153888828901611454565b9450506040611549888289016114cb565b935050606061155a888289016114cb565b925050608061156b88828901611161565b9150509295509295909350565b600081519050919050565b7f4e487b7100000000000000000000000000000000000000000000000000000000600052602260045260246000fd5b600060028204905060018216806115ca57607f821691505b6020821081036115dd576115dc611583565b5b50919050565b60008190508160005260206000209050919050565b60006020601f8301049050919050565b600082821b905092915050565b6000600883026116457fffffffffffffffffffffffffffffffffffffffffffffffffffffffffffffffff82611608565b61164f8683611608565b95508019841693508086168417925050509392505050565b6000819050919050565b6000819050919050565b600061169661169161168c84611667565b611671565b611667565b9050919050565b6000819050919050565b6116b08361167b565b6116c46116bc8261169d565b848454611615565b825550505050565b600090565b6116d96116cc565b6116e48184846116a7565b505050565b5b81811015611708576116fd6000826116d1565b6001810190506116ea565b5050565b601f82111561174d5761171e816115e3565b611727846115f8565b81016020851015611736578190505b61174a611742856115f8565b8301826116e9565b50505b505050565b600082821c905092915050565b600061177060001984600802611752565b1980831691505092915050565b6000611789838361175f565b9150826002028217905092915050565b6117a282611578565b67ffffffffffffffff8111156117bb576117ba611072565b5b6117c582546115b2565b6117d082828561170c565b600060209050601f83116001811461180357600084156117f1578287015190505b6117fb858261177d565b865550611863565b601f198416611811866115e3565b60005b8281101561183957848901518255600182019150602085019450602081019050611814565b868310156118565784890151611852601f89168261175f565b8355505b6001600288020188555050505b505050505050565b600061187682611482565b9050919050565b6118868161186b565b811461189157600080fd5b50565b6000815190506118a38161187d565b92915050565b6000602082840312156118bf576118be611018565b5b60006118cd84828501611894565b91505092915050565b600080fd5b600080fd5b600080858511156118f4576118f36118d6565b5b83861115611905576119046118db565b5b6001850283019150848603905094509492505050565b600082905092915050565b60007fffffffff0000000000000000000000000000000000000000000000000000000082169050919050565b600061195e838361191b565b826119698135611926565b925060048210156119a9576119a47fffffffff0000000000000000000000000000000000000000000000000000000083600403600802611608565b831692505b505092915050565b6119ba8161186b565b82525050565b600082825260208201905092915050565b60006119dd83856119c0565b93506119ea838584611403565b6119f383611061565b840190509392505050565b6000604082019050611a1360008301866119b1565b8181036020830152611a268184866119d1565b9050949350505050565b6000602082019050611a4560008301846119b1565b92915050565b611a5481611926565b82525050565b6000606082019050611a6f60008301866119b1565b611a7c60208301856119b1565b611a896040830184611a4b565b949350505050565b600081519050919050565b600081905092915050565b60005b83811015611ac5578082015181840152602081019050611aaa565b60008484015250505050565b6000611adc82611a91565b611ae68185611a9c565b9350611af6818560208601611aa7565b80840191505092915050565b6000611b0e8284611ad1565b915081905092915050565b600081519050611b28816110f9565b92915050565b600081519050611b3d81611135565b92915050565b60008060408385031215611b5a57611b59611018565b5b6000611b6885828601611b19565b9250506020611b7985828601611b2e565b9150509250929050565b600060208284031215611b9957611b98611018565b5b6000611ba784828501611b19565b91505092915050565b7f4e487b7100000000000000000000000000000000000000000000000000000000600052601160045260246000fd5b6000611bea82611667565b9150611bf583611667565b9250828203905081811115611c0d57611c0c611bb0565b5b92915050565b7f4e487b7100000000000000000000000000000000000000000000000000000000600052603260045260246000fd5b7f4e487b7100000000000000000000000000000000000000000000000000000000600052603160045260246000fdfea2646970667358221220ec8bc4a24426c67b56a2bb8b6b41bafe2f0e35c55e62f895d4840a1249f9b29964736f6c63430008140033",
  "devdoc": {
    "kind": "dev",
    "methods": {},
    "version": 1
  },
  "userdoc": {
    "kind": "user",
    "methods": {},
    "version": 1
  },
  "storageLayout": {
    "storage": [],
    "types": null
  }
}