{
  "address": "0x415e5C528b2dF542d8678961036FB8bF7c4329B8",
  "abi": [
    {
      "inputs": [
        {
          "internalType": "address",
          "name": "authority",
          "type": "address"
        }
      ],
      "name": "AccessManagedInvalidAuthority",
      "type": "error"
    },
    {
      "inputs": [
        {
          "internalType": "address",
          "name": "caller",
          "type": "address"
        },
        {
          "internalType": "uint32",
          "name": "delay",
          "type": "uint32"
        }
      ],
      "name": "AccessManagedRequiredDelay",
      "type": "error"
    },
    {
      "inputs": [
        {
          "internalType": "address",
          "name": "caller",
          "type": "address"
        }
      ],
      "name": "AccessManagedUnauthorized",
      "type": "error"
    },
    {
      "inputs": [
        {
          "internalType": "address",
          "name": "target",
          "type": "address"
        }
      ],
      "name": "AddressEmptyCode",
      "type": "error"
    },
    {
      "inputs": [
        {
          "internalType": "address",
          "name": "account",
          "type": "address"
        }
      ],
      "name": "AddressInsufficientBalance",
      "type": "error"
    },
    {
      "inputs": [],
      "name": "FailedInnerCall",
      "type": "error"
    },
    {
      "inputs": [
        {
          "internalType": "address",
          "name": "token",
          "type": "address"
        }
      ],
      "name": "SafeERC20FailedOperation",
      "type": "error"
    },
    {
      "inputs": [
        {
          "internalType": "bytes",
          "name": "data",
          "type": "bytes"
        }
      ],
      "name": "addMarket",
      "outputs": [],
      "stateMutability": "nonpayable",
      "type": "function"
    },
    {
      "inputs": [
        {
          "internalType": "uint16",
          "name": "marketId",
          "type": "uint16"
        }
      ],
      "name": "containsMarket",
      "outputs": [
        {
          "internalType": "bool",
          "name": "",
          "type": "bool"
        }
      ],
      "stateMutability": "view",
      "type": "function"
    },
    {
      "inputs": [
        {
          "internalType": "uint256",
          "name": "amount",
          "type": "uint256"
        },
        {
          "internalType": "uint8",
          "name": "collateralTokenDigits",
          "type": "uint8"
        }
      ],
      "name": "formatCollateral",
      "outputs": [
        {
          "internalType": "uint256",
          "name": "",
          "type": "uint256"
        }
      ],
      "stateMutability": "pure",
      "type": "function"
    },
    {
      "inputs": [],
      "name": "getUSDDecimals",
      "outputs": [
        {
          "internalType": "uint8",
          "name": "",
          "type": "uint8"
        }
      ],
      "stateMutability": "pure",
      "type": "function"
    },
    {
      "inputs": [
        {
          "internalType": "uint256",
          "name": "amount",
          "type": "uint256"
        },
        {
          "internalType": "uint8",
          "name": "originDigits",
          "type": "uint8"
        }
      ],
      "name": "parseVaultAsset",
      "outputs": [
        {
          "internalType": "uint256",
          "name": "",
          "type": "uint256"
        }
      ],
      "stateMutability": "pure",
      "type": "function"
    },
    {
      "inputs": [
        {
          "internalType": "int256",
          "name": "amount",
          "type": "int256"
        },
        {
          "internalType": "uint8",
          "name": "collateralTokenDigits",
          "type": "uint8"
        }
      ],
      "name": "parseVaultAssetSigned",
      "outputs": [
        {
          "internalType": "int256",
          "name": "",
          "type": "int256"
        }
      ],
      "stateMutability": "pure",
      "type": "function"
    },
    {
      "inputs": [
        {
          "internalType": "uint16",
          "name": "marketId",
          "type": "uint16"
        }
      ],
      "name": "removeMarket",
      "outputs": [],
      "stateMutability": "nonpayable",
      "type": "function"
    },
    {
      "inputs": [
        {
          "internalType": "uint16",
          "name": "market",
          "type": "uint16"
        },
        {
          "components": [
            {
              "internalType": "bool",
              "name": "isSuspended",
              "type": "bool"
            },
            {
              "internalType": "bool",
              "name": "allowOpen",
              "type": "bool"
            },
            {
              "internalType": "bool",
              "name": "allowClose",
              "type": "bool"
            },
            {
              "internalType": "bool",
              "name": "validDecrease",
              "type": "bool"
            },
            {
              "internalType": "uint16",
              "name": "minSlippage",
              "type": "uint16"
            },
            {
              "internalType": "uint16",
              "name": "maxSlippage",
              "type": "uint16"
            },
            {
              "internalType": "uint16",
              "name": "minLeverage",
              "type": "uint16"
            },
            {
              "internalType": "uint16",
              "name": "maxLeverage",
              "type": "uint16"
            },
            {
              "internalType": "uint16",
              "name": "minPayment",
              "type": "uint16"
            },
            {
              "internalType": "uint16",
              "name": "minCollateral",
              "type": "uint16"
            },
            {
              "internalType": "uint16",
              "name": "decreaseNumLimit",
              "type": "uint16"
            },
            {
              "internalType": "uint32",
              "name": "maxTradeAmount",
              "type": "uint32"
            }
          ],
          "internalType": "struct MarketHandler.Props",
          "name": "data",
          "type": "tuple"
        }
      ],
      "name": "setConf",
      "outputs": [],
      "stateMutability": "nonpayable",
      "type": "function"
    },
    {
      "inputs": [
        {
          "internalType": "address",
          "name": "tokenAddress",
          "type": "address"
        },
        {
          "internalType": "address",
          "name": "_from",
          "type": "address"
        },
        {
          "internalType": "address",
          "name": "_to",
          "type": "address"
        },
        {
          "internalType": "uint256",
          "name": "_tokenAmount",
          "type": "uint256"
        }
      ],
      "name": "transferIn",
      "outputs": [],
      "stateMutability": "nonpayable",
      "type": "function"
    },
    {
      "inputs": [
        {
          "internalType": "address",
          "name": "tokenAddress",
          "type": "address"
        },
        {
          "internalType": "address",
          "name": "_to",
          "type": "address"
        },
        {
          "internalType": "uint256",
          "name": "_tokenAmount",
          "type": "uint256"
        }
      ],
      "name": "transferOut",
      "outputs": [],
      "stateMutability": "nonpayable",
      "type": "function"
    }
  ],
  "transactionHash": "0x5ddf73ac783cf56f2bbc302d6aa63632c9d172546015014a2d11dbe174c750f6",
  "args": [],
  "numDeployments": 5,
  "solcInputHash": "ea4d865ae9ce5f64cf40178c8ea36dea",
  "bytecode": "0x608060405234801561001057600080fd5b50612b05806100206000396000f3fe608060405234801561001057600080fd5b506004361061008e5760003560e01c8063078d3b79146100935780634fe0ae5e146100af578063812b2f93146100cb5780639823bc9b146100fb578063afc126ed1461012b578063b51b8de014610147578063bb715a8514610163578063cc55e9d114610181578063e36b20c5146101b1578063e3bd030d146101cd575b600080fd5b6100ad60048036038101906100a89190611840565b6101fd565b005b6100c960048036038101906100c49190611893565b610325565b005b6100e560048036038101906100e09190611933565b61044d565b6040516100f29190611982565b60405180910390f35b61011560048036038101906101109190611933565b61048a565b6040516101229190611982565b60405180910390f35b61014560048036038101906101409190611bfe565b6104c7565b005b610161600480360381019061015c9190611ca4565b61069f565b005b61016b610d4e565b6040516101789190611d00565b60405180910390f35b61019b60048036038101906101969190611d1b565b610d57565b6040516101a89190611d57565b60405180910390f35b6101cb60048036038101906101c69190611d1b565b610e06565b005b6101e760048036038101906101e29190611da8565b610f0b565b6040516101f49190611df7565b60405180910390f35b3073ffffffffffffffffffffffffffffffffffffffff163373ffffffffffffffffffffffffffffffffffffffff161461026b576040517f08c379a000000000000000000000000000000000000000000000000000000000815260040161026290611e6f565b60405180910390fd5b60008103156103205760008390506102f1828573ffffffffffffffffffffffffffffffffffffffff1663313ce5676040518163ffffffff1660e01b8152600401602060405180830381865afa1580156102c8573d6000803e3d6000fd5b505050506040513d601f19601f820116820180604052508101906102ec9190611ea4565b61044d565b915061031e83838373ffffffffffffffffffffffffffffffffffffffff16610f4b9092919063ffffffff16565b505b505050565b3073ffffffffffffffffffffffffffffffffffffffff163373ffffffffffffffffffffffffffffffffffffffff1614610393576040517f08c379a000000000000000000000000000000000000000000000000000000000815260040161038a90611e6f565b60405180910390fd5b6000810315610447576000849050610445848461041e858973ffffffffffffffffffffffffffffffffffffffff1663313ce5676040518163ffffffff1660e01b8152600401602060405180830381865afa1580156103f5573d6000803e3d6000fd5b505050506040513d601f19601f820116820180604052508101906104199190611ea4565b61044d565b8473ffffffffffffffffffffffffffffffffffffffff16610fca909392919063ffffffff16565b505b50505050565b60006012600a61045d9190612033565b8260ff16600a61046d919061207e565b8461047891906120c9565b610482919061213a565b905092915050565b600081600a6104999190612033565b601260ff16600a6104aa919061207e565b846104b591906120c9565b6104bf919061213a565b905092915050565b6104d33360003661104c565b806104dc61119f565b60010160008461ffff1661ffff16815260200190815260200160002060008201518160000160006101000a81548160ff02191690831515021790555060208201518160000160016101000a81548160ff02191690831515021790555060408201518160000160026101000a81548160ff02191690831515021790555060608201518160000160036101000a81548160ff02191690831515021790555060808201518160000160046101000a81548161ffff021916908361ffff16021790555060a08201518160000160066101000a81548161ffff021916908361ffff16021790555060c08201518160000160086101000a81548161ffff021916908361ffff16021790555060e082015181600001600a6101000a81548161ffff021916908361ffff16021790555061010082015181600001600c6101000a81548161ffff021916908361ffff16021790555061012082015181600001600e6101000a81548161ffff021916908361ffff1602179055506101408201518160000160106101000a81548161ffff021916908361ffff1602179055506101608201518160000160126101000a81548163ffffffff021916908363ffffffff1602179055509050505050565b6106ab3360003661104c565b600080600080600086868101906106c2919061225e565b94509450945094509450836106d561119f565b60020160008761ffff1661ffff16815260200190815260200160002090816106fd919061250d565b50600073ffffffffffffffffffffffffffffffffffffffff168273ffffffffffffffffffffffffffffffffffffffff1603610808578273ffffffffffffffffffffffffffffffffffffffff166338d52e0f6040518163ffffffff1660e01b8152600401602060405180830381865afa15801561077d573d6000803e3d6000fd5b505050506040513d601f19601f820116820180604052508101906107a191906125f4565b6107a961119f565b60040160008761ffff1661ffff16815260200190815260200160002060006101000a81548173ffffffffffffffffffffffffffffffffffffffff021916908373ffffffffffffffffffffffffffffffffffffffff16021790555061086c565b8161081161119f565b60040160008761ffff1661ffff16815260200190815260200160002060006101000a81548173ffffffffffffffffffffffffffffffffffffffff021916908373ffffffffffffffffffffffffffffffffffffffff1602179055505b6108ca8561ffff1661087c61119f565b60060160008673ffffffffffffffffffffffffffffffffffffffff1673ffffffffffffffffffffffffffffffffffffffff1681526020019081526020016000206111cc90919063ffffffff16565b50826108d461119f565b60030160008761ffff1661ffff16815260200190815260200160002060006101000a81548173ffffffffffffffffffffffffffffffffffffffff021916908373ffffffffffffffffffffffffffffffffffffffff160217905550604051806101800160405280600015158152602001600115158152602001600115158152602001600115158152602001600061ffff168152602001606461ffff168152602001600161ffff168152602001606461ffff168152602001600061ffff168152602001600061ffff168152602001600a61ffff168152602001600063ffffffff168152506109be61119f565b60010160008761ffff1661ffff16815260200190815260200160002060008201518160000160006101000a81548160ff02191690831515021790555060208201518160000160016101000a81548160ff02191690831515021790555060408201518160000160026101000a81548160ff02191690831515021790555060608201518160000160036101000a81548160ff02191690831515021790555060808201518160000160046101000a81548161ffff021916908361ffff16021790555060a08201518160000160066101000a81548161ffff021916908361ffff16021790555060c08201518160000160086101000a81548161ffff021916908361ffff16021790555060e082015181600001600a6101000a81548161ffff021916908361ffff16021790555061010082015181600001600c6101000a81548161ffff021916908361ffff16021790555061012082015181600001600e6101000a81548161ffff021916908361ffff1602179055506101408201518160000160106101000a81548161ffff021916908361ffff1602179055506101608201518160000160126101000a81548163ffffffff021916908363ffffffff16021790555090505080610b8661119f565b60010160008761ffff1661ffff16815260200190815260200160002060008201518160000160006101000a81548160ff02191690831515021790555060208201518160000160016101000a81548160ff02191690831515021790555060408201518160000160026101000a81548160ff02191690831515021790555060608201518160000160036101000a81548160ff02191690831515021790555060808201518160000160046101000a81548161ffff021916908361ffff16021790555060a08201518160000160066101000a81548161ffff021916908361ffff16021790555060c08201518160000160086101000a81548161ffff021916908361ffff16021790555060e082015181600001600a6101000a81548161ffff021916908361ffff16021790555061010082015181600001600c6101000a81548161ffff021916908361ffff16021790555061012082015181600001600e6101000a81548161ffff021916908361ffff1602179055506101408201518160000160106101000a81548161ffff021916908361ffff1602179055506101608201518160000160126101000a81548163ffffffff021916908363ffffffff16021790555090505050505050505050565b60006012905090565b600080610d6261119f565b905060008160030160008561ffff1661ffff16815260200190815260200160002060009054906101000a900473ffffffffffffffffffffffffffffffffffffffff169050610dfd8461ffff168360060160008473ffffffffffffffffffffffffffffffffffffffff1673ffffffffffffffffffffffffffffffffffffffff1681526020019081526020016000206111e690919063ffffffff16565b92505050919050565b610e123360003661104c565b6000610e1c61119f565b905060008160030160008461ffff1661ffff16815260200190815260200160002060009054906101000a900473ffffffffffffffffffffffffffffffffffffffff169050610ebe8361ffff16610e7061119f565b60060160008473ffffffffffffffffffffffffffffffffffffffff1673ffffffffffffffffffffffffffffffffffffffff16815260200190815260200160002061120090919063ffffffff16565b50610ec761119f565b60030160008461ffff1661ffff16815260200190815260200160002060006101000a81549073ffffffffffffffffffffffffffffffffffffffff0219169055505050565b6000601260ff16600a610f1e919061207e565b8260ff16600a610f2e919061207e565b84610f399190612621565b610f439190612699565b905092915050565b610fc5838473ffffffffffffffffffffffffffffffffffffffff1663a9059cbb8585604051602401610f7e929190612712565b604051602081830303815290604052915060e01b6020820180517bffffffffffffffffffffffffffffffffffffffffffffffffffffffff838183161783525050505061121a565b505050565b611046848573ffffffffffffffffffffffffffffffffffffffff166323b872dd868686604051602401610fff9392919061273b565b604051602081830303815290604052915060e01b6020820180517bffffffffffffffffffffffffffffffffffffffffffffffffffffffff838183161783525050505061121a565b50505050565b60006110566112b1565b905060008061108c6110666112e1565b8730888860009060049261107c9392919061277c565b9061108791906127ee565b611314565b91509150816111975760008163ffffffff1611156111595760018360000160146101000a81548160ff0219169083151502179055506110c96112e1565b73ffffffffffffffffffffffffffffffffffffffff166394c7d7ee8787876040518463ffffffff1660e01b81526004016111059392919061288b565b600060405180830381600087803b15801561111f57600080fd5b505af1158015611133573d6000803e3d6000fd5b5050505060008360000160146101000a81548160ff021916908315150217905550611196565b856040517f068ca9d800000000000000000000000000000000000000000000000000000000815260040161118d91906128bd565b60405180910390fd5b5b505050505050565b6000807f2eec39e2b6bcfb5f1ee2be0b6e9d5a470a45585b1e2f7f291af9fb9f551763d090508091505090565b60006111de836000018360001b61143a565b905092915050565b60006111f8836000018360001b6114aa565b905092915050565b6000611212836000018360001b6114cd565b905092915050565b6000611245828473ffffffffffffffffffffffffffffffffffffffff166115e190919063ffffffff16565b9050600081511415801561126a57508080602001905181019061126891906128ed565b155b156112ac57826040517f5274afe70000000000000000000000000000000000000000000000000000000081526004016112a391906128bd565b60405180910390fd5b505050565b6000807ff3177357ab46d8af007ab3fdb9af81da189e1068fefdc0073dca88a2cab40a0060001b90508091505090565b60006112eb6112b1565b60000160009054906101000a900473ffffffffffffffffffffffffffffffffffffffff16905090565b6000806000808773ffffffffffffffffffffffffffffffffffffffff1687878760405160240161134693929190612929565b60405160208183030381529060405263b700961360e01b6020820180517bffffffffffffffffffffffffffffffffffffffffffffffffffffffff838183161783525050505060405161139891906129d1565b600060405180830381855afa9150503d80600081146113d3576040519150601f19603f3d011682016040523d82523d6000602084013e6113d8565b606091505b5091509150811561142f57604081511061140d578080602001905181019061140091906129fd565b809450819550505061142e565b602081511061142d578080602001905181019061142a91906128ed565b93505b5b5b505094509492505050565b600061144683836114aa565b61149f5782600001829080600181540180825580915050600190039060005260206000200160009091909190915055826000018054905083600101600084815260200190815260200160002081905550600190506114a4565b600090505b92915050565b600080836001016000848152602001908152602001600020541415905092915050565b600080836001016000848152602001908152602001600020549050600081146115d55760006001826114ff9190612a3d565b90506000600186600001805490506115179190612a3d565b905080821461158657600086600001828154811061153857611537612a71565b5b906000526020600020015490508087600001848154811061155c5761155b612a71565b5b90600052602060002001819055508387600101600083815260200190815260200160002081905550505b8560000180548061159a57611599612aa0565b5b6001900381819060005260206000200160009055905585600101600086815260200190815260200160002060009055600193505050506115db565b60009150505b92915050565b60606115ef838360006115f7565b905092915050565b60608147101561163e57306040517fcd78605900000000000000000000000000000000000000000000000000000000815260040161163591906128bd565b60405180910390fd5b6000808573ffffffffffffffffffffffffffffffffffffffff16848660405161166791906129d1565b60006040518083038185875af1925050503d80600081146116a4576040519150601f19603f3d011682016040523d82523d6000602084013e6116a9565b606091505b50915091506116b98683836116c4565b925050509392505050565b6060826116d9576116d482611753565b61174b565b60008251148015611701575060008473ffffffffffffffffffffffffffffffffffffffff163b145b1561174357836040517f9996b31500000000000000000000000000000000000000000000000000000000815260040161173a91906128bd565b60405180910390fd5b81905061174c565b5b9392505050565b6000815111156117665780518082602001fd5b6040517f1425ea4200000000000000000000000000000000000000000000000000000000815260040160405180910390fd5b6000604051905090565b600080fd5b600080fd5b600073ffffffffffffffffffffffffffffffffffffffff82169050919050565b60006117d7826117ac565b9050919050565b6117e7816117cc565b81146117f257600080fd5b50565b600081359050611804816117de565b92915050565b6000819050919050565b61181d8161180a565b811461182857600080fd5b50565b60008135905061183a81611814565b92915050565b600080600060608486031215611859576118586117a2565b5b6000611867868287016117f5565b9350506020611878868287016117f5565b92505060406118898682870161182b565b9150509250925092565b600080600080608085870312156118ad576118ac6117a2565b5b60006118bb878288016117f5565b94505060206118cc878288016117f5565b93505060406118dd878288016117f5565b92505060606118ee8782880161182b565b91505092959194509250565b600060ff82169050919050565b611910816118fa565b811461191b57600080fd5b50565b60008135905061192d81611907565b92915050565b6000806040838503121561194a576119496117a2565b5b60006119588582860161182b565b92505060206119698582860161191e565b9150509250929050565b61197c8161180a565b82525050565b60006020820190506119976000830184611973565b92915050565b600061ffff82169050919050565b6119b48161199d565b81146119bf57600080fd5b50565b6000813590506119d1816119ab565b92915050565b600080fd5b6000601f19601f8301169050919050565b7f4e487b7100000000000000000000000000000000000000000000000000000000600052604160045260246000fd5b611a25826119dc565b810181811067ffffffffffffffff82111715611a4457611a436119ed565b5b80604052505050565b6000611a57611798565b9050611a638282611a1c565b919050565b60008115159050919050565b611a7d81611a68565b8114611a8857600080fd5b50565b600081359050611a9a81611a74565b92915050565b600063ffffffff82169050919050565b611ab981611aa0565b8114611ac457600080fd5b50565b600081359050611ad681611ab0565b92915050565b60006101808284031215611af357611af26119d7565b5b611afe610180611a4d565b90506000611b0e84828501611a8b565b6000830152506020611b2284828501611a8b565b6020830152506040611b3684828501611a8b565b6040830152506060611b4a84828501611a8b565b6060830152506080611b5e848285016119c2565b60808301525060a0611b72848285016119c2565b60a08301525060c0611b86848285016119c2565b60c08301525060e0611b9a848285016119c2565b60e083015250610100611baf848285016119c2565b61010083015250610120611bc5848285016119c2565b61012083015250610140611bdb848285016119c2565b61014083015250610160611bf184828501611ac7565b6101608301525092915050565b6000806101a08385031215611c1657611c156117a2565b5b6000611c24858286016119c2565b9250506020611c3585828601611adc565b9150509250929050565b600080fd5b600080fd5b600080fd5b60008083601f840112611c6457611c63611c3f565b5b8235905067ffffffffffffffff811115611c8157611c80611c44565b5b602083019150836001820283011115611c9d57611c9c611c49565b5b9250929050565b60008060208385031215611cbb57611cba6117a2565b5b600083013567ffffffffffffffff811115611cd957611cd86117a7565b5b611ce585828601611c4e565b92509250509250929050565b611cfa816118fa565b82525050565b6000602082019050611d156000830184611cf1565b92915050565b600060208284031215611d3157611d306117a2565b5b6000611d3f848285016119c2565b91505092915050565b611d5181611a68565b82525050565b6000602082019050611d6c6000830184611d48565b92915050565b6000819050919050565b611d8581611d72565b8114611d9057600080fd5b50565b600081359050611da281611d7c565b92915050565b60008060408385031215611dbf57611dbe6117a2565b5b6000611dcd85828601611d93565b9250506020611dde8582860161191e565b9150509250929050565b611df181611d72565b82525050565b6000602082019050611e0c6000830184611de8565b92915050565b600082825260208201905092915050565b7f4163636573734d616e616765643a206f6e6c792073656c660000000000000000600082015250565b6000611e59601883611e12565b9150611e6482611e23565b602082019050919050565b60006020820190508181036000830152611e8881611e4c565b9050919050565b600081519050611e9e81611907565b92915050565b600060208284031215611eba57611eb96117a2565b5b6000611ec884828501611e8f565b91505092915050565b7f4e487b7100000000000000000000000000000000000000000000000000000000600052601160045260246000fd5b60008160011c9050919050565b6000808291508390505b6001851115611f5757808604811115611f3357611f32611ed1565b5b6001851615611f425780820291505b8081029050611f5085611f00565b9450611f17565b94509492505050565b600082611f70576001905061202c565b81611f7e576000905061202c565b8160018114611f945760028114611f9e57611fcd565b600191505061202c565b60ff841115611fb057611faf611ed1565b5b8360020a915084821115611fc757611fc6611ed1565b5b5061202c565b5060208310610133831016604e8410600b84101617156120025782820a905083811115611ffd57611ffc611ed1565b5b61202c565b61200f8484846001611f0d565b9250905081840481111561202657612025611ed1565b5b81810290505b9392505050565b600061203e8261180a565b9150612049836118fa565b92506120767fffffffffffffffffffffffffffffffffffffffffffffffffffffffffffffffff8484611f60565b905092915050565b60006120898261180a565b91506120948361180a565b92506120c17fffffffffffffffffffffffffffffffffffffffffffffffffffffffffffffffff8484611f60565b905092915050565b60006120d48261180a565b91506120df8361180a565b92508282026120ed8161180a565b9150828204841483151761210457612103611ed1565b5b5092915050565b7f4e487b7100000000000000000000000000000000000000000000000000000000600052601260045260246000fd5b60006121458261180a565b91506121508361180a565b9250826121605761215f61210b565b5b828204905092915050565b600080fd5b600067ffffffffffffffff82111561218b5761218a6119ed565b5b612194826119dc565b9050602081019050919050565b82818337600083830152505050565b60006121c36121be84612170565b611a4d565b9050828152602081018484840111156121df576121de61216b565b5b6121ea8482856121a1565b509392505050565b600082601f83011261220757612206611c3f565b5b81356122178482602086016121b0565b91505092915050565b600061222b826117ac565b9050919050565b61223b81612220565b811461224657600080fd5b50565b60008135905061225881612232565b92915050565b6000806000806000610200868803121561227b5761227a6117a2565b5b6000612289888289016119c2565b955050602086013567ffffffffffffffff8111156122aa576122a96117a7565b5b6122b6888289016121f2565b94505060406122c788828901612249565b93505060606122d888828901612249565b92505060806122e988828901611adc565b9150509295509295909350565b600081519050919050565b7f4e487b7100000000000000000000000000000000000000000000000000000000600052602260045260246000fd5b6000600282049050600182168061234857607f821691505b60208210810361235b5761235a612301565b5b50919050565b60008190508160005260206000209050919050565b60006020601f8301049050919050565b600082821b905092915050565b6000600883026123c37fffffffffffffffffffffffffffffffffffffffffffffffffffffffffffffffff82612386565b6123cd8683612386565b95508019841693508086168417925050509392505050565b6000819050919050565b600061240a6124056124008461180a565b6123e5565b61180a565b9050919050565b6000819050919050565b612424836123ef565b61243861243082612411565b848454612393565b825550505050565b600090565b61244d612440565b61245881848461241b565b505050565b5b8181101561247c57612471600082612445565b60018101905061245e565b5050565b601f8211156124c15761249281612361565b61249b84612376565b810160208510156124aa578190505b6124be6124b685612376565b83018261245d565b50505b505050565b600082821c905092915050565b60006124e4600019846008026124c6565b1980831691505092915050565b60006124fd83836124d3565b9150826002028217905092915050565b612516826122f6565b67ffffffffffffffff81111561252f5761252e6119ed565b5b6125398254612330565b612544828285612480565b600060209050601f8311600181146125775760008415612565578287015190505b61256f85826124f1565b8655506125d7565b601f19841661258586612361565b60005b828110156125ad57848901518255600182019150602085019450602081019050612588565b868310156125ca57848901516125c6601f8916826124d3565b8355505b6001600288020188555050505b505050505050565b6000815190506125ee816117de565b92915050565b60006020828403121561260a576126096117a2565b5b6000612618848285016125df565b91505092915050565b600061262c82611d72565b915061263783611d72565b925082820261264581611d72565b91507f8000000000000000000000000000000000000000000000000000000000000000841460008412161561267d5761267c611ed1565b5b828205841483151761269257612691611ed1565b5b5092915050565b60006126a482611d72565b91506126af83611d72565b9250826126bf576126be61210b565b5b600160000383147f8000000000000000000000000000000000000000000000000000000000000000831416156126f8576126f7611ed1565b5b828205905092915050565b61270c816117cc565b82525050565b60006040820190506127276000830185612703565b6127346020830184611973565b9392505050565b60006060820190506127506000830186612703565b61275d6020830185612703565b61276a6040830184611973565b949350505050565b600080fd5b600080fd5b600080858511156127905761278f612772565b5b838611156127a1576127a0612777565b5b6001850283019150848603905094509492505050565b600082905092915050565b60007fffffffff0000000000000000000000000000000000000000000000000000000082169050919050565b60006127fa83836127b7565b8261280581356127c2565b92506004821015612845576128407fffffffff0000000000000000000000000000000000000000000000000000000083600403600802612386565b831692505b505092915050565b600082825260208201905092915050565b600061286a838561284d565b93506128778385846121a1565b612880836119dc565b840190509392505050565b60006040820190506128a06000830186612703565b81810360208301526128b381848661285e565b9050949350505050565b60006020820190506128d26000830184612703565b92915050565b6000815190506128e781611a74565b92915050565b600060208284031215612903576129026117a2565b5b6000612911848285016128d8565b91505092915050565b612923816127c2565b82525050565b600060608201905061293e6000830186612703565b61294b6020830185612703565b612958604083018461291a565b949350505050565b600081519050919050565b600081905092915050565b60005b83811015612994578082015181840152602081019050612979565b60008484015250505050565b60006129ab82612960565b6129b5818561296b565b93506129c5818560208601612976565b80840191505092915050565b60006129dd82846129a0565b915081905092915050565b6000815190506129f781611ab0565b92915050565b60008060408385031215612a1457612a136117a2565b5b6000612a22858286016128d8565b9250506020612a33858286016129e8565b9150509250929050565b6000612a488261180a565b9150612a538361180a565b9250828203905081811115612a6b57612a6a611ed1565b5b92915050565b7f4e487b7100000000000000000000000000000000000000000000000000000000600052603260045260246000fd5b7f4e487b7100000000000000000000000000000000000000000000000000000000600052603160045260246000fdfea2646970667358221220079fc9669072758cca00910a0320a2fe800f641fddc32d7ff0b10f4f706376ec64736f6c63430008140033",
  "devdoc": {
    "errors": {
      "AddressEmptyCode(address)": [
        {
          "details": "There's no code at `target` (it is not a contract)."
        }
      ],
      "AddressInsufficientBalance(address)": [
        {
          "details": "The ETH balance of the account is not enough to perform the operation."
        }
      ],
      "FailedInnerCall()": [
        {
          "details": "A call to an address target failed. The target may have reverted."
        }
      ],
      "SafeERC20FailedOperation(address)": [
        {
          "details": "An operation with an ERC20 token failed."
        }
      ]
    },
    "kind": "dev",
    "methods": {
      "formatCollateral(uint256,uint8)": {
        "details": "Formats the collateral amount by adjusting the number of decimal places.",
        "params": {
          "amount": "The original collateral amount. 18 decimals",
          "collateralTokenDigits": "The number of decimal places for the collateral token."
        },
        "returns": {
          "_0": "The formatted collateral amount."
        }
      },
      "getUSDDecimals()": {
        "details": "Retrieves the number of decimal places for USD.",
        "returns": {
          "_0": "The number of decimal places for USD."
        }
      },
      "parseVaultAsset(uint256,uint8)": {
        "details": "Parses the vault asset amount by adjusting the number of decimal places.",
        "params": {
          "amount": "The original asset amount in vault.",
          "originDigits": "The number of decimal places for the original asset."
        },
        "returns": {
          "_0": "The parsed vault asset amount."
        }
      },
      "parseVaultAssetSigned(int256,uint8)": {
        "details": "This library contains utility functions for transferring assets.",
        "params": {
          "amount": "The amount of assets to transfer in integer format with decimal precision.",
          "collateralTokenDigits": "The decimal precision of the collateral token."
        },
        "returns": {
          "_0": "The transferred asset amount converted to integer with decimal precision for the USD stablecoin. This function is internal and can only be accessed within the current contract or library."
        }
      },
      "transferIn(address,address,address,uint256)": {
        "details": "Transfers a specified amount of tokens from a given address to another address.",
        "params": {
          "_from": "The address from which the tokens will be transferred.",
          "_to": "The address to which the tokens will be transferred.",
          "_tokenAmount": "The amount of tokens to be transferred.",
          "tokenAddress": "The address of the token."
        }
      },
      "transferOut(address,address,uint256)": {
        "details": "Transfers a specified amount of tokens to a given address.",
        "params": {
          "_to": "The address to which the tokens will be transferred.",
          "_tokenAmount": "The amount of tokens to be transferred.",
          "tokenAddress": "The address of the token."
        }
      }
    },
    "version": 1
  },
  "userdoc": {
    "kind": "user",
    "methods": {},
    "version": 1
  },
  "storageLayout": {
    "storage": [],
    "types": null
  }
}