{
  "address": "0xCa531FF3c68319C43F085b231f6a2BE4C30838B4",
  "abi": [
    {
      "inputs": [
        {
          "internalType": "address",
          "name": "authority",
          "type": "address"
        }
      ],
      "name": "AccessManagedInvalidAuthority",
      "type": "error"
    },
    {
      "inputs": [
        {
          "internalType": "address",
          "name": "caller",
          "type": "address"
        },
        {
          "internalType": "uint32",
          "name": "delay",
          "type": "uint32"
        }
      ],
      "name": "AccessManagedRequiredDelay",
      "type": "error"
    },
    {
      "inputs": [
        {
          "internalType": "address",
          "name": "caller",
          "type": "address"
        }
      ],
      "name": "AccessManagedUnauthorized",
      "type": "error"
    },
    {
      "inputs": [
        {
          "internalType": "int256",
          "name": "value",
          "type": "int256"
        }
      ],
      "name": "SafeCastOverflowedIntToUint",
      "type": "error"
    },
    {
      "inputs": [
        {
          "internalType": "uint256",
          "name": "value",
          "type": "uint256"
        }
      ],
      "name": "SafeCastOverflowedUintToInt",
      "type": "error"
    },
    {
      "anonymous": false,
      "inputs": [
        {
          "indexed": true,
          "internalType": "address",
          "name": "account",
          "type": "address"
        },
        {
          "indexed": false,
          "internalType": "bool",
          "name": "isLong",
          "type": "bool"
        },
        {
          "indexed": false,
          "internalType": "bool",
          "name": "isIncrease",
          "type": "bool"
        },
        {
          "indexed": false,
          "internalType": "uint256",
          "name": "orderID",
          "type": "uint256"
        },
        {
          "indexed": false,
          "internalType": "uint16",
          "name": "market",
          "type": "uint16"
        },
        {
          "indexed": false,
          "internalType": "uint8",
          "name": "reason",
          "type": "uint8"
        },
        {
          "indexed": false,
          "internalType": "string",
          "name": "reasonStr",
          "type": "string"
        },
        {
          "indexed": false,
          "internalType": "uint256",
          "name": "price",
          "type": "uint256"
        },
        {
          "indexed": false,
          "internalType": "int256",
          "name": "dPNL",
          "type": "int256"
        }
      ],
      "name": "DeleteOrder",
      "type": "event"
    },
    {
      "anonymous": false,
      "inputs": [
        {
          "indexed": true,
          "internalType": "address",
          "name": "account",
          "type": "address"
        },
        {
          "indexed": false,
          "internalType": "uint256",
          "name": "size",
          "type": "uint256"
        },
        {
          "indexed": false,
          "internalType": "uint256",
          "name": "collateral",
          "type": "uint256"
        }
      ],
      "name": "RemovePosition",
      "type": "event"
    },
    {
      "anonymous": false,
      "inputs": [
        {
          "indexed": true,
          "internalType": "address",
          "name": "account",
          "type": "address"
        },
        {
          "indexed": false,
          "internalType": "uint256",
          "name": "size",
          "type": "uint256"
        },
        {
          "indexed": false,
          "internalType": "uint256",
          "name": "collateral",
          "type": "uint256"
        }
      ],
      "name": "UpdatePosition",
      "type": "event"
    },
    {
      "inputs": [
        {
          "components": [
            {
              "internalType": "bytes32",
              "name": "refCode",
              "type": "bytes32"
            },
            {
              "internalType": "uint128",
              "name": "collateral",
              "type": "uint128"
            },
            {
              "internalType": "uint128",
              "name": "size",
              "type": "uint128"
            },
            {
              "internalType": "uint256",
              "name": "price",
              "type": "uint256"
            },
            {
              "internalType": "uint256",
              "name": "tp",
              "type": "uint256"
            },
            {
              "internalType": "bool",
              "name": "triggerAbove",
              "type": "bool"
            },
            {
              "internalType": "bool",
              "name": "isFromMarket",
              "type": "bool"
            },
            {
              "internalType": "bool",
              "name": "isKeepLev",
              "type": "bool"
            },
            {
              "internalType": "bool",
              "name": "isKeepLevTP",
              "type": "bool"
            },
            {
              "internalType": "bool",
              "name": "isKeepLevSL",
              "type": "bool"
            },
            {
              "internalType": "uint64",
              "name": "orderID",
              "type": "uint64"
            },
            {
              "internalType": "uint64",
              "name": "pairId",
              "type": "uint64"
            },
            {
              "internalType": "uint64",
              "name": "fromId",
              "type": "uint64"
            },
            {
              "internalType": "uint32",
              "name": "updatedAtBlock",
              "type": "uint32"
            },
            {
              "internalType": "uint8",
              "name": "extra0",
              "type": "uint8"
            },
            {
              "internalType": "address",
              "name": "account",
              "type": "address"
            },
            {
              "internalType": "uint96",
              "name": "extra1",
              "type": "uint96"
            },
            {
              "internalType": "uint256",
              "name": "sl",
              "type": "uint256"
            },
            {
              "internalType": "bool",
              "name": "isIncrease",
              "type": "bool"
            },
            {
              "internalType": "bool",
              "name": "isLong",
              "type": "bool"
            },
            {
              "internalType": "uint16",
              "name": "market",
              "type": "uint16"
            },
            {
              "internalType": "uint96",
              "name": "extra2",
              "type": "uint96"
            },
            {
              "internalType": "uint128",
              "name": "gas",
              "type": "uint128"
            },
            {
              "internalType": "uint8",
              "name": "version",
              "type": "uint8"
            }
          ],
          "internalType": "struct Order.Props",
          "name": "exeOrder",
          "type": "tuple"
        },
        {
          "components": [
            {
              "internalType": "uint256",
              "name": "oraclePrice",
              "type": "uint256"
            },
            {
              "internalType": "uint256",
              "name": "pay",
              "type": "uint256"
            },
            {
              "internalType": "uint256",
              "name": "slippage",
              "type": "uint256"
            },
            {
              "internalType": "uint16",
              "name": "market",
              "type": "uint16"
            },
            {
              "internalType": "bool",
              "name": "isLong",
              "type": "bool"
            },
            {
              "internalType": "bool",
              "name": "isOpen",
              "type": "bool"
            },
            {
              "internalType": "bool",
              "name": "isCreate",
              "type": "bool"
            },
            {
              "internalType": "bool",
              "name": "isFromMarket",
              "type": "bool"
            },
            {
              "internalType": "uint256",
              "name": "sizeDelta",
              "type": "uint256"
            },
            {
              "internalType": "uint256",
              "name": "price",
              "type": "uint256"
            },
            {
              "internalType": "uint256",
              "name": "collateralDelta",
              "type": "uint256"
            },
            {
              "internalType": "uint256",
              "name": "collateral",
              "type": "uint256"
            },
            {
              "internalType": "uint256",
              "name": "tp",
              "type": "uint256"
            },
            {
              "internalType": "uint256",
              "name": "sl",
              "type": "uint256"
            },
            {
              "internalType": "uint64",
              "name": "orderId",
              "type": "uint64"
            },
            {
              "internalType": "address",
              "name": "account",
              "type": "address"
            },
            {
              "internalType": "bool",
              "name": "isExec",
              "type": "bool"
            },
            {
              "internalType": "uint8",
              "name": "liqState",
              "type": "uint8"
            },
            {
              "internalType": "uint64",
              "name": "fromOrder",
              "type": "uint64"
            },
            {
              "internalType": "bytes32",
              "name": "refCode",
              "type": "bytes32"
            },
            {
              "internalType": "uint8",
              "name": "execNum",
              "type": "uint8"
            },
            {
              "internalType": "bool",
              "name": "isKeepLev",
              "type": "bool"
            },
            {
              "internalType": "bool",
              "name": "isKeepLevTP",
              "type": "bool"
            },
            {
              "internalType": "bool",
              "name": "isKeepLevSL",
              "type": "bool"
            },
            {
              "internalType": "bool",
              "name": "triggerAbove",
              "type": "bool"
            },
            {
              "internalType": "uint128",
              "name": "gas",
              "type": "uint128"
            }
          ],
          "internalType": "struct MarketDataTypes.Cache",
          "name": "_params",
          "type": "tuple"
        }
      ],
      "name": "execAddOrderKey",
      "outputs": [],
      "stateMutability": "nonpayable",
      "type": "function"
    },
    {
      "inputs": [
        {
          "internalType": "uint16",
          "name": "market",
          "type": "uint16"
        },
        {
          "internalType": "address",
          "name": "account",
          "type": "address"
        }
      ],
      "name": "getAccountSizeOfMarkets",
      "outputs": [
        {
          "internalType": "uint256",
          "name": "sizesL",
          "type": "uint256"
        },
        {
          "internalType": "uint256",
          "name": "sizesS",
          "type": "uint256"
        }
      ],
      "stateMutability": "view",
      "type": "function"
    },
    {
      "inputs": [
        {
          "internalType": "uint16",
          "name": "market",
          "type": "uint16"
        }
      ],
      "name": "getGlobalSize",
      "outputs": [
        {
          "internalType": "uint256",
          "name": "sizesLong",
          "type": "uint256"
        },
        {
          "internalType": "uint256",
          "name": "sizesShort",
          "type": "uint256"
        }
      ],
      "stateMutability": "view",
      "type": "function"
    },
    {
      "inputs": [
        {
          "components": [
            {
              "internalType": "uint256",
              "name": "oraclePrice",
              "type": "uint256"
            },
            {
              "internalType": "uint256",
              "name": "pay",
              "type": "uint256"
            },
            {
              "internalType": "uint256",
              "name": "slippage",
              "type": "uint256"
            },
            {
              "internalType": "uint16",
              "name": "market",
              "type": "uint16"
            },
            {
              "internalType": "bool",
              "name": "isLong",
              "type": "bool"
            },
            {
              "internalType": "bool",
              "name": "isOpen",
              "type": "bool"
            },
            {
              "internalType": "bool",
              "name": "isCreate",
              "type": "bool"
            },
            {
              "internalType": "bool",
              "name": "isFromMarket",
              "type": "bool"
            },
            {
              "internalType": "uint256",
              "name": "sizeDelta",
              "type": "uint256"
            },
            {
              "internalType": "uint256",
              "name": "price",
              "type": "uint256"
            },
            {
              "internalType": "uint256",
              "name": "collateralDelta",
              "type": "uint256"
            },
            {
              "internalType": "uint256",
              "name": "collateral",
              "type": "uint256"
            },
            {
              "internalType": "uint256",
              "name": "tp",
              "type": "uint256"
            },
            {
              "internalType": "uint256",
              "name": "sl",
              "type": "uint256"
            },
            {
              "internalType": "uint64",
              "name": "orderId",
              "type": "uint64"
            },
            {
              "internalType": "address",
              "name": "account",
              "type": "address"
            },
            {
              "internalType": "bool",
              "name": "isExec",
              "type": "bool"
            },
            {
              "internalType": "uint8",
              "name": "liqState",
              "type": "uint8"
            },
            {
              "internalType": "uint64",
              "name": "fromOrder",
              "type": "uint64"
            },
            {
              "internalType": "bytes32",
              "name": "refCode",
              "type": "bytes32"
            },
            {
              "internalType": "uint8",
              "name": "execNum",
              "type": "uint8"
            },
            {
              "internalType": "bool",
              "name": "isKeepLev",
              "type": "bool"
            },
            {
              "internalType": "bool",
              "name": "isKeepLevTP",
              "type": "bool"
            },
            {
              "internalType": "bool",
              "name": "isKeepLevSL",
              "type": "bool"
            },
            {
              "internalType": "bool",
              "name": "triggerAbove",
              "type": "bool"
            },
            {
              "internalType": "uint128",
              "name": "gas",
              "type": "uint128"
            }
          ],
          "internalType": "struct MarketDataTypes.Cache",
          "name": "_inputs",
          "type": "tuple"
        }
      ],
      "name": "increasePositionWithOrders",
      "outputs": [],
      "stateMutability": "nonpayable",
      "type": "function"
    }
  ],
  "transactionHash": "0x6a762edb6de9b2cb75816479952bc3184ac1626a99ee1ee807a9e94b5a71402e",
  "args": [],
  "numDeployments": 3,
  "solcInputHash": "def68a3016833b86372e770f573cfe95",
  "bytecode": "0x608060405234801561001057600080fd5b506153c2806100206000396000f3fe608060405234801561001057600080fd5b506004361061004c5760003560e01c8063599ec4ee146100515780638593090f1461006d578063a01e7bc61461009e578063db1d09b7146100cf575b600080fd5b61006b60048036038101906100669190613968565b6100eb565b005b610087600480360381019061008291906139aa565b610152565b6040516100959291906139f9565b60405180910390f35b6100b860048036038101906100b39190613a22565b6101d3565b6040516100c69291906139f9565b60405180910390f35b6100e960048036038101906100e49190613a4f565b610251565b005b6100f73360003661057d565b610100826106d0565b8060a00151610144576040517f08c379a000000000000000000000000000000000000000000000000000000000815260040161013b90613ada565b60405180910390fd5b61014e8282610799565b5050565b600080600061016085610ac1565b905060005b81518110156101ca5760008061019584848151811061018757610186613afa565b5b602002602001015188610b64565b9150915081866101a59190613b58565b955080856101b39190613b58565b9450505080806101c290613b8c565b915050610165565b50509250929050565b60008060006101e184610ac1565b905060005b815181101561024a5760008061021584848151811061020857610207613afa565b5b6020026020010151610c3f565b9150915081866102259190613b58565b955080856102339190613b58565b94505050808061024290613b8c565b9150506101e6565b5050915091565b6102648160600151826101400151610c9e565b60008160400151148015610287575080610240015167ffffffffffffffff166000145b1561029857601e8160400181815250505b6102a0610ca2565b73ffffffffffffffffffffffffffffffffffffffff1663db611225826060015183608001516040518363ffffffff1660e01b81526004016102e2929190613bf2565b602060405180830381865afa1580156102ff573d6000803e3d6000fd5b505050506040513d601f19601f820116820180604052508101906103239190613c30565b8160000181815250506000610360826101e001518360600151600085610100015114610353578460000151610356565b60005b8560800151610caa565b9050600061036e8383610df2565b9050600081121561037e57600090505b60006103aa84606001516103a5866060015187608001518860a00151896101e00151611089565b6110fe565b90508015156000151514806103c457506000846101000151145b156103d15750505061057a565b6000808561018001511415801561040f575084608001511515856101200151866101800151111515148061040e5750846101200151856101800151145b5b9050600080866101a001511415801561044f5750856101a0015186610120015111151586608001511515148061044e5750856101a00151866101200151145b5b90506060600083801561045f5750825b61047f57838061046c5750825b61047757600061047a565b60015b610482565b60025b60ff1690506000811115610566578067ffffffffffffffff8111156104aa576104a96131f0565b5b6040519080825280602002602001820160405280156104e357816020015b6104d0612f65565b8152602001906001900390816104c85790505b5091506105088887866104fb578a6101a00151610502565b8a61018001515b87611106565b8260008151811061051c5761051b613afa565b5b6020026020010181905250600281036105615761054188878a6101a001516000611106565b8260018151811061055557610554613afa565b5b60200260200101819052505b610572565b5050505050505061057a565b505050505050505b50565b60006105876112ed565b90506000806105bd61059761131d565b873088886000906004926105ad93929190613c67565b906105b89190613ce6565b611350565b91509150816106c85760008163ffffffff16111561068a5760018360000160146101000a81548160ff0219169083151502179055506105fa61131d565b73ffffffffffffffffffffffffffffffffffffffff166394c7d7ee8787876040518463ffffffff1660e01b815260040161063693929190613da1565b600060405180830381600087803b15801561065057600080fd5b505af1158015610664573d6000803e3d6000fd5b5050505060008360000160146101000a81548160ff0219169083151502179055506106c7565b856040517f068ca9d80000000000000000000000000000000000000000000000000000000081526004016106be9190613dd3565b60405180910390fd5b5b505050505050565b600073ffffffffffffffffffffffffffffffffffffffff16816101e0015173ffffffffffffffffffffffffffffffffffffffff1603610744576040517f08c379a000000000000000000000000000000000000000000000000000000000815260040161073b90613e3a565b60405180910390fd5b600081610140015167ffffffffffffffff1603610796576040517f08c379a000000000000000000000000000000000000000000000000000000000815260040161078d90613e3a565b60405180910390fd5b50565b6107a1610ca2565b73ffffffffffffffffffffffffffffffffffffffff1663db611225826060015183608001516040518363ffffffff1660e01b81526004016107e3929190613bf2565b602060405180830381865afa158015610800573d6000803e3d6000fd5b505050506040513d601f19601f820116820180604052508101906108249190613c30565b816000018181525050600073ffffffffffffffffffffffffffffffffffffffff16826101e0015173ffffffffffffffffffffffffffffffffffffffff16036108a1576040517f08c379a000000000000000000000000000000000000000000000000000000000815260040161089890613ea6565b60405180910390fd5b6108aa81611476565b6108d781606001518260a001518360800151856101e0015186610140015167ffffffffffffffff166114b0565b50600181610280018181516108ec9190613ec6565b91509060ff16908160ff16815250506109128160000151836114da90919063ffffffff16565b8260c00151610956576040518060400160405280601b81526020017f506f736974696f6e4164644d67723a7472696767657261626f7665000000000081525061098d565b6040518060400160405280601e81526020017f506f736974696f6e4164644d67723a6d61726b657420736c69707061676500008152505b906109ce576040517f08c379a00000000000000000000000000000000000000000000000000000000081526004016109c59190613f69565b60405180910390fd5b5081602001516fffffffffffffffffffffffffffffffff1681610140015114610a2c576040517f08c379a0000000000000000000000000000000000000000000000000000000008152600401610a2390613ffd565b60405180910390fd5b816101e0015173ffffffffffffffffffffffffffffffffffffffff167f41d5395cd16fc4604df1bdb606cb21b8df927081e897d9137fbae993cc44ddd982608001518360a00151856101400151856060015160036007811115610a9257610a9161401d565b5b87600001516000604051610aac97969594939291906140d5565b60405180910390a2610abd81610251565b5050565b60606000610acd6114f7565b60030160008461ffff1661ffff16815260200190815260200160002060009054906101000a900473ffffffffffffffffffffffffffffffffffffffff169050610b5c610b176114f7565b60060160008373ffffffffffffffffffffffffffffffffffffffff1673ffffffffffffffffffffffffffffffffffffffff168152602001908152602001600020611524565b915050919050565b6000806000610b71611545565b9050806000016000610b84876001611572565b815260200190815260200160002060008573ffffffffffffffffffffffffffffffffffffffff1673ffffffffffffffffffffffffffffffffffffffff168152602001908152602001600020600001549250806000016000610be6876000611572565b815260200190815260200160002060008573ffffffffffffffffffffffffffffffffffffffff1673ffffffffffffffffffffffffffffffffffffffff168152602001908152602001600020600001549150509250929050565b6000806000610c4c611545565b9050806002016000610c5f866001611572565b8152602001908152602001600020600001549250806002016000610c84866000611572565b815260200190815260200160002060000154915050915091565b5050565b600030905090565b610cb2613083565b610cba611545565b6000016000610cc98685611572565b815260200190815260200160002060008673ffffffffffffffffffffffffffffffffffffffff1673ffffffffffffffffffffffffffffffffffffffff1681526020019081526020016000206040518061012001604052908160008201548152602001600182015481526020016002820154815260200160038201548152602001600482015481526020016005820160009054906101000a900460ff161515151581526020016005820160019054906101000a900463ffffffff1663ffffffff1663ffffffff1681526020016005820160059054906101000a900461ffff1661ffff1661ffff1681526020016005820160079054906101000a900468ffffffffffffffffff1668ffffffffffffffffff1668ffffffffffffffffff16815250509050949350505050565b6000806000610e048560600151610c3f565b91509150610e106115a7565b73ffffffffffffffffffffffffffffffffffffffff1663a256a116866060015184846040518463ffffffff1660e01b8152600401610e5093929190614158565b600060405180830381600087803b158015610e6a57600080fd5b505af1158015610e7e573d6000803e3d6000fd5b505050506000610e8c6115a7565b73ffffffffffffffffffffffffffffffffffffffff16632ba88be98787604051602001610eba92919061451c565b6040516020818303038152906040526040518263ffffffff1660e01b8152600401610ee5919061458b565b600060405180830381865afa158015610f02573d6000803e3d6000fd5b505050506040513d6000823e3d601f19601f82011682018060405250810190610f2b91906146a6565b90506000610f38826115af565b905060008761010001511115610f7957610f74878784604051602001610f609392919061479e565b604051602081830303815290604052611601565b610fbb565b610fba600287602001518961014001518960000151600086604051602001610fa696959493929190614855565b604051602081830303815290604052611604565b5b6000610fc56115a7565b73ffffffffffffffffffffffffffffffffffffffff166370802dac89606001518a608001516040518363ffffffff1660e01b8152600401611007929190613bf2565b602060405180830381865afa158015611024573d6000803e3d6000fd5b505050506040513d601f19601f8201168201806040525081019061104891906148b6565b905081611059896101400151611607565b61106391906148e3565b9550611070888783611676565b50876101e0015188608001515050505050505092915050565b600080611097868686611911565b90506110a1611949565b600201600082815260200190815260200160002060008473ffffffffffffffffffffffffffffffffffffffff1673ffffffffffffffffffffffffffffffffffffffff16815260200190815260200160002054915050949350505050565b600092915050565b61110e612f65565b8460600151816060019061ffff16908161ffff16815250508460800151816080019015159081151581525050611142610ca2565b73ffffffffffffffffffffffffffffffffffffffff1663db61122586606001518760800151156040518363ffffffff1660e01b8152600401611185929190613bf2565b602060405180830381865afa1580156111a2573d6000803e3d6000fd5b505050506040513d601f19601f820116820180604052508101906111c69190613c30565b81600001818152505060018160c001901515908115158152505084610240015181610240019067ffffffffffffffff16908167ffffffffffffffff1681525050846101e00151816101e0019073ffffffffffffffffffffffffffffffffffffffff16908173ffffffffffffffffffffffffffffffffffffffff16815250508461010001518161010001818152505060008161016001818152505081801561126f5750846102c001515b8061128c57508115156000151514801561128b5750846102e001515b5b156112af5783816101600181815250506001816102a00190151590811515815250505b846080015115158215151481610300019015159081151581525050828161012001818152505084610260015181610260018181525050949350505050565b6000807ff3177357ab46d8af007ab3fdb9af81da189e1068fefdc0073dca88a2cab40a0060001b90508091505090565b60006113276112ed565b60000160009054906101000a900473ffffffffffffffffffffffffffffffffffffffff16905090565b6000806000808773ffffffffffffffffffffffffffffffffffffffff1687878760405160240161138293929190614935565b60405160208183030381529060405263b700961360e01b6020820180517bffffffffffffffffffffffffffffffffffffffffffffffffffffffff83818316178352505050506040516113d491906149a8565b600060405180830381855afa9150503d806000811461140f576040519150601f19603f3d011682016040523d82523d6000602084013e611414565b606091505b5091509150811561146b576040815110611449578080602001905181019061143c91906149e9565b809450819550505061146a565b602081511061146957808060200190518101906114669190614a29565b93505b5b5b505094509492505050565b61147e6130e6565b816060015181610120019061ffff16908161ffff16815250508160800151816101000190151590811515815250505050565b606060006114bf878688611911565b905060006114cd8585611976565b9050505095945050505050565b60008260c00151806114ef5750818360600151145b905092915050565b6000807f2eec39e2b6bcfb5f1ee2be0b6e9d5a470a45585b1e2f7f291af9fb9f551763d090508091505090565b60606000611534836000016119a9565b905060608190508092505050919050565b6000807f92bcfabaf0a890def3092675474357e5f93a0f117ca63a3db421d44c5b55fba590508091505090565b60008183604051602001611587929190614ad4565b60405160208183030381529060405261159f90614b25565b905092915050565b600030905090565b600080600090505b82518110156115fb578281815181106115d3576115d2613afa565b5b6020026020010151826115e69190614b8c565b915080806115f390613b8c565b9150506115b7565b50919050565b50565b50565b60007f7fffffffffffffffffffffffffffffffffffffffffffffffffffffffffffffff82111561166e57816040517f24775e060000000000000000000000000000000000000000000000000000000081526004016116659190614bd0565b60405180910390fd5b819050919050565b61167e613083565b60008461010001511480156116935750600083125b156116e6576116df846101e00151846116ab90614beb565b8661010001518588608001516040516020016116cb959493929190614c33565b604051602081830303815290604052611a05565b90506118f3565b60006116f06114f7565b6003016000866060015161ffff1661ffff16815260200190815260200160002060009054906101000a900473ffffffffffffffffffffffffffffffffffffffff16905060006117428660600151611e73565b90508173ffffffffffffffffffffffffffffffffffffffff1663f5151f35876060015161176d611ec1565b73ffffffffffffffffffffffffffffffffffffffff1663812b2f938a61010001518673ffffffffffffffffffffffffffffffffffffffff1663313ce5676040518163ffffffff1660e01b8152600401602060405180830381865afa1580156117d9573d6000803e3d6000fd5b505050506040513d601f19601f820116820180604052508101906117fd9190614c9b565b6040518363ffffffff1660e01b815260040161181a929190614cc8565b602060405180830381865afa158015611837573d6000803e3d6000fd5b505050506040513d601f19601f8201168201806040525081019061185b9190613c30565b6040518363ffffffff1660e01b8152600401611878929190614cf1565b600060405180830381600087803b15801561189257600080fd5b505af11580156118a6573d6000803e3d6000fd5b505050506118ee866101e00151868861010001518960000151888b608001516040516020016118da96959493929190614d1a565b604051602081830303815290604052611ec9565b925050505b61190a8460600151826000015183602001516122e4565b9392505050565b600082828560405160200161192893929190614d7b565b60405160208183030381529060405261194090614b25565b90509392505050565b6000807fbf93ccae7e050fdad00615e220e3f9b7ebb112ac9318fb8604653a7d8091238890508091505090565b6000828260405160200161198b929190614e36565b60405160208183030381529060405280519060200120905092915050565b6060816000018054806020026020016040519081016040528092919081815260200182805480156119f957602002820191906000526020600020905b8154815260200190600101908083116119e5575b50505050509050919050565b611a0d613083565b611a1561313f565b82806020019051810190611a299190614eb5565b866000018760200188604001896060018a60a0018b60c00186151515158152508681525086815250868152508673ffffffffffffffffffffffffffffffffffffffff1673ffffffffffffffffffffffffffffffffffffffff168152508661ffff1661ffff1681525050505050505060008160e0019015159081151581525050611aba81600001518260c00151611572565b81610100018181525050611acc611545565b600001600082610100015181526020019081526020016000206000826020015173ffffffffffffffffffffffffffffffffffffffff1673ffffffffffffffffffffffffffffffffffffffff1681526020019081526020016000206040518061012001604052908160008201548152602001600182015481526020016002820154815260200160038201548152602001600482015481526020016005820160009054906101000a900460ff161515151581526020016005820160019054906101000a900463ffffffff1663ffffffff1663ffffffff1681526020016005820160059054906101000a900461ffff1661ffff1661ffff1681526020016005820160079054906101000a900468ffffffffffffffffff1668ffffffffffffffffff1668ffffffffffffffffff16815250508161012001819052504263ffffffff1681610120015160c0015163ffffffff1603611c5a576040517f08c379a0000000000000000000000000000000000000000000000000000000008152600401611c5190614f8e565b60405180910390fd5b611c688161012001516122e9565b611ca7576040517f08c379a0000000000000000000000000000000000000000000000000000000008152600401611c9e90614ffa565b60405180910390fd5b600081604001511315611d0d57611cc18160400151612322565b816101200151602001511015611d0c576040517f08c379a0000000000000000000000000000000000000000000000000000000008152600401611d0390615066565b60405180910390fd5b5b8060600151816101200151600001511015611d5d576040517f08c379a0000000000000000000000000000000000000000000000000000000008152600401611d54906150d2565b60405180910390fd5b80606001518161012001516000015114611e63578060a001518161012001516040018181525050806060015181610120015160000151611d9d91906150f2565b8161012001516000018181525050611dd48160400151611dc583610120015160200151611607565b611dcf91906148e3565b612322565b8161012001516020018181525050611df08161012001516122e9565b611e2f576040517f08c379a0000000000000000000000000000000000000000000000000000000008152600401611e2690614ffa565b60405180910390fd5b611e3881612371565b8061012001516000015182600001818152505080610120015160200151826020018181525050611e6d565b611e6c81612655565b5b50919050565b6000611e7d6114f7565b60040160008361ffff1661ffff16815260200190815260200160002060009054906101000a900473ffffffffffffffffffffffffffffffffffffffff169050919050565b600030905090565b611ed1613083565b611ed961313f565b82806020019051810190611eed9190615126565b8760000188602001896040018a6060018b6080018c60a0018d60c0018715151515815250878152508781525087815250878152508773ffffffffffffffffffffffffffffffffffffffff1673ffffffffffffffffffffffffffffffffffffffff168152508761ffff1661ffff168152505050505050505060018160e0019015159081151581525050611f8781600001518260c00151611572565b81610100018181525050611f99611545565b600001600082610100015181526020019081526020016000206000826020015173ffffffffffffffffffffffffffffffffffffffff1673ffffffffffffffffffffffffffffffffffffffff1681526020019081526020016000206040518061012001604052908160008201548152602001600182015481526020016002820154815260200160038201548152602001600482015481526020016005820160009054906101000a900460ff161515151581526020016005820160019054906101000a900463ffffffff1663ffffffff1663ffffffff1681526020016005820160059054906101000a900461ffff1661ffff1661ffff1681526020016005820160079054906101000a900468ffffffffffffffffff1668ffffffffffffffffff1668ffffffffffffffffff1681525050816101200181905250600081610120015160000151036121075780608001516fffffffffffffffffffffffffffffffff1681610120015160800181815250505b600081610120015160000151118015612124575060008160600151115b156121bb57600080612148836080015184610120015161295390919063ffffffff16565b915091506121728360600151846080015183858761012001516129e290949392919063ffffffff16565b8361012001516080018181525050600082612196578161219190614beb565b612198565b815b905080856060018181525050836101200151608001518560800181815250505050505b6121e481604001516121d583610120015160200151611607565b6121df9190614b8c565b612322565b81610120015160200181815250508060a00151816101200151604001818152505080606001518161012001516000015161221e9190613b58565b81610120015160000181815250508060c0015181610120015160a00190151590811515815250504281610120015160c0019063ffffffff16908163ffffffff16815250506122708161012001516122e9565b6122af576040517f08c379a00000000000000000000000000000000000000000000000000000000081526004016122a690614ffa565b60405180910390fd5b6122b881612371565b806101200151600001518260000181815250508061012001516020015182602001818152505050919050565b505050565b6000808260000151036122ff576000905061231d565b816020015182600001511015612318576000905061231d565b600190505b919050565b60008082121561236957816040517fa8ce443200000000000000000000000000000000000000000000000000000000815260040161236091906151c8565b60405180910390fd5b819050919050565b61237a81612a77565b816101400181905250806101200151612391611545565b600001600083610100015181526020019081526020016000206000836020015173ffffffffffffffffffffffffffffffffffffffff1673ffffffffffffffffffffffffffffffffffffffff168152602001908152602001600020600082015181600001556020820151816001015560408201518160020155606082015181600301556080820151816004015560a08201518160050160006101000a81548160ff02191690831515021790555060c08201518160050160016101000a81548163ffffffff021916908363ffffffff16021790555060e08201518160050160056101000a81548161ffff021916908361ffff1602179055506101008201518160050160076101000a81548168ffffffffffffffffff021916908368ffffffffffffffffff1602179055509050508061014001516124ca611545565b60020160008361010001518152602001908152602001600020600082015181600001556020820151816001015560408201518160020155606082015181600301556080820151816004015560a08201518160050160006101000a81548160ff02191690831515021790555060c08201518160050160016101000a81548163ffffffff021916908363ffffffff16021790555060e08201518160050160056101000a81548161ffff021916908361ffff1602179055506101008201518160050160076101000a81548168ffffffffffffffffff021916908368ffffffffffffffffff1602179055509050506125eb81602001516125c4611545565b60010160008461010001518152602001908152602001600020612cb290919063ffffffff16565b50806020015173ffffffffffffffffffffffffffffffffffffffff167f0d77a4156ff764dade22a2cd25a68a83ff04b20df143bba5d162a6a980702623826101200151600001518361012001516020015160405161264a9291906139f9565b60405180910390a250565b600061268e8260200151612667611545565b60010160008561010001518152602001908152602001600020612ce290919063ffffffff16565b9050806126d0576040517f08c379a00000000000000000000000000000000000000000000000000000000081526004016126c79061522f565b60405180910390fd5b8161014001516126de611545565b60020160008461010001518152602001908152602001600020600082015181600001556020820151816001015560408201518160020155606082015181600301556080820151816004015560a08201518160050160006101000a81548160ff02191690831515021790555060c08201518160050160016101000a81548163ffffffff021916908363ffffffff16021790555060e08201518160050160056101000a81548161ffff021916908361ffff1602179055506101008201518160050160076101000a81548168ffffffffffffffffff021916908368ffffffffffffffffff1602179055509050506127d0611545565b600001600083610100015181526020019081526020016000206000836020015173ffffffffffffffffffffffffffffffffffffffff1673ffffffffffffffffffffffffffffffffffffffff16815260200190815260200160002060008082016000905560018201600090556002820160009055600382016000905560048201600090556005820160006101000a81549060ff02191690556005820160016101000a81549063ffffffff02191690556005820160056101000a81549061ffff02191690556005820160076101000a81549068ffffffffffffffffff021916905550506128e882602001516128c1611545565b60010160008561010001518152602001908152602001600020612d1290919063ffffffff16565b50816020015173ffffffffffffffffffffffffffffffffffffffff167f20b3ac24c835264e655c493af7b3db37ff78a0f358627f0de89832abc7e1deca83610120015160000151846101200151602001516040516129479291906139f9565b60405180910390a25050565b6000806000838560800151116129785784608001518461297391906150f2565b612989565b83856080015161298891906150f2565b5b9050600085608001518287600001516129a2919061524f565b6129ac91906152c0565b905060008660a00151156129c8578660800151861190506129d2565b8587608001511190505b8082945094505050509250929050565b6000808587600001516129f59190613b58565b905060008760a0015115612a2d5783612a19578482612a1491906150f2565b612a26565b8482612a259190613b58565b5b9050612a53565b83612a43578482612a3e9190613b58565b612a50565b8482612a4f91906150f2565b5b90505b808287612a60919061524f565b612a6a91906152c0565b9250505095945050505050565b612a7f613083565b6000612a89611545565b600201600084610100015181526020019081526020016000206040518061012001604052908160008201548152602001600182015481526020016002820154815260200160038201548152602001600482015481526020016005820160009054906101000a900460ff161515151581526020016005820160019054906101000a900463ffffffff1663ffffffff1663ffffffff1681526020016005820160059054906101000a900461ffff1661ffff1661ffff1681526020016005820160079054906101000a900468ffffffffffffffffff1668ffffffffffffffffff1668ffffffffffffffffff168152505090508260e0015115612c66576000612b978285606001518660800151612d42565b905060648111612bdc576040517f08c379a0000000000000000000000000000000000000000000000000000000008152600401612bd39061533d565b60405180910390fd5b80826080018181525050836060015182600001818151612bfc9190613b58565b91508181525050612c278460400151612c188460200151611607565b612c229190614b8c565b612322565b8260200181815250508360c001518260a0019015159081151581525050428260c0019063ffffffff16908163ffffffff16815250508192505050612cad565b826060015181600001818151612c7c91906150f2565b91508181525050612c908360400151612322565b81602001818151612ca191906150f2565b91508181525050809150505b919050565b6000612cda836000018373ffffffffffffffffffffffffffffffffffffffff1660001b612dbe565b905092915050565b6000612d0a836000018373ffffffffffffffffffffffffffffffffffffffff1660001b612e2e565b905092915050565b6000612d3a836000018373ffffffffffffffffffffffffffffffffffffffff1660001b612e51565b905092915050565b600080846000015103612d5757819050612db7565b60008460000151118015612d6b5750600083115b15612daf57600080612d86848761295390919063ffffffff16565b91509150612da3858583858a6129e290949392919063ffffffff16565b86608001818152505050505b836080015190505b9392505050565b6000612dca8383612e2e565b612e23578260000182908060018154018082558091505060019003906000526020600020016000909190919091505582600001805490508360010160008481526020019081526020016000208190555060019050612e28565b600090505b92915050565b600080836001016000848152602001908152602001600020541415905092915050565b60008083600101600084815260200190815260200160002054905060008114612f59576000600182612e8391906150f2565b9050600060018660000180549050612e9b91906150f2565b9050808214612f0a576000866000018281548110612ebc57612ebb613afa565b5b9060005260206000200154905080876000018481548110612ee057612edf613afa565b5b90600052602060002001819055508387600101600083815260200190815260200160002081905550505b85600001805480612f1e57612f1d61535d565b5b600190038181906000526020600020016000905590558560010160008681526020019081526020016000206000905560019350505050612f5f565b60009150505b92915050565b604051806103400160405280600081526020016000815260200160008152602001600061ffff168152602001600015158152602001600015158152602001600015158152602001600015158152602001600081526020016000815260200160008152602001600081526020016000815260200160008152602001600067ffffffffffffffff168152602001600073ffffffffffffffffffffffffffffffffffffffff168152602001600015158152602001600060ff168152602001600067ffffffffffffffff16815260200160008019168152602001600060ff16815260200160001515815260200160001515815260200160001515815260200160001515815260200160006fffffffffffffffffffffffffffffffff1681525090565b6040518061012001604052806000815260200160008152602001600081526020016000815260200160008152602001600015158152602001600063ffffffff168152602001600061ffff168152602001600068ffffffffffffffffff1681525090565b6040518061014001604052806000815260200160008152602001600081526020016000815260200160008152602001600081526020016000815260200160008152602001600015158152602001600061ffff1681525090565b604051806101600160405280600061ffff168152602001600073ffffffffffffffffffffffffffffffffffffffff16815260200160008152602001600081526020016000815260200160008152602001600015158152602001600015158152602001600080191681526020016131b3613083565b81526020016131c0613083565b81525090565b6000604051905090565b600080fd5b600080fd5b600080fd5b6000601f19601f8301169050919050565b7f4e487b7100000000000000000000000000000000000000000000000000000000600052604160045260246000fd5b613228826131df565b810181811067ffffffffffffffff82111715613247576132466131f0565b5b80604052505050565b600061325a6131c6565b9050613266828261321f565b919050565b6000819050919050565b61327e8161326b565b811461328957600080fd5b50565b60008135905061329b81613275565b92915050565b60006fffffffffffffffffffffffffffffffff82169050919050565b6132c6816132a1565b81146132d157600080fd5b50565b6000813590506132e3816132bd565b92915050565b6000819050919050565b6132fc816132e9565b811461330757600080fd5b50565b600081359050613319816132f3565b92915050565b60008115159050919050565b6133348161331f565b811461333f57600080fd5b50565b6000813590506133518161332b565b92915050565b600067ffffffffffffffff82169050919050565b61337481613357565b811461337f57600080fd5b50565b6000813590506133918161336b565b92915050565b600063ffffffff82169050919050565b6133b081613397565b81146133bb57600080fd5b50565b6000813590506133cd816133a7565b92915050565b600060ff82169050919050565b6133e9816133d3565b81146133f457600080fd5b50565b600081359050613406816133e0565b92915050565b600073ffffffffffffffffffffffffffffffffffffffff82169050919050565b60006134378261340c565b9050919050565b6134478161342c565b811461345257600080fd5b50565b6000813590506134648161343e565b92915050565b60006bffffffffffffffffffffffff82169050919050565b61348b8161346a565b811461349657600080fd5b50565b6000813590506134a881613482565b92915050565b600061ffff82169050919050565b6134c5816134ae565b81146134d057600080fd5b50565b6000813590506134e2816134bc565b92915050565b600061030082840312156134ff576134fe6131da565b5b61350a610300613250565b9050600061351a8482850161328c565b600083015250602061352e848285016132d4565b6020830152506040613542848285016132d4565b60408301525060606135568482850161330a565b606083015250608061356a8482850161330a565b60808301525060a061357e84828501613342565b60a08301525060c061359284828501613342565b60c08301525060e06135a684828501613342565b60e0830152506101006135bb84828501613342565b610100830152506101206135d184828501613342565b610120830152506101406135e784828501613382565b610140830152506101606135fd84828501613382565b6101608301525061018061361384828501613382565b610180830152506101a0613629848285016133be565b6101a0830152506101c061363f848285016133f7565b6101c0830152506101e061365584828501613455565b6101e08301525061020061366b84828501613499565b610200830152506102206136818482850161330a565b6102208301525061024061369784828501613342565b610240830152506102606136ad84828501613342565b610260830152506102806136c3848285016134d3565b610280830152506102a06136d984828501613499565b6102a0830152506102c06136ef848285016132d4565b6102c0830152506102e0613705848285016133f7565b6102e08301525092915050565b60006103408284031215613729576137286131da565b5b613734610340613250565b905060006137448482850161330a565b60008301525060206137588482850161330a565b602083015250604061376c8482850161330a565b6040830152506060613780848285016134d3565b606083015250608061379484828501613342565b60808301525060a06137a884828501613342565b60a08301525060c06137bc84828501613342565b60c08301525060e06137d084828501613342565b60e0830152506101006137e58482850161330a565b610100830152506101206137fb8482850161330a565b610120830152506101406138118482850161330a565b610140830152506101606138278482850161330a565b6101608301525061018061383d8482850161330a565b610180830152506101a06138538482850161330a565b6101a0830152506101c061386984828501613382565b6101c0830152506101e061387f84828501613455565b6101e08301525061020061389584828501613342565b610200830152506102206138ab848285016133f7565b610220830152506102406138c184828501613382565b610240830152506102606138d78482850161328c565b610260830152506102806138ed848285016133f7565b610280830152506102a061390384828501613342565b6102a0830152506102c061391984828501613342565b6102c0830152506102e061392f84828501613342565b6102e08301525061030061394584828501613342565b6103008301525061032061395b848285016132d4565b6103208301525092915050565b60008061064083850312156139805761397f6131d0565b5b600061398e858286016134e8565b9250506103006139a085828601613712565b9150509250929050565b600080604083850312156139c1576139c06131d0565b5b60006139cf858286016134d3565b92505060206139e085828601613455565b9150509250929050565b6139f3816132e9565b82525050565b6000604082019050613a0e60008301856139ea565b613a1b60208301846139ea565b9392505050565b600060208284031215613a3857613a376131d0565b5b6000613a46848285016134d3565b91505092915050565b60006103408284031215613a6657613a656131d0565b5b6000613a7484828501613712565b91505092915050565b600082825260208201905092915050565b7f506f736974696f6e4164644d67723a696e76616c69642069736f70656e000000600082015250565b6000613ac4601d83613a7d565b9150613acf82613a8e565b602082019050919050565b60006020820190508181036000830152613af381613ab7565b9050919050565b7f4e487b7100000000000000000000000000000000000000000000000000000000600052603260045260246000fd5b7f4e487b7100000000000000000000000000000000000000000000000000000000600052601160045260246000fd5b6000613b63826132e9565b9150613b6e836132e9565b9250828201905080821115613b8657613b85613b29565b5b92915050565b6000613b97826132e9565b91507fffffffffffffffffffffffffffffffffffffffffffffffffffffffffffffffff8203613bc957613bc8613b29565b5b600182019050919050565b613bdd816134ae565b82525050565b613bec8161331f565b82525050565b6000604082019050613c076000830185613bd4565b613c146020830184613be3565b9392505050565b600081519050613c2a816132f3565b92915050565b600060208284031215613c4657613c456131d0565b5b6000613c5484828501613c1b565b91505092915050565b600080fd5b600080fd5b60008085851115613c7b57613c7a613c5d565b5b83861115613c8c57613c8b613c62565b5b6001850283019150848603905094509492505050565b600082905092915050565b60007fffffffff0000000000000000000000000000000000000000000000000000000082169050919050565b600082821b905092915050565b6000613cf28383613ca2565b82613cfd8135613cad565b92506004821015613d3d57613d387fffffffff0000000000000000000000000000000000000000000000000000000083600403600802613cd9565b831692505b505092915050565b613d4e8161342c565b82525050565b600082825260208201905092915050565b82818337600083830152505050565b6000613d808385613d54565b9350613d8d838584613d65565b613d96836131df565b840190509392505050565b6000604082019050613db66000830186613d45565b8181036020830152613dc9818486613d74565b9050949350505050565b6000602082019050613de86000830184613d45565b92915050565b7f696e76616c6964206f72646572206b6579000000000000000000000000000000600082015250565b6000613e24601183613a7d565b9150613e2f82613dee565b602082019050919050565b60006020820190508181036000830152613e5381613e17565b9050919050565b7f506f736974696f6e4164644d67723a216163636f756e74000000000000000000600082015250565b6000613e90601783613a7d565b9150613e9b82613e5a565b602082019050919050565b60006020820190508181036000830152613ebf81613e83565b9050919050565b6000613ed1826133d3565b9150613edc836133d3565b9250828201905060ff811115613ef557613ef4613b29565b5b92915050565b600081519050919050565b60005b83811015613f24578082015181840152602081019050613f09565b60008484015250505050565b6000613f3b82613efb565b613f458185613a7d565b9350613f55818560208601613f06565b613f5e816131df565b840191505092915050565b60006020820190508181036000830152613f838184613f30565b905092915050565b7f506f736974696f6e4164644d67723a20696e73756666696369656e7420636f6c60008201527f6c61746572616c00000000000000000000000000000000000000000000000000602082015250565b6000613fe7602783613a7d565b9150613ff282613f8b565b604082019050919050565b6000602082019050818103600083015261401681613fda565b9050919050565b7f4e487b7100000000000000000000000000000000000000000000000000000000600052602160045260246000fd5b6000819050919050565b600061407161406c61406784613357565b61404c565b6132e9565b9050919050565b61408181614056565b82525050565b614090816133d3565b82525050565b50565b60006140a6600083613a7d565b91506140b182614096565b600082019050919050565b6000819050919050565b6140cf816140bc565b82525050565b6000610100820190506140eb600083018a613be3565b6140f86020830189613be3565b6141056040830188614078565b6141126060830187613bd4565b61411f6080830186614087565b81810360a083015261413081614099565b905061413f60c08301856139ea565b61414c60e08301846140c6565b98975050505050505050565b600060608201905061416d6000830186613bd4565b61417a60208301856139ea565b61418760408301846139ea565b949350505050565b614198816132e9565b82525050565b6141a7816134ae565b82525050565b6141b68161331f565b82525050565b6141c581613357565b82525050565b6141d48161342c565b82525050565b6141e3816133d3565b82525050565b6141f28161326b565b82525050565b614201816132a1565b82525050565b6103408201600082015161421e600085018261418f565b506020820151614231602085018261418f565b506040820151614244604085018261418f565b506060820151614257606085018261419e565b50608082015161426a60808501826141ad565b5060a082015161427d60a08501826141ad565b5060c082015161429060c08501826141ad565b5060e08201516142a360e08501826141ad565b506101008201516142b861010085018261418f565b506101208201516142cd61012085018261418f565b506101408201516142e261014085018261418f565b506101608201516142f761016085018261418f565b5061018082015161430c61018085018261418f565b506101a08201516143216101a085018261418f565b506101c08201516143366101c08501826141bc565b506101e082015161434b6101e08501826141cb565b506102008201516143606102008501826141ad565b506102208201516143756102208501826141da565b5061024082015161438a6102408501826141bc565b5061026082015161439f6102608501826141e9565b506102808201516143b46102808501826141da565b506102a08201516143c96102a08501826141ad565b506102c08201516143de6102c08501826141ad565b506102e08201516143f36102e08501826141ad565b506103008201516144086103008501826141ad565b5061032082015161441d6103208501826141f8565b50505050565b61442c816140bc565b82525050565b61443b81613397565b82525050565b600068ffffffffffffffffff82169050919050565b61445f81614441565b82525050565b6101208201600082015161447c600085018261418f565b50602082015161448f602085018261418f565b5060408201516144a26040850182614423565b5060608201516144b56060850182614423565b5060808201516144c8608085018261418f565b5060a08201516144db60a08501826141ad565b5060c08201516144ee60c0850182614432565b5060e082015161450160e085018261419e565b50610100820151614516610100850182614456565b50505050565b6000610460820190506145326000830185614207565b614540610340830184614465565b9392505050565b600081519050919050565b600061455d82614547565b6145678185613d54565b9350614577818560208601613f06565b614580816131df565b840191505092915050565b600060208201905081810360008301526145a58184614552565b905092915050565b600080fd5b600067ffffffffffffffff8211156145cd576145cc6131f0565b5b602082029050602081019050919050565b600080fd5b6145ec816140bc565b81146145f757600080fd5b50565b600081519050614609816145e3565b92915050565b600061462261461d846145b2565b613250565b90508083825260208201905060208402830185811115614645576146446145de565b5b835b8181101561466e578061465a88826145fa565b845260208401935050602081019050614647565b5050509392505050565b600082601f83011261468d5761468c6145ad565b5b815161469d84826020860161460f565b91505092915050565b6000602082840312156146bc576146bb6131d0565b5b600082015167ffffffffffffffff8111156146da576146d96131d5565b5b6146e684828501614678565b91505092915050565b600081519050919050565b600082825260208201905092915050565b6000819050602082019050919050565b60006147278383614423565b60208301905092915050565b6000602082019050919050565b600061474b826146ef565b61475581856146fa565b93506147608361470b565b8060005b83811015614791578151614778888261471b565b975061478383614733565b925050600181019050614764565b5085935050505092915050565b6000610480820190506147b46000830186614207565b6147c2610340830185614465565b8181036104608301526147d58184614740565b9050949350505050565b6000819050919050565b60006148046147ff6147fa846147df565b61404c565b6133d3565b9050919050565b614814816147e9565b82525050565b6000819050919050565b600061483f61483a6148358461481a565b61404c565b6133d3565b9050919050565b61484f81614824565b82525050565b600060c08201905061486a600083018961480b565b61487760208301886139ea565b61488460408301876139ea565b61489160608301866139ea565b61489e6080830185614846565b6148ab60a08301846140c6565b979650505050505050565b6000602082840312156148cc576148cb6131d0565b5b60006148da848285016145fa565b91505092915050565b60006148ee826140bc565b91506148f9836140bc565b92508282039050818112600084121682821360008512151617156149205761491f613b29565b5b92915050565b61492f81613cad565b82525050565b600060608201905061494a6000830186613d45565b6149576020830185613d45565b6149646040830184614926565b949350505050565b600081905092915050565b600061498282614547565b61498c818561496c565b935061499c818560208601613f06565b80840191505092915050565b60006149b48284614977565b915081905092915050565b6000815190506149ce8161332b565b92915050565b6000815190506149e3816133a7565b92915050565b60008060408385031215614a00576149ff6131d0565b5b6000614a0e858286016149bf565b9250506020614a1f858286016149d4565b9150509250929050565b600060208284031215614a3f57614a3e6131d0565b5b6000614a4d848285016149bf565b91505092915050565b60008160f81b9050919050565b6000614a6e82614a56565b9050919050565b6000614a8082614a63565b9050919050565b614a98614a938261331f565b614a75565b82525050565b60008160f01b9050919050565b6000614ab682614a9e565b9050919050565b614ace614ac9826134ae565b614aab565b82525050565b6000614ae08285614a87565b600182019150614af08284614abd565b6002820191508190509392505050565b6000819050602082019050919050565b6000614b1c825161326b565b80915050919050565b6000614b3082614547565b82614b3a84614b00565b9050614b4581614b10565b92506020821015614b8557614b807fffffffffffffffffffffffffffffffffffffffffffffffffffffffffffffffff83602003600802613cd9565b831692505b5050919050565b6000614b97826140bc565b9150614ba2836140bc565b925082820190508281121560008312168382126000841215161715614bca57614bc9613b29565b5b92915050565b6000602082019050614be560008301846139ea565b92915050565b6000614bf6826140bc565b91507f80000000000000000000000000000000000000000000000000000000000000008203614c2857614c27613b29565b5b816000039050919050565b600060a082019050614c486000830188613d45565b614c5560208301876139ea565b614c6260408301866139ea565b614c6f60608301856140c6565b614c7c6080830184613be3565b9695505050505050565b600081519050614c95816133e0565b92915050565b600060208284031215614cb157614cb06131d0565b5b6000614cbf84828501614c86565b91505092915050565b6000604082019050614cdd60008301856139ea565b614cea6020830184614087565b9392505050565b6000604082019050614d066000830185613bd4565b614d1360208301846139ea565b9392505050565b600060c082019050614d2f6000830189613d45565b614d3c60208301886140c6565b614d4960408301876139ea565b614d5660608301866139ea565b614d6360808301856140c6565b614d7060a0830184613be3565b979650505050505050565b6000614d878286614a87565b600182019150614d978285614a87565b600182019150614da78284614abd565b600282019150819050949350505050565b60008160601b9050919050565b6000614dd082614db8565b9050919050565b6000614de282614dc5565b9050919050565b614dfa614df58261342c565b614dd7565b82525050565b60008160c01b9050919050565b6000614e1882614e00565b9050919050565b614e30614e2b82613357565b614e0d565b82525050565b6000614e428285614de9565b601482019150614e528284614e1f565b6008820191508190509392505050565b600081519050614e71816134bc565b92915050565b6000614e828261340c565b9050919050565b614e9281614e77565b8114614e9d57600080fd5b50565b600081519050614eaf81614e89565b92915050565b60008060008060008060c08789031215614ed257614ed16131d0565b5b6000614ee089828a01614e62565b9650506020614ef189828a01614ea0565b9550506040614f0289828a016145fa565b9450506060614f1389828a01613c1b565b9350506080614f2489828a016145fa565b92505060a0614f3589828a016149bf565b9150509295509295509295565b7f70623a73616d6520626c6f636b00000000000000000000000000000000000000600082015250565b6000614f78600d83613a7d565b9150614f8382614f42565b602082019050919050565b60006020820190508181036000830152614fa781614f6b565b9050919050565b7f706f736974696f6e426f6f6b3a20696e76616c696420706f736974696f6e0000600082015250565b6000614fe4601e83613a7d565b9150614fef82614fae565b602082019050919050565b6000602082019050818103600083015261501381614fd7565b9050919050565b7f706f736974696f6e426f6f6b3a20696e76616c696420636f6c6c61746572616c600082015250565b6000615050602083613a7d565b915061505b8261501a565b602082019050919050565b6000602082019050818103600083015261507f81615043565b9050919050565b7f706f736974696f6e426f6f6b3a20696e76616c69642073697a65000000000000600082015250565b60006150bc601a83613a7d565b91506150c782615086565b602082019050919050565b600060208201905081810360008301526150eb816150af565b9050919050565b60006150fd826132e9565b9150615108836132e9565b92508282039050818111156151205761511f613b29565b5b92915050565b600080600080600080600060e0888a031215615145576151446131d0565b5b60006151538a828b01614e62565b97505060206151648a828b01614ea0565b96505060406151758a828b016145fa565b95505060606151868a828b01613c1b565b94505060806151978a828b01613c1b565b93505060a06151a88a828b016145fa565b92505060c06151b98a828b016149bf565b91505092959891949750929550565b60006020820190506151dd60008301846140c6565b92915050565b7f706f736974696f6e20646f6573206e6f74206578697374000000000000000000600082015250565b6000615219601783613a7d565b9150615224826151e3565b602082019050919050565b600060208201905081810360008301526152488161520c565b9050919050565b600061525a826132e9565b9150615265836132e9565b9250828202615273816132e9565b9150828204841483151761528a57615289613b29565b5b5092915050565b7f4e487b7100000000000000000000000000000000000000000000000000000000600052601260045260246000fd5b60006152cb826132e9565b91506152d6836132e9565b9250826152e6576152e5615291565b5b828204905092915050565b7f70623a696e76616c696420676c6f62616c20706f736974696f6e000000000000600082015250565b6000615327601a83613a7d565b9150615332826152f1565b602082019050919050565b600060208201905081810360008301526153568161531a565b9050919050565b7f4e487b7100000000000000000000000000000000000000000000000000000000600052603160045260246000fdfea2646970667358221220af270341686b7c2b363919ca1a25e27342b178eed4fe10c16e67fb526e4ff9f864736f6c63430008140033",
  "devdoc": {
    "errors": {
      "SafeCastOverflowedIntToUint(int256)": [
        {
          "details": "An int value doesn't fit in an uint of `bits` size."
        }
      ],
      "SafeCastOverflowedUintToInt(uint256)": [
        {
          "details": "An uint value doesn't fit in an int of `bits` size."
        }
      ]
    },
    "kind": "dev",
    "methods": {},
    "version": 1
  },
  "userdoc": {
    "kind": "user",
    "methods": {},
    "version": 1
  },
  "storageLayout": {
    "storage": [],
    "types": null
  }
}