{
  "address": "0xC4A03F2c39B432762bC92F309FD8bc962B4d0D59",
  "abi": [
    {
      "inputs": [
        {
          "internalType": "address",
          "name": "authority",
          "type": "address"
        }
      ],
      "name": "AccessManagedInvalidAuthority",
      "type": "error"
    },
    {
      "inputs": [
        {
          "internalType": "address",
          "name": "caller",
          "type": "address"
        },
        {
          "internalType": "uint32",
          "name": "delay",
          "type": "uint32"
        }
      ],
      "name": "AccessManagedRequiredDelay",
      "type": "error"
    },
    {
      "inputs": [
        {
          "internalType": "address",
          "name": "caller",
          "type": "address"
        }
      ],
      "name": "AccessManagedUnauthorized",
      "type": "error"
    },
    {
      "inputs": [
        {
          "internalType": "int256",
          "name": "value",
          "type": "int256"
        }
      ],
      "name": "SafeCastOverflowedIntToUint",
      "type": "error"
    },
    {
      "inputs": [
        {
          "internalType": "uint256",
          "name": "value",
          "type": "uint256"
        }
      ],
      "name": "SafeCastOverflowedUintToInt",
      "type": "error"
    },
    {
      "anonymous": false,
      "inputs": [
        {
          "indexed": true,
          "internalType": "address",
          "name": "account",
          "type": "address"
        },
        {
          "indexed": false,
          "internalType": "bool",
          "name": "isLong",
          "type": "bool"
        },
        {
          "indexed": false,
          "internalType": "bool",
          "name": "isIncrease",
          "type": "bool"
        },
        {
          "indexed": false,
          "internalType": "uint256",
          "name": "orderID",
          "type": "uint256"
        },
        {
          "indexed": false,
          "internalType": "uint16",
          "name": "market",
          "type": "uint16"
        },
        {
          "indexed": false,
          "internalType": "uint8",
          "name": "reason",
          "type": "uint8"
        },
        {
          "indexed": false,
          "internalType": "string",
          "name": "reasonStr",
          "type": "string"
        },
        {
          "indexed": false,
          "internalType": "uint256",
          "name": "price",
          "type": "uint256"
        },
        {
          "indexed": false,
          "internalType": "int256",
          "name": "dPNL",
          "type": "int256"
        }
      ],
      "name": "DeleteOrder",
      "type": "event"
    },
    {
      "anonymous": false,
      "inputs": [
        {
          "indexed": true,
          "internalType": "address",
          "name": "account",
          "type": "address"
        },
        {
          "indexed": false,
          "internalType": "uint256",
          "name": "size",
          "type": "uint256"
        },
        {
          "indexed": false,
          "internalType": "uint256",
          "name": "collateral",
          "type": "uint256"
        }
      ],
      "name": "RemovePosition",
      "type": "event"
    },
    {
      "anonymous": false,
      "inputs": [
        {
          "indexed": true,
          "internalType": "address",
          "name": "account",
          "type": "address"
        },
        {
          "indexed": false,
          "internalType": "uint256",
          "name": "size",
          "type": "uint256"
        },
        {
          "indexed": false,
          "internalType": "uint256",
          "name": "collateral",
          "type": "uint256"
        }
      ],
      "name": "UpdatePosition",
      "type": "event"
    },
    {
      "inputs": [
        {
          "components": [
            {
              "internalType": "bytes32",
              "name": "refCode",
              "type": "bytes32"
            },
            {
              "internalType": "uint128",
              "name": "collateral",
              "type": "uint128"
            },
            {
              "internalType": "uint128",
              "name": "size",
              "type": "uint128"
            },
            {
              "internalType": "uint256",
              "name": "price",
              "type": "uint256"
            },
            {
              "internalType": "uint256",
              "name": "tp",
              "type": "uint256"
            },
            {
              "internalType": "bool",
              "name": "triggerAbove",
              "type": "bool"
            },
            {
              "internalType": "bool",
              "name": "isFromMarket",
              "type": "bool"
            },
            {
              "internalType": "bool",
              "name": "isKeepLev",
              "type": "bool"
            },
            {
              "internalType": "bool",
              "name": "isKeepLevTP",
              "type": "bool"
            },
            {
              "internalType": "bool",
              "name": "isKeepLevSL",
              "type": "bool"
            },
            {
              "internalType": "uint64",
              "name": "orderID",
              "type": "uint64"
            },
            {
              "internalType": "uint64",
              "name": "pairId",
              "type": "uint64"
            },
            {
              "internalType": "uint64",
              "name": "fromId",
              "type": "uint64"
            },
            {
              "internalType": "uint32",
              "name": "updatedAtBlock",
              "type": "uint32"
            },
            {
              "internalType": "uint8",
              "name": "extra0",
              "type": "uint8"
            },
            {
              "internalType": "address",
              "name": "account",
              "type": "address"
            },
            {
              "internalType": "uint96",
              "name": "extra1",
              "type": "uint96"
            },
            {
              "internalType": "uint256",
              "name": "sl",
              "type": "uint256"
            },
            {
              "internalType": "bool",
              "name": "isIncrease",
              "type": "bool"
            },
            {
              "internalType": "bool",
              "name": "isLong",
              "type": "bool"
            },
            {
              "internalType": "uint16",
              "name": "market",
              "type": "uint16"
            },
            {
              "internalType": "uint96",
              "name": "extra2",
              "type": "uint96"
            },
            {
              "internalType": "uint128",
              "name": "gas",
              "type": "uint128"
            },
            {
              "internalType": "uint8",
              "name": "version",
              "type": "uint8"
            }
          ],
          "internalType": "struct Order.Props",
          "name": "exeOrder",
          "type": "tuple"
        },
        {
          "components": [
            {
              "internalType": "uint256",
              "name": "oraclePrice",
              "type": "uint256"
            },
            {
              "internalType": "uint256",
              "name": "pay",
              "type": "uint256"
            },
            {
              "internalType": "uint256",
              "name": "slippage",
              "type": "uint256"
            },
            {
              "internalType": "uint16",
              "name": "market",
              "type": "uint16"
            },
            {
              "internalType": "bool",
              "name": "isLong",
              "type": "bool"
            },
            {
              "internalType": "bool",
              "name": "isOpen",
              "type": "bool"
            },
            {
              "internalType": "bool",
              "name": "isCreate",
              "type": "bool"
            },
            {
              "internalType": "bool",
              "name": "isFromMarket",
              "type": "bool"
            },
            {
              "internalType": "uint256",
              "name": "sizeDelta",
              "type": "uint256"
            },
            {
              "internalType": "uint256",
              "name": "price",
              "type": "uint256"
            },
            {
              "internalType": "uint256",
              "name": "collateralDelta",
              "type": "uint256"
            },
            {
              "internalType": "uint256",
              "name": "collateral",
              "type": "uint256"
            },
            {
              "internalType": "uint256",
              "name": "tp",
              "type": "uint256"
            },
            {
              "internalType": "uint256",
              "name": "sl",
              "type": "uint256"
            },
            {
              "internalType": "uint64",
              "name": "orderId",
              "type": "uint64"
            },
            {
              "internalType": "address",
              "name": "account",
              "type": "address"
            },
            {
              "internalType": "bool",
              "name": "isExec",
              "type": "bool"
            },
            {
              "internalType": "uint8",
              "name": "liqState",
              "type": "uint8"
            },
            {
              "internalType": "uint64",
              "name": "fromOrder",
              "type": "uint64"
            },
            {
              "internalType": "bytes32",
              "name": "refCode",
              "type": "bytes32"
            },
            {
              "internalType": "uint8",
              "name": "execNum",
              "type": "uint8"
            },
            {
              "internalType": "bool",
              "name": "isKeepLev",
              "type": "bool"
            },
            {
              "internalType": "bool",
              "name": "isKeepLevTP",
              "type": "bool"
            },
            {
              "internalType": "bool",
              "name": "isKeepLevSL",
              "type": "bool"
            },
            {
              "internalType": "bool",
              "name": "triggerAbove",
              "type": "bool"
            },
            {
              "internalType": "uint128",
              "name": "gas",
              "type": "uint128"
            }
          ],
          "internalType": "struct MarketDataTypes.Cache",
          "name": "_params",
          "type": "tuple"
        }
      ],
      "name": "execAddOrderKey",
      "outputs": [],
      "stateMutability": "nonpayable",
      "type": "function"
    },
    {
      "inputs": [
        {
          "internalType": "uint16",
          "name": "market",
          "type": "uint16"
        },
        {
          "internalType": "address",
          "name": "account",
          "type": "address"
        }
      ],
      "name": "getAccountSizeOfMarkets",
      "outputs": [
        {
          "internalType": "uint256",
          "name": "sizesL",
          "type": "uint256"
        },
        {
          "internalType": "uint256",
          "name": "sizesS",
          "type": "uint256"
        }
      ],
      "stateMutability": "view",
      "type": "function"
    },
    {
      "inputs": [
        {
          "internalType": "uint16",
          "name": "market",
          "type": "uint16"
        }
      ],
      "name": "getGlobalSize",
      "outputs": [
        {
          "internalType": "uint256",
          "name": "sizesLong",
          "type": "uint256"
        },
        {
          "internalType": "uint256",
          "name": "sizesShort",
          "type": "uint256"
        }
      ],
      "stateMutability": "view",
      "type": "function"
    },
    {
      "inputs": [
        {
          "components": [
            {
              "internalType": "uint256",
              "name": "oraclePrice",
              "type": "uint256"
            },
            {
              "internalType": "uint256",
              "name": "pay",
              "type": "uint256"
            },
            {
              "internalType": "uint256",
              "name": "slippage",
              "type": "uint256"
            },
            {
              "internalType": "uint16",
              "name": "market",
              "type": "uint16"
            },
            {
              "internalType": "bool",
              "name": "isLong",
              "type": "bool"
            },
            {
              "internalType": "bool",
              "name": "isOpen",
              "type": "bool"
            },
            {
              "internalType": "bool",
              "name": "isCreate",
              "type": "bool"
            },
            {
              "internalType": "bool",
              "name": "isFromMarket",
              "type": "bool"
            },
            {
              "internalType": "uint256",
              "name": "sizeDelta",
              "type": "uint256"
            },
            {
              "internalType": "uint256",
              "name": "price",
              "type": "uint256"
            },
            {
              "internalType": "uint256",
              "name": "collateralDelta",
              "type": "uint256"
            },
            {
              "internalType": "uint256",
              "name": "collateral",
              "type": "uint256"
            },
            {
              "internalType": "uint256",
              "name": "tp",
              "type": "uint256"
            },
            {
              "internalType": "uint256",
              "name": "sl",
              "type": "uint256"
            },
            {
              "internalType": "uint64",
              "name": "orderId",
              "type": "uint64"
            },
            {
              "internalType": "address",
              "name": "account",
              "type": "address"
            },
            {
              "internalType": "bool",
              "name": "isExec",
              "type": "bool"
            },
            {
              "internalType": "uint8",
              "name": "liqState",
              "type": "uint8"
            },
            {
              "internalType": "uint64",
              "name": "fromOrder",
              "type": "uint64"
            },
            {
              "internalType": "bytes32",
              "name": "refCode",
              "type": "bytes32"
            },
            {
              "internalType": "uint8",
              "name": "execNum",
              "type": "uint8"
            },
            {
              "internalType": "bool",
              "name": "isKeepLev",
              "type": "bool"
            },
            {
              "internalType": "bool",
              "name": "isKeepLevTP",
              "type": "bool"
            },
            {
              "internalType": "bool",
              "name": "isKeepLevSL",
              "type": "bool"
            },
            {
              "internalType": "bool",
              "name": "triggerAbove",
              "type": "bool"
            },
            {
              "internalType": "uint128",
              "name": "gas",
              "type": "uint128"
            }
          ],
          "internalType": "struct MarketDataTypes.Cache",
          "name": "_inputs",
          "type": "tuple"
        }
      ],
      "name": "increasePositionWithOrders",
      "outputs": [],
      "stateMutability": "nonpayable",
      "type": "function"
    }
  ],
  "transactionHash": "0x871c7094f885ca343c64dcbad25f802c1f0a282b34a3ef0ce875b4499609dd32",
  "args": [],
  "numDeployments": 2,
  "solcInputHash": "07a6d221f85f7cb630ab3a7e565bb5d1",
  "bytecode": "0x608060405234801561001057600080fd5b50615d4880620000216000396000f3fe608060405234801561001057600080fd5b506004361061004c5760003560e01c8063599ec4ee146100515780638593090f1461006d578063a01e7bc61461009e578063db1d09b7146100cf575b600080fd5b61006b60048036038101906100669190614078565b6100eb565b005b610087600480360381019061008291906140ba565b610152565b604051610095929190614109565b60405180910390f35b6100b860048036038101906100b39190614132565b6101d3565b6040516100c6929190614109565b60405180910390f35b6100e960048036038101906100e4919061415f565b610251565b005b6100f733600036610504565b61010082610657565b8060a00151610144576040517f08c379a000000000000000000000000000000000000000000000000000000000815260040161013b906141ea565b60405180910390fd5b61014e8282610720565b5050565b6000806000610160856109cf565b905060005b81518110156101ca576000806101958484815181106101875761018661420a565b5b602002602001015188610a72565b9150915081866101a59190614268565b955080856101b39190614268565b9450505080806101c29061429c565b915050610165565b50509250929050565b60008060006101e1846109cf565b905060005b815181101561024a576000806102158484815181106102085761020761420a565b5b6020026020010151610b4d565b9150915081866102259190614268565b955080856102339190614268565b9450505080806102429061429c565b9150506101e6565b5050915091565b6102648160600151826101400151610bac565b60008160400151148015610287575080610240015167ffffffffffffffff166000145b1561029857601e8160400181815250505b6102aa81606001518260800151610bb0565b81600001818152505060006102e7826101e0015183606001516000856101000151146102da5784600001516102dd565b60005b8560800151610bd3565b905060006102f58383610d1b565b9050600081121561030557600090505b6000610331846060015161032c866060015187608001518860a00151896101e00151610ebf565b610f34565b905080151560001515148061034b57506000846101000151145b1561035857505050610501565b6000808561018001511415801561039657508460800151151585610120015186610180015111151514806103955750846101200151856101800151145b5b9050600080866101a00151141580156103d65750856101a001518661012001511115158660800151151514806103d55750856101a00151866101200151145b5b9050606060008380156103e65750825b6104065783806103f35750825b6103fe576000610401565b60015b610409565b60025b60ff16905060008111156104ed578067ffffffffffffffff81111561043157610430613900565b5b60405190808252806020026020018201604052801561046a57816020015b6104576136d3565b81526020019060019003908161044f5790505b50915061048f888786610482578a6101a00151610489565b8a61018001515b87610f3c565b826000815181106104a3576104a261420a565b5b6020026020010181905250600281036104e8576104c888878a6101a001516000610f3c565b826001815181106104dc576104db61420a565b5b60200260200101819052505b6104f9565b50505050505050610501565b505050505050505b50565b600061050e6110aa565b905060008061054461051e6110da565b87308888600090600492610534939291906142ee565b9061053f919061436d565b61110d565b915091508161064f5760008163ffffffff1611156106115760018360000160146101000a81548160ff0219169083151502179055506105816110da565b73ffffffffffffffffffffffffffffffffffffffff166394c7d7ee8787876040518463ffffffff1660e01b81526004016105bd93929190614428565b600060405180830381600087803b1580156105d757600080fd5b505af11580156105eb573d6000803e3d6000fd5b5050505060008360000160146101000a81548160ff02191690831515021790555061064e565b856040517f068ca9d8000000000000000000000000000000000000000000000000000000008152600401610645919061445a565b60405180910390fd5b5b505050505050565b600073ffffffffffffffffffffffffffffffffffffffff16816101e0015173ffffffffffffffffffffffffffffffffffffffff16036106cb576040517f08c379a00000000000000000000000000000000000000000000000000000000081526004016106c2906144c1565b60405180910390fd5b600081610140015167ffffffffffffffff160361071d576040517f08c379a0000000000000000000000000000000000000000000000000000000008152600401610714906144c1565b60405180910390fd5b50565b61073281606001518260800151610bb0565b816000018181525050600073ffffffffffffffffffffffffffffffffffffffff16826101e0015173ffffffffffffffffffffffffffffffffffffffff16036107af576040517f08c379a00000000000000000000000000000000000000000000000000000000081526004016107a69061452d565b60405180910390fd5b6107b881611233565b6107e581606001518260a001518360800151856101e0015186610140015167ffffffffffffffff16611236565b50600181610280018181516107fa919061454d565b91509060ff16908160ff168152505061082081600001518361126090919063ffffffff16565b8260c00151610864576040518060400160405280601b81526020017f506f736974696f6e4164644d67723a7472696767657261626f7665000000000081525061089b565b6040518060400160405280601e81526020017f506f736974696f6e4164644d67723a6d61726b657420736c69707061676500008152505b906108dc576040517f08c379a00000000000000000000000000000000000000000000000000000000081526004016108d391906145f0565b60405180910390fd5b5081602001516fffffffffffffffffffffffffffffffff168161014001511461093a576040517f08c379a000000000000000000000000000000000000000000000000000000000815260040161093190614684565b60405180910390fd5b816101e0015173ffffffffffffffffffffffffffffffffffffffff167f41d5395cd16fc4604df1bdb606cb21b8df927081e897d9137fbae993cc44ddd982608001518360a001518561014001518560600151600360078111156109a05761099f6146a4565b5b876000015160006040516109ba979695949392919061477a565b60405180910390a26109cb81610251565b5050565b606060006109db61127d565b60030160008461ffff1661ffff16815260200190815260200160002060009054906101000a900473ffffffffffffffffffffffffffffffffffffffff169050610a6a610a2561127d565b60060160008373ffffffffffffffffffffffffffffffffffffffff1673ffffffffffffffffffffffffffffffffffffffff1681526020019081526020016000206112aa565b915050919050565b6000806000610a7f6112cb565b9050806000016000610a928760016112f8565b815260200190815260200160002060008573ffffffffffffffffffffffffffffffffffffffff1673ffffffffffffffffffffffffffffffffffffffff168152602001908152602001600020600001549250806000016000610af48760006112f8565b815260200190815260200160002060008573ffffffffffffffffffffffffffffffffffffffff1673ffffffffffffffffffffffffffffffffffffffff168152602001908152602001600020600001549150509250929050565b6000806000610b5a6112cb565b9050806002016000610b6d8660016112f8565b8152602001908152602001600020600001549250806002016000610b928660006112f8565b815260200190815260200160002060000154915050915091565b5050565b600080610bbd848461132d565b9050610bca8482856113e6565b91505092915050565b610bdb6137f1565b610be36112cb565b6000016000610bf286856112f8565b815260200190815260200160002060008673ffffffffffffffffffffffffffffffffffffffff1673ffffffffffffffffffffffffffffffffffffffff1681526020019081526020016000206040518061012001604052908160008201548152602001600182015481526020016002820154815260200160038201548152602001600482015481526020016005820160009054906101000a900460ff161515151581526020016005820160019054906101000a900463ffffffff1663ffffffff1663ffffffff1681526020016005820160059054906101000a900461ffff1661ffff1661ffff1681526020016005820160079054906101000a900468ffffffffffffffffff1668ffffffffffffffffff1668ffffffffffffffffff16815250509050949350505050565b6000806000610d2d8560600151610b4d565b91509150610d3961157c565b73ffffffffffffffffffffffffffffffffffffffff1663a256a116866060015184846040518463ffffffff1660e01b8152600401610d79939291906147fd565b600060405180830381600087803b158015610d9357600080fd5b505af1158015610da7573d6000803e3d6000fd5b505050506000610db78686611584565b90506000610dc48261158c565b905060008761010001511115610e0557610e00878784604051602001610dec93929190614c70565b6040516020818303038152906040526115de565b610e47565b610e46600287602001518961014001518960000151600086604051602001610e3296959493929190614d27565b6040516020818303038152906040526115e1565b5b6000610e516115e4565b6007016000896060015161ffff1661ffff1681526020019081526020016000206000896080015115151515815260200190815260200160002054905081610e9c896101400151611611565b610ea69190614d88565b9550610eb3888783611680565b50505050505092915050565b600080610ecd8686866118a2565b9050610ed76118da565b600201600082815260200190815260200160002060008473ffffffffffffffffffffffffffffffffffffffff1673ffffffffffffffffffffffffffffffffffffffff16815260200190815260200160002054915050949350505050565b600092915050565b610f446136d3565b8460600151816060019061ffff16908161ffff16815250508460800151816080019015159081151581525050610f838560600151866080015115610bb0565b81600001818152505060018160c001901515908115158152505084610240015181610240019067ffffffffffffffff16908167ffffffffffffffff1681525050846101e00151816101e0019073ffffffffffffffffffffffffffffffffffffffff16908173ffffffffffffffffffffffffffffffffffffffff16815250508461010001518161010001818152505060008161016001818152505081801561102c5750846102c001515b806110495750811515600015151480156110485750846102e001515b5b1561106c5783816101600181815250506001816102a00190151590811515815250505b846080015115158215151481610300019015159081151581525050828161012001818152505084610260015181610260018181525050949350505050565b6000807ff3177357ab46d8af007ab3fdb9af81da189e1068fefdc0073dca88a2cab40a0060001b90508091505090565b60006110e46110aa565b60000160009054906101000a900473ffffffffffffffffffffffffffffffffffffffff16905090565b6000806000808773ffffffffffffffffffffffffffffffffffffffff1687878760405160240161113f93929190614dda565b60405160208183030381529060405263b700961360e01b6020820180517bffffffffffffffffffffffffffffffffffffffffffffffffffffffff83818316178352505050506040516111919190614e58565b600060405180830381855afa9150503d80600081146111cc576040519150601f19603f3d011682016040523d82523d6000602084013e6111d1565b606091505b5091509150811561122857604081511061120657808060200190518101906111f99190614e99565b8094508195505050611227565b602081511061122657808060200190518101906112239190614ed9565b93505b5b5b505094509492505050565b50565b606060006112458786886118a2565b905060006112538585611907565b9050505095945050505050565b60008260c00151806112755750818360600151145b905092915050565b6000807f2eec39e2b6bcfb5f1ee2be0b6e9d5a470a45585b1e2f7f291af9fb9f551763d090508091505090565b606060006112ba8360000161193a565b905060608190508092505050919050565b6000807f92bcfabaf0a890def3092675474357e5f93a0f117ca63a3db421d44c5b55fba590508091505090565b6000818360405160200161130d929190614f84565b60405160208183030381529060405261132590614fd5565b905092915050565b60008061133a8484611996565b905060006113488585611996565b90506c0c9f2c9cd04674edea400000007fffffffffffffffffffffffffffffffffffffffffffffffffffffffffffffffff611383919061506b565b8210156113b757806c0c9f2c9cd04674edea40000000836113a4919061509c565b6113ae919061506b565b925050506113e0565b806c0c9f2c9cd04674edea40000000836113d1919061506b565b6113db919061509c565b925050505b92915050565b6000806113f1611f23565b60060160008661ffff1661ffff16815260200190815260200160002060000160149054906101000a900463ffffffff1663ffffffff1690506000611433611f23565b60040160008761ffff1661ffff16815260200190815260200160002054905061145a611f23565b60010160000160089054906101000a900463ffffffff1663ffffffff16826114829190614268565b4211806114bd5750611492611f23565b60010160000160049054906101000a900463ffffffff1663ffffffff16826114ba9190614268565b42115b806114c85750600081145b156114d7578492505050611575565b60008186116114f15785826114ec91906150de565b6114fe565b81866114fd91906150de565b5b9050856127108261150f919061509c565b611519919061506b565b905061152487611f50565b80156115545750611533611f23565b60010160000160009054906101000a900463ffffffff1663ffffffff168111155b1561156457819350505050611575565b61156f868387611fbd565b93505050505b9392505050565b600030905090565b606092915050565b600080600090505b82518110156115d8578281815181106115b0576115af61420a565b5b6020026020010151826115c39190615112565b915080806115d09061429c565b915050611594565b50919050565b50565b50565b6000807f8044e54adfaacc587fefea0831a427898a157664a4fc313bb47c3132ec6276ed90508091505090565b60007f7fffffffffffffffffffffffffffffffffffffffffffffffffffffffffffffff82111561167857816040517f24775e0600000000000000000000000000000000000000000000000000000000815260040161166f9190615156565b60405180910390fd5b819050919050565b6116886137f1565b600084610100015114801561169d5750600083125b156116f0576116e9846101e00151846116b590615171565b8661010001518588608001516040516020016116d59594939291906151b9565b604051602081830303815290604052611ff1565b9050611884565b60006116fa61127d565b6003016000866060015161ffff1661ffff16815260200190815260200160002060009054906101000a900473ffffffffffffffffffffffffffffffffffffffff169050600061174c866060015161245f565b90508173ffffffffffffffffffffffffffffffffffffffff1663f5151f3587606001516117ec8961010001518573ffffffffffffffffffffffffffffffffffffffff1663313ce5676040518163ffffffff1660e01b8152600401602060405180830381865afa1580156117c3573d6000803e3d6000fd5b505050506040513d601f19601f820116820180604052508101906117e79190615221565b6124ad565b6040518363ffffffff1660e01b815260040161180992919061524e565b600060405180830381600087803b15801561182357600080fd5b505af1158015611837573d6000803e3d6000fd5b5050505061187f866101e00151868861010001518960000151888b6080015160405160200161186b96959493929190615277565b6040516020818303038152906040526124ea565b925050505b61189b846060015182600001518360200151612905565b9392505050565b60008282856040516020016118b9939291906152d8565b6040516020818303038152906040526118d190614fd5565b90509392505050565b6000807fbf93ccae7e050fdad00615e220e3f9b7ebb112ac9318fb8604653a7d8091238890508091505090565b6000828260405160200161191c929190615393565b60405160208183030381529060405280519060200120905092915050565b60608160000180548060200260200160405190810160405280929190818152602001828054801561198a57602002820191906000526020600020905b815481526020019060010190808311611976575b50505050509050919050565b6000806119a1611f23565b60020160008561ffff1661ffff16815260200190815260200160002060009054906101000a900473ffffffffffffffffffffffffffffffffffffffff169050600073ffffffffffffffffffffffffffffffffffffffff168173ffffffffffffffffffffffffffffffffffffffff1603611a4f576040517f08c379a0000000000000000000000000000000000000000000000000000000008152600401611a469061540b565b60405180910390fd5b600080611a5a611f23565b60020160008761ffff1661ffff16815260200190815260200160002060009054906101000a900473ffffffffffffffffffffffffffffffffffffffff1673ffffffffffffffffffffffffffffffffffffffff1663668a0f026040518163ffffffff1660e01b8152600401602060405180830381865afa158015611ae1573d6000803e3d6000fd5b505050506040513d601f19601f82011682018060405250810190611b05919061546d565b905060005b611b12611f23565b60010160000160109054906101000a900463ffffffff1663ffffffff168169ffffffffffffffffffff161015611de9578069ffffffffffffffffffff168269ffffffffffffffffffff161115611de9576000808269ffffffffffffffffffff1603611c7a576000611b81611f23565b60020160008a61ffff1661ffff16815260200190815260200160002060009054906101000a900473ffffffffffffffffffffffffffffffffffffffff1673ffffffffffffffffffffffffffffffffffffffff166350d25bcd6040518163ffffffff1660e01b8152600401602060405180830381865afa158015611c08573d6000803e3d6000fd5b505050506040513d601f19601f82011682018060405250810190611c2c91906154c6565b905060008113611c71576040517f08c379a0000000000000000000000000000000000000000000000000000000008152600401611c689061553f565b60405180910390fd5b80915050611d93565b6000611c84611f23565b60020160008a61ffff1661ffff16815260200190815260200160002060009054906101000a900473ffffffffffffffffffffffffffffffffffffffff1673ffffffffffffffffffffffffffffffffffffffff16639a6fc8f58486611ce8919061555f565b6040518263ffffffff1660e01b8152600401611d0491906155ac565b60a060405180830381865afa158015611d21573d6000803e3d6000fd5b505050506040513d601f19601f82011682018060405250810190611d4591906155dc565b50505091505060008113611d8e576040517f08c379a0000000000000000000000000000000000000000000000000000000008152600401611d859061553f565b60405180910390fd5b809150505b60008403611da45780935050611dd6565b868015611db057508381115b15611dbe5780935050611dd6565b86158015611dcb57508381105b15611dd4578093505b505b8080611de190615657565b915050611b0a565b5060008211611e2d576040517f08c379a0000000000000000000000000000000000000000000000000000000008152600401611e24906156d5565b60405180910390fd5b6000611e37611f23565b60020160008861ffff1661ffff16815260200190815260200160002060009054906101000a900473ffffffffffffffffffffffffffffffffffffffff1673ffffffffffffffffffffffffffffffffffffffff1663313ce5676040518163ffffffff1660e01b8152600401602060405180830381865afa158015611ebe573d6000803e3d6000fd5b505050506040513d601f19601f82011682018060405250810190611ee29190615221565b60ff16905080600a611ef49190615828565b6c0c9f2c9cd04674edea4000000084611f0d919061509c565b611f17919061506b565b94505050505092915050565b6000807f215c1de8a6459dcf0789cdceef063745b34797042fd1550737c0f263affdef6490508091505090565b6000806000611f5e8461290a565b9350935050508181118015611fa15750611f76611f23565b60050160008561ffff1661ffff168152602001908152602001600020548282611f9f91906150de565b115b15611fb157600092505050611fb8565b6001925050505b919050565b600081611fd857828410611fd15782611fd3565b835b611fe8565b828411611fe55782611fe7565b835b5b90509392505050565b611ff96137f1565b612001613854565b8280602001905181019061201591906158c6565b866000018760200188604001896060018a60a0018b60c00186151515158152508681525086815250868152508673ffffffffffffffffffffffffffffffffffffffff1673ffffffffffffffffffffffffffffffffffffffff168152508661ffff1661ffff1681525050505050505060008160e00190151590811515815250506120a681600001518260c001516112f8565b816101000181815250506120b86112cb565b600001600082610100015181526020019081526020016000206000826020015173ffffffffffffffffffffffffffffffffffffffff1673ffffffffffffffffffffffffffffffffffffffff1681526020019081526020016000206040518061012001604052908160008201548152602001600182015481526020016002820154815260200160038201548152602001600482015481526020016005820160009054906101000a900460ff161515151581526020016005820160019054906101000a900463ffffffff1663ffffffff1663ffffffff1681526020016005820160059054906101000a900461ffff1661ffff1661ffff1681526020016005820160079054906101000a900468ffffffffffffffffff1668ffffffffffffffffff1668ffffffffffffffffff16815250508161012001819052504263ffffffff1681610120015160c0015163ffffffff1603612246576040517f08c379a000000000000000000000000000000000000000000000000000000000815260040161223d9061599f565b60405180910390fd5b612254816101200151612a57565b612293576040517f08c379a000000000000000000000000000000000000000000000000000000000815260040161228a90615a0b565b60405180910390fd5b6000816040015113156122f9576122ad8160400151612a90565b8161012001516020015110156122f8576040517f08c379a00000000000000000000000000000000000000000000000000000000081526004016122ef90615a77565b60405180910390fd5b5b8060600151816101200151600001511015612349576040517f08c379a000000000000000000000000000000000000000000000000000000000815260040161234090615ae3565b60405180910390fd5b8060600151816101200151600001511461244f578060a00151816101200151604001818152505080606001518161012001516000015161238991906150de565b81610120015160000181815250506123c081604001516123b183610120015160200151611611565b6123bb9190614d88565b612a90565b81610120015160200181815250506123dc816101200151612a57565b61241b576040517f08c379a000000000000000000000000000000000000000000000000000000000815260040161241290615a0b565b60405180910390fd5b61242481612adf565b8061012001516000015182600001818152505080610120015160200151826020018181525050612459565b61245881612dc3565b5b50919050565b600061246961127d565b60040160008361ffff1661ffff16815260200190815260200160002060009054906101000a900473ffffffffffffffffffffffffffffffffffffffff169050919050565b60006012600a6124bd9190615b03565b8260ff16600a6124cd9190615828565b846124d8919061509c565b6124e2919061506b565b905092915050565b6124f26137f1565b6124fa613854565b8280602001905181019061250e9190615b4e565b8760000188602001896040018a6060018b6080018c60a0018d60c0018715151515815250878152508781525087815250878152508773ffffffffffffffffffffffffffffffffffffffff1673ffffffffffffffffffffffffffffffffffffffff168152508761ffff1661ffff168152505050505050505060018160e00190151590811515815250506125a881600001518260c001516112f8565b816101000181815250506125ba6112cb565b600001600082610100015181526020019081526020016000206000826020015173ffffffffffffffffffffffffffffffffffffffff1673ffffffffffffffffffffffffffffffffffffffff1681526020019081526020016000206040518061012001604052908160008201548152602001600182015481526020016002820154815260200160038201548152602001600482015481526020016005820160009054906101000a900460ff161515151581526020016005820160019054906101000a900463ffffffff1663ffffffff1663ffffffff1681526020016005820160059054906101000a900461ffff1661ffff1661ffff1681526020016005820160079054906101000a900468ffffffffffffffffff1668ffffffffffffffffff1668ffffffffffffffffff1681525050816101200181905250600081610120015160000151036127285780608001516fffffffffffffffffffffffffffffffff1681610120015160800181815250505b600081610120015160000151118015612745575060008160600151115b156127dc5760008061276983608001518461012001516130c190919063ffffffff16565b9150915061279383606001518460800151838587610120015161315090949392919063ffffffff16565b83610120015160800181815250506000826127b757816127b290615171565b6127b9565b815b905080856060018181525050836101200151608001518560800181815250505050505b61280581604001516127f683610120015160200151611611565b6128009190615112565b612a90565b81610120015160200181815250508060a00151816101200151604001818152505080606001518161012001516000015161283f9190614268565b81610120015160000181815250508060c0015181610120015160a00190151590811515815250504281610120015160c0019063ffffffff16908163ffffffff1681525050612891816101200151612a57565b6128d0576040517f08c379a00000000000000000000000000000000000000000000000000000000081526004016128c790615a0b565b60405180910390fd5b6128d981612adf565b806101200151600001518260000181815250508061012001516020015182602001818152505050919050565b505050565b600080600080600061291a611f23565b60060160008761ffff1661ffff1681526020019081526020016000206040518060800160405290816000820160009054906101000a900473ffffffffffffffffffffffffffffffffffffffff1673ffffffffffffffffffffffffffffffffffffffff1673ffffffffffffffffffffffffffffffffffffffff1681526020016000820160149054906101000a900463ffffffff1663ffffffff1663ffffffff1681526020016000820160189054906101000a900463ffffffff1663ffffffff1663ffffffff16815260200160008201601c9054906101000a900463ffffffff1663ffffffff1663ffffffff16815250509050806000015173ffffffffffffffffffffffffffffffffffffffff16816020015163ffffffff16826040015163ffffffff16836060015163ffffffff169450945094509450509193509193565b600080826000015103612a6d5760009050612a8b565b816020015182600001511015612a865760009050612a8b565b600190505b919050565b600080821215612ad757816040517fa8ce4432000000000000000000000000000000000000000000000000000000008152600401612ace9190615bf0565b60405180910390fd5b819050919050565b612ae8816131e5565b816101400181905250806101200151612aff6112cb565b600001600083610100015181526020019081526020016000206000836020015173ffffffffffffffffffffffffffffffffffffffff1673ffffffffffffffffffffffffffffffffffffffff168152602001908152602001600020600082015181600001556020820151816001015560408201518160020155606082015181600301556080820151816004015560a08201518160050160006101000a81548160ff02191690831515021790555060c08201518160050160016101000a81548163ffffffff021916908363ffffffff16021790555060e08201518160050160056101000a81548161ffff021916908361ffff1602179055506101008201518160050160076101000a81548168ffffffffffffffffff021916908368ffffffffffffffffff160217905550905050806101400151612c386112cb565b60020160008361010001518152602001908152602001600020600082015181600001556020820151816001015560408201518160020155606082015181600301556080820151816004015560a08201518160050160006101000a81548160ff02191690831515021790555060c08201518160050160016101000a81548163ffffffff021916908363ffffffff16021790555060e08201518160050160056101000a81548161ffff021916908361ffff1602179055506101008201518160050160076101000a81548168ffffffffffffffffff021916908368ffffffffffffffffff160217905550905050612d598160200151612d326112cb565b6001016000846101000151815260200190815260200160002061342090919063ffffffff16565b50806020015173ffffffffffffffffffffffffffffffffffffffff167f0d77a4156ff764dade22a2cd25a68a83ff04b20df143bba5d162a6a9807026238261012001516000015183610120015160200151604051612db8929190614109565b60405180910390a250565b6000612dfc8260200151612dd56112cb565b6001016000856101000151815260200190815260200160002061345090919063ffffffff16565b905080612e3e576040517f08c379a0000000000000000000000000000000000000000000000000000000008152600401612e3590615c57565b60405180910390fd5b816101400151612e4c6112cb565b60020160008461010001518152602001908152602001600020600082015181600001556020820151816001015560408201518160020155606082015181600301556080820151816004015560a08201518160050160006101000a81548160ff02191690831515021790555060c08201518160050160016101000a81548163ffffffff021916908363ffffffff16021790555060e08201518160050160056101000a81548161ffff021916908361ffff1602179055506101008201518160050160076101000a81548168ffffffffffffffffff021916908368ffffffffffffffffff160217905550905050612f3e6112cb565b600001600083610100015181526020019081526020016000206000836020015173ffffffffffffffffffffffffffffffffffffffff1673ffffffffffffffffffffffffffffffffffffffff16815260200190815260200160002060008082016000905560018201600090556002820160009055600382016000905560048201600090556005820160006101000a81549060ff02191690556005820160016101000a81549063ffffffff02191690556005820160056101000a81549061ffff02191690556005820160076101000a81549068ffffffffffffffffff02191690555050613056826020015161302f6112cb565b6001016000856101000151815260200190815260200160002061348090919063ffffffff16565b50816020015173ffffffffffffffffffffffffffffffffffffffff167f20b3ac24c835264e655c493af7b3db37ff78a0f358627f0de89832abc7e1deca83610120015160000151846101200151602001516040516130b5929190614109565b60405180910390a25050565b6000806000838560800151116130e6578460800151846130e191906150de565b6130f7565b8385608001516130f691906150de565b5b905060008560800151828760000151613110919061509c565b61311a919061506b565b905060008660a001511561313657866080015186119050613140565b8587608001511190505b8082945094505050509250929050565b6000808587600001516131639190614268565b905060008760a001511561319b578361318757848261318291906150de565b613194565b84826131939190614268565b5b90506131c1565b836131b15784826131ac9190614268565b6131be565b84826131bd91906150de565b5b90505b8082876131ce919061509c565b6131d8919061506b565b9250505095945050505050565b6131ed6137f1565b60006131f76112cb565b600201600084610100015181526020019081526020016000206040518061012001604052908160008201548152602001600182015481526020016002820154815260200160038201548152602001600482015481526020016005820160009054906101000a900460ff161515151581526020016005820160019054906101000a900463ffffffff1663ffffffff1663ffffffff1681526020016005820160059054906101000a900461ffff1661ffff1661ffff1681526020016005820160079054906101000a900468ffffffffffffffffff1668ffffffffffffffffff1668ffffffffffffffffff168152505090508260e00151156133d457600061330582856060015186608001516134b0565b90506064811161334a576040517f08c379a000000000000000000000000000000000000000000000000000000000815260040161334190615cc3565b60405180910390fd5b8082608001818152505083606001518260000181815161336a9190614268565b9150818152505061339584604001516133868460200151611611565b6133909190615112565b612a90565b8260200181815250508360c001518260a0019015159081151581525050428260c0019063ffffffff16908163ffffffff1681525050819250505061341b565b8260600151816000018181516133ea91906150de565b915081815250506133fe8360400151612a90565b8160200181815161340f91906150de565b91508181525050809150505b919050565b6000613448836000018373ffffffffffffffffffffffffffffffffffffffff1660001b61352c565b905092915050565b6000613478836000018373ffffffffffffffffffffffffffffffffffffffff1660001b61359c565b905092915050565b60006134a8836000018373ffffffffffffffffffffffffffffffffffffffff1660001b6135bf565b905092915050565b6000808460000151036134c557819050613525565b600084600001511180156134d95750600083115b1561351d576000806134f484876130c190919063ffffffff16565b91509150613511858583858a61315090949392919063ffffffff16565b86608001818152505050505b836080015190505b9392505050565b6000613538838361359c565b613591578260000182908060018154018082558091505060019003906000526020600020016000909190919091505582600001805490508360010160008481526020019081526020016000208190555060019050613596565b600090505b92915050565b600080836001016000848152602001908152602001600020541415905092915050565b600080836001016000848152602001908152602001600020549050600081146136c75760006001826135f191906150de565b905060006001866000018054905061360991906150de565b905080821461367857600086600001828154811061362a5761362961420a565b5b906000526020600020015490508087600001848154811061364e5761364d61420a565b5b90600052602060002001819055508387600101600083815260200190815260200160002081905550505b8560000180548061368c5761368b615ce3565b5b6001900381819060005260206000200160009055905585600101600086815260200190815260200160002060009055600193505050506136cd565b60009150505b92915050565b604051806103400160405280600081526020016000815260200160008152602001600061ffff168152602001600015158152602001600015158152602001600015158152602001600015158152602001600081526020016000815260200160008152602001600081526020016000815260200160008152602001600067ffffffffffffffff168152602001600073ffffffffffffffffffffffffffffffffffffffff168152602001600015158152602001600060ff168152602001600067ffffffffffffffff16815260200160008019168152602001600060ff16815260200160001515815260200160001515815260200160001515815260200160001515815260200160006fffffffffffffffffffffffffffffffff1681525090565b6040518061012001604052806000815260200160008152602001600081526020016000815260200160008152602001600015158152602001600063ffffffff168152602001600061ffff168152602001600068ffffffffffffffffff1681525090565b604051806101600160405280600061ffff168152602001600073ffffffffffffffffffffffffffffffffffffffff16815260200160008152602001600081526020016000815260200160008152602001600015158152602001600015158152602001600080191681526020016138c86137f1565b81526020016138d56137f1565b81525090565b6000604051905090565b600080fd5b600080fd5b6000601f19601f8301169050919050565b7f4e487b7100000000000000000000000000000000000000000000000000000000600052604160045260246000fd5b613938826138ef565b810181811067ffffffffffffffff8211171561395757613956613900565b5b80604052505050565b600061396a6138db565b9050613976828261392f565b919050565b6000819050919050565b61398e8161397b565b811461399957600080fd5b50565b6000813590506139ab81613985565b92915050565b60006fffffffffffffffffffffffffffffffff82169050919050565b6139d6816139b1565b81146139e157600080fd5b50565b6000813590506139f3816139cd565b92915050565b6000819050919050565b613a0c816139f9565b8114613a1757600080fd5b50565b600081359050613a2981613a03565b92915050565b60008115159050919050565b613a4481613a2f565b8114613a4f57600080fd5b50565b600081359050613a6181613a3b565b92915050565b600067ffffffffffffffff82169050919050565b613a8481613a67565b8114613a8f57600080fd5b50565b600081359050613aa181613a7b565b92915050565b600063ffffffff82169050919050565b613ac081613aa7565b8114613acb57600080fd5b50565b600081359050613add81613ab7565b92915050565b600060ff82169050919050565b613af981613ae3565b8114613b0457600080fd5b50565b600081359050613b1681613af0565b92915050565b600073ffffffffffffffffffffffffffffffffffffffff82169050919050565b6000613b4782613b1c565b9050919050565b613b5781613b3c565b8114613b6257600080fd5b50565b600081359050613b7481613b4e565b92915050565b60006bffffffffffffffffffffffff82169050919050565b613b9b81613b7a565b8114613ba657600080fd5b50565b600081359050613bb881613b92565b92915050565b600061ffff82169050919050565b613bd581613bbe565b8114613be057600080fd5b50565b600081359050613bf281613bcc565b92915050565b60006103008284031215613c0f57613c0e6138ea565b5b613c1a610300613960565b90506000613c2a8482850161399c565b6000830152506020613c3e848285016139e4565b6020830152506040613c52848285016139e4565b6040830152506060613c6684828501613a1a565b6060830152506080613c7a84828501613a1a565b60808301525060a0613c8e84828501613a52565b60a08301525060c0613ca284828501613a52565b60c08301525060e0613cb684828501613a52565b60e083015250610100613ccb84828501613a52565b61010083015250610120613ce184828501613a52565b61012083015250610140613cf784828501613a92565b61014083015250610160613d0d84828501613a92565b61016083015250610180613d2384828501613a92565b610180830152506101a0613d3984828501613ace565b6101a0830152506101c0613d4f84828501613b07565b6101c0830152506101e0613d6584828501613b65565b6101e083015250610200613d7b84828501613ba9565b61020083015250610220613d9184828501613a1a565b61022083015250610240613da784828501613a52565b61024083015250610260613dbd84828501613a52565b61026083015250610280613dd384828501613be3565b610280830152506102a0613de984828501613ba9565b6102a0830152506102c0613dff848285016139e4565b6102c0830152506102e0613e1584828501613b07565b6102e08301525092915050565b60006103408284031215613e3957613e386138ea565b5b613e44610340613960565b90506000613e5484828501613a1a565b6000830152506020613e6884828501613a1a565b6020830152506040613e7c84828501613a1a565b6040830152506060613e9084828501613be3565b6060830152506080613ea484828501613a52565b60808301525060a0613eb884828501613a52565b60a08301525060c0613ecc84828501613a52565b60c08301525060e0613ee084828501613a52565b60e083015250610100613ef584828501613a1a565b61010083015250610120613f0b84828501613a1a565b61012083015250610140613f2184828501613a1a565b61014083015250610160613f3784828501613a1a565b61016083015250610180613f4d84828501613a1a565b610180830152506101a0613f6384828501613a1a565b6101a0830152506101c0613f7984828501613a92565b6101c0830152506101e0613f8f84828501613b65565b6101e083015250610200613fa584828501613a52565b61020083015250610220613fbb84828501613b07565b61022083015250610240613fd184828501613a92565b61024083015250610260613fe78482850161399c565b61026083015250610280613ffd84828501613b07565b610280830152506102a061401384828501613a52565b6102a0830152506102c061402984828501613a52565b6102c0830152506102e061403f84828501613a52565b6102e08301525061030061405584828501613a52565b6103008301525061032061406b848285016139e4565b6103208301525092915050565b60008061064083850312156140905761408f6138e5565b5b600061409e85828601613bf8565b9250506103006140b085828601613e22565b9150509250929050565b600080604083850312156140d1576140d06138e5565b5b60006140df85828601613be3565b92505060206140f085828601613b65565b9150509250929050565b614103816139f9565b82525050565b600060408201905061411e60008301856140fa565b61412b60208301846140fa565b9392505050565b600060208284031215614148576141476138e5565b5b600061415684828501613be3565b91505092915050565b60006103408284031215614176576141756138e5565b5b600061418484828501613e22565b91505092915050565b600082825260208201905092915050565b7f506f736974696f6e4164644d67723a696e76616c69642069736f70656e000000600082015250565b60006141d4601d8361418d565b91506141df8261419e565b602082019050919050565b60006020820190508181036000830152614203816141c7565b9050919050565b7f4e487b7100000000000000000000000000000000000000000000000000000000600052603260045260246000fd5b7f4e487b7100000000000000000000000000000000000000000000000000000000600052601160045260246000fd5b6000614273826139f9565b915061427e836139f9565b925082820190508082111561429657614295614239565b5b92915050565b60006142a7826139f9565b91507fffffffffffffffffffffffffffffffffffffffffffffffffffffffffffffffff82036142d9576142d8614239565b5b600182019050919050565b600080fd5b600080fd5b60008085851115614302576143016142e4565b5b83861115614313576143126142e9565b5b6001850283019150848603905094509492505050565b600082905092915050565b60007fffffffff0000000000000000000000000000000000000000000000000000000082169050919050565b600082821b905092915050565b60006143798383614329565b826143848135614334565b925060048210156143c4576143bf7fffffffff0000000000000000000000000000000000000000000000000000000083600403600802614360565b831692505b505092915050565b6143d581613b3c565b82525050565b600082825260208201905092915050565b82818337600083830152505050565b600061440783856143db565b93506144148385846143ec565b61441d836138ef565b840190509392505050565b600060408201905061443d60008301866143cc565b81810360208301526144508184866143fb565b9050949350505050565b600060208201905061446f60008301846143cc565b92915050565b7f696e76616c6964206f72646572206b6579000000000000000000000000000000600082015250565b60006144ab60118361418d565b91506144b682614475565b602082019050919050565b600060208201905081810360008301526144da8161449e565b9050919050565b7f506f736974696f6e4164644d67723a216163636f756e74000000000000000000600082015250565b600061451760178361418d565b9150614522826144e1565b602082019050919050565b600060208201905081810360008301526145468161450a565b9050919050565b600061455882613ae3565b915061456383613ae3565b9250828201905060ff81111561457c5761457b614239565b5b92915050565b600081519050919050565b60005b838110156145ab578082015181840152602081019050614590565b60008484015250505050565b60006145c282614582565b6145cc818561418d565b93506145dc81856020860161458d565b6145e5816138ef565b840191505092915050565b6000602082019050818103600083015261460a81846145b7565b905092915050565b7f506f736974696f6e4164644d67723a20696e73756666696369656e7420636f6c60008201527f6c61746572616c00000000000000000000000000000000000000000000000000602082015250565b600061466e60278361418d565b915061467982614612565b604082019050919050565b6000602082019050818103600083015261469d81614661565b9050919050565b7f4e487b7100000000000000000000000000000000000000000000000000000000600052602160045260246000fd5b6146dc81613a2f565b82525050565b6000819050919050565b60006147076147026146fd84613a67565b6146e2565b6139f9565b9050919050565b614717816146ec565b82525050565b61472681613bbe565b82525050565b61473581613ae3565b82525050565b50565b600061474b60008361418d565b91506147568261473b565b600082019050919050565b6000819050919050565b61477481614761565b82525050565b600061010082019050614790600083018a6146d3565b61479d60208301896146d3565b6147aa604083018861470e565b6147b7606083018761471d565b6147c4608083018661472c565b81810360a08301526147d58161473e565b90506147e460c08301856140fa565b6147f160e083018461476b565b98975050505050505050565b6000606082019050614812600083018661471d565b61481f60208301856140fa565b61482c60408301846140fa565b949350505050565b61483d816139f9565b82525050565b61484c81613bbe565b82525050565b61485b81613a2f565b82525050565b61486a81613a67565b82525050565b61487981613b3c565b82525050565b61488881613ae3565b82525050565b6148978161397b565b82525050565b6148a6816139b1565b82525050565b610340820160008201516148c36000850182614834565b5060208201516148d66020850182614834565b5060408201516148e96040850182614834565b5060608201516148fc6060850182614843565b50608082015161490f6080850182614852565b5060a082015161492260a0850182614852565b5060c082015161493560c0850182614852565b5060e082015161494860e0850182614852565b5061010082015161495d610100850182614834565b50610120820151614972610120850182614834565b50610140820151614987610140850182614834565b5061016082015161499c610160850182614834565b506101808201516149b1610180850182614834565b506101a08201516149c66101a0850182614834565b506101c08201516149db6101c0850182614861565b506101e08201516149f06101e0850182614870565b50610200820151614a05610200850182614852565b50610220820151614a1a61022085018261487f565b50610240820151614a2f610240850182614861565b50610260820151614a4461026085018261488e565b50610280820151614a5961028085018261487f565b506102a0820151614a6e6102a0850182614852565b506102c0820151614a836102c0850182614852565b506102e0820151614a986102e0850182614852565b50610300820151614aad610300850182614852565b50610320820151614ac261032085018261489d565b50505050565b614ad181614761565b82525050565b614ae081613aa7565b82525050565b600068ffffffffffffffffff82169050919050565b614b0481614ae6565b82525050565b61012082016000820151614b216000850182614834565b506020820151614b346020850182614834565b506040820151614b476040850182614ac8565b506060820151614b5a6060850182614ac8565b506080820151614b6d6080850182614834565b5060a0820151614b8060a0850182614852565b5060c0820151614b9360c0850182614ad7565b5060e0820151614ba660e0850182614843565b50610100820151614bbb610100850182614afb565b50505050565b600081519050919050565b600082825260208201905092915050565b6000819050602082019050919050565b6000614bf98383614ac8565b60208301905092915050565b6000602082019050919050565b6000614c1d82614bc1565b614c278185614bcc565b9350614c3283614bdd565b8060005b83811015614c63578151614c4a8882614bed565b9750614c5583614c05565b925050600181019050614c36565b5085935050505092915050565b600061048082019050614c8660008301866148ac565b614c94610340830185614b0a565b818103610460830152614ca78184614c12565b9050949350505050565b6000819050919050565b6000614cd6614cd1614ccc84614cb1565b6146e2565b613ae3565b9050919050565b614ce681614cbb565b82525050565b6000819050919050565b6000614d11614d0c614d0784614cec565b6146e2565b613ae3565b9050919050565b614d2181614cf6565b82525050565b600060c082019050614d3c6000830189614cdd565b614d4960208301886140fa565b614d5660408301876140fa565b614d6360608301866140fa565b614d706080830185614d18565b614d7d60a083018461476b565b979650505050505050565b6000614d9382614761565b9150614d9e83614761565b9250828203905081811260008412168282136000851215161715614dc557614dc4614239565b5b92915050565b614dd481614334565b82525050565b6000606082019050614def60008301866143cc565b614dfc60208301856143cc565b614e096040830184614dcb565b949350505050565b600081519050919050565b600081905092915050565b6000614e3282614e11565b614e3c8185614e1c565b9350614e4c81856020860161458d565b80840191505092915050565b6000614e648284614e27565b915081905092915050565b600081519050614e7e81613a3b565b92915050565b600081519050614e9381613ab7565b92915050565b60008060408385031215614eb057614eaf6138e5565b5b6000614ebe85828601614e6f565b9250506020614ecf85828601614e84565b9150509250929050565b600060208284031215614eef57614eee6138e5565b5b6000614efd84828501614e6f565b91505092915050565b60008160f81b9050919050565b6000614f1e82614f06565b9050919050565b6000614f3082614f13565b9050919050565b614f48614f4382613a2f565b614f25565b82525050565b60008160f01b9050919050565b6000614f6682614f4e565b9050919050565b614f7e614f7982613bbe565b614f5b565b82525050565b6000614f908285614f37565b600182019150614fa08284614f6d565b6002820191508190509392505050565b6000819050602082019050919050565b6000614fcc825161397b565b80915050919050565b6000614fe082614e11565b82614fea84614fb0565b9050614ff581614fc0565b92506020821015615035576150307fffffffffffffffffffffffffffffffffffffffffffffffffffffffffffffffff83602003600802614360565b831692505b5050919050565b7f4e487b7100000000000000000000000000000000000000000000000000000000600052601260045260246000fd5b6000615076826139f9565b9150615081836139f9565b9250826150915761509061503c565b5b828204905092915050565b60006150a7826139f9565b91506150b2836139f9565b92508282026150c0816139f9565b915082820484148315176150d7576150d6614239565b5b5092915050565b60006150e9826139f9565b91506150f4836139f9565b925082820390508181111561510c5761510b614239565b5b92915050565b600061511d82614761565b915061512883614761565b9250828201905082811215600083121683821260008412151617156151505761514f614239565b5b92915050565b600060208201905061516b60008301846140fa565b92915050565b600061517c82614761565b91507f800000000000000000000000000000000000000000000000000000000000000082036151ae576151ad614239565b5b816000039050919050565b600060a0820190506151ce60008301886143cc565b6151db60208301876140fa565b6151e860408301866140fa565b6151f5606083018561476b565b61520260808301846146d3565b9695505050505050565b60008151905061521b81613af0565b92915050565b600060208284031215615237576152366138e5565b5b60006152458482850161520c565b91505092915050565b6000604082019050615263600083018561471d565b61527060208301846140fa565b9392505050565b600060c08201905061528c60008301896143cc565b615299602083018861476b565b6152a660408301876140fa565b6152b360608301866140fa565b6152c0608083018561476b565b6152cd60a08301846146d3565b979650505050505050565b60006152e48286614f37565b6001820191506152f48285614f37565b6001820191506153048284614f6d565b600282019150819050949350505050565b60008160601b9050919050565b600061532d82615315565b9050919050565b600061533f82615322565b9050919050565b61535761535282613b3c565b615334565b82525050565b60008160c01b9050919050565b60006153758261535d565b9050919050565b61538d61538882613a67565b61536a565b82525050565b600061539f8285615346565b6014820191506153af828461537c565b6008820191508190509392505050565b7f5072696365466565643a20696e76616c69642070726963652066656564000000600082015250565b60006153f5601d8361418d565b9150615400826153bf565b602082019050919050565b60006020820190508181036000830152615424816153e8565b9050919050565b600069ffffffffffffffffffff82169050919050565b61544a8161542b565b811461545557600080fd5b50565b60008151905061546781615441565b92915050565b600060208284031215615483576154826138e5565b5b600061549184828501615458565b91505092915050565b6154a381614761565b81146154ae57600080fd5b50565b6000815190506154c08161549a565b92915050565b6000602082840312156154dc576154db6138e5565b5b60006154ea848285016154b1565b91505092915050565b7f5072696365466565643a20696e76616c69642070726963650000000000000000600082015250565b600061552960188361418d565b9150615534826154f3565b602082019050919050565b600060208201905081810360008301526155588161551c565b9050919050565b600061556a8261542b565b91506155758361542b565b9250828203905069ffffffffffffffffffff81111561559757615596614239565b5b92915050565b6155a68161542b565b82525050565b60006020820190506155c1600083018461559d565b92915050565b6000815190506155d681613a03565b92915050565b600080600080600060a086880312156155f8576155f76138e5565b5b600061560688828901615458565b9550506020615617888289016154b1565b9450506040615628888289016155c7565b9350506060615639888289016155c7565b925050608061564a88828901615458565b9150509295509295909350565b60006156628261542b565b915069ffffffffffffffffffff820361567e5761567d614239565b5b600182019050919050565b7f5072696365466565643a20636f756c64206e6f74206665746368207072696365600082015250565b60006156bf60208361418d565b91506156ca82615689565b602082019050919050565b600060208201905081810360008301526156ee816156b2565b9050919050565b60008160011c9050919050565b6000808291508390505b600185111561574c5780860481111561572857615727614239565b5b60018516156157375780820291505b8081029050615745856156f5565b945061570c565b94509492505050565b6000826157655760019050615821565b816157735760009050615821565b81600181146157895760028114615793576157c2565b6001915050615821565b60ff8411156157a5576157a4614239565b5b8360020a9150848211156157bc576157bb614239565b5b50615821565b5060208310610133831016604e8410600b84101617156157f75782820a9050838111156157f2576157f1614239565b5b615821565b6158048484846001615702565b9250905081840481111561581b5761581a614239565b5b81810290505b9392505050565b6000615833826139f9565b915061583e836139f9565b925061586b7fffffffffffffffffffffffffffffffffffffffffffffffffffffffffffffffff8484615755565b905092915050565b60008151905061588281613bcc565b92915050565b600061589382613b1c565b9050919050565b6158a381615888565b81146158ae57600080fd5b50565b6000815190506158c08161589a565b92915050565b60008060008060008060c087890312156158e3576158e26138e5565b5b60006158f189828a01615873565b965050602061590289828a016158b1565b955050604061591389828a016154b1565b945050606061592489828a016155c7565b935050608061593589828a016154b1565b92505060a061594689828a01614e6f565b9150509295509295509295565b7f70623a73616d6520626c6f636b00000000000000000000000000000000000000600082015250565b6000615989600d8361418d565b915061599482615953565b602082019050919050565b600060208201905081810360008301526159b88161597c565b9050919050565b7f706f736974696f6e426f6f6b3a20696e76616c696420706f736974696f6e0000600082015250565b60006159f5601e8361418d565b9150615a00826159bf565b602082019050919050565b60006020820190508181036000830152615a24816159e8565b9050919050565b7f706f736974696f6e426f6f6b3a20696e76616c696420636f6c6c61746572616c600082015250565b6000615a6160208361418d565b9150615a6c82615a2b565b602082019050919050565b60006020820190508181036000830152615a9081615a54565b9050919050565b7f706f736974696f6e426f6f6b3a20696e76616c69642073697a65000000000000600082015250565b6000615acd601a8361418d565b9150615ad882615a97565b602082019050919050565b60006020820190508181036000830152615afc81615ac0565b9050919050565b6000615b0e826139f9565b9150615b1983613ae3565b9250615b467fffffffffffffffffffffffffffffffffffffffffffffffffffffffffffffffff8484615755565b905092915050565b600080600080600080600060e0888a031215615b6d57615b6c6138e5565b5b6000615b7b8a828b01615873565b9750506020615b8c8a828b016158b1565b9650506040615b9d8a828b016154b1565b9550506060615bae8a828b016155c7565b9450506080615bbf8a828b016155c7565b93505060a0615bd08a828b016154b1565b92505060c0615be18a828b01614e6f565b91505092959891949750929550565b6000602082019050615c05600083018461476b565b92915050565b7f706f736974696f6e20646f6573206e6f74206578697374000000000000000000600082015250565b6000615c4160178361418d565b9150615c4c82615c0b565b602082019050919050565b60006020820190508181036000830152615c7081615c34565b9050919050565b7f70623a696e76616c696420676c6f62616c20706f736974696f6e000000000000600082015250565b6000615cad601a8361418d565b9150615cb882615c77565b602082019050919050565b60006020820190508181036000830152615cdc81615ca0565b9050919050565b7f4e487b7100000000000000000000000000000000000000000000000000000000600052603160045260246000fdfea2646970667358221220ad1f0055115551a9b66e9372be195752cfc36084668d2693d566a0fd9e5b4be164736f6c63430008140033",
  "devdoc": {
    "errors": {
      "SafeCastOverflowedIntToUint(int256)": [
        {
          "details": "An int value doesn't fit in an uint of `bits` size."
        }
      ],
      "SafeCastOverflowedUintToInt(uint256)": [
        {
          "details": "An uint value doesn't fit in an int of `bits` size."
        }
      ]
    },
    "kind": "dev",
    "methods": {},
    "version": 1
  },
  "userdoc": {
    "kind": "user",
    "methods": {},
    "version": 1
  },
  "storageLayout": {
    "storage": [],
    "types": null
  }
}