{
  "address": "0x07cd7B1777CE9a90407429F135F5e989b95A513E",
  "abi": [
    {
      "inputs": [
        {
          "internalType": "address",
          "name": "authority",
          "type": "address"
        }
      ],
      "name": "AccessManagedInvalidAuthority",
      "type": "error"
    },
    {
      "inputs": [
        {
          "internalType": "address",
          "name": "caller",
          "type": "address"
        },
        {
          "internalType": "uint32",
          "name": "delay",
          "type": "uint32"
        }
      ],
      "name": "AccessManagedRequiredDelay",
      "type": "error"
    },
    {
      "inputs": [
        {
          "internalType": "address",
          "name": "caller",
          "type": "address"
        }
      ],
      "name": "AccessManagedUnauthorized",
      "type": "error"
    },
    {
      "inputs": [
        {
          "internalType": "int256",
          "name": "value",
          "type": "int256"
        }
      ],
      "name": "SafeCastOverflowedIntToUint",
      "type": "error"
    },
    {
      "inputs": [
        {
          "internalType": "uint256",
          "name": "value",
          "type": "uint256"
        }
      ],
      "name": "SafeCastOverflowedUintToInt",
      "type": "error"
    },
    {
      "inputs": [],
      "name": "TotalFeesLtZero",
      "type": "error"
    },
    {
      "inputs": [
        {
          "components": [
            {
              "internalType": "bytes32",
              "name": "refCode",
              "type": "bytes32"
            },
            {
              "internalType": "uint128",
              "name": "collateral",
              "type": "uint128"
            },
            {
              "internalType": "uint128",
              "name": "size",
              "type": "uint128"
            },
            {
              "internalType": "uint256",
              "name": "price",
              "type": "uint256"
            },
            {
              "internalType": "uint256",
              "name": "tp",
              "type": "uint256"
            },
            {
              "internalType": "bool",
              "name": "triggerAbove",
              "type": "bool"
            },
            {
              "internalType": "bool",
              "name": "isFromMarket",
              "type": "bool"
            },
            {
              "internalType": "bool",
              "name": "isKeepLev",
              "type": "bool"
            },
            {
              "internalType": "bool",
              "name": "isKeepLevTP",
              "type": "bool"
            },
            {
              "internalType": "bool",
              "name": "isKeepLevSL",
              "type": "bool"
            },
            {
              "internalType": "uint64",
              "name": "orderID",
              "type": "uint64"
            },
            {
              "internalType": "uint64",
              "name": "pairId",
              "type": "uint64"
            },
            {
              "internalType": "uint64",
              "name": "fromId",
              "type": "uint64"
            },
            {
              "internalType": "uint32",
              "name": "updatedAtBlock",
              "type": "uint32"
            },
            {
              "internalType": "uint8",
              "name": "extra0",
              "type": "uint8"
            },
            {
              "internalType": "address",
              "name": "account",
              "type": "address"
            },
            {
              "internalType": "uint96",
              "name": "extra1",
              "type": "uint96"
            },
            {
              "internalType": "uint256",
              "name": "sl",
              "type": "uint256"
            },
            {
              "internalType": "bool",
              "name": "isIncrease",
              "type": "bool"
            },
            {
              "internalType": "bool",
              "name": "isLong",
              "type": "bool"
            },
            {
              "internalType": "uint16",
              "name": "market",
              "type": "uint16"
            },
            {
              "internalType": "uint96",
              "name": "extra2",
              "type": "uint96"
            },
            {
              "internalType": "uint128",
              "name": "gas",
              "type": "uint128"
            },
            {
              "internalType": "uint8",
              "name": "version",
              "type": "uint8"
            }
          ],
          "internalType": "struct Order.Props",
          "name": "order",
          "type": "tuple"
        },
        {
          "components": [
            {
              "internalType": "uint256",
              "name": "oraclePrice",
              "type": "uint256"
            },
            {
              "internalType": "uint256",
              "name": "pay",
              "type": "uint256"
            },
            {
              "internalType": "uint256",
              "name": "slippage",
              "type": "uint256"
            },
            {
              "internalType": "uint16",
              "name": "market",
              "type": "uint16"
            },
            {
              "internalType": "bool",
              "name": "isLong",
              "type": "bool"
            },
            {
              "internalType": "bool",
              "name": "isOpen",
              "type": "bool"
            },
            {
              "internalType": "bool",
              "name": "isCreate",
              "type": "bool"
            },
            {
              "internalType": "bool",
              "name": "isFromMarket",
              "type": "bool"
            },
            {
              "internalType": "uint256",
              "name": "sizeDelta",
              "type": "uint256"
            },
            {
              "internalType": "uint256",
              "name": "price",
              "type": "uint256"
            },
            {
              "internalType": "uint256",
              "name": "collateralDelta",
              "type": "uint256"
            },
            {
              "internalType": "uint256",
              "name": "collateral",
              "type": "uint256"
            },
            {
              "internalType": "uint256",
              "name": "tp",
              "type": "uint256"
            },
            {
              "internalType": "uint256",
              "name": "sl",
              "type": "uint256"
            },
            {
              "internalType": "uint64",
              "name": "orderId",
              "type": "uint64"
            },
            {
              "internalType": "address",
              "name": "account",
              "type": "address"
            },
            {
              "internalType": "bool",
              "name": "isExec",
              "type": "bool"
            },
            {
              "internalType": "uint8",
              "name": "liqState",
              "type": "uint8"
            },
            {
              "internalType": "uint64",
              "name": "fromOrder",
              "type": "uint64"
            },
            {
              "internalType": "bytes32",
              "name": "refCode",
              "type": "bytes32"
            },
            {
              "internalType": "uint8",
              "name": "execNum",
              "type": "uint8"
            },
            {
              "internalType": "bool",
              "name": "isKeepLev",
              "type": "bool"
            },
            {
              "internalType": "bool",
              "name": "isKeepLevTP",
              "type": "bool"
            },
            {
              "internalType": "bool",
              "name": "isKeepLevSL",
              "type": "bool"
            },
            {
              "internalType": "bool",
              "name": "triggerAbove",
              "type": "bool"
            },
            {
              "internalType": "uint128",
              "name": "gas",
              "type": "uint128"
            }
          ],
          "internalType": "struct MarketDataTypes.Cache",
          "name": "_params",
          "type": "tuple"
        }
      ],
      "name": "execSubOrderKey",
      "outputs": [],
      "stateMutability": "nonpayable",
      "type": "function"
    },
    {
      "inputs": [
        {
          "internalType": "uint16",
          "name": "market",
          "type": "uint16"
        },
        {
          "internalType": "address",
          "name": "accounts",
          "type": "address"
        },
        {
          "internalType": "bool",
          "name": "_isLong",
          "type": "bool"
        }
      ],
      "name": "liquidate",
      "outputs": [],
      "stateMutability": "nonpayable",
      "type": "function"
    }
  ],
  "transactionHash": "0xdf6ff3487e39e999a4bc8688660a5681d0b655e6cf41ffb0329e8be4e22edda6",
  "args": [],
  "numDeployments": 2,
  "solcInputHash": "26b1a606330f68ddbf2a31d4b14378a8",
  "bytecode": "0x608060405234801561001057600080fd5b5061454c806100206000396000f3fe608060405234801561001057600080fd5b50600436106100365760003560e01c80633d12067a1461003b578063fe0e467e14610057575b600080fd5b61005560048036038101906100509190613112565b610073565b005b610071600480360381019061006c9190613154565b610263565b005b61007c82610268565b600015158160a001511515146100c7576040517f08c379a00000000000000000000000000000000000000000000000000000000081526004016100be90613204565b60405180910390fd5b6000806100d2610331565b73ffffffffffffffffffffffffffffffffffffffff166389d797b98460600151866101e001518587608001516040518563ffffffff1660e01b815260040161011d9493929190613260565b61012060405180830381865afa15801561013b573d6000803e3d6000fd5b505050506040513d601f19601f8201168201806040525081019061015f9190613450565b905060008061016c610339565b73ffffffffffffffffffffffffffffffffffffffff16632ba88be9868560405160200161019a9291906137f6565b6040516020818303038152906040526040518263ffffffff1660e01b81526004016101c591906138a0565b600060405180830381865afa1580156101e2573d6000803e3d6000fd5b505050506040513d6000823e3d601f19601f8201168201806040525081019061020b919061398f565b91509150610250856060015182846004600c81111561022d5761022c6139eb565b5b60ff168151811061024157610240613a1a565b5b60200260200101516001610341565b5061025b868661034b565b505050505050565b505050565b600073ffffffffffffffffffffffffffffffffffffffff16816101e0015173ffffffffffffffffffffffffffffffffffffffff16036102dc576040517f08c379a00000000000000000000000000000000000000000000000000000000081526004016102d390613a95565b60405180910390fd5b600081610140015167ffffffffffffffff160361032e576040517f08c379a000000000000000000000000000000000000000000000000000000000815260040161032590613a95565b60405180910390fd5b50565b600030905090565b600030905090565b6000949350505050565b61035d816060015182608001516106ab565b8160000181815250506000610370610331565b73ffffffffffffffffffffffffffffffffffffffff166389d797b98360600151856101e00151856000015186608001516040518563ffffffff1660e01b81526004016103bf9493929190613260565b61012060405180830381865afa1580156103dd573d6000803e3d6000fd5b505050506040513d601f19601f820116820180604052508101906104019190613450565b9050600083604001516fffffffffffffffffffffffffffffffff16111561045b576104508360e00151826000015185604001516fffffffffffffffffffffffffffffffff168460200151610739565b826101400181815250505b600061048a83606001518460a001518560800151876101e0015188610140015167ffffffffffffffff1661076c565b9050600073ffffffffffffffffffffffffffffffffffffffff16816000815181106104b8576104b7613a1a565b5b60200260200101516101e0015173ffffffffffffffffffffffffffffffffffffffff160361051b576040517f08c379a000000000000000000000000000000000000000000000000000000000815260040161051290613b01565b60405180910390fd5b60005b815181101561069a57600082828151811061053c5761053b613a1a565b5b60200260200101519050806101e0015173ffffffffffffffffffffffffffffffffffffffff16600073ffffffffffffffffffffffffffffffffffffffff16036105855750610687565b6000820361068557600185610280018181516105a19190613b50565b91509060ff16908160ff16815250506105c785600001518261079690919063ffffffff16565b8660c0015161060b576040518060400160405280601b81526020017f506f736974696f6e4164644d67723a7472696767657261626f76650000000000815250610642565b6040518060400160405280601e81526020017f506f736974696f6e5375624d67723a6d61726b657420736c69707061676500008152505b90610683576040517f08c379a000000000000000000000000000000000000000000000000000000000815260040161067a9190613bc9565b60405180910390fd5b505b505b808061069290613beb565b91505061051e565b506106a583836107b3565b50505050565b60006106b5610f3c565b73ffffffffffffffffffffffffffffffffffffffff1663db6112258484156040518363ffffffff1660e01b81526004016106f0929190613c33565b602060405180830381865afa15801561070d573d6000803e3d6000fd5b505050506040513d601f19601f820116820180604052508101906107319190613c5c565b905092915050565b6000841561075f5783838361074e9190613c89565b6107589190613cfa565b9050610764565b600090505b949350505050565b6060600061077b878688610f44565b905060006107898585610f7c565b9050505095945050505050565b60008260c00151806107ab5750818360600151145b905092915050565b6000816000015114806107f75750600073ffffffffffffffffffffffffffffffffffffffff16826101e0015173ffffffffffffffffffffffffffffffffffffffff16145b610f38576108088260600151610faf565b60008261010001518260000151149050801561091757600060029050600184610220015160ff160361083d5760019050610853565b600284610220015160ff160361085257600790505b5b600061086f856060015160008760800151886101e0015161103a565b905060005b815181101561091357600082828151811061089257610891613a1a565b5b60200260200101519050600073ffffffffffffffffffffffffffffffffffffffff16816101e0015173ffffffffffffffffffffffffffffffffffffffff16036108db5750610900565b600187610280018181516108ef9190613b50565b91509060ff16908160ff1681525050505b808061090b90613beb565b915050610874565b5050505b600080610922610339565b73ffffffffffffffffffffffffffffffffffffffff16632ba88be986866040516020016109509291906137f6565b6040516020818303038152906040526040518263ffffffff1660e01b815260040161097b91906138a0565b600060405180830381865afa158015610998573d6000803e3d6000fd5b505050506040513d6000823e3d601f19601f820116820180604052508101906109c1919061398f565b91509150600085610100015103610a4c576000808213156109e6578460200151610a07565b610a06826109f78760200151611288565b610a019190613d2b565b6112f7565b5b9050610a466004828861014001518860000151600080604051602001610a3296959493929190613dee565b604051602081830303815290604052611346565b50610a79565b610a78858584604051602001610a6493929190613efe565b604051602081830303815290604052611349565b5b6000808661010001511115610b2a57610a90610331565b73ffffffffffffffffffffffffffffffffffffffff16637370cf1c8760600151886101e001518961010001518a600001518b608001516040518663ffffffff1660e01b8152600401610ae6959493929190613f3f565b602060405180830381865afa158015610b03573d6000803e3d6000fd5b505050506040513d601f19601f82011682018060405250810190610b279190613f92565b90505b808560600181815250506000610b428787848761134c565b90506000610b4e610339565b73ffffffffffffffffffffffffffffffffffffffff166370802dac89606001518a608001516040518363ffffffff1660e01b8152600401610b90929190613c33565b602060405180830381865afa158015610bad573d6000803e3d6000fd5b505050506040513d601f19601f82011682018060405250810190610bd19190613f92565b905060008260400151118015610beb575060008260800151135b15610cb157610bf8610331565b73ffffffffffffffffffffffffffffffffffffffff1663db73bcb3896101e00151846080015160008c60000151868e60800151604051602001610c4096959493929190613fce565b6040516020818303038152906040526040518263ffffffff1660e01b8152600401610c6b91906138a0565b610120604051808303816000875af1158015610c8b573d6000803e3d6000fd5b505050506040513d601f19601f82011682018060405250810190610caf9190613450565b505b6000610cc0896060015161156a565b9050610ccf89606001516115b8565b73ffffffffffffffffffffffffffffffffffffffff1663815585518a60600151610cf76115ca565b73ffffffffffffffffffffffffffffffffffffffff1663812b2f938d61010001518673ffffffffffffffffffffffffffffffffffffffff1663313ce5676040518163ffffffff1660e01b8152600401602060405180830381865afa158015610d63573d6000803e3d6000fd5b505050506040513d601f19601f82011682018060405250810190610d879190614044565b6040518363ffffffff1660e01b8152600401610da4929190614080565b602060405180830381865afa158015610dc1573d6000803e3d6000fd5b505050506040513d601f19601f82011682018060405250810190610de59190613c5c565b6040518363ffffffff1660e01b8152600401610e029291906140a9565b600060405180830381600087803b158015610e1c57600080fd5b505af1158015610e30573d6000803e3d6000fd5b505050506000610e3e610331565b73ffffffffffffffffffffffffffffffffffffffff16636c1a66cb8b6101e001518660c001518d6101000151878f60800151604051602001610e849594939291906140d2565b6040516020818303038152906040526040518263ffffffff1660e01b8152600401610eaf91906138a0565b610120604051808303816000875af1158015610ecf573d6000803e3d6000fd5b505050506040513d601f19601f82011682018060405250810190610ef39190613450565b9050610f0c8a60600151826000015183602001516115d2565b610f168a8a6115d7565b15610f2f57610f2e8a6101e001518b60800151611617565b5b50505050505050505b5050565b600030905090565b6000828285604051602001610f5b939291906141a3565b604051602081830303815290604052610f7390614212565b90509392505050565b60008282604051602001610f919291906142f7565b60405160208183030381529060405280519060200120905092915050565b600080610fbb8361161b565b91509150610fc7610339565b73ffffffffffffffffffffffffffffffffffffffff1663a256a1168484846040518463ffffffff1660e01b815260040161100393929190614323565b600060405180830381600087803b15801561101d57600080fd5b505af1158015611031573d6000803e3d6000fd5b50505050505050565b60606000611049868587610f44565b9050600073ffffffffffffffffffffffffffffffffffffffff168373ffffffffffffffffffffffffffffffffffffffff16036110855750611280565b60006110e861109261167a565b600301600084815260200190815260200160002060008673ffffffffffffffffffffffffffffffffffffffff1673ffffffffffffffffffffffffffffffffffffffff1681526020019081526020016000206116a7565b905060006110f683836116c8565b90506000825190508167ffffffffffffffff8111156111185761111761299a565b5b60405190808252806020026020018201604052801561115157816020015b61113e612799565b8152602001906001900390816111365790505b509450600080600090505b828110801561116a57508382105b1561120657600085828151811061118457611183613a1a565b5b602002602001015190506111bc8161119a61167a565b60040160008a815260200190815260200160002061175790919063ffffffff16565b156111f85760006111cd888361176e565b9050808985815181106111e3576111e2613a1a565b5b60200260200101819052508380600101945050505b81806001019250505061115c565b5061120f61167a565b600301600086815260200190815260200160002060008873ffffffffffffffffffffffffffffffffffffffff1673ffffffffffffffffffffffffffffffffffffffff16815260200190815260200160002060008082016000808201600061127691906128f5565b5050505050505050505b949350505050565b60007f7fffffffffffffffffffffffffffffffffffffffffffffffffffffffffffffff8211156112ef57816040517f24775e060000000000000000000000000000000000000000000000000000000081526004016112e6919061435a565b60405180910390fd5b819050919050565b60008082121561133e57816040517fa8ce44320000000000000000000000000000000000000000000000000000000081526004016113359190614375565b60405180910390fd5b819050919050565b50565b50565b611354612916565b61136b84848488611ec7909392919063ffffffff16565b9050600061138661137f8660200151611288565b8585612026565b90506000611397876060015161156a565b9050600081905060006113a86115ca565b73ffffffffffffffffffffffffffffffffffffffff1663812b2f936000876000015112156113eb576113e687600001516113e190614390565b6112f7565b6113f9565b6113f887600001516112f7565b5b8473ffffffffffffffffffffffffffffffffffffffff1663313ce5676040518163ffffffff1660e01b8152600401602060405180830381865afa158015611444573d6000803e3d6000fd5b505050506040513d601f19601f820116820180604052508101906114689190614044565b6040518363ffffffff1660e01b8152600401611485929190614080565b602060405180830381865afa1580156114a2573d6000803e3d6000fd5b505050506040513d601f19601f820116820180604052508101906114c69190613c5c565b905060008560000151505060008560600151131561155e576114e66115ca565b73ffffffffffffffffffffffffffffffffffffffff1663078d3b79848b6101e0015188606001516040518463ffffffff1660e01b815260040161152b939291906143d8565b600060405180830381600087803b15801561154557600080fd5b505af1158015611559573d6000803e3d6000fd5b505050505b50505050949350505050565b60006115746120ed565b60040160008361ffff1661ffff16815260200190815260200160002060009054906101000a900473ffffffffffffffffffffffffffffffffffffffff169050919050565b60006115c38261211a565b9050919050565b600030905090565b505050565b6000600183610220015160ff161415806115fa5750600283610220015160ff1614155b801561160f5750816000015183610100015114155b905092915050565b5050565b6000806000611628612168565b905080600201600061163b866001612195565b8152602001908152602001600020600001549250806002016000611660866000612195565b815260200190815260200160002060000154915050915091565b6000807fbf93ccae7e050fdad00615e220e3f9b7ebb112ac9318fb8604653a7d8091238890508091505090565b606060006116b7836000016121ca565b905060608190508092505050919050565b6000808251905060005b8181101561174f5760008482815181106116ef576116ee613a1a565b5b602002602001015190506117278161170561167a565b600401600089815260200190815260200160002061175790919063ffffffff16565b1561173b57838061173790613beb565b9450505b50808061174790613beb565b9150506116d2565b505092915050565b60006117668360000183612226565b905092915050565b611776612799565b61177e61167a565b6000016000848152602001908152602001600020600083815260200190815260200160002060405180610300016040529081600082015481526020016001820160009054906101000a90046fffffffffffffffffffffffffffffffff166fffffffffffffffffffffffffffffffff166fffffffffffffffffffffffffffffffff1681526020016001820160109054906101000a90046fffffffffffffffffffffffffffffffff166fffffffffffffffffffffffffffffffff166fffffffffffffffffffffffffffffffff16815260200160028201548152602001600382015481526020016004820160009054906101000a900460ff161515151581526020016004820160019054906101000a900460ff161515151581526020016004820160029054906101000a900460ff161515151581526020016004820160039054906101000a900460ff161515151581526020016004820160049054906101000a900460ff161515151581526020016004820160059054906101000a900467ffffffffffffffff1667ffffffffffffffff1667ffffffffffffffff16815260200160048201600d9054906101000a900467ffffffffffffffff1667ffffffffffffffff1667ffffffffffffffff1681526020016004820160159054906101000a900467ffffffffffffffff1667ffffffffffffffff1667ffffffffffffffff1681526020016005820160009054906101000a900463ffffffff1663ffffffff1663ffffffff1681526020016005820160049054906101000a900460ff1660ff1660ff1681526020016005820160059054906101000a900473ffffffffffffffffffffffffffffffffffffffff1673ffffffffffffffffffffffffffffffffffffffff1673ffffffffffffffffffffffffffffffffffffffff1681526020016006820160009054906101000a90046bffffffffffffffffffffffff166bffffffffffffffffffffffff166bffffffffffffffffffffffff168152602001600782015481526020016008820160009054906101000a900460ff161515151581526020016008820160019054906101000a900460ff161515151581526020016008820160029054906101000a900461ffff1661ffff1661ffff1681526020016008820160049054906101000a90046bffffffffffffffffffffffff166bffffffffffffffffffffffff166bffffffffffffffffffffffff1681526020016008820160109054906101000a90046fffffffffffffffffffffffffffffffff166fffffffffffffffffffffffffffffffff166fffffffffffffffffffffffffffffffff1681526020016009820160009054906101000a900460ff1660ff1660ff168152505090506001611b6661167a565b60020160008581526020019081526020016000206000836101e0015173ffffffffffffffffffffffffffffffffffffffff1673ffffffffffffffffffffffffffffffffffffffff1681526020019081526020016000206000828254611bcb919061440f565b92505081905550611bda61167a565b600001600084815260200190815260200160002060008381526020019081526020016000206000808201600090556001820160006101000a8154906fffffffffffffffffffffffffffffffff02191690556001820160106101000a8154906fffffffffffffffffffffffffffffffff0219169055600282016000905560038201600090556004820160006101000a81549060ff02191690556004820160016101000a81549060ff02191690556004820160026101000a81549060ff02191690556004820160036101000a81549060ff02191690556004820160046101000a81549060ff02191690556004820160056101000a81549067ffffffffffffffff021916905560048201600d6101000a81549067ffffffffffffffff02191690556004820160156101000a81549067ffffffffffffffff02191690556005820160006101000a81549063ffffffff02191690556005820160046101000a81549060ff02191690556005820160056101000a81549073ffffffffffffffffffffffffffffffffffffffff02191690556006820160006101000a8154906bffffffffffffffffffffffff021916905560078201600090556008820160006101000a81549060ff02191690556008820160016101000a81549060ff02191690556008820160026101000a81549061ffff02191690556008820160046101000a8154906bffffffffffffffffffffffff02191690556008820160106101000a8154906fffffffffffffffffffffffffffffffff02191690556009820160006101000a81549060ff02191690555050611e4f82611e2d61167a565b600401600086815260200190815260200160002061224990919063ffffffff16565b50611ec082611e5c61167a565b60030160008681526020019081526020016000206000846101e0015173ffffffffffffffffffffffffffffffffffffffff1673ffffffffffffffffffffffffffffffffffffffff16815260200190815260200160002061224990919063ffffffff16565b5092915050565b611ecf612916565b600080611edb84612260565b91509150600080831315611f0d578287602001818151611efb9190614443565b91508181525050828460800181815250505b82611f1988888461239e565b611f239190613d2b565b846000018181525050611f42611f3c8860200151611288565b8761241a565b846020018181525050611f5788888884612448565b846040018181525050611f6c88888884612546565b846060018181525050876101000151876000015103611fb657611f8e836112f7565b87602001818151611f9f919061440f565b915081815250508660200151886101400181815250505b83604001518760200151611fca919061440f565b8460c0018181525050876101000151876000015114612004578360800151611ff58560c00151611288565b611fff9190613d2b565b612012565b6120118760200151611288565b5b8460a0018181525050505050949350505050565b600080826002600c81111561203e5761203d6139eb565b5b60ff168151811061205257612051613a1a565b5b6020026020010151905060008486856001600c811115612075576120746139eb565b5b60ff168151811061208957612088613a1a565b5b602002602001015161209a90614390565b6120a49190614477565b6120ae9190614477565b90506000821380156120bf57508082135b156120e3576120cf816000612653565b826120da9190613d2b565b925050506120e6565b50505b9392505050565b6000807f2eec39e2b6bcfb5f1ee2be0b6e9d5a470a45585b1e2f7f291af9fb9f551763d090508091505090565b60006121246120ed565b60030160008361ffff1661ffff16815260200190815260200160002060009054906101000a900473ffffffffffffffffffffffffffffffffffffffff169050919050565b6000807f92bcfabaf0a890def3092675474357e5f93a0f117ca63a3db421d44c5b55fba590508091505090565b600081836040516020016121aa9291906144bb565b6040516020818303038152906040526121c290614212565b905092915050565b60608160000180548060200260200160405190810160405280929190818152602001828054801561221a57602002820191906000526020600020905b815481526020019060010190808311612206575b50505050509050919050565b600080836001016000848152602001908152602001600020541415905092915050565b6000612258836000018361266c565b905092915050565b600060606000836002600c81111561227b5761227a6139eb565b5b60ff168151811061228f5761228e613a1a565b5b60200260200101519050600081126122ae576000849250925050612399565b835167ffffffffffffffff8111156122c9576122c861299a565b5b6040519080825280602002602001820160405280156122f75781602001602082028036833780820191505090505b50915060005b84518110156123535784818151811061231957612318613a1a565b5b602002602001015183828151811061233457612333613a1a565b5b602002602001018181525050808061234b90613beb565b9150506122fd565b506000826002600c81111561236b5761236a6139eb565b5b60ff168151811061237f5761237e613a1a565b5b6020026020010181815250508061239590614390565b9250505b915091565b600080836123af8660200151611288565b6123b99190614477565b905060008312156123f6576040517f0d56a7db00000000000000000000000000000000000000000000000000000000815260040160405180910390fd5b6000811315612411576124098184612780565b915050612413565b505b9392505050565b60008082846124299190614477565b131561243e578161243990614390565b612440565b825b905092915050565b6000808561010001518560000151149050801561246f578460200151866101400181815250505b600086610220015160ff1611806124835750805b1561249257600091505061253e565b600083856124a38860200151611288565b6124ad9190614477565b6124b79190613d2b565b136124c657600091505061253e565b600083856124d8896101400151611288565b6124e29190614477565b6124ec9190613d2b565b12156125255761251d83856125048860200151611288565b61250e9190614477565b6125189190613d2b565b6112f7565b91505061253e565b856101400151856020015161253a919061440f565b9150505b949350505050565b6000808561010001518560000151149050801561256d578460200151866101400181815250505b6000838561257e8860200151611288565b6125889190614477565b6125929190613d2b565b136125a157600091505061264b565b600083856125b3896101400151611288565b6125bd9190614477565b6125c79190613d2b565b13156125f95782846125dd886101400151611288565b6125e79190614477565b6125f19190613d2b565b91505061264b565b6000838561260b896101400151611288565b6126159190614477565b61261f9190613d2b565b1361262e57600091505061264b565b8361263d876101400151611288565b6126479190614477565b9150505b949350505050565b60008183136126625781612664565b825b905092915050565b6000808360010160008481526020019081526020016000205490506000811461277457600060018261269e919061440f565b90506000600186600001805490506126b6919061440f565b90508082146127255760008660000182815481106126d7576126d6613a1a565b5b90600052602060002001549050808760000184815481106126fb576126fa613a1a565b5b90600052602060002001819055508387600101600083815260200190815260200160002081905550505b85600001805480612739576127386144e7565b5b60019003818190600052602060002001600090559055856001016000868152602001908152602001600020600090556001935050505061277a565b60009150505b92915050565b600081831261278f5781612791565b825b905092915050565b6040518061030001604052806000801916815260200160006fffffffffffffffffffffffffffffffff16815260200160006fffffffffffffffffffffffffffffffff1681526020016000815260200160008152602001600015158152602001600015158152602001600015158152602001600015158152602001600015158152602001600067ffffffffffffffff168152602001600067ffffffffffffffff168152602001600067ffffffffffffffff168152602001600063ffffffff168152602001600060ff168152602001600073ffffffffffffffffffffffffffffffffffffffff16815260200160006bffffffffffffffffffffffff16815260200160008152602001600015158152602001600015158152602001600061ffff16815260200160006bffffffffffffffffffffffff16815260200160006fffffffffffffffffffffffffffffffff168152602001600060ff1681525090565b50805460008255906000526020600020908101906129139190612953565b50565b6040518060e00160405280600081526020016000815260200160008152602001600081526020016000815260200160008152602001600081525090565b5b8082111561296c576000816000905550600101612954565b5090565b6000604051905090565b600080fd5b600080fd5b600080fd5b6000601f19601f8301169050919050565b7f4e487b7100000000000000000000000000000000000000000000000000000000600052604160045260246000fd5b6129d282612989565b810181811067ffffffffffffffff821117156129f1576129f061299a565b5b80604052505050565b6000612a04612970565b9050612a1082826129c9565b919050565b6000819050919050565b612a2881612a15565b8114612a3357600080fd5b50565b600081359050612a4581612a1f565b92915050565b60006fffffffffffffffffffffffffffffffff82169050919050565b612a7081612a4b565b8114612a7b57600080fd5b50565b600081359050612a8d81612a67565b92915050565b6000819050919050565b612aa681612a93565b8114612ab157600080fd5b50565b600081359050612ac381612a9d565b92915050565b60008115159050919050565b612ade81612ac9565b8114612ae957600080fd5b50565b600081359050612afb81612ad5565b92915050565b600067ffffffffffffffff82169050919050565b612b1e81612b01565b8114612b2957600080fd5b50565b600081359050612b3b81612b15565b92915050565b600063ffffffff82169050919050565b612b5a81612b41565b8114612b6557600080fd5b50565b600081359050612b7781612b51565b92915050565b600060ff82169050919050565b612b9381612b7d565b8114612b9e57600080fd5b50565b600081359050612bb081612b8a565b92915050565b600073ffffffffffffffffffffffffffffffffffffffff82169050919050565b6000612be182612bb6565b9050919050565b612bf181612bd6565b8114612bfc57600080fd5b50565b600081359050612c0e81612be8565b92915050565b60006bffffffffffffffffffffffff82169050919050565b612c3581612c14565b8114612c4057600080fd5b50565b600081359050612c5281612c2c565b92915050565b600061ffff82169050919050565b612c6f81612c58565b8114612c7a57600080fd5b50565b600081359050612c8c81612c66565b92915050565b60006103008284031215612ca957612ca8612984565b5b612cb46103006129fa565b90506000612cc484828501612a36565b6000830152506020612cd884828501612a7e565b6020830152506040612cec84828501612a7e565b6040830152506060612d0084828501612ab4565b6060830152506080612d1484828501612ab4565b60808301525060a0612d2884828501612aec565b60a08301525060c0612d3c84828501612aec565b60c08301525060e0612d5084828501612aec565b60e083015250610100612d6584828501612aec565b61010083015250610120612d7b84828501612aec565b61012083015250610140612d9184828501612b2c565b61014083015250610160612da784828501612b2c565b61016083015250610180612dbd84828501612b2c565b610180830152506101a0612dd384828501612b68565b6101a0830152506101c0612de984828501612ba1565b6101c0830152506101e0612dff84828501612bff565b6101e083015250610200612e1584828501612c43565b61020083015250610220612e2b84828501612ab4565b61022083015250610240612e4184828501612aec565b61024083015250610260612e5784828501612aec565b61026083015250610280612e6d84828501612c7d565b610280830152506102a0612e8384828501612c43565b6102a0830152506102c0612e9984828501612a7e565b6102c0830152506102e0612eaf84828501612ba1565b6102e08301525092915050565b60006103408284031215612ed357612ed2612984565b5b612ede6103406129fa565b90506000612eee84828501612ab4565b6000830152506020612f0284828501612ab4565b6020830152506040612f1684828501612ab4565b6040830152506060612f2a84828501612c7d565b6060830152506080612f3e84828501612aec565b60808301525060a0612f5284828501612aec565b60a08301525060c0612f6684828501612aec565b60c08301525060e0612f7a84828501612aec565b60e083015250610100612f8f84828501612ab4565b61010083015250610120612fa584828501612ab4565b61012083015250610140612fbb84828501612ab4565b61014083015250610160612fd184828501612ab4565b61016083015250610180612fe784828501612ab4565b610180830152506101a0612ffd84828501612ab4565b6101a0830152506101c061301384828501612b2c565b6101c0830152506101e061302984828501612bff565b6101e08301525061020061303f84828501612aec565b6102008301525061022061305584828501612ba1565b6102208301525061024061306b84828501612b2c565b6102408301525061026061308184828501612a36565b6102608301525061028061309784828501612ba1565b610280830152506102a06130ad84828501612aec565b6102a0830152506102c06130c384828501612aec565b6102c0830152506102e06130d984828501612aec565b6102e0830152506103006130ef84828501612aec565b6103008301525061032061310584828501612a7e565b6103208301525092915050565b600080610640838503121561312a5761312961297a565b5b600061313885828601612c92565b92505061030061314a85828601612ebc565b9150509250929050565b60008060006060848603121561316d5761316c61297a565b5b600061317b86828701612c7d565b935050602061318c86828701612bff565b925050604061319d86828701612aec565b9150509250925092565b600082825260208201905092915050565b7f506f736974696f6e5375624d67723a696e76616c69642069734f70656e000000600082015250565b60006131ee601d836131a7565b91506131f9826131b8565b602082019050919050565b6000602082019050818103600083015261321d816131e1565b9050919050565b61322d81612c58565b82525050565b61323c81612bd6565b82525050565b61324b81612a93565b82525050565b61325a81612ac9565b82525050565b60006080820190506132756000830187613224565b6132826020830186613233565b61328f6040830185613242565b61329c6060830184613251565b95945050505050565b6000815190506132b481612a9d565b92915050565b6000819050919050565b6132cd816132ba565b81146132d857600080fd5b50565b6000815190506132ea816132c4565b92915050565b6000815190506132ff81612ad5565b92915050565b60008151905061331481612b51565b92915050565b60008151905061332981612c66565b92915050565b600068ffffffffffffffffff82169050919050565b61334d8161332f565b811461335857600080fd5b50565b60008151905061336a81613344565b92915050565b6000610120828403121561338757613386612984565b5b6133926101206129fa565b905060006133a2848285016132a5565b60008301525060206133b6848285016132a5565b60208301525060406133ca848285016132db565b60408301525060606133de848285016132db565b60608301525060806133f2848285016132a5565b60808301525060a0613406848285016132f0565b60a08301525060c061341a84828501613305565b60c08301525060e061342e8482850161331a565b60e0830152506101006134438482850161335b565b6101008301525092915050565b600061012082840312156134675761346661297a565b5b600061347584828501613370565b91505092915050565b61348781612a93565b82525050565b61349681612c58565b82525050565b6134a581612ac9565b82525050565b6134b481612b01565b82525050565b6134c381612bd6565b82525050565b6134d281612b7d565b82525050565b6134e181612a15565b82525050565b6134f081612a4b565b82525050565b6103408201600082015161350d600085018261347e565b506020820151613520602085018261347e565b506040820151613533604085018261347e565b506060820151613546606085018261348d565b506080820151613559608085018261349c565b5060a082015161356c60a085018261349c565b5060c082015161357f60c085018261349c565b5060e082015161359260e085018261349c565b506101008201516135a761010085018261347e565b506101208201516135bc61012085018261347e565b506101408201516135d161014085018261347e565b506101608201516135e661016085018261347e565b506101808201516135fb61018085018261347e565b506101a08201516136106101a085018261347e565b506101c08201516136256101c08501826134ab565b506101e082015161363a6101e08501826134ba565b5061020082015161364f61020085018261349c565b506102208201516136646102208501826134c9565b506102408201516136796102408501826134ab565b5061026082015161368e6102608501826134d8565b506102808201516136a36102808501826134c9565b506102a08201516136b86102a085018261349c565b506102c08201516136cd6102c085018261349c565b506102e08201516136e26102e085018261349c565b506103008201516136f761030085018261349c565b5061032082015161370c6103208501826134e7565b50505050565b61371b816132ba565b82525050565b61372a81612b41565b82525050565b6137398161332f565b82525050565b61012082016000820151613756600085018261347e565b506020820151613769602085018261347e565b50604082015161377c6040850182613712565b50606082015161378f6060850182613712565b5060808201516137a2608085018261347e565b5060a08201516137b560a085018261349c565b5060c08201516137c860c0850182613721565b5060e08201516137db60e085018261348d565b506101008201516137f0610100850182613730565b50505050565b60006104608201905061380c60008301856134f6565b61381a61034083018461373f565b9392505050565b600081519050919050565b600082825260208201905092915050565b60005b8381101561385b578082015181840152602081019050613840565b60008484015250505050565b600061387282613821565b61387c818561382c565b935061388c81856020860161383d565b61389581612989565b840191505092915050565b600060208201905081810360008301526138ba8184613867565b905092915050565b600080fd5b600067ffffffffffffffff8211156138e2576138e161299a565b5b602082029050602081019050919050565b600080fd5b600061390b613906846138c7565b6129fa565b9050808382526020820190506020840283018581111561392e5761392d6138f3565b5b835b81811015613957578061394388826132db565b845260208401935050602081019050613930565b5050509392505050565b600082601f830112613976576139756138c2565b5b81516139868482602086016138f8565b91505092915050565b600080604083850312156139a6576139a561297a565b5b600083015167ffffffffffffffff8111156139c4576139c361297f565b5b6139d085828601613961565b92505060206139e1858286016132db565b9150509250929050565b7f4e487b7100000000000000000000000000000000000000000000000000000000600052602160045260246000fd5b7f4e487b7100000000000000000000000000000000000000000000000000000000600052603260045260246000fd5b7f696e76616c6964206f72646572206b6579000000000000000000000000000000600082015250565b6000613a7f6011836131a7565b9150613a8a82613a49565b602082019050919050565b60006020820190508181036000830152613aae81613a72565b9050919050565b7f506f736974696f6e5375624d67723a216163636f756e74000000000000000000600082015250565b6000613aeb6017836131a7565b9150613af682613ab5565b602082019050919050565b60006020820190508181036000830152613b1a81613ade565b9050919050565b7f4e487b7100000000000000000000000000000000000000000000000000000000600052601160045260246000fd5b6000613b5b82612b7d565b9150613b6683612b7d565b9250828201905060ff811115613b7f57613b7e613b21565b5b92915050565b600081519050919050565b6000613b9b82613b85565b613ba581856131a7565b9350613bb581856020860161383d565b613bbe81612989565b840191505092915050565b60006020820190508181036000830152613be38184613b90565b905092915050565b6000613bf682612a93565b91507fffffffffffffffffffffffffffffffffffffffffffffffffffffffffffffffff8203613c2857613c27613b21565b5b600182019050919050565b6000604082019050613c486000830185613224565b613c556020830184613251565b9392505050565b600060208284031215613c7257613c7161297a565b5b6000613c80848285016132a5565b91505092915050565b6000613c9482612a93565b9150613c9f83612a93565b9250828202613cad81612a93565b91508282048414831517613cc457613cc3613b21565b5b5092915050565b7f4e487b7100000000000000000000000000000000000000000000000000000000600052601260045260246000fd5b6000613d0582612a93565b9150613d1083612a93565b925082613d2057613d1f613ccb565b5b828204905092915050565b6000613d36826132ba565b9150613d41836132ba565b9250828203905081811260008412168282136000851215161715613d6857613d67613b21565b5b92915050565b6000819050919050565b6000819050919050565b6000613d9d613d98613d9384613d6e565b613d78565b612b7d565b9050919050565b613dad81613d82565b82525050565b6000819050919050565b6000613dd8613dd3613dce84613db3565b613d78565b612b7d565b9050919050565b613de881613dbd565b82525050565b600060c082019050613e036000830189613da4565b613e106020830188613242565b613e1d6040830187613242565b613e2a6060830186613242565b613e376080830185613ddf565b613e4460a0830184613ddf565b979650505050505050565b600081519050919050565b600082825260208201905092915050565b6000819050602082019050919050565b6000613e878383613712565b60208301905092915050565b6000602082019050919050565b6000613eab82613e4f565b613eb58185613e5a565b9350613ec083613e6b565b8060005b83811015613ef1578151613ed88882613e7b565b9750613ee383613e93565b925050600181019050613ec4565b5085935050505092915050565b600061048082019050613f1460008301866134f6565b613f2261034083018561373f565b818103610460830152613f358184613ea0565b9050949350505050565b600060a082019050613f546000830188613224565b613f616020830187613233565b613f6e6040830186613242565b613f7b6060830185613242565b613f886080830184613251565b9695505050505050565b600060208284031215613fa857613fa761297a565b5b6000613fb6848285016132db565b91505092915050565b613fc8816132ba565b82525050565b600060c082019050613fe36000830189613233565b613ff06020830188613fbf565b613ffd6040830187613ddf565b61400a6060830186613242565b6140176080830185613fbf565b61402460a0830184613251565b979650505050505050565b60008151905061403e81612b8a565b92915050565b60006020828403121561405a5761405961297a565b5b60006140688482850161402f565b91505092915050565b61407a81612b7d565b82525050565b60006040820190506140956000830185613242565b6140a26020830184614071565b9392505050565b60006040820190506140be6000830185613224565b6140cb6020830184613242565b9392505050565b600060a0820190506140e76000830188613233565b6140f46020830187613242565b6141016040830186613242565b61410e6060830185613fbf565b61411b6080830184613251565b9695505050505050565b60008160f81b9050919050565b600061413d82614125565b9050919050565b600061414f82614132565b9050919050565b61416761416282612ac9565b614144565b82525050565b60008160f01b9050919050565b60006141858261416d565b9050919050565b61419d61419882612c58565b61417a565b82525050565b60006141af8286614156565b6001820191506141bf8285614156565b6001820191506141cf828461418c565b600282019150819050949350505050565b6000819050602082019050919050565b60006141fc8251612a15565b80915050919050565b600082821b905092915050565b600061421d82613821565b82614227846141e0565b9050614232816141f0565b925060208210156142725761426d7fffffffffffffffffffffffffffffffffffffffffffffffffffffffffffffffff83602003600802614205565b831692505b5050919050565b60008160601b9050919050565b600061429182614279565b9050919050565b60006142a382614286565b9050919050565b6142bb6142b682612bd6565b614298565b82525050565b60008160c01b9050919050565b60006142d9826142c1565b9050919050565b6142f16142ec82612b01565b6142ce565b82525050565b600061430382856142aa565b60148201915061431382846142e0565b6008820191508190509392505050565b60006060820190506143386000830186613224565b6143456020830185613242565b6143526040830184613242565b949350505050565b600060208201905061436f6000830184613242565b92915050565b600060208201905061438a6000830184613fbf565b92915050565b600061439b826132ba565b91507f800000000000000000000000000000000000000000000000000000000000000082036143cd576143cc613b21565b5b816000039050919050565b60006060820190506143ed6000830186613233565b6143fa6020830185613233565b6144076040830184613242565b949350505050565b600061441a82612a93565b915061442583612a93565b925082820390508181111561443d5761443c613b21565b5b92915050565b600061444e82612a93565b915061445983612a93565b925082820190508082111561447157614470613b21565b5b92915050565b6000614482826132ba565b915061448d836132ba565b9250828201905082811215600083121683821260008412151617156144b5576144b4613b21565b5b92915050565b60006144c78285614156565b6001820191506144d7828461418c565b6002820191508190509392505050565b7f4e487b7100000000000000000000000000000000000000000000000000000000600052603160045260246000fdfea26469706673582212206b4ba884e1ec7493bd1a88744f4ca2138309874af8d2d00d64057feb693a1b2364736f6c63430008140033",
  "devdoc": {
    "errors": {
      "SafeCastOverflowedIntToUint(int256)": [
        {
          "details": "An int value doesn't fit in an uint of `bits` size."
        }
      ],
      "SafeCastOverflowedUintToInt(uint256)": [
        {
          "details": "An uint value doesn't fit in an int of `bits` size."
        }
      ]
    },
    "kind": "dev",
    "methods": {},
    "version": 1
  },
  "userdoc": {
    "kind": "user",
    "methods": {},
    "version": 1
  },
  "storageLayout": {
    "storage": [],
    "types": null
  }
}