{
  "address": "0xf3a159782E383Cd7b6e4A6048C844D3B2482dFA0",
  "abi": [
    {
      "inputs": [
        {
          "components": [
            {
              "internalType": "uint8",
              "name": "param2AsUInt8",
              "type": "uint8"
            }
          ],
          "internalType": "struct FacetTest1.Init",
          "name": "init",
          "type": "tuple"
        }
      ],
      "stateMutability": "nonpayable",
      "type": "constructor"
    },
    {
      "anonymous": false,
      "inputs": [],
      "name": "Initialized",
      "type": "event"
    },
    {
      "anonymous": false,
      "inputs": [
        {
          "indexed": false,
          "internalType": "uint256",
          "name": "test",
          "type": "uint256"
        }
      ],
      "name": "Test",
      "type": "event"
    },
    {
      "inputs": [],
      "name": "test1",
      "outputs": [],
      "stateMutability": "nonpayable",
      "type": "function"
    }
  ],
  "transactionHash": "0xdacbb252c6d3b689951f3fe9371418ad91a86ee4a300fc8f7303231065030340",
  "args": [
    {
      "param1AsBytes32": "0x0000000000000000000000000000000000000000000000000000000000000001",
      "param2AsUInt8": 5
    }
  ],
  "numDeployments": 1,
  "solcInputHash": "771ce0b2bedaa31e5070f51a61cebf7c",
  "bytecode": "0x60a060405234801561001057600080fd5b5060405161048b38038061048b8339818101604052810190610032919061015f565b806000015160ff1660808160ff16815250505061018c565b6000604051905090565b600080fd5b600080fd5b6000601f19601f8301169050919050565b7f4e487b7100000000000000000000000000000000000000000000000000000000600052604160045260246000fd5b6100a78261005e565b810181811067ffffffffffffffff821117156100c6576100c561006f565b5b80604052505050565b60006100d961004a565b90506100e5828261009e565b919050565b600060ff82169050919050565b610100816100ea565b811461010b57600080fd5b50565b60008151905061011d816100f7565b92915050565b60006020828403121561013957610138610059565b5b61014360206100cf565b905060006101538482850161010e565b60008301525092915050565b60006020828403121561017557610174610054565b5b600061018384828501610123565b91505092915050565b6080516102e56101a66000396000607701526102e56000f3fe608060405234801561001057600080fd5b506004361061002b5760003560e01c80636b59084d14610030575b600080fd5b61003861003a565b005b61009e6040518060400160405280601b81526020017f746573743120636f6e737420256920696d6d757461626c65202569000000000081525060037f000000000000000000000000000000000000000000000000000000000000000060ff166100a8565b6100a6610147565b565b6101428383836040516024016100c093929190610242565b6040516020818303038152906040527fca47c4eb000000000000000000000000000000000000000000000000000000007bffffffffffffffffffffffffffffffffffffffffffffffffffffffff19166020820180517bffffffffffffffffffffffffffffffffffffffffffffffffffffffff8381831617835250505050610149565b505050565b565b61016081610158610163610184565b63ffffffff16565b50565b60006a636f6e736f6c652e6c6f679050600080835160208501845afa505050565b61018f819050919050565b610197610280565b565b600081519050919050565b600082825260208201905092915050565b60005b838110156101d35780820151818401526020810190506101b8565b60008484015250505050565b6000601f19601f8301169050919050565b60006101fb82610199565b61020581856101a4565b93506102158185602086016101b5565b61021e816101df565b840191505092915050565b6000819050919050565b61023c81610229565b82525050565b6000606082019050818103600083015261025c81866101f0565b905061026b6020830185610233565b6102786040830184610233565b949350505050565b7f4e487b7100000000000000000000000000000000000000000000000000000000600052605160045260246000fdfea2646970667358221220f3528c589f58e9f22a79cd7c654de2b69bec141d5b418af432e6f219eaf47cac64736f6c63430008140033",
  "devdoc": {
    "kind": "dev",
    "methods": {},
    "version": 1
  },
  "userdoc": {
    "kind": "user",
    "methods": {},
    "version": 1
  },
  "storageLayout": {
    "storage": [
      {
        "astId": 18328,
        "contract": "src/diamondtest/facets/FacetTest1.sol:FacetTest1",
        "label": "_initialsed",
        "offset": 0,
        "slot": "0",
        "type": "t_bool"
      },
      {
        "astId": 18333,
        "contract": "src/diamondtest/facets/FacetTest1.sol:FacetTest1",
        "label": "_data",
        "offset": 0,
        "slot": "1",
        "type": "t_mapping(t_uint256,t_struct(TestData)18320_storage)"
      }
    ],
    "types": {
      "t_bool": {
        "encoding": "inplace",
        "label": "bool",
        "numberOfBytes": "1"
      },
      "t_mapping(t_uint256,t_struct(TestData)18320_storage)": {
        "encoding": "mapping",
        "key": "t_uint256",
        "label": "mapping(uint256 => struct ImportingDiamondTypes.TestData)",
        "numberOfBytes": "32",
        "value": "t_struct(TestData)18320_storage"
      },
      "t_struct(TestData)18320_storage": {
        "encoding": "inplace",
        "label": "struct ImportingDiamondTypes.TestData",
        "members": [
          {
            "astId": 18317,
            "contract": "src/diamondtest/facets/FacetTest1.sol:FacetTest1",
            "label": "test1",
            "offset": 0,
            "slot": "0",
            "type": "t_uint64"
          },
          {
            "astId": 18319,
            "contract": "src/diamondtest/facets/FacetTest1.sol:FacetTest1",
            "label": "test2",
            "offset": 8,
            "slot": "0",
            "type": "t_uint64"
          }
        ],
        "numberOfBytes": "32"
      },
      "t_uint256": {
        "encoding": "inplace",
        "label": "uint256",
        "numberOfBytes": "32"
      },
      "t_uint64": {
        "encoding": "inplace",
        "label": "uint64",
        "numberOfBytes": "8"
      }
    }
  }
}