{
  "address": "0x1bf0f3c10850E07f2723E075fbA046c3019AA869",
  "abi": [
    {
      "anonymous": false,
      "inputs": [],
      "name": "Initialized",
      "type": "event"
    },
    {
      "anonymous": false,
      "inputs": [
        {
          "indexed": false,
          "internalType": "uint256",
          "name": "test",
          "type": "uint256"
        }
      ],
      "name": "Test",
      "type": "event"
    },
    {
      "inputs": [],
      "name": "test2",
      "outputs": [],
      "stateMutability": "nonpayable",
      "type": "function"
    }
  ],
  "transactionHash": "0x60a9045881f3dae4c2ad4305bd35e9ca1cf8c3993fec9b9e26f89f9cc0d20809",
  "args": [],
  "numDeployments": 1,
  "solcInputHash": "771ce0b2bedaa31e5070f51a61cebf7c",
  "bytecode": "0x608060405234801561001057600080fd5b5061027a806100206000396000f3fe608060405234801561001057600080fd5b506004361061002b5760003560e01c806366e41cb714610030575b600080fd5b61003861003a565b005b6100786040518060400160405280600581526020017f746573743200000000000000000000000000000000000000000000000000000081525061007a565b565b6101108160405160240161008e91906101f3565b6040516020818303038152906040527f41304fac000000000000000000000000000000000000000000000000000000007bffffffffffffffffffffffffffffffffffffffffffffffffffffffff19166020820180517bffffffffffffffffffffffffffffffffffffffffffffffffffffffff8381831617835250505050610113565b50565b61012a8161012261012d61014e565b63ffffffff16565b50565b60006a636f6e736f6c652e6c6f679050600080835160208501845afa505050565b610159819050919050565b610161610215565b565b600081519050919050565b600082825260208201905092915050565b60005b8381101561019d578082015181840152602081019050610182565b60008484015250505050565b6000601f19601f8301169050919050565b60006101c582610163565b6101cf818561016e565b93506101df81856020860161017f565b6101e8816101a9565b840191505092915050565b6000602082019050818103600083015261020d81846101ba565b905092915050565b7f4e487b7100000000000000000000000000000000000000000000000000000000600052605160045260246000fdfea264697066735822122098cbd63dc1e45b9f39f8fc16349cdb72c08637d1776191fbf4c991cc648062d164736f6c63430008140033",
  "devdoc": {
    "kind": "dev",
    "methods": {},
    "version": 1
  },
  "userdoc": {
    "kind": "user",
    "methods": {},
    "version": 1
  },
  "storageLayout": {
    "storage": [
      {
        "astId": 18328,
        "contract": "src/diamondtest/facets/FacetTest2.sol:FacetTest2",
        "label": "_initialsed",
        "offset": 0,
        "slot": "0",
        "type": "t_bool"
      },
      {
        "astId": 18333,
        "contract": "src/diamondtest/facets/FacetTest2.sol:FacetTest2",
        "label": "_data",
        "offset": 0,
        "slot": "1",
        "type": "t_mapping(t_uint256,t_struct(TestData)18320_storage)"
      }
    ],
    "types": {
      "t_bool": {
        "encoding": "inplace",
        "label": "bool",
        "numberOfBytes": "1"
      },
      "t_mapping(t_uint256,t_struct(TestData)18320_storage)": {
        "encoding": "mapping",
        "key": "t_uint256",
        "label": "mapping(uint256 => struct ImportingDiamondTypes.TestData)",
        "numberOfBytes": "32",
        "value": "t_struct(TestData)18320_storage"
      },
      "t_struct(TestData)18320_storage": {
        "encoding": "inplace",
        "label": "struct ImportingDiamondTypes.TestData",
        "members": [
          {
            "astId": 18317,
            "contract": "src/diamondtest/facets/FacetTest2.sol:FacetTest2",
            "label": "test1",
            "offset": 0,
            "slot": "0",
            "type": "t_uint64"
          },
          {
            "astId": 18319,
            "contract": "src/diamondtest/facets/FacetTest2.sol:FacetTest2",
            "label": "test2",
            "offset": 8,
            "slot": "0",
            "type": "t_uint64"
          }
        ],
        "numberOfBytes": "32"
      },
      "t_uint256": {
        "encoding": "inplace",
        "label": "uint256",
        "numberOfBytes": "32"
      },
      "t_uint64": {
        "encoding": "inplace",
        "label": "uint64",
        "numberOfBytes": "8"
      }
    }
  }
}