{
  "address": "0x00BF8C1B8719e95F4C949fb1c3998289567b5c43",
  "abi": [
    {
      "inputs": [],
      "stateMutability": "nonpayable",
      "type": "constructor"
    },
    {
      "anonymous": false,
      "inputs": [],
      "name": "Initialized",
      "type": "event"
    },
    {
      "anonymous": false,
      "inputs": [
        {
          "indexed": false,
          "internalType": "uint256",
          "name": "test",
          "type": "uint256"
        }
      ],
      "name": "Test",
      "type": "event"
    },
    {
      "inputs": [
        {
          "internalType": "bytes",
          "name": "data",
          "type": "bytes"
        }
      ],
      "name": "addMarket",
      "outputs": [],
      "stateMutability": "nonpayable",
      "type": "function"
    },
    {
      "inputs": [],
      "name": "init",
      "outputs": [],
      "stateMutability": "nonpayable",
      "type": "function"
    }
  ],
  "transactionHash": "0x391209647f5855af4fb2281d61c3416dca0ac3b47ea33ffc3f3e6fe380a67952",
  "args": [],
  "numDeployments": 1,
  "solcInputHash": "9d21a15dec77f014f2cf4a464d5e97af",
  "bytecode": "0x608060405234801561001057600080fd5b506105a8806100206000396000f3fe608060405234801561001057600080fd5b50600436106100365760003560e01c8063b51b8de01461003b578063e1c7392a14610057575b600080fd5b61005560048036038101906100509190610226565b610061565b005b61005f610086565b005b6000806000808585810190610076919061044c565b9350935093509350505050505050565b6000610090610180565b90508060040160009054906101000a900473ffffffffffffffffffffffffffffffffffffffff1673ffffffffffffffffffffffffffffffffffffffff163373ffffffffffffffffffffffffffffffffffffffff1614610124576040517f08c379a000000000000000000000000000000000000000000000000000000000815260040161011b90610552565b60405180910390fd5b60008054906101000a900460ff1661017d577f5daa87a0e9463431830481fd4b6e3403442dfb9a12b9c07597e9f61d50b633c860405160405180910390a160016000806101000a81548160ff0219169083151502179055505b50565b6000807fc8fcad8db84d3cc18b4c41d551ea0ee66dd599cde068d998e57d5e09332c131c90508091505090565b6000604051905090565b600080fd5b600080fd5b600080fd5b600080fd5b600080fd5b60008083601f8401126101e6576101e56101c1565b5b8235905067ffffffffffffffff811115610203576102026101c6565b5b60208301915083600182028301111561021f5761021e6101cb565b5b9250929050565b6000806020838503121561023d5761023c6101b7565b5b600083013567ffffffffffffffff81111561025b5761025a6101bc565b5b610267858286016101d0565b92509250509250929050565b600061ffff82169050919050565b61028a81610273565b811461029557600080fd5b50565b6000813590506102a781610281565b92915050565b600080fd5b6000601f19601f8301169050919050565b7f4e487b7100000000000000000000000000000000000000000000000000000000600052604160045260246000fd5b6102fb826102b2565b810181811067ffffffffffffffff8211171561031a576103196102c3565b5b80604052505050565b600061032d6101ad565b905061033982826102f2565b919050565b600067ffffffffffffffff821115610359576103586102c3565b5b610362826102b2565b9050602081019050919050565b82818337600083830152505050565b600061039161038c8461033e565b610323565b9050828152602081018484840111156103ad576103ac6102ad565b5b6103b884828561036f565b509392505050565b600082601f8301126103d5576103d46101c1565b5b81356103e584826020860161037e565b91505092915050565b600073ffffffffffffffffffffffffffffffffffffffff82169050919050565b6000610419826103ee565b9050919050565b6104298161040e565b811461043457600080fd5b50565b60008135905061044681610420565b92915050565b60008060008060808587031215610466576104656101b7565b5b600061047487828801610298565b945050602085013567ffffffffffffffff811115610495576104946101bc565b5b6104a1878288016103c0565b93505060406104b287828801610437565b92505060606104c387828801610437565b91505092959194509250565b600082825260208201905092915050565b7f4f6e6c79206f776e657220697320616c6c6f77656420746f20706572666f726d60008201527f207468697320616374696f6e0000000000000000000000000000000000000000602082015250565b600061053c602c836104cf565b9150610547826104e0565b604082019050919050565b6000602082019050818103600083015261056b8161052f565b905091905056fea264697066735822122020009b825d6d531ac40b518e136f4ab263e0723cc613ec1051fe8ae9ce5b806364736f6c63430008140033",
  "devdoc": {
    "kind": "dev",
    "methods": {},
    "version": 1
  },
  "userdoc": {
    "kind": "user",
    "methods": {},
    "version": 1
  },
  "storageLayout": {
    "storage": [
      {
        "astId": 927,
        "contract": "src/diamondtest/facets/DiamondInitializationFacet.sol:DiamondInitializationFacet",
        "label": "_initialsed",
        "offset": 0,
        "slot": "0",
        "type": "t_bool"
      },
      {
        "astId": 932,
        "contract": "src/diamondtest/facets/DiamondInitializationFacet.sol:DiamondInitializationFacet",
        "label": "_data",
        "offset": 0,
        "slot": "1",
        "type": "t_mapping(t_uint256,t_struct(TestData)919_storage)"
      }
    ],
    "types": {
      "t_bool": {
        "encoding": "inplace",
        "label": "bool",
        "numberOfBytes": "1"
      },
      "t_mapping(t_uint256,t_struct(TestData)919_storage)": {
        "encoding": "mapping",
        "key": "t_uint256",
        "label": "mapping(uint256 => struct ImportingDiamondTypes.TestData)",
        "numberOfBytes": "32",
        "value": "t_struct(TestData)919_storage"
      },
      "t_struct(TestData)919_storage": {
        "encoding": "inplace",
        "label": "struct ImportingDiamondTypes.TestData",
        "members": [
          {
            "astId": 916,
            "contract": "src/diamondtest/facets/DiamondInitializationFacet.sol:DiamondInitializationFacet",
            "label": "test1",
            "offset": 0,
            "slot": "0",
            "type": "t_uint64"
          },
          {
            "astId": 918,
            "contract": "src/diamondtest/facets/DiamondInitializationFacet.sol:DiamondInitializationFacet",
            "label": "test2",
            "offset": 8,
            "slot": "0",
            "type": "t_uint64"
          }
        ],
        "numberOfBytes": "32"
      },
      "t_uint256": {
        "encoding": "inplace",
        "label": "uint256",
        "numberOfBytes": "32"
      },
      "t_uint64": {
        "encoding": "inplace",
        "label": "uint64",
        "numberOfBytes": "8"
      }
    }
  }
}