{
  "address": "0x0F7B852FeF3181CC4D528146211da05c13722a8E",
  "abi": [
    {
      "inputs": [
        {
          "internalType": "address",
          "name": "authority",
          "type": "address"
        }
      ],
      "name": "AccessManagedInvalidAuthority",
      "type": "error"
    },
    {
      "inputs": [
        {
          "internalType": "address",
          "name": "caller",
          "type": "address"
        },
        {
          "internalType": "uint32",
          "name": "delay",
          "type": "uint32"
        }
      ],
      "name": "AccessManagedRequiredDelay",
      "type": "error"
    },
    {
      "inputs": [
        {
          "internalType": "address",
          "name": "caller",
          "type": "address"
        }
      ],
      "name": "AccessManagedUnauthorized",
      "type": "error"
    },
    {
      "inputs": [
        {
          "internalType": "address",
          "name": "sender",
          "type": "address"
        },
        {
          "internalType": "uint256",
          "name": "tokenId",
          "type": "uint256"
        },
        {
          "internalType": "address",
          "name": "owner",
          "type": "address"
        }
      ],
      "name": "ERC721IncorrectOwner",
      "type": "error"
    },
    {
      "inputs": [
        {
          "internalType": "address",
          "name": "operator",
          "type": "address"
        },
        {
          "internalType": "uint256",
          "name": "tokenId",
          "type": "uint256"
        }
      ],
      "name": "ERC721InsufficientApproval",
      "type": "error"
    },
    {
      "inputs": [
        {
          "internalType": "address",
          "name": "approver",
          "type": "address"
        }
      ],
      "name": "ERC721InvalidApprover",
      "type": "error"
    },
    {
      "inputs": [
        {
          "internalType": "address",
          "name": "operator",
          "type": "address"
        }
      ],
      "name": "ERC721InvalidOperator",
      "type": "error"
    },
    {
      "inputs": [
        {
          "internalType": "address",
          "name": "owner",
          "type": "address"
        }
      ],
      "name": "ERC721InvalidOwner",
      "type": "error"
    },
    {
      "inputs": [
        {
          "internalType": "address",
          "name": "receiver",
          "type": "address"
        }
      ],
      "name": "ERC721InvalidReceiver",
      "type": "error"
    },
    {
      "inputs": [
        {
          "internalType": "address",
          "name": "sender",
          "type": "address"
        }
      ],
      "name": "ERC721InvalidSender",
      "type": "error"
    },
    {
      "inputs": [
        {
          "internalType": "uint256",
          "name": "tokenId",
          "type": "uint256"
        }
      ],
      "name": "ERC721NonexistentToken",
      "type": "error"
    },
    {
      "inputs": [],
      "name": "InvalidInitialization",
      "type": "error"
    },
    {
      "inputs": [],
      "name": "NotInitializing",
      "type": "error"
    },
    {
      "anonymous": false,
      "inputs": [
        {
          "indexed": true,
          "internalType": "address",
          "name": "owner",
          "type": "address"
        },
        {
          "indexed": true,
          "internalType": "address",
          "name": "approved",
          "type": "address"
        },
        {
          "indexed": true,
          "internalType": "uint256",
          "name": "tokenId",
          "type": "uint256"
        }
      ],
      "name": "Approval",
      "type": "event"
    },
    {
      "anonymous": false,
      "inputs": [
        {
          "indexed": true,
          "internalType": "address",
          "name": "owner",
          "type": "address"
        },
        {
          "indexed": true,
          "internalType": "address",
          "name": "operator",
          "type": "address"
        },
        {
          "indexed": false,
          "internalType": "bool",
          "name": "approved",
          "type": "bool"
        }
      ],
      "name": "ApprovalForAll",
      "type": "event"
    },
    {
      "anonymous": false,
      "inputs": [
        {
          "indexed": false,
          "internalType": "address",
          "name": "authority",
          "type": "address"
        }
      ],
      "name": "AuthorityUpdated",
      "type": "event"
    },
    {
      "anonymous": false,
      "inputs": [
        {
          "indexed": false,
          "internalType": "uint64",
          "name": "version",
          "type": "uint64"
        }
      ],
      "name": "Initialized",
      "type": "event"
    },
    {
      "anonymous": false,
      "inputs": [
        {
          "indexed": true,
          "internalType": "address",
          "name": "from",
          "type": "address"
        },
        {
          "indexed": true,
          "internalType": "address",
          "name": "to",
          "type": "address"
        },
        {
          "indexed": true,
          "internalType": "uint256",
          "name": "tokenId",
          "type": "uint256"
        }
      ],
      "name": "Transfer",
      "type": "event"
    },
    {
      "inputs": [
        {
          "internalType": "address",
          "name": "to",
          "type": "address"
        },
        {
          "internalType": "uint256",
          "name": "tokenId",
          "type": "uint256"
        }
      ],
      "name": "approve",
      "outputs": [],
      "stateMutability": "nonpayable",
      "type": "function"
    },
    {
      "inputs": [],
      "name": "authority",
      "outputs": [
        {
          "internalType": "address",
          "name": "",
          "type": "address"
        }
      ],
      "stateMutability": "view",
      "type": "function"
    },
    {
      "inputs": [
        {
          "internalType": "address",
          "name": "owner",
          "type": "address"
        }
      ],
      "name": "balanceOf",
      "outputs": [
        {
          "internalType": "uint256",
          "name": "",
          "type": "uint256"
        }
      ],
      "stateMutability": "view",
      "type": "function"
    },
    {
      "inputs": [],
      "name": "baseURI",
      "outputs": [
        {
          "internalType": "string",
          "name": "",
          "type": "string"
        }
      ],
      "stateMutability": "view",
      "type": "function"
    },
    {
      "inputs": [
        {
          "internalType": "uint256",
          "name": "tokenId",
          "type": "uint256"
        }
      ],
      "name": "getApproved",
      "outputs": [
        {
          "internalType": "address",
          "name": "",
          "type": "address"
        }
      ],
      "stateMutability": "view",
      "type": "function"
    },
    {
      "inputs": [
        {
          "internalType": "address",
          "name": "_auth",
          "type": "address"
        }
      ],
      "name": "initialize",
      "outputs": [],
      "stateMutability": "nonpayable",
      "type": "function"
    },
    {
      "inputs": [
        {
          "internalType": "address",
          "name": "owner",
          "type": "address"
        },
        {
          "internalType": "address",
          "name": "operator",
          "type": "address"
        }
      ],
      "name": "isApprovedForAll",
      "outputs": [
        {
          "internalType": "bool",
          "name": "",
          "type": "bool"
        }
      ],
      "stateMutability": "view",
      "type": "function"
    },
    {
      "inputs": [],
      "name": "isConsumingScheduledOp",
      "outputs": [
        {
          "internalType": "bytes4",
          "name": "",
          "type": "bytes4"
        }
      ],
      "stateMutability": "view",
      "type": "function"
    },
    {
      "inputs": [
        {
          "internalType": "address[]",
          "name": "tos",
          "type": "address[]"
        }
      ],
      "name": "mint",
      "outputs": [],
      "stateMutability": "nonpayable",
      "type": "function"
    },
    {
      "inputs": [],
      "name": "name",
      "outputs": [
        {
          "internalType": "string",
          "name": "",
          "type": "string"
        }
      ],
      "stateMutability": "view",
      "type": "function"
    },
    {
      "inputs": [
        {
          "internalType": "uint256",
          "name": "tokenId",
          "type": "uint256"
        }
      ],
      "name": "ownerOf",
      "outputs": [
        {
          "internalType": "address",
          "name": "",
          "type": "address"
        }
      ],
      "stateMutability": "view",
      "type": "function"
    },
    {
      "inputs": [
        {
          "internalType": "address",
          "name": "from",
          "type": "address"
        },
        {
          "internalType": "address",
          "name": "to",
          "type": "address"
        },
        {
          "internalType": "uint256",
          "name": "tokenId",
          "type": "uint256"
        }
      ],
      "name": "safeTransferFrom",
      "outputs": [],
      "stateMutability": "nonpayable",
      "type": "function"
    },
    {
      "inputs": [
        {
          "internalType": "address",
          "name": "from",
          "type": "address"
        },
        {
          "internalType": "address",
          "name": "to",
          "type": "address"
        },
        {
          "internalType": "uint256",
          "name": "tokenId",
          "type": "uint256"
        },
        {
          "internalType": "bytes",
          "name": "data",
          "type": "bytes"
        }
      ],
      "name": "safeTransferFrom",
      "outputs": [],
      "stateMutability": "nonpayable",
      "type": "function"
    },
    {
      "inputs": [
        {
          "internalType": "address",
          "name": "operator",
          "type": "address"
        },
        {
          "internalType": "bool",
          "name": "approved",
          "type": "bool"
        }
      ],
      "name": "setApprovalForAll",
      "outputs": [],
      "stateMutability": "nonpayable",
      "type": "function"
    },
    {
      "inputs": [
        {
          "internalType": "address",
          "name": "newAuthority",
          "type": "address"
        }
      ],
      "name": "setAuthority",
      "outputs": [],
      "stateMutability": "nonpayable",
      "type": "function"
    },
    {
      "inputs": [
        {
          "internalType": "string",
          "name": "__baseURI",
          "type": "string"
        }
      ],
      "name": "setBaseURI",
      "outputs": [],
      "stateMutability": "nonpayable",
      "type": "function"
    },
    {
      "inputs": [
        {
          "internalType": "bytes4",
          "name": "interfaceId",
          "type": "bytes4"
        }
      ],
      "name": "supportsInterface",
      "outputs": [
        {
          "internalType": "bool",
          "name": "",
          "type": "bool"
        }
      ],
      "stateMutability": "view",
      "type": "function"
    },
    {
      "inputs": [],
      "name": "symbol",
      "outputs": [
        {
          "internalType": "string",
          "name": "",
          "type": "string"
        }
      ],
      "stateMutability": "view",
      "type": "function"
    },
    {
      "inputs": [
        {
          "internalType": "uint256",
          "name": "tokenId",
          "type": "uint256"
        }
      ],
      "name": "tokenURI",
      "outputs": [
        {
          "internalType": "string",
          "name": "",
          "type": "string"
        }
      ],
      "stateMutability": "view",
      "type": "function"
    },
    {
      "inputs": [
        {
          "internalType": "address",
          "name": "from",
          "type": "address"
        },
        {
          "internalType": "address",
          "name": "to",
          "type": "address"
        },
        {
          "internalType": "uint256",
          "name": "tokenId",
          "type": "uint256"
        }
      ],
      "name": "transferFrom",
      "outputs": [],
      "stateMutability": "nonpayable",
      "type": "function"
    }
  ],
  "transactionHash": "0x0ab6b6714628e46654835d30f526af2ff6211b495662e4132ec0308890896ed9",
  "args": [],
  "numDeployments": 1,
  "solcInputHash": "f29cc452cdc3316c62f6d0077a291afc",
  "bytecode": "0x60806040523461002057610011610025565b6130c26200003182396130c290f35b61002b565b60405190565b600080fdfe60806040526004361015610013575b610c54565b61001e60003561015d565b806301ffc9a71461015857806306fdde0314610153578063081812fc1461014e578063095ea7b31461014957806323b872dd1461014457806342842e0e1461013f57806355f804b31461013a5780636352211e146101355780636c0360eb1461013057806370a082311461012b5780637a9e5e4b146101265780638fb360371461012157806395d89b411461011c578063a22cb46514610117578063b88d4fde14610112578063bd075b841461010d578063bf7e214f14610108578063c4d66de814610103578063c87b56dd146100fe5763e985e9c50361000e57610c1e565b610bbb565b610b88565b610b53565b610b1f565b610a6c565b610960565b6108d9565b6108a4565b61084e565b610819565b6107a2565b61061c565b6105e9565b61049f565b61046b565b6103fc565b61036f565b6102ba565b6101ef565b60e01c90565b60405190565b600080fd5b600080fd5b600080fd5b63ffffffff60e01b1690565b61018d81610178565b0361019457565b600080fd5b905035906101a682610184565b565b906020828203126101c2576101bf91600001610199565b90565b61016e565b151590565b6101d5906101c7565b9052565b91906101ed906000602085019401906101cc565b565b3461021f5761021b61020a6102053660046101a8565b610c5e565b610212610163565b918291826101d9565b0390f35b610169565b600091031261022f57565b61016e565b5190565b60209181520190565b60005b838110610255575050906000910152565b806020918301518185015201610244565b601f801991011690565b61028f61029860209361029d9361028681610234565b93848093610238565b95869101610241565b610266565b0190565b6102b79160208201916000818403910152610270565b90565b346102ea576102ca366004610224565b6102e66102d5610cd7565b6102dd610163565b918291826102a1565b0390f35b610169565b90565b6102fb816102ef565b0361030257565b600080fd5b90503590610314826102f2565b565b906020828203126103305761032d91600001610307565b90565b61016e565b60018060a01b031690565b61034990610335565b90565b61035590610340565b9052565b919061036d9060006020850194019061034c565b565b3461039f5761039b61038a610385366004610316565b610cfb565b610392610163565b91829182610359565b0390f35b610169565b6103ad81610340565b036103b457565b600080fd5b905035906103c6826103a4565b565b91906040838203126103f157806103e56103ee92600086016103b9565b93602001610307565b90565b61016e565b60000190565b3461042b5761041561040f3660046103c8565b90610d1a565b61041d610163565b80610427816103f6565b0390f35b610169565b90916060828403126104665761046361044c84600085016103b9565b9361045a81602086016103b9565b93604001610307565b90565b61016e565b3461049a5761048461047e366004610430565b91610d91565b61048c610163565b80610496816103f6565b0390f35b610169565b346104ce576104b86104b2366004610430565b91610e6b565b6104c0610163565b806104ca816103f6565b0390f35b610169565b600080fd5b600080fd5b634e487b7160e01b600052604160045260246000fd5b906104fd90610266565b810190811060018060401b0382111761051557604052565b6104dd565b9061052d610526610163565b92836104f3565b565b60018060401b03811161054b57610547602091610266565b0190565b6104dd565b90826000939282370152565b9092919261057161056c8261052f565b61051a565b9381855260208501908284011161058d5761058b92610550565b565b6104d8565b9080601f830112156105b0578160206105ad9335910161055c565b90565b6104d3565b906020828203126105e457600082013560018060401b0381116105df576105dc9201610592565b90565b610173565b61016e565b34610617576106016105fc3660046105b5565b6110be565b610609610163565b80610613816103f6565b0390f35b610169565b3461064c57610648610637610632366004610316565b6110c9565b61063f610163565b91829182610359565b0390f35b610169565b634e487b7160e01b600052600060045260246000fd5b634e487b7160e01b600052602260045260246000fd5b906001600283049216801561069d575b602083101461069857565b610667565b91607f169161068d565b60209181520190565b600052602060002090565b90600092918054906106d66106cf8361067d565b80946106a7565b9160018116908160001461072f57506001146106f2575b505050565b6106ff91929394506106b0565b916000925b81841061071757505001903880806106ed565b60018160209295939554848601520191019290610704565b92949550505060ff19168252151560200201903880806106ed565b90610754916106bb565b90565b9061077761077092610767610163565b9384809261074a565b03836104f3565b565b9060001061078d5761078a90610757565b90565b610651565b61079f6001600090610779565b90565b346107d2576107b2366004610224565b6107ce6107bd610792565b6107c5610163565b918291826102a1565b0390f35b610169565b906020828203126107f1576107ee916000016103b9565b90565b61016e565b6107ff906102ef565b9052565b9190610817906000602085019401906107f6565b565b346108495761084561083461082f3660046107d7565b611154565b61083c610163565b91829182610803565b0390f35b610169565b3461087c576108666108613660046107d7565b6111e9565b61086e610163565b80610878816103f6565b0390f35b610169565b61088a90610178565b9052565b91906108a290600060208501940190610881565b565b346108d4576108b4366004610224565b6108d06108bf611306565b6108c7610163565b9182918261088e565b0390f35b610169565b34610909576108e9366004610224565b6109056108f4611349565b6108fc610163565b918291826102a1565b0390f35b610169565b610917816101c7565b0361091e57565b600080fd5b905035906109308261090e565b565b919060408382031261095b578061094f61095892600086016103b9565b93602001610923565b90565b61016e565b3461098f57610979610973366004610932565b90611368565b610981610163565b8061098b816103f6565b0390f35b610169565b60018060401b0381116109b0576109ac602091610266565b0190565b6104dd565b909291926109ca6109c582610994565b61051a565b938185526020850190828401116109e6576109e492610550565b565b6104d8565b9080601f83011215610a0957816020610a06933591016109b5565b90565b6104d3565b90608082820312610a6757610a2681600084016103b9565b92610a3482602085016103b9565b92610a428360408301610307565b92606082013560018060401b038111610a6257610a5f92016109eb565b90565b610173565b61016e565b34610a9e57610a88610a7f366004610a0e565b9291909161137e565b610a90610163565b80610a9a816103f6565b0390f35b610169565b600080fd5b600080fd5b909182601f83011215610ae55781359160018060401b038311610ae0576020019260208302840111610adb57565b610aa8565b610aa3565b6104d3565b90602082820312610b1a57600082013560018060401b038111610b1557610b119201610aad565b9091565b610173565b61016e565b34610b4e57610b38610b32366004610aea565b90611546565b610b40610163565b80610b4a816103f6565b0390f35b610169565b34610b8357610b63366004610224565b610b7f610b6e61157e565b610b76610163565b91829182610359565b0390f35b610169565b34610bb657610ba0610b9b3660046107d7565b611957565b610ba8610163565b80610bb2816103f6565b0390f35b610169565b34610beb57610be7610bd6610bd1366004610316565b6119e6565b610bde610163565b918291826102a1565b0390f35b610169565b9190604083820312610c195780610c0d610c1692600086016103b9565b936020016103b9565b90565b61016e565b34610c4f57610c4b610c3a610c34366004610bf0565b90611aa5565b610c42610163565b918291826101d9565b0390f35b610169565b600080fd5b600090565b610c66610c59565b5080610c81610c7b6380ac58cd60e01b610178565b91610178565b148015610ca5575b908115610c95575b5090565b610c9f9150611ad6565b38610c91565b5080610cc0610cba635b5e139f60e01b610178565b91610178565b14610c89565b606090565b610cd490610757565b90565b610cdf610cc6565b50610cf36000610ced611afc565b01610ccb565b90565b600090565b610d1790610d07610cf6565b50610d1181611b20565b50611b96565b90565b90610d2e9190610d28611bbe565b91611bcb565b565b90565b90565b610d4a610d45610d4f92610d30565b610d33565b610335565b90565b610d5b90610d36565b90565b604090610d88610d8f9496959396610d7e6060840198600085019061034c565b60208301906107f6565b019061034c565b565b919080610daf610da9610da46000610d52565b610340565b91610340565b14610e0d57610dc79082610dc1611bbe565b91611c35565b9182610ddb610dd583610340565b91610340565b03610de557505050565b610e09909192610df3610163565b9384936364283d7b60e01b855260048501610d5e565b0390fd5b610e38610e1a6000610d52565b610e22610163565b918291633250574960e11b835260048301610359565b0390fd5b90610e4e610e498361052f565b61051a565b918252565b610e5d6000610e3c565b90565b610e68610e53565b90565b91610e7f9291610e79610e60565b9261137e565b565b610ea390610e9e610e90611bbe565b610e98611dd1565b91611f71565b6110b1565b565b601f602091010490565b1b90565b91906008610ecf910291610ec960001984610eaf565b92610eaf565b9181191691161790565b610eed610ee8610ef2926102ef565b610d33565b6102ef565b90565b90565b9190610f0e610f09610f1693610ed9565b610ef5565b908354610eb3565b9055565b600090565b610f3191610f2b610f1a565b91610ef8565b565b5b818110610f3f575050565b80610f4d6000600193610f1f565b01610f34565b9190601f8111610f63575b505050565b610f6f610f94936106b0565b906020610f7b84610ea5565b83019310610f9c575b610f8d90610ea5565b0190610f33565b388080610f5e565b9150610f8d81929050610f84565b1c90565b90610fbf9060001990600802610faa565b191690565b81610fce91610fae565b906002021790565b90610fe081610234565b9060018060401b0382116110a05761100282610ffc855461067d565b85610f53565b602090601f8311600114611037579180916110269360009261102b575b5050610fc4565b90555b565b9091500151388061101f565b601f19831691611046856106b0565b9260005b8181106110885750916002939185600196941061106e575b50505002019055611029565b61107e910151601f841690610fae565b9055388080611062565b9193602060018192878701518155019501920161104a565b6104dd565b906110af91610fd6565b565b6110bc9060016110a5565b565b6110c790610e81565b565b6110db906110d5610cf6565b50611b20565b90565b6110f26110ed6110f792610335565b610d33565b610335565b90565b611103906110de565b90565b61110f906110fa565b90565b9061111c90611106565b600052602052604060002090565b60001c90565b90565b61113f6111449161112a565b611130565b90565b6111519054611133565b90565b61115c610f1a565b50611165611afc565b8161118161117b6111766000610d52565b610340565b91610340565b1461119e5761119b9160036111969201611112565b611147565b90565b6111c96111ab6000610d52565b6111b3610163565b9182916322718ad960e21b835260048301610359565b0390fd5b6111e16111dc6111e692610d30565b610d33565b6102ef565b90565b6111f1611bbe565b8061120b61120561120061157e565b610340565b91610340565b0361125c5750803b61122661122060006111cd565b916102ef565b1461123657611234906120d8565b565b61125890611242610163565b9182916361798f2f60e11b835260048301610359565b0390fd5b61127d90611268610163565b91829162d1953b60e31b835260048301610359565b0390fd5b600090565b60a01c90565b60ff1690565b61129e6112a391611286565b61128c565b90565b6112b09054611292565b90565b60e01b90565b6112cd6112c86112d292610d30565b6112b3565b610178565b90565b6112de906110fa565b90565b63ffffffff1690565b6112fe6112f9611303926112e1565b6112b3565b610178565b90565b61130e611281565b50611322600061131c612128565b016112a6565b60001461133a57611336638fb360376112ea565b5b90565b61134460006112b9565b611337565b611351610cc6565b50611365600161135f611afc565b01610ccb565b90565b61137c91611374611bbe565b919091612182565b565b9161139a93919261139181858491610d91565b92909192612354565b565b906113bf916113ba6113ac611bbe565b6113b4611dd1565b91611f71565b6114a3565b565b90565b6113d86113d36113dd926113c1565b610d33565b6102ef565b90565b634e487b7160e01b600052601160045260246000fd5b61140561140b919392936102ef565b926102ef565b820180921161141657565b6113e0565b600161142791016102ef565b90565b5090565b634e487b7160e01b600052603260045260246000fd5b9190811015611454576020020190565b61142e565b35611463816103a4565b90565b60001b90565b9061147960001991611466565b9181191691161790565b9061149861149361149f92610ed9565b610ef5565b825461146c565b9055565b9190916114c36114b36000611147565b6114bd60016113c4565b906113f6565b906114ce60006111cd565b915b826114ed6114e76114e285899061142a565b6102ef565b916102ef565b10156115345761152861152e9161151861151161150c868a8991611444565b611459565b82906124c3565b61152260016113c4565b906113f6565b9261141b565b916114d0565b9150506115449192506000611483565b565b906115509161139c565b565b60018060a01b031690565b61156961156e9161112a565b611552565b90565b61157b905461155d565b90565b611586610cf6565b5061159a6000611594612128565b01611571565b90565b60401c90565b6115af6115b49161159d565b61128c565b90565b6115c190546115a3565b90565b60018060401b031690565b6115db6115e09161112a565b6115c4565b90565b6115ed90546115cf565b90565b60018060401b031690565b61160f61160a61161492610d30565b610d33565b6115f0565b90565b61162b611626611630926113c1565b610d33565b6115f0565b90565b61163c906110fa565b90565b9061165060018060401b0391611466565b9181191691161790565b61166e611669611673926115f0565b610d33565b6115f0565b90565b90565b9061168e6116896116959261165a565b611676565b825461163f565b9055565b60401b90565b906116ae60ff60401b91611699565b9181191691161790565b6116c1906101c7565b90565b90565b906116dc6116d76116e3926116b8565b6116c4565b825461169f565b9055565b6116f090611617565b9052565b9190611708906000602085019401906116e7565b565b6117126124d9565b90611728611722600084016115b7565b156101c7565b90611735600084016115e3565b8061174961174360006115fb565b916115f0565b148061186e575b9061176461175e6001611617565b916115f0565b1480611845575b6117769091156101c7565b9081611834575b50611811576117a79061179c6117936001611617565b60008601611679565b826117fe575b611933565b6117af575b50565b6117bd9060008091016116c7565b60016117f57fc7f505b2f371ae2175ee4913f4499e1f2633a7b5936321eed1cdaeb6115181d2916117ec610163565b918291826116f4565b0390a1386117ac565b61180c6001600086016116c7565b6117a2565b611819610163565b63f92ee8a960e01b815280611830600482016103f6565b0390fd5b61183f9150156101c7565b3861177d565b5061177661185230611633565b3b61186661186060006111cd565b916102ef565b14905061176b565b5082611750565b60207f2057696e6e657220323032340000000000000000000000000000000000000000917f424c455820426974436f696e2048616c76696e6720436f6d7065746974696f6e60008201520152565b6118cd602c610e3c565b906118da60208301611875565b565b6118e46118c3565b90565b60007f424c455800000000000000000000000000000000000000000000000000000000910152565b6119196004610e3c565b90611926602083016118e7565b565b61193061190f565b90565b61193c9061251b565b6119556119476118dc565b61194f611928565b90612546565b565b6119609061170a565b565b90565b5190565b611971610e53565b90565b905090565b61199e6119959260209261198c81610234565b94858093611974565b93849101610241565b0190565b6119b0906119b69392611979565b90611979565b90565b6119d892916119e4916119ca610163565b9485926020840192836119a2565b908103825203836104f3565b565b6119ee610cc6565b506119f881611b20565b50611a01612552565b90611a13611a0e83611962565b611965565b611a26611a2060006111cd565b916102ef565b11600014611a4557611a3b611a4192916125fa565b906119b9565b5b90565b5050611a4f611969565b611a42565b90611a5e90611106565b600052602052604060002090565b90611a7690611106565b600052602052604060002090565b611a90611a959161112a565b61128c565b90565b611aa29054611a84565b90565b611ad391611ac9611ace92611ab8610c59565b506005611ac3611afc565b01611a54565b611a6c565b611a98565b90565b611ade610c59565b50611af8611af26301ffc9a760e01b610178565b91610178565b1490565b7f80bb2b638cc20bc4d0a60d66940f3ab4a00c1d7b313497ca82fb0b4ab007930090565b611b28610cf6565b50611b32816126a4565b9081611b4f611b49611b446000610d52565b610340565b91610340565b14611b58575090565b611b7a90611b64610163565b918291637e27328960e01b835260048301610803565b0390fd5b90611b8890610ed9565b600052602052604060002090565b611bb6611bbb91611ba5610cf6565b506004611bb0611afc565b01611b7e565b611571565b90565b611bc6610cf6565b503390565b91611bd992916001926126cc565b565b90611be691036102ef565b90565b90611bf491016102ef565b90565b90611c0860018060a01b0391611466565b9181191691161790565b90565b90611c2a611c25611c3192611106565b611c12565b8254611bf7565b9055565b90611c3e610cf6565b50611ccf611c4a611afc565b611c53836126a4565b9480611c70611c6a611c656000610d52565b610340565b91610340565b03611db7575b5084611c93611c8d611c886000610d52565b610340565b91610340565b03611d5e575b83611cb5611caf611caa6000610d52565b610340565b91610340565b03611d26575b611cca60028592018490611b7e565b611c15565b8291611d0d611d07611d017fddf252ad1be2c89b69c2b068fc378daa952ba7f163c4a11628f55a4df523b3ef95611106565b92611106565b92610ed9565b92611d16610163565b80611d20816103f6565b0390a490565b611d59611d3360016113c4565b611d53611d44600385018890611112565b91611d4e83611147565b611be9565b90611483565b611cbb565b611d7f611d6b6000610d52565b84611d766000610d52565b906000926126cc565b611db2611d8c60016113c4565b611dac611d9d600385018990611112565b91611da783611147565b611bdb565b90611483565b611c99565b611dc49086908591612854565b38611c76565b3690600090565b611dd9611dca565b9050506000903690565b90565b611dfa611df5611dff92611de3565b610d33565b6102ef565b90565b600080fd5b600080fd5b90939293848311611e2c578411611e27576001820201920390565b611e07565b611e02565b5090565b90611e43611e4a9183611e31565b9135610178565b9060048110611e58575b5090565b611e709063ffffffff60e01b90600403600802610eaf565b1638611e54565b611e8b611e86611e9092610d30565b610d33565b6112e1565b90565b60a01b90565b90611ea860ff60a01b91611e93565b9181191691161790565b90611ec7611ec2611ece926116b8565b6116c4565b8254611e99565b9055565b611edb906110de565b90565b611ee790611ed2565b90565b611ef3906110fa565b90565b600080fd5b6000910312611f0657565b61016e565b60209181520190565b9190611f2e81611f2781611f3395611f0b565b8095610550565b610266565b0190565b91611f5d939192611f506040820194600083019061034c565b6020818503910152611f14565b90565b611f68610163565b3d6000823e3d90fd5b611f79612128565b91611fcc611fc4611f8861157e565b84611f92306112d5565b90611fbe611fb8878b600090611fb2611fac6004936111cd565b92611de6565b92611e0c565b90611e35565b926129d6565b9190156101c7565b611fd8575b5050505050565b611feb611fe56000611e77565b916112e1565b116000146120b357612001600160008501611eb2565b61201961201461200f61157e565b611ede565b611eea565b6394c7d7ee92919492813b156120ae57600061204891612053829661203c610163565b998a97889687956112b3565b855260048501611f37565b03925af19182156120a9576120729261207c575b506000809101611eb2565b3880808080611fd1565b61209c9060003d81116120a2575b61209481836104f3565b810190611efb565b38612067565b503d61208a565b611f60565b611ef6565b6120d4826120bf610163565b91829162d1953b60e31b835260048301610359565b0390fd5b6120ed6120e3612128565b6000839101611c15565b6121237f2f658b440c35314f52658ea8a740e05b284cdc84dc9ae01e891f21b8933e7cad9161211a610163565b91829182610359565b0390a1565b7ff3177357ab46d8af007ab3fdb9af81da189e1068fefdc0073dca88a2cab40a0090565b9061215860ff91611466565b9181191691161790565b9061217761217261217e926116b8565b6116c4565b825461214c565b9055565b91909161218d611afc565b836121a96121a361219e6000610d52565b610340565b91610340565b14612220576121d0906121cb6121c460058693018590611a54565b8690611a6c565b612162565b91909161221b6122096122037f17307eab39ab6107e8899845ad3d59bd9653f200f220920489ca2b5937696c3193611106565b93611106565b93612212610163565b918291826101d9565b0390a3565b6122428461222c610163565b918291630b61174360e31b835260048301610359565b0390fd5b61224f906110de565b90565b61225b90612246565b90565b612267906110fa565b90565b9050519061227782610184565b565b90602082820312612293576122909160000161226a565b90565b61016e565b6122b76122c06020936122c5936122ae81611965565b93848093611f0b565b95869101610241565b610266565b0190565b90926122fd906122f361230a96946122e96080860197600087019061034c565b602085019061034c565b60408301906107f6565b6060818403910152612298565b90565b9061231f61231a83610994565b61051a565b918252565b606090565b3d6000146123465761233a3d61230d565b903d6000602084013e5b565b61234e612324565b90612344565b929092833b61236c61236660006111cd565b916102ef565b11612378575b50505050565b6020916123b9600061239161238c88612252565b61225e565b926123c463150b7a02916123a3611bbe565b96986123ad610163565b998a98899788966112b3565b8652600486016122c9565b03925af18091600092612493575b5015600014612449575060016123ed57505b38808080612372565b6123f5612329565b906123ff82611965565b61241261240c60006111cd565b916102ef565b146000146124405761243c90612426610163565b918291633250574960e11b835260048301610359565b0390fd5b50805190602001fd5b61246261245c630a85bd0160e11b610178565b91610178565b0361246d57506123e4565b61248f90612479610163565b918291633250574960e11b835260048301610359565b0390fd5b6124b591925060203d81116124bc575b6124ad81836104f3565b810190612279565b90386123d2565b503d6124a3565b906124d791906124d1610e60565b91612adb565b565b7ff0c57e16840df040f15088dc2f81fe391c3923bec73e23a9662efc9c229c6a0090565b61250e90612509612b01565b612510565b565b61251990612b59565b565b612524906124fd565b565b9061253891612533612b01565b61253a565b565b9061254491612b9c565b565b9061255091612526565b565b61255a610cc6565b506125656001610ccb565b90565b369037565b9061259261257a83610e3c565b92602080612588869361052f565b9201910390612568565b565b60016125a091036102ef565b90565b90565b6125ba6125b56125bf926125a3565b610d33565b6102ef565b90565b634e487b7160e01b600052601260045260246000fd5b6125e46125ea916102ef565b916102ef565b9081156125f5570490565b6125c2565b612602610cc6565b5061261f61260f82612cbf565b61261960016113c4565b90611be9565b906126298261256d565b91612632610f1a565b5060200182015b60011561269d5761264c61267891612594565b916f181899199a1a9b1b9c1cb0b131b232b360811b600a82061a8353612672600a6125a6565b906125d8565b8061268c61268660006111cd565b916102ef565b146126975790612639565b50505b90565b505061269a565b6126c46126c9916126b3610cf6565b5060026126be611afc565b01611b7e565b611571565b90565b90916126d6611afc565b9380801561280c575b6126ff575b50506126fd929160046126f8929301611b7e565b611c15565b565b61270884611b20565b918061272561271f61271a6000610d52565b610340565b91610340565b1415806127f1575b806127d7575b6127b157506126f8926126fd959492600492612756575b509250819394506126e4565b81849061279561278f6127897f8c5be1e5ebec7d5bd14f71427d1e84f3dd0314c0f7b2291e5b200ac8c7c3b92595611106565b92611106565b92610ed9565b9261279e610163565b806127a8816103f6565b0390a43861274a565b6127d3906127bd610163565b91829163a9fbf51f60e01b835260048301610359565b0390fd5b506127ec6127e6848390611aa5565b156101c7565b612733565b50826128056127ff83610340565b91610340565b141561272d565b508161282961282361281e6000610d52565b610340565b91610340565b14156126df565b91602061285292949361284b6040820196600083019061034c565b01906107f6565b565b61286961286382848691612f15565b156101c7565b61287257505050565b61288d6128876128826000610d52565b610340565b91610340565b146000146128bb576128b7826128a1610163565b918291637e27328960e01b835260048301610803565b0390fd5b6128dc6128c6610163565b92839263177e802f60e01b845260048401612830565b0390fd5b600090565b60409061290f61291694969593966129056060840198600085019061034c565b602083019061034c565b0190610881565b565b90565b61292f61292a61293492612918565b610d33565b6102ef565b90565b90565b61294e61294961295392612937565b610d33565b6102ef565b90565b905051906129638261090e565b565b9060208282031261297f5761297c91600001612956565b90565b61016e565b61298d816112e1565b0361299457565b600080fd5b905051906129a682612984565b565b91906040838203126129d157806129c56129ce9260008601612956565b93602001612999565b90565b61016e565b93926000918291612a286129e8610c59565b95612a196129f46128e0565b99949193612a00610163565b94859360046020860163b700961360e01b8152016128e5565b602082018103825203826104f3565b602081019051915afa612a39612329565b90612a44575b509190565b90612a4e82611965565b612a61612a5b604061291b565b916102ef565b1015600014612a905750612a879192506020612a7c82611965565b8183010191016129a8565b91905b38612a3f565b90612a9a81611965565b612aad612aa7602061293a565b916102ef565b1015612aba575b50612a8a565b612ad591506020612aca82611965565b818301019101612965565b38612ab4565b9091612aff92612aec838290612fb6565b612af66000610d52565b92909192612354565b565b612b12612b0c61306d565b156101c7565b612b1857565b612b20610163565b631afcd79f60e31b815280612b37600482016103f6565b0390fd5b612b4c90612b47612b01565b612b4e565b565b612b57906120d8565b565b612b6290612b3b565b565b90612b7691612b71612b01565b612b78565b565b6001612b9a92612b93612b89611afc565b93600085016110a5565b91016110a5565b565b90612ba691612b64565b565b90565b612bbf612bba612bc492612ba8565b610d33565b6102ef565b90565b90565b612bde612bd9612be392612bc7565b610d33565b6102ef565b90565b90565b612bfd612bf8612c0292612be6565b610d33565b6102ef565b90565b90565b612c1c612c17612c2192612c05565b610d33565b6102ef565b90565b90565b612c3b612c36612c4092612c24565b610d33565b6102ef565b90565b90565b612c5a612c55612c5f92612c43565b610d33565b6102ef565b90565b90565b612c79612c74612c7e92612c62565b610d33565b6102ef565b90565b90565b612c98612c93612c9d92612c81565b610d33565b6102ef565b90565b90565b612cb7612cb2612cbc92612ca0565b610d33565b6102ef565b90565b612cc7610f1a565b50612cd260006111cd565b9080612cfc612cf672184f03e93ff9f4daa797ed6e38ed64bf6a1f0160401b612bab565b916102ef565b1015612ed2575b80612d23612d1d6904ee2d6d415b85acef8160201b612bca565b916102ef565b1015612e98575b80612d44612d3e662386f26fc10000612be9565b916102ef565b1015612e64575b80612d62612d5c6305f5e100612c27565b916102ef565b1015612e33575b80612d7e612d78612710612c65565b916102ef565b1015612e04575b80612d99612d936064612c84565b916102ef565b1015612dd6575b612db3612dad600a6125a6565b916102ef565b1015612dbd575b90565b612dd190612dcb60016113c4565b90611be9565b612dba565b612ded612dfe91612de76064612c84565b906125d8565b91612df86002612ca3565b90611be9565b90612da0565b612e1c612e2d91612e16612710612c65565b906125d8565b91612e276004611de6565b90611be9565b90612d85565b612e4d612e5e91612e476305f5e100612c27565b906125d8565b91612e586008612c46565b90611be9565b90612d69565b612e81612e9291612e7b662386f26fc10000612be9565b906125d8565b91612e8c6010612c08565b90611be9565b90612d4b565b612ebb612ecc91612eb56904ee2d6d415b85acef8160201b612bca565b906125d8565b91612ec6602061293a565b90611be9565b90612d2a565b612efe612f0f91612ef872184f03e93ff9f4daa797ed6e38ed64bf6a1f0160401b612bab565b906125d8565b91612f09604061291b565b90611be9565b90612d03565b9190612f1f610c59565b5080612f3c612f36612f316000610d52565b610340565b91610340565b14159283612f4b575b50505090565b8091929350612f62612f5c84610340565b91610340565b14908115612fa4575b50918215612f7e575b5050388080612f45565b612f9c919250612f90612f9691611b96565b92610340565b91610340565b143880612f74565b612fb091508290611aa5565b38612f6b565b9081612fd3612fcd612fc86000610d52565b610340565b91610340565b1461303e57612fed9190612fe76000610d52565b91611c35565b613008613002612ffd6000610d52565b610340565b91610340565b0361300f57565b61303a61301c6000610d52565b613024610163565b9182916339e3563760e11b835260048301610359565b0390fd5b61306961304b6000610d52565b613053610163565b918291633250574960e11b835260048301610359565b0390fd5b613075610c59565b5061308960006130836124d9565b016115b7565b9056fea2646970667358221220fd8c99580f521a15fc37fe5ea0098c20282d6b7490b6a6905d659c4541f960b664736f6c63430008180033",
  "devdoc": {
    "errors": {
      "ERC721IncorrectOwner(address,uint256,address)": [
        {
          "details": "Indicates an error related to the ownership over a particular token. Used in transfers.",
          "params": {
            "owner": "Address of the current owner of a token.",
            "sender": "Address whose tokens are being transferred.",
            "tokenId": "Identifier number of a token."
          }
        }
      ],
      "ERC721InsufficientApproval(address,uint256)": [
        {
          "details": "Indicates a failure with the `operator`s approval. Used in transfers.",
          "params": {
            "operator": "Address that may be allowed to operate on tokens without being their owner.",
            "tokenId": "Identifier number of a token."
          }
        }
      ],
      "ERC721InvalidApprover(address)": [
        {
          "details": "Indicates a failure with the `approver` of a token to be approved. Used in approvals.",
          "params": {
            "approver": "Address initiating an approval operation."
          }
        }
      ],
      "ERC721InvalidOperator(address)": [
        {
          "details": "Indicates a failure with the `operator` to be approved. Used in approvals.",
          "params": {
            "operator": "Address that may be allowed to operate on tokens without being their owner."
          }
        }
      ],
      "ERC721InvalidOwner(address)": [
        {
          "details": "Indicates that an address can't be an owner. For example, `address(0)` is a forbidden owner in EIP-20. Used in balance queries.",
          "params": {
            "owner": "Address of the current owner of a token."
          }
        }
      ],
      "ERC721InvalidReceiver(address)": [
        {
          "details": "Indicates a failure with the token `receiver`. Used in transfers.",
          "params": {
            "receiver": "Address to which tokens are being transferred."
          }
        }
      ],
      "ERC721InvalidSender(address)": [
        {
          "details": "Indicates a failure with the token `sender`. Used in transfers.",
          "params": {
            "sender": "Address whose tokens are being transferred."
          }
        }
      ],
      "ERC721NonexistentToken(uint256)": [
        {
          "details": "Indicates a `tokenId` whose `owner` is the zero address.",
          "params": {
            "tokenId": "Identifier number of a token."
          }
        }
      ],
      "InvalidInitialization()": [
        {
          "details": "The contract is already initialized."
        }
      ],
      "NotInitializing()": [
        {
          "details": "The contract is not initializing."
        }
      ]
    },
    "events": {
      "Approval(address,address,uint256)": {
        "details": "Emitted when `owner` enables `approved` to manage the `tokenId` token."
      },
      "ApprovalForAll(address,address,bool)": {
        "details": "Emitted when `owner` enables or disables (`approved`) `operator` to manage all of its assets."
      },
      "AuthorityUpdated(address)": {
        "details": "Authority that manages this contract was updated."
      },
      "Initialized(uint64)": {
        "details": "Triggered when the contract has been initialized or reinitialized."
      },
      "Transfer(address,address,uint256)": {
        "details": "Emitted when `tokenId` token is transferred from `from` to `to`."
      }
    },
    "kind": "dev",
    "methods": {
      "approve(address,uint256)": {
        "details": "See {IERC721-approve}."
      },
      "authority()": {
        "details": "Returns the current authority."
      },
      "balanceOf(address)": {
        "details": "See {IERC721-balanceOf}."
      },
      "getApproved(uint256)": {
        "details": "See {IERC721-getApproved}."
      },
      "isApprovedForAll(address,address)": {
        "details": "See {IERC721-isApprovedForAll}."
      },
      "isConsumingScheduledOp()": {
        "details": "Returns true only in the context of a delayed restricted call, at the moment that the scheduled operation is being consumed. Prevents denial of service for delayed restricted calls in the case that the contract performs attacker controlled calls."
      },
      "name()": {
        "details": "See {IERC721Metadata-name}."
      },
      "ownerOf(uint256)": {
        "details": "See {IERC721-ownerOf}."
      },
      "safeTransferFrom(address,address,uint256)": {
        "details": "See {IERC721-safeTransferFrom}."
      },
      "safeTransferFrom(address,address,uint256,bytes)": {
        "details": "See {IERC721-safeTransferFrom}."
      },
      "setApprovalForAll(address,bool)": {
        "details": "See {IERC721-setApprovalForAll}."
      },
      "setAuthority(address)": {
        "details": "Transfers control to a new authority. The caller must be the current authority."
      },
      "supportsInterface(bytes4)": {
        "details": "See {IERC165-supportsInterface}."
      },
      "symbol()": {
        "details": "See {IERC721Metadata-symbol}."
      },
      "tokenURI(uint256)": {
        "details": "See {IERC721Metadata-tokenURI}."
      },
      "transferFrom(address,address,uint256)": {
        "details": "See {IERC721-transferFrom}."
      }
    },
    "version": 1
  },
  "userdoc": {
    "kind": "user",
    "methods": {},
    "version": 1
  },
  "storageLayout": {
    "storage": [
      {
        "astId": 8523,
        "contract": "src/BLEX.sol:BLEX",
        "label": "_currentTokenId",
        "offset": 0,
        "slot": "0",
        "type": "t_uint256"
      },
      {
        "astId": 8525,
        "contract": "src/BLEX.sol:BLEX",
        "label": "baseURI",
        "offset": 0,
        "slot": "1",
        "type": "t_string_storage"
      }
    ],
    "types": {
      "t_string_storage": {
        "encoding": "bytes",
        "label": "string",
        "numberOfBytes": "32"
      },
      "t_uint256": {
        "encoding": "inplace",
        "label": "uint256",
        "numberOfBytes": "32"
      }
    }
  }
}