{
  "address": "0xeDc7e9F544BE27DA2CCdF21885B94F2bB0C68923",
  "abi": [
    {
      "anonymous": false,
      "inputs": [
        {
          "indexed": true,
          "internalType": "address",
          "name": "owner",
          "type": "address"
        },
        {
          "indexed": true,
          "internalType": "address",
          "name": "approved",
          "type": "address"
        },
        {
          "indexed": true,
          "internalType": "uint256",
          "name": "tokenId",
          "type": "uint256"
        }
      ],
      "name": "Approval",
      "type": "event"
    },
    {
      "anonymous": false,
      "inputs": [
        {
          "indexed": true,
          "internalType": "address",
          "name": "owner",
          "type": "address"
        },
        {
          "indexed": true,
          "internalType": "address",
          "name": "operator",
          "type": "address"
        },
        {
          "indexed": false,
          "internalType": "bool",
          "name": "approved",
          "type": "bool"
        }
      ],
      "name": "ApprovalForAll",
      "type": "event"
    },
    {
      "anonymous": false,
      "inputs": [
        {
          "indexed": true,
          "internalType": "address",
          "name": "from",
          "type": "address"
        },
        {
          "indexed": true,
          "internalType": "address",
          "name": "to",
          "type": "address"
        },
        {
          "indexed": true,
          "internalType": "uint256",
          "name": "tokenId",
          "type": "uint256"
        }
      ],
      "name": "Transfer",
      "type": "event"
    },
    {
      "inputs": [
        {
          "internalType": "address",
          "name": "owner",
          "type": "address"
        }
      ],
      "name": "balanceOf",
      "outputs": [
        {
          "internalType": "uint256",
          "name": "",
          "type": "uint256"
        }
      ],
      "stateMutability": "view",
      "type": "function"
    },
    {
      "inputs": [
        {
          "internalType": "address",
          "name": "person",
          "type": "address"
        }
      ],
      "name": "checkDegreeOfPerson",
      "outputs": [
        {
          "internalType": "string",
          "name": "",
          "type": "string"
        }
      ],
      "stateMutability": "view",
      "type": "function"
    },
    {
      "inputs": [
        {
          "internalType": "string",
          "name": "__tokenURI",
          "type": "string"
        }
      ],
      "name": "claimDegree",
      "outputs": [
        {
          "internalType": "uint256",
          "name": "",
          "type": "uint256"
        }
      ],
      "stateMutability": "nonpayable",
      "type": "function"
    },
    {
      "inputs": [
        {
          "internalType": "uint256",
          "name": "tokenId",
          "type": "uint256"
        }
      ],
      "name": "getApproved",
      "outputs": [
        {
          "internalType": "address",
          "name": "",
          "type": "address"
        }
      ],
      "stateMutability": "view",
      "type": "function"
    },
    {
      "inputs": [
        {
          "internalType": "string",
          "name": "name_",
          "type": "string"
        },
        {
          "internalType": "string",
          "name": "symbol_",
          "type": "string"
        }
      ],
      "name": "initialize",
      "outputs": [],
      "stateMutability": "nonpayable",
      "type": "function"
    },
    {
      "inputs": [],
      "name": "initialized",
      "outputs": [
        {
          "internalType": "bool",
          "name": "",
          "type": "bool"
        }
      ],
      "stateMutability": "view",
      "type": "function"
    },
    {
      "inputs": [
        {
          "internalType": "address",
          "name": "owner",
          "type": "address"
        },
        {
          "internalType": "address",
          "name": "operator",
          "type": "address"
        }
      ],
      "name": "isApprovedForAll",
      "outputs": [
        {
          "internalType": "bool",
          "name": "",
          "type": "bool"
        }
      ],
      "stateMutability": "view",
      "type": "function"
    },
    {
      "inputs": [
        {
          "internalType": "address",
          "name": "to",
          "type": "address"
        }
      ],
      "name": "issueDegree",
      "outputs": [],
      "stateMutability": "nonpayable",
      "type": "function"
    },
    {
      "inputs": [
        {
          "internalType": "address[]",
          "name": "tos",
          "type": "address[]"
        },
        {
          "internalType": "string[]",
          "name": "uris",
          "type": "string[]"
        }
      ],
      "name": "issueDegreeList",
      "outputs": [],
      "stateMutability": "nonpayable",
      "type": "function"
    },
    {
      "inputs": [
        {
          "internalType": "address[]",
          "name": "tos",
          "type": "address[]"
        }
      ],
      "name": "issueDegrees",
      "outputs": [],
      "stateMutability": "nonpayable",
      "type": "function"
    },
    {
      "inputs": [
        {
          "internalType": "address",
          "name": "",
          "type": "address"
        }
      ],
      "name": "issuedDegrees",
      "outputs": [
        {
          "internalType": "bool",
          "name": "",
          "type": "bool"
        }
      ],
      "stateMutability": "view",
      "type": "function"
    },
    {
      "inputs": [],
      "name": "name",
      "outputs": [
        {
          "internalType": "string",
          "name": "",
          "type": "string"
        }
      ],
      "stateMutability": "view",
      "type": "function"
    },
    {
      "inputs": [
        {
          "internalType": "uint256",
          "name": "tokenId",
          "type": "uint256"
        }
      ],
      "name": "ownerOf",
      "outputs": [
        {
          "internalType": "address",
          "name": "",
          "type": "address"
        }
      ],
      "stateMutability": "view",
      "type": "function"
    },
    {
      "inputs": [
        {
          "internalType": "address",
          "name": "",
          "type": "address"
        }
      ],
      "name": "personToDegree",
      "outputs": [
        {
          "internalType": "string",
          "name": "",
          "type": "string"
        }
      ],
      "stateMutability": "view",
      "type": "function"
    },
    {
      "inputs": [
        {
          "internalType": "bytes4",
          "name": "interfaceId",
          "type": "bytes4"
        }
      ],
      "name": "supportsInterface",
      "outputs": [
        {
          "internalType": "bool",
          "name": "",
          "type": "bool"
        }
      ],
      "stateMutability": "view",
      "type": "function"
    },
    {
      "inputs": [],
      "name": "symbol",
      "outputs": [
        {
          "internalType": "string",
          "name": "",
          "type": "string"
        }
      ],
      "stateMutability": "view",
      "type": "function"
    },
    {
      "inputs": [
        {
          "internalType": "uint256",
          "name": "tokenId",
          "type": "uint256"
        }
      ],
      "name": "tokenURI",
      "outputs": [
        {
          "internalType": "string",
          "name": "",
          "type": "string"
        }
      ],
      "stateMutability": "view",
      "type": "function"
    },
    {
      "inputs": [
        {
          "internalType": "address",
          "name": "newOwner",
          "type": "address"
        }
      ],
      "name": "transferContractOwnership",
      "outputs": [],
      "stateMutability": "nonpayable",
      "type": "function"
    }
  ],
  "transactionHash": "0xef44edfd21de995c9ec1193961f5f98dfa277900a7b290678596aa9d8e8d9648",
  "args": [],
  "numDeployments": 2,
  "solcInputHash": "98341a1e69c8f1e70b8b54b06cec13b4",
  "bytecode": "0x6080604052346200002d576200001462000098565b6200001e62000033565b6122b1620000a982396122b190f35b62000039565b60405190565b600080fd5b60001b90565b906200005260ff916200003e565b9181191691161790565b151590565b6200006c906200005c565b90565b90565b906200008c62000086620000949262000061565b6200006f565b825462000044565b9055565b620000a66000600962000072565b56fe60806040526004361015610013575b610c92565b61001e60003561013d565b806301ffc9a71461013857806306fdde0314610133578063081812fc1461012e578063158ef93e146101295780632db2f4781461012457806337f902f01461011f57806349d89ea41461011a5780634cd88b76146101155780636352211e1461011057806370a082311461010b57806389ad05541461010657806395d89b4114610101578063a843c51f146100fc578063b5d473da146100f7578063c282de81146100f2578063c87b56dd146100ed578063e985e9c5146100e85763f5caa7630361000e57610c5d565b610bf5565b610b92565b610b5e565b610a23565b6109f0565b6109bb565b610988565b610885565b610850565b61081c565b61078f565b610754565b610532565b6103c4565b61034f565b61029a565b6101cf565b60e01c90565b60405190565b600080fd5b600080fd5b600080fd5b63ffffffff60e01b1690565b61016d81610158565b0361017457565b600080fd5b9050359061018682610164565b565b906020828203126101a25761019f91600001610179565b90565b61014e565b151590565b6101b5906101a7565b9052565b91906101cd906000602085019401906101ac565b565b346101ff576101fb6101ea6101e5366004610188565b610c9c565b6101f2610143565b918291826101b9565b0390f35b610149565b600091031261020f57565b61014e565b5190565b60209181520190565b60005b838110610235575050906000910152565b806020918301518185015201610224565b601f801991011690565b61026f61027860209361027d9361026681610214565b93848093610218565b95869101610221565b610246565b0190565b6102979160208201916000818403910152610250565b90565b346102ca576102aa366004610204565b6102c66102b5610d15565b6102bd610143565b91829182610281565b0390f35b610149565b90565b6102db816102cf565b036102e257565b600080fd5b905035906102f4826102d2565b565b906020828203126103105761030d916000016102e7565b90565b61014e565b60018060a01b031690565b61032990610315565b90565b61033590610320565b9052565b919061034d9060006020850194019061032c565b565b3461037f5761037b61036a6103653660046102f6565b610e40565b610372610143565b91829182610339565b0390f35b610149565b1c90565b60ff1690565b61039e9060086103a39302610384565b610388565b90565b906103b1915461038e565b90565b6103c160096000906103a6565b90565b346103f4576103d4366004610204565b6103f06103df6103b4565b6103e7610143565b918291826101b9565b0390f35b610149565b600080fd5b600080fd5b634e487b7160e01b600052604160045260246000fd5b9061042390610246565b810190811060018060401b0382111761043b57604052565b610403565b9061045361044c610143565b9283610419565b565b60018060401b0381116104715761046d602091610246565b0190565b610403565b90826000939282370152565b9092919261049761049282610455565b610440565b938185526020850190828401116104b3576104b192610476565b565b6103fe565b9080601f830112156104d6578160206104d393359101610482565b90565b6103f9565b9060208282031261050a57600082013560018060401b0381116105055761050292016104b8565b90565b610153565b61014e565b610518906102cf565b9052565b91906105309060006020850194019061050f565b565b346105625761055e61054d6105483660046104db565b610e75565b610555610143565b9182918261051c565b0390f35b610149565b61057081610320565b0361057757565b600080fd5b9050359061058982610567565b565b906020828203126105a5576105a29160000161057c565b90565b61014e565b90565b6105c16105bc6105c692610315565b6105aa565b610315565b90565b6105d2906105ad565b90565b6105de906105c9565b90565b906105eb906105d5565b600052602052604060002090565b634e487b7160e01b600052600060045260246000fd5b634e487b7160e01b600052602260045260246000fd5b9060016002830492168015610645575b602083101461064057565b61060f565b91607f1691610635565b60209181520190565b600052602060002090565b906000929180549061067e61067783610625565b809461064f565b916001811690816000146106d7575060011461069a575b505050565b6106a79192939450610658565b916000925b8184106106bf5750500190388080610695565b600181602092959395548486015201910192906106ac565b92949550505060ff1916825215156020020190388080610695565b906106fc91610663565b90565b9061071f6107189261070f610143565b938480926106f2565b0383610419565b565b9060001061073557610732906106ff565b90565b6105f9565b6107519061074c600a916000926105e1565b610721565b90565b346107845761078061076f61076a36600461058b565b61073a565b610777610143565b91829182610281565b0390f35b610149565b60000190565b346107bd576107a76107a236600461058b565b610f2a565b6107af610143565b806107b981610789565b0390f35b610149565b91909160408184031261081757600081013560018060401b03811161081257836107ed9183016104b8565b92602082013560018060401b03811161080d5761080a92016104b8565b90565b610153565b610153565b61014e565b3461084b5761083561082f3660046107c2565b9061117b565b61083d610143565b8061084781610789565b0390f35b610149565b346108805761087c61086b6108663660046102f6565b6112a5565b610873610143565b91829182610339565b0390f35b610149565b346108b5576108b16108a061089b36600461058b565b6113d0565b6108a8610143565b9182918261051c565b0390f35b610149565b60018060401b0381116108d05760208091020190565b610403565b600080fd5b909291926108ef6108ea826108ba565b610440565b938185526020808601920283019281841161092c57915b8383106109135750505050565b60208091610921848661057c565b815201920191610906565b6108d5565b9080601f8301121561094f5781602061094c933591016108da565b90565b6103f9565b9060208282031261098357600082013560018060401b03811161097e5761097b9201610931565b90565b610153565b61014e565b346109b6576109a061099b366004610954565b61151f565b6109a8610143565b806109b281610789565b0390f35b610149565b346109eb576109cb366004610204565b6109e76109d661152a565b6109de610143565b91829182610281565b0390f35b610149565b34610a1e57610a08610a0336600461058b565b61157d565b610a10610143565b80610a1a81610789565b0390f35b610149565b34610a5357610a4f610a3e610a3936600461058b565b611588565b610a46610143565b91829182610281565b0390f35b610149565b60018060401b038111610a6e5760208091020190565b610403565b929190610a87610a8282610a58565b610440565b9381855260208086019202810191838311610adc5781905b838210610aad575050505050565b813560018060401b038111610ad757602091610acc87849387016104b8565b815201910190610a9f565b6103f9565b6108d5565b9080601f83011215610aff57816020610afc93359101610a73565b90565b6103f9565b919091604081840312610b5957600081013560018060401b038111610b545783610b2f918301610931565b92602082013560018060401b038111610b4f57610b4c9201610ae1565b90565b610153565b610153565b61014e565b34610b8d57610b77610b71366004610b04565b90611690565b610b7f610143565b80610b8981610789565b0390f35b610149565b34610bc257610bbe610bad610ba83660046102f6565b6117ad565b610bb5610143565b91829182610281565b0390f35b610149565b9190604083820312610bf05780610be4610bed926000860161057c565b9360200161057c565b90565b61014e565b34610c2657610c22610c11610c0b366004610bc7565b90611898565b610c19610143565b918291826101b9565b0390f35b610149565b90610c35906105d5565b600052602052604060002090565b610c5a90610c55600b91600092610c2b565b6103a6565b90565b34610c8d57610c89610c78610c7336600461058b565b610c43565b610c80610143565b918291826101b9565b0390f35b610149565b600080fd5b600090565b610ca4610c97565b5080610cbf610cb9637937ac0b60e11b610158565b91610158565b148015610ce3575b908115610cd3575b5090565b610cdd91506118c0565b38610ccf565b5080610cfe610cf8635b5e139f60e01b610158565b91610158565b14610cc7565b606090565b610d12906106ff565b90565b610d1d610d04565b50610d286000610d09565b90565b600090565b60207f697374656e7420746f6b656e0000000000000000000000000000000000000000917f4552433732313a20617070726f76656420717565727920666f72206e6f6e657860008201520152565b610d8b602c604092610218565b610d9481610d30565b0190565b610dae9060208101906000818303910152610d7e565b90565b15610db857565b610dc0610143565b62461bcd60e51b815280610dd660048201610d98565b0390fd5b610dee610de9610df3926102cf565b6105aa565b6102cf565b90565b90610e0090610dda565b600052602052604060002090565b60001c90565b60018060a01b031690565b610e2b610e3091610e0e565b610e14565b90565b610e3d9054610e1f565b90565b610e68610e6d91610e4f610d2b565b50610e61610e5c826118e6565b610db1565b6004610df6565b610e33565b90565b600090565b610e8890610e81610e70565b50336119a9565b90565b15610e9257565b600080fd5b610ec590610ec033610eba610eb4610eaf6007610e33565b610320565b91610320565b14610e8b565b610f12565b565b60001b90565b90610ed960ff91610ec7565b9181191691161790565b610eec906101a7565b90565b90565b90610f07610f02610f0e92610ee3565b610eef565b8254610ecd565b9055565b610f2890610f23600191600b610c2b565b610ef2565b565b610f3390610e97565b565b610f41610f4691610e0e565b610388565b90565b610f539054610f35565b90565b90610f6760018060a01b0391610ec7565b9181191691161790565b90565b90610f89610f84610f90926105d5565b610f71565b8254610f56565b9055565b601f602091010490565b1b90565b91906008610fbe910291610fb860001984610f9e565b92610f9e565b9181191691161790565b90565b9190610fe1610fdc610fe993610dda565b610fc8565b908354610fa2565b9055565b610fff91610ff9610e70565b91610fcb565b565b5b81811061100d575050565b8061101b6000600193610fed565b01611002565b9190601f8111611031575b505050565b61103d61106293610658565b90602061104984610f94565b8301931061106a575b61105b90610f94565b0190611001565b38808061102c565b915061105b81929050611052565b906110899060001990600802610384565b191690565b8161109891611078565b906002021790565b906110aa81610214565b9060018060401b03821161116a576110cc826110c68554610625565b85611021565b602090601f8311600114611101579180916110f0936000926110f5575b505061108e565b90555b565b909150015138806110e9565b601f1983169161111085610658565b9260005b81811061115257509160029391856001969410611138575b505050020190556110f3565b611148910151601f841690611078565b905538808061112c565b91936020600181928787015181550195019201611114565b610403565b90611179916110a0565b565b906111bb6111c2926111a960006111a361119d6111986009610f49565b6101a7565b916101a7565b14610e8b565b6111b4336007610f74565b600061116f565b600161116f565b6111ce60016009610ef2565b565b90565b6111e76111e26111ec926111d0565b6105aa565b610315565b90565b6111f8906111d3565b90565b60207f656e7420746f6b656e0000000000000000000000000000000000000000000000917f4552433732313a206f776e657220717565727920666f72206e6f6e657869737460008201520152565b6112566029604092610218565b61125f816111fb565b0190565b6112799060208101906000818303910152611249565b90565b1561128357565b61128b610143565b62461bcd60e51b8152806112a160048201611263565b0390fd5b6112bc6112c1916112b4610d2b565b506002610df6565b610e33565b6112e7816112e06112da6112d560006111ef565b610320565b91610320565b141561127c565b90565b60207f726f206164647265737300000000000000000000000000000000000000000000917f4552433732313a2062616c616e636520717565727920666f7220746865207a6560008201520152565b611345602a604092610218565b61134e816112ea565b0190565b6113689060208101906000818303910152611338565b90565b1561137257565b61137a610143565b62461bcd60e51b81528061139060048201611352565b0390fd5b9061139e906105d5565b600052602052604060002090565b90565b6113bb6113c091610e0e565b6113ac565b90565b6113cd90546113af565b90565b61140d611412916113df610e70565b50611406816113ff6113f96113f460006111ef565b610320565b91610320565b141561136b565b6003611394565b6113c3565b90565b6114439061143e3361143861143261142d6007610e33565b610320565b91610320565b14610e8b565b6114b7565b565b61145961145461145e926111d0565b6105aa565b6102cf565b90565b600161146d91016102cf565b90565b5190565b634e487b7160e01b600052603260045260246000fd5b9061149482611470565b8110156114a5576020809102010190565b611474565b6114b49051610320565b90565b906114c26000611445565b5b806114de6114d86114d386611470565b6102cf565b916102cf565b101561151a5761151590611510600161150b600b61150561150089879061148a565b6114aa565b90610c2b565b610ef2565b611461565b6114c3565b509050565b61152890611415565b565b611532610d04565b5061153d6001610d09565b90565b61156e906115693361156361155d6115586007610e33565b610320565b91610320565b14610e8b565b611570565b565b61157b906007610f74565b565b61158690611540565b565b61159f6115a491611597610d04565b50600a6105e1565b610d09565b90565b906115d6916115d1336115cb6115c56115c06007610e33565b610320565b91610320565b14610e8b565b6115fc565b565b5190565b906115e6826115d8565b8110156115f7576020809102010190565b611474565b9190916116096000611445565b5b8061162561161f61161a85611470565b6102cf565b916102cf565b101561168a57611685906116576001611652600b61164c61164788879061148a565b6114aa565b90610c2b565b610ef2565b61167f61166d61166885849061148a565b6114aa565b6116788784906115dc565b51906119a9565b50611461565b61160a565b50509050565b9061169a916115a7565b565b60207f6e6f6e6578697374656e7420746f6b656e000000000000000000000000000000917f45524337323155524953746f726167653a2055524920717565727920666f722060008201520152565b6116f76031604092610218565b6117008161169c565b0190565b61171a90602081019060008183039101526116ea565b90565b1561172457565b61172c610143565b62461bcd60e51b81528061174260048201611704565b0390fd5b9061175090610dda565b600052602052604060002090565b90565b5190565b905090565b61178f6117869260209261177d81610214565b94858093611765565b93849101610221565b0190565b6117a1906117a7939261176a565b9061176a565b90565b90565b6117b5610d04565b506117c76117c2826118e6565b61171d565b6117db6117d660068390611746565b610d09565b6117e3611a65565b6117f46117ef8261175e565b611761565b6118076118016000611445565b916102cf565b1461187a5761181d6118188361175e565b611761565b61183061182a6000611445565b916102cf565b1161184357505061184090611b23565b90565b611877925061187290611863611857610143565b93849260208401611793565b60208201810382520382610419565b6117aa565b90565b50905090565b9061188a906105d5565b600052602052604060002090565b6118bd916118b36118b8926118ab610c97565b506005611880565b610c2b565b610f49565b90565b6118c8610c97565b506118e26118dc6301ffc9a760e01b610158565b91610158565b1490565b6118fd611902916118f5610c97565b506002610df6565b610e33565b61191d61191761191260006111ef565b610320565b91610320565b141590565b60007f446567726565206973206e6f7420697373756564000000000000000000000000910152565b6119576014602092610218565b61196081611922565b0190565b61197a906020810190600081830391015261194a565b90565b1561198457565b61198c610143565b62461bcd60e51b8152806119a260048201611964565b0390fd5b90565b611a33906119b5610e70565b506119d26119cd6119c8600b8490610c2b565b610f49565b61197d565b6119e46119df60086119a6565b611c25565b611a216119f96119f460086119a6565b611c51565b93611a05838690611dab565b611a10858290611f3b565b611a1c600a84906105e1565b61116f565b611a2e600091600b610c2b565b610ef2565b90565b90611a48611a4383610455565b610440565b918252565b611a576000611a36565b90565b611a62611a4d565b90565b611a6d610d04565b50611a76611a5a565b90565b60207f6e6578697374656e7420746f6b656e0000000000000000000000000000000000917f4552433732314d657461646174613a2055524920717565727920666f72206e6f60008201520152565b611ad4602f604092610218565b611add81611a79565b0190565b611af79060208101906000818303910152611ac7565b90565b15611b0157565b611b09610143565b62461bcd60e51b815280611b1f60048201611ae1565b0390fd5b611b2b610d04565b50611b3d611b38826118e6565b611afa565b611b45611a65565b90611b57611b528361175e565b611761565b611b6a611b646000611445565b916102cf565b11600014611bb257611ba9611b82611bae939261215a565b91611b9a611b8e610143565b93849260208401611793565b60208201810382520382610419565b6117aa565b5b90565b5050611bbc611a5a565b611baf565b90565b611bd8611bd3611bdd92611bc1565b6105aa565b6102cf565b90565b90611beb91016102cf565b90565b90611bfb60001991610ec7565b9181191691161790565b90611c1a611c15611c2192610dda565b610fc8565b8254611bee565b9055565b611c4f90611c496000611c386001611bc4565b920191611c44836113c3565b611be0565b90611c05565b565b6000611c6691611c5f610e70565b50016113c3565b90565b60007f4552433732313a206d696e7420746f20746865207a65726f2061646472657373910152565b611c9d60208092610218565b611ca681611c69565b0190565b611cc09060208101906000818303910152611c91565b90565b15611cca57565b611cd2610143565b62461bcd60e51b815280611ce860048201611caa565b0390fd5b60007f4552433732313a20746f6b656e20616c7265616479206d696e74656400000000910152565b611d21601c602092610218565b611d2a81611cec565b0190565b611d449060208101906000818303910152611d14565b90565b15611d4e57565b611d56610143565b62461bcd60e51b815280611d6c60048201611d2e565b0390fd5b634e487b7160e01b600052601160045260246000fd5b611d95611d9b919392936102cf565b926102cf565b8201809211611da657565b611d70565b90611dd282611dcb611dc5611dc060006111ef565b610320565b91610320565b1415611cc3565b611dec611de7611de1836118e6565b156101a7565b611d47565b611e1d611df96001611bc4565b611e17611e0860038690611394565b91611e12836113c3565b611d86565b90611c05565b611e3282611e2d60028490610df6565b610f74565b611e3c60006111ef565b91611e79611e73611e6d7fddf252ad1be2c89b69c2b068fc378daa952ba7f163c4a11628f55a4df523b3ef956105d5565b926105d5565b92610dda565b92611e82610143565b80611e8c81610789565b0390a4565b60207f6578697374656e7420746f6b656e000000000000000000000000000000000000917f45524337323155524953746f726167653a2055524920736574206f66206e6f6e60008201520152565b611eec602e604092610218565b611ef581611e91565b0190565b611f0f9060208101906000818303910152611edf565b90565b15611f1957565b611f21610143565b62461bcd60e51b815280611f3760048201611ef9565b0390fd5b611f5b611f6092611f53611f4e846118e6565b611f12565b916006611746565b61116f565b565b60007f3000000000000000000000000000000000000000000000000000000000000000910152565b611f946001611a36565b90611fa160208301611f62565b565b611fab611f8a565b90565b611fb7906102cf565b6000198114611fc65760010190565b611d70565b90565b611fe2611fdd611fe792611fcb565b6105aa565b6102cf565b90565b634e487b7160e01b600052601260045260246000fd5b61200c612012916102cf565b916102cf565b90811561201d570490565b611fea565b60018060401b03811161203e5761203a602091610246565b0190565b610403565b9061205561205083612022565b610440565b918252565b369037565b9061208461206c83612043565b9260208061207a8693612022565b920191039061205a565b565b61209561209b919392936102cf565b926102cf565b82039182116120a657565b611d70565b6120b76120bd916102cf565b916102cf565b9081156120c8570690565b611fea565b90565b6120e46120df6120e9926120cd565b6105aa565b6102cf565b90565b60ff1690565b61210661210161210b926102cf565b6105aa565b6120ec565b90565b60ff60f81b1690565b60f81b90565b61213161212c612136926120ec565b612117565b61210e565b90565b9061214382611761565b81101561215557600160209102010190565b611474565b612162610d04565b50806121776121716000611445565b916102cf565b1461226f579081612186610e70565b5b8361219b6121956000611445565b916102cf565b146121c3576121ac6121bd91611fae565b936121b7600a611fce565b90612000565b92612187565b9092506121cf8161205f565b905b836121e56121df6000611445565b916102cf565b146122605761220161225a916121fb6001611bc4565b90612086565b9361223961223461222f603061222a6122248661221e600a611fce565b906120ab565b916120d0565b611d86565b6120f2565b61211d565b6122498491879060001a92612139565b53612254600a611fce565b90612000565b926121d1565b5061226c9192506117aa565b90565b50612278611fa3565b9056fea26469706673582212205aad715afa38812d41784596df7e6b4fdacda6c7980ec60938ece7cd02e5e26b64736f6c63430008180033",
  "devdoc": {
    "events": {
      "Approval(address,address,uint256)": {
        "details": "Emitted when `owner` enables `approved` to manage the `tokenId` token."
      },
      "ApprovalForAll(address,address,bool)": {
        "details": "Emitted when `owner` enables or disables (`approved`) `operator` to manage all of its assets."
      },
      "Transfer(address,address,uint256)": {
        "details": "Emitted when `tokenId` token is transferred from `from` to `to`."
      }
    },
    "kind": "dev",
    "methods": {
      "balanceOf(address)": {
        "details": "See {IERC721-balanceOf}."
      },
      "getApproved(uint256)": {
        "details": "See {IERC721-getApproved}."
      },
      "isApprovedForAll(address,address)": {
        "details": "See {IERC721-isApprovedForAll}."
      },
      "name()": {
        "details": "See {IERC721Metadata-name}."
      },
      "ownerOf(uint256)": {
        "details": "See {IERC721-ownerOf}."
      },
      "supportsInterface(bytes4)": {
        "details": "See {IERC165-supportsInterface}."
      },
      "symbol()": {
        "details": "See {IERC721Metadata-symbol}."
      },
      "tokenURI(uint256)": {
        "details": "See {IERC721Metadata-tokenURI}."
      }
    },
    "version": 1
  },
  "userdoc": {
    "kind": "user",
    "methods": {},
    "version": 1
  },
  "storageLayout": {
    "storage": [
      {
        "astId": 740,
        "contract": "src/BlexSBT.sol:BlexSBT",
        "label": "_name",
        "offset": 0,
        "slot": "0",
        "type": "t_string_storage"
      },
      {
        "astId": 742,
        "contract": "src/BlexSBT.sol:BlexSBT",
        "label": "_symbol",
        "offset": 0,
        "slot": "1",
        "type": "t_string_storage"
      },
      {
        "astId": 746,
        "contract": "src/BlexSBT.sol:BlexSBT",
        "label": "_owners",
        "offset": 0,
        "slot": "2",
        "type": "t_mapping(t_uint256,t_address)"
      },
      {
        "astId": 750,
        "contract": "src/BlexSBT.sol:BlexSBT",
        "label": "_balances",
        "offset": 0,
        "slot": "3",
        "type": "t_mapping(t_address,t_uint256)"
      },
      {
        "astId": 754,
        "contract": "src/BlexSBT.sol:BlexSBT",
        "label": "_tokenApprovals",
        "offset": 0,
        "slot": "4",
        "type": "t_mapping(t_uint256,t_address)"
      },
      {
        "astId": 760,
        "contract": "src/BlexSBT.sol:BlexSBT",
        "label": "_operatorApprovals",
        "offset": 0,
        "slot": "5",
        "type": "t_mapping(t_address,t_mapping(t_address,t_bool))"
      },
      {
        "astId": 1405,
        "contract": "src/BlexSBT.sol:BlexSBT",
        "label": "_tokenURIs",
        "offset": 0,
        "slot": "6",
        "type": "t_mapping(t_uint256,t_string_storage)"
      },
      {
        "astId": 1524,
        "contract": "src/BlexSBT.sol:BlexSBT",
        "label": "contractOwner",
        "offset": 0,
        "slot": "7",
        "type": "t_address"
      },
      {
        "astId": 1531,
        "contract": "src/BlexSBT.sol:BlexSBT",
        "label": "_tokenIds",
        "offset": 0,
        "slot": "8",
        "type": "t_struct(Counter)5_storage"
      },
      {
        "astId": 1534,
        "contract": "src/BlexSBT.sol:BlexSBT",
        "label": "initialized",
        "offset": 0,
        "slot": "9",
        "type": "t_bool"
      },
      {
        "astId": 1538,
        "contract": "src/BlexSBT.sol:BlexSBT",
        "label": "personToDegree",
        "offset": 0,
        "slot": "10",
        "type": "t_mapping(t_address,t_string_storage)"
      },
      {
        "astId": 1542,
        "contract": "src/BlexSBT.sol:BlexSBT",
        "label": "issuedDegrees",
        "offset": 0,
        "slot": "11",
        "type": "t_mapping(t_address,t_bool)"
      }
    ],
    "types": {
      "t_address": {
        "encoding": "inplace",
        "label": "address",
        "numberOfBytes": "20"
      },
      "t_bool": {
        "encoding": "inplace",
        "label": "bool",
        "numberOfBytes": "1"
      },
      "t_mapping(t_address,t_bool)": {
        "encoding": "mapping",
        "key": "t_address",
        "label": "mapping(address => bool)",
        "numberOfBytes": "32",
        "value": "t_bool"
      },
      "t_mapping(t_address,t_mapping(t_address,t_bool))": {
        "encoding": "mapping",
        "key": "t_address",
        "label": "mapping(address => mapping(address => bool))",
        "numberOfBytes": "32",
        "value": "t_mapping(t_address,t_bool)"
      },
      "t_mapping(t_address,t_string_storage)": {
        "encoding": "mapping",
        "key": "t_address",
        "label": "mapping(address => string)",
        "numberOfBytes": "32",
        "value": "t_string_storage"
      },
      "t_mapping(t_address,t_uint256)": {
        "encoding": "mapping",
        "key": "t_address",
        "label": "mapping(address => uint256)",
        "numberOfBytes": "32",
        "value": "t_uint256"
      },
      "t_mapping(t_uint256,t_address)": {
        "encoding": "mapping",
        "key": "t_uint256",
        "label": "mapping(uint256 => address)",
        "numberOfBytes": "32",
        "value": "t_address"
      },
      "t_mapping(t_uint256,t_string_storage)": {
        "encoding": "mapping",
        "key": "t_uint256",
        "label": "mapping(uint256 => string)",
        "numberOfBytes": "32",
        "value": "t_string_storage"
      },
      "t_string_storage": {
        "encoding": "bytes",
        "label": "string",
        "numberOfBytes": "32"
      },
      "t_struct(Counter)5_storage": {
        "encoding": "inplace",
        "label": "struct Counters.Counter",
        "members": [
          {
            "astId": 4,
            "contract": "src/BlexSBT.sol:BlexSBT",
            "label": "_value",
            "offset": 0,
            "slot": "0",
            "type": "t_uint256"
          }
        ],
        "numberOfBytes": "32"
      },
      "t_uint256": {
        "encoding": "inplace",
        "label": "uint256",
        "numberOfBytes": "32"
      }
    }
  }
}