{
  "address": "0x53E25D63672E4a32713ba49259936ba96fe69cd2",
  "abi": [
    {
      "anonymous": false,
      "inputs": [
        {
          "indexed": true,
          "internalType": "address",
          "name": "owner",
          "type": "address"
        },
        {
          "indexed": true,
          "internalType": "address",
          "name": "approved",
          "type": "address"
        },
        {
          "indexed": true,
          "internalType": "uint256",
          "name": "tokenId",
          "type": "uint256"
        }
      ],
      "name": "Approval",
      "type": "event"
    },
    {
      "anonymous": false,
      "inputs": [
        {
          "indexed": true,
          "internalType": "address",
          "name": "owner",
          "type": "address"
        },
        {
          "indexed": true,
          "internalType": "address",
          "name": "operator",
          "type": "address"
        },
        {
          "indexed": false,
          "internalType": "bool",
          "name": "approved",
          "type": "bool"
        }
      ],
      "name": "ApprovalForAll",
      "type": "event"
    },
    {
      "anonymous": false,
      "inputs": [
        {
          "indexed": true,
          "internalType": "address",
          "name": "from",
          "type": "address"
        },
        {
          "indexed": true,
          "internalType": "address",
          "name": "to",
          "type": "address"
        },
        {
          "indexed": true,
          "internalType": "uint256",
          "name": "tokenId",
          "type": "uint256"
        }
      ],
      "name": "Transfer",
      "type": "event"
    },
    {
      "inputs": [
        {
          "internalType": "address",
          "name": "owner",
          "type": "address"
        }
      ],
      "name": "balanceOf",
      "outputs": [
        {
          "internalType": "uint256",
          "name": "",
          "type": "uint256"
        }
      ],
      "stateMutability": "view",
      "type": "function"
    },
    {
      "inputs": [
        {
          "internalType": "address",
          "name": "person",
          "type": "address"
        }
      ],
      "name": "checkDegreeOfPerson",
      "outputs": [
        {
          "internalType": "string",
          "name": "",
          "type": "string"
        }
      ],
      "stateMutability": "view",
      "type": "function"
    },
    {
      "inputs": [
        {
          "internalType": "string",
          "name": "__tokenURI",
          "type": "string"
        }
      ],
      "name": "claimDegree",
      "outputs": [
        {
          "internalType": "uint256",
          "name": "",
          "type": "uint256"
        }
      ],
      "stateMutability": "nonpayable",
      "type": "function"
    },
    {
      "inputs": [
        {
          "internalType": "uint256",
          "name": "tokenId",
          "type": "uint256"
        }
      ],
      "name": "getApproved",
      "outputs": [
        {
          "internalType": "address",
          "name": "",
          "type": "address"
        }
      ],
      "stateMutability": "view",
      "type": "function"
    },
    {
      "inputs": [
        {
          "internalType": "string",
          "name": "name_",
          "type": "string"
        },
        {
          "internalType": "string",
          "name": "symbol_",
          "type": "string"
        }
      ],
      "name": "initialize",
      "outputs": [],
      "stateMutability": "nonpayable",
      "type": "function"
    },
    {
      "inputs": [],
      "name": "initialized",
      "outputs": [
        {
          "internalType": "bool",
          "name": "",
          "type": "bool"
        }
      ],
      "stateMutability": "view",
      "type": "function"
    },
    {
      "inputs": [
        {
          "internalType": "address",
          "name": "owner",
          "type": "address"
        },
        {
          "internalType": "address",
          "name": "operator",
          "type": "address"
        }
      ],
      "name": "isApprovedForAll",
      "outputs": [
        {
          "internalType": "bool",
          "name": "",
          "type": "bool"
        }
      ],
      "stateMutability": "view",
      "type": "function"
    },
    {
      "inputs": [
        {
          "internalType": "address",
          "name": "to",
          "type": "address"
        }
      ],
      "name": "issueDegree",
      "outputs": [],
      "stateMutability": "nonpayable",
      "type": "function"
    },
    {
      "inputs": [
        {
          "internalType": "address[]",
          "name": "tos",
          "type": "address[]"
        }
      ],
      "name": "issueDegrees",
      "outputs": [],
      "stateMutability": "nonpayable",
      "type": "function"
    },
    {
      "inputs": [
        {
          "internalType": "address",
          "name": "",
          "type": "address"
        }
      ],
      "name": "issuedDegrees",
      "outputs": [
        {
          "internalType": "bool",
          "name": "",
          "type": "bool"
        }
      ],
      "stateMutability": "view",
      "type": "function"
    },
    {
      "inputs": [],
      "name": "name",
      "outputs": [
        {
          "internalType": "string",
          "name": "",
          "type": "string"
        }
      ],
      "stateMutability": "view",
      "type": "function"
    },
    {
      "inputs": [
        {
          "internalType": "uint256",
          "name": "tokenId",
          "type": "uint256"
        }
      ],
      "name": "ownerOf",
      "outputs": [
        {
          "internalType": "address",
          "name": "",
          "type": "address"
        }
      ],
      "stateMutability": "view",
      "type": "function"
    },
    {
      "inputs": [
        {
          "internalType": "address",
          "name": "",
          "type": "address"
        }
      ],
      "name": "personToDegree",
      "outputs": [
        {
          "internalType": "string",
          "name": "",
          "type": "string"
        }
      ],
      "stateMutability": "view",
      "type": "function"
    },
    {
      "inputs": [
        {
          "internalType": "bytes4",
          "name": "interfaceId",
          "type": "bytes4"
        }
      ],
      "name": "supportsInterface",
      "outputs": [
        {
          "internalType": "bool",
          "name": "",
          "type": "bool"
        }
      ],
      "stateMutability": "view",
      "type": "function"
    },
    {
      "inputs": [],
      "name": "symbol",
      "outputs": [
        {
          "internalType": "string",
          "name": "",
          "type": "string"
        }
      ],
      "stateMutability": "view",
      "type": "function"
    },
    {
      "inputs": [
        {
          "internalType": "uint256",
          "name": "tokenId",
          "type": "uint256"
        }
      ],
      "name": "tokenURI",
      "outputs": [
        {
          "internalType": "string",
          "name": "",
          "type": "string"
        }
      ],
      "stateMutability": "view",
      "type": "function"
    },
    {
      "inputs": [
        {
          "internalType": "address",
          "name": "newOwner",
          "type": "address"
        }
      ],
      "name": "transferContractOwnership",
      "outputs": [],
      "stateMutability": "nonpayable",
      "type": "function"
    }
  ],
  "transactionHash": "0x924e3130bac09134682f1ede3e0ef2298252ea95aaf9fceff3d1c4e5645ea153",
  "args": [],
  "numDeployments": 1,
  "solcInputHash": "b992bb6aac943ac638b8a3046b829b0c",
  "bytecode": "0x6080604052346200002d576200001462000098565b6200001e62000033565b61205c620000a9823961205c90f35b62000039565b60405190565b600080fd5b60001b90565b906200005260ff916200003e565b9181191691161790565b151590565b6200006c906200005c565b90565b90565b906200008c62000086620000949262000061565b6200006f565b825462000044565b9055565b620000a66000600962000072565b56fe60806040526004361015610013575b610b48565b61001e60003561012d565b806301ffc9a71461012857806306fdde0314610123578063081812fc1461011e578063158ef93e146101195780632db2f4781461011457806337f902f01461010f57806349d89ea41461010a5780634cd88b76146101055780636352211e1461010057806370a08231146100fb57806389ad0554146100f657806395d89b41146100f1578063a843c51f146100ec578063b5d473da146100e7578063c87b56dd146100e2578063e985e9c5146100dd5763f5caa7630361000e57610b13565b610aab565b610a48565b610a13565b6109e0565b6109ab565b610978565b610875565b610840565b61080c565b61077f565b610744565b610522565b6103b4565b61033f565b61028a565b6101bf565b60e01c90565b60405190565b600080fd5b600080fd5b600080fd5b63ffffffff60e01b1690565b61015d81610148565b0361016457565b600080fd5b9050359061017682610154565b565b906020828203126101925761018f91600001610169565b90565b61013e565b151590565b6101a590610197565b9052565b91906101bd9060006020850194019061019c565b565b346101ef576101eb6101da6101d5366004610178565b610b52565b6101e2610133565b918291826101a9565b0390f35b610139565b60009103126101ff57565b61013e565b5190565b60209181520190565b60005b838110610225575050906000910152565b806020918301518185015201610214565b601f801991011690565b61025f61026860209361026d9361025681610204565b93848093610208565b95869101610211565b610236565b0190565b6102879160208201916000818403910152610240565b90565b346102ba5761029a3660046101f4565b6102b66102a5610bcb565b6102ad610133565b91829182610271565b0390f35b610139565b90565b6102cb816102bf565b036102d257565b600080fd5b905035906102e4826102c2565b565b90602082820312610300576102fd916000016102d7565b90565b61013e565b60018060a01b031690565b61031990610305565b90565b61032590610310565b9052565b919061033d9060006020850194019061031c565b565b3461036f5761036b61035a6103553660046102e6565b610cf6565b610362610133565b91829182610329565b0390f35b610139565b1c90565b60ff1690565b61038e9060086103939302610374565b610378565b90565b906103a1915461037e565b90565b6103b16009600090610396565b90565b346103e4576103c43660046101f4565b6103e06103cf6103a4565b6103d7610133565b918291826101a9565b0390f35b610139565b600080fd5b600080fd5b634e487b7160e01b600052604160045260246000fd5b9061041390610236565b810190811060018060401b0382111761042b57604052565b6103f3565b9061044361043c610133565b9283610409565b565b60018060401b0381116104615761045d602091610236565b0190565b6103f3565b90826000939282370152565b9092919261048761048282610445565b610430565b938185526020850190828401116104a3576104a192610466565b565b6103ee565b9080601f830112156104c6578160206104c393359101610472565b90565b6103e9565b906020828203126104fa57600082013560018060401b0381116104f5576104f292016104a8565b90565b610143565b61013e565b610508906102bf565b9052565b9190610520906000602085019401906104ff565b565b346105525761054e61053d6105383660046104cb565b611005565b610545610133565b9182918261050c565b0390f35b610139565b61056081610310565b0361056757565b600080fd5b9050359061057982610557565b565b90602082820312610595576105929160000161056c565b90565b61013e565b90565b6105b16105ac6105b692610305565b61059a565b610305565b90565b6105c29061059d565b90565b6105ce906105b9565b90565b906105db906105c5565b600052602052604060002090565b634e487b7160e01b600052600060045260246000fd5b634e487b7160e01b600052602260045260246000fd5b9060016002830492168015610635575b602083101461063057565b6105ff565b91607f1691610625565b60209181520190565b600052602060002090565b906000929180549061066e61066783610615565b809461063f565b916001811690816000146106c7575060011461068a575b505050565b6106979192939450610648565b916000925b8184106106af5750500190388080610685565b6001816020929593955484860152019101929061069c565b92949550505060ff1916825215156020020190388080610685565b906106ec91610653565b90565b9061070f610708926106ff610133565b938480926106e2565b0383610409565b565b9060001061072557610722906106ef565b90565b6105e9565b6107419061073c600a916000926105d1565b610711565b90565b346107745761077061075f61075a36600461057b565b61072a565b610767610133565b91829182610271565b0390f35b610139565b60000190565b346107ad5761079761079236600461057b565b6110e6565b61079f610133565b806107a981610779565b0390f35b610139565b91909160408184031261080757600081013560018060401b03811161080257836107dd9183016104a8565b92602082013560018060401b0381116107fd576107fa92016104a8565b90565b610143565b610143565b61013e565b3461083b5761082561081f3660046107b2565b9061112f565b61082d610133565b8061083781610779565b0390f35b610139565b346108705761086c61085b6108563660046102e6565b611259565b610863610133565b91829182610329565b0390f35b610139565b346108a5576108a161089061088b36600461057b565b611384565b610898610133565b9182918261050c565b0390f35b610139565b60018060401b0381116108c05760208091020190565b6103f3565b600080fd5b909291926108df6108da826108aa565b610430565b938185526020808601920283019281841161091c57915b8383106109035750505050565b60208091610911848661056c565b8152019201916108f6565b6108c5565b9080601f8301121561093f5781602061093c933591016108ca565b90565b6103e9565b9060208282031261097357600082013560018060401b03811161096e5761096b9201610921565b90565b610143565b61013e565b346109a65761099061098b366004610944565b6114d3565b610998610133565b806109a281610779565b0390f35b610139565b346109db576109bb3660046101f4565b6109d76109c66114de565b6109ce610133565b91829182610271565b0390f35b610139565b34610a0e576109f86109f336600461057b565b611531565b610a00610133565b80610a0a81610779565b0390f35b610139565b34610a4357610a3f610a2e610a2936600461057b565b61153c565b610a36610133565b91829182610271565b0390f35b610139565b34610a7857610a74610a63610a5e3660046102e6565b61166c565b610a6b610133565b91829182610271565b0390f35b610139565b9190604083820312610aa65780610a9a610aa3926000860161056c565b9360200161056c565b90565b61013e565b34610adc57610ad8610ac7610ac1366004610a7d565b90611757565b610acf610133565b918291826101a9565b0390f35b610139565b90610aeb906105c5565b600052602052604060002090565b610b1090610b0b600b91600092610ae1565b610396565b90565b34610b4357610b3f610b2e610b2936600461057b565b610af9565b610b36610133565b918291826101a9565b0390f35b610139565b600080fd5b600090565b610b5a610b4d565b5080610b75610b6f637937ac0b60e11b610148565b91610148565b148015610b99575b908115610b89575b5090565b610b93915061177f565b38610b85565b5080610bb4610bae635b5e139f60e01b610148565b91610148565b14610b7d565b606090565b610bc8906106ef565b90565b610bd3610bba565b50610bde6000610bbf565b90565b600090565b60207f697374656e7420746f6b656e0000000000000000000000000000000000000000917f4552433732313a20617070726f76656420717565727920666f72206e6f6e657860008201520152565b610c41602c604092610208565b610c4a81610be6565b0190565b610c649060208101906000818303910152610c34565b90565b15610c6e57565b610c76610133565b62461bcd60e51b815280610c8c60048201610c4e565b0390fd5b610ca4610c9f610ca9926102bf565b61059a565b6102bf565b90565b90610cb690610c90565b600052602052604060002090565b60001c90565b60018060a01b031690565b610ce1610ce691610cc4565b610cca565b90565b610cf39054610cd5565b90565b610d1e610d2391610d05610be1565b50610d17610d12826117a5565b610c67565b6004610cac565b610ce9565b90565b600090565b610d37610d3c91610cc4565b610378565b90565b610d499054610d2b565b90565b60007f446567726565206973206e6f7420697373756564000000000000000000000000910152565b610d816014602092610208565b610d8a81610d4c565b0190565b610da49060208101906000818303910152610d74565b90565b15610dae57565b610db6610133565b62461bcd60e51b815280610dcc60048201610d8e565b0390fd5b90565b601f602091010490565b1b90565b91906008610dfd910291610df760001984610ddd565b92610ddd565b9181191691161790565b90565b9190610e20610e1b610e2893610c90565b610e07565b908354610de1565b9055565b610e3e91610e38610d26565b91610e0a565b565b5b818110610e4c575050565b80610e5a6000600193610e2c565b01610e41565b9190601f8111610e70575b505050565b610e7c610ea193610648565b906020610e8884610dd3565b83019310610ea9575b610e9a90610dd3565b0190610e40565b388080610e6b565b9150610e9a81929050610e91565b90610ec89060001990600802610374565b191690565b81610ed791610eb7565b906002021790565b90610ee981610204565b9060018060401b038211610fa957610f0b82610f058554610615565b85610e60565b602090601f8311600114610f4057918091610f2f93600092610f34575b5050610ecd565b90555b565b90915001513880610f28565b601f19831691610f4f85610648565b9260005b818110610f9157509160029391856001969410610f77575b50505002019055610f32565b610f87910151601f841690610eb7565b9055388080610f6b565b91936020600181928787015181550195019201610f53565b6103f3565b90610fb891610edf565b565b60001b90565b90610fcc60ff91610fba565b9181191691161790565b610fdf90610197565b90565b90565b90610ffa610ff561100192610fd6565b610fe2565b8254610fc0565b9055565b61100d610d26565b5061102a611025611020600b3390610ae1565b610d3f565b610da7565b61103c6110376008610dd0565b611845565b61107961105161104c6008610dd0565b611871565b9161105d3384906119cb565b611068838290611b5b565b611074600a33906105d1565b610fae565b61108f600061108a600b3390610ae1565b610fe5565b90565b1561109957565b600080fd5b6110cc906110c7336110c16110bb6110b66007610ce9565b610310565b91610310565b14611092565b6110ce565b565b6110e4906110df600191600b610ae1565b610fe5565b565b6110ef9061109e565b565b9061110260018060a01b0391610fba565b9181191691161790565b90565b9061112461111f61112b926105c5565b61110c565b82546110f1565b9055565b9061116f6111769261115d600061115761115161114c6009610d3f565b610197565b91610197565b14611092565b61116833600761110f565b6000610fae565b6001610fae565b61118260016009610fe5565b565b90565b61119b6111966111a092611184565b61059a565b610305565b90565b6111ac90611187565b90565b60207f656e7420746f6b656e0000000000000000000000000000000000000000000000917f4552433732313a206f776e657220717565727920666f72206e6f6e657869737460008201520152565b61120a6029604092610208565b611213816111af565b0190565b61122d90602081019060008183039101526111fd565b90565b1561123757565b61123f610133565b62461bcd60e51b81528061125560048201611217565b0390fd5b61127061127591611268610be1565b506002610cac565b610ce9565b61129b8161129461128e61128960006111a3565b610310565b91610310565b1415611230565b90565b60207f726f206164647265737300000000000000000000000000000000000000000000917f4552433732313a2062616c616e636520717565727920666f7220746865207a6560008201520152565b6112f9602a604092610208565b6113028161129e565b0190565b61131c90602081019060008183039101526112ec565b90565b1561132657565b61132e610133565b62461bcd60e51b81528061134460048201611306565b0390fd5b90611352906105c5565b600052602052604060002090565b90565b61136f61137491610cc4565b611360565b90565b6113819054611363565b90565b6113c16113c691611393610d26565b506113ba816113b36113ad6113a860006111a3565b610310565b91610310565b141561131f565b6003611348565b611377565b90565b6113f7906113f2336113ec6113e66113e16007610ce9565b610310565b91610310565b14611092565b61146b565b565b61140d61140861141292611184565b61059a565b6102bf565b90565b600161142191016102bf565b90565b5190565b634e487b7160e01b600052603260045260246000fd5b9061144882611424565b811015611459576020809102010190565b611428565b6114689051610310565b90565b9061147660006113f9565b5b8061149261148c61148786611424565b6102bf565b916102bf565b10156114ce576114c9906114c460016114bf600b6114b96114b489879061143e565b61145e565b90610ae1565b610fe5565b611415565b611477565b509050565b6114dc906113c9565b565b6114e6610bba565b506114f16001610bbf565b90565b6115229061151d3361151761151161150c6007610ce9565b610310565b91610310565b14611092565b611524565b565b61152f90600761110f565b565b61153a906114f4565b565b6115536115589161154b610bba565b50600a6105d1565b610bbf565b90565b60207f6e6f6e6578697374656e7420746f6b656e000000000000000000000000000000917f45524337323155524953746f726167653a2055524920717565727920666f722060008201520152565b6115b66031604092610208565b6115bf8161155b565b0190565b6115d990602081019060008183039101526115a9565b90565b156115e357565b6115eb610133565b62461bcd60e51b815280611601600482016115c3565b0390fd5b9061160f90610c90565b600052602052604060002090565b90565b5190565b905090565b61164e6116459260209261163c81610204565b94858093611624565b93849101610211565b0190565b611660906116669392611629565b90611629565b90565b90565b611674610bba565b50611686611681826117a5565b6115dc565b61169a61169560068390611605565b610bbf565b6116a2611bb1565b6116b36116ae8261161d565b611620565b6116c66116c060006113f9565b916102bf565b14611739576116dc6116d78361161d565b611620565b6116ef6116e960006113f9565b916102bf565b116117025750506116ff90611c6f565b90565b611736925061173190611722611716610133565b93849260208401611652565b60208201810382520382610409565b611669565b90565b50905090565b90611749906105c5565b600052602052604060002090565b61177c916117726117779261176a610b4d565b50600561173f565b610ae1565b610d3f565b90565b611787610b4d565b506117a161179b6301ffc9a760e01b610148565b91610148565b1490565b6117bc6117c1916117b4610b4d565b506002610cac565b610ce9565b6117dc6117d66117d160006111a3565b610310565b91610310565b141590565b90565b6117f86117f36117fd926117e1565b61059a565b6102bf565b90565b9061180b91016102bf565b90565b9061181b60001991610fba565b9181191691161790565b9061183a61183561184192610c90565b610e07565b825461180e565b9055565b61186f90611869600061185860016117e4565b92019161186483611377565b611800565b90611825565b565b60006118869161187f610d26565b5001611377565b90565b60007f4552433732313a206d696e7420746f20746865207a65726f2061646472657373910152565b6118bd60208092610208565b6118c681611889565b0190565b6118e090602081019060008183039101526118b1565b90565b156118ea57565b6118f2610133565b62461bcd60e51b815280611908600482016118ca565b0390fd5b60007f4552433732313a20746f6b656e20616c7265616479206d696e74656400000000910152565b611941601c602092610208565b61194a8161190c565b0190565b6119649060208101906000818303910152611934565b90565b1561196e57565b611976610133565b62461bcd60e51b81528061198c6004820161194e565b0390fd5b634e487b7160e01b600052601160045260246000fd5b6119b56119bb919392936102bf565b926102bf565b82018092116119c657565b611990565b906119f2826119eb6119e56119e060006111a3565b610310565b91610310565b14156118e3565b611a0c611a07611a01836117a5565b15610197565b611967565b611a3d611a1960016117e4565b611a37611a2860038690611348565b91611a3283611377565b6119a6565b90611825565b611a5282611a4d60028490610cac565b61110f565b611a5c60006111a3565b91611a99611a93611a8d7fddf252ad1be2c89b69c2b068fc378daa952ba7f163c4a11628f55a4df523b3ef956105c5565b926105c5565b92610c90565b92611aa2610133565b80611aac81610779565b0390a4565b60207f6578697374656e7420746f6b656e000000000000000000000000000000000000917f45524337323155524953746f726167653a2055524920736574206f66206e6f6e60008201520152565b611b0c602e604092610208565b611b1581611ab1565b0190565b611b2f9060208101906000818303910152611aff565b90565b15611b3957565b611b41610133565b62461bcd60e51b815280611b5760048201611b19565b0390fd5b611b7b611b8092611b73611b6e846117a5565b611b32565b916006611605565b610fae565b565b90611b94611b8f83610445565b610430565b918252565b611ba36000611b82565b90565b611bae611b99565b90565b611bb9610bba565b50611bc2611ba6565b90565b60207f6e6578697374656e7420746f6b656e0000000000000000000000000000000000917f4552433732314d657461646174613a2055524920717565727920666f72206e6f60008201520152565b611c20602f604092610208565b611c2981611bc5565b0190565b611c439060208101906000818303910152611c13565b90565b15611c4d57565b611c55610133565b62461bcd60e51b815280611c6b60048201611c2d565b0390fd5b611c77610bba565b50611c89611c84826117a5565b611c46565b611c91611bb1565b90611ca3611c9e8361161d565b611620565b611cb6611cb060006113f9565b916102bf565b11600014611cfe57611cf5611cce611cfa9392611f05565b91611ce6611cda610133565b93849260208401611652565b60208201810382520382610409565b611669565b5b90565b5050611d08611ba6565b611cfb565b60007f3000000000000000000000000000000000000000000000000000000000000000910152565b611d3f6001611b82565b90611d4c60208301611d0d565b565b611d56611d35565b90565b611d62906102bf565b6000198114611d715760010190565b611990565b90565b611d8d611d88611d9292611d76565b61059a565b6102bf565b90565b634e487b7160e01b600052601260045260246000fd5b611db7611dbd916102bf565b916102bf565b908115611dc8570490565b611d95565b60018060401b038111611de957611de5602091610236565b0190565b6103f3565b90611e00611dfb83611dcd565b610430565b918252565b369037565b90611e2f611e1783611dee565b92602080611e258693611dcd565b9201910390611e05565b565b611e40611e46919392936102bf565b926102bf565b8203918211611e5157565b611990565b611e62611e68916102bf565b916102bf565b908115611e73570690565b611d95565b90565b611e8f611e8a611e9492611e78565b61059a565b6102bf565b90565b60ff1690565b611eb1611eac611eb6926102bf565b61059a565b611e97565b90565b60ff60f81b1690565b60f81b90565b611edc611ed7611ee192611e97565b611ec2565b611eb9565b90565b90611eee82611620565b811015611f0057600160209102010190565b611428565b611f0d610bba565b5080611f22611f1c60006113f9565b916102bf565b1461201a579081611f31610d26565b5b83611f46611f4060006113f9565b916102bf565b14611f6e57611f57611f6891611d59565b93611f62600a611d79565b90611dab565b92611f32565b909250611f7a81611e0a565b905b83611f90611f8a60006113f9565b916102bf565b1461200b57611fac61200591611fa660016117e4565b90611e31565b93611fe4611fdf611fda6030611fd5611fcf86611fc9600a611d79565b90611e56565b91611e7b565b6119a6565b611e9d565b611ec8565b611ff48491879060001a92611ee4565b53611fff600a611d79565b90611dab565b92611f7c565b50612017919250611669565b90565b50612023611d4e565b9056fea26469706673582212206bb4a313ea36302e08e03f686b5c1240d084436e05cc2ea1a10acaa24e3ddfeb64736f6c63430008180033",
  "devdoc": {
    "events": {
      "Approval(address,address,uint256)": {
        "details": "Emitted when `owner` enables `approved` to manage the `tokenId` token."
      },
      "ApprovalForAll(address,address,bool)": {
        "details": "Emitted when `owner` enables or disables (`approved`) `operator` to manage all of its assets."
      },
      "Transfer(address,address,uint256)": {
        "details": "Emitted when `tokenId` token is transferred from `from` to `to`."
      }
    },
    "kind": "dev",
    "methods": {
      "balanceOf(address)": {
        "details": "See {IERC721-balanceOf}."
      },
      "getApproved(uint256)": {
        "details": "See {IERC721-getApproved}."
      },
      "isApprovedForAll(address,address)": {
        "details": "See {IERC721-isApprovedForAll}."
      },
      "name()": {
        "details": "See {IERC721Metadata-name}."
      },
      "ownerOf(uint256)": {
        "details": "See {IERC721-ownerOf}."
      },
      "supportsInterface(bytes4)": {
        "details": "See {IERC165-supportsInterface}."
      },
      "symbol()": {
        "details": "See {IERC721Metadata-symbol}."
      },
      "tokenURI(uint256)": {
        "details": "See {IERC721Metadata-tokenURI}."
      }
    },
    "version": 1
  },
  "userdoc": {
    "kind": "user",
    "methods": {},
    "version": 1
  },
  "storageLayout": {
    "storage": [
      {
        "astId": 740,
        "contract": "src/BlexSBT.sol:BlexSBT",
        "label": "_name",
        "offset": 0,
        "slot": "0",
        "type": "t_string_storage"
      },
      {
        "astId": 742,
        "contract": "src/BlexSBT.sol:BlexSBT",
        "label": "_symbol",
        "offset": 0,
        "slot": "1",
        "type": "t_string_storage"
      },
      {
        "astId": 746,
        "contract": "src/BlexSBT.sol:BlexSBT",
        "label": "_owners",
        "offset": 0,
        "slot": "2",
        "type": "t_mapping(t_uint256,t_address)"
      },
      {
        "astId": 750,
        "contract": "src/BlexSBT.sol:BlexSBT",
        "label": "_balances",
        "offset": 0,
        "slot": "3",
        "type": "t_mapping(t_address,t_uint256)"
      },
      {
        "astId": 754,
        "contract": "src/BlexSBT.sol:BlexSBT",
        "label": "_tokenApprovals",
        "offset": 0,
        "slot": "4",
        "type": "t_mapping(t_uint256,t_address)"
      },
      {
        "astId": 760,
        "contract": "src/BlexSBT.sol:BlexSBT",
        "label": "_operatorApprovals",
        "offset": 0,
        "slot": "5",
        "type": "t_mapping(t_address,t_mapping(t_address,t_bool))"
      },
      {
        "astId": 1405,
        "contract": "src/BlexSBT.sol:BlexSBT",
        "label": "_tokenURIs",
        "offset": 0,
        "slot": "6",
        "type": "t_mapping(t_uint256,t_string_storage)"
      },
      {
        "astId": 1524,
        "contract": "src/BlexSBT.sol:BlexSBT",
        "label": "contractOwner",
        "offset": 0,
        "slot": "7",
        "type": "t_address"
      },
      {
        "astId": 1531,
        "contract": "src/BlexSBT.sol:BlexSBT",
        "label": "_tokenIds",
        "offset": 0,
        "slot": "8",
        "type": "t_struct(Counter)5_storage"
      },
      {
        "astId": 1534,
        "contract": "src/BlexSBT.sol:BlexSBT",
        "label": "initialized",
        "offset": 0,
        "slot": "9",
        "type": "t_bool"
      },
      {
        "astId": 1538,
        "contract": "src/BlexSBT.sol:BlexSBT",
        "label": "personToDegree",
        "offset": 0,
        "slot": "10",
        "type": "t_mapping(t_address,t_string_storage)"
      },
      {
        "astId": 1542,
        "contract": "src/BlexSBT.sol:BlexSBT",
        "label": "issuedDegrees",
        "offset": 0,
        "slot": "11",
        "type": "t_mapping(t_address,t_bool)"
      }
    ],
    "types": {
      "t_address": {
        "encoding": "inplace",
        "label": "address",
        "numberOfBytes": "20"
      },
      "t_bool": {
        "encoding": "inplace",
        "label": "bool",
        "numberOfBytes": "1"
      },
      "t_mapping(t_address,t_bool)": {
        "encoding": "mapping",
        "key": "t_address",
        "label": "mapping(address => bool)",
        "numberOfBytes": "32",
        "value": "t_bool"
      },
      "t_mapping(t_address,t_mapping(t_address,t_bool))": {
        "encoding": "mapping",
        "key": "t_address",
        "label": "mapping(address => mapping(address => bool))",
        "numberOfBytes": "32",
        "value": "t_mapping(t_address,t_bool)"
      },
      "t_mapping(t_address,t_string_storage)": {
        "encoding": "mapping",
        "key": "t_address",
        "label": "mapping(address => string)",
        "numberOfBytes": "32",
        "value": "t_string_storage"
      },
      "t_mapping(t_address,t_uint256)": {
        "encoding": "mapping",
        "key": "t_address",
        "label": "mapping(address => uint256)",
        "numberOfBytes": "32",
        "value": "t_uint256"
      },
      "t_mapping(t_uint256,t_address)": {
        "encoding": "mapping",
        "key": "t_uint256",
        "label": "mapping(uint256 => address)",
        "numberOfBytes": "32",
        "value": "t_address"
      },
      "t_mapping(t_uint256,t_string_storage)": {
        "encoding": "mapping",
        "key": "t_uint256",
        "label": "mapping(uint256 => string)",
        "numberOfBytes": "32",
        "value": "t_string_storage"
      },
      "t_string_storage": {
        "encoding": "bytes",
        "label": "string",
        "numberOfBytes": "32"
      },
      "t_struct(Counter)5_storage": {
        "encoding": "inplace",
        "label": "struct Counters.Counter",
        "members": [
          {
            "astId": 4,
            "contract": "src/BlexSBT.sol:BlexSBT",
            "label": "_value",
            "offset": 0,
            "slot": "0",
            "type": "t_uint256"
          }
        ],
        "numberOfBytes": "32"
      },
      "t_uint256": {
        "encoding": "inplace",
        "label": "uint256",
        "numberOfBytes": "32"
      }
    }
  }
}